{
  "contractName": "CapperRole",
  "abi": [
    {
      "anonymous": false,
      "inputs": [
        {
          "indexed": true,
          "name": "account",
          "type": "address"
        }
      ],
      "name": "CapperAdded",
      "type": "event"
    },
    {
      "anonymous": false,
      "inputs": [
        {
          "indexed": true,
          "name": "account",
          "type": "address"
        }
      ],
      "name": "CapperRemoved",
      "type": "event"
    },
    {
      "constant": false,
      "inputs": [
        {
          "name": "sender",
          "type": "address"
        }
      ],
      "name": "initialize",
      "outputs": [],
      "payable": false,
      "stateMutability": "nonpayable",
      "type": "function"
    },
    {
      "constant": true,
      "inputs": [
        {
          "name": "account",
          "type": "address"
        }
      ],
      "name": "isCapper",
      "outputs": [
        {
          "name": "",
          "type": "bool"
        }
      ],
      "payable": false,
      "stateMutability": "view",
      "type": "function"
    },
    {
      "constant": false,
      "inputs": [
        {
          "name": "account",
          "type": "address"
        }
      ],
      "name": "addCapper",
      "outputs": [],
      "payable": false,
      "stateMutability": "nonpayable",
      "type": "function"
    },
    {
      "constant": false,
      "inputs": [],
      "name": "renounceCapper",
      "outputs": [],
      "payable": false,
      "stateMutability": "nonpayable",
      "type": "function"
    }
  ],
  "bytecode": "0x608060405234801561001057600080fd5b506105af806100206000396000f300608060405260043610610062576000357c0100000000000000000000000000000000000000000000000000000000900463ffffffff16806339564561146100675780635d5576f8146100c25780638dfbcf36146100d9578063c4d66de81461011c575b600080fd5b34801561007357600080fd5b506100a8600480360381019080803573ffffffffffffffffffffffffffffffffffffffff16906020019092919050505061015f565b604051808215151515815260200191505060405180910390f35b3480156100ce57600080fd5b506100d761017c565b005b3480156100e557600080fd5b5061011a600480360381019080803573ffffffffffffffffffffffffffffffffffffffff169060200190929190505050610187565b005b34801561012857600080fd5b5061015d600480360381019080803573ffffffffffffffffffffffffffffffffffffffff1690602001909291905050506101a7565b005b60006101758260336102f690919063ffffffff16565b9050919050565b6101853361038a565b565b6101903361015f565b151561019b57600080fd5b6101a4816103e4565b50565b60008060019054906101000a900460ff16806101c757506101c661043e565b5b806101de57506000809054906101000a900460ff16155b1515610278576040517f08c379a000000000000000000000000000000000000000000000000000000000815260040180806020018281038252602e8152602001807f436f6e747261637420696e7374616e63652068617320616c726561647920626581526020017f656e20696e697469616c697a656400000000000000000000000000000000000081525060400191505060405180910390fd5b600060019054906101000a900460ff1690506001600060016101000a81548160ff02191690831515021790555060016000806101000a81548160ff0219169083151502179055506102c88261015f565b15156102d8576102d7826103e4565b5b80600060016101000a81548160ff0219169083151502179055505050565b60008073ffffffffffffffffffffffffffffffffffffffff168273ffffffffffffffffffffffffffffffffffffffff161415151561033357600080fd5b8260000160008373ffffffffffffffffffffffffffffffffffffffff1673ffffffffffffffffffffffffffffffffffffffff16815260200190815260200160002060009054906101000a900460ff16905092915050565b61039e81603361044f90919063ffffffff16565b8073ffffffffffffffffffffffffffffffffffffffff167f427400d279c506df610224b22ecce89b693fc1865864113f21c8d19c1f0c2a3b60405160405180910390a250565b6103f88160336104e990919063ffffffff16565b8073ffffffffffffffffffffffffffffffffffffffff167fa7555c95b69d4f5cc847881feb4ab2883a1921319e34fa2043747b793d65b36e60405160405180910390a250565b600080303b90506000811491505090565b600073ffffffffffffffffffffffffffffffffffffffff168173ffffffffffffffffffffffffffffffffffffffff161415151561048b57600080fd5b60008260000160008373ffffffffffffffffffffffffffffffffffffffff1673ffffffffffffffffffffffffffffffffffffffff16815260200190815260200160002060006101000a81548160ff0219169083151502179055505050565b600073ffffffffffffffffffffffffffffffffffffffff168173ffffffffffffffffffffffffffffffffffffffff161415151561052557600080fd5b60018260000160008373ffffffffffffffffffffffffffffffffffffffff1673ffffffffffffffffffffffffffffffffffffffff16815260200190815260200160002060006101000a81548160ff02191690831515021790555050505600a165627a7a72305820a6f0cbfa857b64d381954572d9e653d18da8e7d952d84f4d6764c59d4e72f4510029",
  "source": "pragma solidity ^0.4.24;\n\nimport \"zos-lib/contracts/Initializable.sol\";\nimport \"../Roles.sol\";\n\n\ncontract CapperRole is Initializable {\n  using Roles for Roles.Role;\n\n  event CapperAdded(address indexed account);\n  event CapperRemoved(address indexed account);\n\n  Roles.Role private cappers;\n\n  function initialize(address sender) public initializer {\n    if (!isCapper(sender)) {\n      _addCapper(sender);\n    }\n  }\n\n  modifier onlyCapper() {\n    require(isCapper(msg.sender));\n    _;\n  }\n\n  function isCapper(address account) public view returns (bool) {\n    return cappers.has(account);\n  }\n\n  function addCapper(address account) public onlyCapper {\n    _addCapper(account);\n  }\n\n  function renounceCapper() public {\n    _removeCapper(msg.sender);\n  }\n\n  function _addCapper(address account) internal {\n    cappers.add(account);\n    emit CapperAdded(account);\n  }\n\n  function _removeCapper(address account) internal {\n    cappers.remove(account);\n    emit CapperRemoved(account);\n  }\n\n  uint256[50] private ______gap;\n}\n",
  "sourcePath": "/home/spalladino/Projects/openzeppelin-eth/contracts/access/roles/CapperRole.sol",
  "compiler": {
    "name": "solc",
    "version": "0.4.24+commit.e67f0147.Emscripten.clang"
  },
  "schemaVersion": "2.0.1",
  "updatedAt": "2018-10-22T15:51:22.509Z"
}