{
  "contractName": "CappedCrowdsaleImpl",
  "abi": [
    {
      "constant": true,
      "inputs": [],
      "name": "rate",
      "outputs": [
        {
          "name": "",
          "type": "uint256"
        }
      ],
      "payable": false,
      "stateMutability": "view",
      "type": "function"
    },
    {
      "constant": true,
      "inputs": [],
      "name": "cap",
      "outputs": [
        {
          "name": "",
          "type": "uint256"
        }
      ],
      "payable": false,
      "stateMutability": "view",
      "type": "function"
    },
    {
      "constant": true,
      "inputs": [],
      "name": "weiRaised",
      "outputs": [
        {
          "name": "",
          "type": "uint256"
        }
      ],
      "payable": false,
      "stateMutability": "view",
      "type": "function"
    },
    {
      "constant": true,
      "inputs": [],
      "name": "capReached",
      "outputs": [
        {
          "name": "",
          "type": "bool"
        }
      ],
      "payable": false,
      "stateMutability": "view",
      "type": "function"
    },
    {
      "constant": true,
      "inputs": [],
      "name": "wallet",
      "outputs": [
        {
          "name": "",
          "type": "address"
        }
      ],
      "payable": false,
      "stateMutability": "view",
      "type": "function"
    },
    {
      "constant": false,
      "inputs": [
        {
          "name": "rate",
          "type": "uint256"
        },
        {
          "name": "wallet",
          "type": "address"
        },
        {
          "name": "token",
          "type": "address"
        }
      ],
      "name": "initialize",
      "outputs": [],
      "payable": false,
      "stateMutability": "nonpayable",
      "type": "function"
    },
    {
      "constant": false,
      "inputs": [
        {
          "name": "beneficiary",
          "type": "address"
        }
      ],
      "name": "buyTokens",
      "outputs": [],
      "payable": true,
      "stateMutability": "payable",
      "type": "function"
    },
    {
      "constant": true,
      "inputs": [],
      "name": "token",
      "outputs": [
        {
          "name": "",
          "type": "address"
        }
      ],
      "payable": false,
      "stateMutability": "view",
      "type": "function"
    },
    {
      "constant": false,
      "inputs": [
        {
          "name": "cap",
          "type": "uint256"
        }
      ],
      "name": "initialize",
      "outputs": [],
      "payable": false,
      "stateMutability": "nonpayable",
      "type": "function"
    },
    {
      "inputs": [
        {
          "name": "rate",
          "type": "uint256"
        },
        {
          "name": "wallet",
          "type": "address"
        },
        {
          "name": "token",
          "type": "address"
        },
        {
          "name": "cap",
          "type": "uint256"
        }
      ],
      "payable": false,
      "stateMutability": "nonpayable",
      "type": "constructor"
    },
    {
      "payable": true,
      "stateMutability": "payable",
      "type": "fallback"
    },
    {
      "anonymous": false,
      "inputs": [
        {
          "indexed": true,
          "name": "purchaser",
          "type": "address"
        },
        {
          "indexed": true,
          "name": "beneficiary",
          "type": "address"
        },
        {
          "indexed": false,
          "name": "value",
          "type": "uint256"
        },
        {
          "indexed": false,
          "name": "amount",
          "type": "uint256"
        }
      ],
      "name": "TokensPurchased",
      "type": "event"
    }
  ],
  "bytecode": "0x60806040523480156200001157600080fd5b50604051608080620010f783398101806040528101908080519060200190929190805190602001909291908051906020019092919080519060200190929190505050620000748484846200009d64010000000002620003fc176401000000009004565b6200009381620002fc640100000000026200066e176401000000009004565b5050505062000559565b60008060019054906101000a900460ff1680620000cf5750620000ce62000484640100000000026401000000009004565b5b80620000e757506000809054906101000a900460ff16155b151562000182576040517f08c379a000000000000000000000000000000000000000000000000000000000815260040180806020018281038252602e8152602001807f436f6e747261637420696e7374616e63652068617320616c726561647920626581526020017f656e20696e697469616c697a656400000000000000000000000000000000000081525060400191505060405180910390fd5b600060019054906101000a900460ff1690506001600060016101000a81548160ff02191690831515021790555060016000806101000a81548160ff021916908315150217905550600084111515620001d957600080fd5b600073ffffffffffffffffffffffffffffffffffffffff168373ffffffffffffffffffffffffffffffffffffffff16141515156200021657600080fd5b600073ffffffffffffffffffffffffffffffffffffffff168273ffffffffffffffffffffffffffffffffffffffff16141515156200025357600080fd5b8360358190555082603460006101000a81548173ffffffffffffffffffffffffffffffffffffffff021916908373ffffffffffffffffffffffffffffffffffffffff16021790555081603360006101000a81548173ffffffffffffffffffffffffffffffffffffffff021916908373ffffffffffffffffffffffffffffffffffffffff16021790555080600060016101000a81548160ff02191690831515021790555050505050565b60008060019054906101000a900460ff16806200032e57506200032d62000484640100000000026401000000009004565b5b806200034657506000809054906101000a900460ff16155b1515620003e1576040517f08c379a000000000000000000000000000000000000000000000000000000000815260040180806020018281038252602e8152602001807f436f6e747261637420696e7374616e63652068617320616c726561647920626581526020017f656e20696e697469616c697a656400000000000000000000000000000000000081525060400191505060405180910390fd5b600060019054906101000a900460ff1690506001600060016101000a81548160ff02191690831515021790555060016000806101000a81548160ff021916908315150217905550620004466200049564010000000002620008d3176401000000009004565b15156200044f57fe5b6000821115156200045f57600080fd5b8160698190555080600060016101000a81548160ff0219169083151502179055505050565b600080303b90506000811491505090565b600080603554118015620004f85750600073ffffffffffffffffffffffffffffffffffffffff16603460009054906101000a900473ffffffffffffffffffffffffffffffffffffffff1673ffffffffffffffffffffffffffffffffffffffff1614155b8015620005545750600073ffffffffffffffffffffffffffffffffffffffff16603360009054906101000a900473ffffffffffffffffffffffffffffffffffffffff1673ffffffffffffffffffffffffffffffffffffffff1614155b905090565b610b8e80620005696000396000f300608060405260043610610099576000357c0100000000000000000000000000000000000000000000000000000000900463ffffffff1680632c4e722e146100a4578063355274ea146100cf5780634042b66f146100fa5780634f93594514610125578063521eb27314610154578063b4988fd0146101ab578063ec8ac4d814610218578063fc0c546a1461024e578063fe4b84df146102a5575b6100a2336102d2565b005b3480156100b057600080fd5b506100b96103a0565b6040518082815260200191505060405180910390f35b3480156100db57600080fd5b506100e46103aa565b6040518082815260200191505060405180910390f35b34801561010657600080fd5b5061010f6103b4565b6040518082815260200191505060405180910390f35b34801561013157600080fd5b5061013a6103be565b604051808215151515815260200191505060405180910390f35b34801561016057600080fd5b506101696103d2565b604051808273ffffffffffffffffffffffffffffffffffffffff1673ffffffffffffffffffffffffffffffffffffffff16815260200191505060405180910390f35b3480156101b757600080fd5b5061021660048036038101908080359060200190929190803573ffffffffffffffffffffffffffffffffffffffff169060200190929190803573ffffffffffffffffffffffffffffffffffffffff1690602001909291905050506103fc565b005b61024c600480360381019080803573ffffffffffffffffffffffffffffffffffffffff1690602001909291905050506102d2565b005b34801561025a57600080fd5b50610263610644565b604051808273ffffffffffffffffffffffffffffffffffffffff1673ffffffffffffffffffffffffffffffffffffffff16815260200191505060405180910390f35b3480156102b157600080fd5b506102d06004803603810190808035906020019092919050505061066e565b005b6000803491506102e283836107ca565b6102eb82610802565b90506103028260365461082090919063ffffffff16565b6036819055506103128382610841565b8273ffffffffffffffffffffffffffffffffffffffff163373ffffffffffffffffffffffffffffffffffffffff167f6faf93231a456e552dbc9961f58d9713ee4f2e69d15f1975b050ef0911053a7b8484604051808381526020018281526020019250505060405180910390a3610389838361084f565b610391610853565b61039b83836108be565b505050565b6000603554905090565b6000606954905090565b6000603654905090565b60006069546103cb6103b4565b1015905090565b6000603460009054906101000a900473ffffffffffffffffffffffffffffffffffffffff16905090565b60008060019054906101000a900460ff168061041c575061041b6108c2565b5b8061043357506000809054906101000a900460ff16155b15156104cd576040517f08c379a000000000000000000000000000000000000000000000000000000000815260040180806020018281038252602e8152602001807f436f6e747261637420696e7374616e63652068617320616c726561647920626581526020017f656e20696e697469616c697a656400000000000000000000000000000000000081525060400191505060405180910390fd5b600060019054906101000a900460ff1690506001600060016101000a81548160ff02191690831515021790555060016000806101000a81548160ff02191690831515021790555060008411151561052357600080fd5b600073ffffffffffffffffffffffffffffffffffffffff168373ffffffffffffffffffffffffffffffffffffffff161415151561055f57600080fd5b600073ffffffffffffffffffffffffffffffffffffffff168273ffffffffffffffffffffffffffffffffffffffff161415151561059b57600080fd5b8360358190555082603460006101000a81548173ffffffffffffffffffffffffffffffffffffffff021916908373ffffffffffffffffffffffffffffffffffffffff16021790555081603360006101000a81548173ffffffffffffffffffffffffffffffffffffffff021916908373ffffffffffffffffffffffffffffffffffffffff16021790555080600060016101000a81548160ff02191690831515021790555050505050565b6000603360009054906101000a900473ffffffffffffffffffffffffffffffffffffffff16905090565b60008060019054906101000a900460ff168061068e575061068d6108c2565b5b806106a557506000809054906101000a900460ff16155b151561073f576040517f08c379a000000000000000000000000000000000000000000000000000000000815260040180806020018281038252602e8152602001807f436f6e747261637420696e7374616e63652068617320616c726561647920626581526020017f656e20696e697469616c697a656400000000000000000000000000000000000081525060400191505060405180910390fd5b600060019054906101000a900460ff1690506001600060016101000a81548160ff02191690831515021790555060016000806101000a81548160ff02191690831515021790555061078e6108d3565b151561079657fe5b6000821115156107a557600080fd5b8160698190555080600060016101000a81548160ff0219169083151502179055505050565b6107d48282610995565b6069546107f1826107e36103b4565b61082090919063ffffffff16565b111515156107fe57600080fd5b5050565b6000610819603554836109e590919063ffffffff16565b9050919050565b600080828401905083811015151561083757600080fd5b8091505092915050565b61084b8282610a23565b5050565b5050565b603460009054906101000a900473ffffffffffffffffffffffffffffffffffffffff1673ffffffffffffffffffffffffffffffffffffffff166108fc349081150290604051600060405180830381858888f193505050501580156108bb573d6000803e3d6000fd5b50565b5050565b600080303b90506000811491505090565b6000806035541180156109355750600073ffffffffffffffffffffffffffffffffffffffff16603460009054906101000a900473ffffffffffffffffffffffffffffffffffffffff1673ffffffffffffffffffffffffffffffffffffffff1614155b80156109905750600073ffffffffffffffffffffffffffffffffffffffff16603360009054906101000a900473ffffffffffffffffffffffffffffffffffffffff1673ffffffffffffffffffffffffffffffffffffffff1614155b905090565b600073ffffffffffffffffffffffffffffffffffffffff168273ffffffffffffffffffffffffffffffffffffffff16141515156109d157600080fd5b600081141515156109e157600080fd5b5050565b60008060008414156109fa5760009150610a1c565b8284029050828482811515610a0b57fe5b04141515610a1857600080fd5b8091505b5092915050565b610a708282603360009054906101000a900473ffffffffffffffffffffffffffffffffffffffff1673ffffffffffffffffffffffffffffffffffffffff16610a749092919063ffffffff16565b5050565b8273ffffffffffffffffffffffffffffffffffffffff1663a9059cbb83836040518363ffffffff167c0100000000000000000000000000000000000000000000000000000000028152600401808373ffffffffffffffffffffffffffffffffffffffff1673ffffffffffffffffffffffffffffffffffffffff16815260200182815260200192505050602060405180830381600087803b158015610b1757600080fd5b505af1158015610b2b573d6000803e3d6000fd5b505050506040513d6020811015610b4157600080fd5b81019080805190602001909291905050501515610b5d57600080fd5b5050505600a165627a7a723058200c8122f74f50650ce7f041be626ac4122fb88831a7393f8812faebf5f30deec50029",
  "source": "pragma solidity ^0.4.24;\n\nimport \"../token/ERC20/IERC20.sol\";\nimport \"../crowdsale/validation/CappedCrowdsale.sol\";\n\n\ncontract CappedCrowdsaleImpl is CappedCrowdsale {\n\n  constructor (\n    uint256 rate,\n    address wallet,\n    IERC20 token,\n    uint256 cap\n  )\n    public\n  {\n    Crowdsale.initialize(rate, wallet, token);\n    CappedCrowdsale.initialize(cap);\n  }\n\n}\n",
  "sourcePath": "/home/spalladino/Projects/openzeppelin-eth/contracts/mocks/CappedCrowdsaleImpl.sol",
  "compiler": {
    "name": "solc",
    "version": "0.4.24+commit.e67f0147.Emscripten.clang"
  },
  "schemaVersion": "2.0.1",
  "updatedAt": "2018-10-22T15:51:22.522Z"
}