{
  "contractName": "ECDSAMock",
  "abi": [
    {
      "constant": true,
      "inputs": [
        {
          "name": "hash",
          "type": "bytes32"
        },
        {
          "name": "signature",
          "type": "bytes"
        }
      ],
      "name": "recover",
      "outputs": [
        {
          "name": "",
          "type": "address"
        }
      ],
      "payable": false,
      "stateMutability": "pure",
      "type": "function"
    },
    {
      "constant": true,
      "inputs": [
        {
          "name": "hash",
          "type": "bytes32"
        }
      ],
      "name": "toEthSignedMessageHash",
      "outputs": [
        {
          "name": "",
          "type": "bytes32"
        }
      ],
      "payable": false,
      "stateMutability": "pure",
      "type": "function"
    }
  ],
  "bytecode": "0x608060405234801561001057600080fd5b5061036b806100206000396000f30060806040526004361061004c576000357c0100000000000000000000000000000000000000000000000000000000900463ffffffff16806319045a2514610051578063918a15cf14610108575b600080fd5b34801561005d57600080fd5b506100c66004803603810190808035600019169060200190929190803590602001908201803590602001908080601f0160208091040260200160405190810160405280939291908181526020018383808284378201915050505050509192919290505050610155565b604051808273ffffffffffffffffffffffffffffffffffffffff1673ffffffffffffffffffffffffffffffffffffffff16815260200191505060405180910390f35b34801561011457600080fd5b506101376004803603810190808035600019169060200190929190505050610176565b60405180826000191660001916815260200191505060405180910390f35b600061016e82846000191661018c90919063ffffffff16565b905092915050565b60006101858260001916610284565b9050919050565b600080600080604185511415156101a6576000935061027b565b6020850151925060408501519150606085015160001a9050601b8160ff1610156101d157601b810190505b601b8160ff16141580156101e95750601c8160ff1614155b156101f7576000935061027b565b600186828585604051600081526020016040526040518085600019166000191681526020018460ff1660ff1681526020018360001916600019168152602001826000191660001916815260200194505050505060206040516020810390808403906000865af115801561026e573d6000803e3d6000fd5b5050506020604051035193505b50505092915050565b60008160405160200180807f19457468657265756d205369676e6564204d6573736167653a0a333200000000815250601c0182600019166000191681526020019150506040516020818303038152906040526040518082805190602001908083835b60208310151561030b57805182526020820191506020810190506020830392506102e6565b6001836020036101000a038019825116818451168082178552505050505050905001915050604051809103902090509190505600a165627a7a72305820275be688abe055d3c570a0714d5d5e47553ceb0ea945b2763b620c3214bd38240029",
  "source": "pragma solidity ^0.4.24;\n\nimport \"../cryptography/ECDSA.sol\";\n\n\ncontract ECDSAMock {\n  using ECDSA for bytes32;\n\n  function recover(bytes32 hash, bytes signature)\n    public\n    pure\n    returns (address)\n  {\n    return hash.recover(signature);\n  }\n\n  function toEthSignedMessageHash(bytes32 hash)\n    public\n    pure\n    returns (bytes32)\n  {\n    return hash.toEthSignedMessageHash();\n  }\n}\n",
  "sourcePath": "/home/spalladino/Projects/openzeppelin-eth/contracts/mocks/ECDSAMock.sol",
  "compiler": {
    "name": "solc",
    "version": "0.4.24+commit.e67f0147.Emscripten.clang"
  },
  "schemaVersion": "2.0.1",
  "updatedAt": "2018-10-22T15:51:22.523Z"
}