{
  "contractName": "ERC721PausableMock",
  "abi": [
    {
      "constant": true,
      "inputs": [
        {
          "name": "interfaceId",
          "type": "bytes4"
        }
      ],
      "name": "supportsInterface",
      "outputs": [
        {
          "name": "",
          "type": "bool"
        }
      ],
      "payable": false,
      "stateMutability": "view",
      "type": "function"
    },
    {
      "constant": true,
      "inputs": [
        {
          "name": "tokenId",
          "type": "uint256"
        }
      ],
      "name": "getApproved",
      "outputs": [
        {
          "name": "",
          "type": "address"
        }
      ],
      "payable": false,
      "stateMutability": "view",
      "type": "function"
    },
    {
      "constant": false,
      "inputs": [
        {
          "name": "to",
          "type": "address"
        },
        {
          "name": "tokenId",
          "type": "uint256"
        }
      ],
      "name": "approve",
      "outputs": [],
      "payable": false,
      "stateMutability": "nonpayable",
      "type": "function"
    },
    {
      "constant": false,
      "inputs": [
        {
          "name": "from",
          "type": "address"
        },
        {
          "name": "to",
          "type": "address"
        },
        {
          "name": "tokenId",
          "type": "uint256"
        }
      ],
      "name": "transferFrom",
      "outputs": [],
      "payable": false,
      "stateMutability": "nonpayable",
      "type": "function"
    },
    {
      "constant": true,
      "inputs": [],
      "name": "onlyPauserMock",
      "outputs": [],
      "payable": false,
      "stateMutability": "view",
      "type": "function"
    },
    {
      "constant": false,
      "inputs": [],
      "name": "unpause",
      "outputs": [],
      "payable": false,
      "stateMutability": "nonpayable",
      "type": "function"
    },
    {
      "constant": false,
      "inputs": [
        {
          "name": "from",
          "type": "address"
        },
        {
          "name": "to",
          "type": "address"
        },
        {
          "name": "tokenId",
          "type": "uint256"
        }
      ],
      "name": "safeTransferFrom",
      "outputs": [],
      "payable": false,
      "stateMutability": "nonpayable",
      "type": "function"
    },
    {
      "constant": true,
      "inputs": [
        {
          "name": "account",
          "type": "address"
        }
      ],
      "name": "isPauser",
      "outputs": [
        {
          "name": "",
          "type": "bool"
        }
      ],
      "payable": false,
      "stateMutability": "view",
      "type": "function"
    },
    {
      "constant": true,
      "inputs": [],
      "name": "paused",
      "outputs": [
        {
          "name": "",
          "type": "bool"
        }
      ],
      "payable": false,
      "stateMutability": "view",
      "type": "function"
    },
    {
      "constant": true,
      "inputs": [
        {
          "name": "tokenId",
          "type": "uint256"
        }
      ],
      "name": "ownerOf",
      "outputs": [
        {
          "name": "",
          "type": "address"
        }
      ],
      "payable": false,
      "stateMutability": "view",
      "type": "function"
    },
    {
      "constant": false,
      "inputs": [
        {
          "name": "account",
          "type": "address"
        }
      ],
      "name": "removePauser",
      "outputs": [],
      "payable": false,
      "stateMutability": "nonpayable",
      "type": "function"
    },
    {
      "constant": false,
      "inputs": [],
      "name": "renouncePauser",
      "outputs": [],
      "payable": false,
      "stateMutability": "nonpayable",
      "type": "function"
    },
    {
      "constant": true,
      "inputs": [
        {
          "name": "owner",
          "type": "address"
        }
      ],
      "name": "balanceOf",
      "outputs": [
        {
          "name": "",
          "type": "uint256"
        }
      ],
      "payable": false,
      "stateMutability": "view",
      "type": "function"
    },
    {
      "constant": false,
      "inputs": [],
      "name": "initialize",
      "outputs": [],
      "payable": false,
      "stateMutability": "nonpayable",
      "type": "function"
    },
    {
      "constant": false,
      "inputs": [
        {
          "name": "account",
          "type": "address"
        }
      ],
      "name": "addPauser",
      "outputs": [],
      "payable": false,
      "stateMutability": "nonpayable",
      "type": "function"
    },
    {
      "constant": false,
      "inputs": [],
      "name": "pause",
      "outputs": [],
      "payable": false,
      "stateMutability": "nonpayable",
      "type": "function"
    },
    {
      "constant": false,
      "inputs": [
        {
          "name": "to",
          "type": "address"
        },
        {
          "name": "approved",
          "type": "bool"
        }
      ],
      "name": "setApprovalForAll",
      "outputs": [],
      "payable": false,
      "stateMutability": "nonpayable",
      "type": "function"
    },
    {
      "constant": false,
      "inputs": [
        {
          "name": "from",
          "type": "address"
        },
        {
          "name": "to",
          "type": "address"
        },
        {
          "name": "tokenId",
          "type": "uint256"
        },
        {
          "name": "_data",
          "type": "bytes"
        }
      ],
      "name": "safeTransferFrom",
      "outputs": [],
      "payable": false,
      "stateMutability": "nonpayable",
      "type": "function"
    },
    {
      "constant": false,
      "inputs": [
        {
          "name": "sender",
          "type": "address"
        }
      ],
      "name": "initialize",
      "outputs": [],
      "payable": false,
      "stateMutability": "nonpayable",
      "type": "function"
    },
    {
      "constant": true,
      "inputs": [
        {
          "name": "owner",
          "type": "address"
        },
        {
          "name": "operator",
          "type": "address"
        }
      ],
      "name": "isApprovedForAll",
      "outputs": [
        {
          "name": "",
          "type": "bool"
        }
      ],
      "payable": false,
      "stateMutability": "view",
      "type": "function"
    },
    {
      "inputs": [],
      "payable": false,
      "stateMutability": "nonpayable",
      "type": "constructor"
    },
    {
      "anonymous": false,
      "inputs": [],
      "name": "Paused",
      "type": "event"
    },
    {
      "anonymous": false,
      "inputs": [],
      "name": "Unpaused",
      "type": "event"
    },
    {
      "anonymous": false,
      "inputs": [
        {
          "indexed": true,
          "name": "account",
          "type": "address"
        }
      ],
      "name": "PauserAdded",
      "type": "event"
    },
    {
      "anonymous": false,
      "inputs": [
        {
          "indexed": true,
          "name": "account",
          "type": "address"
        }
      ],
      "name": "PauserRemoved",
      "type": "event"
    },
    {
      "anonymous": false,
      "inputs": [
        {
          "indexed": true,
          "name": "from",
          "type": "address"
        },
        {
          "indexed": true,
          "name": "to",
          "type": "address"
        },
        {
          "indexed": true,
          "name": "tokenId",
          "type": "uint256"
        }
      ],
      "name": "Transfer",
      "type": "event"
    },
    {
      "anonymous": false,
      "inputs": [
        {
          "indexed": true,
          "name": "owner",
          "type": "address"
        },
        {
          "indexed": true,
          "name": "approved",
          "type": "address"
        },
        {
          "indexed": true,
          "name": "tokenId",
          "type": "uint256"
        }
      ],
      "name": "Approval",
      "type": "event"
    },
    {
      "anonymous": false,
      "inputs": [
        {
          "indexed": true,
          "name": "owner",
          "type": "address"
        },
        {
          "indexed": true,
          "name": "operator",
          "type": "address"
        },
        {
          "indexed": false,
          "name": "approved",
          "type": "bool"
        }
      ],
      "name": "ApprovalForAll",
      "type": "event"
    },
    {
      "constant": false,
      "inputs": [
        {
          "name": "to",
          "type": "address"
        },
        {
          "name": "tokenId",
          "type": "uint256"
        }
      ],
      "name": "mint",
      "outputs": [],
      "payable": false,
      "stateMutability": "nonpayable",
      "type": "function"
    },
    {
      "constant": false,
      "inputs": [
        {
          "name": "tokenId",
          "type": "uint256"
        }
      ],
      "name": "burn",
      "outputs": [],
      "payable": false,
      "stateMutability": "nonpayable",
      "type": "function"
    },
    {
      "constant": true,
      "inputs": [
        {
          "name": "tokenId",
          "type": "uint256"
        }
      ],
      "name": "exists",
      "outputs": [
        {
          "name": "",
          "type": "bool"
        }
      ],
      "payable": false,
      "stateMutability": "view",
      "type": "function"
    }
  ],
  "bytecode": "0x6080604052600060cf60006101000a81548160ff0219169083151502179055503480156200002c57600080fd5b506200004c336200008f6401000000000262002032176401000000009004565b6200006a620002156401000000000262000b36176401000000009004565b6200008933620003b96401000000000262000d8a176401000000009004565b62000b7e565b60008060019054906101000a900460ff1680620000c15750620000c06200054c640100000000026401000000009004565b5b80620000d957506000809054906101000a900460ff16155b151562000174576040517f08c379a000000000000000000000000000000000000000000000000000000000815260040180806020018281038252602e8152602001807f436f6e747261637420696e7374616e63652068617320616c726561647920626581526020017f656e20696e697469616c697a656400000000000000000000000000000000000081525060400191505060405180910390fd5b600060019054906101000a900460ff1690506001600060016101000a81548160ff02191690831515021790555060016000806101000a81548160ff021916908315150217905550620001d5826200055d640100000000026401000000009004565b1515620001f757620001f6826200058a640100000000026401000000009004565b5b80600060016101000a81548160ff0219169083151502179055505050565b60008060019054906101000a900460ff1680620002475750620002466200054c640100000000026401000000009004565b5b806200025f57506000809054906101000a900460ff16155b1515620002fa576040517f08c379a000000000000000000000000000000000000000000000000000000000815260040180806020018281038252602e8152602001807f436f6e747261637420696e7374616e63652068617320616c726561647920626581526020017f656e20696e697469616c697a656400000000000000000000000000000000000081525060400191505060405180910390fd5b600060019054906101000a900460ff1690506001600060016101000a81548160ff02191690831515021790555060016000806101000a81548160ff0219169083151502179055506200035f620005f464010000000002620013c1176401000000009004565b6200039c6380ac58cd7c0100000000000000000000000000000000000000000000000000000000026200077a640100000000026401000000009004565b80600060016101000a81548160ff02191690831515021790555050565b60008060019054906101000a900460ff1680620003eb5750620003ea6200054c640100000000026401000000009004565b5b806200040357506000809054906101000a900460ff16155b15156200049e576040517f08c379a000000000000000000000000000000000000000000000000000000000815260040180806020018281038252602e8152602001807f436f6e747261637420696e7374616e63652068617320616c726561647920626581526020017f656e20696e697469616c697a656400000000000000000000000000000000000081525060400191505060405180910390fd5b600060019054906101000a900460ff1690506001600060016101000a81548160ff02191690831515021790555060016000806101000a81548160ff02191690831515021790555062000503620008396401000000000262001998176401000000009004565b15156200050f57600080fd5b6200052e826200087d64010000000002620019cb176401000000009004565b80600060016101000a81548160ff0219169083151502179055505050565b600080303b90506000811491505090565b60006200058382609c620009e66401000000000262001310179091906401000000009004565b9050919050565b620005ae81609c62000a7b6401000000000262001f85179091906401000000009004565b8073ffffffffffffffffffffffffffffffffffffffff167f6719d08c1888103bea251a4ed56406bd0c3e69723c8a1686e017e7bbe159b6f860405160405180910390a250565b60008060019054906101000a900460ff1680620006265750620006256200054c640100000000026401000000009004565b5b806200063e57506000809054906101000a900460ff16155b1515620006d9576040517f08c379a000000000000000000000000000000000000000000000000000000000815260040180806020018281038252602e8152602001807f436f6e747261637420696e7374616e63652068617320616c726561647920626581526020017f656e20696e697469616c697a656400000000000000000000000000000000000081525060400191505060405180910390fd5b600060019054906101000a900460ff1690506001600060016101000a81548160ff02191690831515021790555060016000806101000a81548160ff0219169083151502179055506200075d6301ffc9a77c0100000000000000000000000000000000000000000000000000000000026200077a640100000000026401000000009004565b80600060016101000a81548160ff02191690831515021790555050565b63ffffffff7c010000000000000000000000000000000000000000000000000000000002817bffffffffffffffffffffffffffffffffffffffffffffffffffffffff191614151515620007cc57600080fd5b600160336000837bffffffffffffffffffffffffffffffffffffffffffffffffffffffff19167bffffffffffffffffffffffffffffffffffffffffffffffffffffffff1916815260200190815260200160002060006101000a81548160ff02191690831515021790555050565b6000620008786380ac58cd7c01000000000000000000000000000000000000000000000000000000000262000b16640100000000026401000000009004565b905090565b60008060019054906101000a900460ff1680620008af5750620008ae6200054c640100000000026401000000009004565b5b80620008c757506000809054906101000a900460ff16155b151562000962576040517f08c379a000000000000000000000000000000000000000000000000000000000815260040180806020018281038252602e8152602001807f436f6e747261637420696e7374616e63652068617320616c726561647920626581526020017f656e20696e697469616c697a656400000000000000000000000000000000000081525060400191505060405180910390fd5b600060019054906101000a900460ff1690506001600060016101000a81548160ff02191690831515021790555060016000806101000a81548160ff021916908315150217905550620009c8826200008f6401000000000262002032176401000000009004565b80600060016101000a81548160ff0219169083151502179055505050565b60008073ffffffffffffffffffffffffffffffffffffffff168273ffffffffffffffffffffffffffffffffffffffff161415151562000a2457600080fd5b8260000160008373ffffffffffffffffffffffffffffffffffffffff1673ffffffffffffffffffffffffffffffffffffffff16815260200190815260200160002060009054906101000a900460ff16905092915050565b600073ffffffffffffffffffffffffffffffffffffffff168173ffffffffffffffffffffffffffffffffffffffff161415151562000ab857600080fd5b60018260000160008373ffffffffffffffffffffffffffffffffffffffff1673ffffffffffffffffffffffffffffffffffffffff16815260200190815260200160002060006101000a81548160ff0219169083151502179055505050565b600060336000837bffffffffffffffffffffffffffffffffffffffffffffffffffffffff19167bffffffffffffffffffffffffffffffffffffffffffffffffffffffff1916815260200190815260200160002060009054906101000a900460ff169050919050565b6122898062000b8e6000396000f300608060405260043610610133576000357c0100000000000000000000000000000000000000000000000000000000900463ffffffff16806301ffc9a714610138578063081812fc1461019c578063095ea7b31461020957806323b872dd14610256578063329daf90146102c35780633f4ba83a146102da57806340c10f19146102f157806342842e0e1461033e57806342966c68146103ab57806346fbf68e146103d85780634f558e79146104335780635c975abb146104785780636352211e146104a75780636b2c0f55146105145780636ef8d66d1461055757806370a082311461056e5780638129fc1c146105c557806382dc1ec4146105dc5780638456cb591461061f578063a22cb46514610636578063b88d4fde14610685578063c4d66de814610738578063e985e9c51461077b575b600080fd5b34801561014457600080fd5b5061018260048036038101908080357bffffffffffffffffffffffffffffffffffffffffffffffffffffffff191690602001909291905050506107f6565b604051808215151515815260200191505060405180910390f35b3480156101a857600080fd5b506101c76004803603810190808035906020019092919050505061085e565b604051808273ffffffffffffffffffffffffffffffffffffffff1673ffffffffffffffffffffffffffffffffffffffff16815260200191505060405180910390f35b34801561021557600080fd5b50610254600480360381019080803573ffffffffffffffffffffffffffffffffffffffff169060200190929190803590602001909291905050506108af565b005b34801561026257600080fd5b506102c1600480360381019080803573ffffffffffffffffffffffffffffffffffffffff169060200190929190803573ffffffffffffffffffffffffffffffffffffffff169060200190929190803590602001909291905050506108d9565b005b3480156102cf57600080fd5b506102d8610905565b005b3480156102e657600080fd5b506102ef61091b565b005b3480156102fd57600080fd5b5061033c600480360381019080803573ffffffffffffffffffffffffffffffffffffffff16906020019092919080359060200190929190505050610993565b005b34801561034a57600080fd5b506103a9600480360381019080803573ffffffffffffffffffffffffffffffffffffffff169060200190929190803573ffffffffffffffffffffffffffffffffffffffff169060200190929190803590602001909291905050506109a1565b005b3480156103b757600080fd5b506103d6600480360381019080803590602001909291905050506109c2565b005b3480156103e457600080fd5b50610419600480360381019080803573ffffffffffffffffffffffffffffffffffffffff1690602001909291905050506109d7565b604051808215151515815260200191505060405180910390f35b34801561043f57600080fd5b5061045e600480360381019080803590602001909291905050506109f4565b604051808215151515815260200191505060405180910390f35b34801561048457600080fd5b5061048d610a06565b604051808215151515815260200191505060405180910390f35b3480156104b357600080fd5b506104d260048036038101908080359060200190929190505050610a1d565b604051808273ffffffffffffffffffffffffffffffffffffffff1673ffffffffffffffffffffffffffffffffffffffff16815260200191505060405180910390f35b34801561052057600080fd5b50610555600480360381019080803573ffffffffffffffffffffffffffffffffffffffff169060200190929190505050610a9b565b005b34801561056357600080fd5b5061056c610aa7565b005b34801561057a57600080fd5b506105af600480360381019080803573ffffffffffffffffffffffffffffffffffffffff169060200190929190505050610ab2565b6040518082815260200191505060405180910390f35b3480156105d157600080fd5b506105da610b36565b005b3480156105e857600080fd5b5061061d600480360381019080803573ffffffffffffffffffffffffffffffffffffffff169060200190929190505050610c9f565b005b34801561062b57600080fd5b50610634610cbf565b005b34801561064257600080fd5b50610683600480360381019080803573ffffffffffffffffffffffffffffffffffffffff169060200190929190803515159060200190929190505050610d38565b005b34801561069157600080fd5b50610736600480360381019080803573ffffffffffffffffffffffffffffffffffffffff169060200190929190803573ffffffffffffffffffffffffffffffffffffffff16906020019092919080359060200190929190803590602001908201803590602001908080601f0160208091040260200160405190810160405280939291908181526020018383808284378201915050505050509192919290505050610d62565b005b34801561074457600080fd5b50610779600480360381019080803573ffffffffffffffffffffffffffffffffffffffff169060200190929190505050610d8a565b005b34801561078757600080fd5b506107dc600480360381019080803573ffffffffffffffffffffffffffffffffffffffff169060200190929190803573ffffffffffffffffffffffffffffffffffffffff169060200190929190505050610edc565b604051808215151515815260200191505060405180910390f35b600060336000837bffffffffffffffffffffffffffffffffffffffffffffffffffffffff19167bffffffffffffffffffffffffffffffffffffffffffffffffffffffff1916815260200190815260200160002060009054906101000a900460ff169050919050565b600061086982610f70565b151561087457600080fd5b6067600083815260200190815260200160002060009054906101000a900473ffffffffffffffffffffffffffffffffffffffff169050919050565b60cf60009054906101000a900460ff161515156108cb57600080fd5b6108d58282610fe2565b5050565b60cf60009054906101000a900460ff161515156108f557600080fd5b610900838383611127565b505050565b61090e336109d7565b151561091957600080fd5b565b610924336109d7565b151561092f57600080fd5b60cf60009054906101000a900460ff16151561094a57600080fd5b600060cf60006101000a81548160ff0219169083151502179055507fa45f47fdea8a1efdd9029a5691c7f759c32b7c698632b563573e155625d1693360405160405180910390a1565b61099d82826111f6565b5050565b6109bd8383836020604051908101604052806000815250610d62565b505050565b6109d46109ce82610a1d565b8261129c565b50565b60006109ed82609c61131090919063ffffffff16565b9050919050565b60006109ff82610f70565b9050919050565b600060cf60009054906101000a900460ff16905090565b6000806066600084815260200190815260200160002060009054906101000a900473ffffffffffffffffffffffffffffffffffffffff169050600073ffffffffffffffffffffffffffffffffffffffff168173ffffffffffffffffffffffffffffffffffffffff1614151515610a9257600080fd5b80915050919050565b610aa4816113a4565b50565b610ab0336113a4565b565b60008073ffffffffffffffffffffffffffffffffffffffff168273ffffffffffffffffffffffffffffffffffffffff1614151515610aef57600080fd5b606860008373ffffffffffffffffffffffffffffffffffffffff1673ffffffffffffffffffffffffffffffffffffffff168152602001908152602001600020549050919050565b60008060019054906101000a900460ff1680610b565750610b556113b0565b5b80610b6d57506000809054906101000a900460ff16155b1515610c07576040517f08c379a000000000000000000000000000000000000000000000000000000000815260040180806020018281038252602e8152602001807f436f6e747261637420696e7374616e63652068617320616c726561647920626581526020017f656e20696e697469616c697a656400000000000000000000000000000000000081525060400191505060405180910390fd5b600060019054906101000a900460ff1690506001600060016101000a81548160ff02191690831515021790555060016000806101000a81548160ff021916908315150217905550610c566113c1565b610c826380ac58cd7c010000000000000000000000000000000000000000000000000000000002611522565b80600060016101000a81548160ff02191690831515021790555050565b610ca8336109d7565b1515610cb357600080fd5b610cbc816115e0565b50565b610cc8336109d7565b1515610cd357600080fd5b60cf60009054906101000a900460ff16151515610cef57600080fd5b600160cf60006101000a81548160ff0219169083151502179055507f9e87fac88ff661f02d44f95383c817fece4bce600a3dab7a54406878b965e75260405160405180910390a1565b60cf60009054906101000a900460ff16151515610d5457600080fd5b610d5e828261163a565b5050565b610d6d8484846108d9565b610d7984848484611776565b1515610d8457600080fd5b50505050565b60008060019054906101000a900460ff1680610daa5750610da96113b0565b5b80610dc157506000809054906101000a900460ff16155b1515610e5b576040517f08c379a000000000000000000000000000000000000000000000000000000000815260040180806020018281038252602e8152602001807f436f6e747261637420696e7374616e63652068617320616c726561647920626581526020017f656e20696e697469616c697a656400000000000000000000000000000000000081525060400191505060405180910390fd5b600060019054906101000a900460ff1690506001600060016101000a81548160ff02191690831515021790555060016000806101000a81548160ff021916908315150217905550610eaa611998565b1515610eb557600080fd5b610ebe826119cb565b80600060016101000a81548160ff0219169083151502179055505050565b6000606960008473ffffffffffffffffffffffffffffffffffffffff1673ffffffffffffffffffffffffffffffffffffffff16815260200190815260200160002060008373ffffffffffffffffffffffffffffffffffffffff1673ffffffffffffffffffffffffffffffffffffffff16815260200190815260200160002060009054906101000a900460ff16905092915050565b6000806066600084815260200190815260200160002060009054906101000a900473ffffffffffffffffffffffffffffffffffffffff169050600073ffffffffffffffffffffffffffffffffffffffff168173ffffffffffffffffffffffffffffffffffffffff161415915050919050565b6000610fed82610a1d565b90508073ffffffffffffffffffffffffffffffffffffffff168373ffffffffffffffffffffffffffffffffffffffff161415151561102a57600080fd5b8073ffffffffffffffffffffffffffffffffffffffff163373ffffffffffffffffffffffffffffffffffffffff16148061106a57506110698133610edc565b5b151561107557600080fd5b826067600084815260200190815260200160002060006101000a81548173ffffffffffffffffffffffffffffffffffffffff021916908373ffffffffffffffffffffffffffffffffffffffff160217905550818373ffffffffffffffffffffffffffffffffffffffff168273ffffffffffffffffffffffffffffffffffffffff167f8c5be1e5ebec7d5bd14f71427d1e84f3dd0314c0f7b2291e5b200ac8c7c3b92560405160405180910390a4505050565b6111313382611b0a565b151561113c57600080fd5b600073ffffffffffffffffffffffffffffffffffffffff168273ffffffffffffffffffffffffffffffffffffffff161415151561117857600080fd5b6111828382611b9f565b61118c8382611ca2565b6111968282611dd1565b808273ffffffffffffffffffffffffffffffffffffffff168473ffffffffffffffffffffffffffffffffffffffff167fddf252ad1be2c89b69c2b068fc378daa952ba7f163c4a11628f55a4df523b3ef60405160405180910390a4505050565b600073ffffffffffffffffffffffffffffffffffffffff168273ffffffffffffffffffffffffffffffffffffffff161415151561123257600080fd5b61123c8282611dd1565b808273ffffffffffffffffffffffffffffffffffffffff16600073ffffffffffffffffffffffffffffffffffffffff167fddf252ad1be2c89b69c2b068fc378daa952ba7f163c4a11628f55a4df523b3ef60405160405180910390a45050565b6112a68282611b9f565b6112b08282611ca2565b80600073ffffffffffffffffffffffffffffffffffffffff168373ffffffffffffffffffffffffffffffffffffffff167fddf252ad1be2c89b69c2b068fc378daa952ba7f163c4a11628f55a4df523b3ef60405160405180910390a45050565b60008073ffffffffffffffffffffffffffffffffffffffff168273ffffffffffffffffffffffffffffffffffffffff161415151561134d57600080fd5b8260000160008373ffffffffffffffffffffffffffffffffffffffff1673ffffffffffffffffffffffffffffffffffffffff16815260200190815260200160002060009054906101000a900460ff16905092915050565b6113ad81611f2b565b50565b600080303b90506000811491505090565b60008060019054906101000a900460ff16806113e157506113e06113b0565b5b806113f857506000809054906101000a900460ff16155b1515611492576040517f08c379a000000000000000000000000000000000000000000000000000000000815260040180806020018281038252602e8152602001807f436f6e747261637420696e7374616e63652068617320616c726561647920626581526020017f656e20696e697469616c697a656400000000000000000000000000000000000081525060400191505060405180910390fd5b600060019054906101000a900460ff1690506001600060016101000a81548160ff02191690831515021790555060016000806101000a81548160ff0219169083151502179055506115056301ffc9a77c010000000000000000000000000000000000000000000000000000000002611522565b80600060016101000a81548160ff02191690831515021790555050565b63ffffffff7c010000000000000000000000000000000000000000000000000000000002817bffffffffffffffffffffffffffffffffffffffffffffffffffffffff19161415151561157357600080fd5b600160336000837bffffffffffffffffffffffffffffffffffffffffffffffffffffffff19167bffffffffffffffffffffffffffffffffffffffffffffffffffffffff1916815260200190815260200160002060006101000a81548160ff02191690831515021790555050565b6115f481609c611f8590919063ffffffff16565b8073ffffffffffffffffffffffffffffffffffffffff167f6719d08c1888103bea251a4ed56406bd0c3e69723c8a1686e017e7bbe159b6f860405160405180910390a250565b3373ffffffffffffffffffffffffffffffffffffffff168273ffffffffffffffffffffffffffffffffffffffff161415151561167557600080fd5b80606960003373ffffffffffffffffffffffffffffffffffffffff1673ffffffffffffffffffffffffffffffffffffffff16815260200190815260200160002060008473ffffffffffffffffffffffffffffffffffffffff1673ffffffffffffffffffffffffffffffffffffffff16815260200190815260200160002060006101000a81548160ff0219169083151502179055508173ffffffffffffffffffffffffffffffffffffffff163373ffffffffffffffffffffffffffffffffffffffff167f17307eab39ab6107e8899845ad3d59bd9653f200f220920489ca2b5937696c3183604051808215151515815260200191505060405180910390a35050565b6000806117988573ffffffffffffffffffffffffffffffffffffffff1661201f565b15156117a7576001915061198f565b8473ffffffffffffffffffffffffffffffffffffffff1663150b7a02338887876040518563ffffffff167c0100000000000000000000000000000000000000000000000000000000028152600401808573ffffffffffffffffffffffffffffffffffffffff1673ffffffffffffffffffffffffffffffffffffffff1681526020018473ffffffffffffffffffffffffffffffffffffffff1673ffffffffffffffffffffffffffffffffffffffff16815260200183815260200180602001828103825283818151815260200191508051906020019080838360005b8381101561189c578082015181840152602081019050611881565b50505050905090810190601f1680156118c95780820380516001836020036101000a031916815260200191505b5095505050505050602060405180830381600087803b1580156118eb57600080fd5b505af11580156118ff573d6000803e3d6000fd5b505050506040513d602081101561191557600080fd5b8101908080519060200190929190505050905063150b7a027c0100000000000000000000000000000000000000000000000000000000027bffffffffffffffffffffffffffffffffffffffffffffffffffffffff1916817bffffffffffffffffffffffffffffffffffffffffffffffffffffffff19161491505b50949350505050565b60006119c66380ac58cd7c0100000000000000000000000000000000000000000000000000000000026107f6565b905090565b60008060019054906101000a900460ff16806119eb57506119ea6113b0565b5b80611a0257506000809054906101000a900460ff16155b1515611a9c576040517f08c379a000000000000000000000000000000000000000000000000000000000815260040180806020018281038252602e8152602001807f436f6e747261637420696e7374616e63652068617320616c726561647920626581526020017f656e20696e697469616c697a656400000000000000000000000000000000000081525060400191505060405180910390fd5b600060019054906101000a900460ff1690506001600060016101000a81548160ff02191690831515021790555060016000806101000a81548160ff021916908315150217905550611aec82612032565b80600060016101000a81548160ff0219169083151502179055505050565b600080611b1683610a1d565b90508073ffffffffffffffffffffffffffffffffffffffff168473ffffffffffffffffffffffffffffffffffffffff161480611b8557508373ffffffffffffffffffffffffffffffffffffffff16611b6d8461085e565b73ffffffffffffffffffffffffffffffffffffffff16145b80611b965750611b958185610edc565b5b91505092915050565b8173ffffffffffffffffffffffffffffffffffffffff16611bbf82610a1d565b73ffffffffffffffffffffffffffffffffffffffff16141515611be157600080fd5b600073ffffffffffffffffffffffffffffffffffffffff166067600083815260200190815260200160002060009054906101000a900473ffffffffffffffffffffffffffffffffffffffff1673ffffffffffffffffffffffffffffffffffffffff16141515611c9e5760006067600083815260200190815260200160002060006101000a81548173ffffffffffffffffffffffffffffffffffffffff021916908373ffffffffffffffffffffffffffffffffffffffff1602179055505b5050565b8173ffffffffffffffffffffffffffffffffffffffff16611cc282610a1d565b73ffffffffffffffffffffffffffffffffffffffff16141515611ce457600080fd5b611d376001606860008573ffffffffffffffffffffffffffffffffffffffff1673ffffffffffffffffffffffffffffffffffffffff1681526020019081526020016000205461218190919063ffffffff16565b606860008473ffffffffffffffffffffffffffffffffffffffff1673ffffffffffffffffffffffffffffffffffffffff1681526020019081526020016000208190555060006066600083815260200190815260200160002060006101000a81548173ffffffffffffffffffffffffffffffffffffffff021916908373ffffffffffffffffffffffffffffffffffffffff1602179055505050565b600073ffffffffffffffffffffffffffffffffffffffff166066600083815260200190815260200160002060009054906101000a900473ffffffffffffffffffffffffffffffffffffffff1673ffffffffffffffffffffffffffffffffffffffff16141515611e3f57600080fd5b816066600083815260200190815260200160002060006101000a81548173ffffffffffffffffffffffffffffffffffffffff021916908373ffffffffffffffffffffffffffffffffffffffff160217905550611ee46001606860008573ffffffffffffffffffffffffffffffffffffffff1673ffffffffffffffffffffffffffffffffffffffff168152602001908152602001600020546121a290919063ffffffff16565b606860008473ffffffffffffffffffffffffffffffffffffffff1673ffffffffffffffffffffffffffffffffffffffff168152602001908152602001600020819055505050565b611f3f81609c6121c390919063ffffffff16565b8073ffffffffffffffffffffffffffffffffffffffff167fcd265ebaf09df2871cc7bd4133404a235ba12eff2041bb89d9c714a2621c7c7e60405160405180910390a250565b600073ffffffffffffffffffffffffffffffffffffffff168173ffffffffffffffffffffffffffffffffffffffff1614151515611fc157600080fd5b60018260000160008373ffffffffffffffffffffffffffffffffffffffff1673ffffffffffffffffffffffffffffffffffffffff16815260200190815260200160002060006101000a81548160ff0219169083151502179055505050565b600080823b905060008111915050919050565b60008060019054906101000a900460ff168061205257506120516113b0565b5b8061206957506000809054906101000a900460ff16155b1515612103576040517f08c379a000000000000000000000000000000000000000000000000000000000815260040180806020018281038252602e8152602001807f436f6e747261637420696e7374616e63652068617320616c726561647920626581526020017f656e20696e697469616c697a656400000000000000000000000000000000000081525060400191505060405180910390fd5b600060019054906101000a900460ff1690506001600060016101000a81548160ff02191690831515021790555060016000806101000a81548160ff021916908315150217905550612153826109d7565b151561216357612162826115e0565b5b80600060016101000a81548160ff0219169083151502179055505050565b60008083831115151561219357600080fd5b82840390508091505092915050565b60008082840190508381101515156121b957600080fd5b8091505092915050565b600073ffffffffffffffffffffffffffffffffffffffff168173ffffffffffffffffffffffffffffffffffffffff16141515156121ff57600080fd5b60008260000160008373ffffffffffffffffffffffffffffffffffffffff1673ffffffffffffffffffffffffffffffffffffffff16815260200190815260200160002060006101000a81548160ff02191690831515021790555050505600a165627a7a723058204b95138002a7c2eacc92916423a72c375d9d4d5424bf0834dfede1d272f760680029",
  "source": "pragma solidity ^0.4.24;\n\nimport \"../token/ERC721/ERC721Pausable.sol\";\nimport \"./PauserRoleMock.sol\";\n\n\n/**\n * @title ERC721PausableMock\n * This mock just provides a public mint, burn and exists functions for testing purposes\n */\ncontract ERC721PausableMock is ERC721Pausable, PauserRoleMock {\n  constructor() {\n    ERC721.initialize();\n    ERC721Pausable.initialize(msg.sender);\n  }\n\n  function mint(address to, uint256 tokenId) public {\n    super._mint(to, tokenId);\n  }\n\n  function burn(uint256 tokenId) public {\n    super._burn(ownerOf(tokenId), tokenId);\n  }\n\n  function exists(uint256 tokenId) public view returns (bool) {\n    return super._exists(tokenId);\n  }\n}\n",
  "sourcePath": "/home/spalladino/Projects/openzeppelin-eth/contracts/mocks/ERC721PausableMock.sol",
  "compiler": {
    "name": "solc",
    "version": "0.4.24+commit.e67f0147.Emscripten.clang"
  },
  "schemaVersion": "2.0.1",
  "updatedAt": "2018-10-22T15:51:22.526Z"
}