{
  "contractName": "PauserRoleMock",
  "abi": [
    {
      "constant": true,
      "inputs": [
        {
          "name": "account",
          "type": "address"
        }
      ],
      "name": "isPauser",
      "outputs": [
        {
          "name": "",
          "type": "bool"
        }
      ],
      "payable": false,
      "stateMutability": "view",
      "type": "function"
    },
    {
      "constant": false,
      "inputs": [],
      "name": "renouncePauser",
      "outputs": [],
      "payable": false,
      "stateMutability": "nonpayable",
      "type": "function"
    },
    {
      "constant": false,
      "inputs": [
        {
          "name": "account",
          "type": "address"
        }
      ],
      "name": "addPauser",
      "outputs": [],
      "payable": false,
      "stateMutability": "nonpayable",
      "type": "function"
    },
    {
      "constant": false,
      "inputs": [
        {
          "name": "sender",
          "type": "address"
        }
      ],
      "name": "initialize",
      "outputs": [],
      "payable": false,
      "stateMutability": "nonpayable",
      "type": "function"
    },
    {
      "inputs": [],
      "payable": false,
      "stateMutability": "nonpayable",
      "type": "constructor"
    },
    {
      "anonymous": false,
      "inputs": [
        {
          "indexed": true,
          "name": "account",
          "type": "address"
        }
      ],
      "name": "PauserAdded",
      "type": "event"
    },
    {
      "anonymous": false,
      "inputs": [
        {
          "indexed": true,
          "name": "account",
          "type": "address"
        }
      ],
      "name": "PauserRemoved",
      "type": "event"
    },
    {
      "constant": false,
      "inputs": [
        {
          "name": "account",
          "type": "address"
        }
      ],
      "name": "removePauser",
      "outputs": [],
      "payable": false,
      "stateMutability": "nonpayable",
      "type": "function"
    },
    {
      "constant": true,
      "inputs": [],
      "name": "onlyPauserMock",
      "outputs": [],
      "payable": false,
      "stateMutability": "view",
      "type": "function"
    }
  ],
  "bytecode": "0x608060405234801561001057600080fd5b5061002d3361003264010000000002610239176401000000009004565b61037e565b60008060019054906101000a900460ff168061006157506100606101ae640100000000026401000000009004565b5b8061007857506000809054906101000a900460ff16155b1515610112576040517f08c379a000000000000000000000000000000000000000000000000000000000815260040180806020018281038252602e8152602001807f436f6e747261637420696e7374616e63652068617320616c726561647920626581526020017f656e20696e697469616c697a656400000000000000000000000000000000000081525060400191505060405180910390fd5b600060019054906101000a900460ff1690506001600060016101000a81548160ff02191690831515021790555060016000806101000a81548160ff021916908315150217905550610171826101bf640100000000026401000000009004565b15156101905761018f826101e9640100000000026401000000009004565b5b80600060016101000a81548160ff0219169083151502179055505050565b600080303b90506000811491505090565b60006101e282603361025064010000000002610388179091906401000000009004565b9050919050565b61020a8160336102e4640100000000026104ed179091906401000000009004565b8073ffffffffffffffffffffffffffffffffffffffff167f6719d08c1888103bea251a4ed56406bd0c3e69723c8a1686e017e7bbe159b6f860405160405180910390a250565b60008073ffffffffffffffffffffffffffffffffffffffff168273ffffffffffffffffffffffffffffffffffffffff161415151561028d57600080fd5b8260000160008373ffffffffffffffffffffffffffffffffffffffff1673ffffffffffffffffffffffffffffffffffffffff16815260200190815260200160002060009054906101000a900460ff16905092915050565b600073ffffffffffffffffffffffffffffffffffffffff168173ffffffffffffffffffffffffffffffffffffffff161415151561032057600080fd5b60018260000160008373ffffffffffffffffffffffffffffffffffffffff1673ffffffffffffffffffffffffffffffffffffffff16815260200190815260200160002060006101000a81548160ff0219169083151502179055505050565b61064d8061038d6000396000f300608060405260043610610078576000357c0100000000000000000000000000000000000000000000000000000000900463ffffffff168063329daf901461007d57806346fbf68e146100945780636b2c0f55146100ef5780636ef8d66d1461013257806382dc1ec414610149578063c4d66de81461018c575b600080fd5b34801561008957600080fd5b506100926101cf565b005b3480156100a057600080fd5b506100d5600480360381019080803573ffffffffffffffffffffffffffffffffffffffff1690602001909291905050506101e5565b604051808215151515815260200191505060405180910390f35b3480156100fb57600080fd5b50610130600480360381019080803573ffffffffffffffffffffffffffffffffffffffff169060200190929190505050610202565b005b34801561013e57600080fd5b5061014761020e565b005b34801561015557600080fd5b5061018a600480360381019080803573ffffffffffffffffffffffffffffffffffffffff169060200190929190505050610219565b005b34801561019857600080fd5b506101cd600480360381019080803573ffffffffffffffffffffffffffffffffffffffff169060200190929190505050610239565b005b6101d8336101e5565b15156101e357600080fd5b565b60006101fb82603361038890919063ffffffff16565b9050919050565b61020b8161041c565b50565b6102173361041c565b565b610222336101e5565b151561022d57600080fd5b61023681610428565b50565b60008060019054906101000a900460ff16806102595750610258610482565b5b8061027057506000809054906101000a900460ff16155b151561030a576040517f08c379a000000000000000000000000000000000000000000000000000000000815260040180806020018281038252602e8152602001807f436f6e747261637420696e7374616e63652068617320616c726561647920626581526020017f656e20696e697469616c697a656400000000000000000000000000000000000081525060400191505060405180910390fd5b600060019054906101000a900460ff1690506001600060016101000a81548160ff02191690831515021790555060016000806101000a81548160ff02191690831515021790555061035a826101e5565b151561036a5761036982610428565b5b80600060016101000a81548160ff0219169083151502179055505050565b60008073ffffffffffffffffffffffffffffffffffffffff168273ffffffffffffffffffffffffffffffffffffffff16141515156103c557600080fd5b8260000160008373ffffffffffffffffffffffffffffffffffffffff1673ffffffffffffffffffffffffffffffffffffffff16815260200190815260200160002060009054906101000a900460ff16905092915050565b61042581610493565b50565b61043c8160336104ed90919063ffffffff16565b8073ffffffffffffffffffffffffffffffffffffffff167f6719d08c1888103bea251a4ed56406bd0c3e69723c8a1686e017e7bbe159b6f860405160405180910390a250565b600080303b90506000811491505090565b6104a781603361058790919063ffffffff16565b8073ffffffffffffffffffffffffffffffffffffffff167fcd265ebaf09df2871cc7bd4133404a235ba12eff2041bb89d9c714a2621c7c7e60405160405180910390a250565b600073ffffffffffffffffffffffffffffffffffffffff168173ffffffffffffffffffffffffffffffffffffffff161415151561052957600080fd5b60018260000160008373ffffffffffffffffffffffffffffffffffffffff1673ffffffffffffffffffffffffffffffffffffffff16815260200190815260200160002060006101000a81548160ff0219169083151502179055505050565b600073ffffffffffffffffffffffffffffffffffffffff168173ffffffffffffffffffffffffffffffffffffffff16141515156105c357600080fd5b60008260000160008373ffffffffffffffffffffffffffffffffffffffff1673ffffffffffffffffffffffffffffffffffffffff16815260200190815260200160002060006101000a81548160ff02191690831515021790555050505600a165627a7a723058200ab4e273284f7bda9721238fd403c715807a6e5874e5836b14e3e11b9860e7a70029",
  "source": "pragma solidity ^0.4.24;\n\nimport \"../access/roles/PauserRole.sol\";\n\n\ncontract PauserRoleMock is PauserRole {\n  constructor() public {\n    PauserRole.initialize(msg.sender);\n  }\n\n  function removePauser(address account) public {\n    _removePauser(account);\n  }\n\n  function onlyPauserMock() public view onlyPauser {\n  }\n\n  // Causes a compilation error if super._removePauser is not internal\n  function _removePauser(address account) internal {\n    super._removePauser(account);\n  }\n}\n",
  "sourcePath": "/home/spalladino/Projects/openzeppelin-eth/contracts/mocks/PauserRoleMock.sol",
  "compiler": {
    "name": "solc",
    "version": "0.4.24+commit.e67f0147.Emscripten.clang"
  },
  "schemaVersion": "2.0.1",
  "updatedAt": "2018-10-22T15:51:22.529Z"
}