{
  "contractName": "ReentrancyMock",
  "abi": [
    {
      "constant": true,
      "inputs": [],
      "name": "counter",
      "outputs": [
        {
          "name": "",
          "type": "uint256"
        }
      ],
      "payable": false,
      "stateMutability": "view",
      "type": "function"
    },
    {
      "constant": false,
      "inputs": [],
      "name": "initialize",
      "outputs": [],
      "payable": false,
      "stateMutability": "nonpayable",
      "type": "function"
    },
    {
      "inputs": [],
      "payable": false,
      "stateMutability": "nonpayable",
      "type": "constructor"
    },
    {
      "constant": false,
      "inputs": [],
      "name": "callback",
      "outputs": [],
      "payable": false,
      "stateMutability": "nonpayable",
      "type": "function"
    },
    {
      "constant": false,
      "inputs": [
        {
          "name": "n",
          "type": "uint256"
        }
      ],
      "name": "countLocalRecursive",
      "outputs": [],
      "payable": false,
      "stateMutability": "nonpayable",
      "type": "function"
    },
    {
      "constant": false,
      "inputs": [
        {
          "name": "n",
          "type": "uint256"
        }
      ],
      "name": "countThisRecursive",
      "outputs": [],
      "payable": false,
      "stateMutability": "nonpayable",
      "type": "function"
    },
    {
      "constant": false,
      "inputs": [
        {
          "name": "attacker",
          "type": "address"
        }
      ],
      "name": "countAndCall",
      "outputs": [],
      "payable": false,
      "stateMutability": "nonpayable",
      "type": "function"
    }
  ],
  "bytecode": "0x608060405234801561001057600080fd5b5061002c610039640100000000026101ac176401000000009004565b6000606681905550610196565b60008060019054906101000a900460ff16806100685750610067610185640100000000026401000000009004565b5b8061007f57506000809054906101000a900460ff16155b1515610119576040517f08c379a000000000000000000000000000000000000000000000000000000000815260040180806020018281038252602e8152602001807f436f6e747261637420696e7374616e63652068617320616c726561647920626581526020017f656e20696e697469616c697a656400000000000000000000000000000000000081525060400191505060405180910390fd5b600060019054906101000a900460ff1690506001600060016101000a81548160ff02191690831515021790555060016000806101000a81548160ff021916908315150217905550600160338190555080600060016101000a81548160ff02191690831515021790555050565b600080303b90506000811491505090565b610622806101a56000396000f300608060405260043610610078576000357c0100000000000000000000000000000000000000000000000000000000900463ffffffff168063083b27321461007d57806361bc221a146100945780638129fc1c146100bf5780638c5344fa146100d657806396ffa69014610103578063b672ad8b14610130575b600080fd5b34801561008957600080fd5b50610092610173565b005b3480156100a057600080fd5b506100a96101a6565b6040518082815260200191505060405180910390f35b3480156100cb57600080fd5b506100d46101ac565b005b3480156100e257600080fd5b50610101600480360381019080803590602001909291905050506102e9565b005b34801561010f57600080fd5b5061012e60048036038101908080359060200190929190505050610455565b005b34801561013c57600080fd5b50610171600480360381019080803573ffffffffffffffffffffffffffffffffffffffff16906020019092919050505061049f565b005b6000600160336000828254019250508190555060335490506101936105d2565b603354811415156101a357600080fd5b50565b60665481565b60008060019054906101000a900460ff16806101cc57506101cb6105e5565b5b806101e357506000809054906101000a900460ff16155b151561027d576040517f08c379a000000000000000000000000000000000000000000000000000000000815260040180806020018281038252602e8152602001807f436f6e747261637420696e7374616e63652068617320616c726561647920626581526020017f656e20696e697469616c697a656400000000000000000000000000000000000081525060400191505060405180910390fd5b600060019054906101000a900460ff1690506001600060016101000a81548160ff02191690831515021790555060016000806101000a81548160ff021916908315150217905550600160338190555080600060016101000a81548160ff02191690831515021790555050565b600080600160336000828254019250508190555060335490506000831115610440576103136105d2565b3073ffffffffffffffffffffffffffffffffffffffff1660018403604051602401808281526020019150506040516020818303038152906040527f8c5344fa000000000000000000000000000000000000000000000000000000007bffffffffffffffffffffffffffffffffffffffffffffffffffffffff19166020820180517bffffffffffffffffffffffffffffffffffffffffffffffffffffffff838183161783525050505060405180828051906020019080838360005b838110156103e85780820151818401526020810190506103cd565b50505050905090810190601f1680156104155780820380516001836020036101000a031916815260200191505b509150506000604051808303816000865af191505091506001151582151514151561043f57600080fd5b5b6033548114151561045057600080fd5b505050565b600060016033600082825401925050819055506033549050600082111561048b5761047e6105d2565b61048a60018303610455565b5b6033548114151561049b57600080fd5b5050565b600080600160336000828254019250508190555060335490506104c06105d2565b60405180807f63616c6c6261636b282900000000000000000000000000000000000000000000815250600a019050604051809103902091508273ffffffffffffffffffffffffffffffffffffffff16630a2df1ed836040518263ffffffff167c010000000000000000000000000000000000000000000000000000000002815260040180827bffffffffffffffffffffffffffffffffffffffffffffffffffffffff19167bffffffffffffffffffffffffffffffffffffffffffffffffffffffff19168152602001915050600060405180830381600087803b1580156105a557600080fd5b505af11580156105b9573d6000803e3d6000fd5b50505050603354811415156105cd57600080fd5b505050565b6001606660008282540192505081905550565b600080303b905060008114915050905600a165627a7a7230582009f8c805c15ac5bf678ef6aafe7e41da49ec366510bb09a6c790bc80f7c0899b0029",
  "source": "pragma solidity ^0.4.24;\n\nimport \"../utils/ReentrancyGuard.sol\";\nimport \"./ReentrancyAttack.sol\";\n\n\ncontract ReentrancyMock is ReentrancyGuard {\n\n  uint256 public counter;\n\n  constructor() public {\n    ReentrancyGuard.initialize();\n    counter = 0;\n  }\n\n  function callback() external nonReentrant {\n    count();\n  }\n\n  function countLocalRecursive(uint256 n) public nonReentrant {\n    if (n > 0) {\n      count();\n      countLocalRecursive(n - 1);\n    }\n  }\n\n  function countThisRecursive(uint256 n) public nonReentrant {\n    if (n > 0) {\n      count();\n      // solium-disable-next-line security/no-low-level-calls\n      bool result = address(this).call(abi.encodeWithSignature(\"countThisRecursive(uint256)\", n - 1));\n      require(result == true);\n    }\n  }\n\n  function countAndCall(ReentrancyAttack attacker) public nonReentrant {\n    count();\n    bytes4 func = bytes4(keccak256(\"callback()\"));\n    attacker.callSender(func);\n  }\n\n  function count() private {\n    counter += 1;\n  }\n\n}\n",
  "sourcePath": "/home/spalladino/Projects/openzeppelin-eth/contracts/mocks/ReentrancyMock.sol",
  "compiler": {
    "name": "solc",
    "version": "0.4.24+commit.e67f0147.Emscripten.clang"
  },
  "schemaVersion": "2.0.1",
  "updatedAt": "2018-10-22T15:51:22.530Z"
}