{
  "contractName": "SampleCrowdsale",
  "abi": [
    {
      "constant": true,
      "inputs": [],
      "name": "hasClosed",
      "outputs": [
        {
          "name": "",
          "type": "bool"
        }
      ],
      "payable": false,
      "stateMutability": "view",
      "type": "function"
    },
    {
      "constant": true,
      "inputs": [],
      "name": "rate",
      "outputs": [
        {
          "name": "",
          "type": "uint256"
        }
      ],
      "payable": false,
      "stateMutability": "view",
      "type": "function"
    },
    {
      "constant": true,
      "inputs": [],
      "name": "cap",
      "outputs": [
        {
          "name": "",
          "type": "uint256"
        }
      ],
      "payable": false,
      "stateMutability": "view",
      "type": "function"
    },
    {
      "constant": true,
      "inputs": [],
      "name": "goal",
      "outputs": [
        {
          "name": "",
          "type": "uint256"
        }
      ],
      "payable": false,
      "stateMutability": "view",
      "type": "function"
    },
    {
      "constant": true,
      "inputs": [],
      "name": "weiRaised",
      "outputs": [
        {
          "name": "",
          "type": "uint256"
        }
      ],
      "payable": false,
      "stateMutability": "view",
      "type": "function"
    },
    {
      "constant": true,
      "inputs": [],
      "name": "isOpen",
      "outputs": [
        {
          "name": "",
          "type": "bool"
        }
      ],
      "payable": false,
      "stateMutability": "view",
      "type": "function"
    },
    {
      "constant": true,
      "inputs": [],
      "name": "closingTime",
      "outputs": [
        {
          "name": "",
          "type": "uint256"
        }
      ],
      "payable": false,
      "stateMutability": "view",
      "type": "function"
    },
    {
      "constant": false,
      "inputs": [],
      "name": "finalize",
      "outputs": [],
      "payable": false,
      "stateMutability": "nonpayable",
      "type": "function"
    },
    {
      "constant": true,
      "inputs": [],
      "name": "capReached",
      "outputs": [
        {
          "name": "",
          "type": "bool"
        }
      ],
      "payable": false,
      "stateMutability": "view",
      "type": "function"
    },
    {
      "constant": true,
      "inputs": [],
      "name": "wallet",
      "outputs": [
        {
          "name": "",
          "type": "address"
        }
      ],
      "payable": false,
      "stateMutability": "view",
      "type": "function"
    },
    {
      "constant": true,
      "inputs": [],
      "name": "goalReached",
      "outputs": [
        {
          "name": "",
          "type": "bool"
        }
      ],
      "payable": false,
      "stateMutability": "view",
      "type": "function"
    },
    {
      "constant": true,
      "inputs": [],
      "name": "finalized",
      "outputs": [
        {
          "name": "",
          "type": "bool"
        }
      ],
      "payable": false,
      "stateMutability": "view",
      "type": "function"
    },
    {
      "constant": true,
      "inputs": [],
      "name": "openingTime",
      "outputs": [
        {
          "name": "",
          "type": "uint256"
        }
      ],
      "payable": false,
      "stateMutability": "view",
      "type": "function"
    },
    {
      "constant": false,
      "inputs": [
        {
          "name": "beneficiary",
          "type": "address"
        }
      ],
      "name": "claimRefund",
      "outputs": [],
      "payable": false,
      "stateMutability": "nonpayable",
      "type": "function"
    },
    {
      "constant": false,
      "inputs": [
        {
          "name": "beneficiary",
          "type": "address"
        }
      ],
      "name": "buyTokens",
      "outputs": [],
      "payable": true,
      "stateMutability": "payable",
      "type": "function"
    },
    {
      "constant": true,
      "inputs": [],
      "name": "token",
      "outputs": [
        {
          "name": "",
          "type": "address"
        }
      ],
      "payable": false,
      "stateMutability": "view",
      "type": "function"
    },
    {
      "payable": true,
      "stateMutability": "payable",
      "type": "fallback"
    },
    {
      "anonymous": false,
      "inputs": [],
      "name": "CrowdsaleFinalized",
      "type": "event"
    },
    {
      "anonymous": false,
      "inputs": [
        {
          "indexed": true,
          "name": "purchaser",
          "type": "address"
        },
        {
          "indexed": true,
          "name": "beneficiary",
          "type": "address"
        },
        {
          "indexed": false,
          "name": "value",
          "type": "uint256"
        },
        {
          "indexed": false,
          "name": "amount",
          "type": "uint256"
        }
      ],
      "name": "TokensPurchased",
      "type": "event"
    },
    {
      "constant": false,
      "inputs": [
        {
          "name": "openingTime",
          "type": "uint256"
        },
        {
          "name": "closingTime",
          "type": "uint256"
        },
        {
          "name": "rate",
          "type": "uint256"
        },
        {
          "name": "wallet",
          "type": "address"
        },
        {
          "name": "cap",
          "type": "uint256"
        },
        {
          "name": "token",
          "type": "address"
        },
        {
          "name": "goal",
          "type": "uint256"
        }
      ],
      "name": "initialize",
      "outputs": [],
      "payable": false,
      "stateMutability": "nonpayable",
      "type": "function"
    },
    {
      "constant": false,
      "inputs": [
        {
          "name": "rate",
          "type": "uint256"
        },
        {
          "name": "wallet",
          "type": "address"
        },
        {
          "name": "token",
          "type": "address"
        }
      ],
      "name": "initialize",
      "outputs": [],
      "payable": false,
      "stateMutability": "nonpayable",
      "type": "function"
    },
    {
      "constant": false,
      "inputs": [
        {
          "name": "openingTime",
          "type": "uint256"
        },
        {
          "name": "closingTime",
          "type": "uint256"
        }
      ],
      "name": "initialize",
      "outputs": [],
      "payable": false,
      "stateMutability": "nonpayable",
      "type": "function"
    },
    {
      "constant": false,
      "inputs": [
        {
          "name": "goal",
          "type": "uint256"
        }
      ],
      "name": "initialize",
      "outputs": [],
      "payable": false,
      "stateMutability": "nonpayable",
      "type": "function"
    }
  ],
  "bytecode": "0x6080604052600060d060006101000a81548160ff02191690831515021790555034801561002b57600080fd5b50612a978061003b6000396000f300608060405260043610610112576000357c0100000000000000000000000000000000000000000000000000000000900463ffffffff1680631515bc2b1461011d5780632c4e722e1461014c578063355274ea1461017757806340193883146101a25780634042b66f146101cd57806347535d7b146101f85780634b6753bc146102275780634bb278f3146102525780634f93594514610269578063521eb273146102985780635da8998c146102ef5780637d3d652214610384578063b3f05b97146103b3578063b4988fd0146103e2578063b7a8807c1461044f578063bffa55d51461047a578063e4a30116146104bd578063ec8ac4d8146104f4578063fc0c546a1461052a578063fe4b84df14610581575b61011b336105ae565b005b34801561012957600080fd5b5061013261067c565b604051808215151515815260200191505060405180910390f35b34801561015857600080fd5b50610161610688565b6040518082815260200191505060405180910390f35b34801561018357600080fd5b5061018c610692565b6040518082815260200191505060405180910390f35b3480156101ae57600080fd5b506101b761069c565b6040518082815260200191505060405180910390f35b3480156101d957600080fd5b506101e26106a7565b6040518082815260200191505060405180910390f35b34801561020457600080fd5b5061020d6106b1565b604051808215151515815260200191505060405180910390f35b34801561023357600080fd5b5061023c6106cc565b6040518082815260200191505060405180910390f35b34801561025e57600080fd5b506102676106d6565b005b34801561027557600080fd5b5061027e610756565b604051808215151515815260200191505060405180910390f35b3480156102a457600080fd5b506102ad61076a565b604051808273ffffffffffffffffffffffffffffffffffffffff1673ffffffffffffffffffffffffffffffffffffffff16815260200191505060405180910390f35b3480156102fb57600080fd5b50610382600480360381019080803590602001909291908035906020019092919080359060200190929190803573ffffffffffffffffffffffffffffffffffffffff16906020019092919080359060200190929190803573ffffffffffffffffffffffffffffffffffffffff16906020019092919080359060200190929190505050610794565b005b34801561039057600080fd5b50610399610906565b604051808215151515815260200191505060405180910390f35b3480156103bf57600080fd5b506103c861091b565b604051808215151515815260200191505060405180910390f35b3480156103ee57600080fd5b5061044d60048036038101908080359060200190929190803573ffffffffffffffffffffffffffffffffffffffff169060200190929190803573ffffffffffffffffffffffffffffffffffffffff169060200190929190505050610932565b005b34801561045b57600080fd5b50610464610b7a565b6040518082815260200191505060405180910390f35b34801561048657600080fd5b506104bb600480360381019080803573ffffffffffffffffffffffffffffffffffffffff169060200190929190505050610b84565b005b3480156104c957600080fd5b506104f26004803603810190808035906020019092919080359060200190929190505050610c84565b005b610528600480360381019080803573ffffffffffffffffffffffffffffffffffffffff1690602001909291905050506105ae565b005b34801561053657600080fd5b5061053f610df7565b604051808273ffffffffffffffffffffffffffffffffffffffff1673ffffffffffffffffffffffffffffffffffffffff16815260200191505060405180910390f35b34801561058d57600080fd5b506105ac60048036038101908080359060200190929190505050610e21565b005b6000803491506105be838361114e565b6105c78261116f565b90506105de8260365461118d90919063ffffffff16565b6036819055506105ee83826111ae565b8273ffffffffffffffffffffffffffffffffffffffff163373ffffffffffffffffffffffffffffffffffffffff167f6faf93231a456e552dbc9961f58d9713ee4f2e69d15f1975b050ef0911053a7b8484604051808381526020018281526020019250505060405180910390a361066583836111bc565b61066d6111c0565b6106778383611299565b505050565b6000609d544211905090565b6000603554905090565b6000606954905090565b600061010354905090565b6000603654905090565b6000609c5442101580156106c75750609d544211155b905090565b6000609d54905090565b60d060009054906101000a900460ff161515156106f257600080fd5b6106fa61067c565b151561070557600080fd5b61070d61129d565b7f9270cc390c096600a1c17c44345a1ba689fafd99d97487b10cfccf86cf73183660405160405180910390a1600160d060006101000a81548160ff021916908315150217905550565b60006069546107636106a7565b1015905090565b6000603460009054906101000a900473ffffffffffffffffffffffffffffffffffffffff16905090565b60008060019054906101000a900460ff16806107b457506107b3611497565b5b806107cb57506000809054906101000a900460ff16155b1515610865576040517f08c379a000000000000000000000000000000000000000000000000000000000815260040180806020018281038252602e8152602001807f436f6e747261637420696e7374616e63652068617320616c726561647920626581526020017f656e20696e697469616c697a656400000000000000000000000000000000000081525060400191505060405180910390fd5b600060019054906101000a900460ff1690506001600060016101000a81548160ff02191690831515021790555060016000806101000a81548160ff0219169083151502179055506108b7868685610932565b6108c0846114a8565b6108ca8888610c84565b6108d382610e21565b8382111515156108e257600080fd5b80600060016101000a81548160ff0219169083151502179055505050505050505050565b6000610103546109146106a7565b1015905090565b600060d060009054906101000a900460ff16905090565b60008060019054906101000a900460ff16806109525750610951611497565b5b8061096957506000809054906101000a900460ff16155b1515610a03576040517f08c379a000000000000000000000000000000000000000000000000000000000815260040180806020018281038252602e8152602001807f436f6e747261637420696e7374616e63652068617320616c726561647920626581526020017f656e20696e697469616c697a656400000000000000000000000000000000000081525060400191505060405180910390fd5b600060019054906101000a900460ff1690506001600060016101000a81548160ff02191690831515021790555060016000806101000a81548160ff021916908315150217905550600084111515610a5957600080fd5b600073ffffffffffffffffffffffffffffffffffffffff168373ffffffffffffffffffffffffffffffffffffffff1614151515610a9557600080fd5b600073ffffffffffffffffffffffffffffffffffffffff168273ffffffffffffffffffffffffffffffffffffffff1614151515610ad157600080fd5b8360358190555082603460006101000a81548173ffffffffffffffffffffffffffffffffffffffff021916908373ffffffffffffffffffffffffffffffffffffffff16021790555081603360006101000a81548173ffffffffffffffffffffffffffffffffffffffff021916908373ffffffffffffffffffffffffffffffffffffffff16021790555080600060016101000a81548160ff02191690831515021790555050505050565b6000609c54905090565b610b8c61091b565b1515610b9757600080fd5b610b9f610906565b151515610bab57600080fd5b61010460009054906101000a900473ffffffffffffffffffffffffffffffffffffffff1673ffffffffffffffffffffffffffffffffffffffff166351cff8d9826040518263ffffffff167c0100000000000000000000000000000000000000000000000000000000028152600401808273ffffffffffffffffffffffffffffffffffffffff1673ffffffffffffffffffffffffffffffffffffffff168152602001915050600060405180830381600087803b158015610c6957600080fd5b505af1158015610c7d573d6000803e3d6000fd5b5050505050565b60008060019054906101000a900460ff1680610ca45750610ca3611497565b5b80610cbb57506000809054906101000a900460ff16155b1515610d55576040517f08c379a000000000000000000000000000000000000000000000000000000000815260040180806020018281038252602e8152602001807f436f6e747261637420696e7374616e63652068617320616c726561647920626581526020017f656e20696e697469616c697a656400000000000000000000000000000000000081525060400191505060405180910390fd5b600060019054906101000a900460ff1690506001600060016101000a81548160ff02191690831515021790555060016000806101000a81548160ff021916908315150217905550610da4611604565b1515610dac57fe5b428310151515610dbb57600080fd5b828210151515610dca57600080fd5b82609c8190555081609d8190555080600060016101000a81548160ff021916908315150217905550505050565b6000603360009054906101000a900473ffffffffffffffffffffffffffffffffffffffff16905090565b60008060019054906101000a900460ff1680610e415750610e40611497565b5b80610e5857506000809054906101000a900460ff16155b1515610ef2576040517f08c379a000000000000000000000000000000000000000000000000000000000815260040180806020018281038252602e8152602001807f436f6e747261637420696e7374616e63652068617320616c726561647920626581526020017f656e20696e697469616c697a656400000000000000000000000000000000000081525060400191505060405180910390fd5b600060019054906101000a900460ff1690506001600060016101000a81548160ff02191690831515021790555060016000806101000a81548160ff021916908315150217905550610f416116c6565b1515610f4957fe5b600082111515610f5857600080fd5b600073ffffffffffffffffffffffffffffffffffffffff1661010460009054906101000a900473ffffffffffffffffffffffffffffffffffffffff1673ffffffffffffffffffffffffffffffffffffffff16141561112857610fb861189c565b604051809103906000f080158015610fd4573d6000803e3d6000fd5b5061010460006101000a81548173ffffffffffffffffffffffffffffffffffffffff021916908373ffffffffffffffffffffffffffffffffffffffff16021790555061010460009054906101000a900473ffffffffffffffffffffffffffffffffffffffff1673ffffffffffffffffffffffffffffffffffffffff1663485cc95561105d61076a565b306040518363ffffffff167c0100000000000000000000000000000000000000000000000000000000028152600401808373ffffffffffffffffffffffffffffffffffffffff1673ffffffffffffffffffffffffffffffffffffffff1681526020018273ffffffffffffffffffffffffffffffffffffffff1673ffffffffffffffffffffffffffffffffffffffff16815260200192505050600060405180830381600087803b15801561110f57600080fd5b505af1158015611123573d6000803e3d6000fd5b505050505b816101038190555080600060016101000a81548160ff0219169083151502179055505050565b6111566106b1565b151561116157600080fd5b61116b82826116e0565b5050565b60006111866035548361171890919063ffffffff16565b9050919050565b60008082840190508381101515156111a457600080fd5b8091505092915050565b6111b88282611756565b5050565b5050565b61010460009054906101000a900473ffffffffffffffffffffffffffffffffffffffff1673ffffffffffffffffffffffffffffffffffffffff1663f340fa0134336040518363ffffffff167c0100000000000000000000000000000000000000000000000000000000028152600401808273ffffffffffffffffffffffffffffffffffffffff1673ffffffffffffffffffffffffffffffffffffffff1681526020019150506000604051808303818588803b15801561127e57600080fd5b505af1158015611292573d6000803e3d6000fd5b5050505050565b5050565b6112a5610906565b156113ed5761010460009054906101000a900473ffffffffffffffffffffffffffffffffffffffff1673ffffffffffffffffffffffffffffffffffffffff166343d726d66040518163ffffffff167c0100000000000000000000000000000000000000000000000000000000028152600401600060405180830381600087803b15801561133157600080fd5b505af1158015611345573d6000803e3d6000fd5b5050505061010460009054906101000a900473ffffffffffffffffffffffffffffffffffffffff1673ffffffffffffffffffffffffffffffffffffffff16639af6549a6040518163ffffffff167c0100000000000000000000000000000000000000000000000000000000028152600401600060405180830381600087803b1580156113d057600080fd5b505af11580156113e4573d6000803e3d6000fd5b5050505061148d565b61010460009054906101000a900473ffffffffffffffffffffffffffffffffffffffff1673ffffffffffffffffffffffffffffffffffffffff16638c52dc416040518163ffffffff167c0100000000000000000000000000000000000000000000000000000000028152600401600060405180830381600087803b15801561147457600080fd5b505af1158015611488573d6000803e3d6000fd5b505050505b61149561184a565b565b600080303b90506000811491505090565b60008060019054906101000a900460ff16806114c857506114c7611497565b5b806114df57506000809054906101000a900460ff16155b1515611579576040517f08c379a000000000000000000000000000000000000000000000000000000000815260040180806020018281038252602e8152602001807f436f6e747261637420696e7374616e63652068617320616c726561647920626581526020017f656e20696e697469616c697a656400000000000000000000000000000000000081525060400191505060405180910390fd5b600060019054906101000a900460ff1690506001600060016101000a81548160ff02191690831515021790555060016000806101000a81548160ff0219169083151502179055506115c8611604565b15156115d057fe5b6000821115156115df57600080fd5b8160698190555080600060016101000a81548160ff0219169083151502179055505050565b6000806035541180156116665750600073ffffffffffffffffffffffffffffffffffffffff16603460009054906101000a900473ffffffffffffffffffffffffffffffffffffffff1673ffffffffffffffffffffffffffffffffffffffff1614155b80156116c15750600073ffffffffffffffffffffffffffffffffffffffff16603360009054906101000a900473ffffffffffffffffffffffffffffffffffffffff1673ffffffffffffffffffffffffffffffffffffffff1614155b905090565b600080609c541180156116db57506000609d54115b905090565b6116ea828261184c565b606954611707826116f96106a7565b61118d90919063ffffffff16565b1115151561171457600080fd5b5050565b600080600084141561172d576000915061174f565b828402905082848281151561173e57fe5b0414151561174b57600080fd5b8091505b5092915050565b61175e610df7565b73ffffffffffffffffffffffffffffffffffffffff166340c10f1983836040518363ffffffff167c0100000000000000000000000000000000000000000000000000000000028152600401808373ffffffffffffffffffffffffffffffffffffffff1673ffffffffffffffffffffffffffffffffffffffff16815260200182815260200192505050602060405180830381600087803b15801561180057600080fd5b505af1158015611814573d6000803e3d6000fd5b505050506040513d602081101561182a57600080fd5b8101908080519060200190929190505050151561184657600080fd5b5050565b565b600073ffffffffffffffffffffffffffffffffffffffff168273ffffffffffffffffffffffffffffffffffffffff161415151561188857600080fd5b6000811415151561189857600080fd5b5050565b6040516111bf806118ad833901905600608060405234801561001057600080fd5b5061119f806100206000396000f3006080604052600436106100c5576000357c0100000000000000000000000000000000000000000000000000000000900463ffffffff1680632348238c146100ca57806338af3eed1461010d57806343d726d614610164578063485cc9551461017b57806351cff8d9146101de578063685ca194146102215780638c52dc411461027c5780639af6549a14610293578063c19d93fb146102aa578063c4d66de8146102e3578063c6dbdf6114610326578063e3a9db1a1461037d578063f340fa01146103d4575b600080fd5b3480156100d657600080fd5b5061010b600480360381019080803573ffffffffffffffffffffffffffffffffffffffff16906020019092919050505061040a565b005b34801561011957600080fd5b506101226104e6565b604051808273ffffffffffffffffffffffffffffffffffffffff1673ffffffffffffffffffffffffffffffffffffffff16815260200191505060405180910390f35b34801561017057600080fd5b50610179610510565b005b34801561018757600080fd5b506101dc600480360381019080803573ffffffffffffffffffffffffffffffffffffffff169060200190929190803573ffffffffffffffffffffffffffffffffffffffff1690602001909291905050506105f2565b005b3480156101ea57600080fd5b5061021f600480360381019080803573ffffffffffffffffffffffffffffffffffffffff1690602001909291905050506107d3565b005b34801561022d57600080fd5b50610262600480360381019080803573ffffffffffffffffffffffffffffffffffffffff1690602001909291905050506107f3565b604051808215151515815260200191505060405180910390f35b34801561028857600080fd5b50610291610825565b005b34801561029f57600080fd5b506102a8610907565b005b3480156102b657600080fd5b506102bf6109bc565b604051808260028111156102cf57fe5b60ff16815260200191505060405180910390f35b3480156102ef57600080fd5b50610324600480360381019080803573ffffffffffffffffffffffffffffffffffffffff1690602001909291905050506109d3565b005b34801561033257600080fd5b5061033b610b12565b604051808273ffffffffffffffffffffffffffffffffffffffff1673ffffffffffffffffffffffffffffffffffffffff16815260200191505060405180910390f35b34801561038957600080fd5b506103be600480360381019080803573ffffffffffffffffffffffffffffffffffffffff169060200190929190505050610b3c565b6040518082815260200191505060405180910390f35b610408600480360381019080803573ffffffffffffffffffffffffffffffffffffffff169060200190929190505050610b85565b005b603360009054906101000a900473ffffffffffffffffffffffffffffffffffffffff1673ffffffffffffffffffffffffffffffffffffffff163373ffffffffffffffffffffffffffffffffffffffff1614151561046657600080fd5b600073ffffffffffffffffffffffffffffffffffffffff168173ffffffffffffffffffffffffffffffffffffffff16141515156104a257600080fd5b80603360006101000a81548173ffffffffffffffffffffffffffffffffffffffff021916908373ffffffffffffffffffffffffffffffffffffffff16021790555050565b600060cb60019054906101000a900473ffffffffffffffffffffffffffffffffffffffff16905090565b603360009054906101000a900473ffffffffffffffffffffffffffffffffffffffff1673ffffffffffffffffffffffffffffffffffffffff163373ffffffffffffffffffffffffffffffffffffffff1614151561056c57600080fd5b6000600281111561057957fe5b60cb60009054906101000a900460ff16600281111561059457fe5b1415156105a057600080fd5b600260cb60006101000a81548160ff021916908360028111156105bf57fe5b02179055507f1cdde67b72a90f19919ac732a437ac2f7a10fc128d28c2a6e525d89ce5cd9d3a60405160405180910390a1565b60008060019054906101000a900460ff16806106125750610611610bc5565b5b8061062957506000809054906101000a900460ff16155b15156106c3576040517f08c379a000000000000000000000000000000000000000000000000000000000815260040180806020018281038252602e8152602001807f436f6e747261637420696e7374616e63652068617320616c726561647920626581526020017f656e20696e697469616c697a656400000000000000000000000000000000000081525060400191505060405180910390fd5b600060019054906101000a900460ff1690506001600060016101000a81548160ff02191690831515021790555060016000806101000a81548160ff021916908315150217905550610713826109d3565b600073ffffffffffffffffffffffffffffffffffffffff168373ffffffffffffffffffffffffffffffffffffffff161415151561074f57600080fd5b8260cb60016101000a81548173ffffffffffffffffffffffffffffffffffffffff021916908373ffffffffffffffffffffffffffffffffffffffff160217905550600060cb60006101000a81548160ff021916908360028111156107af57fe5b021790555080600060016101000a81548160ff021916908315150217905550505050565b6107dc816107f3565b15156107e757600080fd5b6107f081610bd6565b50565b60006001600281111561080257fe5b60cb60009054906101000a900460ff16600281111561081d57fe5b149050919050565b603360009054906101000a900473ffffffffffffffffffffffffffffffffffffffff1673ffffffffffffffffffffffffffffffffffffffff163373ffffffffffffffffffffffffffffffffffffffff1614151561088157600080fd5b6000600281111561088e57fe5b60cb60009054906101000a900460ff1660028111156108a957fe5b1415156108b557600080fd5b600160cb60006101000a81548160ff021916908360028111156108d457fe5b02179055507f599d8e5a83cffb867d051598c4d70e805d59802d8081c1c7d6dffc5b6aca2b8960405160405180910390a1565b60028081111561091357fe5b60cb60009054906101000a900460ff16600281111561092e57fe5b14151561093a57600080fd5b60cb60019054906101000a900473ffffffffffffffffffffffffffffffffffffffff1673ffffffffffffffffffffffffffffffffffffffff166108fc3073ffffffffffffffffffffffffffffffffffffffff16319081150290604051600060405180830381858888f193505050501580156109b9573d6000803e3d6000fd5b50565b600060cb60009054906101000a900460ff16905090565b60008060019054906101000a900460ff16806109f357506109f2610bc5565b5b80610a0a57506000809054906101000a900460ff16155b1515610aa4576040517f08c379a000000000000000000000000000000000000000000000000000000000815260040180806020018281038252602e8152602001807f436f6e747261637420696e7374616e63652068617320616c726561647920626581526020017f656e20696e697469616c697a656400000000000000000000000000000000000081525060400191505060405180910390fd5b600060019054906101000a900460ff1690506001600060016101000a81548160ff02191690831515021790555060016000806101000a81548160ff021916908315150217905550610af482610d54565b80600060016101000a81548160ff0219169083151502179055505050565b6000603360009054906101000a900473ffffffffffffffffffffffffffffffffffffffff16905090565b6000606660008373ffffffffffffffffffffffffffffffffffffffff1673ffffffffffffffffffffffffffffffffffffffff168152602001908152602001600020549050919050565b60006002811115610b9257fe5b60cb60009054906101000a900460ff166002811115610bad57fe5b141515610bb957600080fd5b610bc281610e93565b50565b600080303b90506000811491505090565b6000603360009054906101000a900473ffffffffffffffffffffffffffffffffffffffff1673ffffffffffffffffffffffffffffffffffffffff163373ffffffffffffffffffffffffffffffffffffffff16141515610c3457600080fd5b606660008373ffffffffffffffffffffffffffffffffffffffff1673ffffffffffffffffffffffffffffffffffffffff1681526020019081526020016000205490506000606660008473ffffffffffffffffffffffffffffffffffffffff1673ffffffffffffffffffffffffffffffffffffffff168152602001908152602001600020819055508173ffffffffffffffffffffffffffffffffffffffff166108fc829081150290604051600060405180830381858888f19350505050158015610d01573d6000803e3d6000fd5b508173ffffffffffffffffffffffffffffffffffffffff167f7084f5476618d8e60b11ef0d7d3f06914655adb8793e28ff7f018d4c76d505d5826040518082815260200191505060405180910390a25050565b60008060019054906101000a900460ff1680610d745750610d73610bc5565b5b80610d8b57506000809054906101000a900460ff16155b1515610e25576040517f08c379a000000000000000000000000000000000000000000000000000000000815260040180806020018281038252602e8152602001807f436f6e747261637420696e7374616e63652068617320616c726561647920626581526020017f656e20696e697469616c697a656400000000000000000000000000000000000081525060400191505060405180910390fd5b600060019054906101000a900460ff1690506001600060016101000a81548160ff02191690831515021790555060016000806101000a81548160ff021916908315150217905550610e7582610fdb565b80600060016101000a81548160ff0219169083151502179055505050565b6000603360009054906101000a900473ffffffffffffffffffffffffffffffffffffffff1673ffffffffffffffffffffffffffffffffffffffff163373ffffffffffffffffffffffffffffffffffffffff16141515610ef157600080fd5b349050610f4681606660008573ffffffffffffffffffffffffffffffffffffffff1673ffffffffffffffffffffffffffffffffffffffff1681526020019081526020016000205461115290919063ffffffff16565b606660008473ffffffffffffffffffffffffffffffffffffffff1673ffffffffffffffffffffffffffffffffffffffff168152602001908152602001600020819055508173ffffffffffffffffffffffffffffffffffffffff167f2da466a7b24304f47e87fa2e1e5a81b9831ce54fec19055ce277ca2f39ba42c4826040518082815260200191505060405180910390a25050565b60008060019054906101000a900460ff1680610ffb5750610ffa610bc5565b5b8061101257506000809054906101000a900460ff16155b15156110ac576040517f08c379a000000000000000000000000000000000000000000000000000000000815260040180806020018281038252602e8152602001807f436f6e747261637420696e7374616e63652068617320616c726561647920626581526020017f656e20696e697469616c697a656400000000000000000000000000000000000081525060400191505060405180910390fd5b600060019054906101000a900460ff1690506001600060016101000a81548160ff02191690831515021790555060016000806101000a81548160ff02191690831515021790555081603360006101000a81548173ffffffffffffffffffffffffffffffffffffffff021916908373ffffffffffffffffffffffffffffffffffffffff16021790555080600060016101000a81548160ff0219169083151502179055505050565b600080828401905083811015151561116957600080fd5b80915050929150505600a165627a7a72305820e704fec39de84f26bd48874ff5a7c2d6f17cf272f15325dd3a3260ea376b34d60029a165627a7a72305820e63f74fc1884a03f904e1047a8948860442aa390bcd185f4d7c7288ecf75a3e90029",
  "source": "pragma solidity ^0.4.24;\n\nimport \"zos-lib/contracts/Initializable.sol\";\nimport \"../crowdsale/validation/CappedCrowdsale.sol\";\nimport \"../crowdsale/distribution/RefundableCrowdsale.sol\";\nimport \"../crowdsale/emission/MintedCrowdsale.sol\";\nimport \"../token/ERC20/ERC20Mintable.sol\";\n\n\n/**\n * @title SampleCrowdsaleToken\n * @dev Very simple ERC20 Token that can be minted.\n * It is meant to be used in a crowdsale contract.\n */\ncontract SampleCrowdsaleToken is Initializable, ERC20Mintable {\n\n  string public name;\n  string public symbol;\n  uint8 public decimals;\n\n  function initialize(address sender) public initializer {\n    ERC20Mintable.initialize(sender);\n\n    name = \"Sample Crowdsale Token\";\n    symbol = \"SCT\";\n    decimals = 18;\n  }\n\n  uint256[50] private ______gap;\n}\n\n\n/**\n * @title SampleCrowdsale\n * @dev This is an example of a fully fledged crowdsale.\n * The way to add new features to a base crowdsale is by multiple inheritance.\n * In this example we are providing following extensions:\n * CappedCrowdsale - sets a max boundary for raised funds\n * RefundableCrowdsale - set a min goal to be reached and returns funds if it's not met\n *\n * After adding multiple features it's good practice to run integration tests\n * to ensure that subcontracts works together as intended.\n */\n// XXX There doesn't seem to be a way to split this line that keeps solium\n// happy. See:\n// https://github.com/duaraghav8/Solium/issues/205\n// --elopio - 2018-05-10\n// solium-disable-next-line max-len\ncontract SampleCrowdsale is Initializable, Crowdsale, CappedCrowdsale, RefundableCrowdsale, MintedCrowdsale {\n\n  function initialize(\n    uint256 openingTime,\n    uint256 closingTime,\n    uint256 rate,\n    address wallet,\n    uint256 cap,\n    ERC20Mintable token,\n    uint256 goal\n  )\n    public\n    initializer\n  {\n    Crowdsale.initialize(rate, wallet, token);\n    CappedCrowdsale.initialize(cap);\n    TimedCrowdsale.initialize(openingTime, closingTime);\n    RefundableCrowdsale.initialize(goal);\n\n    //As goal needs to be met for a successful crowdsale\n    //the value needs to less or equal than a cap which is limit for accepted funds\n    require(goal <= cap);\n  }\n\n  uint256[50] private ______gap;\n}\n",
  "sourcePath": "/home/spalladino/Projects/openzeppelin-eth/contracts/examples/SampleCrowdsale.sol",
  "compiler": {
    "name": "solc",
    "version": "0.4.24+commit.e67f0147.Emscripten.clang"
  },
  "schemaVersion": "2.0.1",
  "updatedAt": "2018-10-22T15:51:22.518Z"
}