{
  "contractName": "SignatureBouncerMock",
  "abi": [
    {
      "constant": false,
      "inputs": [
        {
          "name": "account",
          "type": "address"
        }
      ],
      "name": "removeSigner",
      "outputs": [],
      "payable": false,
      "stateMutability": "nonpayable",
      "type": "function"
    },
    {
      "constant": true,
      "inputs": [
        {
          "name": "account",
          "type": "address"
        }
      ],
      "name": "isSigner",
      "outputs": [
        {
          "name": "",
          "type": "bool"
        }
      ],
      "payable": false,
      "stateMutability": "view",
      "type": "function"
    },
    {
      "constant": true,
      "inputs": [],
      "name": "onlySignerMock",
      "outputs": [],
      "payable": false,
      "stateMutability": "view",
      "type": "function"
    },
    {
      "constant": false,
      "inputs": [
        {
          "name": "sender",
          "type": "address"
        }
      ],
      "name": "initialize",
      "outputs": [],
      "payable": false,
      "stateMutability": "nonpayable",
      "type": "function"
    },
    {
      "constant": false,
      "inputs": [],
      "name": "renounceSigner",
      "outputs": [],
      "payable": false,
      "stateMutability": "nonpayable",
      "type": "function"
    },
    {
      "constant": false,
      "inputs": [
        {
          "name": "account",
          "type": "address"
        }
      ],
      "name": "addSigner",
      "outputs": [],
      "payable": false,
      "stateMutability": "nonpayable",
      "type": "function"
    },
    {
      "inputs": [],
      "payable": false,
      "stateMutability": "nonpayable",
      "type": "constructor"
    },
    {
      "anonymous": false,
      "inputs": [
        {
          "indexed": true,
          "name": "account",
          "type": "address"
        }
      ],
      "name": "SignerAdded",
      "type": "event"
    },
    {
      "anonymous": false,
      "inputs": [
        {
          "indexed": true,
          "name": "account",
          "type": "address"
        }
      ],
      "name": "SignerRemoved",
      "type": "event"
    },
    {
      "constant": true,
      "inputs": [
        {
          "name": "account",
          "type": "address"
        },
        {
          "name": "signature",
          "type": "bytes"
        }
      ],
      "name": "checkValidSignature",
      "outputs": [
        {
          "name": "",
          "type": "bool"
        }
      ],
      "payable": false,
      "stateMutability": "view",
      "type": "function"
    },
    {
      "constant": true,
      "inputs": [
        {
          "name": "signature",
          "type": "bytes"
        }
      ],
      "name": "onlyWithValidSignature",
      "outputs": [],
      "payable": false,
      "stateMutability": "view",
      "type": "function"
    },
    {
      "constant": true,
      "inputs": [
        {
          "name": "account",
          "type": "address"
        },
        {
          "name": "signature",
          "type": "bytes"
        }
      ],
      "name": "checkValidSignatureAndMethod",
      "outputs": [
        {
          "name": "",
          "type": "bool"
        }
      ],
      "payable": false,
      "stateMutability": "view",
      "type": "function"
    },
    {
      "constant": true,
      "inputs": [
        {
          "name": "signature",
          "type": "bytes"
        }
      ],
      "name": "onlyWithValidSignatureAndMethod",
      "outputs": [],
      "payable": false,
      "stateMutability": "view",
      "type": "function"
    },
    {
      "constant": true,
      "inputs": [
        {
          "name": "account",
          "type": "address"
        },
        {
          "name": "",
          "type": "bytes"
        },
        {
          "name": "",
          "type": "uint256"
        },
        {
          "name": "signature",
          "type": "bytes"
        }
      ],
      "name": "checkValidSignatureAndData",
      "outputs": [
        {
          "name": "",
          "type": "bool"
        }
      ],
      "payable": false,
      "stateMutability": "view",
      "type": "function"
    },
    {
      "constant": true,
      "inputs": [
        {
          "name": "",
          "type": "uint256"
        },
        {
          "name": "signature",
          "type": "bytes"
        }
      ],
      "name": "onlyWithValidSignatureAndData",
      "outputs": [],
      "payable": false,
      "stateMutability": "view",
      "type": "function"
    },
    {
      "constant": true,
      "inputs": [
        {
          "name": "",
          "type": "bytes"
        }
      ],
      "name": "theWrongMethod",
      "outputs": [],
      "payable": false,
      "stateMutability": "pure",
      "type": "function"
    },
    {
      "constant": true,
      "inputs": [],
      "name": "tooShortMsgData",
      "outputs": [],
      "payable": false,
      "stateMutability": "view",
      "type": "function"
    }
  ],
  "bytecode": "0x60806040523480156200001157600080fd5b506200003133620000566401000000000262000f4e176401000000009004565b6200005033620001dc64010000000002620006ee176401000000009004565b6200051d565b60008060019054906101000a900460ff16806200008857506200008762000345640100000000026401000000009004565b5b80620000a057506000809054906101000a900460ff16155b15156200013b576040517f08c379a000000000000000000000000000000000000000000000000000000000815260040180806020018281038252602e8152602001807f436f6e747261637420696e7374616e63652068617320616c726561647920626581526020017f656e20696e697469616c697a656400000000000000000000000000000000000081525060400191505060405180910390fd5b600060019054906101000a900460ff1690506001600060016101000a81548160ff02191690831515021790555060016000806101000a81548160ff0219169083151502179055506200019c8262000356640100000000026401000000009004565b1515620001be57620001bd8262000383640100000000026401000000009004565b5b80600060016101000a81548160ff0219169083151502179055505050565b60008060019054906101000a900460ff16806200020e57506200020d62000345640100000000026401000000009004565b5b806200022657506000809054906101000a900460ff16155b1515620002c1576040517f08c379a000000000000000000000000000000000000000000000000000000000815260040180806020018281038252602e8152602001807f436f6e747261637420696e7374616e63652068617320616c726561647920626581526020017f656e20696e697469616c697a656400000000000000000000000000000000000081525060400191505060405180910390fd5b600060019054906101000a900460ff1690506001600060016101000a81548160ff02191690831515021790555060016000806101000a81548160ff0219169083151502179055506200032782620000566401000000000262000f4e176401000000009004565b80600060016101000a81548160ff0219169083151502179055505050565b600080303b90506000811491505090565b60006200037c826033620003ed6401000000000262000c18179091906401000000009004565b9050919050565b620003a78160336200048264010000000002620011c4179091906401000000009004565b8073ffffffffffffffffffffffffffffffffffffffff167f47d1c22a25bb3a5d4e481b9b1e6944c2eade3181a0a20b495ed61d35b5323f2460405160405180910390a250565b60008073ffffffffffffffffffffffffffffffffffffffff168273ffffffffffffffffffffffffffffffffffffffff16141515156200042b57600080fd5b8260000160008373ffffffffffffffffffffffffffffffffffffffff1673ffffffffffffffffffffffffffffffffffffffff16815260200190815260200160002060009054906101000a900460ff16905092915050565b600073ffffffffffffffffffffffffffffffffffffffff168173ffffffffffffffffffffffffffffffffffffffff1614151515620004bf57600080fd5b60018260000160008373ffffffffffffffffffffffffffffffffffffffff1673ffffffffffffffffffffffffffffffffffffffff16815260200190815260200160002060006101000a81548160ff0219169083151502179055505050565b6114d7806200052d6000396000f3006080604052600436106100d0576000357c0100000000000000000000000000000000000000000000000000000000900463ffffffff1680630e316ab7146100d55780636123f7ba1461011857806368b51ac7146101815780636b802108146102225780636d5b9427146102c35780637df73e271461032c5780638263ac0c14610387578063997027e8146103f0578063b20bdb68146104e1578063b44e2ab914610554578063c4d66de81461056b578063ca422c43146105ae578063e5c8b03d146105c5578063eb12d61e146105dc575b600080fd5b3480156100e157600080fd5b50610116600480360381019080803573ffffffffffffffffffffffffffffffffffffffff16906020019092919050505061061f565b005b34801561012457600080fd5b5061017f600480360381019080803590602001908201803590602001908080601f016020809104026020016040519081016040528093929190818152602001838380828437820191505050505050919291929050505061062b565b005b34801561018d57600080fd5b50610208600480360381019080803573ffffffffffffffffffffffffffffffffffffffff169060200190929190803590602001908201803590602001908080601f0160208091040260200160405190810160405280939291908181526020018383808284378201915050505050509192919290505050610645565b604051808215151515815260200191505060405180910390f35b34801561022e57600080fd5b506102a9600480360381019080803573ffffffffffffffffffffffffffffffffffffffff169060200190929190803590602001908201803590602001908080601f0160208091040260200160405190810160405280939291908181526020018383808284378201915050505050509192919290505050610659565b604051808215151515815260200191505060405180910390f35b3480156102cf57600080fd5b5061032a600480360381019080803590602001908201803590602001908080601f016020809104026020016040519081016040528093929190818152602001838380828437820191505050505050919291929050505061066d565b005b34801561033857600080fd5b5061036d600480360381019080803573ffffffffffffffffffffffffffffffffffffffff169060200190929190505050610687565b604051808215151515815260200191505060405180910390f35b34801561039357600080fd5b506103ee600480360381019080803590602001908201803590602001908080601f01602080910402602001604051908101604052809392919081815260200183838082843782019150505050505091929192905050506106a4565b005b3480156103fc57600080fd5b506104c7600480360381019080803573ffffffffffffffffffffffffffffffffffffffff169060200190929190803590602001908201803590602001908080601f016020809104026020016040519081016040528093929190818152602001838380828437820191505050505050919291929080359060200190929190803590602001908201803590602001908080601f01602080910402602001604051908101604052809392919081815260200183838082843782019150505050505091929192905050506106a7565b604051808215151515815260200191505060405180910390f35b3480156104ed57600080fd5b5061055260048036038101908080359060200190929190803590602001908201803590602001908080601f01602080910402602001604051908101604052809392919081815260200183838082843782019150505050505091929192905050506106bd565b005b34801561056057600080fd5b506105696106d8565b005b34801561057757600080fd5b506105ac600480360381019080803573ffffffffffffffffffffffffffffffffffffffff1690602001909291905050506106ee565b005b3480156105ba57600080fd5b506105c361082d565b005b3480156105d157600080fd5b506105da610856565b005b3480156105e857600080fd5b5061061d600480360381019080803573ffffffffffffffffffffffffffffffffffffffff169060200190929190505050610861565b005b61062881610881565b50565b80610636338261088d565b151561064157600080fd5b5050565b60006106518383610b05565b905092915050565b6000610665838361088d565b905092915050565b806106783382610b05565b151561068357600080fd5b5050565b600061069d826033610c1890919063ffffffff16565b9050919050565b50565b60006106b38583610cac565b9050949350505050565b806106c83382610cac565b15156106d357600080fd5b505050565b6106e133610687565b15156106ec57600080fd5b565b60008060019054906101000a900460ff168061070e575061070d610f3d565b5b8061072557506000809054906101000a900460ff16155b15156107bf576040517f08c379a000000000000000000000000000000000000000000000000000000000815260040180806020018281038252602e8152602001807f436f6e747261637420696e7374616e63652068617320616c726561647920626581526020017f656e20696e697469616c697a656400000000000000000000000000000000000081525060400191505060405180910390fd5b600060019054906101000a900460ff1690506001600060016101000a81548160ff02191690831515021790555060016000806101000a81548160ff02191690831515021790555061080f82610f4e565b80600060016101000a81548160ff0219169083151502179055505050565b60206040519081016040528060008152506108483382610cac565b151561085357600080fd5b50565b61085f33610881565b565b61086a33610687565b151561087557600080fd5b61087e8161109d565b50565b61088a816110f7565b50565b60006060600060046040519080825280601f01601f1916602001820160405280156108c75781602001602082028038833980820191505090505b509150600090505b815181101561099d576000368281811015156108e757fe5b905001357f010000000000000000000000000000000000000000000000000000000000000090047f0100000000000000000000000000000000000000000000000000000000000000027effffffffffffffffffffffffffffffffffffffffffffffffffffffffffffff1916828281518110151561096057fe5b9060200101907effffffffffffffffffffffffffffffffffffffffffffffffffffffffffffff1916908160001a90535080806001019150506108cf565b610afb308684604051602001808473ffffffffffffffffffffffffffffffffffffffff1673ffffffffffffffffffffffffffffffffffffffff166c010000000000000000000000000281526014018373ffffffffffffffffffffffffffffffffffffffff1673ffffffffffffffffffffffffffffffffffffffff166c0100000000000000000000000002815260140182805190602001908083835b602083101515610a5d5780518252602082019150602081019050602083039250610a38565b6001836020036101000a03801982511681845116808217855250505050505090500193505050506040516020818303038152906040526040518082805190602001908083835b602083101515610ac85780518252602082019150602081019050602083039250610aa3565b6001836020036101000a038019825116818451168082178552505050505050905001915050604051809103902085611151565b9250505092915050565b6000610c103084604051602001808373ffffffffffffffffffffffffffffffffffffffff1673ffffffffffffffffffffffffffffffffffffffff166c010000000000000000000000000281526014018273ffffffffffffffffffffffffffffffffffffffff1673ffffffffffffffffffffffffffffffffffffffff166c01000000000000000000000000028152601401925050506040516020818303038152906040526040518082805190602001908083835b602083101515610bdd5780518252602082019150602081019050602083039250610bb8565b6001836020036101000a038019825116818451168082178552505050505050905001915050604051809103902083611151565b905092915050565b60008073ffffffffffffffffffffffffffffffffffffffff168273ffffffffffffffffffffffffffffffffffffffff1614151515610c5557600080fd5b8260000160008373ffffffffffffffffffffffffffffffffffffffff1673ffffffffffffffffffffffffffffffffffffffff16815260200190815260200160002060009054906101000a900460ff16905092915050565b60006060600060606000369050111515610cc557600080fd5b60606000369050036040519080825280601f01601f191660200182016040528015610cff5781602001602082028038833980820191505090505b509150600090505b8151811015610dd557600036828181101515610d1f57fe5b905001357f010000000000000000000000000000000000000000000000000000000000000090047f0100000000000000000000000000000000000000000000000000000000000000027effffffffffffffffffffffffffffffffffffffffffffffffffffffffffffff19168282815181101515610d9857fe5b9060200101907effffffffffffffffffffffffffffffffffffffffffffffffffffffffffffff1916908160001a9053508080600101915050610d07565b610f33308684604051602001808473ffffffffffffffffffffffffffffffffffffffff1673ffffffffffffffffffffffffffffffffffffffff166c010000000000000000000000000281526014018373ffffffffffffffffffffffffffffffffffffffff1673ffffffffffffffffffffffffffffffffffffffff166c0100000000000000000000000002815260140182805190602001908083835b602083101515610e955780518252602082019150602081019050602083039250610e70565b6001836020036101000a03801982511681845116808217855250505050505090500193505050506040516020818303038152906040526040518082805190602001908083835b602083101515610f005780518252602082019150602081019050602083039250610edb565b6001836020036101000a038019825116818451168082178552505050505050905001915050604051809103902085611151565b9250505092915050565b600080303b90506000811491505090565b60008060019054906101000a900460ff1680610f6e5750610f6d610f3d565b5b80610f8557506000809054906101000a900460ff16155b151561101f576040517f08c379a000000000000000000000000000000000000000000000000000000000815260040180806020018281038252602e8152602001807f436f6e747261637420696e7374616e63652068617320616c726561647920626581526020017f656e20696e697469616c697a656400000000000000000000000000000000000081525060400191505060405180910390fd5b600060019054906101000a900460ff1690506001600060016101000a81548160ff02191690831515021790555060016000806101000a81548160ff02191690831515021790555061106f82610687565b151561107f5761107e8261109d565b5b80600060016101000a81548160ff0219169083151502179055505050565b6110b18160336111c490919063ffffffff16565b8073ffffffffffffffffffffffffffffffffffffffff167f47d1c22a25bb3a5d4e481b9b1e6944c2eade3181a0a20b495ed61d35b5323f2460405160405180910390a250565b61110b81603361125e90919063ffffffff16565b8073ffffffffffffffffffffffffffffffffffffffff167f3525e22824a8a7df2c9a6029941c824cf95b6447f1e13d5128fd3826d35afe8b60405160405180910390a250565b6000806111778361116586600019166112f8565b600019166113b390919063ffffffff16565b9050600073ffffffffffffffffffffffffffffffffffffffff168173ffffffffffffffffffffffffffffffffffffffff16141580156111bb57506111ba81610687565b5b91505092915050565b600073ffffffffffffffffffffffffffffffffffffffff168173ffffffffffffffffffffffffffffffffffffffff161415151561120057600080fd5b60018260000160008373ffffffffffffffffffffffffffffffffffffffff1673ffffffffffffffffffffffffffffffffffffffff16815260200190815260200160002060006101000a81548160ff0219169083151502179055505050565b600073ffffffffffffffffffffffffffffffffffffffff168173ffffffffffffffffffffffffffffffffffffffff161415151561129a57600080fd5b60008260000160008373ffffffffffffffffffffffffffffffffffffffff1673ffffffffffffffffffffffffffffffffffffffff16815260200190815260200160002060006101000a81548160ff0219169083151502179055505050565b60008160405160200180807f19457468657265756d205369676e6564204d6573736167653a0a333200000000815250601c0182600019166000191681526020019150506040516020818303038152906040526040518082805190602001908083835b60208310151561137f578051825260208201915060208101905060208303925061135a565b6001836020036101000a03801982511681845116808217855250505050505090500191505060405180910390209050919050565b600080600080604185511415156113cd57600093506114a2565b6020850151925060408501519150606085015160001a9050601b8160ff1610156113f857601b810190505b601b8160ff16141580156114105750601c8160ff1614155b1561141e57600093506114a2565b600186828585604051600081526020016040526040518085600019166000191681526020018460ff1660ff1681526020018360001916600019168152602001826000191660001916815260200194505050505060206040516020810390808403906000865af1158015611495573d6000803e3d6000fd5b5050506020604051035193505b505050929150505600a165627a7a72305820c9533784b41e103ed2eea5a8c8e099089747985c8654d0c533ca7f1532929a8a0029",
  "source": "pragma solidity ^0.4.24;\n\nimport \"../drafts/SignatureBouncer.sol\";\nimport \"./SignerRoleMock.sol\";\n\n\ncontract SignatureBouncerMock is SignatureBouncer, SignerRoleMock {\n  constructor() public {\n    SignatureBouncer.initialize(msg.sender);\n  }\n\n  function checkValidSignature(address account, bytes signature)\n    public\n    view\n    returns (bool)\n  {\n    return _isValidSignature(account, signature);\n  }\n\n  function onlyWithValidSignature(bytes signature)\n    public\n    onlyValidSignature(signature)\n    view\n  {\n\n  }\n\n  function checkValidSignatureAndMethod(address account, bytes signature)\n    public\n    view\n    returns (bool)\n  {\n    return _isValidSignatureAndMethod(account, signature);\n  }\n\n  function onlyWithValidSignatureAndMethod(bytes signature)\n    public\n    onlyValidSignatureAndMethod(signature)\n    view\n  {\n\n  }\n\n  function checkValidSignatureAndData(\n    address account,\n    bytes,\n    uint,\n    bytes signature\n  )\n    public\n    view\n    returns (bool)\n  {\n    return _isValidSignatureAndData(account, signature);\n  }\n\n  function onlyWithValidSignatureAndData(uint, bytes signature)\n    public\n    onlyValidSignatureAndData(signature)\n    view\n  {\n\n  }\n\n  function theWrongMethod(bytes)\n    public\n    pure\n  {\n\n  }\n\n  function tooShortMsgData()\n    public\n    onlyValidSignatureAndData(\"\")\n    view\n  {\n  }\n}\n",
  "sourcePath": "/home/spalladino/Projects/openzeppelin-eth/contracts/mocks/SignatureBouncerMock.sol",
  "compiler": {
    "name": "solc",
    "version": "0.4.24+commit.e67f0147.Emscripten.clang"
  },
  "schemaVersion": "2.0.1",
  "updatedAt": "2018-10-22T15:51:22.534Z"
}