{
  "contractName": "SignerRoleMock",
  "abi": [
    {
      "constant": true,
      "inputs": [
        {
          "name": "account",
          "type": "address"
        }
      ],
      "name": "isSigner",
      "outputs": [
        {
          "name": "",
          "type": "bool"
        }
      ],
      "payable": false,
      "stateMutability": "view",
      "type": "function"
    },
    {
      "constant": false,
      "inputs": [
        {
          "name": "sender",
          "type": "address"
        }
      ],
      "name": "initialize",
      "outputs": [],
      "payable": false,
      "stateMutability": "nonpayable",
      "type": "function"
    },
    {
      "constant": false,
      "inputs": [],
      "name": "renounceSigner",
      "outputs": [],
      "payable": false,
      "stateMutability": "nonpayable",
      "type": "function"
    },
    {
      "constant": false,
      "inputs": [
        {
          "name": "account",
          "type": "address"
        }
      ],
      "name": "addSigner",
      "outputs": [],
      "payable": false,
      "stateMutability": "nonpayable",
      "type": "function"
    },
    {
      "inputs": [],
      "payable": false,
      "stateMutability": "nonpayable",
      "type": "constructor"
    },
    {
      "anonymous": false,
      "inputs": [
        {
          "indexed": true,
          "name": "account",
          "type": "address"
        }
      ],
      "name": "SignerAdded",
      "type": "event"
    },
    {
      "anonymous": false,
      "inputs": [
        {
          "indexed": true,
          "name": "account",
          "type": "address"
        }
      ],
      "name": "SignerRemoved",
      "type": "event"
    },
    {
      "constant": false,
      "inputs": [
        {
          "name": "account",
          "type": "address"
        }
      ],
      "name": "removeSigner",
      "outputs": [],
      "payable": false,
      "stateMutability": "nonpayable",
      "type": "function"
    },
    {
      "constant": true,
      "inputs": [],
      "name": "onlySignerMock",
      "outputs": [],
      "payable": false,
      "stateMutability": "view",
      "type": "function"
    }
  ],
  "bytecode": "0x608060405234801561001057600080fd5b5061002d336100326401000000000261020e176401000000009004565b61037e565b60008060019054906101000a900460ff168061006157506100606101ae640100000000026401000000009004565b5b8061007857506000809054906101000a900460ff16155b1515610112576040517f08c379a000000000000000000000000000000000000000000000000000000000815260040180806020018281038252602e8152602001807f436f6e747261637420696e7374616e63652068617320616c726561647920626581526020017f656e20696e697469616c697a656400000000000000000000000000000000000081525060400191505060405180910390fd5b600060019054906101000a900460ff1690506001600060016101000a81548160ff02191690831515021790555060016000806101000a81548160ff021916908315150217905550610171826101bf640100000000026401000000009004565b15156101905761018f826101e9640100000000026401000000009004565b5b80600060016101000a81548160ff0219169083151502179055505050565b600080303b90506000811491505090565b60006101e282603361025064010000000002610394179091906401000000009004565b9050919050565b61020a8160336102e4640100000000026104ed179091906401000000009004565b8073ffffffffffffffffffffffffffffffffffffffff167f47d1c22a25bb3a5d4e481b9b1e6944c2eade3181a0a20b495ed61d35b5323f2460405160405180910390a250565b60008073ffffffffffffffffffffffffffffffffffffffff168273ffffffffffffffffffffffffffffffffffffffff161415151561028d57600080fd5b8260000160008373ffffffffffffffffffffffffffffffffffffffff1673ffffffffffffffffffffffffffffffffffffffff16815260200190815260200160002060009054906101000a900460ff16905092915050565b600073ffffffffffffffffffffffffffffffffffffffff168173ffffffffffffffffffffffffffffffffffffffff161415151561032057600080fd5b60018260000160008373ffffffffffffffffffffffffffffffffffffffff1673ffffffffffffffffffffffffffffffffffffffff16815260200190815260200160002060006101000a81548160ff0219169083151502179055505050565b61064d8061038d6000396000f300608060405260043610610078576000357c0100000000000000000000000000000000000000000000000000000000900463ffffffff1680630e316ab71461007d5780637df73e27146100c0578063b44e2ab91461011b578063c4d66de814610132578063e5c8b03d14610175578063eb12d61e1461018c575b600080fd5b34801561008957600080fd5b506100be600480360381019080803573ffffffffffffffffffffffffffffffffffffffff1690602001909291905050506101cf565b005b3480156100cc57600080fd5b50610101600480360381019080803573ffffffffffffffffffffffffffffffffffffffff1690602001909291905050506101db565b604051808215151515815260200191505060405180910390f35b34801561012757600080fd5b506101306101f8565b005b34801561013e57600080fd5b50610173600480360381019080803573ffffffffffffffffffffffffffffffffffffffff16906020019092919050505061020e565b005b34801561018157600080fd5b5061018a61035d565b005b34801561019857600080fd5b506101cd600480360381019080803573ffffffffffffffffffffffffffffffffffffffff169060200190929190505050610368565b005b6101d881610388565b50565b60006101f182603361039490919063ffffffff16565b9050919050565b610201336101db565b151561020c57600080fd5b565b60008060019054906101000a900460ff168061022e575061022d610428565b5b8061024557506000809054906101000a900460ff16155b15156102df576040517f08c379a000000000000000000000000000000000000000000000000000000000815260040180806020018281038252602e8152602001807f436f6e747261637420696e7374616e63652068617320616c726561647920626581526020017f656e20696e697469616c697a656400000000000000000000000000000000000081525060400191505060405180910390fd5b600060019054906101000a900460ff1690506001600060016101000a81548160ff02191690831515021790555060016000806101000a81548160ff02191690831515021790555061032f826101db565b151561033f5761033e82610439565b5b80600060016101000a81548160ff0219169083151502179055505050565b61036633610388565b565b610371336101db565b151561037c57600080fd5b61038581610439565b50565b61039181610493565b50565b60008073ffffffffffffffffffffffffffffffffffffffff168273ffffffffffffffffffffffffffffffffffffffff16141515156103d157600080fd5b8260000160008373ffffffffffffffffffffffffffffffffffffffff1673ffffffffffffffffffffffffffffffffffffffff16815260200190815260200160002060009054906101000a900460ff16905092915050565b600080303b90506000811491505090565b61044d8160336104ed90919063ffffffff16565b8073ffffffffffffffffffffffffffffffffffffffff167f47d1c22a25bb3a5d4e481b9b1e6944c2eade3181a0a20b495ed61d35b5323f2460405160405180910390a250565b6104a781603361058790919063ffffffff16565b8073ffffffffffffffffffffffffffffffffffffffff167f3525e22824a8a7df2c9a6029941c824cf95b6447f1e13d5128fd3826d35afe8b60405160405180910390a250565b600073ffffffffffffffffffffffffffffffffffffffff168173ffffffffffffffffffffffffffffffffffffffff161415151561052957600080fd5b60018260000160008373ffffffffffffffffffffffffffffffffffffffff1673ffffffffffffffffffffffffffffffffffffffff16815260200190815260200160002060006101000a81548160ff0219169083151502179055505050565b600073ffffffffffffffffffffffffffffffffffffffff168173ffffffffffffffffffffffffffffffffffffffff16141515156105c357600080fd5b60008260000160008373ffffffffffffffffffffffffffffffffffffffff1673ffffffffffffffffffffffffffffffffffffffff16815260200190815260200160002060006101000a81548160ff02191690831515021790555050505600a165627a7a72305820d27cbc49f42dfa9f52c286f899df6ed9dcc29a75fdc158d3a1ab2d62af8fefe50029",
  "source": "pragma solidity ^0.4.24;\n\nimport \"../access/roles/SignerRole.sol\";\n\n\ncontract SignerRoleMock is SignerRole {\n  constructor() public {\n    SignerRole.initialize(msg.sender);\n  }\n\n  function removeSigner(address account) public {\n    _removeSigner(account);\n  }\n\n  function onlySignerMock() public view onlySigner {\n  }\n\n  // Causes a compilation error if super._removeSigner is not internal\n  function _removeSigner(address account) internal {\n    super._removeSigner(account);\n  }\n}\n",
  "sourcePath": "/home/spalladino/Projects/openzeppelin-eth/contracts/mocks/SignerRoleMock.sol",
  "compiler": {
    "name": "solc",
    "version": "0.4.24+commit.e67f0147.Emscripten.clang"
  },
  "schemaVersion": "2.0.1",
  "updatedAt": "2018-10-22T15:51:22.534Z"
}