{
  "contractName": "SimpleTokenMock",
  "abi": [
    {
      "constant": true,
      "inputs": [],
      "name": "name",
      "outputs": [
        {
          "name": "",
          "type": "string"
        }
      ],
      "payable": false,
      "stateMutability": "view",
      "type": "function"
    },
    {
      "constant": false,
      "inputs": [
        {
          "name": "spender",
          "type": "address"
        },
        {
          "name": "value",
          "type": "uint256"
        }
      ],
      "name": "approve",
      "outputs": [
        {
          "name": "",
          "type": "bool"
        }
      ],
      "payable": false,
      "stateMutability": "nonpayable",
      "type": "function"
    },
    {
      "constant": true,
      "inputs": [],
      "name": "totalSupply",
      "outputs": [
        {
          "name": "",
          "type": "uint256"
        }
      ],
      "payable": false,
      "stateMutability": "view",
      "type": "function"
    },
    {
      "constant": false,
      "inputs": [
        {
          "name": "from",
          "type": "address"
        },
        {
          "name": "to",
          "type": "address"
        },
        {
          "name": "value",
          "type": "uint256"
        }
      ],
      "name": "transferFrom",
      "outputs": [
        {
          "name": "",
          "type": "bool"
        }
      ],
      "payable": false,
      "stateMutability": "nonpayable",
      "type": "function"
    },
    {
      "constant": true,
      "inputs": [],
      "name": "INITIAL_SUPPLY",
      "outputs": [
        {
          "name": "",
          "type": "uint256"
        }
      ],
      "payable": false,
      "stateMutability": "view",
      "type": "function"
    },
    {
      "constant": true,
      "inputs": [],
      "name": "decimals",
      "outputs": [
        {
          "name": "",
          "type": "uint8"
        }
      ],
      "payable": false,
      "stateMutability": "view",
      "type": "function"
    },
    {
      "constant": false,
      "inputs": [
        {
          "name": "spender",
          "type": "address"
        },
        {
          "name": "addedValue",
          "type": "uint256"
        }
      ],
      "name": "increaseAllowance",
      "outputs": [
        {
          "name": "",
          "type": "bool"
        }
      ],
      "payable": false,
      "stateMutability": "nonpayable",
      "type": "function"
    },
    {
      "constant": true,
      "inputs": [
        {
          "name": "owner",
          "type": "address"
        }
      ],
      "name": "balanceOf",
      "outputs": [
        {
          "name": "",
          "type": "uint256"
        }
      ],
      "payable": false,
      "stateMutability": "view",
      "type": "function"
    },
    {
      "constant": true,
      "inputs": [],
      "name": "symbol",
      "outputs": [
        {
          "name": "",
          "type": "string"
        }
      ],
      "payable": false,
      "stateMutability": "view",
      "type": "function"
    },
    {
      "constant": false,
      "inputs": [
        {
          "name": "spender",
          "type": "address"
        },
        {
          "name": "subtractedValue",
          "type": "uint256"
        }
      ],
      "name": "decreaseAllowance",
      "outputs": [
        {
          "name": "",
          "type": "bool"
        }
      ],
      "payable": false,
      "stateMutability": "nonpayable",
      "type": "function"
    },
    {
      "constant": false,
      "inputs": [
        {
          "name": "to",
          "type": "address"
        },
        {
          "name": "value",
          "type": "uint256"
        }
      ],
      "name": "transfer",
      "outputs": [
        {
          "name": "",
          "type": "bool"
        }
      ],
      "payable": false,
      "stateMutability": "nonpayable",
      "type": "function"
    },
    {
      "constant": false,
      "inputs": [
        {
          "name": "sender",
          "type": "address"
        }
      ],
      "name": "initialize",
      "outputs": [],
      "payable": false,
      "stateMutability": "nonpayable",
      "type": "function"
    },
    {
      "constant": true,
      "inputs": [
        {
          "name": "owner",
          "type": "address"
        },
        {
          "name": "spender",
          "type": "address"
        }
      ],
      "name": "allowance",
      "outputs": [
        {
          "name": "",
          "type": "uint256"
        }
      ],
      "payable": false,
      "stateMutability": "view",
      "type": "function"
    },
    {
      "inputs": [],
      "payable": false,
      "stateMutability": "nonpayable",
      "type": "constructor"
    },
    {
      "anonymous": false,
      "inputs": [
        {
          "indexed": true,
          "name": "from",
          "type": "address"
        },
        {
          "indexed": true,
          "name": "to",
          "type": "address"
        },
        {
          "indexed": false,
          "name": "value",
          "type": "uint256"
        }
      ],
      "name": "Transfer",
      "type": "event"
    },
    {
      "anonymous": false,
      "inputs": [
        {
          "indexed": true,
          "name": "owner",
          "type": "address"
        },
        {
          "indexed": true,
          "name": "spender",
          "type": "address"
        },
        {
          "indexed": false,
          "name": "value",
          "type": "uint256"
        }
      ],
      "name": "Approval",
      "type": "event"
    }
  ],
  "bytecode": "0x60806040523480156200001157600080fd5b506200003133620000376401000000000262000dd8176401000000009004565b6200033b565b60008060019054906101000a900460ff168062000069575062000068620001a7640100000000026401000000009004565b5b806200008157506000809054906101000a900460ff16155b15156200011c576040517f08c379a000000000000000000000000000000000000000000000000000000000815260040180806020018281038252602e8152602001807f436f6e747261637420696e7374616e63652068617320616c726561647920626581526020017f656e20696e697469616c697a656400000000000000000000000000000000000081525060400191505060405180910390fd5b600060019054906101000a900460ff1690506001600060016101000a81548160ff02191690831515021790555060016000806101000a81548160ff0219169083151502179055506200018982601260ff16600a0a61271002620001b8640100000000026401000000009004565b80600060016101000a81548160ff0219169083151502179055505050565b600080303b90506000811491505090565b60008273ffffffffffffffffffffffffffffffffffffffff1614151515620001df57600080fd5b62000204816035546200031964010000000002620011e9179091906401000000009004565b6035819055506200026c81603360008573ffffffffffffffffffffffffffffffffffffffff1673ffffffffffffffffffffffffffffffffffffffff168152602001908152602001600020546200031964010000000002620011e9179091906401000000009004565b603360008473ffffffffffffffffffffffffffffffffffffffff1673ffffffffffffffffffffffffffffffffffffffff168152602001908152602001600020819055508173ffffffffffffffffffffffffffffffffffffffff16600073ffffffffffffffffffffffffffffffffffffffff167fddf252ad1be2c89b69c2b068fc378daa952ba7f163c4a11628f55a4df523b3ef836040518082815260200191505060405180910390a35050565b60008082840190508381101515156200033157600080fd5b8091505092915050565b611387806200034b6000396000f3006080604052600436106100c5576000357c0100000000000000000000000000000000000000000000000000000000900463ffffffff16806306fdde03146100ca578063095ea7b31461015a57806318160ddd146101bf57806323b872dd146101ea5780632ff2e9dc1461026f578063313ce5671461029a57806339509351146102cb57806370a082311461033057806395d89b4114610387578063a457c2d714610417578063a9059cbb1461047c578063c4d66de8146104e1578063dd62ed3e14610524575b600080fd5b3480156100d657600080fd5b506100df61059b565b6040518080602001828103825283818151815260200191508051906020019080838360005b8381101561011f578082015181840152602081019050610104565b50505050905090810190601f16801561014c5780820380516001836020036101000a031916815260200191505b509250505060405180910390f35b34801561016657600080fd5b506101a5600480360381019080803573ffffffffffffffffffffffffffffffffffffffff169060200190929190803590602001909291905050506105d4565b604051808215151515815260200191505060405180910390f35b3480156101cb57600080fd5b506101d4610701565b6040518082815260200191505060405180910390f35b3480156101f657600080fd5b50610255600480360381019080803573ffffffffffffffffffffffffffffffffffffffff169060200190929190803573ffffffffffffffffffffffffffffffffffffffff1690602001909291908035906020019092919050505061070b565b604051808215151515815260200191505060405180910390f35b34801561027b57600080fd5b506102846108bd565b6040518082815260200191505060405180910390f35b3480156102a657600080fd5b506102af6108cc565b604051808260ff1660ff16815260200191505060405180910390f35b3480156102d757600080fd5b50610316600480360381019080803573ffffffffffffffffffffffffffffffffffffffff169060200190929190803590602001909291905050506108d1565b604051808215151515815260200191505060405180910390f35b34801561033c57600080fd5b50610371600480360381019080803573ffffffffffffffffffffffffffffffffffffffff169060200190929190505050610b08565b6040518082815260200191505060405180910390f35b34801561039357600080fd5b5061039c610b51565b6040518080602001828103825283818151815260200191508051906020019080838360005b838110156103dc5780820151818401526020810190506103c1565b50505050905090810190601f1680156104095780820380516001836020036101000a031916815260200191505b509250505060405180910390f35b34801561042357600080fd5b50610462600480360381019080803573ffffffffffffffffffffffffffffffffffffffff16906020019092919080359060200190929190505050610b8a565b604051808215151515815260200191505060405180910390f35b34801561048857600080fd5b506104c7600480360381019080803573ffffffffffffffffffffffffffffffffffffffff16906020019092919080359060200190929190505050610dc1565b604051808215151515815260200191505060405180910390f35b3480156104ed57600080fd5b50610522600480360381019080803573ffffffffffffffffffffffffffffffffffffffff169060200190929190505050610dd8565b005b34801561053057600080fd5b50610585600480360381019080803573ffffffffffffffffffffffffffffffffffffffff169060200190929190803573ffffffffffffffffffffffffffffffffffffffff169060200190929190505050610f23565b6040518082815260200191505060405180910390f35b6040805190810160405280600b81526020017f53696d706c65546f6b656e00000000000000000000000000000000000000000081525081565b60008073ffffffffffffffffffffffffffffffffffffffff168373ffffffffffffffffffffffffffffffffffffffff161415151561061157600080fd5b81603460003373ffffffffffffffffffffffffffffffffffffffff1673ffffffffffffffffffffffffffffffffffffffff16815260200190815260200160002060008573ffffffffffffffffffffffffffffffffffffffff1673ffffffffffffffffffffffffffffffffffffffff168152602001908152602001600020819055508273ffffffffffffffffffffffffffffffffffffffff163373ffffffffffffffffffffffffffffffffffffffff167f8c5be1e5ebec7d5bd14f71427d1e84f3dd0314c0f7b2291e5b200ac8c7c3b925846040518082815260200191505060405180910390a36001905092915050565b6000603554905090565b6000603460008573ffffffffffffffffffffffffffffffffffffffff1673ffffffffffffffffffffffffffffffffffffffff16815260200190815260200160002060003373ffffffffffffffffffffffffffffffffffffffff1673ffffffffffffffffffffffffffffffffffffffff16815260200190815260200160002054821115151561079857600080fd5b61082782603460008773ffffffffffffffffffffffffffffffffffffffff1673ffffffffffffffffffffffffffffffffffffffff16815260200190815260200160002060003373ffffffffffffffffffffffffffffffffffffffff1673ffffffffffffffffffffffffffffffffffffffff16815260200190815260200160002054610faa90919063ffffffff16565b603460008673ffffffffffffffffffffffffffffffffffffffff1673ffffffffffffffffffffffffffffffffffffffff16815260200190815260200160002060003373ffffffffffffffffffffffffffffffffffffffff1673ffffffffffffffffffffffffffffffffffffffff168152602001908152602001600020819055506108b2848484610fcb565b600190509392505050565b601260ff16600a0a6127100281565b601281565b60008073ffffffffffffffffffffffffffffffffffffffff168373ffffffffffffffffffffffffffffffffffffffff161415151561090e57600080fd5b61099d82603460003373ffffffffffffffffffffffffffffffffffffffff1673ffffffffffffffffffffffffffffffffffffffff16815260200190815260200160002060008673ffffffffffffffffffffffffffffffffffffffff1673ffffffffffffffffffffffffffffffffffffffff168152602001908152602001600020546111e990919063ffffffff16565b603460003373ffffffffffffffffffffffffffffffffffffffff1673ffffffffffffffffffffffffffffffffffffffff16815260200190815260200160002060008573ffffffffffffffffffffffffffffffffffffffff1673ffffffffffffffffffffffffffffffffffffffff168152602001908152602001600020819055508273ffffffffffffffffffffffffffffffffffffffff163373ffffffffffffffffffffffffffffffffffffffff167f8c5be1e5ebec7d5bd14f71427d1e84f3dd0314c0f7b2291e5b200ac8c7c3b925603460003373ffffffffffffffffffffffffffffffffffffffff1673ffffffffffffffffffffffffffffffffffffffff16815260200190815260200160002060008773ffffffffffffffffffffffffffffffffffffffff1673ffffffffffffffffffffffffffffffffffffffff168152602001908152602001600020546040518082815260200191505060405180910390a36001905092915050565b6000603360008373ffffffffffffffffffffffffffffffffffffffff1673ffffffffffffffffffffffffffffffffffffffff168152602001908152602001600020549050919050565b6040805190810160405280600381526020017f53494d000000000000000000000000000000000000000000000000000000000081525081565b60008073ffffffffffffffffffffffffffffffffffffffff168373ffffffffffffffffffffffffffffffffffffffff1614151515610bc757600080fd5b610c5682603460003373ffffffffffffffffffffffffffffffffffffffff1673ffffffffffffffffffffffffffffffffffffffff16815260200190815260200160002060008673ffffffffffffffffffffffffffffffffffffffff1673ffffffffffffffffffffffffffffffffffffffff16815260200190815260200160002054610faa90919063ffffffff16565b603460003373ffffffffffffffffffffffffffffffffffffffff1673ffffffffffffffffffffffffffffffffffffffff16815260200190815260200160002060008573ffffffffffffffffffffffffffffffffffffffff1673ffffffffffffffffffffffffffffffffffffffff168152602001908152602001600020819055508273ffffffffffffffffffffffffffffffffffffffff163373ffffffffffffffffffffffffffffffffffffffff167f8c5be1e5ebec7d5bd14f71427d1e84f3dd0314c0f7b2291e5b200ac8c7c3b925603460003373ffffffffffffffffffffffffffffffffffffffff1673ffffffffffffffffffffffffffffffffffffffff16815260200190815260200160002060008773ffffffffffffffffffffffffffffffffffffffff1673ffffffffffffffffffffffffffffffffffffffff168152602001908152602001600020546040518082815260200191505060405180910390a36001905092915050565b6000610dce338484610fcb565b6001905092915050565b60008060019054906101000a900460ff1680610df85750610df761120a565b5b80610e0f57506000809054906101000a900460ff16155b1515610ea9576040517f08c379a000000000000000000000000000000000000000000000000000000000815260040180806020018281038252602e8152602001807f436f6e747261637420696e7374616e63652068617320616c726561647920626581526020017f656e20696e697469616c697a656400000000000000000000000000000000000081525060400191505060405180910390fd5b600060019054906101000a900460ff1690506001600060016101000a81548160ff02191690831515021790555060016000806101000a81548160ff021916908315150217905550610f0582601260ff16600a0a6127100261121b565b80600060016101000a81548160ff0219169083151502179055505050565b6000603460008473ffffffffffffffffffffffffffffffffffffffff1673ffffffffffffffffffffffffffffffffffffffff16815260200190815260200160002060008373ffffffffffffffffffffffffffffffffffffffff1673ffffffffffffffffffffffffffffffffffffffff16815260200190815260200160002054905092915050565b600080838311151515610fbc57600080fd5b82840390508091505092915050565b603360008473ffffffffffffffffffffffffffffffffffffffff1673ffffffffffffffffffffffffffffffffffffffff16815260200190815260200160002054811115151561101957600080fd5b600073ffffffffffffffffffffffffffffffffffffffff168273ffffffffffffffffffffffffffffffffffffffff161415151561105557600080fd5b6110a781603360008673ffffffffffffffffffffffffffffffffffffffff1673ffffffffffffffffffffffffffffffffffffffff16815260200190815260200160002054610faa90919063ffffffff16565b603360008573ffffffffffffffffffffffffffffffffffffffff1673ffffffffffffffffffffffffffffffffffffffff1681526020019081526020016000208190555061113c81603360008573ffffffffffffffffffffffffffffffffffffffff1673ffffffffffffffffffffffffffffffffffffffff168152602001908152602001600020546111e990919063ffffffff16565b603360008473ffffffffffffffffffffffffffffffffffffffff1673ffffffffffffffffffffffffffffffffffffffff168152602001908152602001600020819055508173ffffffffffffffffffffffffffffffffffffffff168373ffffffffffffffffffffffffffffffffffffffff167fddf252ad1be2c89b69c2b068fc378daa952ba7f163c4a11628f55a4df523b3ef836040518082815260200191505060405180910390a3505050565b600080828401905083811015151561120057600080fd5b8091505092915050565b600080303b90506000811491505090565b60008273ffffffffffffffffffffffffffffffffffffffff161415151561124157600080fd5b611256816035546111e990919063ffffffff16565b6035819055506112ae81603360008573ffffffffffffffffffffffffffffffffffffffff1673ffffffffffffffffffffffffffffffffffffffff168152602001908152602001600020546111e990919063ffffffff16565b603360008473ffffffffffffffffffffffffffffffffffffffff1673ffffffffffffffffffffffffffffffffffffffff168152602001908152602001600020819055508173ffffffffffffffffffffffffffffffffffffffff16600073ffffffffffffffffffffffffffffffffffffffff167fddf252ad1be2c89b69c2b068fc378daa952ba7f163c4a11628f55a4df523b3ef836040518082815260200191505060405180910390a350505600a165627a7a7230582049fdf97ac27c3102e71375caede66f4907d9fca4e83133d2b52d733081f7609a0029",
  "source": "pragma solidity ^0.4.24;\n\nimport \"../examples/SimpleToken.sol\";\n\ncontract SimpleTokenMock is SimpleToken {\n  constructor() public {\n    SimpleToken.initialize(msg.sender);\n  }\n}\n",
  "sourcePath": "/home/spalladino/Projects/openzeppelin-eth/contracts/mocks/SimpleTokenMock.sol",
  "compiler": {
    "name": "solc",
    "version": "0.4.24+commit.e67f0147.Emscripten.clang"
  },
  "schemaVersion": "2.0.1",
  "updatedAt": "2018-10-22T15:51:22.535Z"
}