{
  "contractName": "AllowanceCrowdsale",
  "abi": [
    {
      "constant": true,
      "inputs": [],
      "name": "rate",
      "outputs": [
        {
          "name": "",
          "type": "uint256"
        }
      ],
      "payable": false,
      "stateMutability": "view",
      "type": "function"
    },
    {
      "constant": true,
      "inputs": [],
      "name": "weiRaised",
      "outputs": [
        {
          "name": "",
          "type": "uint256"
        }
      ],
      "payable": false,
      "stateMutability": "view",
      "type": "function"
    },
    {
      "constant": true,
      "inputs": [],
      "name": "wallet",
      "outputs": [
        {
          "name": "",
          "type": "address"
        }
      ],
      "payable": false,
      "stateMutability": "view",
      "type": "function"
    },
    {
      "constant": false,
      "inputs": [
        {
          "name": "beneficiary",
          "type": "address"
        }
      ],
      "name": "buyTokens",
      "outputs": [],
      "payable": true,
      "stateMutability": "payable",
      "type": "function"
    },
    {
      "constant": true,
      "inputs": [],
      "name": "token",
      "outputs": [
        {
          "name": "",
          "type": "address"
        }
      ],
      "payable": false,
      "stateMutability": "view",
      "type": "function"
    },
    {
      "payable": true,
      "stateMutability": "payable",
      "type": "fallback"
    },
    {
      "anonymous": false,
      "inputs": [
        {
          "indexed": true,
          "name": "purchaser",
          "type": "address"
        },
        {
          "indexed": true,
          "name": "beneficiary",
          "type": "address"
        },
        {
          "indexed": false,
          "name": "value",
          "type": "uint256"
        },
        {
          "indexed": false,
          "name": "amount",
          "type": "uint256"
        }
      ],
      "name": "TokensPurchased",
      "type": "event"
    },
    {
      "constant": false,
      "inputs": [
        {
          "name": "rate",
          "type": "uint256"
        },
        {
          "name": "wallet",
          "type": "address"
        },
        {
          "name": "token",
          "type": "address"
        }
      ],
      "name": "initialize",
      "outputs": [],
      "payable": false,
      "stateMutability": "nonpayable",
      "type": "function"
    },
    {
      "constant": false,
      "inputs": [
        {
          "name": "tokenWallet",
          "type": "address"
        }
      ],
      "name": "initialize",
      "outputs": [],
      "payable": false,
      "stateMutability": "nonpayable",
      "type": "function"
    },
    {
      "constant": true,
      "inputs": [],
      "name": "tokenWallet",
      "outputs": [
        {
          "name": "",
          "type": "address"
        }
      ],
      "payable": false,
      "stateMutability": "view",
      "type": "function"
    },
    {
      "constant": true,
      "inputs": [],
      "name": "remainingTokens",
      "outputs": [
        {
          "name": "",
          "type": "uint256"
        }
      ],
      "payable": false,
      "stateMutability": "view",
      "type": "function"
    }
  ],
  "bytecode": "0x608060405234801561001057600080fd5b50610d7f806100206000396000f300608060405260043610610099576000357c0100000000000000000000000000000000000000000000000000000000900463ffffffff1680632c4e722e146100a45780634042b66f146100cf578063521eb273146100fa578063b4988fd014610151578063bf583903146101be578063bff99c6c146101e9578063c4d66de814610240578063ec8ac4d814610283578063fc0c546a146102b9575b6100a233610310565b005b3480156100b057600080fd5b506100b96103de565b6040518082815260200191505060405180910390f35b3480156100db57600080fd5b506100e46103e8565b6040518082815260200191505060405180910390f35b34801561010657600080fd5b5061010f6103f2565b604051808273ffffffffffffffffffffffffffffffffffffffff1673ffffffffffffffffffffffffffffffffffffffff16815260200191505060405180910390f35b34801561015d57600080fd5b506101bc60048036038101908080359060200190929190803573ffffffffffffffffffffffffffffffffffffffff169060200190929190803573ffffffffffffffffffffffffffffffffffffffff16906020019092919050505061041c565b005b3480156101ca57600080fd5b506101d3610664565b6040518082815260200191505060405180910390f35b3480156101f557600080fd5b506101fe61079e565b604051808273ffffffffffffffffffffffffffffffffffffffff1673ffffffffffffffffffffffffffffffffffffffff16815260200191505060405180910390f35b34801561024c57600080fd5b50610281600480360381019080803573ffffffffffffffffffffffffffffffffffffffff1690602001909291905050506107c8565b005b6102b7600480360381019080803573ffffffffffffffffffffffffffffffffffffffff169060200190929190505050610310565b005b3480156102c557600080fd5b506102ce61098b565b604051808273ffffffffffffffffffffffffffffffffffffffff1673ffffffffffffffffffffffffffffffffffffffff16815260200191505060405180910390f35b60008034915061032083836109b5565b61032982610a05565b905061034082603654610a2390919063ffffffff16565b6036819055506103508382610a44565b8273ffffffffffffffffffffffffffffffffffffffff163373ffffffffffffffffffffffffffffffffffffffff167f6faf93231a456e552dbc9961f58d9713ee4f2e69d15f1975b050ef0911053a7b8484604051808381526020018281526020019250505060405180910390a36103c78383610a52565b6103cf610a56565b6103d98383610ac1565b505050565b6000603554905090565b6000603654905090565b6000603460009054906101000a900473ffffffffffffffffffffffffffffffffffffffff16905090565b60008060019054906101000a900460ff168061043c575061043b610ac5565b5b8061045357506000809054906101000a900460ff16155b15156104ed576040517f08c379a000000000000000000000000000000000000000000000000000000000815260040180806020018281038252602e8152602001807f436f6e747261637420696e7374616e63652068617320616c726561647920626581526020017f656e20696e697469616c697a656400000000000000000000000000000000000081525060400191505060405180910390fd5b600060019054906101000a900460ff1690506001600060016101000a81548160ff02191690831515021790555060016000806101000a81548160ff02191690831515021790555060008411151561054357600080fd5b600073ffffffffffffffffffffffffffffffffffffffff168373ffffffffffffffffffffffffffffffffffffffff161415151561057f57600080fd5b600073ffffffffffffffffffffffffffffffffffffffff168273ffffffffffffffffffffffffffffffffffffffff16141515156105bb57600080fd5b8360358190555082603460006101000a81548173ffffffffffffffffffffffffffffffffffffffff021916908373ffffffffffffffffffffffffffffffffffffffff16021790555081603360006101000a81548173ffffffffffffffffffffffffffffffffffffffff021916908373ffffffffffffffffffffffffffffffffffffffff16021790555080600060016101000a81548160ff02191690831515021790555050505050565b600061066e61098b565b73ffffffffffffffffffffffffffffffffffffffff1663dd62ed3e606960009054906101000a900473ffffffffffffffffffffffffffffffffffffffff16306040518363ffffffff167c0100000000000000000000000000000000000000000000000000000000028152600401808373ffffffffffffffffffffffffffffffffffffffff1673ffffffffffffffffffffffffffffffffffffffff1681526020018273ffffffffffffffffffffffffffffffffffffffff1673ffffffffffffffffffffffffffffffffffffffff16815260200192505050602060405180830381600087803b15801561075e57600080fd5b505af1158015610772573d6000803e3d6000fd5b505050506040513d602081101561078857600080fd5b8101908080519060200190929190505050905090565b6000606960009054906101000a900473ffffffffffffffffffffffffffffffffffffffff16905090565b60008060019054906101000a900460ff16806107e857506107e7610ac5565b5b806107ff57506000809054906101000a900460ff16155b1515610899576040517f08c379a000000000000000000000000000000000000000000000000000000000815260040180806020018281038252602e8152602001807f436f6e747261637420696e7374616e63652068617320616c726561647920626581526020017f656e20696e697469616c697a656400000000000000000000000000000000000081525060400191505060405180910390fd5b600060019054906101000a900460ff1690506001600060016101000a81548160ff02191690831515021790555060016000806101000a81548160ff0219169083151502179055506108e8610ad6565b15156108f057fe5b600073ffffffffffffffffffffffffffffffffffffffff168273ffffffffffffffffffffffffffffffffffffffff161415151561092c57600080fd5b81606960006101000a81548173ffffffffffffffffffffffffffffffffffffffff021916908373ffffffffffffffffffffffffffffffffffffffff16021790555080600060016101000a81548160ff0219169083151502179055505050565b6000603360009054906101000a900473ffffffffffffffffffffffffffffffffffffffff16905090565b600073ffffffffffffffffffffffffffffffffffffffff168273ffffffffffffffffffffffffffffffffffffffff16141515156109f157600080fd5b60008114151515610a0157600080fd5b5050565b6000610a1c60355483610b9890919063ffffffff16565b9050919050565b6000808284019050838110151515610a3a57600080fd5b8091505092915050565b610a4e8282610bd6565b5050565b5050565b603460009054906101000a900473ffffffffffffffffffffffffffffffffffffffff1673ffffffffffffffffffffffffffffffffffffffff166108fc349081150290604051600060405180830381858888f19350505050158015610abe573d6000803e3d6000fd5b50565b5050565b600080303b90506000811491505090565b600080603554118015610b385750600073ffffffffffffffffffffffffffffffffffffffff16603460009054906101000a900473ffffffffffffffffffffffffffffffffffffffff1673ffffffffffffffffffffffffffffffffffffffff1614155b8015610b935750600073ffffffffffffffffffffffffffffffffffffffff16603360009054906101000a900473ffffffffffffffffffffffffffffffffffffffff1673ffffffffffffffffffffffffffffffffffffffff1614155b905090565b6000806000841415610bad5760009150610bcf565b8284029050828482811515610bbe57fe5b04141515610bcb57600080fd5b8091505b5092915050565b610c2c606960009054906101000a900473ffffffffffffffffffffffffffffffffffffffff168383610c0661098b565b73ffffffffffffffffffffffffffffffffffffffff16610c30909392919063ffffffff16565b5050565b8373ffffffffffffffffffffffffffffffffffffffff166323b872dd8484846040518463ffffffff167c0100000000000000000000000000000000000000000000000000000000028152600401808473ffffffffffffffffffffffffffffffffffffffff1673ffffffffffffffffffffffffffffffffffffffff1681526020018373ffffffffffffffffffffffffffffffffffffffff1673ffffffffffffffffffffffffffffffffffffffff1681526020018281526020019350505050602060405180830381600087803b158015610d0757600080fd5b505af1158015610d1b573d6000803e3d6000fd5b505050506040513d6020811015610d3157600080fd5b81019080805190602001909291905050501515610d4d57600080fd5b505050505600a165627a7a723058205b610d5ff766c2b46a7258559e2f39900a2b7effdf2242e5489562c669bd23aa0029",
  "source": "pragma solidity ^0.4.24;\n\nimport \"zos-lib/contracts/Initializable.sol\";\nimport \"../Crowdsale.sol\";\nimport \"../../token/ERC20/IERC20.sol\";\nimport \"../../token/ERC20/SafeERC20.sol\";\nimport \"../../math/SafeMath.sol\";\n\n\n/**\n * @title AllowanceCrowdsale\n * @dev Extension of Crowdsale where tokens are held by a wallet, which approves an allowance to the crowdsale.\n */\ncontract AllowanceCrowdsale is Initializable, Crowdsale {\n  using SafeMath for uint256;\n  using SafeERC20 for IERC20;\n\n  address private _tokenWallet;\n\n  /**\n   * @dev Constructor, takes token wallet address.\n   * @param tokenWallet Address holding the tokens, which has approved allowance to the crowdsale\n   */\n  function initialize(address tokenWallet) public initializer {\n    assert(Crowdsale._hasBeenInitialized());\n\n    require(tokenWallet != address(0));\n    _tokenWallet = tokenWallet;\n  }\n\n  /**\n   * @return the address of the wallet that will hold the tokens.\n   */\n  function tokenWallet() public view returns(address) {\n    return _tokenWallet;\n  }\n\n  /**\n   * @dev Checks the amount of tokens left in the allowance.\n   * @return Amount of tokens left in the allowance\n   */\n  function remainingTokens() public view returns (uint256) {\n    return token().allowance(_tokenWallet, this);\n  }\n\n  /**\n   * @dev Overrides parent behavior by transferring tokens from wallet.\n   * @param beneficiary Token purchaser\n   * @param tokenAmount Amount of tokens purchased\n   */\n  function _deliverTokens(\n    address beneficiary,\n    uint256 tokenAmount\n  )\n    internal\n  {\n    token().safeTransferFrom(_tokenWallet, beneficiary, tokenAmount);\n  }\n\n  uint256[50] private ______gap;\n}\n",
  "sourcePath": "/Users/jretina/Programming/PROPSProject/props-token-distribution/contracts/token/openzeppelin-eth/contracts/crowdsale/emission/AllowanceCrowdsale.sol",
  "compiler": {
    "name": "solc",
    "version": "0.4.24+commit.e67f0147.Emscripten.clang"
  },
  "schemaVersion": "2.0.1",
  "updatedAt": "2019-05-08T08:10:58.655Z"
}