{
  "contractName": "BasicJurisdiction",
  "abi": [
    {
      "constant": false,
      "inputs": [],
      "name": "unpause",
      "outputs": [],
      "payable": false,
      "stateMutability": "nonpayable",
      "type": "function"
    },
    {
      "constant": true,
      "inputs": [
        {
          "name": "account",
          "type": "address"
        }
      ],
      "name": "isPauser",
      "outputs": [
        {
          "name": "",
          "type": "bool"
        }
      ],
      "payable": false,
      "stateMutability": "view",
      "type": "function"
    },
    {
      "constant": true,
      "inputs": [],
      "name": "paused",
      "outputs": [
        {
          "name": "",
          "type": "bool"
        }
      ],
      "payable": false,
      "stateMutability": "view",
      "type": "function"
    },
    {
      "constant": false,
      "inputs": [],
      "name": "renouncePauser",
      "outputs": [],
      "payable": false,
      "stateMutability": "nonpayable",
      "type": "function"
    },
    {
      "constant": false,
      "inputs": [],
      "name": "renounceOwnership",
      "outputs": [],
      "payable": false,
      "stateMutability": "nonpayable",
      "type": "function"
    },
    {
      "constant": false,
      "inputs": [
        {
          "name": "account",
          "type": "address"
        }
      ],
      "name": "addPauser",
      "outputs": [],
      "payable": false,
      "stateMutability": "nonpayable",
      "type": "function"
    },
    {
      "constant": false,
      "inputs": [],
      "name": "pause",
      "outputs": [],
      "payable": false,
      "stateMutability": "nonpayable",
      "type": "function"
    },
    {
      "constant": true,
      "inputs": [],
      "name": "owner",
      "outputs": [
        {
          "name": "",
          "type": "address"
        }
      ],
      "payable": false,
      "stateMutability": "view",
      "type": "function"
    },
    {
      "constant": true,
      "inputs": [],
      "name": "isOwner",
      "outputs": [
        {
          "name": "",
          "type": "bool"
        }
      ],
      "payable": false,
      "stateMutability": "view",
      "type": "function"
    },
    {
      "constant": false,
      "inputs": [
        {
          "name": "newOwner",
          "type": "address"
        }
      ],
      "name": "transferOwnership",
      "outputs": [],
      "payable": false,
      "stateMutability": "nonpayable",
      "type": "function"
    },
    {
      "anonymous": false,
      "inputs": [
        {
          "indexed": true,
          "name": "attributeTypeID",
          "type": "uint256"
        },
        {
          "indexed": false,
          "name": "description",
          "type": "string"
        }
      ],
      "name": "AttributeTypeAdded",
      "type": "event"
    },
    {
      "anonymous": false,
      "inputs": [
        {
          "indexed": true,
          "name": "attributeTypeID",
          "type": "uint256"
        }
      ],
      "name": "AttributeTypeRemoved",
      "type": "event"
    },
    {
      "anonymous": false,
      "inputs": [
        {
          "indexed": true,
          "name": "validator",
          "type": "address"
        },
        {
          "indexed": false,
          "name": "description",
          "type": "string"
        }
      ],
      "name": "ValidatorAdded",
      "type": "event"
    },
    {
      "anonymous": false,
      "inputs": [
        {
          "indexed": true,
          "name": "validator",
          "type": "address"
        }
      ],
      "name": "ValidatorRemoved",
      "type": "event"
    },
    {
      "anonymous": false,
      "inputs": [
        {
          "indexed": false,
          "name": "validator",
          "type": "address"
        },
        {
          "indexed": true,
          "name": "attributeTypeID",
          "type": "uint256"
        }
      ],
      "name": "ValidatorApprovalAdded",
      "type": "event"
    },
    {
      "anonymous": false,
      "inputs": [
        {
          "indexed": false,
          "name": "validator",
          "type": "address"
        },
        {
          "indexed": true,
          "name": "attributeTypeID",
          "type": "uint256"
        }
      ],
      "name": "ValidatorApprovalRemoved",
      "type": "event"
    },
    {
      "anonymous": false,
      "inputs": [
        {
          "indexed": false,
          "name": "validator",
          "type": "address"
        },
        {
          "indexed": true,
          "name": "attributee",
          "type": "address"
        },
        {
          "indexed": false,
          "name": "attributeTypeID",
          "type": "uint256"
        },
        {
          "indexed": false,
          "name": "attributeValue",
          "type": "uint256"
        }
      ],
      "name": "AttributeAdded",
      "type": "event"
    },
    {
      "anonymous": false,
      "inputs": [
        {
          "indexed": false,
          "name": "validator",
          "type": "address"
        },
        {
          "indexed": true,
          "name": "attributee",
          "type": "address"
        },
        {
          "indexed": false,
          "name": "attributeTypeID",
          "type": "uint256"
        }
      ],
      "name": "AttributeRemoved",
      "type": "event"
    },
    {
      "anonymous": false,
      "inputs": [
        {
          "indexed": false,
          "name": "account",
          "type": "address"
        }
      ],
      "name": "Paused",
      "type": "event"
    },
    {
      "anonymous": false,
      "inputs": [
        {
          "indexed": false,
          "name": "account",
          "type": "address"
        }
      ],
      "name": "Unpaused",
      "type": "event"
    },
    {
      "anonymous": false,
      "inputs": [
        {
          "indexed": true,
          "name": "account",
          "type": "address"
        }
      ],
      "name": "PauserAdded",
      "type": "event"
    },
    {
      "anonymous": false,
      "inputs": [
        {
          "indexed": true,
          "name": "account",
          "type": "address"
        }
      ],
      "name": "PauserRemoved",
      "type": "event"
    },
    {
      "anonymous": false,
      "inputs": [
        {
          "indexed": true,
          "name": "previousOwner",
          "type": "address"
        },
        {
          "indexed": true,
          "name": "newOwner",
          "type": "address"
        }
      ],
      "name": "OwnershipTransferred",
      "type": "event"
    },
    {
      "constant": false,
      "inputs": [
        {
          "name": "ID",
          "type": "uint256"
        },
        {
          "name": "description",
          "type": "string"
        }
      ],
      "name": "addAttributeType",
      "outputs": [],
      "payable": false,
      "stateMutability": "nonpayable",
      "type": "function"
    },
    {
      "constant": false,
      "inputs": [
        {
          "name": "ID",
          "type": "uint256"
        }
      ],
      "name": "removeAttributeType",
      "outputs": [],
      "payable": false,
      "stateMutability": "nonpayable",
      "type": "function"
    },
    {
      "constant": false,
      "inputs": [
        {
          "name": "validator",
          "type": "address"
        },
        {
          "name": "description",
          "type": "string"
        }
      ],
      "name": "addValidator",
      "outputs": [],
      "payable": false,
      "stateMutability": "nonpayable",
      "type": "function"
    },
    {
      "constant": false,
      "inputs": [
        {
          "name": "validator",
          "type": "address"
        }
      ],
      "name": "removeValidator",
      "outputs": [],
      "payable": false,
      "stateMutability": "nonpayable",
      "type": "function"
    },
    {
      "constant": false,
      "inputs": [
        {
          "name": "validator",
          "type": "address"
        },
        {
          "name": "attributeTypeID",
          "type": "uint256"
        }
      ],
      "name": "addValidatorApproval",
      "outputs": [],
      "payable": false,
      "stateMutability": "nonpayable",
      "type": "function"
    },
    {
      "constant": false,
      "inputs": [
        {
          "name": "validator",
          "type": "address"
        },
        {
          "name": "attributeTypeID",
          "type": "uint256"
        }
      ],
      "name": "removeValidatorApproval",
      "outputs": [],
      "payable": false,
      "stateMutability": "nonpayable",
      "type": "function"
    },
    {
      "constant": false,
      "inputs": [
        {
          "name": "account",
          "type": "address"
        },
        {
          "name": "attributeTypeID",
          "type": "uint256"
        },
        {
          "name": "value",
          "type": "uint256"
        }
      ],
      "name": "issueAttribute",
      "outputs": [],
      "payable": true,
      "stateMutability": "payable",
      "type": "function"
    },
    {
      "constant": false,
      "inputs": [
        {
          "name": "account",
          "type": "address"
        },
        {
          "name": "attributeTypeID",
          "type": "uint256"
        }
      ],
      "name": "revokeAttribute",
      "outputs": [],
      "payable": false,
      "stateMutability": "nonpayable",
      "type": "function"
    },
    {
      "constant": true,
      "inputs": [
        {
          "name": "account",
          "type": "address"
        },
        {
          "name": "attributeTypeID",
          "type": "uint256"
        }
      ],
      "name": "hasAttribute",
      "outputs": [
        {
          "name": "",
          "type": "bool"
        }
      ],
      "payable": false,
      "stateMutability": "view",
      "type": "function"
    },
    {
      "constant": true,
      "inputs": [
        {
          "name": "account",
          "type": "address"
        },
        {
          "name": "attributeTypeID",
          "type": "uint256"
        }
      ],
      "name": "getAttributeValue",
      "outputs": [
        {
          "name": "value",
          "type": "uint256"
        }
      ],
      "payable": false,
      "stateMutability": "view",
      "type": "function"
    },
    {
      "constant": true,
      "inputs": [
        {
          "name": "validator",
          "type": "address"
        },
        {
          "name": "attributeTypeID",
          "type": "uint256"
        }
      ],
      "name": "canIssueAttributeType",
      "outputs": [
        {
          "name": "",
          "type": "bool"
        }
      ],
      "payable": false,
      "stateMutability": "view",
      "type": "function"
    },
    {
      "constant": true,
      "inputs": [
        {
          "name": "attributeTypeID",
          "type": "uint256"
        }
      ],
      "name": "getAttributeTypeDescription",
      "outputs": [
        {
          "name": "description",
          "type": "string"
        }
      ],
      "payable": false,
      "stateMutability": "view",
      "type": "function"
    },
    {
      "constant": true,
      "inputs": [
        {
          "name": "validator",
          "type": "address"
        }
      ],
      "name": "getValidatorDescription",
      "outputs": [
        {
          "name": "description",
          "type": "string"
        }
      ],
      "payable": false,
      "stateMutability": "view",
      "type": "function"
    },
    {
      "constant": true,
      "inputs": [
        {
          "name": "account",
          "type": "address"
        },
        {
          "name": "attributeTypeID",
          "type": "uint256"
        }
      ],
      "name": "getAttributeValidator",
      "outputs": [
        {
          "name": "validator",
          "type": "address"
        },
        {
          "name": "isStillValid",
          "type": "bool"
        }
      ],
      "payable": false,
      "stateMutability": "view",
      "type": "function"
    },
    {
      "constant": true,
      "inputs": [],
      "name": "countAttributeTypes",
      "outputs": [
        {
          "name": "",
          "type": "uint256"
        }
      ],
      "payable": false,
      "stateMutability": "view",
      "type": "function"
    },
    {
      "constant": true,
      "inputs": [
        {
          "name": "index",
          "type": "uint256"
        }
      ],
      "name": "getAttributeTypeID",
      "outputs": [
        {
          "name": "",
          "type": "uint256"
        }
      ],
      "payable": false,
      "stateMutability": "view",
      "type": "function"
    },
    {
      "constant": true,
      "inputs": [],
      "name": "getAttributeTypeIDs",
      "outputs": [
        {
          "name": "",
          "type": "uint256[]"
        }
      ],
      "payable": false,
      "stateMutability": "view",
      "type": "function"
    },
    {
      "constant": true,
      "inputs": [],
      "name": "countValidators",
      "outputs": [
        {
          "name": "",
          "type": "uint256"
        }
      ],
      "payable": false,
      "stateMutability": "view",
      "type": "function"
    },
    {
      "constant": true,
      "inputs": [
        {
          "name": "index",
          "type": "uint256"
        }
      ],
      "name": "getValidator",
      "outputs": [
        {
          "name": "",
          "type": "address"
        }
      ],
      "payable": false,
      "stateMutability": "view",
      "type": "function"
    },
    {
      "constant": true,
      "inputs": [],
      "name": "getValidators",
      "outputs": [
        {
          "name": "",
          "type": "address[]"
        }
      ],
      "payable": false,
      "stateMutability": "view",
      "type": "function"
    },
    {
      "constant": true,
      "inputs": [
        {
          "name": "interfaceID",
          "type": "bytes4"
        }
      ],
      "name": "supportsInterface",
      "outputs": [
        {
          "name": "",
          "type": "bool"
        }
      ],
      "payable": false,
      "stateMutability": "view",
      "type": "function"
    },
    {
      "constant": true,
      "inputs": [
        {
          "name": "attributeTypeID",
          "type": "uint256"
        }
      ],
      "name": "isAttributeType",
      "outputs": [
        {
          "name": "",
          "type": "bool"
        }
      ],
      "payable": false,
      "stateMutability": "view",
      "type": "function"
    },
    {
      "constant": true,
      "inputs": [
        {
          "name": "account",
          "type": "address"
        }
      ],
      "name": "isValidator",
      "outputs": [
        {
          "name": "",
          "type": "bool"
        }
      ],
      "payable": false,
      "stateMutability": "view",
      "type": "function"
    }
  ],
  "bytecode": "0x6080604081905260008054600160a060020a0319163317808255600160a060020a0316917f8be0079c531659141344cd1fd0a4f28419497f9722a3daafe3b4186f6b6457e0908290a36200005c336401000000006200006c810204565b6002805460ff1916905562000151565b62000087600182640100000000620023ff620000be82021704565b604051600160a060020a038216907f6719d08c1888103bea251a4ed56406bd0c3e69723c8a1686e017e7bbe159b6f890600090a250565b600160a060020a0381161515620000d457600080fd5b620000e9828264010000000062000119810204565b15620000f457600080fd5b600160a060020a0316600090815260209190915260409020805460ff19166001179055565b6000600160a060020a03821615156200013157600080fd5b50600160a060020a03166000908152602091909152604090205460ff1690565b61257e80620001616000396000f3006080604052600436106101a05763ffffffff7c010000000000000000000000000000000000000000000000000000000060003504166301ffc9a781146101a55780630e62fde6146101f057806317cf31d81461021a5780633f4ba83a146102615780633f8ab7251461027857806340a141ff1461029057806346fbf68e146102b15780634b5f297a146102d257806350135c3a146102f65780635c975abb1461031057806363e2a232146103255780636ef8d66d14610352578063715018a6146103675780637756588c1461037c5780637aedf3e0146103a057806382dc1ec4146103b85780638456cb59146103d95780638da5cb5b146103ee5780638f32d59b1461041f5780639679c72a1461043457806397f3c80614610499578063a43569b3146104ae578063acb2917214610544578063b340ec8114610568578063b5d896271461058c578063b7ab4db5146105a4578063cd6c8343146105b9578063d71710e0146105dd578063f287f8fb146105f2578063f2fde38b14610616578063f9292ffb14610637578063facd743b1461065b578063feec036f1461067c575b600080fd5b3480156101b157600080fd5b506101dc7bffffffffffffffffffffffffffffffffffffffffffffffffffffffff1960043516610694565b604080519115158252519081900360200190f35b3480156101fc57600080fd5b50610208600435610727565b60408051918252519081900360200190f35b34801561022657600080fd5b5061023e600160a060020a03600435166024356107f0565b60408051600160a060020a03909316835290151560208301528051918290030190f35b34801561026d57600080fd5b50610276610836565b005b34801561028457600080fd5b506101dc60043561089a565b34801561029c57600080fd5b50610276600160a060020a03600435166108af565b3480156102bd57600080fd5b506101dc600160a060020a0360043516610c34565b3480156102de57600080fd5b506101dc600160a060020a0360043516602435610c47565b610276600160a060020a0360043516602435604435610cd8565b34801561031c57600080fd5b506101dc610f9b565b34801561033157600080fd5b5061027660048035600160a060020a03169060248035908101910135610fa5565b34801561035e57600080fd5b506102766111f6565b34801561037357600080fd5b50610276611201565b34801561038857600080fd5b50610276600160a060020a036004351660243561126b565b3480156103ac57600080fd5b50610276600435611462565b3480156103c457600080fd5b50610276600160a060020a03600435166115fd565b3480156103e557600080fd5b5061027661161d565b3480156103fa57600080fd5b50610403611683565b60408051600160a060020a039092168252519081900360200190f35b34801561042b57600080fd5b506101dc611692565b34801561044057600080fd5b506104496116a3565b60408051602080825283518183015283519192839290830191858101910280838360005b8381101561048557818101518382015260200161046d565b505050509050019250505060405180910390f35b3480156104a557600080fd5b506102086116fb565b3480156104ba57600080fd5b506104cf600160a060020a0360043516611701565b6040805160208082528351818301528351919283929083019185019080838360005b838110156105095781810151838201526020016104f1565b50505050905090810190601f1680156105365780820380516001836020036101000a031916815260200191505b509250505060405180910390f35b34801561055057600080fd5b506102766004803590602480359081019101356117b2565b34801561057457600080fd5b50610276600160a060020a0360043516602435611b0a565b34801561059857600080fd5b50610403600435611d3a565b3480156105b057600080fd5b50610449611d66565b3480156105c557600080fd5b50610208600160a060020a0360043516602435611dc7565b3480156105e957600080fd5b50610208611ef9565b3480156105fe57600080fd5b506101dc600160a060020a0360043516602435611eff565b34801561062257600080fd5b50610276600160a060020a0360043516611f12565b34801561064357600080fd5b50610276600160a060020a0360043516602435611f2e565b34801561066757600080fd5b506101dc600160a060020a036004351661215f565b34801561068857600080fd5b506104cf60043561217d565b60007bffffffffffffffffffffffffffffffffffffffffffffffffffffffff1982167f01ffc9a700000000000000000000000000000000000000000000000000000000148061072157507bffffffffffffffffffffffffffffffffffffffffffffffffffffffff1982167f5f46473f00000000000000000000000000000000000000000000000000000000145b92915050565b60095460009082106107d0576040805160e560020a62461bcd028152602060048201526044602482018190527f70726f766964656420696e646578206973206f757473696465206f6620746865908201527f2072616e6765206f6620646566696e656420617474726962757465207479706560648201527f2049447300000000000000000000000000000000000000000000000000000000608482015290519081900360a40190fd5b60098054839081106107de57fe5b90600052602060002001549050919050565b600160a060020a038083166000908152600460209081526040808320858452909152812054909182916101009004168061082a81866121ed565b92509250509250929050565b61083f33610c34565b151561084a57600080fd5b60025460ff16151561085b57600080fd5b6002805460ff191690556040805133815290517f5db9ee0a495bf2e6ff9c91a7834c1ba4fdd244a5e8aa4e537bd38aeae4b073aa9181900360200190a1565b60009081526003602052604090205460ff1690565b60008060006108bc611692565b15156108c757600080fd5b60025460ff16156108d757600080fd5b6108e08461215f565b151561095c576040805160e560020a62461bcd02815260206004820152603e60248201527f756e61626c6520746f2072656d6f76652c206e6f2076616c696461746f72206c60448201527f6f6361746564206174207468652070726f766964656420616464726573730000606482015290519081900360840190fd5b600160a060020a03841660009081526007602052604081205411801561098357506161a85a115b15610a4657600160a060020a0384166000908152600760205260409020546109b290600163ffffffff61225816565b600160a060020a0385166000908152600760205260409020805491945090849081106109da57fe5b600091825260208083209091015480835260038083526040808520600160a060020a038a1680875292018452808520805460ff19169055600884528085208386528452808520859055908452600790925291208054919350610a4090600019830161244d565b5061095c565b600160a060020a03841660009081526007602052604090205415610b00576040805160e560020a62461bcd02815260206004820152604760248201527f43616e6e6f742072656d6f76652076616c696461746f72202d2066697273742060448201527f72656d6f766520616e79206578697374696e672076616c696461746f7220617060648201527f70726f76616c7300000000000000000000000000000000000000000000000000608482015290519081900360a40190fd5b600a8054610b1590600163ffffffff61225816565b81548110610b1f57fe5b6000918252602080832090910154600160a060020a0387811684526005909252604090922060010154600a80549290931693508392918110610b5d57fe5b6000918252602080832091909101805473ffffffffffffffffffffffffffffffffffffffff1916600160a060020a039485161790558683168252600590526040808220600190810154938516835291200155600a805490610bc290600019830161244d565b50600160a060020a0384166000908152600560205260408120805460ff191681556001810182905590610bf86002830182612476565b5050604051600160a060020a038516907fe1434e25d6611e0db941968fdc97811c982ac1602e951637d206f5fdda9dd8f190600090a250505050565b600061072160018363ffffffff61226f16565b600160a060020a038083166000908152600460209081526040808320858452825280832054610100900490931680835260059091529181205490919060ff168015610cb657506000838152600360208181526040808420600160a060020a0386168552909201905290205460ff165b8015610cd0575060008381526003602052604090205460ff165b949350505050565b60025460ff1615610ce857600080fd5b3415610d8a576040805160e560020a62461bcd02815260206004820152604560248201527f4261736963206a7572697364696374696f6e7320646f206e6f7420737570706f60448201527f7274207061796d656e7473207768656e2061737369676e696e6720617474726960648201527f6275746573000000000000000000000000000000000000000000000000000000608482015290519081900360a40190fd5b610d9433836121ed565b1515610e10576040805160e560020a62461bcd02815260206004820152603b60248201527f6f6e6c7920617070726f7665642076616c696461746f7273206d61792061737360448201527f69676e2061747472696275746573206f66207468697320747970650000000000606482015290519081900360840190fd5b600160a060020a03838116600090815260046020908152604080832086845290915290205461010090041615610edc576040805160e560020a62461bcd02815260206004820152604760248201527f6475706c6963617465206174747269627574657320617265206e6f742073757060448201527f706f727465642c2072656d6f7665206578697374696e6720617474726962757460648201527f6520666972737400000000000000000000000000000000000000000000000000608482015290519081900360a40190fd5b60408051606080820183526001808352336020808501828152858701888152600160a060020a038b81166000818152600486528a81208d825286528a902098518954945160ff199095169015151774ffffffffffffffffffffffffffffffffffffffff0019166101009490921693909302178755519590930194909455845190815292830186905282840185905292517ffc11e611c2bf07aa7dd09a4fb47124294eca7a7993ccc89e3b041fc41f3215779281900390910190a2505050565b60025460ff165b90565b610fad611692565b1515610fb857600080fd5b60025460ff1615610fc857600080fd5b600160a060020a0383161515611028576040805160e560020a62461bcd02815260206004820152601b60248201527f6d75737420737570706c7920612076616c696420616464726573730000000000604482015290519081900360640190fd5b6110318361215f565b156110ac576040805160e560020a62461bcd02815260206004820152603460248201527f612076616c696461746f722077697468207468652070726f766964656420616460448201527f647265737320616c726561647920657869737473000000000000000000000000606482015290519081900360840190fd5b6040805160608101825260018152600a546020808301919091528251601f85018290048202810182018452848152919283019190859085908190840183828082843750505092909352505050600160a060020a0384166000908152600560209081526040918290208351815460ff191690151517815583820151600182015591830151805161114192600285019201906124ba565b5050600a80546001810182556000919091527fc65a7bb8d6351c1cf70c95a316cc6a92839c986682d98bc35f958f4883f9d2a801805473ffffffffffffffffffffffffffffffffffffffff1916600160a060020a03861690811790915560408051602080825281018590529192507f1b7d03cceb084ba7be615fd8e4ed4d42b157b5accf0863d634316e93b2207b449185918591908190810184848082843760405192018290039550909350505050a2505050565b6111ff336122a6565b565b611209611692565b151561121457600080fd5b60008054604051600160a060020a03909116907f8be0079c531659141344cd1fd0a4f28419497f9722a3daafe3b4186f6b6457e0908390a36000805473ffffffffffffffffffffffffffffffffffffffff19169055565b6000611275611692565b151561128057600080fd5b60025460ff161561129057600080fd5b6112998361215f565b80156112a957506112a98261089a565b1515611325576040805160e560020a62461bcd02815260206004820152603e60248201527f6d757374207370656369667920626f746820612076616c69642061747472696260448201527f75746520616e6420616e20617661696c61626c652076616c696461746f720000606482015290519081900360840190fd5b6000828152600360208181526040808420600160a060020a0388168552909201905290205460ff16156113c8576040805160e560020a62461bcd02815260206004820152603760248201527f76616c696461746f7220697320616c726561647920617070726f766564206f6e60448201527f207468652070726f766964656420617474726962757465000000000000000000606482015290519081900360840190fd5b506000818152600360208181526040808420600160a060020a03871680865293018252808420805460ff1916600190811790915560078084528286208054600886528488208989528652848820819055918552918101825590855293829020840185905580519283525184927fb85fe33f50f5937cbd24633a194ac0b16ca5db589959efada76f734bec96135492908290030190a2505050565b600061146c611692565b151561147757600080fd5b60025460ff161561148757600080fd5b6114908261089a565b151561150c576040805160e560020a62461bcd02815260206004820152603860248201527f756e61626c6520746f2072656d6f76652c206e6f20617474726962757465207460448201527f7970652077697468207468652070726f76696465642049440000000000000000606482015290519081900360840190fd5b6009805461152190600163ffffffff61225816565b8154811061152b57fe5b90600052602060002001549050806009600360008581526020019081526020016000206001015481548110151561155e57fe5b600091825260208083209091019290925583815260039091526040808220600190810154848452919092209091015560098054906115a090600019830161244d565b506000828152600360205260408120805460ff1916815560018101829055906115cc6002830182612476565b505060405182907f3302c92bb3443045711224b35c624d0a8c297a7b853f0084f2442de76f36e1a190600090a25050565b61160633610c34565b151561161157600080fd5b61161a816122ee565b50565b61162633610c34565b151561163157600080fd5b60025460ff161561164157600080fd5b6002805460ff191660011790556040805133815290517f62e78cea01bee320cd4e420270b5ea74000d11b0c9f74754ebdbfc544b05a2589181900360200190a1565b600054600160a060020a031690565b600054600160a060020a0316331490565b606060098054806020026020016040519081016040528092919081815260200182805480156116f157602002820191906000526020600020905b8154815260200190600101908083116116dd575b5050505050905090565b600a5490565b600160a060020a0381166000908152600560209081526040918290206002908101805484516001821615610100026000190190911692909204601f810184900484028301840190945283825260609391929091908301828280156117a65780601f1061177b576101008083540402835291602001916117a6565b820191906000526020600020905b81548152906001019060200180831161178957829003601f168201915b50505050509050919050565b60006117bc611692565b15156117c757600080fd5b60025460ff16156117d757600080fd5b6117e08461089a565b1561185b576040805160e560020a62461bcd02815260206004820152603560248201527f616e2061747472696275746520747970652077697468207468652070726f766960448201527f64656420494420616c7265616479206578697374730000000000000000000000606482015290519081900360840190fd5b83600084846040516020018085815260200184151515157f010000000000000000000000000000000000000000000000000000000000000002815260010183838082843782019150509450505050506040516020818303038152906040526040518082805190602001908083835b602083106118e85780518252601f1990920191602091820191016118c9565b51815160209384036101000a6000190180199092169116179052604080519290940182900390912060008a8152600690925292902054919450501515915061193e90505760008481526006602052604090208190555b60008481526006602052604090205481146119ef576040805160e560020a62461bcd02815260206004820152604660248201527f61747472696275746520747970652070726f70657274696573206d757374206d60448201527f6174636820696e697469616c2070726f706572746965732061737369676e656460648201527f20746f2049440000000000000000000000000000000000000000000000000000608482015290519081900360a40190fd5b60408051606081018252600181526009546020808301919091528251601f860182900482028101820184528581529192830191908690869081908401838280828437505050929093525050506000858152600360209081526040918290208351815460ff1916901515178155838201516001820155918301518051611a7a92600285019201906124ba565b5050600980546001810182556000919091527f6e1540171b6c0c960b71a7020d9f60077f6af931a8bbf590da0223dacf75c7af0185905550604080516020808252810184905285917fe35410b0f290a348deb893293b1f80701853a037d58ed492bd031637bac2393e9186918691908190810184848082843760405192018290039550909350505050a250505050565b6000806000611b17611692565b1515611b2257600080fd5b60025460ff1615611b3257600080fd5b611b3c85856121ed565b1515611bdf576040805160e560020a62461bcd028152602060048201526044602482018190527f756e61626c6520746f2072656d6f76652076616c696461746f7220617070726f908201527f76616c2c2061747472696275746520697320616c726561647920756e6170707260648201527f6f76656400000000000000000000000000000000000000000000000000000000608482015290519081900360a40190fd5b6000848152600360208181526040808420600160a060020a038a1685529092018152818320805460ff1916905560079052902054611c2490600163ffffffff61225816565b600160a060020a038616600090815260076020526040902080549194509084908110611c4c57fe5b6000918252602080832090910154600160a060020a0388168084526008835260408085208986528452808520549185526007909352919092208054929450909250839183908110611c9957fe5b6000918252602080832090910192909255600160a060020a0387168152600790915260409020805490611cd090600019830161244d565b50600160a060020a03851660008181526008602090815260408083208684528252808320859055878352808320929092558151928352905186927f615568160a38f8c266cda2edc0fe6ba12327fb9b9ccf68d71a045b6186047c8e92908290030190a25050505050565b6000600a82815481101515611d4b57fe5b600091825260209091200154600160a060020a031692915050565b6060600a8054806020026020016040519081016040528092919081815260200182805480156116f157602002820191906000526020600020905b8154600160a060020a03168152600190910190602001808311611da0575050505050905090565b600160a060020a038083166000908152600460209081526040808320858452825280832054610100900490931680835260059091529181205490919060ff168015611e3657506000838152600360208181526040808420600160a060020a0386168552909201905290205460ff165b8015611e50575060008381526003602052604090205460ff165b1515611ecc576040805160e560020a62461bcd02815260206004820152602481018290527f636f756c64206e6f742066696e6420616e206174747269627574652076616c7560448201527f65206174207468652070726f7669646564206164647265737320616e64204944606482015290519081900360840190fd5b5050600160a060020a03919091166000908152600460209081526040808320938352929052206001015490565b60095490565b6000611f0b83836121ed565b9392505050565b611f1a611692565b1515611f2557600080fd5b61161a81612336565b60025460009060ff1615611f4157600080fd5b600160a060020a038316600090815260046020908152604080832085845290915290205460ff161515611fe4576040805160e560020a62461bcd02815260206004820152602760248201527f6f6e6c79206578697374696e672061747472696275746573206d61792062652060448201527f72656d6f76656400000000000000000000000000000000000000000000000000606482015290519081900360840190fd5b50600160a060020a038083166000908152600460209081526040808320858452909152902054610100900416338114806120365750612021611683565b600160a060020a031633600160a060020a0316145b15156120d8576040805160e560020a62461bcd02815260206004820152604760248201527f6f6e6c79206a7572697364696374696f6e206f722069737375696e672076616c60448201527f696461746f7273206d6179207265766f6b65206172626974726172792061747460648201527f7269627574657300000000000000000000000000000000000000000000000000608482015290519081900360a40190fd5b600160a060020a0380841660008181526004602090815260408083208784528252808320805474ffffffffffffffffffffffffffffffffffffffffff1916815560010192909255815193851684528301859052805191927faa5b822df0611950f79edb91a7f829d92df3d2ae66b54ee3b5b15ead069e1a67929081900390910190a2505050565b600160a060020a031660009081526005602052604090205460ff1690565b6000818152600360209081526040918290206002908101805484516001821615610100026000190190911692909204601f810184900484028301840190945283825260609391929091908301828280156117a65780601f1061177b576101008083540402835291602001916117a6565b600160a060020a03821660009081526005602052604081205460ff16801561223957506000828152600360208181526040808420600160a060020a0388168552909201905290205460ff165b8015611f0b57505060009081526003602052604090205460ff16919050565b6000808383111561226857600080fd5b5050900390565b6000600160a060020a038216151561228657600080fd5b50600160a060020a03166000908152602091909152604090205460ff1690565b6122b760018263ffffffff6123b316565b604051600160a060020a038216907fcd265ebaf09df2871cc7bd4133404a235ba12eff2041bb89d9c714a2621c7c7e90600090a250565b6122ff60018263ffffffff6123ff16565b604051600160a060020a038216907f6719d08c1888103bea251a4ed56406bd0c3e69723c8a1686e017e7bbe159b6f890600090a250565b600160a060020a038116151561234b57600080fd5b60008054604051600160a060020a03808516939216917f8be0079c531659141344cd1fd0a4f28419497f9722a3daafe3b4186f6b6457e091a36000805473ffffffffffffffffffffffffffffffffffffffff1916600160a060020a0392909216919091179055565b600160a060020a03811615156123c857600080fd5b6123d2828261226f565b15156123dd57600080fd5b600160a060020a0316600090815260209190915260409020805460ff19169055565b600160a060020a038116151561241457600080fd5b61241e828261226f565b1561242857600080fd5b600160a060020a0316600090815260209190915260409020805460ff19166001179055565b81548183558181111561247157600083815260209020612471918101908301612538565b505050565b50805460018160011615610100020316600290046000825580601f1061249c575061161a565b601f01602090049060005260206000209081019061161a9190612538565b828054600181600116156101000203166002900490600052602060002090601f016020900481019282601f106124fb57805160ff1916838001178555612528565b82800160010185558215612528579182015b8281111561252857825182559160200191906001019061250d565b50612534929150612538565b5090565b610fa291905b80821115612534576000815560010161253e5600a165627a7a72305820819e971b59ff3623173b3396541cd0479cde5e05e8d065e58f3d2216afc677f00029",
  "source": "pragma solidity ^0.4.25;\n\nimport \"openzeppelin-solidity/contracts/ownership/Ownable.sol\";\nimport \"openzeppelin-solidity/contracts/lifecycle/Pausable.sol\";\nimport \"openzeppelin-solidity/contracts/math/SafeMath.sol\";\nimport \"./AttributeRegistryInterface.sol\";\nimport \"./BasicJurisdictionInterface.sol\";\n\n\n/**\n * @title A basic TPL jurisdiction for assigning attributes to addresses.\n */\ncontract BasicJurisdiction is Ownable, Pausable, AttributeRegistryInterface, BasicJurisdictionInterface {\n  using SafeMath for uint256;\n\n  // validators are entities who can add or authorize addition of new attributes\n  struct Validator {\n    bool exists;\n    uint256 index; // NOTE: consider use of uint248 to pack index with exists\n    string description;\n  }\n\n  // attributes are properties that validators associate with specific addresses\n  struct IssuedAttribute {\n    bool exists;\n    address validator;\n    uint256 value;\n  }\n\n  // attributes also have associated type - metadata common to each attribute\n  struct AttributeType {\n    bool exists;\n    uint256 index;  // NOTE: consider use of uint248 to pack index with exists\n    string description;\n    mapping(address => bool) approvedValidators;\n  }\n\n  // top-level information about attribute types is held in a mapping of structs\n  mapping(uint256 => AttributeType) private _attributeTypes;\n\n  // the jurisdiction retains a mapping of addresses with assigned attributes\n  mapping(address => mapping(uint256 => IssuedAttribute)) private _issuedAttributes;\n\n  // there is also a mapping to identify all approved validators and their keys\n  mapping(address => Validator) private _validators;\n\n  // once attribute types are assigned to an ID, they cannot be modified\n  mapping(uint256 => bytes32) private _attributeTypeHashes;\n\n  // attribute approvals by validator are held in a mapping\n  mapping(address => uint256[]) private _validatorApprovals;\n\n   // attribute approval index by validator is tracked as well\n  mapping(address => mapping(uint256 => uint256)) private _validatorApprovalsIndex;\n\n  // IDs for all supplied attributes are held in an array (enables enumeration)\n  uint256[] private _attributeIDs;\n\n  // addresses for all designated validators are also held in an array\n  address[] private _validatorAccounts;\n\n  /**\n  * @notice Add an attribute type with ID `ID` and description `description` to\n  * the jurisdiction.\n  * @param ID uint256 The ID of the attribute type to add.\n  * @param description string A description of the attribute type.\n  * @dev Once an attribute type is added with a given ID, the description of the\n  * attribute type cannot be changed, even if the attribute type is removed and\n  * added back later.\n  */\n  function addAttributeType(\n    uint256 ID,\n    string description\n  ) external onlyOwner whenNotPaused {\n    // prevent existing attributes with the same id from being overwritten\n    require(\n      isAttributeType(ID) == false,\n      \"an attribute type with the provided ID already exists\"\n    );\n\n    // calculate a hash of the attribute type based on the type's properties\n    bytes32 hash = keccak256(\n      abi.encodePacked(\n        ID, false, description\n      )\n    );\n\n    // store hash if attribute type is the first one registered with provided ID\n    if (_attributeTypeHashes[ID] == bytes32(0)) {\n      _attributeTypeHashes[ID] = hash;\n    }\n\n    // prevent addition if different attribute type with the same ID has existed\n    require(\n      hash == _attributeTypeHashes[ID],\n      \"attribute type properties must match initial properties assigned to ID\"\n    );\n\n    // set the attribute mapping, assigning the index as the end of attributeID\n    _attributeTypes[ID] = AttributeType({\n      exists: true,\n      index: _attributeIDs.length,\n      description: description\n      // NOTE: no approvedValidators variable declaration - must be added later\n    });\n    \n    // add the attribute type id to the end of the attributeID array\n    _attributeIDs.push(ID);\n\n    // log the addition of the attribute type\n    emit AttributeTypeAdded(ID, description);\n  }\n\n  /**\n  * @notice Remove the attribute type with ID `ID` from the jurisdiction.\n  * @param ID uint256 The ID of the attribute type to remove.\n  * @dev All issued attributes of the given type will become invalid upon\n  * removal, but will become valid again if the attribute is reinstated.\n  */\n  function removeAttributeType(uint256 ID) external onlyOwner whenNotPaused {\n    // if the attribute id does not exist, there is nothing to remove\n    require(\n      isAttributeType(ID),\n      \"unable to remove, no attribute type with the provided ID\"\n    );\n\n    // get the attribute ID at the last index of the array\n    uint256 lastAttributeID = _attributeIDs[_attributeIDs.length.sub(1)];\n\n    // set the attributeID at attribute-to-delete.index to the last attribute ID\n    _attributeIDs[_attributeTypes[ID].index] = lastAttributeID;\n\n    // update the index of the attribute type that was moved\n    _attributeTypes[lastAttributeID].index = _attributeTypes[ID].index;\n    \n    // remove the (now duplicate) attribute ID at the end by trimming the array\n    _attributeIDs.length--;\n\n    // delete the attribute type's record from the mapping\n    delete _attributeTypes[ID];\n\n    // log the removal of the attribute type\n    emit AttributeTypeRemoved(ID);\n  }\n\n  /**\n  * @notice Add account `validator` as a validator with a description\n  * `description` who can be approved to set attributes of specific types.\n  * @param validator address The account to assign as the validator.\n  * @param description string A description of the validator.\n  * @dev Note that the jurisdiction can add iteslf as a validator if desired.\n  */\n  function addValidator(\n    address validator,\n    string description\n  ) external onlyOwner whenNotPaused {\n    // check that an empty address was not provided by mistake\n    require(validator != address(0), \"must supply a valid address\");\n\n    // prevent existing validators from being overwritten\n    require(\n      isValidator(validator) == false,\n      \"a validator with the provided address already exists\"\n    );\n    \n    // create a record for the validator\n    _validators[validator] = Validator({\n      exists: true,\n      index: _validatorAccounts.length,\n      description: description\n    });\n\n    // add the validator to the end of the _validatorAccounts array\n    _validatorAccounts.push(validator);\n    \n    // log the addition of the new validator\n    emit ValidatorAdded(validator, description);\n  }\n\n  /**\n  * @notice Remove the validator at address `validator` from the jurisdiction.\n  * @param validator address The account of the validator to remove.\n  * @dev Any attributes issued by the validator will become invalid upon their\n  * removal. If the validator is reinstated, those attributes will become valid\n  * again. Any approvals to issue attributes of a given type will need to be\n  * set from scratch in the event a validator is reinstated.\n  */\n  function removeValidator(address validator) external onlyOwner whenNotPaused {\n    // check that a validator exists at the provided address\n    require(\n      isValidator(validator),\n      \"unable to remove, no validator located at the provided address\"\n    );\n\n    // first, start removing validator approvals until gas is exhausted\n    while (_validatorApprovals[validator].length > 0 && gasleft() > 25000) {\n      // locate the index of last attribute ID in the validator approval group\n      uint256 lastIndex = _validatorApprovals[validator].length.sub(1);\n\n      // locate the validator approval to be removed\n      uint256 targetApproval = _validatorApprovals[validator][lastIndex];\n\n      // remove the record of the approval from the associated attribute type\n      delete _attributeTypes[targetApproval].approvedValidators[validator];\n\n      // remove the record of the index of the approval\n      delete _validatorApprovalsIndex[validator][targetApproval];\n\n      // drop the last attribute ID from the validator approval group\n      _validatorApprovals[validator].length--;\n    }\n\n    // require that all approvals were successfully removed\n    require(\n      _validatorApprovals[validator].length == 0,\n      \"Cannot remove validator - first remove any existing validator approvals\"\n    );\n\n    // get the validator address at the last index of the array\n    address lastAccount = _validatorAccounts[_validatorAccounts.length.sub(1)];\n\n    // set the address at validator-to-delete.index to last validator address\n    _validatorAccounts[_validators[validator].index] = lastAccount;\n\n    // update the index of the attribute type that was moved\n    _validators[lastAccount].index = _validators[validator].index;\n    \n    // remove (duplicate) validator address at the end by trimming the array\n    _validatorAccounts.length--;\n\n    // remove the validator record\n    delete _validators[validator];\n\n    // log the removal of the validator\n    emit ValidatorRemoved(validator);\n  }\n\n  /**\n  * @notice Approve the validator at address `validator` to issue attributes of\n  * the type with ID `attributeTypeID`.\n  * @param validator address The account of the validator to approve.\n  * @param attributeTypeID uint256 The ID of the approved attribute type.\n  */\n  function addValidatorApproval(\n    address validator,\n    uint256 attributeTypeID\n  ) external onlyOwner whenNotPaused {\n    // check that the attribute is predefined and that the validator exists\n    require(\n      isValidator(validator) && isAttributeType(attributeTypeID),\n      \"must specify both a valid attribute and an available validator\"\n    );\n\n    // check that the validator is not already approved\n    require(\n      _attributeTypes[attributeTypeID].approvedValidators[validator] == false,\n      \"validator is already approved on the provided attribute\"\n    );\n\n    // set the validator approval status on the attribute\n    _attributeTypes[attributeTypeID].approvedValidators[validator] = true;\n\n    // add the record of the index of the validator approval to be added\n    uint256 index = _validatorApprovals[validator].length;\n    _validatorApprovalsIndex[validator][attributeTypeID] = index;\n\n    // include the attribute type in the validator approval mapping\n    _validatorApprovals[validator].push(attributeTypeID);\n\n    // log the addition of the validator's attribute type approval\n    emit ValidatorApprovalAdded(validator, attributeTypeID);\n  }\n\n  /**\n  * @notice Deny the validator at address `validator` the ability to continue to\n  * issue attributes of the type with ID `attributeTypeID`.\n  * @param validator address The account of the validator with removed approval.\n  * @param attributeTypeID uint256 The ID of the attribute type to unapprove.\n  * @dev Any attributes of the specified type issued by the validator in\n  * question will become invalid once the approval is removed. If the approval\n  * is reinstated, those attributes will become valid again. The approval will\n  * also be removed if the approved validator is removed.\n  */\n  function removeValidatorApproval(\n    address validator,\n    uint256 attributeTypeID\n  ) external onlyOwner whenNotPaused {\n    // check that the attribute is predefined and that the validator exists\n    require(\n      canValidate(validator, attributeTypeID),\n      \"unable to remove validator approval, attribute is already unapproved\"\n    );\n\n    // remove the validator approval status from the attribute\n    delete _attributeTypes[attributeTypeID].approvedValidators[validator];\n\n    // locate the index of the last validator approval\n    uint256 lastIndex = _validatorApprovals[validator].length.sub(1);\n\n    // locate the last attribute ID in the validator approval group\n    uint256 lastAttributeID = _validatorApprovals[validator][lastIndex];\n\n    // locate the index of the validator approval to be removed\n    uint256 index = _validatorApprovalsIndex[validator][attributeTypeID];\n\n    // replace the validator approval with the last approval in the array\n    _validatorApprovals[validator][index] = lastAttributeID;\n\n    // drop the last attribute ID from the validator approval group\n    _validatorApprovals[validator].length--;\n\n    // update the record of the index of the swapped-in approval\n    _validatorApprovalsIndex[validator][lastAttributeID] = index;\n\n    // remove the record of the index of the removed approval\n    delete _validatorApprovalsIndex[validator][attributeTypeID];\n    \n    // log the removal of the validator's attribute type approval\n    emit ValidatorApprovalRemoved(validator, attributeTypeID);\n  }\n\n  /**\n  * @notice Issue an attribute of the type with ID `attributeTypeID` and a value\n  * of `value` to `account` if `message.caller.address()` is approved validator.\n  * @param account address The account to issue the attribute on.\n  * @param attributeTypeID uint256 The ID of the attribute type to issue.\n  * @param value uint256 An optional value for the issued attribute.\n  * @dev Existing attributes of the given type on the address must be removed\n  * in order to set a new attribute. Be aware that ownership of the account to\n  * which the attribute is assigned may still be transferable - restricting\n  * assignment to externally-owned accounts may partially alleviate this issue.\n  */\n  function issueAttribute(\n    address account,\n    uint256 attributeTypeID,\n    uint256 value\n  ) external payable whenNotPaused {\n    require(\n      msg.value == 0,\n      \"Basic jurisdictions do not support payments when assigning attributes\"\n    );\n\n    require(\n      canValidate(msg.sender, attributeTypeID),\n      \"only approved validators may assign attributes of this type\"\n    );\n\n    require(\n      _issuedAttributes[account][attributeTypeID].validator == address(0),\n      \"duplicate attributes are not supported, remove existing attribute first\"\n    );\n\n    // store attribute value and amount of ether staked in correct scope\n    _issuedAttributes[account][attributeTypeID] = IssuedAttribute({\n      exists: true,\n      validator: msg.sender,\n      value: value\n    });\n\n    // log the addition of the attribute\n    emit AttributeAdded(msg.sender, account, attributeTypeID, value);\n  }\n\n  /**\n  * @notice Revoke the attribute of the type with ID `attributeTypeID` from\n  * `account` if `message.caller.address()` is the issuing validator.\n  * @param account address The account to issue the attribute on.\n  * @param attributeTypeID uint256 The ID of the attribute type to issue.\n  * @dev Validators may still revoke issued attributes even after they have been\n  * removed or had their approval to issue the attribute type removed - this\n  * enables them to address any objectionable issuances before being reinstated.\n  */\n  function revokeAttribute(\n    address account,\n    uint256 attributeTypeID\n  ) external whenNotPaused {\n    // ensure that an attribute with the given account and attribute exists\n    require(\n      _issuedAttributes[account][attributeTypeID].exists,\n      \"only existing attributes may be removed\"\n    );\n\n    // determine the assigned validator on the user attribute\n    address validator = _issuedAttributes[account][attributeTypeID].validator;\n    \n    // caller must be either the jurisdiction owner or the assigning validator\n    require(\n      msg.sender == validator || msg.sender == owner(),\n      \"only jurisdiction or issuing validators may revoke arbitrary attributes\"\n    );\n\n    // remove the attribute from the designated user account\n    delete _issuedAttributes[account][attributeTypeID];\n\n    // log the removal of the attribute\n    emit AttributeRemoved(validator, account, attributeTypeID);\n  }  \n\n  /**\n   * @notice Check if an attribute of the type with ID `attributeTypeID` has\n   * been assigned to the account at `account` and is currently valid.\n   * @param account address The account to check for a valid attribute.\n   * @param attributeTypeID uint256 The ID of the attribute type to check for.\n   * @return True if the attribute is assigned and valid, false otherwise.\n   * @dev This function MUST return either true or false - i.e. calling this\n   * function MUST NOT cause the caller to revert.\n   */\n  function hasAttribute(\n    address account, \n    uint256 attributeTypeID\n  ) external view returns (bool) {\n    address validator = _issuedAttributes[account][attributeTypeID].validator;\n    return (\n      _validators[validator].exists &&        //isValidator(validator)\n      _attributeTypes[attributeTypeID].approvedValidators[validator] &&\n      _attributeTypes[attributeTypeID].exists //isAttributeType(attributeTypeID)    \n    );\n  }\n\n  /**\n   * @notice Retrieve the value of the attribute of the type with ID\n   * `attributeTypeID` on the account at `account`, assuming it is valid.\n   * @param account address The account to check for the given attribute value.\n   * @param attributeTypeID uint256 The ID of the attribute type to check for.\n   * @return The attribute value if the attribute is valid, reverts otherwise.\n   * @dev This function MUST revert if a directly preceding or subsequent\n   * function call to `hasAttribute` with identical `account` and\n   * `attributeTypeID` parameters would return false.\n   */\n  function getAttributeValue(\n    address account,\n    uint256 attributeTypeID\n  ) external view returns (uint256 value) {\n    address validator = _issuedAttributes[account][attributeTypeID].validator;\n    require(\n      (\n        _validators[validator].exists &&\n        _attributeTypes[attributeTypeID].approvedValidators[validator] &&\n        _attributeTypes[attributeTypeID].exists\n      ),\n      \"could not find an attribute value at the provided address and ID\"\n    );\n\n    return _issuedAttributes[account][attributeTypeID].value;\n  }\n\n  /**\n   * @notice Determine if a validator at account `validator` is able to issue\n   * attributes of the type with ID `attributeTypeID`.\n   * @param validator address The account of the validator.\n   * @param attributeTypeID uint256 The ID of the attribute type to check.\n   * @return True if the validator can issue attributes of the given type, false\n   * otherwise.\n   */\n  function canIssueAttributeType(\n    address validator,\n    uint256 attributeTypeID\n  ) external view returns (bool) {\n    return canValidate(validator, attributeTypeID);\n  }\n\n  /**\n   * @notice Get a description of the attribute type with ID `attributeTypeID`.\n   * @param attributeTypeID uint256 The ID of the attribute type to check for.\n   * @return A description of the attribute type.\n   */\n  function getAttributeTypeDescription(\n    uint256 attributeTypeID\n  ) external view returns (\n    string description\n  ) {\n    return _attributeTypes[attributeTypeID].description;\n  }\n\n  /**\n   * @notice Get a description of the validator at account `validator`.\n   * @param validator address The account of the validator in question.\n   * @return A description of the validator.\n   */\n  function getValidatorDescription(\n    address validator\n  ) external view returns (\n    string description\n  ) {\n    return _validators[validator].description;\n  }\n\n  /**\n   * @notice Find the validator that issued the attribute of the type with ID\n   * `attributeTypeID` on the account at `account` and determine if the\n   * validator is still valid.\n   * @param account address The account that contains the attribute be checked.\n   * @param attributeTypeID uint256 The ID of the attribute type in question.\n   * @return The validator and the current status of the validator as it\n   * pertains to the attribute type in question.\n   * @dev if no attribute of the given attribute type exists on the account, the\n   * function will return (address(0), false).\n   */\n  function getAttributeValidator(\n    address account,\n    uint256 attributeTypeID\n  ) external view returns (\n    address validator,\n    bool isStillValid\n  ) {\n    address issuer = _issuedAttributes[account][attributeTypeID].validator;\n    return (issuer, canValidate(issuer, attributeTypeID));\n  }\n\n  /**\n   * @notice Count the number of attribute types defined by the registry.\n   * @return The number of available attribute types.\n   * @dev This function MUST return a positive integer value  - i.e. calling\n   * this function MUST NOT cause the caller to revert.\n   */\n  function countAttributeTypes() external view returns (uint256) {\n    return _attributeIDs.length;\n  }\n\n  /**\n   * @notice Get the ID of the attribute type at index `index`.\n   * @param index uint256 The index of the attribute type in question.\n   * @return The ID of the attribute type.\n   * @dev This function MUST revert if the provided `index` value falls outside\n   * of the range of the value returned from a directly preceding or subsequent\n   * function call to `countAttributeTypes`. It MUST NOT revert if the provided\n   * `index` value falls inside said range.\n   */\n  function getAttributeTypeID(uint256 index) external view returns (uint256) {\n    require(\n      index < _attributeIDs.length,\n      \"provided index is outside of the range of defined attribute type IDs\"\n    );\n\n    return _attributeIDs[index];\n  }\n\n  /**\n   * @notice Get the IDs of all available attribute types on the jurisdiction.\n   * @return A dynamic array containing all available attribute type IDs.\n   */\n  function getAttributeTypeIDs() external view returns (uint256[]) {\n    return _attributeIDs;\n  }\n\n  /**\n   * @notice Count the number of validators defined by the jurisdiction.\n   * @return The number of defined validators.\n   */\n  function countValidators() external view returns (uint256) {\n    return _validatorAccounts.length;\n  }\n\n  /**\n   * @notice Get the account of the validator at index `index`.\n   * @param index uint256 The index of the validator in question.\n   * @return The account of the validator.\n   */\n  function getValidator(\n    uint256 index\n  ) external view returns (address) {\n    return _validatorAccounts[index];\n  }\n\n  /**\n   * @notice Get the accounts of all available validators on the jurisdiction.\n   * @return A dynamic array containing all available validator accounts.\n   */\n  function getValidators() external view returns (address[]) {\n    return _validatorAccounts;\n  }\n\n  /**\n   * @notice Determine if the interface ID `interfaceID` is supported (ERC-165)\n   * @param interfaceID bytes4 The interface ID in question.\n   * @return True if the interface is supported, false otherwise.\n   * @dev this function will produce a compiler warning recommending that the\n   * visibility be set to pure, but the interface expects a view function.\n   * Supported interfaces include ERC-165 (0x01ffc9a7) and the attribute\n   * registry interface (0x5f46473f).\n   */\n  function supportsInterface(bytes4 interfaceID) external view returns (bool) {\n    return (\n      interfaceID == this.supportsInterface.selector || // ERC165\n      interfaceID == (\n        this.hasAttribute.selector \n        ^ this.getAttributeValue.selector\n        ^ this.countAttributeTypes.selector\n        ^ this.getAttributeTypeID.selector\n      ) // AttributeRegistryInterface\n    ); // 0x01ffc9a7 || 0x5f46473f\n  }\n\n  /**\n   * @notice Determine if an attribute type with ID `attributeTypeID` is\n   * currently defined on the jurisdiction.\n   * @param attributeTypeID uint256 The attribute type ID in question.\n   * @return True if the attribute type is defined, false otherwise.\n   */\n  function isAttributeType(uint256 attributeTypeID) public view returns (bool) {\n    return _attributeTypes[attributeTypeID].exists;\n  }\n\n  /**\n   * @notice Determine if the account `account` is currently assigned as a\n   * validator on the jurisdiction.\n   * @param account address The account to check for validator status.\n   * @return True if the account is assigned as a validator, false otherwise.\n   */\n  function isValidator(address account) public view returns (bool) {\n    return _validators[account].exists;\n  }\n\n  /**\n   * @notice Internal function to determine if a validator at account\n   * `validator` can issue attributes of the type with ID `attributeTypeID`.\n   * @param validator address The account of the validator.\n   * @param attributeTypeID uint256 The ID of the attribute type to check.\n   * @return True if the validator can issue attributes of the given type, false\n   * otherwise.\n   */\n  function canValidate(\n    address validator,\n    uint256 attributeTypeID\n  ) internal view returns (bool) {\n    return (\n      _validators[validator].exists &&   // isValidator(validator)\n      _attributeTypes[attributeTypeID].approvedValidators[validator] &&\n      _attributeTypes[attributeTypeID].exists // isAttributeType(attributeTypeID)\n    );\n  }\n}",
  "sourcePath": "/Users/jretina/Programming/PROPSProject/tpl-contracts/contracts/BasicJurisdiction.sol",
  "compiler": {
    "name": "solc",
    "version": "0.4.25+commit.59dbf8f1.Emscripten.clang"
  },
  "schemaVersion": "3.0.0-beta.1",
  "updatedAt": "2019-01-09T15:27:56.338Z"
}