{
  "contractName": "Crowdsale",
  "abi": [
    {
      "payable": true,
      "stateMutability": "payable",
      "type": "fallback"
    },
    {
      "anonymous": false,
      "inputs": [
        {
          "indexed": true,
          "name": "purchaser",
          "type": "address"
        },
        {
          "indexed": true,
          "name": "beneficiary",
          "type": "address"
        },
        {
          "indexed": false,
          "name": "value",
          "type": "uint256"
        },
        {
          "indexed": false,
          "name": "amount",
          "type": "uint256"
        }
      ],
      "name": "TokensPurchased",
      "type": "event"
    },
    {
      "constant": false,
      "inputs": [
        {
          "name": "rate",
          "type": "uint256"
        },
        {
          "name": "wallet",
          "type": "address"
        },
        {
          "name": "token",
          "type": "address"
        }
      ],
      "name": "initialize",
      "outputs": [],
      "payable": false,
      "stateMutability": "nonpayable",
      "type": "function"
    },
    {
      "constant": true,
      "inputs": [],
      "name": "token",
      "outputs": [
        {
          "name": "",
          "type": "address"
        }
      ],
      "payable": false,
      "stateMutability": "view",
      "type": "function"
    },
    {
      "constant": true,
      "inputs": [],
      "name": "wallet",
      "outputs": [
        {
          "name": "",
          "type": "address"
        }
      ],
      "payable": false,
      "stateMutability": "view",
      "type": "function"
    },
    {
      "constant": true,
      "inputs": [],
      "name": "rate",
      "outputs": [
        {
          "name": "",
          "type": "uint256"
        }
      ],
      "payable": false,
      "stateMutability": "view",
      "type": "function"
    },
    {
      "constant": true,
      "inputs": [],
      "name": "weiRaised",
      "outputs": [
        {
          "name": "",
          "type": "uint256"
        }
      ],
      "payable": false,
      "stateMutability": "view",
      "type": "function"
    },
    {
      "constant": false,
      "inputs": [
        {
          "name": "beneficiary",
          "type": "address"
        }
      ],
      "name": "buyTokens",
      "outputs": [],
      "payable": true,
      "stateMutability": "payable",
      "type": "function"
    }
  ],
  "bytecode": "0x608060405234801561001057600080fd5b50610872806100206000396000f300608060405260043610610078576000357c0100000000000000000000000000000000000000000000000000000000900463ffffffff1680632c4e722e146100835780634042b66f146100ae578063521eb273146100d9578063b4988fd014610130578063ec8ac4d81461019d578063fc0c546a146101d3575b6100813361022a565b005b34801561008f57600080fd5b506100986102f8565b6040518082815260200191505060405180910390f35b3480156100ba57600080fd5b506100c3610302565b6040518082815260200191505060405180910390f35b3480156100e557600080fd5b506100ee61030c565b604051808273ffffffffffffffffffffffffffffffffffffffff1673ffffffffffffffffffffffffffffffffffffffff16815260200191505060405180910390f35b34801561013c57600080fd5b5061019b60048036038101908080359060200190929190803573ffffffffffffffffffffffffffffffffffffffff169060200190929190803573ffffffffffffffffffffffffffffffffffffffff169060200190929190505050610336565b005b6101d1600480360381019080803573ffffffffffffffffffffffffffffffffffffffff16906020019092919050505061022a565b005b3480156101df57600080fd5b506101e861057e565b604051808273ffffffffffffffffffffffffffffffffffffffff1673ffffffffffffffffffffffffffffffffffffffff16815260200191505060405180910390f35b60008034915061023a83836105a8565b610243826105f8565b905061025a8260365461061690919063ffffffff16565b60368190555061026a8382610637565b8273ffffffffffffffffffffffffffffffffffffffff163373ffffffffffffffffffffffffffffffffffffffff167f6faf93231a456e552dbc9961f58d9713ee4f2e69d15f1975b050ef0911053a7b8484604051808381526020018281526020019250505060405180910390a36102e18383610645565b6102e9610649565b6102f383836106b4565b505050565b6000603554905090565b6000603654905090565b6000603460009054906101000a900473ffffffffffffffffffffffffffffffffffffffff16905090565b60008060019054906101000a900460ff168061035657506103556106b8565b5b8061036d57506000809054906101000a900460ff16155b1515610407576040517f08c379a000000000000000000000000000000000000000000000000000000000815260040180806020018281038252602e8152602001807f436f6e747261637420696e7374616e63652068617320616c726561647920626581526020017f656e20696e697469616c697a656400000000000000000000000000000000000081525060400191505060405180910390fd5b600060019054906101000a900460ff1690506001600060016101000a81548160ff02191690831515021790555060016000806101000a81548160ff02191690831515021790555060008411151561045d57600080fd5b600073ffffffffffffffffffffffffffffffffffffffff168373ffffffffffffffffffffffffffffffffffffffff161415151561049957600080fd5b600073ffffffffffffffffffffffffffffffffffffffff168273ffffffffffffffffffffffffffffffffffffffff16141515156104d557600080fd5b8360358190555082603460006101000a81548173ffffffffffffffffffffffffffffffffffffffff021916908373ffffffffffffffffffffffffffffffffffffffff16021790555081603360006101000a81548173ffffffffffffffffffffffffffffffffffffffff021916908373ffffffffffffffffffffffffffffffffffffffff16021790555080600060016101000a81548160ff02191690831515021790555050505050565b6000603360009054906101000a900473ffffffffffffffffffffffffffffffffffffffff16905090565b600073ffffffffffffffffffffffffffffffffffffffff168273ffffffffffffffffffffffffffffffffffffffff16141515156105e457600080fd5b600081141515156105f457600080fd5b5050565b600061060f603554836106c990919063ffffffff16565b9050919050565b600080828401905083811015151561062d57600080fd5b8091505092915050565b6106418282610707565b5050565b5050565b603460009054906101000a900473ffffffffffffffffffffffffffffffffffffffff1673ffffffffffffffffffffffffffffffffffffffff166108fc349081150290604051600060405180830381858888f193505050501580156106b1573d6000803e3d6000fd5b50565b5050565b600080303b90506000811491505090565b60008060008414156106de5760009150610700565b82840290508284828115156106ef57fe5b041415156106fc57600080fd5b8091505b5092915050565b6107548282603360009054906101000a900473ffffffffffffffffffffffffffffffffffffffff1673ffffffffffffffffffffffffffffffffffffffff166107589092919063ffffffff16565b5050565b8273ffffffffffffffffffffffffffffffffffffffff1663a9059cbb83836040518363ffffffff167c0100000000000000000000000000000000000000000000000000000000028152600401808373ffffffffffffffffffffffffffffffffffffffff1673ffffffffffffffffffffffffffffffffffffffff16815260200182815260200192505050602060405180830381600087803b1580156107fb57600080fd5b505af115801561080f573d6000803e3d6000fd5b505050506040513d602081101561082557600080fd5b8101908080519060200190929190505050151561084157600080fd5b5050505600a165627a7a72305820763c98a6e92887228e11d6c25e0a275424ffca0122c6d308865df00642256c540029",
  "source": "pragma solidity ^0.4.24;\n\nimport \"zos-lib/contracts/Initializable.sol\";\nimport \"../token/ERC20/IERC20.sol\";\nimport \"../math/SafeMath.sol\";\nimport \"../token/ERC20/SafeERC20.sol\";\n\n\n/**\n * @title Crowdsale\n * @dev Crowdsale is a base contract for managing a token crowdsale,\n * allowing investors to purchase tokens with ether. This contract implements\n * such functionality in its most fundamental form and can be extended to provide additional\n * functionality and/or custom behavior.\n * The external interface represents the basic interface for purchasing tokens, and conform\n * the base architecture for crowdsales. They are *not* intended to be modified / overridden.\n * The internal interface conforms the extensible and modifiable surface of crowdsales. Override\n * the methods to add functionality. Consider using 'super' where appropriate to concatenate\n * behavior.\n */\ncontract Crowdsale is Initializable {\n  using SafeMath for uint256;\n  using SafeERC20 for IERC20;\n\n  // The token being sold\n  IERC20 private _token;\n\n  // Address where funds are collected\n  address private _wallet;\n\n  // How many token units a buyer gets per wei.\n  // The rate is the conversion between wei and the smallest and indivisible token unit.\n  // So, if you are using a rate of 1 with a ERC20Detailed token with 3 decimals called TOK\n  // 1 wei will give you 1 unit, or 0.001 TOK.\n  uint256 private _rate;\n\n  // Amount of wei raised\n  uint256 private _weiRaised;\n\n  /**\n   * Event for token purchase logging\n   * @param purchaser who paid for the tokens\n   * @param beneficiary who got the tokens\n   * @param value weis paid for purchase\n   * @param amount amount of tokens purchased\n   */\n  event TokensPurchased(\n    address indexed purchaser,\n    address indexed beneficiary,\n    uint256 value,\n    uint256 amount\n  );\n\n  /**\n   * @param rate Number of token units a buyer gets per wei\n   * @dev The rate is the conversion between wei and the smallest and indivisible\n   * token unit. So, if you are using a rate of 1 with a ERC20Detailed token\n   * with 3 decimals called TOK, 1 wei will give you 1 unit, or 0.001 TOK.\n   * @param wallet Address where collected funds will be forwarded to\n   * @param token Address of the token being sold\n   */\n  function initialize(uint256 rate, address wallet, IERC20 token) public initializer {\n    require(rate > 0);\n    require(wallet != address(0));\n    require(token != address(0));\n\n    _rate = rate;\n    _wallet = wallet;\n    _token = token;\n  }\n\n  // -----------------------------------------\n  // Crowdsale external interface\n  // -----------------------------------------\n\n  /**\n   * @dev fallback function ***DO NOT OVERRIDE***\n   */\n  function () external payable {\n    buyTokens(msg.sender);\n  }\n\n  /**\n   * @return the token being sold.\n   */\n  function token() public view returns(IERC20) {\n    return _token;\n  }\n\n  /**\n   * @return the address where funds are collected.\n   */\n  function wallet() public view returns(address) {\n    return _wallet;\n  }\n\n  /**\n   * @return the number of token units a buyer gets per wei.\n   */\n  function rate() public view returns(uint256) {\n    return _rate;\n  }\n\n  /**\n   * @return the mount of wei raised.\n   */\n  function weiRaised() public view returns (uint256) {\n    return _weiRaised;\n  }\n\n  /**\n   * @dev low level token purchase ***DO NOT OVERRIDE***\n   * @param beneficiary Address performing the token purchase\n   */\n  function buyTokens(address beneficiary) public payable {\n\n    uint256 weiAmount = msg.value;\n    _preValidatePurchase(beneficiary, weiAmount);\n\n    // calculate token amount to be created\n    uint256 tokens = _getTokenAmount(weiAmount);\n\n    // update state\n    _weiRaised = _weiRaised.add(weiAmount);\n\n    _processPurchase(beneficiary, tokens);\n    emit TokensPurchased(\n      msg.sender,\n      beneficiary,\n      weiAmount,\n      tokens\n    );\n\n    _updatePurchasingState(beneficiary, weiAmount);\n\n    _forwardFunds();\n    _postValidatePurchase(beneficiary, weiAmount);\n  }\n\n  // -----------------------------------------\n  // Internal interface (extensible)\n  // -----------------------------------------\n\n  function _hasBeenInitialized() internal view returns (bool) {\n    return ((_rate > 0) && (_wallet != address(0)) && (_token != address(0)));\n  }\n\n  /**\n   * @dev Validation of an incoming purchase. Use require statements to revert state when conditions are not met. Use `super` in contracts that inherit from Crowdsale to extend their validations.\n   * Example from CappedCrowdsale.sol's _preValidatePurchase method:\n   *   super._preValidatePurchase(beneficiary, weiAmount);\n   *   require(weiRaised().add(weiAmount) <= cap);\n   * @param beneficiary Address performing the token purchase\n   * @param weiAmount Value in wei involved in the purchase\n   */\n  function _preValidatePurchase(\n    address beneficiary,\n    uint256 weiAmount\n  )\n    internal\n  {\n    require(beneficiary != address(0));\n    require(weiAmount != 0);\n  }\n\n  /**\n   * @dev Validation of an executed purchase. Observe state and use revert statements to undo rollback when valid conditions are not met.\n   * @param beneficiary Address performing the token purchase\n   * @param weiAmount Value in wei involved in the purchase\n   */\n  function _postValidatePurchase(\n    address beneficiary,\n    uint256 weiAmount\n  )\n    internal\n  {\n    // optional override\n  }\n\n  /**\n   * @dev Source of tokens. Override this method to modify the way in which the crowdsale ultimately gets and sends its tokens.\n   * @param beneficiary Address performing the token purchase\n   * @param tokenAmount Number of tokens to be emitted\n   */\n  function _deliverTokens(\n    address beneficiary,\n    uint256 tokenAmount\n  )\n    internal\n  {\n    _token.safeTransfer(beneficiary, tokenAmount);\n  }\n\n  /**\n   * @dev Executed when a purchase has been validated and is ready to be executed. Not necessarily emits/sends tokens.\n   * @param beneficiary Address receiving the tokens\n   * @param tokenAmount Number of tokens to be purchased\n   */\n  function _processPurchase(\n    address beneficiary,\n    uint256 tokenAmount\n  )\n    internal\n  {\n    _deliverTokens(beneficiary, tokenAmount);\n  }\n\n  /**\n   * @dev Override for extensions that require an internal state to check for validity (current user contributions, etc.)\n   * @param beneficiary Address receiving the tokens\n   * @param weiAmount Value in wei involved in the purchase\n   */\n  function _updatePurchasingState(\n    address beneficiary,\n    uint256 weiAmount\n  )\n    internal\n  {\n    // optional override\n  }\n\n  /**\n   * @dev Override to extend the way in which ether is converted to tokens.\n   * @param weiAmount Value in wei to be converted into tokens\n   * @return Number of tokens that can be purchased with the specified _weiAmount\n   */\n  function _getTokenAmount(uint256 weiAmount)\n    internal view returns (uint256)\n  {\n    return weiAmount.mul(_rate);\n  }\n\n  /**\n   * @dev Determines how ETH is stored/forwarded on purchases.\n   */\n  function _forwardFunds() internal {\n    _wallet.transfer(msg.value);\n  }\n\n  uint256[50] private ______gap;\n}\n",
  "sourcePath": "/Users/jretina/Programming/PROPSProject/props-token-distribution/contracts/token/openzeppelin-eth/contracts/crowdsale/Crowdsale.sol",
  "compiler": {
    "name": "solc",
    "version": "0.4.24+commit.e67f0147.Emscripten.clang"
  },
  "schemaVersion": "2.0.1",
  "updatedAt": "2019-05-13T10:16:33.507Z"
}