{
  "contractName": "ERC20Pausable",
  "abi": [
    {
      "constant": true,
      "inputs": [],
      "name": "totalSupply",
      "outputs": [
        {
          "name": "",
          "type": "uint256"
        }
      ],
      "payable": false,
      "stateMutability": "view",
      "type": "function"
    },
    {
      "constant": false,
      "inputs": [],
      "name": "unpause",
      "outputs": [],
      "payable": false,
      "stateMutability": "nonpayable",
      "type": "function"
    },
    {
      "constant": true,
      "inputs": [
        {
          "name": "account",
          "type": "address"
        }
      ],
      "name": "isPauser",
      "outputs": [
        {
          "name": "",
          "type": "bool"
        }
      ],
      "payable": false,
      "stateMutability": "view",
      "type": "function"
    },
    {
      "constant": true,
      "inputs": [],
      "name": "paused",
      "outputs": [
        {
          "name": "",
          "type": "bool"
        }
      ],
      "payable": false,
      "stateMutability": "view",
      "type": "function"
    },
    {
      "constant": false,
      "inputs": [],
      "name": "renouncePauser",
      "outputs": [],
      "payable": false,
      "stateMutability": "nonpayable",
      "type": "function"
    },
    {
      "constant": true,
      "inputs": [
        {
          "name": "owner",
          "type": "address"
        }
      ],
      "name": "balanceOf",
      "outputs": [
        {
          "name": "",
          "type": "uint256"
        }
      ],
      "payable": false,
      "stateMutability": "view",
      "type": "function"
    },
    {
      "constant": false,
      "inputs": [
        {
          "name": "account",
          "type": "address"
        }
      ],
      "name": "addPauser",
      "outputs": [],
      "payable": false,
      "stateMutability": "nonpayable",
      "type": "function"
    },
    {
      "constant": false,
      "inputs": [],
      "name": "pause",
      "outputs": [],
      "payable": false,
      "stateMutability": "nonpayable",
      "type": "function"
    },
    {
      "constant": true,
      "inputs": [
        {
          "name": "owner",
          "type": "address"
        },
        {
          "name": "spender",
          "type": "address"
        }
      ],
      "name": "allowance",
      "outputs": [
        {
          "name": "",
          "type": "uint256"
        }
      ],
      "payable": false,
      "stateMutability": "view",
      "type": "function"
    },
    {
      "anonymous": false,
      "inputs": [],
      "name": "Paused",
      "type": "event"
    },
    {
      "anonymous": false,
      "inputs": [],
      "name": "Unpaused",
      "type": "event"
    },
    {
      "anonymous": false,
      "inputs": [
        {
          "indexed": true,
          "name": "account",
          "type": "address"
        }
      ],
      "name": "PauserAdded",
      "type": "event"
    },
    {
      "anonymous": false,
      "inputs": [
        {
          "indexed": true,
          "name": "account",
          "type": "address"
        }
      ],
      "name": "PauserRemoved",
      "type": "event"
    },
    {
      "anonymous": false,
      "inputs": [
        {
          "indexed": true,
          "name": "from",
          "type": "address"
        },
        {
          "indexed": true,
          "name": "to",
          "type": "address"
        },
        {
          "indexed": false,
          "name": "value",
          "type": "uint256"
        }
      ],
      "name": "Transfer",
      "type": "event"
    },
    {
      "anonymous": false,
      "inputs": [
        {
          "indexed": true,
          "name": "owner",
          "type": "address"
        },
        {
          "indexed": true,
          "name": "spender",
          "type": "address"
        },
        {
          "indexed": false,
          "name": "value",
          "type": "uint256"
        }
      ],
      "name": "Approval",
      "type": "event"
    },
    {
      "constant": false,
      "inputs": [
        {
          "name": "sender",
          "type": "address"
        }
      ],
      "name": "initialize",
      "outputs": [],
      "payable": false,
      "stateMutability": "nonpayable",
      "type": "function"
    },
    {
      "constant": false,
      "inputs": [
        {
          "name": "to",
          "type": "address"
        },
        {
          "name": "value",
          "type": "uint256"
        }
      ],
      "name": "transfer",
      "outputs": [
        {
          "name": "",
          "type": "bool"
        }
      ],
      "payable": false,
      "stateMutability": "nonpayable",
      "type": "function"
    },
    {
      "constant": false,
      "inputs": [
        {
          "name": "from",
          "type": "address"
        },
        {
          "name": "to",
          "type": "address"
        },
        {
          "name": "value",
          "type": "uint256"
        }
      ],
      "name": "transferFrom",
      "outputs": [
        {
          "name": "",
          "type": "bool"
        }
      ],
      "payable": false,
      "stateMutability": "nonpayable",
      "type": "function"
    },
    {
      "constant": false,
      "inputs": [
        {
          "name": "spender",
          "type": "address"
        },
        {
          "name": "value",
          "type": "uint256"
        }
      ],
      "name": "approve",
      "outputs": [
        {
          "name": "",
          "type": "bool"
        }
      ],
      "payable": false,
      "stateMutability": "nonpayable",
      "type": "function"
    },
    {
      "constant": false,
      "inputs": [
        {
          "name": "spender",
          "type": "address"
        },
        {
          "name": "addedValue",
          "type": "uint256"
        }
      ],
      "name": "increaseAllowance",
      "outputs": [
        {
          "name": "success",
          "type": "bool"
        }
      ],
      "payable": false,
      "stateMutability": "nonpayable",
      "type": "function"
    },
    {
      "constant": false,
      "inputs": [
        {
          "name": "spender",
          "type": "address"
        },
        {
          "name": "subtractedValue",
          "type": "uint256"
        }
      ],
      "name": "decreaseAllowance",
      "outputs": [
        {
          "name": "success",
          "type": "bool"
        }
      ],
      "payable": false,
      "stateMutability": "nonpayable",
      "type": "function"
    }
  ],
  "bytecode": "0x6080604052609b805460ff1916905534801561001a57600080fd5b50610c518061002a6000396000f3006080604052600436106100da5763ffffffff7c0100000000000000000000000000000000000000000000000000000000600035041663095ea7b381146100df57806318160ddd1461011757806323b872dd1461013e57806339509351146101685780633f4ba83a1461018c57806346fbf68e146101a35780635c975abb146101c45780636ef8d66d146101d957806370a08231146101ee57806382dc1ec41461020f5780638456cb5914610230578063a457c2d714610245578063a9059cbb14610269578063c4d66de81461028d578063dd62ed3e146102ae575b600080fd5b3480156100eb57600080fd5b50610103600160a060020a03600435166024356102d5565b604080519115158252519081900360200190f35b34801561012357600080fd5b5061012c6102f9565b60408051918252519081900360200190f35b34801561014a57600080fd5b50610103600160a060020a03600435811690602435166044356102ff565b34801561017457600080fd5b50610103600160a060020a0360043516602435610325565b34801561019857600080fd5b506101a1610342565b005b3480156101af57600080fd5b50610103600160a060020a036004351661039c565b3480156101d057600080fd5b506101036103b5565b3480156101e557600080fd5b506101a16103be565b3480156101fa57600080fd5b5061012c600160a060020a03600435166103c9565b34801561021b57600080fd5b506101a1600160a060020a03600435166103e4565b34801561023c57600080fd5b506101a1610404565b34801561025157600080fd5b50610103600160a060020a0360043516602435610460565b34801561027557600080fd5b50610103600160a060020a036004351660243561047d565b34801561029957600080fd5b506101a1600160a060020a036004351661049a565b3480156102ba57600080fd5b5061012c600160a060020a036004358116906024351661059a565b609b5460009060ff16156102e857600080fd5b6102f283836105c5565b9392505050565b60355490565b609b5460009060ff161561031257600080fd5b61031d848484610643565b949350505050565b609b5460009060ff161561033857600080fd5b6102f283836106e0565b61034b3361039c565b151561035657600080fd5b609b5460ff16151561036757600080fd5b609b805460ff191690556040517fa45f47fdea8a1efdd9029a5691c7f759c32b7c698632b563573e155625d1693390600090a1565b60006103af60688363ffffffff61079016565b92915050565b609b5460ff1690565b6103c7336107c7565b565b600160a060020a031660009081526033602052604090205490565b6103ed3361039c565b15156103f857600080fd5b6104018161080f565b50565b61040d3361039c565b151561041857600080fd5b609b5460ff161561042857600080fd5b609b805460ff191660011790556040517f9e87fac88ff661f02d44f95383c817fece4bce600a3dab7a54406878b965e75290600090a1565b609b5460009060ff161561047357600080fd5b6102f28383610857565b609b5460009060ff161561049057600080fd5b6102f283836108a2565b60008054610100900460ff16806104b457506104b46108b8565b806104c2575060005460ff16155b151561055557604080517f08c379a000000000000000000000000000000000000000000000000000000000815260206004820152602e60248201527f436f6e747261637420696e7374616e63652068617320616c726561647920626560448201527f656e20696e697469616c697a6564000000000000000000000000000000000000606482015290519081900360840190fd5b5060008054600161010061ff00198316811760ff1916919091179092550460ff1661057f826108be565b600080549115156101000261ff001990921691909117905550565b600160a060020a03918216600090815260346020908152604080832093909416825291909152205490565b6000600160a060020a03831615156105dc57600080fd5b336000818152603460209081526040808320600160a060020a03881680855290835292819020869055805186815290519293927f8c5be1e5ebec7d5bd14f71427d1e84f3dd0314c0f7b2291e5b200ac8c7c3b925929181900390910190a350600192915050565b600160a060020a038316600090815260346020908152604080832033845290915281205482111561067357600080fd5b600160a060020a03841660009081526034602090815260408083203384529091529020546106a7908363ffffffff6109a316565b600160a060020a03851660009081526034602090815260408083203384529091529020556106d68484846109ba565b5060019392505050565b6000600160a060020a03831615156106f757600080fd5b336000908152603460209081526040808320600160a060020a038716845290915290205461072b908363ffffffff610aae16565b336000818152603460209081526040808320600160a060020a0389168085529083529281902085905580519485525191937f8c5be1e5ebec7d5bd14f71427d1e84f3dd0314c0f7b2291e5b200ac8c7c3b925929081900390910190a350600192915050565b6000600160a060020a03821615156107a757600080fd5b50600160a060020a03166000908152602091909152604090205460ff1690565b6107d860688263ffffffff610ac016565b604051600160a060020a038216907fcd265ebaf09df2871cc7bd4133404a235ba12eff2041bb89d9c714a2621c7c7e90600090a250565b61082060688263ffffffff610af716565b604051600160a060020a038216907f6719d08c1888103bea251a4ed56406bd0c3e69723c8a1686e017e7bbe159b6f890600090a250565b6000600160a060020a038316151561086e57600080fd5b336000908152603460209081526040808320600160a060020a038716845290915290205461072b908363ffffffff6109a316565b60006108af3384846109ba565b50600192915050565b303b1590565b60008054610100900460ff16806108d857506108d86108b8565b806108e6575060005460ff16155b151561097957604080517f08c379a000000000000000000000000000000000000000000000000000000000815260206004820152602e60248201527f436f6e747261637420696e7374616e63652068617320616c726561647920626560448201527f656e20696e697469616c697a6564000000000000000000000000000000000000606482015290519081900360840190fd5b5060008054600161010061ff00198316811760ff1916919091179092550460ff1661057f82610b31565b600080838311156109b357600080fd5b5050900390565b600160a060020a0383166000908152603360205260409020548111156109df57600080fd5b600160a060020a03821615156109f457600080fd5b600160a060020a038316600090815260336020526040902054610a1d908263ffffffff6109a316565b600160a060020a038085166000908152603360205260408082209390935590841681522054610a52908263ffffffff610aae16565b600160a060020a0380841660008181526033602090815260409182902094909455805185815290519193928716927fddf252ad1be2c89b69c2b068fc378daa952ba7f163c4a11628f55a4df523b3ef92918290030190a3505050565b6000828201838110156102f257600080fd5b600160a060020a0381161515610ad557600080fd5b600160a060020a0316600090815260209190915260409020805460ff19169055565b600160a060020a0381161515610b0c57600080fd5b600160a060020a0316600090815260209190915260409020805460ff19166001179055565b60008054610100900460ff1680610b4b5750610b4b6108b8565b80610b59575060005460ff16155b1515610bec57604080517f08c379a000000000000000000000000000000000000000000000000000000000815260206004820152602e60248201527f436f6e747261637420696e7374616e63652068617320616c726561647920626560448201527f656e20696e697469616c697a6564000000000000000000000000000000000000606482015290519081900360840190fd5b5060008054600161010061ff00198316811760ff1916919091179092550460ff16610c168261039c565b151561057f5761057f8261080f5600a165627a7a72305820f3ae10740c70570a747c8cb6b5d6ab65881d83f29006c30ffd99ea78072ea6720029",
  "source": "pragma solidity ^0.4.24;\n\nimport \"zos-lib/contracts/Initializable.sol\";\nimport \"./ERC20.sol\";\nimport \"../../lifecycle/Pausable.sol\";\n\n\n/**\n * @title Pausable token\n * @dev ERC20 modified with pausable transfers.\n **/\ncontract ERC20Pausable is Initializable, ERC20, Pausable {\n\n  function initialize(address sender) public initializer {\n    Pausable.initialize(sender);\n  }\n\n  function transfer(\n    address to,\n    uint256 value\n  )\n    public\n    whenNotPaused\n    returns (bool)\n  {\n    return super.transfer(to, value);\n  }\n\n  function transferFrom(\n    address from,\n    address to,\n    uint256 value\n  )\n    public\n    whenNotPaused\n    returns (bool)\n  {\n    return super.transferFrom(from, to, value);\n  }\n\n  function approve(\n    address spender,\n    uint256 value\n  )\n    public\n    whenNotPaused\n    returns (bool)\n  {\n    return super.approve(spender, value);\n  }\n\n  function increaseAllowance(\n    address spender,\n    uint addedValue\n  )\n    public\n    whenNotPaused\n    returns (bool success)\n  {\n    return super.increaseAllowance(spender, addedValue);\n  }\n\n  function decreaseAllowance(\n    address spender,\n    uint subtractedValue\n  )\n    public\n    whenNotPaused\n    returns (bool success)\n  {\n    return super.decreaseAllowance(spender, subtractedValue);\n  }\n\n  uint256[50] private ______gap;\n}\n",
  "sourcePath": "openzeppelin-eth/contracts/token/ERC20/ERC20Pausable.sol",
  "compiler": {
    "name": "solc",
    "version": "0.4.24+commit.e67f0147.Emscripten.clang"
  },
  "schemaVersion": "2.0.1",
  "updatedAt": "2019-01-14T17:11:36.796Z"
}