{
  "contractName": "ERC20Migrator",
  "abi": [
    {
      "constant": false,
      "inputs": [
        {
          "name": "legacyToken",
          "type": "address"
        }
      ],
      "name": "initialize",
      "outputs": [],
      "payable": false,
      "stateMutability": "nonpayable",
      "type": "function"
    },
    {
      "constant": true,
      "inputs": [],
      "name": "legacyToken",
      "outputs": [
        {
          "name": "",
          "type": "address"
        }
      ],
      "payable": false,
      "stateMutability": "view",
      "type": "function"
    },
    {
      "constant": true,
      "inputs": [],
      "name": "newToken",
      "outputs": [
        {
          "name": "",
          "type": "address"
        }
      ],
      "payable": false,
      "stateMutability": "view",
      "type": "function"
    },
    {
      "constant": false,
      "inputs": [
        {
          "name": "newToken",
          "type": "address"
        }
      ],
      "name": "beginMigration",
      "outputs": [],
      "payable": false,
      "stateMutability": "nonpayable",
      "type": "function"
    },
    {
      "constant": false,
      "inputs": [
        {
          "name": "account",
          "type": "address"
        },
        {
          "name": "amount",
          "type": "uint256"
        }
      ],
      "name": "migrate",
      "outputs": [],
      "payable": false,
      "stateMutability": "nonpayable",
      "type": "function"
    },
    {
      "constant": false,
      "inputs": [
        {
          "name": "account",
          "type": "address"
        }
      ],
      "name": "migrateAll",
      "outputs": [],
      "payable": false,
      "stateMutability": "nonpayable",
      "type": "function"
    }
  ],
  "bytecode": "0x608060405234801561001057600080fd5b50610b1c806100206000396000f300608060405260043610610078576000357c0100000000000000000000000000000000000000000000000000000000900463ffffffff168063104d26141461007d57806313155455146100c05780635a8cadb114610117578063ad68ebf71461015a578063c42bd05a146101a7578063c4d66de8146101fe575b600080fd5b34801561008957600080fd5b506100be600480360381019080803573ffffffffffffffffffffffffffffffffffffffff169060200190929190505050610241565b005b3480156100cc57600080fd5b506100d56103ff565b604051808273ffffffffffffffffffffffffffffffffffffffff1673ffffffffffffffffffffffffffffffffffffffff16815260200191505060405180910390f35b34801561012357600080fd5b50610158600480360381019080803573ffffffffffffffffffffffffffffffffffffffff169060200190929190505050610429565b005b34801561016657600080fd5b506101a5600480360381019080803573ffffffffffffffffffffffffffffffffffffffff16906020019092919080359060200190929190505050610672565b005b3480156101b357600080fd5b506101bc6107c6565b604051808273ffffffffffffffffffffffffffffffffffffffff1673ffffffffffffffffffffffffffffffffffffffff16815260200191505060405180910390f35b34801561020a57600080fd5b5061023f600480360381019080803573ffffffffffffffffffffffffffffffffffffffff1690602001909291905050506107f0565b005b600073ffffffffffffffffffffffffffffffffffffffff16603460009054906101000a900473ffffffffffffffffffffffffffffffffffffffff1673ffffffffffffffffffffffffffffffffffffffff1614151561029e57600080fd5b600073ffffffffffffffffffffffffffffffffffffffff168173ffffffffffffffffffffffffffffffffffffffff16141515156102da57600080fd5b8073ffffffffffffffffffffffffffffffffffffffff1663aa271e1a306040518263ffffffff167c0100000000000000000000000000000000000000000000000000000000028152600401808273ffffffffffffffffffffffffffffffffffffffff1673ffffffffffffffffffffffffffffffffffffffff168152602001915050602060405180830381600087803b15801561037557600080fd5b505af1158015610389573d6000803e3d6000fd5b505050506040513d602081101561039f57600080fd5b810190808051906020019092919050505015156103bb57600080fd5b80603460006101000a81548173ffffffffffffffffffffffffffffffffffffffff021916908373ffffffffffffffffffffffffffffffffffffffff16021790555050565b6000603360009054906101000a900473ffffffffffffffffffffffffffffffffffffffff16905090565b6000806000603360009054906101000a900473ffffffffffffffffffffffffffffffffffffffff1673ffffffffffffffffffffffffffffffffffffffff166370a08231856040518263ffffffff167c0100000000000000000000000000000000000000000000000000000000028152600401808273ffffffffffffffffffffffffffffffffffffffff1673ffffffffffffffffffffffffffffffffffffffff168152602001915050602060405180830381600087803b1580156104eb57600080fd5b505af11580156104ff573d6000803e3d6000fd5b505050506040513d602081101561051557600080fd5b81019080805190602001909291905050509250603360009054906101000a900473ffffffffffffffffffffffffffffffffffffffff1673ffffffffffffffffffffffffffffffffffffffff1663dd62ed3e85306040518363ffffffff167c0100000000000000000000000000000000000000000000000000000000028152600401808373ffffffffffffffffffffffffffffffffffffffff1673ffffffffffffffffffffffffffffffffffffffff1681526020018273ffffffffffffffffffffffffffffffffffffffff1673ffffffffffffffffffffffffffffffffffffffff16815260200192505050602060405180830381600087803b15801561061957600080fd5b505af115801561062d573d6000803e3d6000fd5b505050506040513d602081101561064357600080fd5b8101908080519060200190929190505050915061066083836109a3565b905061066c8482610672565b50505050565b6106c1823083603360009054906101000a900473ffffffffffffffffffffffffffffffffffffffff1673ffffffffffffffffffffffffffffffffffffffff166109bc909392919063ffffffff16565b603460009054906101000a900473ffffffffffffffffffffffffffffffffffffffff1673ffffffffffffffffffffffffffffffffffffffff166340c10f1983836040518363ffffffff167c0100000000000000000000000000000000000000000000000000000000028152600401808373ffffffffffffffffffffffffffffffffffffffff1673ffffffffffffffffffffffffffffffffffffffff16815260200182815260200192505050602060405180830381600087803b15801561078657600080fd5b505af115801561079a573d6000803e3d6000fd5b505050506040513d60208110156107b057600080fd5b8101908080519060200190929190505050505050565b6000603460009054906101000a900473ffffffffffffffffffffffffffffffffffffffff16905090565b60008060019054906101000a900460ff1680610810575061080f610adf565b5b8061082757506000809054906101000a900460ff16155b15156108c1576040517f08c379a000000000000000000000000000000000000000000000000000000000815260040180806020018281038252602e8152602001807f436f6e747261637420696e7374616e63652068617320616c726561647920626581526020017f656e20696e697469616c697a656400000000000000000000000000000000000081525060400191505060405180910390fd5b600060019054906101000a900460ff1690506001600060016101000a81548160ff02191690831515021790555060016000806101000a81548160ff021916908315150217905550600073ffffffffffffffffffffffffffffffffffffffff168273ffffffffffffffffffffffffffffffffffffffff161415151561094457600080fd5b81603360006101000a81548173ffffffffffffffffffffffffffffffffffffffff021916908373ffffffffffffffffffffffffffffffffffffffff16021790555080600060016101000a81548160ff0219169083151502179055505050565b60008183106109b257816109b4565b825b905092915050565b8373ffffffffffffffffffffffffffffffffffffffff166323b872dd8484846040518463ffffffff167c0100000000000000000000000000000000000000000000000000000000028152600401808473ffffffffffffffffffffffffffffffffffffffff1673ffffffffffffffffffffffffffffffffffffffff1681526020018373ffffffffffffffffffffffffffffffffffffffff1673ffffffffffffffffffffffffffffffffffffffff1681526020018281526020019350505050602060405180830381600087803b158015610a9357600080fd5b505af1158015610aa7573d6000803e3d6000fd5b505050506040513d6020811015610abd57600080fd5b81019080805190602001909291905050501515610ad957600080fd5b50505050565b600080303b905060008114915050905600a165627a7a72305820516f498985d5bdbbbb195ad76d37bf2ad64795abfcc2083f585afea904621ba30029",
  "source": "pragma solidity ^0.4.24;\n\nimport \"zos-lib/contracts/Initializable.sol\";\nimport \"../token/ERC20/IERC20.sol\";\nimport \"../token/ERC20/ERC20Mintable.sol\";\nimport \"../token/ERC20/SafeERC20.sol\";\nimport \"../math/Math.sol\";\n\n\n/**\n * @title ERC20Migrator\n * @dev This contract can be used to migrate an ERC20 token from one\n * contract to another, where each token holder has to opt-in to the migration.\n * To opt-in, users must approve for this contract the number of tokens they\n * want to migrate. Once the allowance is set up, anyone can trigger the\n * migration to the new token contract. In this way, token holders \"turn in\"\n * their old balance and will be minted an equal amount in the new token.\n * The new token contract must be mintable. For the precise interface refer to\n * OpenZeppelin's ERC20Mintable, but the only functions that are needed are\n * `isMinter(address)` and `mint(address, amount)`. The migrator will check\n * that it is a minter for the token.\n * The balance from the legacy token will be transfered to the migrator, as it\n * is migrated, and remain there forever.\n * Although this contract can be used in many different scenarios, the main\n * motivation was to provide a way to migrate ERC20 tokens into an upgradeable\n * version of it using ZeppelinOS. To read more about how this can be done\n * using this implementation, please follow the official documentation site of\n * ZeppelinOS: https://docs.zeppelinos.org/docs/erc20_onboarding.html\n * Example of usage:\n * ```\n * const migrator = await ERC20Migrator.new(legacyToken.address);\n * await newToken.addMinter(migrator.address);\n * await migrator.beginMigration(newToken.address);\n * ```\n */\ncontract ERC20Migrator is Initializable {\n  using SafeERC20 for IERC20;\n\n  /// Address of the old token contract\n  IERC20 private _legacyToken;\n\n  /// Address of the new token contract\n  ERC20Mintable private _newToken;\n\n  /**\n   * @param legacyToken address of the old token contract\n   */\n  function initialize(IERC20 legacyToken) public initializer {\n    require(legacyToken != address(0));\n    _legacyToken = legacyToken;\n  }\n\n  /**\n   * @dev Returns the legacy token that is being migrated.\n   */\n  function legacyToken() public view returns (IERC20) {\n    return _legacyToken;\n  }\n\n  /**\n   * @dev Returns the new token to which we are migrating.\n   */\n  function newToken() public view returns (IERC20) {\n    return _newToken;\n  }\n\n  /**\n   * @dev Begins the migration by setting which is the new token that will be\n   * minted. This contract must be a minter for the new token.\n   * @param newToken the token that will be minted\n   */\n  function beginMigration(ERC20Mintable newToken) public {\n    require(_newToken == address(0));\n    require(newToken != address(0));\n    require(newToken.isMinter(this));\n\n    _newToken = newToken;\n  }\n\n  /**\n   * @dev Transfers part of an account's balance in the old token to this\n   * contract, and mints the same amount of new tokens for that account.\n   * @param account whose tokens will be migrated\n   * @param amount amount of tokens to be migrated\n   */\n  function migrate(address account, uint256 amount) public {\n    _legacyToken.safeTransferFrom(account, this, amount);\n    _newToken.mint(account, amount);\n  }\n\n  /**\n   * @dev Transfers all of an account's allowed balance in the old token to\n   * this contract, and mints the same amount of new tokens for that account.\n   * @param account whose tokens will be migrated\n   */\n  function migrateAll(address account) public {\n    uint256 balance = _legacyToken.balanceOf(account);\n    uint256 allowance = _legacyToken.allowance(account, this);\n    uint256 amount = Math.min(balance, allowance);\n    migrate(account, amount);\n  }\n\n  uint256[50] private ______gap;\n}\n",
  "sourcePath": "/Users/jretina/Programming/PROPSProject/props-token-distribution/contracts/token/openzeppelin-eth/contracts/drafts/ERC20Migrator.sol",
  "compiler": {
    "name": "solc",
    "version": "0.4.24+commit.e67f0147.Emscripten.clang"
  },
  "schemaVersion": "2.0.1",
  "updatedAt": "2019-04-29T09:04:37.343Z"
}