{
  "contractName": "ERC721Metadata",
  "abi": [
    {
      "constant": true,
      "inputs": [
        {
          "name": "interfaceId",
          "type": "bytes4"
        }
      ],
      "name": "supportsInterface",
      "outputs": [
        {
          "name": "",
          "type": "bool"
        }
      ],
      "payable": false,
      "stateMutability": "view",
      "type": "function"
    },
    {
      "constant": true,
      "inputs": [
        {
          "name": "tokenId",
          "type": "uint256"
        }
      ],
      "name": "getApproved",
      "outputs": [
        {
          "name": "",
          "type": "address"
        }
      ],
      "payable": false,
      "stateMutability": "view",
      "type": "function"
    },
    {
      "constant": false,
      "inputs": [
        {
          "name": "to",
          "type": "address"
        },
        {
          "name": "tokenId",
          "type": "uint256"
        }
      ],
      "name": "approve",
      "outputs": [],
      "payable": false,
      "stateMutability": "nonpayable",
      "type": "function"
    },
    {
      "constant": false,
      "inputs": [
        {
          "name": "from",
          "type": "address"
        },
        {
          "name": "to",
          "type": "address"
        },
        {
          "name": "tokenId",
          "type": "uint256"
        }
      ],
      "name": "transferFrom",
      "outputs": [],
      "payable": false,
      "stateMutability": "nonpayable",
      "type": "function"
    },
    {
      "constant": false,
      "inputs": [
        {
          "name": "from",
          "type": "address"
        },
        {
          "name": "to",
          "type": "address"
        },
        {
          "name": "tokenId",
          "type": "uint256"
        }
      ],
      "name": "safeTransferFrom",
      "outputs": [],
      "payable": false,
      "stateMutability": "nonpayable",
      "type": "function"
    },
    {
      "constant": true,
      "inputs": [
        {
          "name": "tokenId",
          "type": "uint256"
        }
      ],
      "name": "ownerOf",
      "outputs": [
        {
          "name": "",
          "type": "address"
        }
      ],
      "payable": false,
      "stateMutability": "view",
      "type": "function"
    },
    {
      "constant": true,
      "inputs": [
        {
          "name": "owner",
          "type": "address"
        }
      ],
      "name": "balanceOf",
      "outputs": [
        {
          "name": "",
          "type": "uint256"
        }
      ],
      "payable": false,
      "stateMutability": "view",
      "type": "function"
    },
    {
      "constant": false,
      "inputs": [
        {
          "name": "to",
          "type": "address"
        },
        {
          "name": "approved",
          "type": "bool"
        }
      ],
      "name": "setApprovalForAll",
      "outputs": [],
      "payable": false,
      "stateMutability": "nonpayable",
      "type": "function"
    },
    {
      "constant": false,
      "inputs": [
        {
          "name": "from",
          "type": "address"
        },
        {
          "name": "to",
          "type": "address"
        },
        {
          "name": "tokenId",
          "type": "uint256"
        },
        {
          "name": "_data",
          "type": "bytes"
        }
      ],
      "name": "safeTransferFrom",
      "outputs": [],
      "payable": false,
      "stateMutability": "nonpayable",
      "type": "function"
    },
    {
      "constant": true,
      "inputs": [
        {
          "name": "owner",
          "type": "address"
        },
        {
          "name": "operator",
          "type": "address"
        }
      ],
      "name": "isApprovedForAll",
      "outputs": [
        {
          "name": "",
          "type": "bool"
        }
      ],
      "payable": false,
      "stateMutability": "view",
      "type": "function"
    },
    {
      "anonymous": false,
      "inputs": [
        {
          "indexed": true,
          "name": "from",
          "type": "address"
        },
        {
          "indexed": true,
          "name": "to",
          "type": "address"
        },
        {
          "indexed": true,
          "name": "tokenId",
          "type": "uint256"
        }
      ],
      "name": "Transfer",
      "type": "event"
    },
    {
      "anonymous": false,
      "inputs": [
        {
          "indexed": true,
          "name": "owner",
          "type": "address"
        },
        {
          "indexed": true,
          "name": "approved",
          "type": "address"
        },
        {
          "indexed": true,
          "name": "tokenId",
          "type": "uint256"
        }
      ],
      "name": "Approval",
      "type": "event"
    },
    {
      "anonymous": false,
      "inputs": [
        {
          "indexed": true,
          "name": "owner",
          "type": "address"
        },
        {
          "indexed": true,
          "name": "operator",
          "type": "address"
        },
        {
          "indexed": false,
          "name": "approved",
          "type": "bool"
        }
      ],
      "name": "ApprovalForAll",
      "type": "event"
    },
    {
      "constant": false,
      "inputs": [
        {
          "name": "name",
          "type": "string"
        },
        {
          "name": "symbol",
          "type": "string"
        }
      ],
      "name": "initialize",
      "outputs": [],
      "payable": false,
      "stateMutability": "nonpayable",
      "type": "function"
    },
    {
      "constant": false,
      "inputs": [],
      "name": "initialize",
      "outputs": [],
      "payable": false,
      "stateMutability": "nonpayable",
      "type": "function"
    },
    {
      "constant": true,
      "inputs": [],
      "name": "name",
      "outputs": [
        {
          "name": "",
          "type": "string"
        }
      ],
      "payable": false,
      "stateMutability": "view",
      "type": "function"
    },
    {
      "constant": true,
      "inputs": [],
      "name": "symbol",
      "outputs": [
        {
          "name": "",
          "type": "string"
        }
      ],
      "payable": false,
      "stateMutability": "view",
      "type": "function"
    },
    {
      "constant": true,
      "inputs": [
        {
          "name": "tokenId",
          "type": "uint256"
        }
      ],
      "name": "tokenURI",
      "outputs": [
        {
          "name": "",
          "type": "string"
        }
      ],
      "payable": false,
      "stateMutability": "view",
      "type": "function"
    }
  ],
  "bytecode": "0x608060405234801561001057600080fd5b50611ce5806100206000396000f3006080604052600436106100db576000357c0100000000000000000000000000000000000000000000000000000000900463ffffffff16806301ffc9a7146100e057806306fdde0314610144578063081812fc146101d4578063095ea7b31461024157806323b872dd1461028e57806342842e0e146102fb5780634cd88b76146103685780636352211e1461041757806370a08231146104845780638129fc1c146104db57806395d89b41146104f2578063a22cb46514610582578063b88d4fde146105d1578063c87b56dd14610684578063e985e9c51461072a575b600080fd5b3480156100ec57600080fd5b5061012a60048036038101908080357bffffffffffffffffffffffffffffffffffffffffffffffffffffffff191690602001909291905050506107a5565b604051808215151515815260200191505060405180910390f35b34801561015057600080fd5b5061015961080d565b6040518080602001828103825283818151815260200191508051906020019080838360005b8381101561019957808201518184015260208101905061017e565b50505050905090810190601f1680156101c65780820380516001836020036101000a031916815260200191505b509250505060405180910390f35b3480156101e057600080fd5b506101ff600480360381019080803590602001909291905050506108af565b604051808273ffffffffffffffffffffffffffffffffffffffff1673ffffffffffffffffffffffffffffffffffffffff16815260200191505060405180910390f35b34801561024d57600080fd5b5061028c600480360381019080803573ffffffffffffffffffffffffffffffffffffffff16906020019092919080359060200190929190505050610900565b005b34801561029a57600080fd5b506102f9600480360381019080803573ffffffffffffffffffffffffffffffffffffffff169060200190929190803573ffffffffffffffffffffffffffffffffffffffff16906020019092919080359060200190929190505050610a45565b005b34801561030757600080fd5b50610366600480360381019080803573ffffffffffffffffffffffffffffffffffffffff169060200190929190803573ffffffffffffffffffffffffffffffffffffffff16906020019092919080359060200190929190505050610b14565b005b34801561037457600080fd5b50610415600480360381019080803590602001908201803590602001908080601f0160208091040260200160405190810160405280939291908181526020018383808284378201915050505050509192919290803590602001908201803590602001908080601f0160208091040260200160405190810160405280939291908181526020018383808284378201915050505050509192919290505050610b35565b005b34801561042357600080fd5b5061044260048036038101908080359060200190929190505050610cd9565b604051808273ffffffffffffffffffffffffffffffffffffffff1673ffffffffffffffffffffffffffffffffffffffff16815260200191505060405180910390f35b34801561049057600080fd5b506104c5600480360381019080803573ffffffffffffffffffffffffffffffffffffffff169060200190929190505050610d57565b6040518082815260200191505060405180910390f35b3480156104e757600080fd5b506104f0610ddb565b005b3480156104fe57600080fd5b50610507610f44565b6040518080602001828103825283818151815260200191508051906020019080838360005b8381101561054757808201518184015260208101905061052c565b50505050905090810190601f1680156105745780820380516001836020036101000a031916815260200191505b509250505060405180910390f35b34801561058e57600080fd5b506105cf600480360381019080803573ffffffffffffffffffffffffffffffffffffffff169060200190929190803515159060200190929190505050610fe6565b005b3480156105dd57600080fd5b50610682600480360381019080803573ffffffffffffffffffffffffffffffffffffffff169060200190929190803573ffffffffffffffffffffffffffffffffffffffff16906020019092919080359060200190929190803590602001908201803590602001908080601f0160208091040260200160405190810160405280939291908181526020018383808284378201915050505050509192919290505050611122565b005b34801561069057600080fd5b506106af6004803603810190808035906020019092919050505061114a565b6040518080602001828103825283818151815260200191508051906020019080838360005b838110156106ef5780820151818401526020810190506106d4565b50505050905090810190601f16801561071c5780820380516001836020036101000a031916815260200191505b509250505060405180910390f35b34801561073657600080fd5b5061078b600480360381019080803573ffffffffffffffffffffffffffffffffffffffff169060200190929190803573ffffffffffffffffffffffffffffffffffffffff169060200190929190505050611213565b604051808215151515815260200191505060405180910390f35b600060336000837bffffffffffffffffffffffffffffffffffffffffffffffffffffffff19167bffffffffffffffffffffffffffffffffffffffffffffffffffffffff1916815260200190815260200160002060009054906101000a900460ff169050919050565b6060609c8054600181600116156101000203166002900480601f0160208091040260200160405190810160405280929190818152602001828054600181600116156101000203166002900480156108a55780601f1061087a576101008083540402835291602001916108a5565b820191906000526020600020905b81548152906001019060200180831161088857829003601f168201915b5050505050905090565b60006108ba826112a7565b15156108c557600080fd5b6067600083815260200190815260200160002060009054906101000a900473ffffffffffffffffffffffffffffffffffffffff169050919050565b600061090b82610cd9565b90508073ffffffffffffffffffffffffffffffffffffffff168373ffffffffffffffffffffffffffffffffffffffff161415151561094857600080fd5b8073ffffffffffffffffffffffffffffffffffffffff163373ffffffffffffffffffffffffffffffffffffffff16148061098857506109878133611213565b5b151561099357600080fd5b826067600084815260200190815260200160002060006101000a81548173ffffffffffffffffffffffffffffffffffffffff021916908373ffffffffffffffffffffffffffffffffffffffff160217905550818373ffffffffffffffffffffffffffffffffffffffff168273ffffffffffffffffffffffffffffffffffffffff167f8c5be1e5ebec7d5bd14f71427d1e84f3dd0314c0f7b2291e5b200ac8c7c3b92560405160405180910390a4505050565b610a4f3382611319565b1515610a5a57600080fd5b600073ffffffffffffffffffffffffffffffffffffffff168273ffffffffffffffffffffffffffffffffffffffff1614151515610a9657600080fd5b610aa083826113ae565b610aaa83826114b1565b610ab482826115e0565b808273ffffffffffffffffffffffffffffffffffffffff168473ffffffffffffffffffffffffffffffffffffffff167fddf252ad1be2c89b69c2b068fc378daa952ba7f163c4a11628f55a4df523b3ef60405160405180910390a4505050565b610b308383836020604051908101604052806000815250611122565b505050565b60008060019054906101000a900460ff1680610b555750610b5461173a565b5b80610b6c57506000809054906101000a900460ff16155b1515610c06576040517f08c379a000000000000000000000000000000000000000000000000000000000815260040180806020018281038252602e8152602001807f436f6e747261637420696e7374616e63652068617320616c726561647920626581526020017f656e20696e697469616c697a656400000000000000000000000000000000000081525060400191505060405180910390fd5b600060019054906101000a900460ff1690506001600060016101000a81548160ff02191690831515021790555060016000806101000a81548160ff021916908315150217905550610c5561174b565b1515610c6057600080fd5b82609c9080519060200190610c76929190611c14565b5081609d9080519060200190610c8d929190611c14565b50610cba635b5e139f7c01000000000000000000000000000000000000000000000000000000000261177e565b80600060016101000a81548160ff021916908315150217905550505050565b6000806066600084815260200190815260200160002060009054906101000a900473ffffffffffffffffffffffffffffffffffffffff169050600073ffffffffffffffffffffffffffffffffffffffff168173ffffffffffffffffffffffffffffffffffffffff1614151515610d4e57600080fd5b80915050919050565b60008073ffffffffffffffffffffffffffffffffffffffff168273ffffffffffffffffffffffffffffffffffffffff1614151515610d9457600080fd5b606860008373ffffffffffffffffffffffffffffffffffffffff1673ffffffffffffffffffffffffffffffffffffffff168152602001908152602001600020549050919050565b60008060019054906101000a900460ff1680610dfb5750610dfa61173a565b5b80610e1257506000809054906101000a900460ff16155b1515610eac576040517f08c379a000000000000000000000000000000000000000000000000000000000815260040180806020018281038252602e8152602001807f436f6e747261637420696e7374616e63652068617320616c726561647920626581526020017f656e20696e697469616c697a656400000000000000000000000000000000000081525060400191505060405180910390fd5b600060019054906101000a900460ff1690506001600060016101000a81548160ff02191690831515021790555060016000806101000a81548160ff021916908315150217905550610efb61183c565b610f276380ac58cd7c01000000000000000000000000000000000000000000000000000000000261177e565b80600060016101000a81548160ff02191690831515021790555050565b6060609d8054600181600116156101000203166002900480601f016020809104026020016040519081016040528092919081815260200182805460018160011615610100020316600290048015610fdc5780601f10610fb157610100808354040283529160200191610fdc565b820191906000526020600020905b815481529060010190602001808311610fbf57829003601f168201915b5050505050905090565b3373ffffffffffffffffffffffffffffffffffffffff168273ffffffffffffffffffffffffffffffffffffffff161415151561102157600080fd5b80606960003373ffffffffffffffffffffffffffffffffffffffff1673ffffffffffffffffffffffffffffffffffffffff16815260200190815260200160002060008473ffffffffffffffffffffffffffffffffffffffff1673ffffffffffffffffffffffffffffffffffffffff16815260200190815260200160002060006101000a81548160ff0219169083151502179055508173ffffffffffffffffffffffffffffffffffffffff163373ffffffffffffffffffffffffffffffffffffffff167f17307eab39ab6107e8899845ad3d59bd9653f200f220920489ca2b5937696c3183604051808215151515815260200191505060405180910390a35050565b61112d848484610a45565b6111398484848461199d565b151561114457600080fd5b50505050565b6060611155826112a7565b151561116057600080fd5b609e60008381526020019081526020016000208054600181600116156101000203166002900480601f0160208091040260200160405190810160405280929190818152602001828054600181600116156101000203166002900480156112075780601f106111dc57610100808354040283529160200191611207565b820191906000526020600020905b8154815290600101906020018083116111ea57829003601f168201915b50505050509050919050565b6000606960008473ffffffffffffffffffffffffffffffffffffffff1673ffffffffffffffffffffffffffffffffffffffff16815260200190815260200160002060008373ffffffffffffffffffffffffffffffffffffffff1673ffffffffffffffffffffffffffffffffffffffff16815260200190815260200160002060009054906101000a900460ff16905092915050565b6000806066600084815260200190815260200160002060009054906101000a900473ffffffffffffffffffffffffffffffffffffffff169050600073ffffffffffffffffffffffffffffffffffffffff168173ffffffffffffffffffffffffffffffffffffffff161415915050919050565b60008061132583610cd9565b90508073ffffffffffffffffffffffffffffffffffffffff168473ffffffffffffffffffffffffffffffffffffffff16148061139457508373ffffffffffffffffffffffffffffffffffffffff1661137c846108af565b73ffffffffffffffffffffffffffffffffffffffff16145b806113a557506113a48185611213565b5b91505092915050565b8173ffffffffffffffffffffffffffffffffffffffff166113ce82610cd9565b73ffffffffffffffffffffffffffffffffffffffff161415156113f057600080fd5b600073ffffffffffffffffffffffffffffffffffffffff166067600083815260200190815260200160002060009054906101000a900473ffffffffffffffffffffffffffffffffffffffff1673ffffffffffffffffffffffffffffffffffffffff161415156114ad5760006067600083815260200190815260200160002060006101000a81548173ffffffffffffffffffffffffffffffffffffffff021916908373ffffffffffffffffffffffffffffffffffffffff1602179055505b5050565b8173ffffffffffffffffffffffffffffffffffffffff166114d182610cd9565b73ffffffffffffffffffffffffffffffffffffffff161415156114f357600080fd5b6115466001606860008573ffffffffffffffffffffffffffffffffffffffff1673ffffffffffffffffffffffffffffffffffffffff16815260200190815260200160002054611bbf90919063ffffffff16565b606860008473ffffffffffffffffffffffffffffffffffffffff1673ffffffffffffffffffffffffffffffffffffffff1681526020019081526020016000208190555060006066600083815260200190815260200160002060006101000a81548173ffffffffffffffffffffffffffffffffffffffff021916908373ffffffffffffffffffffffffffffffffffffffff1602179055505050565b600073ffffffffffffffffffffffffffffffffffffffff166066600083815260200190815260200160002060009054906101000a900473ffffffffffffffffffffffffffffffffffffffff1673ffffffffffffffffffffffffffffffffffffffff1614151561164e57600080fd5b816066600083815260200190815260200160002060006101000a81548173ffffffffffffffffffffffffffffffffffffffff021916908373ffffffffffffffffffffffffffffffffffffffff1602179055506116f36001606860008573ffffffffffffffffffffffffffffffffffffffff1673ffffffffffffffffffffffffffffffffffffffff16815260200190815260200160002054611be090919063ffffffff16565b606860008473ffffffffffffffffffffffffffffffffffffffff1673ffffffffffffffffffffffffffffffffffffffff168152602001908152602001600020819055505050565b600080303b90506000811491505090565b60006117796380ac58cd7c0100000000000000000000000000000000000000000000000000000000026107a5565b905090565b63ffffffff7c010000000000000000000000000000000000000000000000000000000002817bffffffffffffffffffffffffffffffffffffffffffffffffffffffff1916141515156117cf57600080fd5b600160336000837bffffffffffffffffffffffffffffffffffffffffffffffffffffffff19167bffffffffffffffffffffffffffffffffffffffffffffffffffffffff1916815260200190815260200160002060006101000a81548160ff02191690831515021790555050565b60008060019054906101000a900460ff168061185c575061185b61173a565b5b8061187357506000809054906101000a900460ff16155b151561190d576040517f08c379a000000000000000000000000000000000000000000000000000000000815260040180806020018281038252602e8152602001807f436f6e747261637420696e7374616e63652068617320616c726561647920626581526020017f656e20696e697469616c697a656400000000000000000000000000000000000081525060400191505060405180910390fd5b600060019054906101000a900460ff1690506001600060016101000a81548160ff02191690831515021790555060016000806101000a81548160ff0219169083151502179055506119806301ffc9a77c01000000000000000000000000000000000000000000000000000000000261177e565b80600060016101000a81548160ff02191690831515021790555050565b6000806119bf8573ffffffffffffffffffffffffffffffffffffffff16611c01565b15156119ce5760019150611bb6565b8473ffffffffffffffffffffffffffffffffffffffff1663150b7a02338887876040518563ffffffff167c0100000000000000000000000000000000000000000000000000000000028152600401808573ffffffffffffffffffffffffffffffffffffffff1673ffffffffffffffffffffffffffffffffffffffff1681526020018473ffffffffffffffffffffffffffffffffffffffff1673ffffffffffffffffffffffffffffffffffffffff16815260200183815260200180602001828103825283818151815260200191508051906020019080838360005b83811015611ac3578082015181840152602081019050611aa8565b50505050905090810190601f168015611af05780820380516001836020036101000a031916815260200191505b5095505050505050602060405180830381600087803b158015611b1257600080fd5b505af1158015611b26573d6000803e3d6000fd5b505050506040513d6020811015611b3c57600080fd5b8101908080519060200190929190505050905063150b7a027c0100000000000000000000000000000000000000000000000000000000027bffffffffffffffffffffffffffffffffffffffffffffffffffffffff1916817bffffffffffffffffffffffffffffffffffffffffffffffffffffffff19161491505b50949350505050565b600080838311151515611bd157600080fd5b82840390508091505092915050565b6000808284019050838110151515611bf757600080fd5b8091505092915050565b600080823b905060008111915050919050565b828054600181600116156101000203166002900490600052602060002090601f016020900481019282601f10611c5557805160ff1916838001178555611c83565b82800160010185558215611c83579182015b82811115611c82578251825591602001919060010190611c67565b5b509050611c909190611c94565b5090565b611cb691905b80821115611cb2576000816000905550600101611c9a565b5090565b905600a165627a7a7230582070f3f3f5d024f74893202413d8983e94010146758f7e54051c0670a06f8bc2b30029",
  "source": "pragma solidity ^0.4.24;\n\nimport \"zos-lib/contracts/Initializable.sol\";\nimport \"./ERC721.sol\";\nimport \"./IERC721Metadata.sol\";\nimport \"../../introspection/ERC165.sol\";\n\n\ncontract ERC721Metadata is Initializable, ERC165, ERC721, IERC721Metadata {\n  // Token name\n  string internal _name;\n\n  // Token symbol\n  string internal _symbol;\n\n  // Optional mapping for token URIs\n  mapping(uint256 => string) private _tokenURIs;\n\n  bytes4 private constant InterfaceId_ERC721Metadata = 0x5b5e139f;\n  /**\n   * 0x5b5e139f ===\n   *   bytes4(keccak256('name()')) ^\n   *   bytes4(keccak256('symbol()')) ^\n   *   bytes4(keccak256('tokenURI(uint256)'))\n   */\n\n  /**\n   * @dev Constructor function\n   */\n  function initialize(string name, string symbol) public initializer {\n    require(ERC721._hasBeenInitialized());\n\n    _name = name;\n    _symbol = symbol;\n\n    // register the supported interfaces to conform to ERC721 via ERC165\n    _registerInterface(InterfaceId_ERC721Metadata);\n  }\n\n  function _hasBeenInitialized() internal view returns (bool) {\n    return supportsInterface(InterfaceId_ERC721Metadata);\n  }\n\n  /**\n   * @dev Gets the token name\n   * @return string representing the token name\n   */\n  function name() external view returns (string) {\n    return _name;\n  }\n\n  /**\n   * @dev Gets the token symbol\n   * @return string representing the token symbol\n   */\n  function symbol() external view returns (string) {\n    return _symbol;\n  }\n\n  /**\n   * @dev Returns an URI for a given token ID\n   * Throws if the token ID does not exist. May return an empty string.\n   * @param tokenId uint256 ID of the token to query\n   */\n  function tokenURI(uint256 tokenId) public view returns (string) {\n    require(_exists(tokenId));\n    return _tokenURIs[tokenId];\n  }\n\n  /**\n   * @dev Internal function to set the token URI for a given token\n   * Reverts if the token ID does not exist\n   * @param tokenId uint256 ID of the token to set its URI\n   * @param uri string URI to assign\n   */\n  function _setTokenURI(uint256 tokenId, string uri) internal {\n    require(_exists(tokenId));\n    _tokenURIs[tokenId] = uri;\n  }\n\n  /**\n   * @dev Internal function to burn a specific token\n   * Reverts if the token does not exist\n   * @param owner owner of the token to burn\n   * @param tokenId uint256 ID of the token being burned by the msg.sender\n   */\n  function _burn(address owner, uint256 tokenId) internal {\n    super._burn(owner, tokenId);\n\n    // Clear metadata (if any)\n    if (bytes(_tokenURIs[tokenId]).length != 0) {\n      delete _tokenURIs[tokenId];\n    }\n  }\n\n  uint256[50] private ______gap;\n}\n",
  "sourcePath": "/Users/jretina/Programming/PROPSProject/props-token-distribution/contracts/token/openzeppelin-eth/contracts/token/ERC721/ERC721Metadata.sol",
  "compiler": {
    "name": "solc",
    "version": "0.4.24+commit.e67f0147.Emscripten.clang"
  },
  "schemaVersion": "2.0.1",
  "updatedAt": "2019-05-20T13:02:53.197Z"
}