{
  "contractName": "ERC721Enumerable",
  "abi": [
    {
      "constant": true,
      "inputs": [
        {
          "name": "interfaceId",
          "type": "bytes4"
        }
      ],
      "name": "supportsInterface",
      "outputs": [
        {
          "name": "",
          "type": "bool"
        }
      ],
      "payable": false,
      "stateMutability": "view",
      "type": "function"
    },
    {
      "constant": true,
      "inputs": [
        {
          "name": "tokenId",
          "type": "uint256"
        }
      ],
      "name": "getApproved",
      "outputs": [
        {
          "name": "",
          "type": "address"
        }
      ],
      "payable": false,
      "stateMutability": "view",
      "type": "function"
    },
    {
      "constant": false,
      "inputs": [
        {
          "name": "to",
          "type": "address"
        },
        {
          "name": "tokenId",
          "type": "uint256"
        }
      ],
      "name": "approve",
      "outputs": [],
      "payable": false,
      "stateMutability": "nonpayable",
      "type": "function"
    },
    {
      "constant": false,
      "inputs": [
        {
          "name": "from",
          "type": "address"
        },
        {
          "name": "to",
          "type": "address"
        },
        {
          "name": "tokenId",
          "type": "uint256"
        }
      ],
      "name": "transferFrom",
      "outputs": [],
      "payable": false,
      "stateMutability": "nonpayable",
      "type": "function"
    },
    {
      "constant": false,
      "inputs": [
        {
          "name": "from",
          "type": "address"
        },
        {
          "name": "to",
          "type": "address"
        },
        {
          "name": "tokenId",
          "type": "uint256"
        }
      ],
      "name": "safeTransferFrom",
      "outputs": [],
      "payable": false,
      "stateMutability": "nonpayable",
      "type": "function"
    },
    {
      "constant": true,
      "inputs": [
        {
          "name": "tokenId",
          "type": "uint256"
        }
      ],
      "name": "ownerOf",
      "outputs": [
        {
          "name": "",
          "type": "address"
        }
      ],
      "payable": false,
      "stateMutability": "view",
      "type": "function"
    },
    {
      "constant": true,
      "inputs": [
        {
          "name": "owner",
          "type": "address"
        }
      ],
      "name": "balanceOf",
      "outputs": [
        {
          "name": "",
          "type": "uint256"
        }
      ],
      "payable": false,
      "stateMutability": "view",
      "type": "function"
    },
    {
      "constant": false,
      "inputs": [
        {
          "name": "to",
          "type": "address"
        },
        {
          "name": "approved",
          "type": "bool"
        }
      ],
      "name": "setApprovalForAll",
      "outputs": [],
      "payable": false,
      "stateMutability": "nonpayable",
      "type": "function"
    },
    {
      "constant": false,
      "inputs": [
        {
          "name": "from",
          "type": "address"
        },
        {
          "name": "to",
          "type": "address"
        },
        {
          "name": "tokenId",
          "type": "uint256"
        },
        {
          "name": "_data",
          "type": "bytes"
        }
      ],
      "name": "safeTransferFrom",
      "outputs": [],
      "payable": false,
      "stateMutability": "nonpayable",
      "type": "function"
    },
    {
      "constant": true,
      "inputs": [
        {
          "name": "owner",
          "type": "address"
        },
        {
          "name": "operator",
          "type": "address"
        }
      ],
      "name": "isApprovedForAll",
      "outputs": [
        {
          "name": "",
          "type": "bool"
        }
      ],
      "payable": false,
      "stateMutability": "view",
      "type": "function"
    },
    {
      "anonymous": false,
      "inputs": [
        {
          "indexed": true,
          "name": "from",
          "type": "address"
        },
        {
          "indexed": true,
          "name": "to",
          "type": "address"
        },
        {
          "indexed": true,
          "name": "tokenId",
          "type": "uint256"
        }
      ],
      "name": "Transfer",
      "type": "event"
    },
    {
      "anonymous": false,
      "inputs": [
        {
          "indexed": true,
          "name": "owner",
          "type": "address"
        },
        {
          "indexed": true,
          "name": "approved",
          "type": "address"
        },
        {
          "indexed": true,
          "name": "tokenId",
          "type": "uint256"
        }
      ],
      "name": "Approval",
      "type": "event"
    },
    {
      "anonymous": false,
      "inputs": [
        {
          "indexed": true,
          "name": "owner",
          "type": "address"
        },
        {
          "indexed": true,
          "name": "operator",
          "type": "address"
        },
        {
          "indexed": false,
          "name": "approved",
          "type": "bool"
        }
      ],
      "name": "ApprovalForAll",
      "type": "event"
    },
    {
      "constant": false,
      "inputs": [],
      "name": "initialize",
      "outputs": [],
      "payable": false,
      "stateMutability": "nonpayable",
      "type": "function"
    },
    {
      "constant": true,
      "inputs": [
        {
          "name": "owner",
          "type": "address"
        },
        {
          "name": "index",
          "type": "uint256"
        }
      ],
      "name": "tokenOfOwnerByIndex",
      "outputs": [
        {
          "name": "",
          "type": "uint256"
        }
      ],
      "payable": false,
      "stateMutability": "view",
      "type": "function"
    },
    {
      "constant": true,
      "inputs": [],
      "name": "totalSupply",
      "outputs": [
        {
          "name": "",
          "type": "uint256"
        }
      ],
      "payable": false,
      "stateMutability": "view",
      "type": "function"
    },
    {
      "constant": true,
      "inputs": [
        {
          "name": "index",
          "type": "uint256"
        }
      ],
      "name": "tokenByIndex",
      "outputs": [
        {
          "name": "",
          "type": "uint256"
        }
      ],
      "payable": false,
      "stateMutability": "view",
      "type": "function"
    }
  ],
  "bytecode": "0x608060405234801561001057600080fd5b50611926806100206000396000f3006080604052600436106100d0576000357c0100000000000000000000000000000000000000000000000000000000900463ffffffff16806301ffc9a7146100d5578063081812fc14610139578063095ea7b3146101a657806318160ddd146101f357806323b872dd1461021e5780632f745c591461028b57806342842e0e146102ec5780634f6ccce7146103595780636352211e1461039a57806370a08231146104075780638129fc1c1461045e578063a22cb46514610475578063b88d4fde146104c4578063e985e9c514610577575b600080fd5b3480156100e157600080fd5b5061011f60048036038101908080357bffffffffffffffffffffffffffffffffffffffffffffffffffffffff191690602001909291905050506105f2565b604051808215151515815260200191505060405180910390f35b34801561014557600080fd5b506101646004803603810190808035906020019092919050505061065a565b604051808273ffffffffffffffffffffffffffffffffffffffff1673ffffffffffffffffffffffffffffffffffffffff16815260200191505060405180910390f35b3480156101b257600080fd5b506101f1600480360381019080803573ffffffffffffffffffffffffffffffffffffffff169060200190929190803590602001909291905050506106ab565b005b3480156101ff57600080fd5b506102086107f0565b6040518082815260200191505060405180910390f35b34801561022a57600080fd5b50610289600480360381019080803573ffffffffffffffffffffffffffffffffffffffff169060200190929190803573ffffffffffffffffffffffffffffffffffffffff169060200190929190803590602001909291905050506107fd565b005b34801561029757600080fd5b506102d6600480360381019080803573ffffffffffffffffffffffffffffffffffffffff169060200190929190803590602001909291905050506108cc565b6040518082815260200191505060405180910390f35b3480156102f857600080fd5b50610357600480360381019080803573ffffffffffffffffffffffffffffffffffffffff169060200190929190803573ffffffffffffffffffffffffffffffffffffffff16906020019092919080359060200190929190505050610943565b005b34801561036557600080fd5b5061038460048036038101908080359060200190929190505050610964565b6040518082815260200191505060405180910390f35b3480156103a657600080fd5b506103c56004803603810190808035906020019092919050505061099c565b604051808273ffffffffffffffffffffffffffffffffffffffff1673ffffffffffffffffffffffffffffffffffffffff16815260200191505060405180910390f35b34801561041357600080fd5b50610448600480360381019080803573ffffffffffffffffffffffffffffffffffffffff169060200190929190505050610a1a565b6040518082815260200191505060405180910390f35b34801561046a57600080fd5b50610473610a9e565b005b34801561048157600080fd5b506104c2600480360381019080803573ffffffffffffffffffffffffffffffffffffffff169060200190929190803515159060200190929190505050610c12565b005b3480156104d057600080fd5b50610575600480360381019080803573ffffffffffffffffffffffffffffffffffffffff169060200190929190803573ffffffffffffffffffffffffffffffffffffffff16906020019092919080359060200190929190803590602001908201803590602001908080601f0160208091040260200160405190810160405280939291908181526020018383808284378201915050505050509192919290505050610d4e565b005b34801561058357600080fd5b506105d8600480360381019080803573ffffffffffffffffffffffffffffffffffffffff169060200190929190803573ffffffffffffffffffffffffffffffffffffffff169060200190929190505050610d76565b604051808215151515815260200191505060405180910390f35b600060336000837bffffffffffffffffffffffffffffffffffffffffffffffffffffffff19167bffffffffffffffffffffffffffffffffffffffffffffffffffffffff1916815260200190815260200160002060009054906101000a900460ff169050919050565b600061066582610e0a565b151561067057600080fd5b6067600083815260200190815260200160002060009054906101000a900473ffffffffffffffffffffffffffffffffffffffff169050919050565b60006106b68261099c565b90508073ffffffffffffffffffffffffffffffffffffffff168373ffffffffffffffffffffffffffffffffffffffff16141515156106f357600080fd5b8073ffffffffffffffffffffffffffffffffffffffff163373ffffffffffffffffffffffffffffffffffffffff16148061073357506107328133610d76565b5b151561073e57600080fd5b826067600084815260200190815260200160002060006101000a81548173ffffffffffffffffffffffffffffffffffffffff021916908373ffffffffffffffffffffffffffffffffffffffff160217905550818373ffffffffffffffffffffffffffffffffffffffff168273ffffffffffffffffffffffffffffffffffffffff167f8c5be1e5ebec7d5bd14f71427d1e84f3dd0314c0f7b2291e5b200ac8c7c3b92560405160405180910390a4505050565b6000609e80549050905090565b6108073382610e7c565b151561081257600080fd5b600073ffffffffffffffffffffffffffffffffffffffff168273ffffffffffffffffffffffffffffffffffffffff161415151561084e57600080fd5b6108588382610f11565b6108628382611014565b61086c82826111d0565b808273ffffffffffffffffffffffffffffffffffffffff168473ffffffffffffffffffffffffffffffffffffffff167fddf252ad1be2c89b69c2b068fc378daa952ba7f163c4a11628f55a4df523b3ef60405160405180910390a4505050565b60006108d783610a1a565b821015156108e457600080fd5b609c60008473ffffffffffffffffffffffffffffffffffffffff1673ffffffffffffffffffffffffffffffffffffffff1681526020019081526020016000208281548110151561093057fe5b9060005260206000200154905092915050565b61095f8383836020604051908101604052806000815250610d4e565b505050565b600061096e6107f0565b8210151561097b57600080fd5b609e8281548110151561098a57fe5b90600052602060002001549050919050565b6000806066600084815260200190815260200160002060009054906101000a900473ffffffffffffffffffffffffffffffffffffffff169050600073ffffffffffffffffffffffffffffffffffffffff168173ffffffffffffffffffffffffffffffffffffffff1614151515610a1157600080fd5b80915050919050565b60008073ffffffffffffffffffffffffffffffffffffffff168273ffffffffffffffffffffffffffffffffffffffff1614151515610a5757600080fd5b606860008373ffffffffffffffffffffffffffffffffffffffff1673ffffffffffffffffffffffffffffffffffffffff168152602001908152602001600020549050919050565b60008060019054906101000a900460ff1680610abe5750610abd6112a7565b5b80610ad557506000809054906101000a900460ff16155b1515610b6f576040517f08c379a000000000000000000000000000000000000000000000000000000000815260040180806020018281038252602e8152602001807f436f6e747261637420696e7374616e63652068617320616c726561647920626581526020017f656e20696e697469616c697a656400000000000000000000000000000000000081525060400191505060405180910390fd5b600060019054906101000a900460ff1690506001600060016101000a81548160ff02191690831515021790555060016000806101000a81548160ff021916908315150217905550610bbe6112b8565b1515610bc957600080fd5b610bf563780e9d637c0100000000000000000000000000000000000000000000000000000000026112eb565b80600060016101000a81548160ff02191690831515021790555050565b3373ffffffffffffffffffffffffffffffffffffffff168273ffffffffffffffffffffffffffffffffffffffff1614151515610c4d57600080fd5b80606960003373ffffffffffffffffffffffffffffffffffffffff1673ffffffffffffffffffffffffffffffffffffffff16815260200190815260200160002060008473ffffffffffffffffffffffffffffffffffffffff1673ffffffffffffffffffffffffffffffffffffffff16815260200190815260200160002060006101000a81548160ff0219169083151502179055508173ffffffffffffffffffffffffffffffffffffffff163373ffffffffffffffffffffffffffffffffffffffff167f17307eab39ab6107e8899845ad3d59bd9653f200f220920489ca2b5937696c3183604051808215151515815260200191505060405180910390a35050565b610d598484846107fd565b610d65848484846113a9565b1515610d7057600080fd5b50505050565b6000606960008473ffffffffffffffffffffffffffffffffffffffff1673ffffffffffffffffffffffffffffffffffffffff16815260200190815260200160002060008373ffffffffffffffffffffffffffffffffffffffff1673ffffffffffffffffffffffffffffffffffffffff16815260200190815260200160002060009054906101000a900460ff16905092915050565b6000806066600084815260200190815260200160002060009054906101000a900473ffffffffffffffffffffffffffffffffffffffff169050600073ffffffffffffffffffffffffffffffffffffffff168173ffffffffffffffffffffffffffffffffffffffff161415915050919050565b600080610e888361099c565b90508073ffffffffffffffffffffffffffffffffffffffff168473ffffffffffffffffffffffffffffffffffffffff161480610ef757508373ffffffffffffffffffffffffffffffffffffffff16610edf8461065a565b73ffffffffffffffffffffffffffffffffffffffff16145b80610f085750610f078185610d76565b5b91505092915050565b8173ffffffffffffffffffffffffffffffffffffffff16610f318261099c565b73ffffffffffffffffffffffffffffffffffffffff16141515610f5357600080fd5b600073ffffffffffffffffffffffffffffffffffffffff166067600083815260200190815260200160002060009054906101000a900473ffffffffffffffffffffffffffffffffffffffff1673ffffffffffffffffffffffffffffffffffffffff161415156110105760006067600083815260200190815260200160002060006101000a81548173ffffffffffffffffffffffffffffffffffffffff021916908373ffffffffffffffffffffffffffffffffffffffff1602179055505b5050565b600080600061102385856115cb565b609d600085815260200190815260200160002054925061108f6001609c60008873ffffffffffffffffffffffffffffffffffffffff1673ffffffffffffffffffffffffffffffffffffffff168152602001908152602001600020805490506116fa90919063ffffffff16565b9150609c60008673ffffffffffffffffffffffffffffffffffffffff1673ffffffffffffffffffffffffffffffffffffffff168152602001908152602001600020828154811015156110dd57fe5b9060005260206000200154905080609c60008773ffffffffffffffffffffffffffffffffffffffff1673ffffffffffffffffffffffffffffffffffffffff1681526020019081526020016000208481548110151561113757fe5b9060005260206000200181905550609c60008673ffffffffffffffffffffffffffffffffffffffff1673ffffffffffffffffffffffffffffffffffffffff16815260200190815260200160002080548091906001900361119791906118a9565b506000609d60008681526020019081526020016000208190555082609d6000838152602001908152602001600020819055505050505050565b60006111dc838361171b565b609c60008473ffffffffffffffffffffffffffffffffffffffff1673ffffffffffffffffffffffffffffffffffffffff168152602001908152602001600020805490509050609c60008473ffffffffffffffffffffffffffffffffffffffff1673ffffffffffffffffffffffffffffffffffffffff16815260200190815260200160002082908060018154018082558091505090600182039060005260206000200160009091929091909150555080609d600084815260200190815260200160002081905550505050565b600080303b90506000811491505090565b60006112e66380ac58cd7c0100000000000000000000000000000000000000000000000000000000026105f2565b905090565b63ffffffff7c010000000000000000000000000000000000000000000000000000000002817bffffffffffffffffffffffffffffffffffffffffffffffffffffffff19161415151561133c57600080fd5b600160336000837bffffffffffffffffffffffffffffffffffffffffffffffffffffffff19167bffffffffffffffffffffffffffffffffffffffffffffffffffffffff1916815260200190815260200160002060006101000a81548160ff02191690831515021790555050565b6000806113cb8573ffffffffffffffffffffffffffffffffffffffff16611875565b15156113da57600191506115c2565b8473ffffffffffffffffffffffffffffffffffffffff1663150b7a02338887876040518563ffffffff167c0100000000000000000000000000000000000000000000000000000000028152600401808573ffffffffffffffffffffffffffffffffffffffff1673ffffffffffffffffffffffffffffffffffffffff1681526020018473ffffffffffffffffffffffffffffffffffffffff1673ffffffffffffffffffffffffffffffffffffffff16815260200183815260200180602001828103825283818151815260200191508051906020019080838360005b838110156114cf5780820151818401526020810190506114b4565b50505050905090810190601f1680156114fc5780820380516001836020036101000a031916815260200191505b5095505050505050602060405180830381600087803b15801561151e57600080fd5b505af1158015611532573d6000803e3d6000fd5b505050506040513d602081101561154857600080fd5b8101908080519060200190929190505050905063150b7a027c0100000000000000000000000000000000000000000000000000000000027bffffffffffffffffffffffffffffffffffffffffffffffffffffffff1916817bffffffffffffffffffffffffffffffffffffffffffffffffffffffff19161491505b50949350505050565b8173ffffffffffffffffffffffffffffffffffffffff166115eb8261099c565b73ffffffffffffffffffffffffffffffffffffffff1614151561160d57600080fd5b6116606001606860008573ffffffffffffffffffffffffffffffffffffffff1673ffffffffffffffffffffffffffffffffffffffff168152602001908152602001600020546116fa90919063ffffffff16565b606860008473ffffffffffffffffffffffffffffffffffffffff1673ffffffffffffffffffffffffffffffffffffffff1681526020019081526020016000208190555060006066600083815260200190815260200160002060006101000a81548173ffffffffffffffffffffffffffffffffffffffff021916908373ffffffffffffffffffffffffffffffffffffffff1602179055505050565b60008083831115151561170c57600080fd5b82840390508091505092915050565b600073ffffffffffffffffffffffffffffffffffffffff166066600083815260200190815260200160002060009054906101000a900473ffffffffffffffffffffffffffffffffffffffff1673ffffffffffffffffffffffffffffffffffffffff1614151561178957600080fd5b816066600083815260200190815260200160002060006101000a81548173ffffffffffffffffffffffffffffffffffffffff021916908373ffffffffffffffffffffffffffffffffffffffff16021790555061182e6001606860008573ffffffffffffffffffffffffffffffffffffffff1673ffffffffffffffffffffffffffffffffffffffff1681526020019081526020016000205461188890919063ffffffff16565b606860008473ffffffffffffffffffffffffffffffffffffffff1673ffffffffffffffffffffffffffffffffffffffff168152602001908152602001600020819055505050565b600080823b905060008111915050919050565b600080828401905083811015151561189f57600080fd5b8091505092915050565b8154818355818111156118d0578183600052602060002091820191016118cf91906118d5565b5b505050565b6118f791905b808211156118f35760008160009055506001016118db565b5090565b905600a165627a7a723058200738574fb8dbc88b927d6e0fde27afc3ce1b7f774acee4105804c17ac4728f030029",
  "source": "pragma solidity ^0.4.24;\n\nimport \"zos-lib/contracts/Initializable.sol\";\nimport \"./IERC721Enumerable.sol\";\nimport \"./ERC721.sol\";\nimport \"../../introspection/ERC165.sol\";\n\n\ncontract ERC721Enumerable is Initializable, ERC165, ERC721, IERC721Enumerable {\n  // Mapping from owner to list of owned token IDs\n  mapping(address => uint256[]) private _ownedTokens;\n\n  // Mapping from token ID to index of the owner tokens list\n  mapping(uint256 => uint256) private _ownedTokensIndex;\n\n  // Array with all token ids, used for enumeration\n  uint256[] private _allTokens;\n\n  // Mapping from token id to position in the allTokens array\n  mapping(uint256 => uint256) private _allTokensIndex;\n\n  bytes4 private constant _InterfaceId_ERC721Enumerable = 0x780e9d63;\n  /**\n   * 0x780e9d63 ===\n   *   bytes4(keccak256('totalSupply()')) ^\n   *   bytes4(keccak256('tokenOfOwnerByIndex(address,uint256)')) ^\n   *   bytes4(keccak256('tokenByIndex(uint256)'))\n   */\n\n  /**\n   * @dev Constructor function\n   */\n  function initialize() public initializer {\n    require(ERC721._hasBeenInitialized());\n\n    // register the supported interface to conform to ERC721 via ERC165\n    _registerInterface(_InterfaceId_ERC721Enumerable);\n  }\n\n  function _hasBeenInitialized() internal view returns (bool) {\n    return supportsInterface(_InterfaceId_ERC721Enumerable);\n  }\n\n  /**\n   * @dev Gets the token ID at a given index of the tokens list of the requested owner\n   * @param owner address owning the tokens list to be accessed\n   * @param index uint256 representing the index to be accessed of the requested tokens list\n   * @return uint256 token ID at the given index of the tokens list owned by the requested address\n   */\n  function tokenOfOwnerByIndex(\n    address owner,\n    uint256 index\n  )\n    public\n    view\n    returns (uint256)\n  {\n    require(index < balanceOf(owner));\n    return _ownedTokens[owner][index];\n  }\n\n  /**\n   * @dev Gets the total amount of tokens stored by the contract\n   * @return uint256 representing the total amount of tokens\n   */\n  function totalSupply() public view returns (uint256) {\n    return _allTokens.length;\n  }\n\n  /**\n   * @dev Gets the token ID at a given index of all the tokens in this contract\n   * Reverts if the index is greater or equal to the total number of tokens\n   * @param index uint256 representing the index to be accessed of the tokens list\n   * @return uint256 token ID at the given index of the tokens list\n   */\n  function tokenByIndex(uint256 index) public view returns (uint256) {\n    require(index < totalSupply());\n    return _allTokens[index];\n  }\n\n  /**\n   * @dev Internal function to add a token ID to the list of a given address\n   * @param to address representing the new owner of the given token ID\n   * @param tokenId uint256 ID of the token to be added to the tokens list of the given address\n   */\n  function _addTokenTo(address to, uint256 tokenId) internal {\n    super._addTokenTo(to, tokenId);\n    uint256 length = _ownedTokens[to].length;\n    _ownedTokens[to].push(tokenId);\n    _ownedTokensIndex[tokenId] = length;\n  }\n\n  /**\n   * @dev Internal function to remove a token ID from the list of a given address\n   * @param from address representing the previous owner of the given token ID\n   * @param tokenId uint256 ID of the token to be removed from the tokens list of the given address\n   */\n  function _removeTokenFrom(address from, uint256 tokenId) internal {\n    super._removeTokenFrom(from, tokenId);\n\n    // To prevent a gap in the array, we store the last token in the index of the token to delete, and\n    // then delete the last slot.\n    uint256 tokenIndex = _ownedTokensIndex[tokenId];\n    uint256 lastTokenIndex = _ownedTokens[from].length.sub(1);\n    uint256 lastToken = _ownedTokens[from][lastTokenIndex];\n\n    _ownedTokens[from][tokenIndex] = lastToken;\n    // This also deletes the contents at the last position of the array\n    _ownedTokens[from].length--;\n\n    // Note that this will handle single-element arrays. In that case, both tokenIndex and lastTokenIndex are going to\n    // be zero. Then we can make sure that we will remove tokenId from the ownedTokens list since we are first swapping\n    // the lastToken to the first position, and then dropping the element placed in the last position of the list\n\n    _ownedTokensIndex[tokenId] = 0;\n    _ownedTokensIndex[lastToken] = tokenIndex;\n  }\n\n  /**\n   * @dev Internal function to mint a new token\n   * Reverts if the given token ID already exists\n   * @param to address the beneficiary that will own the minted token\n   * @param tokenId uint256 ID of the token to be minted by the msg.sender\n   */\n  function _mint(address to, uint256 tokenId) internal {\n    super._mint(to, tokenId);\n\n    _allTokensIndex[tokenId] = _allTokens.length;\n    _allTokens.push(tokenId);\n  }\n\n  /**\n   * @dev Internal function to burn a specific token\n   * Reverts if the token does not exist\n   * @param owner owner of the token to burn\n   * @param tokenId uint256 ID of the token being burned by the msg.sender\n   */\n  function _burn(address owner, uint256 tokenId) internal {\n    super._burn(owner, tokenId);\n\n    // Reorg all tokens array\n    uint256 tokenIndex = _allTokensIndex[tokenId];\n    uint256 lastTokenIndex = _allTokens.length.sub(1);\n    uint256 lastToken = _allTokens[lastTokenIndex];\n\n    _allTokens[tokenIndex] = lastToken;\n    _allTokens[lastTokenIndex] = 0;\n\n    _allTokens.length--;\n    _allTokensIndex[tokenId] = 0;\n    _allTokensIndex[lastToken] = tokenIndex;\n  }\n\n  uint256[50] private ______gap;\n}\n",
  "sourcePath": "/Users/jretina/Programming/PROPSProject/props-token-distribution/contracts/token/openzeppelin-eth/contracts/token/ERC721/ERC721Enumerable.sol",
  "compiler": {
    "name": "solc",
    "version": "0.4.24+commit.e67f0147.Emscripten.clang"
  },
  "schemaVersion": "2.0.1",
  "updatedAt": "2019-03-11T10:19:23.030Z"
}