{
  "contractName": "ERC865Token",
  "abi": [
    {
      "constant": false,
      "inputs": [
        {
          "name": "spender",
          "type": "address"
        },
        {
          "name": "value",
          "type": "uint256"
        }
      ],
      "name": "approve",
      "outputs": [
        {
          "name": "",
          "type": "bool"
        }
      ],
      "payable": false,
      "stateMutability": "nonpayable",
      "type": "function"
    },
    {
      "constant": true,
      "inputs": [],
      "name": "totalSupply",
      "outputs": [
        {
          "name": "",
          "type": "uint256"
        }
      ],
      "payable": false,
      "stateMutability": "view",
      "type": "function"
    },
    {
      "constant": false,
      "inputs": [
        {
          "name": "from",
          "type": "address"
        },
        {
          "name": "to",
          "type": "address"
        },
        {
          "name": "value",
          "type": "uint256"
        }
      ],
      "name": "transferFrom",
      "outputs": [
        {
          "name": "",
          "type": "bool"
        }
      ],
      "payable": false,
      "stateMutability": "nonpayable",
      "type": "function"
    },
    {
      "constant": false,
      "inputs": [
        {
          "name": "spender",
          "type": "address"
        },
        {
          "name": "addedValue",
          "type": "uint256"
        }
      ],
      "name": "increaseAllowance",
      "outputs": [
        {
          "name": "",
          "type": "bool"
        }
      ],
      "payable": false,
      "stateMutability": "nonpayable",
      "type": "function"
    },
    {
      "constant": true,
      "inputs": [
        {
          "name": "owner",
          "type": "address"
        }
      ],
      "name": "balanceOf",
      "outputs": [
        {
          "name": "",
          "type": "uint256"
        }
      ],
      "payable": false,
      "stateMutability": "view",
      "type": "function"
    },
    {
      "constant": false,
      "inputs": [
        {
          "name": "spender",
          "type": "address"
        },
        {
          "name": "subtractedValue",
          "type": "uint256"
        }
      ],
      "name": "decreaseAllowance",
      "outputs": [
        {
          "name": "",
          "type": "bool"
        }
      ],
      "payable": false,
      "stateMutability": "nonpayable",
      "type": "function"
    },
    {
      "constant": false,
      "inputs": [
        {
          "name": "to",
          "type": "address"
        },
        {
          "name": "value",
          "type": "uint256"
        }
      ],
      "name": "transfer",
      "outputs": [
        {
          "name": "",
          "type": "bool"
        }
      ],
      "payable": false,
      "stateMutability": "nonpayable",
      "type": "function"
    },
    {
      "constant": true,
      "inputs": [
        {
          "name": "owner",
          "type": "address"
        },
        {
          "name": "spender",
          "type": "address"
        }
      ],
      "name": "allowance",
      "outputs": [
        {
          "name": "",
          "type": "uint256"
        }
      ],
      "payable": false,
      "stateMutability": "view",
      "type": "function"
    },
    {
      "anonymous": false,
      "inputs": [
        {
          "indexed": true,
          "name": "from",
          "type": "address"
        },
        {
          "indexed": true,
          "name": "to",
          "type": "address"
        },
        {
          "indexed": true,
          "name": "delegate",
          "type": "address"
        },
        {
          "indexed": false,
          "name": "amount",
          "type": "uint256"
        },
        {
          "indexed": false,
          "name": "fee",
          "type": "uint256"
        }
      ],
      "name": "TransferPreSigned",
      "type": "event"
    },
    {
      "anonymous": false,
      "inputs": [
        {
          "indexed": true,
          "name": "from",
          "type": "address"
        },
        {
          "indexed": true,
          "name": "to",
          "type": "address"
        },
        {
          "indexed": true,
          "name": "delegate",
          "type": "address"
        },
        {
          "indexed": false,
          "name": "amount",
          "type": "uint256"
        },
        {
          "indexed": false,
          "name": "fee",
          "type": "uint256"
        }
      ],
      "name": "ApprovalPreSigned",
      "type": "event"
    },
    {
      "anonymous": false,
      "inputs": [
        {
          "indexed": true,
          "name": "from",
          "type": "address"
        },
        {
          "indexed": true,
          "name": "to",
          "type": "address"
        },
        {
          "indexed": false,
          "name": "value",
          "type": "uint256"
        }
      ],
      "name": "Transfer",
      "type": "event"
    },
    {
      "anonymous": false,
      "inputs": [
        {
          "indexed": true,
          "name": "owner",
          "type": "address"
        },
        {
          "indexed": true,
          "name": "spender",
          "type": "address"
        },
        {
          "indexed": false,
          "name": "value",
          "type": "uint256"
        }
      ],
      "name": "Approval",
      "type": "event"
    },
    {
      "constant": false,
      "inputs": [
        {
          "name": "_signature",
          "type": "bytes"
        },
        {
          "name": "_to",
          "type": "address"
        },
        {
          "name": "_value",
          "type": "uint256"
        },
        {
          "name": "_fee",
          "type": "uint256"
        },
        {
          "name": "_nonce",
          "type": "uint256"
        }
      ],
      "name": "transferPreSigned",
      "outputs": [
        {
          "name": "",
          "type": "bool"
        }
      ],
      "payable": false,
      "stateMutability": "nonpayable",
      "type": "function"
    },
    {
      "constant": false,
      "inputs": [
        {
          "name": "_signature",
          "type": "bytes"
        },
        {
          "name": "_spender",
          "type": "address"
        },
        {
          "name": "_value",
          "type": "uint256"
        },
        {
          "name": "_fee",
          "type": "uint256"
        },
        {
          "name": "_nonce",
          "type": "uint256"
        }
      ],
      "name": "approvePreSigned",
      "outputs": [
        {
          "name": "",
          "type": "bool"
        }
      ],
      "payable": false,
      "stateMutability": "nonpayable",
      "type": "function"
    },
    {
      "constant": false,
      "inputs": [
        {
          "name": "_signature",
          "type": "bytes"
        },
        {
          "name": "_spender",
          "type": "address"
        },
        {
          "name": "_addedValue",
          "type": "uint256"
        },
        {
          "name": "_fee",
          "type": "uint256"
        },
        {
          "name": "_nonce",
          "type": "uint256"
        }
      ],
      "name": "increaseApprovalPreSigned",
      "outputs": [
        {
          "name": "",
          "type": "bool"
        }
      ],
      "payable": false,
      "stateMutability": "nonpayable",
      "type": "function"
    },
    {
      "constant": false,
      "inputs": [
        {
          "name": "_signature",
          "type": "bytes"
        },
        {
          "name": "_spender",
          "type": "address"
        },
        {
          "name": "_subtractedValue",
          "type": "uint256"
        },
        {
          "name": "_fee",
          "type": "uint256"
        },
        {
          "name": "_nonce",
          "type": "uint256"
        }
      ],
      "name": "decreaseApprovalPreSigned",
      "outputs": [
        {
          "name": "",
          "type": "bool"
        }
      ],
      "payable": false,
      "stateMutability": "nonpayable",
      "type": "function"
    },
    {
      "constant": false,
      "inputs": [
        {
          "name": "_signature",
          "type": "bytes"
        },
        {
          "name": "_from",
          "type": "address"
        },
        {
          "name": "_to",
          "type": "address"
        },
        {
          "name": "_value",
          "type": "uint256"
        },
        {
          "name": "_fee",
          "type": "uint256"
        },
        {
          "name": "_nonce",
          "type": "uint256"
        }
      ],
      "name": "transferFromPreSigned",
      "outputs": [
        {
          "name": "",
          "type": "bool"
        }
      ],
      "payable": false,
      "stateMutability": "nonpayable",
      "type": "function"
    },
    {
      "constant": true,
      "inputs": [
        {
          "name": "_token",
          "type": "address"
        },
        {
          "name": "_to",
          "type": "address"
        },
        {
          "name": "_value",
          "type": "uint256"
        },
        {
          "name": "_fee",
          "type": "uint256"
        },
        {
          "name": "_nonce",
          "type": "uint256"
        }
      ],
      "name": "transferPreSignedHashing",
      "outputs": [
        {
          "name": "",
          "type": "bytes32"
        }
      ],
      "payable": false,
      "stateMutability": "pure",
      "type": "function"
    },
    {
      "constant": true,
      "inputs": [
        {
          "name": "_token",
          "type": "address"
        },
        {
          "name": "_spender",
          "type": "address"
        },
        {
          "name": "_value",
          "type": "uint256"
        },
        {
          "name": "_fee",
          "type": "uint256"
        },
        {
          "name": "_nonce",
          "type": "uint256"
        }
      ],
      "name": "approvePreSignedHashing",
      "outputs": [
        {
          "name": "",
          "type": "bytes32"
        }
      ],
      "payable": false,
      "stateMutability": "pure",
      "type": "function"
    },
    {
      "constant": true,
      "inputs": [
        {
          "name": "_token",
          "type": "address"
        },
        {
          "name": "_spender",
          "type": "address"
        },
        {
          "name": "_addedValue",
          "type": "uint256"
        },
        {
          "name": "_fee",
          "type": "uint256"
        },
        {
          "name": "_nonce",
          "type": "uint256"
        }
      ],
      "name": "increaseApprovalPreSignedHashing",
      "outputs": [
        {
          "name": "",
          "type": "bytes32"
        }
      ],
      "payable": false,
      "stateMutability": "pure",
      "type": "function"
    },
    {
      "constant": true,
      "inputs": [
        {
          "name": "_token",
          "type": "address"
        },
        {
          "name": "_spender",
          "type": "address"
        },
        {
          "name": "_subtractedValue",
          "type": "uint256"
        },
        {
          "name": "_fee",
          "type": "uint256"
        },
        {
          "name": "_nonce",
          "type": "uint256"
        }
      ],
      "name": "decreaseApprovalPreSignedHashing",
      "outputs": [
        {
          "name": "",
          "type": "bytes32"
        }
      ],
      "payable": false,
      "stateMutability": "pure",
      "type": "function"
    },
    {
      "constant": true,
      "inputs": [
        {
          "name": "_token",
          "type": "address"
        },
        {
          "name": "_from",
          "type": "address"
        },
        {
          "name": "_to",
          "type": "address"
        },
        {
          "name": "_value",
          "type": "uint256"
        },
        {
          "name": "_fee",
          "type": "uint256"
        },
        {
          "name": "_nonce",
          "type": "uint256"
        }
      ],
      "name": "transferFromPreSignedHashing",
      "outputs": [
        {
          "name": "",
          "type": "bytes32"
        }
      ],
      "payable": false,
      "stateMutability": "pure",
      "type": "function"
    },
    {
      "constant": true,
      "inputs": [
        {
          "name": "hash",
          "type": "bytes32"
        },
        {
          "name": "sig",
          "type": "bytes"
        }
      ],
      "name": "recover",
      "outputs": [
        {
          "name": "",
          "type": "address"
        }
      ],
      "payable": false,
      "stateMutability": "pure",
      "type": "function"
    }
  ],
  "bytecode": "0x608060405234801561001057600080fd5b506115a1806100206000396000f3006080604052600436106101065763ffffffff7c0100000000000000000000000000000000000000000000000000000000600035041663095ea7b3811461010b5780631296830d1461014357806315420b71146101b657806318160ddd146101f857806319045a251461020d57806323b872dd1461028757806339509351146102b157806359388d78146102d5578063617b390b1461030557806370a08231146103785780638be5278314610399578063a457c2d71461040c578063a45f71ff14610430578063a9059cbb14610460578063adb8249e14610484578063b7656dc5146104f7578063bca505151461052d578063dd62ed3e146105aa578063f7ac9c2e146105d1575b600080fd5b34801561011757600080fd5b5061012f600160a060020a0360043516602435610601565b604080519115158252519081900360200190f35b34801561014f57600080fd5b506040805160206004803580820135601f810184900484028501840190955284845261012f94369492936024939284019190819084018382808284375094975050508335600160a060020a0316945050506020820135916040810135915060600135610617565b3480156101c257600080fd5b506101e6600160a060020a03600435811690602435166044356064356084356107a6565b60408051918252519081900360200190f35b34801561020457600080fd5b506101e661088a565b34801561021957600080fd5b5060408051602060046024803582810135601f810185900485028601850190965285855261026b9583359536956044949193909101919081908401838280828437509497506108909650505050505050565b60408051600160a060020a039092168252519081900360200190f35b34801561029357600080fd5b5061012f600160a060020a0360043581169060243516604435610955565b3480156102bd57600080fd5b5061012f600160a060020a03600435166024356109ac565b3480156102e157600080fd5b506101e6600160a060020a03600435811690602435166044356064356084356109e8565b34801561031157600080fd5b506040805160206004803580820135601f810184900484028501840190955284845261012f94369492936024939284019190819084018382808284375094975050508335600160a060020a0316945050506020820135916040810135915060600135610a95565b34801561038457600080fd5b506101e6600160a060020a0360043516610c24565b3480156103a557600080fd5b506040805160206004803580820135601f810184900484028501840190955284845261012f94369492936024939284019190819084018382808284375094975050508335600160a060020a0316945050506020820135916040810135915060600135610c3f565b34801561041857600080fd5b5061012f600160a060020a0360043516602435610e0c565b34801561043c57600080fd5b506101e6600160a060020a0360043581169060243516604435606435608435610e48565b34801561046c57600080fd5b5061012f600160a060020a0360043516602435610ef5565b34801561049057600080fd5b506040805160206004803580820135601f810184900484028501840190955284845261012f94369492936024939284019190819084018382808284375094975050508335600160a060020a0316945050506020820135916040810135915060600135610f02565b34801561050357600080fd5b506101e6600160a060020a036004358116906024358116906044351660643560843560a4356110a8565b34801561053957600080fd5b506040805160206004803580820135601f810184900484028501840190955284845261012f94369492936024939284019190819084018382808284375094975050600160a060020a038535811696506020860135169460408101359450606081013593506080013591506111979050565b3480156105b657600080fd5b506101e6600160a060020a03600435811690602435166112ed565b3480156105dd57600080fd5b506101e6600160a060020a0360043581169060243516604435606435608435611318565b600061060e3384846113c5565b50600192915050565b6000808080600160a060020a038816151561063157600080fd5b61063e30898989896107a6565b925061064a838a610890565b9150600160a060020a038216151561066157600080fd5b604080516c01000000000000000000000000600160a060020a03851602602080830191909152603480830187905283518084039091018152605490920192839052815191929182918401908083835b602083106106cf5780518252601f1990920191602091820191016106b0565b51815160209384036101000a6000190180199092169116179052604080519290940182900390912060008181526068909252929020549194505060ff1615915061071a905057600080fd5b610725828989611451565b610730823388611451565b600081815260686020908152604091829020805460ff19166001179055815189815290810188905281513392600160a060020a038c811693908716927fec5a73fd1f178be20c1bca1b406cbf4b5c20d833b66e582fc122fb4baa0fc2a4929181900390910190a450600198975050505050505050565b604080517f48664c16000000000000000000000000000000000000000000000000000000006020808301919091526c01000000000000000000000000600160a060020a03808a16820260248501528816026038830152604c8201869052606c8201859052608c8083018590528351808403909101815260ac909201928390528151600093918291908401908083835b602083106108545780518252601f199092019160209182019101610835565b5181516020939093036101000a600019018019909116921691909117905260405192018290039091209998505050505050505050565b60355490565b600080600080845160411415156108aa576000935061094c565b50505060208201516040830151606084015160001a601b60ff8216148015906108d757508060ff16601c14155b156108e5576000935061094c565b60408051600080825260208083018085528a905260ff8516838501526060830187905260808301869052925160019360a0808501949193601f19840193928390039091019190865af115801561093f573d6000803e3d6000fd5b5050506020604051035193505b50505092915050565b6000610962848484611451565b600160a060020a0384166000908152603460209081526040808320338085529252909120546109a291869161099d908663ffffffff61154516565b6113c5565b5060019392505050565b336000818152603460209081526040808320600160a060020a0387168452909152812054909161060e91859061099d908663ffffffff61155c16565b604080517f59388d78000000000000000000000000000000000000000000000000000000006020808301919091526c01000000000000000000000000600160a060020a03808a16820260248501528816026038830152604c8201869052606c8201859052608c8083018590528351808403909101815260ac90920192839052815160009391829190840190808383602083106108545780518252601f199092019160209182019101610835565b6000808080600160a060020a0388161515610aaf57600080fd5b610abc3089898989611318565b9250610ac8838a610890565b9150600160a060020a0382161515610adf57600080fd5b604080516c01000000000000000000000000600160a060020a03851602602080830191909152603480830187905283518084039091018152605490920192839052815191929182918401908083835b60208310610b4d5780518252601f199092019160209182019101610b2e565b51815160209384036101000a6000190180199092169116179052604080519290940182900390912060008181526068909252929020549194505060ff16159150610b98905057600080fd5b610ba38289896113c5565b610bae823388611451565b600081815260686020908152604091829020805460ff19166001179055815189815290810188905281513392600160a060020a038c811693908716927f43a220267705e74ee2ceafd46afc841850db6f85a662189a7def697bbdd90ffb929181900390910190a450600198975050505050505050565b600160a060020a031660009081526033602052604090205490565b600080808080600160a060020a0389161515610c5a57600080fd5b610c67308a8a8a8a6109e8565b9350610c73848b610890565b9250600160a060020a0383161515610c8a57600080fd5b604080516c01000000000000000000000000600160a060020a03861602602080830191909152603480830188905283518084039091018152605490920192839052815191929182918401908083835b60208310610cf85780518252601f199092019160209182019101610cd9565b51815160209384036101000a6000190180199092169116179052604080519290940182900390912060008181526068909252929020549195505060ff16159150610d43905057600080fd5b610d4d838a6112ed565b905080881115610d6857610d63838a60006113c5565b610d87565b610d87838a61099d8b610d7b888f6112ed565b9063ffffffff61154516565b610d92833389611451565b6000828152606860205260409020805460ff1916600117905533600160a060020a038a81169085167f43a220267705e74ee2ceafd46afc841850db6f85a662189a7def697bbdd90ffb610de5878e6112ed565b60408051918252602082018d90528051918290030190a45060019998505050505050505050565b336000818152603460209081526040808320600160a060020a0387168452909152812054909161060e91859061099d908663ffffffff61154516565b604080517fa45f71ff000000000000000000000000000000000000000000000000000000006020808301919091526c01000000000000000000000000600160a060020a03808a16820260248501528816026038830152604c8201869052606c8201859052608c8083018590528351808403909101815260ac90920192839052815160009391829190840190808383602083106108545780518252601f199092019160209182019101610835565b600061060e338484611451565b6000808080600160a060020a0388161515610f1c57600080fd5b610f293089898989610e48565b9250610f35838a610890565b9150600160a060020a0382161515610f4c57600080fd5b604080516c01000000000000000000000000600160a060020a03851602602080830191909152603480830187905283518084039091018152605490920192839052815191929182918401908083835b60208310610fba5780518252601f199092019160209182019101610f9b565b51815160209384036101000a6000190180199092169116179052604080519290940182900390912060008181526068909252929020549194505060ff16159150611005905057600080fd5b611024828961099d8a611018878e6112ed565b9063ffffffff61155c16565b61102f823388611451565b6000818152606860205260409020805460ff1916600117905533600160a060020a038981169084167f43a220267705e74ee2ceafd46afc841850db6f85a662189a7def697bbdd90ffb611082868d6112ed565b60408051918252602082018c90528051918290030190a450600198975050505050505050565b604080517fb7656dc5000000000000000000000000000000000000000000000000000000006020808301919091526c01000000000000000000000000600160a060020a03808b1682026024850152808a1682026038850152881602604c830152606082018690526080820185905260a08083018590528351808403909101815260c0909201928390528151600093918291908401908083835b602083106111605780518252601f199092019160209182019101611141565b5181516020939093036101000a600019018019909116921691909117905260405192018290039091209a9950505050505050505050565b6000808080600160a060020a03881615156111b157600080fd5b6111bf308a8a8a8a8a6110a8565b92506111cb838b610890565b9150600160a060020a03821615156111e257600080fd5b604080516c01000000000000000000000000600160a060020a03851602602080830191909152603480830187905283518084039091018152605490920192839052815191929182918401908083835b602083106112505780518252601f199092019160209182019101611231565b51815160209384036101000a6000190180199092169116179052604080519290940182900390912060008181526068909252929020549194505060ff1615915061129b905057600080fd5b6112a6898989611451565b6112b9898361099d8a610d7b8e886112ed565b6112c4823388611451565b6000908152606860205260409020805460ff191660019081179091559998505050505050505050565b600160a060020a03918216600090815260346020908152604080832093909416825291909152205490565b604080517ff7ac9c2e000000000000000000000000000000000000000000000000000000006020808301919091526c01000000000000000000000000600160a060020a03808a16820260248501528816026038830152604c8201869052606c8201859052608c8083018590528351808403909101815260ac90920192839052815160009391829190840190808383602083106108545780518252601f199092019160209182019101610835565b600160a060020a03821615156113da57600080fd5b600160a060020a03831615156113ef57600080fd5b600160a060020a03808416600081815260346020908152604080832094871680845294825291829020859055815185815291517f8c5be1e5ebec7d5bd14f71427d1e84f3dd0314c0f7b2291e5b200ac8c7c3b9259281900390910190a3505050565b600160a060020a03831660009081526033602052604090205481111561147657600080fd5b600160a060020a038216151561148b57600080fd5b600160a060020a0383166000908152603360205260409020546114b4908263ffffffff61154516565b600160a060020a0380851660009081526033602052604080822093909355908416815220546114e9908263ffffffff61155c16565b600160a060020a0380841660008181526033602090815260409182902094909455805185815290519193928716927fddf252ad1be2c89b69c2b068fc378daa952ba7f163c4a11628f55a4df523b3ef92918290030190a3505050565b6000808383111561155557600080fd5b5050900390565b60008282018381101561156e57600080fd5b93925050505600a165627a7a72305820f58a4bc4b8b08414b32dde5f5c3365e5fd681b883e9216480db95806ad2fc5520029",
  "source": "pragma solidity ^0.4.24;\n\n// import \"zeppelin-solidity/contracts/token/ERC20/StandardToken.sol\";\n// import \"openzeppelin-eth/contracts/token/ERC20/ERC20.sol\";\nimport \"./ERC865.sol\";\n\n/**\n * @title ERC865Token Token\n *\n * ERC865Token allows users paying transfers in tokens instead of gas\n * https://github.com/ethereum/EIPs/issues/865\n *\n */\n\ncontract ERC865Token is ERC865 {\n\n    /* hashed tx of transfers performed */\n    mapping(bytes32 => bool) hashedTxs;\n\n    event TransferPreSigned(address indexed from, address indexed to, address indexed delegate, uint256 amount, uint256 fee);\n    event ApprovalPreSigned(address indexed from, address indexed to, address indexed delegate, uint256 amount, uint256 fee);\n    /**\n     * @notice Submit a presigned transfer\n     * @param _signature bytes The signature, issued by the owner.\n     * @param _to address The address which you want to transfer to.\n     * @param _value uint256 The amount of tokens to be transferred.\n     * @param _fee uint256 The amount of tokens paid to msg.sender, by the owner.\n     * @param _nonce uint256 Presigned transaction number.\n     */\n    function transferPreSigned(\n        bytes _signature,\n        address _to,\n        uint256 _value,\n        uint256 _fee,\n        uint256 _nonce\n    )\n        public\n        returns (bool)\n    {        \n        require(_to != address(0));        \n\n        bytes32 hashedParams = transferPreSignedHashing(address(this), _to, _value, _fee, _nonce);\n        address from = recover(hashedParams, _signature);     \n        require(from != address(0));\n        bytes32 hashedTx = keccak256(abi.encodePacked(from, hashedParams));\n        require(hashedTxs[hashedTx] == false);\n        _transfer(from, _to, _value);\n        _transfer(from, msg.sender, _fee);\n        // _balances[from] = _balances[from].sub(_value).sub(_fee);\n        // _balances[_to] = _balances[_to].add(_value);\n        // _balances[msg.sender] = _balances[msg.sender].add(_fee);\n        hashedTxs[hashedTx] = true;\n\n        // Transfer(from, _to, _value);\n        // Transfer(from, msg.sender, _fee);\n        emit TransferPreSigned(from, _to, msg.sender, _value, _fee);\n        return true;\n    }\n\n    /**\n     * @notice Submit a presigned approval\n     * @param _signature bytes The signature, issued by the owner.\n     * @param _spender address The address which will spend the funds.\n     * @param _value uint256 The amount of tokens to allow.\n     * @param _fee uint256 The amount of tokens paid to msg.sender, by the owner.\n     * @param _nonce uint256 Presigned transaction number.\n     */\n    function approvePreSigned(\n        bytes _signature,\n        address _spender,\n        uint256 _value,\n        uint256 _fee,\n        uint256 _nonce\n    )\n        public\n        returns (bool)\n    {\n        require(_spender != address(0));        \n\n        bytes32 hashedParams = approvePreSignedHashing(address(this), _spender, _value, _fee, _nonce);\n        address from = recover(hashedParams, _signature);\n        require(from != address(0));\n        bytes32 hashedTx = keccak256(abi.encodePacked(from, hashedParams));\n        require(hashedTxs[hashedTx] == false);\n        _approve(from, _spender, _value);\n        // _allowed[from][_spender] = _value;\n        _transfer(from, msg.sender, _fee);\n        // _balances[from] = _balances[from].sub(_fee);\n        // _balances[msg.sender] = _balances[msg.sender].add(_fee);\n        hashedTxs[hashedTx] = true;\n\n        // Approval(from, _spender, _value);\n        // Transfer(from, msg.sender, _fee);\n        emit ApprovalPreSigned(from, _spender, msg.sender, _value, _fee);\n        return true;\n    }\n\n    /**\n     * @notice Increase the amount of tokens that an owner allowed to a spender.\n     * @param _signature bytes The signature, issued by the owner.\n     * @param _spender address The address which will spend the funds.\n     * @param _addedValue uint256 The amount of tokens to increase the allowance by.\n     * @param _fee uint256 The amount of tokens paid to msg.sender, by the owner.\n     * @param _nonce uint256 Presigned transaction number.\n     */\n    function increaseApprovalPreSigned(\n        bytes _signature,\n        address _spender,\n        uint256 _addedValue,\n        uint256 _fee,\n        uint256 _nonce\n    )\n        public\n        returns (bool)\n    {\n        require(_spender != address(0));        \n\n        bytes32 hashedParams = increaseApprovalPreSignedHashing(address(this), _spender, _addedValue, _fee, _nonce);\n        address from = recover(hashedParams, _signature);\n        require(from != address(0));\n        bytes32 hashedTx = keccak256(abi.encodePacked(from, hashedParams));\n        require(hashedTxs[hashedTx] == false);\n        _approve(from, _spender, allowance(from, _spender).add(_addedValue));\n        // _allowed[from][_spender] = _allowed[from][_spender].add(_addedValue);\n        _transfer(from, msg.sender, _fee);\n        // _balances[from] = _balances[from].sub(_fee);\n        // _balances[msg.sender] = _balances[msg.sender].add(_fee);\n        hashedTxs[hashedTx] = true;\n\n        // Approval(from, _spender, _allowed[from][_spender]);\n        // Transfer(from, msg.sender, _fee);\n        emit ApprovalPreSigned(from, _spender, msg.sender, allowance(from, _spender), _fee);\n        return true;\n    }\n\n    /**\n     * @notice Decrease the amount of tokens that an owner allowed to a spender.\n     * @param _signature bytes The signature, issued by the owner\n     * @param _spender address The address which will spend the funds.\n     * @param _subtractedValue uint256 The amount of tokens to decrease the allowance by.\n     * @param _fee uint256 The amount of tokens paid to msg.sender, by the owner.\n     * @param _nonce uint256 Presigned transaction number.\n     */\n    function decreaseApprovalPreSigned(\n        bytes _signature,\n        address _spender,\n        uint256 _subtractedValue,\n        uint256 _fee,\n        uint256 _nonce\n    )\n        public\n        returns (bool)\n    {\n        require(_spender != address(0));        \n\n        bytes32 hashedParams = decreaseApprovalPreSignedHashing(address(this), _spender, _subtractedValue, _fee, _nonce);\n        address from = recover(hashedParams, _signature);\n        require(from != address(0));\n        bytes32 hashedTx = keccak256(abi.encodePacked(from, hashedParams));\n        require(hashedTxs[hashedTx] == false);\n        uint oldValue = allowance(from, _spender);\n        if (_subtractedValue > oldValue) {\n            _approve(from, _spender, 0);\n            // _allowed[from][_spender] = 0;\n        } else {\n            _approve(from, _spender, allowance(from,_spender).sub(_subtractedValue));\n            // _allowed[from][_spender] = oldValue.sub(_subtractedValue);\n        }\n        _transfer(from, msg.sender, _fee);\n        // _balances[from] = _balances[from].sub(_fee);\n        // _balances[msg.sender] = _balances[msg.sender].add(_fee);\n        hashedTxs[hashedTx] = true;\n\n        // Approval(from, _spender, _subtractedValue);\n        // Transfer(from, msg.sender, _fee);\n        emit ApprovalPreSigned(from, _spender, msg.sender, allowance(from, _spender), _fee);\n        return true;\n    }\n\n    /**\n     * @notice Transfer tokens from one address to another\n     * @param _signature bytes The signature, issued by the spender.\n     * @param _from address The address which you want to send tokens from.\n     * @param _to address The address which you want to transfer to.\n     * @param _value uint256 The amount of tokens to be transferred.\n     * @param _fee uint256 The amount of tokens paid to msg.sender, by the spender.\n     * @param _nonce uint256 Presigned transaction number.\n     */\n    function transferFromPreSigned(\n        bytes _signature,\n        address _from,\n        address _to,\n        uint256 _value,\n        uint256 _fee,\n        uint256 _nonce\n    )\n        public\n        returns (bool)\n    {\n        require(_to != address(0));        \n\n        bytes32 hashedParams = transferFromPreSignedHashing(address(this), _from, _to, _value, _fee, _nonce);\n\n        address spender = recover(hashedParams, _signature);\n        require(spender != address(0));\n        bytes32 hashedTx = keccak256(abi.encodePacked(spender, hashedParams));\n        require(hashedTxs[hashedTx] == false);\n        _transfer(_from, _to, _value);\n        // _balances[_from] = _balances[_from].sub(_value);\n        // _balances[_to] = _balances[_to].add(_value);\n        _approve(_from, spender, allowance(_from, spender).sub(_value));\n        // _allowed[_from][spender] = _allowed[_from][spender].sub(_value);\n        _transfer(spender, msg.sender, _fee);\n        // _balances[spender] = _balances[spender].sub(_fee);\n        // _balances[msg.sender] = _balances[msg.sender].add(_fee);\n        hashedTxs[hashedTx] = true;\n\n        // Transfer(_from, _to, _value);\n        // Transfer(spender, msg.sender, _fee);\n        return true;\n    }\n\n\n    /**\n     * @notice Hash (keccak256) of the payload used by transferPreSigned\n     * @param _token address The address of the token.\n     * @param _to address The address which you want to transfer to.\n     * @param _value uint256 The amount of tokens to be transferred.\n     * @param _fee uint256 The amount of tokens paid to msg.sender, by the owner.\n     * @param _nonce uint256 Presigned transaction number.\n     */\n    function transferPreSignedHashing(\n        address _token,\n        address _to,\n        uint256 _value,\n        uint256 _fee,\n        uint256 _nonce\n    )\n        public\n        pure\n        returns (bytes32)\n    {\n        /* \"48664c16\": transferPreSignedHashing(address,address,address,uint256,uint256,uint256) */\n        return keccak256(abi.encodePacked(bytes4(0x48664c16), _token, _to, _value, _fee, _nonce));\n    }\n\n    /**\n     * @notice Hash (keccak256) of the payload used by approvePreSigned\n     * @param _token address The address of the token\n     * @param _spender address The address which will spend the funds.\n     * @param _value uint256 The amount of tokens to allow.\n     * @param _fee uint256 The amount of tokens paid to msg.sender, by the owner.\n     * @param _nonce uint256 Presigned transaction number.\n     */\n    function approvePreSignedHashing(\n        address _token,\n        address _spender,\n        uint256 _value,\n        uint256 _fee,\n        uint256 _nonce\n    )\n        public\n        pure\n        returns (bytes32)\n    {\n        /* \"f7ac9c2e\": approvePreSignedHashing(address,address,uint256,uint256,uint256) */\n        return keccak256(abi.encodePacked(bytes4(0xf7ac9c2e), _token, _spender, _value, _fee, _nonce));\n    }\n\n    /**\n     * @notice Hash (keccak256) of the payload used by increaseApprovalPreSigned\n     * @param _token address The address of the token\n     * @param _spender address The address which will spend the funds.\n     * @param _addedValue uint256 The amount of tokens to increase the allowance by.\n     * @param _fee uint256 The amount of tokens paid to msg.sender, by the owner.\n     * @param _nonce uint256 Presigned transaction number.\n     */\n    function increaseApprovalPreSignedHashing(\n        address _token,\n        address _spender,\n        uint256 _addedValue,\n        uint256 _fee,\n        uint256 _nonce\n    )\n        public\n        pure\n        returns (bytes32)\n    {\n        /* \"a45f71ff\": increaseApprovalPreSignedHashing(address,address,uint256,uint256,uint256) */\n        return keccak256(abi.encodePacked(bytes4(0xa45f71ff), _token, _spender, _addedValue, _fee, _nonce));\n    }\n\n     /**\n      * @notice Hash (keccak256) of the payload used by decreaseApprovalPreSigned\n      * @param _token address The address of the token\n      * @param _spender address The address which will spend the funds.\n      * @param _subtractedValue uint256 The amount of tokens to decrease the allowance by.\n      * @param _fee uint256 The amount of tokens paid to msg.sender, by the owner.\n      * @param _nonce uint256 Presigned transaction number.\n      */\n    function decreaseApprovalPreSignedHashing(\n        address _token,\n        address _spender,\n        uint256 _subtractedValue,\n        uint256 _fee,\n        uint256 _nonce\n    )\n        public\n        pure\n        returns (bytes32)\n    {\n        /* \"59388d78\": decreaseApprovalPreSignedHashing(address,address,uint256,uint256,uint256) */\n        return keccak256(abi.encodePacked(bytes4(0x59388d78), _token, _spender, _subtractedValue, _fee, _nonce));\n    }\n\n    /**\n     * @notice Hash (keccak256) of the payload used by transferFromPreSigned\n     * @param _token address The address of the token\n     * @param _from address The address which you want to send tokens from.\n     * @param _to address The address which you want to transfer to.\n     * @param _value uint256 The amount of tokens to be transferred.\n     * @param _fee uint256 The amount of tokens paid to msg.sender, by the spender.\n     * @param _nonce uint256 Presigned transaction number.\n     */\n    function transferFromPreSignedHashing(\n        address _token,\n        address _from,\n        address _to,\n        uint256 _value,\n        uint256 _fee,\n        uint256 _nonce\n    )\n        public\n        pure\n        returns (bytes32)\n    {\n        /* \"b7656dc5\": transferFromPreSignedHashing(address,address,address,uint256,uint256,uint256) */\n        return keccak256(abi.encodePacked(bytes4(0xb7656dc5), _token, _from, _to, _value, _fee, _nonce));\n    }\n\n    /**\n     * @notice Recover signer address from a message by using his signature\n     * @param hash bytes32 message, the hash is the signed message. What is recovered is the signer address.\n     * @param sig bytes signature, the signature is generated using web3.eth.sign()\n     */\n    function recover(bytes32 hash, bytes sig) public pure returns (address) {\n      bytes32 r;\n      bytes32 s;\n      uint8 v;\n\n      //Check the signature length\n      if (sig.length != 65) {\n        return (address(0));\n      }\n\n      // Divide the signature in r, s and v variables\n      assembly {\n        r := mload(add(sig, 32))\n        s := mload(add(sig, 64))\n        v := byte(0, mload(add(sig, 96)))\n      }\n\n    //   // Version of signature should be 27 or 28, but 0 and 1 are also possible versions\n    //    if (v < 27) {\n    //         v += 27;\n    //    }\n\n      // If the version is correct return the signer address\n      if (v != 27 && v != 28) {\n        return (address(0));\n      } else {\n        return ecrecover(hash, v, r, s);\n      }\n    }\n\n}",
  "sourcePath": "/Users/jretina/Programming/PROPSProject/props-token-distribution/contracts/token/ERC865Token.sol",
  "compiler": {
    "name": "solc",
    "version": "0.4.24+commit.e67f0147.Emscripten.clang"
  },
  "schemaVersion": "2.0.1",
  "updatedAt": "2019-02-07T11:08:46.235Z"
}