{
  "contractName": "ERC865Token",
  "abi": [
    {
      "constant": false,
      "inputs": [
        {
          "name": "spender",
          "type": "address"
        },
        {
          "name": "value",
          "type": "uint256"
        }
      ],
      "name": "approve",
      "outputs": [
        {
          "name": "",
          "type": "bool"
        }
      ],
      "payable": false,
      "stateMutability": "nonpayable",
      "type": "function"
    },
    {
      "constant": true,
      "inputs": [],
      "name": "totalSupply",
      "outputs": [
        {
          "name": "",
          "type": "uint256"
        }
      ],
      "payable": false,
      "stateMutability": "view",
      "type": "function"
    },
    {
      "constant": false,
      "inputs": [
        {
          "name": "from",
          "type": "address"
        },
        {
          "name": "to",
          "type": "address"
        },
        {
          "name": "value",
          "type": "uint256"
        }
      ],
      "name": "transferFrom",
      "outputs": [
        {
          "name": "",
          "type": "bool"
        }
      ],
      "payable": false,
      "stateMutability": "nonpayable",
      "type": "function"
    },
    {
      "constant": false,
      "inputs": [
        {
          "name": "spender",
          "type": "address"
        },
        {
          "name": "addedValue",
          "type": "uint256"
        }
      ],
      "name": "increaseAllowance",
      "outputs": [
        {
          "name": "",
          "type": "bool"
        }
      ],
      "payable": false,
      "stateMutability": "nonpayable",
      "type": "function"
    },
    {
      "constant": true,
      "inputs": [
        {
          "name": "owner",
          "type": "address"
        }
      ],
      "name": "balanceOf",
      "outputs": [
        {
          "name": "",
          "type": "uint256"
        }
      ],
      "payable": false,
      "stateMutability": "view",
      "type": "function"
    },
    {
      "constant": false,
      "inputs": [
        {
          "name": "spender",
          "type": "address"
        },
        {
          "name": "subtractedValue",
          "type": "uint256"
        }
      ],
      "name": "decreaseAllowance",
      "outputs": [
        {
          "name": "",
          "type": "bool"
        }
      ],
      "payable": false,
      "stateMutability": "nonpayable",
      "type": "function"
    },
    {
      "constant": false,
      "inputs": [
        {
          "name": "to",
          "type": "address"
        },
        {
          "name": "value",
          "type": "uint256"
        }
      ],
      "name": "transfer",
      "outputs": [
        {
          "name": "",
          "type": "bool"
        }
      ],
      "payable": false,
      "stateMutability": "nonpayable",
      "type": "function"
    },
    {
      "constant": true,
      "inputs": [
        {
          "name": "owner",
          "type": "address"
        },
        {
          "name": "spender",
          "type": "address"
        }
      ],
      "name": "allowance",
      "outputs": [
        {
          "name": "",
          "type": "uint256"
        }
      ],
      "payable": false,
      "stateMutability": "view",
      "type": "function"
    },
    {
      "anonymous": false,
      "inputs": [
        {
          "indexed": true,
          "name": "from",
          "type": "address"
        },
        {
          "indexed": true,
          "name": "to",
          "type": "address"
        },
        {
          "indexed": true,
          "name": "delegate",
          "type": "address"
        },
        {
          "indexed": false,
          "name": "amount",
          "type": "uint256"
        },
        {
          "indexed": false,
          "name": "fee",
          "type": "uint256"
        }
      ],
      "name": "TransferPreSigned",
      "type": "event"
    },
    {
      "anonymous": false,
      "inputs": [
        {
          "indexed": true,
          "name": "from",
          "type": "address"
        },
        {
          "indexed": true,
          "name": "to",
          "type": "address"
        },
        {
          "indexed": true,
          "name": "delegate",
          "type": "address"
        },
        {
          "indexed": false,
          "name": "amount",
          "type": "uint256"
        },
        {
          "indexed": false,
          "name": "fee",
          "type": "uint256"
        }
      ],
      "name": "ApprovalPreSigned",
      "type": "event"
    },
    {
      "anonymous": false,
      "inputs": [
        {
          "indexed": true,
          "name": "from",
          "type": "address"
        },
        {
          "indexed": true,
          "name": "to",
          "type": "address"
        },
        {
          "indexed": false,
          "name": "value",
          "type": "uint256"
        }
      ],
      "name": "Transfer",
      "type": "event"
    },
    {
      "anonymous": false,
      "inputs": [
        {
          "indexed": true,
          "name": "owner",
          "type": "address"
        },
        {
          "indexed": true,
          "name": "spender",
          "type": "address"
        },
        {
          "indexed": false,
          "name": "value",
          "type": "uint256"
        }
      ],
      "name": "Approval",
      "type": "event"
    },
    {
      "constant": false,
      "inputs": [
        {
          "name": "_signature",
          "type": "bytes"
        },
        {
          "name": "_to",
          "type": "address"
        },
        {
          "name": "_value",
          "type": "uint256"
        },
        {
          "name": "_fee",
          "type": "uint256"
        },
        {
          "name": "_nonce",
          "type": "uint256"
        }
      ],
      "name": "transferPreSigned",
      "outputs": [
        {
          "name": "",
          "type": "bool"
        }
      ],
      "payable": false,
      "stateMutability": "nonpayable",
      "type": "function"
    },
    {
      "constant": false,
      "inputs": [
        {
          "name": "_signature",
          "type": "bytes"
        },
        {
          "name": "_spender",
          "type": "address"
        },
        {
          "name": "_value",
          "type": "uint256"
        },
        {
          "name": "_fee",
          "type": "uint256"
        },
        {
          "name": "_nonce",
          "type": "uint256"
        }
      ],
      "name": "approvePreSigned",
      "outputs": [
        {
          "name": "",
          "type": "bool"
        }
      ],
      "payable": false,
      "stateMutability": "nonpayable",
      "type": "function"
    },
    {
      "constant": false,
      "inputs": [
        {
          "name": "_signature",
          "type": "bytes"
        },
        {
          "name": "_spender",
          "type": "address"
        },
        {
          "name": "_addedValue",
          "type": "uint256"
        },
        {
          "name": "_fee",
          "type": "uint256"
        },
        {
          "name": "_nonce",
          "type": "uint256"
        }
      ],
      "name": "increaseAllowancePreSigned",
      "outputs": [
        {
          "name": "",
          "type": "bool"
        }
      ],
      "payable": false,
      "stateMutability": "nonpayable",
      "type": "function"
    },
    {
      "constant": false,
      "inputs": [
        {
          "name": "_signature",
          "type": "bytes"
        },
        {
          "name": "_spender",
          "type": "address"
        },
        {
          "name": "_subtractedValue",
          "type": "uint256"
        },
        {
          "name": "_fee",
          "type": "uint256"
        },
        {
          "name": "_nonce",
          "type": "uint256"
        }
      ],
      "name": "decreaseAllowancePreSigned",
      "outputs": [
        {
          "name": "",
          "type": "bool"
        }
      ],
      "payable": false,
      "stateMutability": "nonpayable",
      "type": "function"
    },
    {
      "constant": false,
      "inputs": [
        {
          "name": "_signature",
          "type": "bytes"
        },
        {
          "name": "_from",
          "type": "address"
        },
        {
          "name": "_to",
          "type": "address"
        },
        {
          "name": "_value",
          "type": "uint256"
        },
        {
          "name": "_fee",
          "type": "uint256"
        },
        {
          "name": "_nonce",
          "type": "uint256"
        }
      ],
      "name": "transferFromPreSigned",
      "outputs": [
        {
          "name": "",
          "type": "bool"
        }
      ],
      "payable": false,
      "stateMutability": "nonpayable",
      "type": "function"
    },
    {
      "constant": true,
      "inputs": [
        {
          "name": "_token",
          "type": "address"
        },
        {
          "name": "_to",
          "type": "address"
        },
        {
          "name": "_value",
          "type": "uint256"
        },
        {
          "name": "_fee",
          "type": "uint256"
        },
        {
          "name": "_nonce",
          "type": "uint256"
        }
      ],
      "name": "getTransferPreSignedHash",
      "outputs": [
        {
          "name": "",
          "type": "bytes32"
        }
      ],
      "payable": false,
      "stateMutability": "pure",
      "type": "function"
    },
    {
      "constant": true,
      "inputs": [
        {
          "name": "_token",
          "type": "address"
        },
        {
          "name": "_spender",
          "type": "address"
        },
        {
          "name": "_value",
          "type": "uint256"
        },
        {
          "name": "_fee",
          "type": "uint256"
        },
        {
          "name": "_nonce",
          "type": "uint256"
        }
      ],
      "name": "getApprovePreSignedHash",
      "outputs": [
        {
          "name": "",
          "type": "bytes32"
        }
      ],
      "payable": false,
      "stateMutability": "pure",
      "type": "function"
    },
    {
      "constant": true,
      "inputs": [
        {
          "name": "_token",
          "type": "address"
        },
        {
          "name": "_spender",
          "type": "address"
        },
        {
          "name": "_addedValue",
          "type": "uint256"
        },
        {
          "name": "_fee",
          "type": "uint256"
        },
        {
          "name": "_nonce",
          "type": "uint256"
        }
      ],
      "name": "getIncreaseAllowancePreSignedHash",
      "outputs": [
        {
          "name": "",
          "type": "bytes32"
        }
      ],
      "payable": false,
      "stateMutability": "pure",
      "type": "function"
    },
    {
      "constant": true,
      "inputs": [
        {
          "name": "_token",
          "type": "address"
        },
        {
          "name": "_spender",
          "type": "address"
        },
        {
          "name": "_subtractedValue",
          "type": "uint256"
        },
        {
          "name": "_fee",
          "type": "uint256"
        },
        {
          "name": "_nonce",
          "type": "uint256"
        }
      ],
      "name": "getDecreaseAllowancePreSignedHash",
      "outputs": [
        {
          "name": "",
          "type": "bytes32"
        }
      ],
      "payable": false,
      "stateMutability": "pure",
      "type": "function"
    },
    {
      "constant": true,
      "inputs": [
        {
          "name": "_token",
          "type": "address"
        },
        {
          "name": "_from",
          "type": "address"
        },
        {
          "name": "_to",
          "type": "address"
        },
        {
          "name": "_value",
          "type": "uint256"
        },
        {
          "name": "_fee",
          "type": "uint256"
        },
        {
          "name": "_nonce",
          "type": "uint256"
        }
      ],
      "name": "getTransferFromPreSignedHash",
      "outputs": [
        {
          "name": "",
          "type": "bytes32"
        }
      ],
      "payable": false,
      "stateMutability": "pure",
      "type": "function"
    }
  ],
  "bytecode": "0x608060405234801561001057600080fd5b50612f13806100206000396000f3006080604052600436106100fc576000357c0100000000000000000000000000000000000000000000000000000000900463ffffffff168063095ea7b3146101015780630d98dcb1146101665780631296830d14610203578063138e8da1146102c257806318160ddd1461035f57806323b872dd1461038a578063395093511461040f5780635229c56f14610474578063617b390b1461051157806370a08231146105d057806379250dcf14610627578063a457c2d7146106c4578063a70c41b414610729578063a9059cbb146107e6578063bca505151461084b578063dd62ed3e1461092a578063f2959d6e146109a1578063f80801d014610a60575b600080fd5b34801561010d57600080fd5b5061014c600480360381019080803573ffffffffffffffffffffffffffffffffffffffff16906020019092919080359060200190929190505050610b1f565b604051808215151515815260200191505060405180910390f35b34801561017257600080fd5b506101e5600480360381019080803573ffffffffffffffffffffffffffffffffffffffff169060200190929190803573ffffffffffffffffffffffffffffffffffffffff169060200190929190803590602001909291908035906020019092919080359060200190929190505050610b36565b60405180826000191660001916815260200191505060405180910390f35b34801561020f57600080fd5b506102a8600480360381019080803590602001908201803590602001908080601f0160208091040260200160405190810160405280939291908181526020018383808284378201915050505050509192919290803573ffffffffffffffffffffffffffffffffffffffff169060200190929190803590602001909291908035906020019092919080359060200190929190505050610cc4565b604051808215151515815260200191505060405180910390f35b3480156102ce57600080fd5b50610341600480360381019080803573ffffffffffffffffffffffffffffffffffffffff169060200190929190803573ffffffffffffffffffffffffffffffffffffffff1690602001909291908035906020019092919080359060200190929190803590602001909291905050506110a6565b60405180826000191660001916815260200191505060405180910390f35b34801561036b57600080fd5b50610374611234565b6040518082815260200191505060405180910390f35b34801561039657600080fd5b506103f5600480360381019080803573ffffffffffffffffffffffffffffffffffffffff169060200190929190803573ffffffffffffffffffffffffffffffffffffffff1690602001909291908035906020019092919050505061123e565b604051808215151515815260200191505060405180910390f35b34801561041b57600080fd5b5061045a600480360381019080803573ffffffffffffffffffffffffffffffffffffffff169060200190929190803590602001909291905050506112ef565b604051808215151515815260200191505060405180910390f35b34801561048057600080fd5b506104f3600480360381019080803573ffffffffffffffffffffffffffffffffffffffff169060200190929190803573ffffffffffffffffffffffffffffffffffffffff169060200190929190803590602001909291908035906020019092919080359060200190929190505050611394565b60405180826000191660001916815260200191505060405180910390f35b34801561051d57600080fd5b506105b6600480360381019080803590602001908201803590602001908080601f0160208091040260200160405190810160405280939291908181526020018383808284378201915050505050509192919290803573ffffffffffffffffffffffffffffffffffffffff169060200190929190803590602001909291908035906020019092919080359060200190929190505050611522565b604051808215151515815260200191505060405180910390f35b3480156105dc57600080fd5b50610611600480360381019080803573ffffffffffffffffffffffffffffffffffffffff169060200190929190505050611904565b6040518082815260200191505060405180910390f35b34801561063357600080fd5b506106a6600480360381019080803573ffffffffffffffffffffffffffffffffffffffff169060200190929190803573ffffffffffffffffffffffffffffffffffffffff16906020019092919080359060200190929190803590602001909291908035906020019092919050505061194d565b60405180826000191660001916815260200191505060405180910390f35b3480156106d057600080fd5b5061070f600480360381019080803573ffffffffffffffffffffffffffffffffffffffff16906020019092919080359060200190929190505050611adb565b604051808215151515815260200191505060405180910390f35b34801561073557600080fd5b506107c8600480360381019080803573ffffffffffffffffffffffffffffffffffffffff169060200190929190803573ffffffffffffffffffffffffffffffffffffffff169060200190929190803573ffffffffffffffffffffffffffffffffffffffff169060200190929190803590602001909291908035906020019092919080359060200190929190505050611b80565b60405180826000191660001916815260200191505060405180910390f35b3480156107f257600080fd5b50610831600480360381019080803573ffffffffffffffffffffffffffffffffffffffff16906020019092919080359060200190929190505050611d52565b604051808215151515815260200191505060405180910390f35b34801561085757600080fd5b50610910600480360381019080803590602001908201803590602001908080601f0160208091040260200160405190810160405280939291908181526020018383808284378201915050505050509192919290803573ffffffffffffffffffffffffffffffffffffffff169060200190929190803573ffffffffffffffffffffffffffffffffffffffff169060200190929190803590602001909291908035906020019092919080359060200190929190505050611d69565b604051808215151515815260200191505060405180910390f35b34801561093657600080fd5b5061098b600480360381019080803573ffffffffffffffffffffffffffffffffffffffff169060200190929190803573ffffffffffffffffffffffffffffffffffffffff169060200190929190505050612199565b6040518082815260200191505060405180910390f35b3480156109ad57600080fd5b50610a46600480360381019080803590602001908201803590602001908080601f0160208091040260200160405190810160405280939291908181526020018383808284378201915050505050509192919290803573ffffffffffffffffffffffffffffffffffffffff169060200190929190803590602001909291908035906020019092919080359060200190929190505050612220565b604051808215151515815260200191505060405180910390f35b348015610a6c57600080fd5b50610b05600480360381019080803590602001908201803590602001908080601f0160208091040260200160405190810160405280939291908181526020018383808284378201915050505050509192919290803573ffffffffffffffffffffffffffffffffffffffff169060200190929190803590602001909291908035906020019092919080359060200190929190505050612626565b604051808215151515815260200191505060405180910390f35b6000610b2c338484612a2c565b6001905092915050565b6000630d98dcb17c010000000000000000000000000000000000000000000000000000000002868686868660405160200180877bffffffffffffffffffffffffffffffffffffffffffffffffffffffff19167bffffffffffffffffffffffffffffffffffffffffffffffffffffffff191681526004018673ffffffffffffffffffffffffffffffffffffffff1673ffffffffffffffffffffffffffffffffffffffff166c010000000000000000000000000281526014018573ffffffffffffffffffffffffffffffffffffffff1673ffffffffffffffffffffffffffffffffffffffff166c0100000000000000000000000002815260140184815260200183815260200182815260200196505050505050506040516020818303038152906040526040518082805190602001908083835b602083101515610c8c5780518252602082019150602081019050602083039250610c67565b6001836020036101000a0380198251168184511680821785525050505050509050019150506040518091039020905095945050505050565b600080600080600073ffffffffffffffffffffffffffffffffffffffff168873ffffffffffffffffffffffffffffffffffffffff1614151515610d6f576040517f08c379a00000000000000000000000000000000000000000000000000000000081526004018080602001828103825260138152602001807f496e76616c6964205f746f20616464726573730000000000000000000000000081525060200191505060405180910390fd5b610d7c3089898989610b36565b9250610d88838a612b8f565b9150600073ffffffffffffffffffffffffffffffffffffffff168273ffffffffffffffffffffffffffffffffffffffff1614151515610e2f576040517f08c379a000000000000000000000000000000000000000000000000000000000815260040180806020018281038252601e8152602001807f496e76616c69642066726f6d2061646472657373207265636f7665726564000081525060200191505060405180910390fd5b8183604051602001808373ffffffffffffffffffffffffffffffffffffffff1673ffffffffffffffffffffffffffffffffffffffff166c010000000000000000000000000281526014018260001916600019168152602001925050506040516020818303038152906040526040518082805190602001908083835b602083101515610ecf5780518252602082019150602081019050602083039250610eaa565b6001836020036101000a038019825116818451168082178552505050505050905001915050604051809103902090506000151560686000836000191660001916815260200190815260200160002060009054906101000a900460ff161515141515610fc8576040517f08c379a00000000000000000000000000000000000000000000000000000000081526004018080602001828103825260218152602001807f5472616e73616374696f6e20686173682077617320616c72656164792075736581526020017f640000000000000000000000000000000000000000000000000000000000000081525060400191505060405180910390fd5b600160686000836000191660001916815260200190815260200160002060006101000a81548160ff021916908315150217905550611007828989612c87565b611012823388612c87565b3373ffffffffffffffffffffffffffffffffffffffff168873ffffffffffffffffffffffffffffffffffffffff168373ffffffffffffffffffffffffffffffffffffffff167fec5a73fd1f178be20c1bca1b406cbf4b5c20d833b66e582fc122fb4baa0fc2a48a8a604051808381526020018281526020019250505060405180910390a46001935050505095945050505050565b600063138e8da17c010000000000000000000000000000000000000000000000000000000002868686868660405160200180877bffffffffffffffffffffffffffffffffffffffffffffffffffffffff19167bffffffffffffffffffffffffffffffffffffffffffffffffffffffff191681526004018673ffffffffffffffffffffffffffffffffffffffff1673ffffffffffffffffffffffffffffffffffffffff166c010000000000000000000000000281526014018573ffffffffffffffffffffffffffffffffffffffff1673ffffffffffffffffffffffffffffffffffffffff166c0100000000000000000000000002815260140184815260200183815260200182815260200196505050505050506040516020818303038152906040526040518082805190602001908083835b6020831015156111fc57805182526020820191506020810190506020830392506111d7565b6001836020036101000a0380198251168184511680821785525050505050509050019150506040518091039020905095945050505050565b6000603554905090565b600061124b848484612c87565b6112e484336112df85603460008a73ffffffffffffffffffffffffffffffffffffffff1673ffffffffffffffffffffffffffffffffffffffff16815260200190815260200160002060003373ffffffffffffffffffffffffffffffffffffffff1673ffffffffffffffffffffffffffffffffffffffff16815260200190815260200160002054612ea590919063ffffffff16565b612a2c565b600190509392505050565b600061138a338461138585603460003373ffffffffffffffffffffffffffffffffffffffff1673ffffffffffffffffffffffffffffffffffffffff16815260200190815260200160002060008973ffffffffffffffffffffffffffffffffffffffff1673ffffffffffffffffffffffffffffffffffffffff16815260200190815260200160002054612ec690919063ffffffff16565b612a2c565b6001905092915050565b6000635229c56f7c010000000000000000000000000000000000000000000000000000000002868686868660405160200180877bffffffffffffffffffffffffffffffffffffffffffffffffffffffff19167bffffffffffffffffffffffffffffffffffffffffffffffffffffffff191681526004018673ffffffffffffffffffffffffffffffffffffffff1673ffffffffffffffffffffffffffffffffffffffff166c010000000000000000000000000281526014018573ffffffffffffffffffffffffffffffffffffffff1673ffffffffffffffffffffffffffffffffffffffff166c0100000000000000000000000002815260140184815260200183815260200182815260200196505050505050506040516020818303038152906040526040518082805190602001908083835b6020831015156114ea57805182526020820191506020810190506020830392506114c5565b6001836020036101000a0380198251168184511680821785525050505050509050019150506040518091039020905095945050505050565b600080600080600073ffffffffffffffffffffffffffffffffffffffff168873ffffffffffffffffffffffffffffffffffffffff16141515156115cd576040517f08c379a00000000000000000000000000000000000000000000000000000000081526004018080602001828103825260188152602001807f496e76616c6964205f7370656e6465722061646472657373000000000000000081525060200191505060405180910390fd5b6115da308989898961194d565b92506115e6838a612b8f565b9150600073ffffffffffffffffffffffffffffffffffffffff168273ffffffffffffffffffffffffffffffffffffffff161415151561168d576040517f08c379a000000000000000000000000000000000000000000000000000000000815260040180806020018281038252601e8152602001807f496e76616c69642066726f6d2061646472657373207265636f7665726564000081525060200191505060405180910390fd5b8183604051602001808373ffffffffffffffffffffffffffffffffffffffff1673ffffffffffffffffffffffffffffffffffffffff166c010000000000000000000000000281526014018260001916600019168152602001925050506040516020818303038152906040526040518082805190602001908083835b60208310151561172d5780518252602082019150602081019050602083039250611708565b6001836020036101000a038019825116818451168082178552505050505050905001915050604051809103902090506000151560686000836000191660001916815260200190815260200160002060009054906101000a900460ff161515141515611826576040517f08c379a00000000000000000000000000000000000000000000000000000000081526004018080602001828103825260218152602001807f5472616e73616374696f6e20686173682077617320616c72656164792075736581526020017f640000000000000000000000000000000000000000000000000000000000000081525060400191505060405180910390fd5b600160686000836000191660001916815260200190815260200160002060006101000a81548160ff021916908315150217905550611865828989612a2c565b611870823388612c87565b3373ffffffffffffffffffffffffffffffffffffffff168873ffffffffffffffffffffffffffffffffffffffff168373ffffffffffffffffffffffffffffffffffffffff167f43a220267705e74ee2ceafd46afc841850db6f85a662189a7def697bbdd90ffb8a8a604051808381526020018281526020019250505060405180910390a46001935050505095945050505050565b6000603360008373ffffffffffffffffffffffffffffffffffffffff1673ffffffffffffffffffffffffffffffffffffffff168152602001908152602001600020549050919050565b60006379250dcf7c010000000000000000000000000000000000000000000000000000000002868686868660405160200180877bffffffffffffffffffffffffffffffffffffffffffffffffffffffff19167bffffffffffffffffffffffffffffffffffffffffffffffffffffffff191681526004018673ffffffffffffffffffffffffffffffffffffffff1673ffffffffffffffffffffffffffffffffffffffff166c010000000000000000000000000281526014018573ffffffffffffffffffffffffffffffffffffffff1673ffffffffffffffffffffffffffffffffffffffff166c0100000000000000000000000002815260140184815260200183815260200182815260200196505050505050506040516020818303038152906040526040518082805190602001908083835b602083101515611aa35780518252602082019150602081019050602083039250611a7e565b6001836020036101000a0380198251168184511680821785525050505050509050019150506040518091039020905095945050505050565b6000611b763384611b7185603460003373ffffffffffffffffffffffffffffffffffffffff1673ffffffffffffffffffffffffffffffffffffffff16815260200190815260200160002060008973ffffffffffffffffffffffffffffffffffffffff1673ffffffffffffffffffffffffffffffffffffffff16815260200190815260200160002054612ea590919063ffffffff16565b612a2c565b6001905092915050565b600063a70c41b47c01000000000000000000000000000000000000000000000000000000000287878787878760405160200180887bffffffffffffffffffffffffffffffffffffffffffffffffffffffff19167bffffffffffffffffffffffffffffffffffffffffffffffffffffffff191681526004018773ffffffffffffffffffffffffffffffffffffffff1673ffffffffffffffffffffffffffffffffffffffff166c010000000000000000000000000281526014018673ffffffffffffffffffffffffffffffffffffffff1673ffffffffffffffffffffffffffffffffffffffff166c010000000000000000000000000281526014018573ffffffffffffffffffffffffffffffffffffffff1673ffffffffffffffffffffffffffffffffffffffff166c010000000000000000000000000281526014018481526020018381526020018281526020019750505050505050506040516020818303038152906040526040518082805190602001908083835b602083101515611d195780518252602082019150602081019050602083039250611cf4565b6001836020036101000a038019825116818451168082178552505050505050905001915050604051809103902090509695505050505050565b6000611d5f338484612c87565b6001905092915050565b600080600080600073ffffffffffffffffffffffffffffffffffffffff168873ffffffffffffffffffffffffffffffffffffffff1614151515611e14576040517f08c379a00000000000000000000000000000000000000000000000000000000081526004018080602001828103825260138152602001807f496e76616c6964205f746f20616464726573730000000000000000000000000081525060200191505060405180910390fd5b611e22308a8a8a8a8a611b80565b9250611e2e838b612b8f565b9150600073ffffffffffffffffffffffffffffffffffffffff168273ffffffffffffffffffffffffffffffffffffffff1614151515611efb576040517f08c379a00000000000000000000000000000000000000000000000000000000081526004018080602001828103825260218152602001807f496e76616c6964207370656e6465722061646472657373207265636f7665726581526020017f640000000000000000000000000000000000000000000000000000000000000081525060400191505060405180910390fd5b8183604051602001808373ffffffffffffffffffffffffffffffffffffffff1673ffffffffffffffffffffffffffffffffffffffff166c010000000000000000000000000281526014018260001916600019168152602001925050506040516020818303038152906040526040518082805190602001908083835b602083101515611f9b5780518252602082019150602081019050602083039250611f76565b6001836020036101000a038019825116818451168082178552505050505050905001915050604051809103902090506000151560686000836000191660001916815260200190815260200160002060009054906101000a900460ff161515141515612094576040517f08c379a00000000000000000000000000000000000000000000000000000000081526004018080602001828103825260218152602001807f5472616e73616374696f6e20686173682077617320616c72656164792075736581526020017f640000000000000000000000000000000000000000000000000000000000000081525060400191505060405180910390fd5b600160686000836000191660001916815260200190815260200160002060006101000a81548160ff0219169083151502179055506120d3898989612c87565b6120f989836120f48a6120e68e88612199565b612ea590919063ffffffff16565b612a2c565b612104823388612c87565b3373ffffffffffffffffffffffffffffffffffffffff168873ffffffffffffffffffffffffffffffffffffffff168a73ffffffffffffffffffffffffffffffffffffffff167fec5a73fd1f178be20c1bca1b406cbf4b5c20d833b66e582fc122fb4baa0fc2a48a8a604051808381526020018281526020019250505060405180910390a4600193505050509695505050505050565b6000603460008473ffffffffffffffffffffffffffffffffffffffff1673ffffffffffffffffffffffffffffffffffffffff16815260200190815260200160002060008373ffffffffffffffffffffffffffffffffffffffff1673ffffffffffffffffffffffffffffffffffffffff16815260200190815260200160002054905092915050565b600080600080600073ffffffffffffffffffffffffffffffffffffffff168873ffffffffffffffffffffffffffffffffffffffff16141515156122cb576040517f08c379a00000000000000000000000000000000000000000000000000000000081526004018080602001828103825260188152602001807f496e76616c6964205f7370656e6465722061646472657373000000000000000081525060200191505060405180910390fd5b6122d83089898989611394565b92506122e4838a612b8f565b9150600073ffffffffffffffffffffffffffffffffffffffff168273ffffffffffffffffffffffffffffffffffffffff161415151561238b576040517f08c379a000000000000000000000000000000000000000000000000000000000815260040180806020018281038252601e8152602001807f496e76616c69642066726f6d2061646472657373207265636f7665726564000081525060200191505060405180910390fd5b8183604051602001808373ffffffffffffffffffffffffffffffffffffffff1673ffffffffffffffffffffffffffffffffffffffff166c010000000000000000000000000281526014018260001916600019168152602001925050506040516020818303038152906040526040518082805190602001908083835b60208310151561242b5780518252602082019150602081019050602083039250612406565b6001836020036101000a038019825116818451168082178552505050505050905001915050604051809103902090506000151560686000836000191660001916815260200190815260200160002060009054906101000a900460ff161515141515612524576040517f08c379a00000000000000000000000000000000000000000000000000000000081526004018080602001828103825260218152602001807f5472616e73616374696f6e20686173682077617320616c72656164792075736581526020017f640000000000000000000000000000000000000000000000000000000000000081525060400191505060405180910390fd5b600160686000836000191660001916815260200190815260200160002060006101000a81548160ff02191690831515021790555061257e82896125798a61256b878e612199565b612ea590919063ffffffff16565b612a2c565b612589823388612c87565b3373ffffffffffffffffffffffffffffffffffffffff168873ffffffffffffffffffffffffffffffffffffffff168373ffffffffffffffffffffffffffffffffffffffff167f43a220267705e74ee2ceafd46afc841850db6f85a662189a7def697bbdd90ffb6125f9868d612199565b8a604051808381526020018281526020019250505060405180910390a46001935050505095945050505050565b600080600080600073ffffffffffffffffffffffffffffffffffffffff168873ffffffffffffffffffffffffffffffffffffffff16141515156126d1576040517f08c379a00000000000000000000000000000000000000000000000000000000081526004018080602001828103825260188152602001807f496e76616c6964205f7370656e6465722061646472657373000000000000000081525060200191505060405180910390fd5b6126de30898989896110a6565b92506126ea838a612b8f565b9150600073ffffffffffffffffffffffffffffffffffffffff168273ffffffffffffffffffffffffffffffffffffffff1614151515612791576040517f08c379a000000000000000000000000000000000000000000000000000000000815260040180806020018281038252601e8152602001807f496e76616c69642066726f6d2061646472657373207265636f7665726564000081525060200191505060405180910390fd5b8183604051602001808373ffffffffffffffffffffffffffffffffffffffff1673ffffffffffffffffffffffffffffffffffffffff166c010000000000000000000000000281526014018260001916600019168152602001925050506040516020818303038152906040526040518082805190602001908083835b602083101515612831578051825260208201915060208101905060208303925061280c565b6001836020036101000a038019825116818451168082178552505050505050905001915050604051809103902090506000151560686000836000191660001916815260200190815260200160002060009054906101000a900460ff16151514151561292a576040517f08c379a00000000000000000000000000000000000000000000000000000000081526004018080602001828103825260218152602001807f5472616e73616374696f6e20686173682077617320616c72656164792075736581526020017f640000000000000000000000000000000000000000000000000000000000000081525060400191505060405180910390fd5b600160686000836000191660001916815260200190815260200160002060006101000a81548160ff021916908315150217905550612984828961297f8a612971878e612199565b612ec690919063ffffffff16565b612a2c565b61298f823388612c87565b3373ffffffffffffffffffffffffffffffffffffffff168873ffffffffffffffffffffffffffffffffffffffff168373ffffffffffffffffffffffffffffffffffffffff167f43a220267705e74ee2ceafd46afc841850db6f85a662189a7def697bbdd90ffb6129ff868d612199565b8a604051808381526020018281526020019250505060405180910390a46001935050505095945050505050565b600073ffffffffffffffffffffffffffffffffffffffff168273ffffffffffffffffffffffffffffffffffffffff1614151515612a6857600080fd5b600073ffffffffffffffffffffffffffffffffffffffff168373ffffffffffffffffffffffffffffffffffffffff1614151515612aa457600080fd5b80603460008573ffffffffffffffffffffffffffffffffffffffff1673ffffffffffffffffffffffffffffffffffffffff16815260200190815260200160002060008473ffffffffffffffffffffffffffffffffffffffff1673ffffffffffffffffffffffffffffffffffffffff168152602001908152602001600020819055508173ffffffffffffffffffffffffffffffffffffffff168373ffffffffffffffffffffffffffffffffffffffff167f8c5be1e5ebec7d5bd14f71427d1e84f3dd0314c0f7b2291e5b200ac8c7c3b925836040518082815260200191505060405180910390a3505050565b60008060008060418551141515612ba95760009350612c7e565b6020850151925060408501519150606085015160001a9050601b8160ff161015612bd457601b810190505b601b8160ff1614158015612bec5750601c8160ff1614155b15612bfa5760009350612c7e565b600186828585604051600081526020016040526040518085600019166000191681526020018460ff1660ff1681526020018360001916600019168152602001826000191660001916815260200194505050505060206040516020810390808403906000865af1158015612c71573d6000803e3d6000fd5b5050506020604051035193505b50505092915050565b603360008473ffffffffffffffffffffffffffffffffffffffff1673ffffffffffffffffffffffffffffffffffffffff168152602001908152602001600020548111151515612cd557600080fd5b600073ffffffffffffffffffffffffffffffffffffffff168273ffffffffffffffffffffffffffffffffffffffff1614151515612d1157600080fd5b612d6381603360008673ffffffffffffffffffffffffffffffffffffffff1673ffffffffffffffffffffffffffffffffffffffff16815260200190815260200160002054612ea590919063ffffffff16565b603360008573ffffffffffffffffffffffffffffffffffffffff1673ffffffffffffffffffffffffffffffffffffffff16815260200190815260200160002081905550612df881603360008573ffffffffffffffffffffffffffffffffffffffff1673ffffffffffffffffffffffffffffffffffffffff16815260200190815260200160002054612ec690919063ffffffff16565b603360008473ffffffffffffffffffffffffffffffffffffffff1673ffffffffffffffffffffffffffffffffffffffff168152602001908152602001600020819055508173ffffffffffffffffffffffffffffffffffffffff168373ffffffffffffffffffffffffffffffffffffffff167fddf252ad1be2c89b69c2b068fc378daa952ba7f163c4a11628f55a4df523b3ef836040518082815260200191505060405180910390a3505050565b600080838311151515612eb757600080fd5b82840390508091505092915050565b6000808284019050838110151515612edd57600080fd5b80915050929150505600a165627a7a72305820d7f758876ce0ed0b96df292468476a44ccc0015c4969e7558bfc2bf1653879630029",
  "source": "pragma solidity ^0.4.24;\n\nimport \"zos-lib/contracts/Initializable.sol\";\nimport \"openzeppelin-eth/contracts/token/ERC20/ERC20.sol\";\nimport { ECDSA } from \"openzeppelin-eth/contracts/cryptography/ECDSA.sol\";\nimport \"./IERC865.sol\";\n\n/**\n * @title ERC865Token Token\n *\n * ERC865Token allows users paying transfers in tokens instead of gas\n * https://github.com/ethereum/EIPs/issues/865\n *\n */\n\ncontract ERC865Token is Initializable, ERC20, IERC865 {\n\n    /* hashed tx of transfers performed */\n    mapping(bytes32 => bool) hashedTxs;\n    /**\n     * @dev Submit a presigned transfer\n     * @notice fee will be given to sender if it's a smart contract make sure it can accept funds\n     * @param _signature bytes The signature, issued by the owner.\n     * @param _to address The address which you want to transfer to.\n     * @param _value uint256 The amount of tokens to be transferred.\n     * @param _fee uint256 The amount of tokens paid to msg.sender, by the owner.\n     * @param _nonce uint256 Presigned transaction number.\n     */\n    function transferPreSigned(\n        bytes _signature,\n        address _to,\n        uint256 _value,\n        uint256 _fee,\n        uint256 _nonce\n    )\n        public\n        returns (bool)\n    {\n        require(_to != address(0), \"Invalid _to address\");\n\n        bytes32 hashedParams = getTransferPreSignedHash(address(this), _to, _value, _fee, _nonce);\n        address from = ECDSA.recover(hashedParams, _signature);\n        require(from != address(0), \"Invalid from address recovered\");\n        bytes32 hashedTx = keccak256(abi.encodePacked(from, hashedParams));\n        require(hashedTxs[hashedTx] == false,\"Transaction hash was already used\");\n        hashedTxs[hashedTx] = true;\n        _transfer(from, _to, _value);\n        _transfer(from, msg.sender, _fee);\n\n        emit TransferPreSigned(from, _to, msg.sender, _value, _fee);\n        return true;\n    }\n\n    /**\n     * @dev Submit a presigned approval\n     * @notice fee will be given to sender if it's a smart contract make sure it can accept funds\n     * @param _signature bytes The signature, issued by the owner.\n     * @param _spender address The address which will spend the funds.\n     * @param _value uint256 The amount of tokens to allow.\n     * @param _fee uint256 The amount of tokens paid to msg.sender, by the owner.\n     * @param _nonce uint256 Presigned transaction number.\n     */\n    function approvePreSigned(\n        bytes _signature,\n        address _spender,\n        uint256 _value,\n        uint256 _fee,\n        uint256 _nonce\n    )\n        public\n        returns (bool)\n    {\n        require(_spender != address(0),\"Invalid _spender address\");\n\n        bytes32 hashedParams = getApprovePreSignedHash(address(this), _spender, _value, _fee, _nonce);\n        address from = ECDSA.recover(hashedParams, _signature);\n        require(from != address(0),\"Invalid from address recovered\");\n        bytes32 hashedTx = keccak256(abi.encodePacked(from, hashedParams));\n        require(hashedTxs[hashedTx] == false,\"Transaction hash was already used\");\n        hashedTxs[hashedTx] = true;\n        _approve(from, _spender, _value);\n        _transfer(from, msg.sender, _fee);\n\n        emit ApprovalPreSigned(from, _spender, msg.sender, _value, _fee);\n        return true;\n    }\n\n    /**\n     * @dev Increase the amount of tokens that an owner allowed to a spender.\n     * @notice fee will be given to sender if it's a smart contract make sure it can accept funds\n     * @param _signature bytes The signature, issued by the owner.\n     * @param _spender address The address which will spend the funds.\n     * @param _addedValue uint256 The amount of tokens to increase the allowance by.\n     * @param _fee uint256 The amount of tokens paid to msg.sender, by the owner.\n     * @param _nonce uint256 Presigned transaction number.\n     */\n    function increaseAllowancePreSigned(\n        bytes _signature,\n        address _spender,\n        uint256 _addedValue,\n        uint256 _fee,\n        uint256 _nonce\n    )\n        public\n        returns (bool)\n    {\n        require(_spender != address(0),\"Invalid _spender address\");\n\n        bytes32 hashedParams = getIncreaseAllowancePreSignedHash(address(this), _spender, _addedValue, _fee, _nonce);\n        address from = ECDSA.recover(hashedParams, _signature);\n        require(from != address(0),\"Invalid from address recovered\");\n        bytes32 hashedTx = keccak256(abi.encodePacked(from, hashedParams));\n        require(hashedTxs[hashedTx] == false,\"Transaction hash was already used\");\n        hashedTxs[hashedTx] = true;\n        _approve(from, _spender, allowance(from, _spender).add(_addedValue));\n        _transfer(from, msg.sender, _fee);\n\n        emit ApprovalPreSigned(from, _spender, msg.sender, allowance(from, _spender), _fee);\n        return true;\n    }\n\n    /**\n     * @dev Decrease the amount of tokens that an owner allowed to a spender.\n     * @notice fee will be given to sender if it's a smart contract make sure it can accept funds\n     * @param _signature bytes The signature, issued by the owner\n     * @param _spender address The address which will spend the funds.\n     * @param _subtractedValue uint256 The amount of tokens to decrease the allowance by.\n     * @param _fee uint256 The amount of tokens paid to msg.sender, by the owner.\n     * @param _nonce uint256 Presigned transaction number.\n     */\n    function decreaseAllowancePreSigned(\n        bytes _signature,\n        address _spender,\n        uint256 _subtractedValue,\n        uint256 _fee,\n        uint256 _nonce\n    )\n        public\n        returns (bool)\n    {\n        require(_spender != address(0),\"Invalid _spender address\");\n\n        bytes32 hashedParams = getDecreaseAllowancePreSignedHash(address(this), _spender, _subtractedValue, _fee, _nonce);\n        address from = ECDSA.recover(hashedParams, _signature);\n        require(from != address(0),\"Invalid from address recovered\");\n        bytes32 hashedTx = keccak256(abi.encodePacked(from, hashedParams));\n        require(hashedTxs[hashedTx] == false,\"Transaction hash was already used\");\n        // if substractedValue is greater than allowance will fail as allowance is uint256\n        hashedTxs[hashedTx] = true;\n        _approve(from, _spender, allowance(from,_spender).sub(_subtractedValue));\n        _transfer(from, msg.sender, _fee);\n\n        emit ApprovalPreSigned(from, _spender, msg.sender, allowance(from, _spender), _fee);\n        return true;\n    }\n\n    /**\n     * @dev Transfer tokens from one address to another\n     * @notice fee will be given to sender if it's a smart contract make sure it can accept funds\n     * @param _signature bytes The signature, issued by the spender.\n     * @param _from address The address which you want to send tokens from.\n     * @param _to address The address which you want to transfer to.\n     * @param _value uint256 The amount of tokens to be transferred.\n     * @param _fee uint256 The amount of tokens paid to msg.sender, by the spender.\n     * @param _nonce uint256 Presigned transaction number.\n     */\n    function transferFromPreSigned(\n        bytes _signature,\n        address _from,\n        address _to,\n        uint256 _value,\n        uint256 _fee,\n        uint256 _nonce\n    )\n        public\n        returns (bool)\n    {\n        require(_to != address(0),\"Invalid _to address\");\n\n        bytes32 hashedParams = getTransferFromPreSignedHash(address(this), _from, _to, _value, _fee, _nonce);\n\n        address spender = ECDSA.recover(hashedParams, _signature);\n        require(spender != address(0),\"Invalid spender address recovered\");\n        bytes32 hashedTx = keccak256(abi.encodePacked(spender, hashedParams));\n        require(hashedTxs[hashedTx] == false,\"Transaction hash was already used\");\n        hashedTxs[hashedTx] = true;\n        _transfer(_from, _to, _value);\n        _approve(_from, spender, allowance(_from, spender).sub(_value));\n        _transfer(spender, msg.sender, _fee);\n\n        emit TransferPreSigned(_from, _to, msg.sender, _value, _fee);\n        return true;\n    }\n\n\n    /**\n     * @dev Hash (keccak256) of the payload used by transferPreSigned\n     * @notice fee will be given to sender if it's a smart contract make sure it can accept funds\n     * @param _token address The address of the token.\n     * @param _to address The address which you want to transfer to.\n     * @param _value uint256 The amount of tokens to be transferred.\n     * @param _fee uint256 The amount of tokens paid to msg.sender, by the owner.\n     * @param _nonce uint256 Presigned transaction number.\n     */\n    function getTransferPreSignedHash(\n        address _token,\n        address _to,\n        uint256 _value,\n        uint256 _fee,\n        uint256 _nonce\n    )\n        public\n        pure\n        returns (bytes32)\n    {\n        /* \"0d98dcb1\": getTransferPreSignedHash(address,address,uint256,uint256,uint256) */\n        return keccak256(abi.encodePacked(bytes4(0x0d98dcb1), _token, _to, _value, _fee, _nonce));\n    }\n\n    /**\n     * @dev Hash (keccak256) of the payload used by approvePreSigned\n     * @notice fee will be given to sender if it's a smart contract make sure it can accept funds\n     * @param _token address The address of the token\n     * @param _spender address The address which will spend the funds.\n     * @param _value uint256 The amount of tokens to allow.\n     * @param _fee uint256 The amount of tokens paid to msg.sender, by the owner.\n     * @param _nonce uint256 Presigned transaction number.\n     */\n    function getApprovePreSignedHash(\n        address _token,\n        address _spender,\n        uint256 _value,\n        uint256 _fee,\n        uint256 _nonce\n    )\n        public\n        pure\n        returns (bytes32)\n    {\n        /* \"79250dcf\": getApprovePreSignedHash(address,address,uint256,uint256,uint256) */\n        return keccak256(abi.encodePacked(bytes4(0x79250dcf), _token, _spender, _value, _fee, _nonce));\n    }\n\n    /**\n     * @dev Hash (keccak256) of the payload used by increaseAllowancePreSigned\n     * @notice fee will be given to sender if it's a smart contract make sure it can accept funds\n     * @param _token address The address of the token\n     * @param _spender address The address which will spend the funds.\n     * @param _addedValue uint256 The amount of tokens to increase the allowance by.\n     * @param _fee uint256 The amount of tokens paid to msg.sender, by the owner.\n     * @param _nonce uint256 Presigned transaction number.\n     */\n    function getIncreaseAllowancePreSignedHash(\n        address _token,\n        address _spender,\n        uint256 _addedValue,\n        uint256 _fee,\n        uint256 _nonce\n    )\n        public\n        pure\n        returns (bytes32)\n    {\n        /* \"138e8da1\": getIncreaseAllowancePreSignedHash(address,address,uint256,uint256,uint256) */\n        return keccak256(abi.encodePacked(bytes4(0x138e8da1), _token, _spender, _addedValue, _fee, _nonce));\n    }\n\n     /**\n      * @dev Hash (keccak256) of the payload used by decreaseAllowancePreSigned\n      * @notice fee will be given to sender if it's a smart contract make sure it can accept funds\n      * @param _token address The address of the token\n      * @param _spender address The address which will spend the funds.\n      * @param _subtractedValue uint256 The amount of tokens to decrease the allowance by.\n      * @param _fee uint256 The amount of tokens paid to msg.sender, by the owner.\n      * @param _nonce uint256 Presigned transaction number.\n      */\n    function getDecreaseAllowancePreSignedHash(\n        address _token,\n        address _spender,\n        uint256 _subtractedValue,\n        uint256 _fee,\n        uint256 _nonce\n    )\n        public\n        pure\n        returns (bytes32)\n    {\n        /* \"5229c56f\": getDecreaseAllowancePreSignedHash(address,address,uint256,uint256,uint256) */\n        return keccak256(abi.encodePacked(bytes4(0x5229c56f), _token, _spender, _subtractedValue, _fee, _nonce));\n    }\n\n    /**\n     * @dev Hash (keccak256) of the payload used by transferFromPreSigned\n     * @notice fee will be given to sender if it's a smart contract make sure it can accept funds\n     * @param _token address The address of the token\n     * @param _from address The address which you want to send tokens from.\n     * @param _to address The address which you want to transfer to.\n     * @param _value uint256 The amount of tokens to be transferred.\n     * @param _fee uint256 The amount of tokens paid to msg.sender, by the spender.\n     * @param _nonce uint256 Presigned transaction number.\n     */\n    function getTransferFromPreSignedHash(\n        address _token,\n        address _from,\n        address _to,\n        uint256 _value,\n        uint256 _fee,\n        uint256 _nonce\n    )\n        public\n        pure\n        returns (bytes32)\n    {\n        /* \"a70c41b4\": getTransferFromPreSignedHash(address,address,address,uint256,uint256,uint256) */\n        return keccak256(abi.encodePacked(bytes4(0xa70c41b4), _token, _from, _to, _value, _fee, _nonce));\n    }\n}",
  "sourcePath": "/Users/donald/projects/props/props-token-distribution/contracts/token/ERC865Token.sol",
  "compiler": {
    "name": "solc",
    "version": "0.4.24+commit.e67f0147.Emscripten.clang"
  },
  "schemaVersion": "2.0.1",
  "updatedAt": "2019-09-04T15:42:46.658Z"
}