{
  "contractName": "ERC865Token",
  "abi": [
    {
      "constant": false,
      "inputs": [
        {
          "name": "spender",
          "type": "address"
        },
        {
          "name": "value",
          "type": "uint256"
        }
      ],
      "name": "approve",
      "outputs": [
        {
          "name": "",
          "type": "bool"
        }
      ],
      "payable": false,
      "stateMutability": "nonpayable",
      "type": "function"
    },
    {
      "constant": true,
      "inputs": [],
      "name": "totalSupply",
      "outputs": [
        {
          "name": "",
          "type": "uint256"
        }
      ],
      "payable": false,
      "stateMutability": "view",
      "type": "function"
    },
    {
      "constant": false,
      "inputs": [
        {
          "name": "from",
          "type": "address"
        },
        {
          "name": "to",
          "type": "address"
        },
        {
          "name": "value",
          "type": "uint256"
        }
      ],
      "name": "transferFrom",
      "outputs": [
        {
          "name": "",
          "type": "bool"
        }
      ],
      "payable": false,
      "stateMutability": "nonpayable",
      "type": "function"
    },
    {
      "constant": false,
      "inputs": [
        {
          "name": "spender",
          "type": "address"
        },
        {
          "name": "addedValue",
          "type": "uint256"
        }
      ],
      "name": "increaseAllowance",
      "outputs": [
        {
          "name": "",
          "type": "bool"
        }
      ],
      "payable": false,
      "stateMutability": "nonpayable",
      "type": "function"
    },
    {
      "constant": true,
      "inputs": [
        {
          "name": "owner",
          "type": "address"
        }
      ],
      "name": "balanceOf",
      "outputs": [
        {
          "name": "",
          "type": "uint256"
        }
      ],
      "payable": false,
      "stateMutability": "view",
      "type": "function"
    },
    {
      "constant": false,
      "inputs": [
        {
          "name": "spender",
          "type": "address"
        },
        {
          "name": "subtractedValue",
          "type": "uint256"
        }
      ],
      "name": "decreaseAllowance",
      "outputs": [
        {
          "name": "",
          "type": "bool"
        }
      ],
      "payable": false,
      "stateMutability": "nonpayable",
      "type": "function"
    },
    {
      "constant": false,
      "inputs": [
        {
          "name": "to",
          "type": "address"
        },
        {
          "name": "value",
          "type": "uint256"
        }
      ],
      "name": "transfer",
      "outputs": [
        {
          "name": "",
          "type": "bool"
        }
      ],
      "payable": false,
      "stateMutability": "nonpayable",
      "type": "function"
    },
    {
      "constant": true,
      "inputs": [
        {
          "name": "owner",
          "type": "address"
        },
        {
          "name": "spender",
          "type": "address"
        }
      ],
      "name": "allowance",
      "outputs": [
        {
          "name": "",
          "type": "uint256"
        }
      ],
      "payable": false,
      "stateMutability": "view",
      "type": "function"
    },
    {
      "anonymous": false,
      "inputs": [
        {
          "indexed": true,
          "name": "from",
          "type": "address"
        },
        {
          "indexed": true,
          "name": "to",
          "type": "address"
        },
        {
          "indexed": true,
          "name": "delegate",
          "type": "address"
        },
        {
          "indexed": false,
          "name": "amount",
          "type": "uint256"
        },
        {
          "indexed": false,
          "name": "fee",
          "type": "uint256"
        }
      ],
      "name": "TransferPreSigned",
      "type": "event"
    },
    {
      "anonymous": false,
      "inputs": [
        {
          "indexed": true,
          "name": "from",
          "type": "address"
        },
        {
          "indexed": true,
          "name": "to",
          "type": "address"
        },
        {
          "indexed": true,
          "name": "delegate",
          "type": "address"
        },
        {
          "indexed": false,
          "name": "amount",
          "type": "uint256"
        },
        {
          "indexed": false,
          "name": "fee",
          "type": "uint256"
        }
      ],
      "name": "ApprovalPreSigned",
      "type": "event"
    },
    {
      "anonymous": false,
      "inputs": [
        {
          "indexed": true,
          "name": "from",
          "type": "address"
        },
        {
          "indexed": true,
          "name": "to",
          "type": "address"
        },
        {
          "indexed": false,
          "name": "value",
          "type": "uint256"
        }
      ],
      "name": "Transfer",
      "type": "event"
    },
    {
      "anonymous": false,
      "inputs": [
        {
          "indexed": true,
          "name": "owner",
          "type": "address"
        },
        {
          "indexed": true,
          "name": "spender",
          "type": "address"
        },
        {
          "indexed": false,
          "name": "value",
          "type": "uint256"
        }
      ],
      "name": "Approval",
      "type": "event"
    },
    {
      "constant": false,
      "inputs": [
        {
          "name": "_signature",
          "type": "bytes"
        },
        {
          "name": "_to",
          "type": "address"
        },
        {
          "name": "_value",
          "type": "uint256"
        },
        {
          "name": "_fee",
          "type": "uint256"
        },
        {
          "name": "_nonce",
          "type": "uint256"
        }
      ],
      "name": "transferPreSigned",
      "outputs": [
        {
          "name": "",
          "type": "bool"
        }
      ],
      "payable": false,
      "stateMutability": "nonpayable",
      "type": "function"
    },
    {
      "constant": false,
      "inputs": [
        {
          "name": "_signature",
          "type": "bytes"
        },
        {
          "name": "_spender",
          "type": "address"
        },
        {
          "name": "_value",
          "type": "uint256"
        },
        {
          "name": "_fee",
          "type": "uint256"
        },
        {
          "name": "_nonce",
          "type": "uint256"
        }
      ],
      "name": "approvePreSigned",
      "outputs": [
        {
          "name": "",
          "type": "bool"
        }
      ],
      "payable": false,
      "stateMutability": "nonpayable",
      "type": "function"
    },
    {
      "constant": false,
      "inputs": [
        {
          "name": "_signature",
          "type": "bytes"
        },
        {
          "name": "_spender",
          "type": "address"
        },
        {
          "name": "_addedValue",
          "type": "uint256"
        },
        {
          "name": "_fee",
          "type": "uint256"
        },
        {
          "name": "_nonce",
          "type": "uint256"
        }
      ],
      "name": "increaseApprovalPreSigned",
      "outputs": [
        {
          "name": "",
          "type": "bool"
        }
      ],
      "payable": false,
      "stateMutability": "nonpayable",
      "type": "function"
    },
    {
      "constant": false,
      "inputs": [
        {
          "name": "_signature",
          "type": "bytes"
        },
        {
          "name": "_spender",
          "type": "address"
        },
        {
          "name": "_subtractedValue",
          "type": "uint256"
        },
        {
          "name": "_fee",
          "type": "uint256"
        },
        {
          "name": "_nonce",
          "type": "uint256"
        }
      ],
      "name": "decreaseApprovalPreSigned",
      "outputs": [
        {
          "name": "",
          "type": "bool"
        }
      ],
      "payable": false,
      "stateMutability": "nonpayable",
      "type": "function"
    },
    {
      "constant": false,
      "inputs": [
        {
          "name": "_signature",
          "type": "bytes"
        },
        {
          "name": "_from",
          "type": "address"
        },
        {
          "name": "_to",
          "type": "address"
        },
        {
          "name": "_value",
          "type": "uint256"
        },
        {
          "name": "_fee",
          "type": "uint256"
        },
        {
          "name": "_nonce",
          "type": "uint256"
        }
      ],
      "name": "transferFromPreSigned",
      "outputs": [
        {
          "name": "",
          "type": "bool"
        }
      ],
      "payable": false,
      "stateMutability": "nonpayable",
      "type": "function"
    },
    {
      "constant": true,
      "inputs": [
        {
          "name": "_token",
          "type": "address"
        },
        {
          "name": "_to",
          "type": "address"
        },
        {
          "name": "_value",
          "type": "uint256"
        },
        {
          "name": "_fee",
          "type": "uint256"
        },
        {
          "name": "_nonce",
          "type": "uint256"
        }
      ],
      "name": "transferPreSignedHashing",
      "outputs": [
        {
          "name": "",
          "type": "bytes32"
        }
      ],
      "payable": false,
      "stateMutability": "pure",
      "type": "function"
    },
    {
      "constant": true,
      "inputs": [
        {
          "name": "_token",
          "type": "address"
        },
        {
          "name": "_spender",
          "type": "address"
        },
        {
          "name": "_value",
          "type": "uint256"
        },
        {
          "name": "_fee",
          "type": "uint256"
        },
        {
          "name": "_nonce",
          "type": "uint256"
        }
      ],
      "name": "approvePreSignedHashing",
      "outputs": [
        {
          "name": "",
          "type": "bytes32"
        }
      ],
      "payable": false,
      "stateMutability": "pure",
      "type": "function"
    },
    {
      "constant": true,
      "inputs": [
        {
          "name": "_token",
          "type": "address"
        },
        {
          "name": "_spender",
          "type": "address"
        },
        {
          "name": "_addedValue",
          "type": "uint256"
        },
        {
          "name": "_fee",
          "type": "uint256"
        },
        {
          "name": "_nonce",
          "type": "uint256"
        }
      ],
      "name": "increaseApprovalPreSignedHashing",
      "outputs": [
        {
          "name": "",
          "type": "bytes32"
        }
      ],
      "payable": false,
      "stateMutability": "pure",
      "type": "function"
    },
    {
      "constant": true,
      "inputs": [
        {
          "name": "_token",
          "type": "address"
        },
        {
          "name": "_spender",
          "type": "address"
        },
        {
          "name": "_subtractedValue",
          "type": "uint256"
        },
        {
          "name": "_fee",
          "type": "uint256"
        },
        {
          "name": "_nonce",
          "type": "uint256"
        }
      ],
      "name": "decreaseApprovalPreSignedHashing",
      "outputs": [
        {
          "name": "",
          "type": "bytes32"
        }
      ],
      "payable": false,
      "stateMutability": "pure",
      "type": "function"
    },
    {
      "constant": true,
      "inputs": [
        {
          "name": "_token",
          "type": "address"
        },
        {
          "name": "_from",
          "type": "address"
        },
        {
          "name": "_to",
          "type": "address"
        },
        {
          "name": "_value",
          "type": "uint256"
        },
        {
          "name": "_fee",
          "type": "uint256"
        },
        {
          "name": "_nonce",
          "type": "uint256"
        }
      ],
      "name": "transferFromPreSignedHashing",
      "outputs": [
        {
          "name": "",
          "type": "bytes32"
        }
      ],
      "payable": false,
      "stateMutability": "pure",
      "type": "function"
    }
  ],
  "bytecode": "0x608060405234801561001057600080fd5b50611551806100206000396000f3006080604052600436106100fb5763ffffffff7c0100000000000000000000000000000000000000000000000000000000600035041663095ea7b381146101005780631296830d1461013857806315420b71146101ab57806318160ddd146101ed57806323b872dd14610202578063395093511461022c57806359388d7814610250578063617b390b1461028057806370a08231146102f35780638be5278314610314578063a457c2d714610387578063a45f71ff146103ab578063a9059cbb146103db578063adb8249e146103ff578063b7656dc514610472578063bca50515146104a8578063dd62ed3e14610525578063f7ac9c2e1461054c575b600080fd5b34801561010c57600080fd5b50610124600160a060020a036004351660243561057c565b604080519115158252519081900360200190f35b34801561014457600080fd5b506040805160206004803580820135601f810184900484028501840190955284845261012494369492936024939284019190819084018382808284375094975050508335600160a060020a0316945050506020820135916040810135915060600135610592565b3480156101b757600080fd5b506101db600160a060020a0360043581169060243516604435606435608435610721565b60408051918252519081900360200190f35b3480156101f957600080fd5b506101db610805565b34801561020e57600080fd5b50610124600160a060020a036004358116906024351660443561080b565b34801561023857600080fd5b50610124600160a060020a0360043516602435610862565b34801561025c57600080fd5b506101db600160a060020a036004358116906024351660443560643560843561089e565b34801561028c57600080fd5b506040805160206004803580820135601f810184900484028501840190955284845261012494369492936024939284019190819084018382808284375094975050508335600160a060020a031694505050602082013591604081013591506060013561094b565b3480156102ff57600080fd5b506101db600160a060020a0360043516610ada565b34801561032057600080fd5b506040805160206004803580820135601f810184900484028501840190955284845261012494369492936024939284019190819084018382808284375094975050508335600160a060020a0316945050506020820135916040810135915060600135610af5565b34801561039357600080fd5b50610124600160a060020a0360043516602435610cc2565b3480156103b757600080fd5b506101db600160a060020a0360043581169060243516604435606435608435610cfe565b3480156103e757600080fd5b50610124600160a060020a0360043516602435610dab565b34801561040b57600080fd5b506040805160206004803580820135601f810184900484028501840190955284845261012494369492936024939284019190819084018382808284375094975050508335600160a060020a0316945050506020820135916040810135915060600135610db8565b34801561047e57600080fd5b506101db600160a060020a036004358116906024358116906044351660643560843560a435610f5e565b3480156104b457600080fd5b506040805160206004803580820135601f810184900484028501840190955284845261012494369492936024939284019190819084018382808284375094975050600160a060020a0385358116965060208601351694604081013594506060810135935060800135915061104d9050565b34801561053157600080fd5b506101db600160a060020a03600435811690602435166111c8565b34801561055857600080fd5b506101db600160a060020a03600435811690602435166044356064356084356111f3565b60006105893384846112a0565b50600192915050565b6000808080600160a060020a03881615156105ac57600080fd5b6105b93089898989610721565b92506105c5838a61132c565b9150600160a060020a03821615156105dc57600080fd5b604080516c01000000000000000000000000600160a060020a03851602602080830191909152603480830187905283518084039091018152605490920192839052815191929182918401908083835b6020831061064a5780518252601f19909201916020918201910161062b565b51815160209384036101000a6000190180199092169116179052604080519290940182900390912060008181526068909252929020549194505060ff16159150610695905057600080fd5b6106a0828989611401565b6106ab823388611401565b600081815260686020908152604091829020805460ff19166001179055815189815290810188905281513392600160a060020a038c811693908716927fec5a73fd1f178be20c1bca1b406cbf4b5c20d833b66e582fc122fb4baa0fc2a4929181900390910190a450600198975050505050505050565b604080517f15420b71000000000000000000000000000000000000000000000000000000006020808301919091526c01000000000000000000000000600160a060020a03808a16820260248501528816026038830152604c8201869052606c8201859052608c8083018590528351808403909101815260ac909201928390528151600093918291908401908083835b602083106107cf5780518252601f1990920191602091820191016107b0565b5181516020939093036101000a600019018019909116921691909117905260405192018290039091209998505050505050505050565b60355490565b6000610818848484611401565b600160a060020a038416600090815260346020908152604080832033808552925290912054610858918691610853908663ffffffff6114f516565b6112a0565b5060019392505050565b336000818152603460209081526040808320600160a060020a03871684529091528120549091610589918590610853908663ffffffff61150c16565b604080517f59388d78000000000000000000000000000000000000000000000000000000006020808301919091526c01000000000000000000000000600160a060020a03808a16820260248501528816026038830152604c8201869052606c8201859052608c8083018590528351808403909101815260ac90920192839052815160009391829190840190808383602083106107cf5780518252601f1990920191602091820191016107b0565b6000808080600160a060020a038816151561096557600080fd5b61097230898989896111f3565b925061097e838a61132c565b9150600160a060020a038216151561099557600080fd5b604080516c01000000000000000000000000600160a060020a03851602602080830191909152603480830187905283518084039091018152605490920192839052815191929182918401908083835b60208310610a035780518252601f1990920191602091820191016109e4565b51815160209384036101000a6000190180199092169116179052604080519290940182900390912060008181526068909252929020549194505060ff16159150610a4e905057600080fd5b610a598289896112a0565b610a64823388611401565b600081815260686020908152604091829020805460ff19166001179055815189815290810188905281513392600160a060020a038c811693908716927f43a220267705e74ee2ceafd46afc841850db6f85a662189a7def697bbdd90ffb929181900390910190a450600198975050505050505050565b600160a060020a031660009081526033602052604090205490565b600080808080600160a060020a0389161515610b1057600080fd5b610b1d308a8a8a8a61089e565b9350610b29848b61132c565b9250600160a060020a0383161515610b4057600080fd5b604080516c01000000000000000000000000600160a060020a03861602602080830191909152603480830188905283518084039091018152605490920192839052815191929182918401908083835b60208310610bae5780518252601f199092019160209182019101610b8f565b51815160209384036101000a6000190180199092169116179052604080519290940182900390912060008181526068909252929020549195505060ff16159150610bf9905057600080fd5b610c03838a6111c8565b905080881115610c1e57610c19838a60006112a0565b610c3d565b610c3d838a6108538b610c31888f6111c8565b9063ffffffff6114f516565b610c48833389611401565b6000828152606860205260409020805460ff1916600117905533600160a060020a038a81169085167f43a220267705e74ee2ceafd46afc841850db6f85a662189a7def697bbdd90ffb610c9b878e6111c8565b60408051918252602082018d90528051918290030190a45060019998505050505050505050565b336000818152603460209081526040808320600160a060020a03871684529091528120549091610589918590610853908663ffffffff6114f516565b604080517fa45f71ff000000000000000000000000000000000000000000000000000000006020808301919091526c01000000000000000000000000600160a060020a03808a16820260248501528816026038830152604c8201869052606c8201859052608c8083018590528351808403909101815260ac90920192839052815160009391829190840190808383602083106107cf5780518252601f1990920191602091820191016107b0565b6000610589338484611401565b6000808080600160a060020a0388161515610dd257600080fd5b610ddf3089898989610cfe565b9250610deb838a61132c565b9150600160a060020a0382161515610e0257600080fd5b604080516c01000000000000000000000000600160a060020a03851602602080830191909152603480830187905283518084039091018152605490920192839052815191929182918401908083835b60208310610e705780518252601f199092019160209182019101610e51565b51815160209384036101000a6000190180199092169116179052604080519290940182900390912060008181526068909252929020549194505060ff16159150610ebb905057600080fd5b610eda82896108538a610ece878e6111c8565b9063ffffffff61150c16565b610ee5823388611401565b6000818152606860205260409020805460ff1916600117905533600160a060020a038981169084167f43a220267705e74ee2ceafd46afc841850db6f85a662189a7def697bbdd90ffb610f38868d6111c8565b60408051918252602082018c90528051918290030190a450600198975050505050505050565b604080517fb7656dc5000000000000000000000000000000000000000000000000000000006020808301919091526c01000000000000000000000000600160a060020a03808b1682026024850152808a1682026038850152881602604c830152606082018690526080820185905260a08083018590528351808403909101815260c0909201928390528151600093918291908401908083835b602083106110165780518252601f199092019160209182019101610ff7565b5181516020939093036101000a600019018019909116921691909117905260405192018290039091209a9950505050505050505050565b600080600080611061308a8a8a8a8a610f5e565b925061106d838b61132c565b604080516c01000000000000000000000000600160a060020a038416026020808301919091526034808301889052835180840390910181526054909201928390528151939550909282918401908083835b602083106110dd5780518252601f1990920191602091820191016110be565b51815160209384036101000a6000190180199092169116179052604080519290940182900390912060008181526068909252929020549194505060ff16159150611128905057600080fd5b611133898989611401565b61114689836108538a610c318e886111c8565b611151823388611401565b600081815260686020908152604091829020805460ff19166001179055815189815290810188905281513392600160a060020a038c811693908e16927fec5a73fd1f178be20c1bca1b406cbf4b5c20d833b66e582fc122fb4baa0fc2a4929181900390910190a45060019998505050505050505050565b600160a060020a03918216600090815260346020908152604080832093909416825291909152205490565b604080517ff7ac9c2e000000000000000000000000000000000000000000000000000000006020808301919091526c01000000000000000000000000600160a060020a03808a16820260248501528816026038830152604c8201869052606c8201859052608c8083018590528351808403909101815260ac90920192839052815160009391829190840190808383602083106107cf5780518252601f1990920191602091820191016107b0565b600160a060020a03821615156112b557600080fd5b600160a060020a03831615156112ca57600080fd5b600160a060020a03808416600081815260346020908152604080832094871680845294825291829020859055815185815291517f8c5be1e5ebec7d5bd14f71427d1e84f3dd0314c0f7b2291e5b200ac8c7c3b9259281900390910190a3505050565b6000806000808451604114151561134657600093506113f8565b50505060208201516040830151606084015160001a601b60ff8216101561136b57601b015b8060ff16601b1415801561138357508060ff16601c14155b1561139157600093506113f8565b60408051600080825260208083018085528a905260ff8516838501526060830187905260808301869052925160019360a0808501949193601f19840193928390039091019190865af11580156113eb573d6000803e3d6000fd5b5050506020604051035193505b50505092915050565b600160a060020a03831660009081526033602052604090205481111561142657600080fd5b600160a060020a038216151561143b57600080fd5b600160a060020a038316600090815260336020526040902054611464908263ffffffff6114f516565b600160a060020a038085166000908152603360205260408082209390935590841681522054611499908263ffffffff61150c16565b600160a060020a0380841660008181526033602090815260409182902094909455805185815290519193928716927fddf252ad1be2c89b69c2b068fc378daa952ba7f163c4a11628f55a4df523b3ef92918290030190a3505050565b6000808383111561150557600080fd5b5050900390565b60008282018381101561151e57600080fd5b93925050505600a165627a7a723058204f5150de59d0de0b1cea826fe77590ff1070dee98e40b7f77b6626e6533f17e40029",
  "source": "pragma solidity ^0.4.24;\n\nimport { ECDSA } from \"openzeppelin-eth/contracts/cryptography/ECDSA.sol\";\nimport \"./ERC865.sol\";\n\n/**\n * @title ERC865Token Token\n *\n * ERC865Token allows users paying transfers in tokens instead of gas\n * https://github.com/ethereum/EIPs/issues/865\n *\n */\n\ncontract ERC865Token is ERC865 {\n\n    /* hashed tx of transfers performed */\n    mapping(bytes32 => bool) hashedTxs;\n\n    event TransferPreSigned(address indexed from, address indexed to, address indexed delegate, uint256 amount, uint256 fee);\n    event ApprovalPreSigned(address indexed from, address indexed to, address indexed delegate, uint256 amount, uint256 fee);\n    /**\n     * @notice Submit a presigned transfer\n     * @param _signature bytes The signature, issued by the owner.\n     * @param _to address The address which you want to transfer to.\n     * @param _value uint256 The amount of tokens to be transferred.\n     * @param _fee uint256 The amount of tokens paid to msg.sender, by the owner.\n     * @param _nonce uint256 Presigned transaction number.\n     */\n    function transferPreSigned(\n        bytes _signature,\n        address _to,\n        uint256 _value,\n        uint256 _fee,\n        uint256 _nonce\n    )\n        public\n        returns (bool)\n    {        \n        require(_to != address(0));        \n\n        bytes32 hashedParams = transferPreSignedHashing(address(this), _to, _value, _fee, _nonce);\n        address from = ECDSA.recover(hashedParams, _signature);     \n        require(from != address(0));\n        bytes32 hashedTx = keccak256(abi.encodePacked(from, hashedParams));\n        require(hashedTxs[hashedTx] == false);\n        _transfer(from, _to, _value);\n        _transfer(from, msg.sender, _fee);        \n        hashedTxs[hashedTx] = true;\n\n        emit TransferPreSigned(from, _to, msg.sender, _value, _fee);\n        return true;\n    }\n\n    /**\n     * @notice Submit a presigned approval\n     * @param _signature bytes The signature, issued by the owner.\n     * @param _spender address The address which will spend the funds.\n     * @param _value uint256 The amount of tokens to allow.\n     * @param _fee uint256 The amount of tokens paid to msg.sender, by the owner.\n     * @param _nonce uint256 Presigned transaction number.\n     */\n    function approvePreSigned(\n        bytes _signature,\n        address _spender,\n        uint256 _value,\n        uint256 _fee,\n        uint256 _nonce\n    )\n        public\n        returns (bool)\n    {\n        require(_spender != address(0));        \n\n        bytes32 hashedParams = approvePreSignedHashing(address(this), _spender, _value, _fee, _nonce);\n        address from = ECDSA.recover(hashedParams, _signature);\n        require(from != address(0));\n        bytes32 hashedTx = keccak256(abi.encodePacked(from, hashedParams));\n        require(hashedTxs[hashedTx] == false);\n        _approve(from, _spender, _value);        \n        _transfer(from, msg.sender, _fee);        \n        hashedTxs[hashedTx] = true;\n\n        emit ApprovalPreSigned(from, _spender, msg.sender, _value, _fee);\n        return true;\n    }\n\n    /**\n     * @notice Increase the amount of tokens that an owner allowed to a spender.\n     * @param _signature bytes The signature, issued by the owner.\n     * @param _spender address The address which will spend the funds.\n     * @param _addedValue uint256 The amount of tokens to increase the allowance by.\n     * @param _fee uint256 The amount of tokens paid to msg.sender, by the owner.\n     * @param _nonce uint256 Presigned transaction number.\n     */\n    function increaseApprovalPreSigned(\n        bytes _signature,\n        address _spender,\n        uint256 _addedValue,\n        uint256 _fee,\n        uint256 _nonce\n    )\n        public\n        returns (bool)\n    {\n        require(_spender != address(0));        \n\n        bytes32 hashedParams = increaseApprovalPreSignedHashing(address(this), _spender, _addedValue, _fee, _nonce);\n        address from = ECDSA.recover(hashedParams, _signature);\n        require(from != address(0));\n        bytes32 hashedTx = keccak256(abi.encodePacked(from, hashedParams));\n        require(hashedTxs[hashedTx] == false);\n        _approve(from, _spender, allowance(from, _spender).add(_addedValue));        \n        _transfer(from, msg.sender, _fee);        \n        hashedTxs[hashedTx] = true;\n\n        emit ApprovalPreSigned(from, _spender, msg.sender, allowance(from, _spender), _fee);\n        return true;\n    }\n\n    /**\n     * @notice Decrease the amount of tokens that an owner allowed to a spender.\n     * @param _signature bytes The signature, issued by the owner\n     * @param _spender address The address which will spend the funds.\n     * @param _subtractedValue uint256 The amount of tokens to decrease the allowance by.\n     * @param _fee uint256 The amount of tokens paid to msg.sender, by the owner.\n     * @param _nonce uint256 Presigned transaction number.\n     */\n    function decreaseApprovalPreSigned(\n        bytes _signature,\n        address _spender,\n        uint256 _subtractedValue,\n        uint256 _fee,\n        uint256 _nonce\n    )\n        public\n        returns (bool)\n    {\n        require(_spender != address(0));        \n\n        bytes32 hashedParams = decreaseApprovalPreSignedHashing(address(this), _spender, _subtractedValue, _fee, _nonce);\n        address from = ECDSA.recover(hashedParams, _signature);\n        require(from != address(0));\n        bytes32 hashedTx = keccak256(abi.encodePacked(from, hashedParams));\n        require(hashedTxs[hashedTx] == false);\n        uint oldValue = allowance(from, _spender);\n        if (_subtractedValue > oldValue) {\n            _approve(from, _spender, 0);            \n        } else {\n            _approve(from, _spender, allowance(from,_spender).sub(_subtractedValue));            \n        }\n        _transfer(from, msg.sender, _fee);        \n        hashedTxs[hashedTx] = true;\n\n        emit ApprovalPreSigned(from, _spender, msg.sender, allowance(from, _spender), _fee);\n        return true;\n    }\n\n    /**\n     * @notice Transfer tokens from one address to another\n     * @param _signature bytes The signature, issued by the spender.\n     * @param _from address The address which you want to send tokens from.\n     * @param _to address The address which you want to transfer to.\n     * @param _value uint256 The amount of tokens to be transferred.\n     * @param _fee uint256 The amount of tokens paid to msg.sender, by the spender.\n     * @param _nonce uint256 Presigned transaction number.\n     */\n    function transferFromPreSigned(\n        bytes _signature,\n        address _from,\n        address _to,\n        uint256 _value,\n        uint256 _fee,\n        uint256 _nonce\n    )\n        public\n        returns (bool)\n    {\n        //require(_to != address(0));        \n\n        bytes32 hashedParams = transferFromPreSignedHashing(address(this), _from, _to, _value, _fee, _nonce);\n\n        address spender = ECDSA.recover(hashedParams, _signature);\n        //require(spender != address(0));\n        bytes32 hashedTx = keccak256(abi.encodePacked(spender, hashedParams));\n        require(hashedTxs[hashedTx] == false);\n        _transfer(_from, _to, _value);        \n        _approve(_from, spender, allowance(_from, spender).sub(_value));        \n        _transfer(spender, msg.sender, _fee);        \n        hashedTxs[hashedTx] = true;\n\n        emit TransferPreSigned(_from, _to, msg.sender, _value, _fee);\n        return true;\n    }\n\n\n    /**\n     * @notice Hash (keccak256) of the payload used by transferPreSigned\n     * @param _token address The address of the token.\n     * @param _to address The address which you want to transfer to.\n     * @param _value uint256 The amount of tokens to be transferred.\n     * @param _fee uint256 The amount of tokens paid to msg.sender, by the owner.\n     * @param _nonce uint256 Presigned transaction number.\n     */\n    function transferPreSignedHashing(\n        address _token,\n        address _to,\n        uint256 _value,\n        uint256 _fee,\n        uint256 _nonce\n    )\n        public\n        pure\n        returns (bytes32)\n    {\n        /* \"15420b71\": transferPreSignedHashing(address,address,uint256,uint256,uint256) */\n        return keccak256(abi.encodePacked(bytes4(0x15420b71), _token, _to, _value, _fee, _nonce));\n    }\n\n    /**\n     * @notice Hash (keccak256) of the payload used by approvePreSigned\n     * @param _token address The address of the token\n     * @param _spender address The address which will spend the funds.\n     * @param _value uint256 The amount of tokens to allow.\n     * @param _fee uint256 The amount of tokens paid to msg.sender, by the owner.\n     * @param _nonce uint256 Presigned transaction number.\n     */\n    function approvePreSignedHashing(\n        address _token,\n        address _spender,\n        uint256 _value,\n        uint256 _fee,\n        uint256 _nonce\n    )\n        public\n        pure\n        returns (bytes32)\n    {\n        /* \"f7ac9c2e\": approvePreSignedHashing(address,address,uint256,uint256,uint256) */\n        return keccak256(abi.encodePacked(bytes4(0xf7ac9c2e), _token, _spender, _value, _fee, _nonce));\n    }\n\n    /**\n     * @notice Hash (keccak256) of the payload used by increaseApprovalPreSigned\n     * @param _token address The address of the token\n     * @param _spender address The address which will spend the funds.\n     * @param _addedValue uint256 The amount of tokens to increase the allowance by.\n     * @param _fee uint256 The amount of tokens paid to msg.sender, by the owner.\n     * @param _nonce uint256 Presigned transaction number.\n     */\n    function increaseApprovalPreSignedHashing(\n        address _token,\n        address _spender,\n        uint256 _addedValue,\n        uint256 _fee,\n        uint256 _nonce\n    )\n        public\n        pure\n        returns (bytes32)\n    {\n        /* \"a45f71ff\": increaseApprovalPreSignedHashing(address,address,uint256,uint256,uint256) */\n        return keccak256(abi.encodePacked(bytes4(0xa45f71ff), _token, _spender, _addedValue, _fee, _nonce));\n    }\n\n     /**\n      * @notice Hash (keccak256) of the payload used by decreaseApprovalPreSigned\n      * @param _token address The address of the token\n      * @param _spender address The address which will spend the funds.\n      * @param _subtractedValue uint256 The amount of tokens to decrease the allowance by.\n      * @param _fee uint256 The amount of tokens paid to msg.sender, by the owner.\n      * @param _nonce uint256 Presigned transaction number.\n      */\n    function decreaseApprovalPreSignedHashing(\n        address _token,\n        address _spender,\n        uint256 _subtractedValue,\n        uint256 _fee,\n        uint256 _nonce\n    )\n        public\n        pure\n        returns (bytes32)\n    {\n        /* \"59388d78\": decreaseApprovalPreSignedHashing(address,address,uint256,uint256,uint256) */\n        return keccak256(abi.encodePacked(bytes4(0x59388d78), _token, _spender, _subtractedValue, _fee, _nonce));\n    }\n\n    /**\n     * @notice Hash (keccak256) of the payload used by transferFromPreSigned\n     * @param _token address The address of the token\n     * @param _from address The address which you want to send tokens from.\n     * @param _to address The address which you want to transfer to.\n     * @param _value uint256 The amount of tokens to be transferred.\n     * @param _fee uint256 The amount of tokens paid to msg.sender, by the spender.\n     * @param _nonce uint256 Presigned transaction number.\n     */\n    function transferFromPreSignedHashing(\n        address _token,\n        address _from,\n        address _to,\n        uint256 _value,\n        uint256 _fee,\n        uint256 _nonce\n    )\n        public\n        pure\n        returns (bytes32)\n    {\n        /* \"b7656dc5\": transferFromPreSignedHashing(address,address,address,uint256,uint256,uint256) */\n        return keccak256(abi.encodePacked(bytes4(0xb7656dc5), _token, _from, _to, _value, _fee, _nonce));\n    }\n}",
  "sourcePath": "/Users/jretina/Programming/PROPSProject/props-token-distribution/contracts/token/ERC865Token.sol",
  "compiler": {
    "name": "solc",
    "version": "0.4.24+commit.e67f0147.Emscripten.clang"
  },
  "schemaVersion": "2.0.1",
  "updatedAt": "2019-02-25T22:59:41.798Z"
}