{
  "contractName": "ERC865Token",
  "abi": [
    {
      "constant": false,
      "inputs": [
        {
          "name": "_spender",
          "type": "address"
        },
        {
          "name": "_value",
          "type": "uint256"
        }
      ],
      "name": "approve",
      "outputs": [
        {
          "name": "",
          "type": "bool"
        }
      ],
      "payable": false,
      "stateMutability": "nonpayable",
      "type": "function"
    },
    {
      "constant": false,
      "inputs": [
        {
          "name": "_signature",
          "type": "bytes"
        },
        {
          "name": "_to",
          "type": "address"
        },
        {
          "name": "_value",
          "type": "uint256"
        },
        {
          "name": "_fee",
          "type": "uint256"
        },
        {
          "name": "_nonce",
          "type": "uint256"
        }
      ],
      "name": "transferPreSigned",
      "outputs": [
        {
          "name": "",
          "type": "bool"
        }
      ],
      "payable": false,
      "stateMutability": "nonpayable",
      "type": "function"
    },
    {
      "constant": true,
      "inputs": [
        {
          "name": "_token",
          "type": "address"
        },
        {
          "name": "_to",
          "type": "address"
        },
        {
          "name": "_value",
          "type": "uint256"
        },
        {
          "name": "_fee",
          "type": "uint256"
        },
        {
          "name": "_nonce",
          "type": "uint256"
        }
      ],
      "name": "transferPreSignedHashing",
      "outputs": [
        {
          "name": "",
          "type": "bytes32"
        }
      ],
      "payable": false,
      "stateMutability": "pure",
      "type": "function"
    },
    {
      "constant": true,
      "inputs": [],
      "name": "totalSupply",
      "outputs": [
        {
          "name": "",
          "type": "uint256"
        }
      ],
      "payable": false,
      "stateMutability": "view",
      "type": "function"
    },
    {
      "constant": true,
      "inputs": [
        {
          "name": "hash",
          "type": "bytes32"
        },
        {
          "name": "sig",
          "type": "bytes"
        }
      ],
      "name": "recover",
      "outputs": [
        {
          "name": "",
          "type": "address"
        }
      ],
      "payable": false,
      "stateMutability": "pure",
      "type": "function"
    },
    {
      "constant": false,
      "inputs": [
        {
          "name": "_from",
          "type": "address"
        },
        {
          "name": "_to",
          "type": "address"
        },
        {
          "name": "_value",
          "type": "uint256"
        }
      ],
      "name": "transferFrom",
      "outputs": [
        {
          "name": "",
          "type": "bool"
        }
      ],
      "payable": false,
      "stateMutability": "nonpayable",
      "type": "function"
    },
    {
      "constant": true,
      "inputs": [
        {
          "name": "_token",
          "type": "address"
        },
        {
          "name": "_spender",
          "type": "address"
        },
        {
          "name": "_subtractedValue",
          "type": "uint256"
        },
        {
          "name": "_fee",
          "type": "uint256"
        },
        {
          "name": "_nonce",
          "type": "uint256"
        }
      ],
      "name": "decreaseApprovalPreSignedHashing",
      "outputs": [
        {
          "name": "",
          "type": "bytes32"
        }
      ],
      "payable": false,
      "stateMutability": "pure",
      "type": "function"
    },
    {
      "constant": false,
      "inputs": [
        {
          "name": "_signature",
          "type": "bytes"
        },
        {
          "name": "_spender",
          "type": "address"
        },
        {
          "name": "_value",
          "type": "uint256"
        },
        {
          "name": "_fee",
          "type": "uint256"
        },
        {
          "name": "_nonce",
          "type": "uint256"
        }
      ],
      "name": "approvePreSigned",
      "outputs": [
        {
          "name": "",
          "type": "bool"
        }
      ],
      "payable": false,
      "stateMutability": "nonpayable",
      "type": "function"
    },
    {
      "constant": false,
      "inputs": [
        {
          "name": "_spender",
          "type": "address"
        },
        {
          "name": "_subtractedValue",
          "type": "uint256"
        }
      ],
      "name": "decreaseApproval",
      "outputs": [
        {
          "name": "",
          "type": "bool"
        }
      ],
      "payable": false,
      "stateMutability": "nonpayable",
      "type": "function"
    },
    {
      "constant": true,
      "inputs": [
        {
          "name": "_owner",
          "type": "address"
        }
      ],
      "name": "balanceOf",
      "outputs": [
        {
          "name": "balance",
          "type": "uint256"
        }
      ],
      "payable": false,
      "stateMutability": "view",
      "type": "function"
    },
    {
      "constant": false,
      "inputs": [
        {
          "name": "_signature",
          "type": "bytes"
        },
        {
          "name": "_spender",
          "type": "address"
        },
        {
          "name": "_subtractedValue",
          "type": "uint256"
        },
        {
          "name": "_fee",
          "type": "uint256"
        },
        {
          "name": "_nonce",
          "type": "uint256"
        }
      ],
      "name": "decreaseApprovalPreSigned",
      "outputs": [
        {
          "name": "",
          "type": "bool"
        }
      ],
      "payable": false,
      "stateMutability": "nonpayable",
      "type": "function"
    },
    {
      "constant": true,
      "inputs": [
        {
          "name": "_token",
          "type": "address"
        },
        {
          "name": "_spender",
          "type": "address"
        },
        {
          "name": "_addedValue",
          "type": "uint256"
        },
        {
          "name": "_fee",
          "type": "uint256"
        },
        {
          "name": "_nonce",
          "type": "uint256"
        }
      ],
      "name": "increaseApprovalPreSignedHashing",
      "outputs": [
        {
          "name": "",
          "type": "bytes32"
        }
      ],
      "payable": false,
      "stateMutability": "pure",
      "type": "function"
    },
    {
      "constant": false,
      "inputs": [
        {
          "name": "_to",
          "type": "address"
        },
        {
          "name": "_value",
          "type": "uint256"
        }
      ],
      "name": "transfer",
      "outputs": [
        {
          "name": "",
          "type": "bool"
        }
      ],
      "payable": false,
      "stateMutability": "nonpayable",
      "type": "function"
    },
    {
      "constant": false,
      "inputs": [
        {
          "name": "_signature",
          "type": "bytes"
        },
        {
          "name": "_spender",
          "type": "address"
        },
        {
          "name": "_addedValue",
          "type": "uint256"
        },
        {
          "name": "_fee",
          "type": "uint256"
        },
        {
          "name": "_nonce",
          "type": "uint256"
        }
      ],
      "name": "increaseApprovalPreSigned",
      "outputs": [
        {
          "name": "",
          "type": "bool"
        }
      ],
      "payable": false,
      "stateMutability": "nonpayable",
      "type": "function"
    },
    {
      "constant": true,
      "inputs": [
        {
          "name": "_token",
          "type": "address"
        },
        {
          "name": "_from",
          "type": "address"
        },
        {
          "name": "_to",
          "type": "address"
        },
        {
          "name": "_value",
          "type": "uint256"
        },
        {
          "name": "_fee",
          "type": "uint256"
        },
        {
          "name": "_nonce",
          "type": "uint256"
        }
      ],
      "name": "transferFromPreSignedHashing",
      "outputs": [
        {
          "name": "",
          "type": "bytes32"
        }
      ],
      "payable": false,
      "stateMutability": "pure",
      "type": "function"
    },
    {
      "constant": false,
      "inputs": [
        {
          "name": "_signature",
          "type": "bytes"
        },
        {
          "name": "_from",
          "type": "address"
        },
        {
          "name": "_to",
          "type": "address"
        },
        {
          "name": "_value",
          "type": "uint256"
        },
        {
          "name": "_fee",
          "type": "uint256"
        },
        {
          "name": "_nonce",
          "type": "uint256"
        }
      ],
      "name": "transferFromPreSigned",
      "outputs": [
        {
          "name": "",
          "type": "bool"
        }
      ],
      "payable": false,
      "stateMutability": "nonpayable",
      "type": "function"
    },
    {
      "constant": false,
      "inputs": [
        {
          "name": "_spender",
          "type": "address"
        },
        {
          "name": "_addedValue",
          "type": "uint256"
        }
      ],
      "name": "increaseApproval",
      "outputs": [
        {
          "name": "",
          "type": "bool"
        }
      ],
      "payable": false,
      "stateMutability": "nonpayable",
      "type": "function"
    },
    {
      "constant": true,
      "inputs": [
        {
          "name": "_owner",
          "type": "address"
        },
        {
          "name": "_spender",
          "type": "address"
        }
      ],
      "name": "allowance",
      "outputs": [
        {
          "name": "",
          "type": "uint256"
        }
      ],
      "payable": false,
      "stateMutability": "view",
      "type": "function"
    },
    {
      "constant": true,
      "inputs": [
        {
          "name": "_token",
          "type": "address"
        },
        {
          "name": "_spender",
          "type": "address"
        },
        {
          "name": "_value",
          "type": "uint256"
        },
        {
          "name": "_fee",
          "type": "uint256"
        },
        {
          "name": "_nonce",
          "type": "uint256"
        }
      ],
      "name": "approvePreSignedHashing",
      "outputs": [
        {
          "name": "",
          "type": "bytes32"
        }
      ],
      "payable": false,
      "stateMutability": "pure",
      "type": "function"
    },
    {
      "anonymous": false,
      "inputs": [
        {
          "indexed": true,
          "name": "from",
          "type": "address"
        },
        {
          "indexed": true,
          "name": "to",
          "type": "address"
        },
        {
          "indexed": true,
          "name": "delegate",
          "type": "address"
        },
        {
          "indexed": false,
          "name": "amount",
          "type": "uint256"
        },
        {
          "indexed": false,
          "name": "fee",
          "type": "uint256"
        }
      ],
      "name": "TransferPreSigned",
      "type": "event"
    },
    {
      "anonymous": false,
      "inputs": [
        {
          "indexed": true,
          "name": "from",
          "type": "address"
        },
        {
          "indexed": true,
          "name": "to",
          "type": "address"
        },
        {
          "indexed": true,
          "name": "delegate",
          "type": "address"
        },
        {
          "indexed": false,
          "name": "amount",
          "type": "uint256"
        },
        {
          "indexed": false,
          "name": "fee",
          "type": "uint256"
        }
      ],
      "name": "ApprovalPreSigned",
      "type": "event"
    },
    {
      "anonymous": false,
      "inputs": [
        {
          "indexed": true,
          "name": "owner",
          "type": "address"
        },
        {
          "indexed": true,
          "name": "spender",
          "type": "address"
        },
        {
          "indexed": false,
          "name": "value",
          "type": "uint256"
        }
      ],
      "name": "Approval",
      "type": "event"
    },
    {
      "anonymous": false,
      "inputs": [
        {
          "indexed": true,
          "name": "from",
          "type": "address"
        },
        {
          "indexed": true,
          "name": "to",
          "type": "address"
        },
        {
          "indexed": false,
          "name": "value",
          "type": "uint256"
        }
      ],
      "name": "Transfer",
      "type": "event"
    }
  ],
  "bytecode": "0x6060604052341561000f57600080fd5b613a3b8061001e6000396000f300606060405260043610610107576000357c0100000000000000000000000000000000000000000000000000000000900463ffffffff168063095ea7b31461010c5780631296830d1461016657806315420b711461021557806318160ddd146102a457806319045a25146102cd57806323b872dd1461037757806359388d78146103f0578063617b390b1461047f578063661884631461052e57806370a08231146105885780638be52783146105d5578063a45f71ff14610684578063a9059cbb14610713578063adb8249e1461076d578063b7656dc51461081c578063bca50515146108ca578063d73dd62314610998578063dd62ed3e146109f2578063f7ac9c2e14610a5e575b600080fd5b341561011757600080fd5b61014c600480803573ffffffffffffffffffffffffffffffffffffffff16906020019091908035906020019091905050610aed565b604051808215151515815260200191505060405180910390f35b341561017157600080fd5b6101fb600480803590602001908201803590602001908080601f0160208091040260200160405190810160405280939291908181526020018383808284378201915050505050509190803573ffffffffffffffffffffffffffffffffffffffff16906020019091908035906020019091908035906020019091908035906020019091905050610bdf565b604051808215151515815260200191505060405180910390f35b341561022057600080fd5b610286600480803573ffffffffffffffffffffffffffffffffffffffff1690602001909190803573ffffffffffffffffffffffffffffffffffffffff169060200190919080359060200190919080359060200190919080359060200190919050506110ad565b60405180826000191660001916815260200191505060405180910390f35b34156102af57600080fd5b6102b76111cf565b6040518082815260200191505060405180910390f35b34156102d857600080fd5b61033560048080356000191690602001909190803590602001908201803590602001908080601f016020809104026020016040519081016040528093929190818152602001838380828437820191505050505050919050506111d9565b604051808273ffffffffffffffffffffffffffffffffffffffff1673ffffffffffffffffffffffffffffffffffffffff16815260200191505060405180910390f35b341561038257600080fd5b6103d6600480803573ffffffffffffffffffffffffffffffffffffffff1690602001909190803573ffffffffffffffffffffffffffffffffffffffff169060200190919080359060200190919050506112d7565b604051808215151515815260200191505060405180910390f35b34156103fb57600080fd5b610461600480803573ffffffffffffffffffffffffffffffffffffffff1690602001909190803573ffffffffffffffffffffffffffffffffffffffff16906020019091908035906020019091908035906020019091908035906020019091905050611691565b60405180826000191660001916815260200191505060405180910390f35b341561048a57600080fd5b610514600480803590602001908201803590602001908080601f0160208091040260200160405190810160405280939291908181526020018383808284378201915050505050509190803573ffffffffffffffffffffffffffffffffffffffff169060200190919080359060200190919080359060200190919080359060200190919050506117b3565b604051808215151515815260200191505060405180910390f35b341561053957600080fd5b61056e600480803573ffffffffffffffffffffffffffffffffffffffff16906020019091908035906020019091905050611c5d565b604051808215151515815260200191505060405180910390f35b341561059357600080fd5b6105bf600480803573ffffffffffffffffffffffffffffffffffffffff16906020019091905050611eee565b6040518082815260200191505060405180910390f35b34156105e057600080fd5b61066a600480803590602001908201803590602001908080601f0160208091040260200160405190810160405280939291908181526020018383808284378201915050505050509190803573ffffffffffffffffffffffffffffffffffffffff16906020019091908035906020019091908035906020019091908035906020019091905050611f36565b604051808215151515815260200191505060405180910390f35b341561068f57600080fd5b6106f5600480803573ffffffffffffffffffffffffffffffffffffffff1690602001909190803573ffffffffffffffffffffffffffffffffffffffff16906020019091908035906020019091908035906020019091908035906020019091905050612580565b60405180826000191660001916815260200191505060405180910390f35b341561071e57600080fd5b610753600480803573ffffffffffffffffffffffffffffffffffffffff169060200190919080359060200190919050506126a2565b604051808215151515815260200191505060405180910390f35b341561077857600080fd5b610802600480803590602001908201803590602001908080601f0160208091040260200160405190810160405280939291908181526020018383808284378201915050505050509190803573ffffffffffffffffffffffffffffffffffffffff169060200190919080359060200190919080359060200190919080359060200190919050506128c1565b604051808215151515815260200191505060405180910390f35b341561082757600080fd5b6108ac600480803573ffffffffffffffffffffffffffffffffffffffff1690602001909190803573ffffffffffffffffffffffffffffffffffffffff1690602001909190803573ffffffffffffffffffffffffffffffffffffffff16906020019091908035906020019091908035906020019091908035906020019091905050612ef1565b60405180826000191660001916815260200191505060405180910390f35b34156108d557600080fd5b61097e600480803590602001908201803590602001908080601f0160208091040260200160405190810160405280939291908181526020018383808284378201915050505050509190803573ffffffffffffffffffffffffffffffffffffffff1690602001909190803573ffffffffffffffffffffffffffffffffffffffff16906020019091908035906020019091908035906020019091908035906020019091905050613057565b604051808215151515815260200191505060405180910390f35b34156109a357600080fd5b6109d8600480803573ffffffffffffffffffffffffffffffffffffffff16906020019091908035906020019091905050613633565b604051808215151515815260200191505060405180910390f35b34156109fd57600080fd5b610a48600480803573ffffffffffffffffffffffffffffffffffffffff1690602001909190803573ffffffffffffffffffffffffffffffffffffffff1690602001909190505061382f565b6040518082815260200191505060405180910390f35b3415610a6957600080fd5b610acf600480803573ffffffffffffffffffffffffffffffffffffffff1690602001909190803573ffffffffffffffffffffffffffffffffffffffff169060200190919080359060200190919080359060200190919080359060200190919050506138b6565b60405180826000191660001916815260200191505060405180910390f35b600081600260003373ffffffffffffffffffffffffffffffffffffffff1673ffffffffffffffffffffffffffffffffffffffff16815260200190815260200160002060008573ffffffffffffffffffffffffffffffffffffffff1673ffffffffffffffffffffffffffffffffffffffff168152602001908152602001600020819055508273ffffffffffffffffffffffffffffffffffffffff163373ffffffffffffffffffffffffffffffffffffffff167f8c5be1e5ebec7d5bd14f71427d1e84f3dd0314c0f7b2291e5b200ac8c7c3b925846040518082815260200191505060405180910390a36001905092915050565b60008060008073ffffffffffffffffffffffffffffffffffffffff168773ffffffffffffffffffffffffffffffffffffffff1614151515610c1f57600080fd5b600015156003896040518082805190602001908083835b602083101515610c5b5780518252602082019150602081019050602083039250610c36565b6001836020036101000a038019825116818451168082178552505050505050905001915050908152602001604051809103902060009054906101000a900460ff161515141515610caa57600080fd5b610cb730888888886110ad565b9150610cc382896111d9565b9050600073ffffffffffffffffffffffffffffffffffffffff168173ffffffffffffffffffffffffffffffffffffffff1614151515610d0157600080fd5b610d6485610d56886000808673ffffffffffffffffffffffffffffffffffffffff1673ffffffffffffffffffffffffffffffffffffffff168152602001908152602001600020546139d890919063ffffffff16565b6139d890919063ffffffff16565b6000808373ffffffffffffffffffffffffffffffffffffffff1673ffffffffffffffffffffffffffffffffffffffff16815260200190815260200160002081905550610df7866000808a73ffffffffffffffffffffffffffffffffffffffff1673ffffffffffffffffffffffffffffffffffffffff168152602001908152602001600020546139f190919063ffffffff16565b6000808973ffffffffffffffffffffffffffffffffffffffff1673ffffffffffffffffffffffffffffffffffffffff16815260200190815260200160002081905550610e8a856000803373ffffffffffffffffffffffffffffffffffffffff1673ffffffffffffffffffffffffffffffffffffffff168152602001908152602001600020546139f190919063ffffffff16565b6000803373ffffffffffffffffffffffffffffffffffffffff1673ffffffffffffffffffffffffffffffffffffffff1681526020019081526020016000208190555060016003896040518082805190602001908083835b602083101515610f065780518252602082019150602081019050602083039250610ee1565b6001836020036101000a038019825116818451168082178552505050505050905001915050908152602001604051809103902060006101000a81548160ff0219169083151502179055508673ffffffffffffffffffffffffffffffffffffffff168173ffffffffffffffffffffffffffffffffffffffff167fddf252ad1be2c89b69c2b068fc378daa952ba7f163c4a11628f55a4df523b3ef886040518082815260200191505060405180910390a33373ffffffffffffffffffffffffffffffffffffffff168173ffffffffffffffffffffffffffffffffffffffff167fddf252ad1be2c89b69c2b068fc378daa952ba7f163c4a11628f55a4df523b3ef876040518082815260200191505060405180910390a33373ffffffffffffffffffffffffffffffffffffffff168773ffffffffffffffffffffffffffffffffffffffff168273ffffffffffffffffffffffffffffffffffffffff167fec5a73fd1f178be20c1bca1b406cbf4b5c20d833b66e582fc122fb4baa0fc2a48989604051808381526020018281526020019250505060405180910390a460019250505095945050505050565b60006348664c167c010000000000000000000000000000000000000000000000000000000002868686868660405180877bffffffffffffffffffffffffffffffffffffffffffffffffffffffff19167bffffffffffffffffffffffffffffffffffffffffffffffffffffffff191681526004018673ffffffffffffffffffffffffffffffffffffffff1673ffffffffffffffffffffffffffffffffffffffff166c010000000000000000000000000281526014018573ffffffffffffffffffffffffffffffffffffffff1673ffffffffffffffffffffffffffffffffffffffff166c0100000000000000000000000002815260140184815260200183815260200182815260200196505050505050506040518091039020905095945050505050565b6000600154905090565b600080600080604185511415156111f357600093506112ce565b6020850151925060408501519150606085015160001a9050601b8160ff16101561121e57601b810190505b601b8160ff16141580156112365750601c8160ff1614155b1561124457600093506112ce565b600186828585604051600081526020016040526000604051602001526040518085600019166000191681526020018460ff1660ff16815260200183600019166000191681526020018260001916600019168152602001945050505050602060405160208103908084039060008661646e5a03f115156112c257600080fd5b50506020604051035193505b50505092915050565b60008073ffffffffffffffffffffffffffffffffffffffff168373ffffffffffffffffffffffffffffffffffffffff161415151561131457600080fd5b6000808573ffffffffffffffffffffffffffffffffffffffff1673ffffffffffffffffffffffffffffffffffffffff16815260200190815260200160002054821115151561136157600080fd5b600260008573ffffffffffffffffffffffffffffffffffffffff1673ffffffffffffffffffffffffffffffffffffffff16815260200190815260200160002060003373ffffffffffffffffffffffffffffffffffffffff1673ffffffffffffffffffffffffffffffffffffffff1681526020019081526020016000205482111515156113ec57600080fd5b61143d826000808773ffffffffffffffffffffffffffffffffffffffff1673ffffffffffffffffffffffffffffffffffffffff168152602001908152602001600020546139d890919063ffffffff16565b6000808673ffffffffffffffffffffffffffffffffffffffff1673ffffffffffffffffffffffffffffffffffffffff168152602001908152602001600020819055506114d0826000808673ffffffffffffffffffffffffffffffffffffffff1673ffffffffffffffffffffffffffffffffffffffff168152602001908152602001600020546139f190919063ffffffff16565b6000808573ffffffffffffffffffffffffffffffffffffffff1673ffffffffffffffffffffffffffffffffffffffff168152602001908152602001600020819055506115a182600260008773ffffffffffffffffffffffffffffffffffffffff1673ffffffffffffffffffffffffffffffffffffffff16815260200190815260200160002060003373ffffffffffffffffffffffffffffffffffffffff1673ffffffffffffffffffffffffffffffffffffffff168152602001908152602001600020546139d890919063ffffffff16565b600260008673ffffffffffffffffffffffffffffffffffffffff1673ffffffffffffffffffffffffffffffffffffffff16815260200190815260200160002060003373ffffffffffffffffffffffffffffffffffffffff1673ffffffffffffffffffffffffffffffffffffffff168152602001908152602001600020819055508273ffffffffffffffffffffffffffffffffffffffff168473ffffffffffffffffffffffffffffffffffffffff167fddf252ad1be2c89b69c2b068fc378daa952ba7f163c4a11628f55a4df523b3ef846040518082815260200191505060405180910390a3600190509392505050565b60006359388d787c010000000000000000000000000000000000000000000000000000000002868686868660405180877bffffffffffffffffffffffffffffffffffffffffffffffffffffffff19167bffffffffffffffffffffffffffffffffffffffffffffffffffffffff191681526004018673ffffffffffffffffffffffffffffffffffffffff1673ffffffffffffffffffffffffffffffffffffffff166c010000000000000000000000000281526014018573ffffffffffffffffffffffffffffffffffffffff1673ffffffffffffffffffffffffffffffffffffffff166c0100000000000000000000000002815260140184815260200183815260200182815260200196505050505050506040518091039020905095945050505050565b60008060008073ffffffffffffffffffffffffffffffffffffffff168773ffffffffffffffffffffffffffffffffffffffff16141515156117f357600080fd5b600015156003896040518082805190602001908083835b60208310151561182f578051825260208201915060208101905060208303925061180a565b6001836020036101000a038019825116818451168082178552505050505050905001915050908152602001604051809103902060009054906101000a900460ff16151514151561187e57600080fd5b61188b30888888886138b6565b915061189782896111d9565b9050600073ffffffffffffffffffffffffffffffffffffffff168173ffffffffffffffffffffffffffffffffffffffff16141515156118d557600080fd5b85600260008373ffffffffffffffffffffffffffffffffffffffff1673ffffffffffffffffffffffffffffffffffffffff16815260200190815260200160002060008973ffffffffffffffffffffffffffffffffffffffff1673ffffffffffffffffffffffffffffffffffffffff168152602001908152602001600020819055506119a7856000808473ffffffffffffffffffffffffffffffffffffffff1673ffffffffffffffffffffffffffffffffffffffff168152602001908152602001600020546139d890919063ffffffff16565b6000808373ffffffffffffffffffffffffffffffffffffffff1673ffffffffffffffffffffffffffffffffffffffff16815260200190815260200160002081905550611a3a856000803373ffffffffffffffffffffffffffffffffffffffff1673ffffffffffffffffffffffffffffffffffffffff168152602001908152602001600020546139f190919063ffffffff16565b6000803373ffffffffffffffffffffffffffffffffffffffff1673ffffffffffffffffffffffffffffffffffffffff1681526020019081526020016000208190555060016003896040518082805190602001908083835b602083101515611ab65780518252602082019150602081019050602083039250611a91565b6001836020036101000a038019825116818451168082178552505050505050905001915050908152602001604051809103902060006101000a81548160ff0219169083151502179055508673ffffffffffffffffffffffffffffffffffffffff168173ffffffffffffffffffffffffffffffffffffffff167f8c5be1e5ebec7d5bd14f71427d1e84f3dd0314c0f7b2291e5b200ac8c7c3b925886040518082815260200191505060405180910390a33373ffffffffffffffffffffffffffffffffffffffff168173ffffffffffffffffffffffffffffffffffffffff167fddf252ad1be2c89b69c2b068fc378daa952ba7f163c4a11628f55a4df523b3ef876040518082815260200191505060405180910390a33373ffffffffffffffffffffffffffffffffffffffff168773ffffffffffffffffffffffffffffffffffffffff168273ffffffffffffffffffffffffffffffffffffffff167f43a220267705e74ee2ceafd46afc841850db6f85a662189a7def697bbdd90ffb8989604051808381526020018281526020019250505060405180910390a460019250505095945050505050565b600080600260003373ffffffffffffffffffffffffffffffffffffffff1673ffffffffffffffffffffffffffffffffffffffff16815260200190815260200160002060008573ffffffffffffffffffffffffffffffffffffffff1673ffffffffffffffffffffffffffffffffffffffff16815260200190815260200160002054905080831115611d6e576000600260003373ffffffffffffffffffffffffffffffffffffffff1673ffffffffffffffffffffffffffffffffffffffff16815260200190815260200160002060008673ffffffffffffffffffffffffffffffffffffffff1673ffffffffffffffffffffffffffffffffffffffff16815260200190815260200160002081905550611e02565b611d8183826139d890919063ffffffff16565b600260003373ffffffffffffffffffffffffffffffffffffffff1673ffffffffffffffffffffffffffffffffffffffff16815260200190815260200160002060008673ffffffffffffffffffffffffffffffffffffffff1673ffffffffffffffffffffffffffffffffffffffff168152602001908152602001600020819055505b8373ffffffffffffffffffffffffffffffffffffffff163373ffffffffffffffffffffffffffffffffffffffff167f8c5be1e5ebec7d5bd14f71427d1e84f3dd0314c0f7b2291e5b200ac8c7c3b925600260003373ffffffffffffffffffffffffffffffffffffffff1673ffffffffffffffffffffffffffffffffffffffff16815260200190815260200160002060008873ffffffffffffffffffffffffffffffffffffffff1673ffffffffffffffffffffffffffffffffffffffff168152602001908152602001600020546040518082815260200191505060405180910390a3600191505092915050565b60008060008373ffffffffffffffffffffffffffffffffffffffff1673ffffffffffffffffffffffffffffffffffffffff168152602001908152602001600020549050919050565b600080600080600073ffffffffffffffffffffffffffffffffffffffff168873ffffffffffffffffffffffffffffffffffffffff1614151515611f7857600080fd5b6000151560038a6040518082805190602001908083835b602083101515611fb45780518252602082019150602081019050602083039250611f8f565b6001836020036101000a038019825116818451168082178552505050505050905001915050908152602001604051809103902060009054906101000a900460ff16151514151561200357600080fd5b6120103089898989611691565b925061201c838a6111d9565b9150600073ffffffffffffffffffffffffffffffffffffffff168273ffffffffffffffffffffffffffffffffffffffff161415151561205a57600080fd5b600260008373ffffffffffffffffffffffffffffffffffffffff1673ffffffffffffffffffffffffffffffffffffffff16815260200190815260200160002060008973ffffffffffffffffffffffffffffffffffffffff1673ffffffffffffffffffffffffffffffffffffffff16815260200190815260200160002054905080871115612168576000600260008473ffffffffffffffffffffffffffffffffffffffff1673ffffffffffffffffffffffffffffffffffffffff16815260200190815260200160002060008a73ffffffffffffffffffffffffffffffffffffffff1673ffffffffffffffffffffffffffffffffffffffff168152602001908152602001600020819055506121fc565b61217b87826139d890919063ffffffff16565b600260008473ffffffffffffffffffffffffffffffffffffffff1673ffffffffffffffffffffffffffffffffffffffff16815260200190815260200160002060008a73ffffffffffffffffffffffffffffffffffffffff1673ffffffffffffffffffffffffffffffffffffffff168152602001908152602001600020819055505b61224d866000808573ffffffffffffffffffffffffffffffffffffffff1673ffffffffffffffffffffffffffffffffffffffff168152602001908152602001600020546139d890919063ffffffff16565b6000808473ffffffffffffffffffffffffffffffffffffffff1673ffffffffffffffffffffffffffffffffffffffff168152602001908152602001600020819055506122e0866000803373ffffffffffffffffffffffffffffffffffffffff1673ffffffffffffffffffffffffffffffffffffffff168152602001908152602001600020546139f190919063ffffffff16565b6000803373ffffffffffffffffffffffffffffffffffffffff1673ffffffffffffffffffffffffffffffffffffffff16815260200190815260200160002081905550600160038a6040518082805190602001908083835b60208310151561235c5780518252602082019150602081019050602083039250612337565b6001836020036101000a038019825116818451168082178552505050505050905001915050908152602001604051809103902060006101000a81548160ff0219169083151502179055508773ffffffffffffffffffffffffffffffffffffffff168273ffffffffffffffffffffffffffffffffffffffff167f8c5be1e5ebec7d5bd14f71427d1e84f3dd0314c0f7b2291e5b200ac8c7c3b925896040518082815260200191505060405180910390a33373ffffffffffffffffffffffffffffffffffffffff168273ffffffffffffffffffffffffffffffffffffffff167fddf252ad1be2c89b69c2b068fc378daa952ba7f163c4a11628f55a4df523b3ef886040518082815260200191505060405180910390a33373ffffffffffffffffffffffffffffffffffffffff168873ffffffffffffffffffffffffffffffffffffffff168373ffffffffffffffffffffffffffffffffffffffff167f43a220267705e74ee2ceafd46afc841850db6f85a662189a7def697bbdd90ffb600260008773ffffffffffffffffffffffffffffffffffffffff1673ffffffffffffffffffffffffffffffffffffffff16815260200190815260200160002060008d73ffffffffffffffffffffffffffffffffffffffff1673ffffffffffffffffffffffffffffffffffffffff168152602001908152602001600020548a604051808381526020018281526020019250505060405180910390a46001935050505095945050505050565b600063a45f71ff7c010000000000000000000000000000000000000000000000000000000002868686868660405180877bffffffffffffffffffffffffffffffffffffffffffffffffffffffff19167bffffffffffffffffffffffffffffffffffffffffffffffffffffffff191681526004018673ffffffffffffffffffffffffffffffffffffffff1673ffffffffffffffffffffffffffffffffffffffff166c010000000000000000000000000281526014018573ffffffffffffffffffffffffffffffffffffffff1673ffffffffffffffffffffffffffffffffffffffff166c0100000000000000000000000002815260140184815260200183815260200182815260200196505050505050506040518091039020905095945050505050565b60008073ffffffffffffffffffffffffffffffffffffffff168373ffffffffffffffffffffffffffffffffffffffff16141515156126df57600080fd5b6000803373ffffffffffffffffffffffffffffffffffffffff1673ffffffffffffffffffffffffffffffffffffffff16815260200190815260200160002054821115151561272c57600080fd5b61277d826000803373ffffffffffffffffffffffffffffffffffffffff1673ffffffffffffffffffffffffffffffffffffffff168152602001908152602001600020546139d890919063ffffffff16565b6000803373ffffffffffffffffffffffffffffffffffffffff1673ffffffffffffffffffffffffffffffffffffffff16815260200190815260200160002081905550612810826000808673ffffffffffffffffffffffffffffffffffffffff1673ffffffffffffffffffffffffffffffffffffffff168152602001908152602001600020546139f190919063ffffffff16565b6000808573ffffffffffffffffffffffffffffffffffffffff1673ffffffffffffffffffffffffffffffffffffffff168152602001908152602001600020819055508273ffffffffffffffffffffffffffffffffffffffff163373ffffffffffffffffffffffffffffffffffffffff167fddf252ad1be2c89b69c2b068fc378daa952ba7f163c4a11628f55a4df523b3ef846040518082815260200191505060405180910390a36001905092915050565b60008060008073ffffffffffffffffffffffffffffffffffffffff168773ffffffffffffffffffffffffffffffffffffffff161415151561290157600080fd5b600015156003896040518082805190602001908083835b60208310151561293d5780518252602082019150602081019050602083039250612918565b6001836020036101000a038019825116818451168082178552505050505050905001915050908152602001604051809103902060009054906101000a900460ff16151514151561298c57600080fd5b6129993088888888612580565b91506129a582896111d9565b9050600073ffffffffffffffffffffffffffffffffffffffff168173ffffffffffffffffffffffffffffffffffffffff16141515156129e357600080fd5b612a7286600260008473ffffffffffffffffffffffffffffffffffffffff1673ffffffffffffffffffffffffffffffffffffffff16815260200190815260200160002060008a73ffffffffffffffffffffffffffffffffffffffff1673ffffffffffffffffffffffffffffffffffffffff168152602001908152602001600020546139f190919063ffffffff16565b600260008373ffffffffffffffffffffffffffffffffffffffff1673ffffffffffffffffffffffffffffffffffffffff16815260200190815260200160002060008973ffffffffffffffffffffffffffffffffffffffff1673ffffffffffffffffffffffffffffffffffffffff16815260200190815260200160002081905550612b43856000808473ffffffffffffffffffffffffffffffffffffffff1673ffffffffffffffffffffffffffffffffffffffff168152602001908152602001600020546139d890919063ffffffff16565b6000808373ffffffffffffffffffffffffffffffffffffffff1673ffffffffffffffffffffffffffffffffffffffff16815260200190815260200160002081905550612bd6856000803373ffffffffffffffffffffffffffffffffffffffff1673ffffffffffffffffffffffffffffffffffffffff168152602001908152602001600020546139f190919063ffffffff16565b6000803373ffffffffffffffffffffffffffffffffffffffff1673ffffffffffffffffffffffffffffffffffffffff1681526020019081526020016000208190555060016003896040518082805190602001908083835b602083101515612c525780518252602082019150602081019050602083039250612c2d565b6001836020036101000a038019825116818451168082178552505050505050905001915050908152602001604051809103902060006101000a81548160ff0219169083151502179055508673ffffffffffffffffffffffffffffffffffffffff168173ffffffffffffffffffffffffffffffffffffffff167f8c5be1e5ebec7d5bd14f71427d1e84f3dd0314c0f7b2291e5b200ac8c7c3b925600260008573ffffffffffffffffffffffffffffffffffffffff1673ffffffffffffffffffffffffffffffffffffffff16815260200190815260200160002060008b73ffffffffffffffffffffffffffffffffffffffff1673ffffffffffffffffffffffffffffffffffffffff168152602001908152602001600020546040518082815260200191505060405180910390a33373ffffffffffffffffffffffffffffffffffffffff168173ffffffffffffffffffffffffffffffffffffffff167fddf252ad1be2c89b69c2b068fc378daa952ba7f163c4a11628f55a4df523b3ef876040518082815260200191505060405180910390a33373ffffffffffffffffffffffffffffffffffffffff168773ffffffffffffffffffffffffffffffffffffffff168273ffffffffffffffffffffffffffffffffffffffff167f43a220267705e74ee2ceafd46afc841850db6f85a662189a7def697bbdd90ffb600260008673ffffffffffffffffffffffffffffffffffffffff1673ffffffffffffffffffffffffffffffffffffffff16815260200190815260200160002060008c73ffffffffffffffffffffffffffffffffffffffff1673ffffffffffffffffffffffffffffffffffffffff1681526020019081526020016000205489604051808381526020018281526020019250505060405180910390a460019250505095945050505050565b600063b7656dc57c01000000000000000000000000000000000000000000000000000000000287878787878760405180887bffffffffffffffffffffffffffffffffffffffffffffffffffffffff19167bffffffffffffffffffffffffffffffffffffffffffffffffffffffff191681526004018773ffffffffffffffffffffffffffffffffffffffff1673ffffffffffffffffffffffffffffffffffffffff166c010000000000000000000000000281526014018673ffffffffffffffffffffffffffffffffffffffff1673ffffffffffffffffffffffffffffffffffffffff166c010000000000000000000000000281526014018573ffffffffffffffffffffffffffffffffffffffff1673ffffffffffffffffffffffffffffffffffffffff166c01000000000000000000000000028152601401848152602001838152602001828152602001975050505050505050604051809103902090509695505050505050565b60008060008073ffffffffffffffffffffffffffffffffffffffff168773ffffffffffffffffffffffffffffffffffffffff161415151561309757600080fd5b6000151560038a6040518082805190602001908083835b6020831015156130d357805182526020820191506020810190506020830392506130ae565b6001836020036101000a038019825116818451168082178552505050505050905001915050908152602001604051809103902060009054906101000a900460ff16151514151561312257600080fd5b613130308989898989612ef1565b915061313c828a6111d9565b9050600073ffffffffffffffffffffffffffffffffffffffff168173ffffffffffffffffffffffffffffffffffffffff161415151561317a57600080fd5b6131cb866000808b73ffffffffffffffffffffffffffffffffffffffff1673ffffffffffffffffffffffffffffffffffffffff168152602001908152602001600020546139d890919063ffffffff16565b6000808a73ffffffffffffffffffffffffffffffffffffffff1673ffffffffffffffffffffffffffffffffffffffff1681526020019081526020016000208190555061325e866000808a73ffffffffffffffffffffffffffffffffffffffff1673ffffffffffffffffffffffffffffffffffffffff168152602001908152602001600020546139f190919063ffffffff16565b6000808973ffffffffffffffffffffffffffffffffffffffff1673ffffffffffffffffffffffffffffffffffffffff1681526020019081526020016000208190555061332f86600260008b73ffffffffffffffffffffffffffffffffffffffff1673ffffffffffffffffffffffffffffffffffffffff16815260200190815260200160002060008473ffffffffffffffffffffffffffffffffffffffff1673ffffffffffffffffffffffffffffffffffffffff168152602001908152602001600020546139d890919063ffffffff16565b600260008a73ffffffffffffffffffffffffffffffffffffffff1673ffffffffffffffffffffffffffffffffffffffff16815260200190815260200160002060008373ffffffffffffffffffffffffffffffffffffffff1673ffffffffffffffffffffffffffffffffffffffff16815260200190815260200160002081905550613400856000808473ffffffffffffffffffffffffffffffffffffffff1673ffffffffffffffffffffffffffffffffffffffff168152602001908152602001600020546139d890919063ffffffff16565b6000808373ffffffffffffffffffffffffffffffffffffffff1673ffffffffffffffffffffffffffffffffffffffff16815260200190815260200160002081905550613493856000803373ffffffffffffffffffffffffffffffffffffffff1673ffffffffffffffffffffffffffffffffffffffff168152602001908152602001600020546139f190919063ffffffff16565b6000803373ffffffffffffffffffffffffffffffffffffffff1673ffffffffffffffffffffffffffffffffffffffff16815260200190815260200160002081905550600160038a6040518082805190602001908083835b60208310151561350f57805182526020820191506020810190506020830392506134ea565b6001836020036101000a038019825116818451168082178552505050505050905001915050908152602001604051809103902060006101000a81548160ff0219169083151502179055508673ffffffffffffffffffffffffffffffffffffffff168873ffffffffffffffffffffffffffffffffffffffff167fddf252ad1be2c89b69c2b068fc378daa952ba7f163c4a11628f55a4df523b3ef886040518082815260200191505060405180910390a33373ffffffffffffffffffffffffffffffffffffffff168173ffffffffffffffffffffffffffffffffffffffff167fddf252ad1be2c89b69c2b068fc378daa952ba7f163c4a11628f55a4df523b3ef876040518082815260200191505060405180910390a36001925050509695505050505050565b60006136c482600260003373ffffffffffffffffffffffffffffffffffffffff1673ffffffffffffffffffffffffffffffffffffffff16815260200190815260200160002060008673ffffffffffffffffffffffffffffffffffffffff1673ffffffffffffffffffffffffffffffffffffffff168152602001908152602001600020546139f190919063ffffffff16565b600260003373ffffffffffffffffffffffffffffffffffffffff1673ffffffffffffffffffffffffffffffffffffffff16815260200190815260200160002060008573ffffffffffffffffffffffffffffffffffffffff1673ffffffffffffffffffffffffffffffffffffffff168152602001908152602001600020819055508273ffffffffffffffffffffffffffffffffffffffff163373ffffffffffffffffffffffffffffffffffffffff167f8c5be1e5ebec7d5bd14f71427d1e84f3dd0314c0f7b2291e5b200ac8c7c3b925600260003373ffffffffffffffffffffffffffffffffffffffff1673ffffffffffffffffffffffffffffffffffffffff16815260200190815260200160002060008773ffffffffffffffffffffffffffffffffffffffff1673ffffffffffffffffffffffffffffffffffffffff168152602001908152602001600020546040518082815260200191505060405180910390a36001905092915050565b6000600260008473ffffffffffffffffffffffffffffffffffffffff1673ffffffffffffffffffffffffffffffffffffffff16815260200190815260200160002060008373ffffffffffffffffffffffffffffffffffffffff1673ffffffffffffffffffffffffffffffffffffffff16815260200190815260200160002054905092915050565b600063f7ac9c2e7c010000000000000000000000000000000000000000000000000000000002868686868660405180877bffffffffffffffffffffffffffffffffffffffffffffffffffffffff19167bffffffffffffffffffffffffffffffffffffffffffffffffffffffff191681526004018673ffffffffffffffffffffffffffffffffffffffff1673ffffffffffffffffffffffffffffffffffffffff166c010000000000000000000000000281526014018573ffffffffffffffffffffffffffffffffffffffff1673ffffffffffffffffffffffffffffffffffffffff166c0100000000000000000000000002815260140184815260200183815260200182815260200196505050505050506040518091039020905095945050505050565b60008282111515156139e657fe5b818303905092915050565b6000808284019050838110151515613a0557fe5b80915050929150505600a165627a7a72305820672e375a39d6bafa30bdde95e008f707b83b0f39950a550c5abee8c7d06e2e1c0029",
  "source": "pragma solidity ^0.4.18;\n\nimport \"./ERC865.sol\";\nimport \"zeppelin-solidity/contracts/token/ERC20/StandardToken.sol\";\n\n/**\n * @title ERC865Token Token\n *\n * ERC865Token allows users paying transfers in tokens instead of gas\n * https://github.com/ethereum/EIPs/issues/865\n *\n */\n\ncontract ERC865Token is ERC865, StandardToken {\n\n    /* Nonces of transfers performed */\n    mapping(bytes => bool) signatures;\n\n    event TransferPreSigned(address indexed from, address indexed to, address indexed delegate, uint256 amount, uint256 fee);\n    event ApprovalPreSigned(address indexed from, address indexed to, address indexed delegate, uint256 amount, uint256 fee);\n\n    /**\n     * @notice Submit a presigned transfer\n     * @param _signature bytes The signature, issued by the owner.\n     * @param _to address The address which you want to transfer to.\n     * @param _value uint256 The amount of tokens to be transferred.\n     * @param _fee uint256 The amount of tokens paid to msg.sender, by the owner.\n     * @param _nonce uint256 Presigned transaction number.\n     */\n    function transferPreSigned(\n        bytes _signature,\n        address _to,\n        uint256 _value,\n        uint256 _fee,\n        uint256 _nonce\n    )\n        public\n        returns (bool)\n    {\n        require(_to != address(0));\n        require(signatures[_signature] == false);\n\n        bytes32 hashedTx = transferPreSignedHashing(address(this), _to, _value, _fee, _nonce);\n\n        address from = recover(hashedTx, _signature);\n        require(from != address(0));\n\n        balances[from] = balances[from].sub(_value).sub(_fee);\n        balances[_to] = balances[_to].add(_value);\n        balances[msg.sender] = balances[msg.sender].add(_fee);\n        signatures[_signature] = true;\n\n        Transfer(from, _to, _value);\n        Transfer(from, msg.sender, _fee);\n        TransferPreSigned(from, _to, msg.sender, _value, _fee);\n        return true;\n    }\n\n    /**\n     * @notice Submit a presigned approval\n     * @param _signature bytes The signature, issued by the owner.\n     * @param _spender address The address which will spend the funds.\n     * @param _value uint256 The amount of tokens to allow.\n     * @param _fee uint256 The amount of tokens paid to msg.sender, by the owner.\n     * @param _nonce uint256 Presigned transaction number.\n     */\n    function approvePreSigned(\n        bytes _signature,\n        address _spender,\n        uint256 _value,\n        uint256 _fee,\n        uint256 _nonce\n    )\n        public\n        returns (bool)\n    {\n        require(_spender != address(0));\n        require(signatures[_signature] == false);\n\n        bytes32 hashedTx = approvePreSignedHashing(address(this), _spender, _value, _fee, _nonce);\n        address from = recover(hashedTx, _signature);\n        require(from != address(0));\n\n        allowed[from][_spender] = _value;\n        balances[from] = balances[from].sub(_fee);\n        balances[msg.sender] = balances[msg.sender].add(_fee);\n        signatures[_signature] = true;\n\n        Approval(from, _spender, _value);\n        Transfer(from, msg.sender, _fee);\n        ApprovalPreSigned(from, _spender, msg.sender, _value, _fee);\n        return true;\n    }\n\n    /**\n     * @notice Increase the amount of tokens that an owner allowed to a spender.\n     * @param _signature bytes The signature, issued by the owner.\n     * @param _spender address The address which will spend the funds.\n     * @param _addedValue uint256 The amount of tokens to increase the allowance by.\n     * @param _fee uint256 The amount of tokens paid to msg.sender, by the owner.\n     * @param _nonce uint256 Presigned transaction number.\n     */\n    function increaseApprovalPreSigned(\n        bytes _signature,\n        address _spender,\n        uint256 _addedValue,\n        uint256 _fee,\n        uint256 _nonce\n    )\n        public\n        returns (bool)\n    {\n        require(_spender != address(0));\n        require(signatures[_signature] == false);\n\n        bytes32 hashedTx = increaseApprovalPreSignedHashing(address(this), _spender, _addedValue, _fee, _nonce);\n        address from = recover(hashedTx, _signature);\n        require(from != address(0));\n\n        allowed[from][_spender] = allowed[from][_spender].add(_addedValue);\n        balances[from] = balances[from].sub(_fee);\n        balances[msg.sender] = balances[msg.sender].add(_fee);\n        signatures[_signature] = true;\n\n        Approval(from, _spender, allowed[from][_spender]);\n        Transfer(from, msg.sender, _fee);\n        ApprovalPreSigned(from, _spender, msg.sender, allowed[from][_spender], _fee);\n        return true;\n    }\n\n    /**\n     * @notice Decrease the amount of tokens that an owner allowed to a spender.\n     * @param _signature bytes The signature, issued by the owner\n     * @param _spender address The address which will spend the funds.\n     * @param _subtractedValue uint256 The amount of tokens to decrease the allowance by.\n     * @param _fee uint256 The amount of tokens paid to msg.sender, by the owner.\n     * @param _nonce uint256 Presigned transaction number.\n     */\n    function decreaseApprovalPreSigned(\n        bytes _signature,\n        address _spender,\n        uint256 _subtractedValue,\n        uint256 _fee,\n        uint256 _nonce\n    )\n        public\n        returns (bool)\n    {\n        require(_spender != address(0));\n        require(signatures[_signature] == false);\n\n        bytes32 hashedTx = decreaseApprovalPreSignedHashing(address(this), _spender, _subtractedValue, _fee, _nonce);\n        address from = recover(hashedTx, _signature);\n        require(from != address(0));\n\n        uint oldValue = allowed[from][_spender];\n        if (_subtractedValue > oldValue) {\n            allowed[from][_spender] = 0;\n        } else {\n            allowed[from][_spender] = oldValue.sub(_subtractedValue);\n        }\n        balances[from] = balances[from].sub(_fee);\n        balances[msg.sender] = balances[msg.sender].add(_fee);\n        signatures[_signature] = true;\n\n        Approval(from, _spender, _subtractedValue);\n        Transfer(from, msg.sender, _fee);\n        ApprovalPreSigned(from, _spender, msg.sender, allowed[from][_spender], _fee);\n        return true;\n    }\n\n    /**\n     * @notice Transfer tokens from one address to another\n     * @param _signature bytes The signature, issued by the spender.\n     * @param _from address The address which you want to send tokens from.\n     * @param _to address The address which you want to transfer to.\n     * @param _value uint256 The amount of tokens to be transferred.\n     * @param _fee uint256 The amount of tokens paid to msg.sender, by the spender.\n     * @param _nonce uint256 Presigned transaction number.\n     */\n    function transferFromPreSigned(\n        bytes _signature,\n        address _from,\n        address _to,\n        uint256 _value,\n        uint256 _fee,\n        uint256 _nonce\n    )\n        public\n        returns (bool)\n    {\n        require(_to != address(0));\n        require(signatures[_signature] == false);\n\n        bytes32 hashedTx = transferFromPreSignedHashing(address(this), _from, _to, _value, _fee, _nonce);\n\n        address spender = recover(hashedTx, _signature);\n        require(spender != address(0));\n\n        balances[_from] = balances[_from].sub(_value);\n        balances[_to] = balances[_to].add(_value);\n        allowed[_from][spender] = allowed[_from][spender].sub(_value);\n\n        balances[spender] = balances[spender].sub(_fee);\n        balances[msg.sender] = balances[msg.sender].add(_fee);\n        signatures[_signature] = true;\n\n        Transfer(_from, _to, _value);\n        Transfer(spender, msg.sender, _fee);\n        return true;\n    }\n\n\n    /**\n     * @notice Hash (keccak256) of the payload used by transferPreSigned\n     * @param _token address The address of the token.\n     * @param _to address The address which you want to transfer to.\n     * @param _value uint256 The amount of tokens to be transferred.\n     * @param _fee uint256 The amount of tokens paid to msg.sender, by the owner.\n     * @param _nonce uint256 Presigned transaction number.\n     */\n    function transferPreSignedHashing(\n        address _token,\n        address _to,\n        uint256 _value,\n        uint256 _fee,\n        uint256 _nonce\n    )\n        public\n        pure\n        returns (bytes32)\n    {\n        /* \"48664c16\": transferPreSignedHashing(address,address,address,uint256,uint256,uint256) */\n        return keccak256(bytes4(0x48664c16), _token, _to, _value, _fee, _nonce);\n    }\n\n    /**\n     * @notice Hash (keccak256) of the payload used by approvePreSigned\n     * @param _token address The address of the token\n     * @param _spender address The address which will spend the funds.\n     * @param _value uint256 The amount of tokens to allow.\n     * @param _fee uint256 The amount of tokens paid to msg.sender, by the owner.\n     * @param _nonce uint256 Presigned transaction number.\n     */\n    function approvePreSignedHashing(\n        address _token,\n        address _spender,\n        uint256 _value,\n        uint256 _fee,\n        uint256 _nonce\n    )\n        public\n        pure\n        returns (bytes32)\n    {\n        /* \"f7ac9c2e\": approvePreSignedHashing(address,address,uint256,uint256,uint256) */\n        return keccak256(bytes4(0xf7ac9c2e), _token, _spender, _value, _fee, _nonce);\n    }\n\n    /**\n     * @notice Hash (keccak256) of the payload used by increaseApprovalPreSigned\n     * @param _token address The address of the token\n     * @param _spender address The address which will spend the funds.\n     * @param _addedValue uint256 The amount of tokens to increase the allowance by.\n     * @param _fee uint256 The amount of tokens paid to msg.sender, by the owner.\n     * @param _nonce uint256 Presigned transaction number.\n     */\n    function increaseApprovalPreSignedHashing(\n        address _token,\n        address _spender,\n        uint256 _addedValue,\n        uint256 _fee,\n        uint256 _nonce\n    )\n        public\n        pure\n        returns (bytes32)\n    {\n        /* \"a45f71ff\": increaseApprovalPreSignedHashing(address,address,uint256,uint256,uint256) */\n        return keccak256(bytes4(0xa45f71ff), _token, _spender, _addedValue, _fee, _nonce);\n    }\n\n     /**\n      * @notice Hash (keccak256) of the payload used by decreaseApprovalPreSigned\n      * @param _token address The address of the token\n      * @param _spender address The address which will spend the funds.\n      * @param _subtractedValue uint256 The amount of tokens to decrease the allowance by.\n      * @param _fee uint256 The amount of tokens paid to msg.sender, by the owner.\n      * @param _nonce uint256 Presigned transaction number.\n      */\n    function decreaseApprovalPreSignedHashing(\n        address _token,\n        address _spender,\n        uint256 _subtractedValue,\n        uint256 _fee,\n        uint256 _nonce\n    )\n        public\n        pure\n        returns (bytes32)\n    {\n        /* \"59388d78\": decreaseApprovalPreSignedHashing(address,address,uint256,uint256,uint256) */\n        return keccak256(bytes4(0x59388d78), _token, _spender, _subtractedValue, _fee, _nonce);\n    }\n\n    /**\n     * @notice Hash (keccak256) of the payload used by transferFromPreSigned\n     * @param _token address The address of the token\n     * @param _from address The address which you want to send tokens from.\n     * @param _to address The address which you want to transfer to.\n     * @param _value uint256 The amount of tokens to be transferred.\n     * @param _fee uint256 The amount of tokens paid to msg.sender, by the spender.\n     * @param _nonce uint256 Presigned transaction number.\n     */\n    function transferFromPreSignedHashing(\n        address _token,\n        address _from,\n        address _to,\n        uint256 _value,\n        uint256 _fee,\n        uint256 _nonce\n    )\n        public\n        pure\n        returns (bytes32)\n    {\n        /* \"b7656dc5\": transferFromPreSignedHashing(address,address,address,uint256,uint256,uint256) */\n        return keccak256(bytes4(0xb7656dc5), _token, _from, _to, _value, _fee, _nonce);\n    }\n\n    /**\n     * @notice Recover signer address from a message by using his signature\n     * @param hash bytes32 message, the hash is the signed message. What is recovered is the signer address.\n     * @param sig bytes signature, the signature is generated using web3.eth.sign()\n     */\n    function recover(bytes32 hash, bytes sig) public pure returns (address) {\n      bytes32 r;\n      bytes32 s;\n      uint8 v;\n\n      //Check the signature length\n      if (sig.length != 65) {\n        return (address(0));\n      }\n\n      // Divide the signature in r, s and v variables\n      assembly {\n        r := mload(add(sig, 32))\n        s := mload(add(sig, 64))\n        v := byte(0, mload(add(sig, 96)))\n      }\n\n      // Version of signature should be 27 or 28, but 0 and 1 are also possible versions\n      if (v < 27) {\n        v += 27;\n      }\n\n      // If the version is correct return the signer address\n      if (v != 27 && v != 28) {\n        return (address(0));\n      } else {\n        return ecrecover(hash, v, r, s);\n      }\n    }\n\n}\n",
  "sourcePath": "/Users/kc1116/Desktop/PROPS-dev/props-token-distribution/contracts/token/ERC865Token.sol",
  "compiler": {
    "name": "solc",
    "version": "0.4.18+commit.9cf6e910.Emscripten.clang"
  },
  "schemaVersion": "1.0.1",
  "updatedAt": "2018-02-15T20:05:18.323Z"
}