{
  "contractName": "ERC865Token",
  "abi": [
    {
      "constant": false,
      "inputs": [
        {
          "name": "_spender",
          "type": "address"
        },
        {
          "name": "_value",
          "type": "uint256"
        }
      ],
      "name": "approve",
      "outputs": [
        {
          "name": "",
          "type": "bool"
        }
      ],
      "payable": false,
      "stateMutability": "nonpayable",
      "type": "function"
    },
    {
      "constant": true,
      "inputs": [],
      "name": "totalSupply",
      "outputs": [
        {
          "name": "",
          "type": "uint256"
        }
      ],
      "payable": false,
      "stateMutability": "view",
      "type": "function"
    },
    {
      "constant": false,
      "inputs": [
        {
          "name": "_from",
          "type": "address"
        },
        {
          "name": "_to",
          "type": "address"
        },
        {
          "name": "_value",
          "type": "uint256"
        }
      ],
      "name": "transferFrom",
      "outputs": [
        {
          "name": "",
          "type": "bool"
        }
      ],
      "payable": false,
      "stateMutability": "nonpayable",
      "type": "function"
    },
    {
      "constant": false,
      "inputs": [
        {
          "name": "_spender",
          "type": "address"
        },
        {
          "name": "_subtractedValue",
          "type": "uint256"
        }
      ],
      "name": "decreaseApproval",
      "outputs": [
        {
          "name": "",
          "type": "bool"
        }
      ],
      "payable": false,
      "stateMutability": "nonpayable",
      "type": "function"
    },
    {
      "constant": true,
      "inputs": [
        {
          "name": "_owner",
          "type": "address"
        }
      ],
      "name": "balanceOf",
      "outputs": [
        {
          "name": "balance",
          "type": "uint256"
        }
      ],
      "payable": false,
      "stateMutability": "view",
      "type": "function"
    },
    {
      "constant": false,
      "inputs": [
        {
          "name": "_to",
          "type": "address"
        },
        {
          "name": "_value",
          "type": "uint256"
        }
      ],
      "name": "transfer",
      "outputs": [
        {
          "name": "",
          "type": "bool"
        }
      ],
      "payable": false,
      "stateMutability": "nonpayable",
      "type": "function"
    },
    {
      "constant": false,
      "inputs": [
        {
          "name": "_spender",
          "type": "address"
        },
        {
          "name": "_addedValue",
          "type": "uint256"
        }
      ],
      "name": "increaseApproval",
      "outputs": [
        {
          "name": "",
          "type": "bool"
        }
      ],
      "payable": false,
      "stateMutability": "nonpayable",
      "type": "function"
    },
    {
      "constant": true,
      "inputs": [
        {
          "name": "_owner",
          "type": "address"
        },
        {
          "name": "_spender",
          "type": "address"
        }
      ],
      "name": "allowance",
      "outputs": [
        {
          "name": "",
          "type": "uint256"
        }
      ],
      "payable": false,
      "stateMutability": "view",
      "type": "function"
    },
    {
      "anonymous": false,
      "inputs": [
        {
          "indexed": true,
          "name": "from",
          "type": "address"
        },
        {
          "indexed": true,
          "name": "to",
          "type": "address"
        },
        {
          "indexed": true,
          "name": "delegate",
          "type": "address"
        },
        {
          "indexed": false,
          "name": "amount",
          "type": "uint256"
        },
        {
          "indexed": false,
          "name": "fee",
          "type": "uint256"
        }
      ],
      "name": "TransferPreSigned",
      "type": "event"
    },
    {
      "anonymous": false,
      "inputs": [
        {
          "indexed": true,
          "name": "from",
          "type": "address"
        },
        {
          "indexed": true,
          "name": "to",
          "type": "address"
        },
        {
          "indexed": true,
          "name": "delegate",
          "type": "address"
        },
        {
          "indexed": false,
          "name": "amount",
          "type": "uint256"
        },
        {
          "indexed": false,
          "name": "fee",
          "type": "uint256"
        }
      ],
      "name": "ApprovalPreSigned",
      "type": "event"
    },
    {
      "anonymous": false,
      "inputs": [
        {
          "indexed": true,
          "name": "owner",
          "type": "address"
        },
        {
          "indexed": true,
          "name": "spender",
          "type": "address"
        },
        {
          "indexed": false,
          "name": "value",
          "type": "uint256"
        }
      ],
      "name": "Approval",
      "type": "event"
    },
    {
      "anonymous": false,
      "inputs": [
        {
          "indexed": true,
          "name": "from",
          "type": "address"
        },
        {
          "indexed": true,
          "name": "to",
          "type": "address"
        },
        {
          "indexed": false,
          "name": "value",
          "type": "uint256"
        }
      ],
      "name": "Transfer",
      "type": "event"
    },
    {
      "constant": false,
      "inputs": [
        {
          "name": "_signature",
          "type": "bytes"
        },
        {
          "name": "_to",
          "type": "address"
        },
        {
          "name": "_value",
          "type": "uint256"
        },
        {
          "name": "_fee",
          "type": "uint256"
        },
        {
          "name": "_nonce",
          "type": "uint256"
        }
      ],
      "name": "transferPreSigned",
      "outputs": [
        {
          "name": "",
          "type": "bool"
        }
      ],
      "payable": false,
      "stateMutability": "nonpayable",
      "type": "function"
    },
    {
      "constant": false,
      "inputs": [
        {
          "name": "_signature",
          "type": "bytes"
        },
        {
          "name": "_spender",
          "type": "address"
        },
        {
          "name": "_value",
          "type": "uint256"
        },
        {
          "name": "_fee",
          "type": "uint256"
        },
        {
          "name": "_nonce",
          "type": "uint256"
        }
      ],
      "name": "approvePreSigned",
      "outputs": [
        {
          "name": "",
          "type": "bool"
        }
      ],
      "payable": false,
      "stateMutability": "nonpayable",
      "type": "function"
    },
    {
      "constant": false,
      "inputs": [
        {
          "name": "_signature",
          "type": "bytes"
        },
        {
          "name": "_spender",
          "type": "address"
        },
        {
          "name": "_addedValue",
          "type": "uint256"
        },
        {
          "name": "_fee",
          "type": "uint256"
        },
        {
          "name": "_nonce",
          "type": "uint256"
        }
      ],
      "name": "increaseApprovalPreSigned",
      "outputs": [
        {
          "name": "",
          "type": "bool"
        }
      ],
      "payable": false,
      "stateMutability": "nonpayable",
      "type": "function"
    },
    {
      "constant": false,
      "inputs": [
        {
          "name": "_signature",
          "type": "bytes"
        },
        {
          "name": "_spender",
          "type": "address"
        },
        {
          "name": "_subtractedValue",
          "type": "uint256"
        },
        {
          "name": "_fee",
          "type": "uint256"
        },
        {
          "name": "_nonce",
          "type": "uint256"
        }
      ],
      "name": "decreaseApprovalPreSigned",
      "outputs": [
        {
          "name": "",
          "type": "bool"
        }
      ],
      "payable": false,
      "stateMutability": "nonpayable",
      "type": "function"
    },
    {
      "constant": false,
      "inputs": [
        {
          "name": "_signature",
          "type": "bytes"
        },
        {
          "name": "_from",
          "type": "address"
        },
        {
          "name": "_to",
          "type": "address"
        },
        {
          "name": "_value",
          "type": "uint256"
        },
        {
          "name": "_fee",
          "type": "uint256"
        },
        {
          "name": "_nonce",
          "type": "uint256"
        }
      ],
      "name": "transferFromPreSigned",
      "outputs": [
        {
          "name": "",
          "type": "bool"
        }
      ],
      "payable": false,
      "stateMutability": "nonpayable",
      "type": "function"
    },
    {
      "constant": true,
      "inputs": [
        {
          "name": "_token",
          "type": "address"
        },
        {
          "name": "_to",
          "type": "address"
        },
        {
          "name": "_value",
          "type": "uint256"
        },
        {
          "name": "_fee",
          "type": "uint256"
        },
        {
          "name": "_nonce",
          "type": "uint256"
        }
      ],
      "name": "transferPreSignedHashing",
      "outputs": [
        {
          "name": "",
          "type": "bytes32"
        }
      ],
      "payable": false,
      "stateMutability": "pure",
      "type": "function"
    },
    {
      "constant": true,
      "inputs": [
        {
          "name": "_token",
          "type": "address"
        },
        {
          "name": "_spender",
          "type": "address"
        },
        {
          "name": "_value",
          "type": "uint256"
        },
        {
          "name": "_fee",
          "type": "uint256"
        },
        {
          "name": "_nonce",
          "type": "uint256"
        }
      ],
      "name": "approvePreSignedHashing",
      "outputs": [
        {
          "name": "",
          "type": "bytes32"
        }
      ],
      "payable": false,
      "stateMutability": "pure",
      "type": "function"
    },
    {
      "constant": true,
      "inputs": [
        {
          "name": "_token",
          "type": "address"
        },
        {
          "name": "_spender",
          "type": "address"
        },
        {
          "name": "_addedValue",
          "type": "uint256"
        },
        {
          "name": "_fee",
          "type": "uint256"
        },
        {
          "name": "_nonce",
          "type": "uint256"
        }
      ],
      "name": "increaseApprovalPreSignedHashing",
      "outputs": [
        {
          "name": "",
          "type": "bytes32"
        }
      ],
      "payable": false,
      "stateMutability": "pure",
      "type": "function"
    },
    {
      "constant": true,
      "inputs": [
        {
          "name": "_token",
          "type": "address"
        },
        {
          "name": "_spender",
          "type": "address"
        },
        {
          "name": "_subtractedValue",
          "type": "uint256"
        },
        {
          "name": "_fee",
          "type": "uint256"
        },
        {
          "name": "_nonce",
          "type": "uint256"
        }
      ],
      "name": "decreaseApprovalPreSignedHashing",
      "outputs": [
        {
          "name": "",
          "type": "bytes32"
        }
      ],
      "payable": false,
      "stateMutability": "pure",
      "type": "function"
    },
    {
      "constant": true,
      "inputs": [
        {
          "name": "_token",
          "type": "address"
        },
        {
          "name": "_from",
          "type": "address"
        },
        {
          "name": "_to",
          "type": "address"
        },
        {
          "name": "_value",
          "type": "uint256"
        },
        {
          "name": "_fee",
          "type": "uint256"
        },
        {
          "name": "_nonce",
          "type": "uint256"
        }
      ],
      "name": "transferFromPreSignedHashing",
      "outputs": [
        {
          "name": "",
          "type": "bytes32"
        }
      ],
      "payable": false,
      "stateMutability": "pure",
      "type": "function"
    },
    {
      "constant": true,
      "inputs": [
        {
          "name": "hash",
          "type": "bytes32"
        },
        {
          "name": "sig",
          "type": "bytes"
        }
      ],
      "name": "recover",
      "outputs": [
        {
          "name": "",
          "type": "address"
        }
      ],
      "payable": false,
      "stateMutability": "pure",
      "type": "function"
    }
  ],
  "bytecode": "0x608060405234801561001057600080fd5b50613b29806100206000396000f300608060405260043610610107576000357c0100000000000000000000000000000000000000000000000000000000900463ffffffff168063095ea7b31461010c5780631296830d1461017157806315420b711461023057806318160ddd146102cd57806319045a25146102f857806323b872dd146103af57806359388d7814610434578063617b390b146104d1578063661884631461059057806370a08231146105f55780638be527831461064c578063a45f71ff1461070b578063a9059cbb146107a8578063adb8249e1461080d578063b7656dc5146108cc578063bca5051514610989578063d73dd62314610a68578063dd62ed3e14610acd578063f7ac9c2e14610b44575b600080fd5b34801561011857600080fd5b50610157600480360381019080803573ffffffffffffffffffffffffffffffffffffffff16906020019092919080359060200190929190505050610be1565b604051808215151515815260200191505060405180910390f35b34801561017d57600080fd5b50610216600480360381019080803590602001908201803590602001908080601f0160208091040260200160405190810160405280939291908181526020018383808284378201915050505050509192919290803573ffffffffffffffffffffffffffffffffffffffff169060200190929190803590602001909291908035906020019092919080359060200190929190505050610cd3565b604051808215151515815260200191505060405180910390f35b34801561023c57600080fd5b506102af600480360381019080803573ffffffffffffffffffffffffffffffffffffffff169060200190929190803573ffffffffffffffffffffffffffffffffffffffff1690602001909291908035906020019092919080359060200190929190803590602001909291905050506111a1565b60405180826000191660001916815260200191505060405180910390f35b3480156102d957600080fd5b506102e26112c3565b6040518082815260200191505060405180910390f35b34801561030457600080fd5b5061036d6004803603810190808035600019169060200190929190803590602001908201803590602001908080601f01602080910402602001604051908101604052809392919081815260200183838082843782019150505050505091929192905050506112cd565b604051808273ffffffffffffffffffffffffffffffffffffffff1673ffffffffffffffffffffffffffffffffffffffff16815260200191505060405180910390f35b3480156103bb57600080fd5b5061041a600480360381019080803573ffffffffffffffffffffffffffffffffffffffff169060200190929190803573ffffffffffffffffffffffffffffffffffffffff169060200190929190803590602001909291905050506113c5565b604051808215151515815260200191505060405180910390f35b34801561044057600080fd5b506104b3600480360381019080803573ffffffffffffffffffffffffffffffffffffffff169060200190929190803573ffffffffffffffffffffffffffffffffffffffff16906020019092919080359060200190929190803590602001909291908035906020019092919050505061177f565b60405180826000191660001916815260200191505060405180910390f35b3480156104dd57600080fd5b50610576600480360381019080803590602001908201803590602001908080601f0160208091040260200160405190810160405280939291908181526020018383808284378201915050505050509192919290803573ffffffffffffffffffffffffffffffffffffffff1690602001909291908035906020019092919080359060200190929190803590602001909291905050506118a1565b604051808215151515815260200191505060405180910390f35b34801561059c57600080fd5b506105db600480360381019080803573ffffffffffffffffffffffffffffffffffffffff16906020019092919080359060200190929190505050611d4b565b604051808215151515815260200191505060405180910390f35b34801561060157600080fd5b50610636600480360381019080803573ffffffffffffffffffffffffffffffffffffffff169060200190929190505050611fdc565b6040518082815260200191505060405180910390f35b34801561065857600080fd5b506106f1600480360381019080803590602001908201803590602001908080601f0160208091040260200160405190810160405280939291908181526020018383808284378201915050505050509192919290803573ffffffffffffffffffffffffffffffffffffffff169060200190929190803590602001909291908035906020019092919080359060200190929190505050612024565b604051808215151515815260200191505060405180910390f35b34801561071757600080fd5b5061078a600480360381019080803573ffffffffffffffffffffffffffffffffffffffff169060200190929190803573ffffffffffffffffffffffffffffffffffffffff16906020019092919080359060200190929190803590602001909291908035906020019092919050505061266e565b60405180826000191660001916815260200191505060405180910390f35b3480156107b457600080fd5b506107f3600480360381019080803573ffffffffffffffffffffffffffffffffffffffff16906020019092919080359060200190929190505050612790565b604051808215151515815260200191505060405180910390f35b34801561081957600080fd5b506108b2600480360381019080803590602001908201803590602001908080601f0160208091040260200160405190810160405280939291908181526020018383808284378201915050505050509192919290803573ffffffffffffffffffffffffffffffffffffffff1690602001909291908035906020019092919080359060200190929190803590602001909291905050506129af565b604051808215151515815260200191505060405180910390f35b3480156108d857600080fd5b5061096b600480360381019080803573ffffffffffffffffffffffffffffffffffffffff169060200190929190803573ffffffffffffffffffffffffffffffffffffffff169060200190929190803573ffffffffffffffffffffffffffffffffffffffff169060200190929190803590602001909291908035906020019092919080359060200190929190505050612fdf565b60405180826000191660001916815260200191505060405180910390f35b34801561099557600080fd5b50610a4e600480360381019080803590602001908201803590602001908080601f0160208091040260200160405190810160405280939291908181526020018383808284378201915050505050509192919290803573ffffffffffffffffffffffffffffffffffffffff169060200190929190803573ffffffffffffffffffffffffffffffffffffffff169060200190929190803590602001909291908035906020019092919080359060200190929190505050613145565b604051808215151515815260200191505060405180910390f35b348015610a7457600080fd5b50610ab3600480360381019080803573ffffffffffffffffffffffffffffffffffffffff16906020019092919080359060200190929190505050613721565b604051808215151515815260200191505060405180910390f35b348015610ad957600080fd5b50610b2e600480360381019080803573ffffffffffffffffffffffffffffffffffffffff169060200190929190803573ffffffffffffffffffffffffffffffffffffffff16906020019092919050505061391d565b6040518082815260200191505060405180910390f35b348015610b5057600080fd5b50610bc3600480360381019080803573ffffffffffffffffffffffffffffffffffffffff169060200190929190803573ffffffffffffffffffffffffffffffffffffffff1690602001909291908035906020019092919080359060200190929190803590602001909291905050506139a4565b60405180826000191660001916815260200191505060405180910390f35b600081600260003373ffffffffffffffffffffffffffffffffffffffff1673ffffffffffffffffffffffffffffffffffffffff16815260200190815260200160002060008573ffffffffffffffffffffffffffffffffffffffff1673ffffffffffffffffffffffffffffffffffffffff168152602001908152602001600020819055508273ffffffffffffffffffffffffffffffffffffffff163373ffffffffffffffffffffffffffffffffffffffff167f8c5be1e5ebec7d5bd14f71427d1e84f3dd0314c0f7b2291e5b200ac8c7c3b925846040518082815260200191505060405180910390a36001905092915050565b60008060008073ffffffffffffffffffffffffffffffffffffffff168773ffffffffffffffffffffffffffffffffffffffff1614151515610d1357600080fd5b600015156003896040518082805190602001908083835b602083101515610d4f5780518252602082019150602081019050602083039250610d2a565b6001836020036101000a038019825116818451168082178552505050505050905001915050908152602001604051809103902060009054906101000a900460ff161515141515610d9e57600080fd5b610dab30888888886111a1565b9150610db782896112cd565b9050600073ffffffffffffffffffffffffffffffffffffffff168173ffffffffffffffffffffffffffffffffffffffff1614151515610df557600080fd5b610e5885610e4a886000808673ffffffffffffffffffffffffffffffffffffffff1673ffffffffffffffffffffffffffffffffffffffff16815260200190815260200160002054613ac690919063ffffffff16565b613ac690919063ffffffff16565b6000808373ffffffffffffffffffffffffffffffffffffffff1673ffffffffffffffffffffffffffffffffffffffff16815260200190815260200160002081905550610eeb866000808a73ffffffffffffffffffffffffffffffffffffffff1673ffffffffffffffffffffffffffffffffffffffff16815260200190815260200160002054613adf90919063ffffffff16565b6000808973ffffffffffffffffffffffffffffffffffffffff1673ffffffffffffffffffffffffffffffffffffffff16815260200190815260200160002081905550610f7e856000803373ffffffffffffffffffffffffffffffffffffffff1673ffffffffffffffffffffffffffffffffffffffff16815260200190815260200160002054613adf90919063ffffffff16565b6000803373ffffffffffffffffffffffffffffffffffffffff1673ffffffffffffffffffffffffffffffffffffffff1681526020019081526020016000208190555060016003896040518082805190602001908083835b602083101515610ffa5780518252602082019150602081019050602083039250610fd5565b6001836020036101000a038019825116818451168082178552505050505050905001915050908152602001604051809103902060006101000a81548160ff0219169083151502179055508673ffffffffffffffffffffffffffffffffffffffff168173ffffffffffffffffffffffffffffffffffffffff167fddf252ad1be2c89b69c2b068fc378daa952ba7f163c4a11628f55a4df523b3ef886040518082815260200191505060405180910390a33373ffffffffffffffffffffffffffffffffffffffff168173ffffffffffffffffffffffffffffffffffffffff167fddf252ad1be2c89b69c2b068fc378daa952ba7f163c4a11628f55a4df523b3ef876040518082815260200191505060405180910390a33373ffffffffffffffffffffffffffffffffffffffff168773ffffffffffffffffffffffffffffffffffffffff168273ffffffffffffffffffffffffffffffffffffffff167fec5a73fd1f178be20c1bca1b406cbf4b5c20d833b66e582fc122fb4baa0fc2a48989604051808381526020018281526020019250505060405180910390a460019250505095945050505050565b60006348664c167c010000000000000000000000000000000000000000000000000000000002868686868660405180877bffffffffffffffffffffffffffffffffffffffffffffffffffffffff19167bffffffffffffffffffffffffffffffffffffffffffffffffffffffff191681526004018673ffffffffffffffffffffffffffffffffffffffff1673ffffffffffffffffffffffffffffffffffffffff166c010000000000000000000000000281526014018573ffffffffffffffffffffffffffffffffffffffff1673ffffffffffffffffffffffffffffffffffffffff166c0100000000000000000000000002815260140184815260200183815260200182815260200196505050505050506040518091039020905095945050505050565b6000600154905090565b600080600080604185511415156112e757600093506113bc565b6020850151925060408501519150606085015160001a9050601b8160ff16101561131257601b810190505b601b8160ff161415801561132a5750601c8160ff1614155b1561133857600093506113bc565b600186828585604051600081526020016040526040518085600019166000191681526020018460ff1660ff1681526020018360001916600019168152602001826000191660001916815260200194505050505060206040516020810390808403906000865af11580156113af573d6000803e3d6000fd5b5050506020604051035193505b50505092915050565b60008073ffffffffffffffffffffffffffffffffffffffff168373ffffffffffffffffffffffffffffffffffffffff161415151561140257600080fd5b6000808573ffffffffffffffffffffffffffffffffffffffff1673ffffffffffffffffffffffffffffffffffffffff16815260200190815260200160002054821115151561144f57600080fd5b600260008573ffffffffffffffffffffffffffffffffffffffff1673ffffffffffffffffffffffffffffffffffffffff16815260200190815260200160002060003373ffffffffffffffffffffffffffffffffffffffff1673ffffffffffffffffffffffffffffffffffffffff1681526020019081526020016000205482111515156114da57600080fd5b61152b826000808773ffffffffffffffffffffffffffffffffffffffff1673ffffffffffffffffffffffffffffffffffffffff16815260200190815260200160002054613ac690919063ffffffff16565b6000808673ffffffffffffffffffffffffffffffffffffffff1673ffffffffffffffffffffffffffffffffffffffff168152602001908152602001600020819055506115be826000808673ffffffffffffffffffffffffffffffffffffffff1673ffffffffffffffffffffffffffffffffffffffff16815260200190815260200160002054613adf90919063ffffffff16565b6000808573ffffffffffffffffffffffffffffffffffffffff1673ffffffffffffffffffffffffffffffffffffffff1681526020019081526020016000208190555061168f82600260008773ffffffffffffffffffffffffffffffffffffffff1673ffffffffffffffffffffffffffffffffffffffff16815260200190815260200160002060003373ffffffffffffffffffffffffffffffffffffffff1673ffffffffffffffffffffffffffffffffffffffff16815260200190815260200160002054613ac690919063ffffffff16565b600260008673ffffffffffffffffffffffffffffffffffffffff1673ffffffffffffffffffffffffffffffffffffffff16815260200190815260200160002060003373ffffffffffffffffffffffffffffffffffffffff1673ffffffffffffffffffffffffffffffffffffffff168152602001908152602001600020819055508273ffffffffffffffffffffffffffffffffffffffff168473ffffffffffffffffffffffffffffffffffffffff167fddf252ad1be2c89b69c2b068fc378daa952ba7f163c4a11628f55a4df523b3ef846040518082815260200191505060405180910390a3600190509392505050565b60006359388d787c010000000000000000000000000000000000000000000000000000000002868686868660405180877bffffffffffffffffffffffffffffffffffffffffffffffffffffffff19167bffffffffffffffffffffffffffffffffffffffffffffffffffffffff191681526004018673ffffffffffffffffffffffffffffffffffffffff1673ffffffffffffffffffffffffffffffffffffffff166c010000000000000000000000000281526014018573ffffffffffffffffffffffffffffffffffffffff1673ffffffffffffffffffffffffffffffffffffffff166c0100000000000000000000000002815260140184815260200183815260200182815260200196505050505050506040518091039020905095945050505050565b60008060008073ffffffffffffffffffffffffffffffffffffffff168773ffffffffffffffffffffffffffffffffffffffff16141515156118e157600080fd5b600015156003896040518082805190602001908083835b60208310151561191d57805182526020820191506020810190506020830392506118f8565b6001836020036101000a038019825116818451168082178552505050505050905001915050908152602001604051809103902060009054906101000a900460ff16151514151561196c57600080fd5b61197930888888886139a4565b915061198582896112cd565b9050600073ffffffffffffffffffffffffffffffffffffffff168173ffffffffffffffffffffffffffffffffffffffff16141515156119c357600080fd5b85600260008373ffffffffffffffffffffffffffffffffffffffff1673ffffffffffffffffffffffffffffffffffffffff16815260200190815260200160002060008973ffffffffffffffffffffffffffffffffffffffff1673ffffffffffffffffffffffffffffffffffffffff16815260200190815260200160002081905550611a95856000808473ffffffffffffffffffffffffffffffffffffffff1673ffffffffffffffffffffffffffffffffffffffff16815260200190815260200160002054613ac690919063ffffffff16565b6000808373ffffffffffffffffffffffffffffffffffffffff1673ffffffffffffffffffffffffffffffffffffffff16815260200190815260200160002081905550611b28856000803373ffffffffffffffffffffffffffffffffffffffff1673ffffffffffffffffffffffffffffffffffffffff16815260200190815260200160002054613adf90919063ffffffff16565b6000803373ffffffffffffffffffffffffffffffffffffffff1673ffffffffffffffffffffffffffffffffffffffff1681526020019081526020016000208190555060016003896040518082805190602001908083835b602083101515611ba45780518252602082019150602081019050602083039250611b7f565b6001836020036101000a038019825116818451168082178552505050505050905001915050908152602001604051809103902060006101000a81548160ff0219169083151502179055508673ffffffffffffffffffffffffffffffffffffffff168173ffffffffffffffffffffffffffffffffffffffff167f8c5be1e5ebec7d5bd14f71427d1e84f3dd0314c0f7b2291e5b200ac8c7c3b925886040518082815260200191505060405180910390a33373ffffffffffffffffffffffffffffffffffffffff168173ffffffffffffffffffffffffffffffffffffffff167fddf252ad1be2c89b69c2b068fc378daa952ba7f163c4a11628f55a4df523b3ef876040518082815260200191505060405180910390a33373ffffffffffffffffffffffffffffffffffffffff168773ffffffffffffffffffffffffffffffffffffffff168273ffffffffffffffffffffffffffffffffffffffff167f43a220267705e74ee2ceafd46afc841850db6f85a662189a7def697bbdd90ffb8989604051808381526020018281526020019250505060405180910390a460019250505095945050505050565b600080600260003373ffffffffffffffffffffffffffffffffffffffff1673ffffffffffffffffffffffffffffffffffffffff16815260200190815260200160002060008573ffffffffffffffffffffffffffffffffffffffff1673ffffffffffffffffffffffffffffffffffffffff16815260200190815260200160002054905080831115611e5c576000600260003373ffffffffffffffffffffffffffffffffffffffff1673ffffffffffffffffffffffffffffffffffffffff16815260200190815260200160002060008673ffffffffffffffffffffffffffffffffffffffff1673ffffffffffffffffffffffffffffffffffffffff16815260200190815260200160002081905550611ef0565b611e6f8382613ac690919063ffffffff16565b600260003373ffffffffffffffffffffffffffffffffffffffff1673ffffffffffffffffffffffffffffffffffffffff16815260200190815260200160002060008673ffffffffffffffffffffffffffffffffffffffff1673ffffffffffffffffffffffffffffffffffffffff168152602001908152602001600020819055505b8373ffffffffffffffffffffffffffffffffffffffff163373ffffffffffffffffffffffffffffffffffffffff167f8c5be1e5ebec7d5bd14f71427d1e84f3dd0314c0f7b2291e5b200ac8c7c3b925600260003373ffffffffffffffffffffffffffffffffffffffff1673ffffffffffffffffffffffffffffffffffffffff16815260200190815260200160002060008873ffffffffffffffffffffffffffffffffffffffff1673ffffffffffffffffffffffffffffffffffffffff168152602001908152602001600020546040518082815260200191505060405180910390a3600191505092915050565b60008060008373ffffffffffffffffffffffffffffffffffffffff1673ffffffffffffffffffffffffffffffffffffffff168152602001908152602001600020549050919050565b600080600080600073ffffffffffffffffffffffffffffffffffffffff168873ffffffffffffffffffffffffffffffffffffffff161415151561206657600080fd5b6000151560038a6040518082805190602001908083835b6020831015156120a2578051825260208201915060208101905060208303925061207d565b6001836020036101000a038019825116818451168082178552505050505050905001915050908152602001604051809103902060009054906101000a900460ff1615151415156120f157600080fd5b6120fe308989898961177f565b925061210a838a6112cd565b9150600073ffffffffffffffffffffffffffffffffffffffff168273ffffffffffffffffffffffffffffffffffffffff161415151561214857600080fd5b600260008373ffffffffffffffffffffffffffffffffffffffff1673ffffffffffffffffffffffffffffffffffffffff16815260200190815260200160002060008973ffffffffffffffffffffffffffffffffffffffff1673ffffffffffffffffffffffffffffffffffffffff16815260200190815260200160002054905080871115612256576000600260008473ffffffffffffffffffffffffffffffffffffffff1673ffffffffffffffffffffffffffffffffffffffff16815260200190815260200160002060008a73ffffffffffffffffffffffffffffffffffffffff1673ffffffffffffffffffffffffffffffffffffffff168152602001908152602001600020819055506122ea565b6122698782613ac690919063ffffffff16565b600260008473ffffffffffffffffffffffffffffffffffffffff1673ffffffffffffffffffffffffffffffffffffffff16815260200190815260200160002060008a73ffffffffffffffffffffffffffffffffffffffff1673ffffffffffffffffffffffffffffffffffffffff168152602001908152602001600020819055505b61233b866000808573ffffffffffffffffffffffffffffffffffffffff1673ffffffffffffffffffffffffffffffffffffffff16815260200190815260200160002054613ac690919063ffffffff16565b6000808473ffffffffffffffffffffffffffffffffffffffff1673ffffffffffffffffffffffffffffffffffffffff168152602001908152602001600020819055506123ce866000803373ffffffffffffffffffffffffffffffffffffffff1673ffffffffffffffffffffffffffffffffffffffff16815260200190815260200160002054613adf90919063ffffffff16565b6000803373ffffffffffffffffffffffffffffffffffffffff1673ffffffffffffffffffffffffffffffffffffffff16815260200190815260200160002081905550600160038a6040518082805190602001908083835b60208310151561244a5780518252602082019150602081019050602083039250612425565b6001836020036101000a038019825116818451168082178552505050505050905001915050908152602001604051809103902060006101000a81548160ff0219169083151502179055508773ffffffffffffffffffffffffffffffffffffffff168273ffffffffffffffffffffffffffffffffffffffff167f8c5be1e5ebec7d5bd14f71427d1e84f3dd0314c0f7b2291e5b200ac8c7c3b925896040518082815260200191505060405180910390a33373ffffffffffffffffffffffffffffffffffffffff168273ffffffffffffffffffffffffffffffffffffffff167fddf252ad1be2c89b69c2b068fc378daa952ba7f163c4a11628f55a4df523b3ef886040518082815260200191505060405180910390a33373ffffffffffffffffffffffffffffffffffffffff168873ffffffffffffffffffffffffffffffffffffffff168373ffffffffffffffffffffffffffffffffffffffff167f43a220267705e74ee2ceafd46afc841850db6f85a662189a7def697bbdd90ffb600260008773ffffffffffffffffffffffffffffffffffffffff1673ffffffffffffffffffffffffffffffffffffffff16815260200190815260200160002060008d73ffffffffffffffffffffffffffffffffffffffff1673ffffffffffffffffffffffffffffffffffffffff168152602001908152602001600020548a604051808381526020018281526020019250505060405180910390a46001935050505095945050505050565b600063a45f71ff7c010000000000000000000000000000000000000000000000000000000002868686868660405180877bffffffffffffffffffffffffffffffffffffffffffffffffffffffff19167bffffffffffffffffffffffffffffffffffffffffffffffffffffffff191681526004018673ffffffffffffffffffffffffffffffffffffffff1673ffffffffffffffffffffffffffffffffffffffff166c010000000000000000000000000281526014018573ffffffffffffffffffffffffffffffffffffffff1673ffffffffffffffffffffffffffffffffffffffff166c0100000000000000000000000002815260140184815260200183815260200182815260200196505050505050506040518091039020905095945050505050565b60008073ffffffffffffffffffffffffffffffffffffffff168373ffffffffffffffffffffffffffffffffffffffff16141515156127cd57600080fd5b6000803373ffffffffffffffffffffffffffffffffffffffff1673ffffffffffffffffffffffffffffffffffffffff16815260200190815260200160002054821115151561281a57600080fd5b61286b826000803373ffffffffffffffffffffffffffffffffffffffff1673ffffffffffffffffffffffffffffffffffffffff16815260200190815260200160002054613ac690919063ffffffff16565b6000803373ffffffffffffffffffffffffffffffffffffffff1673ffffffffffffffffffffffffffffffffffffffff168152602001908152602001600020819055506128fe826000808673ffffffffffffffffffffffffffffffffffffffff1673ffffffffffffffffffffffffffffffffffffffff16815260200190815260200160002054613adf90919063ffffffff16565b6000808573ffffffffffffffffffffffffffffffffffffffff1673ffffffffffffffffffffffffffffffffffffffff168152602001908152602001600020819055508273ffffffffffffffffffffffffffffffffffffffff163373ffffffffffffffffffffffffffffffffffffffff167fddf252ad1be2c89b69c2b068fc378daa952ba7f163c4a11628f55a4df523b3ef846040518082815260200191505060405180910390a36001905092915050565b60008060008073ffffffffffffffffffffffffffffffffffffffff168773ffffffffffffffffffffffffffffffffffffffff16141515156129ef57600080fd5b600015156003896040518082805190602001908083835b602083101515612a2b5780518252602082019150602081019050602083039250612a06565b6001836020036101000a038019825116818451168082178552505050505050905001915050908152602001604051809103902060009054906101000a900460ff161515141515612a7a57600080fd5b612a87308888888861266e565b9150612a9382896112cd565b9050600073ffffffffffffffffffffffffffffffffffffffff168173ffffffffffffffffffffffffffffffffffffffff1614151515612ad157600080fd5b612b6086600260008473ffffffffffffffffffffffffffffffffffffffff1673ffffffffffffffffffffffffffffffffffffffff16815260200190815260200160002060008a73ffffffffffffffffffffffffffffffffffffffff1673ffffffffffffffffffffffffffffffffffffffff16815260200190815260200160002054613adf90919063ffffffff16565b600260008373ffffffffffffffffffffffffffffffffffffffff1673ffffffffffffffffffffffffffffffffffffffff16815260200190815260200160002060008973ffffffffffffffffffffffffffffffffffffffff1673ffffffffffffffffffffffffffffffffffffffff16815260200190815260200160002081905550612c31856000808473ffffffffffffffffffffffffffffffffffffffff1673ffffffffffffffffffffffffffffffffffffffff16815260200190815260200160002054613ac690919063ffffffff16565b6000808373ffffffffffffffffffffffffffffffffffffffff1673ffffffffffffffffffffffffffffffffffffffff16815260200190815260200160002081905550612cc4856000803373ffffffffffffffffffffffffffffffffffffffff1673ffffffffffffffffffffffffffffffffffffffff16815260200190815260200160002054613adf90919063ffffffff16565b6000803373ffffffffffffffffffffffffffffffffffffffff1673ffffffffffffffffffffffffffffffffffffffff1681526020019081526020016000208190555060016003896040518082805190602001908083835b602083101515612d405780518252602082019150602081019050602083039250612d1b565b6001836020036101000a038019825116818451168082178552505050505050905001915050908152602001604051809103902060006101000a81548160ff0219169083151502179055508673ffffffffffffffffffffffffffffffffffffffff168173ffffffffffffffffffffffffffffffffffffffff167f8c5be1e5ebec7d5bd14f71427d1e84f3dd0314c0f7b2291e5b200ac8c7c3b925600260008573ffffffffffffffffffffffffffffffffffffffff1673ffffffffffffffffffffffffffffffffffffffff16815260200190815260200160002060008b73ffffffffffffffffffffffffffffffffffffffff1673ffffffffffffffffffffffffffffffffffffffff168152602001908152602001600020546040518082815260200191505060405180910390a33373ffffffffffffffffffffffffffffffffffffffff168173ffffffffffffffffffffffffffffffffffffffff167fddf252ad1be2c89b69c2b068fc378daa952ba7f163c4a11628f55a4df523b3ef876040518082815260200191505060405180910390a33373ffffffffffffffffffffffffffffffffffffffff168773ffffffffffffffffffffffffffffffffffffffff168273ffffffffffffffffffffffffffffffffffffffff167f43a220267705e74ee2ceafd46afc841850db6f85a662189a7def697bbdd90ffb600260008673ffffffffffffffffffffffffffffffffffffffff1673ffffffffffffffffffffffffffffffffffffffff16815260200190815260200160002060008c73ffffffffffffffffffffffffffffffffffffffff1673ffffffffffffffffffffffffffffffffffffffff1681526020019081526020016000205489604051808381526020018281526020019250505060405180910390a460019250505095945050505050565b600063b7656dc57c01000000000000000000000000000000000000000000000000000000000287878787878760405180887bffffffffffffffffffffffffffffffffffffffffffffffffffffffff19167bffffffffffffffffffffffffffffffffffffffffffffffffffffffff191681526004018773ffffffffffffffffffffffffffffffffffffffff1673ffffffffffffffffffffffffffffffffffffffff166c010000000000000000000000000281526014018673ffffffffffffffffffffffffffffffffffffffff1673ffffffffffffffffffffffffffffffffffffffff166c010000000000000000000000000281526014018573ffffffffffffffffffffffffffffffffffffffff1673ffffffffffffffffffffffffffffffffffffffff166c01000000000000000000000000028152601401848152602001838152602001828152602001975050505050505050604051809103902090509695505050505050565b60008060008073ffffffffffffffffffffffffffffffffffffffff168773ffffffffffffffffffffffffffffffffffffffff161415151561318557600080fd5b6000151560038a6040518082805190602001908083835b6020831015156131c1578051825260208201915060208101905060208303925061319c565b6001836020036101000a038019825116818451168082178552505050505050905001915050908152602001604051809103902060009054906101000a900460ff16151514151561321057600080fd5b61321e308989898989612fdf565b915061322a828a6112cd565b9050600073ffffffffffffffffffffffffffffffffffffffff168173ffffffffffffffffffffffffffffffffffffffff161415151561326857600080fd5b6132b9866000808b73ffffffffffffffffffffffffffffffffffffffff1673ffffffffffffffffffffffffffffffffffffffff16815260200190815260200160002054613ac690919063ffffffff16565b6000808a73ffffffffffffffffffffffffffffffffffffffff1673ffffffffffffffffffffffffffffffffffffffff1681526020019081526020016000208190555061334c866000808a73ffffffffffffffffffffffffffffffffffffffff1673ffffffffffffffffffffffffffffffffffffffff16815260200190815260200160002054613adf90919063ffffffff16565b6000808973ffffffffffffffffffffffffffffffffffffffff1673ffffffffffffffffffffffffffffffffffffffff1681526020019081526020016000208190555061341d86600260008b73ffffffffffffffffffffffffffffffffffffffff1673ffffffffffffffffffffffffffffffffffffffff16815260200190815260200160002060008473ffffffffffffffffffffffffffffffffffffffff1673ffffffffffffffffffffffffffffffffffffffff16815260200190815260200160002054613ac690919063ffffffff16565b600260008a73ffffffffffffffffffffffffffffffffffffffff1673ffffffffffffffffffffffffffffffffffffffff16815260200190815260200160002060008373ffffffffffffffffffffffffffffffffffffffff1673ffffffffffffffffffffffffffffffffffffffff168152602001908152602001600020819055506134ee856000808473ffffffffffffffffffffffffffffffffffffffff1673ffffffffffffffffffffffffffffffffffffffff16815260200190815260200160002054613ac690919063ffffffff16565b6000808373ffffffffffffffffffffffffffffffffffffffff1673ffffffffffffffffffffffffffffffffffffffff16815260200190815260200160002081905550613581856000803373ffffffffffffffffffffffffffffffffffffffff1673ffffffffffffffffffffffffffffffffffffffff16815260200190815260200160002054613adf90919063ffffffff16565b6000803373ffffffffffffffffffffffffffffffffffffffff1673ffffffffffffffffffffffffffffffffffffffff16815260200190815260200160002081905550600160038a6040518082805190602001908083835b6020831015156135fd57805182526020820191506020810190506020830392506135d8565b6001836020036101000a038019825116818451168082178552505050505050905001915050908152602001604051809103902060006101000a81548160ff0219169083151502179055508673ffffffffffffffffffffffffffffffffffffffff168873ffffffffffffffffffffffffffffffffffffffff167fddf252ad1be2c89b69c2b068fc378daa952ba7f163c4a11628f55a4df523b3ef886040518082815260200191505060405180910390a33373ffffffffffffffffffffffffffffffffffffffff168173ffffffffffffffffffffffffffffffffffffffff167fddf252ad1be2c89b69c2b068fc378daa952ba7f163c4a11628f55a4df523b3ef876040518082815260200191505060405180910390a36001925050509695505050505050565b60006137b282600260003373ffffffffffffffffffffffffffffffffffffffff1673ffffffffffffffffffffffffffffffffffffffff16815260200190815260200160002060008673ffffffffffffffffffffffffffffffffffffffff1673ffffffffffffffffffffffffffffffffffffffff16815260200190815260200160002054613adf90919063ffffffff16565b600260003373ffffffffffffffffffffffffffffffffffffffff1673ffffffffffffffffffffffffffffffffffffffff16815260200190815260200160002060008573ffffffffffffffffffffffffffffffffffffffff1673ffffffffffffffffffffffffffffffffffffffff168152602001908152602001600020819055508273ffffffffffffffffffffffffffffffffffffffff163373ffffffffffffffffffffffffffffffffffffffff167f8c5be1e5ebec7d5bd14f71427d1e84f3dd0314c0f7b2291e5b200ac8c7c3b925600260003373ffffffffffffffffffffffffffffffffffffffff1673ffffffffffffffffffffffffffffffffffffffff16815260200190815260200160002060008773ffffffffffffffffffffffffffffffffffffffff1673ffffffffffffffffffffffffffffffffffffffff168152602001908152602001600020546040518082815260200191505060405180910390a36001905092915050565b6000600260008473ffffffffffffffffffffffffffffffffffffffff1673ffffffffffffffffffffffffffffffffffffffff16815260200190815260200160002060008373ffffffffffffffffffffffffffffffffffffffff1673ffffffffffffffffffffffffffffffffffffffff16815260200190815260200160002054905092915050565b600063f7ac9c2e7c010000000000000000000000000000000000000000000000000000000002868686868660405180877bffffffffffffffffffffffffffffffffffffffffffffffffffffffff19167bffffffffffffffffffffffffffffffffffffffffffffffffffffffff191681526004018673ffffffffffffffffffffffffffffffffffffffff1673ffffffffffffffffffffffffffffffffffffffff166c010000000000000000000000000281526014018573ffffffffffffffffffffffffffffffffffffffff1673ffffffffffffffffffffffffffffffffffffffff166c0100000000000000000000000002815260140184815260200183815260200182815260200196505050505050506040518091039020905095945050505050565b6000828211151515613ad457fe5b818303905092915050565b6000808284019050838110151515613af357fe5b80915050929150505600a165627a7a723058206b596630f44310729be34b866fff00bee27a150028c50744457daa84daf727e20029",
  "source": "pragma solidity ^0.4.18;\n\nimport \"zeppelin-solidity/contracts/token/ERC20/StandardToken.sol\";\nimport \"./ERC865.sol\";\n\n/**\n * @title ERC865Token Token\n *\n * ERC865Token allows users paying transfers in tokens instead of gas\n * https://github.com/ethereum/EIPs/issues/865\n *\n */\n\ncontract ERC865Token is ERC865, StandardToken {\n\n    /* Nonces of transfers performed */\n    mapping(bytes => bool) signatures;\n\n    event TransferPreSigned(address indexed from, address indexed to, address indexed delegate, uint256 amount, uint256 fee);\n    event ApprovalPreSigned(address indexed from, address indexed to, address indexed delegate, uint256 amount, uint256 fee);\n\n    /**\n     * @notice Submit a presigned transfer\n     * @param _signature bytes The signature, issued by the owner.\n     * @param _to address The address which you want to transfer to.\n     * @param _value uint256 The amount of tokens to be transferred.\n     * @param _fee uint256 The amount of tokens paid to msg.sender, by the owner.\n     * @param _nonce uint256 Presigned transaction number.\n     */\n    function transferPreSigned(\n        bytes _signature,\n        address _to,\n        uint256 _value,\n        uint256 _fee,\n        uint256 _nonce\n    )\n        public\n        returns (bool)\n    {\n        require(_to != address(0));\n        require(signatures[_signature] == false);\n\n        bytes32 hashedTx = transferPreSignedHashing(address(this), _to, _value, _fee, _nonce);\n\n        address from = recover(hashedTx, _signature);\n        require(from != address(0));\n\n        balances[from] = balances[from].sub(_value).sub(_fee);\n        balances[_to] = balances[_to].add(_value);\n        balances[msg.sender] = balances[msg.sender].add(_fee);\n        signatures[_signature] = true;\n\n        Transfer(from, _to, _value);\n        Transfer(from, msg.sender, _fee);\n        TransferPreSigned(from, _to, msg.sender, _value, _fee);\n        return true;\n    }\n\n    /**\n     * @notice Submit a presigned approval\n     * @param _signature bytes The signature, issued by the owner.\n     * @param _spender address The address which will spend the funds.\n     * @param _value uint256 The amount of tokens to allow.\n     * @param _fee uint256 The amount of tokens paid to msg.sender, by the owner.\n     * @param _nonce uint256 Presigned transaction number.\n     */\n    function approvePreSigned(\n        bytes _signature,\n        address _spender,\n        uint256 _value,\n        uint256 _fee,\n        uint256 _nonce\n    )\n        public\n        returns (bool)\n    {\n        require(_spender != address(0));\n        require(signatures[_signature] == false);\n\n        bytes32 hashedTx = approvePreSignedHashing(address(this), _spender, _value, _fee, _nonce);\n        address from = recover(hashedTx, _signature);\n        require(from != address(0));\n\n        allowed[from][_spender] = _value;\n        balances[from] = balances[from].sub(_fee);\n        balances[msg.sender] = balances[msg.sender].add(_fee);\n        signatures[_signature] = true;\n\n        Approval(from, _spender, _value);\n        Transfer(from, msg.sender, _fee);\n        ApprovalPreSigned(from, _spender, msg.sender, _value, _fee);\n        return true;\n    }\n\n    /**\n     * @notice Increase the amount of tokens that an owner allowed to a spender.\n     * @param _signature bytes The signature, issued by the owner.\n     * @param _spender address The address which will spend the funds.\n     * @param _addedValue uint256 The amount of tokens to increase the allowance by.\n     * @param _fee uint256 The amount of tokens paid to msg.sender, by the owner.\n     * @param _nonce uint256 Presigned transaction number.\n     */\n    function increaseApprovalPreSigned(\n        bytes _signature,\n        address _spender,\n        uint256 _addedValue,\n        uint256 _fee,\n        uint256 _nonce\n    )\n        public\n        returns (bool)\n    {\n        require(_spender != address(0));\n        require(signatures[_signature] == false);\n\n        bytes32 hashedTx = increaseApprovalPreSignedHashing(address(this), _spender, _addedValue, _fee, _nonce);\n        address from = recover(hashedTx, _signature);\n        require(from != address(0));\n\n        allowed[from][_spender] = allowed[from][_spender].add(_addedValue);\n        balances[from] = balances[from].sub(_fee);\n        balances[msg.sender] = balances[msg.sender].add(_fee);\n        signatures[_signature] = true;\n\n        Approval(from, _spender, allowed[from][_spender]);\n        Transfer(from, msg.sender, _fee);\n        ApprovalPreSigned(from, _spender, msg.sender, allowed[from][_spender], _fee);\n        return true;\n    }\n\n    /**\n     * @notice Decrease the amount of tokens that an owner allowed to a spender.\n     * @param _signature bytes The signature, issued by the owner\n     * @param _spender address The address which will spend the funds.\n     * @param _subtractedValue uint256 The amount of tokens to decrease the allowance by.\n     * @param _fee uint256 The amount of tokens paid to msg.sender, by the owner.\n     * @param _nonce uint256 Presigned transaction number.\n     */\n    function decreaseApprovalPreSigned(\n        bytes _signature,\n        address _spender,\n        uint256 _subtractedValue,\n        uint256 _fee,\n        uint256 _nonce\n    )\n        public\n        returns (bool)\n    {\n        require(_spender != address(0));\n        require(signatures[_signature] == false);\n\n        bytes32 hashedTx = decreaseApprovalPreSignedHashing(address(this), _spender, _subtractedValue, _fee, _nonce);\n        address from = recover(hashedTx, _signature);\n        require(from != address(0));\n\n        uint oldValue = allowed[from][_spender];\n        if (_subtractedValue > oldValue) {\n            allowed[from][_spender] = 0;\n        } else {\n            allowed[from][_spender] = oldValue.sub(_subtractedValue);\n        }\n        balances[from] = balances[from].sub(_fee);\n        balances[msg.sender] = balances[msg.sender].add(_fee);\n        signatures[_signature] = true;\n\n        Approval(from, _spender, _subtractedValue);\n        Transfer(from, msg.sender, _fee);\n        ApprovalPreSigned(from, _spender, msg.sender, allowed[from][_spender], _fee);\n        return true;\n    }\n\n    /**\n     * @notice Transfer tokens from one address to another\n     * @param _signature bytes The signature, issued by the spender.\n     * @param _from address The address which you want to send tokens from.\n     * @param _to address The address which you want to transfer to.\n     * @param _value uint256 The amount of tokens to be transferred.\n     * @param _fee uint256 The amount of tokens paid to msg.sender, by the spender.\n     * @param _nonce uint256 Presigned transaction number.\n     */\n    function transferFromPreSigned(\n        bytes _signature,\n        address _from,\n        address _to,\n        uint256 _value,\n        uint256 _fee,\n        uint256 _nonce\n    )\n        public\n        returns (bool)\n    {\n        require(_to != address(0));\n        require(signatures[_signature] == false);\n\n        bytes32 hashedTx = transferFromPreSignedHashing(address(this), _from, _to, _value, _fee, _nonce);\n\n        address spender = recover(hashedTx, _signature);\n        require(spender != address(0));\n\n        balances[_from] = balances[_from].sub(_value);\n        balances[_to] = balances[_to].add(_value);\n        allowed[_from][spender] = allowed[_from][spender].sub(_value);\n\n        balances[spender] = balances[spender].sub(_fee);\n        balances[msg.sender] = balances[msg.sender].add(_fee);\n        signatures[_signature] = true;\n\n        Transfer(_from, _to, _value);\n        Transfer(spender, msg.sender, _fee);\n        return true;\n    }\n\n\n    /**\n     * @notice Hash (keccak256) of the payload used by transferPreSigned\n     * @param _token address The address of the token.\n     * @param _to address The address which you want to transfer to.\n     * @param _value uint256 The amount of tokens to be transferred.\n     * @param _fee uint256 The amount of tokens paid to msg.sender, by the owner.\n     * @param _nonce uint256 Presigned transaction number.\n     */\n    function transferPreSignedHashing(\n        address _token,\n        address _to,\n        uint256 _value,\n        uint256 _fee,\n        uint256 _nonce\n    )\n        public\n        pure\n        returns (bytes32)\n    {\n        /* \"48664c16\": transferPreSignedHashing(address,address,address,uint256,uint256,uint256) */\n        return keccak256(bytes4(0x48664c16), _token, _to, _value, _fee, _nonce);\n    }\n\n    /**\n     * @notice Hash (keccak256) of the payload used by approvePreSigned\n     * @param _token address The address of the token\n     * @param _spender address The address which will spend the funds.\n     * @param _value uint256 The amount of tokens to allow.\n     * @param _fee uint256 The amount of tokens paid to msg.sender, by the owner.\n     * @param _nonce uint256 Presigned transaction number.\n     */\n    function approvePreSignedHashing(\n        address _token,\n        address _spender,\n        uint256 _value,\n        uint256 _fee,\n        uint256 _nonce\n    )\n        public\n        pure\n        returns (bytes32)\n    {\n        /* \"f7ac9c2e\": approvePreSignedHashing(address,address,uint256,uint256,uint256) */\n        return keccak256(bytes4(0xf7ac9c2e), _token, _spender, _value, _fee, _nonce);\n    }\n\n    /**\n     * @notice Hash (keccak256) of the payload used by increaseApprovalPreSigned\n     * @param _token address The address of the token\n     * @param _spender address The address which will spend the funds.\n     * @param _addedValue uint256 The amount of tokens to increase the allowance by.\n     * @param _fee uint256 The amount of tokens paid to msg.sender, by the owner.\n     * @param _nonce uint256 Presigned transaction number.\n     */\n    function increaseApprovalPreSignedHashing(\n        address _token,\n        address _spender,\n        uint256 _addedValue,\n        uint256 _fee,\n        uint256 _nonce\n    )\n        public\n        pure\n        returns (bytes32)\n    {\n        /* \"a45f71ff\": increaseApprovalPreSignedHashing(address,address,uint256,uint256,uint256) */\n        return keccak256(bytes4(0xa45f71ff), _token, _spender, _addedValue, _fee, _nonce);\n    }\n\n     /**\n      * @notice Hash (keccak256) of the payload used by decreaseApprovalPreSigned\n      * @param _token address The address of the token\n      * @param _spender address The address which will spend the funds.\n      * @param _subtractedValue uint256 The amount of tokens to decrease the allowance by.\n      * @param _fee uint256 The amount of tokens paid to msg.sender, by the owner.\n      * @param _nonce uint256 Presigned transaction number.\n      */\n    function decreaseApprovalPreSignedHashing(\n        address _token,\n        address _spender,\n        uint256 _subtractedValue,\n        uint256 _fee,\n        uint256 _nonce\n    )\n        public\n        pure\n        returns (bytes32)\n    {\n        /* \"59388d78\": decreaseApprovalPreSignedHashing(address,address,uint256,uint256,uint256) */\n        return keccak256(bytes4(0x59388d78), _token, _spender, _subtractedValue, _fee, _nonce);\n    }\n\n    /**\n     * @notice Hash (keccak256) of the payload used by transferFromPreSigned\n     * @param _token address The address of the token\n     * @param _from address The address which you want to send tokens from.\n     * @param _to address The address which you want to transfer to.\n     * @param _value uint256 The amount of tokens to be transferred.\n     * @param _fee uint256 The amount of tokens paid to msg.sender, by the spender.\n     * @param _nonce uint256 Presigned transaction number.\n     */\n    function transferFromPreSignedHashing(\n        address _token,\n        address _from,\n        address _to,\n        uint256 _value,\n        uint256 _fee,\n        uint256 _nonce\n    )\n        public\n        pure\n        returns (bytes32)\n    {\n        /* \"b7656dc5\": transferFromPreSignedHashing(address,address,address,uint256,uint256,uint256) */\n        return keccak256(bytes4(0xb7656dc5), _token, _from, _to, _value, _fee, _nonce);\n    }\n\n    /**\n     * @notice Recover signer address from a message by using his signature\n     * @param hash bytes32 message, the hash is the signed message. What is recovered is the signer address.\n     * @param sig bytes signature, the signature is generated using web3.eth.sign()\n     */\n    function recover(bytes32 hash, bytes sig) public pure returns (address) {\n      bytes32 r;\n      bytes32 s;\n      uint8 v;\n\n      //Check the signature length\n      if (sig.length != 65) {\n        return (address(0));\n      }\n\n      // Divide the signature in r, s and v variables\n      assembly {\n        r := mload(add(sig, 32))\n        s := mload(add(sig, 64))\n        v := byte(0, mload(add(sig, 96)))\n      }\n\n      // Version of signature should be 27 or 28, but 0 and 1 are also possible versions\n      if (v < 27) {\n        v += 27;\n      }\n\n      // If the version is correct return the signer address\n      if (v != 27 && v != 28) {\n        return (address(0));\n      } else {\n        return ecrecover(hash, v, r, s);\n      }\n    }\n\n}\n",
  "sourcePath": "/Users/jretina/Programming/PROPSProject/props-token-distribution/contracts/token/ERC865Token.sol",
  "compiler": {
    "name": "solc",
    "version": "0.4.24+commit.e67f0147.Emscripten.clang"
  },
  "schemaVersion": "2.0.1",
  "updatedAt": "2018-09-16T09:01:37.547Z"
}