{
  "contractName": "FinalizableCrowdsale",
  "abi": [
    {
      "constant": true,
      "inputs": [],
      "name": "hasClosed",
      "outputs": [
        {
          "name": "",
          "type": "bool"
        }
      ],
      "payable": false,
      "stateMutability": "view",
      "type": "function"
    },
    {
      "constant": true,
      "inputs": [],
      "name": "rate",
      "outputs": [
        {
          "name": "",
          "type": "uint256"
        }
      ],
      "payable": false,
      "stateMutability": "view",
      "type": "function"
    },
    {
      "constant": true,
      "inputs": [],
      "name": "weiRaised",
      "outputs": [
        {
          "name": "",
          "type": "uint256"
        }
      ],
      "payable": false,
      "stateMutability": "view",
      "type": "function"
    },
    {
      "constant": true,
      "inputs": [],
      "name": "isOpen",
      "outputs": [
        {
          "name": "",
          "type": "bool"
        }
      ],
      "payable": false,
      "stateMutability": "view",
      "type": "function"
    },
    {
      "constant": true,
      "inputs": [],
      "name": "closingTime",
      "outputs": [
        {
          "name": "",
          "type": "uint256"
        }
      ],
      "payable": false,
      "stateMutability": "view",
      "type": "function"
    },
    {
      "constant": true,
      "inputs": [],
      "name": "wallet",
      "outputs": [
        {
          "name": "",
          "type": "address"
        }
      ],
      "payable": false,
      "stateMutability": "view",
      "type": "function"
    },
    {
      "constant": false,
      "inputs": [
        {
          "name": "rate",
          "type": "uint256"
        },
        {
          "name": "wallet",
          "type": "address"
        },
        {
          "name": "token",
          "type": "address"
        }
      ],
      "name": "initialize",
      "outputs": [],
      "payable": false,
      "stateMutability": "nonpayable",
      "type": "function"
    },
    {
      "constant": true,
      "inputs": [],
      "name": "openingTime",
      "outputs": [
        {
          "name": "",
          "type": "uint256"
        }
      ],
      "payable": false,
      "stateMutability": "view",
      "type": "function"
    },
    {
      "constant": false,
      "inputs": [
        {
          "name": "openingTime",
          "type": "uint256"
        },
        {
          "name": "closingTime",
          "type": "uint256"
        }
      ],
      "name": "initialize",
      "outputs": [],
      "payable": false,
      "stateMutability": "nonpayable",
      "type": "function"
    },
    {
      "constant": false,
      "inputs": [
        {
          "name": "beneficiary",
          "type": "address"
        }
      ],
      "name": "buyTokens",
      "outputs": [],
      "payable": true,
      "stateMutability": "payable",
      "type": "function"
    },
    {
      "constant": true,
      "inputs": [],
      "name": "token",
      "outputs": [
        {
          "name": "",
          "type": "address"
        }
      ],
      "payable": false,
      "stateMutability": "view",
      "type": "function"
    },
    {
      "payable": true,
      "stateMutability": "payable",
      "type": "fallback"
    },
    {
      "anonymous": false,
      "inputs": [],
      "name": "CrowdsaleFinalized",
      "type": "event"
    },
    {
      "anonymous": false,
      "inputs": [
        {
          "indexed": true,
          "name": "purchaser",
          "type": "address"
        },
        {
          "indexed": true,
          "name": "beneficiary",
          "type": "address"
        },
        {
          "indexed": false,
          "name": "value",
          "type": "uint256"
        },
        {
          "indexed": false,
          "name": "amount",
          "type": "uint256"
        }
      ],
      "name": "TokensPurchased",
      "type": "event"
    },
    {
      "constant": true,
      "inputs": [],
      "name": "finalized",
      "outputs": [
        {
          "name": "",
          "type": "bool"
        }
      ],
      "payable": false,
      "stateMutability": "view",
      "type": "function"
    },
    {
      "constant": false,
      "inputs": [],
      "name": "finalize",
      "outputs": [],
      "payable": false,
      "stateMutability": "nonpayable",
      "type": "function"
    }
  ],
  "bytecode": "0x60806040526000609d60006101000a81548160ff02191690831515021790555034801561002b57600080fd5b50610d1a8061003b6000396000f3006080604052600436106100c5576000357c0100000000000000000000000000000000000000000000000000000000900463ffffffff1680631515bc2b146100d05780632c4e722e146100ff5780634042b66f1461012a57806347535d7b146101555780634b6753bc146101845780634bb278f3146101af578063521eb273146101c6578063b3f05b971461021d578063b4988fd01461024c578063b7a8807c146102b9578063e4a30116146102e4578063ec8ac4d81461031b578063fc0c546a14610351575b6100ce336103a8565b005b3480156100dc57600080fd5b506100e5610476565b604051808215151515815260200191505060405180910390f35b34801561010b57600080fd5b50610114610482565b6040518082815260200191505060405180910390f35b34801561013657600080fd5b5061013f61048c565b6040518082815260200191505060405180910390f35b34801561016157600080fd5b5061016a610496565b604051808215151515815260200191505060405180910390f35b34801561019057600080fd5b506101996104b1565b6040518082815260200191505060405180910390f35b3480156101bb57600080fd5b506101c46104bb565b005b3480156101d257600080fd5b506101db61053b565b604051808273ffffffffffffffffffffffffffffffffffffffff1673ffffffffffffffffffffffffffffffffffffffff16815260200191505060405180910390f35b34801561022957600080fd5b50610232610565565b604051808215151515815260200191505060405180910390f35b34801561025857600080fd5b506102b760048036038101908080359060200190929190803573ffffffffffffffffffffffffffffffffffffffff169060200190929190803573ffffffffffffffffffffffffffffffffffffffff16906020019092919050505061057c565b005b3480156102c557600080fd5b506102ce6107c4565b6040518082815260200191505060405180910390f35b3480156102f057600080fd5b5061031960048036038101908080359060200190929190803590602001909291905050506107ce565b005b61034f600480360381019080803573ffffffffffffffffffffffffffffffffffffffff1690602001909291905050506103a8565b005b34801561035d57600080fd5b50610366610941565b604051808273ffffffffffffffffffffffffffffffffffffffff1673ffffffffffffffffffffffffffffffffffffffff16815260200191505060405180910390f35b6000803491506103b8838361096b565b6103c18261098c565b90506103d8826036546109aa90919063ffffffff16565b6036819055506103e883826109cb565b8273ffffffffffffffffffffffffffffffffffffffff163373ffffffffffffffffffffffffffffffffffffffff167f6faf93231a456e552dbc9961f58d9713ee4f2e69d15f1975b050ef0911053a7b8484604051808381526020018281526020019250505060405180910390a361045f83836109d9565b6104676109dd565b6104718383610a48565b505050565b6000606a544211905090565b6000603554905090565b6000603654905090565b600060695442101580156104ac5750606a544211155b905090565b6000606a54905090565b609d60009054906101000a900460ff161515156104d757600080fd5b6104df610476565b15156104ea57600080fd5b6104f2610a4c565b7f9270cc390c096600a1c17c44345a1ba689fafd99d97487b10cfccf86cf73183660405160405180910390a16001609d60006101000a81548160ff021916908315150217905550565b6000603460009054906101000a900473ffffffffffffffffffffffffffffffffffffffff16905090565b6000609d60009054906101000a900460ff16905090565b60008060019054906101000a900460ff168061059c575061059b610a4e565b5b806105b357506000809054906101000a900460ff16155b151561064d576040517f08c379a000000000000000000000000000000000000000000000000000000000815260040180806020018281038252602e8152602001807f436f6e747261637420696e7374616e63652068617320616c726561647920626581526020017f656e20696e697469616c697a656400000000000000000000000000000000000081525060400191505060405180910390fd5b600060019054906101000a900460ff1690506001600060016101000a81548160ff02191690831515021790555060016000806101000a81548160ff0219169083151502179055506000841115156106a357600080fd5b600073ffffffffffffffffffffffffffffffffffffffff168373ffffffffffffffffffffffffffffffffffffffff16141515156106df57600080fd5b600073ffffffffffffffffffffffffffffffffffffffff168273ffffffffffffffffffffffffffffffffffffffff161415151561071b57600080fd5b8360358190555082603460006101000a81548173ffffffffffffffffffffffffffffffffffffffff021916908373ffffffffffffffffffffffffffffffffffffffff16021790555081603360006101000a81548173ffffffffffffffffffffffffffffffffffffffff021916908373ffffffffffffffffffffffffffffffffffffffff16021790555080600060016101000a81548160ff02191690831515021790555050505050565b6000606954905090565b60008060019054906101000a900460ff16806107ee57506107ed610a4e565b5b8061080557506000809054906101000a900460ff16155b151561089f576040517f08c379a000000000000000000000000000000000000000000000000000000000815260040180806020018281038252602e8152602001807f436f6e747261637420696e7374616e63652068617320616c726561647920626581526020017f656e20696e697469616c697a656400000000000000000000000000000000000081525060400191505060405180910390fd5b600060019054906101000a900460ff1690506001600060016101000a81548160ff02191690831515021790555060016000806101000a81548160ff0219169083151502179055506108ee610a5f565b15156108f657fe5b42831015151561090557600080fd5b82821015151561091457600080fd5b8260698190555081606a8190555080600060016101000a81548160ff021916908315150217905550505050565b6000603360009054906101000a900473ffffffffffffffffffffffffffffffffffffffff16905090565b610973610496565b151561097e57600080fd5b6109888282610b21565b5050565b60006109a360355483610b7190919063ffffffff16565b9050919050565b60008082840190508381101515156109c157600080fd5b8091505092915050565b6109d58282610baf565b5050565b5050565b603460009054906101000a900473ffffffffffffffffffffffffffffffffffffffff1673ffffffffffffffffffffffffffffffffffffffff166108fc349081150290604051600060405180830381858888f19350505050158015610a45573d6000803e3d6000fd5b50565b5050565b565b600080303b90506000811491505090565b600080603554118015610ac15750600073ffffffffffffffffffffffffffffffffffffffff16603460009054906101000a900473ffffffffffffffffffffffffffffffffffffffff1673ffffffffffffffffffffffffffffffffffffffff1614155b8015610b1c5750600073ffffffffffffffffffffffffffffffffffffffff16603360009054906101000a900473ffffffffffffffffffffffffffffffffffffffff1673ffffffffffffffffffffffffffffffffffffffff1614155b905090565b600073ffffffffffffffffffffffffffffffffffffffff168273ffffffffffffffffffffffffffffffffffffffff1614151515610b5d57600080fd5b60008114151515610b6d57600080fd5b5050565b6000806000841415610b865760009150610ba8565b8284029050828482811515610b9757fe5b04141515610ba457600080fd5b8091505b5092915050565b610bfc8282603360009054906101000a900473ffffffffffffffffffffffffffffffffffffffff1673ffffffffffffffffffffffffffffffffffffffff16610c009092919063ffffffff16565b5050565b8273ffffffffffffffffffffffffffffffffffffffff1663a9059cbb83836040518363ffffffff167c0100000000000000000000000000000000000000000000000000000000028152600401808373ffffffffffffffffffffffffffffffffffffffff1673ffffffffffffffffffffffffffffffffffffffff16815260200182815260200192505050602060405180830381600087803b158015610ca357600080fd5b505af1158015610cb7573d6000803e3d6000fd5b505050506040513d6020811015610ccd57600080fd5b81019080805190602001909291905050501515610ce957600080fd5b5050505600a165627a7a72305820b17c8f5a613904aeabd4791397f25aecc4808f003aad8b15902bf2d95145270b0029",
  "source": "pragma solidity ^0.4.24;\n\nimport \"zos-lib/contracts/Initializable.sol\";\nimport \"../../math/SafeMath.sol\";\nimport \"../validation/TimedCrowdsale.sol\";\n\n\n/**\n * @title FinalizableCrowdsale\n * @dev Extension of Crowdsale with a one-off finalization action, where one\n * can do extra work after finishing.\n */\ncontract FinalizableCrowdsale is Initializable, TimedCrowdsale {\n  using SafeMath for uint256;\n\n  bool private _finalized = false;\n\n  event CrowdsaleFinalized();\n\n  /**\n   * @return true if the crowdsale is finalized, false otherwise.\n   */\n  function finalized() public view returns (bool) {\n    return _finalized;\n  }\n\n  /**\n   * @dev Must be called after crowdsale ends, to do some extra finalization\n   * work. Calls the contract's finalization function.\n   */\n  function finalize() public {\n    require(!_finalized);\n    require(hasClosed());\n\n    _finalization();\n    emit CrowdsaleFinalized();\n\n    _finalized = true;\n  }\n\n  /**\n   * @dev Can be overridden to add finalization logic. The overriding function\n   * should call super._finalization() to ensure the chain of finalization is\n   * executed entirely.\n   */\n  function _finalization() internal {\n  }\n\n\n  uint256[50] private ______gap;\n}\n",
  "sourcePath": "/Users/jretina/Programming/PROPSProject/props-token-distribution/contracts/token/openzeppelin-eth/contracts/crowdsale/distribution/FinalizableCrowdsale.sol",
  "compiler": {
    "name": "solc",
    "version": "0.4.24+commit.e67f0147.Emscripten.clang"
  },
  "schemaVersion": "2.0.1",
  "updatedAt": "2019-05-26T11:57:18.073Z"
}