{
  "contractName": "IncreasingPriceCrowdsale",
  "abi": [
    {
      "constant": true,
      "inputs": [],
      "name": "hasClosed",
      "outputs": [
        {
          "name": "",
          "type": "bool"
        }
      ],
      "payable": false,
      "stateMutability": "view",
      "type": "function"
    },
    {
      "constant": true,
      "inputs": [],
      "name": "rate",
      "outputs": [
        {
          "name": "",
          "type": "uint256"
        }
      ],
      "payable": false,
      "stateMutability": "view",
      "type": "function"
    },
    {
      "constant": true,
      "inputs": [],
      "name": "weiRaised",
      "outputs": [
        {
          "name": "",
          "type": "uint256"
        }
      ],
      "payable": false,
      "stateMutability": "view",
      "type": "function"
    },
    {
      "constant": true,
      "inputs": [],
      "name": "isOpen",
      "outputs": [
        {
          "name": "",
          "type": "bool"
        }
      ],
      "payable": false,
      "stateMutability": "view",
      "type": "function"
    },
    {
      "constant": true,
      "inputs": [],
      "name": "closingTime",
      "outputs": [
        {
          "name": "",
          "type": "uint256"
        }
      ],
      "payable": false,
      "stateMutability": "view",
      "type": "function"
    },
    {
      "constant": true,
      "inputs": [],
      "name": "wallet",
      "outputs": [
        {
          "name": "",
          "type": "address"
        }
      ],
      "payable": false,
      "stateMutability": "view",
      "type": "function"
    },
    {
      "constant": true,
      "inputs": [],
      "name": "openingTime",
      "outputs": [
        {
          "name": "",
          "type": "uint256"
        }
      ],
      "payable": false,
      "stateMutability": "view",
      "type": "function"
    },
    {
      "constant": false,
      "inputs": [
        {
          "name": "beneficiary",
          "type": "address"
        }
      ],
      "name": "buyTokens",
      "outputs": [],
      "payable": true,
      "stateMutability": "payable",
      "type": "function"
    },
    {
      "constant": true,
      "inputs": [],
      "name": "token",
      "outputs": [
        {
          "name": "",
          "type": "address"
        }
      ],
      "payable": false,
      "stateMutability": "view",
      "type": "function"
    },
    {
      "payable": true,
      "stateMutability": "payable",
      "type": "fallback"
    },
    {
      "anonymous": false,
      "inputs": [
        {
          "indexed": true,
          "name": "purchaser",
          "type": "address"
        },
        {
          "indexed": true,
          "name": "beneficiary",
          "type": "address"
        },
        {
          "indexed": false,
          "name": "value",
          "type": "uint256"
        },
        {
          "indexed": false,
          "name": "amount",
          "type": "uint256"
        }
      ],
      "name": "TokensPurchased",
      "type": "event"
    },
    {
      "constant": false,
      "inputs": [
        {
          "name": "rate",
          "type": "uint256"
        },
        {
          "name": "wallet",
          "type": "address"
        },
        {
          "name": "token",
          "type": "address"
        }
      ],
      "name": "initialize",
      "outputs": [],
      "payable": false,
      "stateMutability": "nonpayable",
      "type": "function"
    },
    {
      "constant": false,
      "inputs": [
        {
          "name": "initialRate",
          "type": "uint256"
        },
        {
          "name": "finalRate",
          "type": "uint256"
        }
      ],
      "name": "initialize",
      "outputs": [],
      "payable": false,
      "stateMutability": "nonpayable",
      "type": "function"
    },
    {
      "constant": true,
      "inputs": [],
      "name": "initialRate",
      "outputs": [
        {
          "name": "",
          "type": "uint256"
        }
      ],
      "payable": false,
      "stateMutability": "view",
      "type": "function"
    },
    {
      "constant": true,
      "inputs": [],
      "name": "finalRate",
      "outputs": [
        {
          "name": "",
          "type": "uint256"
        }
      ],
      "payable": false,
      "stateMutability": "view",
      "type": "function"
    },
    {
      "constant": true,
      "inputs": [],
      "name": "getCurrentRate",
      "outputs": [
        {
          "name": "",
          "type": "uint256"
        }
      ],
      "payable": false,
      "stateMutability": "view",
      "type": "function"
    }
  ],
  "bytecode": "0x608060405234801561001057600080fd5b50610d27806100206000396000f3006080604052600436106100d0576000357c0100000000000000000000000000000000000000000000000000000000900463ffffffff1680631515bc2b146100db578063211061091461010a5780632c4e722e146101355780634042b66f1461016057806347535d7b1461018b5780634b6753bc146101ba578063521eb273146101e55780639e51051f1461023c578063b4988fd014610267578063b7a8807c146102d4578063e4a30116146102ff578063ec8ac4d814610336578063f7fb07b01461036c578063fc0c546a14610397575b6100d9336103ee565b005b3480156100e757600080fd5b506100f06104bc565b604051808215151515815260200191505060405180910390f35b34801561011657600080fd5b5061011f6104c8565b6040518082815260200191505060405180910390f35b34801561014157600080fd5b5061014a6104d2565b6040518082815260200191505060405180910390f35b34801561016c57600080fd5b506101756104dc565b6040518082815260200191505060405180910390f35b34801561019757600080fd5b506101a06104e6565b604051808215151515815260200191505060405180910390f35b3480156101c657600080fd5b506101cf610501565b6040518082815260200191505060405180910390f35b3480156101f157600080fd5b506101fa61050b565b604051808273ffffffffffffffffffffffffffffffffffffffff1673ffffffffffffffffffffffffffffffffffffffff16815260200191505060405180910390f35b34801561024857600080fd5b50610251610535565b6040518082815260200191505060405180910390f35b34801561027357600080fd5b506102d260048036038101908080359060200190929190803573ffffffffffffffffffffffffffffffffffffffff169060200190929190803573ffffffffffffffffffffffffffffffffffffffff16906020019092919050505061053f565b005b3480156102e057600080fd5b506102e9610787565b6040518082815260200191505060405180910390f35b34801561030b57600080fd5b506103346004803603810190808035906020019092919080359060200190929190505050610791565b005b61036a600480360381019080803573ffffffffffffffffffffffffffffffffffffffff1690602001909291905050506103ee565b005b34801561037857600080fd5b50610381610904565b6040518082815260200191505060405180910390f35b3480156103a357600080fd5b506103ac6109a3565b604051808273ffffffffffffffffffffffffffffffffffffffff1673ffffffffffffffffffffffffffffffffffffffff16815260200191505060405180910390f35b6000803491506103fe83836109cd565b610407826109ee565b905061041e82603654610a1690919063ffffffff16565b60368190555061042e8382610a37565b8273ffffffffffffffffffffffffffffffffffffffff163373ffffffffffffffffffffffffffffffffffffffff167f6faf93231a456e552dbc9961f58d9713ee4f2e69d15f1975b050ef0911053a7b8484604051808381526020018281526020019250505060405180910390a36104a58383610a45565b6104ad610a49565b6104b78383610ab4565b505050565b6000606a544211905090565b6000609e54905090565b6000603554905090565b6000603654905090565b600060695442101580156104fc5750606a544211155b905090565b6000606a54905090565b6000603460009054906101000a900473ffffffffffffffffffffffffffffffffffffffff16905090565b6000609d54905090565b60008060019054906101000a900460ff168061055f575061055e610ab8565b5b8061057657506000809054906101000a900460ff16155b1515610610576040517f08c379a000000000000000000000000000000000000000000000000000000000815260040180806020018281038252602e8152602001807f436f6e747261637420696e7374616e63652068617320616c726561647920626581526020017f656e20696e697469616c697a656400000000000000000000000000000000000081525060400191505060405180910390fd5b600060019054906101000a900460ff1690506001600060016101000a81548160ff02191690831515021790555060016000806101000a81548160ff02191690831515021790555060008411151561066657600080fd5b600073ffffffffffffffffffffffffffffffffffffffff168373ffffffffffffffffffffffffffffffffffffffff16141515156106a257600080fd5b600073ffffffffffffffffffffffffffffffffffffffff168273ffffffffffffffffffffffffffffffffffffffff16141515156106de57600080fd5b8360358190555082603460006101000a81548173ffffffffffffffffffffffffffffffffffffffff021916908373ffffffffffffffffffffffffffffffffffffffff16021790555081603360006101000a81548173ffffffffffffffffffffffffffffffffffffffff021916908373ffffffffffffffffffffffffffffffffffffffff16021790555080600060016101000a81548160ff02191690831515021790555050505050565b6000606954905090565b60008060019054906101000a900460ff16806107b157506107b0610ab8565b5b806107c857506000809054906101000a900460ff16155b1515610862576040517f08c379a000000000000000000000000000000000000000000000000000000000815260040180806020018281038252602e8152602001807f436f6e747261637420696e7374616e63652068617320616c726561647920626581526020017f656e20696e697469616c697a656400000000000000000000000000000000000081525060400191505060405180910390fd5b600060019054906101000a900460ff1690506001600060016101000a81548160ff02191690831515021790555060016000806101000a81548160ff0219169083151502179055506108b1610ac9565b15156108b957fe5b6000821115156108c857600080fd5b8183101515156108d757600080fd5b82609d8190555081609e8190555080600060016101000a81548160ff021916908315150217905550505050565b600080600080610924610915610787565b42610ae390919063ffffffff16565b9250610947610931610787565b610939610501565b610ae390919063ffffffff16565b9150610960609e54609d54610ae390919063ffffffff16565b905061099b61098a8361097c8487610b0490919063ffffffff16565b610b4290919063ffffffff16565b609d54610ae390919063ffffffff16565b935050505090565b6000603360009054906101000a900473ffffffffffffffffffffffffffffffffffffffff16905090565b6109d56104e6565b15156109e057600080fd5b6109ea8282610b6c565b5050565b6000806109f9610904565b9050610a0e8382610b0490919063ffffffff16565b915050919050565b6000808284019050838110151515610a2d57600080fd5b8091505092915050565b610a418282610bbc565b5050565b5050565b603460009054906101000a900473ffffffffffffffffffffffffffffffffffffffff1673ffffffffffffffffffffffffffffffffffffffff166108fc349081150290604051600060405180830381858888f19350505050158015610ab1573d6000803e3d6000fd5b50565b5050565b600080303b90506000811491505090565b600080606954118015610ade57506000606a54115b905090565b600080838311151515610af557600080fd5b82840390508091505092915050565b6000806000841415610b195760009150610b3b565b8284029050828482811515610b2a57fe5b04141515610b3757600080fd5b8091505b5092915050565b600080600083111515610b5457600080fd5b8284811515610b5f57fe5b0490508091505092915050565b600073ffffffffffffffffffffffffffffffffffffffff168273ffffffffffffffffffffffffffffffffffffffff1614151515610ba857600080fd5b60008114151515610bb857600080fd5b5050565b610c098282603360009054906101000a900473ffffffffffffffffffffffffffffffffffffffff1673ffffffffffffffffffffffffffffffffffffffff16610c0d9092919063ffffffff16565b5050565b8273ffffffffffffffffffffffffffffffffffffffff1663a9059cbb83836040518363ffffffff167c0100000000000000000000000000000000000000000000000000000000028152600401808373ffffffffffffffffffffffffffffffffffffffff1673ffffffffffffffffffffffffffffffffffffffff16815260200182815260200192505050602060405180830381600087803b158015610cb057600080fd5b505af1158015610cc4573d6000803e3d6000fd5b505050506040513d6020811015610cda57600080fd5b81019080805190602001909291905050501515610cf657600080fd5b5050505600a165627a7a7230582064a905cd4ab7fb769954493a821d783150f0424d0c0d73c3bb36d36a09b81fe30029",
  "source": "pragma solidity ^0.4.24;\n\nimport \"zos-lib/contracts/Initializable.sol\";\nimport \"../validation/TimedCrowdsale.sol\";\nimport \"../../math/SafeMath.sol\";\n\n\n/**\n * @title IncreasingPriceCrowdsale\n * @dev Extension of Crowdsale contract that increases the price of tokens linearly in time.\n * Note that what should be provided to the constructor is the initial and final _rates_, that is,\n * the amount of tokens per wei contributed. Thus, the initial rate must be greater than the final rate.\n */\ncontract IncreasingPriceCrowdsale is Initializable, TimedCrowdsale {\n  using SafeMath for uint256;\n\n  uint256 private _initialRate;\n  uint256 private _finalRate;\n\n  /**\n   * @dev Constructor, takes initial and final rates of tokens received per wei contributed.\n   * @param initialRate Number of tokens a buyer gets per wei at the start of the crowdsale\n   * @param finalRate Number of tokens a buyer gets per wei at the end of the crowdsale\n   */\n  function initialize(uint256 initialRate, uint256 finalRate) public initializer {\n    assert(TimedCrowdsale._hasBeenInitialized());\n\n    require(finalRate > 0);\n    require(initialRate >= finalRate);\n    _initialRate = initialRate;\n    _finalRate = finalRate;\n  }\n\n  /**\n   * @return the initial rate of the crowdsale.\n   */\n  function initialRate() public view returns(uint256) {\n    return _initialRate;\n  }\n\n  /**\n   * @return the final rate of the crowdsale.\n   */\n  function finalRate() public view returns (uint256) {\n    return _finalRate;\n  }\n\n  /**\n   * @dev Returns the rate of tokens per wei at the present time.\n   * Note that, as price _increases_ with time, the rate _decreases_.\n   * @return The number of tokens a buyer gets per wei at a given time\n   */\n  function getCurrentRate() public view returns (uint256) {\n    // solium-disable-next-line security/no-block-members\n    uint256 elapsedTime = block.timestamp.sub(openingTime());\n    uint256 timeRange = closingTime().sub(openingTime());\n    uint256 rateRange = _initialRate.sub(_finalRate);\n    return _initialRate.sub(elapsedTime.mul(rateRange).div(timeRange));\n  }\n\n  /**\n   * @dev Overrides parent method taking into account variable rate.\n   * @param weiAmount The value in wei to be converted into tokens\n   * @return The number of tokens _weiAmount wei will buy at present time\n   */\n  function _getTokenAmount(uint256 weiAmount)\n    internal view returns (uint256)\n  {\n    uint256 currentRate = getCurrentRate();\n    return currentRate.mul(weiAmount);\n  }\n\n\n  uint256[50] private ______gap;\n}\n",
  "sourcePath": "/Users/jretina/Programming/PROPSProject/props-token-distribution/contracts/token/openzeppelin-eth/contracts/crowdsale/price/IncreasingPriceCrowdsale.sol",
  "compiler": {
    "name": "solc",
    "version": "0.4.24+commit.e67f0147.Emscripten.clang"
  },
  "schemaVersion": "2.0.1",
  "updatedAt": "2019-05-26T08:35:03.889Z"
}