{
  "contractName": "IndividuallyCappedCrowdsale",
  "abi": [
    {
      "constant": true,
      "inputs": [],
      "name": "rate",
      "outputs": [
        {
          "name": "",
          "type": "uint256"
        }
      ],
      "payable": false,
      "stateMutability": "view",
      "type": "function"
    },
    {
      "constant": true,
      "inputs": [
        {
          "name": "account",
          "type": "address"
        }
      ],
      "name": "isCapper",
      "outputs": [
        {
          "name": "",
          "type": "bool"
        }
      ],
      "payable": false,
      "stateMutability": "view",
      "type": "function"
    },
    {
      "constant": true,
      "inputs": [],
      "name": "weiRaised",
      "outputs": [
        {
          "name": "",
          "type": "uint256"
        }
      ],
      "payable": false,
      "stateMutability": "view",
      "type": "function"
    },
    {
      "constant": true,
      "inputs": [],
      "name": "wallet",
      "outputs": [
        {
          "name": "",
          "type": "address"
        }
      ],
      "payable": false,
      "stateMutability": "view",
      "type": "function"
    },
    {
      "constant": false,
      "inputs": [],
      "name": "renounceCapper",
      "outputs": [],
      "payable": false,
      "stateMutability": "nonpayable",
      "type": "function"
    },
    {
      "constant": false,
      "inputs": [
        {
          "name": "account",
          "type": "address"
        }
      ],
      "name": "addCapper",
      "outputs": [],
      "payable": false,
      "stateMutability": "nonpayable",
      "type": "function"
    },
    {
      "constant": false,
      "inputs": [
        {
          "name": "beneficiary",
          "type": "address"
        }
      ],
      "name": "buyTokens",
      "outputs": [],
      "payable": true,
      "stateMutability": "payable",
      "type": "function"
    },
    {
      "constant": true,
      "inputs": [],
      "name": "token",
      "outputs": [
        {
          "name": "",
          "type": "address"
        }
      ],
      "payable": false,
      "stateMutability": "view",
      "type": "function"
    },
    {
      "payable": true,
      "stateMutability": "payable",
      "type": "fallback"
    },
    {
      "anonymous": false,
      "inputs": [
        {
          "indexed": true,
          "name": "account",
          "type": "address"
        }
      ],
      "name": "CapperAdded",
      "type": "event"
    },
    {
      "anonymous": false,
      "inputs": [
        {
          "indexed": true,
          "name": "account",
          "type": "address"
        }
      ],
      "name": "CapperRemoved",
      "type": "event"
    },
    {
      "anonymous": false,
      "inputs": [
        {
          "indexed": true,
          "name": "purchaser",
          "type": "address"
        },
        {
          "indexed": true,
          "name": "beneficiary",
          "type": "address"
        },
        {
          "indexed": false,
          "name": "value",
          "type": "uint256"
        },
        {
          "indexed": false,
          "name": "amount",
          "type": "uint256"
        }
      ],
      "name": "TokensPurchased",
      "type": "event"
    },
    {
      "constant": false,
      "inputs": [
        {
          "name": "rate",
          "type": "uint256"
        },
        {
          "name": "wallet",
          "type": "address"
        },
        {
          "name": "token",
          "type": "address"
        }
      ],
      "name": "initialize",
      "outputs": [],
      "payable": false,
      "stateMutability": "nonpayable",
      "type": "function"
    },
    {
      "constant": false,
      "inputs": [
        {
          "name": "sender",
          "type": "address"
        }
      ],
      "name": "initialize",
      "outputs": [],
      "payable": false,
      "stateMutability": "nonpayable",
      "type": "function"
    },
    {
      "constant": false,
      "inputs": [
        {
          "name": "beneficiary",
          "type": "address"
        },
        {
          "name": "cap",
          "type": "uint256"
        }
      ],
      "name": "setCap",
      "outputs": [],
      "payable": false,
      "stateMutability": "nonpayable",
      "type": "function"
    },
    {
      "constant": true,
      "inputs": [
        {
          "name": "beneficiary",
          "type": "address"
        }
      ],
      "name": "getCap",
      "outputs": [
        {
          "name": "",
          "type": "uint256"
        }
      ],
      "payable": false,
      "stateMutability": "view",
      "type": "function"
    },
    {
      "constant": true,
      "inputs": [
        {
          "name": "beneficiary",
          "type": "address"
        }
      ],
      "name": "getContribution",
      "outputs": [
        {
          "name": "",
          "type": "uint256"
        }
      ],
      "payable": false,
      "stateMutability": "view",
      "type": "function"
    }
  ],
  "bytecode": "0x608060405234801561001057600080fd5b50611314806100206000396000f3006080604052600436106100c5576000357c0100000000000000000000000000000000000000000000000000000000900463ffffffff16806321eff7fc146100d05780632c4e722e1461012757806339564561146101525780634042b66f146101ad578063521eb273146101d85780635d5576f81461022f57806380ad2cf3146102465780638dfbcf3614610293578063b3aefb75146102d6578063b4988fd01461032d578063c4d66de81461039a578063ec8ac4d8146103dd578063fc0c546a14610413575b6100ce3361046a565b005b3480156100dc57600080fd5b50610111600480360381019080803573ffffffffffffffffffffffffffffffffffffffff169060200190929190505050610538565b6040518082815260200191505060405180910390f35b34801561013357600080fd5b5061013c610581565b6040518082815260200191505060405180910390f35b34801561015e57600080fd5b50610193600480360381019080803573ffffffffffffffffffffffffffffffffffffffff16906020019092919050505061058b565b604051808215151515815260200191505060405180910390f35b3480156101b957600080fd5b506101c26105a8565b6040518082815260200191505060405180910390f35b3480156101e457600080fd5b506101ed6105b2565b604051808273ffffffffffffffffffffffffffffffffffffffff1673ffffffffffffffffffffffffffffffffffffffff16815260200191505060405180910390f35b34801561023b57600080fd5b506102446105dc565b005b34801561025257600080fd5b50610291600480360381019080803573ffffffffffffffffffffffffffffffffffffffff169060200190929190803590602001909291905050506105e7565b005b34801561029f57600080fd5b506102d4600480360381019080803573ffffffffffffffffffffffffffffffffffffffff169060200190929190505050610643565b005b3480156102e257600080fd5b50610317600480360381019080803573ffffffffffffffffffffffffffffffffffffffff169060200190929190505050610663565b6040518082815260200191505060405180910390f35b34801561033957600080fd5b5061039860048036038101908080359060200190929190803573ffffffffffffffffffffffffffffffffffffffff169060200190929190803573ffffffffffffffffffffffffffffffffffffffff1690602001909291905050506106ac565b005b3480156103a657600080fd5b506103db600480360381019080803573ffffffffffffffffffffffffffffffffffffffff1690602001909291905050506108f4565b005b610411600480360381019080803573ffffffffffffffffffffffffffffffffffffffff16906020019092919050505061046a565b005b34801561041f57600080fd5b50610428610a43565b604051808273ffffffffffffffffffffffffffffffffffffffff1673ffffffffffffffffffffffffffffffffffffffff16815260200191505060405180910390f35b60008034915061047a8383610a6d565b61048382610b1a565b905061049a82603654610b3890919063ffffffff16565b6036819055506104aa8382610b59565b8273ffffffffffffffffffffffffffffffffffffffff163373ffffffffffffffffffffffffffffffffffffffff167f6faf93231a456e552dbc9961f58d9713ee4f2e69d15f1975b050ef0911053a7b8484604051808381526020018281526020019250505060405180910390a36105218383610b67565b610529610c0a565b6105338383610c75565b505050565b6000609c60008373ffffffffffffffffffffffffffffffffffffffff1673ffffffffffffffffffffffffffffffffffffffff168152602001908152602001600020549050919050565b6000603554905090565b60006105a1826069610c7990919063ffffffff16565b9050919050565b6000603654905090565b6000603460009054906101000a900473ffffffffffffffffffffffffffffffffffffffff16905090565b6105e533610d0d565b565b6105f03361058b565b15156105fb57600080fd5b80609d60008473ffffffffffffffffffffffffffffffffffffffff1673ffffffffffffffffffffffffffffffffffffffff168152602001908152602001600020819055505050565b61064c3361058b565b151561065757600080fd5b61066081610d67565b50565b6000609d60008373ffffffffffffffffffffffffffffffffffffffff1673ffffffffffffffffffffffffffffffffffffffff168152602001908152602001600020549050919050565b60008060019054906101000a900460ff16806106cc57506106cb610dc1565b5b806106e357506000809054906101000a900460ff16155b151561077d576040517f08c379a000000000000000000000000000000000000000000000000000000000815260040180806020018281038252602e8152602001807f436f6e747261637420696e7374616e63652068617320616c726561647920626581526020017f656e20696e697469616c697a656400000000000000000000000000000000000081525060400191505060405180910390fd5b600060019054906101000a900460ff1690506001600060016101000a81548160ff02191690831515021790555060016000806101000a81548160ff0219169083151502179055506000841115156107d357600080fd5b600073ffffffffffffffffffffffffffffffffffffffff168373ffffffffffffffffffffffffffffffffffffffff161415151561080f57600080fd5b600073ffffffffffffffffffffffffffffffffffffffff168273ffffffffffffffffffffffffffffffffffffffff161415151561084b57600080fd5b8360358190555082603460006101000a81548173ffffffffffffffffffffffffffffffffffffffff021916908373ffffffffffffffffffffffffffffffffffffffff16021790555081603360006101000a81548173ffffffffffffffffffffffffffffffffffffffff021916908373ffffffffffffffffffffffffffffffffffffffff16021790555080600060016101000a81548160ff02191690831515021790555050505050565b60008060019054906101000a900460ff16806109145750610913610dc1565b5b8061092b57506000809054906101000a900460ff16155b15156109c5576040517f08c379a000000000000000000000000000000000000000000000000000000000815260040180806020018281038252602e8152602001807f436f6e747261637420696e7374616e63652068617320616c726561647920626581526020017f656e20696e697469616c697a656400000000000000000000000000000000000081525060400191505060405180910390fd5b600060019054906101000a900460ff1690506001600060016101000a81548160ff02191690831515021790555060016000806101000a81548160ff021916908315150217905550610a14610dd2565b1515610a1c57fe5b610a2582610e94565b80600060016101000a81548160ff0219169083151502179055505050565b6000603360009054906101000a900473ffffffffffffffffffffffffffffffffffffffff16905090565b610a778282610fe3565b609d60008373ffffffffffffffffffffffffffffffffffffffff1673ffffffffffffffffffffffffffffffffffffffff16815260200190815260200160002054610b0982609c60008673ffffffffffffffffffffffffffffffffffffffff1673ffffffffffffffffffffffffffffffffffffffff16815260200190815260200160002054610b3890919063ffffffff16565b11151515610b1657600080fd5b5050565b6000610b316035548361103390919063ffffffff16565b9050919050565b6000808284019050838110151515610b4f57600080fd5b8091505092915050565b610b638282611071565b5050565b610b7182826110c2565b610bc381609c60008573ffffffffffffffffffffffffffffffffffffffff1673ffffffffffffffffffffffffffffffffffffffff16815260200190815260200160002054610b3890919063ffffffff16565b609c60008473ffffffffffffffffffffffffffffffffffffffff1673ffffffffffffffffffffffffffffffffffffffff168152602001908152602001600020819055505050565b603460009054906101000a900473ffffffffffffffffffffffffffffffffffffffff1673ffffffffffffffffffffffffffffffffffffffff166108fc349081150290604051600060405180830381858888f19350505050158015610c72573d6000803e3d6000fd5b50565b5050565b60008073ffffffffffffffffffffffffffffffffffffffff168273ffffffffffffffffffffffffffffffffffffffff1614151515610cb657600080fd5b8260000160008373ffffffffffffffffffffffffffffffffffffffff1673ffffffffffffffffffffffffffffffffffffffff16815260200190815260200160002060009054906101000a900460ff16905092915050565b610d218160696110c690919063ffffffff16565b8073ffffffffffffffffffffffffffffffffffffffff167f427400d279c506df610224b22ecce89b693fc1865864113f21c8d19c1f0c2a3b60405160405180910390a250565b610d7b81606961116090919063ffffffff16565b8073ffffffffffffffffffffffffffffffffffffffff167fa7555c95b69d4f5cc847881feb4ab2883a1921319e34fa2043747b793d65b36e60405160405180910390a250565b600080303b90506000811491505090565b600080603554118015610e345750600073ffffffffffffffffffffffffffffffffffffffff16603460009054906101000a900473ffffffffffffffffffffffffffffffffffffffff1673ffffffffffffffffffffffffffffffffffffffff1614155b8015610e8f5750600073ffffffffffffffffffffffffffffffffffffffff16603360009054906101000a900473ffffffffffffffffffffffffffffffffffffffff1673ffffffffffffffffffffffffffffffffffffffff1614155b905090565b60008060019054906101000a900460ff1680610eb45750610eb3610dc1565b5b80610ecb57506000809054906101000a900460ff16155b1515610f65576040517f08c379a000000000000000000000000000000000000000000000000000000000815260040180806020018281038252602e8152602001807f436f6e747261637420696e7374616e63652068617320616c726561647920626581526020017f656e20696e697469616c697a656400000000000000000000000000000000000081525060400191505060405180910390fd5b600060019054906101000a900460ff1690506001600060016101000a81548160ff02191690831515021790555060016000806101000a81548160ff021916908315150217905550610fb58261058b565b1515610fc557610fc482610d67565b5b80600060016101000a81548160ff0219169083151502179055505050565b600073ffffffffffffffffffffffffffffffffffffffff168273ffffffffffffffffffffffffffffffffffffffff161415151561101f57600080fd5b6000811415151561102f57600080fd5b5050565b6000806000841415611048576000915061106a565b828402905082848281151561105957fe5b0414151561106657600080fd5b8091505b5092915050565b6110be8282603360009054906101000a900473ffffffffffffffffffffffffffffffffffffffff1673ffffffffffffffffffffffffffffffffffffffff166111fa9092919063ffffffff16565b5050565b5050565b600073ffffffffffffffffffffffffffffffffffffffff168173ffffffffffffffffffffffffffffffffffffffff161415151561110257600080fd5b60008260000160008373ffffffffffffffffffffffffffffffffffffffff1673ffffffffffffffffffffffffffffffffffffffff16815260200190815260200160002060006101000a81548160ff0219169083151502179055505050565b600073ffffffffffffffffffffffffffffffffffffffff168173ffffffffffffffffffffffffffffffffffffffff161415151561119c57600080fd5b60018260000160008373ffffffffffffffffffffffffffffffffffffffff1673ffffffffffffffffffffffffffffffffffffffff16815260200190815260200160002060006101000a81548160ff0219169083151502179055505050565b8273ffffffffffffffffffffffffffffffffffffffff1663a9059cbb83836040518363ffffffff167c0100000000000000000000000000000000000000000000000000000000028152600401808373ffffffffffffffffffffffffffffffffffffffff1673ffffffffffffffffffffffffffffffffffffffff16815260200182815260200192505050602060405180830381600087803b15801561129d57600080fd5b505af11580156112b1573d6000803e3d6000fd5b505050506040513d60208110156112c757600080fd5b810190808051906020019092919050505015156112e357600080fd5b5050505600a165627a7a72305820984186d5c70283963601da88dae59e179111402f68d169969b7f3dd7070c04720029",
  "source": "pragma solidity ^0.4.24;\n\nimport \"zos-lib/contracts/Initializable.sol\";\nimport \"../../math/SafeMath.sol\";\nimport \"../Crowdsale.sol\";\nimport \"../../access/roles/CapperRole.sol\";\n\n\n/**\n * @title IndividuallyCappedCrowdsale\n * @dev Crowdsale with per-beneficiary caps.\n */\ncontract IndividuallyCappedCrowdsale is Initializable, Crowdsale, CapperRole {\n  using SafeMath for uint256;\n\n  mapping(address => uint256) private _contributions;\n  mapping(address => uint256) private _caps;\n\n  function initialize(address sender) public initializer {\n    assert(Crowdsale._hasBeenInitialized());\n\n    CapperRole.initialize(sender);\n  }\n\n  /**\n   * @dev Sets a specific beneficiary's maximum contribution.\n   * @param beneficiary Address to be capped\n   * @param cap Wei limit for individual contribution\n   */\n  function setCap(address beneficiary, uint256 cap) external onlyCapper {\n    _caps[beneficiary] = cap;\n  }\n\n  /**\n   * @dev Returns the cap of a specific beneficiary.\n   * @param beneficiary Address whose cap is to be checked\n   * @return Current cap for individual beneficiary\n   */\n  function getCap(address beneficiary) public view returns (uint256) {\n    return _caps[beneficiary];\n  }\n\n  /**\n   * @dev Returns the amount contributed so far by a specific beneficiary.\n   * @param beneficiary Address of contributor\n   * @return Beneficiary contribution so far\n   */\n  function getContribution(address beneficiary)\n    public view returns (uint256)\n  {\n    return _contributions[beneficiary];\n  }\n\n  /**\n   * @dev Extend parent behavior requiring purchase to respect the beneficiary's funding cap.\n   * @param beneficiary Token purchaser\n   * @param weiAmount Amount of wei contributed\n   */\n  function _preValidatePurchase(\n    address beneficiary,\n    uint256 weiAmount\n  )\n    internal\n  {\n    super._preValidatePurchase(beneficiary, weiAmount);\n    require(\n      _contributions[beneficiary].add(weiAmount) <= _caps[beneficiary]);\n  }\n\n  /**\n   * @dev Extend parent behavior to update beneficiary contributions\n   * @param beneficiary Token purchaser\n   * @param weiAmount Amount of wei contributed\n   */\n  function _updatePurchasingState(\n    address beneficiary,\n    uint256 weiAmount\n  )\n    internal\n  {\n    super._updatePurchasingState(beneficiary, weiAmount);\n    _contributions[beneficiary] = _contributions[beneficiary].add(\n      weiAmount);\n  }\n\n\n  uint256[50] private ______gap;\n}\n",
  "sourcePath": "/Users/jretina/Programming/PROPSProject/props-token-distribution/contracts/token/openzeppelin-eth/contracts/crowdsale/validation/IndividuallyCappedCrowdsale.sol",
  "compiler": {
    "name": "solc",
    "version": "0.4.24+commit.e67f0147.Emscripten.clang"
  },
  "schemaVersion": "2.0.1",
  "updatedAt": "2019-05-19T13:21:32.825Z"
}