{
  "contractName": "PauserRole",
  "abi": [
    {
      "anonymous": false,
      "inputs": [
        {
          "indexed": true,
          "name": "account",
          "type": "address"
        }
      ],
      "name": "PauserAdded",
      "type": "event"
    },
    {
      "anonymous": false,
      "inputs": [
        {
          "indexed": true,
          "name": "account",
          "type": "address"
        }
      ],
      "name": "PauserRemoved",
      "type": "event"
    },
    {
      "constant": false,
      "inputs": [
        {
          "name": "sender",
          "type": "address"
        }
      ],
      "name": "initialize",
      "outputs": [],
      "payable": false,
      "stateMutability": "nonpayable",
      "type": "function"
    },
    {
      "constant": true,
      "inputs": [
        {
          "name": "account",
          "type": "address"
        }
      ],
      "name": "isPauser",
      "outputs": [
        {
          "name": "",
          "type": "bool"
        }
      ],
      "payable": false,
      "stateMutability": "view",
      "type": "function"
    },
    {
      "constant": false,
      "inputs": [
        {
          "name": "account",
          "type": "address"
        }
      ],
      "name": "addPauser",
      "outputs": [],
      "payable": false,
      "stateMutability": "nonpayable",
      "type": "function"
    },
    {
      "constant": false,
      "inputs": [],
      "name": "renouncePauser",
      "outputs": [],
      "payable": false,
      "stateMutability": "nonpayable",
      "type": "function"
    }
  ],
  "bytecode": "0x608060405234801561001057600080fd5b506105af806100206000396000f300608060405260043610610062576000357c0100000000000000000000000000000000000000000000000000000000900463ffffffff16806346fbf68e146100675780636ef8d66d146100c257806382dc1ec4146100d9578063c4d66de81461011c575b600080fd5b34801561007357600080fd5b506100a8600480360381019080803573ffffffffffffffffffffffffffffffffffffffff16906020019092919050505061015f565b604051808215151515815260200191505060405180910390f35b3480156100ce57600080fd5b506100d761017c565b005b3480156100e557600080fd5b5061011a600480360381019080803573ffffffffffffffffffffffffffffffffffffffff169060200190929190505050610187565b005b34801561012857600080fd5b5061015d600480360381019080803573ffffffffffffffffffffffffffffffffffffffff1690602001909291905050506101a7565b005b60006101758260336102f690919063ffffffff16565b9050919050565b6101853361038a565b565b6101903361015f565b151561019b57600080fd5b6101a4816103e4565b50565b60008060019054906101000a900460ff16806101c757506101c661043e565b5b806101de57506000809054906101000a900460ff16155b1515610278576040517f08c379a000000000000000000000000000000000000000000000000000000000815260040180806020018281038252602e8152602001807f436f6e747261637420696e7374616e63652068617320616c726561647920626581526020017f656e20696e697469616c697a656400000000000000000000000000000000000081525060400191505060405180910390fd5b600060019054906101000a900460ff1690506001600060016101000a81548160ff02191690831515021790555060016000806101000a81548160ff0219169083151502179055506102c88261015f565b15156102d8576102d7826103e4565b5b80600060016101000a81548160ff0219169083151502179055505050565b60008073ffffffffffffffffffffffffffffffffffffffff168273ffffffffffffffffffffffffffffffffffffffff161415151561033357600080fd5b8260000160008373ffffffffffffffffffffffffffffffffffffffff1673ffffffffffffffffffffffffffffffffffffffff16815260200190815260200160002060009054906101000a900460ff16905092915050565b61039e81603361044f90919063ffffffff16565b8073ffffffffffffffffffffffffffffffffffffffff167fcd265ebaf09df2871cc7bd4133404a235ba12eff2041bb89d9c714a2621c7c7e60405160405180910390a250565b6103f88160336104e990919063ffffffff16565b8073ffffffffffffffffffffffffffffffffffffffff167f6719d08c1888103bea251a4ed56406bd0c3e69723c8a1686e017e7bbe159b6f860405160405180910390a250565b600080303b90506000811491505090565b600073ffffffffffffffffffffffffffffffffffffffff168173ffffffffffffffffffffffffffffffffffffffff161415151561048b57600080fd5b60008260000160008373ffffffffffffffffffffffffffffffffffffffff1673ffffffffffffffffffffffffffffffffffffffff16815260200190815260200160002060006101000a81548160ff0219169083151502179055505050565b600073ffffffffffffffffffffffffffffffffffffffff168173ffffffffffffffffffffffffffffffffffffffff161415151561052557600080fd5b60018260000160008373ffffffffffffffffffffffffffffffffffffffff1673ffffffffffffffffffffffffffffffffffffffff16815260200190815260200160002060006101000a81548160ff02191690831515021790555050505600a165627a7a723058206acfd3b33048555e5bee279f4174fda2975d132418add3564f5be733357b2a040029",
  "source": "pragma solidity ^0.4.24;\n\nimport \"zos-lib/contracts/Initializable.sol\";\nimport \"../Roles.sol\";\n\n\ncontract PauserRole is Initializable {\n  using Roles for Roles.Role;\n\n  event PauserAdded(address indexed account);\n  event PauserRemoved(address indexed account);\n\n  Roles.Role private pausers;\n\n  function initialize(address sender) public initializer {\n    if (!isPauser(sender)) {\n      _addPauser(sender);\n    }\n  }\n\n  modifier onlyPauser() {\n    require(isPauser(msg.sender));\n    _;\n  }\n\n  function isPauser(address account) public view returns (bool) {\n    return pausers.has(account);\n  }\n\n  function addPauser(address account) public onlyPauser {\n    _addPauser(account);\n  }\n\n  function renouncePauser() public {\n    _removePauser(msg.sender);\n  }\n\n  function _addPauser(address account) internal {\n    pausers.add(account);\n    emit PauserAdded(account);\n  }\n\n  function _removePauser(address account) internal {\n    pausers.remove(account);\n    emit PauserRemoved(account);\n  }\n\n  uint256[50] private ______gap;\n}\n",
  "sourcePath": "/Users/jretina/Programming/PROPSProject/props-token-distribution/contracts/token/openzeppelin-eth/contracts/access/roles/PauserRole.sol",
  "compiler": {
    "name": "solc",
    "version": "0.4.24+commit.e67f0147.Emscripten.clang"
  },
  "schemaVersion": "2.0.1",
  "updatedAt": "2019-05-16T10:40:42.633Z"
}