{
  "contractName": "Pausable",
  "abi": [
    {
      "constant": true,
      "inputs": [
        {
          "name": "account",
          "type": "address"
        }
      ],
      "name": "isPauser",
      "outputs": [
        {
          "name": "",
          "type": "bool"
        }
      ],
      "payable": false,
      "stateMutability": "view",
      "type": "function"
    },
    {
      "constant": false,
      "inputs": [],
      "name": "renouncePauser",
      "outputs": [],
      "payable": false,
      "stateMutability": "nonpayable",
      "type": "function"
    },
    {
      "constant": false,
      "inputs": [
        {
          "name": "account",
          "type": "address"
        }
      ],
      "name": "addPauser",
      "outputs": [],
      "payable": false,
      "stateMutability": "nonpayable",
      "type": "function"
    },
    {
      "anonymous": false,
      "inputs": [],
      "name": "Paused",
      "type": "event"
    },
    {
      "anonymous": false,
      "inputs": [],
      "name": "Unpaused",
      "type": "event"
    },
    {
      "anonymous": false,
      "inputs": [
        {
          "indexed": true,
          "name": "account",
          "type": "address"
        }
      ],
      "name": "PauserAdded",
      "type": "event"
    },
    {
      "anonymous": false,
      "inputs": [
        {
          "indexed": true,
          "name": "account",
          "type": "address"
        }
      ],
      "name": "PauserRemoved",
      "type": "event"
    },
    {
      "constant": false,
      "inputs": [
        {
          "name": "sender",
          "type": "address"
        }
      ],
      "name": "initialize",
      "outputs": [],
      "payable": false,
      "stateMutability": "nonpayable",
      "type": "function"
    },
    {
      "constant": true,
      "inputs": [],
      "name": "paused",
      "outputs": [
        {
          "name": "",
          "type": "bool"
        }
      ],
      "payable": false,
      "stateMutability": "view",
      "type": "function"
    },
    {
      "constant": false,
      "inputs": [],
      "name": "pause",
      "outputs": [],
      "payable": false,
      "stateMutability": "nonpayable",
      "type": "function"
    },
    {
      "constant": false,
      "inputs": [],
      "name": "unpause",
      "outputs": [],
      "payable": false,
      "stateMutability": "nonpayable",
      "type": "function"
    }
  ],
  "bytecode": "0x60806040526000606660006101000a81548160ff02191690831515021790555034801561002b57600080fd5b506108748061003b6000396000f300608060405260043610610083576000357c0100000000000000000000000000000000000000000000000000000000900463ffffffff1680633f4ba83a1461008857806346fbf68e1461009f5780635c975abb146100fa5780636ef8d66d1461012957806382dc1ec4146101405780638456cb5914610183578063c4d66de81461019a575b600080fd5b34801561009457600080fd5b5061009d6101dd565b005b3480156100ab57600080fd5b506100e0600480360381019080803573ffffffffffffffffffffffffffffffffffffffff169060200190929190505050610255565b604051808215151515815260200191505060405180910390f35b34801561010657600080fd5b5061010f610272565b604051808215151515815260200191505060405180910390f35b34801561013557600080fd5b5061013e610289565b005b34801561014c57600080fd5b50610181600480360381019080803573ffffffffffffffffffffffffffffffffffffffff169060200190929190505050610294565b005b34801561018f57600080fd5b506101986102b4565b005b3480156101a657600080fd5b506101db600480360381019080803573ffffffffffffffffffffffffffffffffffffffff16906020019092919050505061032d565b005b6101e633610255565b15156101f157600080fd5b606660009054906101000a900460ff16151561020c57600080fd5b6000606660006101000a81548160ff0219169083151502179055507fa45f47fdea8a1efdd9029a5691c7f759c32b7c698632b563573e155625d1693360405160405180910390a1565b600061026b82603361046c90919063ffffffff16565b9050919050565b6000606660009054906101000a900460ff16905090565b61029233610500565b565b61029d33610255565b15156102a857600080fd5b6102b18161055a565b50565b6102bd33610255565b15156102c857600080fd5b606660009054906101000a900460ff161515156102e457600080fd5b6001606660006101000a81548160ff0219169083151502179055507f9e87fac88ff661f02d44f95383c817fece4bce600a3dab7a54406878b965e75260405160405180910390a1565b60008060019054906101000a900460ff168061034d575061034c6105b4565b5b8061036457506000809054906101000a900460ff16155b15156103fe576040517f08c379a000000000000000000000000000000000000000000000000000000000815260040180806020018281038252602e8152602001807f436f6e747261637420696e7374616e63652068617320616c726561647920626581526020017f656e20696e697469616c697a656400000000000000000000000000000000000081525060400191505060405180910390fd5b600060019054906101000a900460ff1690506001600060016101000a81548160ff02191690831515021790555060016000806101000a81548160ff02191690831515021790555061044e826105c5565b80600060016101000a81548160ff0219169083151502179055505050565b60008073ffffffffffffffffffffffffffffffffffffffff168273ffffffffffffffffffffffffffffffffffffffff16141515156104a957600080fd5b8260000160008373ffffffffffffffffffffffffffffffffffffffff1673ffffffffffffffffffffffffffffffffffffffff16815260200190815260200160002060009054906101000a900460ff16905092915050565b61051481603361071490919063ffffffff16565b8073ffffffffffffffffffffffffffffffffffffffff167fcd265ebaf09df2871cc7bd4133404a235ba12eff2041bb89d9c714a2621c7c7e60405160405180910390a250565b61056e8160336107ae90919063ffffffff16565b8073ffffffffffffffffffffffffffffffffffffffff167f6719d08c1888103bea251a4ed56406bd0c3e69723c8a1686e017e7bbe159b6f860405160405180910390a250565b600080303b90506000811491505090565b60008060019054906101000a900460ff16806105e557506105e46105b4565b5b806105fc57506000809054906101000a900460ff16155b1515610696576040517f08c379a000000000000000000000000000000000000000000000000000000000815260040180806020018281038252602e8152602001807f436f6e747261637420696e7374616e63652068617320616c726561647920626581526020017f656e20696e697469616c697a656400000000000000000000000000000000000081525060400191505060405180910390fd5b600060019054906101000a900460ff1690506001600060016101000a81548160ff02191690831515021790555060016000806101000a81548160ff0219169083151502179055506106e682610255565b15156106f6576106f58261055a565b5b80600060016101000a81548160ff0219169083151502179055505050565b600073ffffffffffffffffffffffffffffffffffffffff168173ffffffffffffffffffffffffffffffffffffffff161415151561075057600080fd5b60008260000160008373ffffffffffffffffffffffffffffffffffffffff1673ffffffffffffffffffffffffffffffffffffffff16815260200190815260200160002060006101000a81548160ff0219169083151502179055505050565b600073ffffffffffffffffffffffffffffffffffffffff168173ffffffffffffffffffffffffffffffffffffffff16141515156107ea57600080fd5b60018260000160008373ffffffffffffffffffffffffffffffffffffffff1673ffffffffffffffffffffffffffffffffffffffff16815260200190815260200160002060006101000a81548160ff02191690831515021790555050505600a165627a7a72305820952fdaed4ec62d4ce70da2c610f2f085a3427c3a3d4f1c52be8a07a4262d44280029",
  "source": "pragma solidity ^0.4.24;\n\nimport \"zos-lib/contracts/Initializable.sol\";\nimport \"../access/roles/PauserRole.sol\";\n\n\n/**\n * @title Pausable\n * @dev Base contract which allows children to implement an emergency stop mechanism.\n */\ncontract Pausable is Initializable, PauserRole {\n  event Paused();\n  event Unpaused();\n\n  bool private _paused = false;\n\n  function initialize(address sender) public initializer {\n    PauserRole.initialize(sender);\n  }\n\n  /**\n   * @return true if the contract is paused, false otherwise.\n   */\n  function paused() public view returns(bool) {\n    return _paused;\n  }\n\n  /**\n   * @dev Modifier to make a function callable only when the contract is not paused.\n   */\n  modifier whenNotPaused() {\n    require(!_paused);\n    _;\n  }\n\n  /**\n   * @dev Modifier to make a function callable only when the contract is paused.\n   */\n  modifier whenPaused() {\n    require(_paused);\n    _;\n  }\n\n  /**\n   * @dev called by the owner to pause, triggers stopped state\n   */\n  function pause() public onlyPauser whenNotPaused {\n    _paused = true;\n    emit Paused();\n  }\n\n  /**\n   * @dev called by the owner to unpause, returns to normal state\n   */\n  function unpause() public onlyPauser whenPaused {\n    _paused = false;\n    emit Unpaused();\n  }\n\n  uint256[50] private ______gap;\n}\n",
  "sourcePath": "/Users/jretina/Programming/PROPSProject/props-token-distribution/contracts/token/openzeppelin-eth/contracts/lifecycle/Pausable.sol",
  "compiler": {
    "name": "solc",
    "version": "0.4.24+commit.e67f0147.Emscripten.clang"
  },
  "schemaVersion": "2.0.1",
  "updatedAt": "2019-04-29T09:04:37.346Z"
}