{
  "contractName": "PostDeliveryCrowdsale",
  "abi": [
    {
      "constant": true,
      "inputs": [],
      "name": "hasClosed",
      "outputs": [
        {
          "name": "",
          "type": "bool"
        }
      ],
      "payable": false,
      "stateMutability": "view",
      "type": "function"
    },
    {
      "constant": true,
      "inputs": [],
      "name": "rate",
      "outputs": [
        {
          "name": "",
          "type": "uint256"
        }
      ],
      "payable": false,
      "stateMutability": "view",
      "type": "function"
    },
    {
      "constant": true,
      "inputs": [],
      "name": "weiRaised",
      "outputs": [
        {
          "name": "",
          "type": "uint256"
        }
      ],
      "payable": false,
      "stateMutability": "view",
      "type": "function"
    },
    {
      "constant": true,
      "inputs": [],
      "name": "isOpen",
      "outputs": [
        {
          "name": "",
          "type": "bool"
        }
      ],
      "payable": false,
      "stateMutability": "view",
      "type": "function"
    },
    {
      "constant": true,
      "inputs": [],
      "name": "closingTime",
      "outputs": [
        {
          "name": "",
          "type": "uint256"
        }
      ],
      "payable": false,
      "stateMutability": "view",
      "type": "function"
    },
    {
      "constant": true,
      "inputs": [],
      "name": "wallet",
      "outputs": [
        {
          "name": "",
          "type": "address"
        }
      ],
      "payable": false,
      "stateMutability": "view",
      "type": "function"
    },
    {
      "constant": false,
      "inputs": [
        {
          "name": "rate",
          "type": "uint256"
        },
        {
          "name": "wallet",
          "type": "address"
        },
        {
          "name": "token",
          "type": "address"
        }
      ],
      "name": "initialize",
      "outputs": [],
      "payable": false,
      "stateMutability": "nonpayable",
      "type": "function"
    },
    {
      "constant": true,
      "inputs": [],
      "name": "openingTime",
      "outputs": [
        {
          "name": "",
          "type": "uint256"
        }
      ],
      "payable": false,
      "stateMutability": "view",
      "type": "function"
    },
    {
      "constant": false,
      "inputs": [
        {
          "name": "openingTime",
          "type": "uint256"
        },
        {
          "name": "closingTime",
          "type": "uint256"
        }
      ],
      "name": "initialize",
      "outputs": [],
      "payable": false,
      "stateMutability": "nonpayable",
      "type": "function"
    },
    {
      "constant": false,
      "inputs": [
        {
          "name": "beneficiary",
          "type": "address"
        }
      ],
      "name": "buyTokens",
      "outputs": [],
      "payable": true,
      "stateMutability": "payable",
      "type": "function"
    },
    {
      "constant": true,
      "inputs": [],
      "name": "token",
      "outputs": [
        {
          "name": "",
          "type": "address"
        }
      ],
      "payable": false,
      "stateMutability": "view",
      "type": "function"
    },
    {
      "payable": true,
      "stateMutability": "payable",
      "type": "fallback"
    },
    {
      "anonymous": false,
      "inputs": [
        {
          "indexed": true,
          "name": "purchaser",
          "type": "address"
        },
        {
          "indexed": true,
          "name": "beneficiary",
          "type": "address"
        },
        {
          "indexed": false,
          "name": "value",
          "type": "uint256"
        },
        {
          "indexed": false,
          "name": "amount",
          "type": "uint256"
        }
      ],
      "name": "TokensPurchased",
      "type": "event"
    },
    {
      "constant": false,
      "inputs": [
        {
          "name": "beneficiary",
          "type": "address"
        }
      ],
      "name": "withdrawTokens",
      "outputs": [],
      "payable": false,
      "stateMutability": "nonpayable",
      "type": "function"
    },
    {
      "constant": true,
      "inputs": [
        {
          "name": "account",
          "type": "address"
        }
      ],
      "name": "balanceOf",
      "outputs": [
        {
          "name": "",
          "type": "uint256"
        }
      ],
      "payable": false,
      "stateMutability": "view",
      "type": "function"
    }
  ],
  "bytecode": "0x608060405234801561001057600080fd5b50610e62806100206000396000f3006080604052600436106100c5576000357c0100000000000000000000000000000000000000000000000000000000900463ffffffff1680631515bc2b146100d05780632c4e722e146100ff5780634042b66f1461012a57806347535d7b1461015557806349df728c146101845780634b6753bc146101c7578063521eb273146101f257806370a0823114610249578063b4988fd0146102a0578063b7a8807c1461030d578063e4a3011614610338578063ec8ac4d81461036f578063fc0c546a146103a5575b6100ce336103fc565b005b3480156100dc57600080fd5b506100e56104ca565b604051808215151515815260200191505060405180910390f35b34801561010b57600080fd5b506101146104d6565b6040518082815260200191505060405180910390f35b34801561013657600080fd5b5061013f6104e0565b6040518082815260200191505060405180910390f35b34801561016157600080fd5b5061016a6104ea565b604051808215151515815260200191505060405180910390f35b34801561019057600080fd5b506101c5600480360381019080803573ffffffffffffffffffffffffffffffffffffffff169060200190929190505050610505565b005b3480156101d357600080fd5b506101dc6105be565b6040518082815260200191505060405180910390f35b3480156101fe57600080fd5b506102076105c8565b604051808273ffffffffffffffffffffffffffffffffffffffff1673ffffffffffffffffffffffffffffffffffffffff16815260200191505060405180910390f35b34801561025557600080fd5b5061028a600480360381019080803573ffffffffffffffffffffffffffffffffffffffff1690602001909291905050506105f2565b6040518082815260200191505060405180910390f35b3480156102ac57600080fd5b5061030b60048036038101908080359060200190929190803573ffffffffffffffffffffffffffffffffffffffff169060200190929190803573ffffffffffffffffffffffffffffffffffffffff16906020019092919050505061063b565b005b34801561031957600080fd5b50610322610883565b6040518082815260200191505060405180910390f35b34801561034457600080fd5b5061036d600480360381019080803590602001909291908035906020019092919050505061088d565b005b6103a3600480360381019080803573ffffffffffffffffffffffffffffffffffffffff1690602001909291905050506103fc565b005b3480156103b157600080fd5b506103ba610a00565b604051808273ffffffffffffffffffffffffffffffffffffffff1673ffffffffffffffffffffffffffffffffffffffff16815260200191505060405180910390f35b60008034915061040c8383610a2a565b61041582610a4b565b905061042c82603654610a6990919063ffffffff16565b60368190555061043c8382610a8a565b8273ffffffffffffffffffffffffffffffffffffffff163373ffffffffffffffffffffffffffffffffffffffff167f6faf93231a456e552dbc9961f58d9713ee4f2e69d15f1975b050ef0911053a7b8484604051808381526020018281526020019250505060405180910390a36104b38383610b23565b6104bb610b27565b6104c58383610b92565b505050565b6000606a544211905090565b6000603554905090565b6000603654905090565b600060695442101580156105005750606a544211155b905090565b600061050f6104ca565b151561051a57600080fd5b609d60008373ffffffffffffffffffffffffffffffffffffffff1673ffffffffffffffffffffffffffffffffffffffff16815260200190815260200160002054905060008111151561056b57600080fd5b6000609d60008473ffffffffffffffffffffffffffffffffffffffff1673ffffffffffffffffffffffffffffffffffffffff168152602001908152602001600020819055506105ba8282610b96565b5050565b6000606a54905090565b6000603460009054906101000a900473ffffffffffffffffffffffffffffffffffffffff16905090565b6000609d60008373ffffffffffffffffffffffffffffffffffffffff1673ffffffffffffffffffffffffffffffffffffffff168152602001908152602001600020549050919050565b60008060019054906101000a900460ff168061065b575061065a610be7565b5b8061067257506000809054906101000a900460ff16155b151561070c576040517f08c379a000000000000000000000000000000000000000000000000000000000815260040180806020018281038252602e8152602001807f436f6e747261637420696e7374616e63652068617320616c726561647920626581526020017f656e20696e697469616c697a656400000000000000000000000000000000000081525060400191505060405180910390fd5b600060019054906101000a900460ff1690506001600060016101000a81548160ff02191690831515021790555060016000806101000a81548160ff02191690831515021790555060008411151561076257600080fd5b600073ffffffffffffffffffffffffffffffffffffffff168373ffffffffffffffffffffffffffffffffffffffff161415151561079e57600080fd5b600073ffffffffffffffffffffffffffffffffffffffff168273ffffffffffffffffffffffffffffffffffffffff16141515156107da57600080fd5b8360358190555082603460006101000a81548173ffffffffffffffffffffffffffffffffffffffff021916908373ffffffffffffffffffffffffffffffffffffffff16021790555081603360006101000a81548173ffffffffffffffffffffffffffffffffffffffff021916908373ffffffffffffffffffffffffffffffffffffffff16021790555080600060016101000a81548160ff02191690831515021790555050505050565b6000606954905090565b60008060019054906101000a900460ff16806108ad57506108ac610be7565b5b806108c457506000809054906101000a900460ff16155b151561095e576040517f08c379a000000000000000000000000000000000000000000000000000000000815260040180806020018281038252602e8152602001807f436f6e747261637420696e7374616e63652068617320616c726561647920626581526020017f656e20696e697469616c697a656400000000000000000000000000000000000081525060400191505060405180910390fd5b600060019054906101000a900460ff1690506001600060016101000a81548160ff02191690831515021790555060016000806101000a81548160ff0219169083151502179055506109ad610bf8565b15156109b557fe5b4283101515156109c457600080fd5b8282101515156109d357600080fd5b8260698190555081606a8190555080600060016101000a81548160ff021916908315150217905550505050565b6000603360009054906101000a900473ffffffffffffffffffffffffffffffffffffffff16905090565b610a326104ea565b1515610a3d57600080fd5b610a478282610cba565b5050565b6000610a6260355483610d0a90919063ffffffff16565b9050919050565b6000808284019050838110151515610a8057600080fd5b8091505092915050565b610adc81609d60008573ffffffffffffffffffffffffffffffffffffffff1673ffffffffffffffffffffffffffffffffffffffff16815260200190815260200160002054610a6990919063ffffffff16565b609d60008473ffffffffffffffffffffffffffffffffffffffff1673ffffffffffffffffffffffffffffffffffffffff168152602001908152602001600020819055505050565b5050565b603460009054906101000a900473ffffffffffffffffffffffffffffffffffffffff1673ffffffffffffffffffffffffffffffffffffffff166108fc349081150290604051600060405180830381858888f19350505050158015610b8f573d6000803e3d6000fd5b50565b5050565b610be38282603360009054906101000a900473ffffffffffffffffffffffffffffffffffffffff1673ffffffffffffffffffffffffffffffffffffffff16610d489092919063ffffffff16565b5050565b600080303b90506000811491505090565b600080603554118015610c5a5750600073ffffffffffffffffffffffffffffffffffffffff16603460009054906101000a900473ffffffffffffffffffffffffffffffffffffffff1673ffffffffffffffffffffffffffffffffffffffff1614155b8015610cb55750600073ffffffffffffffffffffffffffffffffffffffff16603360009054906101000a900473ffffffffffffffffffffffffffffffffffffffff1673ffffffffffffffffffffffffffffffffffffffff1614155b905090565b600073ffffffffffffffffffffffffffffffffffffffff168273ffffffffffffffffffffffffffffffffffffffff1614151515610cf657600080fd5b60008114151515610d0657600080fd5b5050565b6000806000841415610d1f5760009150610d41565b8284029050828482811515610d3057fe5b04141515610d3d57600080fd5b8091505b5092915050565b8273ffffffffffffffffffffffffffffffffffffffff1663a9059cbb83836040518363ffffffff167c0100000000000000000000000000000000000000000000000000000000028152600401808373ffffffffffffffffffffffffffffffffffffffff1673ffffffffffffffffffffffffffffffffffffffff16815260200182815260200192505050602060405180830381600087803b158015610deb57600080fd5b505af1158015610dff573d6000803e3d6000fd5b505050506040513d6020811015610e1557600080fd5b81019080805190602001909291905050501515610e3157600080fd5b5050505600a165627a7a72305820e8e294e396c641b687fc07be9c7760bf5e457e28ad9cfb80e31672f8f10de9af0029",
  "source": "pragma solidity ^0.4.24;\n\nimport \"zos-lib/contracts/Initializable.sol\";\nimport \"../validation/TimedCrowdsale.sol\";\nimport \"../../token/ERC20/IERC20.sol\";\nimport \"../../math/SafeMath.sol\";\n\n\n/**\n * @title PostDeliveryCrowdsale\n * @dev Crowdsale that locks tokens from withdrawal until it ends.\n */\ncontract PostDeliveryCrowdsale is Initializable, TimedCrowdsale {\n  using SafeMath for uint256;\n\n  mapping(address => uint256) private _balances;\n\n  /**\n   * @dev Withdraw tokens only after crowdsale ends.\n   * @param beneficiary Whose tokens will be withdrawn.\n   */\n  function withdrawTokens(address beneficiary) public {\n    require(hasClosed());\n    uint256 amount = _balances[beneficiary];\n    require(amount > 0);\n    _balances[beneficiary] = 0;\n    _deliverTokens(beneficiary, amount);\n  }\n\n  /**\n   * @return the balance of an account.\n   */\n  function balanceOf(address account) public view returns(uint256) {\n    return _balances[account];\n  }\n\n  /**\n   * @dev Overrides parent by storing balances instead of issuing tokens right away.\n   * @param beneficiary Token purchaser\n   * @param tokenAmount Amount of tokens purchased\n   */\n  function _processPurchase(\n    address beneficiary,\n    uint256 tokenAmount\n  )\n    internal\n  {\n    _balances[beneficiary] = _balances[beneficiary].add(tokenAmount);\n  }\n\n\n  uint256[50] private ______gap;\n}\n",
  "sourcePath": "/Users/jretina/Programming/PROPSProject/props-token-distribution/contracts/token/openzeppelin-eth/contracts/crowdsale/distribution/PostDeliveryCrowdsale.sol",
  "compiler": {
    "name": "solc",
    "version": "0.4.24+commit.e67f0147.Emscripten.clang"
  },
  "schemaVersion": "2.0.1",
  "updatedAt": "2019-05-16T18:55:29.966Z"
}