{
  "contractName": "PropsRewards",
  "abi": [
    {
      "constant": false,
      "inputs": [
        {
          "name": "spender",
          "type": "address"
        },
        {
          "name": "value",
          "type": "uint256"
        }
      ],
      "name": "approve",
      "outputs": [
        {
          "name": "",
          "type": "bool"
        }
      ],
      "payable": false,
      "stateMutability": "nonpayable",
      "type": "function"
    },
    {
      "constant": true,
      "inputs": [],
      "name": "totalSupply",
      "outputs": [
        {
          "name": "",
          "type": "uint256"
        }
      ],
      "payable": false,
      "stateMutability": "view",
      "type": "function"
    },
    {
      "constant": false,
      "inputs": [
        {
          "name": "from",
          "type": "address"
        },
        {
          "name": "to",
          "type": "address"
        },
        {
          "name": "value",
          "type": "uint256"
        }
      ],
      "name": "transferFrom",
      "outputs": [
        {
          "name": "",
          "type": "bool"
        }
      ],
      "payable": false,
      "stateMutability": "nonpayable",
      "type": "function"
    },
    {
      "constant": true,
      "inputs": [],
      "name": "maxTotalSupply",
      "outputs": [
        {
          "name": "",
          "type": "uint256"
        }
      ],
      "payable": false,
      "stateMutability": "view",
      "type": "function"
    },
    {
      "constant": false,
      "inputs": [
        {
          "name": "spender",
          "type": "address"
        },
        {
          "name": "addedValue",
          "type": "uint256"
        }
      ],
      "name": "increaseAllowance",
      "outputs": [
        {
          "name": "",
          "type": "bool"
        }
      ],
      "payable": false,
      "stateMutability": "nonpayable",
      "type": "function"
    },
    {
      "constant": true,
      "inputs": [],
      "name": "rewardsStartTimestamp",
      "outputs": [
        {
          "name": "",
          "type": "uint256"
        }
      ],
      "payable": false,
      "stateMutability": "view",
      "type": "function"
    },
    {
      "constant": true,
      "inputs": [
        {
          "name": "owner",
          "type": "address"
        }
      ],
      "name": "balanceOf",
      "outputs": [
        {
          "name": "",
          "type": "uint256"
        }
      ],
      "payable": false,
      "stateMutability": "view",
      "type": "function"
    },
    {
      "constant": false,
      "inputs": [
        {
          "name": "spender",
          "type": "address"
        },
        {
          "name": "subtractedValue",
          "type": "uint256"
        }
      ],
      "name": "decreaseAllowance",
      "outputs": [
        {
          "name": "",
          "type": "bool"
        }
      ],
      "payable": false,
      "stateMutability": "nonpayable",
      "type": "function"
    },
    {
      "constant": false,
      "inputs": [
        {
          "name": "to",
          "type": "address"
        },
        {
          "name": "value",
          "type": "uint256"
        }
      ],
      "name": "transfer",
      "outputs": [
        {
          "name": "",
          "type": "bool"
        }
      ],
      "payable": false,
      "stateMutability": "nonpayable",
      "type": "function"
    },
    {
      "constant": true,
      "inputs": [
        {
          "name": "owner",
          "type": "address"
        },
        {
          "name": "spender",
          "type": "address"
        }
      ],
      "name": "allowance",
      "outputs": [
        {
          "name": "",
          "type": "uint256"
        }
      ],
      "payable": false,
      "stateMutability": "view",
      "type": "function"
    },
    {
      "constant": true,
      "inputs": [],
      "name": "controller",
      "outputs": [
        {
          "name": "",
          "type": "address"
        }
      ],
      "payable": false,
      "stateMutability": "view",
      "type": "function"
    },
    {
      "anonymous": false,
      "inputs": [
        {
          "indexed": true,
          "name": "rewardsDay",
          "type": "uint256"
        },
        {
          "indexed": true,
          "name": "rewardsHash",
          "type": "bytes32"
        },
        {
          "indexed": true,
          "name": "validator",
          "type": "address"
        }
      ],
      "name": "DailyRewardsSubmitted",
      "type": "event"
    },
    {
      "anonymous": false,
      "inputs": [
        {
          "indexed": true,
          "name": "rewardsDay",
          "type": "uint256"
        },
        {
          "indexed": true,
          "name": "rewardsHash",
          "type": "bytes32"
        },
        {
          "indexed": false,
          "name": "numOfApplications",
          "type": "uint256"
        },
        {
          "indexed": false,
          "name": "amount",
          "type": "uint256"
        }
      ],
      "name": "DailyRewardsApplicationsMinted",
      "type": "event"
    },
    {
      "anonymous": false,
      "inputs": [
        {
          "indexed": true,
          "name": "rewardsDay",
          "type": "uint256"
        },
        {
          "indexed": true,
          "name": "rewardsHash",
          "type": "bytes32"
        },
        {
          "indexed": false,
          "name": "numOfValidators",
          "type": "uint256"
        },
        {
          "indexed": false,
          "name": "amount",
          "type": "uint256"
        }
      ],
      "name": "DailyRewardsValidatorsMinted",
      "type": "event"
    },
    {
      "anonymous": false,
      "inputs": [
        {
          "indexed": true,
          "name": "id",
          "type": "address"
        },
        {
          "indexed": true,
          "name": "entityType",
          "type": "uint8"
        },
        {
          "indexed": false,
          "name": "name",
          "type": "bytes32"
        },
        {
          "indexed": false,
          "name": "rewardsAddress",
          "type": "address"
        },
        {
          "indexed": true,
          "name": "sidechainAddress",
          "type": "address"
        }
      ],
      "name": "EntityUpdated",
      "type": "event"
    },
    {
      "anonymous": false,
      "inputs": [
        {
          "indexed": false,
          "name": "param",
          "type": "uint8"
        },
        {
          "indexed": false,
          "name": "newValue",
          "type": "uint256"
        },
        {
          "indexed": false,
          "name": "oldValue",
          "type": "uint256"
        },
        {
          "indexed": false,
          "name": "rewardsDay",
          "type": "uint256"
        }
      ],
      "name": "ParameterUpdated",
      "type": "event"
    },
    {
      "anonymous": false,
      "inputs": [
        {
          "indexed": false,
          "name": "validatorsList",
          "type": "address[]"
        },
        {
          "indexed": true,
          "name": "rewardsDay",
          "type": "uint256"
        }
      ],
      "name": "ValidatorsListUpdated",
      "type": "event"
    },
    {
      "anonymous": false,
      "inputs": [
        {
          "indexed": false,
          "name": "applicationsList",
          "type": "address[]"
        },
        {
          "indexed": true,
          "name": "rewardsDay",
          "type": "uint256"
        }
      ],
      "name": "ApplicationsListUpdated",
      "type": "event"
    },
    {
      "anonymous": false,
      "inputs": [
        {
          "indexed": true,
          "name": "newController",
          "type": "address"
        }
      ],
      "name": "ControllerUpdated",
      "type": "event"
    },
    {
      "anonymous": false,
      "inputs": [
        {
          "indexed": true,
          "name": "applicationId",
          "type": "address"
        },
        {
          "indexed": true,
          "name": "userId",
          "type": "bytes32"
        },
        {
          "indexed": true,
          "name": "to",
          "type": "address"
        },
        {
          "indexed": false,
          "name": "amount",
          "type": "uint256"
        },
        {
          "indexed": false,
          "name": "rewardsAddress",
          "type": "address"
        }
      ],
      "name": "Settlement",
      "type": "event"
    },
    {
      "anonymous": false,
      "inputs": [
        {
          "indexed": true,
          "name": "from",
          "type": "address"
        },
        {
          "indexed": true,
          "name": "to",
          "type": "address"
        },
        {
          "indexed": false,
          "name": "value",
          "type": "uint256"
        }
      ],
      "name": "Transfer",
      "type": "event"
    },
    {
      "anonymous": false,
      "inputs": [
        {
          "indexed": true,
          "name": "owner",
          "type": "address"
        },
        {
          "indexed": true,
          "name": "spender",
          "type": "address"
        },
        {
          "indexed": false,
          "name": "value",
          "type": "uint256"
        }
      ],
      "name": "Approval",
      "type": "event"
    },
    {
      "constant": false,
      "inputs": [
        {
          "name": "_controller",
          "type": "address"
        },
        {
          "name": "_minSecondsBetweenDays",
          "type": "uint256"
        },
        {
          "name": "_rewardsStartTimestamp",
          "type": "uint256"
        }
      ],
      "name": "initializePostRewardsUpgrade1",
      "outputs": [],
      "payable": false,
      "stateMutability": "nonpayable",
      "type": "function"
    },
    {
      "constant": false,
      "inputs": [
        {
          "name": "_rewardsDay",
          "type": "uint256"
        },
        {
          "name": "_validators",
          "type": "address[]"
        }
      ],
      "name": "setValidators",
      "outputs": [
        {
          "name": "",
          "type": "bool"
        }
      ],
      "payable": false,
      "stateMutability": "nonpayable",
      "type": "function"
    },
    {
      "constant": false,
      "inputs": [
        {
          "name": "_rewardsDay",
          "type": "uint256"
        },
        {
          "name": "_applications",
          "type": "address[]"
        }
      ],
      "name": "setApplications",
      "outputs": [
        {
          "name": "",
          "type": "bool"
        }
      ],
      "payable": false,
      "stateMutability": "nonpayable",
      "type": "function"
    },
    {
      "constant": true,
      "inputs": [
        {
          "name": "_entityType",
          "type": "uint8"
        },
        {
          "name": "_rewardsDay",
          "type": "uint256"
        }
      ],
      "name": "getEntities",
      "outputs": [
        {
          "name": "",
          "type": "address[]"
        }
      ],
      "payable": false,
      "stateMutability": "view",
      "type": "function"
    },
    {
      "constant": false,
      "inputs": [
        {
          "name": "_rewardsDay",
          "type": "uint256"
        },
        {
          "name": "_rewardsHash",
          "type": "bytes32"
        },
        {
          "name": "_applications",
          "type": "address[]"
        },
        {
          "name": "_amounts",
          "type": "uint256[]"
        }
      ],
      "name": "submitDailyRewards",
      "outputs": [
        {
          "name": "",
          "type": "bool"
        }
      ],
      "payable": false,
      "stateMutability": "nonpayable",
      "type": "function"
    },
    {
      "constant": false,
      "inputs": [
        {
          "name": "_controller",
          "type": "address"
        }
      ],
      "name": "updateController",
      "outputs": [
        {
          "name": "",
          "type": "bool"
        }
      ],
      "payable": false,
      "stateMutability": "nonpayable",
      "type": "function"
    },
    {
      "constant": true,
      "inputs": [
        {
          "name": "_name",
          "type": "uint8"
        },
        {
          "name": "_rewardsDay",
          "type": "uint256"
        }
      ],
      "name": "getParameter",
      "outputs": [
        {
          "name": "",
          "type": "uint256"
        }
      ],
      "payable": false,
      "stateMutability": "view",
      "type": "function"
    },
    {
      "constant": false,
      "inputs": [
        {
          "name": "_name",
          "type": "uint8"
        },
        {
          "name": "_value",
          "type": "uint256"
        },
        {
          "name": "_rewardsDay",
          "type": "uint256"
        }
      ],
      "name": "updateParameter",
      "outputs": [
        {
          "name": "",
          "type": "bool"
        }
      ],
      "payable": false,
      "stateMutability": "nonpayable",
      "type": "function"
    },
    {
      "constant": false,
      "inputs": [
        {
          "name": "_entityType",
          "type": "uint8"
        },
        {
          "name": "_name",
          "type": "bytes32"
        },
        {
          "name": "_rewardsAddress",
          "type": "address"
        },
        {
          "name": "_sidechainAddress",
          "type": "address"
        }
      ],
      "name": "updateEntity",
      "outputs": [
        {
          "name": "",
          "type": "bool"
        }
      ],
      "payable": false,
      "stateMutability": "nonpayable",
      "type": "function"
    },
    {
      "constant": false,
      "inputs": [
        {
          "name": "_applicationAddress",
          "type": "address"
        },
        {
          "name": "_userId",
          "type": "bytes32"
        },
        {
          "name": "_to",
          "type": "address"
        },
        {
          "name": "_amount",
          "type": "uint256"
        }
      ],
      "name": "settle",
      "outputs": [
        {
          "name": "",
          "type": "bool"
        }
      ],
      "payable": false,
      "stateMutability": "nonpayable",
      "type": "function"
    }
  ],
  "bytecode": "0x608060405234801561001057600080fd5b50612c81806100206000396000f30060806040526004361061011d576000357c0100000000000000000000000000000000000000000000000000000000900463ffffffff16806306cb5b6614610122578063095ea7b31461017d578063098bfa9f146101e2578063162663001461027157806318160ddd146102cd57806323b872dd146102f85780632ab4d0521461037d57806339509351146103a85780634f92caf81461040d57806357ece4bc1461045b578063635685021461053457806370a082311461055f5780637492fdda146105b657806396e883271461063e578063a457c2d7146106d4578063a9059cbb14610739578063c7ed71a51461079e578063dd62ed3e14610831578063e795594d146108a8578063e9d2c4b314610930578063f77c479114610987575b600080fd5b34801561012e57600080fd5b50610163600480360381019080803573ffffffffffffffffffffffffffffffffffffffff1690602001909291905050506109de565b604051808215151515815260200191505060405180910390f35b34801561018957600080fd5b506101c8600480360381019080803573ffffffffffffffffffffffffffffffffffffffff16906020019092919080359060200190929190505050610bfd565b604051808215151515815260200191505060405180910390f35b3480156101ee57600080fd5b5061021a600480360381019080803560ff16906020019092919080359060200190929190505050610c14565b6040518080602001828103825283818151815260200191508051906020019060200280838360005b8381101561025d578082015181840152602081019050610242565b505050509050019250505060405180910390f35b34801561027d57600080fd5b506102b3600480360381019080803560ff1690602001909291908035906020019092919080359060200190929190505050610d39565b604051808215151515815260200191505060405180910390f35b3480156102d957600080fd5b506102e2610fa2565b6040518082815260200191505060405180910390f35b34801561030457600080fd5b50610363600480360381019080803573ffffffffffffffffffffffffffffffffffffffff169060200190929190803573ffffffffffffffffffffffffffffffffffffffff16906020019092919080359060200190929190505050610fac565b604051808215151515815260200191505060405180910390f35b34801561038957600080fd5b5061039261105d565b6040518082815260200191505060405180910390f35b3480156103b457600080fd5b506103f3600480360381019080803573ffffffffffffffffffffffffffffffffffffffff16906020019092919080359060200190929190505050611063565b604051808215151515815260200191505060405180910390f35b34801561041957600080fd5b50610445600480360381019080803560ff16906020019092919080359060200190929190505050611108565b6040518082815260200191505060405180910390f35b34801561046757600080fd5b5061051a60048036038101908080359060200190929190803560001916906020019092919080359060200190820180359060200190808060200260200160405190810160405280939291908181526020018383602002808284378201915050505050509192919290803590602001908201803590602001908080602002602001604051908101604052809392919081815260200183836020028082843782019150505050505091929192905050506111d7565b604051808215151515815260200191505060405180910390f35b34801561054057600080fd5b506105496115a4565b6040518082815260200191505060405180910390f35b34801561056b57600080fd5b506105a0600480360381019080803573ffffffffffffffffffffffffffffffffffffffff1690602001909291905050506115aa565b6040518082815260200191505060405180910390f35b3480156105c257600080fd5b5061062460048036038101908080359060200190929190803590602001908201803590602001908080602002602001604051908101604052809392919081815260200183836020028082843782019150505050505091929192905050506115f3565b604051808215151515815260200191505060405180910390f35b34801561064a57600080fd5b506106ba600480360381019080803560ff1690602001909291908035600019169060200190929190803573ffffffffffffffffffffffffffffffffffffffff169060200190929190803573ffffffffffffffffffffffffffffffffffffffff169060200190929190505050611836565b604051808215151515815260200191505060405180910390f35b3480156106e057600080fd5b5061071f600480360381019080803573ffffffffffffffffffffffffffffffffffffffff16906020019092919080359060200190929190505050611a27565b604051808215151515815260200191505060405180910390f35b34801561074557600080fd5b50610784600480360381019080803573ffffffffffffffffffffffffffffffffffffffff16906020019092919080359060200190929190505050611acc565b604051808215151515815260200191505060405180910390f35b3480156107aa57600080fd5b50610817600480360381019080803573ffffffffffffffffffffffffffffffffffffffff1690602001909291908035600019169060200190929190803573ffffffffffffffffffffffffffffffffffffffff16906020019092919080359060200190929190505050611ae3565b604051808215151515815260200191505060405180910390f35b34801561083d57600080fd5b50610892600480360381019080803573ffffffffffffffffffffffffffffffffffffffff169060200190929190803573ffffffffffffffffffffffffffffffffffffffff169060200190929190505050611cc8565b6040518082815260200191505060405180910390f35b3480156108b457600080fd5b506109166004803603810190808035906020019092919080359060200190820180359060200190808060200260200160405190810160405280939291908181526020018383602002808284378201915050505050509192919290505050611d4f565b604051808215151515815260200191505060405180910390f35b34801561093c57600080fd5b50610985600480360381019080803573ffffffffffffffffffffffffffffffffffffffff1690602001909291908035906020019092919080359060200190929190505050611f92565b005b34801561099357600080fd5b5061099c611faa565b604051808273ffffffffffffffffffffffffffffffffffffffff1673ffffffffffffffffffffffffffffffffffffffff16815260200191505060405180910390f35b6000608260009054906101000a900473ffffffffffffffffffffffffffffffffffffffff1673ffffffffffffffffffffffffffffffffffffffff163373ffffffffffffffffffffffffffffffffffffffff16141515610aa5576040517f08c379a00000000000000000000000000000000000000000000000000000000081526004018080602001828103825260168152602001807f4d7573742062652074686520636f6e74726f6c6c65720000000000000000000081525060200191505060405180910390fd5b600073ffffffffffffffffffffffffffffffffffffffff168273ffffffffffffffffffffffffffffffffffffffff1614151515610b70576040517f08c379a00000000000000000000000000000000000000000000000000000000081526004018080602001828103825260258152602001807f436f6e74726f6c6c65722063616e6e6f7420626520746865207a65726f20616481526020017f647265737300000000000000000000000000000000000000000000000000000081525060400191505060405180910390fd5b81608260006101000a81548173ffffffffffffffffffffffffffffffffffffffff021916908373ffffffffffffffffffffffffffffffffffffffff1602179055508173ffffffffffffffffffffffffffffffffffffffff167f1304018cfe79741dcf02ba6b61d39cc4757d59395d03224d9925c7aa8300214660405160405180910390a260019050919050565b6000610c0a338484611fd0565b6001905092915050565b606073__PropsRewardsLib_______________________6389932735606885856040518463ffffffff167c010000000000000000000000000000000000000000000000000000000002815260040180848152602001836001811115610c7557fe5b60ff168152602001828152602001935050505060006040518083038186803b158015610ca057600080fd5b505af4158015610cb4573d6000803e3d6000fd5b505050506040513d6000823e3d601f19601f820116820180604052506020811015610cde57600080fd5b810190808051640100000000811115610cf657600080fd5b82810190506020810184811115610d0c57600080fd5b8151856020820283011164010000000082111715610d2957600080fd5b5050929190505050905092915050565b6000608260009054906101000a900473ffffffffffffffffffffffffffffffffffffffff1673ffffffffffffffffffffffffffffffffffffffff163373ffffffffffffffffffffffffffffffffffffffff16141515610e00576040517f08c379a00000000000000000000000000000000000000000000000000000000081526004018080602001828103825260168152602001807f4d7573742062652074686520636f6e74726f6c6c65720000000000000000000081525060200191505060405180910390fd5b73__PropsRewardsLib_______________________6311cb33da60688686866040518563ffffffff167c010000000000000000000000000000000000000000000000000000000002815260040180858152602001846003811115610e6057fe5b60ff16815260200183815260200182815260200194505050505060206040518083038186803b158015610e9257600080fd5b505af4158015610ea6573d6000803e3d6000fd5b505050506040513d6020811015610ebc57600080fd5b8101908080519060200190929190505050507fd3ee560e0e71d87fde0453f24eac52dd8f01332349f8d1ef9e005d1cc3b82fb48460686004016000876003811115610f0357fe5b81526020019081526020016000206000015460686004016000886003811115610f2857fe5b81526020019081526020016000206001015460686004016000896003811115610f4d57fe5b81526020019081526020016000206002015460405180856003811115610f6f57fe5b60ff16815260200184815260200183815260200182815260200194505050505060405180910390a1600190509392505050565b6000603554905090565b6000610fb9848484612133565b611052843361104d85603460008a73ffffffffffffffffffffffffffffffffffffffff1673ffffffffffffffffffffffffffffffffffffffff16815260200190815260200160002060003373ffffffffffffffffffffffffffffffffffffffff1673ffffffffffffffffffffffffffffffffffffffff1681526020019081526020016000205461235190919063ffffffff16565b611fd0565b600190509392505050565b60805481565b60006110fe33846110f985603460003373ffffffffffffffffffffffffffffffffffffffff1673ffffffffffffffffffffffffffffffffffffffff16815260200190815260200160002060008973ffffffffffffffffffffffffffffffffffffffff1673ffffffffffffffffffffffffffffffffffffffff1681526020019081526020016000205461237290919063ffffffff16565b611fd0565b6001905092915050565b600073__PropsRewardsLib_______________________63d81b7050606885856040518463ffffffff167c01000000000000000000000000000000000000000000000000000000000281526004018084815260200183600381111561116957fe5b60ff168152602001828152602001935050505060206040518083038186803b15801561119457600080fd5b505af41580156111a8573d6000803e3d6000fd5b505050506040513d60208110156111be57600080fd5b8101908080519060200190929190505050905092915050565b6000806000806068600f01600401548811156112f05773__PropsRewardsLib_______________________6314a68c38606880600f01600401546068600f016003015460006040518563ffffffff167c01000000000000000000000000000000000000000000000000000000000281526004018085815260200184815260200183600019166000191681526020018215151515815260200194505050505060206040518083038186803b15801561128d57600080fd5b505af41580156112a1573d6000803e3d6000fd5b505050506040513d60208110156112b757600080fd5b8101908080519060200190929190505050925060008311156112ef576112ee6068600f01600401546068600f016003015485612393565b5b5b73__PropsRewardsLib_______________________630f9887a060688a8a8a8a611318610fa2565b6040518763ffffffff167c01000000000000000000000000000000000000000000000000000000000281526004018087815260200186815260200185600019166000191681526020018060200180602001848152602001838103835286818151815260200191508051906020019060200280838360005b838110156113aa57808201518184015260208101905061138f565b50505050905001838103825285818151815260200191508051906020019060200280838360005b838110156113ec5780820151818401526020810190506113d1565b505050509050019850505050505050505060206040518083038186803b15801561141557600080fd5b505af4158015611429573d6000803e3d6000fd5b505050506040513d602081101561143f57600080fd5b8101908080519060200190929190505050915060008211156114695761146888888888866125aa565b5b73__PropsRewardsLib_______________________6314a68c3860688a8a60016040518563ffffffff167c01000000000000000000000000000000000000000000000000000000000281526004018085815260200184815260200183600019166000191681526020018215151515815260200194505050505060206040518083038186803b1580156114fa57600080fd5b505af415801561150e573d6000803e3d6000fd5b505050506040513d602081101561152457600080fd5b81019080805190602001909291905050509050600081111561154c5761154b888883612393565b5b3373ffffffffffffffffffffffffffffffffffffffff168760001916897f47a75fa3188612bc1341726d7859491a32bf875dd309474f712950354f73c5a760405160405180910390a460019350505050949350505050565b60815481565b6000603360008373ffffffffffffffffffffffffffffffffffffffff1673ffffffffffffffffffffffffffffffffffffffff168152602001908152602001600020549050919050565b6000608260009054906101000a900473ffffffffffffffffffffffffffffffffffffffff1673ffffffffffffffffffffffffffffffffffffffff163373ffffffffffffffffffffffffffffffffffffffff161415156116ba576040517f08c379a00000000000000000000000000000000000000000000000000000000081526004018080602001828103825260168152602001807f4d7573742062652074686520636f6e74726f6c6c65720000000000000000000081525060200191505060405180910390fd5b73__PropsRewardsLib_______________________63cc1b8c9c606885856040518463ffffffff167c01000000000000000000000000000000000000000000000000000000000281526004018084815260200183815260200180602001828103825283818151815260200191508051906020019060200280838360005b83811015611752578082015181840152602081019050611737565b5050505090500194505050505060206040518083038186803b15801561177757600080fd5b505af415801561178b573d6000803e3d6000fd5b505050506040513d60208110156117a157600080fd5b810190808051906020019092919050505050827f426b639e1d49f62952a4d3282b37648fb8c47ac20b15e01548c104b75c787c0c836040518080602001828103825283818151815260200191508051906020019060200280838360005b838110156118195780820151818401526020810190506117fe565b505050509050019250505060405180910390a26001905092915050565b600073__PropsRewardsLib_______________________6346e3a2986068878787876040518663ffffffff167c01000000000000000000000000000000000000000000000000000000000281526004018086815260200185600181111561189957fe5b60ff16815260200184600019166000191681526020018373ffffffffffffffffffffffffffffffffffffffff1673ffffffffffffffffffffffffffffffffffffffff1681526020018273ffffffffffffffffffffffffffffffffffffffff1673ffffffffffffffffffffffffffffffffffffffff1681526020019550505050505060206040518083038186803b15801561193257600080fd5b505af4158015611946573d6000803e3d6000fd5b505050506040513d602081101561195c57600080fd5b8101908080519060200190929190505050508173ffffffffffffffffffffffffffffffffffffffff1685600181111561199157fe5b3373ffffffffffffffffffffffffffffffffffffffff167fac4aacb75e6f9ac6f2fee64077e9436dfb1be853b1a850b7863cf1433f0e752887876040518083600019166000191681526020018273ffffffffffffffffffffffffffffffffffffffff1673ffffffffffffffffffffffffffffffffffffffff1681526020019250505060405180910390a460019050949350505050565b6000611ac23384611abd85603460003373ffffffffffffffffffffffffffffffffffffffff1673ffffffffffffffffffffffffffffffffffffffff16815260200190815260200160002060008973ffffffffffffffffffffffffffffffffffffffff1673ffffffffffffffffffffffffffffffffffffffff1681526020019081526020016000205461235190919063ffffffff16565b611fd0565b6001905092915050565b6000611ad9338484612133565b6001905092915050565b60003373ffffffffffffffffffffffffffffffffffffffff16606860000160008773ffffffffffffffffffffffffffffffffffffffff1673ffffffffffffffffffffffffffffffffffffffff16815260200190815260200160002060010160009054906101000a900473ffffffffffffffffffffffffffffffffffffffff1673ffffffffffffffffffffffffffffffffffffffff16141515611c13576040517f08c379a000000000000000000000000000000000000000000000000000000000815260040180806020018281038252602b8152602001807f736574746c65206d6179206f6e6c792062652063616c6c656420627920616e2081526020017f6170706c69636174696f6e00000000000000000000000000000000000000000081525060400191505060405180910390fd5b611c1e338484612133565b8273ffffffffffffffffffffffffffffffffffffffff1684600019168673ffffffffffffffffffffffffffffffffffffffff167f53b5073ff19aef23b167e83c6be14817da210375bec35b4c0ccfc0cded9a23f88533604051808381526020018273ffffffffffffffffffffffffffffffffffffffff1673ffffffffffffffffffffffffffffffffffffffff1681526020019250505060405180910390a460019050949350505050565b6000603460008473ffffffffffffffffffffffffffffffffffffffff1673ffffffffffffffffffffffffffffffffffffffff16815260200190815260200160002060008373ffffffffffffffffffffffffffffffffffffffff1673ffffffffffffffffffffffffffffffffffffffff16815260200190815260200160002054905092915050565b6000608260009054906101000a900473ffffffffffffffffffffffffffffffffffffffff1673ffffffffffffffffffffffffffffffffffffffff163373ffffffffffffffffffffffffffffffffffffffff16141515611e16576040517f08c379a00000000000000000000000000000000000000000000000000000000081526004018080602001828103825260168152602001807f4d7573742062652074686520636f6e74726f6c6c65720000000000000000000081525060200191505060405180910390fd5b73__PropsRewardsLib_______________________6363cad06a606885856040518463ffffffff167c01000000000000000000000000000000000000000000000000000000000281526004018084815260200183815260200180602001828103825283818151815260200191508051906020019060200280838360005b83811015611eae578082015181840152602081019050611e93565b5050505090500194505050505060206040518083038186803b158015611ed357600080fd5b505af4158015611ee7573d6000803e3d6000fd5b505050506040513d6020811015611efd57600080fd5b810190808051906020019092919050505050827f25071f4c6ebdf865da246a5caf6a5bbcbe50f6443e15309b97b10043c6beb1d9836040518080602001828103825283818151815260200191508051906020019060200280838360005b83811015611f75578082015181840152602081019050611f5a565b505050509050019250505060405180910390a26001905092915050565b600060129050611fa4848285856126b1565b50505050565b608260009054906101000a900473ffffffffffffffffffffffffffffffffffffffff1681565b600073ffffffffffffffffffffffffffffffffffffffff168273ffffffffffffffffffffffffffffffffffffffff161415151561200c57600080fd5b600073ffffffffffffffffffffffffffffffffffffffff168373ffffffffffffffffffffffffffffffffffffffff161415151561204857600080fd5b80603460008573ffffffffffffffffffffffffffffffffffffffff1673ffffffffffffffffffffffffffffffffffffffff16815260200190815260200160002060008473ffffffffffffffffffffffffffffffffffffffff1673ffffffffffffffffffffffffffffffffffffffff168152602001908152602001600020819055508173ffffffffffffffffffffffffffffffffffffffff168373ffffffffffffffffffffffffffffffffffffffff167f8c5be1e5ebec7d5bd14f71427d1e84f3dd0314c0f7b2291e5b200ac8c7c3b925836040518082815260200191505060405180910390a3505050565b603360008473ffffffffffffffffffffffffffffffffffffffff1673ffffffffffffffffffffffffffffffffffffffff16815260200190815260200160002054811115151561218157600080fd5b600073ffffffffffffffffffffffffffffffffffffffff168273ffffffffffffffffffffffffffffffffffffffff16141515156121bd57600080fd5b61220f81603360008673ffffffffffffffffffffffffffffffffffffffff1673ffffffffffffffffffffffffffffffffffffffff1681526020019081526020016000205461235190919063ffffffff16565b603360008573ffffffffffffffffffffffffffffffffffffffff1673ffffffffffffffffffffffffffffffffffffffff168152602001908152602001600020819055506122a481603360008573ffffffffffffffffffffffffffffffffffffffff1673ffffffffffffffffffffffffffffffffffffffff1681526020019081526020016000205461237290919063ffffffff16565b603360008473ffffffffffffffffffffffffffffffffffffffff1673ffffffffffffffffffffffffffffffffffffffff168152602001908152602001600020819055508173ffffffffffffffffffffffffffffffffffffffff168373ffffffffffffffffffffffffffffffffffffffff167fddf252ad1be2c89b69c2b068fc378daa952ba7f163c4a11628f55a4df523b3ef836040518082815260200191505060405180910390a3505050565b60008083831115151561236357600080fd5b82840390508091505092915050565b600080828401905083811015151561238957600080fd5b8091505092915050565b6000806068600f0160000160008560001916600019168152602001908152602001600020600101805490509150600090505b818110156124a457612497606860020160006068600f01600001600088600019166000191681526020019081526020016000206001018481548110151561240857fe5b9060005260206000200160009054906101000a900473ffffffffffffffffffffffffffffffffffffffff1673ffffffffffffffffffffffffffffffffffffffff1673ffffffffffffffffffffffffffffffffffffffff16815260200190815260200160002060010160009054906101000a900473ffffffffffffffffffffffffffffffffffffffff1684612b15565b80806001019150506123c5565b73__PropsRewardsLib_______________________63cb27ba3e6068866040518363ffffffff167c01000000000000000000000000000000000000000000000000000000000281526004018083815260200182600019166000191681526020019250505060206040518083038186803b15801561252057600080fd5b505af4158015612534573d6000803e3d6000fd5b505050506040513d602081101561254a57600080fd5b8101908080519060200190929190505050508360001916857f07efea0e0eeb975e5404139e47d884d2705a0660a3456aa31c5694df1d8c5f1484858702604051808381526020018281526020019250505060405180910390a35050505050565b60008090505b8351811015612663576126566068600001600086848151811015156125d157fe5b9060200190602002015173ffffffffffffffffffffffffffffffffffffffff1673ffffffffffffffffffffffffffffffffffffffff16815260200190815260200160002060010160009054906101000a900473ffffffffffffffffffffffffffffffffffffffff16848381518110151561264757fe5b90602001906020020151612b15565b80806001019150506125b0565b8460001916867fcc511f1b8ddd8ab10bcb89c26361da1c99b826350e3f38ee438134149032568a865185604051808381526020018281526020019250505060405180910390a3505050505050565b6000608054141515612751576040517f08c379a00000000000000000000000000000000000000000000000000000000081526004018080602001828103825260308152602001807f496e697469616c697a6520726577617264732075706772616465312063616e2081526020017f68617070656e206f6e6c79206f6e63650000000000000000000000000000000081525060400191505060405180910390fd5b83608260006101000a81548173ffffffffffffffffffffffffffffffffffffffff021916908373ffffffffffffffffffffffffffffffffffffffff16021790555073__PropsRewardsLib_______________________6311cb33da606860006187be60006040518563ffffffff167c0100000000000000000000000000000000000000000000000000000000028152600401808581526020018460038111156127f657fe5b60ff16815260200183815260200182815260200194505050505060206040518083038186803b15801561282857600080fd5b505af415801561283c573d6000803e3d6000fd5b505050506040513d602081101561285257600080fd5b81019080805190602001909291905050505073__PropsRewardsLib_______________________6311cb33da606860016308f0d18060006040518563ffffffff167c0100000000000000000000000000000000000000000000000000000000028152600401808581526020018460038111156128ca57fe5b60ff16815260200183815260200182815260200194505050505060206040518083038186803b1580156128fc57600080fd5b505af4158015612910573d6000803e3d6000fd5b505050506040513d602081101561292657600080fd5b81019080805190602001909291905050505073__PropsRewardsLib_______________________6311cb33da606860026302faf08060006040518563ffffffff167c01000000000000000000000000000000000000000000000000000000000281526004018085815260200184600381111561299e57fe5b60ff16815260200183815260200182815260200194505050505060206040518083038186803b1580156129d057600080fd5b505af41580156129e4573d6000803e3d6000fd5b505050506040513d60208110156129fa57600080fd5b81019080805190602001909291905050505073__PropsRewardsLib_______________________6311cb33da6068600361072560006040518563ffffffff167c010000000000000000000000000000000000000000000000000000000002815260040180858152602001846003811115612a7057fe5b60ff16815260200183815260200182815260200194505050505060206040518083038186803b158015612aa257600080fd5b505af4158015612ab6573d6000803e3d6000fd5b505050506040513d6020811015612acc57600080fd5b81019080805190602001909291905050505082600a0a633b9aca000260808190556068601601819055508060818190556068601501819055508160686014018190555050505050565b60008273ffffffffffffffffffffffffffffffffffffffff1614151515612b3b57600080fd5b612b508160355461237290919063ffffffff16565b603581905550612ba881603360008573ffffffffffffffffffffffffffffffffffffffff1673ffffffffffffffffffffffffffffffffffffffff1681526020019081526020016000205461237290919063ffffffff16565b603360008473ffffffffffffffffffffffffffffffffffffffff1673ffffffffffffffffffffffffffffffffffffffff168152602001908152602001600020819055508173ffffffffffffffffffffffffffffffffffffffff16600073ffffffffffffffffffffffffffffffffffffffff167fddf252ad1be2c89b69c2b068fc378daa952ba7f163c4a11628f55a4df523b3ef836040518082815260200191505060405180910390a350505600a165627a7a72305820ba319286ad1802ac94c087201e4236975a2939ba1699d86670208e578ff5890c0029",
  "source": "pragma solidity ^0.4.24;\n\nimport \"zos-lib/contracts/Initializable.sol\";\nimport \"openzeppelin-eth/contracts/math/SafeMath.sol\";\nimport \"openzeppelin-eth/contracts/token/ERC20/ERC20.sol\";\nimport { PropsRewardsLib } from \"./PropsRewardsLib.sol\";\n\n/**\n * @title Props Rewards\n * @dev Contract allows to set approved apps and validators. Submit and mint rewards...\n **/\ncontract PropsRewards is Initializable, ERC20 {\n    using SafeMath for uint256;\n    /*\n    *  Events\n    */\n    event DailyRewardsSubmitted(\n        uint256 indexed rewardsDay,\n        bytes32 indexed rewardsHash,\n        address indexed validator\n    );\n\n    event DailyRewardsApplicationsMinted(\n        uint256 indexed rewardsDay,\n        bytes32 indexed rewardsHash,\n        uint256 numOfApplications,\n        uint256 amount\n    );\n\n    event DailyRewardsValidatorsMinted(\n        uint256 indexed rewardsDay,\n        bytes32 indexed rewardsHash,\n        uint256 numOfValidators,\n        uint256 amount\n    );\n\n    event EntityUpdated(\n        address indexed id,\n        PropsRewardsLib.RewardedEntityType indexed entityType,\n        bytes32 name,\n        address rewardsAddress,\n        address indexed sidechainAddress\n    );\n\n    event ParameterUpdated(\n        PropsRewardsLib.ParameterName param,\n        uint256 newValue,\n        uint256 oldValue,\n        uint256 rewardsDay\n    );\n\n    event ValidatorsListUpdated(\n        address[] validatorsList,\n        uint256 indexed rewardsDay\n    );\n\n    event ApplicationsListUpdated(\n        address[] applicationsList,\n        uint256 indexed rewardsDay\n    );\n\n    event ControllerUpdated(address indexed newController);\n\n    event Settlement(\n        address indexed applicationId,\n        bytes32 indexed userId,\n        address indexed to,\n        uint256 amount,\n        address rewardsAddress\n    );\n    /*\n    *  Storage\n    */\n\n    PropsRewardsLib.Data internal rewardsLibData;\n    uint256 public maxTotalSupply;\n    uint256 public rewardsStartTimestamp;\n    address public controller; // controller entity\n\n    /*\n    *  Modifiers\n    */\n    modifier onlyController() {\n        require(\n            msg.sender == controller,\n            \"Must be the controller\"\n        );\n        _;\n    }\n\n    /**\n    * @dev The initializer function for upgrade as initialize was already called, get the decimals used in the token to initialize the params\n    * @param _controller address that will have controller functionality on rewards protocol\n    * @param _minSecondsBetweenDays uint256 seconds required to pass between consecutive rewards day\n    * @param _rewardsStartTimestamp uint256 day 0 timestamp\n    */\n    function initializePostRewardsUpgrade1(\n        address _controller,\n        uint256 _minSecondsBetweenDays,\n        uint256 _rewardsStartTimestamp\n    )\n        public\n    {\n        uint256 decimals = 18;\n        _initializePostRewardsUpgrade1(_controller, decimals, _minSecondsBetweenDays, _rewardsStartTimestamp);\n    }\n\n    /**\n    * @dev Set new validators list\n    * @param _rewardsDay uint256 the rewards day from which this change should take effect\n    * @param _validators address[] array of validators\n    */\n    function setValidators(uint256 _rewardsDay, address[] _validators)\n        public\n        onlyController\n        returns (bool)\n    {\n        PropsRewardsLib.setValidators(rewardsLibData, _rewardsDay, _validators);\n        emit ValidatorsListUpdated(_validators, _rewardsDay);\n        return true;\n    }\n\n    /**\n    * @dev Set new applications list\n    * @param _rewardsDay uint256 the rewards day from which this change should take effect\n    * @param _applications address[] array of applications\n    */\n    function setApplications(uint256 _rewardsDay, address[] _applications)\n        public\n        onlyController\n        returns (bool)\n    {\n        PropsRewardsLib.setApplications(rewardsLibData, _rewardsDay, _applications);\n        emit ApplicationsListUpdated(_applications, _rewardsDay);\n        return true;\n    }\n\n    /**\n    * @dev Get the applications or validators list\n    * @param _entityType RewardedEntityType either application (0) or validator (1)\n    * @param _rewardsDay uint256 the rewards day to use for this value\n    */\n    function getEntities(PropsRewardsLib.RewardedEntityType _entityType, uint256 _rewardsDay)\n        public\n        view\n        returns (address[])\n    {\n        return PropsRewardsLib.getEntities(rewardsLibData, _entityType, _rewardsDay);\n    }\n\n    /**\n    * @dev The function is called by validators with the calculation of the daily rewards\n    * @param _rewardsDay uint256 the rewards day\n    * @param _rewardsHash bytes32 hash of the rewards data\n    * @param _applications address[] array of application addresses getting the daily reward\n    * @param _amounts uint256[] array of amounts each app should get\n    */\n    function submitDailyRewards(\n        uint256 _rewardsDay,\n        bytes32 _rewardsHash,\n        address[] _applications,\n        uint256[] _amounts\n    )\n        public\n        returns (bool)\n    {\n        // if submission is for a new day check if previous day validator rewards were given if not give to participating ones\n        if (_rewardsDay > rewardsLibData.dailyRewards.lastApplicationsRewardsDay) {\n            uint256 previousDayValidatorRewardsAmount = PropsRewardsLib.calculateValidatorRewards(\n                rewardsLibData,\n                rewardsLibData.dailyRewards.lastApplicationsRewardsDay,\n                rewardsLibData.dailyRewards.lastConfirmedRewardsHash,\n                false\n            );\n            if (previousDayValidatorRewardsAmount > 0) {\n                _mintDailyRewardsForValidators(rewardsLibData.dailyRewards.lastApplicationsRewardsDay, rewardsLibData.dailyRewards.lastConfirmedRewardsHash, previousDayValidatorRewardsAmount);\n            }\n        }\n        // check and give application rewards if majority of validators agree\n        uint256 appRewardsSum = PropsRewardsLib.calculateAndFinalizeApplicationRewards(\n            rewardsLibData,\n            _rewardsDay,\n            _rewardsHash,\n            _applications,\n            _amounts,\n            totalSupply()\n        );\n        if (appRewardsSum > 0) {\n            _mintDailyRewardsForApps(_rewardsDay, _rewardsHash, _applications, _amounts, appRewardsSum);\n        }\n\n        // check and give validator rewards if all validators submitted\n        uint256 validatorRewardsAmount = PropsRewardsLib.calculateValidatorRewards(\n            rewardsLibData,\n            _rewardsDay,\n            _rewardsHash,\n            true\n        );\n        if (validatorRewardsAmount > 0) {\n            _mintDailyRewardsForValidators(_rewardsDay, _rewardsHash, validatorRewardsAmount);\n        }\n\n        emit DailyRewardsSubmitted(_rewardsDay, _rewardsHash, msg.sender);\n        return true;\n    }\n\n    /**\n    * @dev Allows the controller/owner to update to a new controller\n    * @param _controller address address of the new controller\n    */\n    function updateController(\n        address _controller\n    )\n        public\n        onlyController\n        returns (bool)\n    {\n        require(_controller != address(0), \"Controller cannot be the zero address\");\n        controller = _controller;\n        emit ControllerUpdated\n        (\n            _controller\n        );\n        return true;\n    }\n\n    /**\n    * @dev Allows getting a parameter value based on timestamp\n    * @param _name ParameterName name of the parameter\n    * @param _rewardsDay uint256 starting when should this parameter use the current value\n    */\n    function getParameter(\n        PropsRewardsLib.ParameterName _name,\n        uint256 _rewardsDay\n    )\n        public\n        view\n        returns (uint256)\n    {\n        return PropsRewardsLib.getParameterValue(rewardsLibData, _name, _rewardsDay);\n    }\n\n    /**\n    * @dev Allows the controller/owner to update rewards parameters\n    * @param _name ParameterName name of the parameter\n    * @param _value uint256 new value for the parameter\n    * @param _rewardsDay uint256 starting when should this parameter use the current value\n    */\n    function updateParameter(\n        PropsRewardsLib.ParameterName _name,\n        uint256 _value,\n        uint256 _rewardsDay\n    )\n        public\n        onlyController\n        returns (bool)\n    {\n        PropsRewardsLib.updateParameter(rewardsLibData, _name, _value, _rewardsDay);\n        emit ParameterUpdated(\n            _name,\n            rewardsLibData.parameters[uint256(_name)].currentValue,\n            rewardsLibData.parameters[uint256(_name)].previousValue,\n            rewardsLibData.parameters[uint256(_name)].rewardsDay\n        );\n        return true;\n    }\n\n    /**\n    * @dev Allows an application or validator to add/update its details\n    * @param _entityType RewardedEntityType either application (0) or validator (1)\n    * @param _name bytes32 name of the app\n    * @param _rewardsAddress address an address for the app to receive the rewards\n    * @param _sidechainAddress address the address used for using the sidechain\n    */\n    function updateEntity(\n        PropsRewardsLib.RewardedEntityType _entityType,\n        bytes32 _name,\n        address _rewardsAddress,\n        address _sidechainAddress\n    )\n        public\n        returns (bool)\n    {\n        PropsRewardsLib.updateEntity(rewardsLibData, _entityType, _name, _rewardsAddress, _sidechainAddress);\n        emit EntityUpdated(msg.sender, _entityType, _name, _rewardsAddress, _sidechainAddress);\n        return true;\n    }\n\n    /**\n    * @dev Allows an application to settle sidechain props. Should be called from an application rewards address\n    * @param _applicationAddress address the application main address (used to setup the application)\n    * @param _userId bytes32 identification of the user on the sidechain that was settled\n    * @param _to address where to send the props to\n    * @param _amount uint256 the address used for using the sidechain\n    */\n    function settle(\n        address _applicationAddress,\n        bytes32 _userId,\n        address _to,\n        uint256 _amount\n    )\n        public\n        returns (bool)\n    {\n        require(\n            rewardsLibData.applications[_applicationAddress].rewardsAddress == msg.sender,\n            \"settle may only be called by an application\"\n        );\n        _transfer(msg.sender, _to, _amount);\n        emit Settlement(_applicationAddress, _userId, _to, _amount, msg.sender);\n        return true;\n    }\n    /**\n    * @dev internal intialize rewards upgrade1\n    * @param _controller address that will have controller functionality on rewards protocol\n    * @param _decimals uint256 number of decimals used in total supply\n    * @param _minSecondsBetweenDays uint256 seconds required to pass between consecutive rewards day\n    * @param _rewardsStartTimestamp uint256 day 0 timestamp\n    */\n    function _initializePostRewardsUpgrade1(\n        address _controller,\n        uint256 _decimals,\n        uint256 _minSecondsBetweenDays,\n        uint256 _rewardsStartTimestamp\n    )\n        internal\n    {\n        require(maxTotalSupply==0, \"Initialize rewards upgrade1 can happen only once\");\n        controller = _controller;\n        // ApplicationRewardsPercent pphm ==> 0.03475%\n        PropsRewardsLib.updateParameter(rewardsLibData, PropsRewardsLib.ParameterName.ApplicationRewardsPercent, 34750, 0);\n        // // ApplicationRewardsMaxVariationPercent pphm ==> 150%\n        PropsRewardsLib.updateParameter(rewardsLibData, PropsRewardsLib.ParameterName.ApplicationRewardsMaxVariationPercent, 150 * 1e6, 0);\n        // // ValidatorMajorityPercent pphm ==> 50%\n        PropsRewardsLib.updateParameter(rewardsLibData, PropsRewardsLib.ParameterName.ValidatorMajorityPercent, 50 * 1e6, 0);\n        //  // ValidatorRewardsPercent pphm ==> 0.001829%\n        PropsRewardsLib.updateParameter(rewardsLibData, PropsRewardsLib.ParameterName.ValidatorRewardsPercent, 1829, 0);\n\n        // max total supply is 1,000,000,000 PROPS specified in AttoPROPS\n        rewardsLibData.maxTotalSupply = maxTotalSupply = 1 * 1e9 * (10 ** _decimals);\n        rewardsLibData.rewardsStartTimestamp = rewardsStartTimestamp = _rewardsStartTimestamp;\n        rewardsLibData.minSecondsBetweenDays = _minSecondsBetweenDays;\n\n    }\n\n    /**\n    * @dev Mint rewards for validators\n    * @param _rewardsDay uint256 the rewards day\n    * @param _rewardsHash bytes32 hash of the rewards data\n    * @param _amount uint256 amount each validator should get\n    */\n    function _mintDailyRewardsForValidators(uint256 _rewardsDay, bytes32 _rewardsHash, uint256 _amount)\n        internal\n    {\n        uint256 validatorsCount = rewardsLibData.dailyRewards.submissions[_rewardsHash].validatorsList.length;\n        for (uint256 i = 0; i < validatorsCount; i++) {\n            _mint(rewardsLibData.validators[rewardsLibData.dailyRewards.submissions[_rewardsHash].validatorsList[i]].rewardsAddress,_amount);\n        }\n        PropsRewardsLib._resetDailyRewards(rewardsLibData, _rewardsHash);\n        emit DailyRewardsValidatorsMinted(\n            _rewardsDay,\n            _rewardsHash,\n            validatorsCount,\n            (_amount * validatorsCount)\n        );\n    }\n\n    /**\n    * @dev Mint rewards for apps\n    * @param _rewardsDay uint256 the rewards day\n    * @param _rewardsHash bytes32 hash of the rewards data\n    * @param _applications address[] array of application addresses getting the daily reward\n    * @param _amounts uint256[] array of amounts each app should get\n    * @param _sum uint256 the sum of all application rewards given\n    */\n    function _mintDailyRewardsForApps(\n        uint256 _rewardsDay,\n        bytes32 _rewardsHash,\n        address[] _applications,\n        uint256[] _amounts,\n        uint256 _sum\n    )\n        internal\n    {\n        for (uint256 i = 0; i < _applications.length; i++) {\n            _mint(rewardsLibData.applications[_applications[i]].rewardsAddress, _amounts[i]);\n        }\n        emit DailyRewardsApplicationsMinted(_rewardsDay, _rewardsHash, _applications.length, _sum);\n    }\n}",
  "sourcePath": "/Users/jretina/Programming/PROPSProject/props-token-distribution/contracts/token/PropsRewards.sol",
  "compiler": {
    "name": "solc",
    "version": "0.4.24+commit.e67f0147.Emscripten.clang"
  },
  "schemaVersion": "2.0.1",
  "updatedAt": "2019-07-17T18:25:26.906Z"
}