{
  "contractName": "PropsToken",
  "abi": [
    {
      "constant": false,
      "inputs": [
        {
          "name": "_controller",
          "type": "address"
        }
      ],
      "name": "updateController",
      "outputs": [
        {
          "name": "",
          "type": "bool"
        }
      ],
      "payable": false,
      "stateMutability": "nonpayable",
      "type": "function"
    },
    {
      "constant": true,
      "inputs": [],
      "name": "name",
      "outputs": [
        {
          "name": "",
          "type": "string"
        }
      ],
      "payable": false,
      "stateMutability": "view",
      "type": "function"
    },
    {
      "constant": false,
      "inputs": [
        {
          "name": "spender",
          "type": "address"
        },
        {
          "name": "value",
          "type": "uint256"
        }
      ],
      "name": "approve",
      "outputs": [
        {
          "name": "",
          "type": "bool"
        }
      ],
      "payable": false,
      "stateMutability": "nonpayable",
      "type": "function"
    },
    {
      "constant": true,
      "inputs": [
        {
          "name": "_entityType",
          "type": "uint8"
        },
        {
          "name": "_rewardsDay",
          "type": "uint256"
        }
      ],
      "name": "getEntities",
      "outputs": [
        {
          "name": "",
          "type": "address[]"
        }
      ],
      "payable": false,
      "stateMutability": "view",
      "type": "function"
    },
    {
      "constant": true,
      "inputs": [
        {
          "name": "_token",
          "type": "address"
        },
        {
          "name": "_to",
          "type": "address"
        },
        {
          "name": "_value",
          "type": "uint256"
        },
        {
          "name": "_fee",
          "type": "uint256"
        },
        {
          "name": "_nonce",
          "type": "uint256"
        }
      ],
      "name": "getTransferPreSignedHash",
      "outputs": [
        {
          "name": "",
          "type": "bytes32"
        }
      ],
      "payable": false,
      "stateMutability": "pure",
      "type": "function"
    },
    {
      "constant": false,
      "inputs": [
        {
          "name": "_signature",
          "type": "bytes"
        },
        {
          "name": "_to",
          "type": "address"
        },
        {
          "name": "_value",
          "type": "uint256"
        },
        {
          "name": "_fee",
          "type": "uint256"
        },
        {
          "name": "_nonce",
          "type": "uint256"
        }
      ],
      "name": "transferPreSigned",
      "outputs": [
        {
          "name": "",
          "type": "bool"
        }
      ],
      "payable": false,
      "stateMutability": "nonpayable",
      "type": "function"
    },
    {
      "constant": true,
      "inputs": [
        {
          "name": "_token",
          "type": "address"
        },
        {
          "name": "_spender",
          "type": "address"
        },
        {
          "name": "_addedValue",
          "type": "uint256"
        },
        {
          "name": "_fee",
          "type": "uint256"
        },
        {
          "name": "_nonce",
          "type": "uint256"
        }
      ],
      "name": "getIncreaseAllowancePreSignedHash",
      "outputs": [
        {
          "name": "",
          "type": "bytes32"
        }
      ],
      "payable": false,
      "stateMutability": "pure",
      "type": "function"
    },
    {
      "constant": false,
      "inputs": [
        {
          "name": "_name",
          "type": "uint8"
        },
        {
          "name": "_value",
          "type": "uint256"
        },
        {
          "name": "_rewardsDay",
          "type": "uint256"
        }
      ],
      "name": "updateParameter",
      "outputs": [
        {
          "name": "",
          "type": "bool"
        }
      ],
      "payable": false,
      "stateMutability": "nonpayable",
      "type": "function"
    },
    {
      "constant": true,
      "inputs": [],
      "name": "totalSupply",
      "outputs": [
        {
          "name": "",
          "type": "uint256"
        }
      ],
      "payable": false,
      "stateMutability": "view",
      "type": "function"
    },
    {
      "constant": false,
      "inputs": [
        {
          "name": "from",
          "type": "address"
        },
        {
          "name": "to",
          "type": "address"
        },
        {
          "name": "value",
          "type": "uint256"
        }
      ],
      "name": "transferFrom",
      "outputs": [
        {
          "name": "",
          "type": "bool"
        }
      ],
      "payable": false,
      "stateMutability": "nonpayable",
      "type": "function"
    },
    {
      "constant": true,
      "inputs": [],
      "name": "maxTotalSupply",
      "outputs": [
        {
          "name": "",
          "type": "uint256"
        }
      ],
      "payable": false,
      "stateMutability": "view",
      "type": "function"
    },
    {
      "constant": true,
      "inputs": [],
      "name": "decimals",
      "outputs": [
        {
          "name": "",
          "type": "uint8"
        }
      ],
      "payable": false,
      "stateMutability": "view",
      "type": "function"
    },
    {
      "constant": false,
      "inputs": [
        {
          "name": "spender",
          "type": "address"
        },
        {
          "name": "addedValue",
          "type": "uint256"
        }
      ],
      "name": "increaseAllowance",
      "outputs": [
        {
          "name": "",
          "type": "bool"
        }
      ],
      "payable": false,
      "stateMutability": "nonpayable",
      "type": "function"
    },
    {
      "constant": true,
      "inputs": [],
      "name": "canTransferBeforeStartTime",
      "outputs": [
        {
          "name": "",
          "type": "address"
        }
      ],
      "payable": false,
      "stateMutability": "view",
      "type": "function"
    },
    {
      "constant": true,
      "inputs": [
        {
          "name": "_name",
          "type": "uint8"
        },
        {
          "name": "_rewardsDay",
          "type": "uint256"
        }
      ],
      "name": "getParameter",
      "outputs": [
        {
          "name": "",
          "type": "uint256"
        }
      ],
      "payable": false,
      "stateMutability": "view",
      "type": "function"
    },
    {
      "constant": true,
      "inputs": [
        {
          "name": "_token",
          "type": "address"
        },
        {
          "name": "_spender",
          "type": "address"
        },
        {
          "name": "_subtractedValue",
          "type": "uint256"
        },
        {
          "name": "_fee",
          "type": "uint256"
        },
        {
          "name": "_nonce",
          "type": "uint256"
        }
      ],
      "name": "getDecreaseAllowancePreSignedHash",
      "outputs": [
        {
          "name": "",
          "type": "bytes32"
        }
      ],
      "payable": false,
      "stateMutability": "pure",
      "type": "function"
    },
    {
      "constant": false,
      "inputs": [
        {
          "name": "_rewardsDay",
          "type": "uint256"
        },
        {
          "name": "_rewardsHash",
          "type": "bytes32"
        },
        {
          "name": "_applications",
          "type": "address[]"
        },
        {
          "name": "_amounts",
          "type": "uint256[]"
        }
      ],
      "name": "submitDailyRewards",
      "outputs": [
        {
          "name": "",
          "type": "bool"
        }
      ],
      "payable": false,
      "stateMutability": "nonpayable",
      "type": "function"
    },
    {
      "constant": false,
      "inputs": [
        {
          "name": "_signature",
          "type": "bytes"
        },
        {
          "name": "_spender",
          "type": "address"
        },
        {
          "name": "_value",
          "type": "uint256"
        },
        {
          "name": "_fee",
          "type": "uint256"
        },
        {
          "name": "_nonce",
          "type": "uint256"
        }
      ],
      "name": "approvePreSigned",
      "outputs": [
        {
          "name": "",
          "type": "bool"
        }
      ],
      "payable": false,
      "stateMutability": "nonpayable",
      "type": "function"
    },
    {
      "constant": true,
      "inputs": [],
      "name": "rewardsStartTimestamp",
      "outputs": [
        {
          "name": "",
          "type": "uint256"
        }
      ],
      "payable": false,
      "stateMutability": "view",
      "type": "function"
    },
    {
      "constant": true,
      "inputs": [
        {
          "name": "owner",
          "type": "address"
        }
      ],
      "name": "balanceOf",
      "outputs": [
        {
          "name": "",
          "type": "uint256"
        }
      ],
      "payable": false,
      "stateMutability": "view",
      "type": "function"
    },
    {
      "constant": false,
      "inputs": [
        {
          "name": "_rewardsDay",
          "type": "uint256"
        },
        {
          "name": "_applications",
          "type": "address[]"
        }
      ],
      "name": "setApplications",
      "outputs": [
        {
          "name": "",
          "type": "bool"
        }
      ],
      "payable": false,
      "stateMutability": "nonpayable",
      "type": "function"
    },
    {
      "constant": true,
      "inputs": [
        {
          "name": "_token",
          "type": "address"
        },
        {
          "name": "_spender",
          "type": "address"
        },
        {
          "name": "_value",
          "type": "uint256"
        },
        {
          "name": "_fee",
          "type": "uint256"
        },
        {
          "name": "_nonce",
          "type": "uint256"
        }
      ],
      "name": "getApprovePreSignedHash",
      "outputs": [
        {
          "name": "",
          "type": "bytes32"
        }
      ],
      "payable": false,
      "stateMutability": "pure",
      "type": "function"
    },
    {
      "constant": true,
      "inputs": [],
      "name": "symbol",
      "outputs": [
        {
          "name": "",
          "type": "string"
        }
      ],
      "payable": false,
      "stateMutability": "view",
      "type": "function"
    },
    {
      "constant": false,
      "inputs": [
        {
          "name": "_entityType",
          "type": "uint8"
        },
        {
          "name": "_name",
          "type": "bytes32"
        },
        {
          "name": "_rewardsAddress",
          "type": "address"
        },
        {
          "name": "_sidechainAddress",
          "type": "address"
        }
      ],
      "name": "updateEntity",
      "outputs": [
        {
          "name": "",
          "type": "bool"
        }
      ],
      "payable": false,
      "stateMutability": "nonpayable",
      "type": "function"
    },
    {
      "constant": false,
      "inputs": [
        {
          "name": "spender",
          "type": "address"
        },
        {
          "name": "subtractedValue",
          "type": "uint256"
        }
      ],
      "name": "decreaseAllowance",
      "outputs": [
        {
          "name": "",
          "type": "bool"
        }
      ],
      "payable": false,
      "stateMutability": "nonpayable",
      "type": "function"
    },
    {
      "constant": true,
      "inputs": [
        {
          "name": "_token",
          "type": "address"
        },
        {
          "name": "_from",
          "type": "address"
        },
        {
          "name": "_to",
          "type": "address"
        },
        {
          "name": "_value",
          "type": "uint256"
        },
        {
          "name": "_fee",
          "type": "uint256"
        },
        {
          "name": "_nonce",
          "type": "uint256"
        }
      ],
      "name": "getTransferFromPreSignedHash",
      "outputs": [
        {
          "name": "",
          "type": "bytes32"
        }
      ],
      "payable": false,
      "stateMutability": "pure",
      "type": "function"
    },
    {
      "constant": false,
      "inputs": [
        {
          "name": "to",
          "type": "address"
        },
        {
          "name": "value",
          "type": "uint256"
        }
      ],
      "name": "transfer",
      "outputs": [
        {
          "name": "",
          "type": "bool"
        }
      ],
      "payable": false,
      "stateMutability": "nonpayable",
      "type": "function"
    },
    {
      "constant": false,
      "inputs": [
        {
          "name": "_signature",
          "type": "bytes"
        },
        {
          "name": "_from",
          "type": "address"
        },
        {
          "name": "_to",
          "type": "address"
        },
        {
          "name": "_value",
          "type": "uint256"
        },
        {
          "name": "_fee",
          "type": "uint256"
        },
        {
          "name": "_nonce",
          "type": "uint256"
        }
      ],
      "name": "transferFromPreSigned",
      "outputs": [
        {
          "name": "",
          "type": "bool"
        }
      ],
      "payable": false,
      "stateMutability": "nonpayable",
      "type": "function"
    },
    {
      "constant": true,
      "inputs": [],
      "name": "transfersStartTime",
      "outputs": [
        {
          "name": "",
          "type": "uint256"
        }
      ],
      "payable": false,
      "stateMutability": "view",
      "type": "function"
    },
    {
      "constant": true,
      "inputs": [
        {
          "name": "owner",
          "type": "address"
        },
        {
          "name": "spender",
          "type": "address"
        }
      ],
      "name": "allowance",
      "outputs": [
        {
          "name": "",
          "type": "uint256"
        }
      ],
      "payable": false,
      "stateMutability": "view",
      "type": "function"
    },
    {
      "constant": false,
      "inputs": [
        {
          "name": "_rewardsDay",
          "type": "uint256"
        },
        {
          "name": "_validators",
          "type": "address[]"
        }
      ],
      "name": "setValidators",
      "outputs": [
        {
          "name": "",
          "type": "bool"
        }
      ],
      "payable": false,
      "stateMutability": "nonpayable",
      "type": "function"
    },
    {
      "constant": false,
      "inputs": [
        {
          "name": "_controller",
          "type": "address"
        },
        {
          "name": "_minSecondsBetweenDays",
          "type": "uint256"
        },
        {
          "name": "_rewardsStartTimestamp",
          "type": "uint256"
        }
      ],
      "name": "initializePostRewardsUpgrade1",
      "outputs": [],
      "payable": false,
      "stateMutability": "nonpayable",
      "type": "function"
    },
    {
      "constant": false,
      "inputs": [
        {
          "name": "_signature",
          "type": "bytes"
        },
        {
          "name": "_spender",
          "type": "address"
        },
        {
          "name": "_subtractedValue",
          "type": "uint256"
        },
        {
          "name": "_fee",
          "type": "uint256"
        },
        {
          "name": "_nonce",
          "type": "uint256"
        }
      ],
      "name": "decreaseAllowancePreSigned",
      "outputs": [
        {
          "name": "",
          "type": "bool"
        }
      ],
      "payable": false,
      "stateMutability": "nonpayable",
      "type": "function"
    },
    {
      "constant": true,
      "inputs": [],
      "name": "controller",
      "outputs": [
        {
          "name": "",
          "type": "address"
        }
      ],
      "payable": false,
      "stateMutability": "view",
      "type": "function"
    },
    {
      "constant": false,
      "inputs": [
        {
          "name": "_signature",
          "type": "bytes"
        },
        {
          "name": "_spender",
          "type": "address"
        },
        {
          "name": "_addedValue",
          "type": "uint256"
        },
        {
          "name": "_fee",
          "type": "uint256"
        },
        {
          "name": "_nonce",
          "type": "uint256"
        }
      ],
      "name": "increaseAllowancePreSigned",
      "outputs": [
        {
          "name": "",
          "type": "bool"
        }
      ],
      "payable": false,
      "stateMutability": "nonpayable",
      "type": "function"
    },
    {
      "anonymous": false,
      "inputs": [
        {
          "indexed": true,
          "name": "rewardsDay",
          "type": "uint256"
        },
        {
          "indexed": true,
          "name": "rewardsHash",
          "type": "bytes32"
        },
        {
          "indexed": true,
          "name": "validator",
          "type": "address"
        }
      ],
      "name": "DailyRewardsSubmitted",
      "type": "event"
    },
    {
      "anonymous": false,
      "inputs": [
        {
          "indexed": true,
          "name": "rewardsDay",
          "type": "uint256"
        },
        {
          "indexed": true,
          "name": "rewardsHash",
          "type": "bytes32"
        },
        {
          "indexed": false,
          "name": "numOfApplications",
          "type": "uint256"
        },
        {
          "indexed": false,
          "name": "amount",
          "type": "uint256"
        }
      ],
      "name": "DailyRewardsApplicationsMinted",
      "type": "event"
    },
    {
      "anonymous": false,
      "inputs": [
        {
          "indexed": true,
          "name": "rewardsDay",
          "type": "uint256"
        },
        {
          "indexed": true,
          "name": "rewardsHash",
          "type": "bytes32"
        },
        {
          "indexed": false,
          "name": "numOfValidators",
          "type": "uint256"
        },
        {
          "indexed": false,
          "name": "amount",
          "type": "uint256"
        }
      ],
      "name": "DailyRewardsValidatorsMinted",
      "type": "event"
    },
    {
      "anonymous": false,
      "inputs": [
        {
          "indexed": true,
          "name": "id",
          "type": "address"
        },
        {
          "indexed": true,
          "name": "entityType",
          "type": "uint8"
        },
        {
          "indexed": false,
          "name": "name",
          "type": "bytes32"
        },
        {
          "indexed": false,
          "name": "rewardsAddress",
          "type": "address"
        },
        {
          "indexed": true,
          "name": "sidechainAddress",
          "type": "address"
        }
      ],
      "name": "EntityUpdated",
      "type": "event"
    },
    {
      "anonymous": false,
      "inputs": [
        {
          "indexed": false,
          "name": "param",
          "type": "uint8"
        },
        {
          "indexed": false,
          "name": "newValue",
          "type": "uint256"
        },
        {
          "indexed": false,
          "name": "oldValue",
          "type": "uint256"
        },
        {
          "indexed": false,
          "name": "rewardsDay",
          "type": "uint256"
        }
      ],
      "name": "ParameterUpdated",
      "type": "event"
    },
    {
      "anonymous": false,
      "inputs": [
        {
          "indexed": false,
          "name": "validatorsList",
          "type": "address[]"
        },
        {
          "indexed": true,
          "name": "rewardsDay",
          "type": "uint256"
        }
      ],
      "name": "ValidatorsListUpdated",
      "type": "event"
    },
    {
      "anonymous": false,
      "inputs": [
        {
          "indexed": false,
          "name": "applicationsList",
          "type": "address[]"
        },
        {
          "indexed": true,
          "name": "rewardsDay",
          "type": "uint256"
        }
      ],
      "name": "ApplicationsListUpdated",
      "type": "event"
    },
    {
      "anonymous": false,
      "inputs": [
        {
          "indexed": true,
          "name": "newController",
          "type": "address"
        }
      ],
      "name": "ControllerUpdated",
      "type": "event"
    },
    {
      "anonymous": false,
      "inputs": [
        {
          "indexed": true,
          "name": "from",
          "type": "address"
        },
        {
          "indexed": true,
          "name": "to",
          "type": "address"
        },
        {
          "indexed": true,
          "name": "delegate",
          "type": "address"
        },
        {
          "indexed": false,
          "name": "amount",
          "type": "uint256"
        },
        {
          "indexed": false,
          "name": "fee",
          "type": "uint256"
        }
      ],
      "name": "TransferPreSigned",
      "type": "event"
    },
    {
      "anonymous": false,
      "inputs": [
        {
          "indexed": true,
          "name": "from",
          "type": "address"
        },
        {
          "indexed": true,
          "name": "to",
          "type": "address"
        },
        {
          "indexed": true,
          "name": "delegate",
          "type": "address"
        },
        {
          "indexed": false,
          "name": "amount",
          "type": "uint256"
        },
        {
          "indexed": false,
          "name": "fee",
          "type": "uint256"
        }
      ],
      "name": "ApprovalPreSigned",
      "type": "event"
    },
    {
      "anonymous": false,
      "inputs": [
        {
          "indexed": true,
          "name": "from",
          "type": "address"
        },
        {
          "indexed": true,
          "name": "to",
          "type": "address"
        },
        {
          "indexed": false,
          "name": "value",
          "type": "uint256"
        }
      ],
      "name": "Transfer",
      "type": "event"
    },
    {
      "anonymous": false,
      "inputs": [
        {
          "indexed": true,
          "name": "owner",
          "type": "address"
        },
        {
          "indexed": true,
          "name": "spender",
          "type": "address"
        },
        {
          "indexed": false,
          "name": "value",
          "type": "uint256"
        }
      ],
      "name": "Approval",
      "type": "event"
    },
    {
      "constant": false,
      "inputs": [
        {
          "name": "name",
          "type": "string"
        },
        {
          "name": "symbol",
          "type": "string"
        },
        {
          "name": "decimals",
          "type": "uint8"
        }
      ],
      "name": "initialize",
      "outputs": [],
      "payable": false,
      "stateMutability": "nonpayable",
      "type": "function"
    },
    {
      "constant": false,
      "inputs": [
        {
          "name": "_holder",
          "type": "address"
        },
        {
          "name": "_transfersStartTime",
          "type": "uint256"
        },
        {
          "name": "_controller",
          "type": "address"
        },
        {
          "name": "_minSecondsBetweenDays",
          "type": "uint256"
        },
        {
          "name": "_rewardsStartTimestamp",
          "type": "uint256"
        }
      ],
      "name": "initialize",
      "outputs": [],
      "payable": false,
      "stateMutability": "nonpayable",
      "type": "function"
    },
    {
      "constant": false,
      "inputs": [
        {
          "name": "_controller",
          "type": "address"
        },
        {
          "name": "_decimals",
          "type": "uint256"
        },
        {
          "name": "_minSecondsBetweenDays",
          "type": "uint256"
        },
        {
          "name": "_rewardsStartTimestamp",
          "type": "uint256"
        }
      ],
      "name": "initialize",
      "outputs": [],
      "payable": false,
      "stateMutability": "nonpayable",
      "type": "function"
    },
    {
      "constant": false,
      "inputs": [
        {
          "name": "start",
          "type": "uint256"
        },
        {
          "name": "account",
          "type": "address"
        }
      ],
      "name": "initialize",
      "outputs": [],
      "payable": false,
      "stateMutability": "nonpayable",
      "type": "function"
    }
  ],
  "bytecode": "0x608060405234801561001057600080fd5b50615c5780620000216000396000f3006080604052600436106101e3576000357c0100000000000000000000000000000000000000000000000000000000900463ffffffff16806306cb5b66146101e857806306fdde0314610243578063095ea7b3146102d3578063098bfa9f146103385780630d98dcb1146103c75780631296830d14610464578063138e8da1146105235780631624f6c6146105c0578063162663001461067c57806318160ddd146106d857806323b872dd146107035780632542e3f8146107885780632ab4d05214610809578063313ce56714610834578063395093511461086557806345b6d7dc146108ca5780634ec81af1146109215780634f92caf8146109825780635229c56f146109d057806357ece4bc14610a6d578063617b390b14610b465780636356850214610c0557806370a0823114610c305780637492fdda14610c8757806379250dcf14610d0f57806395d89b4114610dac57806396e8832714610e3c578063a457c2d714610ed2578063a70c41b414610f37578063a9059cbb14610ff4578063bca5051514611059578063d0f22e9c14611138578063da35a26f14611163578063dd62ed3e146111b0578063e795594d14611227578063e9d2c4b3146112af578063f2959d6e14611306578063f77c4791146113c5578063f80801d01461141c575b600080fd5b3480156101f457600080fd5b50610229600480360381019080803573ffffffffffffffffffffffffffffffffffffffff1690602001909291905050506114db565b604051808215151515815260200191505060405180910390f35b34801561024f57600080fd5b5061025861162f565b6040518080602001828103825283818151815260200191508051906020019080838360005b8381101561029857808201518184015260208101905061027d565b50505050905090810190601f1680156102c55780820380516001836020036101000a031916815260200191505b509250505060405180910390f35b3480156102df57600080fd5b5061031e600480360381019080803573ffffffffffffffffffffffffffffffffffffffff169060200190929190803590602001909291905050506116d1565b604051808215151515815260200191505060405180910390f35b34801561034457600080fd5b50610370600480360381019080803560ff169060200190929190803590602001909291905050506116e8565b6040518080602001828103825283818151815260200191508051906020019060200280838360005b838110156103b3578082015181840152602081019050610398565b505050509050019250505060405180910390f35b3480156103d357600080fd5b50610446600480360381019080803573ffffffffffffffffffffffffffffffffffffffff169060200190929190803573ffffffffffffffffffffffffffffffffffffffff16906020019092919080359060200190929190803590602001909291908035906020019092919050505061180d565b60405180826000191660001916815260200191505060405180910390f35b34801561047057600080fd5b50610509600480360381019080803590602001908201803590602001908080601f0160208091040260200160405190810160405280939291908181526020018383808284378201915050505050509192919290803573ffffffffffffffffffffffffffffffffffffffff16906020019092919080359060200190929190803590602001909291908035906020019092919050505061199b565b604051808215151515815260200191505060405180910390f35b34801561052f57600080fd5b506105a2600480360381019080803573ffffffffffffffffffffffffffffffffffffffff169060200190929190803573ffffffffffffffffffffffffffffffffffffffff169060200190929190803590602001909291908035906020019092919080359060200190929190505050611d7d565b60405180826000191660001916815260200191505060405180910390f35b3480156105cc57600080fd5b5061067a600480360381019080803590602001908201803590602001908080601f0160208091040260200160405190810160405280939291908181526020018383808284378201915050505050509192919290803590602001908201803590602001908080601f0160208091040260200160405190810160405280939291908181526020018383808284378201915050505050509192919290803560ff169060200190929190505050611f0b565b005b34801561068857600080fd5b506106be600480360381019080803560ff169060200190929190803590602001909291908035906020019092919050505061208c565b604051808215151515815260200191505060405180910390f35b3480156106e457600080fd5b506106ed6122f5565b6040518082815260200191505060405180910390f35b34801561070f57600080fd5b5061076e600480360381019080803573ffffffffffffffffffffffffffffffffffffffff169060200190929190803573ffffffffffffffffffffffffffffffffffffffff169060200190929190803590602001909291905050506122ff565b604051808215151515815260200191505060405180910390f35b34801561079457600080fd5b50610807600480360381019080803573ffffffffffffffffffffffffffffffffffffffff16906020019092919080359060200190929190803573ffffffffffffffffffffffffffffffffffffffff169060200190929190803590602001909291908035906020019092919050505061240e565b005b34801561081557600080fd5b5061081e6125f8565b6040518082815260200191505060405180910390f35b34801561084057600080fd5b506108496125fe565b604051808260ff1660ff16815260200191505060405180910390f35b34801561087157600080fd5b506108b0600480360381019080803573ffffffffffffffffffffffffffffffffffffffff16906020019092919080359060200190929190505050612615565b604051808215151515815260200191505060405180910390f35b3480156108d657600080fd5b506108df6126ba565b604051808273ffffffffffffffffffffffffffffffffffffffff1673ffffffffffffffffffffffffffffffffffffffff16815260200191505060405180910390f35b34801561092d57600080fd5b50610980600480360381019080803573ffffffffffffffffffffffffffffffffffffffff1690602001909291908035906020019092919080359060200190929190803590602001909291905050506126e0565b005b34801561098e57600080fd5b506109ba600480360381019080803560ff16906020019092919080359060200190929190505050612825565b6040518082815260200191505060405180910390f35b3480156109dc57600080fd5b50610a4f600480360381019080803573ffffffffffffffffffffffffffffffffffffffff169060200190929190803573ffffffffffffffffffffffffffffffffffffffff1690602001909291908035906020019092919080359060200190929190803590602001909291905050506128f4565b60405180826000191660001916815260200191505060405180910390f35b348015610a7957600080fd5b50610b2c6004803603810190808035906020019092919080356000191690602001909291908035906020019082018035906020019080806020026020016040519081016040528093929190818152602001838360200280828437820191505050505050919291929080359060200190820180359060200190808060200260200160405190810160405280939291908181526020018383602002808284378201915050505050509192919290505050612a82565b604051808215151515815260200191505060405180910390f35b348015610b5257600080fd5b50610beb600480360381019080803590602001908201803590602001908080601f0160208091040260200160405190810160405280939291908181526020018383808284378201915050505050509192919290803573ffffffffffffffffffffffffffffffffffffffff169060200190929190803590602001909291908035906020019092919080359060200190929190505050612e5b565b604051808215151515815260200191505060405180910390f35b348015610c1157600080fd5b50610c1a61323d565b6040518082815260200191505060405180910390f35b348015610c3c57600080fd5b50610c71600480360381019080803573ffffffffffffffffffffffffffffffffffffffff169060200190929190505050613243565b6040518082815260200191505060405180910390f35b348015610c9357600080fd5b50610cf5600480360381019080803590602001909291908035906020019082018035906020019080806020026020016040519081016040528093929190818152602001838360200280828437820191505050505050919291929050505061328c565b604051808215151515815260200191505060405180910390f35b348015610d1b57600080fd5b50610d8e600480360381019080803573ffffffffffffffffffffffffffffffffffffffff169060200190929190803573ffffffffffffffffffffffffffffffffffffffff1690602001909291908035906020019092919080359060200190929190803590602001909291905050506134cf565b60405180826000191660001916815260200191505060405180910390f35b348015610db857600080fd5b50610dc161365d565b6040518080602001828103825283818151815260200191508051906020019080838360005b83811015610e01578082015181840152602081019050610de6565b50505050905090810190601f168015610e2e5780820380516001836020036101000a031916815260200191505b509250505060405180910390f35b348015610e4857600080fd5b50610eb8600480360381019080803560ff1690602001909291908035600019169060200190929190803573ffffffffffffffffffffffffffffffffffffffff169060200190929190803573ffffffffffffffffffffffffffffffffffffffff1690602001909291905050506136ff565b604051808215151515815260200191505060405180910390f35b348015610ede57600080fd5b50610f1d600480360381019080803573ffffffffffffffffffffffffffffffffffffffff169060200190929190803590602001909291905050506138f0565b604051808215151515815260200191505060405180910390f35b348015610f4357600080fd5b50610fd6600480360381019080803573ffffffffffffffffffffffffffffffffffffffff169060200190929190803573ffffffffffffffffffffffffffffffffffffffff169060200190929190803573ffffffffffffffffffffffffffffffffffffffff169060200190929190803590602001909291908035906020019092919080359060200190929190505050613995565b60405180826000191660001916815260200191505060405180910390f35b34801561100057600080fd5b5061103f600480360381019080803573ffffffffffffffffffffffffffffffffffffffff16906020019092919080359060200190929190505050613b67565b604051808215151515815260200191505060405180910390f35b34801561106557600080fd5b5061111e600480360381019080803590602001908201803590602001908080601f0160208091040260200160405190810160405280939291908181526020018383808284378201915050505050509192919290803573ffffffffffffffffffffffffffffffffffffffff169060200190929190803573ffffffffffffffffffffffffffffffffffffffff169060200190929190803590602001909291908035906020019092919080359060200190929190505050613c74565b604051808215151515815260200191505060405180910390f35b34801561114457600080fd5b5061114d6140a4565b6040518082815260200191505060405180910390f35b34801561116f57600080fd5b506111ae60048036038101908080359060200190929190803573ffffffffffffffffffffffffffffffffffffffff1690602001909291905050506140aa565b005b3480156111bc57600080fd5b50611211600480360381019080803573ffffffffffffffffffffffffffffffffffffffff169060200190929190803573ffffffffffffffffffffffffffffffffffffffff169060200190929190505050614229565b6040518082815260200191505060405180910390f35b34801561123357600080fd5b5061129560048036038101908080359060200190929190803590602001908201803590602001908080602002602001604051908101604052809392919081815260200183836020028082843782019150505050505091929192905050506142b0565b604051808215151515815260200191505060405180910390f35b3480156112bb57600080fd5b50611304600480360381019080803573ffffffffffffffffffffffffffffffffffffffff16906020019092919080359060200190929190803590602001909291905050506144f3565b005b34801561131257600080fd5b506113ab600480360381019080803590602001908201803590602001908080601f0160208091040260200160405190810160405280939291908181526020018383808284378201915050505050509192919290803573ffffffffffffffffffffffffffffffffffffffff16906020019092919080359060200190929190803590602001909291908035906020019092919050505061450e565b604051808215151515815260200191505060405180910390f35b3480156113d157600080fd5b506113da614914565b604051808273ffffffffffffffffffffffffffffffffffffffff1673ffffffffffffffffffffffffffffffffffffffff16815260200191505060405180910390f35b34801561142857600080fd5b506114c1600480360381019080803590602001908201803590602001908080601f0160208091040260200160405190810160405280939291908181526020018383808284378201915050505050509192919290803573ffffffffffffffffffffffffffffffffffffffff16906020019092919080359060200190929190803590602001909291908035906020019092919050505061493a565b604051808215151515815260200191505060405180910390f35b600060b960009054906101000a900473ffffffffffffffffffffffffffffffffffffffff1673ffffffffffffffffffffffffffffffffffffffff163373ffffffffffffffffffffffffffffffffffffffff161415156115a2576040517f08c379a00000000000000000000000000000000000000000000000000000000081526004018080602001828103825260168152602001807f4d7573742062652074686520636f6e74726f6c6c65720000000000000000000081525060200191505060405180910390fd5b8160b960006101000a81548173ffffffffffffffffffffffffffffffffffffffff021916908373ffffffffffffffffffffffffffffffffffffffff1602179055508173ffffffffffffffffffffffffffffffffffffffff167f1304018cfe79741dcf02ba6b61d39cc4757d59395d03224d9925c7aa8300214660405160405180910390a260019050919050565b606060338054600181600116156101000203166002900480601f0160208091040260200160405190810160405280929190818152602001828054600181600116156101000203166002900480156116c75780601f1061169c576101008083540402835291602001916116c7565b820191906000526020600020905b8154815290600101906020018083116116aa57829003601f168201915b5050505050905090565b60006116de338484614d40565b6001905092915050565b606073__PropsRewardsLib_______________________638993273560a085856040518463ffffffff167c01000000000000000000000000000000000000000000000000000000000281526004018084815260200183600181111561174957fe5b60ff168152602001828152602001935050505060006040518083038186803b15801561177457600080fd5b505af4158015611788573d6000803e3d6000fd5b505050506040513d6000823e3d601f19601f8201168201806040525060208110156117b257600080fd5b8101908080516401000000008111156117ca57600080fd5b828101905060208101848111156117e057600080fd5b81518560208202830111640100000000821117156117fd57600080fd5b5050929190505050905092915050565b6000630d98dcb17c010000000000000000000000000000000000000000000000000000000002868686868660405160200180877bffffffffffffffffffffffffffffffffffffffffffffffffffffffff19167bffffffffffffffffffffffffffffffffffffffffffffffffffffffff191681526004018673ffffffffffffffffffffffffffffffffffffffff1673ffffffffffffffffffffffffffffffffffffffff166c010000000000000000000000000281526014018573ffffffffffffffffffffffffffffffffffffffff1673ffffffffffffffffffffffffffffffffffffffff166c0100000000000000000000000002815260140184815260200183815260200182815260200196505050505050506040516020818303038152906040526040518082805190602001908083835b602083101515611963578051825260208201915060208101905060208303925061193e565b6001836020036101000a0380198251168184511680821785525050505050509050019150506040518091039020905095945050505050565b600080600080600073ffffffffffffffffffffffffffffffffffffffff168873ffffffffffffffffffffffffffffffffffffffff1614151515611a46576040517f08c379a00000000000000000000000000000000000000000000000000000000081526004018080602001828103825260138152602001807f496e76616c6964205f746f20616464726573730000000000000000000000000081525060200191505060405180910390fd5b611a53308989898961180d565b9250611a5f838a614ea3565b9150600073ffffffffffffffffffffffffffffffffffffffff168273ffffffffffffffffffffffffffffffffffffffff1614151515611b06576040517f08c379a000000000000000000000000000000000000000000000000000000000815260040180806020018281038252601e8152602001807f496e76616c69642066726f6d2061646472657373207265636f7665726564000081525060200191505060405180910390fd5b8183604051602001808373ffffffffffffffffffffffffffffffffffffffff1673ffffffffffffffffffffffffffffffffffffffff166c010000000000000000000000000281526014018260001916600019168152602001925050506040516020818303038152906040526040518082805190602001908083835b602083101515611ba65780518252602082019150602081019050602083039250611b81565b6001836020036101000a0380198251168184511680821785525050505050509050019150506040518091039020905060001515609d6000836000191660001916815260200190815260200160002060009054906101000a900460ff161515141515611c9f576040517f08c379a00000000000000000000000000000000000000000000000000000000081526004018080602001828103825260218152602001807f5472616e73616374696f6e20686173682077617320616c72656164792075736581526020017f640000000000000000000000000000000000000000000000000000000000000081525060400191505060405180910390fd5b6001609d6000836000191660001916815260200190815260200160002060006101000a81548160ff021916908315150217905550611cde828989614f9b565b611ce9823388614f9b565b3373ffffffffffffffffffffffffffffffffffffffff168873ffffffffffffffffffffffffffffffffffffffff168373ffffffffffffffffffffffffffffffffffffffff167fec5a73fd1f178be20c1bca1b406cbf4b5c20d833b66e582fc122fb4baa0fc2a48a8a604051808381526020018281526020019250505060405180910390a46001935050505095945050505050565b600063138e8da17c010000000000000000000000000000000000000000000000000000000002868686868660405160200180877bffffffffffffffffffffffffffffffffffffffffffffffffffffffff19167bffffffffffffffffffffffffffffffffffffffffffffffffffffffff191681526004018673ffffffffffffffffffffffffffffffffffffffff1673ffffffffffffffffffffffffffffffffffffffff166c010000000000000000000000000281526014018573ffffffffffffffffffffffffffffffffffffffff1673ffffffffffffffffffffffffffffffffffffffff166c0100000000000000000000000002815260140184815260200183815260200182815260200196505050505050506040516020818303038152906040526040518082805190602001908083835b602083101515611ed35780518252602082019150602081019050602083039250611eae565b6001836020036101000a0380198251168184511680821785525050505050509050019150506040518091039020905095945050505050565b60008060019054906101000a900460ff1680611f2b5750611f2a6151b9565b5b80611f4257506000809054906101000a900460ff16155b1515611fdc576040517f08c379a000000000000000000000000000000000000000000000000000000000815260040180806020018281038252602e8152602001807f436f6e747261637420696e7374616e63652068617320616c726561647920626581526020017f656e20696e697469616c697a656400000000000000000000000000000000000081525060400191505060405180910390fd5b600060019054906101000a900460ff1690506001600060016101000a81548160ff02191690831515021790555060016000806101000a81548160ff0219169083151502179055508360339080519060200190612039929190615b86565b508260349080519060200190612050929190615b86565b5081603560006101000a81548160ff021916908360ff16021790555080600060016101000a81548160ff02191690831515021790555050505050565b600060b960009054906101000a900473ffffffffffffffffffffffffffffffffffffffff1673ffffffffffffffffffffffffffffffffffffffff163373ffffffffffffffffffffffffffffffffffffffff16141515612153576040517f08c379a00000000000000000000000000000000000000000000000000000000081526004018080602001828103825260168152602001807f4d7573742062652074686520636f6e74726f6c6c65720000000000000000000081525060200191505060405180910390fd5b73__PropsRewardsLib_______________________6311cb33da60a08686866040518563ffffffff167c0100000000000000000000000000000000000000000000000000000000028152600401808581526020018460038111156121b357fe5b60ff16815260200183815260200182815260200194505050505060206040518083038186803b1580156121e557600080fd5b505af41580156121f9573d6000803e3d6000fd5b505050506040513d602081101561220f57600080fd5b8101908080519060200190929190505050507fd3ee560e0e71d87fde0453f24eac52dd8f01332349f8d1ef9e005d1cc3b82fb48460a0600401600087600381111561225657fe5b81526020019081526020016000206000015460a0600401600088600381111561227b57fe5b81526020019081526020016000206001015460a060040160008960038111156122a057fe5b815260200190815260200160002060020154604051808560038111156122c257fe5b60ff16815260200184815260200183815260200182815260200194505050505060405180910390a1600190509392505050565b6000606a54905090565b600083609e5442118061235f5750609f60009054906101000a900473ffffffffffffffffffffffffffffffffffffffff1673ffffffffffffffffffffffffffffffffffffffff168173ffffffffffffffffffffffffffffffffffffffff16145b15156123f9576040517f08c379a000000000000000000000000000000000000000000000000000000000815260040180806020018281038252603d8152602001807f43616e6e6f74207472616e73666572206265666f7265207472616e736665727381526020017f2073746172742074696d652066726f6d2074686973206163636f756e7400000081525060400191505060405180910390fd5b6124048585856151ca565b9150509392505050565b60008060008060019054906101000a900460ff168061243157506124306151b9565b5b8061244857506000809054906101000a900460ff16155b15156124e2576040517f08c379a000000000000000000000000000000000000000000000000000000000815260040180806020018281038252602e8152602001807f436f6e747261637420696e7374616e63652068617320616c726561647920626581526020017f656e20696e697469616c697a656400000000000000000000000000000000000081525060400191505060405180910390fd5b600060019054906101000a900460ff1690506001600060016101000a81548160ff02191690831515021790555060016000806101000a81548160ff021916908315150217905550601292508260ff16600a0a6323c346000291506125b16040805190810160405280600b81526020017f50726f707320546f6b656e0000000000000000000000000000000000000000008152506040805190810160405280600581526020017f50524f505300000000000000000000000000000000000000000000000000000081525085611f0b565b6125bb87896140aa565b6125ca868460ff1687876126e0565b6125d4888361527b565b80600060016101000a81548160ff0219169083151502179055505050505050505050565b60b75481565b6000603560009054906101000a900460ff16905090565b60006126b033846126ab85606960003373ffffffffffffffffffffffffffffffffffffffff1673ffffffffffffffffffffffffffffffffffffffff16815260200190815260200160002060008973ffffffffffffffffffffffffffffffffffffffff1673ffffffffffffffffffffffffffffffffffffffff168152602001908152602001600020546153bb90919063ffffffff16565b614d40565b6001905092915050565b609f60009054906101000a900473ffffffffffffffffffffffffffffffffffffffff1681565b60008060019054906101000a900460ff168061270057506126ff6151b9565b5b8061271757506000809054906101000a900460ff16155b15156127b1576040517f08c379a000000000000000000000000000000000000000000000000000000000815260040180806020018281038252602e8152602001807f436f6e747261637420696e7374616e63652068617320616c726561647920626581526020017f656e20696e697469616c697a656400000000000000000000000000000000000081525060400191505060405180910390fd5b600060019054906101000a900460ff1690506001600060016101000a81548160ff02191690831515021790555060016000806101000a81548160ff021916908315150217905550612804858585856153dc565b80600060016101000a81548160ff0219169083151502179055505050505050565b600073__PropsRewardsLib_______________________63d81b705060a085856040518463ffffffff167c01000000000000000000000000000000000000000000000000000000000281526004018084815260200183600381111561288657fe5b60ff168152602001828152602001935050505060206040518083038186803b1580156128b157600080fd5b505af41580156128c5573d6000803e3d6000fd5b505050506040513d60208110156128db57600080fd5b8101908080519060200190929190505050905092915050565b6000635229c56f7c010000000000000000000000000000000000000000000000000000000002868686868660405160200180877bffffffffffffffffffffffffffffffffffffffffffffffffffffffff19167bffffffffffffffffffffffffffffffffffffffffffffffffffffffff191681526004018673ffffffffffffffffffffffffffffffffffffffff1673ffffffffffffffffffffffffffffffffffffffff166c010000000000000000000000000281526014018573ffffffffffffffffffffffffffffffffffffffff1673ffffffffffffffffffffffffffffffffffffffff166c0100000000000000000000000002815260140184815260200183815260200182815260200196505050505050506040516020818303038152906040526040518082805190602001908083835b602083101515612a4a5780518252602082019150602081019050602083039250612a25565b6001836020036101000a0380198251168184511680821785525050505050509050019150506040518091039020905095945050505050565b600080600080600088118015612a9f575060a0600f016004015488115b15612ba75773__PropsRewardsLib_______________________6314a68c3860a080600f016004015460a0600f016003015460006040518563ffffffff167c01000000000000000000000000000000000000000000000000000000000281526004018085815260200184815260200183600019166000191681526020018215151515815260200194505050505060206040518083038186803b158015612b4457600080fd5b505af4158015612b58573d6000803e3d6000fd5b505050506040513d6020811015612b6e57600080fd5b810190808051906020019092919050505092506000831115612ba657612ba560a0600f016004015460a0600f016003015485615840565b5b5b73__PropsRewardsLib_______________________634daa822560a08a8a8a8a612bcf6122f5565b6040518763ffffffff167c01000000000000000000000000000000000000000000000000000000000281526004018087815260200186815260200185600019166000191681526020018060200180602001848152602001838103835286818151815260200191508051906020019060200280838360005b83811015612c61578082015181840152602081019050612c46565b50505050905001838103825285818151815260200191508051906020019060200280838360005b83811015612ca3578082015181840152602081019050612c88565b505050509050019850505050505050505060206040518083038186803b158015612ccc57600080fd5b505af4158015612ce0573d6000803e3d6000fd5b505050506040513d6020811015612cf657600080fd5b810190808051906020019092919050505091506000821115612d2057612d1f8888888886615a47565b5b73__PropsRewardsLib_______________________6314a68c3860a08a8a60016040518563ffffffff167c01000000000000000000000000000000000000000000000000000000000281526004018085815260200184815260200183600019166000191681526020018215151515815260200194505050505060206040518083038186803b158015612db157600080fd5b505af4158015612dc5573d6000803e3d6000fd5b505050506040513d6020811015612ddb57600080fd5b810190808051906020019092919050505090506000811115612e0357612e02888883615840565b5b3373ffffffffffffffffffffffffffffffffffffffff168760001916897f47a75fa3188612bc1341726d7859491a32bf875dd309474f712950354f73c5a760405160405180910390a460019350505050949350505050565b600080600080600073ffffffffffffffffffffffffffffffffffffffff168873ffffffffffffffffffffffffffffffffffffffff1614151515612f06576040517f08c379a00000000000000000000000000000000000000000000000000000000081526004018080602001828103825260188152602001807f496e76616c6964205f7370656e6465722061646472657373000000000000000081525060200191505060405180910390fd5b612f1330898989896134cf565b9250612f1f838a614ea3565b9150600073ffffffffffffffffffffffffffffffffffffffff168273ffffffffffffffffffffffffffffffffffffffff1614151515612fc6576040517f08c379a000000000000000000000000000000000000000000000000000000000815260040180806020018281038252601e8152602001807f496e76616c69642066726f6d2061646472657373207265636f7665726564000081525060200191505060405180910390fd5b8183604051602001808373ffffffffffffffffffffffffffffffffffffffff1673ffffffffffffffffffffffffffffffffffffffff166c010000000000000000000000000281526014018260001916600019168152602001925050506040516020818303038152906040526040518082805190602001908083835b6020831015156130665780518252602082019150602081019050602083039250613041565b6001836020036101000a0380198251168184511680821785525050505050509050019150506040518091039020905060001515609d6000836000191660001916815260200190815260200160002060009054906101000a900460ff16151514151561315f576040517f08c379a00000000000000000000000000000000000000000000000000000000081526004018080602001828103825260218152602001807f5472616e73616374696f6e20686173682077617320616c72656164792075736581526020017f640000000000000000000000000000000000000000000000000000000000000081525060400191505060405180910390fd5b6001609d6000836000191660001916815260200190815260200160002060006101000a81548160ff02191690831515021790555061319e828989614d40565b6131a9823388614f9b565b3373ffffffffffffffffffffffffffffffffffffffff168873ffffffffffffffffffffffffffffffffffffffff168373ffffffffffffffffffffffffffffffffffffffff167f43a220267705e74ee2ceafd46afc841850db6f85a662189a7def697bbdd90ffb8a8a604051808381526020018281526020019250505060405180910390a46001935050505095945050505050565b60b85481565b6000606860008373ffffffffffffffffffffffffffffffffffffffff1673ffffffffffffffffffffffffffffffffffffffff168152602001908152602001600020549050919050565b600060b960009054906101000a900473ffffffffffffffffffffffffffffffffffffffff1673ffffffffffffffffffffffffffffffffffffffff163373ffffffffffffffffffffffffffffffffffffffff16141515613353576040517f08c379a00000000000000000000000000000000000000000000000000000000081526004018080602001828103825260168152602001807f4d7573742062652074686520636f6e74726f6c6c65720000000000000000000081525060200191505060405180910390fd5b73__PropsRewardsLib_______________________63cc1b8c9c60a085856040518463ffffffff167c01000000000000000000000000000000000000000000000000000000000281526004018084815260200183815260200180602001828103825283818151815260200191508051906020019060200280838360005b838110156133eb5780820151818401526020810190506133d0565b5050505090500194505050505060206040518083038186803b15801561341057600080fd5b505af4158015613424573d6000803e3d6000fd5b505050506040513d602081101561343a57600080fd5b810190808051906020019092919050505050827f426b639e1d49f62952a4d3282b37648fb8c47ac20b15e01548c104b75c787c0c836040518080602001828103825283818151815260200191508051906020019060200280838360005b838110156134b2578082015181840152602081019050613497565b505050509050019250505060405180910390a26001905092915050565b60006379250dcf7c010000000000000000000000000000000000000000000000000000000002868686868660405160200180877bffffffffffffffffffffffffffffffffffffffffffffffffffffffff19167bffffffffffffffffffffffffffffffffffffffffffffffffffffffff191681526004018673ffffffffffffffffffffffffffffffffffffffff1673ffffffffffffffffffffffffffffffffffffffff166c010000000000000000000000000281526014018573ffffffffffffffffffffffffffffffffffffffff1673ffffffffffffffffffffffffffffffffffffffff166c0100000000000000000000000002815260140184815260200183815260200182815260200196505050505050506040516020818303038152906040526040518082805190602001908083835b6020831015156136255780518252602082019150602081019050602083039250613600565b6001836020036101000a0380198251168184511680821785525050505050509050019150506040518091039020905095945050505050565b606060348054600181600116156101000203166002900480601f0160208091040260200160405190810160405280929190818152602001828054600181600116156101000203166002900480156136f55780601f106136ca576101008083540402835291602001916136f5565b820191906000526020600020905b8154815290600101906020018083116136d857829003601f168201915b5050505050905090565b600073__PropsRewardsLib_______________________6346e3a29860a0878787876040518663ffffffff167c01000000000000000000000000000000000000000000000000000000000281526004018086815260200185600181111561376257fe5b60ff16815260200184600019166000191681526020018373ffffffffffffffffffffffffffffffffffffffff1673ffffffffffffffffffffffffffffffffffffffff1681526020018273ffffffffffffffffffffffffffffffffffffffff1673ffffffffffffffffffffffffffffffffffffffff1681526020019550505050505060206040518083038186803b1580156137fb57600080fd5b505af415801561380f573d6000803e3d6000fd5b505050506040513d602081101561382557600080fd5b8101908080519060200190929190505050508173ffffffffffffffffffffffffffffffffffffffff1685600181111561385a57fe5b3373ffffffffffffffffffffffffffffffffffffffff167fac4aacb75e6f9ac6f2fee64077e9436dfb1be853b1a850b7863cf1433f0e752887876040518083600019166000191681526020018273ffffffffffffffffffffffffffffffffffffffff1673ffffffffffffffffffffffffffffffffffffffff1681526020019250505060405180910390a460019050949350505050565b600061398b338461398685606960003373ffffffffffffffffffffffffffffffffffffffff1673ffffffffffffffffffffffffffffffffffffffff16815260200190815260200160002060008973ffffffffffffffffffffffffffffffffffffffff1673ffffffffffffffffffffffffffffffffffffffff16815260200190815260200160002054615b4e90919063ffffffff16565b614d40565b6001905092915050565b600063a70c41b47c01000000000000000000000000000000000000000000000000000000000287878787878760405160200180887bffffffffffffffffffffffffffffffffffffffffffffffffffffffff19167bffffffffffffffffffffffffffffffffffffffffffffffffffffffff191681526004018773ffffffffffffffffffffffffffffffffffffffff1673ffffffffffffffffffffffffffffffffffffffff166c010000000000000000000000000281526014018673ffffffffffffffffffffffffffffffffffffffff1673ffffffffffffffffffffffffffffffffffffffff166c010000000000000000000000000281526014018573ffffffffffffffffffffffffffffffffffffffff1673ffffffffffffffffffffffffffffffffffffffff166c010000000000000000000000000281526014018481526020018381526020018281526020019750505050505050506040516020818303038152906040526040518082805190602001908083835b602083101515613b2e5780518252602082019150602081019050602083039250613b09565b6001836020036101000a038019825116818451168082178552505050505050905001915050604051809103902090509695505050505050565b600033609e54421180613bc75750609f60009054906101000a900473ffffffffffffffffffffffffffffffffffffffff1673ffffffffffffffffffffffffffffffffffffffff168173ffffffffffffffffffffffffffffffffffffffff16145b1515613c61576040517f08c379a000000000000000000000000000000000000000000000000000000000815260040180806020018281038252603d8152602001807f43616e6e6f74207472616e73666572206265666f7265207472616e736665727381526020017f2073746172742074696d652066726f6d2074686973206163636f756e7400000081525060400191505060405180910390fd5b613c6b8484615b6f565b91505092915050565b600080600080600073ffffffffffffffffffffffffffffffffffffffff168873ffffffffffffffffffffffffffffffffffffffff1614151515613d1f576040517f08c379a00000000000000000000000000000000000000000000000000000000081526004018080602001828103825260138152602001807f496e76616c6964205f746f20616464726573730000000000000000000000000081525060200191505060405180910390fd5b613d2d308a8a8a8a8a613995565b9250613d39838b614ea3565b9150600073ffffffffffffffffffffffffffffffffffffffff168273ffffffffffffffffffffffffffffffffffffffff1614151515613e06576040517f08c379a00000000000000000000000000000000000000000000000000000000081526004018080602001828103825260218152602001807f496e76616c6964207370656e6465722061646472657373207265636f7665726581526020017f640000000000000000000000000000000000000000000000000000000000000081525060400191505060405180910390fd5b8183604051602001808373ffffffffffffffffffffffffffffffffffffffff1673ffffffffffffffffffffffffffffffffffffffff166c010000000000000000000000000281526014018260001916600019168152602001925050506040516020818303038152906040526040518082805190602001908083835b602083101515613ea65780518252602082019150602081019050602083039250613e81565b6001836020036101000a0380198251168184511680821785525050505050509050019150506040518091039020905060001515609d6000836000191660001916815260200190815260200160002060009054906101000a900460ff161515141515613f9f576040517f08c379a00000000000000000000000000000000000000000000000000000000081526004018080602001828103825260218152602001807f5472616e73616374696f6e20686173682077617320616c72656164792075736581526020017f640000000000000000000000000000000000000000000000000000000000000081525060400191505060405180910390fd5b6001609d6000836000191660001916815260200190815260200160002060006101000a81548160ff021916908315150217905550613fde898989614f9b565b6140048983613fff8a613ff18e88614229565b615b4e90919063ffffffff16565b614d40565b61400f823388614f9b565b3373ffffffffffffffffffffffffffffffffffffffff168873ffffffffffffffffffffffffffffffffffffffff168a73ffffffffffffffffffffffffffffffffffffffff167fec5a73fd1f178be20c1bca1b406cbf4b5c20d833b66e582fc122fb4baa0fc2a48a8a604051808381526020018281526020019250505060405180910390a4600193505050509695505050505050565b609e5481565b60008060019054906101000a900460ff16806140ca57506140c96151b9565b5b806140e157506000809054906101000a900460ff16155b151561417b576040517f08c379a000000000000000000000000000000000000000000000000000000000815260040180806020018281038252602e8152602001807f436f6e747261637420696e7374616e63652068617320616c726561647920626581526020017f656e20696e697469616c697a656400000000000000000000000000000000000081525060400191505060405180910390fd5b600060019054906101000a900460ff1690506001600060016101000a81548160ff02191690831515021790555060016000806101000a81548160ff02191690831515021790555082609e8190555081609f60006101000a81548173ffffffffffffffffffffffffffffffffffffffff021916908373ffffffffffffffffffffffffffffffffffffffff16021790555080600060016101000a81548160ff021916908315150217905550505050565b6000606960008473ffffffffffffffffffffffffffffffffffffffff1673ffffffffffffffffffffffffffffffffffffffff16815260200190815260200160002060008373ffffffffffffffffffffffffffffffffffffffff1673ffffffffffffffffffffffffffffffffffffffff16815260200190815260200160002054905092915050565b600060b960009054906101000a900473ffffffffffffffffffffffffffffffffffffffff1673ffffffffffffffffffffffffffffffffffffffff163373ffffffffffffffffffffffffffffffffffffffff16141515614377576040517f08c379a00000000000000000000000000000000000000000000000000000000081526004018080602001828103825260168152602001807f4d7573742062652074686520636f6e74726f6c6c65720000000000000000000081525060200191505060405180910390fd5b73__PropsRewardsLib_______________________6363cad06a60a085856040518463ffffffff167c01000000000000000000000000000000000000000000000000000000000281526004018084815260200183815260200180602001828103825283818151815260200191508051906020019060200280838360005b8381101561440f5780820151818401526020810190506143f4565b5050505090500194505050505060206040518083038186803b15801561443457600080fd5b505af4158015614448573d6000803e3d6000fd5b505050506040513d602081101561445e57600080fd5b810190808051906020019092919050505050827f25071f4c6ebdf865da246a5caf6a5bbcbe50f6443e15309b97b10043c6beb1d9836040518080602001828103825283818151815260200191508051906020019060200280838360005b838110156144d65780820151818401526020810190506144bb565b505050509050019250505060405180910390a26001905092915050565b600060129050614508848260ff1685856153dc565b50505050565b600080600080600073ffffffffffffffffffffffffffffffffffffffff168873ffffffffffffffffffffffffffffffffffffffff16141515156145b9576040517f08c379a00000000000000000000000000000000000000000000000000000000081526004018080602001828103825260188152602001807f496e76616c6964205f7370656e6465722061646472657373000000000000000081525060200191505060405180910390fd5b6145c630898989896128f4565b92506145d2838a614ea3565b9150600073ffffffffffffffffffffffffffffffffffffffff168273ffffffffffffffffffffffffffffffffffffffff1614151515614679576040517f08c379a000000000000000000000000000000000000000000000000000000000815260040180806020018281038252601e8152602001807f496e76616c69642066726f6d2061646472657373207265636f7665726564000081525060200191505060405180910390fd5b8183604051602001808373ffffffffffffffffffffffffffffffffffffffff1673ffffffffffffffffffffffffffffffffffffffff166c010000000000000000000000000281526014018260001916600019168152602001925050506040516020818303038152906040526040518082805190602001908083835b60208310151561471957805182526020820191506020810190506020830392506146f4565b6001836020036101000a0380198251168184511680821785525050505050509050019150506040518091039020905060001515609d6000836000191660001916815260200190815260200160002060009054906101000a900460ff161515141515614812576040517f08c379a00000000000000000000000000000000000000000000000000000000081526004018080602001828103825260218152602001807f5472616e73616374696f6e20686173682077617320616c72656164792075736581526020017f640000000000000000000000000000000000000000000000000000000000000081525060400191505060405180910390fd5b6001609d6000836000191660001916815260200190815260200160002060006101000a81548160ff02191690831515021790555061486c82896148678a614859878e614229565b615b4e90919063ffffffff16565b614d40565b614877823388614f9b565b3373ffffffffffffffffffffffffffffffffffffffff168873ffffffffffffffffffffffffffffffffffffffff168373ffffffffffffffffffffffffffffffffffffffff167f43a220267705e74ee2ceafd46afc841850db6f85a662189a7def697bbdd90ffb6148e7868d614229565b8a604051808381526020018281526020019250505060405180910390a46001935050505095945050505050565b60b960009054906101000a900473ffffffffffffffffffffffffffffffffffffffff1681565b600080600080600073ffffffffffffffffffffffffffffffffffffffff168873ffffffffffffffffffffffffffffffffffffffff16141515156149e5576040517f08c379a00000000000000000000000000000000000000000000000000000000081526004018080602001828103825260188152602001807f496e76616c6964205f7370656e6465722061646472657373000000000000000081525060200191505060405180910390fd5b6149f23089898989611d7d565b92506149fe838a614ea3565b9150600073ffffffffffffffffffffffffffffffffffffffff168273ffffffffffffffffffffffffffffffffffffffff1614151515614aa5576040517f08c379a000000000000000000000000000000000000000000000000000000000815260040180806020018281038252601e8152602001807f496e76616c69642066726f6d2061646472657373207265636f7665726564000081525060200191505060405180910390fd5b8183604051602001808373ffffffffffffffffffffffffffffffffffffffff1673ffffffffffffffffffffffffffffffffffffffff166c010000000000000000000000000281526014018260001916600019168152602001925050506040516020818303038152906040526040518082805190602001908083835b602083101515614b455780518252602082019150602081019050602083039250614b20565b6001836020036101000a0380198251168184511680821785525050505050509050019150506040518091039020905060001515609d6000836000191660001916815260200190815260200160002060009054906101000a900460ff161515141515614c3e576040517f08c379a00000000000000000000000000000000000000000000000000000000081526004018080602001828103825260218152602001807f5472616e73616374696f6e20686173682077617320616c72656164792075736581526020017f640000000000000000000000000000000000000000000000000000000000000081525060400191505060405180910390fd5b6001609d6000836000191660001916815260200190815260200160002060006101000a81548160ff021916908315150217905550614c988289614c938a614c85878e614229565b6153bb90919063ffffffff16565b614d40565b614ca3823388614f9b565b3373ffffffffffffffffffffffffffffffffffffffff168873ffffffffffffffffffffffffffffffffffffffff168373ffffffffffffffffffffffffffffffffffffffff167f43a220267705e74ee2ceafd46afc841850db6f85a662189a7def697bbdd90ffb614d13868d614229565b8a604051808381526020018281526020019250505060405180910390a46001935050505095945050505050565b600073ffffffffffffffffffffffffffffffffffffffff168273ffffffffffffffffffffffffffffffffffffffff1614151515614d7c57600080fd5b600073ffffffffffffffffffffffffffffffffffffffff168373ffffffffffffffffffffffffffffffffffffffff1614151515614db857600080fd5b80606960008573ffffffffffffffffffffffffffffffffffffffff1673ffffffffffffffffffffffffffffffffffffffff16815260200190815260200160002060008473ffffffffffffffffffffffffffffffffffffffff1673ffffffffffffffffffffffffffffffffffffffff168152602001908152602001600020819055508173ffffffffffffffffffffffffffffffffffffffff168373ffffffffffffffffffffffffffffffffffffffff167f8c5be1e5ebec7d5bd14f71427d1e84f3dd0314c0f7b2291e5b200ac8c7c3b925836040518082815260200191505060405180910390a3505050565b60008060008060418551141515614ebd5760009350614f92565b6020850151925060408501519150606085015160001a9050601b8160ff161015614ee857601b810190505b601b8160ff1614158015614f005750601c8160ff1614155b15614f0e5760009350614f92565b600186828585604051600081526020016040526040518085600019166000191681526020018460ff1660ff1681526020018360001916600019168152602001826000191660001916815260200194505050505060206040516020810390808403906000865af1158015614f85573d6000803e3d6000fd5b5050506020604051035193505b50505092915050565b606860008473ffffffffffffffffffffffffffffffffffffffff1673ffffffffffffffffffffffffffffffffffffffff168152602001908152602001600020548111151515614fe957600080fd5b600073ffffffffffffffffffffffffffffffffffffffff168273ffffffffffffffffffffffffffffffffffffffff161415151561502557600080fd5b61507781606860008673ffffffffffffffffffffffffffffffffffffffff1673ffffffffffffffffffffffffffffffffffffffff16815260200190815260200160002054615b4e90919063ffffffff16565b606860008573ffffffffffffffffffffffffffffffffffffffff1673ffffffffffffffffffffffffffffffffffffffff1681526020019081526020016000208190555061510c81606860008573ffffffffffffffffffffffffffffffffffffffff1673ffffffffffffffffffffffffffffffffffffffff168152602001908152602001600020546153bb90919063ffffffff16565b606860008473ffffffffffffffffffffffffffffffffffffffff1673ffffffffffffffffffffffffffffffffffffffff168152602001908152602001600020819055508173ffffffffffffffffffffffffffffffffffffffff168373ffffffffffffffffffffffffffffffffffffffff167fddf252ad1be2c89b69c2b068fc378daa952ba7f163c4a11628f55a4df523b3ef836040518082815260200191505060405180910390a3505050565b600080303b90506000811491505090565b60006151d7848484614f9b565b615270843361526b85606960008a73ffffffffffffffffffffffffffffffffffffffff1673ffffffffffffffffffffffffffffffffffffffff16815260200190815260200160002060003373ffffffffffffffffffffffffffffffffffffffff1673ffffffffffffffffffffffffffffffffffffffff16815260200190815260200160002054615b4e90919063ffffffff16565b614d40565b600190509392505050565b60008273ffffffffffffffffffffffffffffffffffffffff16141515156152a157600080fd5b6152b681606a546153bb90919063ffffffff16565b606a8190555061530e81606860008573ffffffffffffffffffffffffffffffffffffffff1673ffffffffffffffffffffffffffffffffffffffff168152602001908152602001600020546153bb90919063ffffffff16565b606860008473ffffffffffffffffffffffffffffffffffffffff1673ffffffffffffffffffffffffffffffffffffffff168152602001908152602001600020819055508173ffffffffffffffffffffffffffffffffffffffff16600073ffffffffffffffffffffffffffffffffffffffff167fddf252ad1be2c89b69c2b068fc378daa952ba7f163c4a11628f55a4df523b3ef836040518082815260200191505060405180910390a35050565b60008082840190508381101515156153d257600080fd5b8091505092915050565b600060b75414151561547c576040517f08c379a00000000000000000000000000000000000000000000000000000000081526004018080602001828103825260308152602001807f496e697469616c697a6520726577617264732075706772616465312063616e2081526020017f68617070656e206f6e6c79206f6e63650000000000000000000000000000000081525060400191505060405180910390fd5b8360b960006101000a81548173ffffffffffffffffffffffffffffffffffffffff021916908373ffffffffffffffffffffffffffffffffffffffff16021790555073__PropsRewardsLib_______________________6311cb33da60a060006187be60006040518563ffffffff167c01000000000000000000000000000000000000000000000000000000000281526004018085815260200184600381111561552157fe5b60ff16815260200183815260200182815260200194505050505060206040518083038186803b15801561555357600080fd5b505af4158015615567573d6000803e3d6000fd5b505050506040513d602081101561557d57600080fd5b81019080805190602001909291905050505073__PropsRewardsLib_______________________6311cb33da60a060016308f0d18060006040518563ffffffff167c0100000000000000000000000000000000000000000000000000000000028152600401808581526020018460038111156155f557fe5b60ff16815260200183815260200182815260200194505050505060206040518083038186803b15801561562757600080fd5b505af415801561563b573d6000803e3d6000fd5b505050506040513d602081101561565157600080fd5b81019080805190602001909291905050505073__PropsRewardsLib_______________________6311cb33da60a060026302faf08060006040518563ffffffff167c0100000000000000000000000000000000000000000000000000000000028152600401808581526020018460038111156156c957fe5b60ff16815260200183815260200182815260200194505050505060206040518083038186803b1580156156fb57600080fd5b505af415801561570f573d6000803e3d6000fd5b505050506040513d602081101561572557600080fd5b81019080805190602001909291905050505073__PropsRewardsLib_______________________6311cb33da60a0600361072560006040518563ffffffff167c01000000000000000000000000000000000000000000000000000000000281526004018085815260200184600381111561579b57fe5b60ff16815260200183815260200182815260200194505050505060206040518083038186803b1580156157cd57600080fd5b505af41580156157e1573d6000803e3d6000fd5b505050506040513d60208110156157f757600080fd5b81019080805190602001909291905050505082600a0a633b9aca000260b781905560a0601601819055508060b881905560a0601501819055508160a06014018190555050505050565b60008060a0600f0160000160008560001916600019168152602001908152602001600020600101805490509150600090505b818110156159515761594460a0600201600060a0600f0160000160008860001916600019168152602001908152602001600020600101848154811015156158b557fe5b9060005260206000200160009054906101000a900473ffffffffffffffffffffffffffffffffffffffff1673ffffffffffffffffffffffffffffffffffffffff1673ffffffffffffffffffffffffffffffffffffffff16815260200190815260200160002060010160009054906101000a900473ffffffffffffffffffffffffffffffffffffffff168461527b565b8080600101915050615872565b73__PropsRewardsLib_______________________639dec8c4560a06040518263ffffffff167c01000000000000000000000000000000000000000000000000000000000281526004018082815260200191505060206040518083038186803b1580156159bd57600080fd5b505af41580156159d1573d6000803e3d6000fd5b505050506040513d60208110156159e757600080fd5b8101908080519060200190929190505050508360001916857f07efea0e0eeb975e5404139e47d884d2705a0660a3456aa31c5694df1d8c5f1484858702604051808381526020018281526020019250505060405180910390a35050505050565b60008090505b8351811015615b0057615af360a060000160008684815181101515615a6e57fe5b9060200190602002015173ffffffffffffffffffffffffffffffffffffffff1673ffffffffffffffffffffffffffffffffffffffff16815260200190815260200160002060010160009054906101000a900473ffffffffffffffffffffffffffffffffffffffff168483815181101515615ae457fe5b9060200190602002015161527b565b8080600101915050615a4d565b8460001916867fcc511f1b8ddd8ab10bcb89c26361da1c99b826350e3f38ee438134149032568a865185604051808381526020018281526020019250505060405180910390a3505050505050565b600080838311151515615b6057600080fd5b82840390508091505092915050565b6000615b7c338484614f9b565b6001905092915050565b828054600181600116156101000203166002900490600052602060002090601f016020900481019282601f10615bc757805160ff1916838001178555615bf5565b82800160010185558215615bf5579182015b82811115615bf4578251825591602001919060010190615bd9565b5b509050615c029190615c06565b5090565b615c2891905b80821115615c24576000816000905550600101615c0c565b5090565b905600a165627a7a723058200dbbc00a40d128b95c590f84d838ba7ea062b07ef0ab9e3e1ff439187b8c1dfc0029",
  "source": "pragma solidity ^0.4.24;\n\nimport \"zos-lib/contracts/Initializable.sol\";\nimport \"openzeppelin-eth/contracts/token/ERC20/ERC20Detailed.sol\";\nimport \"./PropsTimeBasedTransfers.sol\";\nimport \"./ERC865Token.sol\";\nimport \"./PropsRewards.sol\";\n\n/**\n * @title PROPSToken\n * @dev PROPS token contract (based of ZEPToken by openzeppelin), a detailed ERC20 token\n * https://github.com/zeppelinos/zos-vouching/blob/master/contracts/ZEPToken.sol\n * PROPS are divisible by 1e18 base\n * units referred to as 'AttoPROPS'.\n *\n * PROPS are displayed using 18 decimal places of precision.\n *\n * 1 PROPS is equivalent to:\n *   1 * 1e18 == 1e18 == One Quintillion AttoPROPS\n *\n * 600 Million PROPS (total supply) is equivalent to:\n *   600000000 * 1e18 == 6e26 AttoPROPS\n *\n\n */\n\n\ncontract PropsToken is Initializable, ERC20Detailed, ERC865Token, PropsTimeBasedTransfers, PropsRewards {\n\n  /**\n   * @dev Initializer function. Called only once when a proxy for the contract is created.\n   * @param _holder address that will receive it's initial supply and be able to transfer before transfers start time\n   * @param _transfersStartTime uint256 Unix Timestamp from which transfers are allowed\n   * @param _controller address that will have controller functionality on rewards protocol\n   * @param _minSecondsBetweenDays uint256 seconds required to pass between consecutive rewards day\n   * @param _rewardsStartTimestamp uint256 day 0 timestamp\n   */\n  function initialize(\n    address _holder,\n    uint256 _transfersStartTime,\n    address _controller,\n    uint256 _minSecondsBetweenDays,\n    uint256 _rewardsStartTimestamp\n  )\n    public\n    initializer\n  {\n    uint8 decimals = 18;\n    // total supply is 600,000,000 PROPS specified in AttoPROPS\n    uint256 totalSupply = 0.6 * 1e9 * (10 ** uint256(decimals));\n\n    ERC20Detailed.initialize(\"Props Token\", \"PROPS\", decimals);\n    PropsTimeBasedTransfers.initialize(_transfersStartTime, _holder);\n    PropsRewards.initialize(_controller, decimals, _minSecondsBetweenDays, _rewardsStartTimestamp);\n    _mint(_holder, totalSupply);\n  }\n}",
  "sourcePath": "/Users/jretina/Programming/PROPSProject/props-token-distribution/contracts/token/PropsToken.sol",
  "compiler": {
    "name": "solc",
    "version": "0.4.24+commit.e67f0147.Emscripten.clang"
  },
  "schemaVersion": "2.0.1",
  "updatedAt": "2019-05-26T08:52:30.766Z"
}