{
  "contractName": "PropsRewardsLib",
  "abi": [
    {
      "constant": false,
      "inputs": [
        {
          "name": "_self",
          "type": "PropsRewardsLib.Data storage"
        },
        {
          "name": "_dailyTimestamp",
          "type": "uint256"
        },
        {
          "name": "_rewardsHash",
          "type": "bytes32"
        },
        {
          "name": "_maxTotalSupply",
          "type": "uint256"
        },
        {
          "name": "_previousDayRewards",
          "type": "bool"
        }
      ],
      "name": "calculateValidatorRewards",
      "outputs": [
        {
          "name": "",
          "type": "uint256"
        }
      ],
      "payable": false,
      "stateMutability": "nonpayable",
      "type": "function"
    },
    {
      "constant": false,
      "inputs": [
        {
          "name": "_self",
          "type": "PropsRewardsLib.Data storage"
        },
        {
          "name": "_dailyTimestamp",
          "type": "uint256"
        },
        {
          "name": "_rewardsHash",
          "type": "bytes32"
        },
        {
          "name": "_applications",
          "type": "address[]"
        },
        {
          "name": "_amounts",
          "type": "uint256[]"
        },
        {
          "name": "_maxTotalSupply",
          "type": "uint256"
        },
        {
          "name": "_currentTotalSupply",
          "type": "uint256"
        }
      ],
      "name": "calculateApplicationRewards",
      "outputs": [
        {
          "name": "",
          "type": "uint256"
        }
      ],
      "payable": false,
      "stateMutability": "nonpayable",
      "type": "function"
    },
    {
      "constant": true,
      "inputs": [
        {
          "name": "_self",
          "type": "PropsRewardsLib.Data storage"
        },
        {
          "name": "_name",
          "type": "PropsRewardsLib.ParameterName"
        },
        {
          "name": "_dailyTimestamp",
          "type": "uint256"
        }
      ],
      "name": "getParameterValue",
      "outputs": [
        {
          "name": "",
          "type": "uint256"
        }
      ],
      "payable": false,
      "stateMutability": "view",
      "type": "function"
    },
    {
      "constant": true,
      "inputs": [
        {
          "name": "_name",
          "type": "PropsRewardsLib.ParameterName"
        }
      ],
      "name": "getParameterKey",
      "outputs": [
        {
          "name": "",
          "type": "bytes32"
        }
      ],
      "payable": false,
      "stateMutability": "pure",
      "type": "function"
    },
    {
      "constant": false,
      "inputs": [
        {
          "name": "_self",
          "type": "PropsRewardsLib.Data storage"
        },
        {
          "name": "_name",
          "type": "PropsRewardsLib.ParameterName"
        },
        {
          "name": "_value",
          "type": "uint256"
        },
        {
          "name": "_timestamp",
          "type": "uint256"
        }
      ],
      "name": "updateParameter",
      "outputs": [
        {
          "name": "",
          "type": "bytes32"
        }
      ],
      "payable": false,
      "stateMutability": "nonpayable",
      "type": "function"
    },
    {
      "constant": false,
      "inputs": [
        {
          "name": "_self",
          "type": "PropsRewardsLib.Data storage"
        },
        {
          "name": "_name",
          "type": "bytes32"
        },
        {
          "name": "_rewardsAddress",
          "type": "address"
        },
        {
          "name": "_sidechainAddress",
          "type": "address"
        }
      ],
      "name": "updateApplication",
      "outputs": [
        {
          "name": "",
          "type": "bool"
        }
      ],
      "payable": false,
      "stateMutability": "nonpayable",
      "type": "function"
    },
    {
      "constant": false,
      "inputs": [
        {
          "name": "_self",
          "type": "PropsRewardsLib.Data storage"
        },
        {
          "name": "_name",
          "type": "bytes32"
        },
        {
          "name": "_rewardsAddress",
          "type": "address"
        },
        {
          "name": "_sidechainAddress",
          "type": "address"
        }
      ],
      "name": "updateValidator",
      "outputs": [
        {
          "name": "",
          "type": "bool"
        }
      ],
      "payable": false,
      "stateMutability": "nonpayable",
      "type": "function"
    },
    {
      "constant": false,
      "inputs": [
        {
          "name": "_self",
          "type": "PropsRewardsLib.Data storage"
        },
        {
          "name": "_dailyTimestamp",
          "type": "uint256"
        },
        {
          "name": "_validators",
          "type": "address[]"
        }
      ],
      "name": "setValidators",
      "outputs": [
        {
          "name": "",
          "type": "bool"
        }
      ],
      "payable": false,
      "stateMutability": "nonpayable",
      "type": "function"
    },
    {
      "constant": false,
      "inputs": [
        {
          "name": "_self",
          "type": "PropsRewardsLib.Data storage"
        },
        {
          "name": "_dailyTimestamp",
          "type": "uint256"
        },
        {
          "name": "_applications",
          "type": "address[]"
        }
      ],
      "name": "setApplications",
      "outputs": [
        {
          "name": "",
          "type": "bool"
        }
      ],
      "payable": false,
      "stateMutability": "nonpayable",
      "type": "function"
    },
    {
      "constant": true,
      "inputs": [
        {
          "name": "_self",
          "type": "PropsRewardsLib.Data storage"
        },
        {
          "name": "_entityType",
          "type": "PropsRewardsLib.RewardedEntityType"
        },
        {
          "name": "_dailyTimestamp",
          "type": "uint256"
        }
      ],
      "name": "getEntities",
      "outputs": [
        {
          "name": "",
          "type": "address[]"
        }
      ],
      "payable": false,
      "stateMutability": "view",
      "type": "function"
    },
    {
      "constant": false,
      "inputs": [
        {
          "name": "_self",
          "type": "PropsRewardsLib.Data storage"
        },
        {
          "name": "_dailyTimestamp",
          "type": "uint256"
        },
        {
          "name": "_rewardsHash",
          "type": "bytes32"
        }
      ],
      "name": "_updateDailyTimestampAndRewardsHash",
      "outputs": [
        {
          "name": "",
          "type": "bool"
        }
      ],
      "payable": false,
      "stateMutability": "nonpayable",
      "type": "function"
    },
    {
      "constant": true,
      "inputs": [
        {
          "name": "_self",
          "type": "PropsRewardsLib.Data storage"
        },
        {
          "name": "_dailyTimestamp",
          "type": "uint256"
        },
        {
          "name": "_maxTotalSupply",
          "type": "uint256"
        },
        {
          "name": "_currentTotalSupply",
          "type": "uint256"
        }
      ],
      "name": "_getMaxAppRewardsDailyAmount",
      "outputs": [
        {
          "name": "",
          "type": "uint256"
        }
      ],
      "payable": false,
      "stateMutability": "view",
      "type": "function"
    },
    {
      "constant": true,
      "inputs": [
        {
          "name": "_self",
          "type": "PropsRewardsLib.Data storage"
        },
        {
          "name": "_dailyTimestamp",
          "type": "uint256"
        },
        {
          "name": "_numOfValidators",
          "type": "uint256"
        },
        {
          "name": "_maxTotalSupply",
          "type": "uint256"
        },
        {
          "name": "_currentTotalSupply",
          "type": "uint256"
        }
      ],
      "name": "_getValidatorRewardsDailyAmountPerValidator",
      "outputs": [
        {
          "name": "",
          "type": "uint256"
        }
      ],
      "payable": false,
      "stateMutability": "view",
      "type": "function"
    },
    {
      "constant": true,
      "inputs": [
        {
          "name": "_self",
          "type": "PropsRewardsLib.Data storage"
        },
        {
          "name": "_applications",
          "type": "address[]"
        },
        {
          "name": "_amounts",
          "type": "uint256[]"
        }
      ],
      "name": "_validateSubmittedData",
      "outputs": [
        {
          "name": "",
          "type": "uint256"
        }
      ],
      "payable": false,
      "stateMutability": "view",
      "type": "function"
    },
    {
      "constant": true,
      "inputs": [
        {
          "name": "_dailyTimestamp",
          "type": "uint256"
        },
        {
          "name": "_rewardsHash",
          "type": "bytes32"
        },
        {
          "name": "_applications",
          "type": "address[]"
        },
        {
          "name": "_amounts",
          "type": "uint256[]"
        }
      ],
      "name": "_rewardHashIsvalid",
      "outputs": [
        {
          "name": "",
          "type": "bool"
        }
      ],
      "payable": false,
      "stateMutability": "pure",
      "type": "function"
    },
    {
      "constant": true,
      "inputs": [
        {
          "name": "_self",
          "type": "PropsRewardsLib.Data storage"
        },
        {
          "name": "_dailyTimestamp",
          "type": "uint256"
        }
      ],
      "name": "_requiredValidatorsForValidatorsRewards",
      "outputs": [
        {
          "name": "",
          "type": "uint256"
        }
      ],
      "payable": false,
      "stateMutability": "view",
      "type": "function"
    },
    {
      "constant": true,
      "inputs": [
        {
          "name": "_self",
          "type": "PropsRewardsLib.Data storage"
        },
        {
          "name": "_dailyTimestamp",
          "type": "uint256"
        }
      ],
      "name": "_requiredValidatorsForAppRewards",
      "outputs": [
        {
          "name": "",
          "type": "uint256"
        }
      ],
      "payable": false,
      "stateMutability": "view",
      "type": "function"
    }
  ],
  "bytecode": "0x6131c8610030600b82828239805160001a6073146000811461002057610022565bfe5b5030600052607381538281f3007300000000000000000000000000000000000000003014608060405260043610610108576000357c0100000000000000000000000000000000000000000000000000000000900463ffffffff1680630e2950711461010d57806311cb33da146101a05780631875ce5d1461020a57806329294684146102675780633f065dc9146102d6578063476b90e51461039057806363cad06a146104835780637bf9067f1461051557806389932735146105e1578063a352a57d1461066d578063a4143f83146106ab578063ac002c13146106e9578063cc1b8c9c14610745578063d81b7050146107d7578063e1a3f61414610822578063e2c593d314610874578063f1c91dc714610907575b600080fd5b81801561011957600080fd5b50610186600480360381019080803590602001909291908035600019169060200190929190803573ffffffffffffffffffffffffffffffffffffffff169060200190929190803573ffffffffffffffffffffffffffffffffffffffff169060200190929190505050610946565b604051808215151515815260200191505060405180910390f35b8180156101ac57600080fd5b506101ec60048036038101908080359060200190929190803560ff1690602001909291908035906020019092919080359060200190929190505050610d15565b60405180826000191660001916815260200191505060405180910390f35b81801561021657600080fd5b5061024d60048036038101908080359060200190929190803590602001909291908035600019169060200190929190505050610e37565b604051808215151515815260200191505060405180910390f35b81801561027357600080fd5b506102c06004803603810190808035906020019092919080359060200190929190803560001916906020019092919080359060200190929190803515159060200190929190505050610ea8565b6040518082815260200191505060405180910390f35b61037a600480360381019080803590602001909291908035906020019082018035906020019080806020026020016040519081016040528093929190818152602001838360200280828437820191505050505050919291929080359060200190820180359060200190808060200260200160405190810160405280939291908181526020018383602002808284378201915050505050509192919290505050610fa9565b6040518082815260200191505060405180910390f35b81801561039c57600080fd5b5061046d6004803603810190808035906020019092919080359060200190929190803560001916906020019092919080359060200190820180359060200190808060200260200160405190810160405280939291908181526020018383602002808284378201915050505050509192919290803590602001908201803590602001908080602002602001604051908101604052809392919081815260200183836020028082843782019150505050505091929192908035906020019092919080359060200190929190505050611108565b6040518082815260200191505060405180910390f35b81801561048f57600080fd5b506104fb600480360381019080803590602001909291908035906020019092919080359060200190820180359060200190808060200260200160405190810160405280939291908181526020018383602002808284378201915050505050509192919290505050611950565b604051808215151515815260200191505060405180910390f35b6105c76004803603810190808035906020019092919080356000191690602001909291908035906020019082018035906020019080806020026020016040519081016040528093929190818152602001838360200280828437820191505050505050919291929080359060200190820180359060200190808060200260200160405190810160405280939291908181526020018383602002808284378201915050505050509192919290505050611b72565b604051808215151515815260200191505060405180910390f35b61061660048036038101908080359060200190929190803560ff16906020019092919080359060200190929190505050611c74565b6040518080602001828103825283818151815260200191508051906020019060200280838360005b8381101561065957808201518184015260208101905061063e565b505050509050019250505060405180910390f35b6106956004803603810190808035906020019092919080359060200190929190505050612172565b6040518082815260200191505060405180910390f35b6106d360048036038101908080359060200190929190803590602001909291905050506122e0565b6040518082815260200191505060405180910390f35b61072f600480360381019080803590602001909291908035906020019092919080359060200190929190803590602001909291908035906020019092919050505061248c565b6040518082815260200191505060405180910390f35b81801561075157600080fd5b506107bd6004803603810190808035906020019092919080359060200190929190803590602001908201803590602001908080602002602001604051908101604052809392919081815260200183836020028082843782019150505050505091929192905050506124c3565b604051808215151515815260200191505060405180910390f35b61080c60048036038101908080359060200190929190803560ff16906020019092919080359060200190929190505050612622565b6040518082815260200191505060405180910390f35b61085e600480360381019080803590602001909291908035906020019092919080359060200190929190803590602001909291905050506126a6565b6040518082815260200191505060405180910390f35b81801561088057600080fd5b506108ed600480360381019080803590602001909291908035600019169060200190929190803573ffffffffffffffffffffffffffffffffffffffff169060200190929190803573ffffffffffffffffffffffffffffffffffffffff1690602001909291905050506126de565b604051808215151515815260200191505060405180910390f35b610928600480360381019080803560ff169060200190929190505050612aad565b60405180826000191660001916815260200191505060405180910390f35b60008282600073ffffffffffffffffffffffffffffffffffffffff168273ffffffffffffffffffffffffffffffffffffffff16141580156109b45750600073ffffffffffffffffffffffffffffffffffffffff168173ffffffffffffffffffffffffffffffffffffffff1614155b1515610a4e576040517f08c379a000000000000000000000000000000000000000000000000000000000815260040180806020018281038252602f8152602001807f4d75737420686176652076616c6964207265776172647320616e64207369646581526020017f636861696e20616464726573736573000000000000000000000000000000000081525060400191505060405180910390fd5b858760020160003373ffffffffffffffffffffffffffffffffffffffff1673ffffffffffffffffffffffffffffffffffffffff1681526020019081526020016000206000018160001916905550848760020160003373ffffffffffffffffffffffffffffffffffffffff1673ffffffffffffffffffffffffffffffffffffffff16815260200190815260200160002060010160006101000a81548173ffffffffffffffffffffffffffffffffffffffff021916908373ffffffffffffffffffffffffffffffffffffffff160217905550838760020160003373ffffffffffffffffffffffffffffffffffffffff1673ffffffffffffffffffffffffffffffffffffffff16815260200190815260200160002060020160006101000a81548173ffffffffffffffffffffffffffffffffffffffff021916908373ffffffffffffffffffffffffffffffffffffffff16021790555060008760020160003373ffffffffffffffffffffffffffffffffffffffff1673ffffffffffffffffffffffffffffffffffffffff168152602001908152602001600020600301541415610d0757866003013390806001815401808255809150509060018203906000526020600020016000909192909190916101000a81548173ffffffffffffffffffffffffffffffffffffffff021916908373ffffffffffffffffffffffffffffffffffffffff1602179055505060018760020160003373ffffffffffffffffffffffffffffffffffffffff1673ffffffffffffffffffffffffffffffffffffffff1681526020019081526020016000206003018190555060018760020160003373ffffffffffffffffffffffffffffffffffffffff1673ffffffffffffffffffffffffffffffffffffffff16815260200190815260200160002060040160006101000a81548160ff02191690836001811115610d0157fe5b02179055505b600192505050949350505050565b600080610d2185612aad565b905085600401600082600019166000191681526020019081526020016000206002015483111515610d9b578386600401600083600019166000191681526020019081526020016000206000018190555082866004016000836000191660001916815260200190815260200160002060020181905550610e2b565b85600401600082600019166000191681526020019081526020016000206000015486600401600083600019166000191681526020019081526020016000206001018190555083866004016000836000191660001916815260200190815260200160002060000181905550828660040160008360001916600019168152602001908152602001600020600201819055505b80915050949350505050565b60008084601201541415610e5357828460120181905550610e77565b83601201548460130181905550828460120181905550818460110181600019169055505b600184600f016000846000191660001916815260200190815260200160002060040181905550600190509392505050565b600080600187600f0160008760001916600019168152602001908152602001600020600401541415610f9a578215610f025786600f0160008660001916600019168152602001908152602001600020600201549050610f40565b610f0c8787612172565b905086600f016000866000191660001916815260200190815260200160002060020154811115610f3f5760009150610f9f565b5b600287600f016000876000191660001916815260200190815260200160002060040181905550610f93878783878b600f0160008b600019166000191681526020019081526020016000206005015461248c565b9150610f9f565b600091505b5095945050505050565b60008060008060019150600090505b8451811015611054578481815181101515610fcf57fe5b906020019060200201518301925060018760000160008884815181101515610ff357fe5b9060200190602002015173ffffffffffffffffffffffffffffffffffffffff1673ffffffffffffffffffffffffffffffffffffffff1681526020019081526020016000206003015414151561104757600091505b8080600101915050610fb8565b6000831180156110615750815b15156110fb576040517f08c379a00000000000000000000000000000000000000000000000000000000081526004018080602001828103825260278152602001807f53756d207a65726f206f72206e6f6e65206578697374696e672061707020737581526020017f626d69747465640000000000000000000000000000000000000000000000000081525060400191505060405180910390fd5b8293505050509392505050565b60008088886000620151808281151561111d57fe5b06148015611148575081601201548110158061113c5750816013015481145b806111475750600081145b5b15156111bc576040517f08c379a00000000000000000000000000000000000000000000000000000000081526004018080602001828103825260108152602001807f4d757374206265206d69646e696768740000000000000000000000000000000081525060200191505060405180910390fd5b8a8981600f016000826000191660001916815260200190815260200160002060000160003373ffffffffffffffffffffffffffffffffffffffff1673ffffffffffffffffffffffffffffffffffffffff16815260200190815260200160002060009054906101000a900460ff161515156112c4576040517f08c379a00000000000000000000000000000000000000000000000000000000081526004018080602001828103825260248152602001807f4d757374206265206f6e65207375626d697373696f6e207065722076616c696481526020017f61746f720000000000000000000000000000000000000000000000000000000081525060400191505060405180910390fd5b8c8c600061140783600501606060405190810160405290816002820180548060200260200160405190810160405280929190818152602001828054801561136057602002820191906000526020600020905b8160009054906101000a900473ffffffffffffffffffffffffffffffffffffffff1673ffffffffffffffffffffffffffffffffffffffff1681526020019060010190808311611316575b50505050508152602001600382018054806020026020016040519081016040528092919081815260200182805480156113ee57602002820191906000526020600020905b8160009054906101000a900473ffffffffffffffffffffffffffffffffffffffff1673ffffffffffffffffffffffffffffffffffffffff16815260200190600101908083116113a4575b5050505050815260200160048201548152505083612b68565b14156114fe578160050160000160003373ffffffffffffffffffffffffffffffffffffffff1673ffffffffffffffffffffffffffffffffffffffff16815260200190815260200160002060009054906101000a900460ff1615156114f9576040517f08c379a00000000000000000000000000000000000000000000000000000000081526004018080602001828103825260248152602001807f4d75737420626520612063757272656e742073656c65637465642076616c696481526020017f61746f720000000000000000000000000000000000000000000000000000000081525060400191505060405180910390fd5b6115eb565b8160050160010160003373ffffffffffffffffffffffffffffffffffffffff1673ffffffffffffffffffffffffffffffffffffffff16815260200190815260200160002060009054906101000a900460ff1615156115ea576040517f08c379a00000000000000000000000000000000000000000000000000000000081526004018080602001828103825260258152602001807f4d75737420626520612070726576696f75732073656c65637465642076616c6981526020017f6461746f7200000000000000000000000000000000000000000000000000000081525060400191505060405180910390fd5b5b6115f78e8e8e8e611b72565b151561166b576040517f08c379a00000000000000000000000000000000000000000000000000000000081526004018080602001828103825260168152602001807f526577617264204861736820697320696e76616c69640000000000000000000081525060200191505060405180910390fd5b60008f600f0160008f600019166000191681526020019081526020016000206003015414156116ef578e6010018d908060018154018082558091505090600182039060005260206000200160009091929091909150906000191690555060018f600f0160008f60001916600019168152602001908152602001600020600301819055505b60018f600f0160008f6000191660001916815260200190815260200160002060000160003373ffffffffffffffffffffffffffffffffffffffff1673ffffffffffffffffffffffffffffffffffffffff16815260200190815260200160002060006101000a81548160ff0219169083151502179055508e600f0160008e60001916600019168152602001908152602001600020600201600081548092919060010191905055508e600f0160008e600019166000191681526020019081526020016000206001013390806001815401808255809150509060018203906000526020600020016000909192909190916101000a81548173ffffffffffffffffffffffffffffffffffffffff021916908373ffffffffffffffffffffffffffffffffffffffff160217905550506118238f8f6122e0565b8f600f0160008f6000191660001916815260200190815260200160002060020154141561193957888f600f0160008f600019166000191681526020019081526020016000206005018190555061187a8f8d8d610fa9565b96506118888f8f8c8c6126a6565b8711151515611925576040517f08c379a00000000000000000000000000000000000000000000000000000000081526004018080602001828103825260308152602001807f52657761726473206461746120697320696e76616c6964202d2065786365656481526020017f206461696c7920766172696174696f6e0000000000000000000000000000000081525060400191505060405180910390fd5b6119308f8f8f610e37565b5086975061193e565b600097505b50505050505050979650505050505050565b600083836000620151808281151561196457fe5b06148015611979575081600501600401548110155b1515611a13576040517f08c379a000000000000000000000000000000000000000000000000000000000815260040180806020018281038252602c8152602001807f4d757374206265206d69646e6967687420616e64203e206c617374207570646181526020017f74652074696d657374616d70000000000000000000000000000000000000000081525060400191505060405180910390fd5b858460008090505b8151811015611b045760018360020160008484815181101515611a3a57fe5b9060200190602002015173ffffffffffffffffffffffffffffffffffffffff1673ffffffffffffffffffffffffffffffffffffffff16815260200190815260200160002060030154141515611af7576040517f08c379a00000000000000000000000000000000000000000000000000000000081526004018080602001828103825260148152602001807f56616c696461746f72206d75737420657869737400000000000000000000000081525060200191505060405180910390fd5b8080600101915050611a1b565b600089600501600201805490501415611b2a57611b248960050188612b8b565b50611b56565b8860050160040154881115611b4757611b4589600501612d5a565b505b611b548960050188612b8b565b505b8789600501600401819055506001955050505050509392505050565b6000836000191685848460405160200180848152602001838051906020019060200280838360005b83811015611bb5578082015181840152602081019050611b9a565b50505050905001828051906020019060200280838360005b83811015611be8578082015181840152602081019050611bcd565b5050505090500193505050506040516020818303038152906040526040518082805190602001908083835b602083101515611c385780518252602082019150602081019050602083039250611c13565b6001836020036101000a038019825116818451168082178552505050505050905001915050604051809103902060001916149050949350505050565b606060006001811115611c8357fe5b836001811115611c8f57fe5b1415611f02576000611dd685600a016060604051908101604052908160028201805480602002602001604051908101604052809291908181526020018280548015611d2f57602002820191906000526020600020905b8160009054906101000a900473ffffffffffffffffffffffffffffffffffffffff1673ffffffffffffffffffffffffffffffffffffffff1681526020019060010190808311611ce5575b5050505050815260200160038201805480602002602001604051908101604052809291908181526020018280548015611dbd57602002820191906000526020600020905b8160009054906101000a900473ffffffffffffffffffffffffffffffffffffffff1673ffffffffffffffffffffffffffffffffffffffff1681526020019060010190808311611d73575b5050505050815260200160048201548152505084612b68565b1415611e6f5783600a01600201805480602002602001604051908101604052809291908181526020018280548015611e6357602002820191906000526020600020905b8160009054906101000a900473ffffffffffffffffffffffffffffffffffffffff1673ffffffffffffffffffffffffffffffffffffffff1681526020019060010190808311611e19575b5050505050905061216b565b83600a01600301805480602002602001604051908101604052809291908181526020018280548015611ef657602002820191906000526020600020905b8160009054906101000a900473ffffffffffffffffffffffffffffffffffffffff1673ffffffffffffffffffffffffffffffffffffffff1681526020019060010190808311611eac575b5050505050905061216b565b6000612043856005016060604051908101604052908160028201805480602002602001604051908101604052809291908181526020018280548015611f9c57602002820191906000526020600020905b8160009054906101000a900473ffffffffffffffffffffffffffffffffffffffff1673ffffffffffffffffffffffffffffffffffffffff1681526020019060010190808311611f52575b505050505081526020016003820180548060200260200160405190810160405280929190818152602001828054801561202a57602002820191906000526020600020905b8160009054906101000a900473ffffffffffffffffffffffffffffffffffffffff1673ffffffffffffffffffffffffffffffffffffffff1681526020019060010190808311611fe0575b5050505050815260200160048201548152505084612b68565b14156120dc57836005016002018054806020026020016040519081016040528092919081815260200182805480156120d057602002820191906000526020600020905b8160009054906101000a900473ffffffffffffffffffffffffffffffffffffffff1673ffffffffffffffffffffffffffffffffffffffff1681526020019060010190808311612086575b5050505050905061216b565b8360050160030180548060200260200160405190810160405280929190818152602001828054801561216357602002820191906000526020600020905b8160009054906101000a900473ffffffffffffffffffffffffffffffffffffffff1673ffffffffffffffffffffffffffffffffffffffff1681526020019060010190808311612119575b505050505090505b9392505050565b6000806122b484600501606060405190810160405290816002820180548060200260200160405190810160405280929190818152602001828054801561220d57602002820191906000526020600020905b8160009054906101000a900473ffffffffffffffffffffffffffffffffffffffff1673ffffffffffffffffffffffffffffffffffffffff16815260200190600101908083116121c3575b505050505081526020016003820180548060200260200160405190810160405280929190818152602001828054801561229b57602002820191906000526020600020905b8160009054906101000a900473ffffffffffffffffffffffffffffffffffffffff1673ffffffffffffffffffffffffffffffffffffffff1681526020019060010190808311612251575b5050505050815260200160048201548152505084612b68565b14156122cc57826005016002018054905090506122da565b826005016003018054905090505b92915050565b60008061242284600501606060405190810160405290816002820180548060200260200160405190810160405280929190818152602001828054801561237b57602002820191906000526020600020905b8160009054906101000a900473ffffffffffffffffffffffffffffffffffffffff1673ffffffffffffffffffffffffffffffffffffffff1681526020019060010190808311612331575b505050505081526020016003820180548060200260200160405190810160405280929190818152602001828054801561240957602002820191906000526020600020905b8160009054906101000a900473ffffffffffffffffffffffffffffffffffffffff1673ffffffffffffffffffffffffffffffffffffffff16815260200190600101908083116123bf575b5050505050815260200160048201548152505084612b68565b14156124595760016305f5e10061243b85600286612622565b85600501600201805490500281151561245057fe5b04019050612486565b60016305f5e10061246c85600286612622565b85600501600301805490500281151561248157fe5b040190505b92915050565b6000836305f5e1006124a088600389612622565b848603028115156124ad57fe5b048115156124b757fe5b04905095945050505050565b6000838260008090505b81518110156125b657600183600001600084848151811015156124ec57fe5b9060200190602002015173ffffffffffffffffffffffffffffffffffffffff1673ffffffffffffffffffffffffffffffffffffffff168152602001908152602001600020600301541415156125a9576040517f08c379a00000000000000000000000000000000000000000000000000000000081526004018080602001828103825260168152602001807f4170706c69636174696f6e206d7573742065786973740000000000000000000081525060200191505060405180910390fd5b80806001019150506124cd565b600087600a016002018054905014156125dc576125d687600a0186612b8b565b50612608565b86600a01600401548611156125f9576125f787600a01612d5a565b505b61260687600a0186612b8b565b505b8587600a0160040181905550600193505050509392505050565b600061262c613134565b84600401600061263b86612aad565b600019166000191681526020019081526020016000206060604051908101604052908160008201548152602001600182015481526020016002820154815250509050806040015183101515612696578060000151915061269e565b806020015191505b509392505050565b60006305f5e1006126b986600187612622565b6126c587600088612622565b84860302028115156126d357fe5b049050949350505050565b60008282600073ffffffffffffffffffffffffffffffffffffffff168273ffffffffffffffffffffffffffffffffffffffff161415801561274c5750600073ffffffffffffffffffffffffffffffffffffffff168173ffffffffffffffffffffffffffffffffffffffff1614155b15156127e6576040517f08c379a000000000000000000000000000000000000000000000000000000000815260040180806020018281038252602f8152602001807f4d75737420686176652076616c6964207265776172647320616e64207369646581526020017f636861696e20616464726573736573000000000000000000000000000000000081525060400191505060405180910390fd5b858760000160003373ffffffffffffffffffffffffffffffffffffffff1673ffffffffffffffffffffffffffffffffffffffff1681526020019081526020016000206000018160001916905550848760000160003373ffffffffffffffffffffffffffffffffffffffff1673ffffffffffffffffffffffffffffffffffffffff16815260200190815260200160002060010160006101000a81548173ffffffffffffffffffffffffffffffffffffffff021916908373ffffffffffffffffffffffffffffffffffffffff160217905550838760000160003373ffffffffffffffffffffffffffffffffffffffff1673ffffffffffffffffffffffffffffffffffffffff16815260200190815260200160002060020160006101000a81548173ffffffffffffffffffffffffffffffffffffffff021916908373ffffffffffffffffffffffffffffffffffffffff16021790555060008760000160003373ffffffffffffffffffffffffffffffffffffffff1673ffffffffffffffffffffffffffffffffffffffff168152602001908152602001600020600301541415612a9f57866001013390806001815401808255809150509060018203906000526020600020016000909192909190916101000a81548173ffffffffffffffffffffffffffffffffffffffff021916908373ffffffffffffffffffffffffffffffffffffffff1602179055505060018760000160003373ffffffffffffffffffffffffffffffffffffffff1673ffffffffffffffffffffffffffffffffffffffff1681526020019081526020016000206003018190555060008760000160003373ffffffffffffffffffffffffffffffffffffffff1673ffffffffffffffffffffffffffffffffffffffff16815260200190815260200160002060040160006101000a81548160ff02191690836001811115612a9957fe5b02179055505b600192505050949350505050565b60008160405160200180826003811115612ac357fe5b60ff167f01000000000000000000000000000000000000000000000000000000000000000281526001019150506040516020818303038152906040526040518082805190602001908083835b602083101515612b345780518252602082019150602081019050602083039250612b0f565b6001836020036101000a03801982511681845116808217855250505050505090500191505060405180910390209050919050565b6000826040015182101515612b805760009050612b85565b600190505b92915050565b600080600080856002018054905014915081158015612bb257508351856002018054905014155b15612bc657612bc085612fa0565b50600191505b600090505b8351811015612d4e578115612c5e57846002018482815181101515612bec57fe5b9060200190602002015190806001815401808255809150509060018203906000526020600020016000909192909190916101000a81548173ffffffffffffffffffffffffffffffffffffffff021916908373ffffffffffffffffffffffffffffffffffffffff16021790555050612cd0565b8381815181101515612c6c57fe5b906020019060200201518560020182815481101515612c8757fe5b9060005260206000200160006101000a81548173ffffffffffffffffffffffffffffffffffffffff021916908373ffffffffffffffffffffffffffffffffffffffff1602179055505b60018560000160008684815181101515612ce657fe5b9060200190602002015173ffffffffffffffffffffffffffffffffffffffff1673ffffffffffffffffffffffffffffffffffffffff16815260200190815260200160002060006101000a81548160ff0219169083151502179055508080600101915050612bcb565b60019250505092915050565b600080600080846003018054905014915081158015612d8757508360020180549050846003018054905014155b15612d9b57612d958461306a565b50600191505b600090505b8360020180549050811015612f95578115612e5d57836003018460020182815481101515612dca57fe5b9060005260206000200160009054906101000a900473ffffffffffffffffffffffffffffffffffffffff1690806001815401808255809150509060018203906000526020600020016000909192909190916101000a81548173ffffffffffffffffffffffffffffffffffffffff021916908373ffffffffffffffffffffffffffffffffffffffff16021790555050612ef3565b8360020181815481101515612e6e57fe5b9060005260206000200160009054906101000a900473ffffffffffffffffffffffffffffffffffffffff168460030182815481101515612eaa57fe5b9060005260206000200160006101000a81548173ffffffffffffffffffffffffffffffffffffffff021916908373ffffffffffffffffffffffffffffffffffffffff1602179055505b60018460010160008660020184815481101515612f0c57fe5b9060005260206000200160009054906101000a900473ffffffffffffffffffffffffffffffffffffffff1673ffffffffffffffffffffffffffffffffffffffff1673ffffffffffffffffffffffffffffffffffffffff16815260200190815260200160002060006101000a81548160ff0219169083151502179055508080600101915050612da0565b600192505050919050565b600080600090505b8260020180549050811015613050578260000160008460020183815481101515612fce57fe5b9060005260206000200160009054906101000a900473ffffffffffffffffffffffffffffffffffffffff1673ffffffffffffffffffffffffffffffffffffffff1673ffffffffffffffffffffffffffffffffffffffff16815260200190815260200160002060006101000a81549060ff02191690558080600101915050612fa8565b8260020160006130609190613156565b6001915050919050565b600080600090505b826003018054905081101561311a57826001016000846003018381548110151561309857fe5b9060005260206000200160009054906101000a900473ffffffffffffffffffffffffffffffffffffffff1673ffffffffffffffffffffffffffffffffffffffff1673ffffffffffffffffffffffffffffffffffffffff16815260200190815260200160002060006101000a81549060ff02191690558080600101915050613072565b82600301600061312a9190613156565b6001915050919050565b6060604051908101604052806000815260200160008152602001600081525090565b50805460008255906000526020600020908101906131749190613177565b50565b61319991905b8082111561319557600081600090555060010161317d565b5090565b905600a165627a7a723058206287ec7195a5d75ff26c98efcadf15274f22c7dcd167493ca361f2db1ac53f640029",
  "source": "pragma solidity ^0.4.24;\n\n/**\n * @title Props Rewards Library\n * @dev Library to manage application and validators and parameters\n **/\nlibrary PropsRewardsLib {\n    /*\n    *  Storage\n    */\n\n    // The various parameters used by the contract\n    enum ParameterName { ApplicationRewardsPercent, ApplicationRewardsMaxVariationPercent, ValidatorMajorityPercent, ValidatorRewardsPercent}\n    enum RewardedEntityType { Application, Validator }\n\n    // Represents a parameter current, previous and time of change\n    struct Parameter {\n        uint256 currentValue;                   // current value in Pphm valid after timestamp\n        uint256 previousValue;                  // previous value in Pphm for use before timestamp\n        uint256 updateTimestamp;                // timestamp of when the value was updated\n    }\n    // Represents application details\n    struct RewardedEntity {\n        bytes32 name;                           // Application name\n        address rewardsAddress;                 // address where rewards will be minted to\n        address sidechainAddress;               // address used on the sidechain\n        uint256 initializedState;               // A way to check if there's something in the map and whether already added to list\n        RewardedEntityType entityType;                // Type of rewarded entity\n    }\n\n    // Represents validators current and previous lists\n    struct RewardedEntityList {\n        mapping (address => bool) current;\n        mapping (address => bool) previous;\n        address[] currentList;\n        address[] previousList;\n        uint256 updateTimestamp;\n    }\n\n    // Represents daily reward submissions and confimations\n    struct DailyRewards {\n        mapping (address => bool) submissions;\n        address[] submissionValidators;\n        uint256 confirmations;\n        uint256 initializedState;               // A way to check if there's something in the map and whether already added to list\n        uint256 finalized;\n        uint256 totalSupply;\n    }\n\n    // represent the storage structures\n    struct Data {\n        // applications data\n        mapping (address => RewardedEntity) applications;\n        address[] applicationsList;\n        // validators data\n        mapping (address => RewardedEntity) validators;\n        address[] validatorsList;\n        // adjustable parameters data\n        mapping (bytes32 => Parameter) parameters; // parameter name which is keccak256(ParameterName.X)\n        // the participating validators\n        RewardedEntityList selectedValidators;\n        // the participating applications\n        RewardedEntityList selectedApplications;\n        // daily rewards submission data\n        mapping (bytes32 => DailyRewards) dailyRewards;\n        bytes32[] dailyRewardsList;\n        // previous daily reward hash\n        bytes32 previousDailyRewardsHash;\n        // current and previous rewards daily timestamp\n        uint256 currentDailyTimestamp;\n        uint256 previousDailyTimestamp;\n        // indication to when to cleanup the dailyRewards data\n        uint256 maxDailyRewardStorage;\n    }\n    /*\n    *  Modifiers\n    */\n    modifier onlyOneRewardsHashPerValidator(Data storage _self, bytes32 _rewardsHash) {\n        require(\n            !_self.dailyRewards[_rewardsHash].submissions[msg.sender],\n            \"Must be one submission per validator\"\n        );\n         _;\n    }\n\n    modifier onlyExistingApplications(Data storage _self, address[] _entities) {\n        for (uint256 i = 0; i < _entities.length; i++) {\n            require(\n                _self.applications[_entities[i]].initializedState == 1,\n                \"Application must exist\"\n            );\n        }\n        _;\n    }\n\n    modifier onlyExistingValidators(Data storage _self, address[] _entities) {\n        for (uint256 i = 0; i < _entities.length; i++) {\n            require(\n                _self.validators[_entities[i]].initializedState == 1,\n                \"Validator must exist\"\n            );\n        }\n        _;\n    }\n\n    modifier onlySelectedValidators(Data storage _self, uint256 _dailyTimestamp) {\n        if (_getSelectedRewardedEntityListType(_self.selectedValidators, _dailyTimestamp) == 0) {\n            require (\n                _self.selectedValidators.current[msg.sender],\n                \"Must be a current selected validator\"\n            );\n        } else {\n            require (\n                _self.selectedValidators.previous[msg.sender],\n                \"Must be a previous selected validator\"\n            );\n        }\n        _;\n    }\n\n    modifier onlyValidDailyTimestamp(Data storage _self, uint256 _dailyTimestamp) {\n        // assuming the daily timestamp is midnight UTC\n        require(\n            _dailyTimestamp % 86400 == 0 && (\n                _dailyTimestamp >= _self.currentDailyTimestamp ||\n                _dailyTimestamp == _self.previousDailyTimestamp ||\n                _dailyTimestamp == 0\n            ),\n            \"Must be midnight\"\n        );\n         _;\n    }\n\n    modifier onlyFutureValidValidatorsDailyTimestamp(Data storage _self, uint256 _dailyTimestamp) {\n        require(\n            _dailyTimestamp % 86400 == 0 &&\n            _dailyTimestamp >= _self.selectedValidators.updateTimestamp,\n            \"Must be midnight and > last update timestamp\"\n        );\n         _;\n    }\n\n    modifier onlyFutureValidApplicationsDailyTimestamp(Data storage _self, uint256 _dailyTimestamp) {\n        require(\n            _dailyTimestamp % 86400 == 0 &&\n            _dailyTimestamp >= _self.selectedApplications.updateTimestamp,\n            \"Must be midnight and > last update timestamp\"\n        );\n         _;\n    }\n\n    modifier onlyValidAddresses(address _rewardsAddress, address _sidechainAddress) {\n        require(\n            _rewardsAddress != address(0) &&\n            _sidechainAddress != address(0),\n            \"Must have valid rewards and sidechain addresses\"\n        );\n        _;\n    }\n\n    /**\n    * @dev The function is called by validators with the calculation of the daily rewards\n    * @param _self Data pointer to storage\n    * @param _dailyTimestamp uint256 the daily reward timestamp (midnight UTC of each day)\n    * @param _rewardsHash bytes32 hash of the rewards data\n    * @param _maxTotalSupply uint256 max total supply\n    * @param _previousDayRewards uint256 calculating previous day validator rewards\n    */\n    function calculateValidatorRewards(\n        Data storage _self,\n        uint256 _dailyTimestamp,\n        bytes32 _rewardsHash,\n        uint256 _maxTotalSupply,\n        bool _previousDayRewards\n    )\n        public\n        returns (uint256)\n    {\n        uint256 numOfValidators;\n        if (_self.dailyRewards[_rewardsHash].finalized == 1) // previous daily reward was not finalized\n        {\n            if (_previousDayRewards) {\n                numOfValidators = _self.dailyRewards[_rewardsHash].confirmations;\n            } else {\n                numOfValidators = _requiredValidatorsForValidatorsRewards(_self, _dailyTimestamp);\n                if (numOfValidators > _self.dailyRewards[_rewardsHash].confirmations) return 0;\n            }\n            _self.dailyRewards[_rewardsHash].finalized = 2;\n            return _getValidatorRewardsDailyAmountPerValidator(_self, _dailyTimestamp, numOfValidators, _maxTotalSupply,  _self.dailyRewards[_rewardsHash].totalSupply);\n        }\n        return 0;\n    }\n\n    /**\n    * @dev The function is called by validators with the calculation of the daily rewards\n    * @param _self Data pointer to storage\n    * @param _dailyTimestamp uint256 the daily reward timestamp (midnight UTC of each day)\n    * @param _rewardsHash bytes32 hash of the rewards data\n    * @param _applications address[] array of application addresses getting the daily reward\n    * @param _amounts uint256[] array of amounts each app should get\n    * @param _maxTotalSupply uint256 max total supply\n    * @param _currentTotalSupply uint256 current total supply\n    */\n    function calculateApplicationRewards(\n        Data storage _self,\n        uint256 _dailyTimestamp,\n        bytes32 _rewardsHash,\n        address[] _applications,\n        uint256[] _amounts,\n        uint256 _maxTotalSupply,\n        uint256 _currentTotalSupply\n    )\n        public\n        onlyValidDailyTimestamp(_self, _dailyTimestamp)\n        onlyOneRewardsHashPerValidator(_self, _rewardsHash)\n        onlySelectedValidators(_self, _dailyTimestamp)\n        returns (uint256)\n    {\n        require(\n                _rewardHashIsvalid(_dailyTimestamp, _rewardsHash, _applications, _amounts),\n                \"Reward Hash is invalid\"\n        );\n        if (_self.dailyRewards[_rewardsHash].initializedState == 0) {\n            _self.dailyRewardsList.push(_rewardsHash);\n            _self.dailyRewards[_rewardsHash].initializedState = 1;\n        }\n        _self.dailyRewards[_rewardsHash].submissions[msg.sender] = true;\n        _self.dailyRewards[_rewardsHash].confirmations++;\n        _self.dailyRewards[_rewardsHash].submissionValidators.push(msg.sender);\n        if (_self.dailyRewards[_rewardsHash].confirmations == _requiredValidatorsForAppRewards(_self, _dailyTimestamp)) {\n            _self.dailyRewards[_rewardsHash].totalSupply = _currentTotalSupply;\n            uint256 sum = _validateSubmittedData(_self, _applications, _amounts);\n            require(\n                sum <= _getMaxAppRewardsDailyAmount(_self, _dailyTimestamp, _maxTotalSupply, _currentTotalSupply),\n                \"Rewards data is invalid - exceed daily variation\"\n            );\n            _updateDailyTimestampAndRewardsHash(_self, _dailyTimestamp, _rewardsHash);\n            return sum;\n        }\n        return 0;\n    }\n\n    /**\n    * @dev Get parameter's value\n    * @param _self Data pointer to storage\n    * @param _name ParameterName name of the parameter\n    * @param _dailyTimestamp uint256 the daily reward timestamp (midnight UTC of each day)\n    */\n    function getParameterValue(\n        Data storage _self,\n        ParameterName _name,\n        uint256 _dailyTimestamp\n    )\n        public\n        view\n        returns (uint256)\n    {\n        Parameter memory param = _self.parameters[getParameterKey(_name)];\n        if (_dailyTimestamp >= param.updateTimestamp) {\n            return param.currentValue;\n        } else {\n            return param.previousValue;\n        }\n    }\n\n    /**\n    * @dev Get parameter's bytes32 encoding\n    * @param _name ParameterName name of the parameter\n    */\n    function getParameterKey(ParameterName _name)\n        public\n        pure\n        returns (bytes32)\n    {\n        return keccak256(abi.encodePacked(_name));\n    }\n\n    /**\n    * @dev Allows the controller/owner to update rewards parameters\n    * @param _self Data pointer to storage\n    * @param _name ParameterName name of the parameter\n    * @param _value uint256 new value for the parameter\n    * @param _timestamp starting when should this parameter use the current value\n    */\n    function updateParameter(\n        Data storage _self,\n        ParameterName _name,\n        uint256 _value,\n        uint256 _timestamp\n    )\n        public\n        returns (bytes32)\n    {\n        bytes32 paramKey = getParameterKey(_name);\n        if (_timestamp <= _self.parameters[paramKey].updateTimestamp) {\n           _self.parameters[paramKey].currentValue = _value;\n           _self.parameters[paramKey].updateTimestamp = _timestamp;\n        } else {\n            _self.parameters[paramKey].previousValue = _self.parameters[paramKey].currentValue;\n            _self.parameters[paramKey].currentValue = _value;\n           _self.parameters[paramKey].updateTimestamp = _timestamp;\n        }\n        return paramKey;\n    }\n\n    /**\n    * @dev Allows an application to add/update its details\n    * @param _self Data pointer to storage\n    * @param _name bytes32 name of the app\n    * @param _rewardsAddress address an address for the app to receive the rewards\n    * @param _sidechainAddress address the address used for using the sidechain\n    */\n    function updateApplication(\n        Data storage _self,\n        bytes32 _name,\n        address _rewardsAddress,\n        address _sidechainAddress\n    )\n        public\n        onlyValidAddresses(_rewardsAddress, _sidechainAddress)\n        returns (bool)\n    {\n        _self.applications[msg.sender].name = _name;\n        _self.applications[msg.sender].rewardsAddress = _rewardsAddress;\n        _self.applications[msg.sender].sidechainAddress = _sidechainAddress;\n        if (_self.applications[msg.sender].initializedState == 0) {\n            _self.applicationsList.push(msg.sender);\n            _self.applications[msg.sender].initializedState = 1;\n            _self.applications[msg.sender].entityType = RewardedEntityType.Application;\n        }\n        return true;\n    }\n\n    /**\n    * @dev Allows a validator to add/update its details\n    * @param _self Data pointer to storage\n    * @param _name bytes32 name of the validator\n    * @param _rewardsAddress address an address for the validator to receive the rewards\n    * @param _sidechainAddress address the address used for using the sidechain\n    */\n    function updateValidator(\n        Data storage _self,\n        bytes32 _name,\n        address _rewardsAddress,\n        address _sidechainAddress\n    )\n        public\n        onlyValidAddresses(_rewardsAddress, _sidechainAddress)\n        returns (bool)\n    {\n        _self.validators[msg.sender].name = _name;\n        _self.validators[msg.sender].rewardsAddress = _rewardsAddress;\n        _self.validators[msg.sender].sidechainAddress = _sidechainAddress;\n        if (_self.validators[msg.sender].initializedState == 0) {\n            _self.validatorsList.push(msg.sender);\n            _self.validators[msg.sender].initializedState = 1;\n            _self.validators[msg.sender].entityType = RewardedEntityType.Validator;\n        }\n        return true;\n    }\n\n    /**\n    * @dev Set new validators list\n    * @param _self Data pointer to storage\n    * @param _dailyTimestamp uint256 the daily reward timestamp from which this change should take effect\n    * @param _validators address[] array of validators\n    */\n    function setValidators(\n        Data storage _self,\n        uint256 _dailyTimestamp,\n        address[] _validators\n    )\n        public\n        onlyFutureValidValidatorsDailyTimestamp(_self, _dailyTimestamp)\n        onlyExistingValidators(_self, _validators)\n        returns (bool)\n    {\n\n        if (_self.selectedValidators.currentList.length == 0) { // first time the daily validators list is set\n            _updateCurrentEntityList(_self.selectedValidators, _validators);\n        } else {\n            if (_dailyTimestamp > _self.selectedValidators.updateTimestamp)\n                _updatePreviousEntityList(_self.selectedValidators);\n            _updateCurrentEntityList(_self.selectedValidators, _validators);\n        }\n        _self.selectedValidators.updateTimestamp = _dailyTimestamp;\n        return true;\n    }\n\n   /**\n    * @dev Set new applications list\n    * @param _self Data pointer to storage\n    * @param _dailyTimestamp uint256 the daily reward timestamp from which this change should take effect\n    * @param _applications address[] array of applications\n    */\n    function setApplications(\n        Data storage _self,\n        uint256 _dailyTimestamp,\n        address[] _applications\n    )\n        public\n        onlyExistingApplications(_self, _applications)\n        returns (bool)\n    {\n\n        if (_self.selectedApplications.currentList.length == 0) { // first time the daily validators list is set\n            _updateCurrentEntityList(_self.selectedApplications, _applications);\n        } else {\n            if (_dailyTimestamp > _self.selectedApplications.updateTimestamp)\n                _updatePreviousEntityList(_self.selectedApplications);\n            _updateCurrentEntityList(_self.selectedApplications, _applications);\n        }\n        _self.selectedApplications.updateTimestamp = _dailyTimestamp;\n        return true;\n    }\n\n    /**\n    * @dev Get applications or validators list\n    * @param _self Data pointer to storage\n    * @param _entityType RewardedEntityType either application (0) or validator (1)\n    * @param _dailyTimestamp uint256 the daily reward timestamp to determine which list to get\n    */\n    function getEntities(\n        Data storage _self,\n        RewardedEntityType _entityType,\n        uint256 _dailyTimestamp\n    )\n        public\n        view\n        returns (address[])\n    {\n        if (_entityType == RewardedEntityType.Application) {\n            if (_getSelectedRewardedEntityListType(_self.selectedApplications, _dailyTimestamp) == 0) {\n                return _self.selectedApplications.currentList;\n            } else {\n                return _self.selectedApplications.previousList;\n            }\n        } else {\n            if (_getSelectedRewardedEntityListType(_self.selectedValidators, _dailyTimestamp) == 0) {\n                return _self.selectedValidators.currentList;\n            } else {\n                return _self.selectedValidators.previousList;\n            }\n        }\n    }\n\n    /**\n    * @dev Get which entity list to use. Current = 0, previous = 1\n    * @param _rewardedEntitylist RewardedEntityList pointer to storage\n    * @param _dailyTimestamp uint256 the daily reward timestamp (midnight UTC of each day)\n    */\n    function _getSelectedRewardedEntityListType(RewardedEntityList _rewardedEntitylist, uint256 _dailyTimestamp)\n        internal\n        pure\n        returns (uint256)\n    {\n        if (_dailyTimestamp >= _rewardedEntitylist.updateTimestamp) {\n            return 0;\n        } else {\n            return 1;\n        }\n    }\n\n    /**\n    * @dev Updates the current dailyTimestamp and previous one\n    * @param _self Data pointer to storage\n    * @param _dailyTimestamp uint256 the daily reward timestamp (midnight UTC of each day)\n    */\n    function _updateDailyTimestampAndRewardsHash(Data storage _self, uint256 _dailyTimestamp, bytes32 _rewardsHash)\n        public\n        returns (bool)\n    {\n        if (_self.currentDailyTimestamp == 0) { // first time daily rewards is run no previous day\n            _self.currentDailyTimestamp = _dailyTimestamp;\n        } else {\n            _self.previousDailyTimestamp = _self.currentDailyTimestamp;\n            _self.currentDailyTimestamp = _dailyTimestamp;\n            _self.previousDailyRewardsHash = _rewardsHash;\n        }\n        _self.dailyRewards[_rewardsHash].finalized = 1;\n\n        return true;\n    }\n\n    /**\n    * @dev Checks how many validators are needed for app rewards\n    * @param _self Data pointer to storage\n    * @param _dailyTimestamp uint256 the daily reward timestamp (midnight UTC of each day)\n    * @param _maxTotalSupply uint256 max total supply\n    * @param _currentTotalSupply uint256 current total supply\n    */\n    function _getMaxAppRewardsDailyAmount(\n        Data storage _self,\n        uint256 _dailyTimestamp,\n        uint256 _maxTotalSupply,\n        uint256 _currentTotalSupply\n    )\n        public\n        view\n        returns (uint256)\n    {\n        return ((_maxTotalSupply - _currentTotalSupply) *\n        getParameterValue(_self, ParameterName.ApplicationRewardsPercent, _dailyTimestamp) *\n        getParameterValue(_self, ParameterName.ApplicationRewardsMaxVariationPercent, _dailyTimestamp)) / 1e8;\n    }\n\n\n    /**\n    * @dev Checks how many validators are needed for app rewards\n    * @param _self Data pointer to storage\n    * @param _dailyTimestamp uint256 the daily reward timestamp (midnight UTC of each day)\n    * @param _numOfValidators uint256 number of validators\n    * @param _maxTotalSupply uint256 max total supply\n    * @param _currentTotalSupply uint256 current total supply\n    */\n    function _getValidatorRewardsDailyAmountPerValidator(\n        Data storage _self,\n        uint256 _dailyTimestamp,\n        uint256 _numOfValidators,\n        uint256 _maxTotalSupply,\n        uint256 _currentTotalSupply\n    )\n        public\n        view\n        returns (uint256)\n    {\n        return (((_maxTotalSupply - _currentTotalSupply) *\n        getParameterValue(_self, ParameterName.ValidatorRewardsPercent, _dailyTimestamp)) / 1e8) / _numOfValidators;\n    }\n\n    /**\n    * @dev Checks if app daily rewards amount is valid\n    * @param _self Data pointer to storage\n    * @param _applications address[] array of application addresses getting the daily reward\n    * @param _amounts uint256[] array of amounts each app should get\n    */\n    function _validateSubmittedData(\n        Data storage _self,\n        address[] _applications,\n        uint256[] _amounts\n    )\n        public\n        view\n        returns (uint256)\n    {\n        uint256 sum;\n        bool valid = true;\n        for (uint256 i = 0; i < _amounts.length; i++) {\n             sum += _amounts[i];\n            if (_self.applications[_applications[i]].initializedState != 1) valid = false;\n        }\n        require(\n                sum > 0 && valid,\n                \"Sum zero or none existing app submitted\"\n        );\n        return sum;\n    }\n\n    /**\n    * @dev Checks if submitted data matches reward hash\n    * @param _dailyTimestamp uint256 the daily reward timestamp (midnight UTC of each day)\n    * @param _rewardsHash bytes32 hash of the rewards data\n    * @param _applications address[] array of application addresses getting the daily reward\n    * @param _amounts uint256[] array of amounts each app should get\n    */\n    function _rewardHashIsvalid(\n        uint256 _dailyTimestamp,\n        bytes32 _rewardsHash,\n        address[] _applications,\n        uint256[] _amounts\n    )\n        public\n        pure\n        returns (bool)\n    {\n        return keccak256(abi.encodePacked(_dailyTimestamp, _applications, _amounts)) == _rewardsHash;\n    }\n\n    /**\n    * @dev Checks how many validators are needed for app rewards\n    * @param _self Data pointer to storage\n    * @param _dailyTimestamp uint256 the daily reward timestamp (midnight UTC of each day)\n    */\n    function _requiredValidatorsForValidatorsRewards(Data storage _self, uint256 _dailyTimestamp)\n        public\n        view\n        returns (uint256)\n    {\n        if (_getSelectedRewardedEntityListType(_self.selectedValidators, _dailyTimestamp) == 0) {\n            return _self.selectedValidators.currentList.length;\n        } else {\n            return _self.selectedValidators.previousList.length;\n        }\n    }\n\n    /**\n    * @dev Checks how many validators are needed for app rewards\n    * @param _self Data pointer to storage\n    * @param _dailyTimestamp uint256 the daily reward timestamp (midnight UTC of each day)\n    */\n    function _requiredValidatorsForAppRewards(Data storage _self, uint256 _dailyTimestamp)\n        public\n        view\n        returns (uint256)\n    {\n        if (_getSelectedRewardedEntityListType(_self.selectedValidators, _dailyTimestamp) == 0) {\n            return ((_self.selectedValidators.currentList.length * getParameterValue(_self, ParameterName.ValidatorMajorityPercent, _dailyTimestamp)) / 1e8)+1;\n        } else {\n            return ((_self.selectedValidators.previousList.length * getParameterValue(_self, ParameterName.ValidatorMajorityPercent, _dailyTimestamp)) / 1e8)+1;\n        }\n    }\n\n    /**\n    * @dev Update current daily applications list.\n    * If new, push.\n    * If same size, replace\n    * If different size, delete, and then push.\n    * @param _rewardedEntitylist RewardedEntityList pointer to storage\n    * @param _entities address[] array of entities\n    */\n    //_updateCurrentEntityList(_rewardedEntitylist, _entities,_rewardedEntityType),\n    function _updateCurrentEntityList(\n        RewardedEntityList storage _rewardedEntitylist,\n        address[] _entities\n    )\n        internal\n        returns (bool)\n    {\n        bool emptyCurrentList = _rewardedEntitylist.currentList.length == 0;\n        if (!emptyCurrentList && _rewardedEntitylist.currentList.length != _entities.length) {\n            _deleteCurrentEntityList(_rewardedEntitylist);\n            emptyCurrentList = true;\n        }\n\n        for (uint256 i = 0; i < _entities.length; i++) {\n            if (emptyCurrentList) {\n                _rewardedEntitylist.currentList.push(_entities[i]);\n            } else {\n                _rewardedEntitylist.currentList[i] = _entities[i];\n            }\n            _rewardedEntitylist.current[_entities[i]] = true;\n        }\n        return true;\n    }\n\n    /**\n    * @dev Update previous daily list\n    * @param _rewardedEntitylist RewardedEntityList pointer to storage\n    */\n    function _updatePreviousEntityList(RewardedEntityList storage _rewardedEntitylist)\n        internal\n        returns (bool)\n    {\n        bool emptyPreviousList = _rewardedEntitylist.previousList.length == 0;\n        if (\n            !emptyPreviousList &&\n            _rewardedEntitylist.previousList.length != _rewardedEntitylist.currentList.length\n        ) {\n            _deletePreviousEntityList(_rewardedEntitylist);\n            emptyPreviousList = true;\n        }\n        for (uint256 i = 0; i < _rewardedEntitylist.currentList.length; i++) {\n            if (emptyPreviousList) {\n                _rewardedEntitylist.previousList.push(_rewardedEntitylist.currentList[i]);\n            } else {\n                _rewardedEntitylist.previousList[i] = _rewardedEntitylist.currentList[i];\n            }\n            _rewardedEntitylist.previous[_rewardedEntitylist.currentList[i]] = true;\n        }\n        return true;\n    }\n\n    /**\n    * @dev Delete existing values from the current list\n    * @param _rewardedEntitylist RewardedEntityList pointer to storage\n    */\n    function _deleteCurrentEntityList(RewardedEntityList storage _rewardedEntitylist)\n        internal\n        returns (bool)\n    {\n        for (uint256 i = 0; i < _rewardedEntitylist.currentList.length ; i++) {\n             delete _rewardedEntitylist.current[_rewardedEntitylist.currentList[i]];\n        }\n        delete  _rewardedEntitylist.currentList;\n        return true;\n    }\n\n    /**\n    * @dev Delete existing values from the previous applications list\n    * @param _rewardedEntitylist RewardedEntityList pointer to storage\n    */\n    function _deletePreviousEntityList(RewardedEntityList storage _rewardedEntitylist)\n        internal\n        returns (bool)\n    {\n        for (uint256 i = 0; i < _rewardedEntitylist.previousList.length ; i++) {\n            delete _rewardedEntitylist.previous[_rewardedEntitylist.previousList[i]];\n        }\n        delete _rewardedEntitylist.previousList;\n        return true;\n    }\n}",
  "sourcePath": "/Users/jretina/Programming/PROPSProject/props-token-distribution/contracts/token/PropsRewardsLib.sol",
  "compiler": {
    "name": "solc",
    "version": "0.4.24+commit.e67f0147.Emscripten.clang"
  },
  "schemaVersion": "2.0.1",
  "updatedAt": "2019-05-15T16:12:20.499Z"
}