{
  "contractName": "PropsToken",
  "abi": [
    {
      "constant": false,
      "inputs": [
        {
          "name": "_controller",
          "type": "address"
        }
      ],
      "name": "updateController",
      "outputs": [
        {
          "name": "",
          "type": "bool"
        }
      ],
      "payable": false,
      "stateMutability": "nonpayable",
      "type": "function"
    },
    {
      "constant": true,
      "inputs": [],
      "name": "name",
      "outputs": [
        {
          "name": "",
          "type": "string"
        }
      ],
      "payable": false,
      "stateMutability": "view",
      "type": "function"
    },
    {
      "constant": false,
      "inputs": [
        {
          "name": "spender",
          "type": "address"
        },
        {
          "name": "value",
          "type": "uint256"
        }
      ],
      "name": "approve",
      "outputs": [
        {
          "name": "",
          "type": "bool"
        }
      ],
      "payable": false,
      "stateMutability": "nonpayable",
      "type": "function"
    },
    {
      "constant": true,
      "inputs": [
        {
          "name": "_entityType",
          "type": "uint8"
        },
        {
          "name": "_rewardsDay",
          "type": "uint256"
        }
      ],
      "name": "getEntities",
      "outputs": [
        {
          "name": "",
          "type": "address[]"
        }
      ],
      "payable": false,
      "stateMutability": "view",
      "type": "function"
    },
    {
      "constant": true,
      "inputs": [
        {
          "name": "_token",
          "type": "address"
        },
        {
          "name": "_to",
          "type": "address"
        },
        {
          "name": "_value",
          "type": "uint256"
        },
        {
          "name": "_fee",
          "type": "uint256"
        },
        {
          "name": "_nonce",
          "type": "uint256"
        }
      ],
      "name": "getTransferPreSignedHash",
      "outputs": [
        {
          "name": "",
          "type": "bytes32"
        }
      ],
      "payable": false,
      "stateMutability": "pure",
      "type": "function"
    },
    {
      "constant": false,
      "inputs": [
        {
          "name": "_signature",
          "type": "bytes"
        },
        {
          "name": "_to",
          "type": "address"
        },
        {
          "name": "_value",
          "type": "uint256"
        },
        {
          "name": "_fee",
          "type": "uint256"
        },
        {
          "name": "_nonce",
          "type": "uint256"
        }
      ],
      "name": "transferPreSigned",
      "outputs": [
        {
          "name": "",
          "type": "bool"
        }
      ],
      "payable": false,
      "stateMutability": "nonpayable",
      "type": "function"
    },
    {
      "constant": true,
      "inputs": [
        {
          "name": "_token",
          "type": "address"
        },
        {
          "name": "_spender",
          "type": "address"
        },
        {
          "name": "_addedValue",
          "type": "uint256"
        },
        {
          "name": "_fee",
          "type": "uint256"
        },
        {
          "name": "_nonce",
          "type": "uint256"
        }
      ],
      "name": "getIncreaseAllowancePreSignedHash",
      "outputs": [
        {
          "name": "",
          "type": "bytes32"
        }
      ],
      "payable": false,
      "stateMutability": "pure",
      "type": "function"
    },
    {
      "constant": false,
      "inputs": [
        {
          "name": "_name",
          "type": "uint8"
        },
        {
          "name": "_value",
          "type": "uint256"
        },
        {
          "name": "_rewardsDay",
          "type": "uint256"
        }
      ],
      "name": "updateParameter",
      "outputs": [
        {
          "name": "",
          "type": "bool"
        }
      ],
      "payable": false,
      "stateMutability": "nonpayable",
      "type": "function"
    },
    {
      "constant": true,
      "inputs": [],
      "name": "totalSupply",
      "outputs": [
        {
          "name": "",
          "type": "uint256"
        }
      ],
      "payable": false,
      "stateMutability": "view",
      "type": "function"
    },
    {
      "constant": false,
      "inputs": [
        {
          "name": "from",
          "type": "address"
        },
        {
          "name": "to",
          "type": "address"
        },
        {
          "name": "value",
          "type": "uint256"
        }
      ],
      "name": "transferFrom",
      "outputs": [
        {
          "name": "",
          "type": "bool"
        }
      ],
      "payable": false,
      "stateMutability": "nonpayable",
      "type": "function"
    },
    {
      "constant": true,
      "inputs": [],
      "name": "maxTotalSupply",
      "outputs": [
        {
          "name": "",
          "type": "uint256"
        }
      ],
      "payable": false,
      "stateMutability": "view",
      "type": "function"
    },
    {
      "constant": true,
      "inputs": [],
      "name": "decimals",
      "outputs": [
        {
          "name": "",
          "type": "uint8"
        }
      ],
      "payable": false,
      "stateMutability": "view",
      "type": "function"
    },
    {
      "constant": false,
      "inputs": [
        {
          "name": "spender",
          "type": "address"
        },
        {
          "name": "addedValue",
          "type": "uint256"
        }
      ],
      "name": "increaseAllowance",
      "outputs": [
        {
          "name": "",
          "type": "bool"
        }
      ],
      "payable": false,
      "stateMutability": "nonpayable",
      "type": "function"
    },
    {
      "constant": true,
      "inputs": [],
      "name": "canTransferBeforeStartTime",
      "outputs": [
        {
          "name": "",
          "type": "address"
        }
      ],
      "payable": false,
      "stateMutability": "view",
      "type": "function"
    },
    {
      "constant": true,
      "inputs": [
        {
          "name": "_name",
          "type": "uint8"
        },
        {
          "name": "_rewardsDay",
          "type": "uint256"
        }
      ],
      "name": "getParameter",
      "outputs": [
        {
          "name": "",
          "type": "uint256"
        }
      ],
      "payable": false,
      "stateMutability": "view",
      "type": "function"
    },
    {
      "constant": true,
      "inputs": [
        {
          "name": "_token",
          "type": "address"
        },
        {
          "name": "_spender",
          "type": "address"
        },
        {
          "name": "_subtractedValue",
          "type": "uint256"
        },
        {
          "name": "_fee",
          "type": "uint256"
        },
        {
          "name": "_nonce",
          "type": "uint256"
        }
      ],
      "name": "getDecreaseAllowancePreSignedHash",
      "outputs": [
        {
          "name": "",
          "type": "bytes32"
        }
      ],
      "payable": false,
      "stateMutability": "pure",
      "type": "function"
    },
    {
      "constant": false,
      "inputs": [
        {
          "name": "_rewardsDay",
          "type": "uint256"
        },
        {
          "name": "_rewardsHash",
          "type": "bytes32"
        },
        {
          "name": "_applications",
          "type": "address[]"
        },
        {
          "name": "_amounts",
          "type": "uint256[]"
        }
      ],
      "name": "submitDailyRewards",
      "outputs": [
        {
          "name": "",
          "type": "bool"
        }
      ],
      "payable": false,
      "stateMutability": "nonpayable",
      "type": "function"
    },
    {
      "constant": false,
      "inputs": [
        {
          "name": "_signature",
          "type": "bytes"
        },
        {
          "name": "_spender",
          "type": "address"
        },
        {
          "name": "_value",
          "type": "uint256"
        },
        {
          "name": "_fee",
          "type": "uint256"
        },
        {
          "name": "_nonce",
          "type": "uint256"
        }
      ],
      "name": "approvePreSigned",
      "outputs": [
        {
          "name": "",
          "type": "bool"
        }
      ],
      "payable": false,
      "stateMutability": "nonpayable",
      "type": "function"
    },
    {
      "constant": true,
      "inputs": [],
      "name": "rewardsStartTimestamp",
      "outputs": [
        {
          "name": "",
          "type": "uint256"
        }
      ],
      "payable": false,
      "stateMutability": "view",
      "type": "function"
    },
    {
      "constant": true,
      "inputs": [
        {
          "name": "owner",
          "type": "address"
        }
      ],
      "name": "balanceOf",
      "outputs": [
        {
          "name": "",
          "type": "uint256"
        }
      ],
      "payable": false,
      "stateMutability": "view",
      "type": "function"
    },
    {
      "constant": false,
      "inputs": [
        {
          "name": "_rewardsDay",
          "type": "uint256"
        },
        {
          "name": "_applications",
          "type": "address[]"
        }
      ],
      "name": "setApplications",
      "outputs": [
        {
          "name": "",
          "type": "bool"
        }
      ],
      "payable": false,
      "stateMutability": "nonpayable",
      "type": "function"
    },
    {
      "constant": true,
      "inputs": [
        {
          "name": "_token",
          "type": "address"
        },
        {
          "name": "_spender",
          "type": "address"
        },
        {
          "name": "_value",
          "type": "uint256"
        },
        {
          "name": "_fee",
          "type": "uint256"
        },
        {
          "name": "_nonce",
          "type": "uint256"
        }
      ],
      "name": "getApprovePreSignedHash",
      "outputs": [
        {
          "name": "",
          "type": "bytes32"
        }
      ],
      "payable": false,
      "stateMutability": "pure",
      "type": "function"
    },
    {
      "constant": true,
      "inputs": [],
      "name": "symbol",
      "outputs": [
        {
          "name": "",
          "type": "string"
        }
      ],
      "payable": false,
      "stateMutability": "view",
      "type": "function"
    },
    {
      "constant": false,
      "inputs": [
        {
          "name": "_entityType",
          "type": "uint8"
        },
        {
          "name": "_name",
          "type": "bytes32"
        },
        {
          "name": "_rewardsAddress",
          "type": "address"
        },
        {
          "name": "_sidechainAddress",
          "type": "address"
        }
      ],
      "name": "updateEntity",
      "outputs": [
        {
          "name": "",
          "type": "bool"
        }
      ],
      "payable": false,
      "stateMutability": "nonpayable",
      "type": "function"
    },
    {
      "constant": false,
      "inputs": [
        {
          "name": "spender",
          "type": "address"
        },
        {
          "name": "subtractedValue",
          "type": "uint256"
        }
      ],
      "name": "decreaseAllowance",
      "outputs": [
        {
          "name": "",
          "type": "bool"
        }
      ],
      "payable": false,
      "stateMutability": "nonpayable",
      "type": "function"
    },
    {
      "constant": true,
      "inputs": [
        {
          "name": "_token",
          "type": "address"
        },
        {
          "name": "_from",
          "type": "address"
        },
        {
          "name": "_to",
          "type": "address"
        },
        {
          "name": "_value",
          "type": "uint256"
        },
        {
          "name": "_fee",
          "type": "uint256"
        },
        {
          "name": "_nonce",
          "type": "uint256"
        }
      ],
      "name": "getTransferFromPreSignedHash",
      "outputs": [
        {
          "name": "",
          "type": "bytes32"
        }
      ],
      "payable": false,
      "stateMutability": "pure",
      "type": "function"
    },
    {
      "constant": false,
      "inputs": [
        {
          "name": "to",
          "type": "address"
        },
        {
          "name": "value",
          "type": "uint256"
        }
      ],
      "name": "transfer",
      "outputs": [
        {
          "name": "",
          "type": "bool"
        }
      ],
      "payable": false,
      "stateMutability": "nonpayable",
      "type": "function"
    },
    {
      "constant": false,
      "inputs": [
        {
          "name": "_signature",
          "type": "bytes"
        },
        {
          "name": "_from",
          "type": "address"
        },
        {
          "name": "_to",
          "type": "address"
        },
        {
          "name": "_value",
          "type": "uint256"
        },
        {
          "name": "_fee",
          "type": "uint256"
        },
        {
          "name": "_nonce",
          "type": "uint256"
        }
      ],
      "name": "transferFromPreSigned",
      "outputs": [
        {
          "name": "",
          "type": "bool"
        }
      ],
      "payable": false,
      "stateMutability": "nonpayable",
      "type": "function"
    },
    {
      "constant": false,
      "inputs": [
        {
          "name": "_applicationAddress",
          "type": "address"
        },
        {
          "name": "_userId",
          "type": "bytes32"
        },
        {
          "name": "_to",
          "type": "address"
        },
        {
          "name": "_amount",
          "type": "uint256"
        }
      ],
      "name": "settle",
      "outputs": [
        {
          "name": "",
          "type": "bool"
        }
      ],
      "payable": false,
      "stateMutability": "nonpayable",
      "type": "function"
    },
    {
      "constant": true,
      "inputs": [],
      "name": "transfersStartTime",
      "outputs": [
        {
          "name": "",
          "type": "uint256"
        }
      ],
      "payable": false,
      "stateMutability": "view",
      "type": "function"
    },
    {
      "constant": true,
      "inputs": [
        {
          "name": "owner",
          "type": "address"
        },
        {
          "name": "spender",
          "type": "address"
        }
      ],
      "name": "allowance",
      "outputs": [
        {
          "name": "",
          "type": "uint256"
        }
      ],
      "payable": false,
      "stateMutability": "view",
      "type": "function"
    },
    {
      "constant": false,
      "inputs": [
        {
          "name": "_rewardsDay",
          "type": "uint256"
        },
        {
          "name": "_validators",
          "type": "address[]"
        }
      ],
      "name": "setValidators",
      "outputs": [
        {
          "name": "",
          "type": "bool"
        }
      ],
      "payable": false,
      "stateMutability": "nonpayable",
      "type": "function"
    },
    {
      "constant": false,
      "inputs": [
        {
          "name": "_controller",
          "type": "address"
        },
        {
          "name": "_minSecondsBetweenDays",
          "type": "uint256"
        },
        {
          "name": "_rewardsStartTimestamp",
          "type": "uint256"
        }
      ],
      "name": "initializePostRewardsUpgrade1",
      "outputs": [],
      "payable": false,
      "stateMutability": "nonpayable",
      "type": "function"
    },
    {
      "constant": false,
      "inputs": [
        {
          "name": "_signature",
          "type": "bytes"
        },
        {
          "name": "_spender",
          "type": "address"
        },
        {
          "name": "_subtractedValue",
          "type": "uint256"
        },
        {
          "name": "_fee",
          "type": "uint256"
        },
        {
          "name": "_nonce",
          "type": "uint256"
        }
      ],
      "name": "decreaseAllowancePreSigned",
      "outputs": [
        {
          "name": "",
          "type": "bool"
        }
      ],
      "payable": false,
      "stateMutability": "nonpayable",
      "type": "function"
    },
    {
      "constant": true,
      "inputs": [],
      "name": "controller",
      "outputs": [
        {
          "name": "",
          "type": "address"
        }
      ],
      "payable": false,
      "stateMutability": "view",
      "type": "function"
    },
    {
      "constant": false,
      "inputs": [
        {
          "name": "_signature",
          "type": "bytes"
        },
        {
          "name": "_spender",
          "type": "address"
        },
        {
          "name": "_addedValue",
          "type": "uint256"
        },
        {
          "name": "_fee",
          "type": "uint256"
        },
        {
          "name": "_nonce",
          "type": "uint256"
        }
      ],
      "name": "increaseAllowancePreSigned",
      "outputs": [
        {
          "name": "",
          "type": "bool"
        }
      ],
      "payable": false,
      "stateMutability": "nonpayable",
      "type": "function"
    },
    {
      "anonymous": false,
      "inputs": [
        {
          "indexed": true,
          "name": "rewardsDay",
          "type": "uint256"
        },
        {
          "indexed": true,
          "name": "rewardsHash",
          "type": "bytes32"
        },
        {
          "indexed": true,
          "name": "validator",
          "type": "address"
        }
      ],
      "name": "DailyRewardsSubmitted",
      "type": "event"
    },
    {
      "anonymous": false,
      "inputs": [
        {
          "indexed": true,
          "name": "rewardsDay",
          "type": "uint256"
        },
        {
          "indexed": true,
          "name": "rewardsHash",
          "type": "bytes32"
        },
        {
          "indexed": false,
          "name": "numOfApplications",
          "type": "uint256"
        },
        {
          "indexed": false,
          "name": "amount",
          "type": "uint256"
        }
      ],
      "name": "DailyRewardsApplicationsMinted",
      "type": "event"
    },
    {
      "anonymous": false,
      "inputs": [
        {
          "indexed": true,
          "name": "rewardsDay",
          "type": "uint256"
        },
        {
          "indexed": true,
          "name": "rewardsHash",
          "type": "bytes32"
        },
        {
          "indexed": false,
          "name": "numOfValidators",
          "type": "uint256"
        },
        {
          "indexed": false,
          "name": "amount",
          "type": "uint256"
        }
      ],
      "name": "DailyRewardsValidatorsMinted",
      "type": "event"
    },
    {
      "anonymous": false,
      "inputs": [
        {
          "indexed": true,
          "name": "id",
          "type": "address"
        },
        {
          "indexed": true,
          "name": "entityType",
          "type": "uint8"
        },
        {
          "indexed": false,
          "name": "name",
          "type": "bytes32"
        },
        {
          "indexed": false,
          "name": "rewardsAddress",
          "type": "address"
        },
        {
          "indexed": true,
          "name": "sidechainAddress",
          "type": "address"
        }
      ],
      "name": "EntityUpdated",
      "type": "event"
    },
    {
      "anonymous": false,
      "inputs": [
        {
          "indexed": false,
          "name": "param",
          "type": "uint8"
        },
        {
          "indexed": false,
          "name": "newValue",
          "type": "uint256"
        },
        {
          "indexed": false,
          "name": "oldValue",
          "type": "uint256"
        },
        {
          "indexed": false,
          "name": "rewardsDay",
          "type": "uint256"
        }
      ],
      "name": "ParameterUpdated",
      "type": "event"
    },
    {
      "anonymous": false,
      "inputs": [
        {
          "indexed": false,
          "name": "validatorsList",
          "type": "address[]"
        },
        {
          "indexed": true,
          "name": "rewardsDay",
          "type": "uint256"
        }
      ],
      "name": "ValidatorsListUpdated",
      "type": "event"
    },
    {
      "anonymous": false,
      "inputs": [
        {
          "indexed": false,
          "name": "applicationsList",
          "type": "address[]"
        },
        {
          "indexed": true,
          "name": "rewardsDay",
          "type": "uint256"
        }
      ],
      "name": "ApplicationsListUpdated",
      "type": "event"
    },
    {
      "anonymous": false,
      "inputs": [
        {
          "indexed": true,
          "name": "newController",
          "type": "address"
        }
      ],
      "name": "ControllerUpdated",
      "type": "event"
    },
    {
      "anonymous": false,
      "inputs": [
        {
          "indexed": true,
          "name": "applicationId",
          "type": "address"
        },
        {
          "indexed": true,
          "name": "userId",
          "type": "bytes32"
        },
        {
          "indexed": true,
          "name": "to",
          "type": "address"
        },
        {
          "indexed": false,
          "name": "amount",
          "type": "uint256"
        },
        {
          "indexed": false,
          "name": "rewardsAddress",
          "type": "address"
        }
      ],
      "name": "Settlement",
      "type": "event"
    },
    {
      "anonymous": false,
      "inputs": [
        {
          "indexed": true,
          "name": "from",
          "type": "address"
        },
        {
          "indexed": true,
          "name": "to",
          "type": "address"
        },
        {
          "indexed": true,
          "name": "delegate",
          "type": "address"
        },
        {
          "indexed": false,
          "name": "amount",
          "type": "uint256"
        },
        {
          "indexed": false,
          "name": "fee",
          "type": "uint256"
        }
      ],
      "name": "TransferPreSigned",
      "type": "event"
    },
    {
      "anonymous": false,
      "inputs": [
        {
          "indexed": true,
          "name": "from",
          "type": "address"
        },
        {
          "indexed": true,
          "name": "to",
          "type": "address"
        },
        {
          "indexed": true,
          "name": "delegate",
          "type": "address"
        },
        {
          "indexed": false,
          "name": "amount",
          "type": "uint256"
        },
        {
          "indexed": false,
          "name": "fee",
          "type": "uint256"
        }
      ],
      "name": "ApprovalPreSigned",
      "type": "event"
    },
    {
      "anonymous": false,
      "inputs": [
        {
          "indexed": true,
          "name": "from",
          "type": "address"
        },
        {
          "indexed": true,
          "name": "to",
          "type": "address"
        },
        {
          "indexed": false,
          "name": "value",
          "type": "uint256"
        }
      ],
      "name": "Transfer",
      "type": "event"
    },
    {
      "anonymous": false,
      "inputs": [
        {
          "indexed": true,
          "name": "owner",
          "type": "address"
        },
        {
          "indexed": true,
          "name": "spender",
          "type": "address"
        },
        {
          "indexed": false,
          "name": "value",
          "type": "uint256"
        }
      ],
      "name": "Approval",
      "type": "event"
    },
    {
      "constant": false,
      "inputs": [
        {
          "name": "name",
          "type": "string"
        },
        {
          "name": "symbol",
          "type": "string"
        },
        {
          "name": "decimals",
          "type": "uint8"
        }
      ],
      "name": "initialize",
      "outputs": [],
      "payable": false,
      "stateMutability": "nonpayable",
      "type": "function"
    },
    {
      "constant": false,
      "inputs": [
        {
          "name": "_holder",
          "type": "address"
        },
        {
          "name": "_controller",
          "type": "address"
        },
        {
          "name": "_minSecondsBetweenDays",
          "type": "uint256"
        },
        {
          "name": "_rewardsStartTimestamp",
          "type": "uint256"
        }
      ],
      "name": "initialize",
      "outputs": [],
      "payable": false,
      "stateMutability": "nonpayable",
      "type": "function"
    }
  ],
  "bytecode": "0x608060405234801561001057600080fd5b506159e980620000216000396000f3006080604052600436106101d8576000357c0100000000000000000000000000000000000000000000000000000000900463ffffffff16806306cb5b66146101dd57806306fdde0314610238578063095ea7b3146102c8578063098bfa9f1461032d5780630d98dcb1146103bc5780631296830d14610459578063138e8da1146105185780631624f6c6146105b5578063162663001461067157806318160ddd146106cd57806323b872dd146106f85780632ab4d0521461077d578063313ce567146107a857806339509351146107d957806345b6d7dc1461083e5780634f92caf8146108955780635229c56f146108e357806357ece4bc14610980578063617b390b14610a595780636356850214610b1857806370a0823114610b435780637492fdda14610b9a57806379250dcf14610c2257806395d89b4114610cbf57806396e8832714610d4f578063a457c2d714610de5578063a70c41b414610e4a578063a9059cbb14610f07578063bca5051514610f6c578063c7ed71a51461104b578063d0f22e9c146110de578063dd62ed3e14611109578063e795594d14611180578063e9d2c4b314611208578063eb990c591461125f578063f2959d6e146112d6578063f77c479114611395578063f80801d0146113ec575b600080fd5b3480156101e957600080fd5b5061021e600480360381019080803573ffffffffffffffffffffffffffffffffffffffff1690602001909291905050506114ab565b604051808215151515815260200191505060405180910390f35b34801561024457600080fd5b5061024d6116ca565b6040518080602001828103825283818151815260200191508051906020019080838360005b8381101561028d578082015181840152602081019050610272565b50505050905090810190601f1680156102ba5780820380516001836020036101000a031916815260200191505b509250505060405180910390f35b3480156102d457600080fd5b50610313600480360381019080803573ffffffffffffffffffffffffffffffffffffffff1690602001909291908035906020019092919050505061176c565b604051808215151515815260200191505060405180910390f35b34801561033957600080fd5b50610365600480360381019080803560ff16906020019092919080359060200190929190505050611783565b6040518080602001828103825283818151815260200191508051906020019060200280838360005b838110156103a857808201518184015260208101905061038d565b505050509050019250505060405180910390f35b3480156103c857600080fd5b5061043b600480360381019080803573ffffffffffffffffffffffffffffffffffffffff169060200190929190803573ffffffffffffffffffffffffffffffffffffffff1690602001909291908035906020019092919080359060200190929190803590602001909291905050506118a8565b60405180826000191660001916815260200191505060405180910390f35b34801561046557600080fd5b506104fe600480360381019080803590602001908201803590602001908080601f0160208091040260200160405190810160405280939291908181526020018383808284378201915050505050509192919290803573ffffffffffffffffffffffffffffffffffffffff169060200190929190803590602001909291908035906020019092919080359060200190929190505050611a36565b604051808215151515815260200191505060405180910390f35b34801561052457600080fd5b50610597600480360381019080803573ffffffffffffffffffffffffffffffffffffffff169060200190929190803573ffffffffffffffffffffffffffffffffffffffff169060200190929190803590602001909291908035906020019092919080359060200190929190505050611e18565b60405180826000191660001916815260200191505060405180910390f35b3480156105c157600080fd5b5061066f600480360381019080803590602001908201803590602001908080601f0160208091040260200160405190810160405280939291908181526020018383808284378201915050505050509192919290803590602001908201803590602001908080601f0160208091040260200160405190810160405280939291908181526020018383808284378201915050505050509192919290803560ff169060200190929190505050611fa6565b005b34801561067d57600080fd5b506106b3600480360381019080803560ff1690602001909291908035906020019092919080359060200190929190505050612127565b604051808215151515815260200191505060405180910390f35b3480156106d957600080fd5b506106e2612390565b6040518082815260200191505060405180910390f35b34801561070457600080fd5b50610763600480360381019080803573ffffffffffffffffffffffffffffffffffffffff169060200190929190803573ffffffffffffffffffffffffffffffffffffffff1690602001909291908035906020019092919050505061239a565b604051808215151515815260200191505060405180910390f35b34801561078957600080fd5b5061079261244b565b6040518082815260200191505060405180910390f35b3480156107b457600080fd5b506107bd612451565b604051808260ff1660ff16815260200191505060405180910390f35b3480156107e557600080fd5b50610824600480360381019080803573ffffffffffffffffffffffffffffffffffffffff16906020019092919080359060200190929190505050612468565b604051808215151515815260200191505060405180910390f35b34801561084a57600080fd5b5061085361250d565b604051808273ffffffffffffffffffffffffffffffffffffffff1673ffffffffffffffffffffffffffffffffffffffff16815260200191505060405180910390f35b3480156108a157600080fd5b506108cd600480360381019080803560ff16906020019092919080359060200190929190505050612533565b6040518082815260200191505060405180910390f35b3480156108ef57600080fd5b50610962600480360381019080803573ffffffffffffffffffffffffffffffffffffffff169060200190929190803573ffffffffffffffffffffffffffffffffffffffff169060200190929190803590602001909291908035906020019092919080359060200190929190505050612602565b60405180826000191660001916815260200191505060405180910390f35b34801561098c57600080fd5b50610a3f6004803603810190808035906020019092919080356000191690602001909291908035906020019082018035906020019080806020026020016040519081016040528093929190818152602001838360200280828437820191505050505050919291929080359060200190820180359060200190808060200260200160405190810160405280939291908181526020018383602002808284378201915050505050509192919290505050612790565b604051808215151515815260200191505060405180910390f35b348015610a6557600080fd5b50610afe600480360381019080803590602001908201803590602001908080601f0160208091040260200160405190810160405280939291908181526020018383808284378201915050505050509192919290803573ffffffffffffffffffffffffffffffffffffffff169060200190929190803590602001909291908035906020019092919080359060200190929190505050612b5d565b604051808215151515815260200191505060405180910390f35b348015610b2457600080fd5b50610b2d612f3f565b6040518082815260200191505060405180910390f35b348015610b4f57600080fd5b50610b84600480360381019080803573ffffffffffffffffffffffffffffffffffffffff169060200190929190505050612f45565b6040518082815260200191505060405180910390f35b348015610ba657600080fd5b50610c086004803603810190808035906020019092919080359060200190820180359060200190808060200260200160405190810160405280939291908181526020018383602002808284378201915050505050509192919290505050612f8e565b604051808215151515815260200191505060405180910390f35b348015610c2e57600080fd5b50610ca1600480360381019080803573ffffffffffffffffffffffffffffffffffffffff169060200190929190803573ffffffffffffffffffffffffffffffffffffffff1690602001909291908035906020019092919080359060200190929190803590602001909291905050506131d1565b60405180826000191660001916815260200191505060405180910390f35b348015610ccb57600080fd5b50610cd461335f565b6040518080602001828103825283818151815260200191508051906020019080838360005b83811015610d14578082015181840152602081019050610cf9565b50505050905090810190601f168015610d415780820380516001836020036101000a031916815260200191505b509250505060405180910390f35b348015610d5b57600080fd5b50610dcb600480360381019080803560ff1690602001909291908035600019169060200190929190803573ffffffffffffffffffffffffffffffffffffffff169060200190929190803573ffffffffffffffffffffffffffffffffffffffff169060200190929190505050613401565b604051808215151515815260200191505060405180910390f35b348015610df157600080fd5b50610e30600480360381019080803573ffffffffffffffffffffffffffffffffffffffff169060200190929190803590602001909291905050506135f2565b604051808215151515815260200191505060405180910390f35b348015610e5657600080fd5b50610ee9600480360381019080803573ffffffffffffffffffffffffffffffffffffffff169060200190929190803573ffffffffffffffffffffffffffffffffffffffff169060200190929190803573ffffffffffffffffffffffffffffffffffffffff169060200190929190803590602001909291908035906020019092919080359060200190929190505050613697565b60405180826000191660001916815260200191505060405180910390f35b348015610f1357600080fd5b50610f52600480360381019080803573ffffffffffffffffffffffffffffffffffffffff16906020019092919080359060200190929190505050613869565b604051808215151515815260200191505060405180910390f35b348015610f7857600080fd5b50611031600480360381019080803590602001908201803590602001908080601f0160208091040260200160405190810160405280939291908181526020018383808284378201915050505050509192919290803573ffffffffffffffffffffffffffffffffffffffff169060200190929190803573ffffffffffffffffffffffffffffffffffffffff169060200190929190803590602001909291908035906020019092919080359060200190929190505050613880565b604051808215151515815260200191505060405180910390f35b34801561105757600080fd5b506110c4600480360381019080803573ffffffffffffffffffffffffffffffffffffffff1690602001909291908035600019169060200190929190803573ffffffffffffffffffffffffffffffffffffffff16906020019092919080359060200190929190505050613cb0565b604051808215151515815260200191505060405180910390f35b3480156110ea57600080fd5b506110f3613e95565b6040518082815260200191505060405180910390f35b34801561111557600080fd5b5061116a600480360381019080803573ffffffffffffffffffffffffffffffffffffffff169060200190929190803573ffffffffffffffffffffffffffffffffffffffff169060200190929190505050613e9b565b6040518082815260200191505060405180910390f35b34801561118c57600080fd5b506111ee6004803603810190808035906020019092919080359060200190820180359060200190808060200260200160405190810160405280939291908181526020018383602002808284378201915050505050509192919290505050613f22565b604051808215151515815260200191505060405180910390f35b34801561121457600080fd5b5061125d600480360381019080803573ffffffffffffffffffffffffffffffffffffffff1690602001909291908035906020019092919080359060200190929190505050614165565b005b34801561126b57600080fd5b506112d4600480360381019080803573ffffffffffffffffffffffffffffffffffffffff169060200190929190803573ffffffffffffffffffffffffffffffffffffffff169060200190929190803590602001909291908035906020019092919050505061417d565b005b3480156112e257600080fd5b5061137b600480360381019080803590602001908201803590602001908080601f0160208091040260200160405190810160405280939291908181526020018383808284378201915050505050509192919290803573ffffffffffffffffffffffffffffffffffffffff169060200190929190803590602001909291908035906020019092919080359060200190929190505050614358565b604051808215151515815260200191505060405180910390f35b3480156113a157600080fd5b506113aa61475e565b604051808273ffffffffffffffffffffffffffffffffffffffff1673ffffffffffffffffffffffffffffffffffffffff16815260200191505060405180910390f35b3480156113f857600080fd5b50611491600480360381019080803590602001908201803590602001908080601f0160208091040260200160405190810160405280939291908181526020018383808284378201915050505050509192919290803573ffffffffffffffffffffffffffffffffffffffff169060200190929190803590602001909291908035906020019092919080359060200190929190505050614784565b604051808215151515815260200191505060405180910390f35b600060ba60009054906101000a900473ffffffffffffffffffffffffffffffffffffffff1673ffffffffffffffffffffffffffffffffffffffff163373ffffffffffffffffffffffffffffffffffffffff16141515611572576040517f08c379a00000000000000000000000000000000000000000000000000000000081526004018080602001828103825260168152602001807f4d7573742062652074686520636f6e74726f6c6c65720000000000000000000081525060200191505060405180910390fd5b600073ffffffffffffffffffffffffffffffffffffffff168273ffffffffffffffffffffffffffffffffffffffff161415151561163d576040517f08c379a00000000000000000000000000000000000000000000000000000000081526004018080602001828103825260258152602001807f436f6e74726f6c6c65722063616e6e6f7420626520746865207a65726f20616481526020017f647265737300000000000000000000000000000000000000000000000000000081525060400191505060405180910390fd5b8160ba60006101000a81548173ffffffffffffffffffffffffffffffffffffffff021916908373ffffffffffffffffffffffffffffffffffffffff1602179055508173ffffffffffffffffffffffffffffffffffffffff167f1304018cfe79741dcf02ba6b61d39cc4757d59395d03224d9925c7aa8300214660405160405180910390a260019050919050565b606060338054600181600116156101000203166002900480601f0160208091040260200160405190810160405280929190818152602001828054600181600116156101000203166002900480156117625780601f1061173757610100808354040283529160200191611762565b820191906000526020600020905b81548152906001019060200180831161174557829003601f168201915b5050505050905090565b6000611779338484614b8a565b6001905092915050565b606073__PropsRewardsLib_______________________638993273560a085856040518463ffffffff167c0100000000000000000000000000000000000000000000000000000000028152600401808481526020018360018111156117e457fe5b60ff168152602001828152602001935050505060006040518083038186803b15801561180f57600080fd5b505af4158015611823573d6000803e3d6000fd5b505050506040513d6000823e3d601f19601f82011682018060405250602081101561184d57600080fd5b81019080805164010000000081111561186557600080fd5b8281019050602081018481111561187b57600080fd5b815185602082028301116401000000008211171561189857600080fd5b5050929190505050905092915050565b6000630d98dcb17c010000000000000000000000000000000000000000000000000000000002868686868660405160200180877bffffffffffffffffffffffffffffffffffffffffffffffffffffffff19167bffffffffffffffffffffffffffffffffffffffffffffffffffffffff191681526004018673ffffffffffffffffffffffffffffffffffffffff1673ffffffffffffffffffffffffffffffffffffffff166c010000000000000000000000000281526014018573ffffffffffffffffffffffffffffffffffffffff1673ffffffffffffffffffffffffffffffffffffffff166c0100000000000000000000000002815260140184815260200183815260200182815260200196505050505050506040516020818303038152906040526040518082805190602001908083835b6020831015156119fe57805182526020820191506020810190506020830392506119d9565b6001836020036101000a0380198251168184511680821785525050505050509050019150506040518091039020905095945050505050565b600080600080600073ffffffffffffffffffffffffffffffffffffffff168873ffffffffffffffffffffffffffffffffffffffff1614151515611ae1576040517f08c379a00000000000000000000000000000000000000000000000000000000081526004018080602001828103825260138152602001807f496e76616c6964205f746f20616464726573730000000000000000000000000081525060200191505060405180910390fd5b611aee30898989896118a8565b9250611afa838a614ced565b9150600073ffffffffffffffffffffffffffffffffffffffff168273ffffffffffffffffffffffffffffffffffffffff1614151515611ba1576040517f08c379a000000000000000000000000000000000000000000000000000000000815260040180806020018281038252601e8152602001807f496e76616c69642066726f6d2061646472657373207265636f7665726564000081525060200191505060405180910390fd5b8183604051602001808373ffffffffffffffffffffffffffffffffffffffff1673ffffffffffffffffffffffffffffffffffffffff166c010000000000000000000000000281526014018260001916600019168152602001925050506040516020818303038152906040526040518082805190602001908083835b602083101515611c415780518252602082019150602081019050602083039250611c1c565b6001836020036101000a0380198251168184511680821785525050505050509050019150506040518091039020905060001515609d6000836000191660001916815260200190815260200160002060009054906101000a900460ff161515141515611d3a576040517f08c379a00000000000000000000000000000000000000000000000000000000081526004018080602001828103825260218152602001807f5472616e73616374696f6e20686173682077617320616c72656164792075736581526020017f640000000000000000000000000000000000000000000000000000000000000081525060400191505060405180910390fd5b6001609d6000836000191660001916815260200190815260200160002060006101000a81548160ff021916908315150217905550611d79828989614de5565b611d84823388614de5565b3373ffffffffffffffffffffffffffffffffffffffff168873ffffffffffffffffffffffffffffffffffffffff168373ffffffffffffffffffffffffffffffffffffffff167fec5a73fd1f178be20c1bca1b406cbf4b5c20d833b66e582fc122fb4baa0fc2a48a8a604051808381526020018281526020019250505060405180910390a46001935050505095945050505050565b600063138e8da17c010000000000000000000000000000000000000000000000000000000002868686868660405160200180877bffffffffffffffffffffffffffffffffffffffffffffffffffffffff19167bffffffffffffffffffffffffffffffffffffffffffffffffffffffff191681526004018673ffffffffffffffffffffffffffffffffffffffff1673ffffffffffffffffffffffffffffffffffffffff166c010000000000000000000000000281526014018573ffffffffffffffffffffffffffffffffffffffff1673ffffffffffffffffffffffffffffffffffffffff166c0100000000000000000000000002815260140184815260200183815260200182815260200196505050505050506040516020818303038152906040526040518082805190602001908083835b602083101515611f6e5780518252602082019150602081019050602083039250611f49565b6001836020036101000a0380198251168184511680821785525050505050509050019150506040518091039020905095945050505050565b60008060019054906101000a900460ff1680611fc65750611fc5615003565b5b80611fdd57506000809054906101000a900460ff16155b1515612077576040517f08c379a000000000000000000000000000000000000000000000000000000000815260040180806020018281038252602e8152602001807f436f6e747261637420696e7374616e63652068617320616c726561647920626581526020017f656e20696e697469616c697a656400000000000000000000000000000000000081525060400191505060405180910390fd5b600060019054906101000a900460ff1690506001600060016101000a81548160ff02191690831515021790555060016000806101000a81548160ff02191690831515021790555083603390805190602001906120d4929190615918565b5082603490805190602001906120eb929190615918565b5081603560006101000a81548160ff021916908360ff16021790555080600060016101000a81548160ff02191690831515021790555050505050565b600060ba60009054906101000a900473ffffffffffffffffffffffffffffffffffffffff1673ffffffffffffffffffffffffffffffffffffffff163373ffffffffffffffffffffffffffffffffffffffff161415156121ee576040517f08c379a00000000000000000000000000000000000000000000000000000000081526004018080602001828103825260168152602001807f4d7573742062652074686520636f6e74726f6c6c65720000000000000000000081525060200191505060405180910390fd5b73__PropsRewardsLib_______________________6311cb33da60a08686866040518563ffffffff167c01000000000000000000000000000000000000000000000000000000000281526004018085815260200184600381111561224e57fe5b60ff16815260200183815260200182815260200194505050505060206040518083038186803b15801561228057600080fd5b505af4158015612294573d6000803e3d6000fd5b505050506040513d60208110156122aa57600080fd5b8101908080519060200190929190505050507fd3ee560e0e71d87fde0453f24eac52dd8f01332349f8d1ef9e005d1cc3b82fb48460a060040160008760038111156122f157fe5b81526020019081526020016000206000015460a0600401600088600381111561231657fe5b81526020019081526020016000206001015460a0600401600089600381111561233b57fe5b8152602001908152602001600020600201546040518085600381111561235d57fe5b60ff16815260200184815260200183815260200182815260200194505050505060405180910390a1600190509392505050565b6000606a54905090565b60006123a7848484614de5565b612440843361243b85606960008a73ffffffffffffffffffffffffffffffffffffffff1673ffffffffffffffffffffffffffffffffffffffff16815260200190815260200160002060003373ffffffffffffffffffffffffffffffffffffffff1673ffffffffffffffffffffffffffffffffffffffff1681526020019081526020016000205461501490919063ffffffff16565b614b8a565b600190509392505050565b60b85481565b6000603560009054906101000a900460ff16905090565b600061250333846124fe85606960003373ffffffffffffffffffffffffffffffffffffffff1673ffffffffffffffffffffffffffffffffffffffff16815260200190815260200160002060008973ffffffffffffffffffffffffffffffffffffffff1673ffffffffffffffffffffffffffffffffffffffff1681526020019081526020016000205461503590919063ffffffff16565b614b8a565b6001905092915050565b609f60009054906101000a900473ffffffffffffffffffffffffffffffffffffffff1681565b600073__PropsRewardsLib_______________________63d81b705060a085856040518463ffffffff167c01000000000000000000000000000000000000000000000000000000000281526004018084815260200183600381111561259457fe5b60ff168152602001828152602001935050505060206040518083038186803b1580156125bf57600080fd5b505af41580156125d3573d6000803e3d6000fd5b505050506040513d60208110156125e957600080fd5b8101908080519060200190929190505050905092915050565b6000635229c56f7c010000000000000000000000000000000000000000000000000000000002868686868660405160200180877bffffffffffffffffffffffffffffffffffffffffffffffffffffffff19167bffffffffffffffffffffffffffffffffffffffffffffffffffffffff191681526004018673ffffffffffffffffffffffffffffffffffffffff1673ffffffffffffffffffffffffffffffffffffffff166c010000000000000000000000000281526014018573ffffffffffffffffffffffffffffffffffffffff1673ffffffffffffffffffffffffffffffffffffffff166c0100000000000000000000000002815260140184815260200183815260200182815260200196505050505050506040516020818303038152906040526040518082805190602001908083835b6020831015156127585780518252602082019150602081019050602083039250612733565b6001836020036101000a0380198251168184511680821785525050505050509050019150506040518091039020905095945050505050565b60008060008060a0600f01600401548811156128a95773__PropsRewardsLib_______________________6314a68c3860a080600f016004015460a0600f016003015460006040518563ffffffff167c01000000000000000000000000000000000000000000000000000000000281526004018085815260200184815260200183600019166000191681526020018215151515815260200194505050505060206040518083038186803b15801561284657600080fd5b505af415801561285a573d6000803e3d6000fd5b505050506040513d602081101561287057600080fd5b8101908080519060200190929190505050925060008311156128a8576128a760a0600f016004015460a0600f016003015485615056565b5b5b73__PropsRewardsLib_______________________630f9887a060a08a8a8a8a6128d1612390565b6040518763ffffffff167c01000000000000000000000000000000000000000000000000000000000281526004018087815260200186815260200185600019166000191681526020018060200180602001848152602001838103835286818151815260200191508051906020019060200280838360005b83811015612963578082015181840152602081019050612948565b50505050905001838103825285818151815260200191508051906020019060200280838360005b838110156129a557808201518184015260208101905061298a565b505050509050019850505050505050505060206040518083038186803b1580156129ce57600080fd5b505af41580156129e2573d6000803e3d6000fd5b505050506040513d60208110156129f857600080fd5b810190808051906020019092919050505091506000821115612a2257612a21888888888661526d565b5b73__PropsRewardsLib_______________________6314a68c3860a08a8a60016040518563ffffffff167c01000000000000000000000000000000000000000000000000000000000281526004018085815260200184815260200183600019166000191681526020018215151515815260200194505050505060206040518083038186803b158015612ab357600080fd5b505af4158015612ac7573d6000803e3d6000fd5b505050506040513d6020811015612add57600080fd5b810190808051906020019092919050505090506000811115612b0557612b04888883615056565b5b3373ffffffffffffffffffffffffffffffffffffffff168760001916897f47a75fa3188612bc1341726d7859491a32bf875dd309474f712950354f73c5a760405160405180910390a460019350505050949350505050565b600080600080600073ffffffffffffffffffffffffffffffffffffffff168873ffffffffffffffffffffffffffffffffffffffff1614151515612c08576040517f08c379a00000000000000000000000000000000000000000000000000000000081526004018080602001828103825260188152602001807f496e76616c6964205f7370656e6465722061646472657373000000000000000081525060200191505060405180910390fd5b612c1530898989896131d1565b9250612c21838a614ced565b9150600073ffffffffffffffffffffffffffffffffffffffff168273ffffffffffffffffffffffffffffffffffffffff1614151515612cc8576040517f08c379a000000000000000000000000000000000000000000000000000000000815260040180806020018281038252601e8152602001807f496e76616c69642066726f6d2061646472657373207265636f7665726564000081525060200191505060405180910390fd5b8183604051602001808373ffffffffffffffffffffffffffffffffffffffff1673ffffffffffffffffffffffffffffffffffffffff166c010000000000000000000000000281526014018260001916600019168152602001925050506040516020818303038152906040526040518082805190602001908083835b602083101515612d685780518252602082019150602081019050602083039250612d43565b6001836020036101000a0380198251168184511680821785525050505050509050019150506040518091039020905060001515609d6000836000191660001916815260200190815260200160002060009054906101000a900460ff161515141515612e61576040517f08c379a00000000000000000000000000000000000000000000000000000000081526004018080602001828103825260218152602001807f5472616e73616374696f6e20686173682077617320616c72656164792075736581526020017f640000000000000000000000000000000000000000000000000000000000000081525060400191505060405180910390fd5b6001609d6000836000191660001916815260200190815260200160002060006101000a81548160ff021916908315150217905550612ea0828989614b8a565b612eab823388614de5565b3373ffffffffffffffffffffffffffffffffffffffff168873ffffffffffffffffffffffffffffffffffffffff168373ffffffffffffffffffffffffffffffffffffffff167f43a220267705e74ee2ceafd46afc841850db6f85a662189a7def697bbdd90ffb8a8a604051808381526020018281526020019250505060405180910390a46001935050505095945050505050565b60b95481565b6000606860008373ffffffffffffffffffffffffffffffffffffffff1673ffffffffffffffffffffffffffffffffffffffff168152602001908152602001600020549050919050565b600060ba60009054906101000a900473ffffffffffffffffffffffffffffffffffffffff1673ffffffffffffffffffffffffffffffffffffffff163373ffffffffffffffffffffffffffffffffffffffff16141515613055576040517f08c379a00000000000000000000000000000000000000000000000000000000081526004018080602001828103825260168152602001807f4d7573742062652074686520636f6e74726f6c6c65720000000000000000000081525060200191505060405180910390fd5b73__PropsRewardsLib_______________________63cc1b8c9c60a085856040518463ffffffff167c01000000000000000000000000000000000000000000000000000000000281526004018084815260200183815260200180602001828103825283818151815260200191508051906020019060200280838360005b838110156130ed5780820151818401526020810190506130d2565b5050505090500194505050505060206040518083038186803b15801561311257600080fd5b505af4158015613126573d6000803e3d6000fd5b505050506040513d602081101561313c57600080fd5b810190808051906020019092919050505050827f426b639e1d49f62952a4d3282b37648fb8c47ac20b15e01548c104b75c787c0c836040518080602001828103825283818151815260200191508051906020019060200280838360005b838110156131b4578082015181840152602081019050613199565b505050509050019250505060405180910390a26001905092915050565b60006379250dcf7c010000000000000000000000000000000000000000000000000000000002868686868660405160200180877bffffffffffffffffffffffffffffffffffffffffffffffffffffffff19167bffffffffffffffffffffffffffffffffffffffffffffffffffffffff191681526004018673ffffffffffffffffffffffffffffffffffffffff1673ffffffffffffffffffffffffffffffffffffffff166c010000000000000000000000000281526014018573ffffffffffffffffffffffffffffffffffffffff1673ffffffffffffffffffffffffffffffffffffffff166c0100000000000000000000000002815260140184815260200183815260200182815260200196505050505050506040516020818303038152906040526040518082805190602001908083835b6020831015156133275780518252602082019150602081019050602083039250613302565b6001836020036101000a0380198251168184511680821785525050505050509050019150506040518091039020905095945050505050565b606060348054600181600116156101000203166002900480601f0160208091040260200160405190810160405280929190818152602001828054600181600116156101000203166002900480156133f75780601f106133cc576101008083540402835291602001916133f7565b820191906000526020600020905b8154815290600101906020018083116133da57829003601f168201915b5050505050905090565b600073__PropsRewardsLib_______________________6346e3a29860a0878787876040518663ffffffff167c01000000000000000000000000000000000000000000000000000000000281526004018086815260200185600181111561346457fe5b60ff16815260200184600019166000191681526020018373ffffffffffffffffffffffffffffffffffffffff1673ffffffffffffffffffffffffffffffffffffffff1681526020018273ffffffffffffffffffffffffffffffffffffffff1673ffffffffffffffffffffffffffffffffffffffff1681526020019550505050505060206040518083038186803b1580156134fd57600080fd5b505af4158015613511573d6000803e3d6000fd5b505050506040513d602081101561352757600080fd5b8101908080519060200190929190505050508173ffffffffffffffffffffffffffffffffffffffff1685600181111561355c57fe5b3373ffffffffffffffffffffffffffffffffffffffff167fac4aacb75e6f9ac6f2fee64077e9436dfb1be853b1a850b7863cf1433f0e752887876040518083600019166000191681526020018273ffffffffffffffffffffffffffffffffffffffff1673ffffffffffffffffffffffffffffffffffffffff1681526020019250505060405180910390a460019050949350505050565b600061368d338461368885606960003373ffffffffffffffffffffffffffffffffffffffff1673ffffffffffffffffffffffffffffffffffffffff16815260200190815260200160002060008973ffffffffffffffffffffffffffffffffffffffff1673ffffffffffffffffffffffffffffffffffffffff1681526020019081526020016000205461501490919063ffffffff16565b614b8a565b6001905092915050565b600063a70c41b47c01000000000000000000000000000000000000000000000000000000000287878787878760405160200180887bffffffffffffffffffffffffffffffffffffffffffffffffffffffff19167bffffffffffffffffffffffffffffffffffffffffffffffffffffffff191681526004018773ffffffffffffffffffffffffffffffffffffffff1673ffffffffffffffffffffffffffffffffffffffff166c010000000000000000000000000281526014018673ffffffffffffffffffffffffffffffffffffffff1673ffffffffffffffffffffffffffffffffffffffff166c010000000000000000000000000281526014018573ffffffffffffffffffffffffffffffffffffffff1673ffffffffffffffffffffffffffffffffffffffff166c010000000000000000000000000281526014018481526020018381526020018281526020019750505050505050506040516020818303038152906040526040518082805190602001908083835b602083101515613830578051825260208201915060208101905060208303925061380b565b6001836020036101000a038019825116818451168082178552505050505050905001915050604051809103902090509695505050505050565b6000613876338484614de5565b6001905092915050565b600080600080600073ffffffffffffffffffffffffffffffffffffffff168873ffffffffffffffffffffffffffffffffffffffff161415151561392b576040517f08c379a00000000000000000000000000000000000000000000000000000000081526004018080602001828103825260138152602001807f496e76616c6964205f746f20616464726573730000000000000000000000000081525060200191505060405180910390fd5b613939308a8a8a8a8a613697565b9250613945838b614ced565b9150600073ffffffffffffffffffffffffffffffffffffffff168273ffffffffffffffffffffffffffffffffffffffff1614151515613a12576040517f08c379a00000000000000000000000000000000000000000000000000000000081526004018080602001828103825260218152602001807f496e76616c6964207370656e6465722061646472657373207265636f7665726581526020017f640000000000000000000000000000000000000000000000000000000000000081525060400191505060405180910390fd5b8183604051602001808373ffffffffffffffffffffffffffffffffffffffff1673ffffffffffffffffffffffffffffffffffffffff166c010000000000000000000000000281526014018260001916600019168152602001925050506040516020818303038152906040526040518082805190602001908083835b602083101515613ab25780518252602082019150602081019050602083039250613a8d565b6001836020036101000a0380198251168184511680821785525050505050509050019150506040518091039020905060001515609d6000836000191660001916815260200190815260200160002060009054906101000a900460ff161515141515613bab576040517f08c379a00000000000000000000000000000000000000000000000000000000081526004018080602001828103825260218152602001807f5472616e73616374696f6e20686173682077617320616c72656164792075736581526020017f640000000000000000000000000000000000000000000000000000000000000081525060400191505060405180910390fd5b6001609d6000836000191660001916815260200190815260200160002060006101000a81548160ff021916908315150217905550613bea898989614de5565b613c108983613c0b8a613bfd8e88613e9b565b61501490919063ffffffff16565b614b8a565b613c1b823388614de5565b3373ffffffffffffffffffffffffffffffffffffffff168873ffffffffffffffffffffffffffffffffffffffff168a73ffffffffffffffffffffffffffffffffffffffff167fec5a73fd1f178be20c1bca1b406cbf4b5c20d833b66e582fc122fb4baa0fc2a48a8a604051808381526020018281526020019250505060405180910390a4600193505050509695505050505050565b60003373ffffffffffffffffffffffffffffffffffffffff1660a060000160008773ffffffffffffffffffffffffffffffffffffffff1673ffffffffffffffffffffffffffffffffffffffff16815260200190815260200160002060010160009054906101000a900473ffffffffffffffffffffffffffffffffffffffff1673ffffffffffffffffffffffffffffffffffffffff16141515613de0576040517f08c379a000000000000000000000000000000000000000000000000000000000815260040180806020018281038252602b8152602001807f736574746c65206d6179206f6e6c792062652063616c6c656420627920616e2081526020017f6170706c69636174696f6e00000000000000000000000000000000000000000081525060400191505060405180910390fd5b613deb338484614de5565b8273ffffffffffffffffffffffffffffffffffffffff1684600019168673ffffffffffffffffffffffffffffffffffffffff167f53b5073ff19aef23b167e83c6be14817da210375bec35b4c0ccfc0cded9a23f88533604051808381526020018273ffffffffffffffffffffffffffffffffffffffff1673ffffffffffffffffffffffffffffffffffffffff1681526020019250505060405180910390a460019050949350505050565b609e5481565b6000606960008473ffffffffffffffffffffffffffffffffffffffff1673ffffffffffffffffffffffffffffffffffffffff16815260200190815260200160002060008373ffffffffffffffffffffffffffffffffffffffff1673ffffffffffffffffffffffffffffffffffffffff16815260200190815260200160002054905092915050565b600060ba60009054906101000a900473ffffffffffffffffffffffffffffffffffffffff1673ffffffffffffffffffffffffffffffffffffffff163373ffffffffffffffffffffffffffffffffffffffff16141515613fe9576040517f08c379a00000000000000000000000000000000000000000000000000000000081526004018080602001828103825260168152602001807f4d7573742062652074686520636f6e74726f6c6c65720000000000000000000081525060200191505060405180910390fd5b73__PropsRewardsLib_______________________6363cad06a60a085856040518463ffffffff167c01000000000000000000000000000000000000000000000000000000000281526004018084815260200183815260200180602001828103825283818151815260200191508051906020019060200280838360005b83811015614081578082015181840152602081019050614066565b5050505090500194505050505060206040518083038186803b1580156140a657600080fd5b505af41580156140ba573d6000803e3d6000fd5b505050506040513d60208110156140d057600080fd5b810190808051906020019092919050505050827f25071f4c6ebdf865da246a5caf6a5bbcbe50f6443e15309b97b10043c6beb1d9836040518080602001828103825283818151815260200191508051906020019060200280838360005b8381101561414857808201518184015260208101905061412d565b505050509050019250505060405180910390a26001905092915050565b60006012905061417784828585615374565b50505050565b60008060008060019054906101000a900460ff16806141a0575061419f615003565b5b806141b757506000809054906101000a900460ff16155b1515614251576040517f08c379a000000000000000000000000000000000000000000000000000000000815260040180806020018281038252602e8152602001807f436f6e747261637420696e7374616e63652068617320616c726561647920626581526020017f656e20696e697469616c697a656400000000000000000000000000000000000081525060400191505060405180910390fd5b600060019054906101000a900460ff1690506001600060016101000a81548160ff02191690831515021790555060016000806101000a81548160ff021916908315150217905550601292508260ff16600a0a6323c346000291506143206040805190810160405280600b81526020017f50726f707320546f6b656e0000000000000000000000000000000000000000008152506040805190810160405280600581526020017f50524f505300000000000000000000000000000000000000000000000000000081525085611fa6565b61432b868686614165565b61433587836157d8565b80600060016101000a81548160ff02191690831515021790555050505050505050565b600080600080600073ffffffffffffffffffffffffffffffffffffffff168873ffffffffffffffffffffffffffffffffffffffff1614151515614403576040517f08c379a00000000000000000000000000000000000000000000000000000000081526004018080602001828103825260188152602001807f496e76616c6964205f7370656e6465722061646472657373000000000000000081525060200191505060405180910390fd5b6144103089898989612602565b925061441c838a614ced565b9150600073ffffffffffffffffffffffffffffffffffffffff168273ffffffffffffffffffffffffffffffffffffffff16141515156144c3576040517f08c379a000000000000000000000000000000000000000000000000000000000815260040180806020018281038252601e8152602001807f496e76616c69642066726f6d2061646472657373207265636f7665726564000081525060200191505060405180910390fd5b8183604051602001808373ffffffffffffffffffffffffffffffffffffffff1673ffffffffffffffffffffffffffffffffffffffff166c010000000000000000000000000281526014018260001916600019168152602001925050506040516020818303038152906040526040518082805190602001908083835b602083101515614563578051825260208201915060208101905060208303925061453e565b6001836020036101000a0380198251168184511680821785525050505050509050019150506040518091039020905060001515609d6000836000191660001916815260200190815260200160002060009054906101000a900460ff16151514151561465c576040517f08c379a00000000000000000000000000000000000000000000000000000000081526004018080602001828103825260218152602001807f5472616e73616374696f6e20686173682077617320616c72656164792075736581526020017f640000000000000000000000000000000000000000000000000000000000000081525060400191505060405180910390fd5b6001609d6000836000191660001916815260200190815260200160002060006101000a81548160ff0219169083151502179055506146b682896146b18a6146a3878e613e9b565b61501490919063ffffffff16565b614b8a565b6146c1823388614de5565b3373ffffffffffffffffffffffffffffffffffffffff168873ffffffffffffffffffffffffffffffffffffffff168373ffffffffffffffffffffffffffffffffffffffff167f43a220267705e74ee2ceafd46afc841850db6f85a662189a7def697bbdd90ffb614731868d613e9b565b8a604051808381526020018281526020019250505060405180910390a46001935050505095945050505050565b60ba60009054906101000a900473ffffffffffffffffffffffffffffffffffffffff1681565b600080600080600073ffffffffffffffffffffffffffffffffffffffff168873ffffffffffffffffffffffffffffffffffffffff161415151561482f576040517f08c379a00000000000000000000000000000000000000000000000000000000081526004018080602001828103825260188152602001807f496e76616c6964205f7370656e6465722061646472657373000000000000000081525060200191505060405180910390fd5b61483c3089898989611e18565b9250614848838a614ced565b9150600073ffffffffffffffffffffffffffffffffffffffff168273ffffffffffffffffffffffffffffffffffffffff16141515156148ef576040517f08c379a000000000000000000000000000000000000000000000000000000000815260040180806020018281038252601e8152602001807f496e76616c69642066726f6d2061646472657373207265636f7665726564000081525060200191505060405180910390fd5b8183604051602001808373ffffffffffffffffffffffffffffffffffffffff1673ffffffffffffffffffffffffffffffffffffffff166c010000000000000000000000000281526014018260001916600019168152602001925050506040516020818303038152906040526040518082805190602001908083835b60208310151561498f578051825260208201915060208101905060208303925061496a565b6001836020036101000a0380198251168184511680821785525050505050509050019150506040518091039020905060001515609d6000836000191660001916815260200190815260200160002060009054906101000a900460ff161515141515614a88576040517f08c379a00000000000000000000000000000000000000000000000000000000081526004018080602001828103825260218152602001807f5472616e73616374696f6e20686173682077617320616c72656164792075736581526020017f640000000000000000000000000000000000000000000000000000000000000081525060400191505060405180910390fd5b6001609d6000836000191660001916815260200190815260200160002060006101000a81548160ff021916908315150217905550614ae28289614add8a614acf878e613e9b565b61503590919063ffffffff16565b614b8a565b614aed823388614de5565b3373ffffffffffffffffffffffffffffffffffffffff168873ffffffffffffffffffffffffffffffffffffffff168373ffffffffffffffffffffffffffffffffffffffff167f43a220267705e74ee2ceafd46afc841850db6f85a662189a7def697bbdd90ffb614b5d868d613e9b565b8a604051808381526020018281526020019250505060405180910390a46001935050505095945050505050565b600073ffffffffffffffffffffffffffffffffffffffff168273ffffffffffffffffffffffffffffffffffffffff1614151515614bc657600080fd5b600073ffffffffffffffffffffffffffffffffffffffff168373ffffffffffffffffffffffffffffffffffffffff1614151515614c0257600080fd5b80606960008573ffffffffffffffffffffffffffffffffffffffff1673ffffffffffffffffffffffffffffffffffffffff16815260200190815260200160002060008473ffffffffffffffffffffffffffffffffffffffff1673ffffffffffffffffffffffffffffffffffffffff168152602001908152602001600020819055508173ffffffffffffffffffffffffffffffffffffffff168373ffffffffffffffffffffffffffffffffffffffff167f8c5be1e5ebec7d5bd14f71427d1e84f3dd0314c0f7b2291e5b200ac8c7c3b925836040518082815260200191505060405180910390a3505050565b60008060008060418551141515614d075760009350614ddc565b6020850151925060408501519150606085015160001a9050601b8160ff161015614d3257601b810190505b601b8160ff1614158015614d4a5750601c8160ff1614155b15614d585760009350614ddc565b600186828585604051600081526020016040526040518085600019166000191681526020018460ff1660ff1681526020018360001916600019168152602001826000191660001916815260200194505050505060206040516020810390808403906000865af1158015614dcf573d6000803e3d6000fd5b5050506020604051035193505b50505092915050565b606860008473ffffffffffffffffffffffffffffffffffffffff1673ffffffffffffffffffffffffffffffffffffffff168152602001908152602001600020548111151515614e3357600080fd5b600073ffffffffffffffffffffffffffffffffffffffff168273ffffffffffffffffffffffffffffffffffffffff1614151515614e6f57600080fd5b614ec181606860008673ffffffffffffffffffffffffffffffffffffffff1673ffffffffffffffffffffffffffffffffffffffff1681526020019081526020016000205461501490919063ffffffff16565b606860008573ffffffffffffffffffffffffffffffffffffffff1673ffffffffffffffffffffffffffffffffffffffff16815260200190815260200160002081905550614f5681606860008573ffffffffffffffffffffffffffffffffffffffff1673ffffffffffffffffffffffffffffffffffffffff1681526020019081526020016000205461503590919063ffffffff16565b606860008473ffffffffffffffffffffffffffffffffffffffff1673ffffffffffffffffffffffffffffffffffffffff168152602001908152602001600020819055508173ffffffffffffffffffffffffffffffffffffffff168373ffffffffffffffffffffffffffffffffffffffff167fddf252ad1be2c89b69c2b068fc378daa952ba7f163c4a11628f55a4df523b3ef836040518082815260200191505060405180910390a3505050565b600080303b90506000811491505090565b60008083831115151561502657600080fd5b82840390508091505092915050565b600080828401905083811015151561504c57600080fd5b8091505092915050565b60008060a0600f0160000160008560001916600019168152602001908152602001600020600101805490509150600090505b818110156151675761515a60a0600201600060a0600f0160000160008860001916600019168152602001908152602001600020600101848154811015156150cb57fe5b9060005260206000200160009054906101000a900473ffffffffffffffffffffffffffffffffffffffff1673ffffffffffffffffffffffffffffffffffffffff1673ffffffffffffffffffffffffffffffffffffffff16815260200190815260200160002060010160009054906101000a900473ffffffffffffffffffffffffffffffffffffffff16846157d8565b8080600101915050615088565b73__PropsRewardsLib_______________________63cb27ba3e60a0866040518363ffffffff167c01000000000000000000000000000000000000000000000000000000000281526004018083815260200182600019166000191681526020019250505060206040518083038186803b1580156151e357600080fd5b505af41580156151f7573d6000803e3d6000fd5b505050506040513d602081101561520d57600080fd5b8101908080519060200190929190505050508360001916857f07efea0e0eeb975e5404139e47d884d2705a0660a3456aa31c5694df1d8c5f1484858702604051808381526020018281526020019250505060405180910390a35050505050565b60008090505b83518110156153265761531960a06000016000868481518110151561529457fe5b9060200190602002015173ffffffffffffffffffffffffffffffffffffffff1673ffffffffffffffffffffffffffffffffffffffff16815260200190815260200160002060010160009054906101000a900473ffffffffffffffffffffffffffffffffffffffff16848381518110151561530a57fe5b906020019060200201516157d8565b8080600101915050615273565b8460001916867fcc511f1b8ddd8ab10bcb89c26361da1c99b826350e3f38ee438134149032568a865185604051808381526020018281526020019250505060405180910390a3505050505050565b600060b854141515615414576040517f08c379a00000000000000000000000000000000000000000000000000000000081526004018080602001828103825260308152602001807f496e697469616c697a6520726577617264732075706772616465312063616e2081526020017f68617070656e206f6e6c79206f6e63650000000000000000000000000000000081525060400191505060405180910390fd5b8360ba60006101000a81548173ffffffffffffffffffffffffffffffffffffffff021916908373ffffffffffffffffffffffffffffffffffffffff16021790555073__PropsRewardsLib_______________________6311cb33da60a060006187be60006040518563ffffffff167c0100000000000000000000000000000000000000000000000000000000028152600401808581526020018460038111156154b957fe5b60ff16815260200183815260200182815260200194505050505060206040518083038186803b1580156154eb57600080fd5b505af41580156154ff573d6000803e3d6000fd5b505050506040513d602081101561551557600080fd5b81019080805190602001909291905050505073__PropsRewardsLib_______________________6311cb33da60a060016308f0d18060006040518563ffffffff167c01000000000000000000000000000000000000000000000000000000000281526004018085815260200184600381111561558d57fe5b60ff16815260200183815260200182815260200194505050505060206040518083038186803b1580156155bf57600080fd5b505af41580156155d3573d6000803e3d6000fd5b505050506040513d60208110156155e957600080fd5b81019080805190602001909291905050505073__PropsRewardsLib_______________________6311cb33da60a060026302faf08060006040518563ffffffff167c01000000000000000000000000000000000000000000000000000000000281526004018085815260200184600381111561566157fe5b60ff16815260200183815260200182815260200194505050505060206040518083038186803b15801561569357600080fd5b505af41580156156a7573d6000803e3d6000fd5b505050506040513d60208110156156bd57600080fd5b81019080805190602001909291905050505073__PropsRewardsLib_______________________6311cb33da60a0600361072560006040518563ffffffff167c01000000000000000000000000000000000000000000000000000000000281526004018085815260200184600381111561573357fe5b60ff16815260200183815260200182815260200194505050505060206040518083038186803b15801561576557600080fd5b505af4158015615779573d6000803e3d6000fd5b505050506040513d602081101561578f57600080fd5b81019080805190602001909291905050505082600a0a633b9aca000260b881905560a0601601819055508060b981905560a0601501819055508160a06014018190555050505050565b60008273ffffffffffffffffffffffffffffffffffffffff16141515156157fe57600080fd5b61581381606a5461503590919063ffffffff16565b606a8190555061586b81606860008573ffffffffffffffffffffffffffffffffffffffff1673ffffffffffffffffffffffffffffffffffffffff1681526020019081526020016000205461503590919063ffffffff16565b606860008473ffffffffffffffffffffffffffffffffffffffff1673ffffffffffffffffffffffffffffffffffffffff168152602001908152602001600020819055508173ffffffffffffffffffffffffffffffffffffffff16600073ffffffffffffffffffffffffffffffffffffffff167fddf252ad1be2c89b69c2b068fc378daa952ba7f163c4a11628f55a4df523b3ef836040518082815260200191505060405180910390a35050565b828054600181600116156101000203166002900490600052602060002090601f016020900481019282601f1061595957805160ff1916838001178555615987565b82800160010185558215615987579182015b8281111561598657825182559160200191906001019061596b565b5b5090506159949190615998565b5090565b6159ba91905b808211156159b657600081600090555060010161599e565b5090565b905600a165627a7a72305820252f6c334028236c9988ba05249800b851789415ebd63be873fef16d9e3026a30029",
  "source": "pragma solidity ^0.4.24;\n\nimport \"zos-lib/contracts/Initializable.sol\";\nimport \"openzeppelin-eth/contracts/token/ERC20/ERC20Detailed.sol\";\nimport \"./PropsTimeBasedTransfers.sol\";\nimport \"./ERC865Token.sol\";\nimport \"./PropsRewards.sol\";\n\n/**\n * @title PROPSToken\n * @dev PROPS token contract (based of ZEPToken by openzeppelin), a detailed ERC20 token\n * https://github.com/zeppelinos/zos-vouching/blob/master/contracts/ZEPToken.sol\n * PROPS are divisible by 1e18 base\n * units referred to as 'AttoPROPS'.\n *\n * PROPS are displayed using 18 decimal places of precision.\n *\n * 1 PROPS is equivalent to:\n *   1 * 1e18 == 1e18 == One Quintillion AttoPROPS\n *\n * 600 Million PROPS (total supply) is equivalent to:\n *   600000000 * 1e18 == 6e26 AttoPROPS\n *\n\n */\n\n\ncontract PropsToken is Initializable, ERC20Detailed, ERC865Token, PropsTimeBasedTransfers, PropsRewards {\n\n  /**\n   * @dev Initializer function. Called only once when a proxy for the contract is created.\n   * @param _holder address that will receive its initial supply and be able to transfer before transfers start time\n   * @param _controller address that will have controller functionality on rewards protocol\n   * @param _minSecondsBetweenDays uint256 seconds required to pass between consecutive rewards day\n   * @param _rewardsStartTimestamp uint256 day 0 timestamp\n   */\n  function initialize(\n    address _holder,\n    address _controller,\n    uint256 _minSecondsBetweenDays,\n    uint256 _rewardsStartTimestamp\n  )\n    public\n    initializer\n  {\n    uint8 decimals = 18;\n    // total supply is 600,000,000 PROPS specified in AttoPROPS\n    uint256 totalSupply = 0.6 * 1e9 * (10 ** uint256(decimals));\n\n    ERC20Detailed.initialize(\"Props Token\", \"PROPS\", decimals);\n    PropsRewards.initializePostRewardsUpgrade1(_controller, _minSecondsBetweenDays, _rewardsStartTimestamp);\n    _mint(_holder, totalSupply);\n  }\n}",
  "sourcePath": "/Users/jretina/Programming/PROPSProject/props-token-distribution/contracts/token/PropsToken.sol",
  "compiler": {
    "name": "solc",
    "version": "0.4.24+commit.e67f0147.Emscripten.clang"
  },
  "schemaVersion": "2.0.1",
  "updatedAt": "2019-07-17T18:25:26.913Z"
}