{
  "contractName": "PropsRewardsLib",
  "abi": [
    {
      "constant": false,
      "inputs": [
        {
          "name": "_self",
          "type": "PropsRewardsLib.Data storage"
        },
        {
          "name": "_dailyTimestamp",
          "type": "uint256"
        },
        {
          "name": "_rewardsHash",
          "type": "bytes32"
        },
        {
          "name": "_maxTotalSupply",
          "type": "uint256"
        },
        {
          "name": "_currentTotalSupply",
          "type": "uint256"
        },
        {
          "name": "_previousDayRewards",
          "type": "bool"
        }
      ],
      "name": "calculateValidatorRewards",
      "outputs": [
        {
          "name": "",
          "type": "uint256"
        }
      ],
      "payable": false,
      "stateMutability": "nonpayable",
      "type": "function"
    },
    {
      "constant": false,
      "inputs": [
        {
          "name": "_self",
          "type": "PropsRewardsLib.Data storage"
        },
        {
          "name": "_dailyTimestamp",
          "type": "uint256"
        },
        {
          "name": "_rewardsHash",
          "type": "bytes32"
        },
        {
          "name": "_applications",
          "type": "address[]"
        },
        {
          "name": "_amounts",
          "type": "uint256[]"
        },
        {
          "name": "_maxTotalSupply",
          "type": "uint256"
        },
        {
          "name": "_currentTotalSupply",
          "type": "uint256"
        }
      ],
      "name": "calculateApplicationRewards",
      "outputs": [
        {
          "name": "",
          "type": "uint256"
        }
      ],
      "payable": false,
      "stateMutability": "nonpayable",
      "type": "function"
    },
    {
      "constant": true,
      "inputs": [
        {
          "name": "_self",
          "type": "PropsRewardsLib.Data storage"
        },
        {
          "name": "_name",
          "type": "PropsRewardsLib.ParameterName"
        },
        {
          "name": "_dailyTimestamp",
          "type": "uint256"
        }
      ],
      "name": "getParameterValue",
      "outputs": [
        {
          "name": "",
          "type": "uint256"
        }
      ],
      "payable": false,
      "stateMutability": "view",
      "type": "function"
    },
    {
      "constant": true,
      "inputs": [
        {
          "name": "_name",
          "type": "PropsRewardsLib.ParameterName"
        }
      ],
      "name": "getParameterKey",
      "outputs": [
        {
          "name": "",
          "type": "bytes32"
        }
      ],
      "payable": false,
      "stateMutability": "pure",
      "type": "function"
    },
    {
      "constant": false,
      "inputs": [
        {
          "name": "_self",
          "type": "PropsRewardsLib.Data storage"
        },
        {
          "name": "_name",
          "type": "PropsRewardsLib.ParameterName"
        },
        {
          "name": "_value",
          "type": "uint256"
        },
        {
          "name": "_timestamp",
          "type": "uint256"
        }
      ],
      "name": "updateParameter",
      "outputs": [
        {
          "name": "",
          "type": "bytes32"
        }
      ],
      "payable": false,
      "stateMutability": "nonpayable",
      "type": "function"
    },
    {
      "constant": false,
      "inputs": [
        {
          "name": "_self",
          "type": "PropsRewardsLib.Data storage"
        },
        {
          "name": "_name",
          "type": "bytes32"
        },
        {
          "name": "_rewardsAddress",
          "type": "address"
        },
        {
          "name": "_sidechainAddress",
          "type": "address"
        }
      ],
      "name": "updateApplication",
      "outputs": [
        {
          "name": "",
          "type": "bool"
        }
      ],
      "payable": false,
      "stateMutability": "nonpayable",
      "type": "function"
    },
    {
      "constant": false,
      "inputs": [
        {
          "name": "_self",
          "type": "PropsRewardsLib.Data storage"
        },
        {
          "name": "_name",
          "type": "bytes32"
        },
        {
          "name": "_rewardsAddress",
          "type": "address"
        },
        {
          "name": "_sidechainAddress",
          "type": "address"
        }
      ],
      "name": "updateValidator",
      "outputs": [
        {
          "name": "",
          "type": "bool"
        }
      ],
      "payable": false,
      "stateMutability": "nonpayable",
      "type": "function"
    },
    {
      "constant": false,
      "inputs": [
        {
          "name": "_self",
          "type": "PropsRewardsLib.Data storage"
        },
        {
          "name": "_dailyTimestamp",
          "type": "uint256"
        },
        {
          "name": "_applications",
          "type": "address[]"
        }
      ],
      "name": "setApplications",
      "outputs": [
        {
          "name": "",
          "type": "bool"
        }
      ],
      "payable": false,
      "stateMutability": "nonpayable",
      "type": "function"
    },
    {
      "constant": true,
      "inputs": [
        {
          "name": "_self",
          "type": "PropsRewardsLib.Data storage"
        },
        {
          "name": "_dailyTimestamp",
          "type": "uint256"
        }
      ],
      "name": "getSelectedApplicationsListType",
      "outputs": [
        {
          "name": "",
          "type": "uint256"
        }
      ],
      "payable": false,
      "stateMutability": "view",
      "type": "function"
    },
    {
      "constant": false,
      "inputs": [
        {
          "name": "_self",
          "type": "PropsRewardsLib.Data storage"
        },
        {
          "name": "_dailyTimestamp",
          "type": "uint256"
        },
        {
          "name": "_validators",
          "type": "address[]"
        }
      ],
      "name": "setValidators",
      "outputs": [
        {
          "name": "",
          "type": "bool"
        }
      ],
      "payable": false,
      "stateMutability": "nonpayable",
      "type": "function"
    },
    {
      "constant": true,
      "inputs": [
        {
          "name": "_self",
          "type": "PropsRewardsLib.Data storage"
        },
        {
          "name": "_dailyTimestamp",
          "type": "uint256"
        }
      ],
      "name": "getSelectedValidatorsListType",
      "outputs": [
        {
          "name": "",
          "type": "uint256"
        }
      ],
      "payable": false,
      "stateMutability": "view",
      "type": "function"
    }
  ],
  "bytecode": "0x612726610030600b82828239805160001a6073146000811461002057610022565bfe5b5030600052607381538281f30073000000000000000000000000000000000000000030146080604052600436106100c6576000357c0100000000000000000000000000000000000000000000000000000000900463ffffffff1680630e295071146100cb57806311cb33da1461015e578063132f6421146101c8578063476b90e51461020657806363cad06a146102f9578063672a1a451461038b578063aa12e6b6146103c9578063cc1b8c9c14610442578063d81b7050146104d4578063e2c593d31461051f578063f1c91dc7146105b2575b600080fd5b8180156100d757600080fd5b50610144600480360381019080803590602001909291908035600019169060200190929190803573ffffffffffffffffffffffffffffffffffffffff169060200190929190803573ffffffffffffffffffffffffffffffffffffffff1690602001909291905050506105f1565b604051808215151515815260200191505060405180910390f35b81801561016a57600080fd5b506101aa60048036038101908080359060200190929190803560ff1690602001909291908035906020019092919080359060200190929190505050610857565b60405180826000191660001916815260200191505060405180910390f35b6101f06004803603810190808035906020019092919080359060200190929190505050610979565b6040518082815260200191505060405180910390f35b81801561021257600080fd5b506102e3600480360381019080803590602001909291908035906020019092919080356000191690602001909291908035906020019082018035906020019080806020026020016040519081016040528093929190818152602001838360200280828437820191505050505050919291929080359060200190820180359060200190808060200260200160405190810160405280939291908181526020018383602002808284378201915050505050509192919290803590602001909291908035906020019092919050505061099f565b6040518082815260200191505060405180910390f35b81801561030557600080fd5b50610371600480360381019080803590602001909291908035906020019092919080359060200190820180359060200190808060200260200160405190810160405280939291908181526020018383602002808284378201915050505050509192919290505050610eb8565b604051808215151515815260200191505060405180910390f35b6103b36004803603810190808035906020019092919080359060200190929190505050611087565b6040518082815260200191505060405180910390f35b8180156103d557600080fd5b5061042c6004803603810190808035906020019092919080359060200190929190803560001916906020019092919080359060200190929190803590602001909291908035151590602001909291905050506110ad565b6040518082815260200191505060405180910390f35b81801561044e57600080fd5b506104ba60048036038101908080359060200190929190803590602001909291908035906020019082018035906020019080806020026020016040519081016040528093929190818152602001838360200280828437820191505050505050919291929050505061115e565b604051808215151515815260200191505060405180910390f35b61050960048036038101908080359060200190929190803560ff1690602001909291908035906020019092919050505061132d565b6040518082815260200191505060405180910390f35b81801561052b57600080fd5b50610598600480360381019080803590602001909291908035600019169060200190929190803573ffffffffffffffffffffffffffffffffffffffff169060200190929190803573ffffffffffffffffffffffffffffffffffffffff1690602001909291905050506113b1565b604051808215151515815260200191505060405180910390f35b6105d3600480360381019080803560ff169060200190929190505050611617565b60405180826000191660001916815260200191505060405180910390f35b6000838560020160003373ffffffffffffffffffffffffffffffffffffffff1673ffffffffffffffffffffffffffffffffffffffff1681526020019081526020016000206000018160001916905550828560020160003373ffffffffffffffffffffffffffffffffffffffff1673ffffffffffffffffffffffffffffffffffffffff16815260200190815260200160002060010160006101000a81548173ffffffffffffffffffffffffffffffffffffffff021916908373ffffffffffffffffffffffffffffffffffffffff160217905550818560020160003373ffffffffffffffffffffffffffffffffffffffff1673ffffffffffffffffffffffffffffffffffffffff16815260200190815260200160002060020160006101000a81548173ffffffffffffffffffffffffffffffffffffffff021916908373ffffffffffffffffffffffffffffffffffffffff16021790555060008560020160003373ffffffffffffffffffffffffffffffffffffffff1673ffffffffffffffffffffffffffffffffffffffff16815260200190815260200160002060030154141561080057846003013390806001815401808255809150509060018203906000526020600020016000909192909190916101000a81548173ffffffffffffffffffffffffffffffffffffffff021916908373ffffffffffffffffffffffffffffffffffffffff1602179055505061084b565b60018560020160003373ffffffffffffffffffffffffffffffffffffffff1673ffffffffffffffffffffffffffffffffffffffff168152602001908152602001600020600301819055505b60019050949350505050565b60008061086385611617565b9050856004016000826000191660001916815260200190815260200160002060020154831115156108dd57838660040160008360001916600019168152602001908152602001600020600001819055508286600401600083600019166000191681526020019081526020016000206002018190555061096d565b85600401600082600019166000191681526020019081526020016000206000015486600401600083600019166000191681526020019081526020016000206001018190555083866004016000836000191660001916815260200190815260200160002060000181905550828660040160008360001916600019168152602001908152602001600020600201819055505b80915050949350505050565b600082600a0160040154821015156109945760009050610999565b600190505b92915050565b6000806000898881600f016000826000191660001916815260200190815260200160002060000160003373ffffffffffffffffffffffffffffffffffffffff1673ffffffffffffffffffffffffffffffffffffffff16815260200190815260200160002060009054906101000a900460ff16151515610aac576040517f08c379a00000000000000000000000000000000000000000000000000000000081526004018080602001828103825260248152602001807f4d757374206265206f6e65207375626d697373696f6e207065722076616c696481526020017f61746f720000000000000000000000000000000000000000000000000000000081525060400191505060405180910390fd5b60008c600f0160008c60001916600019168152602001908152602001600020600301541415610b30578b6010018a908060018154018082558091505090600182039060005260206000200160009091929091909150906000191690555060018c600f0160008c60001916600019168152602001908152602001600020600301819055505b60018c600f0160008c6000191660001916815260200190815260200160002060000160003373ffffffffffffffffffffffffffffffffffffffff1673ffffffffffffffffffffffffffffffffffffffff16815260200190815260200160002060006101000a81548160ff0219169083151502179055508b600f0160008b60001916600019168152602001908152602001600020600201600081548092919060010191905055508b600f0160008b600019166000191681526020019081526020016000206001013390806001815401808255809150509060018203906000526020600020016000909192909190916101000a81548173ffffffffffffffffffffffffffffffffffffffff021916908373ffffffffffffffffffffffffffffffffffffffff16021790555050610c648c8c6116d2565b8c600f0160008c60001916600019168152602001908152602001600020600201541415610ea457610c978b8b8b8b611749565b1515610d0b576040517f08c379a00000000000000000000000000000000000000000000000000000000081526004018080602001828103825260168152602001807f526577617264204861736820697320696e76616c69640000000000000000000081525060200191505060405180910390fd5b610d168c8a8a61184b565b93509350831515610db5576040517f08c379a000000000000000000000000000000000000000000000000000000000815260040180806020018281038252602d8152602001807f52657761726473206461746120697320696e76616c6964202d20756e6b6e6f7781526020017f6e206170706c69636174696f6e0000000000000000000000000000000000000081525060400191505060405180910390fd5b610dc18c8c898961190e565b8311151515610e5e576040517f08c379a00000000000000000000000000000000000000000000000000000000081526004018080602001828103825260308152602001807f52657761726473206461746120697320696e76616c6964202d2065786365656481526020017f206461696c7920766172696174696f6e0000000000000000000000000000000081525060400191505060405180910390fd5b610e688c8c611946565b5060018c600f0160008c6000191660001916815260200190815260200160002060040181905550898c6011018160001916905550829450610ea9565b600094505b50505050979650505050505050565b60008084600501600201805490501415610f9b57610ed68483611968565b1515610f96576040517f08c379a00000000000000000000000000000000000000000000000000000000081526004018080602001828103825260448152602001807f4661696c656420746f207570646174652076616c696461746f72206c6973742081526020017f2d20616c6c2076616c696461746f7273206d757374206265206164646564206681526020017f697273740000000000000000000000000000000000000000000000000000000081525060600191505060405180910390fd5b611070565b610fa484611bb5565b50610faf8483611968565b151561106f576040517f08c379a00000000000000000000000000000000000000000000000000000000081526004018080602001828103825260448152602001807f4661696c656420746f207570646174652076616c696461746f72206c6973742081526020017f2d20616c6c2076616c696461746f7273206d757374206265206164646564206681526020017f697273740000000000000000000000000000000000000000000000000000000081525060600191505060405180910390fd5b5b828460050160040181905550600190509392505050565b60008260050160040154821015156110a257600090506110a7565b600190505b92915050565b600080600188600f016000886000191660001916815260200190815260200160002060040154141561114e5782156111075787600f0160008760001916600019168152602001908152602001600020600201549050611114565b6111118888611e19565b90505b600288600f0160008860001916600019168152602001908152602001600020600401819055506111478888838888611e52565b9150611153565b600091505b509695505050505050565b60008084600a016002018054905014156112415761117c8483611e89565b151561123c576040517f08c379a00000000000000000000000000000000000000000000000000000000081526004018080602001828103825260498152602001807f4661696c656420746f20757064617465206170706c69636174696f6e73206c6981526020017f7374202d20616c6c206170706c69636174696f6e73206d75737420626520616481526020017f646564206669727374000000000000000000000000000000000000000000000081525060600191505060405180910390fd5b611316565b61124a846120d6565b506112558483611e89565b1515611315576040517f08c379a00000000000000000000000000000000000000000000000000000000081526004018080602001828103825260498152602001807f4661696c656420746f20757064617465206170706c69636174696f6e73206c6981526020017f7374202d20616c6c206170706c69636174696f6e73206d75737420626520616481526020017f646564206669727374000000000000000000000000000000000000000000000081525060600191505060405180910390fd5b5b8284600a0160040181905550600190509392505050565b6000611337612692565b84600401600061134686611617565b6000191660001916815260200190815260200160002060606040519081016040529081600082015481526020016001820154815260200160028201548152505090508060400151831015156113a157806000015191506113a9565b806020015191505b509392505050565b6000838560000160003373ffffffffffffffffffffffffffffffffffffffff1673ffffffffffffffffffffffffffffffffffffffff1681526020019081526020016000206000018160001916905550828560000160003373ffffffffffffffffffffffffffffffffffffffff1673ffffffffffffffffffffffffffffffffffffffff16815260200190815260200160002060010160006101000a81548173ffffffffffffffffffffffffffffffffffffffff021916908373ffffffffffffffffffffffffffffffffffffffff160217905550818560000160003373ffffffffffffffffffffffffffffffffffffffff1673ffffffffffffffffffffffffffffffffffffffff16815260200190815260200160002060020160006101000a81548173ffffffffffffffffffffffffffffffffffffffff021916908373ffffffffffffffffffffffffffffffffffffffff16021790555060008560000160003373ffffffffffffffffffffffffffffffffffffffff1673ffffffffffffffffffffffffffffffffffffffff1681526020019081526020016000206003015414156115c057846001013390806001815401808255809150509060018203906000526020600020016000909192909190916101000a81548173ffffffffffffffffffffffffffffffffffffffff021916908373ffffffffffffffffffffffffffffffffffffffff1602179055505061160b565b60018560000160003373ffffffffffffffffffffffffffffffffffffffff1673ffffffffffffffffffffffffffffffffffffffff168152602001908152602001600020600301819055505b60019050949350505050565b6000816040516020018082600381111561162d57fe5b60ff167f01000000000000000000000000000000000000000000000000000000000000000281526001019150506040516020818303038152906040526040518082805190602001908083835b60208310151561169e5780518252602082019150602081019050602083039250611679565b6001836020036101000a03801982511681845116808217855250505050505090500191505060405180910390209050919050565b6000806116df8484611087565b14156117165760016305f5e1006116f88560028661132d565b85600501600201805490500281151561170d57fe5b04019050611743565b60016305f5e1006117298560028661132d565b85600501600301805490500281151561173e57fe5b040190505b92915050565b6000836000191685848460405160200180848152602001838051906020019060200280838360005b8381101561178c578082015181840152602081019050611771565b50505050905001828051906020019060200280838360005b838110156117bf5780820151818401526020810190506117a4565b5050505090500193505050506040516020818303038152906040526040518082805190602001908083835b60208310151561180f57805182526020820191506020810190506020830392506117ea565b6001836020036101000a038019825116818451168082178552505050505050905001915050604051809103902060001916149050949350505050565b600080600080600090505b84518110156118fc57848181518110151561186d57fe5b90602001906020020151820191506001876000016000888481518110151561189157fe5b9060200190602002015173ffffffffffffffffffffffffffffffffffffffff1673ffffffffffffffffffffffffffffffffffffffff168152602001908152602001600020600301541415156118ef5760008080905093509350611904565b8080600101915050611856565b600182935093505b5050935093915050565b60006305f5e1006119218660018761132d565b61192d8760008861132d565b848603020281151561193b57fe5b049050949350505050565b6000826012015483601301819055508183601201819055506001905092915050565b60008060008085600501600201805490501491508115801561199557508351856005016002018054905014155b156119a9576119a38561233a565b50600191505b600090505b8351811015611ba857600185600201600086848151811015156119cd57fe5b9060200190602002015173ffffffffffffffffffffffffffffffffffffffff1673ffffffffffffffffffffffffffffffffffffffff16815260200190815260200160002060030154141515611a255760009250611bad565b8115611ab257846005016002018482815181101515611a4057fe5b9060200190602002015190806001815401808255809150509060018203906000526020600020016000909192909190916101000a81548173ffffffffffffffffffffffffffffffffffffffff021916908373ffffffffffffffffffffffffffffffffffffffff16021790555050611b27565b8381815181101515611ac057fe5b906020019060200201518560050160020182815481101515611ade57fe5b9060005260206000200160006101000a81548173ffffffffffffffffffffffffffffffffffffffff021916908373ffffffffffffffffffffffffffffffffffffffff1602179055505b60018560050160000160008684815181101515611b4057fe5b9060200190602002015173ffffffffffffffffffffffffffffffffffffffff1673ffffffffffffffffffffffffffffffffffffffff16815260200190815260200160002060006101000a81548160ff02191690831515021790555080806001019150506119ae565b600192505b505092915050565b600080600080846005016003018054905014915081158015611beb57508360050160020180549050846005016003018054905014155b15611bff57611bf984612410565b50600191505b600090505b8360050160020180549050811015611e0e578115611cca57836005016003018460050160020182815481101515611c3757fe5b9060005260206000200160009054906101000a900473ffffffffffffffffffffffffffffffffffffffff1690806001815401808255809150509060018203906000526020600020016000909192909190916101000a81548173ffffffffffffffffffffffffffffffffffffffff021916908373ffffffffffffffffffffffffffffffffffffffff16021790555050611d66565b8360050160020181815481101515611cde57fe5b9060005260206000200160009054906101000a900473ffffffffffffffffffffffffffffffffffffffff168460050160030182815481101515611d1d57fe5b9060005260206000200160006101000a81548173ffffffffffffffffffffffffffffffffffffffff021916908373ffffffffffffffffffffffffffffffffffffffff1602179055505b60018460050160010160008660050160020184815481101515611d8557fe5b9060005260206000200160009054906101000a900473ffffffffffffffffffffffffffffffffffffffff1673ffffffffffffffffffffffffffffffffffffffff1673ffffffffffffffffffffffffffffffffffffffff16815260200190815260200160002060006101000a81548160ff0219169083151502179055508080600101915050611c04565b600192505050919050565b600080611e268484611087565b1415611e3e5782600501600201805490509050611e4c565b826005016003018054905090505b92915050565b6000836305f5e100611e668860038961132d565b84860302811515611e7357fe5b04811515611e7d57fe5b04905095945050505050565b60008060008085600a016002018054905014915081158015611eb65750835185600a016002018054905014155b15611eca57611ec4856124e6565b50600191505b600090505b83518110156120c95760018560000160008684815181101515611eee57fe5b9060200190602002015173ffffffffffffffffffffffffffffffffffffffff1673ffffffffffffffffffffffffffffffffffffffff16815260200190815260200160002060030154141515611f4657600092506120ce565b8115611fd35784600a016002018482815181101515611f6157fe5b9060200190602002015190806001815401808255809150509060018203906000526020600020016000909192909190916101000a81548173ffffffffffffffffffffffffffffffffffffffff021916908373ffffffffffffffffffffffffffffffffffffffff16021790555050612048565b8381815181101515611fe157fe5b9060200190602002015185600a0160020182815481101515611fff57fe5b9060005260206000200160006101000a81548173ffffffffffffffffffffffffffffffffffffffff021916908373ffffffffffffffffffffffffffffffffffffffff1602179055505b600185600a016000016000868481518110151561206157fe5b9060200190602002015173ffffffffffffffffffffffffffffffffffffffff1673ffffffffffffffffffffffffffffffffffffffff16815260200190815260200160002060006101000a81548160ff0219169083151502179055508080600101915050611ecf565b600192505b505092915050565b60008060008084600a01600301805490501491508115801561210c575083600a016002018054905084600a016003018054905014155b156121205761211a846125bc565b50600191505b600090505b83600a016002018054905081101561232f5781156121eb5783600a0160030184600a016002018281548110151561215857fe5b9060005260206000200160009054906101000a900473ffffffffffffffffffffffffffffffffffffffff1690806001815401808255809150509060018203906000526020600020016000909192909190916101000a81548173ffffffffffffffffffffffffffffffffffffffff021916908373ffffffffffffffffffffffffffffffffffffffff16021790555050612287565b83600a01600201818154811015156121ff57fe5b9060005260206000200160009054906101000a900473ffffffffffffffffffffffffffffffffffffffff1684600a016003018281548110151561223e57fe5b9060005260206000200160006101000a81548173ffffffffffffffffffffffffffffffffffffffff021916908373ffffffffffffffffffffffffffffffffffffffff1602179055505b600184600a01600101600086600a01600201848154811015156122a657fe5b9060005260206000200160009054906101000a900473ffffffffffffffffffffffffffffffffffffffff1673ffffffffffffffffffffffffffffffffffffffff1673ffffffffffffffffffffffffffffffffffffffff16815260200190815260200160002060006101000a81548160ff0219169083151502179055508080600101915050612125565b600192505050919050565b600080600090505b82600501600201805490508110156123f357826005016000016000846005016002018381548110151561237157fe5b9060005260206000200160009054906101000a900473ffffffffffffffffffffffffffffffffffffffff1673ffffffffffffffffffffffffffffffffffffffff1673ffffffffffffffffffffffffffffffffffffffff16815260200190815260200160002060006101000a81549060ff02191690558080600101915050612342565b82600501600201600061240691906126b4565b6001915050919050565b600080600090505b82600501600301805490508110156124c957826005016001016000846005016003018381548110151561244757fe5b9060005260206000200160009054906101000a900473ffffffffffffffffffffffffffffffffffffffff1673ffffffffffffffffffffffffffffffffffffffff1673ffffffffffffffffffffffffffffffffffffffff16815260200190815260200160002060006101000a81549060ff02191690558080600101915050612418565b8260050160030160006124dc91906126b4565b6001915050919050565b600080600090505b82600a016002018054905081101561259f5782600a01600001600084600a016002018381548110151561251d57fe5b9060005260206000200160009054906101000a900473ffffffffffffffffffffffffffffffffffffffff1673ffffffffffffffffffffffffffffffffffffffff1673ffffffffffffffffffffffffffffffffffffffff16815260200190815260200160002060006101000a81549060ff021916905580806001019150506124ee565b82600a0160020160006125b291906126b4565b6001915050919050565b600080600090505b82600a01600301805490508110156126755782600a01600101600084600a01600301838154811015156125f357fe5b9060005260206000200160009054906101000a900473ffffffffffffffffffffffffffffffffffffffff1673ffffffffffffffffffffffffffffffffffffffff1673ffffffffffffffffffffffffffffffffffffffff16815260200190815260200160002060006101000a81549060ff021916905580806001019150506125c4565b82600a01600301600061268891906126b4565b6001915050919050565b6060604051908101604052806000815260200160008152602001600081525090565b50805460008255906000526020600020908101906126d291906126d5565b50565b6126f791905b808211156126f35760008160009055506001016126db565b5090565b905600a165627a7a72305820357b4980229b605f2d0c4c0382e1611e739bd8012cf48eac6c53e7f103086a4e0029",
  "source": "pragma solidity ^0.4.24;\n\nimport \"zos-lib/contracts/Initializable.sol\";\n\n\n/**\n * @title Props Rewards Library\n * @dev Library to manage application and validators and parameters\n **/\nlibrary PropsRewardsLib {\n    /*\n    *  Storage\n    */\n\n    // The various parameters used by the contract\n    enum ParameterName { ApplicationRewardsPercent, ApplicationRewardsMaxVariationPercent, ValidatorMajorityPercent, ValidatorRewardsPercent}\n\n    // Represents a parameter current, previous and time of change\n    struct Parameter {\n        uint256 currentValue;                   // current value in Pphm valid after timestamp\n        uint256 previousValue;                  // previous value in Pphm for use before timestamp\n        uint256 updateTimestamp;                // timestamp of when the value was updated\n    }\n    // Represents application details\n    struct Application {\n        bytes32 name;                           // Application name\n        address rewardsAddress;                 // address where rewards will be minted to\n        address sidechainAddress;               // address used on the sidechain\n        uint256 initializedState;               // A way to check if there's something in the map and whether already added to list\n    }\n\n    // Represents validator details\n    struct Validator {\n        bytes32 name;                           // Application name\n        address rewardsAddress;                 // address where rewards will be minted to\n        address sidechainAddress;               // address used on the sidechain\n        uint256 initializedState;               // A way to check if there's something in the map and whether already added to list\n    }\n\n    // Represents validators current and previous lists\n    struct ValidatorsList {\n        mapping (address => bool) currentValidators;\n        mapping (address => bool) previousValidators;\n        address[] currentValidatorsList;\n        address[] previousValidatorsList;\n        uint256 updateTimestamp;\n    }\n\n    // Represents validators current and previous lists\n    struct ApplicationsList {\n        mapping (address => bool) currentApplications;\n        mapping (address => bool) previousApplications;\n        address[] currentApplicationsList;\n        address[] previousApplicationsList;\n        uint256 updateTimestamp;\n    }\n\n    // Represents daily reward submissions and confimations\n    struct DailyRewards {\n        mapping (address => bool) submissions;\n        address[] submissionValidators;\n        uint256 confirmations;\n        uint256 initializedState;               // A way to check if there's something in the map and whether already added to list\n        uint256 finalized;\n    }\n\n    // represent the storage structures\n    struct Data {\n        // applications data\n        mapping (address => Application) applications;\n        address[] applicationsList;\n        // validators data\n        mapping (address => Validator) validators;\n        address[] validatorsList;\n        // adjustable parameters data\n        mapping (bytes32 => Parameter) parameters; // parameter name which is keccak256(ParameterName.X)\n        // the participating validators\n        ValidatorsList selectedValidators;\n        // the participating applications\n        ApplicationsList selectedApplications;\n        // daily rewards submission data\n        mapping (bytes32 => DailyRewards) dailyRewards;\n        bytes32[] dailyRewardsList;\n        // previous daily reward hash\n        bytes32 previousDailyRewardsHash;\n        // current and previous rewards daily timestamp\n        uint256 currentDailyTimestamp;\n        uint256 previousDailyTimestamp;\n        // indication to when to cleanup the dailyRewards data\n        uint256 maxDailyRewardStorage;\n    }\n    /*\n    *  Modifiers\n    */\n    modifier onlyOneRewardsHashPerValidator(Data storage _self, bytes32 _rewardsHash) {\n        require(\n            !_self.dailyRewards[_rewardsHash].submissions[msg.sender],\n            \"Must be one submission per validator\"\n        );\n         _;\n    }\n\n    /**\n    * @dev The function is called by validators with the calculation of the daily rewards\n    * @param _self Data pointer to storage\n    * @param _dailyTimestamp uint256 the daily reward timestamp (midnight UTC of each day)\n    * @param _rewardsHash bytes32 hash of the rewards data\n    * @param _maxTotalSupply uint256 max total supply\n    * @param _currentTotalSupply uint256 current total supply\n    * @param _previousDayRewards uint256 calculating previous day validator rewards\n    */\n    function calculateValidatorRewards(\n        Data storage _self,\n        uint256 _dailyTimestamp,\n        bytes32 _rewardsHash,\n        uint256 _maxTotalSupply,\n        uint256 _currentTotalSupply,\n        bool _previousDayRewards\n    )\n        public\n        returns (uint256)\n    {\n        uint256 numOfValidators;\n        if (_self.dailyRewards[_rewardsHash].finalized == 1) // previous daily reward was not finalized\n        {\n            if (_previousDayRewards) {\n                numOfValidators = _self.dailyRewards[_rewardsHash].confirmations;\n            } else {\n                numOfValidators = _requiredValidatorsForValidatorsRewards(_self, _dailyTimestamp);\n            }\n            _self.dailyRewards[_rewardsHash].finalized = 2;\n            return _getValidatorRewardsDailyAmountPerValidator(_self, _dailyTimestamp, numOfValidators, _maxTotalSupply, _currentTotalSupply);\n        }\n        return 0;\n    }\n\n    /**\n    * @dev The function is called by validators with the calculation of the daily rewards\n    * @param _self Data pointer to storage\n    * @param _dailyTimestamp uint256 the daily reward timestamp (midnight UTC of each day)\n    * @param _rewardsHash bytes32 hash of the rewards data\n    * @param _applications address[] array of application addresses getting the daily reward\n    * @param _amounts uint256[] array of amounts each app should get\n    * @param _maxTotalSupply uint256 max total supply\n    * @param _currentTotalSupply uint256 current total supply\n    */\n    function calculateApplicationRewards(\n        Data storage _self,\n        uint256 _dailyTimestamp,\n        bytes32 _rewardsHash,\n        address[] _applications,\n        uint256[] _amounts,\n        uint256 _maxTotalSupply,\n        uint256 _currentTotalSupply\n    )\n        public\n        onlyOneRewardsHashPerValidator(_self, _rewardsHash)\n        returns (uint256)\n    {\n        if (_self.dailyRewards[_rewardsHash].initializedState == 0) {\n            _self.dailyRewardsList.push(_rewardsHash);\n            _self.dailyRewards[_rewardsHash].initializedState = 1;\n        }\n        _self.dailyRewards[_rewardsHash].submissions[msg.sender] = true;\n        _self.dailyRewards[_rewardsHash].confirmations++;\n        _self.dailyRewards[_rewardsHash].submissionValidators.push(msg.sender);\n        if (_self.dailyRewards[_rewardsHash].confirmations == _requiredValidatorsForAppRewards(_self, _dailyTimestamp)) {\n           require(\n                _rewardHashIsvalid(_dailyTimestamp, _rewardsHash, _applications, _amounts),\n                \"Reward Hash is invalid\"\n            );\n            (bool applicationsValid, uint256 sum) = _validateSubmittedData(_self, _applications, _amounts);\n            require(\n                applicationsValid,\n                \"Rewards data is invalid - unknown application\"\n            );\n            require(\n                sum <= _getMaxAppRewardsDailyAmount(_self, _dailyTimestamp, _maxTotalSupply, _currentTotalSupply),\n                \"Rewards data is invalid - exceed daily variation\"\n            );\n            _updateDailyTimestamp(_self, _dailyTimestamp);\n            _self.dailyRewards[_rewardsHash].finalized = 1;\n            _self.previousDailyRewardsHash = _rewardsHash;\n            return sum;\n        }\n        return 0;\n    }\n\n    /**\n    * @dev Get parameter's value\n    * @param _self Data pointer to storage\n    * @param _name ParameterName name of the parameter\n    * @param _dailyTimestamp uint256 the daily reward timestamp (midnight UTC of each day)\n    */\n    function getParameterValue(\n        Data storage _self,\n        ParameterName _name,\n        uint256 _dailyTimestamp\n    )\n        public\n        view\n        returns (uint256)\n    {\n        Parameter memory param = _self.parameters[getParameterKey(_name)];\n        if (_dailyTimestamp >= param.updateTimestamp) {\n            return param.currentValue;\n        } else {\n            return param.previousValue;\n        }\n    }\n\n    /**\n    * @dev Get parameter's bytes32 encoding\n    * @param _name ParameterName name of the parameter\n    */\n    function getParameterKey(ParameterName _name)\n        public\n        pure\n        returns (bytes32)\n    {\n        return keccak256(abi.encodePacked(_name));\n    }\n\n    /**\n    * @dev Allows the controller/owner to update rewards parameters\n    * @param _self Data pointer to storage\n    * @param _name ParameterName name of the parameter\n    * @param _value uint256 new value for the parameter\n    * @param _timestamp starting when should this parameter use the current value\n    */\n    function updateParameter(\n        Data storage _self,\n        ParameterName _name,\n        uint256 _value,\n        uint256 _timestamp\n    )\n        public\n        returns (bytes32)\n    {\n        bytes32 paramKey = getParameterKey(_name);\n        if (_timestamp <= _self.parameters[paramKey].updateTimestamp) {\n           _self.parameters[paramKey].currentValue = _value;\n           _self.parameters[paramKey].updateTimestamp = _timestamp;\n        } else {\n            _self.parameters[paramKey].previousValue = _self.parameters[paramKey].currentValue;\n            _self.parameters[paramKey].currentValue = _value;\n           _self.parameters[paramKey].updateTimestamp = _timestamp;\n        }\n        return paramKey;\n    }\n\n    /**\n    * @dev Allows an application to add/update its details\n    * @param _self Data pointer to storage\n    * @param _name bytes32 name of the app\n    * @param _rewardsAddress address an address for the app to receive the rewards\n    * @param _sidechainAddress address the address used for using the sidechain\n    */\n    function updateApplication(\n        Data storage _self,\n        bytes32 _name,\n        address _rewardsAddress,\n        address _sidechainAddress\n    )\n        public\n        returns (bool)\n    {\n        _self.applications[msg.sender].name = _name;\n        _self.applications[msg.sender].rewardsAddress = _rewardsAddress;\n        _self.applications[msg.sender].sidechainAddress = _sidechainAddress;\n        if (_self.applications[msg.sender].initializedState == 0) {\n            _self.applicationsList.push(msg.sender);\n        } else {\n            _self.applications[msg.sender].initializedState = 1;\n        }\n        return true;\n    }\n\n    /**\n    * @dev Allows a validator to add/update its details\n    * @param _self Data pointer to storage\n    * @param _name bytes32 name of the validator\n    * @param _rewardsAddress address an address for the validator to receive the rewards\n    * @param _sidechainAddress address the address used for using the sidechain\n    */\n    function updateValidator(\n        Data storage _self,\n        bytes32 _name,\n        address _rewardsAddress,\n        address _sidechainAddress\n    )\n        public\n        returns (bool)\n    {\n        _self.validators[msg.sender].name = _name;\n        _self.validators[msg.sender].rewardsAddress = _rewardsAddress;\n        _self.validators[msg.sender].sidechainAddress = _sidechainAddress;\n        if (_self.validators[msg.sender].initializedState == 0) {\n            _self.validatorsList.push(msg.sender);\n        } else {\n            _self.validators[msg.sender].initializedState = 1;\n        }\n        return true;\n    }\n\n    /**\n    * @dev Set new applications list\n    * @param _self Data pointer to storage\n    * @param _dailyTimestamp uint256 the daily reward timestamp from which this change should take effect\n    * @param _applications address[] array of applications\n    */\n    function setApplications(\n        Data storage _self,\n        uint256 _dailyTimestamp,\n        address[] _applications\n    )\n        public\n        returns (bool)\n    {\n\n        if (_self.selectedApplications.currentApplicationsList.length == 0) { // first time the daily validators list is set\n            require(\n                _updateCurrentApplicationsList(_self, _applications),\n                \"Failed to update applications list - all applications must be added first\"\n            );\n        } else {\n            _updatePreviousApplicationsList(_self);\n            require(\n                _updateCurrentApplicationsList(_self, _applications),\n                \"Failed to update applications list - all applications must be added first\"\n            );\n        }\n        _self.selectedApplications.updateTimestamp = _dailyTimestamp;\n        return true;\n    }\n\n    /**\n    * @dev Get which applications list to use. Current = 0, previous = 1\n    * @param _self Data pointer to storage\n    * @param _dailyTimestamp uint256 the daily reward timestamp (midnight UTC of each day)\n    */\n    function getSelectedApplicationsListType(Data storage _self, uint256 _dailyTimestamp)\n        public\n        view\n        returns (uint256)\n    {\n        if (_dailyTimestamp >= _self.selectedApplications.updateTimestamp) {\n            return 0;\n        } else {\n            return 1;\n        }\n    }\n\n    /**\n    * @dev Set new validators list\n    * @param _self Data pointer to storage\n    * @param _dailyTimestamp uint256 the daily reward timestamp from which this change should take effect\n    * @param _validators address[] array of validators\n    */\n    function setValidators(\n        Data storage _self,\n        uint256 _dailyTimestamp,\n        address[] _validators\n    )\n        public\n        returns (bool)\n    {\n\n        if (_self.selectedValidators.currentValidatorsList.length == 0) { // first time the daily validators list is set\n            require(\n                _updateCurrentValidatorsList(_self, _validators),\n                \"Failed to update validator list - all validators must be added first\"\n            );\n        } else {\n            _updatePreviousValidatorsList(_self);\n            require(\n                _updateCurrentValidatorsList(_self, _validators),\n                \"Failed to update validator list - all validators must be added first\"\n            );\n        }\n        _self.selectedValidators.updateTimestamp = _dailyTimestamp;\n        return true;\n    }\n\n    /**\n    * @dev Get which validator to use. Current = 0, previous = 1\n    * @param _self Data pointer to storage\n    * @param _dailyTimestamp uint256 the daily reward timestamp (midnight UTC of each day)\n    */\n    function getSelectedValidatorsListType(Data storage _self, uint256 _dailyTimestamp)\n        public\n        view\n        returns (uint256)\n    {\n        if (_dailyTimestamp >= _self.selectedValidators.updateTimestamp) {\n            return 0;\n        } else {\n            return 1;\n        }\n    }\n\n    /**\n    * @dev Updates the current dailyTimestamp and previous one\n    * @param _self Data pointer to storage\n    * @param _dailyTimestamp uint256 the daily reward timestamp (midnight UTC of each day)\n    */\n    function _updateDailyTimestamp(Data storage _self, uint256 _dailyTimestamp)\n        internal\n        returns (bool)\n    {\n        _self.previousDailyTimestamp = _self.currentDailyTimestamp;\n        _self.currentDailyTimestamp = _dailyTimestamp;\n        return true;\n    }\n\n    /**\n    * @dev Checks how many validators are needed for app rewards\n    * @param _self Data pointer to storage\n    * @param _dailyTimestamp uint256 the daily reward timestamp (midnight UTC of each day)\n    * @param _maxTotalSupply uint256 max total supply\n    * @param _currentTotalSupply uint256 current total supply\n    */\n    function _getMaxAppRewardsDailyAmount(\n        Data storage _self,\n        uint256 _dailyTimestamp,\n        uint256 _maxTotalSupply,\n        uint256 _currentTotalSupply\n    )\n        internal\n        view\n        returns (uint256)\n    {\n        return ((_maxTotalSupply - _currentTotalSupply) *\n        getParameterValue(_self, ParameterName.ApplicationRewardsPercent, _dailyTimestamp) *\n        getParameterValue(_self, ParameterName.ApplicationRewardsMaxVariationPercent, _dailyTimestamp)) / 1e8;\n    }\n\n\n    /**\n    * @dev Checks how many validators are needed for app rewards\n    * @param _self Data pointer to storage\n    * @param _dailyTimestamp uint256 the daily reward timestamp (midnight UTC of each day)\n    * @param _numOfValidators uint256 number of validators\n    * @param _maxTotalSupply uint256 max total supply\n    * @param _currentTotalSupply uint256 current total supply\n    */\n    function _getValidatorRewardsDailyAmountPerValidator(\n        Data storage _self,\n        uint256 _dailyTimestamp,\n        uint256 _numOfValidators,\n        uint256 _maxTotalSupply,\n        uint256 _currentTotalSupply\n    )\n        internal\n        view\n        returns (uint256)\n    {\n        return (((_maxTotalSupply - _currentTotalSupply) *\n        getParameterValue(_self, ParameterName.ValidatorRewardsPercent, _dailyTimestamp)) / 1e8) / _numOfValidators;\n    }\n\n    /**\n    * @dev Checks if app daily rewards amount is valid\n    * @param _self Data pointer to storage\n    * @param _applications address[] array of application addresses getting the daily reward\n    * @param _amounts uint256[] array of amounts each app should get\n    */\n    function _validateSubmittedData(\n        Data storage _self,\n        address[] _applications,\n        uint256[] _amounts\n    )\n        internal\n        view\n        returns (bool, uint256)\n    {\n        uint256 sum;\n        for (uint256 i = 0; i < _amounts.length; i++) {\n             sum += _amounts[i];\n            if (_self.applications[_applications[i]].initializedState != 1) return (false, 0);\n        }\n        return (true, sum);\n    }\n\n    /**\n    * @dev Checks if submitted data matches reward hash\n    * @param _dailyTimestamp uint256 the daily reward timestamp (midnight UTC of each day)\n    * @param _rewardsHash bytes32 hash of the rewards data\n    * @param _applications address[] array of application addresses getting the daily reward\n    * @param _amounts uint256[] array of amounts each app should get\n    */\n    function _rewardHashIsvalid(\n        uint256 _dailyTimestamp,\n        bytes32 _rewardsHash,\n        address[] _applications,\n        uint256[] _amounts\n    )\n        internal\n        pure\n        returns (bool)\n    {\n        return keccak256(abi.encodePacked(_dailyTimestamp, _applications, _amounts)) == _rewardsHash;\n    }\n\n    /**\n    * @dev Checks how many validators are needed for app rewards\n    * @param _self Data pointer to storage\n    * @param _dailyTimestamp uint256 the daily reward timestamp (midnight UTC of each day)\n    */\n    function _requiredValidatorsForValidatorsRewards(Data storage _self, uint256 _dailyTimestamp)\n        internal\n        view\n        returns (uint256)\n    {\n        if (getSelectedValidatorsListType(_self, _dailyTimestamp) == 0) {\n            return _self.selectedValidators.currentValidatorsList.length;\n        } else {\n            return _self.selectedValidators.previousValidatorsList.length;\n        }\n    }\n\n    /**\n    * @dev Checks how many validators are needed for app rewards\n    * @param _self Data pointer to storage\n    * @param _dailyTimestamp uint256 the daily reward timestamp (midnight UTC of each day)\n    */\n    function _requiredValidatorsForAppRewards(Data storage _self, uint256 _dailyTimestamp)\n        internal\n        view\n        returns (uint256)\n    {\n        if (getSelectedValidatorsListType(_self, _dailyTimestamp) == 0) {\n            return ((_self.selectedValidators.currentValidatorsList.length * getParameterValue(_self, ParameterName.ValidatorMajorityPercent, _dailyTimestamp)) / 1e8)+1;\n        } else {\n            return ((_self.selectedValidators.previousValidatorsList.length * getParameterValue(_self, ParameterName.ValidatorMajorityPercent, _dailyTimestamp)) / 1e8)+1;\n        }\n    }\n\n    /**\n    * @dev Update current daily applications list.\n    * If new, push.\n    * If same size, replace\n    * If different size, delete, and then push.\n    * @param _self Data pointer to storage\n    * @param _applications address[] array of applications\n    */\n    function _updateCurrentApplicationsList(Data storage _self, address[] _applications)\n        internal\n        returns (bool)\n    {\n        bool emptyCurrentApplicationsList = _self.selectedApplications.currentApplicationsList.length == 0;\n        if (!emptyCurrentApplicationsList && _self.selectedApplications.currentApplicationsList.length != _applications.length) {\n            _deleteCurrentApplicationsList(_self);\n            emptyCurrentApplicationsList = true;\n        }\n\n        for (uint256 i = 0; i < _applications.length; i++) {\n            if (_self.applications[_applications[i]].initializedState != 1) return false; // proposed application doesn't exist\n            if (emptyCurrentApplicationsList) {\n                _self.selectedApplications.currentApplicationsList.push(_applications[i]);\n            } else {\n                _self.selectedApplications.currentApplicationsList[i] = _applications[i];\n            }\n            _self.selectedApplications.currentApplications[_applications[i]] = true;\n        }\n        return true;\n    }\n\n    /**\n    * @dev Update previous daily applications list\n    * @param _self Data pointer to storage\n    */\n    function _updatePreviousApplicationsList(Data storage _self)\n        internal\n        returns (bool)\n    {\n        bool emptyPreviousApplicationsList = _self.selectedApplications.previousApplicationsList.length == 0;\n        if (\n            !emptyPreviousApplicationsList &&\n            _self.selectedApplications.previousApplicationsList.length != _self.selectedApplications.currentApplicationsList.length\n        ) {\n            _deletePreviousApplicationsList(_self);\n            emptyPreviousApplicationsList = true;\n        }\n        for (uint256 i = 0; i < _self.selectedApplications.currentApplicationsList.length; i++) {\n            if (emptyPreviousApplicationsList) {\n                _self.selectedApplications.previousApplicationsList.push(_self.selectedApplications.currentApplicationsList[i]);\n            } else {\n                _self.selectedApplications.previousApplicationsList[i] = _self.selectedApplications.currentApplicationsList[i];\n            }\n            _self.selectedApplications.previousApplications[_self.selectedApplications.currentApplicationsList[i]] = true;\n        }\n        return true;\n    }\n\n    /**\n    * @dev Delete existing values from the current applications list\n    * @param _self Data pointer to storage\n    */\n    function _deleteCurrentApplicationsList(Data storage _self)\n        internal\n        returns (bool)\n    {\n        for (uint256 i = 0; i < _self.selectedApplications.currentApplicationsList.length ; i++) {\n             delete _self.selectedApplications.currentApplications[_self.selectedApplications.currentApplicationsList[i]];\n        }\n        delete  _self.selectedApplications.currentApplicationsList;\n        return true;\n    }\n\n    /**\n    * @dev Delete existing values from the previous applications list\n    * @param _self Data pointer to storage\n    */\n    function _deletePreviousApplicationsList(Data storage _self)\n        internal\n        returns (bool)\n    {\n        for (uint256 i = 0; i < _self.selectedApplications.previousApplicationsList.length ; i++) {\n            delete _self.selectedApplications.previousApplications[_self.selectedApplications.previousApplicationsList[i]];\n        }\n        delete _self.selectedApplications.previousApplicationsList;\n        return true;\n    }\n\n    /**\n    * @dev Update current daily validators list.\n    * If new, push.\n    * If same size, replace\n    * If different size, delete, and then push.\n    * @param _self Data pointer to storage\n    * @param _validators address[] array of validators\n    */\n    function _updateCurrentValidatorsList(Data storage _self, address[] _validators)\n        internal\n        returns (bool)\n    {\n        bool emptyCurrentValidatorsList = _self.selectedValidators.currentValidatorsList.length == 0;\n        if (!emptyCurrentValidatorsList && _self.selectedValidators.currentValidatorsList.length != _validators.length) {\n            _deleteCurrentValidatorsList(_self);\n            emptyCurrentValidatorsList = true;\n        }\n\n        for (uint256 i = 0; i < _validators.length; i++) {\n            if (_self.validators[_validators[i]].initializedState != 1) return false; // proposed validator doesn't exist\n            if (emptyCurrentValidatorsList) {\n                _self.selectedValidators.currentValidatorsList.push(_validators[i]);\n            } else {\n                _self.selectedValidators.currentValidatorsList[i] = _validators[i];\n            }\n            _self.selectedValidators.currentValidators[_validators[i]] = true;\n        }\n        return true;\n    }\n\n    /**\n    * @dev Update previous daily validators list\n    * @param _self Data pointer to storage\n    */\n    function _updatePreviousValidatorsList(Data storage _self)\n        internal\n        returns (bool)\n    {\n        bool emptyPreviousValidatorsList = _self.selectedValidators.previousValidatorsList.length == 0;\n        if (\n            !emptyPreviousValidatorsList &&\n            _self.selectedValidators.previousValidatorsList.length != _self.selectedValidators.currentValidatorsList.length\n        ) {\n            _deletePreviousValidatorsList(_self);\n            emptyPreviousValidatorsList = true;\n        }\n        for (uint256 i = 0; i < _self.selectedValidators.currentValidatorsList.length; i++) {\n            if (emptyPreviousValidatorsList) {\n                _self.selectedValidators.previousValidatorsList.push(_self.selectedValidators.currentValidatorsList[i]);\n            } else {\n                _self.selectedValidators.previousValidatorsList[i] = _self.selectedValidators.currentValidatorsList[i];\n            }\n            _self.selectedValidators.previousValidators[_self.selectedValidators.currentValidatorsList[i]] = true;\n        }\n        return true;\n    }\n\n    /**\n    * @dev Delete existing values from the current validators list\n    * @param _self Data pointer to storage\n    */\n    function _deleteCurrentValidatorsList(Data storage _self)\n        internal\n        returns (bool)\n    {\n        for (uint256 i = 0; i < _self.selectedValidators.currentValidatorsList.length ; i++) {\n             delete _self.selectedValidators.currentValidators[_self.selectedValidators.currentValidatorsList[i]];\n        }\n        delete  _self.selectedValidators.currentValidatorsList;\n        return true;\n    }\n\n    /**\n    * @dev Delete existing values from the previous validators list\n    * @param _self Data pointer to storage\n    */\n    function _deletePreviousValidatorsList(Data storage _self)\n        internal\n        returns (bool)\n    {\n        for (uint256 i = 0; i < _self.selectedValidators.previousValidatorsList.length ; i++) {\n            delete _self.selectedValidators.previousValidators[_self.selectedValidators.previousValidatorsList[i]];\n        }\n        delete _self.selectedValidators.previousValidatorsList;\n        return true;\n    }\n\n}",
  "sourcePath": "/Users/jretina/Programming/PROPSProject/props-token-distribution/contracts/token/PropsRewardsLib.sol",
  "compiler": {
    "name": "solc",
    "version": "0.4.24+commit.e67f0147.Emscripten.clang"
  },
  "schemaVersion": "2.0.1",
  "updatedAt": "2019-05-12T14:45:14.876Z"
}