{
  "contractName": "PropsRewardsLib",
  "abi": [
    {
      "constant": false,
      "inputs": [
        {
          "name": "_self",
          "type": "PropsRewardsLib.Data storage"
        },
        {
          "name": "_rewardsDay",
          "type": "uint256"
        },
        {
          "name": "_rewardsHash",
          "type": "bytes32"
        },
        {
          "name": "_maxTotalSupply",
          "type": "uint256"
        }
      ],
      "name": "calculateValidatorRewards",
      "outputs": [
        {
          "name": "",
          "type": "uint256"
        }
      ],
      "payable": false,
      "stateMutability": "nonpayable",
      "type": "function"
    },
    {
      "constant": false,
      "inputs": [
        {
          "name": "_self",
          "type": "PropsRewardsLib.Data storage"
        },
        {
          "name": "_rewardsDay",
          "type": "uint256"
        },
        {
          "name": "_rewardsHash",
          "type": "bytes32"
        },
        {
          "name": "_applications",
          "type": "address[]"
        },
        {
          "name": "_amounts",
          "type": "uint256[]"
        },
        {
          "name": "_maxTotalSupply",
          "type": "uint256"
        },
        {
          "name": "_currentTotalSupply",
          "type": "uint256"
        }
      ],
      "name": "calculateApplicationRewards",
      "outputs": [
        {
          "name": "",
          "type": "uint256"
        }
      ],
      "payable": false,
      "stateMutability": "nonpayable",
      "type": "function"
    },
    {
      "constant": true,
      "inputs": [
        {
          "name": "_self",
          "type": "PropsRewardsLib.Data storage"
        },
        {
          "name": "_name",
          "type": "PropsRewardsLib.ParameterName"
        },
        {
          "name": "_rewardsDay",
          "type": "uint256"
        }
      ],
      "name": "getParameterValue",
      "outputs": [
        {
          "name": "",
          "type": "uint256"
        }
      ],
      "payable": false,
      "stateMutability": "view",
      "type": "function"
    },
    {
      "constant": false,
      "inputs": [
        {
          "name": "_self",
          "type": "PropsRewardsLib.Data storage"
        },
        {
          "name": "_name",
          "type": "PropsRewardsLib.ParameterName"
        },
        {
          "name": "_value",
          "type": "uint256"
        },
        {
          "name": "_rewardsDay",
          "type": "uint256"
        }
      ],
      "name": "updateParameter",
      "outputs": [
        {
          "name": "",
          "type": "bool"
        }
      ],
      "payable": false,
      "stateMutability": "nonpayable",
      "type": "function"
    },
    {
      "constant": false,
      "inputs": [
        {
          "name": "_self",
          "type": "PropsRewardsLib.Data storage"
        },
        {
          "name": "_name",
          "type": "bytes32"
        },
        {
          "name": "_rewardsAddress",
          "type": "address"
        },
        {
          "name": "_sidechainAddress",
          "type": "address"
        }
      ],
      "name": "updateApplication",
      "outputs": [
        {
          "name": "",
          "type": "bool"
        }
      ],
      "payable": false,
      "stateMutability": "nonpayable",
      "type": "function"
    },
    {
      "constant": false,
      "inputs": [
        {
          "name": "_self",
          "type": "PropsRewardsLib.Data storage"
        },
        {
          "name": "_name",
          "type": "bytes32"
        },
        {
          "name": "_rewardsAddress",
          "type": "address"
        },
        {
          "name": "_sidechainAddress",
          "type": "address"
        }
      ],
      "name": "updateValidator",
      "outputs": [
        {
          "name": "",
          "type": "bool"
        }
      ],
      "payable": false,
      "stateMutability": "nonpayable",
      "type": "function"
    },
    {
      "constant": false,
      "inputs": [
        {
          "name": "_self",
          "type": "PropsRewardsLib.Data storage"
        },
        {
          "name": "_rewardsDay",
          "type": "uint256"
        },
        {
          "name": "_validators",
          "type": "address[]"
        }
      ],
      "name": "setValidators",
      "outputs": [
        {
          "name": "",
          "type": "bool"
        }
      ],
      "payable": false,
      "stateMutability": "nonpayable",
      "type": "function"
    },
    {
      "constant": false,
      "inputs": [
        {
          "name": "_self",
          "type": "PropsRewardsLib.Data storage"
        },
        {
          "name": "_rewardsDay",
          "type": "uint256"
        },
        {
          "name": "_applications",
          "type": "address[]"
        }
      ],
      "name": "setApplications",
      "outputs": [
        {
          "name": "",
          "type": "bool"
        }
      ],
      "payable": false,
      "stateMutability": "nonpayable",
      "type": "function"
    },
    {
      "constant": true,
      "inputs": [
        {
          "name": "_self",
          "type": "PropsRewardsLib.Data storage"
        },
        {
          "name": "_entityType",
          "type": "PropsRewardsLib.RewardedEntityType"
        },
        {
          "name": "_rewardsDay",
          "type": "uint256"
        }
      ],
      "name": "getEntities",
      "outputs": [
        {
          "name": "",
          "type": "address[]"
        }
      ],
      "payable": false,
      "stateMutability": "view",
      "type": "function"
    },
    {
      "constant": false,
      "inputs": [
        {
          "name": "_self",
          "type": "PropsRewardsLib.Data storage"
        },
        {
          "name": "_rewardsDay",
          "type": "uint256"
        },
        {
          "name": "_rewardsHash",
          "type": "bytes32"
        }
      ],
      "name": "_updateDailyRewardsHash",
      "outputs": [
        {
          "name": "",
          "type": "bool"
        }
      ],
      "payable": false,
      "stateMutability": "nonpayable",
      "type": "function"
    },
    {
      "constant": true,
      "inputs": [
        {
          "name": "_self",
          "type": "PropsRewardsLib.Data storage"
        },
        {
          "name": "_rewardsDay",
          "type": "uint256"
        },
        {
          "name": "_maxTotalSupply",
          "type": "uint256"
        },
        {
          "name": "_currentTotalSupply",
          "type": "uint256"
        }
      ],
      "name": "_getMaxAppRewardsDailyAmount",
      "outputs": [
        {
          "name": "",
          "type": "uint256"
        }
      ],
      "payable": false,
      "stateMutability": "view",
      "type": "function"
    },
    {
      "constant": true,
      "inputs": [
        {
          "name": "_self",
          "type": "PropsRewardsLib.Data storage"
        },
        {
          "name": "_rewardsDay",
          "type": "uint256"
        },
        {
          "name": "_numOfValidators",
          "type": "uint256"
        },
        {
          "name": "_maxTotalSupply",
          "type": "uint256"
        },
        {
          "name": "_currentTotalSupply",
          "type": "uint256"
        }
      ],
      "name": "_getValidatorRewardsDailyAmountPerValidator",
      "outputs": [
        {
          "name": "",
          "type": "uint256"
        }
      ],
      "payable": false,
      "stateMutability": "view",
      "type": "function"
    },
    {
      "constant": true,
      "inputs": [
        {
          "name": "_self",
          "type": "PropsRewardsLib.Data storage"
        },
        {
          "name": "_applications",
          "type": "address[]"
        },
        {
          "name": "_amounts",
          "type": "uint256[]"
        }
      ],
      "name": "_validateSubmittedData",
      "outputs": [
        {
          "name": "",
          "type": "uint256"
        }
      ],
      "payable": false,
      "stateMutability": "view",
      "type": "function"
    },
    {
      "constant": true,
      "inputs": [
        {
          "name": "_rewardsDay",
          "type": "uint256"
        },
        {
          "name": "_rewardsHash",
          "type": "bytes32"
        },
        {
          "name": "_applications",
          "type": "address[]"
        },
        {
          "name": "_amounts",
          "type": "uint256[]"
        }
      ],
      "name": "_rewardHashIsvalid",
      "outputs": [
        {
          "name": "",
          "type": "bool"
        }
      ],
      "payable": false,
      "stateMutability": "pure",
      "type": "function"
    },
    {
      "constant": true,
      "inputs": [
        {
          "name": "_self",
          "type": "PropsRewardsLib.Data storage"
        },
        {
          "name": "_rewardsDay",
          "type": "uint256"
        }
      ],
      "name": "_requiredValidatorsForValidatorsRewards",
      "outputs": [
        {
          "name": "",
          "type": "uint256"
        }
      ],
      "payable": false,
      "stateMutability": "view",
      "type": "function"
    },
    {
      "constant": true,
      "inputs": [
        {
          "name": "_self",
          "type": "PropsRewardsLib.Data storage"
        },
        {
          "name": "_rewardsDay",
          "type": "uint256"
        }
      ],
      "name": "_requiredValidatorsForAppRewards",
      "outputs": [
        {
          "name": "",
          "type": "uint256"
        }
      ],
      "payable": false,
      "stateMutability": "view",
      "type": "function"
    }
  ],
  "bytecode": "0x613248610030600b82828239805160001a6073146000811461002057610022565bfe5b5030600052607381538281f30073000000000000000000000000000000000000000030146080604052600436106100fd576000357c0100000000000000000000000000000000000000000000000000000000900463ffffffff1680630e2950711461010257806311cb33da146101955780633f065dc9146101fb578063476b90e5146102b557806363cad06a146103a85780637bf9067f1461043a578063895ef6ce146105065780638993273514610563578063a352a57d146105ef578063a4143f831461062d578063ac002c131461066b578063b3b64bae146106c7578063cc1b8c9c1461072a578063d81b7050146107bc578063e1a3f61414610807578063e2c593d314610859575b600080fd5b81801561010e57600080fd5b5061017b600480360381019080803590602001909291908035600019169060200190929190803573ffffffffffffffffffffffffffffffffffffffff169060200190929190803573ffffffffffffffffffffffffffffffffffffffff1690602001909291905050506108ec565b604051808215151515815260200191505060405180910390f35b8180156101a157600080fd5b506101e160048036038101908080359060200190929190803560ff1690602001909291908035906020019092919080359060200190929190505050610cbb565b604051808215151515815260200191505060405180910390f35b61029f600480360381019080803590602001909291908035906020019082018035906020019080806020026020016040519081016040528093929190818152602001838360200280828437820191505050505050919291929080359060200190820180359060200190808060200260200160405190810160405280939291908181526020018383602002808284378201915050505050509192919290505050610ec5565b6040518082815260200191505060405180910390f35b8180156102c157600080fd5b506103926004803603810190808035906020019092919080359060200190929190803560001916906020019092919080359060200190820180359060200190808060200260200160405190810160405280939291908181526020018383602002808284378201915050505050509192919290803590602001908201803590602001908080602002602001604051908101604052809392919081815260200183836020028082843782019150505050505091929192908035906020019092919080359060200190929190505050611024565b6040518082815260200191505060405180910390f35b8180156103b457600080fd5b50610420600480360381019080803590602001909291908035906020019092919080359060200190820180359060200190808060200260200160405190810160405280939291908181526020018383602002808284378201915050505050509192919290505050611898565b604051808215151515815260200191505060405180910390f35b6104ec6004803603810190808035906020019092919080356000191690602001909291908035906020019082018035906020019080806020026020016040519081016040528093929190818152602001838360200280828437820191505050505050919291929080359060200190820180359060200190808060200260200160405190810160405280939291908181526020018383602002808284378201915050505050509192919290505050611aa0565b604051808215151515815260200191505060405180910390f35b81801561051257600080fd5b5061054960048036038101908080359060200190929190803590602001909291908035600019169060200190929190505050611ba2565b604051808215151515815260200191505060405180910390f35b61059860048036038101908080359060200190929190803560ff16906020019092919080359060200190929190505050611c1f565b6040518080602001828103825283818151815260200191508051906020019060200280838360005b838110156105db5780820151818401526020810190506105c0565b505050509050019250505060405180910390f35b610617600480360381019080803590602001909291908035906020019092919050505061211d565b6040518082815260200191505060405180910390f35b610655600480360381019080803590602001909291908035906020019092919050505061228b565b6040518082815260200191505060405180910390f35b6106b16004803603810190808035906020019092919080359060200190929190803590602001909291908035906020019092919080359060200190929190505050612437565b6040518082815260200191505060405180910390f35b8180156106d357600080fd5b50610714600480360381019080803590602001909291908035906020019092919080356000191690602001909291908035906020019092919050505061246e565b6040518082815260200191505060405180910390f35b81801561073657600080fd5b506107a2600480360381019080803590602001909291908035906020019092919080359060200190820180359060200190808060200260200160405190810160405280939291908181526020018383602002808284378201915050505050509192919290505050612574565b604051808215151515815260200191505060405180910390f35b6107f160048036038101908080359060200190929190803560ff1690602001909291908035906020019092919050505061277c565b6040518082815260200191505060405180910390f35b61084360048036038101908080359060200190929190803590602001909291908035906020019092919080359060200190929190505050612803565b6040518082815260200191505060405180910390f35b81801561086557600080fd5b506108d2600480360381019080803590602001909291908035600019169060200190929190803573ffffffffffffffffffffffffffffffffffffffff169060200190929190803573ffffffffffffffffffffffffffffffffffffffff16906020019092919050505061283b565b604051808215151515815260200191505060405180910390f35b60008282600073ffffffffffffffffffffffffffffffffffffffff168273ffffffffffffffffffffffffffffffffffffffff161415801561095a5750600073ffffffffffffffffffffffffffffffffffffffff168173ffffffffffffffffffffffffffffffffffffffff1614155b15156109f4576040517f08c379a000000000000000000000000000000000000000000000000000000000815260040180806020018281038252602f8152602001807f4d75737420686176652076616c6964207265776172647320616e64207369646581526020017f636861696e20616464726573736573000000000000000000000000000000000081525060400191505060405180910390fd5b858760020160003373ffffffffffffffffffffffffffffffffffffffff1673ffffffffffffffffffffffffffffffffffffffff1681526020019081526020016000206000018160001916905550848760020160003373ffffffffffffffffffffffffffffffffffffffff1673ffffffffffffffffffffffffffffffffffffffff16815260200190815260200160002060010160006101000a81548173ffffffffffffffffffffffffffffffffffffffff021916908373ffffffffffffffffffffffffffffffffffffffff160217905550838760020160003373ffffffffffffffffffffffffffffffffffffffff1673ffffffffffffffffffffffffffffffffffffffff16815260200190815260200160002060020160006101000a81548173ffffffffffffffffffffffffffffffffffffffff021916908373ffffffffffffffffffffffffffffffffffffffff16021790555060008760020160003373ffffffffffffffffffffffffffffffffffffffff1673ffffffffffffffffffffffffffffffffffffffff168152602001908152602001600020600301541415610cad57866003013390806001815401808255809150509060018203906000526020600020016000909192909190916101000a81548173ffffffffffffffffffffffffffffffffffffffff021916908373ffffffffffffffffffffffffffffffffffffffff1602179055505060018760020160003373ffffffffffffffffffffffffffffffffffffffff1673ffffffffffffffffffffffffffffffffffffffff1681526020019081526020016000206003018190555060018760020160003373ffffffffffffffffffffffffffffffffffffffff1673ffffffffffffffffffffffffffffffffffffffff16815260200190815260200160002060040160006101000a81548160ff02191690836001811115610ca757fe5b02179055505b600192505050949350505050565b600084828160110154811480610d005750600182601101540181148015610cff57508160140154826013016000838152602001908152602001600020600101544203115b5b1515610d9a576040517f08c379a00000000000000000000000000000000000000000000000000000000081526004018080602001828103825260228152602001807f4d75737420626520666f72207468697320726f756e64206f7220746865206e6581526020017f787400000000000000000000000000000000000000000000000000000000000081525060400191505060405180910390fd5b866004016000876003811115610dac57fe5b81526020019081526020016000206002015484111515610e1b5784876004016000886003811115610dd957fe5b81526020019081526020016000206000018190555083876004016000886003811115610e0157fe5b815260200190815260200160002060020181905550610eb7565b866004016000876003811115610e2d57fe5b815260200190815260200160002060000154876004016000886003811115610e5157fe5b81526020019081526020016000206001018190555084876004016000886003811115610e7957fe5b81526020019081526020016000206000018190555083876004016000886003811115610ea157fe5b8152602001908152602001600020600201819055505b600192505050949350505050565b60008060008060019150600090505b8451811015610f70578481815181101515610eeb57fe5b906020019060200201518301925060018760000160008884815181101515610f0f57fe5b9060200190602002015173ffffffffffffffffffffffffffffffffffffffff1673ffffffffffffffffffffffffffffffffffffffff16815260200190815260200160002060030154141515610f6357600091505b8080600101915050610ed4565b600083118015610f7d5750815b1515611017576040517f08c379a00000000000000000000000000000000000000000000000000000000081526004018080602001828103825260278152602001807f53756d207a65726f206f72206e6f6e65206578697374696e672061707020737581526020017f626d69747465640000000000000000000000000000000000000000000000000081525060400191505060405180910390fd5b8293505050509392505050565b6000808888816011015481148061106a575060018260110154018114801561106957508160140154826013016000838152602001908152602001600020600101544203115b5b1515611104576040517f08c379a00000000000000000000000000000000000000000000000000000000081526004018080602001828103825260228152602001807f4d75737420626520666f72207468697320726f756e64206f7220746865206e6581526020017f787400000000000000000000000000000000000000000000000000000000000081525060400191505060405180910390fd5b8a8981600f016000826000191660001916815260200190815260200160002060000160003373ffffffffffffffffffffffffffffffffffffffff1673ffffffffffffffffffffffffffffffffffffffff16815260200190815260200160002060009054906101000a900460ff1615151561120c576040517f08c379a00000000000000000000000000000000000000000000000000000000081526004018080602001828103825260248152602001807f4d757374206265206f6e65207375626d697373696f6e207065722076616c696481526020017f61746f720000000000000000000000000000000000000000000000000000000081525060400191505060405180910390fd5b8c8c600061134f8360050160606040519081016040529081600282018054806020026020016040519081016040528092919081815260200182805480156112a857602002820191906000526020600020905b8160009054906101000a900473ffffffffffffffffffffffffffffffffffffffff1673ffffffffffffffffffffffffffffffffffffffff168152602001906001019080831161125e575b505050505081526020016003820180548060200260200160405190810160405280929190818152602001828054801561133657602002820191906000526020600020905b8160009054906101000a900473ffffffffffffffffffffffffffffffffffffffff1673ffffffffffffffffffffffffffffffffffffffff16815260200190600101908083116112ec575b5050505050815260200160048201548152505083612c0a565b1415611446578160050160000160003373ffffffffffffffffffffffffffffffffffffffff1673ffffffffffffffffffffffffffffffffffffffff16815260200190815260200160002060009054906101000a900460ff161515611441576040517f08c379a00000000000000000000000000000000000000000000000000000000081526004018080602001828103825260248152602001807f4d75737420626520612063757272656e742073656c65637465642076616c696481526020017f61746f720000000000000000000000000000000000000000000000000000000081525060400191505060405180910390fd5b611533565b8160050160010160003373ffffffffffffffffffffffffffffffffffffffff1673ffffffffffffffffffffffffffffffffffffffff16815260200190815260200160002060009054906101000a900460ff161515611532576040517f08c379a00000000000000000000000000000000000000000000000000000000081526004018080602001828103825260258152602001807f4d75737420626520612070726576696f75732073656c65637465642076616c6981526020017f6461746f7200000000000000000000000000000000000000000000000000000081525060400191505060405180910390fd5b5b61153f8e8e8e8e611aa0565b15156115b3576040517f08c379a00000000000000000000000000000000000000000000000000000000081526004018080602001828103825260168152602001807f526577617264204861736820697320696e76616c69640000000000000000000081525060200191505060405180910390fd5b60008f600f0160008f60001916600019168152602001908152602001600020600301541415611637578e6010018d908060018154018082558091505090600182039060005260206000200160009091929091909150906000191690555060018f600f0160008f60001916600019168152602001908152602001600020600301819055505b60018f600f0160008f6000191660001916815260200190815260200160002060000160003373ffffffffffffffffffffffffffffffffffffffff1673ffffffffffffffffffffffffffffffffffffffff16815260200190815260200160002060006101000a81548160ff0219169083151502179055508e600f0160008e60001916600019168152602001908152602001600020600201600081548092919060010191905055508e600f0160008e600019166000191681526020019081526020016000206001013390806001815401808255809150509060018203906000526020600020016000909192909190916101000a81548173ffffffffffffffffffffffffffffffffffffffff021916908373ffffffffffffffffffffffffffffffffffffffff1602179055505061176b8f8f61228b565b8f600f0160008f6000191660001916815260200190815260200160002060020154141561188157888f600f0160008f60001916600019168152602001908152602001600020600501819055506117c28f8d8d610ec5565b96506117d08f8f8c8c612803565b871115151561186d576040517f08c379a00000000000000000000000000000000000000000000000000000000081526004018080602001828103825260308152602001807f52657761726473206461746120697320696e76616c6964202d2065786365656481526020017f206461696c7920766172696174696f6e0000000000000000000000000000000081525060400191505060405180910390fd5b6118788f8f8f611ba2565b50869750611886565b600097505b50505050505050979650505050505050565b6000838381600501600401548110151515611941576040517f08c379a00000000000000000000000000000000000000000000000000000000081526004018080602001828103825260308152602001807f4d757374206265206578697374696e67206f72206675747572652076616c696481526020017f61746f727320726577617264734461790000000000000000000000000000000081525060400191505060405180910390fd5b858460008090505b8151811015611a32576001836002016000848481518110151561196857fe5b9060200190602002015173ffffffffffffffffffffffffffffffffffffffff1673ffffffffffffffffffffffffffffffffffffffff16815260200190815260200160002060030154141515611a25576040517f08c379a00000000000000000000000000000000000000000000000000000000081526004018080602001828103825260148152602001807f56616c696461746f72206d75737420657869737400000000000000000000000081525060200191505060405180910390fd5b8080600101915050611949565b600089600501600201805490501415611a5857611a528960050188612c2d565b50611a84565b8860050160040154881115611a7557611a7389600501612dfc565b505b611a828960050188612c2d565b505b8789600501600401819055506001955050505050509392505050565b6000836000191685848460405160200180848152602001838051906020019060200280838360005b83811015611ae3578082015181840152602081019050611ac8565b50505050905001828051906020019060200280838360005b83811015611b16578082015181840152602081019050611afb565b5050505090500193505050506040516020818303038152906040526040518082805190602001908083835b602083101515611b665780518252602082019150602081019050602083039250611b41565b6001836020036101000a038019825116818451168082178552505050505050905001915050604051809103902060001916149050949350505050565b60008184601301600085815260200190815260200160002060000181600019169055504284601301600085815260200190815260200160002060010181905550600184600f016000846000191660001916815260200190815260200160002060040181905550600183018460110181905550600190509392505050565b606060006001811115611c2e57fe5b836001811115611c3a57fe5b1415611ead576000611d8185600a016060604051908101604052908160028201805480602002602001604051908101604052809291908181526020018280548015611cda57602002820191906000526020600020905b8160009054906101000a900473ffffffffffffffffffffffffffffffffffffffff1673ffffffffffffffffffffffffffffffffffffffff1681526020019060010190808311611c90575b5050505050815260200160038201805480602002602001604051908101604052809291908181526020018280548015611d6857602002820191906000526020600020905b8160009054906101000a900473ffffffffffffffffffffffffffffffffffffffff1673ffffffffffffffffffffffffffffffffffffffff1681526020019060010190808311611d1e575b5050505050815260200160048201548152505084612c0a565b1415611e1a5783600a01600201805480602002602001604051908101604052809291908181526020018280548015611e0e57602002820191906000526020600020905b8160009054906101000a900473ffffffffffffffffffffffffffffffffffffffff1673ffffffffffffffffffffffffffffffffffffffff1681526020019060010190808311611dc4575b50505050509050612116565b83600a01600301805480602002602001604051908101604052809291908181526020018280548015611ea157602002820191906000526020600020905b8160009054906101000a900473ffffffffffffffffffffffffffffffffffffffff1673ffffffffffffffffffffffffffffffffffffffff1681526020019060010190808311611e57575b50505050509050612116565b6000611fee856005016060604051908101604052908160028201805480602002602001604051908101604052809291908181526020018280548015611f4757602002820191906000526020600020905b8160009054906101000a900473ffffffffffffffffffffffffffffffffffffffff1673ffffffffffffffffffffffffffffffffffffffff1681526020019060010190808311611efd575b5050505050815260200160038201805480602002602001604051908101604052809291908181526020018280548015611fd557602002820191906000526020600020905b8160009054906101000a900473ffffffffffffffffffffffffffffffffffffffff1673ffffffffffffffffffffffffffffffffffffffff1681526020019060010190808311611f8b575b5050505050815260200160048201548152505084612c0a565b1415612087578360050160020180548060200260200160405190810160405280929190818152602001828054801561207b57602002820191906000526020600020905b8160009054906101000a900473ffffffffffffffffffffffffffffffffffffffff1673ffffffffffffffffffffffffffffffffffffffff1681526020019060010190808311612031575b50505050509050612116565b8360050160030180548060200260200160405190810160405280929190818152602001828054801561210e57602002820191906000526020600020905b8160009054906101000a900473ffffffffffffffffffffffffffffffffffffffff1673ffffffffffffffffffffffffffffffffffffffff16815260200190600101908083116120c4575b505050505090505b9392505050565b60008061225f8460050160606040519081016040529081600282018054806020026020016040519081016040528092919081815260200182805480156121b857602002820191906000526020600020905b8160009054906101000a900473ffffffffffffffffffffffffffffffffffffffff1673ffffffffffffffffffffffffffffffffffffffff168152602001906001019080831161216e575b505050505081526020016003820180548060200260200160405190810160405280929190818152602001828054801561224657602002820191906000526020600020905b8160009054906101000a900473ffffffffffffffffffffffffffffffffffffffff1673ffffffffffffffffffffffffffffffffffffffff16815260200190600101908083116121fc575b5050505050815260200160048201548152505084612c0a565b14156122775782600501600201805490509050612285565b826005016003018054905090505b92915050565b6000806123cd84600501606060405190810160405290816002820180548060200260200160405190810160405280929190818152602001828054801561232657602002820191906000526020600020905b8160009054906101000a900473ffffffffffffffffffffffffffffffffffffffff1673ffffffffffffffffffffffffffffffffffffffff16815260200190600101908083116122dc575b50505050508152602001600382018054806020026020016040519081016040528092919081815260200182805480156123b457602002820191906000526020600020905b8160009054906101000a900473ffffffffffffffffffffffffffffffffffffffff1673ffffffffffffffffffffffffffffffffffffffff168152602001906001019080831161236a575b5050505050815260200160048201548152505084612c0a565b14156124045760016305f5e1006123e68560028661277c565b8560050160020180549050028115156123fb57fe5b04019050612431565b60016305f5e1006124178560028661277c565b85600501600301805490500281151561242c57fe5b040190505b92915050565b6000836305f5e10061244b8860038961277c565b8486030281151561245857fe5b0481151561246257fe5b04905095945050505050565b600080600186600f01600086600019166000191681526020019081526020016000206004015414156125665785601101548510156124ce5785600f016000856000191660001916815260200190815260200160002060020154905061250c565b6124d8868661211d565b905085600f01600085600019166000191681526020019081526020016000206002015481111561250b576000915061256b565b5b600286600f01600086600019166000191681526020019081526020016000206004018190555061255f868683868a600f0160008a6000191660001916815260200190815260200160002060050154612437565b915061256b565b600091505b50949350505050565b6000838381600a0160040154811015151561261d576040517f08c379a00000000000000000000000000000000000000000000000000000000081526004018080602001828103825260328152602001807f4d757374206265206578697374696e67206f7220667574757265206170706c6981526020017f636174696f6e732072657761726473446179000000000000000000000000000081525060400191505060405180910390fd5b858460008090505b815181101561270e576001836000016000848481518110151561264457fe5b9060200190602002015173ffffffffffffffffffffffffffffffffffffffff1673ffffffffffffffffffffffffffffffffffffffff16815260200190815260200160002060030154141515612701576040517f08c379a00000000000000000000000000000000000000000000000000000000081526004018080602001828103825260168152602001807f4170706c69636174696f6e206d7573742065786973740000000000000000000081525060200191505060405180910390fd5b8080600101915050612625565b600089600a016002018054905014156127345761272e89600a0188612c2d565b50612760565b88600a01600401548811156127515761274f89600a01612dfc565b505b61275e89600a0188612c2d565b505b8789600a01600401819055506001955050505050509392505050565b600083600401600084600381111561279057fe5b815260200190815260200160002060020154821015156127d5578360040160008460038111156127bc57fe5b81526020019081526020016000206000015490506127fc565b8360040160008460038111156127e757fe5b81526020019081526020016000206001015490505b9392505050565b60006305f5e1006128168660018761277c565b6128228760008861277c565b848603020281151561283057fe5b049050949350505050565b60008282600073ffffffffffffffffffffffffffffffffffffffff168273ffffffffffffffffffffffffffffffffffffffff16141580156128a95750600073ffffffffffffffffffffffffffffffffffffffff168173ffffffffffffffffffffffffffffffffffffffff1614155b1515612943576040517f08c379a000000000000000000000000000000000000000000000000000000000815260040180806020018281038252602f8152602001807f4d75737420686176652076616c6964207265776172647320616e64207369646581526020017f636861696e20616464726573736573000000000000000000000000000000000081525060400191505060405180910390fd5b858760000160003373ffffffffffffffffffffffffffffffffffffffff1673ffffffffffffffffffffffffffffffffffffffff1681526020019081526020016000206000018160001916905550848760000160003373ffffffffffffffffffffffffffffffffffffffff1673ffffffffffffffffffffffffffffffffffffffff16815260200190815260200160002060010160006101000a81548173ffffffffffffffffffffffffffffffffffffffff021916908373ffffffffffffffffffffffffffffffffffffffff160217905550838760000160003373ffffffffffffffffffffffffffffffffffffffff1673ffffffffffffffffffffffffffffffffffffffff16815260200190815260200160002060020160006101000a81548173ffffffffffffffffffffffffffffffffffffffff021916908373ffffffffffffffffffffffffffffffffffffffff16021790555060008760000160003373ffffffffffffffffffffffffffffffffffffffff1673ffffffffffffffffffffffffffffffffffffffff168152602001908152602001600020600301541415612bfc57866001013390806001815401808255809150509060018203906000526020600020016000909192909190916101000a81548173ffffffffffffffffffffffffffffffffffffffff021916908373ffffffffffffffffffffffffffffffffffffffff1602179055505060018760000160003373ffffffffffffffffffffffffffffffffffffffff1673ffffffffffffffffffffffffffffffffffffffff1681526020019081526020016000206003018190555060008760000160003373ffffffffffffffffffffffffffffffffffffffff1673ffffffffffffffffffffffffffffffffffffffff16815260200190815260200160002060040160006101000a81548160ff02191690836001811115612bf657fe5b02179055505b600192505050949350505050565b6000826040015182101515612c225760009050612c27565b600190505b92915050565b600080600080856002018054905014915081158015612c5457508351856002018054905014155b15612c6857612c6285613042565b50600191505b600090505b8351811015612df0578115612d0057846002018482815181101515612c8e57fe5b9060200190602002015190806001815401808255809150509060018203906000526020600020016000909192909190916101000a81548173ffffffffffffffffffffffffffffffffffffffff021916908373ffffffffffffffffffffffffffffffffffffffff16021790555050612d72565b8381815181101515612d0e57fe5b906020019060200201518560020182815481101515612d2957fe5b9060005260206000200160006101000a81548173ffffffffffffffffffffffffffffffffffffffff021916908373ffffffffffffffffffffffffffffffffffffffff1602179055505b60018560000160008684815181101515612d8857fe5b9060200190602002015173ffffffffffffffffffffffffffffffffffffffff1673ffffffffffffffffffffffffffffffffffffffff16815260200190815260200160002060006101000a81548160ff0219169083151502179055508080600101915050612c6d565b60019250505092915050565b600080600080846003018054905014915081158015612e2957508360020180549050846003018054905014155b15612e3d57612e378461310c565b50600191505b600090505b8360020180549050811015613037578115612eff57836003018460020182815481101515612e6c57fe5b9060005260206000200160009054906101000a900473ffffffffffffffffffffffffffffffffffffffff1690806001815401808255809150509060018203906000526020600020016000909192909190916101000a81548173ffffffffffffffffffffffffffffffffffffffff021916908373ffffffffffffffffffffffffffffffffffffffff16021790555050612f95565b8360020181815481101515612f1057fe5b9060005260206000200160009054906101000a900473ffffffffffffffffffffffffffffffffffffffff168460030182815481101515612f4c57fe5b9060005260206000200160006101000a81548173ffffffffffffffffffffffffffffffffffffffff021916908373ffffffffffffffffffffffffffffffffffffffff1602179055505b60018460010160008660020184815481101515612fae57fe5b9060005260206000200160009054906101000a900473ffffffffffffffffffffffffffffffffffffffff1673ffffffffffffffffffffffffffffffffffffffff1673ffffffffffffffffffffffffffffffffffffffff16815260200190815260200160002060006101000a81548160ff0219169083151502179055508080600101915050612e42565b600192505050919050565b600080600090505b82600201805490508110156130f257826000016000846002018381548110151561307057fe5b9060005260206000200160009054906101000a900473ffffffffffffffffffffffffffffffffffffffff1673ffffffffffffffffffffffffffffffffffffffff1673ffffffffffffffffffffffffffffffffffffffff16815260200190815260200160002060006101000a81549060ff0219169055808060010191505061304a565b82600201600061310291906131d6565b6001915050919050565b600080600090505b82600301805490508110156131bc57826001016000846003018381548110151561313a57fe5b9060005260206000200160009054906101000a900473ffffffffffffffffffffffffffffffffffffffff1673ffffffffffffffffffffffffffffffffffffffff1673ffffffffffffffffffffffffffffffffffffffff16815260200190815260200160002060006101000a81549060ff02191690558080600101915050613114565b8260030160006131cc91906131d6565b6001915050919050565b50805460008255906000526020600020908101906131f491906131f7565b50565b61321991905b808211156132155760008160009055506001016131fd565b5090565b905600a165627a7a723058205f65e9cde539d178c31ab971413658c5c0e27a5d10d0a8d85a7728d2e71e08170029",
  "source": "pragma solidity ^0.4.24;\n\n/**\n * @title Props Rewards Library\n * @dev Library to manage application and validators and parameters\n **/\nlibrary PropsRewardsLib {\n    /*\n    *  Storage\n    */\n\n    // The various parameters used by the contract\n    enum ParameterName { ApplicationRewardsPercent, ApplicationRewardsMaxVariationPercent, ValidatorMajorityPercent, ValidatorRewardsPercent}\n    enum RewardedEntityType { Application, Validator }\n\n    // Represents a parameter current, previous and time of change\n    struct Parameter {\n        uint256 currentValue;                   // current value in Pphm valid after timestamp\n        uint256 previousValue;                  // previous value in Pphm for use before timestamp\n        uint256 rewardsDay;                // timestamp of when the value was updated\n    }\n    // Represents application details\n    struct RewardedEntity {\n        bytes32 name;                           // Application name\n        address rewardsAddress;                 // address where rewards will be minted to\n        address sidechainAddress;               // address used on the sidechain\n        uint256 initializedState;               // A way to check if there's something in the map and whether already added to list\n        RewardedEntityType entityType;                // Type of rewarded entity\n    }\n\n    // Represents validators current and previous lists\n    struct RewardedEntityList {\n        mapping (address => bool) current;\n        mapping (address => bool) previous;\n        address[] currentList;\n        address[] previousList;\n        uint256 rewardsDay;\n    }\n\n    // Represents daily reward submissions and confimations\n    struct DailyRewards {\n        mapping (address => bool) submissions;\n        address[] submissionValidators;\n        uint256 confirmations;\n        uint256 initializedState;               // A way to check if there's something in the map and whether already added to list\n        uint256 finalized;\n        uint256 totalSupply;\n    }\n\n    //Represent rewards day to its rewardsHash and block.timestamp\n    struct RewardsDayHash {\n        bytes32 rewardsHash;\n        uint256 blockTimestamp;\n    }\n\n    // represent the storage structures\n    struct Data {\n        // applications data\n        mapping (address => RewardedEntity) applications;\n        address[] applicationsList;\n        // validators data\n        mapping (address => RewardedEntity) validators;\n        address[] validatorsList;\n        // adjustable parameters data\n        mapping (uint256 => Parameter) parameters; // uint256 is the parameter enum index\n        // the participating validators\n        RewardedEntityList selectedValidators;\n        // the participating applications\n        RewardedEntityList selectedApplications;\n        // daily rewards submission data\n        mapping (bytes32 => DailyRewards) dailyRewards;\n        bytes32[] dailyRewardsList;\n        // current and previous rewards daily timestamp\n        uint256 rewardsDay;\n        // indication to when to cleanup the dailyRewards data\n        uint256 maxDailyRewardStorage;\n        // map to hold rewardsDay to its hash and block timestamp\n        mapping (uint256 => RewardsDayHash) dailyRewardHashes;\n        uint256 minSecondsBetweenDays;\n    }\n    /*\n    *  Modifiers\n    */\n    modifier onlyOneRewardsHashPerValidator(Data storage _self, bytes32 _rewardsHash) {\n        require(\n            !_self.dailyRewards[_rewardsHash].submissions[msg.sender],\n            \"Must be one submission per validator\"\n        );\n         _;\n    }\n\n    modifier onlyExistingApplications(Data storage _self, address[] _entities) {\n        for (uint256 i = 0; i < _entities.length; i++) {\n            require(\n                _self.applications[_entities[i]].initializedState == 1,\n                \"Application must exist\"\n            );\n        }\n        _;\n    }\n\n    modifier onlyExistingValidators(Data storage _self, address[] _entities) {\n        for (uint256 i = 0; i < _entities.length; i++) {\n            require(\n                _self.validators[_entities[i]].initializedState == 1,\n                \"Validator must exist\"\n            );\n        }\n        _;\n    }\n\n    modifier onlySelectedValidators(Data storage _self, uint256 _rewardsDay) {\n        if (_getSelectedRewardedEntityListType(_self.selectedValidators, _rewardsDay) == 0) {\n            require (\n                _self.selectedValidators.current[msg.sender],\n                \"Must be a current selected validator\"\n            );\n        } else {\n            require (\n                _self.selectedValidators.previous[msg.sender],\n                \"Must be a previous selected validator\"\n            );\n        }\n        _;\n    }\n\n    modifier onlyValidRewardsDay(Data storage _self, uint256 _rewardsDay) {\n        require(\n            _rewardsDay == _self.rewardsDay ||\n            (_rewardsDay == (_self.rewardsDay + 1) && (block.timestamp - _self.dailyRewardHashes[_rewardsDay].blockTimestamp) > _self.minSecondsBetweenDays),\n            \"Must be for this round or the next\"\n        );\n         _;\n    }\n\n    modifier onlyValidValidatorsRewardsDay(Data storage _self, uint256 _rewardsDay) {\n        require(\n            _rewardsDay >= _self.selectedValidators.rewardsDay,\n            \"Must be existing or future validators rewardsDay\"\n        );\n         _;\n    }\n\n    modifier onlyValidApplicationsRewardsDay(Data storage _self, uint256 _rewardsDay) {\n        require(\n            _rewardsDay >= _self.selectedApplications.rewardsDay,\n            \"Must be existing or future applications rewardsDay\"\n        );\n         _;\n    }\n\n    modifier onlyValidAddresses(address _rewardsAddress, address _sidechainAddress) {\n        require(\n            _rewardsAddress != address(0) &&\n            _sidechainAddress != address(0),\n            \"Must have valid rewards and sidechain addresses\"\n        );\n        _;\n    }\n\n    /**\n    * @dev The function is called by validators with the calculation of the daily rewards\n    * @param _self Data pointer to storage\n    * @param _rewardsDay uint256 the rewards day\n    * @param _rewardsHash bytes32 hash of the rewards data\n    * @param _maxTotalSupply uint256 max total supply\n    */\n    function calculateValidatorRewards(\n        Data storage _self,\n        uint256 _rewardsDay,\n        bytes32 _rewardsHash,\n        uint256 _maxTotalSupply\n    )\n        public\n        returns (uint256)\n    {\n        uint256 numOfValidators;\n        if (_self.dailyRewards[_rewardsHash].finalized == 1) // previous daily reward was not finalized\n        {\n            if (_rewardsDay < _self.rewardsDay) {\n                numOfValidators = _self.dailyRewards[_rewardsHash].confirmations;\n            } else {\n                numOfValidators = _requiredValidatorsForValidatorsRewards(_self, _rewardsDay);\n                if (numOfValidators > _self.dailyRewards[_rewardsHash].confirmations) return 0;\n            }\n            _self.dailyRewards[_rewardsHash].finalized = 2;\n            return _getValidatorRewardsDailyAmountPerValidator(_self, _rewardsDay, numOfValidators, _maxTotalSupply,  _self.dailyRewards[_rewardsHash].totalSupply);\n        }\n        return 0;\n    }\n\n    /**\n    * @dev The function is called by validators with the calculation of the daily rewards\n    * @param _self Data pointer to storage\n    * @param _rewardsDay uint256 the rewards day\n    * @param _rewardsHash bytes32 hash of the rewards data\n    * @param _applications address[] array of application addresses getting the daily reward\n    * @param _amounts uint256[] array of amounts each app should get\n    * @param _maxTotalSupply uint256 max total supply\n    * @param _currentTotalSupply uint256 current total supply\n    */\n    function calculateApplicationRewards(\n        Data storage _self,\n        uint256 _rewardsDay,\n        bytes32 _rewardsHash,\n        address[] _applications,\n        uint256[] _amounts,\n        uint256 _maxTotalSupply,\n        uint256 _currentTotalSupply\n    )\n        public\n        onlyValidRewardsDay(_self, _rewardsDay)\n        onlyOneRewardsHashPerValidator(_self, _rewardsHash)\n        onlySelectedValidators(_self, _rewardsDay)\n        returns (uint256)\n    {\n        require(\n                _rewardHashIsvalid(_rewardsDay, _rewardsHash, _applications, _amounts),\n                \"Reward Hash is invalid\"\n        );\n        if (_self.dailyRewards[_rewardsHash].initializedState == 0) {\n            _self.dailyRewardsList.push(_rewardsHash);\n            _self.dailyRewards[_rewardsHash].initializedState = 1;\n        }\n        _self.dailyRewards[_rewardsHash].submissions[msg.sender] = true;\n        _self.dailyRewards[_rewardsHash].confirmations++;\n        _self.dailyRewards[_rewardsHash].submissionValidators.push(msg.sender);\n        if (_self.dailyRewards[_rewardsHash].confirmations == _requiredValidatorsForAppRewards(_self, _rewardsDay)) {\n            _self.dailyRewards[_rewardsHash].totalSupply = _currentTotalSupply;\n            uint256 sum = _validateSubmittedData(_self, _applications, _amounts);\n            require(\n                sum <= _getMaxAppRewardsDailyAmount(_self, _rewardsDay, _maxTotalSupply, _currentTotalSupply),\n                \"Rewards data is invalid - exceed daily variation\"\n            );\n            _updateDailyRewardsHash(_self, _rewardsDay, _rewardsHash);\n            return sum;\n        }\n        return 0;\n    }\n\n    /**\n    * @dev Get parameter's value\n    * @param _self Data pointer to storage\n    * @param _name ParameterName name of the parameter\n    * @param _rewardsDay uint256 the rewards day\n    */\n    function getParameterValue(\n        Data storage _self,\n        ParameterName _name,\n        uint256 _rewardsDay\n    )\n        public\n        view\n        returns (uint256)\n    {\n        if (_rewardsDay >= _self.parameters[uint256(_name)].rewardsDay) {\n            return _self.parameters[uint256(_name)].currentValue;\n        } else {\n            return _self.parameters[uint256(_name)].previousValue;\n        }\n    }\n\n    /**\n    * @dev Allows the controller/owner to update rewards parameters\n    * @param _self Data pointer to storage\n    * @param _name ParameterName name of the parameter\n    * @param _value uint256 new value for the parameter\n    * @param _rewardsDay uint256 the rewards day\n    */\n    function updateParameter(\n        Data storage _self,\n        ParameterName _name,\n        uint256 _value,\n        uint256 _rewardsDay\n    )\n        public\n        onlyValidRewardsDay(_self, _rewardsDay)\n        returns (bool)\n    {\n        if (_rewardsDay <= _self.parameters[uint256(_name)].rewardsDay) {\n           _self.parameters[uint256(_name)].currentValue = _value;\n           _self.parameters[uint256(_name)].rewardsDay = _rewardsDay;\n        } else {\n            _self.parameters[uint256(_name)].previousValue = _self.parameters[uint256(_name)].currentValue;\n            _self.parameters[uint256(_name)].currentValue = _value;\n           _self.parameters[uint256(_name)].rewardsDay = _rewardsDay;\n        }\n        return true;\n    }\n\n    /**\n    * @dev Allows an application to add/update its details\n    * @param _self Data pointer to storage\n    * @param _name bytes32 name of the app\n    * @param _rewardsAddress address an address for the app to receive the rewards\n    * @param _sidechainAddress address the address used for using the sidechain\n    */\n    function updateApplication(\n        Data storage _self,\n        bytes32 _name,\n        address _rewardsAddress,\n        address _sidechainAddress\n    )\n        public\n        onlyValidAddresses(_rewardsAddress, _sidechainAddress)\n        returns (bool)\n    {\n        _self.applications[msg.sender].name = _name;\n        _self.applications[msg.sender].rewardsAddress = _rewardsAddress;\n        _self.applications[msg.sender].sidechainAddress = _sidechainAddress;\n        if (_self.applications[msg.sender].initializedState == 0) {\n            _self.applicationsList.push(msg.sender);\n            _self.applications[msg.sender].initializedState = 1;\n            _self.applications[msg.sender].entityType = RewardedEntityType.Application;\n        }\n        return true;\n    }\n\n    /**\n    * @dev Allows a validator to add/update its details\n    * @param _self Data pointer to storage\n    * @param _name bytes32 name of the validator\n    * @param _rewardsAddress address an address for the validator to receive the rewards\n    * @param _sidechainAddress address the address used for using the sidechain\n    */\n    function updateValidator(\n        Data storage _self,\n        bytes32 _name,\n        address _rewardsAddress,\n        address _sidechainAddress\n    )\n        public\n        onlyValidAddresses(_rewardsAddress, _sidechainAddress)\n        returns (bool)\n    {\n        _self.validators[msg.sender].name = _name;\n        _self.validators[msg.sender].rewardsAddress = _rewardsAddress;\n        _self.validators[msg.sender].sidechainAddress = _sidechainAddress;\n        if (_self.validators[msg.sender].initializedState == 0) {\n            _self.validatorsList.push(msg.sender);\n            _self.validators[msg.sender].initializedState = 1;\n            _self.validators[msg.sender].entityType = RewardedEntityType.Validator;\n        }\n        return true;\n    }\n\n    /**\n    * @dev Set new validators list\n    * @param _self Data pointer to storage\n    * @param _rewardsDay uint256 the rewards day from which the list should be active\n    * @param _validators address[] array of validators\n    */\n    function setValidators(\n        Data storage _self,\n        uint256 _rewardsDay,\n        address[] _validators\n    )\n        public\n        onlyValidValidatorsRewardsDay(_self, _rewardsDay)\n        onlyExistingValidators(_self, _validators)\n        returns (bool)\n    {\n\n        if (_self.selectedValidators.currentList.length == 0) { // first time the daily validators list is set\n            _updateCurrentEntityList(_self.selectedValidators, _validators);\n        } else {\n            if (_rewardsDay > _self.selectedValidators.rewardsDay)\n                _updatePreviousEntityList(_self.selectedValidators);\n            _updateCurrentEntityList(_self.selectedValidators, _validators);\n        }\n        _self.selectedValidators.rewardsDay = _rewardsDay;\n        return true;\n    }\n\n   /**\n    * @dev Set new applications list\n    * @param _self Data pointer to storage\n    * @param _rewardsDay uint256 the rewards day from which the list should be active\n    * @param _applications address[] array of applications\n    */\n    function setApplications(\n        Data storage _self,\n        uint256 _rewardsDay,\n        address[] _applications\n    )\n        public\n        onlyValidApplicationsRewardsDay(_self, _rewardsDay)\n        onlyExistingApplications(_self, _applications)\n        returns (bool)\n    {\n\n        if (_self.selectedApplications.currentList.length == 0) { // first time the daily validators list is set\n            _updateCurrentEntityList(_self.selectedApplications, _applications);\n        } else {\n            if (_rewardsDay > _self.selectedApplications.rewardsDay)\n                _updatePreviousEntityList(_self.selectedApplications);\n            _updateCurrentEntityList(_self.selectedApplications, _applications);\n        }\n        _self.selectedApplications.rewardsDay = _rewardsDay;\n        return true;\n    }\n\n    /**\n    * @dev Get applications or validators list\n    * @param _self Data pointer to storage\n    * @param _entityType RewardedEntityType either application (0) or validator (1)\n    * @param _rewardsDay uint256 the reward day to determine which list to get\n    */\n    function getEntities(\n        Data storage _self,\n        RewardedEntityType _entityType,\n        uint256 _rewardsDay\n    )\n        public\n        view\n        returns (address[])\n    {\n        if (_entityType == RewardedEntityType.Application) {\n            if (_getSelectedRewardedEntityListType(_self.selectedApplications, _rewardsDay) == 0) {\n                return _self.selectedApplications.currentList;\n            } else {\n                return _self.selectedApplications.previousList;\n            }\n        } else {\n            if (_getSelectedRewardedEntityListType(_self.selectedValidators, _rewardsDay) == 0) {\n                return _self.selectedValidators.currentList;\n            } else {\n                return _self.selectedValidators.previousList;\n            }\n        }\n    }\n\n    /**\n    * @dev Get which entity list to use. Current = 0, previous = 1\n    * @param _rewardedEntitylist RewardedEntityList pointer to storage\n    * @param _rewardsDay uint256 the reward day to determine which list to get\n    */\n    function _getSelectedRewardedEntityListType(RewardedEntityList _rewardedEntitylist, uint256 _rewardsDay)\n        internal\n        pure\n        returns (uint256)\n    {\n        if (_rewardsDay >= _rewardedEntitylist.rewardsDay) {\n            return 0;\n        } else {\n            return 1;\n        }\n    }\n\n    /**\n    * @dev Updates the current dailyTimestamp and previous one\n    * @param _self Data pointer to storage\n    * @param _rewardsDay uint256 the reward day\n    */\n    function _updateDailyRewardsHash(Data storage _self, uint256 _rewardsDay, bytes32 _rewardsHash)\n        public\n        returns (bool)\n    {\n        _self.dailyRewardHashes[_rewardsDay].rewardsHash = _rewardsHash;\n        _self.dailyRewardHashes[_rewardsDay].blockTimestamp = block.timestamp;\n        _self.dailyRewards[_rewardsHash].finalized = 1;\n        _self.rewardsDay = (_rewardsDay + 1);\n        return true;\n    }\n\n    /**\n    * @dev Checks how many validators are needed for app rewards\n    * @param _self Data pointer to storage\n    * @param _rewardsDay uint256 the reward day\n    * @param _maxTotalSupply uint256 max total supply\n    * @param _currentTotalSupply uint256 current total supply\n    */\n    function _getMaxAppRewardsDailyAmount(\n        Data storage _self,\n        uint256 _rewardsDay,\n        uint256 _maxTotalSupply,\n        uint256 _currentTotalSupply\n    )\n        public\n        view\n        returns (uint256)\n    {\n        return ((_maxTotalSupply - _currentTotalSupply) *\n        getParameterValue(_self, ParameterName.ApplicationRewardsPercent, _rewardsDay) *\n        getParameterValue(_self, ParameterName.ApplicationRewardsMaxVariationPercent, _rewardsDay)) / 1e8;\n    }\n\n\n    /**\n    * @dev Checks how many validators are needed for app rewards\n    * @param _self Data pointer to storage\n    * @param _rewardsDay uint256 the reward day\n    * @param _numOfValidators uint256 number of validators\n    * @param _maxTotalSupply uint256 max total supply\n    * @param _currentTotalSupply uint256 current total supply\n    */\n    function _getValidatorRewardsDailyAmountPerValidator(\n        Data storage _self,\n        uint256 _rewardsDay,\n        uint256 _numOfValidators,\n        uint256 _maxTotalSupply,\n        uint256 _currentTotalSupply\n    )\n        public\n        view\n        returns (uint256)\n    {\n        return (((_maxTotalSupply - _currentTotalSupply) *\n        getParameterValue(_self, ParameterName.ValidatorRewardsPercent, _rewardsDay)) / 1e8) / _numOfValidators;\n    }\n\n    /**\n    * @dev Checks if app daily rewards amount is valid\n    * @param _self Data pointer to storage\n    * @param _applications address[] array of application addresses getting the daily reward\n    * @param _amounts uint256[] array of amounts each app should get\n    */\n    function _validateSubmittedData(\n        Data storage _self,\n        address[] _applications,\n        uint256[] _amounts\n    )\n        public\n        view\n        returns (uint256)\n    {\n        uint256 sum;\n        bool valid = true;\n        for (uint256 i = 0; i < _amounts.length; i++) {\n             sum += _amounts[i];\n            if (_self.applications[_applications[i]].initializedState != 1) valid = false;\n        }\n        require(\n                sum > 0 && valid,\n                \"Sum zero or none existing app submitted\"\n        );\n        return sum;\n    }\n\n    /**\n    * @dev Checks if submitted data matches reward hash\n    * @param _rewardsDay uint256 the reward day\n    * @param _rewardsHash bytes32 hash of the rewards data\n    * @param _applications address[] array of application addresses getting the daily reward\n    * @param _amounts uint256[] array of amounts each app should get\n    */\n    function _rewardHashIsvalid(\n        uint256 _rewardsDay,\n        bytes32 _rewardsHash,\n        address[] _applications,\n        uint256[] _amounts\n    )\n        public\n        pure\n        returns (bool)\n    {\n        return keccak256(abi.encodePacked(_rewardsDay, _applications, _amounts)) == _rewardsHash;\n    }\n\n    /**\n    * @dev Checks how many validators are needed for app rewards\n    * @param _self Data pointer to storage\n    * @param _rewardsDay uint256 the reward day\n    */\n    function _requiredValidatorsForValidatorsRewards(Data storage _self, uint256 _rewardsDay)\n        public\n        view\n        returns (uint256)\n    {\n        if (_getSelectedRewardedEntityListType(_self.selectedValidators, _rewardsDay) == 0) {\n            return _self.selectedValidators.currentList.length;\n        } else {\n            return _self.selectedValidators.previousList.length;\n        }\n    }\n\n    /**\n    * @dev Checks how many validators are needed for app rewards\n    * @param _self Data pointer to storage\n    * @param _rewardsDay uint256 the reward day\n    */\n    function _requiredValidatorsForAppRewards(Data storage _self, uint256 _rewardsDay)\n        public\n        view\n        returns (uint256)\n    {\n        if (_getSelectedRewardedEntityListType(_self.selectedValidators, _rewardsDay) == 0) {\n            return ((_self.selectedValidators.currentList.length * getParameterValue(_self, ParameterName.ValidatorMajorityPercent, _rewardsDay)) / 1e8)+1;\n        } else {\n            return ((_self.selectedValidators.previousList.length * getParameterValue(_self, ParameterName.ValidatorMajorityPercent, _rewardsDay)) / 1e8)+1;\n        }\n    }\n\n    /**\n    * @dev Update current daily applications list.\n    * If new, push.\n    * If same size, replace\n    * If different size, delete, and then push.\n    * @param _rewardedEntitylist RewardedEntityList pointer to storage\n    * @param _entities address[] array of entities\n    */\n    //_updateCurrentEntityList(_rewardedEntitylist, _entities,_rewardedEntityType),\n    function _updateCurrentEntityList(\n        RewardedEntityList storage _rewardedEntitylist,\n        address[] _entities\n    )\n        internal\n        returns (bool)\n    {\n        bool emptyCurrentList = _rewardedEntitylist.currentList.length == 0;\n        if (!emptyCurrentList && _rewardedEntitylist.currentList.length != _entities.length) {\n            _deleteCurrentEntityList(_rewardedEntitylist);\n            emptyCurrentList = true;\n        }\n\n        for (uint256 i = 0; i < _entities.length; i++) {\n            if (emptyCurrentList) {\n                _rewardedEntitylist.currentList.push(_entities[i]);\n            } else {\n                _rewardedEntitylist.currentList[i] = _entities[i];\n            }\n            _rewardedEntitylist.current[_entities[i]] = true;\n        }\n        return true;\n    }\n\n    /**\n    * @dev Update previous daily list\n    * @param _rewardedEntitylist RewardedEntityList pointer to storage\n    */\n    function _updatePreviousEntityList(RewardedEntityList storage _rewardedEntitylist)\n        internal\n        returns (bool)\n    {\n        bool emptyPreviousList = _rewardedEntitylist.previousList.length == 0;\n        if (\n            !emptyPreviousList &&\n            _rewardedEntitylist.previousList.length != _rewardedEntitylist.currentList.length\n        ) {\n            _deletePreviousEntityList(_rewardedEntitylist);\n            emptyPreviousList = true;\n        }\n        for (uint256 i = 0; i < _rewardedEntitylist.currentList.length; i++) {\n            if (emptyPreviousList) {\n                _rewardedEntitylist.previousList.push(_rewardedEntitylist.currentList[i]);\n            } else {\n                _rewardedEntitylist.previousList[i] = _rewardedEntitylist.currentList[i];\n            }\n            _rewardedEntitylist.previous[_rewardedEntitylist.currentList[i]] = true;\n        }\n        return true;\n    }\n\n    /**\n    * @dev Delete existing values from the current list\n    * @param _rewardedEntitylist RewardedEntityList pointer to storage\n    */\n    function _deleteCurrentEntityList(RewardedEntityList storage _rewardedEntitylist)\n        internal\n        returns (bool)\n    {\n        for (uint256 i = 0; i < _rewardedEntitylist.currentList.length ; i++) {\n             delete _rewardedEntitylist.current[_rewardedEntitylist.currentList[i]];\n        }\n        delete  _rewardedEntitylist.currentList;\n        return true;\n    }\n\n    /**\n    * @dev Delete existing values from the previous applications list\n    * @param _rewardedEntitylist RewardedEntityList pointer to storage\n    */\n    function _deletePreviousEntityList(RewardedEntityList storage _rewardedEntitylist)\n        internal\n        returns (bool)\n    {\n        for (uint256 i = 0; i < _rewardedEntitylist.previousList.length ; i++) {\n            delete _rewardedEntitylist.previous[_rewardedEntitylist.previousList[i]];\n        }\n        delete _rewardedEntitylist.previousList;\n        return true;\n    }\n}",
  "sourcePath": "/Users/jretina/Programming/PROPSProject/props-token-distribution/contracts/token/PropsRewardsLib.sol",
  "compiler": {
    "name": "solc",
    "version": "0.4.24+commit.e67f0147.Emscripten.clang"
  },
  "schemaVersion": "2.0.1",
  "updatedAt": "2019-05-16T18:55:30.037Z"
}