{
  "contractName": "PropsParameters",
  "abi": [
    {
      "anonymous": false,
      "inputs": [
        {
          "indexed": false,
          "name": "param",
          "type": "string"
        },
        {
          "indexed": false,
          "name": "newValue",
          "type": "uint256"
        },
        {
          "indexed": false,
          "name": "oldValue",
          "type": "uint256"
        },
        {
          "indexed": false,
          "name": "timestamp",
          "type": "uint256"
        }
      ],
      "name": "ParameterUpdate",
      "type": "event"
    },
    {
      "constant": false,
      "inputs": [
        {
          "name": "_maxTotalSupply",
          "type": "uint256"
        },
        {
          "name": "_appRewardsPercentPphm",
          "type": "uint256"
        },
        {
          "name": "_appRewardsMaxVariationPercentPphm",
          "type": "uint256"
        },
        {
          "name": "_validatorMajorityPercentPphm",
          "type": "uint256"
        },
        {
          "name": "_validatorRewardsPercentPphm",
          "type": "uint256"
        }
      ],
      "name": "initialize",
      "outputs": [],
      "payable": false,
      "stateMutability": "nonpayable",
      "type": "function"
    },
    {
      "constant": false,
      "inputs": [
        {
          "name": "_percentagePphm",
          "type": "uint256"
        },
        {
          "name": "_timestamp",
          "type": "uint256"
        }
      ],
      "name": "setValidatorRewardsPercentage",
      "outputs": [
        {
          "name": "",
          "type": "bool"
        }
      ],
      "payable": false,
      "stateMutability": "nonpayable",
      "type": "function"
    },
    {
      "constant": true,
      "inputs": [
        {
          "name": "_timestamp",
          "type": "uint256"
        }
      ],
      "name": "getValidatorRewardsPercentage",
      "outputs": [
        {
          "name": "percentagePphm",
          "type": "uint256"
        }
      ],
      "payable": false,
      "stateMutability": "view",
      "type": "function"
    },
    {
      "constant": false,
      "inputs": [
        {
          "name": "_percentagePphm",
          "type": "uint256"
        },
        {
          "name": "_timestamp",
          "type": "uint256"
        }
      ],
      "name": "setAppRewardsMaxVariationPercentage",
      "outputs": [
        {
          "name": "",
          "type": "bool"
        }
      ],
      "payable": false,
      "stateMutability": "nonpayable",
      "type": "function"
    },
    {
      "constant": true,
      "inputs": [
        {
          "name": "_timestamp",
          "type": "uint256"
        }
      ],
      "name": "getAppRewardsMaxVariationPercentage",
      "outputs": [
        {
          "name": "percentagePphm",
          "type": "uint256"
        }
      ],
      "payable": false,
      "stateMutability": "view",
      "type": "function"
    },
    {
      "constant": false,
      "inputs": [
        {
          "name": "_percentagePphm",
          "type": "uint256"
        },
        {
          "name": "_timestamp",
          "type": "uint256"
        }
      ],
      "name": "setAppRewardsPercentage",
      "outputs": [
        {
          "name": "",
          "type": "bool"
        }
      ],
      "payable": false,
      "stateMutability": "nonpayable",
      "type": "function"
    },
    {
      "constant": true,
      "inputs": [
        {
          "name": "_timestamp",
          "type": "uint256"
        }
      ],
      "name": "getAppRewardsPercentage",
      "outputs": [
        {
          "name": "percentagePphm",
          "type": "uint256"
        }
      ],
      "payable": false,
      "stateMutability": "view",
      "type": "function"
    },
    {
      "constant": false,
      "inputs": [
        {
          "name": "_percentagePphm",
          "type": "uint256"
        },
        {
          "name": "_timestamp",
          "type": "uint256"
        }
      ],
      "name": "setValidatorsMajorityPercentage",
      "outputs": [
        {
          "name": "",
          "type": "bool"
        }
      ],
      "payable": false,
      "stateMutability": "nonpayable",
      "type": "function"
    },
    {
      "constant": true,
      "inputs": [
        {
          "name": "_timestamp",
          "type": "uint256"
        }
      ],
      "name": "getValidatorsMajorityPercentage",
      "outputs": [
        {
          "name": "percentagePphm",
          "type": "uint256"
        }
      ],
      "payable": false,
      "stateMutability": "view",
      "type": "function"
    }
  ],
  "bytecode": "0x608060405234801561001057600080fd5b50610829806100206000396000f300608060405260043610610099576000357c0100000000000000000000000000000000000000000000000000000000900463ffffffff168063177c07b71461009e5780631d025e02146100ed5780634a21210c1461012e57806356dd45421461016f5780635a2ef553146101be578063882c09fa1461020d578063aae520c21461024e578063b249bf7f1461029d578063dcbab608146102de575b600080fd5b3480156100aa57600080fd5b506100d36004803603810190808035906020019092919080359060200190929190505050610333565b604051808215151515815260200191505060405180910390f35b3480156100f957600080fd5b50610118600480360381019080803590602001909291905050506103e8565b6040518082815260200191505060405180910390f35b34801561013a57600080fd5b506101596004803603810190808035906020019092919050505061040a565b6040518082815260200191505060405180910390f35b34801561017b57600080fd5b506101a4600480360381019080803590602001909291908035906020019092919050505061042c565b604051808215151515815260200191505060405180910390f35b3480156101ca57600080fd5b506101f360048036038101908080359060200190929190803590602001909291905050506104e1565b604051808215151515815260200191505060405180910390f35b34801561021957600080fd5b5061023860048036038101908080359060200190929190505050610596565b6040518082815260200191505060405180910390f35b34801561025a57600080fd5b5061028360048036038101908080359060200190929190803590602001909291905050506105b8565b604051808215151515815260200191505060405180910390f35b3480156102a957600080fd5b506102c86004803603810190808035906020019092919050505061066d565b6040518082815260200191505060405180910390f35b3480156102ea57600080fd5b50610331600480360381019080803590602001909291908035906020019092919080359060200190929190803590602001909291908035906020019092919050505061068f565b005b6000603f544210151561034a57603754603e819055505b8260378190555081603f819055507f5c195b99fef19e8ab97813219314cae84ff2f32a42bb0ae65292261709cebc7d603754603e54603f5460405180806020018581526020018481526020018381526020018281038252601a8152602001807f76616c696461746f725265776172647350657263656e7461676500000000000081525060200194505050505060405180910390a16001905092915050565b6000603f54821015156103ff576037549050610405565b603e5490505b919050565b6000603d5482101515610421576036549050610427565b603c5490505b919050565b6000603d544210151561044357603654603c819055505b8260368190555081603d819055507f5c195b99fef19e8ab97813219314cae84ff2f32a42bb0ae65292261709cebc7d603654603c54603d546040518080602001858152602001848152602001838152602001828103825260128152602001807f6d616a6f7269747950657263656e74616765000000000000000000000000000081525060200194505050505060405180910390a16001905092915050565b6000603b54421015156104f857603554603a819055505b8260358190555081603b819055507f5c195b99fef19e8ab97813219314cae84ff2f32a42bb0ae65292261709cebc7d603554603a54603b546040518080602001858152602001848152602001838152602001828103825260208152602001807f617070526577617264734d6178566172696174696f6e50657263656e7461676581525060200194505050505060405180910390a16001905092915050565b6000603b54821015156105ad5760355490506105b3565b603a5490505b919050565b6000603954421015156105cf576034546038819055505b82603481905550816039819055507f5c195b99fef19e8ab97813219314cae84ff2f32a42bb0ae65292261709cebc7d6034546038546039546040518080602001858152602001848152602001838152602001828103825260148152602001807f6170705265776172647350657263656e7461676500000000000000000000000081525060200194505050505060405180910390a16001905092915050565b60006039548210151561068457603454905061068a565b60385490505b919050565b60008060019054906101000a900460ff16806106af57506106ae6107ec565b5b806106c657506000809054906101000a900460ff16155b1515610760576040517f08c379a000000000000000000000000000000000000000000000000000000000815260040180806020018281038252602e8152602001807f436f6e747261637420696e7374616e63652068617320616c726561647920626581526020017f656e20696e697469616c697a656400000000000000000000000000000000000081525060400191505060405180910390fd5b600060019054906101000a900460ff1690506001600060016101000a81548160ff02191690831515021790555060016000806101000a81548160ff021916908315150217905550856033819055508460348190555083603581905550826036819055508160378190555080600060016101000a81548160ff021916908315150217905550505050505050565b600080303b905060008114915050905600a165627a7a72305820336d76920758fb5102bb2c5a03937bcae79289df00f60792f2d9fcbae88919290029",
  "source": "pragma solidity ^0.4.24;\n\nimport \"zos-lib/contracts/Initializable.sol\";\n// import \"openzeppelin-eth/contracts/ownership/Ownable.sol\";\n\n/**\n * @title Props Parameters\n * @dev Contract allows to set and get parameters related to rewards\n **/\ncontract PropsParameters is Initializable/*, Ownable*/ {\n    /*\n     *  Events\n     */\n    event ParameterUpdate(\n        string param,\n        uint256 newValue,\n        uint256 oldValue,\n        uint256 timestamp\n    );\n\n    /*\n     *  Storage\n     */\n    uint256 maxTotalSupply;\n    uint256 appRewardsPercentPphm;\n    uint256 appRewardsMaxVariationPercentPphm;\n    uint256 validatorMajorityPercentPphm;\n    uint256 validatorRewardsPercentPphm;\n\n    uint256 lastAppRewardsPercentPphm;\n    uint256 lastAppRewardsUpdateTimestamp;\n\n    uint256 lastAppRewardsMaxVariationPercentPphm;\n    uint256 lastAppRewardsMaxVariationUpdateTimestamp;\n\n    uint256 lastValidatorMajorityPercentPphm;\n    uint256 lastvalidatorMajorityUpdateTimestamp;\n\n    uint256 lastValidatorRewardsPercentPphm;\n    uint256 lastValidatorRewardsUpdateTimestamp;\n\n    /*\n    * Modifiers\n    */\n\n\n    /**\n    * @dev The initializer function, percentage is specified in pphm (1/100,000,000) e.g. 50,000,000 => 50%\n    * @param _maxTotalSupply uint256 max props that can be minted\n    * @param _appRewardsPercentPphm uint256 app rewards percentage in pphm\n    * @param _appRewardsMaxVariationPercentPphm uint256 app rewards max allowed variation percentage in pphm\n    * @param _validatorMajorityPercentPphm uint256 validators majority percentage in pphm\n    * @param _validatorRewardsPercentPphm uint256 app rewards percentage in pphm\n    */\n    function initialize(\n        uint256 _maxTotalSupply,\n        uint256 _appRewardsPercentPphm,\n        uint256 _appRewardsMaxVariationPercentPphm,\n        uint256 _validatorMajorityPercentPphm,\n        uint256 _validatorRewardsPercentPphm\n    )\n        public\n        initializer\n    {\n        maxTotalSupply = _maxTotalSupply;\n        appRewardsPercentPphm = _appRewardsPercentPphm;\n        appRewardsMaxVariationPercentPphm = _appRewardsMaxVariationPercentPphm;\n        validatorMajorityPercentPphm = _validatorMajorityPercentPphm;\n        validatorRewardsPercentPphm = _validatorRewardsPercentPphm;\n    }\n\n/**\n    * @dev Allows the current owner/controller to set app validator rewards daily percentage\n    * @param _percentagePphm uint256 the new value to use\n    * @param _timestamp from which time should the value take effect\n    */\n    function setValidatorRewardsPercentage(\n        uint256 _percentagePphm,\n        uint256 _timestamp\n    )\n        public\n        // onlyOwner\n        returns (bool)\n    {\n        if (block.timestamp >= lastValidatorRewardsUpdateTimestamp) {\n            lastValidatorRewardsPercentPphm = validatorRewardsPercentPphm;\n        }\n        validatorRewardsPercentPphm = _percentagePphm;\n        lastValidatorRewardsUpdateTimestamp = _timestamp;\n        emit ParameterUpdate\n        (\n            \"validatorRewardsPercentage\",\n            validatorRewardsPercentPphm,\n            lastValidatorRewardsPercentPphm,\n            lastValidatorRewardsUpdateTimestamp\n        );\n        return true;\n    }\n\n    /**\n    * @dev Get the current value of validator rewards percentage in ppm\n    * @param _timestamp for which time should we get the value\n    */\n    function getValidatorRewardsPercentage(uint256 _timestamp)\n        public\n        view\n        returns (uint256 percentagePphm)\n    {\n        if (_timestamp >= lastValidatorRewardsUpdateTimestamp) {\n            return validatorRewardsPercentPphm;\n        } else {\n            return lastValidatorRewardsPercentPphm;\n        }\n    }\n\n    /**\n    * @dev Allows the current owner/controller to set app rewards daily max variation percentage\n    * @param _percentagePphm uint256 the new value to use\n    * @param _timestamp from which time should the value take effect\n    */\n    function setAppRewardsMaxVariationPercentage(\n        uint256 _percentagePphm,\n        uint256 _timestamp\n    )\n        public\n        // onlyOwner\n        returns (bool)\n    {\n        if (block.timestamp >= lastAppRewardsMaxVariationUpdateTimestamp) {\n            lastAppRewardsMaxVariationPercentPphm = appRewardsMaxVariationPercentPphm;\n        }\n        appRewardsMaxVariationPercentPphm = _percentagePphm;\n        lastAppRewardsMaxVariationUpdateTimestamp = _timestamp;\n        emit ParameterUpdate\n        (\n            \"appRewardsMaxVariationPercentage\",\n            appRewardsMaxVariationPercentPphm,\n            lastAppRewardsMaxVariationPercentPphm,\n            lastAppRewardsMaxVariationUpdateTimestamp\n        );\n        return true;\n    }\n\n    /**\n    * @dev Get the current value of app rewards max variation percentage\n    * @param _timestamp for which time should we get the value\n    */\n    function getAppRewardsMaxVariationPercentage(uint256 _timestamp)\n        public\n        view\n        returns (uint256 percentagePphm)\n    {\n        if (_timestamp >= lastAppRewardsMaxVariationUpdateTimestamp) {\n            return appRewardsMaxVariationPercentPphm;\n        } else {\n            return lastAppRewardsMaxVariationPercentPphm;\n        }\n    }\n\n    /**\n    * @dev Allows the current owner/controller to set app rewards percentage\n    * @param _percentagePphm uint256 the new value to use\n    * @param _timestamp from which time should the value take effect\n    */\n    function setAppRewardsPercentage(\n        uint256 _percentagePphm,\n        uint256 _timestamp\n    )\n        public\n        // onlyOwner\n        returns (bool)\n    {\n        if (block.timestamp >= lastAppRewardsUpdateTimestamp) {\n            lastAppRewardsPercentPphm = appRewardsPercentPphm;\n        }\n        appRewardsPercentPphm = _percentagePphm;\n        lastAppRewardsUpdateTimestamp = _timestamp;\n        emit ParameterUpdate(\"appRewardsPercentage\", appRewardsPercentPphm, lastAppRewardsPercentPphm, lastAppRewardsUpdateTimestamp);\n        return true;\n    }\n\n    /**\n    * @dev Get the current value of app rewards percentage\n    * @param _timestamp for which time should we get the value\n    */\n    function getAppRewardsPercentage(uint256 _timestamp)\n        public\n        view\n        returns (uint256 percentagePphm)\n    {\n        if (_timestamp >= lastAppRewardsUpdateTimestamp) {\n            return appRewardsPercentPphm;\n        } else {\n            return lastAppRewardsPercentPphm;\n        }\n    }\n\n    /**\n    * @dev Allows the current owner/controller to set required validators majority percentage\n    * @param _percentagePphm uint256 the new value to use\n    * @param _timestamp from which time should the value take effect\n    */\n    function setValidatorsMajorityPercentage(\n        uint256 _percentagePphm,\n        uint256 _timestamp\n    )\n        public\n        // onlyOwner\n        returns (bool)\n    {\n        if (block.timestamp >= lastvalidatorMajorityUpdateTimestamp) {\n            lastValidatorMajorityPercentPphm = validatorMajorityPercentPphm;\n        }\n        validatorMajorityPercentPphm = _percentagePphm;\n        lastvalidatorMajorityUpdateTimestamp = _timestamp;\n        emit ParameterUpdate\n        (\n            \"majorityPercentage\",\n            validatorMajorityPercentPphm,\n            lastValidatorMajorityPercentPphm,\n            lastvalidatorMajorityUpdateTimestamp\n        );\n        return true;\n    }\n\n    /**\n    * @dev Get the current value of validators majority percentage\n    * @param _timestamp for which time should we get the value\n    */\n    function getValidatorsMajorityPercentage(uint256 _timestamp)\n        public\n        view\n        returns (uint256 percentagePphm)\n    {\n        if (_timestamp >= lastvalidatorMajorityUpdateTimestamp) {\n            return validatorMajorityPercentPphm;\n        } else {\n            return lastValidatorMajorityPercentPphm;\n        }\n    }\n}\n",
  "sourcePath": "/Users/jretina/Programming/PROPSProject/props-token-distribution/contracts/token/PropsParameters.sol",
  "compiler": {
    "name": "solc",
    "version": "0.4.24+commit.e67f0147.Emscripten.clang"
  },
  "schemaVersion": "2.0.1",
  "updatedAt": "2019-05-13T09:37:59.297Z"
}