{
  "fileName": "PropsRewards.sol",
  "contractName": "PropsRewards",
  "source": "pragma solidity ^0.5.16;\n\nimport \"zos-lib/contracts/Initializable.sol\";\nimport \"openzeppelin-eth/contracts/math/SafeMath.sol\";\nimport \"openzeppelin-eth/contracts/token/ERC20/ERC20.sol\";\nimport { PropsRewardsLib } from \"./PropsRewardsLib.sol\";\n\n/**\n * @title Props Rewards\n * @dev Most of this contract is obsolete and contains relics from the rewards logic.\n * Remaining active part is controller modifier, and a way to set the new rewards/staking contract address for minting tokens\n **/\ncontract PropsRewards is Initializable, ERC20 {\n    using SafeMath for uint256;\n\n    /*\n    *  Events\n    */\n    event ControllerUpdated(address indexed newController);\n\n    /*\n    *  Storage\n    */\n\n    PropsRewardsLib.Data internal rewardsLibData; //OBSOLETE\n    uint256 public maxTotalSupply; //OBSOLETE\n    uint256 public rewardsStartTimestamp; //OBSOLETE\n    address public controller; // controller entity\n\n    address public rewardsContract; // rewards/staking contract address\n    bytes32 public DOMAIN_SEPARATOR;\n    // keccak256(\"Permit(address owner,address spender,uint256 value,uint256 nonce,uint256 deadline)\");\n    bytes32 public constant PERMIT_TYPEHASH = 0x6e71edae12b1b97f4d1f60370fef10105fa2faae0126114a169c64845d6126c9;\n    mapping(address => uint) public nonces;\n\n    /*\n    *  Modifiers\n    */\n    modifier onlyController() {\n        require(\n            msg.sender == controller,\n            \"Must be the controller\"\n        );\n        _;\n    }\n\n    /**\n    * @dev Initialize post separation of rewards contract upgrade\n    * @param _tokenName string token name\n    */\n    function initializeStakingUpgrade(string memory _tokenName)\n        public\n        initializer\n    {\n        uint chainId;\n        assembly {\n            chainId := chainid\n        }\n        DOMAIN_SEPARATOR = keccak256(\n            abi.encode(\n                keccak256('EIP712Domain(string name,string version,uint256 chainId,address verifyingContract)'),\n                keccak256(bytes(_tokenName)),\n                keccak256(bytes('1')),\n                chainId,\n                address(this)\n            )\n        );\n    }\n    /**\n    * @dev Allows for approvals to be made via secp256k1 signatures\n    * @param _owner address owner\n    * @param _spender address spender\n    * @param _amount uint spender\n    * @param _deadline uint spender\n    * @param _v uint8 spender\n    * @param _r bytes32 spender\n    * @param _s bytes32 spender\n    */\n    function permit(\n            address _owner,\n            address _spender,\n            uint256 _amount,\n            uint _deadline,\n            uint8 _v,\n            bytes32 _r,\n            bytes32 _s\n        )\n        external\n    {\n        require(_deadline >= block.timestamp, \"Permit Expired\");\n        bytes32 digest = keccak256(\n            abi.encodePacked(\n                '\\x19\\x01',\n                DOMAIN_SEPARATOR,\n                keccak256(abi.encode(PERMIT_TYPEHASH, _owner, _spender, _amount, nonces[_owner]++, _deadline))\n            )\n        );\n        address recoveredAddress = ecrecover(digest, _v, _r, _s);\n        require(recoveredAddress != address(0) && recoveredAddress == _owner, \"Invalid Signature\");\n        _approve(_owner, _spender, _amount);\n    }\n\n    /**\n    * @dev Allows the controller/owner to update to a new controller\n    * @param _rewardsContract address address of the rewards contract\n    */\n    function updateRewardsContract(\n        address _rewardsContract\n    )\n        public\n        onlyController\n    {\n        require(_rewardsContract != address(0), \"Rewards contract cannot be the zero address\");\n        rewardsContract = _rewardsContract;\n        // TODO: do we want an event for this?\n    }\n\n    /**\n    * @dev Allows the rewards contract to mint tokens\n    * @param _to address where the tokens be minted to\n    * @param _amount uint256 amount to mint\n    */\n    function mint(\n        address _to,\n        uint256 _amount\n    )\n        public\n    {\n        require(rewardsContract != address(0), \"Rewards contract cannot be the zero address\");\n        _mint(_to, _amount);\n        // TODO: do we want an event for this?\n        // TODO: do we want to impose limits?\n    }\n\n    /**\n    * @dev Allows the controller/owner to update to a new controller\n    * @param _controller address address of the new controller\n    */\n    function updateController(\n        address _controller\n    )\n        public\n        onlyController\n    {\n        require(_controller != address(0), \"Controller cannot be the zero address\");\n        controller = _controller;\n        emit ControllerUpdated\n        (\n            _controller\n        );\n    }\n}",
  "sourcePath": "contracts/token/PropsRewards.sol",
  "abi": [
    {
      "anonymous": false,
      "inputs": [
        {
          "indexed": true,
          "internalType": "address",
          "name": "owner",
          "type": "address"
        },
        {
          "indexed": true,
          "internalType": "address",
          "name": "spender",
          "type": "address"
        },
        {
          "indexed": false,
          "internalType": "uint256",
          "name": "value",
          "type": "uint256"
        }
      ],
      "name": "Approval",
      "type": "event"
    },
    {
      "anonymous": false,
      "inputs": [
        {
          "indexed": true,
          "internalType": "address",
          "name": "newController",
          "type": "address"
        }
      ],
      "name": "ControllerUpdated",
      "type": "event"
    },
    {
      "anonymous": false,
      "inputs": [
        {
          "indexed": true,
          "internalType": "address",
          "name": "from",
          "type": "address"
        },
        {
          "indexed": true,
          "internalType": "address",
          "name": "to",
          "type": "address"
        },
        {
          "indexed": false,
          "internalType": "uint256",
          "name": "value",
          "type": "uint256"
        }
      ],
      "name": "Transfer",
      "type": "event"
    },
    {
      "constant": true,
      "inputs": [],
      "name": "DOMAIN_SEPARATOR",
      "outputs": [
        {
          "internalType": "bytes32",
          "name": "",
          "type": "bytes32"
        }
      ],
      "payable": false,
      "stateMutability": "view",
      "type": "function"
    },
    {
      "constant": true,
      "inputs": [],
      "name": "PERMIT_TYPEHASH",
      "outputs": [
        {
          "internalType": "bytes32",
          "name": "",
          "type": "bytes32"
        }
      ],
      "payable": false,
      "stateMutability": "view",
      "type": "function"
    },
    {
      "constant": true,
      "inputs": [
        {
          "internalType": "address",
          "name": "owner",
          "type": "address"
        },
        {
          "internalType": "address",
          "name": "spender",
          "type": "address"
        }
      ],
      "name": "allowance",
      "outputs": [
        {
          "internalType": "uint256",
          "name": "",
          "type": "uint256"
        }
      ],
      "payable": false,
      "stateMutability": "view",
      "type": "function"
    },
    {
      "constant": false,
      "inputs": [
        {
          "internalType": "address",
          "name": "spender",
          "type": "address"
        },
        {
          "internalType": "uint256",
          "name": "value",
          "type": "uint256"
        }
      ],
      "name": "approve",
      "outputs": [
        {
          "internalType": "bool",
          "name": "",
          "type": "bool"
        }
      ],
      "payable": false,
      "stateMutability": "nonpayable",
      "type": "function"
    },
    {
      "constant": true,
      "inputs": [
        {
          "internalType": "address",
          "name": "owner",
          "type": "address"
        }
      ],
      "name": "balanceOf",
      "outputs": [
        {
          "internalType": "uint256",
          "name": "",
          "type": "uint256"
        }
      ],
      "payable": false,
      "stateMutability": "view",
      "type": "function"
    },
    {
      "constant": true,
      "inputs": [],
      "name": "controller",
      "outputs": [
        {
          "internalType": "address",
          "name": "",
          "type": "address"
        }
      ],
      "payable": false,
      "stateMutability": "view",
      "type": "function"
    },
    {
      "constant": false,
      "inputs": [
        {
          "internalType": "address",
          "name": "spender",
          "type": "address"
        },
        {
          "internalType": "uint256",
          "name": "subtractedValue",
          "type": "uint256"
        }
      ],
      "name": "decreaseAllowance",
      "outputs": [
        {
          "internalType": "bool",
          "name": "",
          "type": "bool"
        }
      ],
      "payable": false,
      "stateMutability": "nonpayable",
      "type": "function"
    },
    {
      "constant": false,
      "inputs": [
        {
          "internalType": "address",
          "name": "spender",
          "type": "address"
        },
        {
          "internalType": "uint256",
          "name": "addedValue",
          "type": "uint256"
        }
      ],
      "name": "increaseAllowance",
      "outputs": [
        {
          "internalType": "bool",
          "name": "",
          "type": "bool"
        }
      ],
      "payable": false,
      "stateMutability": "nonpayable",
      "type": "function"
    },
    {
      "constant": false,
      "inputs": [
        {
          "internalType": "string",
          "name": "_tokenName",
          "type": "string"
        }
      ],
      "name": "initializeStakingUpgrade",
      "outputs": [],
      "payable": false,
      "stateMutability": "nonpayable",
      "type": "function"
    },
    {
      "constant": true,
      "inputs": [],
      "name": "maxTotalSupply",
      "outputs": [
        {
          "internalType": "uint256",
          "name": "",
          "type": "uint256"
        }
      ],
      "payable": false,
      "stateMutability": "view",
      "type": "function"
    },
    {
      "constant": false,
      "inputs": [
        {
          "internalType": "address",
          "name": "_to",
          "type": "address"
        },
        {
          "internalType": "uint256",
          "name": "_amount",
          "type": "uint256"
        }
      ],
      "name": "mint",
      "outputs": [],
      "payable": false,
      "stateMutability": "nonpayable",
      "type": "function"
    },
    {
      "constant": true,
      "inputs": [
        {
          "internalType": "address",
          "name": "",
          "type": "address"
        }
      ],
      "name": "nonces",
      "outputs": [
        {
          "internalType": "uint256",
          "name": "",
          "type": "uint256"
        }
      ],
      "payable": false,
      "stateMutability": "view",
      "type": "function"
    },
    {
      "constant": false,
      "inputs": [
        {
          "internalType": "address",
          "name": "_owner",
          "type": "address"
        },
        {
          "internalType": "address",
          "name": "_spender",
          "type": "address"
        },
        {
          "internalType": "uint256",
          "name": "_amount",
          "type": "uint256"
        },
        {
          "internalType": "uint256",
          "name": "_deadline",
          "type": "uint256"
        },
        {
          "internalType": "uint8",
          "name": "_v",
          "type": "uint8"
        },
        {
          "internalType": "bytes32",
          "name": "_r",
          "type": "bytes32"
        },
        {
          "internalType": "bytes32",
          "name": "_s",
          "type": "bytes32"
        }
      ],
      "name": "permit",
      "outputs": [],
      "payable": false,
      "stateMutability": "nonpayable",
      "type": "function"
    },
    {
      "constant": true,
      "inputs": [],
      "name": "rewardsContract",
      "outputs": [
        {
          "internalType": "address",
          "name": "",
          "type": "address"
        }
      ],
      "payable": false,
      "stateMutability": "view",
      "type": "function"
    },
    {
      "constant": true,
      "inputs": [],
      "name": "rewardsStartTimestamp",
      "outputs": [
        {
          "internalType": "uint256",
          "name": "",
          "type": "uint256"
        }
      ],
      "payable": false,
      "stateMutability": "view",
      "type": "function"
    },
    {
      "constant": true,
      "inputs": [],
      "name": "totalSupply",
      "outputs": [
        {
          "internalType": "uint256",
          "name": "",
          "type": "uint256"
        }
      ],
      "payable": false,
      "stateMutability": "view",
      "type": "function"
    },
    {
      "constant": false,
      "inputs": [
        {
          "internalType": "address",
          "name": "to",
          "type": "address"
        },
        {
          "internalType": "uint256",
          "name": "value",
          "type": "uint256"
        }
      ],
      "name": "transfer",
      "outputs": [
        {
          "internalType": "bool",
          "name": "",
          "type": "bool"
        }
      ],
      "payable": false,
      "stateMutability": "nonpayable",
      "type": "function"
    },
    {
      "constant": false,
      "inputs": [
        {
          "internalType": "address",
          "name": "from",
          "type": "address"
        },
        {
          "internalType": "address",
          "name": "to",
          "type": "address"
        },
        {
          "internalType": "uint256",
          "name": "value",
          "type": "uint256"
        }
      ],
      "name": "transferFrom",
      "outputs": [
        {
          "internalType": "bool",
          "name": "",
          "type": "bool"
        }
      ],
      "payable": false,
      "stateMutability": "nonpayable",
      "type": "function"
    },
    {
      "constant": false,
      "inputs": [
        {
          "internalType": "address",
          "name": "_controller",
          "type": "address"
        }
      ],
      "name": "updateController",
      "outputs": [],
      "payable": false,
      "stateMutability": "nonpayable",
      "type": "function"
    },
    {
      "constant": false,
      "inputs": [
        {
          "internalType": "address",
          "name": "_rewardsContract",
          "type": "address"
        }
      ],
      "name": "updateRewardsContract",
      "outputs": [],
      "payable": false,
      "stateMutability": "nonpayable",
      "type": "function"
    }
  ],
  "bytecode": "0x608060405234801561001057600080fd5b50611a63806100206000396000f3fe608060405234801561001057600080fd5b506004361061012c5760003560e01c8063439e4f51116100ad578063a457c2d711610071578063a457c2d7146105a4578063a9059cbb1461060a578063d505accf14610670578063dd62ed3e14610709578063f77c4791146107815761012c565b8063439e4f51146103d7578063635685021461041b57806370a08231146104395780637ecebe00146104915780639830bbb4146104e95761012c565b80632ab4d052116100f45780632ab4d052146102c957806330adf81f146102e75780633644e51514610305578063395093511461032357806340c10f19146103895761012c565b806306cb5b6614610131578063095ea7b31461017557806318160ddd146101db578063220cce97146101f957806323b872dd14610243575b600080fd5b6101736004803603602081101561014757600080fd5b81019080803573ffffffffffffffffffffffffffffffffffffffff1690602001909291905050506107cb565b005b6101c16004803603604081101561018b57600080fd5b81019080803573ffffffffffffffffffffffffffffffffffffffff1690602001909291908035906020019092919050505061099b565b604051808215151515815260200191505060405180910390f35b6101e36109b2565b6040518082815260200191505060405180910390f35b6102016109bc565b604051808273ffffffffffffffffffffffffffffffffffffffff1673ffffffffffffffffffffffffffffffffffffffff16815260200191505060405180910390f35b6102af6004803603606081101561025957600080fd5b81019080803573ffffffffffffffffffffffffffffffffffffffff169060200190929190803573ffffffffffffffffffffffffffffffffffffffff169060200190929190803590602001909291905050506109e2565b604051808215151515815260200191505060405180910390f35b6102d1610a93565b6040518082815260200191505060405180910390f35b6102ef610a99565b6040518082815260200191505060405180910390f35b61030d610ac0565b6040518082815260200191505060405180910390f35b61036f6004803603604081101561033957600080fd5b81019080803573ffffffffffffffffffffffffffffffffffffffff16906020019092919080359060200190929190505050610ac6565b604051808215151515815260200191505060405180910390f35b6103d56004803603604081101561039f57600080fd5b81019080803573ffffffffffffffffffffffffffffffffffffffff16906020019092919080359060200190929190505050610b6b565b005b610419600480360360208110156103ed57600080fd5b81019080803573ffffffffffffffffffffffffffffffffffffffff169060200190929190505050610c21565b005b610423610dae565b6040518082815260200191505060405180910390f35b61047b6004803603602081101561044f57600080fd5b81019080803573ffffffffffffffffffffffffffffffffffffffff169060200190929190505050610db4565b6040518082815260200191505060405180910390f35b6104d3600480360360208110156104a757600080fd5b81019080803573ffffffffffffffffffffffffffffffffffffffff169060200190929190505050610dfd565b6040518082815260200191505060405180910390f35b6105a2600480360360208110156104ff57600080fd5b810190808035906020019064010000000081111561051c57600080fd5b82018360208201111561052e57600080fd5b8035906020019184600183028401116401000000008311171561055057600080fd5b91908080601f016020809104026020016040519081016040528093929190818152602001838380828437600081840152601f19601f820116905080830192505050505050509192919290505050610e15565b005b6105f0600480360360408110156105ba57600080fd5b81019080803573ffffffffffffffffffffffffffffffffffffffff16906020019092919080359060200190929190505050610fe0565b604051808215151515815260200191505060405180910390f35b6106566004803603604081101561062057600080fd5b81019080803573ffffffffffffffffffffffffffffffffffffffff16906020019092919080359060200190929190505050611085565b604051808215151515815260200191505060405180910390f35b610707600480360360e081101561068657600080fd5b81019080803573ffffffffffffffffffffffffffffffffffffffff169060200190929190803573ffffffffffffffffffffffffffffffffffffffff1690602001909291908035906020019092919080359060200190929190803560ff169060200190929190803590602001909291908035906020019092919050505061109c565b005b61076b6004803603604081101561071f57600080fd5b81019080803573ffffffffffffffffffffffffffffffffffffffff169060200190929190803573ffffffffffffffffffffffffffffffffffffffff1690602001909291905050506113e0565b6040518082815260200191505060405180910390f35b610789611467565b604051808273ffffffffffffffffffffffffffffffffffffffff1673ffffffffffffffffffffffffffffffffffffffff16815260200191505060405180910390f35b608260009054906101000a900473ffffffffffffffffffffffffffffffffffffffff1673ffffffffffffffffffffffffffffffffffffffff163373ffffffffffffffffffffffffffffffffffffffff161461088e576040517f08c379a00000000000000000000000000000000000000000000000000000000081526004018080602001828103825260168152602001807f4d7573742062652074686520636f6e74726f6c6c65720000000000000000000081525060200191505060405180910390fd5b600073ffffffffffffffffffffffffffffffffffffffff168173ffffffffffffffffffffffffffffffffffffffff161415610914576040517f08c379a000000000000000000000000000000000000000000000000000000000815260040180806020018281038252602581526020018061198a6025913960400191505060405180910390fd5b80608260006101000a81548173ffffffffffffffffffffffffffffffffffffffff021916908373ffffffffffffffffffffffffffffffffffffffff1602179055508073ffffffffffffffffffffffffffffffffffffffff167f1304018cfe79741dcf02ba6b61d39cc4757d59395d03224d9925c7aa8300214660405160405180910390a250565b60006109a833848461148d565b6001905092915050565b6000603554905090565b608360009054906101000a900473ffffffffffffffffffffffffffffffffffffffff1681565b60006109ef8484846115ec565b610a888433610a8385603460008a73ffffffffffffffffffffffffffffffffffffffff1673ffffffffffffffffffffffffffffffffffffffff16815260200190815260200160002060003373ffffffffffffffffffffffffffffffffffffffff1673ffffffffffffffffffffffffffffffffffffffff168152602001908152602001600020546117ba90919063ffffffff16565b61148d565b600190509392505050565b60805481565b7f6e71edae12b1b97f4d1f60370fef10105fa2faae0126114a169c64845d6126c960001b81565b60845481565b6000610b613384610b5c85603460003373ffffffffffffffffffffffffffffffffffffffff1673ffffffffffffffffffffffffffffffffffffffff16815260200190815260200160002060008973ffffffffffffffffffffffffffffffffffffffff1673ffffffffffffffffffffffffffffffffffffffff168152602001908152602001600020546117da90919063ffffffff16565b61148d565b6001905092915050565b600073ffffffffffffffffffffffffffffffffffffffff16608360009054906101000a900473ffffffffffffffffffffffffffffffffffffffff1673ffffffffffffffffffffffffffffffffffffffff161415610c13576040517f08c379a000000000000000000000000000000000000000000000000000000000815260040180806020018281038252602b81526020018061195f602b913960400191505060405180910390fd5b610c1d82826117f9565b5050565b608260009054906101000a900473ffffffffffffffffffffffffffffffffffffffff1673ffffffffffffffffffffffffffffffffffffffff163373ffffffffffffffffffffffffffffffffffffffff1614610ce4576040517f08c379a00000000000000000000000000000000000000000000000000000000081526004018080602001828103825260168152602001807f4d7573742062652074686520636f6e74726f6c6c65720000000000000000000081525060200191505060405180910390fd5b600073ffffffffffffffffffffffffffffffffffffffff168173ffffffffffffffffffffffffffffffffffffffff161415610d6a576040517f08c379a000000000000000000000000000000000000000000000000000000000815260040180806020018281038252602b81526020018061195f602b913960400191505060405180910390fd5b80608360006101000a81548173ffffffffffffffffffffffffffffffffffffffff021916908373ffffffffffffffffffffffffffffffffffffffff16021790555050565b60815481565b6000603360008373ffffffffffffffffffffffffffffffffffffffff1673ffffffffffffffffffffffffffffffffffffffff168152602001908152602001600020549050919050565b60856020528060005260406000206000915090505481565b600060019054906101000a900460ff1680610e345750610e3361194d565b5b80610e4b57506000809054906101000a900460ff16155b610ea0576040517f08c379a000000000000000000000000000000000000000000000000000000000815260040180806020018281038252602e815260200180611a01602e913960400191505060405180910390fd5b60008060019054906101000a900460ff1690506001600060016101000a81548160ff02191690831515021790555060016000806101000a81548160ff021916908315150217905550600046905060405180806119af605291396052019050604051809103902083805190602001206040518060400160405280600181526020017f3100000000000000000000000000000000000000000000000000000000000000815250805190602001208330604051602001808681526020018581526020018481526020018381526020018273ffffffffffffffffffffffffffffffffffffffff1673ffffffffffffffffffffffffffffffffffffffff16815260200195505050505050604051602081830303815290604052805190602001206084819055505080600060016101000a81548160ff0219169083151502179055505050565b600061107b338461107685603460003373ffffffffffffffffffffffffffffffffffffffff1673ffffffffffffffffffffffffffffffffffffffff16815260200190815260200160002060008973ffffffffffffffffffffffffffffffffffffffff1673ffffffffffffffffffffffffffffffffffffffff168152602001908152602001600020546117ba90919063ffffffff16565b61148d565b6001905092915050565b60006110923384846115ec565b6001905092915050565b42841015611112576040517f08c379a000000000000000000000000000000000000000000000000000000000815260040180806020018281038252600e8152602001807f5065726d6974204578706972656400000000000000000000000000000000000081525060200191505060405180910390fd5b60006084547f6e71edae12b1b97f4d1f60370fef10105fa2faae0126114a169c64845d6126c960001b898989608560008e73ffffffffffffffffffffffffffffffffffffffff1673ffffffffffffffffffffffffffffffffffffffff1681526020019081526020016000206000815480929190600101919050558a604051602001808781526020018673ffffffffffffffffffffffffffffffffffffffff1673ffffffffffffffffffffffffffffffffffffffff1681526020018573ffffffffffffffffffffffffffffffffffffffff1673ffffffffffffffffffffffffffffffffffffffff16815260200184815260200183815260200182815260200196505050505050506040516020818303038152906040528051906020012060405160200180807f190100000000000000000000000000000000000000000000000000000000000081525060020183815260200182815260200192505050604051602081830303815290604052805190602001209050600060018286868660405160008152602001604052604051808581526020018460ff1660ff1681526020018381526020018281526020019450505050506020604051602081039080840390855afa1580156112e4573d6000803e3d6000fd5b505050602060405103519050600073ffffffffffffffffffffffffffffffffffffffff168173ffffffffffffffffffffffffffffffffffffffff161415801561135857508873ffffffffffffffffffffffffffffffffffffffff168173ffffffffffffffffffffffffffffffffffffffff16145b6113ca576040517f08c379a00000000000000000000000000000000000000000000000000000000081526004018080602001828103825260118152602001807f496e76616c6964205369676e617475726500000000000000000000000000000081525060200191505060405180910390fd5b6113d589898961148d565b505050505050505050565b6000603460008473ffffffffffffffffffffffffffffffffffffffff1673ffffffffffffffffffffffffffffffffffffffff16815260200190815260200160002060008373ffffffffffffffffffffffffffffffffffffffff1673ffffffffffffffffffffffffffffffffffffffff16815260200190815260200160002054905092915050565b608260009054906101000a900473ffffffffffffffffffffffffffffffffffffffff1681565b600073ffffffffffffffffffffffffffffffffffffffff168273ffffffffffffffffffffffffffffffffffffffff1614156114c757600080fd5b600073ffffffffffffffffffffffffffffffffffffffff168373ffffffffffffffffffffffffffffffffffffffff16141561150157600080fd5b80603460008573ffffffffffffffffffffffffffffffffffffffff1673ffffffffffffffffffffffffffffffffffffffff16815260200190815260200160002060008473ffffffffffffffffffffffffffffffffffffffff1673ffffffffffffffffffffffffffffffffffffffff168152602001908152602001600020819055508173ffffffffffffffffffffffffffffffffffffffff168373ffffffffffffffffffffffffffffffffffffffff167f8c5be1e5ebec7d5bd14f71427d1e84f3dd0314c0f7b2291e5b200ac8c7c3b925836040518082815260200191505060405180910390a3505050565b600073ffffffffffffffffffffffffffffffffffffffff168273ffffffffffffffffffffffffffffffffffffffff16141561162657600080fd5b61167881603360008673ffffffffffffffffffffffffffffffffffffffff1673ffffffffffffffffffffffffffffffffffffffff168152602001908152602001600020546117ba90919063ffffffff16565b603360008573ffffffffffffffffffffffffffffffffffffffff1673ffffffffffffffffffffffffffffffffffffffff1681526020019081526020016000208190555061170d81603360008573ffffffffffffffffffffffffffffffffffffffff1673ffffffffffffffffffffffffffffffffffffffff168152602001908152602001600020546117da90919063ffffffff16565b603360008473ffffffffffffffffffffffffffffffffffffffff1673ffffffffffffffffffffffffffffffffffffffff168152602001908152602001600020819055508173ffffffffffffffffffffffffffffffffffffffff168373ffffffffffffffffffffffffffffffffffffffff167fddf252ad1be2c89b69c2b068fc378daa952ba7f163c4a11628f55a4df523b3ef836040518082815260200191505060405180910390a3505050565b6000828211156117c957600080fd5b600082840390508091505092915050565b6000808284019050838110156117ef57600080fd5b8091505092915050565b600073ffffffffffffffffffffffffffffffffffffffff168273ffffffffffffffffffffffffffffffffffffffff16141561183357600080fd5b611848816035546117da90919063ffffffff16565b6035819055506118a081603360008573ffffffffffffffffffffffffffffffffffffffff1673ffffffffffffffffffffffffffffffffffffffff168152602001908152602001600020546117da90919063ffffffff16565b603360008473ffffffffffffffffffffffffffffffffffffffff1673ffffffffffffffffffffffffffffffffffffffff168152602001908152602001600020819055508173ffffffffffffffffffffffffffffffffffffffff16600073ffffffffffffffffffffffffffffffffffffffff167fddf252ad1be2c89b69c2b068fc378daa952ba7f163c4a11628f55a4df523b3ef836040518082815260200191505060405180910390a35050565b600080303b9050600081149150509056fe5265776172647320636f6e74726163742063616e6e6f7420626520746865207a65726f2061646472657373436f6e74726f6c6c65722063616e6e6f7420626520746865207a65726f2061646472657373454950373132446f6d61696e28737472696e67206e616d652c737472696e672076657273696f6e2c75696e7432353620636861696e49642c6164647265737320766572696679696e67436f6e747261637429436f6e747261637420696e7374616e63652068617320616c7265616479206265656e20696e697469616c697a6564a265627a7a72315820940adbc432beef75e412d4893983cbdc7e66107c3c586bc0fba716b7dfc9bed864736f6c63430005110032",
  "compiler": {
    "name": "solc",
    "version": "0.5.17+commit.d19bba13.Emscripten.clang",
    "optimizer": {
      "enabled": false,
      "runs": 200
    },
    "evmVersion": "istanbul"
  }
}