{
  "contractName": "PropsCrowdsale",
  "abi": [
    {
      "constant": true,
      "inputs": [
        {
          "name": "",
          "type": "uint256"
        },
        {
          "name": "",
          "type": "address"
        }
      ],
      "name": "capForUserOnPhase",
      "outputs": [
        {
          "name": "",
          "type": "uint256"
        }
      ],
      "payable": false,
      "stateMutability": "view",
      "type": "function"
    },
    {
      "constant": true,
      "inputs": [],
      "name": "phasesLimit",
      "outputs": [
        {
          "name": "",
          "type": "uint256"
        }
      ],
      "payable": false,
      "stateMutability": "view",
      "type": "function"
    },
    {
      "constant": true,
      "inputs": [],
      "name": "rate",
      "outputs": [
        {
          "name": "",
          "type": "uint256"
        }
      ],
      "payable": false,
      "stateMutability": "view",
      "type": "function"
    },
    {
      "constant": true,
      "inputs": [
        {
          "name": "",
          "type": "uint256"
        }
      ],
      "name": "phases",
      "outputs": [
        {
          "name": "id",
          "type": "uint256"
        },
        {
          "name": "defaultCap",
          "type": "uint256"
        },
        {
          "name": "startingAt",
          "type": "uint256"
        },
        {
          "name": "endingAt",
          "type": "uint256"
        }
      ],
      "payable": false,
      "stateMutability": "view",
      "type": "function"
    },
    {
      "constant": true,
      "inputs": [],
      "name": "endTime",
      "outputs": [
        {
          "name": "",
          "type": "uint256"
        }
      ],
      "payable": false,
      "stateMutability": "view",
      "type": "function"
    },
    {
      "constant": true,
      "inputs": [],
      "name": "cap",
      "outputs": [
        {
          "name": "",
          "type": "uint256"
        }
      ],
      "payable": false,
      "stateMutability": "view",
      "type": "function"
    },
    {
      "constant": true,
      "inputs": [],
      "name": "goal",
      "outputs": [
        {
          "name": "",
          "type": "uint256"
        }
      ],
      "payable": false,
      "stateMutability": "view",
      "type": "function"
    },
    {
      "constant": true,
      "inputs": [],
      "name": "weiRaised",
      "outputs": [
        {
          "name": "",
          "type": "uint256"
        }
      ],
      "payable": false,
      "stateMutability": "view",
      "type": "function"
    },
    {
      "constant": true,
      "inputs": [],
      "name": "currentPhaseId",
      "outputs": [
        {
          "name": "",
          "type": "uint256"
        }
      ],
      "payable": false,
      "stateMutability": "view",
      "type": "function"
    },
    {
      "constant": true,
      "inputs": [],
      "name": "shareOfTokensAvailable",
      "outputs": [
        {
          "name": "",
          "type": "uint256"
        }
      ],
      "payable": false,
      "stateMutability": "view",
      "type": "function"
    },
    {
      "constant": true,
      "inputs": [],
      "name": "isWhitelistOnly",
      "outputs": [
        {
          "name": "",
          "type": "bool"
        }
      ],
      "payable": false,
      "stateMutability": "view",
      "type": "function"
    },
    {
      "constant": false,
      "inputs": [],
      "name": "finalize",
      "outputs": [],
      "payable": false,
      "stateMutability": "nonpayable",
      "type": "function"
    },
    {
      "constant": true,
      "inputs": [],
      "name": "wallet",
      "outputs": [
        {
          "name": "",
          "type": "address"
        }
      ],
      "payable": false,
      "stateMutability": "view",
      "type": "function"
    },
    {
      "constant": false,
      "inputs": [
        {
          "name": "_defaultCap",
          "type": "uint256"
        },
        {
          "name": "_startingAt",
          "type": "uint256"
        },
        {
          "name": "_endingAt",
          "type": "uint256"
        }
      ],
      "name": "addPhase",
      "outputs": [],
      "payable": false,
      "stateMutability": "nonpayable",
      "type": "function"
    },
    {
      "constant": true,
      "inputs": [
        {
          "name": "_user",
          "type": "address"
        }
      ],
      "name": "participationAvailableForUser",
      "outputs": [
        {
          "name": "",
          "type": "uint256"
        }
      ],
      "payable": false,
      "stateMutability": "view",
      "type": "function"
    },
    {
      "constant": true,
      "inputs": [],
      "name": "startTime",
      "outputs": [
        {
          "name": "",
          "type": "uint256"
        }
      ],
      "payable": false,
      "stateMutability": "view",
      "type": "function"
    },
    {
      "constant": true,
      "inputs": [],
      "name": "goalReached",
      "outputs": [
        {
          "name": "",
          "type": "bool"
        }
      ],
      "payable": false,
      "stateMutability": "view",
      "type": "function"
    },
    {
      "constant": true,
      "inputs": [],
      "name": "isFinalized",
      "outputs": [
        {
          "name": "",
          "type": "bool"
        }
      ],
      "payable": false,
      "stateMutability": "view",
      "type": "function"
    },
    {
      "constant": true,
      "inputs": [],
      "name": "owner",
      "outputs": [
        {
          "name": "",
          "type": "address"
        }
      ],
      "payable": false,
      "stateMutability": "view",
      "type": "function"
    },
    {
      "constant": true,
      "inputs": [
        {
          "name": "",
          "type": "address"
        }
      ],
      "name": "weiRaisedFromUser",
      "outputs": [
        {
          "name": "",
          "type": "uint256"
        }
      ],
      "payable": false,
      "stateMutability": "view",
      "type": "function"
    },
    {
      "constant": true,
      "inputs": [
        {
          "name": "",
          "type": "address"
        }
      ],
      "name": "preallocationConditions",
      "outputs": [
        {
          "name": "discount",
          "type": "uint256"
        },
        {
          "name": "vestingDuration",
          "type": "uint256"
        },
        {
          "name": "vestingCliff",
          "type": "uint256"
        },
        {
          "name": "percentageToVest",
          "type": "uint256"
        },
        {
          "name": "isWhitelisted",
          "type": "bool"
        }
      ],
      "payable": false,
      "stateMutability": "view",
      "type": "function"
    },
    {
      "constant": false,
      "inputs": [
        {
          "name": "_isWhitelistOnly",
          "type": "bool"
        }
      ],
      "name": "setWhitelistedOnly",
      "outputs": [],
      "payable": false,
      "stateMutability": "nonpayable",
      "type": "function"
    },
    {
      "constant": false,
      "inputs": [
        {
          "name": "_preallocation",
          "type": "address"
        },
        {
          "name": "_discount",
          "type": "uint256"
        },
        {
          "name": "_vestingDuration",
          "type": "uint256"
        },
        {
          "name": "_vestingCliff",
          "type": "uint256"
        },
        {
          "name": "_percentageToVest",
          "type": "uint256"
        }
      ],
      "name": "addPreallocation",
      "outputs": [],
      "payable": false,
      "stateMutability": "nonpayable",
      "type": "function"
    },
    {
      "constant": true,
      "inputs": [
        {
          "name": "_sender",
          "type": "address"
        }
      ],
      "name": "isPreallocation",
      "outputs": [
        {
          "name": "",
          "type": "bool"
        }
      ],
      "payable": false,
      "stateMutability": "view",
      "type": "function"
    },
    {
      "constant": false,
      "inputs": [
        {
          "name": "_user",
          "type": "address"
        }
      ],
      "name": "addWhitelistedUser",
      "outputs": [],
      "payable": false,
      "stateMutability": "nonpayable",
      "type": "function"
    },
    {
      "constant": false,
      "inputs": [],
      "name": "claimRefund",
      "outputs": [],
      "payable": false,
      "stateMutability": "nonpayable",
      "type": "function"
    },
    {
      "constant": false,
      "inputs": [
        {
          "name": "_phaseId",
          "type": "uint256"
        },
        {
          "name": "_user",
          "type": "address"
        },
        {
          "name": "_userCap",
          "type": "uint256"
        }
      ],
      "name": "overrideCapForUserOnPhase",
      "outputs": [],
      "payable": false,
      "stateMutability": "nonpayable",
      "type": "function"
    },
    {
      "constant": false,
      "inputs": [
        {
          "name": "_user",
          "type": "address"
        }
      ],
      "name": "removeWhitelistedUser",
      "outputs": [],
      "payable": false,
      "stateMutability": "nonpayable",
      "type": "function"
    },
    {
      "constant": true,
      "inputs": [],
      "name": "notFound",
      "outputs": [
        {
          "name": "",
          "type": "uint256"
        }
      ],
      "payable": false,
      "stateMutability": "view",
      "type": "function"
    },
    {
      "constant": false,
      "inputs": [
        {
          "name": "_phaseId",
          "type": "uint256"
        },
        {
          "name": "_defaultUserCap",
          "type": "uint256"
        }
      ],
      "name": "updateDefaultCapForPhase",
      "outputs": [],
      "payable": false,
      "stateMutability": "nonpayable",
      "type": "function"
    },
    {
      "constant": true,
      "inputs": [
        {
          "name": "_sender",
          "type": "address"
        }
      ],
      "name": "isWhitelistedUser",
      "outputs": [
        {
          "name": "",
          "type": "bool"
        }
      ],
      "payable": false,
      "stateMutability": "view",
      "type": "function"
    },
    {
      "constant": true,
      "inputs": [],
      "name": "getPhaseCount",
      "outputs": [
        {
          "name": "",
          "type": "uint256"
        }
      ],
      "payable": false,
      "stateMutability": "view",
      "type": "function"
    },
    {
      "constant": false,
      "inputs": [
        {
          "name": "_softCap",
          "type": "uint256"
        },
        {
          "name": "_hardCap",
          "type": "uint256"
        },
        {
          "name": "_volumeSoldUnderSAFT",
          "type": "uint256"
        }
      ],
      "name": "updateCaps",
      "outputs": [],
      "payable": false,
      "stateMutability": "nonpayable",
      "type": "function"
    },
    {
      "constant": false,
      "inputs": [
        {
          "name": "_beneficiary",
          "type": "address"
        }
      ],
      "name": "buyTokens",
      "outputs": [],
      "payable": true,
      "stateMutability": "payable",
      "type": "function"
    },
    {
      "constant": true,
      "inputs": [],
      "name": "hasEnded",
      "outputs": [
        {
          "name": "",
          "type": "bool"
        }
      ],
      "payable": false,
      "stateMutability": "view",
      "type": "function"
    },
    {
      "constant": true,
      "inputs": [],
      "name": "whitelistedUsersCount",
      "outputs": [
        {
          "name": "",
          "type": "uint256"
        }
      ],
      "payable": false,
      "stateMutability": "view",
      "type": "function"
    },
    {
      "constant": false,
      "inputs": [
        {
          "name": "newOwner",
          "type": "address"
        }
      ],
      "name": "transferOwnership",
      "outputs": [],
      "payable": false,
      "stateMutability": "nonpayable",
      "type": "function"
    },
    {
      "constant": true,
      "inputs": [],
      "name": "vault",
      "outputs": [
        {
          "name": "",
          "type": "address"
        }
      ],
      "payable": false,
      "stateMutability": "view",
      "type": "function"
    },
    {
      "constant": true,
      "inputs": [],
      "name": "token",
      "outputs": [
        {
          "name": "",
          "type": "address"
        }
      ],
      "payable": false,
      "stateMutability": "view",
      "type": "function"
    },
    {
      "inputs": [
        {
          "name": "_startTime",
          "type": "uint256"
        },
        {
          "name": "_endTime",
          "type": "uint256"
        },
        {
          "name": "_softCap",
          "type": "uint256"
        },
        {
          "name": "_hardCap",
          "type": "uint256"
        },
        {
          "name": "_wallet",
          "type": "address"
        },
        {
          "name": "_token",
          "type": "address"
        }
      ],
      "payable": false,
      "stateMutability": "nonpayable",
      "type": "constructor"
    },
    {
      "payable": true,
      "stateMutability": "payable",
      "type": "fallback"
    },
    {
      "anonymous": false,
      "inputs": [
        {
          "indexed": false,
          "name": "cap",
          "type": "uint256"
        }
      ],
      "name": "SoftCapUpdate",
      "type": "event"
    },
    {
      "anonymous": false,
      "inputs": [
        {
          "indexed": false,
          "name": "cap",
          "type": "uint256"
        }
      ],
      "name": "HardCapUpdate",
      "type": "event"
    },
    {
      "anonymous": false,
      "inputs": [
        {
          "indexed": false,
          "name": "rate",
          "type": "uint256"
        }
      ],
      "name": "RateUpdate",
      "type": "event"
    },
    {
      "anonymous": false,
      "inputs": [],
      "name": "Finalized",
      "type": "event"
    },
    {
      "anonymous": false,
      "inputs": [
        {
          "indexed": true,
          "name": "preallocation",
          "type": "address"
        },
        {
          "indexed": false,
          "name": "discount",
          "type": "uint256"
        },
        {
          "indexed": false,
          "name": "vestingDuration",
          "type": "uint256"
        },
        {
          "indexed": false,
          "name": "vestingCliff",
          "type": "uint256"
        },
        {
          "indexed": false,
          "name": "percentageToVest",
          "type": "uint256"
        }
      ],
      "name": "PreallocationConditionsUpdated",
      "type": "event"
    },
    {
      "anonymous": false,
      "inputs": [
        {
          "indexed": true,
          "name": "purchaser",
          "type": "address"
        },
        {
          "indexed": true,
          "name": "beneficiary",
          "type": "address"
        },
        {
          "indexed": false,
          "name": "value",
          "type": "uint256"
        },
        {
          "indexed": false,
          "name": "amount",
          "type": "uint256"
        }
      ],
      "name": "PreallocatedTokenPurchase",
      "type": "event"
    },
    {
      "anonymous": false,
      "inputs": [
        {
          "indexed": true,
          "name": "vault",
          "type": "address"
        },
        {
          "indexed": true,
          "name": "beneficiary",
          "type": "address"
        },
        {
          "indexed": false,
          "name": "value",
          "type": "uint256"
        },
        {
          "indexed": false,
          "name": "amount",
          "type": "uint256"
        }
      ],
      "name": "PreallocatedTokenVesting",
      "type": "event"
    },
    {
      "anonymous": false,
      "inputs": [
        {
          "indexed": false,
          "name": "user",
          "type": "address"
        }
      ],
      "name": "UserWhitelisted",
      "type": "event"
    },
    {
      "anonymous": false,
      "inputs": [
        {
          "indexed": false,
          "name": "user",
          "type": "address"
        }
      ],
      "name": "UserRemovedFromWhitelist",
      "type": "event"
    },
    {
      "anonymous": false,
      "inputs": [
        {
          "indexed": false,
          "name": "_phaseId",
          "type": "uint256"
        },
        {
          "indexed": false,
          "name": "_defaultCap",
          "type": "uint256"
        },
        {
          "indexed": false,
          "name": "startingAt",
          "type": "uint256"
        },
        {
          "indexed": false,
          "name": "endingAt",
          "type": "uint256"
        }
      ],
      "name": "PhaseCreated",
      "type": "event"
    },
    {
      "anonymous": false,
      "inputs": [
        {
          "indexed": false,
          "name": "_phaseId",
          "type": "uint256"
        },
        {
          "indexed": false,
          "name": "_defaultUserCap",
          "type": "uint256"
        }
      ],
      "name": "PhaseUpdated",
      "type": "event"
    },
    {
      "anonymous": false,
      "inputs": [
        {
          "indexed": false,
          "name": "_phaseId",
          "type": "uint256"
        },
        {
          "indexed": false,
          "name": "_user",
          "type": "address"
        },
        {
          "indexed": false,
          "name": "_userCap",
          "type": "uint256"
        }
      ],
      "name": "UserCapOverridenForPhase",
      "type": "event"
    },
    {
      "anonymous": false,
      "inputs": [
        {
          "indexed": true,
          "name": "previousOwner",
          "type": "address"
        },
        {
          "indexed": true,
          "name": "newOwner",
          "type": "address"
        }
      ],
      "name": "OwnershipTransferred",
      "type": "event"
    },
    {
      "anonymous": false,
      "inputs": [
        {
          "indexed": true,
          "name": "purchaser",
          "type": "address"
        },
        {
          "indexed": true,
          "name": "beneficiary",
          "type": "address"
        },
        {
          "indexed": false,
          "name": "value",
          "type": "uint256"
        },
        {
          "indexed": false,
          "name": "amount",
          "type": "uint256"
        }
      ],
      "name": "TokenPurchase",
      "type": "event"
    }
  ],
  "bytecode": "0x60606040526000601060006101000a81548160ff02191690831515021790555034156200002b57600080fd5b60405160c08062004f748339810160405280805190602001909190805190602001909190805190602001909190805190602001909190805190602001909190805190602001909190505083838088886001874284101515156200008d57600080fd5b8383101515156200009d57600080fd5b600082111515620000ad57600080fd5b600073ffffffffffffffffffffffffffffffffffffffff168173ffffffffffffffffffffffffffffffffffffffff1614151515620000ea57600080fd5b62000108620003646401000000000262002ff3176401000000009004565b6000806101000a81548173ffffffffffffffffffffffffffffffffffffffff021916908373ffffffffffffffffffffffffffffffffffffffff16021790555083600181905550826002819055508160048190555080600360006101000a81548173ffffffffffffffffffffffffffffffffffffffff021916908373ffffffffffffffffffffffffffffffffffffffff16021790555050505050600081111515620001b157600080fd5b806006819055505033600760006101000a81548173ffffffffffffffffffffffffffffffffffffffff021916908373ffffffffffffffffffffffffffffffffffffffff1602179055506003600981905550506001600d60006101000a81548160ff0219169083151502179055506000600e819055506000811115156200023657600080fd5b600360009054906101000a900473ffffffffffffffffffffffffffffffffffffffff16620002636200057b565b808273ffffffffffffffffffffffffffffffffffffffff1673ffffffffffffffffffffffffffffffffffffffff168152602001915050604051809103906000f0801515620002b057600080fd5b601260006101000a81548173ffffffffffffffffffffffffffffffffffffffff021916908373ffffffffffffffffffffffffffffffffffffffff1602179055508060118190555050806000806101000a81548173ffffffffffffffffffffffffffffffffffffffff021916908373ffffffffffffffffffffffffffffffffffffffff1602179055506200035860006200036c6401000000000262001fdf176401000000009004565b5050505050506200058c565b600080905090565b6000806000806006541115156200038257600080fd5b6000809054906101000a900473ffffffffffffffffffffffffffffffffffffffff1673ffffffffffffffffffffffffffffffffffffffff16635478bc6b6000604051602001526040518163ffffffff167c0100000000000000000000000000000000000000000000000000000000028152600401602060405180830381600087803b15156200041057600080fd5b6102c65a03f115156200042257600080fd5b505050604051805190509250620004756064620004586014866200050664010000000002620028b5179091906401000000009004565b6200054564010000000002620028f4179091906401000000009004565b91506200049a8483620005616401000000000262001f00179091906401000000009004565b9050620004c1600654826200054564010000000002620028f4179091906401000000009004565b6004819055507f9b831dcbec52dfe52b187da18aae08651dfb726e9baf49d5d9eae6fa264db3a16004546040518082815260200191505060405180910390a150505050565b60008060008414156200051d57600091506200053e565b82840290508284828115156200052f57fe5b041415156200053a57fe5b8091505b5092915050565b60008082848115156200055457fe5b0490508091505092915050565b60008282111515156200057057fe5b818303905092915050565b604051610a7780620044fd83390190565b613f61806200059c6000396000f3006060604052600436106200020b576000357c0100000000000000000000000000000000000000000000000000000000900463ffffffff16806313ebc956146200021857806320fe8fa814620002715780632c4e722e146200029d5780632e37eef614620002c95780633197cbb61462000318578063355274ea14620003445780634019388314620003705780634042b66f146200039c57806340c5b34e14620003c85780634177f73514620003f457806348fece7c14620004205780634bb278f31462000450578063521eb273146200046857806366a9234c14620004c057806377e5439014620004f857806378e9792514620005485780637d3d652214620005745780638d4e408314620005a45780638da5cb5b14620005d457806391285375146200062c5780639fceaa9d146200067c578063a157696b14620006ec578063a8341c0b1462000714578063a877ed201462000774578063b231e25d14620007c8578063b5545a3c1462000804578063b78ef95d146200081c578063b7b1b8e9146200086a578063c5b6faa114620008a6578063caf183d914620008d2578063d88c271e1462000901578063db5e00631462000955578063ebac65051462000981578063ec8ac4d814620009b9578063ecb70fb714620009e9578063eef0d8151462000a19578063f2fde38b1462000a45578063fbfa77cf1462000a81578063fc0c546a1462000ad9575b620002163362000b31565b005b34156200022457600080fd5b6200025b600480803590602001909190803573ffffffffffffffffffffffffffffffffffffffff1690602001909190505062000b62565b6040518082815260200191505060405180910390f35b34156200027d57600080fd5b6200028762000b87565b6040518082815260200191505060405180910390f35b3415620002a957600080fd5b620002b362000b8d565b6040518082815260200191505060405180910390f35b3415620002d557600080fd5b620002ed600480803590602001909190505062000b93565b6040518085815260200184815260200183815260200182815260200194505050505060405180910390f35b34156200032457600080fd5b6200032e62000bd3565b6040518082815260200191505060405180910390f35b34156200035057600080fd5b6200035a62000bd9565b6040518082815260200191505060405180910390f35b34156200037c57600080fd5b6200038662000bdf565b6040518082815260200191505060405180910390f35b3415620003a857600080fd5b620003b262000be5565b6040518082815260200191505060405180910390f35b3415620003d457600080fd5b620003de62000beb565b6040518082815260200191505060405180910390f35b34156200040057600080fd5b6200040a62000c98565b6040518082815260200191505060405180910390f35b34156200042c57600080fd5b6200043662000c9d565b604051808215151515815260200191505060405180910390f35b34156200045c57600080fd5b6200046662000cb0565b005b34156200047457600080fd5b6200047e62000d93565b604051808273ffffffffffffffffffffffffffffffffffffffff1673ffffffffffffffffffffffffffffffffffffffff16815260200191505060405180910390f35b3415620004cc57600080fd5b620004f6600480803590602001909190803590602001909190803590602001909190505062000db9565b005b34156200050457600080fd5b62000532600480803573ffffffffffffffffffffffffffffffffffffffff1690602001909190505062000f48565b6040518082815260200191505060405180910390f35b34156200055457600080fd5b6200055e62000fea565b6040518082815260200191505060405180910390f35b34156200058057600080fd5b6200058a62000ff0565b604051808215151515815260200191505060405180910390f35b3415620005b057600080fd5b620005ba62000fff565b604051808215151515815260200191505060405180910390f35b3415620005e057600080fd5b620005ea62001012565b604051808273ffffffffffffffffffffffffffffffffffffffff1673ffffffffffffffffffffffffffffffffffffffff16815260200191505060405180910390f35b34156200063857600080fd5b62000666600480803573ffffffffffffffffffffffffffffffffffffffff1690602001909190505062001038565b6040518082815260200191505060405180910390f35b34156200068857600080fd5b620006b6600480803573ffffffffffffffffffffffffffffffffffffffff1690602001909190505062001050565b60405180868152602001858152602001848152602001838152602001821515151581526020019550505050505060405180910390f35b3415620006f857600080fd5b620007126004808035151590602001909190505062001093565b005b34156200072057600080fd5b62000772600480803573ffffffffffffffffffffffffffffffffffffffff169060200190919080359060200190919080359060200190919080359060200190919080359060200190919050506200112b565b005b34156200078057600080fd5b620007ae600480803573ffffffffffffffffffffffffffffffffffffffff16906020019091905050620012bb565b604051808215151515815260200191505060405180910390f35b3415620007d457600080fd5b62000802600480803573ffffffffffffffffffffffffffffffffffffffff169060200190919050506200133a565b005b34156200081057600080fd5b6200081a6200148b565b005b34156200082857600080fd5b62000868600480803590602001909190803573ffffffffffffffffffffffffffffffffffffffff1690602001909190803590602001909190505062001592565b005b34156200087657600080fd5b620008a4600480803573ffffffffffffffffffffffffffffffffffffffff16906020019091905050620016e0565b005b3415620008b257600080fd5b620008bc62001830565b6040518082815260200191505060405180910390f35b3415620008de57600080fd5b620008ff600480803590602001909190803590602001909190505062001854565b005b34156200090d57600080fd5b6200093b600480803573ffffffffffffffffffffffffffffffffffffffff169060200190919050506200193e565b604051808215151515815260200191505060405180910390f35b34156200096157600080fd5b6200096b620019ba565b6040518082815260200191505060405180910390f35b34156200098d57600080fd5b620009b76004808035906020019091908035906020019091908035906020019091905050620019c7565b005b620009e7600480803573ffffffffffffffffffffffffffffffffffffffff1690602001909190505062000b31565b005b3415620009f557600080fd5b620009ff62001a5b565b604051808215151515815260200191505060405180910390f35b341562000a2557600080fd5b62000a2f62001a81565b6040518082815260200191505060405180910390f35b341562000a5157600080fd5b62000a7f600480803573ffffffffffffffffffffffffffffffffffffffff1690602001909190505062001a8b565b005b341562000a8d57600080fd5b62000a9762001be5565b604051808273ffffffffffffffffffffffffffffffffffffffff1673ffffffffffffffffffffffffffffffffffffffff16815260200191505060405180910390f35b341562000ae557600080fd5b62000aef62001c0b565b604051808273ffffffffffffffffffffffffffffffffffffffff1673ffffffffffffffffffffffffffffffffffffffff16815260200191505060405180910390f35b62000b3c33620012bb565b1562000b535762000b4d8162001c30565b62000b5f565b62000b5e8162001c66565b5b50565b600a602052816000526040600020602052806000526040600020600091509150505481565b60095481565b60045481565b60088181548110151562000ba357fe5b90600052602060002090600402016000915090508060000154908060010154908060020154908060030154905084565b60025481565b60065481565b60115481565b60055481565b600080600090505b60088054905081101562000c705760088181548110151562000c1157fe5b906000526020600020906004020160020154421015801562000c53575060088181548110151562000c3e57fe5b90600052602060002090600402016003015442105b1562000c625780915062000c94565b808060010191505062000bf3565b7fffffffffffffffffffffffffffffffffffffffffffffffffffffffffffffffff91505b5090565b601481565b600d60009054906101000a900460ff1681565b600760009054906101000a900473ffffffffffffffffffffffffffffffffffffffff1673ffffffffffffffffffffffffffffffffffffffff163373ffffffffffffffffffffffffffffffffffffffff1614151562000d0d57600080fd5b601060009054906101000a900460ff1615151562000d2a57600080fd5b62000d3462001a5b565b151562000d4057600080fd5b62000d4a62001cbe565b7f6823b073d48d6e3a7d385eeb601452d680e74bb46afe3255a7d778f3a9b1768160405160405180910390a16001601060006101000a81548160ff021916908315150217905550565b600360009054906101000a900473ffffffffffffffffffffffffffffffffffffffff1681565b6000600760009054906101000a900473ffffffffffffffffffffffffffffffffffffffff1673ffffffffffffffffffffffffffffffffffffffff163373ffffffffffffffffffffffffffffffffffffffff1614151562000e1857600080fd5b6001544210151562000e2957600080fd5b60095460088054905010151562000e3f57600080fd5b60008411151562000e4f57600080fd5b600154831015151562000e6157600080fd5b600254821115151562000e7357600080fd5b60088054905090506008805480600101828162000e91919062002f6b565b91600052602060002090600402016000608060405190810160405280858152602001888152602001878152602001868152509091909150600082015181600001556020820151816001015560408201518160020155606082015181600301555050507f27edcd2337d9132d264397555c946b288f9237463e029db583f17e4277eb8f3a818585856040518085815260200184815260200183815260200182815260200194505050505060405180910390a150505050565b600080600080600062000f5b8662001edd565b9350600b60008773ffffffffffffffffffffffffffffffffffffffff1673ffffffffffffffffffffffffffffffffffffffff16815260200190815260200160002054925062000fb4838562001f0090919063ffffffff16565b915062000fcf60055460065462001f0090919063ffffffff16565b90508082111562000fde578091505b81945050505050919050565b60015481565b60006011546005541015905090565b601060009054906101000a900460ff1681565b600760009054906101000a900473ffffffffffffffffffffffffffffffffffffffff1681565b600b6020528060005260406000206000915090505481565b600f6020528060005260406000206000915090508060000154908060010154908060020154908060030154908060040160009054906101000a900460ff16905085565b600760009054906101000a900473ffffffffffffffffffffffffffffffffffffffff1673ffffffffffffffffffffffffffffffffffffffff163373ffffffffffffffffffffffffffffffffffffffff16141515620010f057600080fd5b801515600d60009054906101000a900460ff161515141515620011285780600d60006101000a81548160ff0219169083151502179055505b50565b600760009054906101000a900473ffffffffffffffffffffffffffffffffffffffff1673ffffffffffffffffffffffffffffffffffffffff163373ffffffffffffffffffffffffffffffffffffffff161415156200118857600080fd5b600154421015156200119957600080fd5b60a06040519081016040528085815260200184815260200183815260200182815260200160011515815250600f60008773ffffffffffffffffffffffffffffffffffffffff1673ffffffffffffffffffffffffffffffffffffffff1681526020019081526020016000206000820151816000015560208201518160010155604082015181600201556060820151816003015560808201518160040160006101000a81548160ff0219169083151502179055509050508473ffffffffffffffffffffffffffffffffffffffff167f3fb5e71a27ec4e611df1fb25046cbf6ca2182f43dc5cf382041fcc721cc8cfe5858585856040518085815260200184815260200183815260200182815260200194505050505060405180910390a25050505050565b6000808273ffffffffffffffffffffffffffffffffffffffff1614151515620012e357600080fd5b600f60008373ffffffffffffffffffffffffffffffffffffffff1673ffffffffffffffffffffffffffffffffffffffff16815260200190815260200160002060040160009054906101000a900460ff169050919050565b600760009054906101000a900473ffffffffffffffffffffffffffffffffffffffff1673ffffffffffffffffffffffffffffffffffffffff163373ffffffffffffffffffffffffffffffffffffffff161415156200139757600080fd5b620013a2816200193e565b151515620013af57600080fd5b6001600c60008373ffffffffffffffffffffffffffffffffffffffff1673ffffffffffffffffffffffffffffffffffffffff16815260200190815260200160002060006101000a81548160ff0219169083151502179055506200141f6001600e5462001f1a90919063ffffffff16565b600e819055507f7409cb8e690bcd1487fd4fd27dad3fa92388d201ba6f953631d6d6b26299f84981604051808273ffffffffffffffffffffffffffffffffffffffff1673ffffffffffffffffffffffffffffffffffffffff16815260200191505060405180910390a150565b601060009054906101000a900460ff161515620014a757600080fd5b620014b162000ff0565b151515620014be57600080fd5b601260009054906101000a900473ffffffffffffffffffffffffffffffffffffffff1673ffffffffffffffffffffffffffffffffffffffff1663fa89401a336040518263ffffffff167c0100000000000000000000000000000000000000000000000000000000028152600401808273ffffffffffffffffffffffffffffffffffffffff1673ffffffffffffffffffffffffffffffffffffffff168152602001915050600060405180830381600087803b15156200157b57600080fd5b6102c65a03f115156200158d57600080fd5b505050565b600760009054906101000a900473ffffffffffffffffffffffffffffffffffffffff1673ffffffffffffffffffffffffffffffffffffffff163373ffffffffffffffffffffffffffffffffffffffff16141515620015ef57600080fd5b600880549050831015156200160357600080fd5b6000811115156200161357600080fd5b80600a600085815260200190815260200160002060008473ffffffffffffffffffffffffffffffffffffffff1673ffffffffffffffffffffffffffffffffffffffff168152602001908152602001600020819055507f2838987d8dcb4285e2a0e722d0fed28cbbcba34819e2e308bd01ab84adf6a9a2838383604051808481526020018373ffffffffffffffffffffffffffffffffffffffff1673ffffffffffffffffffffffffffffffffffffffff168152602001828152602001935050505060405180910390a1505050565b600760009054906101000a900473ffffffffffffffffffffffffffffffffffffffff1673ffffffffffffffffffffffffffffffffffffffff163373ffffffffffffffffffffffffffffffffffffffff161415156200173d57600080fd5b62001748816200193e565b15156200175457600080fd5b6000600c60008373ffffffffffffffffffffffffffffffffffffffff1673ffffffffffffffffffffffffffffffffffffffff16815260200190815260200160002060006101000a81548160ff021916908315150217905550620017c46001600e5462001f0090919063ffffffff16565b600e819055507fe285bb51ee9ef78b36fb9eca52aede9c9f4234d2bb72917200f87005edb25a5581604051808273ffffffffffffffffffffffffffffffffffffffff1673ffffffffffffffffffffffffffffffffffffffff16815260200191505060405180910390a150565b7fffffffffffffffffffffffffffffffffffffffffffffffffffffffffffffffff81565b600760009054906101000a900473ffffffffffffffffffffffffffffffffffffffff1673ffffffffffffffffffffffffffffffffffffffff163373ffffffffffffffffffffffffffffffffffffffff16141515620018b157600080fd5b60088054905082101515620018c557600080fd5b600081111515620018d557600080fd5b80600883815481101515620018e657fe5b9060005260206000209060040201600101819055507fa89951a03e2758c1bc16583a91fbb676c836dcda755bf7d40c05625b2bfdccec8282604051808381526020018281526020019250505060405180910390a15050565b6000808273ffffffffffffffffffffffffffffffffffffffff16141515156200196657600080fd5b600c60008373ffffffffffffffffffffffffffffffffffffffff1673ffffffffffffffffffffffffffffffffffffffff16815260200190815260200160002060009054906101000a900460ff169050919050565b6000600880549050905090565b600760009054906101000a900473ffffffffffffffffffffffffffffffffffffffff1673ffffffffffffffffffffffffffffffffffffffff163373ffffffffffffffffffffffffffffffffffffffff1614151562001a2457600080fd5b6001544210151562001a3557600080fd5b62001a408262001f39565b62001a4b8362001f8c565b62001a568162001fdf565b505050565b6000806006546005541015905062001a7262002141565b8062001a7b5750805b91505090565b6000600e54905090565b600760009054906101000a900473ffffffffffffffffffffffffffffffffffffffff1673ffffffffffffffffffffffffffffffffffffffff163373ffffffffffffffffffffffffffffffffffffffff1614151562001ae857600080fd5b600073ffffffffffffffffffffffffffffffffffffffff168173ffffffffffffffffffffffffffffffffffffffff161415151562001b2557600080fd5b8073ffffffffffffffffffffffffffffffffffffffff16600760009054906101000a900473ffffffffffffffffffffffffffffffffffffffff1673ffffffffffffffffffffffffffffffffffffffff167f8be0079c531659141344cd1fd0a4f28419497f9722a3daafe3b4186f6b6457e060405160405180910390a380600760006101000a81548173ffffffffffffffffffffffffffffffffffffffff021916908373ffffffffffffffffffffffffffffffffffffffff16021790555050565b601260009054906101000a900473ffffffffffffffffffffffffffffffffffffffff1681565b6000809054906101000a900473ffffffffffffffffffffffffffffffffffffffff1681565b60065462001c4a3460055462001f1a90919063ffffffff16565b1115151562001c5857600080fd5b62001c63816200214d565b50565b600062001c7262002633565b9050600d60009054906101000a900460ff16801562001c8e5750805b1562001ca25762001c9f826200193e565b90505b80151562001caf57600080fd5b62001cba826200266e565b5050565b62001cc86200269e565b62001cd262000ff0565b1562001edb576000809054906101000a900473ffffffffffffffffffffffffffffffffffffffff1673ffffffffffffffffffffffffffffffffffffffff16637d64bcb46000604051602001526040518163ffffffff167c0100000000000000000000000000000000000000000000000000000000028152600401602060405180830381600087803b151562001d6657600080fd5b6102c65a03f1151562001d7857600080fd5b50505060405180519050506000809054906101000a900473ffffffffffffffffffffffffffffffffffffffff1673ffffffffffffffffffffffffffffffffffffffff16633f4ba83a6040518163ffffffff167c0100000000000000000000000000000000000000000000000000000000028152600401600060405180830381600087803b151562001e0857600080fd5b6102c65a03f1151562001e1a57600080fd5b5050506000809054906101000a900473ffffffffffffffffffffffffffffffffffffffff1673ffffffffffffffffffffffffffffffffffffffff1663f2fde38b61dead6040518263ffffffff167c0100000000000000000000000000000000000000000000000000000000028152600401808273ffffffffffffffffffffffffffffffffffffffff168152602001915050600060405180830381600087803b151562001ec557600080fd5b6102c65a03f1151562001ed757600080fd5b5050505b565b60008062001eea62000beb565b905062001ef88382620027f7565b915050919050565b600082821115151562001f0f57fe5b818303905092915050565b600080828401905083811015151562001f2f57fe5b8091505092915050565b60008111151562001f4957600080fd5b806006819055507f78be68e4dc5138cf64ec6fe812e748105a7a0053f4820db9b779cd8e439ba8846006546040518082815260200191505060405180910390a150565b60008111151562001f9c57600080fd5b806011819055507fe3f1ad0291b380ba79e0dbc0ee678176a4f40ff045e26dd05a77bb20d0a804e86011546040518082815260200191505060405180910390a150565b60008060008060065411151562001ff557600080fd5b6000809054906101000a900473ffffffffffffffffffffffffffffffffffffffff1673ffffffffffffffffffffffffffffffffffffffff16635478bc6b6000604051602001526040518163ffffffff167c0100000000000000000000000000000000000000000000000000000000028152600401602060405180830381600087803b15156200208357600080fd5b6102c65a03f115156200209557600080fd5b505050604051805190509250620020cc6064620020bd601486620028b590919063ffffffff16565b620028f490919063ffffffff16565b9150620020e3848362001f0090919063ffffffff16565b9050620020fc60065482620028f490919063ffffffff16565b6004819055507f9b831dcbec52dfe52b187da18aae08651dfb726e9baf49d5d9eae6fa264db3a16004546040518082815260200191505060405180910390a150505050565b60006002544211905090565b60008060008060008060006200216333620012bb565b15156200216f57600080fd5b600154421015156200218057600080fd5b600f60003373ffffffffffffffffffffffffffffffffffffffff1673ffffffffffffffffffffffffffffffffffffffff1681526020019081526020016000209650349550620021f78760000154606403620021e86064600454620028b590919063ffffffff16565b620028f490919063ffffffff16565b94506200220e8587620028b590919063ffffffff16565b93506200223e60646200222f896003015487620028b590919063ffffffff16565b620028f490919063ffffffff16565b925062002255838562001f0090919063ffffffff16565b915060008211156200234c576000809054906101000a900473ffffffffffffffffffffffffffffffffffffffff1673ffffffffffffffffffffffffffffffffffffffff166340c10f1989846000604051602001526040518363ffffffff167c0100000000000000000000000000000000000000000000000000000000028152600401808373ffffffffffffffffffffffffffffffffffffffff1673ffffffffffffffffffffffffffffffffffffffff16815260200182815260200192505050602060405180830381600087803b15156200232e57600080fd5b6102c65a03f115156200234057600080fd5b50505060405180519050505b60008311156200250b57620023b1888860a06040519081016040529081600082015481526020016001820154815260200160028201548152602001600382015481526020016004820160009054906101000a900460ff16151515158152505062002910565b90506000809054906101000a900473ffffffffffffffffffffffffffffffffffffffff1673ffffffffffffffffffffffffffffffffffffffff166340c10f1982856000604051602001526040518363ffffffff167c0100000000000000000000000000000000000000000000000000000000028152600401808373ffffffffffffffffffffffffffffffffffffffff1673ffffffffffffffffffffffffffffffffffffffff16815260200182815260200192505050602060405180830381600087803b15156200248057600080fd5b6102c65a03f115156200249257600080fd5b50505060405180519050508773ffffffffffffffffffffffffffffffffffffffff168173ffffffffffffffffffffffffffffffffffffffff167feb396bc734a6aff588d4f04e5385a38d7ea66d6ee78cee1529f4c959c13d60f18887604051808381526020018281526020019250505060405180910390a35b620025228660055462001f1a90919063ffffffff16565b60058190555062002532620029e5565b60008760040160006101000a81548160ff0219169083151502179055508773ffffffffffffffffffffffffffffffffffffffff163373ffffffffffffffffffffffffffffffffffffffff167f623b3804fa71d67900d064613da8f94b9617215ee90799290593e1745087ad188887604051808381526020018281526020019250505060405180910390a38773ffffffffffffffffffffffffffffffffffffffff163373ffffffffffffffffffffffffffffffffffffffff167f87f8d1455d518e8400366380d3e51fb19818fde9f0a1620c2d6273fade439f2c8887604051808381526020018281526020019250505060405180910390a35050505050505050565b600080600654620026503460055462001f1a90919063ffffffff16565b111590506200265e62002aba565b8015620026685750805b91505090565b620026798162002aef565b15156200268557600080fd5b620026908162002bb9565b6200269b8162002dae565b50565b620026a862000ff0565b156200274f57601260009054906101000a900473ffffffffffffffffffffffffffffffffffffffff1673ffffffffffffffffffffffffffffffffffffffff166343d726d66040518163ffffffff167c0100000000000000000000000000000000000000000000000000000000028152600401600060405180830381600087803b15156200273457600080fd5b6102c65a03f115156200274657600080fd5b505050620027eb565b601260009054906101000a900473ffffffffffffffffffffffffffffffffffffffff1673ffffffffffffffffffffffffffffffffffffffff16638c52dc416040518163ffffffff167c0100000000000000000000000000000000000000000000000000000000028152600401600060405180830381600087803b1515620027d557600080fd5b6102c65a03f11515620027e757600080fd5b5050505b620027f562002e48565b565b600080600090507fffffffffffffffffffffffffffffffffffffffffffffffffffffffffffffffff83141515620028ab57600a600084815260200190815260200160002060008573ffffffffffffffffffffffffffffffffffffffff1673ffffffffffffffffffffffffffffffffffffffff1681526020019081526020016000205490506000811415620028aa576008838154811015156200289557fe5b90600052602060002090600402016001015490505b5b8091505092915050565b6000806000841415620028cc5760009150620028ed565b8284029050828482811515620028de57fe5b04141515620028e957fe5b8091505b5092915050565b60008082848115156200290357fe5b0490508091505092915050565b6000806000806000808773ffffffffffffffffffffffffffffffffffffffff16141515156200293e57600080fd5b4293506201518086604001510292506201518086602001510291508684848460006200296962002fa0565b808673ffffffffffffffffffffffffffffffffffffffff1673ffffffffffffffffffffffffffffffffffffffff1681526020018581526020018481526020018381526020018215151515815260200195505050505050604051809103906000f0801515620029d657600080fd5b90508094505050505092915050565b601260009054906101000a900473ffffffffffffffffffffffffffffffffffffffff1673ffffffffffffffffffffffffffffffffffffffff1663f340fa0134336040518363ffffffff167c0100000000000000000000000000000000000000000000000000000000028152600401808273ffffffffffffffffffffffffffffffffffffffff1673ffffffffffffffffffffffffffffffffffffffff1681526020019150506000604051808303818588803b151562002aa257600080fd5b6125ee5a03f1151562002ab457600080fd5b50505050565b6000806000600154421015801562002ad457506002544211155b91506000341415905081801562002ae85750805b9250505090565b600080600080600062002b0162000beb565b935062002b0d62002633565b801562002b3a57507fffffffffffffffffffffffffffffffffffffffffffffffffffffffffffffffff8414155b9250821562002bad5762002b9734600b60008973ffffffffffffffffffffffffffffffffffffffff1673ffffffffffffffffffffffffffffffffffffffff1681526020019081526020016000205462001f1a90919063ffffffff16565b915062002ba48662002e4a565b90508082111592505b82945050505050919050565b600080600073ffffffffffffffffffffffffffffffffffffffff168373ffffffffffffffffffffffffffffffffffffffff161415151562002bf957600080fd5b62002c0362002633565b151562002c0f57600080fd5b34915062002c2960045483620028b590919063ffffffff16565b905062002c428260055462001f1a90919063ffffffff16565b6005819055506000809054906101000a900473ffffffffffffffffffffffffffffffffffffffff1673ffffffffffffffffffffffffffffffffffffffff166340c10f1984836000604051602001526040518363ffffffff167c0100000000000000000000000000000000000000000000000000000000028152600401808373ffffffffffffffffffffffffffffffffffffffff1673ffffffffffffffffffffffffffffffffffffffff16815260200182815260200192505050602060405180830381600087803b151562002d1557600080fd5b6102c65a03f1151562002d2757600080fd5b50505060405180519050508273ffffffffffffffffffffffffffffffffffffffff163373ffffffffffffffffffffffffffffffffffffffff167f623b3804fa71d67900d064613da8f94b9617215ee90799290593e1745087ad188484604051808381526020018281526020019250505060405180910390a362002da9620029e5565b505050565b62002e0234600b60008473ffffffffffffffffffffffffffffffffffffffff1673ffffffffffffffffffffffffffffffffffffffff1681526020019081526020016000205462001f1a90919063ffffffff16565b600b60008373ffffffffffffffffffffffffffffffffffffffff1673ffffffffffffffffffffffffffffffffffffffff1681526020019081526020016000208190555050565b565b600080600b60008473ffffffffffffffffffffffffffffffffffffffff1673ffffffffffffffffffffffffffffffffffffffff16815260200190815260200160002054905062002f633073ffffffffffffffffffffffffffffffffffffffff166377e54390856000604051602001526040518263ffffffff167c0100000000000000000000000000000000000000000000000000000000028152600401808273ffffffffffffffffffffffffffffffffffffffff1673ffffffffffffffffffffffffffffffffffffffff168152602001915050602060405180830381600087803b151562002f3757600080fd5b6102c65a03f1151562002f4957600080fd5b505050604051805190508262001f1a90919063ffffffff16565b915050919050565b81548183558181151162002f9b5760040281600402836000526020600020918201910162002f9a919062002fb1565b5b505050565b604051610f3a8062002ffc83390190565b62002ff091905b8082111562002fec576000808201600090556001820160009055600282016000905560038201600090555060040162002fb8565b5090565b90565b60008090509056006060604052341561000f57600080fd5b60405160a080610f3a83398101604052808051906020019091908051906020019091908051906020019091908051906020019091908051906020019091905050336000806101000a81548173ffffffffffffffffffffffffffffffffffffffff021916908373ffffffffffffffffffffffffffffffffffffffff160217905550600073ffffffffffffffffffffffffffffffffffffffff168573ffffffffffffffffffffffffffffffffffffffff16141515156100cb57600080fd5b8183111515156100da57600080fd5b84600160006101000a81548173ffffffffffffffffffffffffffffffffffffffff021916908373ffffffffffffffffffffffffffffffffffffffff16021790555080600560006101000a81548160ff0219169083151502179055508160048190555061015c838561017364010000000002610c27179091906401000000009004565b600281905550836003819055505050505050610191565b600080828401905083811015151561018757fe5b8091505092915050565b610d9a806101a06000396000f3006060604052600436106100c5576000357c0100000000000000000000000000000000000000000000000000000000900463ffffffff1680630fb5a6b4146100ca57806313d033c0146100f35780631726cbc81461011c5780631916558714610169578063384711cc146101a257806338af3eed146101ef57806374a8f10314610244578063872a78101461027d5780638da5cb5b146102aa5780639852595c146102ff578063be9a65551461034c578063f2fde38b14610375578063fa01dc06146103ae575b600080fd5b34156100d557600080fd5b6100dd6103ff565b6040518082815260200191505060405180910390f35b34156100fe57600080fd5b610106610405565b6040518082815260200191505060405180910390f35b341561012757600080fd5b610153600480803573ffffffffffffffffffffffffffffffffffffffff1690602001909190505061040b565b6040518082815260200191505060405180910390f35b341561017457600080fd5b6101a0600480803573ffffffffffffffffffffffffffffffffffffffff1690602001909190505061046e565b005b34156101ad57600080fd5b6101d9600480803573ffffffffffffffffffffffffffffffffffffffff169060200190919050506105a7565b6040518082815260200191505060405180910390f35b34156101fa57600080fd5b610202610793565b604051808273ffffffffffffffffffffffffffffffffffffffff1673ffffffffffffffffffffffffffffffffffffffff16815260200191505060405180910390f35b341561024f57600080fd5b61027b600480803573ffffffffffffffffffffffffffffffffffffffff169060200190919050506107b9565b005b341561028857600080fd5b610290610a43565b604051808215151515815260200191505060405180910390f35b34156102b557600080fd5b6102bd610a56565b604051808273ffffffffffffffffffffffffffffffffffffffff1673ffffffffffffffffffffffffffffffffffffffff16815260200191505060405180910390f35b341561030a57600080fd5b610336600480803573ffffffffffffffffffffffffffffffffffffffff16906020019091905050610a7b565b6040518082815260200191505060405180910390f35b341561035757600080fd5b61035f610a93565b6040518082815260200191505060405180910390f35b341561038057600080fd5b6103ac600480803573ffffffffffffffffffffffffffffffffffffffff16906020019091905050610a99565b005b34156103b957600080fd5b6103e5600480803573ffffffffffffffffffffffffffffffffffffffff16906020019091905050610bee565b604051808215151515815260200191505060405180910390f35b60045481565b60025481565b6000610467600660008473ffffffffffffffffffffffffffffffffffffffff1673ffffffffffffffffffffffffffffffffffffffff16815260200190815260200160002054610459846105a7565b610c0e90919063ffffffff16565b9050919050565b60006104798261040b565b905060008111151561048a57600080fd5b6104dc81600660008573ffffffffffffffffffffffffffffffffffffffff1673ffffffffffffffffffffffffffffffffffffffff16815260200190815260200160002054610c2790919063ffffffff16565b600660008473ffffffffffffffffffffffffffffffffffffffff1673ffffffffffffffffffffffffffffffffffffffff1681526020019081526020016000208190555061056c600160009054906101000a900473ffffffffffffffffffffffffffffffffffffffff16828473ffffffffffffffffffffffffffffffffffffffff16610c459092919063ffffffff16565b7ffb81f9b30d73d830c3544b34d827c08142579ee75710b490bab0b3995468c565816040518082815260200191505060405180910390a15050565b60008060008373ffffffffffffffffffffffffffffffffffffffff166370a08231306000604051602001526040518263ffffffff167c0100000000000000000000000000000000000000000000000000000000028152600401808273ffffffffffffffffffffffffffffffffffffffff1673ffffffffffffffffffffffffffffffffffffffff168152602001915050602060405180830381600087803b151561064f57600080fd5b6102c65a03f1151561066057600080fd5b5050506040518051905091506106be600660008673ffffffffffffffffffffffffffffffffffffffff1673ffffffffffffffffffffffffffffffffffffffff1681526020019081526020016000205483610c2790919063ffffffff16565b90506002544210156106d3576000925061078c565b6106ea600454600354610c2790919063ffffffff16565b421015806107415750600760008573ffffffffffffffffffffffffffffffffffffffff1673ffffffffffffffffffffffffffffffffffffffff16815260200190815260200160002060009054906101000a900460ff165b1561074e5780925061078c565b61078960045461077b61076c60035442610c0e90919063ffffffff16565b84610d1890919063ffffffff16565b610d5390919063ffffffff16565b92505b5050919050565b600160009054906101000a900473ffffffffffffffffffffffffffffffffffffffff1681565b60008060008060009054906101000a900473ffffffffffffffffffffffffffffffffffffffff1673ffffffffffffffffffffffffffffffffffffffff163373ffffffffffffffffffffffffffffffffffffffff1614151561081957600080fd5b600560009054906101000a900460ff16151561083457600080fd5b600760008573ffffffffffffffffffffffffffffffffffffffff1673ffffffffffffffffffffffffffffffffffffffff16815260200190815260200160002060009054906101000a900460ff1615151561088d57600080fd5b8373ffffffffffffffffffffffffffffffffffffffff166370a08231306000604051602001526040518263ffffffff167c0100000000000000000000000000000000000000000000000000000000028152600401808273ffffffffffffffffffffffffffffffffffffffff1673ffffffffffffffffffffffffffffffffffffffff168152602001915050602060405180830381600087803b151561093057600080fd5b6102c65a03f1151561094157600080fd5b5050506040518051905092506109568461040b565b915061096b8284610c0e90919063ffffffff16565b90506001600760008673ffffffffffffffffffffffffffffffffffffffff1673ffffffffffffffffffffffffffffffffffffffff16815260200190815260200160002060006101000a81548160ff021916908315150217905550610a116000809054906101000a900473ffffffffffffffffffffffffffffffffffffffff16828673ffffffffffffffffffffffffffffffffffffffff16610c459092919063ffffffff16565b7f44825a4b2df8acb19ce4e1afba9aa850c8b65cdb7942e2078f27d0b0960efee660405160405180910390a150505050565b600560009054906101000a900460ff1681565b6000809054906101000a900473ffffffffffffffffffffffffffffffffffffffff1681565b60066020528060005260406000206000915090505481565b60035481565b6000809054906101000a900473ffffffffffffffffffffffffffffffffffffffff1673ffffffffffffffffffffffffffffffffffffffff163373ffffffffffffffffffffffffffffffffffffffff16141515610af457600080fd5b600073ffffffffffffffffffffffffffffffffffffffff168173ffffffffffffffffffffffffffffffffffffffff1614151515610b3057600080fd5b8073ffffffffffffffffffffffffffffffffffffffff166000809054906101000a900473ffffffffffffffffffffffffffffffffffffffff1673ffffffffffffffffffffffffffffffffffffffff167f8be0079c531659141344cd1fd0a4f28419497f9722a3daafe3b4186f6b6457e060405160405180910390a3806000806101000a81548173ffffffffffffffffffffffffffffffffffffffff021916908373ffffffffffffffffffffffffffffffffffffffff16021790555050565b60076020528060005260406000206000915054906101000a900460ff1681565b6000828211151515610c1c57fe5b818303905092915050565b6000808284019050838110151515610c3b57fe5b8091505092915050565b8273ffffffffffffffffffffffffffffffffffffffff1663a9059cbb83836000604051602001526040518363ffffffff167c0100000000000000000000000000000000000000000000000000000000028152600401808373ffffffffffffffffffffffffffffffffffffffff1673ffffffffffffffffffffffffffffffffffffffff16815260200182815260200192505050602060405180830381600087803b1515610cf057600080fd5b6102c65a03f11515610d0157600080fd5b505050604051805190501515610d1357fe5b505050565b6000806000841415610d2d5760009150610d4c565b8284029050828482811515610d3e57fe5b04141515610d4857fe5b8091505b5092915050565b6000808284811515610d6157fe5b04905080915050929150505600a165627a7a72305820824339d180b17ed62727360f1f7d000e0806d05a1e5c2684e3d11d447ae2fd270029a165627a7a72305820cfbf969cf44c6cffffc581b11e56034d36e85e1852e78fa2321f14431bde87f500296060604052341561000f57600080fd5b604051602080610a7783398101604052808051906020019091905050336000806101000a81548173ffffffffffffffffffffffffffffffffffffffff021916908373ffffffffffffffffffffffffffffffffffffffff160217905550600073ffffffffffffffffffffffffffffffffffffffff168173ffffffffffffffffffffffffffffffffffffffff16141515156100a757600080fd5b80600260006101000a81548173ffffffffffffffffffffffffffffffffffffffff021916908373ffffffffffffffffffffffffffffffffffffffff1602179055506000600260146101000a81548160ff0219169083600281111561010757fe5b02179055505061095b8061011c6000396000f300606060405260043610610099576000357c0100000000000000000000000000000000000000000000000000000000900463ffffffff16806343d726d61461009e578063521eb273146100b35780638c52dc41146101085780638da5cb5b1461011d578063c19d93fb14610172578063cb13cddb146101a9578063f2fde38b146101f6578063f340fa011461022f578063fa89401a1461025d575b600080fd5b34156100a957600080fd5b6100b1610296565b005b34156100be57600080fd5b6100c66103ef565b604051808273ffffffffffffffffffffffffffffffffffffffff1673ffffffffffffffffffffffffffffffffffffffff16815260200191505060405180910390f35b341561011357600080fd5b61011b610415565b005b341561012857600080fd5b6101306104f6565b604051808273ffffffffffffffffffffffffffffffffffffffff1673ffffffffffffffffffffffffffffffffffffffff16815260200191505060405180910390f35b341561017d57600080fd5b61018561051b565b6040518082600281111561019557fe5b60ff16815260200191505060405180910390f35b34156101b457600080fd5b6101e0600480803573ffffffffffffffffffffffffffffffffffffffff1690602001909190505061052e565b6040518082815260200191505060405180910390f35b341561020157600080fd5b61022d600480803573ffffffffffffffffffffffffffffffffffffffff16906020019091905050610546565b005b61025b600480803573ffffffffffffffffffffffffffffffffffffffff1690602001909190505061069b565b005b341561026857600080fd5b610294600480803573ffffffffffffffffffffffffffffffffffffffff169060200190919050506107c2565b005b6000809054906101000a900473ffffffffffffffffffffffffffffffffffffffff1673ffffffffffffffffffffffffffffffffffffffff163373ffffffffffffffffffffffffffffffffffffffff161415156102f157600080fd5b600060028111156102fe57fe5b600260149054906101000a900460ff16600281111561031957fe5b14151561032557600080fd5b60028060146101000a81548160ff0219169083600281111561034357fe5b02179055507f1cdde67b72a90f19919ac732a437ac2f7a10fc128d28c2a6e525d89ce5cd9d3a60405160405180910390a1600260009054906101000a900473ffffffffffffffffffffffffffffffffffffffff1673ffffffffffffffffffffffffffffffffffffffff166108fc3073ffffffffffffffffffffffffffffffffffffffff16319081150290604051600060405180830381858888f1935050505015156103ed57600080fd5b565b600260009054906101000a900473ffffffffffffffffffffffffffffffffffffffff1681565b6000809054906101000a900473ffffffffffffffffffffffffffffffffffffffff1673ffffffffffffffffffffffffffffffffffffffff163373ffffffffffffffffffffffffffffffffffffffff1614151561047057600080fd5b6000600281111561047d57fe5b600260149054906101000a900460ff16600281111561049857fe5b1415156104a457600080fd5b6001600260146101000a81548160ff021916908360028111156104c357fe5b02179055507f599d8e5a83cffb867d051598c4d70e805d59802d8081c1c7d6dffc5b6aca2b8960405160405180910390a1565b6000809054906101000a900473ffffffffffffffffffffffffffffffffffffffff1681565b600260149054906101000a900460ff1681565b60016020528060005260406000206000915090505481565b6000809054906101000a900473ffffffffffffffffffffffffffffffffffffffff1673ffffffffffffffffffffffffffffffffffffffff163373ffffffffffffffffffffffffffffffffffffffff161415156105a157600080fd5b600073ffffffffffffffffffffffffffffffffffffffff168173ffffffffffffffffffffffffffffffffffffffff16141515156105dd57600080fd5b8073ffffffffffffffffffffffffffffffffffffffff166000809054906101000a900473ffffffffffffffffffffffffffffffffffffffff1673ffffffffffffffffffffffffffffffffffffffff167f8be0079c531659141344cd1fd0a4f28419497f9722a3daafe3b4186f6b6457e060405160405180910390a3806000806101000a81548173ffffffffffffffffffffffffffffffffffffffff021916908373ffffffffffffffffffffffffffffffffffffffff16021790555050565b6000809054906101000a900473ffffffffffffffffffffffffffffffffffffffff1673ffffffffffffffffffffffffffffffffffffffff163373ffffffffffffffffffffffffffffffffffffffff161415156106f657600080fd5b6000600281111561070357fe5b600260149054906101000a900460ff16600281111561071e57fe5b14151561072a57600080fd5b61077c34600160008473ffffffffffffffffffffffffffffffffffffffff1673ffffffffffffffffffffffffffffffffffffffff1681526020019081526020016000205461091190919063ffffffff16565b600160008373ffffffffffffffffffffffffffffffffffffffff1673ffffffffffffffffffffffffffffffffffffffff1681526020019081526020016000208190555050565b6000600160028111156107d157fe5b600260149054906101000a900460ff1660028111156107ec57fe5b1415156107f857600080fd5b600160008373ffffffffffffffffffffffffffffffffffffffff1673ffffffffffffffffffffffffffffffffffffffff1681526020019081526020016000205490506000600160008473ffffffffffffffffffffffffffffffffffffffff1673ffffffffffffffffffffffffffffffffffffffff168152602001908152602001600020819055508173ffffffffffffffffffffffffffffffffffffffff166108fc829081150290604051600060405180830381858888f1935050505015156108bf57600080fd5b8173ffffffffffffffffffffffffffffffffffffffff167fd7dee2702d63ad89917b6a4da9981c90c4d24f8c2bdfd64c604ecae57d8d0651826040518082815260200191505060405180910390a25050565b600080828401905083811015151561092557fe5b80915050929150505600a165627a7a72305820f273a90d5edba6098f58a3f197f2b46e89d8d1b8907d120d1b6d95f7e012f6e50029",
  "source": "pragma solidity ^0.4.13;\n\nimport \"zeppelin-solidity/contracts/crowdsale/Crowdsale.sol\";\nimport \"zeppelin-solidity/contracts/crowdsale/RefundableCrowdsale.sol\";\nimport \"./PrefundedCrowdsale.sol\";\nimport \"./PhasedUserCappedCrowdsale.sol\";\nimport \"./WhitelistedCrowdsale.sol\";\nimport \"../token/PropsToken.sol\";\n\n/**\n * @title PROPS Crowdsale\n * @dev Composition of UserCappedCrowdsale, PrefundedCrowdsale & RefundableCrowdsale\n * All the specs of the crowdsale are available in /specs/README.md\n *\n */\n\ncontract PropsCrowdsale is PhasedUserCappedCrowdsale, WhitelistedCrowdsale, PrefundedCrowdsale, RefundableCrowdsale {\n\n    /*  */\n    uint256 public constant shareOfTokensAvailable = 20;\n\n    /* Soft cap has been changed */\n    event SoftCapUpdate(uint256 cap);\n\n    /* Hard cap has been changed */\n    event HardCapUpdate(uint256 cap);\n\n    /* Hard cap has been changed */\n    event RateUpdate(uint256 rate);\n\n    function PropsCrowdsale(\n        uint256 _startTime,\n        uint256 _endTime,\n        uint256 _softCap,\n        uint256 _hardCap,\n        address _wallet,\n        address _token\n    ) public\n        WhitelistedCrowdsale()\n        PhasedUserCappedCrowdsale(_hardCap)\n        RefundableCrowdsale(_softCap)\n        Crowdsale(_startTime, _endTime, 1, _wallet)\n    {\n        token = PropsToken(_token);\n        updateRate(0);\n    }\n\n    function createTokenContract() internal returns (MintableToken) {\n        return MintableToken(0x0);\n    }\n\n    function updateCaps(uint _softCap, uint _hardCap, uint _volumeSoldUnderSAFT) onlyOwner public {\n        require(now < startTime);\n\n        setHardCap(_hardCap);\n        setSoftCap(_softCap);\n        updateRate(_volumeSoldUnderSAFT);\n    }\n\n    /**\n     * Ability to set a hard cap after deployment, and before the beginning of\n     * the crowdsale (SAFT support).\n     */\n    function setHardCap(uint _hardCap) internal {\n        require(_hardCap > 0);\n        cap = _hardCap;\n        HardCapUpdate(cap);\n    }\n\n    /**\n     * Ability to set a soft cap after deployment, and before the beginning of\n     * the crowdsale (SAFT support).\n     */\n    function setSoftCap(uint _softCap) internal {\n        require(_softCap > 0);\n        goal = _softCap;\n        SoftCapUpdate(goal);\n    }\n\n    /**\n     * Ability to set the rate after deployment before the beginning of\n     * the crowdsale.\n     */\n    function updateRate(uint _volumeSoldUnderSAFT) internal {\n        require(cap > 0);\n\n        uint totalSupply = PropsToken(token).amountOfTokenToMint();\n        uint volumeAvailable = totalSupply.mul(shareOfTokensAvailable).div(100);\n        uint volumeAvailableForCrowdsale = volumeAvailable.sub(_volumeSoldUnderSAFT);\n        rate = volumeAvailableForCrowdsale.div(cap);\n        RateUpdate(rate);\n    }\n\n    /**\n     * Finalizing the crowdsale implies\n     * - Evaluate the refunding clauses\n     * - Mint and Burn the un-minted tokens\n     * - Pass the ownership of the token back to the original owner.\n     */\n    function finalization() internal {\n        super.finalization();\n        if (super.goalReached()) {\n            token.finishMinting();\n            PropsToken(token).unpause();\n            token.transferOwnership(0x000000000000000000000000000000000000dead);\n        }\n    }\n\n    /**\n     * @dev overriding Crowdsale#buyPreallocatedTokens.\n     * Making sure that preallocated tokens are not outreaching the hardcap,\n     */\n    function buyPreallocatedTokens(address _beneficiary) internal {\n        require(weiRaised.add(msg.value) <= cap);\n        super.buyPreallocatedTokens(_beneficiary);\n    }\n\n    /**\n     * @dev Returns the cap for a given user\n     */\n    function currentCapForUser(address _user) internal constant returns (uint) {\n        uint totalInvestment = weiRaisedFromUser[_user];\n        return totalInvestment.add(this.participationAvailableForUser(_user));\n    }\n\n    /**\n     * @dev Returns the cap for a given user\n     */\n    function participationAvailableForUser(address _user) public constant returns (uint) {\n        uint capForUser = super.currentCapForUser(_user);\n        uint runningParticipation = weiRaisedFromUser[_user];\n        uint participationLeft = capForUser.sub(runningParticipation);\n        uint weiToRaise =  cap.sub(weiRaised);\n        if (participationLeft > weiToRaise) {\n            participationLeft = weiToRaise;\n        }\n        return participationLeft;\n    }\n\n}\n",
  "sourcePath": "/Users/ludovic/Coding/younow/cryptocurrency/props-tde/contracts/crowdsale/PropsCrowdsale.sol",
  "compiler": {
    "name": "solc",
    "version": "0.4.18+commit.9cf6e910.Emscripten.clang"
  },
  "schemaVersion": "1.0.1",
  "updatedAt": "2018-01-12T18:37:49.414Z"
}