{
  "contractName": "PropsRewards",
  "abi": [
    {
      "constant": true,
      "inputs": [],
      "name": "minter",
      "outputs": [
        {
          "name": "",
          "type": "address"
        }
      ],
      "payable": false,
      "stateMutability": "view",
      "type": "function"
    },
    {
      "constant": false,
      "inputs": [
        {
          "name": "spender",
          "type": "address"
        },
        {
          "name": "value",
          "type": "uint256"
        }
      ],
      "name": "approve",
      "outputs": [
        {
          "name": "",
          "type": "bool"
        }
      ],
      "payable": false,
      "stateMutability": "nonpayable",
      "type": "function"
    },
    {
      "constant": true,
      "inputs": [],
      "name": "totalSupply",
      "outputs": [
        {
          "name": "",
          "type": "uint256"
        }
      ],
      "payable": false,
      "stateMutability": "view",
      "type": "function"
    },
    {
      "constant": false,
      "inputs": [
        {
          "name": "from",
          "type": "address"
        },
        {
          "name": "to",
          "type": "address"
        },
        {
          "name": "value",
          "type": "uint256"
        }
      ],
      "name": "transferFrom",
      "outputs": [
        {
          "name": "",
          "type": "bool"
        }
      ],
      "payable": false,
      "stateMutability": "nonpayable",
      "type": "function"
    },
    {
      "constant": true,
      "inputs": [],
      "name": "maxTotalSupply",
      "outputs": [
        {
          "name": "",
          "type": "uint256"
        }
      ],
      "payable": false,
      "stateMutability": "view",
      "type": "function"
    },
    {
      "constant": true,
      "inputs": [],
      "name": "PERMIT_TYPEHASH",
      "outputs": [
        {
          "name": "",
          "type": "bytes32"
        }
      ],
      "payable": false,
      "stateMutability": "view",
      "type": "function"
    },
    {
      "constant": true,
      "inputs": [],
      "name": "DOMAIN_SEPARATOR",
      "outputs": [
        {
          "name": "",
          "type": "bytes32"
        }
      ],
      "payable": false,
      "stateMutability": "view",
      "type": "function"
    },
    {
      "constant": false,
      "inputs": [
        {
          "name": "spender",
          "type": "address"
        },
        {
          "name": "addedValue",
          "type": "uint256"
        }
      ],
      "name": "increaseAllowance",
      "outputs": [
        {
          "name": "",
          "type": "bool"
        }
      ],
      "payable": false,
      "stateMutability": "nonpayable",
      "type": "function"
    },
    {
      "constant": true,
      "inputs": [],
      "name": "rewardsStartTimestamp",
      "outputs": [
        {
          "name": "",
          "type": "uint256"
        }
      ],
      "payable": false,
      "stateMutability": "view",
      "type": "function"
    },
    {
      "constant": true,
      "inputs": [
        {
          "name": "owner",
          "type": "address"
        }
      ],
      "name": "balanceOf",
      "outputs": [
        {
          "name": "",
          "type": "uint256"
        }
      ],
      "payable": false,
      "stateMutability": "view",
      "type": "function"
    },
    {
      "constant": true,
      "inputs": [
        {
          "name": "",
          "type": "address"
        }
      ],
      "name": "nonces",
      "outputs": [
        {
          "name": "",
          "type": "uint256"
        }
      ],
      "payable": false,
      "stateMutability": "view",
      "type": "function"
    },
    {
      "constant": true,
      "inputs": [],
      "name": "MY_CHAIN_ID",
      "outputs": [
        {
          "name": "",
          "type": "uint256"
        }
      ],
      "payable": false,
      "stateMutability": "view",
      "type": "function"
    },
    {
      "constant": false,
      "inputs": [
        {
          "name": "spender",
          "type": "address"
        },
        {
          "name": "subtractedValue",
          "type": "uint256"
        }
      ],
      "name": "decreaseAllowance",
      "outputs": [
        {
          "name": "",
          "type": "bool"
        }
      ],
      "payable": false,
      "stateMutability": "nonpayable",
      "type": "function"
    },
    {
      "constant": false,
      "inputs": [
        {
          "name": "to",
          "type": "address"
        },
        {
          "name": "value",
          "type": "uint256"
        }
      ],
      "name": "transfer",
      "outputs": [
        {
          "name": "",
          "type": "bool"
        }
      ],
      "payable": false,
      "stateMutability": "nonpayable",
      "type": "function"
    },
    {
      "constant": true,
      "inputs": [
        {
          "name": "owner",
          "type": "address"
        },
        {
          "name": "spender",
          "type": "address"
        }
      ],
      "name": "allowance",
      "outputs": [
        {
          "name": "",
          "type": "uint256"
        }
      ],
      "payable": false,
      "stateMutability": "view",
      "type": "function"
    },
    {
      "constant": true,
      "inputs": [],
      "name": "controller",
      "outputs": [
        {
          "name": "",
          "type": "address"
        }
      ],
      "payable": false,
      "stateMutability": "view",
      "type": "function"
    },
    {
      "anonymous": false,
      "inputs": [
        {
          "indexed": true,
          "name": "rewardsDay",
          "type": "uint256"
        },
        {
          "indexed": true,
          "name": "rewardsHash",
          "type": "bytes32"
        },
        {
          "indexed": true,
          "name": "validator",
          "type": "address"
        }
      ],
      "name": "DailyRewardsSubmitted",
      "type": "event"
    },
    {
      "anonymous": false,
      "inputs": [
        {
          "indexed": true,
          "name": "rewardsDay",
          "type": "uint256"
        },
        {
          "indexed": true,
          "name": "rewardsHash",
          "type": "bytes32"
        },
        {
          "indexed": false,
          "name": "numOfApplications",
          "type": "uint256"
        },
        {
          "indexed": false,
          "name": "amount",
          "type": "uint256"
        }
      ],
      "name": "DailyRewardsApplicationsMinted",
      "type": "event"
    },
    {
      "anonymous": false,
      "inputs": [
        {
          "indexed": true,
          "name": "rewardsDay",
          "type": "uint256"
        },
        {
          "indexed": true,
          "name": "rewardsHash",
          "type": "bytes32"
        },
        {
          "indexed": false,
          "name": "numOfValidators",
          "type": "uint256"
        },
        {
          "indexed": false,
          "name": "amount",
          "type": "uint256"
        }
      ],
      "name": "DailyRewardsValidatorsMinted",
      "type": "event"
    },
    {
      "anonymous": false,
      "inputs": [
        {
          "indexed": true,
          "name": "id",
          "type": "address"
        },
        {
          "indexed": true,
          "name": "entityType",
          "type": "uint8"
        },
        {
          "indexed": false,
          "name": "name",
          "type": "bytes32"
        },
        {
          "indexed": false,
          "name": "rewardsAddress",
          "type": "address"
        },
        {
          "indexed": true,
          "name": "sidechainAddress",
          "type": "address"
        }
      ],
      "name": "EntityUpdated",
      "type": "event"
    },
    {
      "anonymous": false,
      "inputs": [
        {
          "indexed": false,
          "name": "param",
          "type": "uint8"
        },
        {
          "indexed": false,
          "name": "newValue",
          "type": "uint256"
        },
        {
          "indexed": false,
          "name": "oldValue",
          "type": "uint256"
        },
        {
          "indexed": false,
          "name": "rewardsDay",
          "type": "uint256"
        }
      ],
      "name": "ParameterUpdated",
      "type": "event"
    },
    {
      "anonymous": false,
      "inputs": [
        {
          "indexed": false,
          "name": "validatorsList",
          "type": "address[]"
        },
        {
          "indexed": true,
          "name": "rewardsDay",
          "type": "uint256"
        }
      ],
      "name": "ValidatorsListUpdated",
      "type": "event"
    },
    {
      "anonymous": false,
      "inputs": [
        {
          "indexed": false,
          "name": "applicationsList",
          "type": "address[]"
        },
        {
          "indexed": true,
          "name": "rewardsDay",
          "type": "uint256"
        }
      ],
      "name": "ApplicationsListUpdated",
      "type": "event"
    },
    {
      "anonymous": false,
      "inputs": [
        {
          "indexed": true,
          "name": "newController",
          "type": "address"
        }
      ],
      "name": "ControllerUpdated",
      "type": "event"
    },
    {
      "anonymous": false,
      "inputs": [
        {
          "indexed": true,
          "name": "applicationId",
          "type": "address"
        },
        {
          "indexed": true,
          "name": "userId",
          "type": "bytes32"
        },
        {
          "indexed": true,
          "name": "to",
          "type": "address"
        },
        {
          "indexed": false,
          "name": "amount",
          "type": "uint256"
        },
        {
          "indexed": false,
          "name": "rewardsAddress",
          "type": "address"
        }
      ],
      "name": "Settlement",
      "type": "event"
    },
    {
      "anonymous": false,
      "inputs": [
        {
          "indexed": true,
          "name": "from",
          "type": "address"
        },
        {
          "indexed": true,
          "name": "to",
          "type": "address"
        },
        {
          "indexed": false,
          "name": "value",
          "type": "uint256"
        }
      ],
      "name": "Transfer",
      "type": "event"
    },
    {
      "anonymous": false,
      "inputs": [
        {
          "indexed": true,
          "name": "owner",
          "type": "address"
        },
        {
          "indexed": true,
          "name": "spender",
          "type": "address"
        },
        {
          "indexed": false,
          "name": "value",
          "type": "uint256"
        }
      ],
      "name": "Approval",
      "type": "event"
    },
    {
      "constant": false,
      "inputs": [
        {
          "name": "_controller",
          "type": "address"
        }
      ],
      "name": "initializePostRewardsUpgrade1",
      "outputs": [],
      "payable": false,
      "stateMutability": "nonpayable",
      "type": "function"
    },
    {
      "constant": false,
      "inputs": [
        {
          "name": "_tokenName",
          "type": "string"
        },
        {
          "name": "_minter",
          "type": "address"
        }
      ],
      "name": "initializePermitUpgrade",
      "outputs": [],
      "payable": false,
      "stateMutability": "nonpayable",
      "type": "function"
    },
    {
      "constant": false,
      "inputs": [
        {
          "name": "_owner",
          "type": "address"
        },
        {
          "name": "_spender",
          "type": "address"
        },
        {
          "name": "_amount",
          "type": "uint256"
        },
        {
          "name": "_deadline",
          "type": "uint256"
        },
        {
          "name": "_v",
          "type": "uint8"
        },
        {
          "name": "_r",
          "type": "bytes32"
        },
        {
          "name": "_s",
          "type": "bytes32"
        }
      ],
      "name": "permit",
      "outputs": [],
      "payable": false,
      "stateMutability": "nonpayable",
      "type": "function"
    },
    {
      "constant": false,
      "inputs": [
        {
          "name": "_token",
          "type": "address"
        },
        {
          "name": "_to",
          "type": "address"
        },
        {
          "name": "_amount",
          "type": "uint256"
        }
      ],
      "name": "reclaimToken",
      "outputs": [],
      "payable": false,
      "stateMutability": "nonpayable",
      "type": "function"
    },
    {
      "constant": false,
      "inputs": [
        {
          "name": "_controller",
          "type": "address"
        }
      ],
      "name": "updateController",
      "outputs": [],
      "payable": false,
      "stateMutability": "nonpayable",
      "type": "function"
    },
    {
      "constant": false,
      "inputs": [
        {
          "name": "_minter",
          "type": "address"
        }
      ],
      "name": "updateMinter",
      "outputs": [],
      "payable": false,
      "stateMutability": "nonpayable",
      "type": "function"
    },
    {
      "constant": false,
      "inputs": [
        {
          "name": "_account",
          "type": "address"
        },
        {
          "name": "_amount",
          "type": "uint256"
        }
      ],
      "name": "mint",
      "outputs": [],
      "payable": false,
      "stateMutability": "nonpayable",
      "type": "function"
    },
    {
      "constant": false,
      "inputs": [
        {
          "name": "_applicationAddress",
          "type": "address"
        },
        {
          "name": "_userId",
          "type": "bytes32"
        },
        {
          "name": "_to",
          "type": "address"
        },
        {
          "name": "_amount",
          "type": "uint256"
        }
      ],
      "name": "settle",
      "outputs": [],
      "payable": false,
      "stateMutability": "nonpayable",
      "type": "function"
    }
  ],
  "bytecode": "0x608060405234801561001057600080fd5b506124df806100206000396000f30060806040526004361061013e576000357c0100000000000000000000000000000000000000000000000000000000900463ffffffff16806306cb5b66146101435780630754617214610186578063095ea7b3146101dd57806318160ddd1461024257806323b872dd1461026d5780632ab4d052146102f257806330adf81f1461031d578063353fb37b146103505780633644e5151461039357806339509351146103c657806340c10f191461042b5780634eb03f6e1461047857806363568502146104bb57806370a08231146104e65780637ecebe001461053d5780639e3d41a814610594578063a457c2d7146105bf578063a9059cbb14610624578063c7ed71a514610689578063cd61677614610704578063d505accf14610771578063dd62ed3e14610811578063ec5ec7f814610888578063f77c479114610911575b600080fd5b34801561014f57600080fd5b50610184600480360381019080803573ffffffffffffffffffffffffffffffffffffffff169060200190929190505050610968565b005b34801561019257600080fd5b5061019b610b7f565b604051808273ffffffffffffffffffffffffffffffffffffffff1673ffffffffffffffffffffffffffffffffffffffff16815260200191505060405180910390f35b3480156101e957600080fd5b50610228600480360381019080803573ffffffffffffffffffffffffffffffffffffffff16906020019092919080359060200190929190505050610ba5565b604051808215151515815260200191505060405180910390f35b34801561024e57600080fd5b50610257610bbc565b6040518082815260200191505060405180910390f35b34801561027957600080fd5b506102d8600480360381019080803573ffffffffffffffffffffffffffffffffffffffff169060200190929190803573ffffffffffffffffffffffffffffffffffffffff16906020019092919080359060200190929190505050610bc6565b604051808215151515815260200191505060405180910390f35b3480156102fe57600080fd5b50610307610c77565b6040518082815260200191505060405180910390f35b34801561032957600080fd5b50610332610c7d565b60405180826000191660001916815260200191505060405180910390f35b34801561035c57600080fd5b50610391600480360381019080803573ffffffffffffffffffffffffffffffffffffffff169060200190929190505050610ca4565b005b34801561039f57600080fd5b506103a8610cb8565b60405180826000191660001916815260200191505060405180910390f35b3480156103d257600080fd5b50610411600480360381019080803573ffffffffffffffffffffffffffffffffffffffff16906020019092919080359060200190929190505050610cbe565b604051808215151515815260200191505060405180910390f35b34801561043757600080fd5b50610476600480360381019080803573ffffffffffffffffffffffffffffffffffffffff16906020019092919080359060200190929190505050610d63565b005b34801561048457600080fd5b506104b9600480360381019080803573ffffffffffffffffffffffffffffffffffffffff169060200190929190505050610dc9565b005b3480156104c757600080fd5b506104d0610ed2565b6040518082815260200191505060405180910390f35b3480156104f257600080fd5b50610527600480360381019080803573ffffffffffffffffffffffffffffffffffffffff169060200190929190505050610ed8565b6040518082815260200191505060405180910390f35b34801561054957600080fd5b5061057e600480360381019080803573ffffffffffffffffffffffffffffffffffffffff169060200190929190505050610f21565b6040518082815260200191505060405180910390f35b3480156105a057600080fd5b506105a9610f39565b6040518082815260200191505060405180910390f35b3480156105cb57600080fd5b5061060a600480360381019080803573ffffffffffffffffffffffffffffffffffffffff16906020019092919080359060200190929190505050610f3f565b604051808215151515815260200191505060405180910390f35b34801561063057600080fd5b5061066f600480360381019080803573ffffffffffffffffffffffffffffffffffffffff16906020019092919080359060200190929190505050610fe4565b604051808215151515815260200191505060405180910390f35b34801561069557600080fd5b50610702600480360381019080803573ffffffffffffffffffffffffffffffffffffffff1690602001909291908035600019169060200190929190803573ffffffffffffffffffffffffffffffffffffffff16906020019092919080359060200190929190505050610ffb565b005b34801561071057600080fd5b5061076f600480360381019080803573ffffffffffffffffffffffffffffffffffffffff169060200190929190803573ffffffffffffffffffffffffffffffffffffffff169060200190929190803590602001909291905050506111d8565b005b34801561077d57600080fd5b5061080f600480360381019080803573ffffffffffffffffffffffffffffffffffffffff169060200190929190803573ffffffffffffffffffffffffffffffffffffffff1690602001909291908035906020019092919080359060200190929190803560ff169060200190929190803560001916906020019092919080356000191690602001909291905050506114eb565b005b34801561081d57600080fd5b50610872600480360381019080803573ffffffffffffffffffffffffffffffffffffffff169060200190929190803573ffffffffffffffffffffffffffffffffffffffff16906020019092919050505061191a565b6040518082815260200191505060405180910390f35b34801561089457600080fd5b5061090f600480360381019080803590602001908201803590602001908080601f0160208091040260200160405190810160405280939291908181526020018383808284378201915050505050509192919290803573ffffffffffffffffffffffffffffffffffffffff1690602001909291905050506119a1565b005b34801561091d57600080fd5b50610926611d96565b604051808273ffffffffffffffffffffffffffffffffffffffff1673ffffffffffffffffffffffffffffffffffffffff16815260200191505060405180910390f35b608260009054906101000a900473ffffffffffffffffffffffffffffffffffffffff1673ffffffffffffffffffffffffffffffffffffffff163373ffffffffffffffffffffffffffffffffffffffff16141515610a2d576040517f08c379a00000000000000000000000000000000000000000000000000000000081526004018080602001828103825260168152602001807f4d7573742062652074686520636f6e74726f6c6c65720000000000000000000081525060200191505060405180910390fd5b600073ffffffffffffffffffffffffffffffffffffffff168173ffffffffffffffffffffffffffffffffffffffff1614151515610af8576040517f08c379a00000000000000000000000000000000000000000000000000000000081526004018080602001828103825260258152602001807f436f6e74726f6c6c65722063616e6e6f7420626520746865207a65726f20616481526020017f647265737300000000000000000000000000000000000000000000000000000081525060400191505060405180910390fd5b80608260006101000a81548173ffffffffffffffffffffffffffffffffffffffff021916908373ffffffffffffffffffffffffffffffffffffffff1602179055508073ffffffffffffffffffffffffffffffffffffffff167f1304018cfe79741dcf02ba6b61d39cc4757d59395d03224d9925c7aa8300214660405160405180910390a250565b608360009054906101000a900473ffffffffffffffffffffffffffffffffffffffff1681565b6000610bb2338484611dbc565b6001905092915050565b6000603554905090565b6000610bd3848484611f1f565b610c6c8433610c6785603460008a73ffffffffffffffffffffffffffffffffffffffff1673ffffffffffffffffffffffffffffffffffffffff16815260200190815260200160002060003373ffffffffffffffffffffffffffffffffffffffff1673ffffffffffffffffffffffffffffffffffffffff1681526020019081526020016000205461213d90919063ffffffff16565b611dbc565b600190509392505050565b60805481565b7f6e71edae12b1b97f4d1f60370fef10105fa2faae0126114a169c64845d6126c960010281565b600060129050610cb4828261215e565b5050565b60845481565b6000610d593384610d5485603460003373ffffffffffffffffffffffffffffffffffffffff1673ffffffffffffffffffffffffffffffffffffffff16815260200190815260200160002060008973ffffffffffffffffffffffffffffffffffffffff1673ffffffffffffffffffffffffffffffffffffffff1681526020019081526020016000205461225390919063ffffffff16565b611dbc565b6001905092915050565b608360009054906101000a900473ffffffffffffffffffffffffffffffffffffffff1673ffffffffffffffffffffffffffffffffffffffff163373ffffffffffffffffffffffffffffffffffffffff16141515610dc557610dc48282612274565b5b5050565b608260009054906101000a900473ffffffffffffffffffffffffffffffffffffffff1673ffffffffffffffffffffffffffffffffffffffff163373ffffffffffffffffffffffffffffffffffffffff16141515610e8e576040517f08c379a00000000000000000000000000000000000000000000000000000000081526004018080602001828103825260168152602001807f4d7573742062652074686520636f6e74726f6c6c65720000000000000000000081525060200191505060405180910390fd5b80608360006101000a81548173ffffffffffffffffffffffffffffffffffffffff021916908373ffffffffffffffffffffffffffffffffffffffff16021790555050565b60815481565b6000603360008373ffffffffffffffffffffffffffffffffffffffff1673ffffffffffffffffffffffffffffffffffffffff168152602001908152602001600020549050919050565b60856020528060005260406000206000915090505481565b60865481565b6000610fda3384610fd585603460003373ffffffffffffffffffffffffffffffffffffffff1673ffffffffffffffffffffffffffffffffffffffff16815260200190815260200160002060008973ffffffffffffffffffffffffffffffffffffffff1673ffffffffffffffffffffffffffffffffffffffff1681526020019081526020016000205461213d90919063ffffffff16565b611dbc565b6001905092915050565b6000610ff1338484611f1f565b6001905092915050565b3373ffffffffffffffffffffffffffffffffffffffff16606860000160008673ffffffffffffffffffffffffffffffffffffffff1673ffffffffffffffffffffffffffffffffffffffff16815260200190815260200160002060010160009054906101000a900473ffffffffffffffffffffffffffffffffffffffff1673ffffffffffffffffffffffffffffffffffffffff16141515611129576040517f08c379a000000000000000000000000000000000000000000000000000000000815260040180806020018281038252602b8152602001807f736574746c65206d6179206f6e6c792062652063616c6c656420627920616e2081526020017f6170706c69636174696f6e00000000000000000000000000000000000000000081525060400191505060405180910390fd5b611134338383611f1f565b8173ffffffffffffffffffffffffffffffffffffffff1683600019168573ffffffffffffffffffffffffffffffffffffffff167f53b5073ff19aef23b167e83c6be14817da210375bec35b4c0ccfc0cded9a23f88433604051808381526020018273ffffffffffffffffffffffffffffffffffffffff1673ffffffffffffffffffffffffffffffffffffffff1681526020019250505060405180910390a450505050565b6000608260009054906101000a900473ffffffffffffffffffffffffffffffffffffffff1673ffffffffffffffffffffffffffffffffffffffff163373ffffffffffffffffffffffffffffffffffffffff1614151561129f576040517f08c379a00000000000000000000000000000000000000000000000000000000081526004018080602001828103825260168152602001807f4d7573742062652074686520636f6e74726f6c6c65720000000000000000000081525060200191505060405180910390fd5b600073ffffffffffffffffffffffffffffffffffffffff168373ffffffffffffffffffffffffffffffffffffffff1614151515611344576040517f08c379a000000000000000000000000000000000000000000000000000000000815260040180806020018281038252601a8152602001807f4d757374207472616e7366657220746f20726563697069656e7400000000000081525060200191505060405180910390fd5b8373ffffffffffffffffffffffffffffffffffffffff166370a08231306040518263ffffffff167c0100000000000000000000000000000000000000000000000000000000028152600401808273ffffffffffffffffffffffffffffffffffffffff1673ffffffffffffffffffffffffffffffffffffffff168152602001915050602060405180830381600087803b1580156113df57600080fd5b505af11580156113f3573d6000803e3d6000fd5b505050506040513d602081101561140957600080fd5b810190808051906020019092919050505090508082111515156114ba576040517f08c379a00000000000000000000000000000000000000000000000000000000081526004018080602001828103825260218152602001807f43616e6e6f74207472616e73666572206d6f7265207468616e2062616c616e6381526020017f650000000000000000000000000000000000000000000000000000000000000081525060400191505060405180910390fd5b6114e583838673ffffffffffffffffffffffffffffffffffffffff166123b49092919063ffffffff16565b50505050565b600080428610151515611566576040517f08c379a000000000000000000000000000000000000000000000000000000000815260040180806020018281038252600e8152602001807f5065726d6974204578706972656400000000000000000000000000000000000081525060200191505060405180910390fd5b6084547f6e71edae12b1b97f4d1f60370fef10105fa2faae0126114a169c64845d6126c96001028a8a8a608560008f73ffffffffffffffffffffffffffffffffffffffff1673ffffffffffffffffffffffffffffffffffffffff1681526020019081526020016000206000815480929190600101919050558b6040516020018087600019166000191681526020018673ffffffffffffffffffffffffffffffffffffffff1673ffffffffffffffffffffffffffffffffffffffff1681526020018573ffffffffffffffffffffffffffffffffffffffff1673ffffffffffffffffffffffffffffffffffffffff16815260200184815260200183815260200182815260200196505050505050506040516020818303038152906040526040518082805190602001908083835b6020831015156116b65780518252602082019150602081019050602083039250611691565b6001836020036101000a038019825116818451168082178552505050505050905001915050604051809103902060405160200180807f190100000000000000000000000000000000000000000000000000000000000081525060020183600019166000191681526020018260001916600019168152602001925050506040516020818303038152906040526040518082805190602001908083835b6020831015156117765780518252602082019150602081019050602083039250611751565b6001836020036101000a03801982511681845116808217855250505050505090500191505060405180910390209150600182868686604051600081526020016040526040518085600019166000191681526020018460ff1660ff1681526020018360001916600019168152602001826000191660001916815260200194505050505060206040516020810390808403906000865af115801561181c573d6000803e3d6000fd5b505050602060405103519050600073ffffffffffffffffffffffffffffffffffffffff168173ffffffffffffffffffffffffffffffffffffffff161415801561189057508873ffffffffffffffffffffffffffffffffffffffff168173ffffffffffffffffffffffffffffffffffffffff16145b1515611904576040517f08c379a00000000000000000000000000000000000000000000000000000000081526004018080602001828103825260118152602001807f496e76616c6964205369676e617475726500000000000000000000000000000081525060200191505060405180910390fd5b61190f898989611dbc565b505050505050505050565b6000603460008473ffffffffffffffffffffffffffffffffffffffff1673ffffffffffffffffffffffffffffffffffffffff16815260200190815260200160002060008373ffffffffffffffffffffffffffffffffffffffff1673ffffffffffffffffffffffffffffffffffffffff16815260200190815260200160002054905092915050565b6000606060008060019054906101000a900460ff16806119c557506119c46124a2565b5b806119dc57506000809054906101000a900460ff16155b1515611a76576040517f08c379a000000000000000000000000000000000000000000000000000000000815260040180806020018281038252602e8152602001807f436f6e747261637420696e7374616e63652068617320616c726561647920626581526020017f656e20696e697469616c697a656400000000000000000000000000000000000081525060400191505060405180910390fd5b600060019054906101000a900460ff1690506001600060016101000a81548160ff02191690831515021790555060016000806101000a81548160ff02191690831515021790555083608360006101000a81548173ffffffffffffffffffffffffffffffffffffffff021916908373ffffffffffffffffffffffffffffffffffffffff1602179055506040805190810160405280600181526020017f310000000000000000000000000000000000000000000000000000000000000081525091508292508260868190555060405180807f454950373132446f6d61696e28737472696e67206e616d652c737472696e672081526020017f76657273696f6e2c75696e7432353620636861696e49642c616464726573732081526020017f766572696679696e67436f6e747261637429000000000000000000000000000081525060520190506040518091039020856040518082805190602001908083835b602083101515611bf85780518252602082019150602081019050602083039250611bd3565b6001836020036101000a0380198251168184511680821785525050505050509050019150506040518091039020836040518082805190602001908083835b602083101515611c5b5780518252602082019150602081019050602083039250611c36565b6001836020036101000a03801982511681845116808217855250505050505090500191505060405180910390208530604051602001808660001916600019168152602001856000191660001916815260200184600019166000191681526020018381526020018273ffffffffffffffffffffffffffffffffffffffff1673ffffffffffffffffffffffffffffffffffffffff168152602001955050505050506040516020818303038152906040526040518082805190602001908083835b602083101515611d3e5780518252602082019150602081019050602083039250611d19565b6001836020036101000a03801982511681845116808217855250505050505090500191505060405180910390206084816000191690555080600060016101000a81548160ff0219169083151502179055505050505050565b608260009054906101000a900473ffffffffffffffffffffffffffffffffffffffff1681565b600073ffffffffffffffffffffffffffffffffffffffff168273ffffffffffffffffffffffffffffffffffffffff1614151515611df857600080fd5b600073ffffffffffffffffffffffffffffffffffffffff168373ffffffffffffffffffffffffffffffffffffffff1614151515611e3457600080fd5b80603460008573ffffffffffffffffffffffffffffffffffffffff1673ffffffffffffffffffffffffffffffffffffffff16815260200190815260200160002060008473ffffffffffffffffffffffffffffffffffffffff1673ffffffffffffffffffffffffffffffffffffffff168152602001908152602001600020819055508173ffffffffffffffffffffffffffffffffffffffff168373ffffffffffffffffffffffffffffffffffffffff167f8c5be1e5ebec7d5bd14f71427d1e84f3dd0314c0f7b2291e5b200ac8c7c3b925836040518082815260200191505060405180910390a3505050565b603360008473ffffffffffffffffffffffffffffffffffffffff1673ffffffffffffffffffffffffffffffffffffffff168152602001908152602001600020548111151515611f6d57600080fd5b600073ffffffffffffffffffffffffffffffffffffffff168273ffffffffffffffffffffffffffffffffffffffff1614151515611fa957600080fd5b611ffb81603360008673ffffffffffffffffffffffffffffffffffffffff1673ffffffffffffffffffffffffffffffffffffffff1681526020019081526020016000205461213d90919063ffffffff16565b603360008573ffffffffffffffffffffffffffffffffffffffff1673ffffffffffffffffffffffffffffffffffffffff1681526020019081526020016000208190555061209081603360008573ffffffffffffffffffffffffffffffffffffffff1673ffffffffffffffffffffffffffffffffffffffff1681526020019081526020016000205461225390919063ffffffff16565b603360008473ffffffffffffffffffffffffffffffffffffffff1673ffffffffffffffffffffffffffffffffffffffff168152602001908152602001600020819055508173ffffffffffffffffffffffffffffffffffffffff168373ffffffffffffffffffffffffffffffffffffffff167fddf252ad1be2c89b69c2b068fc378daa952ba7f163c4a11628f55a4df523b3ef836040518082815260200191505060405180910390a3505050565b60008083831115151561214f57600080fd5b82840390508091505092915050565b60006080541415156121fe576040517f08c379a00000000000000000000000000000000000000000000000000000000081526004018080602001828103825260308152602001807f496e697469616c697a6520726577617264732075706772616465312063616e2081526020017f68617070656e206f6e6c79206f6e63650000000000000000000000000000000081525060400191505060405180910390fd5b81608260006101000a81548173ffffffffffffffffffffffffffffffffffffffff021916908373ffffffffffffffffffffffffffffffffffffffff16021790555080600a0a633b9aca00026080819055505050565b600080828401905083811015151561226a57600080fd5b8091505092915050565b60008273ffffffffffffffffffffffffffffffffffffffff161415151561229a57600080fd5b6122af8160355461225390919063ffffffff16565b60358190555061230781603360008573ffffffffffffffffffffffffffffffffffffffff1673ffffffffffffffffffffffffffffffffffffffff1681526020019081526020016000205461225390919063ffffffff16565b603360008473ffffffffffffffffffffffffffffffffffffffff1673ffffffffffffffffffffffffffffffffffffffff168152602001908152602001600020819055508173ffffffffffffffffffffffffffffffffffffffff16600073ffffffffffffffffffffffffffffffffffffffff167fddf252ad1be2c89b69c2b068fc378daa952ba7f163c4a11628f55a4df523b3ef836040518082815260200191505060405180910390a35050565b8273ffffffffffffffffffffffffffffffffffffffff1663a9059cbb83836040518363ffffffff167c0100000000000000000000000000000000000000000000000000000000028152600401808373ffffffffffffffffffffffffffffffffffffffff1673ffffffffffffffffffffffffffffffffffffffff16815260200182815260200192505050602060405180830381600087803b15801561245757600080fd5b505af115801561246b573d6000803e3d6000fd5b505050506040513d602081101561248157600080fd5b8101908080519060200190929190505050151561249d57600080fd5b505050565b600080303b905060008114915050905600a165627a7a72305820076d53ba2bddf87b005075d3c28b3384219e977fc2ebdc5f0fb048d8d4ff12bc0029",
  "source": "pragma solidity ^0.4.24;\n\nimport \"zos-lib/contracts/Initializable.sol\";\nimport \"openzeppelin-eth/contracts/math/SafeMath.sol\";\nimport \"openzeppelin-eth/contracts/token/ERC20/ERC20.sol\";\nimport \"openzeppelin-eth/contracts/token/ERC20/SafeERC20.sol\";\nimport { PropsRewardsLib } from \"./PropsRewardsLib.sol\";\n\n/**\n * @title Props Rewards\n * @dev Contract allows to set approved apps and validators. Submit and mint rewards...\n **/\ncontract PropsRewards is Initializable, ERC20 {\n    using SafeMath for uint256;\n    using SafeERC20 for ERC20;\n    /*\n    *  Events\n    */\n    event DailyRewardsSubmitted(\n        uint256 indexed rewardsDay,\n        bytes32 indexed rewardsHash,\n        address indexed validator\n    );\n\n    event DailyRewardsApplicationsMinted(\n        uint256 indexed rewardsDay,\n        bytes32 indexed rewardsHash,\n        uint256 numOfApplications,\n        uint256 amount\n    );\n\n    event DailyRewardsValidatorsMinted(\n        uint256 indexed rewardsDay,\n        bytes32 indexed rewardsHash,\n        uint256 numOfValidators,\n        uint256 amount\n    );\n\n    event EntityUpdated(\n        address indexed id,\n        PropsRewardsLib.RewardedEntityType indexed entityType,\n        bytes32 name,\n        address rewardsAddress,\n        address indexed sidechainAddress\n    );\n\n    event ParameterUpdated(\n        PropsRewardsLib.ParameterName param,\n        uint256 newValue,\n        uint256 oldValue,\n        uint256 rewardsDay\n    );\n\n    event ValidatorsListUpdated(\n        address[] validatorsList,\n        uint256 indexed rewardsDay\n    );\n\n    event ApplicationsListUpdated(\n        address[] applicationsList,\n        uint256 indexed rewardsDay\n    );\n\n    event ControllerUpdated(address indexed newController);\n\n    event Settlement(\n        address indexed applicationId,\n        bytes32 indexed userId,\n        address indexed to,\n        uint256 amount,\n        address rewardsAddress\n    );\n    /*\n    *  Storage\n    */\n\n    PropsRewardsLib.Data internal rewardsLibData;\n    uint256 public maxTotalSupply;\n    uint256 public rewardsStartTimestamp;\n    address public controller; // controller entity\n    address public minter; // minter entity e.g. props rewards contract\n\n    bytes32 public DOMAIN_SEPARATOR;\n    // keccak256(\"Permit(address owner,address spender,uint256 value,uint256 nonce,uint256 deadline)\");\n    bytes32 public constant PERMIT_TYPEHASH = 0x6e71edae12b1b97f4d1f60370fef10105fa2faae0126114a169c64845d6126c9;\n    mapping(address => uint) public nonces;\n    uint256 public MY_CHAIN_ID;\n\n    /*\n    *  Modifiers\n    */\n    modifier onlyController() {\n        require(\n            msg.sender == controller,\n            \"Must be the controller\"\n        );\n        _;\n    }\n\n    /**\n    * @dev The initializer function for upgrade as initialize was already called, get the decimals used in the token to initialize the params\n    * @param _controller address that will have controller functionality on rewards protocol    \n    */\n    function initializePostRewardsUpgrade1(\n        address _controller        \n    )\n        public\n    {\n        uint256 decimals = 18;\n        _initializePostRewardsUpgrade1(_controller, decimals);\n    }\n\n    /**\n    * @dev Initialize post separation of rewards contract upgrade\n    * @param _tokenName string token name\n    * @param _minter address minter address\n    */\n    function initializePermitUpgrade(string memory _tokenName, address _minter)\n        public\n        initializer\n    {\n        minter = _minter;\n        uint chainId;\n        string memory one = '1';\n        assembly {\n            chainId := chainId\n        }\n\n        MY_CHAIN_ID = chainId;\n        DOMAIN_SEPARATOR = keccak256(\n            abi.encode(\n                keccak256('EIP712Domain(string name,string version,uint256 chainId,address verifyingContract)'),\n                keccak256(bytes(_tokenName)),\n                keccak256(bytes(one)),\n                chainId,\n                address(this)\n            )\n        );\n    }\n\n    /**\n    * @dev Allows for approvals to be made via secp256k1 signatures\n    * @param _owner address owner\n    * @param _spender address spender\n    * @param _amount uint spender\n    * @param _deadline uint spender\n    * @param _v uint8 spender\n    * @param _r bytes32 spender\n    * @param _s bytes32 spender\n    */\n    function permit(\n            address _owner,\n            address _spender,\n            uint256 _amount,\n            uint _deadline,\n            uint8 _v,\n            bytes32 _r,\n            bytes32 _s\n        )\n        external\n    {\n        require(_deadline >= block.timestamp, \"Permit Expired\");\n        bytes32 digest = keccak256(\n            abi.encodePacked(\n                '\\x19\\x01',\n                DOMAIN_SEPARATOR,\n                keccak256(abi.encode(PERMIT_TYPEHASH, _owner, _spender, _amount, nonces[_owner]++, _deadline))\n            )\n        );\n        address recoveredAddress = ecrecover(digest, _v, _r, _s);\n        require(recoveredAddress != address(0) && recoveredAddress == _owner, \"Invalid Signature\");\n        _approve(_owner, _spender, _amount);\n    }\n\n    \n    \n    /**\n    * @dev Reclaim all ERC20 compatible tokens\n    * @param _token ERC20 The address of the token contract    \n    */\n    function reclaimToken(ERC20 _token, address _to, uint256 _amount) \n        external \n        onlyController \n    {\n        require(_to != address(0), \"Must transfer to recipient\");\n        uint256 balance = _token.balanceOf(this);\n        require(_amount <= balance, \"Cannot transfer more than balance\");\n        _token.safeTransfer(_to, _amount);\n    }\n\n\n    /**\n    * @dev Allows the controller/owner to update to a new controller\n    * @param _controller address address of the new controller\n    */\n    function updateController(\n        address _controller\n    )\n        public\n        onlyController\n    {\n        require(_controller != address(0), \"Controller cannot be the zero address\");\n        controller = _controller;\n        emit ControllerUpdated\n        (\n            _controller\n        );\n    }\n\n    /**\n    * @dev Allows the controller/owner to update to new minter\n    * @param _minter address address of the new minter\n    */\n    function updateMinter(\n        address _minter\n    )\n        public\n        onlyController\n    {        \n        minter = _minter;\n    }\n\n    /**\n    * @dev Allows the minter to mint tokens to a given address\n    * @param _account address of the receiving account\n    * @param _amount uint256 how much to mint    \n    */\n    function mint(        \n        address _account,\n        uint256 _amount\n    )\n        public        \n    {\n        if (msg.sender != minter) {\n            _mint(_account, _amount);\n        }        \n    }\n\n    /**\n    * @dev Allows an application to settle sidechain props. Should be called from an application rewards address\n    * @param _applicationAddress address the application main address (used to setup the application)\n    * @param _userId bytes32 identification of the user on the sidechain that was settled\n    * @param _to address where to send the props to\n    * @param _amount uint256 the address used for using the sidechain\n    */\n    function settle(\n        address _applicationAddress,\n        bytes32 _userId,\n        address _to,\n        uint256 _amount\n    )\n        public\n    {\n        require(\n            rewardsLibData.applications[_applicationAddress].rewardsAddress == msg.sender,\n            \"settle may only be called by an application\"\n        );\n        _transfer(msg.sender, _to, _amount);\n        emit Settlement(_applicationAddress, _userId, _to, _amount, msg.sender);\n    }\n    /**\n    * @dev internal intialize rewards upgrade1\n    * @param _controller address that will have controller functionality on rewards protocol\n    * @param _decimals uint256 number of decimals used in total supply    \n    */\n    function _initializePostRewardsUpgrade1(\n        address _controller,\n        uint256 _decimals\n    )\n        internal\n    {\n        require(maxTotalSupply==0, \"Initialize rewards upgrade1 can happen only once\");\n        controller = _controller;\n        // max total supply is 1,000,000,000 PROPS specified in AttoPROPS\n        maxTotalSupply = 1 * 1e9 * (10 ** _decimals);        \n    }\n}",
  "sourcePath": "/Users/jretina/Programming/PROPSProject/props-token-distribution/contracts/token/PropsRewards.sol",
  "compiler": {
    "name": "solc",
    "version": "0.4.24+commit.e67f0147.Emscripten.clang"
  },
  "schemaVersion": "2.0.1",
  "updatedAt": "2020-12-15T15:21:38.144Z"
}