{
  "contractName": "PropsTimeBasedTransfers",
  "abi": [
    {
      "constant": false,
      "inputs": [
        {
          "name": "spender",
          "type": "address"
        },
        {
          "name": "value",
          "type": "uint256"
        }
      ],
      "name": "approve",
      "outputs": [
        {
          "name": "",
          "type": "bool"
        }
      ],
      "payable": false,
      "stateMutability": "nonpayable",
      "type": "function"
    },
    {
      "constant": true,
      "inputs": [],
      "name": "totalSupply",
      "outputs": [
        {
          "name": "",
          "type": "uint256"
        }
      ],
      "payable": false,
      "stateMutability": "view",
      "type": "function"
    },
    {
      "constant": false,
      "inputs": [
        {
          "name": "spender",
          "type": "address"
        },
        {
          "name": "addedValue",
          "type": "uint256"
        }
      ],
      "name": "increaseAllowance",
      "outputs": [
        {
          "name": "",
          "type": "bool"
        }
      ],
      "payable": false,
      "stateMutability": "nonpayable",
      "type": "function"
    },
    {
      "constant": true,
      "inputs": [],
      "name": "canTransferBeforeStartTime",
      "outputs": [
        {
          "name": "",
          "type": "address"
        }
      ],
      "payable": false,
      "stateMutability": "view",
      "type": "function"
    },
    {
      "constant": true,
      "inputs": [
        {
          "name": "owner",
          "type": "address"
        }
      ],
      "name": "balanceOf",
      "outputs": [
        {
          "name": "",
          "type": "uint256"
        }
      ],
      "payable": false,
      "stateMutability": "view",
      "type": "function"
    },
    {
      "constant": false,
      "inputs": [
        {
          "name": "spender",
          "type": "address"
        },
        {
          "name": "subtractedValue",
          "type": "uint256"
        }
      ],
      "name": "decreaseAllowance",
      "outputs": [
        {
          "name": "",
          "type": "bool"
        }
      ],
      "payable": false,
      "stateMutability": "nonpayable",
      "type": "function"
    },
    {
      "constant": true,
      "inputs": [],
      "name": "transfersStartTime",
      "outputs": [
        {
          "name": "",
          "type": "uint256"
        }
      ],
      "payable": false,
      "stateMutability": "view",
      "type": "function"
    },
    {
      "constant": true,
      "inputs": [
        {
          "name": "owner",
          "type": "address"
        },
        {
          "name": "spender",
          "type": "address"
        }
      ],
      "name": "allowance",
      "outputs": [
        {
          "name": "",
          "type": "uint256"
        }
      ],
      "payable": false,
      "stateMutability": "view",
      "type": "function"
    },
    {
      "anonymous": false,
      "inputs": [
        {
          "indexed": true,
          "name": "from",
          "type": "address"
        },
        {
          "indexed": true,
          "name": "to",
          "type": "address"
        },
        {
          "indexed": false,
          "name": "value",
          "type": "uint256"
        }
      ],
      "name": "Transfer",
      "type": "event"
    },
    {
      "anonymous": false,
      "inputs": [
        {
          "indexed": true,
          "name": "owner",
          "type": "address"
        },
        {
          "indexed": true,
          "name": "spender",
          "type": "address"
        },
        {
          "indexed": false,
          "name": "value",
          "type": "uint256"
        }
      ],
      "name": "Approval",
      "type": "event"
    },
    {
      "constant": false,
      "inputs": [
        {
          "name": "start",
          "type": "uint256"
        },
        {
          "name": "account",
          "type": "address"
        }
      ],
      "name": "initialize",
      "outputs": [],
      "payable": false,
      "stateMutability": "nonpayable",
      "type": "function"
    },
    {
      "constant": true,
      "inputs": [
        {
          "name": "account",
          "type": "address"
        }
      ],
      "name": "canTransfer",
      "outputs": [
        {
          "name": "",
          "type": "bool"
        }
      ],
      "payable": false,
      "stateMutability": "view",
      "type": "function"
    },
    {
      "constant": false,
      "inputs": [
        {
          "name": "to",
          "type": "address"
        },
        {
          "name": "value",
          "type": "uint256"
        }
      ],
      "name": "transfer",
      "outputs": [
        {
          "name": "",
          "type": "bool"
        }
      ],
      "payable": false,
      "stateMutability": "nonpayable",
      "type": "function"
    },
    {
      "constant": false,
      "inputs": [
        {
          "name": "from",
          "type": "address"
        },
        {
          "name": "to",
          "type": "address"
        },
        {
          "name": "value",
          "type": "uint256"
        }
      ],
      "name": "transferFrom",
      "outputs": [
        {
          "name": "",
          "type": "bool"
        }
      ],
      "payable": false,
      "stateMutability": "nonpayable",
      "type": "function"
    }
  ],
  "bytecode": "0x608060405234801561001057600080fd5b5061080c806100206000396000f3006080604052600436106100b95763ffffffff7c0100000000000000000000000000000000000000000000000000000000600035041663095ea7b381146100be57806318160ddd146100f657806323b872dd1461011d578063395093511461014757806345b6d7dc1461016b57806370a082311461019c57806378fc3cb3146101bd578063a457c2d7146101de578063a9059cbb14610202578063d0f22e9c14610226578063da35a26f1461023b578063dd62ed3e14610261575b600080fd5b3480156100ca57600080fd5b506100e2600160a060020a0360043516602435610288565b604080519115158252519081900360200190f35b34801561010257600080fd5b5061010b61029e565b60408051918252519081900360200190f35b34801561012957600080fd5b506100e2600160a060020a03600435811690602435166044356102a4565b34801561015357600080fd5b506100e2600160a060020a036004351660243561032f565b34801561017757600080fd5b50610180610370565b60408051600160a060020a039092168252519081900360200190f35b3480156101a857600080fd5b5061010b600160a060020a036004351661037f565b3480156101c957600080fd5b506100e2600160a060020a036004351661039a565b3480156101ea57600080fd5b506100e2600160a060020a03600435166024356103bf565b34801561020e57600080fd5b506100e2600160a060020a03600435166024356103fb565b34801561023257600080fd5b5061010b610484565b34801561024757600080fd5b5061025f600435600160a060020a036024351661048a565b005b34801561026d57600080fd5b5061010b600160a060020a03600435811690602435166105a7565b60006102953384846105d2565b50600192915050565b60355490565b60006102af3361039a565b151561031c57604080517f08c379a000000000000000000000000000000000000000000000000000000000815260206004820152601c60248201527f5472616e736665727320617265206e6f74207965742061637469766500000000604482015290519081900360640190fd5b61032784848461065e565b949350505050565b336000818152603460209081526040808320600160a060020a0387168452909152812054909161029591859061036b908663ffffffff6106b016565b6105d2565b606954600160a060020a031681565b600160a060020a031660009081526033602052604090205490565b60006068544211806103b95750606954600160a060020a038381169116145b92915050565b336000818152603460209081526040808320600160a060020a0387168452909152812054909161029591859061036b908663ffffffff6106c216565b60006104063361039a565b151561047357604080517f08c379a000000000000000000000000000000000000000000000000000000000815260206004820152601c60248201527f5472616e736665727320617265206e6f74207965742061637469766500000000604482015290519081900360640190fd5b61047d83836106d9565b9392505050565b60685481565b60008054610100900460ff16806104a457506104a46106e6565b806104b2575060005460ff16155b151561054557604080517f08c379a000000000000000000000000000000000000000000000000000000000815260206004820152602e60248201527f436f6e747261637420696e7374616e63652068617320616c726561647920626560448201527f656e20696e697469616c697a6564000000000000000000000000000000000000606482015290519081900360840190fd5b50600080546068939093556069805473ffffffffffffffffffffffffffffffffffffffff1916600160a060020a03939093169290921790915561ff001980831661010090811760ff19166001179091169281900460ff16151502919091179055565b600160a060020a03918216600090815260346020908152604080832093909416825291909152205490565b600160a060020a03821615156105e757600080fd5b600160a060020a03831615156105fc57600080fd5b600160a060020a03808416600081815260346020908152604080832094871680845294825291829020859055815185815291517f8c5be1e5ebec7d5bd14f71427d1e84f3dd0314c0f7b2291e5b200ac8c7c3b9259281900390910190a3505050565b600061066b8484846106ec565b600160a060020a0384166000908152603460209081526040808320338085529252909120546106a691869161036b908663ffffffff6106c216565b5060019392505050565b60008282018381101561047d57600080fd5b600080838311156106d257600080fd5b5050900390565b60006102953384846106ec565b303b1590565b600160a060020a03831660009081526033602052604090205481111561071157600080fd5b600160a060020a038216151561072657600080fd5b600160a060020a03831660009081526033602052604090205461074f908263ffffffff6106c216565b600160a060020a038085166000908152603360205260408082209390935590841681522054610784908263ffffffff6106b016565b600160a060020a0380841660008181526033602090815260409182902094909455805185815290519193928716927fddf252ad1be2c89b69c2b068fc378daa952ba7f163c4a11628f55a4df523b3ef92918290030190a35050505600a165627a7a723058206266d7352d11c9a0e8df7ffb64d91bd63adfedacbadd3c09e6bd51f9fe67c14c0029",
  "source": "pragma solidity ^0.4.24;\n\nimport \"zos-lib/contracts/Initializable.sol\";\nimport \"openzeppelin-eth/contracts/token/ERC20/ERC20.sol\";\n\n/**\n * @title Props Sidechain Compatible\n * @dev Added a settle function and events\n **/\ncontract PropsTimeBasedTransfers is ERC20 {\n    \n    uint public transfersStartTime;\n    address public canTransferBeforeStartTime;\n\n    /**\n    * @notice The initializer function, with transfers start time `transfersStartTime`\n    * and `canTransferBeforeStartTime` address which is exempt from start time restrictions\n    * @param start uint Timestamp of when transfers can start\n    * @param account uint256 address exempt from the start date check    \n    */\n    function initialize(\n        uint start,\n        address account\n    )\n        public\n        initializer\n    {\n        transfersStartTime = start;\n        canTransferBeforeStartTime = account;\n    }\n\n    function canTransfer(address account) public view returns (bool) {\n        return (now > transfersStartTime || account==canTransferBeforeStartTime);\n    }\n\n    function transfer(\n        address to,\n        uint256 value\n    )\n    public    \n    returns (bool)\n    {\n        require(\n            canTransfer(msg.sender),\n            \"Transfers are not yet active\"\n        );\n        return super.transfer(to, value);        \n    }\n\n    function transferFrom(\n    address from,\n    address to,\n    uint256 value\n    )\n    public    \n    returns (bool)\n    {\n        require(\n            canTransfer(msg.sender),\n            \"Transfers are not yet active\"\n        );\n        return super.transferFrom(from, to, value);        \n    }    \n}\n",
  "sourcePath": "/Users/jretina/Programming/PROPSProject/props-token-distribution/contracts/token/PropsTimeBasedTransfers.sol",
  "compiler": {
    "name": "solc",
    "version": "0.4.24+commit.e67f0147.Emscripten.clang"
  },
  "schemaVersion": "2.0.1",
  "updatedAt": "2019-02-26T00:37:10.141Z"
}