{
  "contractName": "PropsRewards",
  "abi": [
    {
      "constant": false,
      "inputs": [
        {
          "name": "spender",
          "type": "address"
        },
        {
          "name": "value",
          "type": "uint256"
        }
      ],
      "name": "approve",
      "outputs": [
        {
          "name": "",
          "type": "bool"
        }
      ],
      "payable": false,
      "stateMutability": "nonpayable",
      "type": "function"
    },
    {
      "constant": true,
      "inputs": [],
      "name": "totalSupply",
      "outputs": [
        {
          "name": "",
          "type": "uint256"
        }
      ],
      "payable": false,
      "stateMutability": "view",
      "type": "function"
    },
    {
      "constant": false,
      "inputs": [
        {
          "name": "from",
          "type": "address"
        },
        {
          "name": "to",
          "type": "address"
        },
        {
          "name": "value",
          "type": "uint256"
        }
      ],
      "name": "transferFrom",
      "outputs": [
        {
          "name": "",
          "type": "bool"
        }
      ],
      "payable": false,
      "stateMutability": "nonpayable",
      "type": "function"
    },
    {
      "constant": true,
      "inputs": [],
      "name": "maxTotalSupply",
      "outputs": [
        {
          "name": "",
          "type": "uint256"
        }
      ],
      "payable": false,
      "stateMutability": "view",
      "type": "function"
    },
    {
      "constant": false,
      "inputs": [
        {
          "name": "spender",
          "type": "address"
        },
        {
          "name": "addedValue",
          "type": "uint256"
        }
      ],
      "name": "increaseAllowance",
      "outputs": [
        {
          "name": "",
          "type": "bool"
        }
      ],
      "payable": false,
      "stateMutability": "nonpayable",
      "type": "function"
    },
    {
      "constant": true,
      "inputs": [
        {
          "name": "owner",
          "type": "address"
        }
      ],
      "name": "balanceOf",
      "outputs": [
        {
          "name": "",
          "type": "uint256"
        }
      ],
      "payable": false,
      "stateMutability": "view",
      "type": "function"
    },
    {
      "constant": false,
      "inputs": [
        {
          "name": "spender",
          "type": "address"
        },
        {
          "name": "subtractedValue",
          "type": "uint256"
        }
      ],
      "name": "decreaseAllowance",
      "outputs": [
        {
          "name": "",
          "type": "bool"
        }
      ],
      "payable": false,
      "stateMutability": "nonpayable",
      "type": "function"
    },
    {
      "constant": false,
      "inputs": [
        {
          "name": "to",
          "type": "address"
        },
        {
          "name": "value",
          "type": "uint256"
        }
      ],
      "name": "transfer",
      "outputs": [
        {
          "name": "",
          "type": "bool"
        }
      ],
      "payable": false,
      "stateMutability": "nonpayable",
      "type": "function"
    },
    {
      "constant": true,
      "inputs": [
        {
          "name": "owner",
          "type": "address"
        },
        {
          "name": "spender",
          "type": "address"
        }
      ],
      "name": "allowance",
      "outputs": [
        {
          "name": "",
          "type": "uint256"
        }
      ],
      "payable": false,
      "stateMutability": "view",
      "type": "function"
    },
    {
      "constant": true,
      "inputs": [],
      "name": "controller",
      "outputs": [
        {
          "name": "",
          "type": "address"
        }
      ],
      "payable": false,
      "stateMutability": "view",
      "type": "function"
    },
    {
      "anonymous": false,
      "inputs": [
        {
          "indexed": true,
          "name": "dailyTimestamp",
          "type": "uint256"
        },
        {
          "indexed": true,
          "name": "rewardsHash",
          "type": "bytes32"
        },
        {
          "indexed": true,
          "name": "validator",
          "type": "address"
        }
      ],
      "name": "DailyRewardsSubmitted",
      "type": "event"
    },
    {
      "anonymous": false,
      "inputs": [
        {
          "indexed": true,
          "name": "dailyTimestamp",
          "type": "uint256"
        },
        {
          "indexed": true,
          "name": "rewardsHash",
          "type": "bytes32"
        },
        {
          "indexed": false,
          "name": "numOfApplications",
          "type": "uint256"
        },
        {
          "indexed": false,
          "name": "amount",
          "type": "uint256"
        }
      ],
      "name": "DailyRewardsApplicationsMinted",
      "type": "event"
    },
    {
      "anonymous": false,
      "inputs": [
        {
          "indexed": true,
          "name": "dailyTimestamp",
          "type": "uint256"
        },
        {
          "indexed": true,
          "name": "rewardsHash",
          "type": "bytes32"
        },
        {
          "indexed": false,
          "name": "numOfValidators",
          "type": "uint256"
        },
        {
          "indexed": false,
          "name": "amount",
          "type": "uint256"
        }
      ],
      "name": "DailyRewardsValidatorsMinted",
      "type": "event"
    },
    {
      "anonymous": false,
      "inputs": [
        {
          "indexed": true,
          "name": "id",
          "type": "address"
        },
        {
          "indexed": false,
          "name": "name",
          "type": "bytes32"
        },
        {
          "indexed": false,
          "name": "rewardsAddress",
          "type": "address"
        },
        {
          "indexed": true,
          "name": "sidechainAddress",
          "type": "address"
        }
      ],
      "name": "ApplicationUpdated",
      "type": "event"
    },
    {
      "anonymous": false,
      "inputs": [
        {
          "indexed": true,
          "name": "id",
          "type": "address"
        },
        {
          "indexed": false,
          "name": "name",
          "type": "bytes32"
        },
        {
          "indexed": false,
          "name": "rewardsAddress",
          "type": "address"
        },
        {
          "indexed": true,
          "name": "sidechainAddress",
          "type": "address"
        }
      ],
      "name": "ValidatorUpdated",
      "type": "event"
    },
    {
      "anonymous": false,
      "inputs": [
        {
          "indexed": false,
          "name": "param",
          "type": "uint8"
        },
        {
          "indexed": false,
          "name": "newValue",
          "type": "uint256"
        },
        {
          "indexed": false,
          "name": "oldValue",
          "type": "uint256"
        },
        {
          "indexed": false,
          "name": "timestamp",
          "type": "uint256"
        }
      ],
      "name": "ParameterUpdate",
      "type": "event"
    },
    {
      "anonymous": false,
      "inputs": [
        {
          "indexed": false,
          "name": "validatorsList",
          "type": "address[]"
        },
        {
          "indexed": true,
          "name": "dailyTimestamp",
          "type": "uint256"
        }
      ],
      "name": "ValidatorsListUpdate",
      "type": "event"
    },
    {
      "anonymous": false,
      "inputs": [
        {
          "indexed": false,
          "name": "validatorsList",
          "type": "address[]"
        },
        {
          "indexed": true,
          "name": "dailyTimestamp",
          "type": "uint256"
        }
      ],
      "name": "ApplicationsListUpdate",
      "type": "event"
    },
    {
      "anonymous": false,
      "inputs": [
        {
          "indexed": true,
          "name": "newController",
          "type": "address"
        }
      ],
      "name": "ControllerUpdate",
      "type": "event"
    },
    {
      "anonymous": false,
      "inputs": [
        {
          "indexed": true,
          "name": "from",
          "type": "address"
        },
        {
          "indexed": true,
          "name": "to",
          "type": "address"
        },
        {
          "indexed": false,
          "name": "value",
          "type": "uint256"
        }
      ],
      "name": "Transfer",
      "type": "event"
    },
    {
      "anonymous": false,
      "inputs": [
        {
          "indexed": true,
          "name": "owner",
          "type": "address"
        },
        {
          "indexed": true,
          "name": "spender",
          "type": "address"
        },
        {
          "indexed": false,
          "name": "value",
          "type": "uint256"
        }
      ],
      "name": "Approval",
      "type": "event"
    },
    {
      "constant": false,
      "inputs": [
        {
          "name": "_controller",
          "type": "address"
        },
        {
          "name": "_decimals",
          "type": "uint256"
        }
      ],
      "name": "initializePostRewardsUpgrade1",
      "outputs": [],
      "payable": false,
      "stateMutability": "nonpayable",
      "type": "function"
    },
    {
      "constant": false,
      "inputs": [
        {
          "name": "_controller",
          "type": "address"
        },
        {
          "name": "_decimals",
          "type": "uint256"
        }
      ],
      "name": "initialize",
      "outputs": [],
      "payable": false,
      "stateMutability": "nonpayable",
      "type": "function"
    },
    {
      "constant": false,
      "inputs": [
        {
          "name": "_dailyTimestamp",
          "type": "uint256"
        },
        {
          "name": "_validators",
          "type": "address[]"
        }
      ],
      "name": "setValidators",
      "outputs": [
        {
          "name": "",
          "type": "bool"
        }
      ],
      "payable": false,
      "stateMutability": "nonpayable",
      "type": "function"
    },
    {
      "constant": false,
      "inputs": [
        {
          "name": "_dailyTimestamp",
          "type": "uint256"
        },
        {
          "name": "_applications",
          "type": "address[]"
        }
      ],
      "name": "setApplications",
      "outputs": [
        {
          "name": "",
          "type": "bool"
        }
      ],
      "payable": false,
      "stateMutability": "nonpayable",
      "type": "function"
    },
    {
      "constant": false,
      "inputs": [
        {
          "name": "_dailyTimestamp",
          "type": "uint256"
        },
        {
          "name": "_rewardsHash",
          "type": "bytes32"
        },
        {
          "name": "_applications",
          "type": "address[]"
        },
        {
          "name": "_amounts",
          "type": "uint256[]"
        }
      ],
      "name": "submitDailyRewards",
      "outputs": [
        {
          "name": "",
          "type": "bool"
        }
      ],
      "payable": false,
      "stateMutability": "nonpayable",
      "type": "function"
    },
    {
      "constant": false,
      "inputs": [
        {
          "name": "_controller",
          "type": "address"
        }
      ],
      "name": "updateController",
      "outputs": [
        {
          "name": "",
          "type": "bool"
        }
      ],
      "payable": false,
      "stateMutability": "nonpayable",
      "type": "function"
    },
    {
      "constant": false,
      "inputs": [
        {
          "name": "_name",
          "type": "uint8"
        },
        {
          "name": "_value",
          "type": "uint256"
        },
        {
          "name": "_timestamp",
          "type": "uint256"
        }
      ],
      "name": "updateParameter",
      "outputs": [
        {
          "name": "",
          "type": "bool"
        }
      ],
      "payable": false,
      "stateMutability": "nonpayable",
      "type": "function"
    },
    {
      "constant": false,
      "inputs": [
        {
          "name": "_name",
          "type": "bytes32"
        },
        {
          "name": "_rewardsAddress",
          "type": "address"
        },
        {
          "name": "_sidechainAddress",
          "type": "address"
        }
      ],
      "name": "updateApplication",
      "outputs": [
        {
          "name": "",
          "type": "bool"
        }
      ],
      "payable": false,
      "stateMutability": "nonpayable",
      "type": "function"
    },
    {
      "constant": false,
      "inputs": [
        {
          "name": "_name",
          "type": "bytes32"
        },
        {
          "name": "_rewardsAddress",
          "type": "address"
        },
        {
          "name": "_sidechainAddress",
          "type": "address"
        }
      ],
      "name": "updateValidator",
      "outputs": [
        {
          "name": "",
          "type": "bool"
        }
      ],
      "payable": false,
      "stateMutability": "nonpayable",
      "type": "function"
    }
  ],
  "bytecode": "0x608060405234801561001057600080fd5b50612f48806100206000396000f300608060405260043610610107576000357c0100000000000000000000000000000000000000000000000000000000900463ffffffff16806306cb5b661461010c578063095ea7b31461016757806316266300146101cc57806318160ddd1461022857806323b872dd146102535780632ab4d052146102d85780633191b8b014610303578063395093511461035057806357ece4bc146103b55780636308c6681461048e57806370a08231146105175780637492fdda1461056e578063a457c2d7146105f6578063a9059cbb1461065b578063cd6dc687146106c0578063dd62ed3e1461070d578063e795594d14610784578063f77c47911461080c578063f7db144e14610863575b600080fd5b34801561011857600080fd5b5061014d600480360381019080803573ffffffffffffffffffffffffffffffffffffffff1690602001909291905050506108ec565b604051808215151515815260200191505060405180910390f35b34801561017357600080fd5b506101b2600480360381019080803573ffffffffffffffffffffffffffffffffffffffff16906020019092919080359060200190929190505050610a40565b604051808215151515815260200191505060405180910390f35b3480156101d857600080fd5b5061020e600480360381019080803560ff1690602001909291908035906020019092919080359060200190929190505050610a57565b604051808215151515815260200191505060405180910390f35b34801561023457600080fd5b5061023d610d78565b6040518082815260200191505060405180910390f35b34801561025f57600080fd5b506102be600480360381019080803573ffffffffffffffffffffffffffffffffffffffff169060200190929190803573ffffffffffffffffffffffffffffffffffffffff16906020019092919080359060200190929190505050610d82565b604051808215151515815260200191505060405180910390f35b3480156102e457600080fd5b506102ed610e33565b6040518082815260200191505060405180910390f35b34801561030f57600080fd5b5061034e600480360381019080803573ffffffffffffffffffffffffffffffffffffffff16906020019092919080359060200190929190505050610e39565b005b34801561035c57600080fd5b5061039b600480360381019080803573ffffffffffffffffffffffffffffffffffffffff16906020019092919080359060200190929190505050610f7a565b604051808215151515815260200191505060405180910390f35b3480156103c157600080fd5b50610474600480360381019080803590602001909291908035600019169060200190929190803590602001908201803590602001908080602002602001604051908101604052809392919081815260200183836020028082843782019150505050505091929192908035906020019082018035906020019080806020026020016040519081016040528093929190818152602001838360200280828437820191505050505050919291929050505061101f565b604051808215151515815260200191505060405180910390f35b34801561049a57600080fd5b506104fd6004803603810190808035600019169060200190929190803573ffffffffffffffffffffffffffffffffffffffff169060200190929190803573ffffffffffffffffffffffffffffffffffffffff169060200190929190505050611766565b604051808215151515815260200191505060405180910390f35b34801561052357600080fd5b50610558600480360381019080803573ffffffffffffffffffffffffffffffffffffffff169060200190929190505050611933565b6040518082815260200191505060405180910390f35b34801561057a57600080fd5b506105dc600480360381019080803590602001909291908035906020019082018035906020019080806020026020016040519081016040528093929190818152602001838360200280828437820191505050505050919291929050505061197c565b604051808215151515815260200191505060405180910390f35b34801561060257600080fd5b50610641600480360381019080803573ffffffffffffffffffffffffffffffffffffffff16906020019092919080359060200190929190505050611c80565b604051808215151515815260200191505060405180910390f35b34801561066757600080fd5b506106a6600480360381019080803573ffffffffffffffffffffffffffffffffffffffff16906020019092919080359060200190929190505050611d25565b604051808215151515815260200191505060405180910390f35b3480156106cc57600080fd5b5061070b600480360381019080803573ffffffffffffffffffffffffffffffffffffffff16906020019092919080359060200190929190505050611d3c565b005b34801561071957600080fd5b5061076e600480360381019080803573ffffffffffffffffffffffffffffffffffffffff169060200190929190803573ffffffffffffffffffffffffffffffffffffffff169060200190929190505050611e7d565b6040518082815260200191505060405180910390f35b34801561079057600080fd5b506107f26004803603810190808035906020019092919080359060200190820180359060200190808060200260200160405190810160405280939291908181526020018383602002808284378201915050505050509192919290505050611f04565b604051808215151515815260200191505060405180910390f35b34801561081857600080fd5b50610821612208565b604051808273ffffffffffffffffffffffffffffffffffffffff1673ffffffffffffffffffffffffffffffffffffffff16815260200191505060405180910390f35b34801561086f57600080fd5b506108d26004803603810190808035600019169060200190929190803573ffffffffffffffffffffffffffffffffffffffff169060200190929190803573ffffffffffffffffffffffffffffffffffffffff16906020019092919050505061222e565b604051808215151515815260200191505060405180910390f35b6000607e60009054906101000a900473ffffffffffffffffffffffffffffffffffffffff1673ffffffffffffffffffffffffffffffffffffffff163373ffffffffffffffffffffffffffffffffffffffff161415156109b3576040517f08c379a00000000000000000000000000000000000000000000000000000000081526004018080602001828103825260168152602001807f4d7573742062652074686520636f6e74726f6c6c65720000000000000000000081525060200191505060405180910390fd5b81607e60006101000a81548173ffffffffffffffffffffffffffffffffffffffff021916908373ffffffffffffffffffffffffffffffffffffffff1602179055508173ffffffffffffffffffffffffffffffffffffffff167f5b9e04ebd57dd0a9649b6a969291839f2794d18ee0dfe7027b5757db16eb98b660405160405180910390a260019050919050565b6000610a4d3384846123fc565b6001905092915050565b600080607e60009054906101000a900473ffffffffffffffffffffffffffffffffffffffff1673ffffffffffffffffffffffffffffffffffffffff163373ffffffffffffffffffffffffffffffffffffffff16141515610b1f576040517f08c379a00000000000000000000000000000000000000000000000000000000081526004018080602001828103825260168152602001807f4d7573742062652074686520636f6e74726f6c6c65720000000000000000000081525060200191505060405180910390fd5b8260006201518082811515610b3057fe5b06148015610b42575060686012015481115b1515610bdc576040517f08c379a00000000000000000000000000000000000000000000000000000000081526004018080602001828103825260268152602001807f4d757374206265206d69646e6967687420616e64203e206461696c792074696d81526020017f657374616d70000000000000000000000000000000000000000000000000000081525060400191505060405180910390fd5b73__PropsRewardsLib_______________________6311cb33da60688888886040518563ffffffff167c010000000000000000000000000000000000000000000000000000000002815260040180858152602001846003811115610c3c57fe5b60ff16815260200183815260200182815260200194505050505060206040518083038186803b158015610c6e57600080fd5b505af4158015610c82573d6000803e3d6000fd5b505050506040513d6020811015610c9857600080fd5b810190808051906020019092919050505091507f95c029df2185dee3721f52f8d63e991e05301e1cd78d6df3855d6a2f1c9e6b288660686004016000856000191660001916815260200190815260200160002060000154606860040160008660001916600019168152602001908152602001600020600101546068600401600087600019166000191681526020019081526020016000206002015460405180856003811115610d4357fe5b60ff16815260200184815260200183815260200182815260200194505050505060405180910390a16001925050509392505050565b6000603554905090565b6000610d8f84848461255f565b610e288433610e2385603460008a73ffffffffffffffffffffffffffffffffffffffff1673ffffffffffffffffffffffffffffffffffffffff16815260200190815260200160002060003373ffffffffffffffffffffffffffffffffffffffff1673ffffffffffffffffffffffffffffffffffffffff1681526020019081526020016000205461277d90919063ffffffff16565b6123fc565b600190509392505050565b607d5481565b60008060019054906101000a900460ff1680610e595750610e5861279e565b5b80610e7057506000809054906101000a900460ff16155b1515610f0a576040517f08c379a000000000000000000000000000000000000000000000000000000000815260040180806020018281038252602e8152602001807f436f6e747261637420696e7374616e63652068617320616c726561647920626581526020017f656e20696e697469616c697a656400000000000000000000000000000000000081525060400191505060405180910390fd5b600060019054906101000a900460ff1690506001600060016101000a81548160ff02191690831515021790555060016000806101000a81548160ff021916908315150217905550610f5b83836127af565b80600060016101000a81548160ff021916908315150217905550505050565b6000611015338461101085603460003373ffffffffffffffffffffffffffffffffffffffff1673ffffffffffffffffffffffffffffffffffffffff16815260200190815260200160002060008973ffffffffffffffffffffffffffffffffffffffff1673ffffffffffffffffffffffffffffffffffffffff16815260200190815260200160002054612b5b90919063ffffffff16565b6123fc565b6001905092915050565b600080600080876000620151808281151561103657fe5b06148015611063575060686012015481101580611057575060686013015481145b806110625750600081145b5b15156110d7576040517f08c379a00000000000000000000000000000000000000000000000000000000081526004018080602001828103825260108152602001807f4d757374206265206d69646e696768740000000000000000000000000000000081525060200191505060405180910390fd5b88600073__PropsRewardsLib_______________________63672a1a456068846040518363ffffffff167c0100000000000000000000000000000000000000000000000000000000028152600401808381526020018281526020019250505060206040518083038186803b15801561114e57600080fd5b505af4158015611162573d6000803e3d6000fd5b505050506040513d602081101561117857600080fd5b8101908080519060200190929190505050141561128157606860050160000160003373ffffffffffffffffffffffffffffffffffffffff1673ffffffffffffffffffffffffffffffffffffffff16815260200190815260200160002060009054906101000a900460ff16151561127c576040517f08c379a00000000000000000000000000000000000000000000000000000000081526004018080602001828103825260248152602001807f4d75737420626520612063757272656e742073656c65637465642076616c696481526020017f61746f720000000000000000000000000000000000000000000000000000000081525060400191505060405180910390fd5b61136f565b606860050160010160003373ffffffffffffffffffffffffffffffffffffffff1673ffffffffffffffffffffffffffffffffffffffff16815260200190815260200160002060009054906101000a900460ff16151561136e576040517f08c379a00000000000000000000000000000000000000000000000000000000081526004018080602001828103825260258152602001807f4d75737420626520612070726576696f75732073656c65637465642076616c6981526020017f6461746f7200000000000000000000000000000000000000000000000000000081525060400191505060405180910390fd5b5b73__PropsRewardsLib_______________________63476b90e560688c8c8c8c607d5461139a610d78565b6040518863ffffffff167c01000000000000000000000000000000000000000000000000000000000281526004018088815260200187815260200186600019166000191681526020018060200180602001858152602001848152602001838103835287818151815260200191508051906020019060200280838360005b83811015611432578082015181840152602081019050611417565b50505050905001838103825286818151815260200191508051906020019060200280838360005b83811015611474578082015181840152602081019050611459565b50505050905001995050505050505050505060206040518083038186803b15801561149e57600080fd5b505af41580156114b2573d6000803e3d6000fd5b505050506040513d60208110156114c857600080fd5b8101908080519060200190929190505050945060008511156114f2576114f18a8a8a8a89612b7c565b5b600060686013015411156116105773__PropsRewardsLib_______________________63aa12e6b660688060130154606860110154607d54611532610d78565b60016040518763ffffffff167c010000000000000000000000000000000000000000000000000000000002815260040180878152602001868152602001856000191660001916815260200184815260200183815260200182151515158152602001965050505050505060206040518083038186803b1580156115b357600080fd5b505af41580156115c7573d6000803e3d6000fd5b505050506040513d60208110156115dd57600080fd5b81019080805190602001909291905050509350600084111561160f5761160e60686013015460686011015486612c83565b5b5b73__PropsRewardsLib_______________________63aa12e6b660688c8c607d54611639610d78565b60006040518763ffffffff167c010000000000000000000000000000000000000000000000000000000002815260040180878152602001868152602001856000191660001916815260200184815260200183815260200182151515158152602001965050505050505060206040518083038186803b1580156116ba57600080fd5b505af41580156116ce573d6000803e3d6000fd5b505050506040513d60208110156116e457600080fd5b81019080805190602001909291905050509250600083111561170c5761170b8a8a85612c83565b5b3373ffffffffffffffffffffffffffffffffffffffff1689600019168b7f47a75fa3188612bc1341726d7859491a32bf875dd309474f712950354f73c5a760405160405180910390a4600195505050505050949350505050565b600073__PropsRewardsLib_______________________630e29507160688686866040518563ffffffff167c01000000000000000000000000000000000000000000000000000000000281526004018085815260200184600019166000191681526020018373ffffffffffffffffffffffffffffffffffffffff1673ffffffffffffffffffffffffffffffffffffffff1681526020018273ffffffffffffffffffffffffffffffffffffffff1673ffffffffffffffffffffffffffffffffffffffff16815260200194505050505060206040518083038186803b15801561184c57600080fd5b505af4158015611860573d6000803e3d6000fd5b505050506040513d602081101561187657600080fd5b8101908080519060200190929190505050508173ffffffffffffffffffffffffffffffffffffffff163373ffffffffffffffffffffffffffffffffffffffff167ed631e551edfd2a647e1fc27fb1f29a31400364ac2f6275665acf2546b2462086866040518083600019166000191681526020018273ffffffffffffffffffffffffffffffffffffffff1673ffffffffffffffffffffffffffffffffffffffff1681526020019250505060405180910390a3600190509392505050565b6000603360008373ffffffffffffffffffffffffffffffffffffffff1673ffffffffffffffffffffffffffffffffffffffff168152602001908152602001600020549050919050565b6000607e60009054906101000a900473ffffffffffffffffffffffffffffffffffffffff1673ffffffffffffffffffffffffffffffffffffffff163373ffffffffffffffffffffffffffffffffffffffff16141515611a43576040517f08c379a00000000000000000000000000000000000000000000000000000000081526004018080602001828103825260168152602001807f4d7573742062652074686520636f6e74726f6c6c65720000000000000000000081525060200191505060405180910390fd5b8260006201518082811515611a5457fe5b06148015611a6957506068600a016004015481115b1515611b03576040517f08c379a000000000000000000000000000000000000000000000000000000000815260040180806020018281038252602c8152602001807f4d757374206265206d69646e6967687420616e64203e206c617374207570646181526020017f74652074696d657374616d70000000000000000000000000000000000000000081525060400191505060405180910390fd5b73__PropsRewardsLib_______________________63cc1b8c9c606886866040518463ffffffff167c01000000000000000000000000000000000000000000000000000000000281526004018084815260200183815260200180602001828103825283818151815260200191508051906020019060200280838360005b83811015611b9b578082015181840152602081019050611b80565b5050505090500194505050505060206040518083038186803b158015611bc057600080fd5b505af4158015611bd4573d6000803e3d6000fd5b505050506040513d6020811015611bea57600080fd5b810190808051906020019092919050505050837fa5ac04c70be70f0d79ffb2c3ccf1633816270360d34fdc0827ab4b1773013772846040518080602001828103825283818151815260200191508051906020019060200280838360005b83811015611c62578082015181840152602081019050611c47565b505050509050019250505060405180910390a2600191505092915050565b6000611d1b3384611d1685603460003373ffffffffffffffffffffffffffffffffffffffff1673ffffffffffffffffffffffffffffffffffffffff16815260200190815260200160002060008973ffffffffffffffffffffffffffffffffffffffff1673ffffffffffffffffffffffffffffffffffffffff1681526020019081526020016000205461277d90919063ffffffff16565b6123fc565b6001905092915050565b6000611d3233848461255f565b6001905092915050565b60008060019054906101000a900460ff1680611d5c5750611d5b61279e565b5b80611d7357506000809054906101000a900460ff16155b1515611e0d576040517f08c379a000000000000000000000000000000000000000000000000000000000815260040180806020018281038252602e8152602001807f436f6e747261637420696e7374616e63652068617320616c726561647920626581526020017f656e20696e697469616c697a656400000000000000000000000000000000000081525060400191505060405180910390fd5b600060019054906101000a900460ff1690506001600060016101000a81548160ff02191690831515021790555060016000806101000a81548160ff021916908315150217905550611e5e83836127af565b80600060016101000a81548160ff021916908315150217905550505050565b6000603460008473ffffffffffffffffffffffffffffffffffffffff1673ffffffffffffffffffffffffffffffffffffffff16815260200190815260200160002060008373ffffffffffffffffffffffffffffffffffffffff1673ffffffffffffffffffffffffffffffffffffffff16815260200190815260200160002054905092915050565b6000607e60009054906101000a900473ffffffffffffffffffffffffffffffffffffffff1673ffffffffffffffffffffffffffffffffffffffff163373ffffffffffffffffffffffffffffffffffffffff16141515611fcb576040517f08c379a00000000000000000000000000000000000000000000000000000000081526004018080602001828103825260168152602001807f4d7573742062652074686520636f6e74726f6c6c65720000000000000000000081525060200191505060405180910390fd5b8260006201518082811515611fdc57fe5b06148015611ff1575060686005016004015481115b151561208b576040517f08c379a000000000000000000000000000000000000000000000000000000000815260040180806020018281038252602c8152602001807f4d757374206265206d69646e6967687420616e64203e206c617374207570646181526020017f74652074696d657374616d70000000000000000000000000000000000000000081525060400191505060405180910390fd5b73__PropsRewardsLib_______________________6363cad06a606886866040518463ffffffff167c01000000000000000000000000000000000000000000000000000000000281526004018084815260200183815260200180602001828103825283818151815260200191508051906020019060200280838360005b83811015612123578082015181840152602081019050612108565b5050505090500194505050505060206040518083038186803b15801561214857600080fd5b505af415801561215c573d6000803e3d6000fd5b505050506040513d602081101561217257600080fd5b810190808051906020019092919050505050837ffd10de8c0dcf494dc8b367e97f5b9007c0d993505c01bf1bab7d45075fcb7a7f846040518080602001828103825283818151815260200191508051906020019060200280838360005b838110156121ea5780820151818401526020810190506121cf565b505050509050019250505060405180910390a2600191505092915050565b607e60009054906101000a900473ffffffffffffffffffffffffffffffffffffffff1681565b600073__PropsRewardsLib_______________________63e2c593d360688686866040518563ffffffff167c01000000000000000000000000000000000000000000000000000000000281526004018085815260200184600019166000191681526020018373ffffffffffffffffffffffffffffffffffffffff1673ffffffffffffffffffffffffffffffffffffffff1681526020018273ffffffffffffffffffffffffffffffffffffffff1673ffffffffffffffffffffffffffffffffffffffff16815260200194505050505060206040518083038186803b15801561231457600080fd5b505af4158015612328573d6000803e3d6000fd5b505050506040513d602081101561233e57600080fd5b8101908080519060200190929190505050508173ffffffffffffffffffffffffffffffffffffffff163373ffffffffffffffffffffffffffffffffffffffff167fcaf68e52070991032d5d69184e9632d4ee0468b16ef078fc56dad196fd44b6a186866040518083600019166000191681526020018273ffffffffffffffffffffffffffffffffffffffff1673ffffffffffffffffffffffffffffffffffffffff1681526020019250505060405180910390a3600190509392505050565b600073ffffffffffffffffffffffffffffffffffffffff168273ffffffffffffffffffffffffffffffffffffffff161415151561243857600080fd5b600073ffffffffffffffffffffffffffffffffffffffff168373ffffffffffffffffffffffffffffffffffffffff161415151561247457600080fd5b80603460008573ffffffffffffffffffffffffffffffffffffffff1673ffffffffffffffffffffffffffffffffffffffff16815260200190815260200160002060008473ffffffffffffffffffffffffffffffffffffffff1673ffffffffffffffffffffffffffffffffffffffff168152602001908152602001600020819055508173ffffffffffffffffffffffffffffffffffffffff168373ffffffffffffffffffffffffffffffffffffffff167f8c5be1e5ebec7d5bd14f71427d1e84f3dd0314c0f7b2291e5b200ac8c7c3b925836040518082815260200191505060405180910390a3505050565b603360008473ffffffffffffffffffffffffffffffffffffffff1673ffffffffffffffffffffffffffffffffffffffff1681526020019081526020016000205481111515156125ad57600080fd5b600073ffffffffffffffffffffffffffffffffffffffff168273ffffffffffffffffffffffffffffffffffffffff16141515156125e957600080fd5b61263b81603360008673ffffffffffffffffffffffffffffffffffffffff1673ffffffffffffffffffffffffffffffffffffffff1681526020019081526020016000205461277d90919063ffffffff16565b603360008573ffffffffffffffffffffffffffffffffffffffff1673ffffffffffffffffffffffffffffffffffffffff168152602001908152602001600020819055506126d081603360008573ffffffffffffffffffffffffffffffffffffffff1673ffffffffffffffffffffffffffffffffffffffff16815260200190815260200160002054612b5b90919063ffffffff16565b603360008473ffffffffffffffffffffffffffffffffffffffff1673ffffffffffffffffffffffffffffffffffffffff168152602001908152602001600020819055508173ffffffffffffffffffffffffffffffffffffffff168373ffffffffffffffffffffffffffffffffffffffff167fddf252ad1be2c89b69c2b068fc378daa952ba7f163c4a11628f55a4df523b3ef836040518082815260200191505060405180910390a3505050565b60008083831115151561278f57600080fd5b82840390508091505092915050565b600080303b90506000811491505090565b80600a0a633b9aca0002607d8190555073__PropsRewardsLib_______________________6311cb33da606860006187be60006040518563ffffffff167c01000000000000000000000000000000000000000000000000000000000281526004018085815260200184600381111561282357fe5b60ff16815260200183815260200182815260200194505050505060206040518083038186803b15801561285557600080fd5b505af4158015612869573d6000803e3d6000fd5b505050506040513d602081101561287f57600080fd5b81019080805190602001909291905050505073__PropsRewardsLib_______________________6311cb33da606860016308f0d18060006040518563ffffffff167c0100000000000000000000000000000000000000000000000000000000028152600401808581526020018460038111156128f757fe5b60ff16815260200183815260200182815260200194505050505060206040518083038186803b15801561292957600080fd5b505af415801561293d573d6000803e3d6000fd5b505050506040513d602081101561295357600080fd5b81019080805190602001909291905050505073__PropsRewardsLib_______________________6311cb33da606860026302faf08060006040518563ffffffff167c0100000000000000000000000000000000000000000000000000000000028152600401808581526020018460038111156129cb57fe5b60ff16815260200183815260200182815260200194505050505060206040518083038186803b1580156129fd57600080fd5b505af4158015612a11573d6000803e3d6000fd5b505050506040513d6020811015612a2757600080fd5b81019080805190602001909291905050505073__PropsRewardsLib_______________________6311cb33da6068600361072560006040518563ffffffff167c010000000000000000000000000000000000000000000000000000000002815260040180858152602001846003811115612a9d57fe5b60ff16815260200183815260200182815260200194505050505060206040518083038186803b158015612acf57600080fd5b505af4158015612ae3573d6000803e3d6000fd5b505050506040513d6020811015612af957600080fd5b81019080805190602001909291905050505081607e60006101000a81548173ffffffffffffffffffffffffffffffffffffffff021916908373ffffffffffffffffffffffffffffffffffffffff16021790555060076068601401819055505050565b6000808284019050838110151515612b7257600080fd5b8091505092915050565b60008090505b8351811015612c3557612c28606860000160008684815181101515612ba357fe5b9060200190602002015173ffffffffffffffffffffffffffffffffffffffff1673ffffffffffffffffffffffffffffffffffffffff16815260200190815260200160002060010160009054906101000a900473ffffffffffffffffffffffffffffffffffffffff168483815181101515612c1957fe5b90602001906020020151612ddc565b8080600101915050612b82565b8460001916867fcc511f1b8ddd8ab10bcb89c26361da1c99b826350e3f38ee438134149032568a865185604051808381526020018281526020019250505060405180910390a3505050505050565b6000806068600f0160008560001916600019168152602001908152602001600020600101805490509150600090505b81811015612d8e57612d81606860020160006068600f016000886000191660001916815260200190815260200160002060010184815481101515612cf257fe5b9060005260206000200160009054906101000a900473ffffffffffffffffffffffffffffffffffffffff1673ffffffffffffffffffffffffffffffffffffffff1673ffffffffffffffffffffffffffffffffffffffff16815260200190815260200160002060010160009054906101000a900473ffffffffffffffffffffffffffffffffffffffff1684612ddc565b8080600101915050612cb2565b8360001916857f07efea0e0eeb975e5404139e47d884d2705a0660a3456aa31c5694df1d8c5f1484858702604051808381526020018281526020019250505060405180910390a35050505050565b60008273ffffffffffffffffffffffffffffffffffffffff1614151515612e0257600080fd5b612e1781603554612b5b90919063ffffffff16565b603581905550612e6f81603360008573ffffffffffffffffffffffffffffffffffffffff1673ffffffffffffffffffffffffffffffffffffffff16815260200190815260200160002054612b5b90919063ffffffff16565b603360008473ffffffffffffffffffffffffffffffffffffffff1673ffffffffffffffffffffffffffffffffffffffff168152602001908152602001600020819055508173ffffffffffffffffffffffffffffffffffffffff16600073ffffffffffffffffffffffffffffffffffffffff167fddf252ad1be2c89b69c2b068fc378daa952ba7f163c4a11628f55a4df523b3ef836040518082815260200191505060405180910390a350505600a165627a7a723058201aedf4e98fa8a85480edaf048a44532ffa9961a6ed0fb0a9d3d175cb38bb8f140029",
  "source": "pragma solidity ^0.4.24;\n\nimport \"zos-lib/contracts/Initializable.sol\";\nimport \"openzeppelin-eth/contracts/math/SafeMath.sol\";\nimport \"openzeppelin-eth/contracts/token/ERC20/ERC20.sol\";\n// import \"./PropsParameters.sol\";\nimport { PropsRewardsLib } from \"./PropsRewardsLib.sol\";\n\n/**\n * @title Props Rewards\n * @dev Contract allows to set approved apps and validators. Submit and mint rewards...\n **/\ncontract PropsRewards is Initializable, ERC20 /*, PropsParameters*/ {\n    using SafeMath for uint256;\n    /*\n    *  Events\n    */\n    event DailyRewardsSubmitted(\n        uint256 indexed dailyTimestamp,\n        bytes32 indexed rewardsHash,\n        address indexed validator\n    );\n\n    event DailyRewardsApplicationsMinted(\n        uint256 indexed dailyTimestamp,\n        bytes32 indexed rewardsHash,\n        uint256 numOfApplications,\n        uint256 amount\n    );\n\n    event DailyRewardsValidatorsMinted(\n        uint256 indexed dailyTimestamp,\n        bytes32 indexed rewardsHash,\n        uint256 numOfValidators,\n        uint256 amount\n    );\n\n    event ApplicationUpdated(\n        address indexed id,\n        bytes32 name,\n        address rewardsAddress,\n        address indexed sidechainAddress\n    );\n\n    event ValidatorUpdated(\n        address indexed id,\n        bytes32 name,\n        address rewardsAddress,\n        address indexed sidechainAddress\n    );\n\n    event ParameterUpdate(\n        PropsRewardsLib.ParameterName param,\n        uint256 newValue,\n        uint256 oldValue,\n        uint256 timestamp\n    );\n\n    event ValidatorsListUpdate(\n        address[] validatorsList,\n        uint256 indexed dailyTimestamp\n    );\n\n    event ApplicationsListUpdate(\n        address[] validatorsList,\n        uint256 indexed dailyTimestamp\n    );\n\n    event ControllerUpdate(address indexed newController);\n\n    /*\n    *  Storage\n    */\n\n    PropsRewardsLib.Data internal rewardsLibData;\n    uint256 public maxTotalSupply;\n    address public controller; // controller entity\n    /*\n    *  Modifiers\n    */\n    modifier onlyController() {\n        require(\n            msg.sender == controller,\n            \"Must be the controller\"\n        );\n        _;\n    }\n\n    modifier onlyValidDailyTimestamp(uint256 _dailyTimestamp) {\n        // assuming the daily timestamp is midnight UTC\n        require(\n            _dailyTimestamp % 86400 == 0 && (\n                _dailyTimestamp >= rewardsLibData.currentDailyTimestamp ||\n                _dailyTimestamp == rewardsLibData.previousDailyTimestamp ||\n                _dailyTimestamp == 0\n            ),\n            \"Must be midnight\"\n        );\n         _;\n    }\n\n    modifier onlyFutureValidDailyTimestamp(uint256 _dailyTimestamp) {\n        require(\n            _dailyTimestamp % 86400 == 0 &&\n            _dailyTimestamp > rewardsLibData.currentDailyTimestamp,\n            \"Must be midnight and > daily timestamp\"\n        );\n         _;\n    }\n\n    modifier onlyFutureValidValidatorsDailyTimestamp(uint256 _dailyTimestamp) {\n        require(\n            _dailyTimestamp % 86400 == 0 &&\n            _dailyTimestamp > rewardsLibData.selectedValidators.updateTimestamp,\n            \"Must be midnight and > last update timestamp\"\n        );\n         _;\n    }\n\n    modifier onlyFutureValidApplicationsDailyTimestamp(uint256 _dailyTimestamp) {\n        require(\n            _dailyTimestamp % 86400 == 0 &&\n            _dailyTimestamp > rewardsLibData.selectedApplications.updateTimestamp,\n            \"Must be midnight and > last update timestamp\"\n        );\n         _;\n    }\n\n    modifier onlySelectedValidators(uint256 _dailyTimestamp) {\n        if (PropsRewardsLib.getSelectedValidatorsListType(rewardsLibData, _dailyTimestamp) == 0) {\n            require (\n                rewardsLibData.selectedValidators.currentValidators[msg.sender],\n                \"Must be a current selected validator\"\n            );\n        } else {\n            require (\n                rewardsLibData.selectedValidators.previousValidators[msg.sender],\n                \"Must be a previous selected validator\"\n            );\n        }\n        _;\n    }\n\n\n    /**\n    * @dev The initializer function for upgrade as initialize was already called, get the decimals used in the token to initialize the params\n    * @param _decimals uint256 number of decimals used in total supply\n    */\n    function initializePostRewardsUpgrade1(address _controller, uint256 _decimals)\n        public\n        initializer\n    {\n        _initializePostRewardsUpgrade1(_controller, _decimals);\n    }\n\n    /**\n    * @dev The initializer function, get the decimals used in the token to initialize the params\n    * @param _decimals uint256 number of decimals used in total supply\n    */\n    function initialize(address _controller, uint256 _decimals)\n        public\n        initializer\n    {\n        _initializePostRewardsUpgrade1(_controller, _decimals);\n    }\n\n    /**\n    * @dev Set new validators list\n    * @param _dailyTimestamp uint256 the daily reward timestamp from which this change should take effect\n    * @param _validators address[] array of validators\n    */\n    function setValidators(uint256 _dailyTimestamp, address[] _validators)\n        public\n        onlyController\n        onlyFutureValidValidatorsDailyTimestamp(_dailyTimestamp)\n        returns (bool)\n    {\n        PropsRewardsLib.setValidators(rewardsLibData, _dailyTimestamp, _validators);\n        emit ValidatorsListUpdate(_validators, _dailyTimestamp);\n        return true;\n    }\n\n    /**\n    * @dev Set new applications list\n    * @param _dailyTimestamp uint256 the daily reward timestamp from which this change should take effect\n    * @param _applications address[] array of validators\n    */\n    function setApplications(uint256 _dailyTimestamp, address[] _applications)\n        public\n        onlyController\n        onlyFutureValidApplicationsDailyTimestamp(_dailyTimestamp)\n        returns (bool)\n    {\n        PropsRewardsLib.setApplications(rewardsLibData, _dailyTimestamp, _applications);\n        emit ApplicationsListUpdate(_applications, _dailyTimestamp);\n        return true;\n    }\n\n    /**\n    * @dev The function is called by validators with the calculation of the daily rewards\n    * @param _dailyTimestamp uint256 the daily reward timestamp (midnight UTC of each day)\n    * @param _rewardsHash bytes32 hash of the rewards data\n    * @param _applications address[] array of application addresses getting the daily reward\n    * @param _amounts uint256[] array of amounts each app should get\n    */\n    function submitDailyRewards(\n        uint256 _dailyTimestamp,\n        bytes32 _rewardsHash,\n        address[] _applications,\n        uint256[] _amounts\n    )\n        public\n        onlyValidDailyTimestamp(_dailyTimestamp)\n        onlySelectedValidators(_dailyTimestamp)\n        returns (bool)\n    {\n        // check and give application rewards if majority of validators agree\n        uint256 appRewardsSum = PropsRewardsLib.calculateApplicationRewards(\n            rewardsLibData,\n            _dailyTimestamp,\n            _rewardsHash,\n            _applications,\n            _amounts,\n            maxTotalSupply,\n            totalSupply()\n        );\n        if (appRewardsSum > 0) {\n            mintDailyRewardsForApps(_dailyTimestamp, _rewardsHash, _applications, _amounts, appRewardsSum);\n        }\n\n        // if submission is for a new day check if previous day validator rewards were given if not give to participating ones\n        if (rewardsLibData.previousDailyTimestamp > 0) {// no need to look back for first day\n            uint256 previousDayValidatorRewardsAmount = PropsRewardsLib.calculateValidatorRewards(\n                rewardsLibData,\n                rewardsLibData.previousDailyTimestamp,\n                rewardsLibData.previousDailyRewardsHash,\n                maxTotalSupply,\n                totalSupply(),\n                true\n            );\n            if (previousDayValidatorRewardsAmount > 0) {\n                mintDailyRewardsForValidators(rewardsLibData.previousDailyTimestamp, rewardsLibData.previousDailyRewardsHash, previousDayValidatorRewardsAmount);\n            }\n        }\n        // check and give validator rewards if all validators submitted\n        uint256 validatorRewardsAmount = PropsRewardsLib.calculateValidatorRewards(\n            rewardsLibData,\n            _dailyTimestamp,\n            _rewardsHash,\n            maxTotalSupply,\n            totalSupply(),\n            false\n        );\n        if (validatorRewardsAmount > 0) {\n            mintDailyRewardsForValidators(_dailyTimestamp, _rewardsHash, validatorRewardsAmount);\n        }\n\n        emit DailyRewardsSubmitted(_dailyTimestamp, _rewardsHash, msg.sender);\n        return true;\n    }\n\n    /**\n    * @dev Allows the controller/owner to update to a new controller\n    * @param _controller address address of the new controller\n    */\n    function updateController(\n        address _controller\n    )\n        public\n        onlyController\n        returns (bool)\n    {\n        controller = _controller;\n        emit ControllerUpdate\n        (\n            _controller\n        );\n        return true;\n    }\n\n    /**\n    * @dev Allows the controller/owner to update rewards parameters\n    * @param _name ParameterName name of the parameter\n    * @param _value uint256 new value for the parameter\n    * @param _timestamp starting when should this parameter use the current value\n    */\n    function updateParameter(\n        PropsRewardsLib.ParameterName _name,\n        uint256 _value,\n        uint256 _timestamp\n    )\n        public\n        onlyController\n        onlyFutureValidDailyTimestamp(_timestamp)\n        returns (bool)\n    {\n        bytes32 paramKey = PropsRewardsLib.updateParameter(rewardsLibData, _name, _value, _timestamp);\n        emit ParameterUpdate(\n            _name,\n            rewardsLibData.parameters[paramKey].currentValue,\n            rewardsLibData.parameters[paramKey].previousValue,\n            rewardsLibData.parameters[paramKey].updateTimestamp\n        );\n        return true;\n    }\n\n    /**\n    * @dev Allows an application to add/update its details\n    * @param _name bytes32 name of the app\n    * @param _rewardsAddress address an address for the app to receive the rewards\n    * @param _sidechainAddress address the address used for using the sidechain\n    */\n    function updateApplication(\n        bytes32 _name,\n        address _rewardsAddress,\n        address _sidechainAddress\n    )\n        public\n        returns (bool)\n    {\n        PropsRewardsLib.updateApplication(rewardsLibData, _name, _rewardsAddress, _sidechainAddress);\n        emit ApplicationUpdated(msg.sender, _name, _rewardsAddress, _sidechainAddress);\n        return true;\n    }\n\n    /**\n    * @dev Allows a validator to add/update its details\n    * @param _name bytes32 name of the validator\n    * @param _rewardsAddress address an address for the validator to receive the rewards\n    * @param _sidechainAddress address the address used for using the sidechain\n    */\n    function updateValidator(\n        bytes32 _name,\n        address _rewardsAddress,\n        address _sidechainAddress\n    )\n        public\n        returns (bool)\n    {\n        PropsRewardsLib.updateValidator(rewardsLibData, _name, _rewardsAddress, _sidechainAddress);\n        emit ValidatorUpdated(msg.sender, _name, _rewardsAddress, _sidechainAddress);\n        return true;\n    }\n\n    /**\n    * @dev internal intialize rewards upgrade1\n    */\n    function _initializePostRewardsUpgrade1(address _controller, uint256 _decimals)\n        internal\n    {\n        // max total supply is 1,000,000,000 PROPS specified in AttoPROPS\n        maxTotalSupply = 1 * 1e9 * (10 ** uint256(_decimals));\n        // ApplicationRewardsPercent pphm ==> 0.03475%\n        PropsRewardsLib.updateParameter(rewardsLibData, PropsRewardsLib.ParameterName.ApplicationRewardsPercent, 34750, 0);\n        // ApplicationRewardsMaxVariationPercent pphm ==> 150%\n        PropsRewardsLib.updateParameter(rewardsLibData, PropsRewardsLib.ParameterName.ApplicationRewardsMaxVariationPercent, 1.5 * 1e8, 0);\n        // ValidatorMajorityPercent pphm ==> 50%\n        PropsRewardsLib.updateParameter(rewardsLibData, PropsRewardsLib.ParameterName.ValidatorMajorityPercent, 50 * 1e6, 0);\n         // ValidatorRewardsPercent pphm ==> 0.001829%\n        PropsRewardsLib.updateParameter(rewardsLibData, PropsRewardsLib.ParameterName.ValidatorRewardsPercent, 1829, 0);\n        controller = _controller;\n        rewardsLibData.maxDailyRewardStorage = 7; // keep daily rewards data for up to 7 days\n    }\n\n    /**\n    * @dev Mint rewards for validators\n    * @param _dailyTimestamp uint256 the daily reward timestamp (midnight UTC of each day)\n    * @param _rewardsHash bytes32 hash of the rewards data\n    * @param _amount uint256 amount each validator should get\n    */\n    function mintDailyRewardsForValidators(uint256 _dailyTimestamp, bytes32 _rewardsHash, uint256 _amount)\n        internal\n    {\n        uint256 validatorsCount = rewardsLibData.dailyRewards[_rewardsHash].submissionValidators.length;\n        for (uint256 i = 0; i < validatorsCount; i++) {\n            _mint(rewardsLibData.validators[rewardsLibData.dailyRewards[_rewardsHash].submissionValidators[i]].rewardsAddress,_amount);\n        }\n        emit DailyRewardsValidatorsMinted(\n            _dailyTimestamp,\n            _rewardsHash,\n            validatorsCount,\n            (_amount * validatorsCount)\n        );\n    }\n\n    /**\n    * @dev Mint rewards for apps\n    * @param _dailyTimestamp uint256 the daily reward timestamp (midnight UTC of each day)\n    * @param _rewardsHash bytes32 hash of the rewards data\n    * @param _applications address[] array of application addresses getting the daily reward\n    * @param _amounts uint256[] array of amounts each app should get\n    * @param _sum uint256 the sum of all application rewards given\n    */\n    function mintDailyRewardsForApps(\n        uint256 _dailyTimestamp,\n        bytes32 _rewardsHash,\n        address[] _applications,\n        uint256[] _amounts,\n        uint256 _sum\n    )\n        internal\n    {\n        for (uint256 i = 0; i < _applications.length; i++) {\n            _mint(rewardsLibData.applications[_applications[i]].rewardsAddress, _amounts[i]);\n        }\n        emit DailyRewardsApplicationsMinted(_dailyTimestamp, _rewardsHash, _applications.length, _sum);\n    }\n}",
  "sourcePath": "/Users/jretina/Programming/PROPSProject/props-token-distribution/contracts/token/PropsRewards.sol",
  "compiler": {
    "name": "solc",
    "version": "0.4.24+commit.e67f0147.Emscripten.clang"
  },
  "schemaVersion": "2.0.1",
  "updatedAt": "2019-05-12T14:45:14.854Z"
}