{
  "contractName": "PropsToken",
  "abi": [
    {
      "constant": true,
      "inputs": [],
      "name": "name",
      "outputs": [
        {
          "name": "",
          "type": "string"
        }
      ],
      "payable": false,
      "stateMutability": "view",
      "type": "function"
    },
    {
      "constant": false,
      "inputs": [
        {
          "name": "spender",
          "type": "address"
        },
        {
          "name": "value",
          "type": "uint256"
        }
      ],
      "name": "approve",
      "outputs": [
        {
          "name": "",
          "type": "bool"
        }
      ],
      "payable": false,
      "stateMutability": "nonpayable",
      "type": "function"
    },
    {
      "constant": false,
      "inputs": [
        {
          "name": "to",
          "type": "address"
        },
        {
          "name": "value",
          "type": "uint256"
        }
      ],
      "name": "settle",
      "outputs": [
        {
          "name": "",
          "type": "bool"
        }
      ],
      "payable": false,
      "stateMutability": "nonpayable",
      "type": "function"
    },
    {
      "constant": true,
      "inputs": [],
      "name": "totalSupply",
      "outputs": [
        {
          "name": "",
          "type": "uint256"
        }
      ],
      "payable": false,
      "stateMutability": "view",
      "type": "function"
    },
    {
      "constant": false,
      "inputs": [
        {
          "name": "from",
          "type": "address"
        },
        {
          "name": "to",
          "type": "address"
        },
        {
          "name": "value",
          "type": "uint256"
        }
      ],
      "name": "transferFrom",
      "outputs": [
        {
          "name": "",
          "type": "bool"
        }
      ],
      "payable": false,
      "stateMutability": "nonpayable",
      "type": "function"
    },
    {
      "constant": true,
      "inputs": [],
      "name": "decimals",
      "outputs": [
        {
          "name": "",
          "type": "uint8"
        }
      ],
      "payable": false,
      "stateMutability": "view",
      "type": "function"
    },
    {
      "constant": false,
      "inputs": [
        {
          "name": "spender",
          "type": "address"
        },
        {
          "name": "addedValue",
          "type": "uint256"
        }
      ],
      "name": "increaseAllowance",
      "outputs": [
        {
          "name": "",
          "type": "bool"
        }
      ],
      "payable": false,
      "stateMutability": "nonpayable",
      "type": "function"
    },
    {
      "constant": true,
      "inputs": [],
      "name": "getRegistry",
      "outputs": [
        {
          "name": "",
          "type": "address"
        }
      ],
      "payable": false,
      "stateMutability": "view",
      "type": "function"
    },
    {
      "constant": true,
      "inputs": [
        {
          "name": "owner",
          "type": "address"
        }
      ],
      "name": "balanceOf",
      "outputs": [
        {
          "name": "",
          "type": "uint256"
        }
      ],
      "payable": false,
      "stateMutability": "view",
      "type": "function"
    },
    {
      "constant": true,
      "inputs": [
        {
          "name": "receiver",
          "type": "address"
        }
      ],
      "name": "canReceive",
      "outputs": [
        {
          "name": "",
          "type": "bool"
        }
      ],
      "payable": false,
      "stateMutability": "view",
      "type": "function"
    },
    {
      "constant": true,
      "inputs": [],
      "name": "symbol",
      "outputs": [
        {
          "name": "",
          "type": "string"
        }
      ],
      "payable": false,
      "stateMutability": "view",
      "type": "function"
    },
    {
      "constant": false,
      "inputs": [
        {
          "name": "spender",
          "type": "address"
        },
        {
          "name": "subtractedValue",
          "type": "uint256"
        }
      ],
      "name": "decreaseAllowance",
      "outputs": [
        {
          "name": "",
          "type": "bool"
        }
      ],
      "payable": false,
      "stateMutability": "nonpayable",
      "type": "function"
    },
    {
      "constant": false,
      "inputs": [
        {
          "name": "to",
          "type": "address"
        },
        {
          "name": "value",
          "type": "uint256"
        }
      ],
      "name": "transfer",
      "outputs": [
        {
          "name": "",
          "type": "bool"
        }
      ],
      "payable": false,
      "stateMutability": "nonpayable",
      "type": "function"
    },
    {
      "constant": true,
      "inputs": [
        {
          "name": "owner",
          "type": "address"
        },
        {
          "name": "spender",
          "type": "address"
        }
      ],
      "name": "allowance",
      "outputs": [
        {
          "name": "",
          "type": "uint256"
        }
      ],
      "payable": false,
      "stateMutability": "view",
      "type": "function"
    },
    {
      "constant": true,
      "inputs": [],
      "name": "getValidAttributeID",
      "outputs": [
        {
          "name": "",
          "type": "uint256"
        }
      ],
      "payable": false,
      "stateMutability": "view",
      "type": "function"
    },
    {
      "anonymous": false,
      "inputs": [
        {
          "indexed": false,
          "name": "from",
          "type": "address"
        },
        {
          "indexed": false,
          "name": "fromBalance",
          "type": "uint256"
        },
        {
          "indexed": false,
          "name": "to",
          "type": "address"
        },
        {
          "indexed": false,
          "name": "toBalance",
          "type": "uint256"
        },
        {
          "indexed": false,
          "name": "amount",
          "type": "uint256"
        }
      ],
      "name": "TransferDetails",
      "type": "event"
    },
    {
      "anonymous": false,
      "inputs": [
        {
          "indexed": false,
          "name": "timestamp",
          "type": "uint256"
        },
        {
          "indexed": false,
          "name": "from",
          "type": "address"
        },
        {
          "indexed": false,
          "name": "recipient",
          "type": "address"
        },
        {
          "indexed": false,
          "name": "amount",
          "type": "uint256"
        }
      ],
      "name": "Settlement",
      "type": "event"
    },
    {
      "anonymous": false,
      "inputs": [
        {
          "indexed": true,
          "name": "from",
          "type": "address"
        },
        {
          "indexed": true,
          "name": "to",
          "type": "address"
        },
        {
          "indexed": false,
          "name": "value",
          "type": "uint256"
        }
      ],
      "name": "Transfer",
      "type": "event"
    },
    {
      "anonymous": false,
      "inputs": [
        {
          "indexed": true,
          "name": "owner",
          "type": "address"
        },
        {
          "indexed": true,
          "name": "spender",
          "type": "address"
        },
        {
          "indexed": false,
          "name": "value",
          "type": "uint256"
        }
      ],
      "name": "Approval",
      "type": "event"
    },
    {
      "constant": false,
      "inputs": [
        {
          "name": "name",
          "type": "string"
        },
        {
          "name": "symbol",
          "type": "string"
        },
        {
          "name": "decimals",
          "type": "uint8"
        }
      ],
      "name": "initialize",
      "outputs": [],
      "payable": false,
      "stateMutability": "nonpayable",
      "type": "function"
    },
    {
      "constant": false,
      "inputs": [
        {
          "name": "_holder",
          "type": "address"
        },
        {
          "name": "_jurisdictionAddress",
          "type": "address"
        },
        {
          "name": "_validRecipientAttributeId",
          "type": "uint256"
        }
      ],
      "name": "initialize",
      "outputs": [],
      "payable": false,
      "stateMutability": "nonpayable",
      "type": "function"
    },
    {
      "constant": false,
      "inputs": [
        {
          "name": "registry",
          "type": "address"
        },
        {
          "name": "validAttributeTypeID",
          "type": "uint256"
        }
      ],
      "name": "initialize",
      "outputs": [],
      "payable": false,
      "stateMutability": "nonpayable",
      "type": "function"
    }
  ],
  "bytecode": "0x608060405234801561001057600080fd5b506113b8806100206000396000f3006080604052600436106100fb5763ffffffff7c010000000000000000000000000000000000000000000000000000000060003504166306fdde038114610100578063095ea7b31461018a57806315afd409146101c25780631624f6c6146101e65780631794bb3c1461028457806318160ddd146102ae57806323b872dd146102d5578063313ce567146102ff578063395093511461032a5780635ab1bd531461034e57806370a082311461037f57806390d370ba146103a057806395d89b41146103c1578063a457c2d7146103d6578063a9059cbb146103fa578063cd6dc6871461041e578063dd62ed3e14610442578063eac5a01c14610469575b600080fd5b34801561010c57600080fd5b5061011561047e565b6040805160208082528351818301528351919283929083019185019080838360005b8381101561014f578181015183820152602001610137565b50505050905090810190601f16801561017c5780820380516001836020036101000a031916815260200191505b509250505060405180910390f35b34801561019657600080fd5b506101ae600160a060020a0360043516602435610515565b604080519115158252519081900360200190f35b3480156101ce57600080fd5b506101ae600160a060020a0360043516602435610594565b3480156101f257600080fd5b506040805160206004803580820135601f810184900484028501840190955284845261028294369492936024939284019190819084018382808284375050604080516020601f89358b018035918201839004830284018301909452808352979a9998810197919650918201945092508291508401838280828437509497505050923560ff16935061067492505050565b005b34801561029057600080fd5b50610282600160a060020a03600435811690602435166044356107ad565b3480156102ba57600080fd5b506102c3610948565b60408051918252519081900360200190f35b3480156102e157600080fd5b506101ae600160a060020a036004358116906024351660443561094e565b34801561030b57600080fd5b506103146109e3565b6040805160ff9092168252519081900360200190f35b34801561033657600080fd5b506101ae600160a060020a03600435166024356109ec565b34801561035a57600080fd5b50610363610a9c565b60408051600160a060020a039092168252519081900360200190f35b34801561038b57600080fd5b506102c3600160a060020a0360043516610aab565b3480156103ac57600080fd5b506101ae600160a060020a0360043516610ac6565b3480156103cd57600080fd5b50610115610b6e565b3480156103e257600080fd5b506101ae600160a060020a0360043516602435610bcf565b34801561040657600080fd5b506101ae600160a060020a0360043516602435610c1a565b34801561042a57600080fd5b50610282600160a060020a0360043516602435610ca3565b34801561044e57600080fd5b506102c3600160a060020a0360043581169060243516610dc0565b34801561047557600080fd5b506102c3610deb565b606a8054604080516020601f600260001961010060018816150201909516949094049384018190048102820181019092528281526060939092909183018282801561050a5780601f106104df5761010080835404028352916020019161050a565b820191906000526020600020905b8154815290600101906020018083116104ed57829003601f168201915b505050505090505b90565b6000600160a060020a038316151561052c57600080fd5b336000818152603460209081526040808320600160a060020a03881680855290835292819020869055805186815290519293927f8c5be1e5ebec7d5bd14f71427d1e84f3dd0314c0f7b2291e5b200ac8c7c3b925929181900390910190a35060015b92915050565b60006105a08383610df1565b1561066b577f850383053a4e0cc8b97828882fc80543c308bd075cc5bc454b28243814fa8846336105d033610aab565b856105da87610aab565b60408051600160a060020a0395861681526020810194909452919093168282015260608201929092526080810185905290519081900360a00190a160408051428152336020820152600160a060020a038516818301526060810184905290517f694d4af865c381294c69b304b233e65cd773b9dff4f5563d50d5424fe5a33c3e9181900360800190a150600161058e565b50600092915050565b60008054610100900460ff168061068e575061068e610f30565b8061069c575060005460ff16155b151561072f57604080517f08c379a000000000000000000000000000000000000000000000000000000000815260206004820152602e60248201527f436f6e747261637420696e7374616e63652068617320616c726561647920626560448201527f656e20696e697469616c697a6564000000000000000000000000000000000000606482015290519081900360840190fd5b5060008054600161010061ff00198316811760ff191691909117909255845191900460ff169061076690606a9060208701906112fe565b50825161077a90606b9060208601906112fe565b50606c805460ff90931660ff1990931692909217909155600080549115156101000261ff00199092169190911790555050565b6000805481908190610100900460ff16806107cb57506107cb610f30565b806107d9575060005460ff16155b151561086c57604080517f08c379a000000000000000000000000000000000000000000000000000000000815260206004820152602e60248201527f436f6e747261637420696e7374616e63652068617320616c726561647920626560448201527f656e20696e697469616c697a6564000000000000000000000000000000000000606482015290519081900360840190fd5b505060008054600161010061ff00198316811760ff19169190911790925560408051808201825260098082527f4445565f546f6b656e000000000000000000000000000000000000000000000060208084019190915283518085019094529083527f4445565f544f4b454e000000000000000000000000000000000000000000000090830152601294506b033b2e3c9fd0803ce80000009390920460ff16916109159185610674565b61091f8585610ca3565b6109298683610f3a565b600080549115156101000261ff00199092169190911790555050505050565b60355490565b600061095b848484610fe6565b156109d8577f850383053a4e0cc8b97828882fc80543c308bd075cc5bc454b28243814fa88468461098b86610aab565b8561099587610aab565b60408051600160a060020a0395861681526020810194909452919093168282015260608201929092526080810185905290519081900360a00190a15060016109dc565b5060005b9392505050565b606c5460ff1690565b6000600160a060020a0383161515610a0357600080fd5b336000908152603460209081526040808320600160a060020a0387168452909152902054610a37908363ffffffff61112e16565b336000818152603460209081526040808320600160a060020a0389168085529083529281902085905580519485525191937f8c5be1e5ebec7d5bd14f71427d1e84f3dd0314c0f7b2291e5b200ac8c7c3b925929081900390910190a350600192915050565b606854600160a060020a031690565b600160a060020a031660009081526033602052604090205490565b606854606954604080517f4b5f297a000000000000000000000000000000000000000000000000000000008152600160a060020a038581166004830152602482019390935290516000939290921691634b5f297a9160448082019260209290919082900301818787803b158015610b3c57600080fd5b505af1158015610b50573d6000803e3d6000fd5b505050506040513d6020811015610b6657600080fd5b505192915050565b606b8054604080516020601f600260001961010060018816150201909516949094049384018190048102820181019092528281526060939092909183018282801561050a5780601f106104df5761010080835404028352916020019161050a565b6000600160a060020a0383161515610be657600080fd5b336000908152603460209081526040808320600160a060020a0387168452909152902054610a37908363ffffffff61114016565b6000610c268383610df1565b1561066b577f850383053a4e0cc8b97828882fc80543c308bd075cc5bc454b28243814fa884633610c5633610aab565b85610c6087610aab565b60408051600160a060020a0395861681526020810194909452919093168282015260608201929092526080810185905290519081900360a00190a150600161058e565b60008054610100900460ff1680610cbd5750610cbd610f30565b80610ccb575060005460ff16155b1515610d5e57604080517f08c379a000000000000000000000000000000000000000000000000000000000815260206004820152602e60248201527f436f6e747261637420696e7374616e63652068617320616c726561647920626560448201527f656e20696e697469616c697a6564000000000000000000000000000000000000606482015290519081900360840190fd5b50600080546068805473ffffffffffffffffffffffffffffffffffffffff1916600160a060020a03959095169490941790935560699190915561ff001980831661010090811760ff19166001179091169281900460ff16151502919091179055565b600160a060020a03918216600090815260346020908152604080832093909416825291909152205490565b60695490565b606854606954604080517f4b5f297a000000000000000000000000000000000000000000000000000000008152600160a060020a038681166004830152602482019390935290516000939290921691634b5f297a9160448082019260209290919082900301818787803b158015610e6757600080fd5b505af1158015610e7b573d6000803e3d6000fd5b505050506040513d6020811015610e9157600080fd5b50511515610f2657604080517f08c379a000000000000000000000000000000000000000000000000000000000815260206004820152602b60248201527f5472616e73666572206661696c6564202d207265636569766572206973206e6f60448201527f7420617070726f7665642e000000000000000000000000000000000000000000606482015290519081900360840190fd5b6109dc8383611157565b303b8015905b5090565b600160a060020a0382161515610f4f57600080fd5b603554610f62908263ffffffff61112e16565b603555600160a060020a038216600090815260336020526040902054610f8e908263ffffffff61112e16565b600160a060020a03831660008181526033602090815260408083209490945583518581529351929391927fddf252ad1be2c89b69c2b068fc378daa952ba7f163c4a11628f55a4df523b3ef9281900390910190a35050565b606854606954604080517f4b5f297a000000000000000000000000000000000000000000000000000000008152600160a060020a038681166004830152602482019390935290516000939290921691634b5f297a9160448082019260209290919082900301818787803b15801561105c57600080fd5b505af1158015611070573d6000803e3d6000fd5b505050506040513d602081101561108657600080fd5b5051151561111b57604080517f08c379a000000000000000000000000000000000000000000000000000000000815260206004820152602b60248201527f5472616e73666572206661696c6564202d207265636569766572206973206e6f60448201527f7420617070726f7665642e000000000000000000000000000000000000000000606482015290519081900360840190fd5b61112684848461116d565b949350505050565b6000828201838110156109dc57600080fd5b6000808383111561115057600080fd5b5050900390565b600061116433848461120a565b50600192915050565b600160a060020a038316600090815260346020908152604080832033845290915281205482111561119d57600080fd5b600160a060020a03841660009081526034602090815260408083203384529091529020546111d1908363ffffffff61114016565b600160a060020a038516600090815260346020908152604080832033845290915290205561120084848461120a565b5060019392505050565b600160a060020a03831660009081526033602052604090205481111561122f57600080fd5b600160a060020a038216151561124457600080fd5b600160a060020a03831660009081526033602052604090205461126d908263ffffffff61114016565b600160a060020a0380851660009081526033602052604080822093909355908416815220546112a2908263ffffffff61112e16565b600160a060020a0380841660008181526033602090815260409182902094909455805185815290519193928716927fddf252ad1be2c89b69c2b068fc378daa952ba7f163c4a11628f55a4df523b3ef92918290030190a3505050565b828054600181600116156101000203166002900490600052602060002090601f016020900481019282601f1061133f57805160ff191683800117855561136c565b8280016001018555821561136c579182015b8281111561136c578251825591602001919060010190611351565b50610f36926105129250905b80821115610f3657600081556001016113785600a165627a7a72305820bf00328a4d5c5444bdf3a47898dbfb09e05d8b0fb394569e96ecc10e252ee71b0029",
  "source": "pragma solidity ^0.4.24;\n\nimport \"zos-lib/contracts/Initializable.sol\";\nimport \"openzeppelin-eth/contracts/token/ERC20/ERC20Detailed.sol\";\nimport \"tpl-contracts-eth/contracts/token/TPLRestrictedReceiverToken.sol\";\nimport \"./PropsSidechainCompatible.sol\";\n// import \"./ERC865Token.sol\";\n\n/**\n * @title PROPSToken\n * @dev PROPS token contract (based of ZEPToken by openzeppelin), a detailed ERC20 including pausable functionality.\n * The TPLToken integration causes tokens to only be transferrable to addresses\n * which have the validRecipient attribute in the jurisdiction.\n */\ncontract PropsToken is Initializable, TPLRestrictedReceiverToken, ERC20Detailed, PropsSidechainCompatible { /*, ERC865Token {*/\n\n  /**\n   * @dev Initializer function. Called only once when a proxy for the contract is created.\n   * @param _holder Address that will receive it's initial supply.\n   * @param _jurisdictionAddress AttributeRegistry used for the TPL jurisdiction of the token.\n   * @param _validRecipientAttributeId uint256 id that the TPL jurisdiction uses to control which addresses can receive the token.\n   */\n  function initialize(\n    address _holder,\n    AttributeRegistryInterface _jurisdictionAddress,\n    uint256 _validRecipientAttributeId\n  )\n    initializer\n    public\n  {\n    uint8 decimals = 18;\n    uint256 totalSupply = 1e9 * (10 ** uint256(decimals));\n    \n    ERC20Detailed.initialize(\"DEV_Token\", \"DEV_TOKEN\", decimals);\n    TPLRestrictedReceiverToken.initialize(_jurisdictionAddress, _validRecipientAttributeId);\n    _mint(_holder, totalSupply);\n  }\n\n}",
  "sourcePath": "/Users/jretina/Programming/PROPSProject/props-token-distribution/contracts/token/PropsToken.sol",
  "compiler": {
    "name": "solc",
    "version": "0.4.24+commit.e67f0147.Emscripten.clang"
  },
  "schemaVersion": "2.0.1",
  "updatedAt": "2019-01-24T08:21:27.622Z"
}