{
  "contractName": "PropsToken",
  "abi": [
    {
      "constant": true,
      "inputs": [],
      "name": "name",
      "outputs": [
        {
          "name": "",
          "type": "string"
        }
      ],
      "payable": false,
      "stateMutability": "view",
      "type": "function"
    },
    {
      "constant": false,
      "inputs": [
        {
          "name": "spender",
          "type": "address"
        },
        {
          "name": "value",
          "type": "uint256"
        }
      ],
      "name": "approve",
      "outputs": [
        {
          "name": "",
          "type": "bool"
        }
      ],
      "payable": false,
      "stateMutability": "nonpayable",
      "type": "function"
    },
    {
      "constant": false,
      "inputs": [
        {
          "name": "to",
          "type": "address"
        },
        {
          "name": "value",
          "type": "uint256"
        }
      ],
      "name": "settle",
      "outputs": [
        {
          "name": "",
          "type": "bool"
        }
      ],
      "payable": false,
      "stateMutability": "nonpayable",
      "type": "function"
    },
    {
      "constant": true,
      "inputs": [],
      "name": "totalSupply",
      "outputs": [
        {
          "name": "",
          "type": "uint256"
        }
      ],
      "payable": false,
      "stateMutability": "view",
      "type": "function"
    },
    {
      "constant": false,
      "inputs": [
        {
          "name": "from",
          "type": "address"
        },
        {
          "name": "to",
          "type": "address"
        },
        {
          "name": "value",
          "type": "uint256"
        }
      ],
      "name": "transferFrom",
      "outputs": [
        {
          "name": "",
          "type": "bool"
        }
      ],
      "payable": false,
      "stateMutability": "nonpayable",
      "type": "function"
    },
    {
      "constant": true,
      "inputs": [],
      "name": "decimals",
      "outputs": [
        {
          "name": "",
          "type": "uint8"
        }
      ],
      "payable": false,
      "stateMutability": "view",
      "type": "function"
    },
    {
      "constant": false,
      "inputs": [
        {
          "name": "spender",
          "type": "address"
        },
        {
          "name": "addedValue",
          "type": "uint256"
        }
      ],
      "name": "increaseAllowance",
      "outputs": [
        {
          "name": "",
          "type": "bool"
        }
      ],
      "payable": false,
      "stateMutability": "nonpayable",
      "type": "function"
    },
    {
      "constant": true,
      "inputs": [],
      "name": "canTransferBeforeStartTime",
      "outputs": [
        {
          "name": "",
          "type": "address"
        }
      ],
      "payable": false,
      "stateMutability": "view",
      "type": "function"
    },
    {
      "constant": true,
      "inputs": [
        {
          "name": "owner",
          "type": "address"
        }
      ],
      "name": "balanceOf",
      "outputs": [
        {
          "name": "",
          "type": "uint256"
        }
      ],
      "payable": false,
      "stateMutability": "view",
      "type": "function"
    },
    {
      "constant": true,
      "inputs": [
        {
          "name": "account",
          "type": "address"
        }
      ],
      "name": "canTransfer",
      "outputs": [
        {
          "name": "",
          "type": "bool"
        }
      ],
      "payable": false,
      "stateMutability": "view",
      "type": "function"
    },
    {
      "constant": true,
      "inputs": [],
      "name": "symbol",
      "outputs": [
        {
          "name": "",
          "type": "string"
        }
      ],
      "payable": false,
      "stateMutability": "view",
      "type": "function"
    },
    {
      "constant": false,
      "inputs": [
        {
          "name": "spender",
          "type": "address"
        },
        {
          "name": "subtractedValue",
          "type": "uint256"
        }
      ],
      "name": "decreaseAllowance",
      "outputs": [
        {
          "name": "",
          "type": "bool"
        }
      ],
      "payable": false,
      "stateMutability": "nonpayable",
      "type": "function"
    },
    {
      "constant": false,
      "inputs": [
        {
          "name": "to",
          "type": "address"
        },
        {
          "name": "value",
          "type": "uint256"
        }
      ],
      "name": "transfer",
      "outputs": [
        {
          "name": "",
          "type": "bool"
        }
      ],
      "payable": false,
      "stateMutability": "nonpayable",
      "type": "function"
    },
    {
      "constant": true,
      "inputs": [],
      "name": "transfersStartTime",
      "outputs": [
        {
          "name": "",
          "type": "uint256"
        }
      ],
      "payable": false,
      "stateMutability": "view",
      "type": "function"
    },
    {
      "constant": true,
      "inputs": [
        {
          "name": "owner",
          "type": "address"
        },
        {
          "name": "spender",
          "type": "address"
        }
      ],
      "name": "allowance",
      "outputs": [
        {
          "name": "",
          "type": "uint256"
        }
      ],
      "payable": false,
      "stateMutability": "view",
      "type": "function"
    },
    {
      "anonymous": false,
      "inputs": [
        {
          "indexed": false,
          "name": "from",
          "type": "address"
        },
        {
          "indexed": false,
          "name": "fromBalance",
          "type": "uint256"
        },
        {
          "indexed": false,
          "name": "to",
          "type": "address"
        },
        {
          "indexed": false,
          "name": "toBalance",
          "type": "uint256"
        },
        {
          "indexed": false,
          "name": "amount",
          "type": "uint256"
        }
      ],
      "name": "TransferDetails",
      "type": "event"
    },
    {
      "anonymous": false,
      "inputs": [
        {
          "indexed": false,
          "name": "timestamp",
          "type": "uint256"
        },
        {
          "indexed": false,
          "name": "from",
          "type": "address"
        },
        {
          "indexed": false,
          "name": "recipient",
          "type": "address"
        },
        {
          "indexed": false,
          "name": "amount",
          "type": "uint256"
        }
      ],
      "name": "Settlement",
      "type": "event"
    },
    {
      "anonymous": false,
      "inputs": [
        {
          "indexed": true,
          "name": "from",
          "type": "address"
        },
        {
          "indexed": true,
          "name": "to",
          "type": "address"
        },
        {
          "indexed": false,
          "name": "value",
          "type": "uint256"
        }
      ],
      "name": "Transfer",
      "type": "event"
    },
    {
      "anonymous": false,
      "inputs": [
        {
          "indexed": true,
          "name": "owner",
          "type": "address"
        },
        {
          "indexed": true,
          "name": "spender",
          "type": "address"
        },
        {
          "indexed": false,
          "name": "value",
          "type": "uint256"
        }
      ],
      "name": "Approval",
      "type": "event"
    },
    {
      "constant": false,
      "inputs": [
        {
          "name": "name",
          "type": "string"
        },
        {
          "name": "symbol",
          "type": "string"
        },
        {
          "name": "decimals",
          "type": "uint8"
        }
      ],
      "name": "initialize",
      "outputs": [],
      "payable": false,
      "stateMutability": "nonpayable",
      "type": "function"
    },
    {
      "constant": false,
      "inputs": [
        {
          "name": "_holder",
          "type": "address"
        },
        {
          "name": "_transfersStartTime",
          "type": "uint256"
        }
      ],
      "name": "initialize",
      "outputs": [],
      "payable": false,
      "stateMutability": "nonpayable",
      "type": "function"
    },
    {
      "constant": false,
      "inputs": [
        {
          "name": "start",
          "type": "uint256"
        },
        {
          "name": "account",
          "type": "address"
        }
      ],
      "name": "initialize",
      "outputs": [],
      "payable": false,
      "stateMutability": "nonpayable",
      "type": "function"
    }
  ],
  "bytecode": "0x608060405234801561001057600080fd5b506111b2806100206000396000f3006080604052600436106100fb5763ffffffff7c010000000000000000000000000000000000000000000000000000000060003504166306fdde038114610100578063095ea7b31461018a57806315afd409146101c25780631624f6c6146101e657806318160ddd1461028457806323b872dd146102ab578063313ce567146102d5578063395093511461030057806345b6d7dc1461032457806370a082311461035557806378fc3cb31461037657806395d89b4114610397578063a457c2d7146103ac578063a9059cbb146103d0578063cd6dc687146103f4578063d0f22e9c14610418578063da35a26f1461042d578063dd62ed3e14610451575b600080fd5b34801561010c57600080fd5b50610115610478565b6040805160208082528351818301528351919283929083019185019080838360005b8381101561014f578181015183820152602001610137565b50505050905090810190601f16801561017c5780820380516001836020036101000a031916815260200191505b509250505060405180910390f35b34801561019657600080fd5b506101ae600160a060020a036004351660243561050f565b604080519115158252519081900360200190f35b3480156101ce57600080fd5b506101ae600160a060020a036004351660243561058e565b3480156101f257600080fd5b506040805160206004803580820135601f810184900484028501840190955284845261028294369492936024939284019190819084018382808284375050604080516020601f89358b018035918201839004830284018301909452808352979a9998810197919650918201945092508291508401838280828437509497505050923560ff16935061066e92505050565b005b34801561029057600080fd5b506102996107a7565b60408051918252519081900360200190f35b3480156102b757600080fd5b506101ae600160a060020a03600435811690602435166044356107ad565b3480156102e157600080fd5b506102ea61083a565b6040805160ff9092168252519081900360200190f35b34801561030c57600080fd5b506101ae600160a060020a0360043516602435610843565b34801561033057600080fd5b506103396108f3565b60408051600160a060020a039092168252519081900360200190f35b34801561036157600080fd5b50610299600160a060020a0360043516610902565b34801561038257600080fd5b506101ae600160a060020a036004351661091d565b3480156103a357600080fd5b5061011561093f565b3480156103b857600080fd5b506101ae600160a060020a03600435166024356109a0565b3480156103dc57600080fd5b506101ae600160a060020a03600435166024356109eb565b34801561040057600080fd5b50610282600160a060020a0360043516602435610a6d565b34801561042457600080fd5b50610299610c07565b34801561043957600080fd5b50610282600435600160a060020a0360243516610c0d565b34801561045d57600080fd5b50610299600160a060020a0360043581169060243516610d2a565b60338054604080516020601f60026000196101006001881615020190951694909404938401819004810282018101909252828152606093909290918301828280156105045780601f106104d957610100808354040283529160200191610504565b820191906000526020600020905b8154815290600101906020018083116104e757829003601f168201915b505050505090505b90565b6000600160a060020a038316151561052657600080fd5b336000818152606960209081526040808320600160a060020a03881680855290835292819020869055805186815290519293927f8c5be1e5ebec7d5bd14f71427d1e84f3dd0314c0f7b2291e5b200ac8c7c3b925929181900390910190a35060015b92915050565b600061059a8383610d55565b15610665577f850383053a4e0cc8b97828882fc80543c308bd075cc5bc454b28243814fa8846336105ca33610902565b856105d487610902565b60408051600160a060020a0395861681526020810194909452919093168282015260608201929092526080810185905290519081900360a00190a160408051428152336020820152600160a060020a038516818301526060810184905290517f694d4af865c381294c69b304b233e65cd773b9dff4f5563d50d5424fe5a33c3e9181900360800190a1506001610588565b50600092915050565b60008054610100900460ff16806106885750610688610d6b565b80610696575060005460ff16155b151561072957604080517f08c379a000000000000000000000000000000000000000000000000000000000815260206004820152602e60248201527f436f6e747261637420696e7374616e63652068617320616c726561647920626560448201527f656e20696e697469616c697a6564000000000000000000000000000000000000606482015290519081900360840190fd5b5060008054600161010061ff00198316811760ff191691909117909255845191900460ff16906107609060339060208701906110f8565b5082516107749060349060208601906110f8565b506035805460ff90931660ff1990931692909217909155600080549115156101000261ff00199092169190911790555050565b606a5490565b60006107b83361091d565b151561082557604080517f08c379a000000000000000000000000000000000000000000000000000000000815260206004820152601c60248201527f5472616e736665727320617265206e6f74207965742061637469766500000000604482015290519081900360640190fd5b610830848484610d75565b90505b9392505050565b60355460ff1690565b6000600160a060020a038316151561085a57600080fd5b336000908152606960209081526040808320600160a060020a038716845290915290205461088e908363ffffffff610e0916565b336000818152606960209081526040808320600160a060020a0389168085529083529281902085905580519485525191937f8c5be1e5ebec7d5bd14f71427d1e84f3dd0314c0f7b2291e5b200ac8c7c3b925929081900390910190a350600192915050565b609e54600160a060020a031681565b600160a060020a031660009081526068602052604090205490565b6000609d54421180610588575050609e54600160a060020a0390811691161490565b60348054604080516020601f60026000196101006001881615020190951694909404938401819004810282018101909252828152606093909290918301828280156105045780601f106104d957610100808354040283529160200191610504565b6000600160a060020a03831615156109b757600080fd5b336000908152606960209081526040808320600160a060020a038716845290915290205461088e908363ffffffff610e1b16565b60006109f63361091d565b1515610a6357604080517f08c379a000000000000000000000000000000000000000000000000000000000815260206004820152601c60248201527f5472616e736665727320617265206e6f74207965742061637469766500000000604482015290519081900360640190fd5b6108338383610e32565b6000805481908190610100900460ff1680610a8b5750610a8b610d6b565b80610a99575060005460ff16155b1515610b2c57604080517f08c379a000000000000000000000000000000000000000000000000000000000815260206004820152602e60248201527f436f6e747261637420696e7374616e63652068617320616c726561647920626560448201527f656e20696e697469616c697a6564000000000000000000000000000000000000606482015290519081900360840190fd5b505060008054600161010061ff00198316811760ff19169190911790925560408051808201825260098082527f4445565f546f6b656e000000000000000000000000000000000000000000000060208084019190915283518085019094529083527f4445565f544f4b454e000000000000000000000000000000000000000000000090830152601294506b033b2e3c9fd0803ce80000009390920460ff1691610bd5918561066e565b610bdf8486610c0d565b610be98583610ebb565b600080549115156101000261ff001990921691909117905550505050565b609d5481565b60008054610100900460ff1680610c275750610c27610d6b565b80610c35575060005460ff16155b1515610cc857604080517f08c379a000000000000000000000000000000000000000000000000000000000815260206004820152602e60248201527f436f6e747261637420696e7374616e63652068617320616c726561647920626560448201527f656e20696e697469616c697a6564000000000000000000000000000000000000606482015290519081900360840190fd5b5060008054609d93909355609e805473ffffffffffffffffffffffffffffffffffffffff1916600160a060020a03939093169290921790915561ff001980831661010090811760ff19166001179091169281900460ff16151502919091179055565b600160a060020a03918216600090815260696020908152604080832093909416825291909152205490565b6000610d62338484610f67565b50600192915050565b303b8015905b5090565b6000610d8284848461105b565b15610dff577f850383053a4e0cc8b97828882fc80543c308bd075cc5bc454b28243814fa884684610db286610902565b85610dbc87610902565b60408051600160a060020a0395861681526020810194909452919093168282015260608201929092526080810185905290519081900360a00190a1506001610833565b5060009392505050565b60008282018381101561083357600080fd5b60008083831115610e2b57600080fd5b5050900390565b6000610e3e8383610d55565b15610665577f850383053a4e0cc8b97828882fc80543c308bd075cc5bc454b28243814fa884633610e6e33610902565b85610e7887610902565b60408051600160a060020a0395861681526020810194909452919093168282015260608201929092526080810185905290519081900360a00190a1506001610588565b600160a060020a0382161515610ed057600080fd5b606a54610ee3908263ffffffff610e0916565b606a55600160a060020a038216600090815260686020526040902054610f0f908263ffffffff610e0916565b600160a060020a03831660008181526068602090815260408083209490945583518581529351929391927fddf252ad1be2c89b69c2b068fc378daa952ba7f163c4a11628f55a4df523b3ef9281900390910190a35050565b600160a060020a038316600090815260686020526040902054811115610f8c57600080fd5b600160a060020a0382161515610fa157600080fd5b600160a060020a038316600090815260686020526040902054610fca908263ffffffff610e1b16565b600160a060020a038085166000908152606860205260408082209390935590841681522054610fff908263ffffffff610e0916565b600160a060020a0380841660008181526068602090815260409182902094909455805185815290519193928716927fddf252ad1be2c89b69c2b068fc378daa952ba7f163c4a11628f55a4df523b3ef92918290030190a3505050565b600160a060020a038316600090815260696020908152604080832033845290915281205482111561108b57600080fd5b600160a060020a03841660009081526069602090815260408083203384529091529020546110bf908363ffffffff610e1b16565b600160a060020a03851660009081526069602090815260408083203384529091529020556110ee848484610f67565b5060019392505050565b828054600181600116156101000203166002900490600052602060002090601f016020900481019282601f1061113957805160ff1916838001178555611166565b82800160010185558215611166579182015b8281111561116657825182559160200191906001019061114b565b50610d719261050c9250905b80821115610d7157600081556001016111725600a165627a7a72305820ea9915ac5671aae1833a2844560c452b92295c7481e511b565d23e662d9f21080029",
  "source": "pragma solidity ^0.4.24;\n\nimport \"zos-lib/contracts/Initializable.sol\";\nimport \"openzeppelin-eth/contracts/token/ERC20/ERC20Detailed.sol\";\nimport \"./PropsSidechainCompatible.sol\";\nimport \"./PropsTimeBasedTransfers.sol\";\n// import \"./ERC865Token.sol\";\n\n/**\n * @title PROPSToken\n * @dev PROPS token contract (based of ZEPToken by openzeppelin), a detailed ERC20 including pausable functionality.\n * The TPLToken integration causes tokens to only be transferrable to addresses\n * which have the validRecipient attribute in the jurisdiction.\n */\ncontract PropsToken is Initializable, ERC20Detailed, PropsSidechainCompatible, PropsTimeBasedTransfers { /*, ERC865Token {*/\n\n  /**\n   * @dev Initializer function. Called only once when a proxy for the contract is created.\n   * @param _holder Address that will receive it's initial supply and be able to transfer before transfers start time\n   * @param _transfersStartTime Timestamp from which transfers are allowed   \n   */\n  function initialize(\n    address _holder,\n    uint _transfersStartTime\n  )\n    initializer\n    public\n  {\n    uint8 decimals = 18;\n    uint256 totalSupply = 1e9 * (10 ** uint256(decimals));\n    \n    ERC20Detailed.initialize(\"DEV_Token\", \"DEV_TOKEN\", decimals);\n    PropsTimeBasedTransfers.initialize(_transfersStartTime, _holder);    \n    _mint(_holder, totalSupply);\n  }\n\n}",
  "sourcePath": "/Users/jretina/Programming/PROPSProject/props-token-distribution/contracts/token/PropsToken.sol",
  "compiler": {
    "name": "solc",
    "version": "0.4.24+commit.e67f0147.Emscripten.clang"
  },
  "schemaVersion": "2.0.1",
  "updatedAt": "2019-01-27T18:51:25.666Z"
}