{
  "contractName": "PropsRewardsLib",
  "abi": [
    {
      "anonymous": false,
      "inputs": [
        {
          "indexed": false,
          "name": "entires",
          "type": "uint256"
        }
      ],
      "name": "DailyRewardsDataPruned",
      "type": "event"
    },
    {
      "constant": true,
      "inputs": [
        {
          "name": "_self",
          "type": "PropsRewardsLib.Data storage"
        },
        {
          "name": "_rewardsDay",
          "type": "uint256"
        },
        {
          "name": "_rewardsHash",
          "type": "bytes32"
        },
        {
          "name": "_allValidators",
          "type": "bool"
        }
      ],
      "name": "calculateValidatorRewards",
      "outputs": [
        {
          "name": "",
          "type": "uint256"
        }
      ],
      "payable": false,
      "stateMutability": "view",
      "type": "function"
    },
    {
      "constant": false,
      "inputs": [
        {
          "name": "_self",
          "type": "PropsRewardsLib.Data storage"
        },
        {
          "name": "_rewardsDay",
          "type": "uint256"
        },
        {
          "name": "_rewardsHash",
          "type": "bytes32"
        },
        {
          "name": "_applications",
          "type": "address[]"
        },
        {
          "name": "_amounts",
          "type": "uint256[]"
        },
        {
          "name": "_currentTotalSupply",
          "type": "uint256"
        }
      ],
      "name": "calculateApplicationRewards",
      "outputs": [
        {
          "name": "",
          "type": "uint256"
        }
      ],
      "payable": false,
      "stateMutability": "nonpayable",
      "type": "function"
    },
    {
      "constant": false,
      "inputs": [
        {
          "name": "_self",
          "type": "PropsRewardsLib.Data storage"
        },
        {
          "name": "_rewardsDay",
          "type": "uint256"
        },
        {
          "name": "_rewardsHash",
          "type": "bytes32"
        },
        {
          "name": "_currentTotalSupply",
          "type": "uint256"
        }
      ],
      "name": "_finalizeDailyApplicationRewards",
      "outputs": [
        {
          "name": "",
          "type": "bool"
        }
      ],
      "payable": false,
      "stateMutability": "nonpayable",
      "type": "function"
    },
    {
      "constant": true,
      "inputs": [
        {
          "name": "_self",
          "type": "PropsRewardsLib.Data storage"
        },
        {
          "name": "_name",
          "type": "PropsRewardsLib.ParameterName"
        },
        {
          "name": "_rewardsDay",
          "type": "uint256"
        }
      ],
      "name": "getParameterValue",
      "outputs": [
        {
          "name": "",
          "type": "uint256"
        }
      ],
      "payable": false,
      "stateMutability": "view",
      "type": "function"
    },
    {
      "constant": false,
      "inputs": [
        {
          "name": "_self",
          "type": "PropsRewardsLib.Data storage"
        },
        {
          "name": "_name",
          "type": "PropsRewardsLib.ParameterName"
        },
        {
          "name": "_value",
          "type": "uint256"
        },
        {
          "name": "_rewardsDay",
          "type": "uint256"
        }
      ],
      "name": "updateParameter",
      "outputs": [
        {
          "name": "",
          "type": "bool"
        }
      ],
      "payable": false,
      "stateMutability": "nonpayable",
      "type": "function"
    },
    {
      "constant": false,
      "inputs": [
        {
          "name": "_self",
          "type": "PropsRewardsLib.Data storage"
        },
        {
          "name": "_entityType",
          "type": "PropsRewardsLib.RewardedEntityType"
        },
        {
          "name": "_name",
          "type": "bytes32"
        },
        {
          "name": "_rewardsAddress",
          "type": "address"
        },
        {
          "name": "_sidechainAddress",
          "type": "address"
        }
      ],
      "name": "updateEntity",
      "outputs": [
        {
          "name": "",
          "type": "bool"
        }
      ],
      "payable": false,
      "stateMutability": "nonpayable",
      "type": "function"
    },
    {
      "constant": false,
      "inputs": [
        {
          "name": "_self",
          "type": "PropsRewardsLib.Data storage"
        },
        {
          "name": "_name",
          "type": "bytes32"
        },
        {
          "name": "_rewardsAddress",
          "type": "address"
        },
        {
          "name": "_sidechainAddress",
          "type": "address"
        }
      ],
      "name": "updateApplication",
      "outputs": [
        {
          "name": "",
          "type": "uint256"
        }
      ],
      "payable": false,
      "stateMutability": "nonpayable",
      "type": "function"
    },
    {
      "constant": false,
      "inputs": [
        {
          "name": "_self",
          "type": "PropsRewardsLib.Data storage"
        },
        {
          "name": "_name",
          "type": "bytes32"
        },
        {
          "name": "_rewardsAddress",
          "type": "address"
        },
        {
          "name": "_sidechainAddress",
          "type": "address"
        }
      ],
      "name": "updateValidator",
      "outputs": [
        {
          "name": "",
          "type": "uint256"
        }
      ],
      "payable": false,
      "stateMutability": "nonpayable",
      "type": "function"
    },
    {
      "constant": false,
      "inputs": [
        {
          "name": "_self",
          "type": "PropsRewardsLib.Data storage"
        },
        {
          "name": "_rewardsDay",
          "type": "uint256"
        },
        {
          "name": "_validators",
          "type": "address[]"
        }
      ],
      "name": "setValidators",
      "outputs": [
        {
          "name": "",
          "type": "bool"
        }
      ],
      "payable": false,
      "stateMutability": "nonpayable",
      "type": "function"
    },
    {
      "constant": false,
      "inputs": [
        {
          "name": "_self",
          "type": "PropsRewardsLib.Data storage"
        },
        {
          "name": "_rewardsDay",
          "type": "uint256"
        },
        {
          "name": "_applications",
          "type": "address[]"
        }
      ],
      "name": "setApplications",
      "outputs": [
        {
          "name": "",
          "type": "bool"
        }
      ],
      "payable": false,
      "stateMutability": "nonpayable",
      "type": "function"
    },
    {
      "constant": true,
      "inputs": [
        {
          "name": "_self",
          "type": "PropsRewardsLib.Data storage"
        },
        {
          "name": "_entityType",
          "type": "PropsRewardsLib.RewardedEntityType"
        },
        {
          "name": "_rewardsDay",
          "type": "uint256"
        }
      ],
      "name": "getEntities",
      "outputs": [
        {
          "name": "",
          "type": "address[]"
        }
      ],
      "payable": false,
      "stateMutability": "view",
      "type": "function"
    },
    {
      "constant": true,
      "inputs": [
        {
          "name": "_self",
          "type": "PropsRewardsLib.Data storage"
        },
        {
          "name": "_rewardsDay",
          "type": "uint256"
        },
        {
          "name": "_currentTotalSupply",
          "type": "uint256"
        }
      ],
      "name": "_getMaxAppRewardsDailyAmount",
      "outputs": [
        {
          "name": "",
          "type": "uint256"
        }
      ],
      "payable": false,
      "stateMutability": "view",
      "type": "function"
    },
    {
      "constant": true,
      "inputs": [
        {
          "name": "_self",
          "type": "PropsRewardsLib.Data storage"
        },
        {
          "name": "_rewardsDay",
          "type": "uint256"
        },
        {
          "name": "_numOfValidators",
          "type": "uint256"
        },
        {
          "name": "_currentTotalSupply",
          "type": "uint256"
        }
      ],
      "name": "_getValidatorRewardsDailyAmountPerValidator",
      "outputs": [
        {
          "name": "",
          "type": "uint256"
        }
      ],
      "payable": false,
      "stateMutability": "view",
      "type": "function"
    },
    {
      "constant": true,
      "inputs": [
        {
          "name": "_self",
          "type": "PropsRewardsLib.Data storage"
        },
        {
          "name": "_applications",
          "type": "address[]"
        },
        {
          "name": "_amounts",
          "type": "uint256[]"
        }
      ],
      "name": "_validateSubmittedData",
      "outputs": [
        {
          "name": "",
          "type": "uint256"
        }
      ],
      "payable": false,
      "stateMutability": "view",
      "type": "function"
    },
    {
      "constant": true,
      "inputs": [
        {
          "name": "_rewardsDay",
          "type": "uint256"
        },
        {
          "name": "_rewardsHash",
          "type": "bytes32"
        },
        {
          "name": "_applications",
          "type": "address[]"
        },
        {
          "name": "_amounts",
          "type": "uint256[]"
        }
      ],
      "name": "_rewardHashIsvalid",
      "outputs": [
        {
          "name": "",
          "type": "bool"
        }
      ],
      "payable": false,
      "stateMutability": "pure",
      "type": "function"
    },
    {
      "constant": true,
      "inputs": [
        {
          "name": "_self",
          "type": "PropsRewardsLib.Data storage"
        },
        {
          "name": "_rewardsDay",
          "type": "uint256"
        }
      ],
      "name": "_requiredValidatorsForValidatorsRewards",
      "outputs": [
        {
          "name": "",
          "type": "uint256"
        }
      ],
      "payable": false,
      "stateMutability": "view",
      "type": "function"
    },
    {
      "constant": true,
      "inputs": [
        {
          "name": "_self",
          "type": "PropsRewardsLib.Data storage"
        },
        {
          "name": "_rewardsDay",
          "type": "uint256"
        }
      ],
      "name": "_requiredValidatorsForAppRewards",
      "outputs": [
        {
          "name": "",
          "type": "uint256"
        }
      ],
      "payable": false,
      "stateMutability": "view",
      "type": "function"
    },
    {
      "constant": true,
      "inputs": [
        {
          "name": "_self",
          "type": "PropsRewardsLib.Data storage"
        }
      ],
      "name": "_currentRewardsDay",
      "outputs": [
        {
          "name": "",
          "type": "uint256"
        }
      ],
      "payable": false,
      "stateMutability": "view",
      "type": "function"
    },
    {
      "constant": false,
      "inputs": [
        {
          "name": "_self",
          "type": "PropsRewardsLib.Data storage"
        }
      ],
      "name": "_resetDailyRewards",
      "outputs": [
        {
          "name": "",
          "type": "bool"
        }
      ],
      "payable": false,
      "stateMutability": "nonpayable",
      "type": "function"
    }
  ],
  "bytecode": "0x6134be610030600b82828239805160001a6073146000811461002057610022565bfe5b5030600052607381538281f300730000000000000000000000000000000000000000301460806040526004361061011e576000357c0100000000000000000000000000000000000000000000000000000000900463ffffffff1680630e2950711461012357806311cb33da146101b257806314a68c38146102185780633f065dc91461027057806346e3a2981461032a5780634daa8225146103ca57806363cad06a146104b35780637bf9067f1461054557806389932735146106115780639dec8c451461069d578063a352a57d146106e2578063a4143f8314610720578063c3ac1c781461075e578063cc1b8c9c146107c5578063d81b705014610857578063e2c593d3146108a2578063e3dbf5e314610931578063e8fc02ab14610979578063f48783f4146109ad575b600080fd5b81801561012f57600080fd5b5061019c600480360381019080803590602001909291908035600019169060200190929190803573ffffffffffffffffffffffffffffffffffffffff169060200190929190803573ffffffffffffffffffffffffffffffffffffffff1690602001909291905050506109ff565b6040518082815260200191505060405180910390f35b8180156101be57600080fd5b506101fe60048036038101908080359060200190929190803560ff1690602001909291908035906020019092919080359060200190929190505050610cd0565b604051808215151515815260200191505060405180910390f35b61025a60048036038101908080359060200190929190803590602001909291908035600019169060200190929190803515159060200190929190505050610e7e565b6040518082815260200191505060405180910390f35b610314600480360381019080803590602001909291908035906020019082018035906020019080806020026020016040519081016040528093929190818152602001838360200280828437820191505050505050919291929080359060200190820180359060200190808060200260200160405190810160405280939291908181526020018383602002808284378201915050505050509192919290505050610f4d565b6040518082815260200191505060405180910390f35b81801561033657600080fd5b506103b060048036038101908080359060200190929190803560ff1690602001909291908035600019169060200190929190803573ffffffffffffffffffffffffffffffffffffffff169060200190929190803573ffffffffffffffffffffffffffffffffffffffff1690602001909291905050506110ac565b604051808215151515815260200191505060405180910390f35b8180156103d657600080fd5b5061049d60048036038101908080359060200190929190803590602001909291908035600019169060200190929190803590602001908201803590602001908080602002602001604051908101604052809392919081815260200183836020028082843782019150505050505091929192908035906020019082018035906020019080806020026020016040519081016040528093929190818152602001838360200280828437820191505050505050919291929080359060200190929190505050611202565b6040518082815260200191505060405180910390f35b8180156104bf57600080fd5b5061052b600480360381019080803590602001909291908035906020019092919080359060200190820180359060200190808060200260200160405190810160405280939291908181526020018383602002808284378201915050505050509192919290505050611a0c565b604051808215151515815260200191505060405180910390f35b6105f76004803603810190808035906020019092919080356000191690602001909291908035906020019082018035906020019080806020026020016040519081016040528093929190818152602001838360200280828437820191505050505050919291929080359060200190820180359060200190808060200260200160405190810160405280939291908181526020018383602002808284378201915050505050509192919290505050611bef565b604051808215151515815260200191505060405180910390f35b61064660048036038101908080359060200190929190803560ff16906020019092919080359060200190929190505050611cf1565b6040518080602001828103825283818151815260200191508051906020019060200280838360005b8381101561068957808201518184015260208101905061066e565b505050509050019250505060405180910390f35b8180156106a957600080fd5b506106c8600480360381019080803590602001909291905050506121ef565b604051808215151515815260200191505060405180910390f35b61070a60048036038101908080359060200190929190803590602001909291905050506124dd565b6040518082815260200191505060405180910390f35b610748600480360381019080803590602001909291908035906020019092919050505061264b565b6040518082815260200191505060405180910390f35b81801561076a57600080fd5b506107ab60048036038101908080359060200190929190803590602001909291908035600019169060200190929190803590602001909291905050506127f7565b604051808215151515815260200191505060405180910390f35b8180156107d157600080fd5b5061083d600480360381019080803590602001909291908035906020019092919080359060200190820180359060200190808060200260200160405190810160405280939291908181526020018383602002808284378201915050505050509192919290505050612856565b604051808215151515815260200191505060405180910390f35b61088c60048036038101908080359060200190929190803560ff16906020019092919080359060200190929190505050612a39565b6040518082815260200191505060405180910390f35b8180156108ae57600080fd5b5061091b600480360381019080803590602001909291908035600019169060200190929190803573ffffffffffffffffffffffffffffffffffffffff169060200190929190803573ffffffffffffffffffffffffffffffffffffffff169060200190929190505050612ac0565b6040518082815260200191505060405180910390f35b610963600480360381019080803590602001909291908035906020019092919080359060200190929190505050612d92565b6040518082815260200191505060405180910390f35b61099760048036038101908080359060200190929190505050612dd0565b6040518082815260200191505060405180910390f35b6109e960048036038101908080359060200190929190803590602001909291908035906020019092919080359060200190929190505050612e00565b6040518082815260200191505060405180910390f35b6000838560020160003373ffffffffffffffffffffffffffffffffffffffff1673ffffffffffffffffffffffffffffffffffffffff1681526020019081526020016000206000018160001916905550828560020160003373ffffffffffffffffffffffffffffffffffffffff1673ffffffffffffffffffffffffffffffffffffffff16815260200190815260200160002060010160006101000a81548173ffffffffffffffffffffffffffffffffffffffff021916908373ffffffffffffffffffffffffffffffffffffffff160217905550818560020160003373ffffffffffffffffffffffffffffffffffffffff1673ffffffffffffffffffffffffffffffffffffffff16815260200190815260200160002060020160006101000a81548173ffffffffffffffffffffffffffffffffffffffff021916908373ffffffffffffffffffffffffffffffffffffffff16021790555060008560020160003373ffffffffffffffffffffffffffffffffffffffff1673ffffffffffffffffffffffffffffffffffffffff168152602001908152602001600020600301541415610cba57846003013390806001815401808255809150509060018203906000526020600020016000909192909190916101000a81548173ffffffffffffffffffffffffffffffffffffffff021916908373ffffffffffffffffffffffffffffffffffffffff1602179055505060018560020160003373ffffffffffffffffffffffffffffffffffffffff1673ffffffffffffffffffffffffffffffffffffffff1681526020019081526020016000206003018190555060018560020160003373ffffffffffffffffffffffffffffffffffffffff1673ffffffffffffffffffffffffffffffffffffffff16815260200190815260200160002060040160006101000a81548160ff02191690836001811115610cb457fe5b02179055505b600180811115610cc657fe5b9050949350505050565b6000848280610cde83612dd0565b141515610d53576040517f08c379a00000000000000000000000000000000000000000000000000000000081526004018080602001828103825260178152602001807f4d75737420626520666f722063757272656e742064617900000000000000000081525060200191505060405180910390fd5b866004016000876003811115610d6557fe5b81526020019081526020016000206002015484111515610dd45784876004016000886003811115610d9257fe5b81526020019081526020016000206000018190555083876004016000886003811115610dba57fe5b815260200190815260200160002060020181905550610e70565b866004016000876003811115610de657fe5b815260200190815260200160002060000154876004016000886003811115610e0a57fe5b81526020019081526020016000206001018190555084876004016000886003811115610e3257fe5b81526020019081526020016000206000018190555083876004016000886003811115610e5a57fe5b8152602001908152602001600020600201819055505b600192505050949350505050565b6000806000600187600f0160000160008760001916600019168152602001908152602001600020600301541415610f3e578315610efa57610ebf87876124dd565b915086600f016000016000866000191660001916815260200190815260200160002060020154821115610ef55760009250610f43565b610f21565b86600f01600001600086600019166000191681526020019081526020016000206002015491505b610f348787848a600f0160020154612e00565b9050809250610f43565b600092505b5050949350505050565b60008060008060019150600090505b8451811015610ff8578481815181101515610f7357fe5b906020019060200201518301925060018760000160008884815181101515610f9757fe5b9060200190602002015173ffffffffffffffffffffffffffffffffffffffff1673ffffffffffffffffffffffffffffffffffffffff16815260200190815260200160002060030154141515610feb57600091505b8080600101915050610f5c565b6000831180156110055750815b151561109f576040517f08c379a00000000000000000000000000000000000000000000000000000000081526004018080602001828103825260278152602001807f53756d207a65726f206f72206e6f6e65206578697374696e672061707020737581526020017f626d69747465640000000000000000000000000000000000000000000000000081525060400191505060405180910390fd5b8293505050509392505050565b60008282600073ffffffffffffffffffffffffffffffffffffffff168273ffffffffffffffffffffffffffffffffffffffff161415801561111a5750600073ffffffffffffffffffffffffffffffffffffffff168173ffffffffffffffffffffffffffffffffffffffff1614155b15156111b4576040517f08c379a000000000000000000000000000000000000000000000000000000000815260040180806020018281038252602f8152602001807f4d75737420686176652076616c6964207265776172647320616e64207369646581526020017f636861696e20616464726573736573000000000000000000000000000000000081525060400191505060405180910390fd5b600060018111156111c157fe5b8760018111156111cd57fe5b14156111e5576111df88878787612ac0565b506111f3565b6111f1888787876109ff565b505b60019250505095945050505050565b60008087878061121183612dd0565b141515611286576040517f08c379a00000000000000000000000000000000000000000000000000000000081526004018080602001828103825260178152602001807f4d75737420626520666f722063757272656e742064617900000000000000000081525060200191505060405180910390fd5b898881600f016000016000826000191660001916815260200190815260200160002060000160003373ffffffffffffffffffffffffffffffffffffffff1673ffffffffffffffffffffffffffffffffffffffff16815260200190815260200160002060009054906101000a900460ff16151515611391576040517f08c379a00000000000000000000000000000000000000000000000000000000081526004018080602001828103825260248152602001807f4d757374206265206f6e65207375626d697373696f6e207065722076616c696481526020017f61746f720000000000000000000000000000000000000000000000000000000081525060400191505060405180910390fd5b8b8b60006114d483600501606060405190810160405290816002820180548060200260200160405190810160405280929190818152602001828054801561142d57602002820191906000526020600020905b8160009054906101000a900473ffffffffffffffffffffffffffffffffffffffff1673ffffffffffffffffffffffffffffffffffffffff16815260200190600101908083116113e3575b50505050508152602001600382018054806020026020016040519081016040528092919081815260200182805480156114bb57602002820191906000526020600020905b8160009054906101000a900473ffffffffffffffffffffffffffffffffffffffff1673ffffffffffffffffffffffffffffffffffffffff1681526020019060010190808311611471575b5050505050815260200160048201548152505083612e3a565b14156115cb578160050160000160003373ffffffffffffffffffffffffffffffffffffffff1673ffffffffffffffffffffffffffffffffffffffff16815260200190815260200160002060009054906101000a900460ff1615156115c6576040517f08c379a00000000000000000000000000000000000000000000000000000000081526004018080602001828103825260248152602001807f4d75737420626520612063757272656e742073656c65637465642076616c696481526020017f61746f720000000000000000000000000000000000000000000000000000000081525060400191505060405180910390fd5b6116b8565b8160050160010160003373ffffffffffffffffffffffffffffffffffffffff1673ffffffffffffffffffffffffffffffffffffffff16815260200190815260200160002060009054906101000a900460ff1615156116b7576040517f08c379a00000000000000000000000000000000000000000000000000000000081526004018080602001828103825260258152602001807f4d75737420626520612070726576696f75732073656c65637465642076616c6981526020017f6461746f7200000000000000000000000000000000000000000000000000000081525060400191505060405180910390fd5b5b6116c48d8d8d8d611bef565b1515611738576040517f08c379a00000000000000000000000000000000000000000000000000000000081526004018080602001828103825260168152602001807f526577617264204861736820697320696e76616c69640000000000000000000081525060200191505060405180910390fd5b60008e600f0160000160008e600019166000191681526020019081526020016000206004015414156117c55760018e600f0160000160008e60001916600019168152602001908152602001600020600401819055508d600f016001018c90806001815401808255809150509060018203906000526020600020016000909192909190915090600019169055505b60018e600f0160000160008e6000191660001916815260200190815260200160002060000160003373ffffffffffffffffffffffffffffffffffffffff1673ffffffffffffffffffffffffffffffffffffffff16815260200190815260200160002060006101000a81548160ff0219169083151502179055508d600f0160000160008d600019166000191681526020019081526020016000206001013390806001815401808255809150509060018203906000526020600020016000909192909190916101000a81548173ffffffffffffffffffffffffffffffffffffffff021916908373ffffffffffffffffffffffffffffffffffffffff160217905550508d600f0160000160008d60001916600019168152602001908152602001600020600201600081548092919060010191905055506119028e8e61264b565b8e600f0160000160008e600019166000191681526020019081526020016000206002015414156119f6576119378e8c8c610f4d565b96506119448e8e8b612d92565b87111515156119e1576040517f08c379a00000000000000000000000000000000000000000000000000000000081526004018080602001828103825260308152602001807f52657761726473206461746120697320696e76616c6964202d2065786365656481526020017f206461696c7920766172696174696f6e0000000000000000000000000000000081525060400191505060405180910390fd5b6119ed8e8e8e8c6127f7565b508697506119fb565b600097505b505050505050509695505050505050565b60008383611a1982612dd0565b8110151515611a90576040517f08c379a00000000000000000000000000000000000000000000000000000000081526004018080602001828103825260198152602001807f4d7573742062652066757475726520726577617264734461790000000000000081525060200191505060405180910390fd5b858460008090505b8151811015611b815760018360020160008484815181101515611ab757fe5b9060200190602002015173ffffffffffffffffffffffffffffffffffffffff1673ffffffffffffffffffffffffffffffffffffffff16815260200190815260200160002060030154141515611b74576040517f08c379a00000000000000000000000000000000000000000000000000000000081526004018080602001828103825260148152602001807f56616c696461746f72206d75737420657869737400000000000000000000000081525060200191505060405180910390fd5b8080600101915050611a98565b600089600501600201805490501415611ba757611ba18960050188612e5d565b50611bd3565b8860050160040154881115611bc457611bc28960050161302c565b505b611bd18960050188612e5d565b505b8789600501600401819055506001955050505050509392505050565b6000836000191685848460405160200180848152602001838051906020019060200280838360005b83811015611c32578082015181840152602081019050611c17565b50505050905001828051906020019060200280838360005b83811015611c65578082015181840152602081019050611c4a565b5050505090500193505050506040516020818303038152906040526040518082805190602001908083835b602083101515611cb55780518252602082019150602081019050602083039250611c90565b6001836020036101000a038019825116818451168082178552505050505050905001915050604051809103902060001916149050949350505050565b606060006001811115611d0057fe5b836001811115611d0c57fe5b1415611f7f576000611e5385600a016060604051908101604052908160028201805480602002602001604051908101604052809291908181526020018280548015611dac57602002820191906000526020600020905b8160009054906101000a900473ffffffffffffffffffffffffffffffffffffffff1673ffffffffffffffffffffffffffffffffffffffff1681526020019060010190808311611d62575b5050505050815260200160038201805480602002602001604051908101604052809291908181526020018280548015611e3a57602002820191906000526020600020905b8160009054906101000a900473ffffffffffffffffffffffffffffffffffffffff1673ffffffffffffffffffffffffffffffffffffffff1681526020019060010190808311611df0575b5050505050815260200160048201548152505084612e3a565b1415611eec5783600a01600201805480602002602001604051908101604052809291908181526020018280548015611ee057602002820191906000526020600020905b8160009054906101000a900473ffffffffffffffffffffffffffffffffffffffff1673ffffffffffffffffffffffffffffffffffffffff1681526020019060010190808311611e96575b505050505090506121e8565b83600a01600301805480602002602001604051908101604052809291908181526020018280548015611f7357602002820191906000526020600020905b8160009054906101000a900473ffffffffffffffffffffffffffffffffffffffff1673ffffffffffffffffffffffffffffffffffffffff1681526020019060010190808311611f29575b505050505090506121e8565b60006120c085600501606060405190810160405290816002820180548060200260200160405190810160405280929190818152602001828054801561201957602002820191906000526020600020905b8160009054906101000a900473ffffffffffffffffffffffffffffffffffffffff1673ffffffffffffffffffffffffffffffffffffffff1681526020019060010190808311611fcf575b50505050508152602001600382018054806020026020016040519081016040528092919081815260200182805480156120a757602002820191906000526020600020905b8160009054906101000a900473ffffffffffffffffffffffffffffffffffffffff1673ffffffffffffffffffffffffffffffffffffffff168152602001906001019080831161205d575b5050505050815260200160048201548152505084612e3a565b1415612159578360050160020180548060200260200160405190810160405280929190818152602001828054801561214d57602002820191906000526020600020905b8160009054906101000a900473ffffffffffffffffffffffffffffffffffffffff1673ffffffffffffffffffffffffffffffffffffffff1681526020019060010190808311612103575b505050505090506121e8565b836005016003018054806020026020016040519081016040528092919081815260200182805480156121e057602002820191906000526020600020905b8160009054906101000a900473ffffffffffffffffffffffffffffffffffffffff1673ffffffffffffffffffffffffffffffffffffffff1681526020019060010190808311612196575b505050505090505b9392505050565b6000606060008084600f0160010180548060200260200160405190810160405280929190818152602001828054801561224b57602002820191906000526020600020905b81546000191681526020019060010190808311612233575b50505050509250600091505b82518210156124c257600090505b84600f016000016000848481518110151561227c57fe5b9060200190602002015160001916600019168152602001908152602001600020600101805490508110156123af5784600f01600001600084848151811015156122c157fe5b9060200190602002015160001916600019168152602001908152602001600020600001600086600f01600001600086868151811015156122fd57fe5b90602001906020020151600019166000191681526020019081526020016000206001018381548110151561232d57fe5b9060005260206000200160009054906101000a900473ffffffffffffffffffffffffffffffffffffffff1673ffffffffffffffffffffffffffffffffffffffff1673ffffffffffffffffffffffffffffffffffffffff16815260200190815260200160002060006101000a81549060ff02191690558080600101915050612265565b84600f01600001600084848151811015156123c657fe5b906020019060200201516000191660001916815260200190815260200160002060010160006123f59190613406565b600085600f016000016000858581518110151561240e57fe5b906020019060200201516000191660001916815260200190815260200160002060020181905550600085600f016000016000858581518110151561244e57fe5b906020019060200201516000191660001916815260200190815260200160002060030181905550600085600f016000016000858581518110151561248e57fe5b9060200190602002015160001916600019168152602001908152602001600020600401819055508180600101925050612257565b84600f0160010160006124d59190613427565b505050919050565b60008061261f84600501606060405190810160405290816002820180548060200260200160405190810160405280929190818152602001828054801561257857602002820191906000526020600020905b8160009054906101000a900473ffffffffffffffffffffffffffffffffffffffff1673ffffffffffffffffffffffffffffffffffffffff168152602001906001019080831161252e575b505050505081526020016003820180548060200260200160405190810160405280929190818152602001828054801561260657602002820191906000526020600020905b8160009054906101000a900473ffffffffffffffffffffffffffffffffffffffff1673ffffffffffffffffffffffffffffffffffffffff16815260200190600101908083116125bc575b5050505050815260200160048201548152505084612e3a565b14156126375782600501600201805490509050612645565b826005016003018054905090505b92915050565b60008061278d8460050160606040519081016040529081600282018054806020026020016040519081016040528092919081815260200182805480156126e657602002820191906000526020600020905b8160009054906101000a900473ffffffffffffffffffffffffffffffffffffffff1673ffffffffffffffffffffffffffffffffffffffff168152602001906001019080831161269c575b505050505081526020016003820180548060200260200160405190810160405280929190818152602001828054801561277457602002820191906000526020600020905b8160009054906101000a900473ffffffffffffffffffffffffffffffffffffffff1673ffffffffffffffffffffffffffffffffffffffff168152602001906001019080831161272a575b5050505050815260200160048201548152505084612e3a565b14156127c45760016305f5e1006127a685600286612a39565b8560050160020180549050028115156127bb57fe5b040190506127f1565b60016305f5e1006127d785600286612a39565b8560050160030180549050028115156127ec57fe5b040190505b92915050565b60008185600f01600201819055508285600f0160030181600019169055508385600f0160040181905550600185600f01600001600085600019166000191681526020019081526020016000206003018190555060019050949350505050565b6000838361286382612dd0565b81101515156128da576040517f08c379a00000000000000000000000000000000000000000000000000000000081526004018080602001828103825260198152602001807f4d7573742062652066757475726520726577617264734461790000000000000081525060200191505060405180910390fd5b858460008090505b81518110156129cb576001836000016000848481518110151561290157fe5b9060200190602002015173ffffffffffffffffffffffffffffffffffffffff1673ffffffffffffffffffffffffffffffffffffffff168152602001908152602001600020600301541415156129be576040517f08c379a00000000000000000000000000000000000000000000000000000000081526004018080602001828103825260168152602001807f4170706c69636174696f6e206d7573742065786973740000000000000000000081525060200191505060405180910390fd5b80806001019150506128e2565b600089600a016002018054905014156129f1576129eb89600a0188612e5d565b50612a1d565b88600a0160040154881115612a0e57612a0c89600a0161302c565b505b612a1b89600a0188612e5d565b505b8789600a01600401819055506001955050505050509392505050565b6000836004016000846003811115612a4d57fe5b81526020019081526020016000206002015482101515612a9257836004016000846003811115612a7957fe5b8152602001908152602001600020600001549050612ab9565b836004016000846003811115612aa457fe5b81526020019081526020016000206001015490505b9392505050565b6000838560000160003373ffffffffffffffffffffffffffffffffffffffff1673ffffffffffffffffffffffffffffffffffffffff1681526020019081526020016000206000018160001916905550828560000160003373ffffffffffffffffffffffffffffffffffffffff1673ffffffffffffffffffffffffffffffffffffffff16815260200190815260200160002060010160006101000a81548173ffffffffffffffffffffffffffffffffffffffff021916908373ffffffffffffffffffffffffffffffffffffffff160217905550818560000160003373ffffffffffffffffffffffffffffffffffffffff1673ffffffffffffffffffffffffffffffffffffffff16815260200190815260200160002060020160006101000a81548173ffffffffffffffffffffffffffffffffffffffff021916908373ffffffffffffffffffffffffffffffffffffffff16021790555060008560000160003373ffffffffffffffffffffffffffffffffffffffff1673ffffffffffffffffffffffffffffffffffffffff168152602001908152602001600020600301541415612d7b57846001013390806001815401808255809150509060018203906000526020600020016000909192909190916101000a81548173ffffffffffffffffffffffffffffffffffffffff021916908373ffffffffffffffffffffffffffffffffffffffff1602179055505060018560000160003373ffffffffffffffffffffffffffffffffffffffff1673ffffffffffffffffffffffffffffffffffffffff1681526020019081526020016000206003018190555060008560000160003373ffffffffffffffffffffffffffffffffffffffff1673ffffffffffffffffffffffffffffffffffffffff16815260200190815260200160002060040160006101000a81548160ff02191690836001811115612d7557fe5b02179055505b60006001811115612d8857fe5b9050949350505050565b6000662386f26fc10000612da885600186612a39565b612db486600087612a39565b848760160154030202811515612dc657fe5b0490509392505050565b60008160140154826014015442811515612de657fe5b064203836015015403811515612df857fe5b049050919050565b6000826305f5e100612e1487600388612a39565b8488601601540302811515612e2557fe5b04811515612e2f57fe5b049050949350505050565b6000826040015182101515612e525760009050612e57565b600190505b92915050565b600080600080856002018054905014915081158015612e8457508351856002018054905014155b15612e9857612e9285613272565b50600191505b600090505b8351811015613020578115612f3057846002018482815181101515612ebe57fe5b9060200190602002015190806001815401808255809150509060018203906000526020600020016000909192909190916101000a81548173ffffffffffffffffffffffffffffffffffffffff021916908373ffffffffffffffffffffffffffffffffffffffff16021790555050612fa2565b8381815181101515612f3e57fe5b906020019060200201518560020182815481101515612f5957fe5b9060005260206000200160006101000a81548173ffffffffffffffffffffffffffffffffffffffff021916908373ffffffffffffffffffffffffffffffffffffffff1602179055505b60018560000160008684815181101515612fb857fe5b9060200190602002015173ffffffffffffffffffffffffffffffffffffffff1673ffffffffffffffffffffffffffffffffffffffff16815260200190815260200160002060006101000a81548160ff0219169083151502179055508080600101915050612e9d565b60019250505092915050565b60008060008084600301805490501491508115801561305957508360020180549050846003018054905014155b1561306d576130678461333c565b50600191505b600090505b836002018054905081101561326757811561312f5783600301846002018281548110151561309c57fe5b9060005260206000200160009054906101000a900473ffffffffffffffffffffffffffffffffffffffff1690806001815401808255809150509060018203906000526020600020016000909192909190916101000a81548173ffffffffffffffffffffffffffffffffffffffff021916908373ffffffffffffffffffffffffffffffffffffffff160217905550506131c5565b836002018181548110151561314057fe5b9060005260206000200160009054906101000a900473ffffffffffffffffffffffffffffffffffffffff16846003018281548110151561317c57fe5b9060005260206000200160006101000a81548173ffffffffffffffffffffffffffffffffffffffff021916908373ffffffffffffffffffffffffffffffffffffffff1602179055505b600184600101600086600201848154811015156131de57fe5b9060005260206000200160009054906101000a900473ffffffffffffffffffffffffffffffffffffffff1673ffffffffffffffffffffffffffffffffffffffff1673ffffffffffffffffffffffffffffffffffffffff16815260200190815260200160002060006101000a81548160ff0219169083151502179055508080600101915050613072565b600192505050919050565b600080600090505b82600201805490508110156133225782600001600084600201838154811015156132a057fe5b9060005260206000200160009054906101000a900473ffffffffffffffffffffffffffffffffffffffff1673ffffffffffffffffffffffffffffffffffffffff1673ffffffffffffffffffffffffffffffffffffffff16815260200190815260200160002060006101000a81549060ff0219169055808060010191505061327a565b8260020160006133329190613406565b6001915050919050565b600080600090505b82600301805490508110156133ec57826001016000846003018381548110151561336a57fe5b9060005260206000200160009054906101000a900473ffffffffffffffffffffffffffffffffffffffff1673ffffffffffffffffffffffffffffffffffffffff1673ffffffffffffffffffffffffffffffffffffffff16815260200190815260200160002060006101000a81549060ff02191690558080600101915050613344565b8260030160006133fc9190613406565b6001915050919050565b50805460008255906000526020600020908101906134249190613448565b50565b5080546000825590600052602060002090810190613445919061346d565b50565b61346a91905b8082111561346657600081600090555060010161344e565b5090565b90565b61348f91905b8082111561348b576000816000905550600101613473565b5090565b905600a165627a7a723058200fcb1d67ffa31cd6fe77a969f67239b601167299470efda05e1925c71b965cd30029",
  "source": "pragma solidity ^0.4.24;\n\n/**\n * @title Props Rewards Library\n * @dev Library to manage application and validators and parameters\n **/\nlibrary PropsRewardsLib {\n    /*\n    *  Events\n    */\n    event DailyRewardsDataPruned(uint256 entires);\n\n    /*\n    *  Storage\n    */\n\n    // The various parameters used by the contract\n    enum ParameterName { ApplicationRewardsPercent, ApplicationRewardsMaxVariationPercent, ValidatorMajorityPercent, ValidatorRewardsPercent}\n    enum RewardedEntityType { Application, Validator }\n\n    // Represents a parameter current, previous and time of change\n    struct Parameter {\n        uint256 currentValue;                   // current value in Pphm valid after timestamp\n        uint256 previousValue;                  // previous value in Pphm for use before timestamp\n        uint256 rewardsDay;                // timestamp of when the value was updated\n    }\n    // Represents application details\n    struct RewardedEntity {\n        bytes32 name;                           // Application name\n        address rewardsAddress;                 // address where rewards will be minted to\n        address sidechainAddress;               // address used on the sidechain\n        uint256 initializedState;               // A way to check if there's something in the map and whether already added to list\n        RewardedEntityType entityType;                // Type of rewarded entity\n    }\n\n    // Represents validators current and previous lists\n    struct RewardedEntityList {\n        mapping (address => bool) current;\n        mapping (address => bool) previous;\n        address[] currentList;\n        address[] previousList;\n        uint256 rewardsDay;\n    }\n\n    // Represents daily reward submissions and confimations\n    struct DailyRewards {\n        mapping (bytes32 => Submission) submissions;\n        bytes32[] submittedRewardHashes;\n        uint256 totalSupply;\n        bytes32 lastConfirmedRewardsHash;\n        uint256 lastRewardsDay;\n    }\n\n    struct Submission {\n        mapping (address => bool) validators;\n        address[] validatorsList;\n        uint256 confirmations;\n        uint256 finalized;\n        uint256 initializedState;               // A way to check if there's something in the map and whether already added to list\n    }\n\n\n    // represent the storage structures\n    struct Data {\n        // applications data\n        mapping (address => RewardedEntity) applications;\n        address[] applicationsList;\n        // validators data\n        mapping (address => RewardedEntity) validators;\n        address[] validatorsList;\n        // adjustable parameters data\n        mapping (uint256 => Parameter) parameters; // uint256 is the parameter enum index\n        // the participating validators\n        RewardedEntityList selectedValidators;\n        // the participating applications\n        RewardedEntityList selectedApplications;\n        // daily rewards submission data\n        DailyRewards dailyRewards;\n        uint256 minSecondsBetweenDays;\n        uint256 rewardsStartTimestamp;\n        uint256 maxTotalSupply;\n    }\n    /*\n    *  Modifiers\n    */\n    modifier onlyOneRewardsHashPerValidator(Data storage _self, bytes32 _rewardsHash) {\n        require(\n            !_self.dailyRewards.submissions[_rewardsHash].validators[msg.sender],\n            \"Must be one submission per validator\"\n        );\n         _;\n    }\n\n    modifier onlyExistingApplications(Data storage _self, address[] _entities) {\n        for (uint256 i = 0; i < _entities.length; i++) {\n            require(\n                _self.applications[_entities[i]].initializedState == 1,\n                \"Application must exist\"\n            );\n        }\n        _;\n    }\n\n    modifier onlyExistingValidators(Data storage _self, address[] _entities) {\n        for (uint256 i = 0; i < _entities.length; i++) {\n            require(\n                _self.validators[_entities[i]].initializedState == 1,\n                \"Validator must exist\"\n            );\n        }\n        _;\n    }\n\n    modifier onlySelectedValidators(Data storage _self, uint256 _rewardsDay) {\n        if (_getSelectedRewardedEntityListType(_self.selectedValidators, _rewardsDay) == 0) {\n            require (\n                _self.selectedValidators.current[msg.sender],\n                \"Must be a current selected validator\"\n            );\n        } else {\n            require (\n                _self.selectedValidators.previous[msg.sender],\n                \"Must be a previous selected validator\"\n            );\n        }\n        _;\n    }\n\n    modifier onlyValidRewardsDay(Data storage _self, uint256 _rewardsDay) {\n        require(\n            _currentRewardsDay(_self) == _rewardsDay,\n            \"Must be for current day\"\n        );\n         _;\n    }\n\n    modifier onlyValidFutureRewardsDay(Data storage _self, uint256 _rewardsDay) {\n        require(\n            _rewardsDay >= _currentRewardsDay(_self),\n            \"Must be future rewardsDay\"\n        );\n         _;\n    }\n\n    modifier onlyValidAddresses(address _rewardsAddress, address _sidechainAddress) {\n        require(\n            _rewardsAddress != address(0) &&\n            _sidechainAddress != address(0),\n            \"Must have valid rewards and sidechain addresses\"\n        );\n        _;\n    }\n\n    /**\n    * @dev The function is called by validators with the calculation of the daily rewards\n    * @param _self Data pointer to storage\n    * @param _rewardsDay uint256 the rewards day\n    * @param _rewardsHash bytes32 hash of the rewards data\n    */\n    function calculateValidatorRewards(\n        Data storage _self,\n        uint256 _rewardsDay,\n        bytes32 _rewardsHash,\n        bool _allValidators\n    )\n        public\n        view\n        returns (uint256)\n    {\n        uint256 numOfValidators;\n        if (_self.dailyRewards.submissions[_rewardsHash].finalized == 1)\n        {\n            if (_allValidators) {\n                numOfValidators = _requiredValidatorsForValidatorsRewards(_self, _rewardsDay);\n                if (numOfValidators > _self.dailyRewards.submissions[_rewardsHash].confirmations) return 0;\n            } else {\n                numOfValidators = _self.dailyRewards.submissions[_rewardsHash].confirmations;\n            }\n            uint256 rewardPerValidator = _getValidatorRewardsDailyAmountPerValidator(_self, _rewardsDay, numOfValidators, _self.dailyRewards.totalSupply);\n            return rewardPerValidator;\n        }\n        return 0;\n    }\n\n    /**\n    * @dev The function is called by validators with the calculation of the daily rewards\n    * @param _self Data pointer to storage\n    * @param _rewardsDay uint256 the rewards day\n    * @param _rewardsHash bytes32 hash of the rewards data\n    * @param _applications address[] array of application addresses getting the daily reward\n    * @param _amounts uint256[] array of amounts each app should get\n    * @param _currentTotalSupply uint256 current total supply\n    */\n    function calculateApplicationRewards(\n        Data storage _self,\n        uint256 _rewardsDay,\n        bytes32 _rewardsHash,\n        address[] _applications,\n        uint256[] _amounts,\n        uint256 _currentTotalSupply\n    )\n        public\n        onlyValidRewardsDay(_self, _rewardsDay)\n        onlyOneRewardsHashPerValidator(_self, _rewardsHash)\n        onlySelectedValidators(_self, _rewardsDay)\n        returns (uint256)\n    {\n        require(\n                _rewardHashIsvalid(_rewardsDay, _rewardsHash, _applications, _amounts),\n                \"Reward Hash is invalid\"\n        );\n        if (_self.dailyRewards.submissions[_rewardsHash].initializedState == 0) {\n            _self.dailyRewards.submissions[_rewardsHash].initializedState = 1;\n            _self.dailyRewards.submittedRewardHashes.push(_rewardsHash);\n        }\n        _self.dailyRewards.submissions[_rewardsHash].validators[msg.sender] = true;\n        _self.dailyRewards.submissions[_rewardsHash].validatorsList.push(msg.sender);\n        _self.dailyRewards.submissions[_rewardsHash].confirmations++;\n\n        if (_self.dailyRewards.submissions[_rewardsHash].confirmations == _requiredValidatorsForAppRewards(_self, _rewardsDay)) {\n            uint256 sum = _validateSubmittedData(_self, _applications, _amounts);\n            require(\n                sum <= _getMaxAppRewardsDailyAmount(_self, _rewardsDay, _currentTotalSupply),\n                \"Rewards data is invalid - exceed daily variation\"\n            );\n            _finalizeDailyApplicationRewards(_self, _rewardsDay, _rewardsHash, _currentTotalSupply);\n            return sum;\n        }\n        return 0;\n    }\n\n    /**\n    * @dev Finalizes the state, rewards Hash, total supply and block timestamp for the day\n    * @param _self Data pointer to storage\n    * @param _rewardsDay uint256 the reward day\n    * @param _rewardsHash bytes32 the daily reward hash\n    * @param _currentTotalSupply uint256 the current total supply\n    */\n    function _finalizeDailyApplicationRewards(Data storage _self, uint256 _rewardsDay, bytes32 _rewardsHash, uint256 _currentTotalSupply)\n        public\n        returns (bool)\n    {\n        _self.dailyRewards.totalSupply = _currentTotalSupply;\n        _self.dailyRewards.lastConfirmedRewardsHash = _rewardsHash;\n        _self.dailyRewards.lastRewardsDay = _rewardsDay;\n        _self.dailyRewards.submissions[_rewardsHash].finalized = 1;\n        return true;\n    }\n\n    /**\n    * @dev Get parameter's value\n    * @param _self Data pointer to storage\n    * @param _name ParameterName name of the parameter\n    * @param _rewardsDay uint256 the rewards day\n    */\n    function getParameterValue(\n        Data storage _self,\n        ParameterName _name,\n        uint256 _rewardsDay\n    )\n        public\n        view\n        returns (uint256)\n    {\n        if (_rewardsDay >= _self.parameters[uint256(_name)].rewardsDay) {\n            return _self.parameters[uint256(_name)].currentValue;\n        } else {\n            return _self.parameters[uint256(_name)].previousValue;\n        }\n    }\n\n    /**\n    * @dev Allows the controller/owner to update rewards parameters\n    * @param _self Data pointer to storage\n    * @param _name ParameterName name of the parameter\n    * @param _value uint256 new value for the parameter\n    * @param _rewardsDay uint256 the rewards day\n    */\n    function updateParameter(\n        Data storage _self,\n        ParameterName _name,\n        uint256 _value,\n        uint256 _rewardsDay\n    )\n        public\n        onlyValidRewardsDay(_self, _rewardsDay)\n        returns (bool)\n    {\n        if (_rewardsDay <= _self.parameters[uint256(_name)].rewardsDay) {\n           _self.parameters[uint256(_name)].currentValue = _value;\n           _self.parameters[uint256(_name)].rewardsDay = _rewardsDay;\n        } else {\n            _self.parameters[uint256(_name)].previousValue = _self.parameters[uint256(_name)].currentValue;\n            _self.parameters[uint256(_name)].currentValue = _value;\n           _self.parameters[uint256(_name)].rewardsDay = _rewardsDay;\n        }\n        return true;\n    }\n\n    /**\n    * @dev Allows an application to add/update its details\n    * @param _self Data pointer to storage\n    * @param _entityType RewardedEntityType either application (0) or validator (1)\n    * @param _name bytes32 name of the app\n    * @param _rewardsAddress address an address for the app to receive the rewards\n    * @param _sidechainAddress address the address used for using the sidechain\n    */\n    function updateEntity(\n        Data storage _self,\n        RewardedEntityType _entityType,\n        bytes32 _name,\n        address _rewardsAddress,\n        address _sidechainAddress\n    )\n        public\n        onlyValidAddresses(_rewardsAddress, _sidechainAddress)\n        returns (bool)\n    {\n        if (_entityType == RewardedEntityType.Application) {\n            updateApplication(_self, _name, _rewardsAddress, _sidechainAddress);\n        } else {\n            updateValidator(_self, _name, _rewardsAddress, _sidechainAddress);\n        }\n        return true;\n    }\n\n    /**\n    * @dev Allows an application to add/update its details\n    * @param _self Data pointer to storage\n    * @param _name bytes32 name of the app\n    * @param _rewardsAddress address an address for the app to receive the rewards\n    * @param _sidechainAddress address the address used for using the sidechain\n    */\n    function updateApplication(\n        Data storage _self,\n        bytes32 _name,\n        address _rewardsAddress,\n        address _sidechainAddress\n    )\n        public\n        returns (uint256)\n    {\n        _self.applications[msg.sender].name = _name;\n        _self.applications[msg.sender].rewardsAddress = _rewardsAddress;\n        _self.applications[msg.sender].sidechainAddress = _sidechainAddress;\n        if (_self.applications[msg.sender].initializedState == 0) {\n            _self.applicationsList.push(msg.sender);\n            _self.applications[msg.sender].initializedState = 1;\n            _self.applications[msg.sender].entityType = RewardedEntityType.Application;\n        }\n        return uint256(RewardedEntityType.Application);\n    }\n\n    /**\n    * @dev Allows a validator to add/update its details\n    * @param _self Data pointer to storage\n    * @param _name bytes32 name of the validator\n    * @param _rewardsAddress address an address for the validator to receive the rewards\n    * @param _sidechainAddress address the address used for using the sidechain\n    */\n    function updateValidator(\n        Data storage _self,\n        bytes32 _name,\n        address _rewardsAddress,\n        address _sidechainAddress\n    )\n        public\n        returns (uint256)\n    {\n        _self.validators[msg.sender].name = _name;\n        _self.validators[msg.sender].rewardsAddress = _rewardsAddress;\n        _self.validators[msg.sender].sidechainAddress = _sidechainAddress;\n        if (_self.validators[msg.sender].initializedState == 0) {\n            _self.validatorsList.push(msg.sender);\n            _self.validators[msg.sender].initializedState = 1;\n            _self.validators[msg.sender].entityType = RewardedEntityType.Validator;\n        }\n        return uint256(RewardedEntityType.Validator);\n    }\n\n    /**\n    * @dev Set new validators list\n    * @param _self Data pointer to storage\n    * @param _rewardsDay uint256 the rewards day from which the list should be active\n    * @param _validators address[] array of validators\n    */\n    function setValidators(\n        Data storage _self,\n        uint256 _rewardsDay,\n        address[] _validators\n    )\n        public\n        onlyValidFutureRewardsDay(_self, _rewardsDay)\n        onlyExistingValidators(_self, _validators)\n        returns (bool)\n    {\n\n        if (_self.selectedValidators.currentList.length == 0) { // first time the daily validators list is set\n            _updateCurrentEntityList(_self.selectedValidators, _validators);\n        } else {\n            if (_rewardsDay > _self.selectedValidators.rewardsDay)\n                _updatePreviousEntityList(_self.selectedValidators);\n            _updateCurrentEntityList(_self.selectedValidators, _validators);\n        }\n        _self.selectedValidators.rewardsDay = _rewardsDay;\n        return true;\n    }\n\n   /**\n    * @dev Set new applications list\n    * @param _self Data pointer to storage\n    * @param _rewardsDay uint256 the rewards day from which the list should be active\n    * @param _applications address[] array of applications\n    */\n    function setApplications(\n        Data storage _self,\n        uint256 _rewardsDay,\n        address[] _applications\n    )\n        public\n        onlyValidFutureRewardsDay(_self, _rewardsDay)\n        onlyExistingApplications(_self, _applications)\n        returns (bool)\n    {\n\n        if (_self.selectedApplications.currentList.length == 0) { // first time the daily validators list is set\n            _updateCurrentEntityList(_self.selectedApplications, _applications);\n        } else {\n            if (_rewardsDay > _self.selectedApplications.rewardsDay)\n                _updatePreviousEntityList(_self.selectedApplications);\n            _updateCurrentEntityList(_self.selectedApplications, _applications);\n        }\n        _self.selectedApplications.rewardsDay = _rewardsDay;\n        return true;\n    }\n\n    /**\n    * @dev Get applications or validators list\n    * @param _self Data pointer to storage\n    * @param _entityType RewardedEntityType either application (0) or validator (1)\n    * @param _rewardsDay uint256 the reward day to determine which list to get\n    */\n    function getEntities(\n        Data storage _self,\n        RewardedEntityType _entityType,\n        uint256 _rewardsDay\n    )\n        public\n        view\n        returns (address[])\n    {\n        if (_entityType == RewardedEntityType.Application) {\n            if (_getSelectedRewardedEntityListType(_self.selectedApplications, _rewardsDay) == 0) {\n                return _self.selectedApplications.currentList;\n            } else {\n                return _self.selectedApplications.previousList;\n            }\n        } else {\n            if (_getSelectedRewardedEntityListType(_self.selectedValidators, _rewardsDay) == 0) {\n                return _self.selectedValidators.currentList;\n            } else {\n                return _self.selectedValidators.previousList;\n            }\n        }\n    }\n\n    /**\n    * @dev Get which entity list to use. Current = 0, previous = 1\n    * @param _rewardedEntitylist RewardedEntityList pointer to storage\n    * @param _rewardsDay uint256 the reward day to determine which list to get\n    */\n    function _getSelectedRewardedEntityListType(RewardedEntityList _rewardedEntitylist, uint256 _rewardsDay)\n        internal\n        pure\n        returns (uint256)\n    {\n        if (_rewardsDay >= _rewardedEntitylist.rewardsDay) {\n            return 0;\n        } else {\n            return 1;\n        }\n    }\n\n    /**\n    * @dev Checks how many validators are needed for app rewards\n    * @param _self Data pointer to storage\n    * @param _rewardsDay uint256 the reward day\n    * @param _currentTotalSupply uint256 current total supply\n    */\n    function _getMaxAppRewardsDailyAmount(\n        Data storage _self,\n        uint256 _rewardsDay,\n        uint256 _currentTotalSupply\n    )\n        public\n        view\n        returns (uint256)\n    {\n        return ((_self.maxTotalSupply - _currentTotalSupply) *\n        getParameterValue(_self, ParameterName.ApplicationRewardsPercent, _rewardsDay) *\n        getParameterValue(_self, ParameterName.ApplicationRewardsMaxVariationPercent, _rewardsDay)) / 1e16;\n    }\n\n\n    /**\n    * @dev Checks how many validators are needed for app rewards\n    * @param _self Data pointer to storage\n    * @param _rewardsDay uint256 the reward day\n    * @param _numOfValidators uint256 number of validators\n    * @param _currentTotalSupply uint256 current total supply\n    */\n    function _getValidatorRewardsDailyAmountPerValidator(\n        Data storage _self,\n        uint256 _rewardsDay,\n        uint256 _numOfValidators,\n        uint256 _currentTotalSupply\n    )\n        public\n        view\n        returns (uint256)\n    {\n        return (((_self.maxTotalSupply - _currentTotalSupply) *\n        getParameterValue(_self, ParameterName.ValidatorRewardsPercent, _rewardsDay)) / 1e8) / _numOfValidators;\n    }\n\n    /**\n    * @dev Checks if app daily rewards amount is valid\n    * @param _self Data pointer to storage\n    * @param _applications address[] array of application addresses getting the daily reward\n    * @param _amounts uint256[] array of amounts each app should get\n    */\n    function _validateSubmittedData(\n        Data storage _self,\n        address[] _applications,\n        uint256[] _amounts\n    )\n        public\n        view\n        returns (uint256)\n    {\n        uint256 sum;\n        bool valid = true;\n        for (uint256 i = 0; i < _amounts.length; i++) {\n             sum += _amounts[i];\n            if (_self.applications[_applications[i]].initializedState != 1) valid = false;\n        }\n        require(\n                sum > 0 && valid,\n                \"Sum zero or none existing app submitted\"\n        );\n        return sum;\n    }\n\n    /**\n    * @dev Checks if submitted data matches reward hash\n    * @param _rewardsDay uint256 the reward day\n    * @param _rewardsHash bytes32 hash of the rewards data\n    * @param _applications address[] array of application addresses getting the daily reward\n    * @param _amounts uint256[] array of amounts each app should get\n    */\n    function _rewardHashIsvalid(\n        uint256 _rewardsDay,\n        bytes32 _rewardsHash,\n        address[] _applications,\n        uint256[] _amounts\n    )\n        public\n        pure\n        returns (bool)\n    {\n        return keccak256(abi.encodePacked(_rewardsDay, _applications, _amounts)) == _rewardsHash;\n    }\n\n    /**\n    * @dev Checks how many validators are needed for app rewards\n    * @param _self Data pointer to storage\n    * @param _rewardsDay uint256 the reward day\n    */\n    function _requiredValidatorsForValidatorsRewards(Data storage _self, uint256 _rewardsDay)\n        public\n        view\n        returns (uint256)\n    {\n        if (_getSelectedRewardedEntityListType(_self.selectedValidators, _rewardsDay) == 0) {\n            return _self.selectedValidators.currentList.length;\n        } else {\n            return _self.selectedValidators.previousList.length;\n        }\n    }\n\n    /**\n    * @dev Checks how many validators are needed for app rewards\n    * @param _self Data pointer to storage\n    * @param _rewardsDay uint256 the reward day\n    */\n    function _requiredValidatorsForAppRewards(Data storage _self, uint256 _rewardsDay)\n        public\n        view\n        returns (uint256)\n    {\n        if (_getSelectedRewardedEntityListType(_self.selectedValidators, _rewardsDay) == 0) {\n            return ((_self.selectedValidators.currentList.length * getParameterValue(_self, ParameterName.ValidatorMajorityPercent, _rewardsDay)) / 1e8)+1;\n        } else {\n            return ((_self.selectedValidators.previousList.length * getParameterValue(_self, ParameterName.ValidatorMajorityPercent, _rewardsDay)) / 1e8)+1;\n        }\n    }\n\n    /**\n    * @dev Get rewards day from block.timestamp\n    * @param _self Data pointer to storage\n    */\n    function _currentRewardsDay(Data storage _self)\n        public\n        view\n        returns (uint256)\n    {\n        //the the start time - floor timestamp to previous midnight divided by seconds in a day will give the rewards day number\n        return (_self.rewardsStartTimestamp - (block.timestamp - (block.timestamp % _self.minSecondsBetweenDays))) / _self.minSecondsBetweenDays;\n    }\n\n    /**\n    * @dev Update current daily applications list.\n    * If new, push.\n    * If same size, replace\n    * If different size, delete, and then push.\n    * @param _rewardedEntitylist RewardedEntityList pointer to storage\n    * @param _entities address[] array of entities\n    */\n    //_updateCurrentEntityList(_rewardedEntitylist, _entities,_rewardedEntityType),\n    function _updateCurrentEntityList(\n        RewardedEntityList storage _rewardedEntitylist,\n        address[] _entities\n    )\n        internal\n        returns (bool)\n    {\n        bool emptyCurrentList = _rewardedEntitylist.currentList.length == 0;\n        if (!emptyCurrentList && _rewardedEntitylist.currentList.length != _entities.length) {\n            _deleteCurrentEntityList(_rewardedEntitylist);\n            emptyCurrentList = true;\n        }\n\n        for (uint256 i = 0; i < _entities.length; i++) {\n            if (emptyCurrentList) {\n                _rewardedEntitylist.currentList.push(_entities[i]);\n            } else {\n                _rewardedEntitylist.currentList[i] = _entities[i];\n            }\n            _rewardedEntitylist.current[_entities[i]] = true;\n        }\n        return true;\n    }\n\n    /**\n    * @dev Update previous daily list\n    * @param _rewardedEntitylist RewardedEntityList pointer to storage\n    */\n    function _updatePreviousEntityList(RewardedEntityList storage _rewardedEntitylist)\n        internal\n        returns (bool)\n    {\n        bool emptyPreviousList = _rewardedEntitylist.previousList.length == 0;\n        if (\n            !emptyPreviousList &&\n            _rewardedEntitylist.previousList.length != _rewardedEntitylist.currentList.length\n        ) {\n            _deletePreviousEntityList(_rewardedEntitylist);\n            emptyPreviousList = true;\n        }\n        for (uint256 i = 0; i < _rewardedEntitylist.currentList.length; i++) {\n            if (emptyPreviousList) {\n                _rewardedEntitylist.previousList.push(_rewardedEntitylist.currentList[i]);\n            } else {\n                _rewardedEntitylist.previousList[i] = _rewardedEntitylist.currentList[i];\n            }\n            _rewardedEntitylist.previous[_rewardedEntitylist.currentList[i]] = true;\n        }\n        return true;\n    }\n\n    /**\n    * @dev Delete existing values from the current list\n    * @param _rewardedEntitylist RewardedEntityList pointer to storage\n    */\n    function _deleteCurrentEntityList(RewardedEntityList storage _rewardedEntitylist)\n        internal\n        returns (bool)\n    {\n        for (uint256 i = 0; i < _rewardedEntitylist.currentList.length ; i++) {\n             delete _rewardedEntitylist.current[_rewardedEntitylist.currentList[i]];\n        }\n        delete  _rewardedEntitylist.currentList;\n        return true;\n    }\n\n    /**\n    * @dev Delete existing values from the previous applications list\n    * @param _rewardedEntitylist RewardedEntityList pointer to storage\n    */\n    function _deletePreviousEntityList(RewardedEntityList storage _rewardedEntitylist)\n        internal\n        returns (bool)\n    {\n        for (uint256 i = 0; i < _rewardedEntitylist.previousList.length ; i++) {\n            delete _rewardedEntitylist.previous[_rewardedEntitylist.previousList[i]];\n        }\n        delete _rewardedEntitylist.previousList;\n        return true;\n    }\n\n    /**\n    * @dev Deletes reward day submission data\n    * @param _self Data pointer to storage\n    */\n    function _resetDailyRewards(\n        Data storage _self\n    )\n        public\n        returns (bool)\n    {\n        bytes32[] memory rewardHashes = _self.dailyRewards.submittedRewardHashes;\n        for (uint256 i = 0; i < rewardHashes.length; i++) {\n            for (uint256 j = 0; j < _self.dailyRewards.submissions[rewardHashes[i]].validatorsList.length; j++) {\n                delete(\n                    _self.dailyRewards.submissions[rewardHashes[i]].validators[_self.dailyRewards.submissions[rewardHashes[i]].validatorsList[j]]\n                );\n            }\n            delete _self.dailyRewards.submissions[rewardHashes[i]].validatorsList;\n            _self.dailyRewards.submissions[rewardHashes[i]].confirmations = 0;\n            _self.dailyRewards.submissions[rewardHashes[i]].finalized = 0;\n            _self.dailyRewards.submissions[rewardHashes[i]].initializedState = 0;\n        }\n        delete _self.dailyRewards.submittedRewardHashes;\n    }\n\n    /**\n    * @dev Delete old/unused values\n    * @param _self Data pointer to storage\n    */\n    // function _pruneDailyRewardEntries(Data storage _self)\n    //     public\n    //     returns (bool)\n    // {\n    //     uint256 deletedItems = 0;\n    //     uint256 i;\n    //     for (i = 0; i < _self.dailyRewardsList.length; i++) {\n    //         if (_self.rewardsDay - _self.dailyRewards[_self.dailyRewardsList[i]].rewardsDay > _self.maxDailyRewardStorage) {\n    //             _self.dailyRewardsList[i] = _self.dailyRewardsList[i + 1];\n    //             deletedItems++;\n    //             if (_self.dailyRewardHashes[_self.dailyRewards[_self.dailyRewardsList[i]].rewardsDay].initializedState == 1) {\n    //                 delete _self.dailyRewardHashes[_self.dailyRewards[_self.dailyRewardsList[i]].rewardsDay];\n    //             }\n    //             for (uint256 j = 0; j < _self.dailyRewards[_self.dailyRewardsList[i]].submissionValidators.length; j++) {\n    //                 delete _self.dailyRewards[_self.dailyRewardsList[i]].submissions[_self.dailyRewards[_self.dailyRewardsList[i]].submissionValidators[j]];\n    //             }\n    //             delete _self.dailyRewards[_self.dailyRewardsList[i]];\n    //         }\n    //     }\n    //     if (deletedItems > 0) {\n    //         for (i = 0; i < deletedItems; i ++) {\n    //             delete  _self.dailyRewardsList[_self.dailyRewardsList.length - 1 - i];\n    //         }\n    //         _self.dailyRewardsList.length = _self.dailyRewardsList.length - deletedItems;\n    //         emit DailyRewardsDataPruned(deletedItems);\n    //     }\n    //     return true;\n    // }\n}",
  "sourcePath": "/Users/jretina/Programming/PROPSProject/props-token-distribution/contracts/token/PropsRewardsLib.sol",
  "compiler": {
    "name": "solc",
    "version": "0.4.24+commit.e67f0147.Emscripten.clang"
  },
  "schemaVersion": "2.0.1",
  "updatedAt": "2019-05-21T18:27:19.524Z"
}