{
  "contractName": "PropsRewardsLib",
  "abi": [
    {
      "constant": true,
      "inputs": [
        {
          "name": "_self",
          "type": "PropsRewardsLib.Data storage"
        },
        {
          "name": "_rewardsDay",
          "type": "uint256"
        },
        {
          "name": "_rewardsHash",
          "type": "bytes32"
        },
        {
          "name": "_allValidators",
          "type": "bool"
        }
      ],
      "name": "calculateValidatorRewards",
      "outputs": [
        {
          "name": "",
          "type": "uint256"
        }
      ],
      "payable": false,
      "stateMutability": "view",
      "type": "function"
    },
    {
      "constant": false,
      "inputs": [
        {
          "name": "_self",
          "type": "PropsRewardsLib.Data storage"
        },
        {
          "name": "_rewardsDay",
          "type": "uint256"
        },
        {
          "name": "_rewardsHash",
          "type": "bytes32"
        },
        {
          "name": "_applications",
          "type": "address[]"
        },
        {
          "name": "_amounts",
          "type": "uint256[]"
        },
        {
          "name": "_currentTotalSupply",
          "type": "uint256"
        }
      ],
      "name": "calculateApplicationRewards",
      "outputs": [
        {
          "name": "",
          "type": "uint256"
        }
      ],
      "payable": false,
      "stateMutability": "nonpayable",
      "type": "function"
    },
    {
      "constant": false,
      "inputs": [
        {
          "name": "_self",
          "type": "PropsRewardsLib.Data storage"
        },
        {
          "name": "_rewardsDay",
          "type": "uint256"
        },
        {
          "name": "_rewardsHash",
          "type": "bytes32"
        },
        {
          "name": "_currentTotalSupply",
          "type": "uint256"
        }
      ],
      "name": "_finalizeDailyApplicationRewards",
      "outputs": [
        {
          "name": "",
          "type": "bool"
        }
      ],
      "payable": false,
      "stateMutability": "nonpayable",
      "type": "function"
    },
    {
      "constant": true,
      "inputs": [
        {
          "name": "_self",
          "type": "PropsRewardsLib.Data storage"
        },
        {
          "name": "_name",
          "type": "PropsRewardsLib.ParameterName"
        },
        {
          "name": "_rewardsDay",
          "type": "uint256"
        }
      ],
      "name": "getParameterValue",
      "outputs": [
        {
          "name": "",
          "type": "uint256"
        }
      ],
      "payable": false,
      "stateMutability": "view",
      "type": "function"
    },
    {
      "constant": false,
      "inputs": [
        {
          "name": "_self",
          "type": "PropsRewardsLib.Data storage"
        },
        {
          "name": "_name",
          "type": "PropsRewardsLib.ParameterName"
        },
        {
          "name": "_value",
          "type": "uint256"
        },
        {
          "name": "_rewardsDay",
          "type": "uint256"
        }
      ],
      "name": "updateParameter",
      "outputs": [
        {
          "name": "",
          "type": "bool"
        }
      ],
      "payable": false,
      "stateMutability": "nonpayable",
      "type": "function"
    },
    {
      "constant": false,
      "inputs": [
        {
          "name": "_self",
          "type": "PropsRewardsLib.Data storage"
        },
        {
          "name": "_entityType",
          "type": "PropsRewardsLib.RewardedEntityType"
        },
        {
          "name": "_name",
          "type": "bytes32"
        },
        {
          "name": "_rewardsAddress",
          "type": "address"
        },
        {
          "name": "_sidechainAddress",
          "type": "address"
        }
      ],
      "name": "updateEntity",
      "outputs": [
        {
          "name": "",
          "type": "bool"
        }
      ],
      "payable": false,
      "stateMutability": "nonpayable",
      "type": "function"
    },
    {
      "constant": false,
      "inputs": [
        {
          "name": "_self",
          "type": "PropsRewardsLib.Data storage"
        },
        {
          "name": "_name",
          "type": "bytes32"
        },
        {
          "name": "_rewardsAddress",
          "type": "address"
        },
        {
          "name": "_sidechainAddress",
          "type": "address"
        }
      ],
      "name": "updateApplication",
      "outputs": [
        {
          "name": "",
          "type": "uint256"
        }
      ],
      "payable": false,
      "stateMutability": "nonpayable",
      "type": "function"
    },
    {
      "constant": false,
      "inputs": [
        {
          "name": "_self",
          "type": "PropsRewardsLib.Data storage"
        },
        {
          "name": "_name",
          "type": "bytes32"
        },
        {
          "name": "_rewardsAddress",
          "type": "address"
        },
        {
          "name": "_sidechainAddress",
          "type": "address"
        }
      ],
      "name": "updateValidator",
      "outputs": [
        {
          "name": "",
          "type": "uint256"
        }
      ],
      "payable": false,
      "stateMutability": "nonpayable",
      "type": "function"
    },
    {
      "constant": false,
      "inputs": [
        {
          "name": "_self",
          "type": "PropsRewardsLib.Data storage"
        },
        {
          "name": "_rewardsDay",
          "type": "uint256"
        },
        {
          "name": "_validators",
          "type": "address[]"
        }
      ],
      "name": "setValidators",
      "outputs": [
        {
          "name": "",
          "type": "bool"
        }
      ],
      "payable": false,
      "stateMutability": "nonpayable",
      "type": "function"
    },
    {
      "constant": false,
      "inputs": [
        {
          "name": "_self",
          "type": "PropsRewardsLib.Data storage"
        },
        {
          "name": "_rewardsDay",
          "type": "uint256"
        },
        {
          "name": "_applications",
          "type": "address[]"
        }
      ],
      "name": "setApplications",
      "outputs": [
        {
          "name": "",
          "type": "bool"
        }
      ],
      "payable": false,
      "stateMutability": "nonpayable",
      "type": "function"
    },
    {
      "constant": true,
      "inputs": [
        {
          "name": "_self",
          "type": "PropsRewardsLib.Data storage"
        },
        {
          "name": "_entityType",
          "type": "PropsRewardsLib.RewardedEntityType"
        },
        {
          "name": "_rewardsDay",
          "type": "uint256"
        }
      ],
      "name": "getEntities",
      "outputs": [
        {
          "name": "",
          "type": "address[]"
        }
      ],
      "payable": false,
      "stateMutability": "view",
      "type": "function"
    },
    {
      "constant": true,
      "inputs": [
        {
          "name": "_self",
          "type": "PropsRewardsLib.Data storage"
        },
        {
          "name": "_rewardsDay",
          "type": "uint256"
        },
        {
          "name": "_currentTotalSupply",
          "type": "uint256"
        }
      ],
      "name": "_getMaxAppRewardsDailyAmount",
      "outputs": [
        {
          "name": "",
          "type": "uint256"
        }
      ],
      "payable": false,
      "stateMutability": "view",
      "type": "function"
    },
    {
      "constant": true,
      "inputs": [
        {
          "name": "_self",
          "type": "PropsRewardsLib.Data storage"
        },
        {
          "name": "_rewardsDay",
          "type": "uint256"
        },
        {
          "name": "_numOfValidators",
          "type": "uint256"
        }
      ],
      "name": "_getValidatorRewardsDailyAmountPerValidator",
      "outputs": [
        {
          "name": "",
          "type": "uint256"
        }
      ],
      "payable": false,
      "stateMutability": "view",
      "type": "function"
    },
    {
      "constant": true,
      "inputs": [
        {
          "name": "_self",
          "type": "PropsRewardsLib.Data storage"
        },
        {
          "name": "_applications",
          "type": "address[]"
        },
        {
          "name": "_amounts",
          "type": "uint256[]"
        }
      ],
      "name": "_validateSubmittedData",
      "outputs": [
        {
          "name": "",
          "type": "uint256"
        }
      ],
      "payable": false,
      "stateMutability": "view",
      "type": "function"
    },
    {
      "constant": true,
      "inputs": [
        {
          "name": "_rewardsDay",
          "type": "uint256"
        },
        {
          "name": "_rewardsHash",
          "type": "bytes32"
        },
        {
          "name": "_applications",
          "type": "address[]"
        },
        {
          "name": "_amounts",
          "type": "uint256[]"
        }
      ],
      "name": "_rewardHashIsvalid",
      "outputs": [
        {
          "name": "",
          "type": "bool"
        }
      ],
      "payable": false,
      "stateMutability": "pure",
      "type": "function"
    },
    {
      "constant": true,
      "inputs": [
        {
          "name": "_self",
          "type": "PropsRewardsLib.Data storage"
        },
        {
          "name": "_rewardsDay",
          "type": "uint256"
        }
      ],
      "name": "_requiredValidatorsForValidatorsRewards",
      "outputs": [
        {
          "name": "",
          "type": "uint256"
        }
      ],
      "payable": false,
      "stateMutability": "view",
      "type": "function"
    },
    {
      "constant": true,
      "inputs": [
        {
          "name": "_self",
          "type": "PropsRewardsLib.Data storage"
        },
        {
          "name": "_rewardsDay",
          "type": "uint256"
        }
      ],
      "name": "_requiredValidatorsForAppRewards",
      "outputs": [
        {
          "name": "",
          "type": "uint256"
        }
      ],
      "payable": false,
      "stateMutability": "view",
      "type": "function"
    },
    {
      "constant": true,
      "inputs": [
        {
          "name": "_self",
          "type": "PropsRewardsLib.Data storage"
        }
      ],
      "name": "_currentRewardsDay",
      "outputs": [
        {
          "name": "",
          "type": "uint256"
        }
      ],
      "payable": false,
      "stateMutability": "view",
      "type": "function"
    },
    {
      "constant": false,
      "inputs": [
        {
          "name": "_self",
          "type": "PropsRewardsLib.Data storage"
        }
      ],
      "name": "_resetDailyRewards",
      "outputs": [
        {
          "name": "",
          "type": "bool"
        }
      ],
      "payable": false,
      "stateMutability": "nonpayable",
      "type": "function"
    }
  ],
  "bytecode": "0x613738610030600b82828239805160001a6073146000811461002057610022565bfe5b5030600052607381538281f3fe730000000000000000000000000000000000000000301460806040526004361061011e576000357c0100000000000000000000000000000000000000000000000000000000900463ffffffff1680630e2950711461012357806311cb33da146101bc57806314a68c38146102305780633f065dc91461029257806346e3a298146103fc5780634daa8225146104a6578063519e72ab1461063b57806363cad06a146106915780637bf9067f1461078257806389932735146108fa5780639dec8c4514610994578063a352a57d146109e7578063a4143f8314610a33578063c3ac1c7814610a7f578063cc1b8c9c14610af0578063d81b705014610be1578063e2c593d314610c3a578063e3dbf5e314610cd3578063e8fc02ab14610d29575b600080fd5b81801561012f57600080fd5b506101a66004803603608081101561014657600080fd5b810190808035906020019092919080359060200190929190803573ffffffffffffffffffffffffffffffffffffffff169060200190929190803573ffffffffffffffffffffffffffffffffffffffff169060200190929190505050610d6b565b6040518082815260200191505060405180910390f35b8180156101c857600080fd5b50610216600480360360808110156101df57600080fd5b8101908080359060200190929190803560ff1690602001909291908035906020019092919080359060200190929190505050611038565b604051808215151515815260200191505060405180910390f35b61027c6004803603608081101561024657600080fd5b810190808035906020019092919080359060200190929190803590602001909291908035151590602001909291905050506111e7565b6040518082815260200191505060405180910390f35b6103e6600480360360608110156102a857600080fd5b8101908080359060200190929190803590602001906401000000008111156102cf57600080fd5b8201836020820111156102e157600080fd5b8035906020019184602083028401116401000000008311171561030357600080fd5b919080806020026020016040519081016040528093929190818152602001838360200280828437600081840152601f19601f8201169050808301925050505050505091929192908035906020019064010000000081111561036357600080fd5b82018360208201111561037557600080fd5b8035906020019184602083028401116401000000008311171561039757600080fd5b919080806020026020016040519081016040528093929190818152602001838360200280828437600081840152601f19601f820116905080830192505050505050509192919290505050611298565b6040518082815260200191505060405180910390f35b81801561040857600080fd5b5061048c600480360360a081101561041f57600080fd5b8101908080359060200190929190803560ff16906020019092919080359060200190929190803573ffffffffffffffffffffffffffffffffffffffff169060200190929190803573ffffffffffffffffffffffffffffffffffffffff1690602001909291905050506113f7565b604051808215151515815260200191505060405180910390f35b8180156104b257600080fd5b50610625600480360360c08110156104c957600080fd5b810190808035906020019092919080359060200190929190803590602001909291908035906020019064010000000081111561050457600080fd5b82018360208201111561051657600080fd5b8035906020019184602083028401116401000000008311171561053857600080fd5b919080806020026020016040519081016040528093929190818152602001838360200280828437600081840152601f19601f8201169050808301925050505050505091929192908035906020019064010000000081111561059857600080fd5b8201836020820111156105aa57600080fd5b803590602001918460208302840111640100000000831117156105cc57600080fd5b919080806020026020016040519081016040528093929190818152602001838360200280828437600081840152601f19601f8201169050808301925050505050505091929192908035906020019092919050505061154d565b6040518082815260200191505060405180910390f35b61067b6004803603606081101561065157600080fd5b81019080803590602001909291908035906020019092919080359060200190929190505050611d1a565b6040518082815260200191505060405180910390f35b81801561069d57600080fd5b50610768600480360360608110156106b457600080fd5b810190808035906020019092919080359060200190929190803590602001906401000000008111156106e557600080fd5b8201836020820111156106f757600080fd5b8035906020019184602083028401116401000000008311171561071957600080fd5b919080806020026020016040519081016040528093929190818152602001838360200280828437600081840152601f19601f820116905080830192505050505050509192919290505050611d5a565b604051808215151515815260200191505060405180910390f35b6108e06004803603608081101561079857600080fd5b810190808035906020019092919080359060200190929190803590602001906401000000008111156107c957600080fd5b8201836020820111156107db57600080fd5b803590602001918460208302840111640100000000831117156107fd57600080fd5b919080806020026020016040519081016040528093929190818152602001838360200280828437600081840152601f19601f8201169050808301925050505050505091929192908035906020019064010000000081111561085d57600080fd5b82018360208201111561086f57600080fd5b8035906020019184602083028401116401000000008311171561089157600080fd5b919080806020026020016040519081016040528093929190818152602001838360200280828437600081840152601f19601f820116905080830192505050505050509192919290505050611f3d565b604051808215151515815260200191505060405180910390f35b61093d6004803603606081101561091057600080fd5b8101908080359060200190929190803560ff16906020019092919080359060200190929190505050611fdc565b6040518080602001828103825283818151815260200191508051906020019060200280838360005b83811015610980578082015181840152602081019050610965565b505050509050019250505060405180910390f35b8180156109a057600080fd5b506109cd600480360360208110156109b757600080fd5b81019080803590602001909291905050506124da565b604051808215151515815260200191505060405180910390f35b610a1d600480360360408110156109fd57600080fd5b81019080803590602001909291908035906020019092919050505061278b565b6040518082815260200191505060405180910390f35b610a6960048036036040811015610a4957600080fd5b8101908080359060200190929190803590602001909291905050506128f9565b6040518082815260200191505060405180910390f35b818015610a8b57600080fd5b50610ad660048036036080811015610aa257600080fd5b8101908080359060200190929190803590602001909291908035906020019092919080359060200190929190505050612aa5565b604051808215151515815260200191505060405180910390f35b818015610afc57600080fd5b50610bc760048036036060811015610b1357600080fd5b81019080803590602001909291908035906020019092919080359060200190640100000000811115610b4457600080fd5b820183602082011115610b5657600080fd5b80359060200191846020830284011164010000000083111715610b7857600080fd5b919080806020026020016040519081016040528093929190818152602001838360200280828437600081840152601f19601f820116905080830192505050505050509192919290505050612af8565b604051808215151515815260200191505060405180910390f35b610c2460048036036060811015610bf757600080fd5b8101908080359060200190929190803560ff16906020019092919080359060200190929190505050612cdb565b6040518082815260200191505060405180910390f35b818015610c4657600080fd5b50610cbd60048036036080811015610c5d57600080fd5b810190808035906020019092919080359060200190929190803573ffffffffffffffffffffffffffffffffffffffff169060200190929190803573ffffffffffffffffffffffffffffffffffffffff169060200190929190505050612d62565b6040518082815260200191505060405180910390f35b610d1360048036036060811015610ce957600080fd5b81019080803590602001909291908035906020019092919080359060200190929190505050613030565b6040518082815260200191505060405180910390f35b610d5560048036036020811015610d3f57600080fd5b810190808035906020019092919050505061306e565b6040518082815260200191505060405180910390f35b6000838560020160003373ffffffffffffffffffffffffffffffffffffffff1673ffffffffffffffffffffffffffffffffffffffff16815260200190815260200160002060000181905550828560020160003373ffffffffffffffffffffffffffffffffffffffff1673ffffffffffffffffffffffffffffffffffffffff16815260200190815260200160002060010160006101000a81548173ffffffffffffffffffffffffffffffffffffffff021916908373ffffffffffffffffffffffffffffffffffffffff160217905550818560020160003373ffffffffffffffffffffffffffffffffffffffff1673ffffffffffffffffffffffffffffffffffffffff16815260200190815260200160002060020160006101000a81548173ffffffffffffffffffffffffffffffffffffffff021916908373ffffffffffffffffffffffffffffffffffffffff16021790555060008560020160003373ffffffffffffffffffffffffffffffffffffffff1673ffffffffffffffffffffffffffffffffffffffff16815260200190815260200160002060030154141561102257846003013390806001815401808255809150509060018203906000526020600020016000909192909190916101000a81548173ffffffffffffffffffffffffffffffffffffffff021916908373ffffffffffffffffffffffffffffffffffffffff1602179055505060018560020160003373ffffffffffffffffffffffffffffffffffffffff1673ffffffffffffffffffffffffffffffffffffffff1681526020019081526020016000206003018190555060018560020160003373ffffffffffffffffffffffffffffffffffffffff1673ffffffffffffffffffffffffffffffffffffffff16815260200190815260200160002060040160006101000a81548160ff0219169083600181111561101c57fe5b02179055505b60018081111561102e57fe5b9050949350505050565b600084826110458261306e565b81101515156110bc576040517f08c379a00000000000000000000000000000000000000000000000000000000081526004018080602001828103825260198152602001807f4d7573742062652066757475726520726577617264734461790000000000000081525060200191505060405180910390fd5b8660040160008760038111156110ce57fe5b8152602001908152602001600020600201548411151561113d57848760040160008860038111156110fb57fe5b8152602001908152602001600020600001819055508387600401600088600381111561112357fe5b8152602001908152602001600020600201819055506111d9565b86600401600087600381111561114f57fe5b81526020019081526020016000206000015487600401600088600381111561117357fe5b8152602001908152602001600020600101819055508487600401600088600381111561119b57fe5b815260200190815260200160002060000181905550838760040160008860038111156111c357fe5b8152602001908152602001600020600201819055505b600192505050949350505050565b600080600186600f01600001600086815260200190815260200160002060030154141561128a5782156112525761121e868661278b565b905085600f0160000160008581526020019081526020016000206002015481111561124d576000915050611290565b611271565b85600f0160000160008581526020019081526020016000206002015490505b600061127e878784611d1a565b90508092505050611290565b60009150505b949350505050565b60008060006001905060008090505b84518110156113435784818151811015156112be57fe5b9060200190602002015183019250600187600001600088848151811015156112e257fe5b9060200190602002015173ffffffffffffffffffffffffffffffffffffffff1673ffffffffffffffffffffffffffffffffffffffff1681526020019081526020016000206003015414151561133657600091505b80806001019150506112a7565b506000821180156113515750805b15156113eb576040517f08c379a00000000000000000000000000000000000000000000000000000000081526004018080602001828103825260278152602001807f53756d207a65726f206f72206e6f6e65206578697374696e672061707020737581526020017f626d69747465640000000000000000000000000000000000000000000000000081525060400191505060405180910390fd5b81925050509392505050565b60008282600073ffffffffffffffffffffffffffffffffffffffff168273ffffffffffffffffffffffffffffffffffffffff16141580156114655750600073ffffffffffffffffffffffffffffffffffffffff168173ffffffffffffffffffffffffffffffffffffffff1614155b15156114ff576040517f08c379a000000000000000000000000000000000000000000000000000000000815260040180806020018281038252602f8152602001807f4d75737420686176652076616c6964207265776172647320616e64207369646581526020017f636861696e20616464726573736573000000000000000000000000000000000081525060400191505060405180910390fd5b6000600181111561150c57fe5b87600181111561151857fe5b14156115305761152a88878787612d62565b5061153e565b61153c88878787610d6b565b505b60019250505095945050505050565b600086868061155b8361306e565b1415156115d0576040517f08c379a00000000000000000000000000000000000000000000000000000000081526004018080602001828103825260178152602001807f4d75737420626520666f722063757272656e742064617900000000000000000081525060200191505060405180910390fd5b888781600f01600001600082815260200190815260200160002060000160003373ffffffffffffffffffffffffffffffffffffffff1673ffffffffffffffffffffffffffffffffffffffff16815260200190815260200160002060009054906101000a900460ff161515156116d3576040517f08c379a00000000000000000000000000000000000000000000000000000000081526004018080602001828103825260248152602001807f4d757374206265206f6e65207375626d697373696f6e207065722076616c696481526020017f61746f720000000000000000000000000000000000000000000000000000000081525060400191505060405180910390fd5b8a8a600061181683600501606060405190810160405290816002820180548060200260200160405190810160405280929190818152602001828054801561176f57602002820191906000526020600020905b8160009054906101000a900473ffffffffffffffffffffffffffffffffffffffff1673ffffffffffffffffffffffffffffffffffffffff1681526020019060010190808311611725575b50505050508152602001600382018054806020026020016040519081016040528092919081815260200182805480156117fd57602002820191906000526020600020905b8160009054906101000a900473ffffffffffffffffffffffffffffffffffffffff1673ffffffffffffffffffffffffffffffffffffffff16815260200190600101908083116117b3575b50505050508152602001600482015481525050836130b4565b141561190d578160050160000160003373ffffffffffffffffffffffffffffffffffffffff1673ffffffffffffffffffffffffffffffffffffffff16815260200190815260200160002060009054906101000a900460ff161515611908576040517f08c379a00000000000000000000000000000000000000000000000000000000081526004018080602001828103825260248152602001807f4d75737420626520612063757272656e742073656c65637465642076616c696481526020017f61746f720000000000000000000000000000000000000000000000000000000081525060400191505060405180910390fd5b6119fa565b8160050160010160003373ffffffffffffffffffffffffffffffffffffffff1673ffffffffffffffffffffffffffffffffffffffff16815260200190815260200160002060009054906101000a900460ff1615156119f9576040517f08c379a00000000000000000000000000000000000000000000000000000000081526004018080602001828103825260258152602001807f4d75737420626520612070726576696f75732073656c65637465642076616c6981526020017f6461746f7200000000000000000000000000000000000000000000000000000081525060400191505060405180910390fd5b5b611a068c8c8c8c611f3d565b1515611a7a576040517f08c379a00000000000000000000000000000000000000000000000000000000081526004018080602001828103825260168152602001807f526577617264204861736820697320696e76616c69640000000000000000000081525060200191505060405180910390fd5b60008d600f0160000160008d8152602001908152602001600020600401541415611af15760018d600f0160000160008d8152602001908152602001600020600401819055508c600f016001018b90806001815401808255809150509060018203906000526020600020016000909192909190915055505b60018d600f0160000160008d815260200190815260200160002060000160003373ffffffffffffffffffffffffffffffffffffffff1673ffffffffffffffffffffffffffffffffffffffff16815260200190815260200160002060006101000a81548160ff0219169083151502179055508c600f0160000160008c81526020019081526020016000206001013390806001815401808255809150509060018203906000526020600020016000909192909190916101000a81548173ffffffffffffffffffffffffffffffffffffffff021916908373ffffffffffffffffffffffffffffffffffffffff160217905550508c600f0160000160008c815260200190815260200160002060020160008154809291906001019190505550611c168d8d6128f9565b8d600f0160000160008d8152602001908152602001600020600201541415611d05576000611c458e8c8c611298565b9050611c528e8e8b613030565b8111151515611cef576040517f08c379a00000000000000000000000000000000000000000000000000000000081526004018080602001828103825260308152602001807f52657761726473206461746120697320696e76616c6964202d2065786365656481526020017f206461696c7920766172696174696f6e0000000000000000000000000000000081525060400191505060405180910390fd5b611cfb8e8e8e8c612aa5565b5080975050611d0a565b600096505b5050505050509695505050505050565b6000816305f5e100611d2e86600387612cdb565b86600f016002015487601601540302811515611d4657fe5b04811515611d5057fe5b0490509392505050565b60008383611d678261306e565b8110151515611dde576040517f08c379a00000000000000000000000000000000000000000000000000000000081526004018080602001828103825260198152602001807f4d7573742062652066757475726520726577617264734461790000000000000081525060200191505060405180910390fd5b858460008090505b8151811015611ecf5760018360020160008484815181101515611e0557fe5b9060200190602002015173ffffffffffffffffffffffffffffffffffffffff1673ffffffffffffffffffffffffffffffffffffffff16815260200190815260200160002060030154141515611ec2576040517f08c379a00000000000000000000000000000000000000000000000000000000081526004018080602001828103825260148152602001807f56616c696461746f72206d75737420657869737400000000000000000000000081525060200191505060405180910390fd5b8080600101915050611de6565b50600088600501600201805490501415611ef657611ef088600501876130d7565b50611f22565b8760050160040154871115611f1357611f11886005016132a6565b505b611f2088600501876130d7565b505b86886005016004018190555060019450505050509392505050565b60008385848460405160200180848152602001838051906020019060200280838360005b83811015611f7c578082015181840152602081019050611f61565b50505050905001828051906020019060200280838360005b83811015611faf578082015181840152602081019050611f94565b50505050905001935050505060405160208183030381529060405280519060200120149050949350505050565b606060006001811115611feb57fe5b836001811115611ff757fe5b141561226a57600061213e85600a01606060405190810160405290816002820180548060200260200160405190810160405280929190818152602001828054801561209757602002820191906000526020600020905b8160009054906101000a900473ffffffffffffffffffffffffffffffffffffffff1673ffffffffffffffffffffffffffffffffffffffff168152602001906001019080831161204d575b505050505081526020016003820180548060200260200160405190810160405280929190818152602001828054801561212557602002820191906000526020600020905b8160009054906101000a900473ffffffffffffffffffffffffffffffffffffffff1673ffffffffffffffffffffffffffffffffffffffff16815260200190600101908083116120db575b50505050508152602001600482015481525050846130b4565b14156121d75783600a016002018054806020026020016040519081016040528092919081815260200182805480156121cb57602002820191906000526020600020905b8160009054906101000a900473ffffffffffffffffffffffffffffffffffffffff1673ffffffffffffffffffffffffffffffffffffffff1681526020019060010190808311612181575b505050505090506124d3565b83600a0160030180548060200260200160405190810160405280929190818152602001828054801561225e57602002820191906000526020600020905b8160009054906101000a900473ffffffffffffffffffffffffffffffffffffffff1673ffffffffffffffffffffffffffffffffffffffff1681526020019060010190808311612214575b505050505090506124d3565b60006123ab85600501606060405190810160405290816002820180548060200260200160405190810160405280929190818152602001828054801561230457602002820191906000526020600020905b8160009054906101000a900473ffffffffffffffffffffffffffffffffffffffff1673ffffffffffffffffffffffffffffffffffffffff16815260200190600101908083116122ba575b505050505081526020016003820180548060200260200160405190810160405280929190818152602001828054801561239257602002820191906000526020600020905b8160009054906101000a900473ffffffffffffffffffffffffffffffffffffffff1673ffffffffffffffffffffffffffffffffffffffff1681526020019060010190808311612348575b50505050508152602001600482015481525050846130b4565b1415612444578360050160020180548060200260200160405190810160405280929190818152602001828054801561243857602002820191906000526020600020905b8160009054906101000a900473ffffffffffffffffffffffffffffffffffffffff1673ffffffffffffffffffffffffffffffffffffffff16815260200190600101908083116123ee575b505050505090506124d3565b836005016003018054806020026020016040519081016040528092919081815260200182805480156124cb57602002820191906000526020600020905b8160009054906101000a900473ffffffffffffffffffffffffffffffffffffffff1673ffffffffffffffffffffffffffffffffffffffff1681526020019060010190808311612481575b505050505090505b9392505050565b6000606082600f0160010180548060200260200160405190810160405280929190818152602001828054801561252f57602002820191906000526020600020905b81548152602001906001019080831161251b575b5050505050905060008090505b81518110156127715760008090505b84600f016000016000848481518110151561256257fe5b9060200190602002015181526020019081526020016000206001018054905081101561267d5784600f016000016000848481518110151561259f57fe5b906020019060200201518152602001908152602001600020600001600086600f01600001600086868151811015156125d357fe5b906020019060200201518152602001908152602001600020600101838154811015156125fb57fe5b9060005260206000200160009054906101000a900473ffffffffffffffffffffffffffffffffffffffff1673ffffffffffffffffffffffffffffffffffffffff1673ffffffffffffffffffffffffffffffffffffffff16815260200190815260200160002060006101000a81549060ff0219169055808060010191505061254b565b5083600f016000016000838381518110151561269557fe5b90602001906020020151815260200190815260200160002060010160006126bc9190613680565b600084600f01600001600084848151811015156126d557fe5b90602001906020020151815260200190815260200160002060020181905550600084600f016000016000848481518110151561270d57fe5b90602001906020020151815260200190815260200160002060030181905550600084600f016000016000848481518110151561274557fe5b90602001906020020151815260200190815260200160002060040181905550808060010191505061253c565b5082600f01600101600061278591906136a1565b50919050565b6000806128cd84600501606060405190810160405290816002820180548060200260200160405190810160405280929190818152602001828054801561282657602002820191906000526020600020905b8160009054906101000a900473ffffffffffffffffffffffffffffffffffffffff1673ffffffffffffffffffffffffffffffffffffffff16815260200190600101908083116127dc575b50505050508152602001600382018054806020026020016040519081016040528092919081815260200182805480156128b457602002820191906000526020600020905b8160009054906101000a900473ffffffffffffffffffffffffffffffffffffffff1673ffffffffffffffffffffffffffffffffffffffff168152602001906001019080831161286a575b50505050508152602001600482015481525050846130b4565b14156128e557826005016002018054905090506128f3565b826005016003018054905090505b92915050565b600080612a3b84600501606060405190810160405290816002820180548060200260200160405190810160405280929190818152602001828054801561299457602002820191906000526020600020905b8160009054906101000a900473ffffffffffffffffffffffffffffffffffffffff1673ffffffffffffffffffffffffffffffffffffffff168152602001906001019080831161294a575b5050505050815260200160038201805480602002602001604051908101604052809291908181526020018280548015612a2257602002820191906000526020600020905b8160009054906101000a900473ffffffffffffffffffffffffffffffffffffffff1673ffffffffffffffffffffffffffffffffffffffff16815260200190600101908083116129d8575b50505050508152602001600482015481525050846130b4565b1415612a725760016305f5e100612a5485600286612cdb565b856005016002018054905002811515612a6957fe5b04019050612a9f565b60016305f5e100612a8585600286612cdb565b856005016003018054905002811515612a9a57fe5b040190505b92915050565b60008185600f01600201819055508285600f01600301819055508385600f0160040181905550600185600f0160000160008581526020019081526020016000206003018190555060019050949350505050565b60008383612b058261306e565b8110151515612b7c576040517f08c379a00000000000000000000000000000000000000000000000000000000081526004018080602001828103825260198152602001807f4d7573742062652066757475726520726577617264734461790000000000000081525060200191505060405180910390fd5b858460008090505b8151811015612c6d5760018360000160008484815181101515612ba357fe5b9060200190602002015173ffffffffffffffffffffffffffffffffffffffff1673ffffffffffffffffffffffffffffffffffffffff16815260200190815260200160002060030154141515612c60576040517f08c379a00000000000000000000000000000000000000000000000000000000081526004018080602001828103825260168152602001807f4170706c69636174696f6e206d7573742065786973740000000000000000000081525060200191505060405180910390fd5b8080600101915050612b84565b50600088600a01600201805490501415612c9457612c8e88600a01876130d7565b50612cc0565b87600a0160040154871115612cb157612caf88600a016132a6565b505b612cbe88600a01876130d7565b505b8688600a016004018190555060019450505050509392505050565b6000836004016000846003811115612cef57fe5b81526020019081526020016000206002015482101515612d3457836004016000846003811115612d1b57fe5b8152602001908152602001600020600001549050612d5b565b836004016000846003811115612d4657fe5b81526020019081526020016000206001015490505b9392505050565b6000838560000160003373ffffffffffffffffffffffffffffffffffffffff1673ffffffffffffffffffffffffffffffffffffffff16815260200190815260200160002060000181905550828560000160003373ffffffffffffffffffffffffffffffffffffffff1673ffffffffffffffffffffffffffffffffffffffff16815260200190815260200160002060010160006101000a81548173ffffffffffffffffffffffffffffffffffffffff021916908373ffffffffffffffffffffffffffffffffffffffff160217905550818560000160003373ffffffffffffffffffffffffffffffffffffffff1673ffffffffffffffffffffffffffffffffffffffff16815260200190815260200160002060020160006101000a81548173ffffffffffffffffffffffffffffffffffffffff021916908373ffffffffffffffffffffffffffffffffffffffff16021790555060008560000160003373ffffffffffffffffffffffffffffffffffffffff1673ffffffffffffffffffffffffffffffffffffffff16815260200190815260200160002060030154141561301957846001013390806001815401808255809150509060018203906000526020600020016000909192909190916101000a81548173ffffffffffffffffffffffffffffffffffffffff021916908373ffffffffffffffffffffffffffffffffffffffff1602179055505060018560000160003373ffffffffffffffffffffffffffffffffffffffff1673ffffffffffffffffffffffffffffffffffffffff1681526020019081526020016000206003018190555060008560000160003373ffffffffffffffffffffffffffffffffffffffff1673ffffffffffffffffffffffffffffffffffffffff16815260200190815260200160002060040160006101000a81548160ff0219169083600181111561301357fe5b02179055505b6000600181111561302657fe5b9050949350505050565b6000662386f26fc1000061304685600186612cdb565b61305286600087612cdb565b84876016015403020281151561306457fe5b0490509392505050565b600080826014015411156130aa578160140154826015015483601401544281151561309557fe5b064203038115156130a257fe5b0490506130af565b600090505b919050565b60008260400151821015156130cc57600090506130d1565b600190505b92915050565b60008060008460020180549050149050801580156130fd57508251846002018054905014155b156131115761310b846134ec565b50600190505b60008090505b835181101561329a5781156131aa5784600201848281518110151561313857fe5b9060200190602002015190806001815401808255809150509060018203906000526020600020016000909192909190916101000a81548173ffffffffffffffffffffffffffffffffffffffff021916908373ffffffffffffffffffffffffffffffffffffffff1602179055505061321c565b83818151811015156131b857fe5b9060200190602002015185600201828154811015156131d357fe5b9060005260206000200160006101000a81548173ffffffffffffffffffffffffffffffffffffffff021916908373ffffffffffffffffffffffffffffffffffffffff1602179055505b6001856000016000868481518110151561323257fe5b9060200190602002015173ffffffffffffffffffffffffffffffffffffffff1673ffffffffffffffffffffffffffffffffffffffff16815260200190815260200160002060006101000a81548160ff0219169083151502179055508080600101915050613117565b50600191505092915050565b60008060008360030180549050149050801580156132d257508260020180549050836003018054905014155b156132e6576132e0836135b6565b50600190505b60008090505b83600201805490508110156134e15781156133a95783600301846002018281548110151561331657fe5b9060005260206000200160009054906101000a900473ffffffffffffffffffffffffffffffffffffffff1690806001815401808255809150509060018203906000526020600020016000909192909190916101000a81548173ffffffffffffffffffffffffffffffffffffffff021916908373ffffffffffffffffffffffffffffffffffffffff1602179055505061343f565b83600201818154811015156133ba57fe5b9060005260206000200160009054906101000a900473ffffffffffffffffffffffffffffffffffffffff1684600301828154811015156133f657fe5b9060005260206000200160006101000a81548173ffffffffffffffffffffffffffffffffffffffff021916908373ffffffffffffffffffffffffffffffffffffffff1602179055505b6001846001016000866002018481548110151561345857fe5b9060005260206000200160009054906101000a900473ffffffffffffffffffffffffffffffffffffffff1673ffffffffffffffffffffffffffffffffffffffff1673ffffffffffffffffffffffffffffffffffffffff16815260200190815260200160002060006101000a81548160ff02191690831515021790555080806001019150506132ec565b506001915050919050565b600080600090505b826002018054905081101561359c57826000016000846002018381548110151561351a57fe5b9060005260206000200160009054906101000a900473ffffffffffffffffffffffffffffffffffffffff1673ffffffffffffffffffffffffffffffffffffffff1673ffffffffffffffffffffffffffffffffffffffff16815260200190815260200160002060006101000a81549060ff021916905580806001019150506134f4565b508160020160006135ad9190613680565b60019050919050565b600080600090505b82600301805490508110156136665782600101600084600301838154811015156135e457fe5b9060005260206000200160009054906101000a900473ffffffffffffffffffffffffffffffffffffffff1673ffffffffffffffffffffffffffffffffffffffff1673ffffffffffffffffffffffffffffffffffffffff16815260200190815260200160002060006101000a81549060ff021916905580806001019150506135be565b508160030160006136779190613680565b60019050919050565b508054600082559060005260206000209081019061369e91906136c2565b50565b50805460008255906000526020600020908101906136bf91906136e7565b50565b6136e491905b808211156136e05760008160009055506001016136c8565b5090565b90565b61370991905b808211156137055760008160009055506001016136ed565b5090565b9056fea165627a7a72305820beaa553e2e3db04df0b71bbb2fbcab89fa83bd374f78e4e9a7a43800a4f5a1700029",
  "source": "pragma solidity ^0.5.0;\n\n/**\n * @title Props Rewards Library\n * @dev Library to manage application and validators and parameters\n **/\nlibrary PropsRewardsLib {\n    /*\n    *  Events\n    */\n\n    /*\n    *  Storage\n    */\n\n    // The various parameters used by the contract\n    enum ParameterName { ApplicationRewardsPercent, ApplicationRewardsMaxVariationPercent, ValidatorMajorityPercent, ValidatorRewardsPercent}\n    enum RewardedEntityType { Application, Validator }\n\n    // Represents a parameter current, previous and time of change\n    struct Parameter {\n        uint256 currentValue;                   // current value in Pphm valid after timestamp\n        uint256 previousValue;                  // previous value in Pphm for use before timestamp\n        uint256 rewardsDay;                // timestamp of when the value was updated\n    }\n    // Represents application details\n    struct RewardedEntity {\n        bytes32 name;                           // Application name\n        address rewardsAddress;                 // address where rewards will be minted to\n        address sidechainAddress;               // address used on the sidechain\n        uint256 initializedState;               // A way to check if there's something in the map and whether already added to list\n        RewardedEntityType entityType;                // Type of rewarded entity\n    }\n\n    // Represents validators current and previous lists\n    struct RewardedEntityList {\n        mapping (address => bool) current;\n        mapping (address => bool) previous;\n        address[] currentList;\n        address[] previousList;\n        uint256 rewardsDay;\n    }\n\n    // Represents daily reward submissions and confimations\n    struct DailyRewards {\n        mapping (bytes32 => Submission) submissions;\n        bytes32[] submittedRewardHashes;\n        uint256 totalSupply;\n        bytes32 lastConfirmedRewardsHash;\n        uint256 lastRewardsDay;\n    }\n\n    struct Submission {\n        mapping (address => bool) validators;\n        address[] validatorsList;\n        uint256 confirmations;\n        uint256 finalized;\n        uint256 initializedState;               // A way to check if there's something in the map and whether already added to list\n    }\n\n\n    // represent the storage structures\n    struct Data {\n        // applications data\n        mapping (address => RewardedEntity) applications;\n        address[] applicationsList;\n        // validators data\n        mapping (address => RewardedEntity) validators;\n        address[] validatorsList;\n        // adjustable parameters data\n        mapping (uint256 => Parameter) parameters; // uint256 is the parameter enum index\n        // the participating validators\n        RewardedEntityList selectedValidators;\n        // the participating applications\n        RewardedEntityList selectedApplications;\n        // daily rewards submission data\n        DailyRewards dailyRewards;\n        uint256 minSecondsBetweenDays;\n        uint256 rewardsStartTimestamp;\n        uint256 maxTotalSupply;\n    }\n    /*\n    *  Modifiers\n    */\n    modifier onlyOneRewardsHashPerValidator(Data storage _self, bytes32 _rewardsHash) {\n        require(\n            !_self.dailyRewards.submissions[_rewardsHash].validators[msg.sender],\n            \"Must be one submission per validator\"\n        );\n         _;\n    }\n\n    modifier onlyExistingApplications(Data storage _self, address[] memory _entities) {\n        for (uint256 i = 0; i < _entities.length; i++) {\n            require(\n                _self.applications[_entities[i]].initializedState == 1,\n                \"Application must exist\"\n            );\n        }\n        _;\n    }\n\n    modifier onlyExistingValidators(Data storage _self, address[] memory _entities) {\n        for (uint256 i = 0; i < _entities.length; i++) {\n            require(\n                _self.validators[_entities[i]].initializedState == 1,\n                \"Validator must exist\"\n            );\n        }\n        _;\n    }\n\n    modifier onlySelectedValidators(Data storage _self, uint256 _rewardsDay) {\n        if (_getSelectedRewardedEntityListType(_self.selectedValidators, _rewardsDay) == 0) {\n            require (\n                _self.selectedValidators.current[msg.sender],\n                \"Must be a current selected validator\"\n            );\n        } else {\n            require (\n                _self.selectedValidators.previous[msg.sender],\n                \"Must be a previous selected validator\"\n            );\n        }\n        _;\n    }\n\n    modifier onlyValidRewardsDay(Data storage _self, uint256 _rewardsDay) {\n        require(\n            _currentRewardsDay(_self) == _rewardsDay,\n            \"Must be for current day\"\n        );\n         _;\n    }\n\n    modifier onlyValidFutureRewardsDay(Data storage _self, uint256 _rewardsDay) {\n        require(\n            _rewardsDay >= _currentRewardsDay(_self),\n            \"Must be future rewardsDay\"\n        );\n         _;\n    }\n\n    modifier onlyValidAddresses(address _rewardsAddress, address _sidechainAddress) {\n        require(\n            _rewardsAddress != address(0) &&\n            _sidechainAddress != address(0),\n            \"Must have valid rewards and sidechain addresses\"\n        );\n        _;\n    }\n\n    /**\n    * @dev The function is called by validators with the calculation of the daily rewards\n    * @param _self Data pointer to storage\n    * @param _rewardsDay uint256 the rewards day\n    * @param _rewardsHash bytes32 hash of the rewards data\n    */\n    function calculateValidatorRewards(\n        Data storage _self,\n        uint256 _rewardsDay,\n        bytes32 _rewardsHash,\n        bool _allValidators\n    )\n        public\n        view\n        returns (uint256)\n    {\n        uint256 numOfValidators;\n        if (_self.dailyRewards.submissions[_rewardsHash].finalized == 1)\n        {\n            if (_allValidators) {\n                numOfValidators = _requiredValidatorsForValidatorsRewards(_self, _rewardsDay);\n                if (numOfValidators > _self.dailyRewards.submissions[_rewardsHash].confirmations) return 0;\n            } else {\n                numOfValidators = _self.dailyRewards.submissions[_rewardsHash].confirmations;\n            }\n            uint256 rewardPerValidator = _getValidatorRewardsDailyAmountPerValidator(_self, _rewardsDay, numOfValidators);\n            return rewardPerValidator;\n        }\n        return 0;\n    }\n\n    /**\n    * @dev The function is called by validators with the calculation of the daily rewards\n    * @param _self Data pointer to storage\n    * @param _rewardsDay uint256 the rewards day\n    * @param _rewardsHash bytes32 hash of the rewards data\n    * @param _applications address[] array of application addresses getting the daily reward\n    * @param _amounts uint256[] array of amounts each app should get\n    * @param _currentTotalSupply uint256 current total supply\n    */\n    function calculateApplicationRewards(\n        Data storage _self,\n        uint256 _rewardsDay,\n        bytes32 _rewardsHash,\n        address[] memory _applications,\n        uint256[] memory _amounts,\n        uint256 _currentTotalSupply\n    )\n        public\n        onlyValidRewardsDay(_self, _rewardsDay)\n        onlyOneRewardsHashPerValidator(_self, _rewardsHash)\n        onlySelectedValidators(_self, _rewardsDay)\n        returns (uint256)\n    {\n        require(\n                _rewardHashIsvalid(_rewardsDay, _rewardsHash, _applications, _amounts),\n                \"Reward Hash is invalid\"\n        );\n        if (_self.dailyRewards.submissions[_rewardsHash].initializedState == 0) {\n            _self.dailyRewards.submissions[_rewardsHash].initializedState = 1;\n            _self.dailyRewards.submittedRewardHashes.push(_rewardsHash);\n        }\n        _self.dailyRewards.submissions[_rewardsHash].validators[msg.sender] = true;\n        _self.dailyRewards.submissions[_rewardsHash].validatorsList.push(msg.sender);\n        _self.dailyRewards.submissions[_rewardsHash].confirmations++;\n\n        if (_self.dailyRewards.submissions[_rewardsHash].confirmations == _requiredValidatorsForAppRewards(_self, _rewardsDay)) {\n            uint256 sum = _validateSubmittedData(_self, _applications, _amounts);\n            require(\n                sum <= _getMaxAppRewardsDailyAmount(_self, _rewardsDay, _currentTotalSupply),\n                \"Rewards data is invalid - exceed daily variation\"\n            );\n            _finalizeDailyApplicationRewards(_self, _rewardsDay, _rewardsHash, _currentTotalSupply);\n            return sum;\n        }\n        return 0;\n    }\n\n    /**\n    * @dev Finalizes the state, rewards Hash, total supply and block timestamp for the day\n    * @param _self Data pointer to storage\n    * @param _rewardsDay uint256 the reward day\n    * @param _rewardsHash bytes32 the daily reward hash\n    * @param _currentTotalSupply uint256 the current total supply\n    */\n    function _finalizeDailyApplicationRewards(Data storage _self, uint256 _rewardsDay, bytes32 _rewardsHash, uint256 _currentTotalSupply)\n        public\n        returns (bool)\n    {\n        _self.dailyRewards.totalSupply = _currentTotalSupply;\n        _self.dailyRewards.lastConfirmedRewardsHash = _rewardsHash;\n        _self.dailyRewards.lastRewardsDay = _rewardsDay;\n        _self.dailyRewards.submissions[_rewardsHash].finalized = 1;\n        return true;\n    }\n\n    /**\n    * @dev Get parameter's value\n    * @param _self Data pointer to storage\n    * @param _name ParameterName name of the parameter\n    * @param _rewardsDay uint256 the rewards day\n    */\n    function getParameterValue(\n        Data storage _self,\n        ParameterName _name,\n        uint256 _rewardsDay\n    )\n        public\n        view\n        returns (uint256)\n    {\n        if (_rewardsDay >= _self.parameters[uint256(_name)].rewardsDay) {\n            return _self.parameters[uint256(_name)].currentValue;\n        } else {\n            return _self.parameters[uint256(_name)].previousValue;\n        }\n    }\n\n    /**\n    * @dev Allows the controller/owner to update rewards parameters\n    * @param _self Data pointer to storage\n    * @param _name ParameterName name of the parameter\n    * @param _value uint256 new value for the parameter\n    * @param _rewardsDay uint256 the rewards day\n    */\n    function updateParameter(\n        Data storage _self,\n        ParameterName _name,\n        uint256 _value,\n        uint256 _rewardsDay\n    )\n        public\n        onlyValidFutureRewardsDay(_self, _rewardsDay)\n        returns (bool)\n    {\n        if (_rewardsDay <= _self.parameters[uint256(_name)].rewardsDay) {\n           _self.parameters[uint256(_name)].currentValue = _value;\n           _self.parameters[uint256(_name)].rewardsDay = _rewardsDay;\n        } else {\n            _self.parameters[uint256(_name)].previousValue = _self.parameters[uint256(_name)].currentValue;\n            _self.parameters[uint256(_name)].currentValue = _value;\n           _self.parameters[uint256(_name)].rewardsDay = _rewardsDay;\n        }\n        return true;\n    }\n\n    /**\n    * @dev Allows an application to add/update its details\n    * @param _self Data pointer to storage\n    * @param _entityType RewardedEntityType either application (0) or validator (1)\n    * @param _name bytes32 name of the app\n    * @param _rewardsAddress address an address for the app to receive the rewards\n    * @param _sidechainAddress address the address used for using the sidechain\n    */\n    function updateEntity(\n        Data storage _self,\n        RewardedEntityType _entityType,\n        bytes32 _name,\n        address _rewardsAddress,\n        address _sidechainAddress\n    )\n        public\n        onlyValidAddresses(_rewardsAddress, _sidechainAddress)\n        returns (bool)\n    {\n        if (_entityType == RewardedEntityType.Application) {\n            updateApplication(_self, _name, _rewardsAddress, _sidechainAddress);\n        } else {\n            updateValidator(_self, _name, _rewardsAddress, _sidechainAddress);\n        }\n        return true;\n    }\n\n    /**\n    * @dev Allows an application to add/update its details\n    * @param _self Data pointer to storage\n    * @param _name bytes32 name of the app\n    * @param _rewardsAddress address an address for the app to receive the rewards\n    * @param _sidechainAddress address the address used for using the sidechain\n    */\n    function updateApplication(\n        Data storage _self,\n        bytes32 _name,\n        address _rewardsAddress,\n        address _sidechainAddress\n    )\n        public\n        returns (uint256)\n    {\n        _self.applications[msg.sender].name = _name;\n        _self.applications[msg.sender].rewardsAddress = _rewardsAddress;\n        _self.applications[msg.sender].sidechainAddress = _sidechainAddress;\n        if (_self.applications[msg.sender].initializedState == 0) {\n            _self.applicationsList.push(msg.sender);\n            _self.applications[msg.sender].initializedState = 1;\n            _self.applications[msg.sender].entityType = RewardedEntityType.Application;\n        }\n        return uint256(RewardedEntityType.Application);\n    }\n\n    /**\n    * @dev Allows a validator to add/update its details\n    * @param _self Data pointer to storage\n    * @param _name bytes32 name of the validator\n    * @param _rewardsAddress address an address for the validator to receive the rewards\n    * @param _sidechainAddress address the address used for using the sidechain\n    */\n    function updateValidator(\n        Data storage _self,\n        bytes32 _name,\n        address _rewardsAddress,\n        address _sidechainAddress\n    )\n        public\n        returns (uint256)\n    {\n        _self.validators[msg.sender].name = _name;\n        _self.validators[msg.sender].rewardsAddress = _rewardsAddress;\n        _self.validators[msg.sender].sidechainAddress = _sidechainAddress;\n        if (_self.validators[msg.sender].initializedState == 0) {\n            _self.validatorsList.push(msg.sender);\n            _self.validators[msg.sender].initializedState = 1;\n            _self.validators[msg.sender].entityType = RewardedEntityType.Validator;\n        }\n        return uint256(RewardedEntityType.Validator);\n    }\n\n    /**\n    * @dev Set new validators list\n    * @param _self Data pointer to storage\n    * @param _rewardsDay uint256 the rewards day from which the list should be active\n    * @param _validators address[] array of validators\n    */\n    function setValidators(\n        Data storage _self,\n        uint256 _rewardsDay,\n        address[] memory _validators\n    )\n        public\n        onlyValidFutureRewardsDay(_self, _rewardsDay)\n        onlyExistingValidators(_self, _validators)\n        returns (bool)\n    {\n\n        if (_self.selectedValidators.currentList.length == 0) { // first time the daily validators list is set\n            _updateCurrentEntityList(_self.selectedValidators, _validators);\n        } else {\n            if (_rewardsDay > _self.selectedValidators.rewardsDay)\n                _updatePreviousEntityList(_self.selectedValidators);\n            _updateCurrentEntityList(_self.selectedValidators, _validators);\n        }\n        _self.selectedValidators.rewardsDay = _rewardsDay;\n        return true;\n    }\n\n   /**\n    * @dev Set new applications list\n    * @param _self Data pointer to storage\n    * @param _rewardsDay uint256 the rewards day from which the list should be active\n    * @param _applications address[] array of applications\n    */\n    function setApplications(\n        Data storage _self,\n        uint256 _rewardsDay,\n        address[] memory _applications\n    )\n        public\n        onlyValidFutureRewardsDay(_self, _rewardsDay)\n        onlyExistingApplications(_self, _applications)\n        returns (bool)\n    {\n\n        if (_self.selectedApplications.currentList.length == 0) { // first time the daily validators list is set\n            _updateCurrentEntityList(_self.selectedApplications, _applications);\n        } else {\n            if (_rewardsDay > _self.selectedApplications.rewardsDay)\n                _updatePreviousEntityList(_self.selectedApplications);\n            _updateCurrentEntityList(_self.selectedApplications, _applications);\n        }\n        _self.selectedApplications.rewardsDay = _rewardsDay;\n        return true;\n    }\n\n    /**\n    * @dev Get applications or validators list\n    * @param _self Data pointer to storage\n    * @param _entityType RewardedEntityType either application (0) or validator (1)\n    * @param _rewardsDay uint256 the reward day to determine which list to get\n    */\n    function getEntities(\n        Data storage _self,\n        RewardedEntityType _entityType,\n        uint256 _rewardsDay\n    )\n        public\n        view\n        returns (address[] memory)\n    {\n        if (_entityType == RewardedEntityType.Application) {\n            if (_getSelectedRewardedEntityListType(_self.selectedApplications, _rewardsDay) == 0) {\n                return _self.selectedApplications.currentList;\n            } else {\n                return _self.selectedApplications.previousList;\n            }\n        } else {\n            if (_getSelectedRewardedEntityListType(_self.selectedValidators, _rewardsDay) == 0) {\n                return _self.selectedValidators.currentList;\n            } else {\n                return _self.selectedValidators.previousList;\n            }\n        }\n    }\n\n    /**\n    * @dev Get which entity list to use. Current = 0, previous = 1\n    * @param _rewardedEntitylist RewardedEntityList pointer to storage\n    * @param _rewardsDay uint256 the reward day to determine which list to get\n    */\n    function _getSelectedRewardedEntityListType(RewardedEntityList memory _rewardedEntitylist, uint256 _rewardsDay)\n        internal\n        pure\n        returns (uint256)\n    {\n        if (_rewardsDay >= _rewardedEntitylist.rewardsDay) {\n            return 0;\n        } else {\n            return 1;\n        }\n    }\n\n    /**\n    * @dev Checks how many validators are needed for app rewards\n    * @param _self Data pointer to storage\n    * @param _rewardsDay uint256 the reward day\n    * @param _currentTotalSupply uint256 current total supply\n    */\n    function _getMaxAppRewardsDailyAmount(\n        Data storage _self,\n        uint256 _rewardsDay,\n        uint256 _currentTotalSupply\n    )\n        public\n        view\n        returns (uint256)\n    {\n        return ((_self.maxTotalSupply - _currentTotalSupply) *\n        getParameterValue(_self, ParameterName.ApplicationRewardsPercent, _rewardsDay) *\n        getParameterValue(_self, ParameterName.ApplicationRewardsMaxVariationPercent, _rewardsDay)) / 1e16;\n    }\n\n\n    /**\n    * @dev Checks how many validators are needed for app rewards\n    * @param _self Data pointer to storage\n    * @param _rewardsDay uint256 the reward day\n    * @param _numOfValidators uint256 number of validators\n    */\n    function _getValidatorRewardsDailyAmountPerValidator(\n        Data storage _self,\n        uint256 _rewardsDay,\n        uint256 _numOfValidators\n    )\n        public\n        view\n        returns (uint256)\n    {\n        return (((_self.maxTotalSupply - _self.dailyRewards.totalSupply) *\n        getParameterValue(_self, ParameterName.ValidatorRewardsPercent, _rewardsDay)) / 1e8) / _numOfValidators;\n    }\n\n    /**\n    * @dev Checks if app daily rewards amount is valid\n    * @param _self Data pointer to storage\n    * @param _applications address[] array of application addresses getting the daily reward\n    * @param _amounts uint256[] array of amounts each app should get\n    */\n    function _validateSubmittedData(\n        Data storage _self,\n        address[] memory _applications,\n        uint256[] memory _amounts\n    )\n        public\n        view\n        returns (uint256)\n    {\n        uint256 sum;\n        bool valid = true;\n        for (uint256 i = 0; i < _amounts.length; i++) {\n             sum += _amounts[i];\n            if (_self.applications[_applications[i]].initializedState != 1) valid = false;\n        }\n        require(\n                sum > 0 && valid,\n                \"Sum zero or none existing app submitted\"\n        );\n        return sum;\n    }\n\n    /**\n    * @dev Checks if submitted data matches reward hash\n    * @param _rewardsDay uint256 the reward day\n    * @param _rewardsHash bytes32 hash of the rewards data\n    * @param _applications address[] array of application addresses getting the daily reward\n    * @param _amounts uint256[] array of amounts each app should get\n    */\n    function _rewardHashIsvalid(\n        uint256 _rewardsDay,\n        bytes32 _rewardsHash,\n        address[] memory _applications,\n        uint256[] memory _amounts\n    )\n        public\n        pure\n        returns (bool)\n    {\n        return keccak256(abi.encodePacked(_rewardsDay, _applications, _amounts)) == _rewardsHash;\n    }\n\n    /**\n    * @dev Checks how many validators are needed for app rewards\n    * @param _self Data pointer to storage\n    * @param _rewardsDay uint256 the reward day\n    */\n    function _requiredValidatorsForValidatorsRewards(Data storage _self, uint256 _rewardsDay)\n        public\n        view\n        returns (uint256)\n    {\n        if (_getSelectedRewardedEntityListType(_self.selectedValidators, _rewardsDay) == 0) {\n            return _self.selectedValidators.currentList.length;\n        } else {\n            return _self.selectedValidators.previousList.length;\n        }\n    }\n\n    /**\n    * @dev Checks how many validators are needed for app rewards\n    * @param _self Data pointer to storage\n    * @param _rewardsDay uint256 the reward day\n    */\n    function _requiredValidatorsForAppRewards(Data storage _self, uint256 _rewardsDay)\n        public\n        view\n        returns (uint256)\n    {\n        if (_getSelectedRewardedEntityListType(_self.selectedValidators, _rewardsDay) == 0) {\n            return ((_self.selectedValidators.currentList.length * getParameterValue(_self, ParameterName.ValidatorMajorityPercent, _rewardsDay)) / 1e8)+1;\n        } else {\n            return ((_self.selectedValidators.previousList.length * getParameterValue(_self, ParameterName.ValidatorMajorityPercent, _rewardsDay)) / 1e8)+1;\n        }\n    }\n\n    /**\n    * @dev Get rewards day from block.timestamp\n    * @param _self Data pointer to storage\n    */\n    function _currentRewardsDay(Data storage _self)\n        public\n        view\n        returns (uint256)\n    {\n        //the the start time - floor timestamp to previous midnight divided by seconds in a day will give the rewards day number\n        if (_self.minSecondsBetweenDays > 0) {\n            return ((block.timestamp - (block.timestamp % _self.minSecondsBetweenDays)) - _self.rewardsStartTimestamp) / _self.minSecondsBetweenDays;\n        } else {\n            return 0;\n        }\n    }\n\n    /**\n    * @dev Update current daily applications list.\n    * If new, push.\n    * If same size, replace\n    * If different size, delete, and then push.\n    * @param _rewardedEntitylist RewardedEntityList pointer to storage\n    * @param _entities address[] array of entities\n    */\n    //_updateCurrentEntityList(_rewardedEntitylist, _entities,_rewardedEntityType),\n    function _updateCurrentEntityList(\n        RewardedEntityList storage _rewardedEntitylist,\n        address[] memory _entities\n    )\n        internal\n        returns (bool)\n    {\n        bool emptyCurrentList = _rewardedEntitylist.currentList.length == 0;\n        if (!emptyCurrentList && _rewardedEntitylist.currentList.length != _entities.length) {\n            _deleteCurrentEntityList(_rewardedEntitylist);\n            emptyCurrentList = true;\n        }\n\n        for (uint256 i = 0; i < _entities.length; i++) {\n            if (emptyCurrentList) {\n                _rewardedEntitylist.currentList.push(_entities[i]);\n            } else {\n                _rewardedEntitylist.currentList[i] = _entities[i];\n            }\n            _rewardedEntitylist.current[_entities[i]] = true;\n        }\n        return true;\n    }\n\n    /**\n    * @dev Update previous daily list\n    * @param _rewardedEntitylist RewardedEntityList pointer to storage\n    */\n    function _updatePreviousEntityList(RewardedEntityList storage _rewardedEntitylist)\n        internal\n        returns (bool)\n    {\n        bool emptyPreviousList = _rewardedEntitylist.previousList.length == 0;\n        if (\n            !emptyPreviousList &&\n            _rewardedEntitylist.previousList.length != _rewardedEntitylist.currentList.length\n        ) {\n            _deletePreviousEntityList(_rewardedEntitylist);\n            emptyPreviousList = true;\n        }\n        for (uint256 i = 0; i < _rewardedEntitylist.currentList.length; i++) {\n            if (emptyPreviousList) {\n                _rewardedEntitylist.previousList.push(_rewardedEntitylist.currentList[i]);\n            } else {\n                _rewardedEntitylist.previousList[i] = _rewardedEntitylist.currentList[i];\n            }\n            _rewardedEntitylist.previous[_rewardedEntitylist.currentList[i]] = true;\n        }\n        return true;\n    }\n\n    /**\n    * @dev Delete existing values from the current list\n    * @param _rewardedEntitylist RewardedEntityList pointer to storage\n    */\n    function _deleteCurrentEntityList(RewardedEntityList storage _rewardedEntitylist)\n        internal\n        returns (bool)\n    {\n        for (uint256 i = 0; i < _rewardedEntitylist.currentList.length ; i++) {\n             delete _rewardedEntitylist.current[_rewardedEntitylist.currentList[i]];\n        }\n        delete  _rewardedEntitylist.currentList;\n        return true;\n    }\n\n    /**\n    * @dev Delete existing values from the previous applications list\n    * @param _rewardedEntitylist RewardedEntityList pointer to storage\n    */\n    function _deletePreviousEntityList(RewardedEntityList storage _rewardedEntitylist)\n        internal\n        returns (bool)\n    {\n        for (uint256 i = 0; i < _rewardedEntitylist.previousList.length ; i++) {\n            delete _rewardedEntitylist.previous[_rewardedEntitylist.previousList[i]];\n        }\n        delete _rewardedEntitylist.previousList;\n        return true;\n    }\n\n    /**\n    * @dev Deletes reward day submission data\n    * @param _self Data pointer to storage\n    */\n    function _resetDailyRewards(\n        Data storage _self\n    )\n        public\n        returns (bool)\n    {\n        bytes32[] memory rewardHashes = _self.dailyRewards.submittedRewardHashes;\n        for (uint256 i = 0; i < rewardHashes.length; i++) {\n            for (uint256 j = 0; j < _self.dailyRewards.submissions[rewardHashes[i]].validatorsList.length; j++) {\n                delete(\n                    _self.dailyRewards.submissions[rewardHashes[i]].validators[_self.dailyRewards.submissions[rewardHashes[i]].validatorsList[j]]\n                );\n            }\n            delete _self.dailyRewards.submissions[rewardHashes[i]].validatorsList;\n            _self.dailyRewards.submissions[rewardHashes[i]].confirmations = 0;\n            _self.dailyRewards.submissions[rewardHashes[i]].finalized = 0;\n            _self.dailyRewards.submissions[rewardHashes[i]].initializedState = 0;\n        }\n        delete _self.dailyRewards.submittedRewardHashes;\n    }\n}",
  "sourcePath": "/Users/jretina/Programming/props/props-token-distribution/contracts/token/PropsRewardsLib.sol",
  "compiler": {
    "name": "solc",
    "version": "0.5.0+commit.1d4f565a.Emscripten.clang"
  },
  "schemaVersion": "3.0.9",
  "updatedAt": "2019-05-27T13:04:52.051Z",
  "devdoc": {
    "details": "Library to manage application and validators and parameters*",
    "methods": {
      "_currentRewardsDay(PropsRewardsLib.Data storage)": {
        "details": "Get rewards day from block.timestamp",
        "params": {
          "_self": "Data pointer to storage"
        }
      },
      "_finalizeDailyApplicationRewards(PropsRewardsLib.Data storage,uint256,bytes32,uint256)": {
        "details": "Finalizes the state, rewards Hash, total supply and block timestamp for the day",
        "params": {
          "_currentTotalSupply": "uint256 the current total supply",
          "_rewardsDay": "uint256 the reward day",
          "_rewardsHash": "bytes32 the daily reward hash",
          "_self": "Data pointer to storage"
        }
      },
      "_getMaxAppRewardsDailyAmount(PropsRewardsLib.Data storage,uint256,uint256)": {
        "details": "Checks how many validators are needed for app rewards",
        "params": {
          "_currentTotalSupply": "uint256 current total supply",
          "_rewardsDay": "uint256 the reward day",
          "_self": "Data pointer to storage"
        }
      },
      "_getValidatorRewardsDailyAmountPerValidator(PropsRewardsLib.Data storage,uint256,uint256)": {
        "details": "Checks how many validators are needed for app rewards",
        "params": {
          "_numOfValidators": "uint256 number of validators",
          "_rewardsDay": "uint256 the reward day",
          "_self": "Data pointer to storage"
        }
      },
      "_requiredValidatorsForAppRewards(PropsRewardsLib.Data storage,uint256)": {
        "details": "Checks how many validators are needed for app rewards",
        "params": {
          "_rewardsDay": "uint256 the reward day",
          "_self": "Data pointer to storage"
        }
      },
      "_requiredValidatorsForValidatorsRewards(PropsRewardsLib.Data storage,uint256)": {
        "details": "Checks how many validators are needed for app rewards",
        "params": {
          "_rewardsDay": "uint256 the reward day",
          "_self": "Data pointer to storage"
        }
      },
      "_resetDailyRewards(PropsRewardsLib.Data storage)": {
        "details": "Deletes reward day submission data",
        "params": {
          "_self": "Data pointer to storage"
        }
      },
      "_rewardHashIsvalid(uint256,bytes32,address[],uint256[])": {
        "details": "Checks if submitted data matches reward hash",
        "params": {
          "_amounts": "uint256[] array of amounts each app should get",
          "_applications": "address[] array of application addresses getting the daily reward",
          "_rewardsDay": "uint256 the reward day",
          "_rewardsHash": "bytes32 hash of the rewards data"
        }
      },
      "_validateSubmittedData(PropsRewardsLib.Data storage,address[],uint256[])": {
        "details": "Checks if app daily rewards amount is valid",
        "params": {
          "_amounts": "uint256[] array of amounts each app should get",
          "_applications": "address[] array of application addresses getting the daily reward",
          "_self": "Data pointer to storage"
        }
      },
      "calculateApplicationRewards(PropsRewardsLib.Data storage,uint256,bytes32,address[],uint256[],uint256)": {
        "details": "The function is called by validators with the calculation of the daily rewards",
        "params": {
          "_amounts": "uint256[] array of amounts each app should get",
          "_applications": "address[] array of application addresses getting the daily reward",
          "_currentTotalSupply": "uint256 current total supply",
          "_rewardsDay": "uint256 the rewards day",
          "_rewardsHash": "bytes32 hash of the rewards data",
          "_self": "Data pointer to storage"
        }
      },
      "calculateValidatorRewards(PropsRewardsLib.Data storage,uint256,bytes32,bool)": {
        "details": "The function is called by validators with the calculation of the daily rewards",
        "params": {
          "_rewardsDay": "uint256 the rewards day",
          "_rewardsHash": "bytes32 hash of the rewards data",
          "_self": "Data pointer to storage"
        }
      },
      "getEntities(PropsRewardsLib.Data storage,PropsRewardsLib.RewardedEntityType,uint256)": {
        "details": "Get applications or validators list",
        "params": {
          "_entityType": "RewardedEntityType either application (0) or validator (1)",
          "_rewardsDay": "uint256 the reward day to determine which list to get",
          "_self": "Data pointer to storage"
        }
      },
      "getParameterValue(PropsRewardsLib.Data storage,PropsRewardsLib.ParameterName,uint256)": {
        "details": "Get parameter's value",
        "params": {
          "_name": "ParameterName name of the parameter",
          "_rewardsDay": "uint256 the rewards day",
          "_self": "Data pointer to storage"
        }
      },
      "setApplications(PropsRewardsLib.Data storage,uint256,address[])": {
        "details": "Set new applications list",
        "params": {
          "_applications": "address[] array of applications",
          "_rewardsDay": "uint256 the rewards day from which the list should be active",
          "_self": "Data pointer to storage"
        }
      },
      "setValidators(PropsRewardsLib.Data storage,uint256,address[])": {
        "details": "Set new validators list",
        "params": {
          "_rewardsDay": "uint256 the rewards day from which the list should be active",
          "_self": "Data pointer to storage",
          "_validators": "address[] array of validators"
        }
      },
      "updateApplication(PropsRewardsLib.Data storage,bytes32,address,address)": {
        "details": "Allows an application to add/update its details",
        "params": {
          "_name": "bytes32 name of the app",
          "_rewardsAddress": "address an address for the app to receive the rewards",
          "_self": "Data pointer to storage",
          "_sidechainAddress": "address the address used for using the sidechain"
        }
      },
      "updateEntity(PropsRewardsLib.Data storage,PropsRewardsLib.RewardedEntityType,bytes32,address,address)": {
        "details": "Allows an application to add/update its details",
        "params": {
          "_entityType": "RewardedEntityType either application (0) or validator (1)",
          "_name": "bytes32 name of the app",
          "_rewardsAddress": "address an address for the app to receive the rewards",
          "_self": "Data pointer to storage",
          "_sidechainAddress": "address the address used for using the sidechain"
        }
      },
      "updateParameter(PropsRewardsLib.Data storage,PropsRewardsLib.ParameterName,uint256,uint256)": {
        "details": "Allows the controller/owner to update rewards parameters",
        "params": {
          "_name": "ParameterName name of the parameter",
          "_rewardsDay": "uint256 the rewards day",
          "_self": "Data pointer to storage",
          "_value": "uint256 new value for the parameter"
        }
      },
      "updateValidator(PropsRewardsLib.Data storage,bytes32,address,address)": {
        "details": "Allows a validator to add/update its details",
        "params": {
          "_name": "bytes32 name of the validator",
          "_rewardsAddress": "address an address for the validator to receive the rewards",
          "_self": "Data pointer to storage",
          "_sidechainAddress": "address the address used for using the sidechain"
        }
      }
    },
    "title": "Props Rewards Library"
  },
  "userdoc": {
    "methods": {}
  }
}