{
  "contractName": "PropsToken",
  "abi": [
    {
      "constant": true,
      "inputs": [],
      "name": "name",
      "outputs": [
        {
          "name": "",
          "type": "string"
        }
      ],
      "payable": false,
      "stateMutability": "view",
      "type": "function"
    },
    {
      "constant": false,
      "inputs": [
        {
          "name": "spender",
          "type": "address"
        },
        {
          "name": "value",
          "type": "uint256"
        }
      ],
      "name": "approve",
      "outputs": [
        {
          "name": "",
          "type": "bool"
        }
      ],
      "payable": false,
      "stateMutability": "nonpayable",
      "type": "function"
    },
    {
      "constant": true,
      "inputs": [],
      "name": "totalSupply",
      "outputs": [
        {
          "name": "",
          "type": "uint256"
        }
      ],
      "payable": false,
      "stateMutability": "view",
      "type": "function"
    },
    {
      "constant": false,
      "inputs": [
        {
          "name": "from",
          "type": "address"
        },
        {
          "name": "to",
          "type": "address"
        },
        {
          "name": "value",
          "type": "uint256"
        }
      ],
      "name": "transferFrom",
      "outputs": [
        {
          "name": "",
          "type": "bool"
        }
      ],
      "payable": false,
      "stateMutability": "nonpayable",
      "type": "function"
    },
    {
      "constant": true,
      "inputs": [],
      "name": "decimals",
      "outputs": [
        {
          "name": "",
          "type": "uint8"
        }
      ],
      "payable": false,
      "stateMutability": "view",
      "type": "function"
    },
    {
      "constant": false,
      "inputs": [
        {
          "name": "spender",
          "type": "address"
        },
        {
          "name": "addedValue",
          "type": "uint256"
        }
      ],
      "name": "increaseAllowance",
      "outputs": [
        {
          "name": "success",
          "type": "bool"
        }
      ],
      "payable": false,
      "stateMutability": "nonpayable",
      "type": "function"
    },
    {
      "constant": false,
      "inputs": [],
      "name": "unpause",
      "outputs": [],
      "payable": false,
      "stateMutability": "nonpayable",
      "type": "function"
    },
    {
      "constant": true,
      "inputs": [
        {
          "name": "account",
          "type": "address"
        }
      ],
      "name": "isPauser",
      "outputs": [
        {
          "name": "",
          "type": "bool"
        }
      ],
      "payable": false,
      "stateMutability": "view",
      "type": "function"
    },
    {
      "constant": true,
      "inputs": [],
      "name": "getRegistry",
      "outputs": [
        {
          "name": "",
          "type": "address"
        }
      ],
      "payable": false,
      "stateMutability": "view",
      "type": "function"
    },
    {
      "constant": true,
      "inputs": [],
      "name": "paused",
      "outputs": [
        {
          "name": "",
          "type": "bool"
        }
      ],
      "payable": false,
      "stateMutability": "view",
      "type": "function"
    },
    {
      "constant": false,
      "inputs": [],
      "name": "renouncePauser",
      "outputs": [],
      "payable": false,
      "stateMutability": "nonpayable",
      "type": "function"
    },
    {
      "constant": true,
      "inputs": [
        {
          "name": "owner",
          "type": "address"
        }
      ],
      "name": "balanceOf",
      "outputs": [
        {
          "name": "",
          "type": "uint256"
        }
      ],
      "payable": false,
      "stateMutability": "view",
      "type": "function"
    },
    {
      "constant": false,
      "inputs": [
        {
          "name": "account",
          "type": "address"
        }
      ],
      "name": "addPauser",
      "outputs": [],
      "payable": false,
      "stateMutability": "nonpayable",
      "type": "function"
    },
    {
      "constant": false,
      "inputs": [],
      "name": "pause",
      "outputs": [],
      "payable": false,
      "stateMutability": "nonpayable",
      "type": "function"
    },
    {
      "constant": true,
      "inputs": [
        {
          "name": "receiver",
          "type": "address"
        }
      ],
      "name": "canReceive",
      "outputs": [
        {
          "name": "",
          "type": "bool"
        }
      ],
      "payable": false,
      "stateMutability": "view",
      "type": "function"
    },
    {
      "constant": true,
      "inputs": [],
      "name": "symbol",
      "outputs": [
        {
          "name": "",
          "type": "string"
        }
      ],
      "payable": false,
      "stateMutability": "view",
      "type": "function"
    },
    {
      "constant": false,
      "inputs": [
        {
          "name": "spender",
          "type": "address"
        },
        {
          "name": "subtractedValue",
          "type": "uint256"
        }
      ],
      "name": "decreaseAllowance",
      "outputs": [
        {
          "name": "success",
          "type": "bool"
        }
      ],
      "payable": false,
      "stateMutability": "nonpayable",
      "type": "function"
    },
    {
      "constant": false,
      "inputs": [
        {
          "name": "to",
          "type": "address"
        },
        {
          "name": "value",
          "type": "uint256"
        }
      ],
      "name": "transfer",
      "outputs": [
        {
          "name": "",
          "type": "bool"
        }
      ],
      "payable": false,
      "stateMutability": "nonpayable",
      "type": "function"
    },
    {
      "constant": true,
      "inputs": [
        {
          "name": "owner",
          "type": "address"
        },
        {
          "name": "spender",
          "type": "address"
        }
      ],
      "name": "allowance",
      "outputs": [
        {
          "name": "",
          "type": "uint256"
        }
      ],
      "payable": false,
      "stateMutability": "view",
      "type": "function"
    },
    {
      "constant": true,
      "inputs": [],
      "name": "getValidAttributeID",
      "outputs": [
        {
          "name": "",
          "type": "uint256"
        }
      ],
      "payable": false,
      "stateMutability": "view",
      "type": "function"
    },
    {
      "anonymous": false,
      "inputs": [],
      "name": "Paused",
      "type": "event"
    },
    {
      "anonymous": false,
      "inputs": [],
      "name": "Unpaused",
      "type": "event"
    },
    {
      "anonymous": false,
      "inputs": [
        {
          "indexed": true,
          "name": "account",
          "type": "address"
        }
      ],
      "name": "PauserAdded",
      "type": "event"
    },
    {
      "anonymous": false,
      "inputs": [
        {
          "indexed": true,
          "name": "account",
          "type": "address"
        }
      ],
      "name": "PauserRemoved",
      "type": "event"
    },
    {
      "anonymous": false,
      "inputs": [
        {
          "indexed": true,
          "name": "from",
          "type": "address"
        },
        {
          "indexed": true,
          "name": "to",
          "type": "address"
        },
        {
          "indexed": false,
          "name": "value",
          "type": "uint256"
        }
      ],
      "name": "Transfer",
      "type": "event"
    },
    {
      "anonymous": false,
      "inputs": [
        {
          "indexed": true,
          "name": "owner",
          "type": "address"
        },
        {
          "indexed": true,
          "name": "spender",
          "type": "address"
        },
        {
          "indexed": false,
          "name": "value",
          "type": "uint256"
        }
      ],
      "name": "Approval",
      "type": "event"
    },
    {
      "constant": false,
      "inputs": [
        {
          "name": "name",
          "type": "string"
        },
        {
          "name": "symbol",
          "type": "string"
        },
        {
          "name": "decimals",
          "type": "uint8"
        }
      ],
      "name": "initialize",
      "outputs": [],
      "payable": false,
      "stateMutability": "nonpayable",
      "type": "function"
    },
    {
      "constant": false,
      "inputs": [
        {
          "name": "_sender",
          "type": "address"
        },
        {
          "name": "_jurisdictionAddress",
          "type": "address"
        },
        {
          "name": "_validRecipientAttributeId",
          "type": "uint256"
        }
      ],
      "name": "initialize",
      "outputs": [],
      "payable": false,
      "stateMutability": "nonpayable",
      "type": "function"
    },
    {
      "constant": false,
      "inputs": [
        {
          "name": "sender",
          "type": "address"
        }
      ],
      "name": "initialize",
      "outputs": [],
      "payable": false,
      "stateMutability": "nonpayable",
      "type": "function"
    },
    {
      "constant": false,
      "inputs": [
        {
          "name": "registry",
          "type": "address"
        },
        {
          "name": "validAttributeTypeID",
          "type": "uint256"
        }
      ],
      "name": "initialize",
      "outputs": [],
      "payable": false,
      "stateMutability": "nonpayable",
      "type": "function"
    }
  ],
  "bytecode": "0x608060405260d2805460ff1916905534801561001a57600080fd5b506117d58061002a6000396000f30060806040526004361061013d5763ffffffff7c010000000000000000000000000000000000000000000000000000000060003504166306fdde038114610142578063095ea7b3146101cc5780631624f6c6146102045780631794bb3c146102a257806318160ddd146102cc57806323b872dd146102f3578063313ce5671461031d57806339509351146103485780633f4ba83a1461036c57806346fbf68e146103815780635ab1bd53146103a25780635c975abb146103d35780636ef8d66d146103e857806370a08231146103fd57806382dc1ec41461041e5780638456cb591461043f57806390d370ba1461045457806395d89b4114610475578063a457c2d71461048a578063a9059cbb146104ae578063c4d66de8146104d2578063cd6dc687146104f3578063dd62ed3e14610517578063eac5a01c1461053e575b600080fd5b34801561014e57600080fd5b50610157610553565b6040805160208082528351818301528351919283929083019185019080838360005b83811015610191578181015183820152602001610179565b50505050905090810190601f1680156101be5780820380516001836020036101000a031916815260200191505b509250505060405180910390f35b3480156101d857600080fd5b506101f0600160a060020a03600435166024356105ea565b604080519115158252519081900360200190f35b34801561021057600080fd5b506040805160206004803580820135601f81018490048402850184019095528484526102a094369492936024939284019190819084018382808284375050604080516020601f89358b018035918201839004830284018301909452808352979a9998810197919650918201945092508291508401838280828437509497505050923560ff16935061060e92505050565b005b3480156102ae57600080fd5b506102a0600160a060020a0360043581169060243516604435610735565b3480156102d857600080fd5b506102e16108c8565b60408051918252519081900360200190f35b3480156102ff57600080fd5b506101f0600160a060020a03600435811690602435166044356108ce565b34801561032957600080fd5b506103326108f4565b6040805160ff9092168252519081900360200190f35b34801561035457600080fd5b506101f0600160a060020a03600435166024356108fd565b34801561037857600080fd5b506102a061091a565b34801561038d57600080fd5b506101f0600160a060020a0360043516610974565b3480156103ae57600080fd5b506103b761098d565b60408051600160a060020a039092168252519081900360200190f35b3480156103df57600080fd5b506101f061099c565b3480156103f457600080fd5b506102a06109a5565b34801561040957600080fd5b506102e1600160a060020a03600435166109b0565b34801561042a57600080fd5b506102a0600160a060020a03600435166109cb565b34801561044b57600080fd5b506102a06109eb565b34801561046057600080fd5b506101f0600160a060020a0360043516610a47565b34801561048157600080fd5b50610157610aef565b34801561049657600080fd5b506101f0600160a060020a0360043516602435610b50565b3480156104ba57600080fd5b506101f0600160a060020a0360043516602435610b6d565b3480156104de57600080fd5b506102a0600160a060020a0360043516610b8a565b3480156104ff57600080fd5b506102a0600160a060020a0360043516602435610c78565b34801561052357600080fd5b506102e1600160a060020a0360043581169060243516610d83565b34801561054a57600080fd5b506102e1610dae565b606a8054604080516020601f60026000196101006001881615020190951694909404938401819004810282018101909252828152606093909290918301828280156105df5780601f106105b4576101008083540402835291602001916105df565b820191906000526020600020905b8154815290600101906020018083116105c257829003601f168201915b505050505090505b90565b60d25460009060ff16156105fd57600080fd5b6106078383610db4565b9392505050565b60008054610100900460ff16806106285750610628610e32565b80610636575060005460ff16155b15156106b7576040805160008051602061178a833981519152815260206004820152602e60248201527f436f6e747261637420696e7374616e63652068617320616c726561647920626560448201527f656e20696e697469616c697a6564000000000000000000000000000000000000606482015290519081900360840190fd5b5060008054600161010061ff00198316811760ff191691909117909255845191900460ff16906106ee90606a9060208701906116fb565b50825161070290606b9060208601906116fb565b50606c805460ff90931660ff1990931692909217909155600080549115156101000261ff00199092169190911790555050565b6000805481908190610100900460ff16806107535750610753610e32565b80610761575060005460ff16155b15156107e2576040805160008051602061178a833981519152815260206004820152602e60248201527f436f6e747261637420696e7374616e63652068617320616c726561647920626560448201527f656e20696e697469616c697a6564000000000000000000000000000000000000606482015290519081900360840190fd5b505060008054600161010061ff00198316811760ff191691909117909255601292506b033b2e3c9fd0803ce800000091900460ff1661082086610b8a565b6108956040805190810160405280600981526020017f44455620546f6b656e00000000000000000000000000000000000000000000008152506040805190810160405280600981526020017f4445565f544f4b454e00000000000000000000000000000000000000000000008152508561060e565b61089f8585610c78565b6108a98683610e3c565b600080549115156101000261ff00199092169190911790555050505050565b60355490565b60d25460009060ff16156108e157600080fd5b6108ec848484610ee8565b949350505050565b606c5460ff1690565b60d25460009060ff161561091057600080fd5b6106078383611016565b61092333610974565b151561092e57600080fd5b60d25460ff16151561093f57600080fd5b60d2805460ff191690556040517fa45f47fdea8a1efdd9029a5691c7f759c32b7c698632b563573e155625d1693390600090a1565b6000610987609f8363ffffffff6110c616565b92915050565b606854600160a060020a031690565b60d25460ff1690565b6109ae336110fd565b565b600160a060020a031660009081526033602052604090205490565b6109d433610974565b15156109df57600080fd5b6109e881611145565b50565b6109f433610974565b15156109ff57600080fd5b60d25460ff1615610a0f57600080fd5b60d2805460ff191660011790556040517f9e87fac88ff661f02d44f95383c817fece4bce600a3dab7a54406878b965e75290600090a1565b606854606954604080517f4b5f297a000000000000000000000000000000000000000000000000000000008152600160a060020a038581166004830152602482019390935290516000939290921691634b5f297a9160448082019260209290919082900301818787803b158015610abd57600080fd5b505af1158015610ad1573d6000803e3d6000fd5b505050506040513d6020811015610ae757600080fd5b505192915050565b606b8054604080516020601f60026000196101006001881615020190951694909404938401819004810282018101909252828152606093909290918301828280156105df5780601f106105b4576101008083540402835291602001916105df565b60d25460009060ff1615610b6357600080fd5b610607838361118d565b60d25460009060ff1615610b8057600080fd5b61060783836111d8565b60008054610100900460ff1680610ba45750610ba4610e32565b80610bb2575060005460ff16155b1515610c33576040805160008051602061178a833981519152815260206004820152602e60248201527f436f6e747261637420696e7374616e63652068617320616c726561647920626560448201527f656e20696e697469616c697a6564000000000000000000000000000000000000606482015290519081900360840190fd5b5060008054600161010061ff00198316811760ff1916919091179092550460ff16610c5d82611305565b600080549115156101000261ff001990921691909117905550565b60008054610100900460ff1680610c925750610c92610e32565b80610ca0575060005460ff16155b1515610d21576040805160008051602061178a833981519152815260206004820152602e60248201527f436f6e747261637420696e7374616e63652068617320616c726561647920626560448201527f656e20696e697469616c697a6564000000000000000000000000000000000000606482015290519081900360840190fd5b50600080546068805473ffffffffffffffffffffffffffffffffffffffff1916600160a060020a03959095169490941790935560699190915561ff001980831661010090811760ff19166001179091169281900460ff16151502919091179055565b600160a060020a03918216600090815260346020908152604080832093909416825291909152205490565b60695490565b6000600160a060020a0383161515610dcb57600080fd5b336000818152603460209081526040808320600160a060020a03881680855290835292819020869055805186815290519293927f8c5be1e5ebec7d5bd14f71427d1e84f3dd0314c0f7b2291e5b200ac8c7c3b925929181900390910190a350600192915050565b303b8015905b5090565b600160a060020a0382161515610e5157600080fd5b603554610e64908263ffffffff6113d816565b603555600160a060020a038216600090815260336020526040902054610e90908263ffffffff6113d816565b600160a060020a03831660008181526033602090815260408083209490945583518581529351929391927fddf252ad1be2c89b69c2b068fc378daa952ba7f163c4a11628f55a4df523b3ef9281900390910190a35050565b606854606954604080517f4b5f297a000000000000000000000000000000000000000000000000000000008152600160a060020a038681166004830152602482019390935290516000939290921691634b5f297a9160448082019260209290919082900301818787803b158015610f5e57600080fd5b505af1158015610f72573d6000803e3d6000fd5b505050506040513d6020811015610f8857600080fd5b5051151561100b576040805160008051602061178a833981519152815260206004820152602b60248201527f5472616e73666572206661696c6564202d207265636569766572206973206e6f60448201527f7420617070726f7665642e000000000000000000000000000000000000000000606482015290519081900360840190fd5b6108ec8484846113ea565b6000600160a060020a038316151561102d57600080fd5b336000908152603460209081526040808320600160a060020a0387168452909152902054611061908363ffffffff6113d816565b336000818152603460209081526040808320600160a060020a0389168085529083529281902085905580519485525191937f8c5be1e5ebec7d5bd14f71427d1e84f3dd0314c0f7b2291e5b200ac8c7c3b925929081900390910190a350600192915050565b6000600160a060020a03821615156110dd57600080fd5b50600160a060020a03166000908152602091909152604090205460ff1690565b61110e609f8263ffffffff61148716565b604051600160a060020a038216907fcd265ebaf09df2871cc7bd4133404a235ba12eff2041bb89d9c714a2621c7c7e90600090a250565b611156609f8263ffffffff6114be16565b604051600160a060020a038216907f6719d08c1888103bea251a4ed56406bd0c3e69723c8a1686e017e7bbe159b6f890600090a250565b6000600160a060020a03831615156111a457600080fd5b336000908152603460209081526040808320600160a060020a0387168452909152902054611061908363ffffffff6114f816565b606854606954604080517f4b5f297a000000000000000000000000000000000000000000000000000000008152600160a060020a038681166004830152602482019390935290516000939290921691634b5f297a9160448082019260209290919082900301818787803b15801561124e57600080fd5b505af1158015611262573d6000803e3d6000fd5b505050506040513d602081101561127857600080fd5b505115156112fb576040805160008051602061178a833981519152815260206004820152602b60248201527f5472616e73666572206661696c6564202d207265636569766572206973206e6f60448201527f7420617070726f7665642e000000000000000000000000000000000000000000606482015290519081900360840190fd5b610607838361150f565b60008054610100900460ff168061131f575061131f610e32565b8061132d575060005460ff16155b15156113ae576040805160008051602061178a833981519152815260206004820152602e60248201527f436f6e747261637420696e7374616e63652068617320616c726561647920626560448201527f656e20696e697469616c697a6564000000000000000000000000000000000000606482015290519081900360840190fd5b5060008054600161010061ff00198316811760ff1916919091179092550460ff16610c5d82611525565b60008282018381101561060757600080fd5b600160a060020a038316600090815260346020908152604080832033845290915281205482111561141a57600080fd5b600160a060020a038416600090815260346020908152604080832033845290915290205461144e908363ffffffff6114f816565b600160a060020a038516600090815260346020908152604080832033845290915290205561147d848484611607565b5060019392505050565b600160a060020a038116151561149c57600080fd5b600160a060020a0316600090815260209190915260409020805460ff19169055565b600160a060020a03811615156114d357600080fd5b600160a060020a0316600090815260209190915260409020805460ff19166001179055565b6000808383111561150857600080fd5b5050900390565b600061151c338484611607565b50600192915050565b60008054610100900460ff168061153f575061153f610e32565b8061154d575060005460ff16155b15156115ce576040805160008051602061178a833981519152815260206004820152602e60248201527f436f6e747261637420696e7374616e63652068617320616c726561647920626560448201527f656e20696e697469616c697a6564000000000000000000000000000000000000606482015290519081900360840190fd5b5060008054600161010061ff00198316811760ff1916919091179092550460ff166115f882610974565b1515610c5d57610c5d82611145565b600160a060020a03831660009081526033602052604090205481111561162c57600080fd5b600160a060020a038216151561164157600080fd5b600160a060020a03831660009081526033602052604090205461166a908263ffffffff6114f816565b600160a060020a03808516600090815260336020526040808220939093559084168152205461169f908263ffffffff6113d816565b600160a060020a0380841660008181526033602090815260409182902094909455805185815290519193928716927fddf252ad1be2c89b69c2b068fc378daa952ba7f163c4a11628f55a4df523b3ef92918290030190a3505050565b828054600181600116156101000203166002900490600052602060002090601f016020900481019282601f1061173c57805160ff1916838001178555611769565b82800160010185558215611769579182015b8281111561176957825182559160200191906001019061174e565b50610e38926105e79250905b80821115610e385760008155600101611775560008c379a000000000000000000000000000000000000000000000000000000000a165627a7a7230582003454e21616cc3870a102f230953003da7cdba78535c4efab8a59300b549845a0029",
  "source": "pragma solidity ^0.4.24;\n\nimport \"zos-lib/contracts/Initializable.sol\";\nimport \"openzeppelin-eth/contracts/token/ERC20/ERC20Detailed.sol\";\nimport \"openzeppelin-eth/contracts/token/ERC20/ERC20Pausable.sol\";\nimport \"tpl-contracts-eth/contracts/token/TPLRestrictedReceiverToken.sol\";\n\n/**\n * @title PROPSToken\n * @dev PROPS token contract (based of ZEPToken by openzeppelin), a detailed ERC20 including pausable functionality.\n * The TPLToken integration causes tokens to only be transferrable to addresses\n * which have the validRecipient attribute in the jurisdiction.\n */\ncontract PropsToken is Initializable, TPLRestrictedReceiverToken, ERC20Detailed, ERC20Pausable {\n\n  /**\n   * @dev Initializer function. Called only once when a proxy for the contract is created.\n   * @param _sender Address that will control the token and receive it's initial supply.\n   * @param _jurisdictionAddress AttributeRegistry used for the TPL jurisdiction of the token.\n   * @param _validRecipientAttributeId uint256 id that the TPL jurisdiction uses to control which addresses can receive the token.\n   */\n  function initialize(\n    address _sender,\n    AttributeRegistryInterface _jurisdictionAddress,\n    uint256 _validRecipientAttributeId\n  )\n    initializer\n    public\n  {\n    uint8 decimals = 18;\n    uint256 totalSupply = 1e9 * (10 ** uint256(decimals));\n\n    ERC20Pausable.initialize(_sender);\n    ERC20Detailed.initialize(\"DEV Token\", \"DEV_TOKEN\", decimals);\n    TPLRestrictedReceiverToken.initialize(_jurisdictionAddress, _validRecipientAttributeId);\n    _mint(_sender, totalSupply);\n  }\n\n}",
  "sourcePath": "/Users/jretina/Programming/PROPSProject/props-token-distribution/contracts/token/PropsToken.sol",
  "compiler": {
    "name": "solc",
    "version": "0.4.24+commit.e67f0147.Emscripten.clang"
  },
  "schemaVersion": "2.0.1",
  "updatedAt": "2019-01-14T11:08:43.602Z"
}