{
  "contractName": "PropsRewardsLib",
  "abi": [
    {
      "anonymous": false,
      "inputs": [
        {
          "indexed": false,
          "name": "entires",
          "type": "uint256"
        }
      ],
      "name": "DailyRewardsDataPruned",
      "type": "event"
    },
    {
      "constant": false,
      "inputs": [
        {
          "name": "_self",
          "type": "PropsRewardsLib.Data storage"
        },
        {
          "name": "_rewardsDay",
          "type": "uint256"
        },
        {
          "name": "_rewardsHash",
          "type": "bytes32"
        },
        {
          "name": "_maxTotalSupply",
          "type": "uint256"
        }
      ],
      "name": "calculatePreviousDayValidatorRewards",
      "outputs": [
        {
          "name": "",
          "type": "uint256"
        }
      ],
      "payable": false,
      "stateMutability": "nonpayable",
      "type": "function"
    },
    {
      "constant": false,
      "inputs": [
        {
          "name": "_self",
          "type": "PropsRewardsLib.Data storage"
        },
        {
          "name": "_rewardsDay",
          "type": "uint256"
        },
        {
          "name": "_rewardsHash",
          "type": "bytes32"
        },
        {
          "name": "_maxTotalSupply",
          "type": "uint256"
        }
      ],
      "name": "calculateValidatorRewards",
      "outputs": [
        {
          "name": "",
          "type": "uint256"
        }
      ],
      "payable": false,
      "stateMutability": "nonpayable",
      "type": "function"
    },
    {
      "constant": false,
      "inputs": [
        {
          "name": "_self",
          "type": "PropsRewardsLib.Data storage"
        },
        {
          "name": "_rewardsDay",
          "type": "uint256"
        },
        {
          "name": "_rewardsHash",
          "type": "bytes32"
        },
        {
          "name": "_applications",
          "type": "address[]"
        },
        {
          "name": "_amounts",
          "type": "uint256[]"
        },
        {
          "name": "_maxTotalSupply",
          "type": "uint256"
        },
        {
          "name": "_currentTotalSupply",
          "type": "uint256"
        }
      ],
      "name": "calculateApplicationRewards",
      "outputs": [
        {
          "name": "",
          "type": "uint256"
        }
      ],
      "payable": false,
      "stateMutability": "nonpayable",
      "type": "function"
    },
    {
      "constant": false,
      "inputs": [
        {
          "name": "_self",
          "type": "PropsRewardsLib.Data storage"
        },
        {
          "name": "_rewardsDay",
          "type": "uint256"
        },
        {
          "name": "_rewardsHash",
          "type": "bytes32"
        },
        {
          "name": "_currentTotalSupply",
          "type": "uint256"
        }
      ],
      "name": "_finalizeDailyApplicationRewards",
      "outputs": [
        {
          "name": "",
          "type": "bool"
        }
      ],
      "payable": false,
      "stateMutability": "nonpayable",
      "type": "function"
    },
    {
      "constant": true,
      "inputs": [
        {
          "name": "_self",
          "type": "PropsRewardsLib.Data storage"
        },
        {
          "name": "_name",
          "type": "PropsRewardsLib.ParameterName"
        },
        {
          "name": "_rewardsDay",
          "type": "uint256"
        }
      ],
      "name": "getParameterValue",
      "outputs": [
        {
          "name": "",
          "type": "uint256"
        }
      ],
      "payable": false,
      "stateMutability": "view",
      "type": "function"
    },
    {
      "constant": false,
      "inputs": [
        {
          "name": "_self",
          "type": "PropsRewardsLib.Data storage"
        },
        {
          "name": "_name",
          "type": "PropsRewardsLib.ParameterName"
        },
        {
          "name": "_value",
          "type": "uint256"
        },
        {
          "name": "_rewardsDay",
          "type": "uint256"
        }
      ],
      "name": "updateParameter",
      "outputs": [
        {
          "name": "",
          "type": "bool"
        }
      ],
      "payable": false,
      "stateMutability": "nonpayable",
      "type": "function"
    },
    {
      "constant": false,
      "inputs": [
        {
          "name": "_self",
          "type": "PropsRewardsLib.Data storage"
        },
        {
          "name": "_entityType",
          "type": "PropsRewardsLib.RewardedEntityType"
        },
        {
          "name": "_name",
          "type": "bytes32"
        },
        {
          "name": "_rewardsAddress",
          "type": "address"
        },
        {
          "name": "_sidechainAddress",
          "type": "address"
        }
      ],
      "name": "updateEntity",
      "outputs": [
        {
          "name": "",
          "type": "bool"
        }
      ],
      "payable": false,
      "stateMutability": "nonpayable",
      "type": "function"
    },
    {
      "constant": false,
      "inputs": [
        {
          "name": "_self",
          "type": "PropsRewardsLib.Data storage"
        },
        {
          "name": "_name",
          "type": "bytes32"
        },
        {
          "name": "_rewardsAddress",
          "type": "address"
        },
        {
          "name": "_sidechainAddress",
          "type": "address"
        }
      ],
      "name": "updateApplication",
      "outputs": [
        {
          "name": "",
          "type": "uint256"
        }
      ],
      "payable": false,
      "stateMutability": "nonpayable",
      "type": "function"
    },
    {
      "constant": false,
      "inputs": [
        {
          "name": "_self",
          "type": "PropsRewardsLib.Data storage"
        },
        {
          "name": "_name",
          "type": "bytes32"
        },
        {
          "name": "_rewardsAddress",
          "type": "address"
        },
        {
          "name": "_sidechainAddress",
          "type": "address"
        }
      ],
      "name": "updateValidator",
      "outputs": [
        {
          "name": "",
          "type": "uint256"
        }
      ],
      "payable": false,
      "stateMutability": "nonpayable",
      "type": "function"
    },
    {
      "constant": false,
      "inputs": [
        {
          "name": "_self",
          "type": "PropsRewardsLib.Data storage"
        },
        {
          "name": "_rewardsDay",
          "type": "uint256"
        },
        {
          "name": "_validators",
          "type": "address[]"
        }
      ],
      "name": "setValidators",
      "outputs": [
        {
          "name": "",
          "type": "bool"
        }
      ],
      "payable": false,
      "stateMutability": "nonpayable",
      "type": "function"
    },
    {
      "constant": false,
      "inputs": [
        {
          "name": "_self",
          "type": "PropsRewardsLib.Data storage"
        },
        {
          "name": "_rewardsDay",
          "type": "uint256"
        },
        {
          "name": "_applications",
          "type": "address[]"
        }
      ],
      "name": "setApplications",
      "outputs": [
        {
          "name": "",
          "type": "bool"
        }
      ],
      "payable": false,
      "stateMutability": "nonpayable",
      "type": "function"
    },
    {
      "constant": true,
      "inputs": [
        {
          "name": "_self",
          "type": "PropsRewardsLib.Data storage"
        },
        {
          "name": "_entityType",
          "type": "PropsRewardsLib.RewardedEntityType"
        },
        {
          "name": "_rewardsDay",
          "type": "uint256"
        }
      ],
      "name": "getEntities",
      "outputs": [
        {
          "name": "",
          "type": "address[]"
        }
      ],
      "payable": false,
      "stateMutability": "view",
      "type": "function"
    },
    {
      "constant": false,
      "inputs": [
        {
          "name": "_self",
          "type": "PropsRewardsLib.Data storage"
        },
        {
          "name": "_rewardsDay",
          "type": "uint256"
        }
      ],
      "name": "_incrementRewardsDay",
      "outputs": [
        {
          "name": "",
          "type": "bool"
        }
      ],
      "payable": false,
      "stateMutability": "nonpayable",
      "type": "function"
    },
    {
      "constant": true,
      "inputs": [
        {
          "name": "_self",
          "type": "PropsRewardsLib.Data storage"
        },
        {
          "name": "_rewardsDay",
          "type": "uint256"
        },
        {
          "name": "_maxTotalSupply",
          "type": "uint256"
        },
        {
          "name": "_currentTotalSupply",
          "type": "uint256"
        }
      ],
      "name": "_getMaxAppRewardsDailyAmount",
      "outputs": [
        {
          "name": "",
          "type": "uint256"
        }
      ],
      "payable": false,
      "stateMutability": "view",
      "type": "function"
    },
    {
      "constant": true,
      "inputs": [
        {
          "name": "_self",
          "type": "PropsRewardsLib.Data storage"
        },
        {
          "name": "_rewardsDay",
          "type": "uint256"
        },
        {
          "name": "_numOfValidators",
          "type": "uint256"
        },
        {
          "name": "_maxTotalSupply",
          "type": "uint256"
        },
        {
          "name": "_currentTotalSupply",
          "type": "uint256"
        }
      ],
      "name": "_getValidatorRewardsDailyAmountPerValidator",
      "outputs": [
        {
          "name": "",
          "type": "uint256"
        }
      ],
      "payable": false,
      "stateMutability": "view",
      "type": "function"
    },
    {
      "constant": true,
      "inputs": [
        {
          "name": "_self",
          "type": "PropsRewardsLib.Data storage"
        },
        {
          "name": "_applications",
          "type": "address[]"
        },
        {
          "name": "_amounts",
          "type": "uint256[]"
        }
      ],
      "name": "_validateSubmittedData",
      "outputs": [
        {
          "name": "",
          "type": "uint256"
        }
      ],
      "payable": false,
      "stateMutability": "view",
      "type": "function"
    },
    {
      "constant": true,
      "inputs": [
        {
          "name": "_rewardsDay",
          "type": "uint256"
        },
        {
          "name": "_rewardsHash",
          "type": "bytes32"
        },
        {
          "name": "_applications",
          "type": "address[]"
        },
        {
          "name": "_amounts",
          "type": "uint256[]"
        }
      ],
      "name": "_rewardHashIsvalid",
      "outputs": [
        {
          "name": "",
          "type": "bool"
        }
      ],
      "payable": false,
      "stateMutability": "pure",
      "type": "function"
    },
    {
      "constant": true,
      "inputs": [
        {
          "name": "_self",
          "type": "PropsRewardsLib.Data storage"
        },
        {
          "name": "_rewardsDay",
          "type": "uint256"
        }
      ],
      "name": "_requiredValidatorsForValidatorsRewards",
      "outputs": [
        {
          "name": "",
          "type": "uint256"
        }
      ],
      "payable": false,
      "stateMutability": "view",
      "type": "function"
    },
    {
      "constant": true,
      "inputs": [
        {
          "name": "_self",
          "type": "PropsRewardsLib.Data storage"
        },
        {
          "name": "_rewardsDay",
          "type": "uint256"
        }
      ],
      "name": "_requiredValidatorsForAppRewards",
      "outputs": [
        {
          "name": "",
          "type": "uint256"
        }
      ],
      "payable": false,
      "stateMutability": "view",
      "type": "function"
    }
  ],
  "bytecode": "0x613420610030600b82828239805160001a6073146000811461002057610022565bfe5b5030600052607381538281f300730000000000000000000000000000000000000000301460806040526004361061011e576000357c0100000000000000000000000000000000000000000000000000000000900463ffffffff1680630e2950711461012357806311cb33da146101b25780633f065dc91461021857806346e3a298146102d2578063476b90e51461037257806363cad06a146104655780637bf9067f146104f757806389932735146105c3578063a352a57d1461064f578063a4143f831461068d578063ac002c13146106cb578063b3b64bae14610727578063c1a986ef1461078a578063c3ac1c78146107d9578063c72356f514610840578063cc1b8c9c146108a3578063d81b705014610935578063e1a3f61414610980578063e2c593d3146109d2575b600080fd5b81801561012f57600080fd5b5061019c600480360381019080803590602001909291908035600019169060200190929190803573ffffffffffffffffffffffffffffffffffffffff169060200190929190803573ffffffffffffffffffffffffffffffffffffffff169060200190929190505050610a61565b6040518082815260200191505060405180910390f35b8180156101be57600080fd5b506101fe60048036038101908080359060200190929190803560ff1690602001909291908035906020019092919080359060200190929190505050610d32565b604051808215151515815260200191505060405180910390f35b6102bc600480360381019080803590602001909291908035906020019082018035906020019080806020026020016040519081016040528093929190818152602001838360200280828437820191505050505050919291929080359060200190820180359060200190808060200260200160405190810160405280939291908181526020018383602002808284378201915050505050509192919290505050610f4a565b6040518082815260200191505060405180910390f35b8180156102de57600080fd5b5061035860048036038101908080359060200190929190803560ff1690602001909291908035600019169060200190929190803573ffffffffffffffffffffffffffffffffffffffff169060200190929190803573ffffffffffffffffffffffffffffffffffffffff1690602001909291905050506110a9565b604051808215151515815260200191505060405180910390f35b81801561037e57600080fd5b5061044f60048036038101908080359060200190929190803590602001909291908035600019169060200190929190803590602001908201803590602001908080602002602001604051908101604052809392919081815260200183836020028082843782019150505050505091929192908035906020019082018035906020019080806020026020016040519081016040528093929190818152602001838360200280828437820191505050505050919291929080359060200190929190803590602001909291905050506111ff565b6040518082815260200191505060405180910390f35b81801561047157600080fd5b506104dd600480360381019080803590602001909291908035906020019092919080359060200190820180359060200190808060200260200160405190810160405280939291908181526020018383602002808284378201915050505050509192919290505050611a5d565b604051808215151515815260200191505060405180910390f35b6105a96004803603810190808035906020019092919080356000191690602001909291908035906020019082018035906020019080806020026020016040519081016040528093929190818152602001838360200280828437820191505050505050919291929080359060200190820180359060200190808060200260200160405190810160405280939291908181526020018383602002808284378201915050505050509192919290505050611c65565b604051808215151515815260200191505060405180910390f35b6105f860048036038101908080359060200190929190803560ff16906020019092919080359060200190929190505050611d67565b6040518080602001828103825283818151815260200191508051906020019060200280838360005b8381101561063b578082015181840152602081019050610620565b505050509050019250505060405180910390f35b6106776004803603810190808035906020019092919080359060200190929190505050612265565b6040518082815260200191505060405180910390f35b6106b560048036038101908080359060200190929190803590602001909291905050506123d3565b6040518082815260200191505060405180910390f35b610711600480360381019080803590602001909291908035906020019092919080359060200190929190803590602001909291908035906020019092919050505061257f565b6040518082815260200191505060405180910390f35b81801561073357600080fd5b5061077460048036038101908080359060200190929190803590602001909291908035600019169060200190929190803590602001909291905050506125b6565b6040518082815260200191505060405180910390f35b81801561079657600080fd5b506107bf6004803603810190808035906020019092919080359060200190929190505050612692565b604051808215151515815260200191505060405180910390f35b8180156107e557600080fd5b5061082660048036038101908080359060200190929190803590602001909291908035600019169060200190929190803590602001909291905050506126aa565b604051808215151515815260200191505060405180910390f35b81801561084c57600080fd5b5061088d6004803603810190808035906020019092919080359060200190929190803560001916906020019092919080359060200190929190505050612784565b6040518082815260200191505060405180910390f35b8180156108af57600080fd5b5061091b600480360381019080803590602001909291908035906020019092919080359060200190820180359060200190808060200260200160405190810160405280939291908181526020018383602002808284378201915050505050509192919290505050612846565b604051808215151515815260200191505060405180910390f35b61096a60048036038101908080359060200190929190803560ff16906020019092919080359060200190929190505050612a4e565b6040518082815260200191505060405180910390f35b6109bc60048036038101908080359060200190929190803590602001909291908035906020019092919080359060200190929190505050612ad5565b6040518082815260200191505060405180910390f35b8180156109de57600080fd5b50610a4b600480360381019080803590602001909291908035600019169060200190929190803573ffffffffffffffffffffffffffffffffffffffff169060200190929190803573ffffffffffffffffffffffffffffffffffffffff169060200190929190505050612b10565b6040518082815260200191505060405180910390f35b6000838560020160003373ffffffffffffffffffffffffffffffffffffffff1673ffffffffffffffffffffffffffffffffffffffff1681526020019081526020016000206000018160001916905550828560020160003373ffffffffffffffffffffffffffffffffffffffff1673ffffffffffffffffffffffffffffffffffffffff16815260200190815260200160002060010160006101000a81548173ffffffffffffffffffffffffffffffffffffffff021916908373ffffffffffffffffffffffffffffffffffffffff160217905550818560020160003373ffffffffffffffffffffffffffffffffffffffff1673ffffffffffffffffffffffffffffffffffffffff16815260200190815260200160002060020160006101000a81548173ffffffffffffffffffffffffffffffffffffffff021916908373ffffffffffffffffffffffffffffffffffffffff16021790555060008560020160003373ffffffffffffffffffffffffffffffffffffffff1673ffffffffffffffffffffffffffffffffffffffff168152602001908152602001600020600301541415610d1c57846003013390806001815401808255809150509060018203906000526020600020016000909192909190916101000a81548173ffffffffffffffffffffffffffffffffffffffff021916908373ffffffffffffffffffffffffffffffffffffffff1602179055505060018560020160003373ffffffffffffffffffffffffffffffffffffffff1673ffffffffffffffffffffffffffffffffffffffff1681526020019081526020016000206003018190555060018560020160003373ffffffffffffffffffffffffffffffffffffffff1673ffffffffffffffffffffffffffffffffffffffff16815260200190815260200160002060040160006101000a81548160ff02191690836001811115610d1657fe5b02179055505b600180811115610d2857fe5b9050949350505050565b600084826000811480610d8557508160140154826013016000600184038152602001908152602001600020600101544203118015610d8457508160110154811480610d835750600182601101540181145b5b5b1515610e1f576040517f08c379a00000000000000000000000000000000000000000000000000000000081526004018080602001828103825260228152602001807f4d75737420626520666f72207468697320726f756e64206f7220746865206e6581526020017f787400000000000000000000000000000000000000000000000000000000000081525060400191505060405180910390fd5b866004016000876003811115610e3157fe5b81526020019081526020016000206002015484111515610ea05784876004016000886003811115610e5e57fe5b81526020019081526020016000206000018190555083876004016000886003811115610e8657fe5b815260200190815260200160002060020181905550610f3c565b866004016000876003811115610eb257fe5b815260200190815260200160002060000154876004016000886003811115610ed657fe5b81526020019081526020016000206001018190555084876004016000886003811115610efe57fe5b81526020019081526020016000206000018190555083876004016000886003811115610f2657fe5b8152602001908152602001600020600201819055505b600192505050949350505050565b60008060008060019150600090505b8451811015610ff5578481815181101515610f7057fe5b906020019060200201518301925060018760000160008884815181101515610f9457fe5b9060200190602002015173ffffffffffffffffffffffffffffffffffffffff1673ffffffffffffffffffffffffffffffffffffffff16815260200190815260200160002060030154141515610fe857600091505b8080600101915050610f59565b6000831180156110025750815b151561109c576040517f08c379a00000000000000000000000000000000000000000000000000000000081526004018080602001828103825260278152602001807f53756d207a65726f206f72206e6f6e65206578697374696e672061707020737581526020017f626d69747465640000000000000000000000000000000000000000000000000081525060400191505060405180910390fd5b8293505050509392505050565b60008282600073ffffffffffffffffffffffffffffffffffffffff168273ffffffffffffffffffffffffffffffffffffffff16141580156111175750600073ffffffffffffffffffffffffffffffffffffffff168173ffffffffffffffffffffffffffffffffffffffff1614155b15156111b1576040517f08c379a000000000000000000000000000000000000000000000000000000000815260040180806020018281038252602f8152602001807f4d75737420686176652076616c6964207265776172647320616e64207369646581526020017f636861696e20616464726573736573000000000000000000000000000000000081525060400191505060405180910390fd5b600060018111156111be57fe5b8760018111156111ca57fe5b14156111e2576111dc88878787612b10565b506111f0565b6111ee88878787610a61565b505b60019250505095945050505050565b6000808888600081148061125357508160140154826013016000600184038152602001908152602001600020600101544203118015611252575081601101548114806112515750600182601101540181145b5b5b15156112ed576040517f08c379a00000000000000000000000000000000000000000000000000000000081526004018080602001828103825260228152602001807f4d75737420626520666f72207468697320726f756e64206f7220746865206e6581526020017f787400000000000000000000000000000000000000000000000000000000000081525060400191505060405180910390fd5b8a8981600f016000826000191660001916815260200190815260200160002060000160003373ffffffffffffffffffffffffffffffffffffffff1673ffffffffffffffffffffffffffffffffffffffff16815260200190815260200160002060009054906101000a900460ff161515156113f5576040517f08c379a00000000000000000000000000000000000000000000000000000000081526004018080602001828103825260248152602001807f4d757374206265206f6e65207375626d697373696f6e207065722076616c696481526020017f61746f720000000000000000000000000000000000000000000000000000000081525060400191505060405180910390fd5b8c8c600061153883600501606060405190810160405290816002820180548060200260200160405190810160405280929190818152602001828054801561149157602002820191906000526020600020905b8160009054906101000a900473ffffffffffffffffffffffffffffffffffffffff1673ffffffffffffffffffffffffffffffffffffffff1681526020019060010190808311611447575b505050505081526020016003820180548060200260200160405190810160405280929190818152602001828054801561151f57602002820191906000526020600020905b8160009054906101000a900473ffffffffffffffffffffffffffffffffffffffff1673ffffffffffffffffffffffffffffffffffffffff16815260200190600101908083116114d5575b5050505050815260200160048201548152505083612de2565b141561162f578160050160000160003373ffffffffffffffffffffffffffffffffffffffff1673ffffffffffffffffffffffffffffffffffffffff16815260200190815260200160002060009054906101000a900460ff16151561162a576040517f08c379a00000000000000000000000000000000000000000000000000000000081526004018080602001828103825260248152602001807f4d75737420626520612063757272656e742073656c65637465642076616c696481526020017f61746f720000000000000000000000000000000000000000000000000000000081525060400191505060405180910390fd5b61171c565b8160050160010160003373ffffffffffffffffffffffffffffffffffffffff1673ffffffffffffffffffffffffffffffffffffffff16815260200190815260200160002060009054906101000a900460ff16151561171b576040517f08c379a00000000000000000000000000000000000000000000000000000000081526004018080602001828103825260258152602001807f4d75737420626520612070726576696f75732073656c65637465642076616c6981526020017f6461746f7200000000000000000000000000000000000000000000000000000081525060400191505060405180910390fd5b5b6117288e8e8e8e611c65565b151561179c576040517f08c379a00000000000000000000000000000000000000000000000000000000081526004018080602001828103825260168152602001807f526577617264204861736820697320696e76616c69640000000000000000000081525060200191505060405180910390fd5b60008f600f0160008f60001916600019168152602001908152602001600020600301541415611820578e6010018d908060018154018082558091505090600182039060005260206000200160009091929091909150906000191690555060018f600f0160008f60001916600019168152602001908152602001600020600301819055505b60018f600f0160008f6000191660001916815260200190815260200160002060000160003373ffffffffffffffffffffffffffffffffffffffff1673ffffffffffffffffffffffffffffffffffffffff16815260200190815260200160002060006101000a81548160ff0219169083151502179055508e600f0160008e60001916600019168152602001908152602001600020600201600081548092919060010191905055508e600f0160008e600019166000191681526020019081526020016000206001013390806001815401808255809150509060018203906000526020600020016000909192909190916101000a81548173ffffffffffffffffffffffffffffffffffffffff021916908373ffffffffffffffffffffffffffffffffffffffff160217905550506119548f8f6123d3565b8f600f0160008f60001916600019168152602001908152602001600020600201541415611a46576119868f8d8d610f4a565b96506119948f8f8c8c612ad5565b8711151515611a31576040517f08c379a00000000000000000000000000000000000000000000000000000000081526004018080602001828103825260308152602001807f52657761726473206461746120697320696e76616c6964202d2065786365656481526020017f206461696c7920766172696174696f6e0000000000000000000000000000000081525060400191505060405180910390fd5b611a3d8f8f8f8c6126aa565b50869750611a4b565b600097505b50505050505050979650505050505050565b6000838381600501600401548110151515611b06576040517f08c379a00000000000000000000000000000000000000000000000000000000081526004018080602001828103825260308152602001807f4d757374206265206578697374696e67206f72206675747572652076616c696481526020017f61746f727320726577617264734461790000000000000000000000000000000081525060400191505060405180910390fd5b858460008090505b8151811015611bf75760018360020160008484815181101515611b2d57fe5b9060200190602002015173ffffffffffffffffffffffffffffffffffffffff1673ffffffffffffffffffffffffffffffffffffffff16815260200190815260200160002060030154141515611bea576040517f08c379a00000000000000000000000000000000000000000000000000000000081526004018080602001828103825260148152602001807f56616c696461746f72206d75737420657869737400000000000000000000000081525060200191505060405180910390fd5b8080600101915050611b0e565b600089600501600201805490501415611c1d57611c178960050188612e05565b50611c49565b8860050160040154881115611c3a57611c3889600501612fd4565b505b611c478960050188612e05565b505b8789600501600401819055506001955050505050509392505050565b6000836000191685848460405160200180848152602001838051906020019060200280838360005b83811015611ca8578082015181840152602081019050611c8d565b50505050905001828051906020019060200280838360005b83811015611cdb578082015181840152602081019050611cc0565b5050505090500193505050506040516020818303038152906040526040518082805190602001908083835b602083101515611d2b5780518252602082019150602081019050602083039250611d06565b6001836020036101000a038019825116818451168082178552505050505050905001915050604051809103902060001916149050949350505050565b606060006001811115611d7657fe5b836001811115611d8257fe5b1415611ff5576000611ec985600a016060604051908101604052908160028201805480602002602001604051908101604052809291908181526020018280548015611e2257602002820191906000526020600020905b8160009054906101000a900473ffffffffffffffffffffffffffffffffffffffff1673ffffffffffffffffffffffffffffffffffffffff1681526020019060010190808311611dd8575b5050505050815260200160038201805480602002602001604051908101604052809291908181526020018280548015611eb057602002820191906000526020600020905b8160009054906101000a900473ffffffffffffffffffffffffffffffffffffffff1673ffffffffffffffffffffffffffffffffffffffff1681526020019060010190808311611e66575b5050505050815260200160048201548152505084612de2565b1415611f625783600a01600201805480602002602001604051908101604052809291908181526020018280548015611f5657602002820191906000526020600020905b8160009054906101000a900473ffffffffffffffffffffffffffffffffffffffff1673ffffffffffffffffffffffffffffffffffffffff1681526020019060010190808311611f0c575b5050505050905061225e565b83600a01600301805480602002602001604051908101604052809291908181526020018280548015611fe957602002820191906000526020600020905b8160009054906101000a900473ffffffffffffffffffffffffffffffffffffffff1673ffffffffffffffffffffffffffffffffffffffff1681526020019060010190808311611f9f575b5050505050905061225e565b600061213685600501606060405190810160405290816002820180548060200260200160405190810160405280929190818152602001828054801561208f57602002820191906000526020600020905b8160009054906101000a900473ffffffffffffffffffffffffffffffffffffffff1673ffffffffffffffffffffffffffffffffffffffff1681526020019060010190808311612045575b505050505081526020016003820180548060200260200160405190810160405280929190818152602001828054801561211d57602002820191906000526020600020905b8160009054906101000a900473ffffffffffffffffffffffffffffffffffffffff1673ffffffffffffffffffffffffffffffffffffffff16815260200190600101908083116120d3575b5050505050815260200160048201548152505084612de2565b14156121cf57836005016002018054806020026020016040519081016040528092919081815260200182805480156121c357602002820191906000526020600020905b8160009054906101000a900473ffffffffffffffffffffffffffffffffffffffff1673ffffffffffffffffffffffffffffffffffffffff1681526020019060010190808311612179575b5050505050905061225e565b8360050160030180548060200260200160405190810160405280929190818152602001828054801561225657602002820191906000526020600020905b8160009054906101000a900473ffffffffffffffffffffffffffffffffffffffff1673ffffffffffffffffffffffffffffffffffffffff168152602001906001019080831161220c575b505050505090505b9392505050565b6000806123a784600501606060405190810160405290816002820180548060200260200160405190810160405280929190818152602001828054801561230057602002820191906000526020600020905b8160009054906101000a900473ffffffffffffffffffffffffffffffffffffffff1673ffffffffffffffffffffffffffffffffffffffff16815260200190600101908083116122b6575b505050505081526020016003820180548060200260200160405190810160405280929190818152602001828054801561238e57602002820191906000526020600020905b8160009054906101000a900473ffffffffffffffffffffffffffffffffffffffff1673ffffffffffffffffffffffffffffffffffffffff1681526020019060010190808311612344575b5050505050815260200160048201548152505084612de2565b14156123bf57826005016002018054905090506123cd565b826005016003018054905090505b92915050565b60008061251584600501606060405190810160405290816002820180548060200260200160405190810160405280929190818152602001828054801561246e57602002820191906000526020600020905b8160009054906101000a900473ffffffffffffffffffffffffffffffffffffffff1673ffffffffffffffffffffffffffffffffffffffff1681526020019060010190808311612424575b50505050508152602001600382018054806020026020016040519081016040528092919081815260200182805480156124fc57602002820191906000526020600020905b8160009054906101000a900473ffffffffffffffffffffffffffffffffffffffff1673ffffffffffffffffffffffffffffffffffffffff16815260200190600101908083116124b2575b5050505050815260200160048201548152505084612de2565b141561254c5760016305f5e10061252e85600286612a4e565b85600501600201805490500281151561254357fe5b04019050612579565b60016305f5e10061255f85600286612a4e565b85600501600301805490500281151561257457fe5b040190505b92915050565b6000836305f5e10061259388600389612a4e565b848603028115156125a057fe5b048115156125aa57fe5b04905095945050505050565b600080600186600f0160008660001916600019168152602001908152602001600020600401541415612684576125ec8686612265565b905085600f01600085600019166000191681526020019081526020016000206002015481111561261f5760009150612689565b600286600f01600086600019166000191681526020019081526020016000206004018190555061264f8686612692565b5061267d868683868a600f0160008a600019166000191681526020019081526020016000206005015461257f565b9150612689565b600091505b50949350505050565b60006001820183601101819055506001905092915050565b60008185600f016000856000191660001916815260200190815260200160002060050181905550600185600f0160008560001916600019168152602001908152602001600020600401819055508385600f016000856000191660001916815260200190815260200160002060060181905550828560130160008681526020019081526020016000206000018160001916905550428560130160008681526020019081526020016000206001018190555060018560130160008681526020019081526020016000206002018190555060019050949350505050565b600080600186600f01600086600019166000191681526020019081526020016000206004015414156128385785600f0160008560001916600019168152602001908152602001600020600201549050600286600f0160008660001916600019168152602001908152602001600020600401819055506128038686612692565b50612831868683868a600f0160008a600019166000191681526020019081526020016000206005015461257f565b915061283d565b600091505b50949350505050565b6000838381600a016004015481101515156128ef576040517f08c379a00000000000000000000000000000000000000000000000000000000081526004018080602001828103825260328152602001807f4d757374206265206578697374696e67206f7220667574757265206170706c6981526020017f636174696f6e732072657761726473446179000000000000000000000000000081525060400191505060405180910390fd5b858460008090505b81518110156129e0576001836000016000848481518110151561291657fe5b9060200190602002015173ffffffffffffffffffffffffffffffffffffffff1673ffffffffffffffffffffffffffffffffffffffff168152602001908152602001600020600301541415156129d3576040517f08c379a00000000000000000000000000000000000000000000000000000000081526004018080602001828103825260168152602001807f4170706c69636174696f6e206d7573742065786973740000000000000000000081525060200191505060405180910390fd5b80806001019150506128f7565b600089600a01600201805490501415612a0657612a0089600a0188612e05565b50612a32565b88600a0160040154881115612a2357612a2189600a01612fd4565b505b612a3089600a0188612e05565b505b8789600a01600401819055506001955050505050509392505050565b6000836004016000846003811115612a6257fe5b81526020019081526020016000206002015482101515612aa757836004016000846003811115612a8e57fe5b8152602001908152602001600020600001549050612ace565b836004016000846003811115612ab957fe5b81526020019081526020016000206001015490505b9392505050565b6000662386f26fc10000612aeb86600187612a4e565b612af787600088612a4e565b8486030202811515612b0557fe5b049050949350505050565b6000838560000160003373ffffffffffffffffffffffffffffffffffffffff1673ffffffffffffffffffffffffffffffffffffffff1681526020019081526020016000206000018160001916905550828560000160003373ffffffffffffffffffffffffffffffffffffffff1673ffffffffffffffffffffffffffffffffffffffff16815260200190815260200160002060010160006101000a81548173ffffffffffffffffffffffffffffffffffffffff021916908373ffffffffffffffffffffffffffffffffffffffff160217905550818560000160003373ffffffffffffffffffffffffffffffffffffffff1673ffffffffffffffffffffffffffffffffffffffff16815260200190815260200160002060020160006101000a81548173ffffffffffffffffffffffffffffffffffffffff021916908373ffffffffffffffffffffffffffffffffffffffff16021790555060008560000160003373ffffffffffffffffffffffffffffffffffffffff1673ffffffffffffffffffffffffffffffffffffffff168152602001908152602001600020600301541415612dcb57846001013390806001815401808255809150509060018203906000526020600020016000909192909190916101000a81548173ffffffffffffffffffffffffffffffffffffffff021916908373ffffffffffffffffffffffffffffffffffffffff1602179055505060018560000160003373ffffffffffffffffffffffffffffffffffffffff1673ffffffffffffffffffffffffffffffffffffffff1681526020019081526020016000206003018190555060008560000160003373ffffffffffffffffffffffffffffffffffffffff1673ffffffffffffffffffffffffffffffffffffffff16815260200190815260200160002060040160006101000a81548160ff02191690836001811115612dc557fe5b02179055505b60006001811115612dd857fe5b9050949350505050565b6000826040015182101515612dfa5760009050612dff565b600190505b92915050565b600080600080856002018054905014915081158015612e2c57508351856002018054905014155b15612e4057612e3a8561321a565b50600191505b600090505b8351811015612fc8578115612ed857846002018482815181101515612e6657fe5b9060200190602002015190806001815401808255809150509060018203906000526020600020016000909192909190916101000a81548173ffffffffffffffffffffffffffffffffffffffff021916908373ffffffffffffffffffffffffffffffffffffffff16021790555050612f4a565b8381815181101515612ee657fe5b906020019060200201518560020182815481101515612f0157fe5b9060005260206000200160006101000a81548173ffffffffffffffffffffffffffffffffffffffff021916908373ffffffffffffffffffffffffffffffffffffffff1602179055505b60018560000160008684815181101515612f6057fe5b9060200190602002015173ffffffffffffffffffffffffffffffffffffffff1673ffffffffffffffffffffffffffffffffffffffff16815260200190815260200160002060006101000a81548160ff0219169083151502179055508080600101915050612e45565b60019250505092915050565b60008060008084600301805490501491508115801561300157508360020180549050846003018054905014155b156130155761300f846132e4565b50600191505b600090505b836002018054905081101561320f5781156130d75783600301846002018281548110151561304457fe5b9060005260206000200160009054906101000a900473ffffffffffffffffffffffffffffffffffffffff1690806001815401808255809150509060018203906000526020600020016000909192909190916101000a81548173ffffffffffffffffffffffffffffffffffffffff021916908373ffffffffffffffffffffffffffffffffffffffff1602179055505061316d565b83600201818154811015156130e857fe5b9060005260206000200160009054906101000a900473ffffffffffffffffffffffffffffffffffffffff16846003018281548110151561312457fe5b9060005260206000200160006101000a81548173ffffffffffffffffffffffffffffffffffffffff021916908373ffffffffffffffffffffffffffffffffffffffff1602179055505b6001846001016000866002018481548110151561318657fe5b9060005260206000200160009054906101000a900473ffffffffffffffffffffffffffffffffffffffff1673ffffffffffffffffffffffffffffffffffffffff1673ffffffffffffffffffffffffffffffffffffffff16815260200190815260200160002060006101000a81548160ff021916908315150217905550808060010191505061301a565b600192505050919050565b600080600090505b82600201805490508110156132ca57826000016000846002018381548110151561324857fe5b9060005260206000200160009054906101000a900473ffffffffffffffffffffffffffffffffffffffff1673ffffffffffffffffffffffffffffffffffffffff1673ffffffffffffffffffffffffffffffffffffffff16815260200190815260200160002060006101000a81549060ff02191690558080600101915050613222565b8260020160006132da91906133ae565b6001915050919050565b600080600090505b826003018054905081101561339457826001016000846003018381548110151561331257fe5b9060005260206000200160009054906101000a900473ffffffffffffffffffffffffffffffffffffffff1673ffffffffffffffffffffffffffffffffffffffff1673ffffffffffffffffffffffffffffffffffffffff16815260200190815260200160002060006101000a81549060ff021916905580806001019150506132ec565b8260030160006133a491906133ae565b6001915050919050565b50805460008255906000526020600020908101906133cc91906133cf565b50565b6133f191905b808211156133ed5760008160009055506001016133d5565b5090565b905600a165627a7a723058209ef00c144cf1956a2b1e20b376969f91d21792846b8ab532362a2f25e934ff3c0029",
  "source": "pragma solidity ^0.4.24;\n\n/**\n * @title Props Rewards Library\n * @dev Library to manage application and validators and parameters\n **/\nlibrary PropsRewardsLib {\n    /*\n    *  Events\n    */\n    event DailyRewardsDataPruned(uint256 entires);\n\n    /*\n    *  Storage\n    */\n\n    // The various parameters used by the contract\n    enum ParameterName { ApplicationRewardsPercent, ApplicationRewardsMaxVariationPercent, ValidatorMajorityPercent, ValidatorRewardsPercent}\n    enum RewardedEntityType { Application, Validator }\n\n    // Represents a parameter current, previous and time of change\n    struct Parameter {\n        uint256 currentValue;                   // current value in Pphm valid after timestamp\n        uint256 previousValue;                  // previous value in Pphm for use before timestamp\n        uint256 rewardsDay;                // timestamp of when the value was updated\n    }\n    // Represents application details\n    struct RewardedEntity {\n        bytes32 name;                           // Application name\n        address rewardsAddress;                 // address where rewards will be minted to\n        address sidechainAddress;               // address used on the sidechain\n        uint256 initializedState;               // A way to check if there's something in the map and whether already added to list\n        RewardedEntityType entityType;                // Type of rewarded entity\n    }\n\n    // Represents validators current and previous lists\n    struct RewardedEntityList {\n        mapping (address => bool) current;\n        mapping (address => bool) previous;\n        address[] currentList;\n        address[] previousList;\n        uint256 rewardsDay;\n    }\n\n    // Represents daily reward submissions and confimations\n    struct DailyRewards {\n        mapping (address => bool) submissions;\n        address[] submissionValidators;\n        uint256 confirmations;\n        uint256 initializedState;               // A way to check if there's something in the map and whether already added to list\n        uint256 finalized;\n        uint256 totalSupply;\n        uint256 rewardsDay;\n    }\n\n    //Represent rewards day to its rewardsHash and block.timestamp\n    struct RewardsDayHash {\n        bytes32 rewardsHash;\n        uint256 blockTimestamp;\n        uint256 initializedState;\n    }\n\n    // represent the storage structures\n    struct Data {\n        // applications data\n        mapping (address => RewardedEntity) applications;\n        address[] applicationsList;\n        // validators data\n        mapping (address => RewardedEntity) validators;\n        address[] validatorsList;\n        // adjustable parameters data\n        mapping (uint256 => Parameter) parameters; // uint256 is the parameter enum index\n        // the participating validators\n        RewardedEntityList selectedValidators;\n        // the participating applications\n        RewardedEntityList selectedApplications;\n        // daily rewards submission data\n        mapping (bytes32 => DailyRewards) dailyRewards;\n        bytes32[] dailyRewardsList;\n        // current and previous rewards daily timestamp\n        uint256 rewardsDay;\n        // indication to when to cleanup the dailyRewards data\n        uint256 maxDailyRewardStorage;\n        // map to hold rewardsDay to its hash and block timestamp\n        mapping (uint256 => RewardsDayHash) dailyRewardHashes;\n        uint256 minSecondsBetweenDays;\n    }\n    /*\n    *  Modifiers\n    */\n    modifier onlyOneRewardsHashPerValidator(Data storage _self, bytes32 _rewardsHash) {\n        require(\n            !_self.dailyRewards[_rewardsHash].submissions[msg.sender],\n            \"Must be one submission per validator\"\n        );\n         _;\n    }\n\n    modifier onlyExistingApplications(Data storage _self, address[] _entities) {\n        for (uint256 i = 0; i < _entities.length; i++) {\n            require(\n                _self.applications[_entities[i]].initializedState == 1,\n                \"Application must exist\"\n            );\n        }\n        _;\n    }\n\n    modifier onlyExistingValidators(Data storage _self, address[] _entities) {\n        for (uint256 i = 0; i < _entities.length; i++) {\n            require(\n                _self.validators[_entities[i]].initializedState == 1,\n                \"Validator must exist\"\n            );\n        }\n        _;\n    }\n\n    modifier onlySelectedValidators(Data storage _self, uint256 _rewardsDay) {\n        if (_getSelectedRewardedEntityListType(_self.selectedValidators, _rewardsDay) == 0) {\n            require (\n                _self.selectedValidators.current[msg.sender],\n                \"Must be a current selected validator\"\n            );\n        } else {\n            require (\n                _self.selectedValidators.previous[msg.sender],\n                \"Must be a previous selected validator\"\n            );\n        }\n        _;\n    }\n\n    modifier onlyValidRewardsDay(Data storage _self, uint256 _rewardsDay) {\n        require(\n            _rewardsDay == 0 ||\n            (block.timestamp - _self.dailyRewardHashes[_rewardsDay - 1].blockTimestamp) > _self.minSecondsBetweenDays &&\n            (_rewardsDay == _self.rewardsDay || _rewardsDay == (_self.rewardsDay + 1)),\n            \"Must be for this round or the next\"\n        );\n         _;\n    }\n\n    modifier onlyValidValidatorsRewardsDay(Data storage _self, uint256 _rewardsDay) {\n        require(\n            _rewardsDay >= _self.selectedValidators.rewardsDay,\n            \"Must be existing or future validators rewardsDay\"\n        );\n         _;\n    }\n\n    modifier onlyValidApplicationsRewardsDay(Data storage _self, uint256 _rewardsDay) {\n        require(\n            _rewardsDay >= _self.selectedApplications.rewardsDay,\n            \"Must be existing or future applications rewardsDay\"\n        );\n         _;\n    }\n\n    modifier onlyValidAddresses(address _rewardsAddress, address _sidechainAddress) {\n        require(\n            _rewardsAddress != address(0) &&\n            _sidechainAddress != address(0),\n            \"Must have valid rewards and sidechain addresses\"\n        );\n        _;\n    }\n\n\n    /**\n    * @dev The function is called by validators with the calculation of the daily rewards for previous day\n    * @param _self Data pointer to storage\n    * @param _rewardsDay uint256 the rewards day\n    * @param _rewardsHash bytes32 hash of the rewards data\n    * @param _maxTotalSupply uint256 max total supply\n    */\n    function calculatePreviousDayValidatorRewards(\n        Data storage _self,\n        uint256 _rewardsDay,\n        bytes32 _rewardsHash,\n        uint256 _maxTotalSupply\n    )\n        public\n        returns (uint256)\n    {\n        uint256 numOfValidators;\n        if (_self.dailyRewards[_rewardsHash].finalized == 1) // previous daily reward was not finalized\n        {\n            numOfValidators = _self.dailyRewards[_rewardsHash].confirmations;\n            _self.dailyRewards[_rewardsHash].finalized = 2;\n            _incrementRewardsDay(_self, _rewardsDay);\n            return _getValidatorRewardsDailyAmountPerValidator(_self, _rewardsDay, numOfValidators, _maxTotalSupply,  _self.dailyRewards[_rewardsHash].totalSupply);\n        }\n        return 0;\n    }\n\n    /**\n    * @dev The function is called by validators with the calculation of the daily rewards\n    * @param _self Data pointer to storage\n    * @param _rewardsDay uint256 the rewards day\n    * @param _rewardsHash bytes32 hash of the rewards data\n    * @param _maxTotalSupply uint256 max total supply\n    */\n    function calculateValidatorRewards(\n        Data storage _self,\n        uint256 _rewardsDay,\n        bytes32 _rewardsHash,\n        uint256 _maxTotalSupply\n    )\n        public\n        returns (uint256)\n    {\n        uint256 numOfValidators;\n        if (_self.dailyRewards[_rewardsHash].finalized == 1)\n        {\n            numOfValidators = _requiredValidatorsForValidatorsRewards(_self, _rewardsDay);\n            if (numOfValidators > _self.dailyRewards[_rewardsHash].confirmations) return 0;\n            _self.dailyRewards[_rewardsHash].finalized = 2;\n            _incrementRewardsDay(_self, _rewardsDay);\n            return _getValidatorRewardsDailyAmountPerValidator(_self, _rewardsDay, numOfValidators, _maxTotalSupply,  _self.dailyRewards[_rewardsHash].totalSupply);\n        }\n        return 0;\n    }\n\n    /**\n    * @dev The function is called by validators with the calculation of the daily rewards\n    * @param _self Data pointer to storage\n    * @param _rewardsDay uint256 the rewards day\n    * @param _rewardsHash bytes32 hash of the rewards data\n    * @param _applications address[] array of application addresses getting the daily reward\n    * @param _amounts uint256[] array of amounts each app should get\n    * @param _maxTotalSupply uint256 max total supply\n    * @param _currentTotalSupply uint256 current total supply\n    */\n    function calculateApplicationRewards(\n        Data storage _self,\n        uint256 _rewardsDay,\n        bytes32 _rewardsHash,\n        address[] _applications,\n        uint256[] _amounts,\n        uint256 _maxTotalSupply,\n        uint256 _currentTotalSupply\n    )\n        public\n        onlyValidRewardsDay(_self, _rewardsDay)\n        onlyOneRewardsHashPerValidator(_self, _rewardsHash)\n        onlySelectedValidators(_self, _rewardsDay)\n        returns (uint256)\n    {\n        require(\n                _rewardHashIsvalid(_rewardsDay, _rewardsHash, _applications, _amounts),\n                \"Reward Hash is invalid\"\n        );\n        if (_self.dailyRewards[_rewardsHash].initializedState == 0) {\n            _self.dailyRewardsList.push(_rewardsHash);\n            _self.dailyRewards[_rewardsHash].initializedState = 1;\n        }\n        _self.dailyRewards[_rewardsHash].submissions[msg.sender] = true;\n        _self.dailyRewards[_rewardsHash].confirmations++;\n        _self.dailyRewards[_rewardsHash].submissionValidators.push(msg.sender);\n        if (_self.dailyRewards[_rewardsHash].confirmations == _requiredValidatorsForAppRewards(_self, _rewardsDay)) {\n            uint256 sum = _validateSubmittedData(_self, _applications, _amounts);\n            require(\n                sum <= _getMaxAppRewardsDailyAmount(_self, _rewardsDay, _maxTotalSupply, _currentTotalSupply),\n                \"Rewards data is invalid - exceed daily variation\"\n            );\n            _finalizeDailyApplicationRewards(_self, _rewardsDay, _rewardsHash, _currentTotalSupply);\n            return sum;\n        }\n        return 0;\n    }\n\n    /**\n    * @dev Finalizes the state, rewards Hash, total supply and block timestamp for the day\n    * @param _self Data pointer to storage\n    * @param _rewardsDay uint256 the reward day\n    * @param _rewardsHash bytes32 the daily reward hash\n    * @param _currentTotalSupply uint256 the current total supply\n    */\n    function _finalizeDailyApplicationRewards(Data storage _self, uint256 _rewardsDay, bytes32 _rewardsHash, uint256 _currentTotalSupply)\n        public\n        returns (bool)\n    {\n        _self.dailyRewards[_rewardsHash].totalSupply = _currentTotalSupply;\n        _self.dailyRewards[_rewardsHash].finalized = 1;\n        _self.dailyRewards[_rewardsHash].rewardsDay = _rewardsDay;\n        _self.dailyRewardHashes[_rewardsDay].rewardsHash = _rewardsHash;\n        _self.dailyRewardHashes[_rewardsDay].blockTimestamp = block.timestamp;\n        _self.dailyRewardHashes[_rewardsDay].initializedState = 1;\n        // _pruneDailyRewardEntries(_self);\n\n        return true;\n    }\n    /**\n    * @dev Get parameter's value\n    * @param _self Data pointer to storage\n    * @param _name ParameterName name of the parameter\n    * @param _rewardsDay uint256 the rewards day\n    */\n    function getParameterValue(\n        Data storage _self,\n        ParameterName _name,\n        uint256 _rewardsDay\n    )\n        public\n        view\n        returns (uint256)\n    {\n        if (_rewardsDay >= _self.parameters[uint256(_name)].rewardsDay) {\n            return _self.parameters[uint256(_name)].currentValue;\n        } else {\n            return _self.parameters[uint256(_name)].previousValue;\n        }\n    }\n\n    /**\n    * @dev Allows the controller/owner to update rewards parameters\n    * @param _self Data pointer to storage\n    * @param _name ParameterName name of the parameter\n    * @param _value uint256 new value for the parameter\n    * @param _rewardsDay uint256 the rewards day\n    */\n    function updateParameter(\n        Data storage _self,\n        ParameterName _name,\n        uint256 _value,\n        uint256 _rewardsDay\n    )\n        public\n        onlyValidRewardsDay(_self, _rewardsDay)\n        returns (bool)\n    {\n        if (_rewardsDay <= _self.parameters[uint256(_name)].rewardsDay) {\n           _self.parameters[uint256(_name)].currentValue = _value;\n           _self.parameters[uint256(_name)].rewardsDay = _rewardsDay;\n        } else {\n            _self.parameters[uint256(_name)].previousValue = _self.parameters[uint256(_name)].currentValue;\n            _self.parameters[uint256(_name)].currentValue = _value;\n           _self.parameters[uint256(_name)].rewardsDay = _rewardsDay;\n        }\n        return true;\n    }\n\n    /**\n    * @dev Allows an application to add/update its details\n    * @param _self Data pointer to storage\n    * @param _entityType RewardedEntityType either application (0) or validator (1)\n    * @param _name bytes32 name of the app\n    * @param _rewardsAddress address an address for the app to receive the rewards\n    * @param _sidechainAddress address the address used for using the sidechain\n    */\n    function updateEntity(\n        Data storage _self,\n        RewardedEntityType _entityType,\n        bytes32 _name,\n        address _rewardsAddress,\n        address _sidechainAddress\n    )\n        public\n        onlyValidAddresses(_rewardsAddress, _sidechainAddress)\n        returns (bool)\n    {\n        if (_entityType == RewardedEntityType.Application) {\n            updateApplication(_self, _name, _rewardsAddress, _sidechainAddress);\n        } else {\n            updateValidator(_self, _name, _rewardsAddress, _sidechainAddress);\n        }\n        return true;\n    }\n\n    /**\n    * @dev Allows an application to add/update its details\n    * @param _self Data pointer to storage\n    * @param _name bytes32 name of the app\n    * @param _rewardsAddress address an address for the app to receive the rewards\n    * @param _sidechainAddress address the address used for using the sidechain\n    */\n    function updateApplication(\n        Data storage _self,\n        bytes32 _name,\n        address _rewardsAddress,\n        address _sidechainAddress\n    )\n        public\n        returns (uint256)\n    {\n        _self.applications[msg.sender].name = _name;\n        _self.applications[msg.sender].rewardsAddress = _rewardsAddress;\n        _self.applications[msg.sender].sidechainAddress = _sidechainAddress;\n        if (_self.applications[msg.sender].initializedState == 0) {\n            _self.applicationsList.push(msg.sender);\n            _self.applications[msg.sender].initializedState = 1;\n            _self.applications[msg.sender].entityType = RewardedEntityType.Application;\n        }\n        return uint256(RewardedEntityType.Application);\n    }\n\n    /**\n    * @dev Allows a validator to add/update its details\n    * @param _self Data pointer to storage\n    * @param _name bytes32 name of the validator\n    * @param _rewardsAddress address an address for the validator to receive the rewards\n    * @param _sidechainAddress address the address used for using the sidechain\n    */\n    function updateValidator(\n        Data storage _self,\n        bytes32 _name,\n        address _rewardsAddress,\n        address _sidechainAddress\n    )\n        public\n        returns (uint256)\n    {\n        _self.validators[msg.sender].name = _name;\n        _self.validators[msg.sender].rewardsAddress = _rewardsAddress;\n        _self.validators[msg.sender].sidechainAddress = _sidechainAddress;\n        if (_self.validators[msg.sender].initializedState == 0) {\n            _self.validatorsList.push(msg.sender);\n            _self.validators[msg.sender].initializedState = 1;\n            _self.validators[msg.sender].entityType = RewardedEntityType.Validator;\n        }\n        return uint256(RewardedEntityType.Validator);\n    }\n\n    /**\n    * @dev Set new validators list\n    * @param _self Data pointer to storage\n    * @param _rewardsDay uint256 the rewards day from which the list should be active\n    * @param _validators address[] array of validators\n    */\n    function setValidators(\n        Data storage _self,\n        uint256 _rewardsDay,\n        address[] _validators\n    )\n        public\n        onlyValidValidatorsRewardsDay(_self, _rewardsDay)\n        onlyExistingValidators(_self, _validators)\n        returns (bool)\n    {\n\n        if (_self.selectedValidators.currentList.length == 0) { // first time the daily validators list is set\n            _updateCurrentEntityList(_self.selectedValidators, _validators);\n        } else {\n            if (_rewardsDay > _self.selectedValidators.rewardsDay)\n                _updatePreviousEntityList(_self.selectedValidators);\n            _updateCurrentEntityList(_self.selectedValidators, _validators);\n        }\n        _self.selectedValidators.rewardsDay = _rewardsDay;\n        return true;\n    }\n\n   /**\n    * @dev Set new applications list\n    * @param _self Data pointer to storage\n    * @param _rewardsDay uint256 the rewards day from which the list should be active\n    * @param _applications address[] array of applications\n    */\n    function setApplications(\n        Data storage _self,\n        uint256 _rewardsDay,\n        address[] _applications\n    )\n        public\n        onlyValidApplicationsRewardsDay(_self, _rewardsDay)\n        onlyExistingApplications(_self, _applications)\n        returns (bool)\n    {\n\n        if (_self.selectedApplications.currentList.length == 0) { // first time the daily validators list is set\n            _updateCurrentEntityList(_self.selectedApplications, _applications);\n        } else {\n            if (_rewardsDay > _self.selectedApplications.rewardsDay)\n                _updatePreviousEntityList(_self.selectedApplications);\n            _updateCurrentEntityList(_self.selectedApplications, _applications);\n        }\n        _self.selectedApplications.rewardsDay = _rewardsDay;\n        return true;\n    }\n\n    /**\n    * @dev Get applications or validators list\n    * @param _self Data pointer to storage\n    * @param _entityType RewardedEntityType either application (0) or validator (1)\n    * @param _rewardsDay uint256 the reward day to determine which list to get\n    */\n    function getEntities(\n        Data storage _self,\n        RewardedEntityType _entityType,\n        uint256 _rewardsDay\n    )\n        public\n        view\n        returns (address[])\n    {\n        if (_entityType == RewardedEntityType.Application) {\n            if (_getSelectedRewardedEntityListType(_self.selectedApplications, _rewardsDay) == 0) {\n                return _self.selectedApplications.currentList;\n            } else {\n                return _self.selectedApplications.previousList;\n            }\n        } else {\n            if (_getSelectedRewardedEntityListType(_self.selectedValidators, _rewardsDay) == 0) {\n                return _self.selectedValidators.currentList;\n            } else {\n                return _self.selectedValidators.previousList;\n            }\n        }\n    }\n\n    /**\n    * @dev Get which entity list to use. Current = 0, previous = 1\n    * @param _rewardedEntitylist RewardedEntityList pointer to storage\n    * @param _rewardsDay uint256 the reward day to determine which list to get\n    */\n    function _getSelectedRewardedEntityListType(RewardedEntityList _rewardedEntitylist, uint256 _rewardsDay)\n        internal\n        pure\n        returns (uint256)\n    {\n        if (_rewardsDay >= _rewardedEntitylist.rewardsDay) {\n            return 0;\n        } else {\n            return 1;\n        }\n    }\n\n    /**\n    * @dev Updates the current dailyTimestamp and previous one\n    * @param _self Data pointer to storage\n    * @param _rewardsDay uint256 the reward day\n    */\n    function _incrementRewardsDay(Data storage _self, uint256 _rewardsDay)\n        public\n        returns (bool)\n    {\n        _self.rewardsDay = (_rewardsDay + 1);\n        return true;\n    }\n\n    /**\n    * @dev Checks how many validators are needed for app rewards\n    * @param _self Data pointer to storage\n    * @param _rewardsDay uint256 the reward day\n    * @param _maxTotalSupply uint256 max total supply\n    * @param _currentTotalSupply uint256 current total supply\n    */\n    function _getMaxAppRewardsDailyAmount(\n        Data storage _self,\n        uint256 _rewardsDay,\n        uint256 _maxTotalSupply,\n        uint256 _currentTotalSupply\n    )\n        public\n        view\n        returns (uint256)\n    {\n        return ((_maxTotalSupply - _currentTotalSupply) *\n        getParameterValue(_self, ParameterName.ApplicationRewardsPercent, _rewardsDay) *\n        getParameterValue(_self, ParameterName.ApplicationRewardsMaxVariationPercent, _rewardsDay)) / 1e16;\n    }\n\n\n    /**\n    * @dev Checks how many validators are needed for app rewards\n    * @param _self Data pointer to storage\n    * @param _rewardsDay uint256 the reward day\n    * @param _numOfValidators uint256 number of validators\n    * @param _maxTotalSupply uint256 max total supply\n    * @param _currentTotalSupply uint256 current total supply\n    */\n    function _getValidatorRewardsDailyAmountPerValidator(\n        Data storage _self,\n        uint256 _rewardsDay,\n        uint256 _numOfValidators,\n        uint256 _maxTotalSupply,\n        uint256 _currentTotalSupply\n    )\n        public\n        view\n        returns (uint256)\n    {\n        return (((_maxTotalSupply - _currentTotalSupply) *\n        getParameterValue(_self, ParameterName.ValidatorRewardsPercent, _rewardsDay)) / 1e8) / _numOfValidators;\n    }\n\n    /**\n    * @dev Checks if app daily rewards amount is valid\n    * @param _self Data pointer to storage\n    * @param _applications address[] array of application addresses getting the daily reward\n    * @param _amounts uint256[] array of amounts each app should get\n    */\n    function _validateSubmittedData(\n        Data storage _self,\n        address[] _applications,\n        uint256[] _amounts\n    )\n        public\n        view\n        returns (uint256)\n    {\n        uint256 sum;\n        bool valid = true;\n        for (uint256 i = 0; i < _amounts.length; i++) {\n             sum += _amounts[i];\n            if (_self.applications[_applications[i]].initializedState != 1) valid = false;\n        }\n        require(\n                sum > 0 && valid,\n                \"Sum zero or none existing app submitted\"\n        );\n        return sum;\n    }\n\n    /**\n    * @dev Checks if submitted data matches reward hash\n    * @param _rewardsDay uint256 the reward day\n    * @param _rewardsHash bytes32 hash of the rewards data\n    * @param _applications address[] array of application addresses getting the daily reward\n    * @param _amounts uint256[] array of amounts each app should get\n    */\n    function _rewardHashIsvalid(\n        uint256 _rewardsDay,\n        bytes32 _rewardsHash,\n        address[] _applications,\n        uint256[] _amounts\n    )\n        public\n        pure\n        returns (bool)\n    {\n        return keccak256(abi.encodePacked(_rewardsDay, _applications, _amounts)) == _rewardsHash;\n    }\n\n    /**\n    * @dev Checks how many validators are needed for app rewards\n    * @param _self Data pointer to storage\n    * @param _rewardsDay uint256 the reward day\n    */\n    function _requiredValidatorsForValidatorsRewards(Data storage _self, uint256 _rewardsDay)\n        public\n        view\n        returns (uint256)\n    {\n        if (_getSelectedRewardedEntityListType(_self.selectedValidators, _rewardsDay) == 0) {\n            return _self.selectedValidators.currentList.length;\n        } else {\n            return _self.selectedValidators.previousList.length;\n        }\n    }\n\n    /**\n    * @dev Checks how many validators are needed for app rewards\n    * @param _self Data pointer to storage\n    * @param _rewardsDay uint256 the reward day\n    */\n    function _requiredValidatorsForAppRewards(Data storage _self, uint256 _rewardsDay)\n        public\n        view\n        returns (uint256)\n    {\n        if (_getSelectedRewardedEntityListType(_self.selectedValidators, _rewardsDay) == 0) {\n            return ((_self.selectedValidators.currentList.length * getParameterValue(_self, ParameterName.ValidatorMajorityPercent, _rewardsDay)) / 1e8)+1;\n        } else {\n            return ((_self.selectedValidators.previousList.length * getParameterValue(_self, ParameterName.ValidatorMajorityPercent, _rewardsDay)) / 1e8)+1;\n        }\n    }\n\n    /**\n    * @dev Update current daily applications list.\n    * If new, push.\n    * If same size, replace\n    * If different size, delete, and then push.\n    * @param _rewardedEntitylist RewardedEntityList pointer to storage\n    * @param _entities address[] array of entities\n    */\n    //_updateCurrentEntityList(_rewardedEntitylist, _entities,_rewardedEntityType),\n    function _updateCurrentEntityList(\n        RewardedEntityList storage _rewardedEntitylist,\n        address[] _entities\n    )\n        internal\n        returns (bool)\n    {\n        bool emptyCurrentList = _rewardedEntitylist.currentList.length == 0;\n        if (!emptyCurrentList && _rewardedEntitylist.currentList.length != _entities.length) {\n            _deleteCurrentEntityList(_rewardedEntitylist);\n            emptyCurrentList = true;\n        }\n\n        for (uint256 i = 0; i < _entities.length; i++) {\n            if (emptyCurrentList) {\n                _rewardedEntitylist.currentList.push(_entities[i]);\n            } else {\n                _rewardedEntitylist.currentList[i] = _entities[i];\n            }\n            _rewardedEntitylist.current[_entities[i]] = true;\n        }\n        return true;\n    }\n\n    /**\n    * @dev Update previous daily list\n    * @param _rewardedEntitylist RewardedEntityList pointer to storage\n    */\n    function _updatePreviousEntityList(RewardedEntityList storage _rewardedEntitylist)\n        internal\n        returns (bool)\n    {\n        bool emptyPreviousList = _rewardedEntitylist.previousList.length == 0;\n        if (\n            !emptyPreviousList &&\n            _rewardedEntitylist.previousList.length != _rewardedEntitylist.currentList.length\n        ) {\n            _deletePreviousEntityList(_rewardedEntitylist);\n            emptyPreviousList = true;\n        }\n        for (uint256 i = 0; i < _rewardedEntitylist.currentList.length; i++) {\n            if (emptyPreviousList) {\n                _rewardedEntitylist.previousList.push(_rewardedEntitylist.currentList[i]);\n            } else {\n                _rewardedEntitylist.previousList[i] = _rewardedEntitylist.currentList[i];\n            }\n            _rewardedEntitylist.previous[_rewardedEntitylist.currentList[i]] = true;\n        }\n        return true;\n    }\n\n    /**\n    * @dev Delete existing values from the current list\n    * @param _rewardedEntitylist RewardedEntityList pointer to storage\n    */\n    function _deleteCurrentEntityList(RewardedEntityList storage _rewardedEntitylist)\n        internal\n        returns (bool)\n    {\n        for (uint256 i = 0; i < _rewardedEntitylist.currentList.length ; i++) {\n             delete _rewardedEntitylist.current[_rewardedEntitylist.currentList[i]];\n        }\n        delete  _rewardedEntitylist.currentList;\n        return true;\n    }\n\n    /**\n    * @dev Delete existing values from the previous applications list\n    * @param _rewardedEntitylist RewardedEntityList pointer to storage\n    */\n    function _deletePreviousEntityList(RewardedEntityList storage _rewardedEntitylist)\n        internal\n        returns (bool)\n    {\n        for (uint256 i = 0; i < _rewardedEntitylist.previousList.length ; i++) {\n            delete _rewardedEntitylist.previous[_rewardedEntitylist.previousList[i]];\n        }\n        delete _rewardedEntitylist.previousList;\n        return true;\n    }\n\n    /**\n    * @dev Delete old/unused values\n    * @param _self Data pointer to storage\n    */\n    // function _pruneDailyRewardEntries(Data storage _self)\n    //     public\n    //     returns (bool)\n    // {\n    //     uint256 deletedItems = 0;\n    //     uint256 i;\n    //     for (i = 0; i < _self.dailyRewardsList.length; i++) {\n    //         if (_self.rewardsDay - _self.dailyRewards[_self.dailyRewardsList[i]].rewardsDay > _self.maxDailyRewardStorage) {\n    //             _self.dailyRewardsList[i] = _self.dailyRewardsList[i + 1];\n    //             deletedItems++;\n    //             if (_self.dailyRewardHashes[_self.dailyRewards[_self.dailyRewardsList[i]].rewardsDay].initializedState == 1) {\n    //                 delete _self.dailyRewardHashes[_self.dailyRewards[_self.dailyRewardsList[i]].rewardsDay];\n    //             }\n    //             for (uint256 j = 0; j < _self.dailyRewards[_self.dailyRewardsList[i]].submissionValidators.length; j++) {\n    //                 delete _self.dailyRewards[_self.dailyRewardsList[i]].submissions[_self.dailyRewards[_self.dailyRewardsList[i]].submissionValidators[j]];\n    //             }\n    //             delete _self.dailyRewards[_self.dailyRewardsList[i]];\n    //         }\n    //     }\n    //     if (deletedItems > 0) {\n    //         for (i = 0; i < deletedItems; i ++) {\n    //             delete  _self.dailyRewardsList[_self.dailyRewardsList.length - 1 - i];\n    //         }\n    //         _self.dailyRewardsList.length = _self.dailyRewardsList.length - deletedItems;\n    //         emit DailyRewardsDataPruned(deletedItems);\n    //     }\n    //     return true;\n    // }\n}",
  "sourcePath": "/Users/jretina/Programming/PROPSProject/props-token-distribution/contracts/token/PropsRewardsLib.sol",
  "compiler": {
    "name": "solc",
    "version": "0.4.24+commit.e67f0147.Emscripten.clang"
  },
  "schemaVersion": "2.0.1",
  "updatedAt": "2019-05-20T13:02:53.308Z"
}