{
  "contractName": "PropsRewardsLib",
  "abi": [
    {
      "constant": true,
      "inputs": [
        {
          "name": "_self",
          "type": "PropsRewardsLib.Data storage"
        },
        {
          "name": "_rewardsDay",
          "type": "uint256"
        },
        {
          "name": "_rewardsHash",
          "type": "bytes32"
        },
        {
          "name": "_allValidators",
          "type": "bool"
        }
      ],
      "name": "calculateValidatorRewards",
      "outputs": [
        {
          "name": "",
          "type": "uint256"
        }
      ],
      "payable": false,
      "stateMutability": "view",
      "type": "function"
    },
    {
      "constant": false,
      "inputs": [
        {
          "name": "_self",
          "type": "PropsRewardsLib.Data storage"
        },
        {
          "name": "_rewardsDay",
          "type": "uint256"
        },
        {
          "name": "_rewardsHash",
          "type": "bytes32"
        },
        {
          "name": "_applications",
          "type": "address[]"
        },
        {
          "name": "_amounts",
          "type": "uint256[]"
        },
        {
          "name": "_currentTotalSupply",
          "type": "uint256"
        }
      ],
      "name": "calculateApplicationRewards",
      "outputs": [
        {
          "name": "",
          "type": "uint256"
        }
      ],
      "payable": false,
      "stateMutability": "nonpayable",
      "type": "function"
    },
    {
      "constant": false,
      "inputs": [
        {
          "name": "_self",
          "type": "PropsRewardsLib.Data storage"
        },
        {
          "name": "_rewardsDay",
          "type": "uint256"
        },
        {
          "name": "_rewardsHash",
          "type": "bytes32"
        },
        {
          "name": "_currentTotalSupply",
          "type": "uint256"
        }
      ],
      "name": "_finalizeDailyApplicationRewards",
      "outputs": [
        {
          "name": "",
          "type": "bool"
        }
      ],
      "payable": false,
      "stateMutability": "nonpayable",
      "type": "function"
    },
    {
      "constant": true,
      "inputs": [
        {
          "name": "_self",
          "type": "PropsRewardsLib.Data storage"
        },
        {
          "name": "_name",
          "type": "PropsRewardsLib.ParameterName"
        },
        {
          "name": "_rewardsDay",
          "type": "uint256"
        }
      ],
      "name": "getParameterValue",
      "outputs": [
        {
          "name": "",
          "type": "uint256"
        }
      ],
      "payable": false,
      "stateMutability": "view",
      "type": "function"
    },
    {
      "constant": false,
      "inputs": [
        {
          "name": "_self",
          "type": "PropsRewardsLib.Data storage"
        },
        {
          "name": "_name",
          "type": "PropsRewardsLib.ParameterName"
        },
        {
          "name": "_value",
          "type": "uint256"
        },
        {
          "name": "_rewardsDay",
          "type": "uint256"
        }
      ],
      "name": "updateParameter",
      "outputs": [
        {
          "name": "",
          "type": "bool"
        }
      ],
      "payable": false,
      "stateMutability": "nonpayable",
      "type": "function"
    },
    {
      "constant": false,
      "inputs": [
        {
          "name": "_self",
          "type": "PropsRewardsLib.Data storage"
        },
        {
          "name": "_entityType",
          "type": "PropsRewardsLib.RewardedEntityType"
        },
        {
          "name": "_name",
          "type": "bytes32"
        },
        {
          "name": "_rewardsAddress",
          "type": "address"
        },
        {
          "name": "_sidechainAddress",
          "type": "address"
        }
      ],
      "name": "updateEntity",
      "outputs": [
        {
          "name": "",
          "type": "bool"
        }
      ],
      "payable": false,
      "stateMutability": "nonpayable",
      "type": "function"
    },
    {
      "constant": false,
      "inputs": [
        {
          "name": "_self",
          "type": "PropsRewardsLib.Data storage"
        },
        {
          "name": "_name",
          "type": "bytes32"
        },
        {
          "name": "_rewardsAddress",
          "type": "address"
        },
        {
          "name": "_sidechainAddress",
          "type": "address"
        }
      ],
      "name": "updateApplication",
      "outputs": [
        {
          "name": "",
          "type": "uint256"
        }
      ],
      "payable": false,
      "stateMutability": "nonpayable",
      "type": "function"
    },
    {
      "constant": false,
      "inputs": [
        {
          "name": "_self",
          "type": "PropsRewardsLib.Data storage"
        },
        {
          "name": "_name",
          "type": "bytes32"
        },
        {
          "name": "_rewardsAddress",
          "type": "address"
        },
        {
          "name": "_sidechainAddress",
          "type": "address"
        }
      ],
      "name": "updateValidator",
      "outputs": [
        {
          "name": "",
          "type": "uint256"
        }
      ],
      "payable": false,
      "stateMutability": "nonpayable",
      "type": "function"
    },
    {
      "constant": false,
      "inputs": [
        {
          "name": "_self",
          "type": "PropsRewardsLib.Data storage"
        },
        {
          "name": "_rewardsDay",
          "type": "uint256"
        },
        {
          "name": "_validators",
          "type": "address[]"
        }
      ],
      "name": "setValidators",
      "outputs": [
        {
          "name": "",
          "type": "bool"
        }
      ],
      "payable": false,
      "stateMutability": "nonpayable",
      "type": "function"
    },
    {
      "constant": false,
      "inputs": [
        {
          "name": "_self",
          "type": "PropsRewardsLib.Data storage"
        },
        {
          "name": "_rewardsDay",
          "type": "uint256"
        },
        {
          "name": "_applications",
          "type": "address[]"
        }
      ],
      "name": "setApplications",
      "outputs": [
        {
          "name": "",
          "type": "bool"
        }
      ],
      "payable": false,
      "stateMutability": "nonpayable",
      "type": "function"
    },
    {
      "constant": true,
      "inputs": [
        {
          "name": "_self",
          "type": "PropsRewardsLib.Data storage"
        },
        {
          "name": "_entityType",
          "type": "PropsRewardsLib.RewardedEntityType"
        },
        {
          "name": "_rewardsDay",
          "type": "uint256"
        }
      ],
      "name": "getEntities",
      "outputs": [
        {
          "name": "",
          "type": "address[]"
        }
      ],
      "payable": false,
      "stateMutability": "view",
      "type": "function"
    },
    {
      "constant": true,
      "inputs": [
        {
          "name": "_self",
          "type": "PropsRewardsLib.Data storage"
        },
        {
          "name": "_rewardsDay",
          "type": "uint256"
        },
        {
          "name": "_currentTotalSupply",
          "type": "uint256"
        }
      ],
      "name": "_getMaxAppRewardsDailyAmount",
      "outputs": [
        {
          "name": "",
          "type": "uint256"
        }
      ],
      "payable": false,
      "stateMutability": "view",
      "type": "function"
    },
    {
      "constant": true,
      "inputs": [
        {
          "name": "_self",
          "type": "PropsRewardsLib.Data storage"
        },
        {
          "name": "_rewardsDay",
          "type": "uint256"
        },
        {
          "name": "_numOfValidators",
          "type": "uint256"
        }
      ],
      "name": "_getValidatorRewardsDailyAmountPerValidator",
      "outputs": [
        {
          "name": "",
          "type": "uint256"
        }
      ],
      "payable": false,
      "stateMutability": "view",
      "type": "function"
    },
    {
      "constant": true,
      "inputs": [
        {
          "name": "_self",
          "type": "PropsRewardsLib.Data storage"
        },
        {
          "name": "_applications",
          "type": "address[]"
        },
        {
          "name": "_amounts",
          "type": "uint256[]"
        }
      ],
      "name": "_validateSubmittedData",
      "outputs": [
        {
          "name": "",
          "type": "uint256"
        }
      ],
      "payable": false,
      "stateMutability": "view",
      "type": "function"
    },
    {
      "constant": true,
      "inputs": [
        {
          "name": "_rewardsDay",
          "type": "uint256"
        },
        {
          "name": "_rewardsHash",
          "type": "bytes32"
        },
        {
          "name": "_applications",
          "type": "address[]"
        },
        {
          "name": "_amounts",
          "type": "uint256[]"
        }
      ],
      "name": "_rewardHashIsvalid",
      "outputs": [
        {
          "name": "",
          "type": "bool"
        }
      ],
      "payable": false,
      "stateMutability": "pure",
      "type": "function"
    },
    {
      "constant": true,
      "inputs": [
        {
          "name": "_self",
          "type": "PropsRewardsLib.Data storage"
        },
        {
          "name": "_rewardsDay",
          "type": "uint256"
        }
      ],
      "name": "_requiredValidatorsForValidatorsRewards",
      "outputs": [
        {
          "name": "",
          "type": "uint256"
        }
      ],
      "payable": false,
      "stateMutability": "view",
      "type": "function"
    },
    {
      "constant": true,
      "inputs": [
        {
          "name": "_self",
          "type": "PropsRewardsLib.Data storage"
        },
        {
          "name": "_rewardsDay",
          "type": "uint256"
        }
      ],
      "name": "_requiredValidatorsForAppRewards",
      "outputs": [
        {
          "name": "",
          "type": "uint256"
        }
      ],
      "payable": false,
      "stateMutability": "view",
      "type": "function"
    },
    {
      "constant": true,
      "inputs": [
        {
          "name": "_self",
          "type": "PropsRewardsLib.Data storage"
        }
      ],
      "name": "_currentRewardsDay",
      "outputs": [
        {
          "name": "",
          "type": "uint256"
        }
      ],
      "payable": false,
      "stateMutability": "view",
      "type": "function"
    },
    {
      "constant": false,
      "inputs": [
        {
          "name": "_self",
          "type": "PropsRewardsLib.Data storage"
        }
      ],
      "name": "_resetDailyRewards",
      "outputs": [
        {
          "name": "",
          "type": "bool"
        }
      ],
      "payable": false,
      "stateMutability": "nonpayable",
      "type": "function"
    }
  ],
  "bytecode": "0x61342f610030600b82828239805160001a6073146000811461002057610022565bfe5b5030600052607381538281f300730000000000000000000000000000000000000000301460806040526004361061011e576000357c0100000000000000000000000000000000000000000000000000000000900463ffffffff1680630e2950711461012357806311cb33da146101b257806314a68c38146102185780633f065dc91461027057806346e3a2981461032a5780634daa8225146103ca578063519e72ab146104b357806363cad06a146104fb5780637bf9067f1461058d57806389932735146106595780639dec8c45146106e5578063a352a57d1461072a578063a4143f8314610768578063c3ac1c78146107a6578063cc1b8c9c1461080d578063d81b70501461089f578063e2c593d3146108ea578063e3dbf5e314610979578063e8fc02ab146109c1575b600080fd5b81801561012f57600080fd5b5061019c600480360381019080803590602001909291908035600019169060200190929190803573ffffffffffffffffffffffffffffffffffffffff169060200190929190803573ffffffffffffffffffffffffffffffffffffffff1690602001909291905050506109f5565b6040518082815260200191505060405180910390f35b8180156101be57600080fd5b506101fe60048036038101908080359060200190929190803560ff1690602001909291908035906020019092919080359060200190929190505050610cc6565b604051808215151515815260200191505060405180910390f35b61025a60048036038101908080359060200190929190803590602001909291908035600019169060200190929190803515159060200190929190505050610df1565b6040518082815260200191505060405180910390f35b610314600480360381019080803590602001909291908035906020019082018035906020019080806020026020016040519081016040528093929190818152602001838360200280828437820191505050505050919291929080359060200190820180359060200190808060200260200160405190810160405280939291908181526020018383602002808284378201915050505050509192919290505050610eb8565b6040518082815260200191505060405180910390f35b81801561033657600080fd5b506103b060048036038101908080359060200190929190803560ff1690602001909291908035600019169060200190929190803573ffffffffffffffffffffffffffffffffffffffff169060200190929190803573ffffffffffffffffffffffffffffffffffffffff169060200190929190505050611017565b604051808215151515815260200191505060405180910390f35b8180156103d657600080fd5b5061049d6004803603810190808035906020019092919080359060200190929190803560001916906020019092919080359060200190820180359060200190808060200260200160405190810160405280939291908181526020018383602002808284378201915050505050509192919290803590602001908201803590602001908080602002602001604051908101604052809392919081815260200183836020028082843782019150505050505091929192908035906020019092919050505061116d565b6040518082815260200191505060405180910390f35b6104e5600480360381019080803590602001909291908035906020019092919080359060200190929190505050611977565b6040518082815260200191505060405180910390f35b81801561050757600080fd5b506105736004803603810190808035906020019092919080359060200190929190803590602001908201803590602001908080602002602001604051908101604052809392919081815260200183836020028082843782019150505050505091929192905050506119b7565b604051808215151515815260200191505060405180910390f35b61063f6004803603810190808035906020019092919080356000191690602001909291908035906020019082018035906020019080806020026020016040519081016040528093929190818152602001838360200280828437820191505050505050919291929080359060200190820180359060200190808060200260200160405190810160405280939291908181526020018383602002808284378201915050505050509192919290505050611b9a565b604051808215151515815260200191505060405180910390f35b61068e60048036038101908080359060200190929190803560ff16906020019092919080359060200190929190505050611c9c565b6040518080602001828103825283818151815260200191508051906020019060200280838360005b838110156106d15780820151818401526020810190506106b6565b505050509050019250505060405180910390f35b8180156106f157600080fd5b506107106004803603810190808035906020019092919050505061219a565b604051808215151515815260200191505060405180910390f35b6107526004803603810190808035906020019092919080359060200190929190505050612488565b6040518082815260200191505060405180910390f35b61079060048036038101908080359060200190929190803590602001909291905050506125f6565b6040518082815260200191505060405180910390f35b8180156107b257600080fd5b506107f360048036038101908080359060200190929190803590602001909291908035600019169060200190929190803590602001909291905050506127a2565b604051808215151515815260200191505060405180910390f35b81801561081957600080fd5b50610885600480360381019080803590602001909291908035906020019092919080359060200190820180359060200190808060200260200160405190810160405280939291908181526020018383602002808284378201915050505050509192919290505050612801565b604051808215151515815260200191505060405180910390f35b6108d460048036038101908080359060200190929190803560ff169060200190929190803590602001909291905050506129e4565b6040518082815260200191505060405180910390f35b8180156108f657600080fd5b50610963600480360381019080803590602001909291908035600019169060200190929190803573ffffffffffffffffffffffffffffffffffffffff169060200190929190803573ffffffffffffffffffffffffffffffffffffffff169060200190929190505050612a6b565b6040518082815260200191505060405180910390f35b6109ab600480360381019080803590602001909291908035906020019092919080359060200190929190505050612d3d565b6040518082815260200191505060405180910390f35b6109df60048036038101908080359060200190929190505050612d7b565b6040518082815260200191505060405180910390f35b6000838560020160003373ffffffffffffffffffffffffffffffffffffffff1673ffffffffffffffffffffffffffffffffffffffff1681526020019081526020016000206000018160001916905550828560020160003373ffffffffffffffffffffffffffffffffffffffff1673ffffffffffffffffffffffffffffffffffffffff16815260200190815260200160002060010160006101000a81548173ffffffffffffffffffffffffffffffffffffffff021916908373ffffffffffffffffffffffffffffffffffffffff160217905550818560020160003373ffffffffffffffffffffffffffffffffffffffff1673ffffffffffffffffffffffffffffffffffffffff16815260200190815260200160002060020160006101000a81548173ffffffffffffffffffffffffffffffffffffffff021916908373ffffffffffffffffffffffffffffffffffffffff16021790555060008560020160003373ffffffffffffffffffffffffffffffffffffffff1673ffffffffffffffffffffffffffffffffffffffff168152602001908152602001600020600301541415610cb057846003013390806001815401808255809150509060018203906000526020600020016000909192909190916101000a81548173ffffffffffffffffffffffffffffffffffffffff021916908373ffffffffffffffffffffffffffffffffffffffff1602179055505060018560020160003373ffffffffffffffffffffffffffffffffffffffff1673ffffffffffffffffffffffffffffffffffffffff1681526020019081526020016000206003018190555060018560020160003373ffffffffffffffffffffffffffffffffffffffff1673ffffffffffffffffffffffffffffffffffffffff16815260200190815260200160002060040160006101000a81548160ff02191690836001811115610caa57fe5b02179055505b600180811115610cbc57fe5b9050949350505050565b6000846004016000856003811115610cda57fe5b81526020019081526020016000206002015482111515610d495782856004016000866003811115610d0757fe5b81526020019081526020016000206000018190555081856004016000866003811115610d2f57fe5b815260200190815260200160002060020181905550610de5565b846004016000856003811115610d5b57fe5b815260200190815260200160002060000154856004016000866003811115610d7f57fe5b81526020019081526020016000206001018190555082856004016000866003811115610da757fe5b81526020019081526020016000206000018190555081856004016000866003811115610dcf57fe5b8152602001908152602001600020600201819055505b60019050949350505050565b6000806000600187600f0160000160008760001916600019168152602001908152602001600020600301541415610ea9578315610e6d57610e328787612488565b915086600f016000016000866000191660001916815260200190815260200160002060020154821115610e685760009250610eae565b610e94565b86600f01600001600086600019166000191681526020019081526020016000206002015491505b610e9f878784611977565b9050809250610eae565b600092505b5050949350505050565b60008060008060019150600090505b8451811015610f63578481815181101515610ede57fe5b906020019060200201518301925060018760000160008884815181101515610f0257fe5b9060200190602002015173ffffffffffffffffffffffffffffffffffffffff1673ffffffffffffffffffffffffffffffffffffffff16815260200190815260200160002060030154141515610f5657600091505b8080600101915050610ec7565b600083118015610f705750815b151561100a576040517f08c379a00000000000000000000000000000000000000000000000000000000081526004018080602001828103825260278152602001807f53756d207a65726f206f72206e6f6e65206578697374696e672061707020737581526020017f626d69747465640000000000000000000000000000000000000000000000000081525060400191505060405180910390fd5b8293505050509392505050565b60008282600073ffffffffffffffffffffffffffffffffffffffff168273ffffffffffffffffffffffffffffffffffffffff16141580156110855750600073ffffffffffffffffffffffffffffffffffffffff168173ffffffffffffffffffffffffffffffffffffffff1614155b151561111f576040517f08c379a000000000000000000000000000000000000000000000000000000000815260040180806020018281038252602f8152602001807f4d75737420686176652076616c6964207265776172647320616e64207369646581526020017f636861696e20616464726573736573000000000000000000000000000000000081525060400191505060405180910390fd5b6000600181111561112c57fe5b87600181111561113857fe5b14156111505761114a88878787612a6b565b5061115e565b61115c888787876109f5565b505b60019250505095945050505050565b60008087878061117c83612d7b565b1415156111f1576040517f08c379a00000000000000000000000000000000000000000000000000000000081526004018080602001828103825260178152602001807f4d75737420626520666f722063757272656e742064617900000000000000000081525060200191505060405180910390fd5b898881600f016000016000826000191660001916815260200190815260200160002060000160003373ffffffffffffffffffffffffffffffffffffffff1673ffffffffffffffffffffffffffffffffffffffff16815260200190815260200160002060009054906101000a900460ff161515156112fc576040517f08c379a00000000000000000000000000000000000000000000000000000000081526004018080602001828103825260248152602001807f4d757374206265206f6e65207375626d697373696f6e207065722076616c696481526020017f61746f720000000000000000000000000000000000000000000000000000000081525060400191505060405180910390fd5b8b8b600061143f83600501606060405190810160405290816002820180548060200260200160405190810160405280929190818152602001828054801561139857602002820191906000526020600020905b8160009054906101000a900473ffffffffffffffffffffffffffffffffffffffff1673ffffffffffffffffffffffffffffffffffffffff168152602001906001019080831161134e575b505050505081526020016003820180548060200260200160405190810160405280929190818152602001828054801561142657602002820191906000526020600020905b8160009054906101000a900473ffffffffffffffffffffffffffffffffffffffff1673ffffffffffffffffffffffffffffffffffffffff16815260200190600101908083116113dc575b5050505050815260200160048201548152505083612dab565b1415611536578160050160000160003373ffffffffffffffffffffffffffffffffffffffff1673ffffffffffffffffffffffffffffffffffffffff16815260200190815260200160002060009054906101000a900460ff161515611531576040517f08c379a00000000000000000000000000000000000000000000000000000000081526004018080602001828103825260248152602001807f4d75737420626520612063757272656e742073656c65637465642076616c696481526020017f61746f720000000000000000000000000000000000000000000000000000000081525060400191505060405180910390fd5b611623565b8160050160010160003373ffffffffffffffffffffffffffffffffffffffff1673ffffffffffffffffffffffffffffffffffffffff16815260200190815260200160002060009054906101000a900460ff161515611622576040517f08c379a00000000000000000000000000000000000000000000000000000000081526004018080602001828103825260258152602001807f4d75737420626520612070726576696f75732073656c65637465642076616c6981526020017f6461746f7200000000000000000000000000000000000000000000000000000081525060400191505060405180910390fd5b5b61162f8d8d8d8d611b9a565b15156116a3576040517f08c379a00000000000000000000000000000000000000000000000000000000081526004018080602001828103825260168152602001807f526577617264204861736820697320696e76616c69640000000000000000000081525060200191505060405180910390fd5b60008e600f0160000160008e600019166000191681526020019081526020016000206004015414156117305760018e600f0160000160008e60001916600019168152602001908152602001600020600401819055508d600f016001018c90806001815401808255809150509060018203906000526020600020016000909192909190915090600019169055505b60018e600f0160000160008e6000191660001916815260200190815260200160002060000160003373ffffffffffffffffffffffffffffffffffffffff1673ffffffffffffffffffffffffffffffffffffffff16815260200190815260200160002060006101000a81548160ff0219169083151502179055508d600f0160000160008d600019166000191681526020019081526020016000206001013390806001815401808255809150509060018203906000526020600020016000909192909190916101000a81548173ffffffffffffffffffffffffffffffffffffffff021916908373ffffffffffffffffffffffffffffffffffffffff160217905550508d600f0160000160008d600019166000191681526020019081526020016000206002016000815480929190600101919050555061186d8e8e6125f6565b8e600f0160000160008e60001916600019168152602001908152602001600020600201541415611961576118a28e8c8c610eb8565b96506118af8e8e8b612d3d565b871115151561194c576040517f08c379a00000000000000000000000000000000000000000000000000000000081526004018080602001828103825260308152602001807f52657761726473206461746120697320696e76616c6964202d2065786365656481526020017f206461696c7920766172696174696f6e0000000000000000000000000000000081525060400191505060405180910390fd5b6119588e8e8e8c6127a2565b50869750611966565b600097505b505050505050509695505050505050565b6000816305f5e10061198b866003876129e4565b86600f0160020154876016015403028115156119a357fe5b048115156119ad57fe5b0490509392505050565b600083836119c482612d7b565b8110151515611a3b576040517f08c379a00000000000000000000000000000000000000000000000000000000081526004018080602001828103825260198152602001807f4d7573742062652066757475726520726577617264734461790000000000000081525060200191505060405180910390fd5b858460008090505b8151811015611b2c5760018360020160008484815181101515611a6257fe5b9060200190602002015173ffffffffffffffffffffffffffffffffffffffff1673ffffffffffffffffffffffffffffffffffffffff16815260200190815260200160002060030154141515611b1f576040517f08c379a00000000000000000000000000000000000000000000000000000000081526004018080602001828103825260148152602001807f56616c696461746f72206d75737420657869737400000000000000000000000081525060200191505060405180910390fd5b8080600101915050611a43565b600089600501600201805490501415611b5257611b4c8960050188612dce565b50611b7e565b8860050160040154881115611b6f57611b6d89600501612f9d565b505b611b7c8960050188612dce565b505b8789600501600401819055506001955050505050509392505050565b6000836000191685848460405160200180848152602001838051906020019060200280838360005b83811015611bdd578082015181840152602081019050611bc2565b50505050905001828051906020019060200280838360005b83811015611c10578082015181840152602081019050611bf5565b5050505090500193505050506040516020818303038152906040526040518082805190602001908083835b602083101515611c605780518252602082019150602081019050602083039250611c3b565b6001836020036101000a038019825116818451168082178552505050505050905001915050604051809103902060001916149050949350505050565b606060006001811115611cab57fe5b836001811115611cb757fe5b1415611f2a576000611dfe85600a016060604051908101604052908160028201805480602002602001604051908101604052809291908181526020018280548015611d5757602002820191906000526020600020905b8160009054906101000a900473ffffffffffffffffffffffffffffffffffffffff1673ffffffffffffffffffffffffffffffffffffffff1681526020019060010190808311611d0d575b5050505050815260200160038201805480602002602001604051908101604052809291908181526020018280548015611de557602002820191906000526020600020905b8160009054906101000a900473ffffffffffffffffffffffffffffffffffffffff1673ffffffffffffffffffffffffffffffffffffffff1681526020019060010190808311611d9b575b5050505050815260200160048201548152505084612dab565b1415611e975783600a01600201805480602002602001604051908101604052809291908181526020018280548015611e8b57602002820191906000526020600020905b8160009054906101000a900473ffffffffffffffffffffffffffffffffffffffff1673ffffffffffffffffffffffffffffffffffffffff1681526020019060010190808311611e41575b50505050509050612193565b83600a01600301805480602002602001604051908101604052809291908181526020018280548015611f1e57602002820191906000526020600020905b8160009054906101000a900473ffffffffffffffffffffffffffffffffffffffff1673ffffffffffffffffffffffffffffffffffffffff1681526020019060010190808311611ed4575b50505050509050612193565b600061206b856005016060604051908101604052908160028201805480602002602001604051908101604052809291908181526020018280548015611fc457602002820191906000526020600020905b8160009054906101000a900473ffffffffffffffffffffffffffffffffffffffff1673ffffffffffffffffffffffffffffffffffffffff1681526020019060010190808311611f7a575b505050505081526020016003820180548060200260200160405190810160405280929190818152602001828054801561205257602002820191906000526020600020905b8160009054906101000a900473ffffffffffffffffffffffffffffffffffffffff1673ffffffffffffffffffffffffffffffffffffffff1681526020019060010190808311612008575b5050505050815260200160048201548152505084612dab565b141561210457836005016002018054806020026020016040519081016040528092919081815260200182805480156120f857602002820191906000526020600020905b8160009054906101000a900473ffffffffffffffffffffffffffffffffffffffff1673ffffffffffffffffffffffffffffffffffffffff16815260200190600101908083116120ae575b50505050509050612193565b8360050160030180548060200260200160405190810160405280929190818152602001828054801561218b57602002820191906000526020600020905b8160009054906101000a900473ffffffffffffffffffffffffffffffffffffffff1673ffffffffffffffffffffffffffffffffffffffff1681526020019060010190808311612141575b505050505090505b9392505050565b6000606060008084600f016001018054806020026020016040519081016040528092919081815260200182805480156121f657602002820191906000526020600020905b815460001916815260200190600101908083116121de575b50505050509250600091505b825182101561246d57600090505b84600f016000016000848481518110151561222757fe5b90602001906020020151600019166000191681526020019081526020016000206001018054905081101561235a5784600f016000016000848481518110151561226c57fe5b9060200190602002015160001916600019168152602001908152602001600020600001600086600f01600001600086868151811015156122a857fe5b9060200190602002015160001916600019168152602001908152602001600020600101838154811015156122d857fe5b9060005260206000200160009054906101000a900473ffffffffffffffffffffffffffffffffffffffff1673ffffffffffffffffffffffffffffffffffffffff1673ffffffffffffffffffffffffffffffffffffffff16815260200190815260200160002060006101000a81549060ff02191690558080600101915050612210565b84600f016000016000848481518110151561237157fe5b906020019060200201516000191660001916815260200190815260200160002060010160006123a09190613377565b600085600f01600001600085858151811015156123b957fe5b906020019060200201516000191660001916815260200190815260200160002060020181905550600085600f01600001600085858151811015156123f957fe5b906020019060200201516000191660001916815260200190815260200160002060030181905550600085600f016000016000858581518110151561243957fe5b9060200190602002015160001916600019168152602001908152602001600020600401819055508180600101925050612202565b84600f0160010160006124809190613398565b505050919050565b6000806125ca84600501606060405190810160405290816002820180548060200260200160405190810160405280929190818152602001828054801561252357602002820191906000526020600020905b8160009054906101000a900473ffffffffffffffffffffffffffffffffffffffff1673ffffffffffffffffffffffffffffffffffffffff16815260200190600101908083116124d9575b50505050508152602001600382018054806020026020016040519081016040528092919081815260200182805480156125b157602002820191906000526020600020905b8160009054906101000a900473ffffffffffffffffffffffffffffffffffffffff1673ffffffffffffffffffffffffffffffffffffffff1681526020019060010190808311612567575b5050505050815260200160048201548152505084612dab565b14156125e257826005016002018054905090506125f0565b826005016003018054905090505b92915050565b60008061273884600501606060405190810160405290816002820180548060200260200160405190810160405280929190818152602001828054801561269157602002820191906000526020600020905b8160009054906101000a900473ffffffffffffffffffffffffffffffffffffffff1673ffffffffffffffffffffffffffffffffffffffff1681526020019060010190808311612647575b505050505081526020016003820180548060200260200160405190810160405280929190818152602001828054801561271f57602002820191906000526020600020905b8160009054906101000a900473ffffffffffffffffffffffffffffffffffffffff1673ffffffffffffffffffffffffffffffffffffffff16815260200190600101908083116126d5575b5050505050815260200160048201548152505084612dab565b141561276f5760016305f5e100612751856002866129e4565b85600501600201805490500281151561276657fe5b0401905061279c565b60016305f5e100612782856002866129e4565b85600501600301805490500281151561279757fe5b040190505b92915050565b60008185600f01600201819055508285600f0160030181600019169055508385600f0160040181905550600185600f01600001600085600019166000191681526020019081526020016000206003018190555060019050949350505050565b6000838361280e82612d7b565b8110151515612885576040517f08c379a00000000000000000000000000000000000000000000000000000000081526004018080602001828103825260198152602001807f4d7573742062652066757475726520726577617264734461790000000000000081525060200191505060405180910390fd5b858460008090505b815181101561297657600183600001600084848151811015156128ac57fe5b9060200190602002015173ffffffffffffffffffffffffffffffffffffffff1673ffffffffffffffffffffffffffffffffffffffff16815260200190815260200160002060030154141515612969576040517f08c379a00000000000000000000000000000000000000000000000000000000081526004018080602001828103825260168152602001807f4170706c69636174696f6e206d7573742065786973740000000000000000000081525060200191505060405180910390fd5b808060010191505061288d565b600089600a0160020180549050141561299c5761299689600a0188612dce565b506129c8565b88600a01600401548811156129b9576129b789600a01612f9d565b505b6129c689600a0188612dce565b505b8789600a01600401819055506001955050505050509392505050565b60008360040160008460038111156129f857fe5b81526020019081526020016000206002015482101515612a3d57836004016000846003811115612a2457fe5b8152602001908152602001600020600001549050612a64565b836004016000846003811115612a4f57fe5b81526020019081526020016000206001015490505b9392505050565b6000838560000160003373ffffffffffffffffffffffffffffffffffffffff1673ffffffffffffffffffffffffffffffffffffffff1681526020019081526020016000206000018160001916905550828560000160003373ffffffffffffffffffffffffffffffffffffffff1673ffffffffffffffffffffffffffffffffffffffff16815260200190815260200160002060010160006101000a81548173ffffffffffffffffffffffffffffffffffffffff021916908373ffffffffffffffffffffffffffffffffffffffff160217905550818560000160003373ffffffffffffffffffffffffffffffffffffffff1673ffffffffffffffffffffffffffffffffffffffff16815260200190815260200160002060020160006101000a81548173ffffffffffffffffffffffffffffffffffffffff021916908373ffffffffffffffffffffffffffffffffffffffff16021790555060008560000160003373ffffffffffffffffffffffffffffffffffffffff1673ffffffffffffffffffffffffffffffffffffffff168152602001908152602001600020600301541415612d2657846001013390806001815401808255809150509060018203906000526020600020016000909192909190916101000a81548173ffffffffffffffffffffffffffffffffffffffff021916908373ffffffffffffffffffffffffffffffffffffffff1602179055505060018560000160003373ffffffffffffffffffffffffffffffffffffffff1673ffffffffffffffffffffffffffffffffffffffff1681526020019081526020016000206003018190555060008560000160003373ffffffffffffffffffffffffffffffffffffffff1673ffffffffffffffffffffffffffffffffffffffff16815260200190815260200160002060040160006101000a81548160ff02191690836001811115612d2057fe5b02179055505b60006001811115612d3357fe5b9050949350505050565b6000662386f26fc10000612d53856001866129e4565b612d5f866000876129e4565b848760160154030202811515612d7157fe5b0490509392505050565b600081601401548260150154836014015442811515612d9657fe5b06420303811515612da357fe5b049050919050565b6000826040015182101515612dc35760009050612dc8565b600190505b92915050565b600080600080856002018054905014915081158015612df557508351856002018054905014155b15612e0957612e03856131e3565b50600191505b600090505b8351811015612f91578115612ea157846002018482815181101515612e2f57fe5b9060200190602002015190806001815401808255809150509060018203906000526020600020016000909192909190916101000a81548173ffffffffffffffffffffffffffffffffffffffff021916908373ffffffffffffffffffffffffffffffffffffffff16021790555050612f13565b8381815181101515612eaf57fe5b906020019060200201518560020182815481101515612eca57fe5b9060005260206000200160006101000a81548173ffffffffffffffffffffffffffffffffffffffff021916908373ffffffffffffffffffffffffffffffffffffffff1602179055505b60018560000160008684815181101515612f2957fe5b9060200190602002015173ffffffffffffffffffffffffffffffffffffffff1673ffffffffffffffffffffffffffffffffffffffff16815260200190815260200160002060006101000a81548160ff0219169083151502179055508080600101915050612e0e565b60019250505092915050565b600080600080846003018054905014915081158015612fca57508360020180549050846003018054905014155b15612fde57612fd8846132ad565b50600191505b600090505b83600201805490508110156131d85781156130a05783600301846002018281548110151561300d57fe5b9060005260206000200160009054906101000a900473ffffffffffffffffffffffffffffffffffffffff1690806001815401808255809150509060018203906000526020600020016000909192909190916101000a81548173ffffffffffffffffffffffffffffffffffffffff021916908373ffffffffffffffffffffffffffffffffffffffff16021790555050613136565b83600201818154811015156130b157fe5b9060005260206000200160009054906101000a900473ffffffffffffffffffffffffffffffffffffffff1684600301828154811015156130ed57fe5b9060005260206000200160006101000a81548173ffffffffffffffffffffffffffffffffffffffff021916908373ffffffffffffffffffffffffffffffffffffffff1602179055505b6001846001016000866002018481548110151561314f57fe5b9060005260206000200160009054906101000a900473ffffffffffffffffffffffffffffffffffffffff1673ffffffffffffffffffffffffffffffffffffffff1673ffffffffffffffffffffffffffffffffffffffff16815260200190815260200160002060006101000a81548160ff0219169083151502179055508080600101915050612fe3565b600192505050919050565b600080600090505b826002018054905081101561329357826000016000846002018381548110151561321157fe5b9060005260206000200160009054906101000a900473ffffffffffffffffffffffffffffffffffffffff1673ffffffffffffffffffffffffffffffffffffffff1673ffffffffffffffffffffffffffffffffffffffff16815260200190815260200160002060006101000a81549060ff021916905580806001019150506131eb565b8260020160006132a39190613377565b6001915050919050565b600080600090505b826003018054905081101561335d5782600101600084600301838154811015156132db57fe5b9060005260206000200160009054906101000a900473ffffffffffffffffffffffffffffffffffffffff1673ffffffffffffffffffffffffffffffffffffffff1673ffffffffffffffffffffffffffffffffffffffff16815260200190815260200160002060006101000a81549060ff021916905580806001019150506132b5565b82600301600061336d9190613377565b6001915050919050565b508054600082559060005260206000209081019061339591906133b9565b50565b50805460008255906000526020600020908101906133b691906133de565b50565b6133db91905b808211156133d75760008160009055506001016133bf565b5090565b90565b61340091905b808211156133fc5760008160009055506001016133e4565b5090565b905600a165627a7a7230582065fcd4d33b89f5e50012b888b1af90adc9f6beb00fa34b88194f3098879709100029",
  "source": "pragma solidity ^0.4.24;\n\n/**\n * @title Props Rewards Library\n * @dev Library to manage application and validators and parameters\n **/\nlibrary PropsRewardsLib {\n    /*\n    *  Events\n    */\n\n    /*\n    *  Storage\n    */\n\n    // The various parameters used by the contract\n    enum ParameterName { ApplicationRewardsPercent, ApplicationRewardsMaxVariationPercent, ValidatorMajorityPercent, ValidatorRewardsPercent}\n    enum RewardedEntityType { Application, Validator }\n\n    // Represents a parameter current, previous and time of change\n    struct Parameter {\n        uint256 currentValue;                   // current value in Pphm valid after timestamp\n        uint256 previousValue;                  // previous value in Pphm for use before timestamp\n        uint256 rewardsDay;                // timestamp of when the value was updated\n    }\n    // Represents application details\n    struct RewardedEntity {\n        bytes32 name;                           // Application name\n        address rewardsAddress;                 // address where rewards will be minted to\n        address sidechainAddress;               // address used on the sidechain\n        uint256 initializedState;               // A way to check if there's something in the map and whether already added to list\n        RewardedEntityType entityType;                // Type of rewarded entity\n    }\n\n    // Represents validators current and previous lists\n    struct RewardedEntityList {\n        mapping (address => bool) current;\n        mapping (address => bool) previous;\n        address[] currentList;\n        address[] previousList;\n        uint256 rewardsDay;\n    }\n\n    // Represents daily reward submissions and confimations\n    struct DailyRewards {\n        mapping (bytes32 => Submission) submissions;\n        bytes32[] submittedRewardHashes;\n        uint256 totalSupply;\n        bytes32 lastConfirmedRewardsHash;\n        uint256 lastRewardsDay;\n    }\n\n    struct Submission {\n        mapping (address => bool) validators;\n        address[] validatorsList;\n        uint256 confirmations;\n        uint256 finalized;\n        uint256 initializedState;               // A way to check if there's something in the map and whether already added to list\n    }\n\n\n    // represent the storage structures\n    struct Data {\n        // applications data\n        mapping (address => RewardedEntity) applications;\n        address[] applicationsList;\n        // validators data\n        mapping (address => RewardedEntity) validators;\n        address[] validatorsList;\n        // adjustable parameters data\n        mapping (uint256 => Parameter) parameters; // uint256 is the parameter enum index\n        // the participating validators\n        RewardedEntityList selectedValidators;\n        // the participating applications\n        RewardedEntityList selectedApplications;\n        // daily rewards submission data\n        DailyRewards dailyRewards;\n        uint256 minSecondsBetweenDays;\n        uint256 rewardsStartTimestamp;\n        uint256 maxTotalSupply;\n    }\n    /*\n    *  Modifiers\n    */\n    modifier onlyOneRewardsHashPerValidator(Data storage _self, bytes32 _rewardsHash) {\n        require(\n            !_self.dailyRewards.submissions[_rewardsHash].validators[msg.sender],\n            \"Must be one submission per validator\"\n        );\n         _;\n    }\n\n    modifier onlyExistingApplications(Data storage _self, address[] _entities) {\n        for (uint256 i = 0; i < _entities.length; i++) {\n            require(\n                _self.applications[_entities[i]].initializedState == 1,\n                \"Application must exist\"\n            );\n        }\n        _;\n    }\n\n    modifier onlyExistingValidators(Data storage _self, address[] _entities) {\n        for (uint256 i = 0; i < _entities.length; i++) {\n            require(\n                _self.validators[_entities[i]].initializedState == 1,\n                \"Validator must exist\"\n            );\n        }\n        _;\n    }\n\n    modifier onlySelectedValidators(Data storage _self, uint256 _rewardsDay) {\n        if (_getSelectedRewardedEntityListType(_self.selectedValidators, _rewardsDay) == 0) {\n            require (\n                _self.selectedValidators.current[msg.sender],\n                \"Must be a current selected validator\"\n            );\n        } else {\n            require (\n                _self.selectedValidators.previous[msg.sender],\n                \"Must be a previous selected validator\"\n            );\n        }\n        _;\n    }\n\n    modifier onlyValidRewardsDay(Data storage _self, uint256 _rewardsDay) {\n        require(\n            _currentRewardsDay(_self) == _rewardsDay,\n            \"Must be for current day\"\n        );\n         _;\n    }\n\n    modifier onlyValidFutureRewardsDay(Data storage _self, uint256 _rewardsDay) {\n        require(\n            _rewardsDay >= _currentRewardsDay(_self),\n            \"Must be future rewardsDay\"\n        );\n         _;\n    }\n\n    modifier onlyValidAddresses(address _rewardsAddress, address _sidechainAddress) {\n        require(\n            _rewardsAddress != address(0) &&\n            _sidechainAddress != address(0),\n            \"Must have valid rewards and sidechain addresses\"\n        );\n        _;\n    }\n\n    /**\n    * @dev The function is called by validators with the calculation of the daily rewards\n    * @param _self Data pointer to storage\n    * @param _rewardsDay uint256 the rewards day\n    * @param _rewardsHash bytes32 hash of the rewards data\n    */\n    function calculateValidatorRewards(\n        Data storage _self,\n        uint256 _rewardsDay,\n        bytes32 _rewardsHash,\n        bool _allValidators\n    )\n        public\n        view\n        returns (uint256)\n    {\n        uint256 numOfValidators;\n        if (_self.dailyRewards.submissions[_rewardsHash].finalized == 1)\n        {\n            if (_allValidators) {\n                numOfValidators = _requiredValidatorsForValidatorsRewards(_self, _rewardsDay);\n                if (numOfValidators > _self.dailyRewards.submissions[_rewardsHash].confirmations) return 0;\n            } else {\n                numOfValidators = _self.dailyRewards.submissions[_rewardsHash].confirmations;\n            }\n            uint256 rewardPerValidator = _getValidatorRewardsDailyAmountPerValidator(_self, _rewardsDay, numOfValidators);\n            return rewardPerValidator;\n        }\n        return 0;\n    }\n\n    /**\n    * @dev The function is called by validators with the calculation of the daily rewards\n    * @param _self Data pointer to storage\n    * @param _rewardsDay uint256 the rewards day\n    * @param _rewardsHash bytes32 hash of the rewards data\n    * @param _applications address[] array of application addresses getting the daily reward\n    * @param _amounts uint256[] array of amounts each app should get\n    * @param _currentTotalSupply uint256 current total supply\n    */\n    function calculateApplicationRewards(\n        Data storage _self,\n        uint256 _rewardsDay,\n        bytes32 _rewardsHash,\n        address[] _applications,\n        uint256[] _amounts,\n        uint256 _currentTotalSupply\n    )\n        public\n        onlyValidRewardsDay(_self, _rewardsDay)\n        onlyOneRewardsHashPerValidator(_self, _rewardsHash)\n        onlySelectedValidators(_self, _rewardsDay)\n        returns (uint256)\n    {\n        require(\n                _rewardHashIsvalid(_rewardsDay, _rewardsHash, _applications, _amounts),\n                \"Reward Hash is invalid\"\n        );\n        if (_self.dailyRewards.submissions[_rewardsHash].initializedState == 0) {\n            _self.dailyRewards.submissions[_rewardsHash].initializedState = 1;\n            _self.dailyRewards.submittedRewardHashes.push(_rewardsHash);\n        }\n        _self.dailyRewards.submissions[_rewardsHash].validators[msg.sender] = true;\n        _self.dailyRewards.submissions[_rewardsHash].validatorsList.push(msg.sender);\n        _self.dailyRewards.submissions[_rewardsHash].confirmations++;\n\n        if (_self.dailyRewards.submissions[_rewardsHash].confirmations == _requiredValidatorsForAppRewards(_self, _rewardsDay)) {\n            uint256 sum = _validateSubmittedData(_self, _applications, _amounts);\n            require(\n                sum <= _getMaxAppRewardsDailyAmount(_self, _rewardsDay, _currentTotalSupply),\n                \"Rewards data is invalid - exceed daily variation\"\n            );\n            _finalizeDailyApplicationRewards(_self, _rewardsDay, _rewardsHash, _currentTotalSupply);\n            return sum;\n        }\n        return 0;\n    }\n\n    /**\n    * @dev Finalizes the state, rewards Hash, total supply and block timestamp for the day\n    * @param _self Data pointer to storage\n    * @param _rewardsDay uint256 the reward day\n    * @param _rewardsHash bytes32 the daily reward hash\n    * @param _currentTotalSupply uint256 the current total supply\n    */\n    function _finalizeDailyApplicationRewards(Data storage _self, uint256 _rewardsDay, bytes32 _rewardsHash, uint256 _currentTotalSupply)\n        public\n        returns (bool)\n    {\n        _self.dailyRewards.totalSupply = _currentTotalSupply;\n        _self.dailyRewards.lastConfirmedRewardsHash = _rewardsHash;\n        _self.dailyRewards.lastRewardsDay = _rewardsDay;\n        _self.dailyRewards.submissions[_rewardsHash].finalized = 1;\n        return true;\n    }\n\n    /**\n    * @dev Get parameter's value\n    * @param _self Data pointer to storage\n    * @param _name ParameterName name of the parameter\n    * @param _rewardsDay uint256 the rewards day\n    */\n    function getParameterValue(\n        Data storage _self,\n        ParameterName _name,\n        uint256 _rewardsDay\n    )\n        public\n        view\n        returns (uint256)\n    {\n        if (_rewardsDay >= _self.parameters[uint256(_name)].rewardsDay) {\n            return _self.parameters[uint256(_name)].currentValue;\n        } else {\n            return _self.parameters[uint256(_name)].previousValue;\n        }\n    }\n\n    /**\n    * @dev Allows the controller/owner to update rewards parameters\n    * @param _self Data pointer to storage\n    * @param _name ParameterName name of the parameter\n    * @param _value uint256 new value for the parameter\n    * @param _rewardsDay uint256 the rewards day\n    */\n    function updateParameter(\n        Data storage _self,\n        ParameterName _name,\n        uint256 _value,\n        uint256 _rewardsDay\n    )\n        public\n        // onlyValidFutureRewardsDay(_self, _rewardsDay)\n        returns (bool)\n    {\n        if (_rewardsDay <= _self.parameters[uint256(_name)].rewardsDay) {\n           _self.parameters[uint256(_name)].currentValue = _value;\n           _self.parameters[uint256(_name)].rewardsDay = _rewardsDay;\n        } else {\n            _self.parameters[uint256(_name)].previousValue = _self.parameters[uint256(_name)].currentValue;\n            _self.parameters[uint256(_name)].currentValue = _value;\n           _self.parameters[uint256(_name)].rewardsDay = _rewardsDay;\n        }\n        return true;\n    }\n\n    /**\n    * @dev Allows an application to add/update its details\n    * @param _self Data pointer to storage\n    * @param _entityType RewardedEntityType either application (0) or validator (1)\n    * @param _name bytes32 name of the app\n    * @param _rewardsAddress address an address for the app to receive the rewards\n    * @param _sidechainAddress address the address used for using the sidechain\n    */\n    function updateEntity(\n        Data storage _self,\n        RewardedEntityType _entityType,\n        bytes32 _name,\n        address _rewardsAddress,\n        address _sidechainAddress\n    )\n        public\n        onlyValidAddresses(_rewardsAddress, _sidechainAddress)\n        returns (bool)\n    {\n        if (_entityType == RewardedEntityType.Application) {\n            updateApplication(_self, _name, _rewardsAddress, _sidechainAddress);\n        } else {\n            updateValidator(_self, _name, _rewardsAddress, _sidechainAddress);\n        }\n        return true;\n    }\n\n    /**\n    * @dev Allows an application to add/update its details\n    * @param _self Data pointer to storage\n    * @param _name bytes32 name of the app\n    * @param _rewardsAddress address an address for the app to receive the rewards\n    * @param _sidechainAddress address the address used for using the sidechain\n    */\n    function updateApplication(\n        Data storage _self,\n        bytes32 _name,\n        address _rewardsAddress,\n        address _sidechainAddress\n    )\n        public\n        returns (uint256)\n    {\n        _self.applications[msg.sender].name = _name;\n        _self.applications[msg.sender].rewardsAddress = _rewardsAddress;\n        _self.applications[msg.sender].sidechainAddress = _sidechainAddress;\n        if (_self.applications[msg.sender].initializedState == 0) {\n            _self.applicationsList.push(msg.sender);\n            _self.applications[msg.sender].initializedState = 1;\n            _self.applications[msg.sender].entityType = RewardedEntityType.Application;\n        }\n        return uint256(RewardedEntityType.Application);\n    }\n\n    /**\n    * @dev Allows a validator to add/update its details\n    * @param _self Data pointer to storage\n    * @param _name bytes32 name of the validator\n    * @param _rewardsAddress address an address for the validator to receive the rewards\n    * @param _sidechainAddress address the address used for using the sidechain\n    */\n    function updateValidator(\n        Data storage _self,\n        bytes32 _name,\n        address _rewardsAddress,\n        address _sidechainAddress\n    )\n        public\n        returns (uint256)\n    {\n        _self.validators[msg.sender].name = _name;\n        _self.validators[msg.sender].rewardsAddress = _rewardsAddress;\n        _self.validators[msg.sender].sidechainAddress = _sidechainAddress;\n        if (_self.validators[msg.sender].initializedState == 0) {\n            _self.validatorsList.push(msg.sender);\n            _self.validators[msg.sender].initializedState = 1;\n            _self.validators[msg.sender].entityType = RewardedEntityType.Validator;\n        }\n        return uint256(RewardedEntityType.Validator);\n    }\n\n    /**\n    * @dev Set new validators list\n    * @param _self Data pointer to storage\n    * @param _rewardsDay uint256 the rewards day from which the list should be active\n    * @param _validators address[] array of validators\n    */\n    function setValidators(\n        Data storage _self,\n        uint256 _rewardsDay,\n        address[] _validators\n    )\n        public\n        onlyValidFutureRewardsDay(_self, _rewardsDay)\n        onlyExistingValidators(_self, _validators)\n        returns (bool)\n    {\n\n        if (_self.selectedValidators.currentList.length == 0) { // first time the daily validators list is set\n            _updateCurrentEntityList(_self.selectedValidators, _validators);\n        } else {\n            if (_rewardsDay > _self.selectedValidators.rewardsDay)\n                _updatePreviousEntityList(_self.selectedValidators);\n            _updateCurrentEntityList(_self.selectedValidators, _validators);\n        }\n        _self.selectedValidators.rewardsDay = _rewardsDay;\n        return true;\n    }\n\n   /**\n    * @dev Set new applications list\n    * @param _self Data pointer to storage\n    * @param _rewardsDay uint256 the rewards day from which the list should be active\n    * @param _applications address[] array of applications\n    */\n    function setApplications(\n        Data storage _self,\n        uint256 _rewardsDay,\n        address[] _applications\n    )\n        public\n        onlyValidFutureRewardsDay(_self, _rewardsDay)\n        onlyExistingApplications(_self, _applications)\n        returns (bool)\n    {\n\n        if (_self.selectedApplications.currentList.length == 0) { // first time the daily validators list is set\n            _updateCurrentEntityList(_self.selectedApplications, _applications);\n        } else {\n            if (_rewardsDay > _self.selectedApplications.rewardsDay)\n                _updatePreviousEntityList(_self.selectedApplications);\n            _updateCurrentEntityList(_self.selectedApplications, _applications);\n        }\n        _self.selectedApplications.rewardsDay = _rewardsDay;\n        return true;\n    }\n\n    /**\n    * @dev Get applications or validators list\n    * @param _self Data pointer to storage\n    * @param _entityType RewardedEntityType either application (0) or validator (1)\n    * @param _rewardsDay uint256 the reward day to determine which list to get\n    */\n    function getEntities(\n        Data storage _self,\n        RewardedEntityType _entityType,\n        uint256 _rewardsDay\n    )\n        public\n        view\n        returns (address[])\n    {\n        if (_entityType == RewardedEntityType.Application) {\n            if (_getSelectedRewardedEntityListType(_self.selectedApplications, _rewardsDay) == 0) {\n                return _self.selectedApplications.currentList;\n            } else {\n                return _self.selectedApplications.previousList;\n            }\n        } else {\n            if (_getSelectedRewardedEntityListType(_self.selectedValidators, _rewardsDay) == 0) {\n                return _self.selectedValidators.currentList;\n            } else {\n                return _self.selectedValidators.previousList;\n            }\n        }\n    }\n\n    /**\n    * @dev Get which entity list to use. Current = 0, previous = 1\n    * @param _rewardedEntitylist RewardedEntityList pointer to storage\n    * @param _rewardsDay uint256 the reward day to determine which list to get\n    */\n    function _getSelectedRewardedEntityListType(RewardedEntityList _rewardedEntitylist, uint256 _rewardsDay)\n        internal\n        pure\n        returns (uint256)\n    {\n        if (_rewardsDay >= _rewardedEntitylist.rewardsDay) {\n            return 0;\n        } else {\n            return 1;\n        }\n    }\n\n    /**\n    * @dev Checks how many validators are needed for app rewards\n    * @param _self Data pointer to storage\n    * @param _rewardsDay uint256 the reward day\n    * @param _currentTotalSupply uint256 current total supply\n    */\n    function _getMaxAppRewardsDailyAmount(\n        Data storage _self,\n        uint256 _rewardsDay,\n        uint256 _currentTotalSupply\n    )\n        public\n        view\n        returns (uint256)\n    {\n        return ((_self.maxTotalSupply - _currentTotalSupply) *\n        getParameterValue(_self, ParameterName.ApplicationRewardsPercent, _rewardsDay) *\n        getParameterValue(_self, ParameterName.ApplicationRewardsMaxVariationPercent, _rewardsDay)) / 1e16;\n    }\n\n\n    /**\n    * @dev Checks how many validators are needed for app rewards\n    * @param _self Data pointer to storage\n    * @param _rewardsDay uint256 the reward day\n    * @param _numOfValidators uint256 number of validators\n    */\n    function _getValidatorRewardsDailyAmountPerValidator(\n        Data storage _self,\n        uint256 _rewardsDay,\n        uint256 _numOfValidators\n    )\n        public\n        view\n        returns (uint256)\n    {\n        return (((_self.maxTotalSupply - _self.dailyRewards.totalSupply) *\n        getParameterValue(_self, ParameterName.ValidatorRewardsPercent, _rewardsDay)) / 1e8) / _numOfValidators;\n    }\n\n    /**\n    * @dev Checks if app daily rewards amount is valid\n    * @param _self Data pointer to storage\n    * @param _applications address[] array of application addresses getting the daily reward\n    * @param _amounts uint256[] array of amounts each app should get\n    */\n    function _validateSubmittedData(\n        Data storage _self,\n        address[] _applications,\n        uint256[] _amounts\n    )\n        public\n        view\n        returns (uint256)\n    {\n        uint256 sum;\n        bool valid = true;\n        for (uint256 i = 0; i < _amounts.length; i++) {\n             sum += _amounts[i];\n            if (_self.applications[_applications[i]].initializedState != 1) valid = false;\n        }\n        require(\n                sum > 0 && valid,\n                \"Sum zero or none existing app submitted\"\n        );\n        return sum;\n    }\n\n    /**\n    * @dev Checks if submitted data matches reward hash\n    * @param _rewardsDay uint256 the reward day\n    * @param _rewardsHash bytes32 hash of the rewards data\n    * @param _applications address[] array of application addresses getting the daily reward\n    * @param _amounts uint256[] array of amounts each app should get\n    */\n    function _rewardHashIsvalid(\n        uint256 _rewardsDay,\n        bytes32 _rewardsHash,\n        address[] _applications,\n        uint256[] _amounts\n    )\n        public\n        pure\n        returns (bool)\n    {\n        return keccak256(abi.encodePacked(_rewardsDay, _applications, _amounts)) == _rewardsHash;\n    }\n\n    /**\n    * @dev Checks how many validators are needed for app rewards\n    * @param _self Data pointer to storage\n    * @param _rewardsDay uint256 the reward day\n    */\n    function _requiredValidatorsForValidatorsRewards(Data storage _self, uint256 _rewardsDay)\n        public\n        view\n        returns (uint256)\n    {\n        if (_getSelectedRewardedEntityListType(_self.selectedValidators, _rewardsDay) == 0) {\n            return _self.selectedValidators.currentList.length;\n        } else {\n            return _self.selectedValidators.previousList.length;\n        }\n    }\n\n    /**\n    * @dev Checks how many validators are needed for app rewards\n    * @param _self Data pointer to storage\n    * @param _rewardsDay uint256 the reward day\n    */\n    function _requiredValidatorsForAppRewards(Data storage _self, uint256 _rewardsDay)\n        public\n        view\n        returns (uint256)\n    {\n        if (_getSelectedRewardedEntityListType(_self.selectedValidators, _rewardsDay) == 0) {\n            return ((_self.selectedValidators.currentList.length * getParameterValue(_self, ParameterName.ValidatorMajorityPercent, _rewardsDay)) / 1e8)+1;\n        } else {\n            return ((_self.selectedValidators.previousList.length * getParameterValue(_self, ParameterName.ValidatorMajorityPercent, _rewardsDay)) / 1e8)+1;\n        }\n    }\n\n    /**\n    * @dev Get rewards day from block.timestamp\n    * @param _self Data pointer to storage\n    */\n    function _currentRewardsDay(Data storage _self)\n        public\n        view\n        returns (uint256)\n    {\n        //the the start time - floor timestamp to previous midnight divided by seconds in a day will give the rewards day number\n        return ((block.timestamp - (block.timestamp % _self.minSecondsBetweenDays)) - _self.rewardsStartTimestamp) / _self.minSecondsBetweenDays;\n    }\n\n    /**\n    * @dev Update current daily applications list.\n    * If new, push.\n    * If same size, replace\n    * If different size, delete, and then push.\n    * @param _rewardedEntitylist RewardedEntityList pointer to storage\n    * @param _entities address[] array of entities\n    */\n    //_updateCurrentEntityList(_rewardedEntitylist, _entities,_rewardedEntityType),\n    function _updateCurrentEntityList(\n        RewardedEntityList storage _rewardedEntitylist,\n        address[] _entities\n    )\n        internal\n        returns (bool)\n    {\n        bool emptyCurrentList = _rewardedEntitylist.currentList.length == 0;\n        if (!emptyCurrentList && _rewardedEntitylist.currentList.length != _entities.length) {\n            _deleteCurrentEntityList(_rewardedEntitylist);\n            emptyCurrentList = true;\n        }\n\n        for (uint256 i = 0; i < _entities.length; i++) {\n            if (emptyCurrentList) {\n                _rewardedEntitylist.currentList.push(_entities[i]);\n            } else {\n                _rewardedEntitylist.currentList[i] = _entities[i];\n            }\n            _rewardedEntitylist.current[_entities[i]] = true;\n        }\n        return true;\n    }\n\n    /**\n    * @dev Update previous daily list\n    * @param _rewardedEntitylist RewardedEntityList pointer to storage\n    */\n    function _updatePreviousEntityList(RewardedEntityList storage _rewardedEntitylist)\n        internal\n        returns (bool)\n    {\n        bool emptyPreviousList = _rewardedEntitylist.previousList.length == 0;\n        if (\n            !emptyPreviousList &&\n            _rewardedEntitylist.previousList.length != _rewardedEntitylist.currentList.length\n        ) {\n            _deletePreviousEntityList(_rewardedEntitylist);\n            emptyPreviousList = true;\n        }\n        for (uint256 i = 0; i < _rewardedEntitylist.currentList.length; i++) {\n            if (emptyPreviousList) {\n                _rewardedEntitylist.previousList.push(_rewardedEntitylist.currentList[i]);\n            } else {\n                _rewardedEntitylist.previousList[i] = _rewardedEntitylist.currentList[i];\n            }\n            _rewardedEntitylist.previous[_rewardedEntitylist.currentList[i]] = true;\n        }\n        return true;\n    }\n\n    /**\n    * @dev Delete existing values from the current list\n    * @param _rewardedEntitylist RewardedEntityList pointer to storage\n    */\n    function _deleteCurrentEntityList(RewardedEntityList storage _rewardedEntitylist)\n        internal\n        returns (bool)\n    {\n        for (uint256 i = 0; i < _rewardedEntitylist.currentList.length ; i++) {\n             delete _rewardedEntitylist.current[_rewardedEntitylist.currentList[i]];\n        }\n        delete  _rewardedEntitylist.currentList;\n        return true;\n    }\n\n    /**\n    * @dev Delete existing values from the previous applications list\n    * @param _rewardedEntitylist RewardedEntityList pointer to storage\n    */\n    function _deletePreviousEntityList(RewardedEntityList storage _rewardedEntitylist)\n        internal\n        returns (bool)\n    {\n        for (uint256 i = 0; i < _rewardedEntitylist.previousList.length ; i++) {\n            delete _rewardedEntitylist.previous[_rewardedEntitylist.previousList[i]];\n        }\n        delete _rewardedEntitylist.previousList;\n        return true;\n    }\n\n    /**\n    * @dev Deletes reward day submission data\n    * @param _self Data pointer to storage\n    */\n    function _resetDailyRewards(\n        Data storage _self\n    )\n        public\n        returns (bool)\n    {\n        bytes32[] memory rewardHashes = _self.dailyRewards.submittedRewardHashes;\n        for (uint256 i = 0; i < rewardHashes.length; i++) {\n            for (uint256 j = 0; j < _self.dailyRewards.submissions[rewardHashes[i]].validatorsList.length; j++) {\n                delete(\n                    _self.dailyRewards.submissions[rewardHashes[i]].validators[_self.dailyRewards.submissions[rewardHashes[i]].validatorsList[j]]\n                );\n            }\n            delete _self.dailyRewards.submissions[rewardHashes[i]].validatorsList;\n            _self.dailyRewards.submissions[rewardHashes[i]].confirmations = 0;\n            _self.dailyRewards.submissions[rewardHashes[i]].finalized = 0;\n            _self.dailyRewards.submissions[rewardHashes[i]].initializedState = 0;\n        }\n        delete _self.dailyRewards.submittedRewardHashes;\n    }\n}",
  "sourcePath": "/Users/jretina/Programming/PROPSProject/props-token-distribution/contracts/token/PropsRewardsLib.sol",
  "compiler": {
    "name": "solc",
    "version": "0.4.24+commit.e67f0147.Emscripten.clang"
  },
  "schemaVersion": "2.0.1",
  "updatedAt": "2019-05-26T12:33:38.592Z"
}