{
  "contractName": "PropsRewards",
  "abi": [
    {
      "constant": false,
      "inputs": [
        {
          "name": "spender",
          "type": "address"
        },
        {
          "name": "value",
          "type": "uint256"
        }
      ],
      "name": "approve",
      "outputs": [
        {
          "name": "",
          "type": "bool"
        }
      ],
      "payable": false,
      "stateMutability": "nonpayable",
      "type": "function"
    },
    {
      "constant": true,
      "inputs": [],
      "name": "totalSupply",
      "outputs": [
        {
          "name": "",
          "type": "uint256"
        }
      ],
      "payable": false,
      "stateMutability": "view",
      "type": "function"
    },
    {
      "constant": false,
      "inputs": [
        {
          "name": "from",
          "type": "address"
        },
        {
          "name": "to",
          "type": "address"
        },
        {
          "name": "value",
          "type": "uint256"
        }
      ],
      "name": "transferFrom",
      "outputs": [
        {
          "name": "",
          "type": "bool"
        }
      ],
      "payable": false,
      "stateMutability": "nonpayable",
      "type": "function"
    },
    {
      "constant": true,
      "inputs": [],
      "name": "maxTotalSupply",
      "outputs": [
        {
          "name": "",
          "type": "uint256"
        }
      ],
      "payable": false,
      "stateMutability": "view",
      "type": "function"
    },
    {
      "constant": false,
      "inputs": [
        {
          "name": "spender",
          "type": "address"
        },
        {
          "name": "addedValue",
          "type": "uint256"
        }
      ],
      "name": "increaseAllowance",
      "outputs": [
        {
          "name": "",
          "type": "bool"
        }
      ],
      "payable": false,
      "stateMutability": "nonpayable",
      "type": "function"
    },
    {
      "constant": true,
      "inputs": [],
      "name": "rewardsStartTimestamp",
      "outputs": [
        {
          "name": "",
          "type": "uint256"
        }
      ],
      "payable": false,
      "stateMutability": "view",
      "type": "function"
    },
    {
      "constant": true,
      "inputs": [
        {
          "name": "owner",
          "type": "address"
        }
      ],
      "name": "balanceOf",
      "outputs": [
        {
          "name": "",
          "type": "uint256"
        }
      ],
      "payable": false,
      "stateMutability": "view",
      "type": "function"
    },
    {
      "constant": false,
      "inputs": [
        {
          "name": "spender",
          "type": "address"
        },
        {
          "name": "subtractedValue",
          "type": "uint256"
        }
      ],
      "name": "decreaseAllowance",
      "outputs": [
        {
          "name": "",
          "type": "bool"
        }
      ],
      "payable": false,
      "stateMutability": "nonpayable",
      "type": "function"
    },
    {
      "constant": false,
      "inputs": [
        {
          "name": "to",
          "type": "address"
        },
        {
          "name": "value",
          "type": "uint256"
        }
      ],
      "name": "transfer",
      "outputs": [
        {
          "name": "",
          "type": "bool"
        }
      ],
      "payable": false,
      "stateMutability": "nonpayable",
      "type": "function"
    },
    {
      "constant": true,
      "inputs": [
        {
          "name": "owner",
          "type": "address"
        },
        {
          "name": "spender",
          "type": "address"
        }
      ],
      "name": "allowance",
      "outputs": [
        {
          "name": "",
          "type": "uint256"
        }
      ],
      "payable": false,
      "stateMutability": "view",
      "type": "function"
    },
    {
      "constant": true,
      "inputs": [],
      "name": "controller",
      "outputs": [
        {
          "name": "",
          "type": "address"
        }
      ],
      "payable": false,
      "stateMutability": "view",
      "type": "function"
    },
    {
      "anonymous": false,
      "inputs": [
        {
          "indexed": false,
          "name": "maxTotalSupply",
          "type": "uint256"
        },
        {
          "indexed": false,
          "name": "totalSupply",
          "type": "uint256"
        },
        {
          "indexed": false,
          "name": "validatorRewardsPercent",
          "type": "uint256"
        },
        {
          "indexed": false,
          "name": "numOfValidators",
          "type": "uint256"
        }
      ],
      "name": "Debug",
      "type": "event"
    },
    {
      "anonymous": false,
      "inputs": [
        {
          "indexed": true,
          "name": "rewardsDay",
          "type": "uint256"
        },
        {
          "indexed": true,
          "name": "rewardsHash",
          "type": "bytes32"
        },
        {
          "indexed": true,
          "name": "validator",
          "type": "address"
        }
      ],
      "name": "DailyRewardsSubmitted",
      "type": "event"
    },
    {
      "anonymous": false,
      "inputs": [
        {
          "indexed": true,
          "name": "rewardsDay",
          "type": "uint256"
        },
        {
          "indexed": true,
          "name": "rewardsHash",
          "type": "bytes32"
        },
        {
          "indexed": false,
          "name": "numOfApplications",
          "type": "uint256"
        },
        {
          "indexed": false,
          "name": "amount",
          "type": "uint256"
        }
      ],
      "name": "DailyRewardsApplicationsMinted",
      "type": "event"
    },
    {
      "anonymous": false,
      "inputs": [
        {
          "indexed": true,
          "name": "rewardsDay",
          "type": "uint256"
        },
        {
          "indexed": true,
          "name": "rewardsHash",
          "type": "bytes32"
        },
        {
          "indexed": false,
          "name": "numOfValidators",
          "type": "uint256"
        },
        {
          "indexed": false,
          "name": "amount",
          "type": "uint256"
        }
      ],
      "name": "DailyRewardsValidatorsMinted",
      "type": "event"
    },
    {
      "anonymous": false,
      "inputs": [
        {
          "indexed": true,
          "name": "id",
          "type": "address"
        },
        {
          "indexed": true,
          "name": "entityType",
          "type": "uint8"
        },
        {
          "indexed": false,
          "name": "name",
          "type": "bytes32"
        },
        {
          "indexed": false,
          "name": "rewardsAddress",
          "type": "address"
        },
        {
          "indexed": true,
          "name": "sidechainAddress",
          "type": "address"
        }
      ],
      "name": "EntityUpdated",
      "type": "event"
    },
    {
      "anonymous": false,
      "inputs": [
        {
          "indexed": false,
          "name": "param",
          "type": "uint8"
        },
        {
          "indexed": false,
          "name": "newValue",
          "type": "uint256"
        },
        {
          "indexed": false,
          "name": "oldValue",
          "type": "uint256"
        },
        {
          "indexed": false,
          "name": "rewardsDay",
          "type": "uint256"
        }
      ],
      "name": "ParameterUpdated",
      "type": "event"
    },
    {
      "anonymous": false,
      "inputs": [
        {
          "indexed": false,
          "name": "validatorsList",
          "type": "address[]"
        },
        {
          "indexed": true,
          "name": "rewardsDay",
          "type": "uint256"
        }
      ],
      "name": "ValidatorsListUpdated",
      "type": "event"
    },
    {
      "anonymous": false,
      "inputs": [
        {
          "indexed": false,
          "name": "applicationsList",
          "type": "address[]"
        },
        {
          "indexed": true,
          "name": "rewardsDay",
          "type": "uint256"
        }
      ],
      "name": "ApplicationsListUpdated",
      "type": "event"
    },
    {
      "anonymous": false,
      "inputs": [
        {
          "indexed": true,
          "name": "newController",
          "type": "address"
        }
      ],
      "name": "ControllerUpdated",
      "type": "event"
    },
    {
      "anonymous": false,
      "inputs": [
        {
          "indexed": true,
          "name": "from",
          "type": "address"
        },
        {
          "indexed": true,
          "name": "to",
          "type": "address"
        },
        {
          "indexed": false,
          "name": "value",
          "type": "uint256"
        }
      ],
      "name": "Transfer",
      "type": "event"
    },
    {
      "anonymous": false,
      "inputs": [
        {
          "indexed": true,
          "name": "owner",
          "type": "address"
        },
        {
          "indexed": true,
          "name": "spender",
          "type": "address"
        },
        {
          "indexed": false,
          "name": "value",
          "type": "uint256"
        }
      ],
      "name": "Approval",
      "type": "event"
    },
    {
      "constant": false,
      "inputs": [
        {
          "name": "_controller",
          "type": "address"
        },
        {
          "name": "_decimals",
          "type": "uint256"
        },
        {
          "name": "_minSecondsBetweenDays",
          "type": "uint256"
        },
        {
          "name": "_rewardsStartTimestamp",
          "type": "uint256"
        }
      ],
      "name": "initializePostRewardsUpgrade1",
      "outputs": [],
      "payable": false,
      "stateMutability": "nonpayable",
      "type": "function"
    },
    {
      "constant": false,
      "inputs": [
        {
          "name": "_controller",
          "type": "address"
        },
        {
          "name": "_decimals",
          "type": "uint256"
        },
        {
          "name": "_minSecondsBetweenDays",
          "type": "uint256"
        },
        {
          "name": "_rewardsStartTimestamp",
          "type": "uint256"
        }
      ],
      "name": "initialize",
      "outputs": [],
      "payable": false,
      "stateMutability": "nonpayable",
      "type": "function"
    },
    {
      "constant": false,
      "inputs": [
        {
          "name": "_rewardsDay",
          "type": "uint256"
        },
        {
          "name": "_validators",
          "type": "address[]"
        }
      ],
      "name": "setValidators",
      "outputs": [
        {
          "name": "",
          "type": "bool"
        }
      ],
      "payable": false,
      "stateMutability": "nonpayable",
      "type": "function"
    },
    {
      "constant": false,
      "inputs": [
        {
          "name": "_rewardsDay",
          "type": "uint256"
        },
        {
          "name": "_applications",
          "type": "address[]"
        }
      ],
      "name": "setApplications",
      "outputs": [
        {
          "name": "",
          "type": "bool"
        }
      ],
      "payable": false,
      "stateMutability": "nonpayable",
      "type": "function"
    },
    {
      "constant": true,
      "inputs": [
        {
          "name": "_entityType",
          "type": "uint8"
        },
        {
          "name": "_rewardsDay",
          "type": "uint256"
        }
      ],
      "name": "getEntities",
      "outputs": [
        {
          "name": "",
          "type": "address[]"
        }
      ],
      "payable": false,
      "stateMutability": "view",
      "type": "function"
    },
    {
      "constant": false,
      "inputs": [
        {
          "name": "_rewardsDay",
          "type": "uint256"
        },
        {
          "name": "_rewardsHash",
          "type": "bytes32"
        },
        {
          "name": "_applications",
          "type": "address[]"
        },
        {
          "name": "_amounts",
          "type": "uint256[]"
        }
      ],
      "name": "submitDailyRewards",
      "outputs": [
        {
          "name": "",
          "type": "bool"
        }
      ],
      "payable": false,
      "stateMutability": "nonpayable",
      "type": "function"
    },
    {
      "constant": false,
      "inputs": [
        {
          "name": "_controller",
          "type": "address"
        }
      ],
      "name": "updateController",
      "outputs": [
        {
          "name": "",
          "type": "bool"
        }
      ],
      "payable": false,
      "stateMutability": "nonpayable",
      "type": "function"
    },
    {
      "constant": true,
      "inputs": [
        {
          "name": "_name",
          "type": "uint8"
        },
        {
          "name": "_rewardsDay",
          "type": "uint256"
        }
      ],
      "name": "getParameter",
      "outputs": [
        {
          "name": "",
          "type": "uint256"
        }
      ],
      "payable": false,
      "stateMutability": "view",
      "type": "function"
    },
    {
      "constant": false,
      "inputs": [
        {
          "name": "_name",
          "type": "uint8"
        },
        {
          "name": "_value",
          "type": "uint256"
        },
        {
          "name": "_rewardsDay",
          "type": "uint256"
        }
      ],
      "name": "updateParameter",
      "outputs": [
        {
          "name": "",
          "type": "bool"
        }
      ],
      "payable": false,
      "stateMutability": "nonpayable",
      "type": "function"
    },
    {
      "constant": false,
      "inputs": [
        {
          "name": "_entityType",
          "type": "uint8"
        },
        {
          "name": "_name",
          "type": "bytes32"
        },
        {
          "name": "_rewardsAddress",
          "type": "address"
        },
        {
          "name": "_sidechainAddress",
          "type": "address"
        }
      ],
      "name": "updateEntity",
      "outputs": [
        {
          "name": "",
          "type": "bool"
        }
      ],
      "payable": false,
      "stateMutability": "nonpayable",
      "type": "function"
    }
  ],
  "bytecode": "0x608060405234801561001057600080fd5b50612b88806100206000396000f30060806040526004361061011d576000357c0100000000000000000000000000000000000000000000000000000000900463ffffffff16806306cb5b6614610122578063095ea7b31461017d578063098bfa9f146101e2578063162663001461027157806318160ddd146102cd57806323b872dd146102f85780632ab4d0521461037d57806339509351146103a85780634ec81af11461040d5780634f92caf81461046e57806357ece4bc146104bc578063635685021461059557806370a08231146105c05780637492fdda1461061757806396e883271461069f578063a457c2d714610735578063a9059cbb1461079a578063dd62ed3e146107ff578063e53110f214610876578063e795594d146108d7578063f77c47911461095f575b600080fd5b34801561012e57600080fd5b50610163600480360381019080803573ffffffffffffffffffffffffffffffffffffffff1690602001909291905050506109b6565b604051808215151515815260200191505060405180910390f35b34801561018957600080fd5b506101c8600480360381019080803573ffffffffffffffffffffffffffffffffffffffff16906020019092919080359060200190929190505050610b0a565b604051808215151515815260200191505060405180910390f35b3480156101ee57600080fd5b5061021a600480360381019080803560ff16906020019092919080359060200190929190505050610b21565b6040518080602001828103825283818151815260200191508051906020019060200280838360005b8381101561025d578082015181840152602081019050610242565b505050509050019250505060405180910390f35b34801561027d57600080fd5b506102b3600480360381019080803560ff1690602001909291908035906020019092919080359060200190929190505050610c46565b604051808215151515815260200191505060405180910390f35b3480156102d957600080fd5b506102e2610eaf565b6040518082815260200191505060405180910390f35b34801561030457600080fd5b50610363600480360381019080803573ffffffffffffffffffffffffffffffffffffffff169060200190929190803573ffffffffffffffffffffffffffffffffffffffff16906020019092919080359060200190929190505050610eb9565b604051808215151515815260200191505060405180910390f35b34801561038957600080fd5b50610392610f6a565b6040518082815260200191505060405180910390f35b3480156103b457600080fd5b506103f3600480360381019080803573ffffffffffffffffffffffffffffffffffffffff16906020019092919080359060200190929190505050610f70565b604051808215151515815260200191505060405180910390f35b34801561041957600080fd5b5061046c600480360381019080803573ffffffffffffffffffffffffffffffffffffffff169060200190929190803590602001909291908035906020019092919080359060200190929190505050611015565b005b34801561047a57600080fd5b506104a6600480360381019080803560ff1690602001909291908035906020019092919050505061115a565b6040518082815260200191505060405180910390f35b3480156104c857600080fd5b5061057b6004803603810190808035906020019092919080356000191690602001909291908035906020019082018035906020019080806020026020016040519081016040528093929190818152602001838360200280828437820191505050505050919291929080359060200190820180359060200190808060200260200160405190810160405280939291908181526020018383602002808284378201915050505050509192919290505050611229565b604051808215151515815260200191505060405180910390f35b3480156105a157600080fd5b506105aa611602565b6040518082815260200191505060405180910390f35b3480156105cc57600080fd5b50610601600480360381019080803573ffffffffffffffffffffffffffffffffffffffff169060200190929190505050611608565b6040518082815260200191505060405180910390f35b34801561062357600080fd5b506106856004803603810190808035906020019092919080359060200190820180359060200190808060200260200160405190810160405280939291908181526020018383602002808284378201915050505050509192919290505050611651565b604051808215151515815260200191505060405180910390f35b3480156106ab57600080fd5b5061071b600480360381019080803560ff1690602001909291908035600019169060200190929190803573ffffffffffffffffffffffffffffffffffffffff169060200190929190803573ffffffffffffffffffffffffffffffffffffffff169060200190929190505050611894565b604051808215151515815260200191505060405180910390f35b34801561074157600080fd5b50610780600480360381019080803573ffffffffffffffffffffffffffffffffffffffff16906020019092919080359060200190929190505050611a85565b604051808215151515815260200191505060405180910390f35b3480156107a657600080fd5b506107e5600480360381019080803573ffffffffffffffffffffffffffffffffffffffff16906020019092919080359060200190929190505050611b2a565b604051808215151515815260200191505060405180910390f35b34801561080b57600080fd5b50610860600480360381019080803573ffffffffffffffffffffffffffffffffffffffff169060200190929190803573ffffffffffffffffffffffffffffffffffffffff169060200190929190505050611b41565b6040518082815260200191505060405180910390f35b34801561088257600080fd5b506108d5600480360381019080803573ffffffffffffffffffffffffffffffffffffffff169060200190929190803590602001909291908035906020019092919080359060200190929190505050611bc8565b005b3480156108e357600080fd5b506109456004803603810190808035906020019092919080359060200190820180359060200190808060200260200160405190810160405280939291908181526020018383602002808284378201915050505050509192919290505050611d0d565b604051808215151515815260200191505060405180910390f35b34801561096b57600080fd5b50610974611f50565b604051808273ffffffffffffffffffffffffffffffffffffffff1673ffffffffffffffffffffffffffffffffffffffff16815260200191505060405180910390f35b6000608160009054906101000a900473ffffffffffffffffffffffffffffffffffffffff1673ffffffffffffffffffffffffffffffffffffffff163373ffffffffffffffffffffffffffffffffffffffff16141515610a7d576040517f08c379a00000000000000000000000000000000000000000000000000000000081526004018080602001828103825260168152602001807f4d7573742062652074686520636f6e74726f6c6c65720000000000000000000081525060200191505060405180910390fd5b81608160006101000a81548173ffffffffffffffffffffffffffffffffffffffff021916908373ffffffffffffffffffffffffffffffffffffffff1602179055508173ffffffffffffffffffffffffffffffffffffffff167f1304018cfe79741dcf02ba6b61d39cc4757d59395d03224d9925c7aa8300214660405160405180910390a260019050919050565b6000610b17338484611f76565b6001905092915050565b606073__PropsRewardsLib_______________________6389932735606885856040518463ffffffff167c010000000000000000000000000000000000000000000000000000000002815260040180848152602001836001811115610b8257fe5b60ff168152602001828152602001935050505060006040518083038186803b158015610bad57600080fd5b505af4158015610bc1573d6000803e3d6000fd5b505050506040513d6000823e3d601f19601f820116820180604052506020811015610beb57600080fd5b810190808051640100000000811115610c0357600080fd5b82810190506020810184811115610c1957600080fd5b8151856020820283011164010000000082111715610c3657600080fd5b5050929190505050905092915050565b6000608160009054906101000a900473ffffffffffffffffffffffffffffffffffffffff1673ffffffffffffffffffffffffffffffffffffffff163373ffffffffffffffffffffffffffffffffffffffff16141515610d0d576040517f08c379a00000000000000000000000000000000000000000000000000000000081526004018080602001828103825260168152602001807f4d7573742062652074686520636f6e74726f6c6c65720000000000000000000081525060200191505060405180910390fd5b73__PropsRewardsLib_______________________6311cb33da60688686866040518563ffffffff167c010000000000000000000000000000000000000000000000000000000002815260040180858152602001846003811115610d6d57fe5b60ff16815260200183815260200182815260200194505050505060206040518083038186803b158015610d9f57600080fd5b505af4158015610db3573d6000803e3d6000fd5b505050506040513d6020811015610dc957600080fd5b8101908080519060200190929190505050507fd3ee560e0e71d87fde0453f24eac52dd8f01332349f8d1ef9e005d1cc3b82fb48460686004016000876003811115610e1057fe5b81526020019081526020016000206000015460686004016000886003811115610e3557fe5b81526020019081526020016000206001015460686004016000896003811115610e5a57fe5b81526020019081526020016000206002015460405180856003811115610e7c57fe5b60ff16815260200184815260200183815260200182815260200194505050505060405180910390a1600190509392505050565b6000603554905090565b6000610ec68484846120d9565b610f5f8433610f5a85603460008a73ffffffffffffffffffffffffffffffffffffffff1673ffffffffffffffffffffffffffffffffffffffff16815260200190815260200160002060003373ffffffffffffffffffffffffffffffffffffffff1673ffffffffffffffffffffffffffffffffffffffff168152602001908152602001600020546122f790919063ffffffff16565b611f76565b600190509392505050565b607f5481565b600061100b338461100685603460003373ffffffffffffffffffffffffffffffffffffffff1673ffffffffffffffffffffffffffffffffffffffff16815260200190815260200160002060008973ffffffffffffffffffffffffffffffffffffffff1673ffffffffffffffffffffffffffffffffffffffff1681526020019081526020016000205461231890919063ffffffff16565b611f76565b6001905092915050565b60008060019054906101000a900460ff16806110355750611034612339565b5b8061104c57506000809054906101000a900460ff16155b15156110e6576040517f08c379a000000000000000000000000000000000000000000000000000000000815260040180806020018281038252602e8152602001807f436f6e747261637420696e7374616e63652068617320616c726561647920626581526020017f656e20696e697469616c697a656400000000000000000000000000000000000081525060400191505060405180910390fd5b600060019054906101000a900460ff1690506001600060016101000a81548160ff02191690831515021790555060016000806101000a81548160ff0219169083151502179055506111398585858561234a565b80600060016101000a81548160ff0219169083151502179055505050505050565b600073__PropsRewardsLib_______________________63d81b7050606885856040518463ffffffff167c0100000000000000000000000000000000000000000000000000000000028152600401808481526020018360038111156111bb57fe5b60ff168152602001828152602001935050505060206040518083038186803b1580156111e657600080fd5b505af41580156111fa573d6000803e3d6000fd5b505050506040513d602081101561121057600080fd5b8101908080519060200190929190505050905092915050565b60008060008060008811801561124657506068600f016004015488115b1561134e5773__PropsRewardsLib_______________________6314a68c38606880600f01600401546068600f016003015460006040518563ffffffff167c01000000000000000000000000000000000000000000000000000000000281526004018085815260200184815260200183600019166000191681526020018215151515815260200194505050505060206040518083038186803b1580156112eb57600080fd5b505af41580156112ff573d6000803e3d6000fd5b505050506040513d602081101561131557600080fd5b81019080805190602001909291905050509250600083111561134d5761134c6068600f01600401546068600f01600301548561270e565b5b5b73__PropsRewardsLib_______________________634daa822560688a8a8a8a611376610eaf565b6040518763ffffffff167c01000000000000000000000000000000000000000000000000000000000281526004018087815260200186815260200185600019166000191681526020018060200180602001848152602001838103835286818151815260200191508051906020019060200280838360005b838110156114085780820151818401526020810190506113ed565b50505050905001838103825285818151815260200191508051906020019060200280838360005b8381101561144a57808201518184015260208101905061142f565b505050509050019850505050505050505060206040518083038186803b15801561147357600080fd5b505af4158015611487573d6000803e3d6000fd5b505050506040513d602081101561149d57600080fd5b8101908080519060200190929190505050915060008211156114c7576114c68888888886612915565b5b73__PropsRewardsLib_______________________6314a68c3860688a8a60016040518563ffffffff167c01000000000000000000000000000000000000000000000000000000000281526004018085815260200184815260200183600019166000191681526020018215151515815260200194505050505060206040518083038186803b15801561155857600080fd5b505af415801561156c573d6000803e3d6000fd5b505050506040513d602081101561158257600080fd5b8101908080519060200190929190505050905060008111156115aa576115a988888361270e565b5b3373ffffffffffffffffffffffffffffffffffffffff168760001916897f47a75fa3188612bc1341726d7859491a32bf875dd309474f712950354f73c5a760405160405180910390a460019350505050949350505050565b60805481565b6000603360008373ffffffffffffffffffffffffffffffffffffffff1673ffffffffffffffffffffffffffffffffffffffff168152602001908152602001600020549050919050565b6000608160009054906101000a900473ffffffffffffffffffffffffffffffffffffffff1673ffffffffffffffffffffffffffffffffffffffff163373ffffffffffffffffffffffffffffffffffffffff16141515611718576040517f08c379a00000000000000000000000000000000000000000000000000000000081526004018080602001828103825260168152602001807f4d7573742062652074686520636f6e74726f6c6c65720000000000000000000081525060200191505060405180910390fd5b73__PropsRewardsLib_______________________63cc1b8c9c606885856040518463ffffffff167c01000000000000000000000000000000000000000000000000000000000281526004018084815260200183815260200180602001828103825283818151815260200191508051906020019060200280838360005b838110156117b0578082015181840152602081019050611795565b5050505090500194505050505060206040518083038186803b1580156117d557600080fd5b505af41580156117e9573d6000803e3d6000fd5b505050506040513d60208110156117ff57600080fd5b810190808051906020019092919050505050827f426b639e1d49f62952a4d3282b37648fb8c47ac20b15e01548c104b75c787c0c836040518080602001828103825283818151815260200191508051906020019060200280838360005b8381101561187757808201518184015260208101905061185c565b505050509050019250505060405180910390a26001905092915050565b600073__PropsRewardsLib_______________________6346e3a2986068878787876040518663ffffffff167c0100000000000000000000000000000000000000000000000000000000028152600401808681526020018560018111156118f757fe5b60ff16815260200184600019166000191681526020018373ffffffffffffffffffffffffffffffffffffffff1673ffffffffffffffffffffffffffffffffffffffff1681526020018273ffffffffffffffffffffffffffffffffffffffff1673ffffffffffffffffffffffffffffffffffffffff1681526020019550505050505060206040518083038186803b15801561199057600080fd5b505af41580156119a4573d6000803e3d6000fd5b505050506040513d60208110156119ba57600080fd5b8101908080519060200190929190505050508173ffffffffffffffffffffffffffffffffffffffff168560018111156119ef57fe5b3373ffffffffffffffffffffffffffffffffffffffff167fac4aacb75e6f9ac6f2fee64077e9436dfb1be853b1a850b7863cf1433f0e752887876040518083600019166000191681526020018273ffffffffffffffffffffffffffffffffffffffff1673ffffffffffffffffffffffffffffffffffffffff1681526020019250505060405180910390a460019050949350505050565b6000611b203384611b1b85603460003373ffffffffffffffffffffffffffffffffffffffff1673ffffffffffffffffffffffffffffffffffffffff16815260200190815260200160002060008973ffffffffffffffffffffffffffffffffffffffff1673ffffffffffffffffffffffffffffffffffffffff168152602001908152602001600020546122f790919063ffffffff16565b611f76565b6001905092915050565b6000611b373384846120d9565b6001905092915050565b6000603460008473ffffffffffffffffffffffffffffffffffffffff1673ffffffffffffffffffffffffffffffffffffffff16815260200190815260200160002060008373ffffffffffffffffffffffffffffffffffffffff1673ffffffffffffffffffffffffffffffffffffffff16815260200190815260200160002054905092915050565b60008060019054906101000a900460ff1680611be85750611be7612339565b5b80611bff57506000809054906101000a900460ff16155b1515611c99576040517f08c379a000000000000000000000000000000000000000000000000000000000815260040180806020018281038252602e8152602001807f436f6e747261637420696e7374616e63652068617320616c726561647920626581526020017f656e20696e697469616c697a656400000000000000000000000000000000000081525060400191505060405180910390fd5b600060019054906101000a900460ff1690506001600060016101000a81548160ff02191690831515021790555060016000806101000a81548160ff021916908315150217905550611cec8585858561234a565b80600060016101000a81548160ff0219169083151502179055505050505050565b6000608160009054906101000a900473ffffffffffffffffffffffffffffffffffffffff1673ffffffffffffffffffffffffffffffffffffffff163373ffffffffffffffffffffffffffffffffffffffff16141515611dd4576040517f08c379a00000000000000000000000000000000000000000000000000000000081526004018080602001828103825260168152602001807f4d7573742062652074686520636f6e74726f6c6c65720000000000000000000081525060200191505060405180910390fd5b73__PropsRewardsLib_______________________6363cad06a606885856040518463ffffffff167c01000000000000000000000000000000000000000000000000000000000281526004018084815260200183815260200180602001828103825283818151815260200191508051906020019060200280838360005b83811015611e6c578082015181840152602081019050611e51565b5050505090500194505050505060206040518083038186803b158015611e9157600080fd5b505af4158015611ea5573d6000803e3d6000fd5b505050506040513d6020811015611ebb57600080fd5b810190808051906020019092919050505050827f25071f4c6ebdf865da246a5caf6a5bbcbe50f6443e15309b97b10043c6beb1d9836040518080602001828103825283818151815260200191508051906020019060200280838360005b83811015611f33578082015181840152602081019050611f18565b505050509050019250505060405180910390a26001905092915050565b608160009054906101000a900473ffffffffffffffffffffffffffffffffffffffff1681565b600073ffffffffffffffffffffffffffffffffffffffff168273ffffffffffffffffffffffffffffffffffffffff1614151515611fb257600080fd5b600073ffffffffffffffffffffffffffffffffffffffff168373ffffffffffffffffffffffffffffffffffffffff1614151515611fee57600080fd5b80603460008573ffffffffffffffffffffffffffffffffffffffff1673ffffffffffffffffffffffffffffffffffffffff16815260200190815260200160002060008473ffffffffffffffffffffffffffffffffffffffff1673ffffffffffffffffffffffffffffffffffffffff168152602001908152602001600020819055508173ffffffffffffffffffffffffffffffffffffffff168373ffffffffffffffffffffffffffffffffffffffff167f8c5be1e5ebec7d5bd14f71427d1e84f3dd0314c0f7b2291e5b200ac8c7c3b925836040518082815260200191505060405180910390a3505050565b603360008473ffffffffffffffffffffffffffffffffffffffff1673ffffffffffffffffffffffffffffffffffffffff16815260200190815260200160002054811115151561212757600080fd5b600073ffffffffffffffffffffffffffffffffffffffff168273ffffffffffffffffffffffffffffffffffffffff161415151561216357600080fd5b6121b581603360008673ffffffffffffffffffffffffffffffffffffffff1673ffffffffffffffffffffffffffffffffffffffff168152602001908152602001600020546122f790919063ffffffff16565b603360008573ffffffffffffffffffffffffffffffffffffffff1673ffffffffffffffffffffffffffffffffffffffff1681526020019081526020016000208190555061224a81603360008573ffffffffffffffffffffffffffffffffffffffff1673ffffffffffffffffffffffffffffffffffffffff1681526020019081526020016000205461231890919063ffffffff16565b603360008473ffffffffffffffffffffffffffffffffffffffff1673ffffffffffffffffffffffffffffffffffffffff168152602001908152602001600020819055508173ffffffffffffffffffffffffffffffffffffffff168373ffffffffffffffffffffffffffffffffffffffff167fddf252ad1be2c89b69c2b068fc378daa952ba7f163c4a11628f55a4df523b3ef836040518082815260200191505060405180910390a3505050565b60008083831115151561230957600080fd5b82840390508091505092915050565b600080828401905083811015151561232f57600080fd5b8091505092915050565b600080303b90506000811491505090565b82600a0a633b9aca0002607f8190556068601601819055508060808190556068601501819055508160686014018190555083608160006101000a81548173ffffffffffffffffffffffffffffffffffffffff021916908373ffffffffffffffffffffffffffffffffffffffff16021790555073__PropsRewardsLib_______________________6311cb33da606860006187be60006040518563ffffffff167c01000000000000000000000000000000000000000000000000000000000281526004018085815260200184600381111561242057fe5b60ff16815260200183815260200182815260200194505050505060206040518083038186803b15801561245257600080fd5b505af4158015612466573d6000803e3d6000fd5b505050506040513d602081101561247c57600080fd5b81019080805190602001909291905050505073__PropsRewardsLib_______________________6311cb33da606860016308f0d18060006040518563ffffffff167c0100000000000000000000000000000000000000000000000000000000028152600401808581526020018460038111156124f457fe5b60ff16815260200183815260200182815260200194505050505060206040518083038186803b15801561252657600080fd5b505af415801561253a573d6000803e3d6000fd5b505050506040513d602081101561255057600080fd5b81019080805190602001909291905050505073__PropsRewardsLib_______________________6311cb33da606860026302faf08060006040518563ffffffff167c0100000000000000000000000000000000000000000000000000000000028152600401808581526020018460038111156125c857fe5b60ff16815260200183815260200182815260200194505050505060206040518083038186803b1580156125fa57600080fd5b505af415801561260e573d6000803e3d6000fd5b505050506040513d602081101561262457600080fd5b81019080805190602001909291905050505073__PropsRewardsLib_______________________6311cb33da6068600361072560006040518563ffffffff167c01000000000000000000000000000000000000000000000000000000000281526004018085815260200184600381111561269a57fe5b60ff16815260200183815260200182815260200194505050505060206040518083038186803b1580156126cc57600080fd5b505af41580156126e0573d6000803e3d6000fd5b505050506040513d60208110156126f657600080fd5b81019080805190602001909291905050505050505050565b6000806068600f0160000160008560001916600019168152602001908152602001600020600101805490509150600090505b8181101561281f57612812606860020160006068600f01600001600088600019166000191681526020019081526020016000206001018481548110151561278357fe5b9060005260206000200160009054906101000a900473ffffffffffffffffffffffffffffffffffffffff1673ffffffffffffffffffffffffffffffffffffffff1673ffffffffffffffffffffffffffffffffffffffff16815260200190815260200160002060010160009054906101000a900473ffffffffffffffffffffffffffffffffffffffff1684612a1c565b8080600101915050612740565b73__PropsRewardsLib_______________________639dec8c4560686040518263ffffffff167c01000000000000000000000000000000000000000000000000000000000281526004018082815260200191505060206040518083038186803b15801561288b57600080fd5b505af415801561289f573d6000803e3d6000fd5b505050506040513d60208110156128b557600080fd5b8101908080519060200190929190505050508360001916857f07efea0e0eeb975e5404139e47d884d2705a0660a3456aa31c5694df1d8c5f1484858702604051808381526020018281526020019250505060405180910390a35050505050565b60008090505b83518110156129ce576129c160686000016000868481518110151561293c57fe5b9060200190602002015173ffffffffffffffffffffffffffffffffffffffff1673ffffffffffffffffffffffffffffffffffffffff16815260200190815260200160002060010160009054906101000a900473ffffffffffffffffffffffffffffffffffffffff1684838151811015156129b257fe5b90602001906020020151612a1c565b808060010191505061291b565b8460001916867fcc511f1b8ddd8ab10bcb89c26361da1c99b826350e3f38ee438134149032568a865185604051808381526020018281526020019250505060405180910390a3505050505050565b60008273ffffffffffffffffffffffffffffffffffffffff1614151515612a4257600080fd5b612a578160355461231890919063ffffffff16565b603581905550612aaf81603360008573ffffffffffffffffffffffffffffffffffffffff1673ffffffffffffffffffffffffffffffffffffffff1681526020019081526020016000205461231890919063ffffffff16565b603360008473ffffffffffffffffffffffffffffffffffffffff1673ffffffffffffffffffffffffffffffffffffffff168152602001908152602001600020819055508173ffffffffffffffffffffffffffffffffffffffff16600073ffffffffffffffffffffffffffffffffffffffff167fddf252ad1be2c89b69c2b068fc378daa952ba7f163c4a11628f55a4df523b3ef836040518082815260200191505060405180910390a350505600a165627a7a72305820b41ddf9bfc40cc349326678a7ab1dfa38d1c2223db0bd8e918d3497299ed0ecc0029",
  "source": "pragma solidity ^0.4.24;\n\nimport \"zos-lib/contracts/Initializable.sol\";\nimport \"openzeppelin-eth/contracts/math/SafeMath.sol\";\nimport \"openzeppelin-eth/contracts/token/ERC20/ERC20.sol\";\nimport { PropsRewardsLib } from \"./PropsRewardsLib.sol\";\n\n/**\n * @title Props Rewards\n * @dev Contract allows to set approved apps and validators. Submit and mint rewards...\n **/\ncontract PropsRewards is Initializable, ERC20 {\n    using SafeMath for uint256;\n    /*\n    *  Events\n    */\n    event Debug(uint256 maxTotalSupply, uint256 totalSupply, uint256 validatorRewardsPercent, uint256 numOfValidators);\n    event DailyRewardsSubmitted(\n        uint256 indexed rewardsDay,\n        bytes32 indexed rewardsHash,\n        address indexed validator\n    );\n\n    event DailyRewardsApplicationsMinted(\n        uint256 indexed rewardsDay,\n        bytes32 indexed rewardsHash,\n        uint256 numOfApplications,\n        uint256 amount\n    );\n\n    event DailyRewardsValidatorsMinted(\n        uint256 indexed rewardsDay,\n        bytes32 indexed rewardsHash,\n        uint256 numOfValidators,\n        uint256 amount\n    );\n\n    event EntityUpdated(\n        address indexed id,\n        PropsRewardsLib.RewardedEntityType indexed entityType,\n        bytes32 name,\n        address rewardsAddress,\n        address indexed sidechainAddress\n    );\n\n    event ParameterUpdated(\n        PropsRewardsLib.ParameterName param,\n        uint256 newValue,\n        uint256 oldValue,\n        uint256 rewardsDay\n    );\n\n    event ValidatorsListUpdated(\n        address[] validatorsList,\n        uint256 indexed rewardsDay\n    );\n\n    event ApplicationsListUpdated(\n        address[] applicationsList,\n        uint256 indexed rewardsDay\n    );\n\n    event ControllerUpdated(address indexed newController);\n\n    /*\n    *  Storage\n    */\n\n    PropsRewardsLib.Data internal rewardsLibData;\n    uint256 public maxTotalSupply;\n    uint256 public rewardsStartTimestamp;\n    address public controller; // controller entity\n\n    /*\n    *  Modifiers\n    */\n    modifier onlyController() {\n        require(\n            msg.sender == controller,\n            \"Must be the controller\"\n        );\n        _;\n    }\n\n    /**\n    * @dev The initializer function for upgrade as initialize was already called, get the decimals used in the token to initialize the params\n    * @param _controller address that will have controller functionality on rewards protocol\n    * @param _decimals uint256 number of decimals used in total supply\n    * @param _minSecondsBetweenDays uint256 seconds required to pass between consecutive rewards day\n    * @param _rewardsStartTimestamp uint256 day 0 timestamp\n    */\n    function initializePostRewardsUpgrade1(\n        address _controller,\n        uint256 _decimals,\n        uint256 _minSecondsBetweenDays,\n        uint256 _rewardsStartTimestamp\n    )\n        public\n        initializer\n    {\n        _initializePostRewardsUpgrade1(_controller, _decimals, _minSecondsBetweenDays, _rewardsStartTimestamp);\n    }\n\n    /**\n    * @dev The initializer function, get the decimals used in the token to initialize the params\n    * @param _controller address that will have controller functionality on rewards protocol\n    * @param _decimals uint256 number of decimals used in total supply\n    * @param _minSecondsBetweenDays uint256 seconds required to pass between consecutive rewards day\n    * @param _rewardsStartTimestamp uint256 day 0 timestamp\n    */\n    function initialize(\n        address _controller,\n        uint256 _decimals,\n        uint256 _minSecondsBetweenDays,\n        uint256 _rewardsStartTimestamp\n    )\n        public\n        initializer\n    {\n        _initializePostRewardsUpgrade1(_controller, _decimals, _minSecondsBetweenDays, _rewardsStartTimestamp);\n    }\n\n    /**\n    * @dev Set new validators list\n    * @param _rewardsDay uint256 the rewards day from which this change should take effect\n    * @param _validators address[] array of validators\n    */\n    function setValidators(uint256 _rewardsDay, address[] _validators)\n        public\n        onlyController\n        returns (bool)\n    {\n        PropsRewardsLib.setValidators(rewardsLibData, _rewardsDay, _validators);\n        emit ValidatorsListUpdated(_validators, _rewardsDay);\n        return true;\n    }\n\n    /**\n    * @dev Set new applications list\n    * @param _rewardsDay uint256 the rewards day from which this change should take effect\n    * @param _applications address[] array of validators\n    */\n    function setApplications(uint256 _rewardsDay, address[] _applications)\n        public\n        onlyController\n        returns (bool)\n    {\n        PropsRewardsLib.setApplications(rewardsLibData, _rewardsDay, _applications);\n        emit ApplicationsListUpdated(_applications, _rewardsDay);\n        return true;\n    }\n\n    /**\n    * @dev Get the applications or validators list\n    * @param _entityType RewardedEntityType either application (0) or validator (1)\n    * @param _rewardsDay uint256 the rewards day to use for this value\n    */\n    function getEntities(PropsRewardsLib.RewardedEntityType _entityType, uint256 _rewardsDay)\n        public\n        view\n        returns (address[])\n    {\n        return PropsRewardsLib.getEntities(rewardsLibData, _entityType, _rewardsDay);\n    }\n\n    /**\n    * @dev The function is called by validators with the calculation of the daily rewards\n    * @param _rewardsDay uint256 the rewards day\n    * @param _rewardsHash bytes32 hash of the rewards data\n    * @param _applications address[] array of application addresses getting the daily reward\n    * @param _amounts uint256[] array of amounts each app should get\n    */\n    function submitDailyRewards(\n        uint256 _rewardsDay,\n        bytes32 _rewardsHash,\n        address[] _applications,\n        uint256[] _amounts\n    )\n        public\n        returns (bool)\n    {\n        // if submission is for a new day check if previous day validator rewards were given if not give to participating ones\n        if (_rewardsDay > 0 && (_rewardsDay > rewardsLibData.dailyRewards.lastRewardsDay)) {\n            uint256 previousDayValidatorRewardsAmount = PropsRewardsLib.calculateValidatorRewards(\n                rewardsLibData,\n                rewardsLibData.dailyRewards.lastRewardsDay,\n                rewardsLibData.dailyRewards.lastConfirmedRewardsHash,\n                false\n            );\n            if (previousDayValidatorRewardsAmount > 0) {\n                _mintDailyRewardsForValidators(rewardsLibData.dailyRewards.lastRewardsDay, rewardsLibData.dailyRewards.lastConfirmedRewardsHash, previousDayValidatorRewardsAmount);\n            }\n        }\n        // check and give application rewards if majority of validators agree\n        uint256 appRewardsSum = PropsRewardsLib.calculateApplicationRewards(\n            rewardsLibData,\n            _rewardsDay,\n            _rewardsHash,\n            _applications,\n            _amounts,\n            totalSupply()\n        );\n        if (appRewardsSum > 0) {\n            _mintDailyRewardsForApps(_rewardsDay, _rewardsHash, _applications, _amounts, appRewardsSum);\n        }\n\n        // check and give validator rewards if all validators submitted\n        uint256 validatorRewardsAmount = PropsRewardsLib.calculateValidatorRewards(\n            rewardsLibData,\n            _rewardsDay,\n            _rewardsHash,\n            true\n        );\n        if (validatorRewardsAmount > 0) {\n            _mintDailyRewardsForValidators(_rewardsDay, _rewardsHash, validatorRewardsAmount);\n        }\n\n        emit DailyRewardsSubmitted(_rewardsDay, _rewardsHash, msg.sender);\n        return true;\n    }\n\n    /**\n    * @dev Allows the controller/owner to update to a new controller\n    * @param _controller address address of the new controller\n    */\n    function updateController(\n        address _controller\n    )\n        public\n        onlyController\n        returns (bool)\n    {\n        controller = _controller;\n        emit ControllerUpdated\n        (\n            _controller\n        );\n        return true;\n    }\n\n    /**\n    * @dev Allows getting a parameter value based on timestamp\n    * @param _name ParameterName name of the parameter\n    * @param _rewardsDay uint256 starting when should this parameter use the current value\n    */\n    function getParameter(\n        PropsRewardsLib.ParameterName _name,\n        uint256 _rewardsDay\n    )\n        public\n        view\n        returns (uint256)\n    {\n        return PropsRewardsLib.getParameterValue(rewardsLibData, _name, _rewardsDay);\n    }\n\n    /**\n    * @dev Allows the controller/owner to update rewards parameters\n    * @param _name ParameterName name of the parameter\n    * @param _value uint256 new value for the parameter\n    * @param _rewardsDay uint256 starting when should this parameter use the current value\n    */\n    function updateParameter(\n        PropsRewardsLib.ParameterName _name,\n        uint256 _value,\n        uint256 _rewardsDay\n    )\n        public\n        onlyController\n        returns (bool)\n    {\n        PropsRewardsLib.updateParameter(rewardsLibData, _name, _value, _rewardsDay);\n        emit ParameterUpdated(\n            _name,\n            rewardsLibData.parameters[uint256(_name)].currentValue,\n            rewardsLibData.parameters[uint256(_name)].previousValue,\n            rewardsLibData.parameters[uint256(_name)].rewardsDay\n        );\n        return true;\n    }\n\n    /**\n    * @dev Allows an application or validator to add/update its details\n    * @param _entityType RewardedEntityType either application (0) or validator (1)\n    * @param _name bytes32 name of the app\n    * @param _rewardsAddress address an address for the app to receive the rewards\n    * @param _sidechainAddress address the address used for using the sidechain\n    */\n    function updateEntity(\n        PropsRewardsLib.RewardedEntityType _entityType,\n        bytes32 _name,\n        address _rewardsAddress,\n        address _sidechainAddress\n    )\n        public\n        returns (bool)\n    {\n        PropsRewardsLib.updateEntity(rewardsLibData, _entityType, _name, _rewardsAddress, _sidechainAddress);\n        emit EntityUpdated(msg.sender, _entityType, _name, _rewardsAddress, _sidechainAddress);\n        return true;\n    }\n\n    /**\n    * @dev internal intialize rewards upgrade1\n    * @param _controller address that will have controller functionality on rewards protocol\n    * @param _decimals uint256 number of decimals used in total supply\n    * @param _minSecondsBetweenDays uint256 seconds required to pass between consecutive rewards day\n    * @param _rewardsStartTimestamp uint256 day 0 timestamp\n    */\n    function _initializePostRewardsUpgrade1(\n        address _controller,\n        uint256 _decimals,\n        uint256 _minSecondsBetweenDays,\n        uint256 _rewardsStartTimestamp\n    )\n        internal\n    {\n        // max total supply is 1,000,000,000 PROPS specified in AttoPROPS\n        rewardsLibData.maxTotalSupply = maxTotalSupply = 1 * 1e9 * (10 ** uint256(_decimals));\n        rewardsLibData.rewardsStartTimestamp = rewardsStartTimestamp = _rewardsStartTimestamp;\n        rewardsLibData.minSecondsBetweenDays = _minSecondsBetweenDays;\n        controller = _controller;\n        // ApplicationRewardsPercent pphm ==> 0.03475%\n        PropsRewardsLib.updateParameter(rewardsLibData, PropsRewardsLib.ParameterName.ApplicationRewardsPercent, 34750, 0);\n        // ApplicationRewardsMaxVariationPercent pphm ==> 150%\n        PropsRewardsLib.updateParameter(rewardsLibData, PropsRewardsLib.ParameterName.ApplicationRewardsMaxVariationPercent, 150 * 1e6, 0);\n        // ValidatorMajorityPercent pphm ==> 50%\n        PropsRewardsLib.updateParameter(rewardsLibData, PropsRewardsLib.ParameterName.ValidatorMajorityPercent, 50 * 1e6, 0);\n         // ValidatorRewardsPercent pphm ==> 0.001829%\n        PropsRewardsLib.updateParameter(rewardsLibData, PropsRewardsLib.ParameterName.ValidatorRewardsPercent, 1829, 0);\n    }\n\n    /**\n    * @dev Mint rewards for validators\n    * @param _rewardsDay uint256 the rewards day\n    * @param _rewardsHash bytes32 hash of the rewards data\n    * @param _amount uint256 amount each validator should get\n    */\n    function _mintDailyRewardsForValidators(uint256 _rewardsDay, bytes32 _rewardsHash, uint256 _amount)\n        internal\n    {\n        uint256 validatorsCount = rewardsLibData.dailyRewards.submissions[_rewardsHash].validatorsList.length;\n        for (uint256 i = 0; i < validatorsCount; i++) {\n            _mint(rewardsLibData.validators[rewardsLibData.dailyRewards.submissions[_rewardsHash].validatorsList[i]].rewardsAddress,_amount);\n        }\n        PropsRewardsLib._resetDailyRewards(rewardsLibData);\n        emit DailyRewardsValidatorsMinted(\n            _rewardsDay,\n            _rewardsHash,\n            validatorsCount,\n            (_amount * validatorsCount)\n        );\n    }\n\n    /**\n    * @dev Mint rewards for apps\n    * @param _rewardsDay uint256 the rewards day\n    * @param _rewardsHash bytes32 hash of the rewards data\n    * @param _applications address[] array of application addresses getting the daily reward\n    * @param _amounts uint256[] array of amounts each app should get\n    * @param _sum uint256 the sum of all application rewards given\n    */\n    function _mintDailyRewardsForApps(\n        uint256 _rewardsDay,\n        bytes32 _rewardsHash,\n        address[] _applications,\n        uint256[] _amounts,\n        uint256 _sum\n    )\n        internal\n    {\n        for (uint256 i = 0; i < _applications.length; i++) {\n            _mint(rewardsLibData.applications[_applications[i]].rewardsAddress, _amounts[i]);\n        }\n        emit DailyRewardsApplicationsMinted(_rewardsDay, _rewardsHash, _applications.length, _sum);\n    }\n}",
  "sourcePath": "/Users/jretina/Programming/PROPSProject/props-token-distribution/contracts/token/PropsRewards.sol",
  "compiler": {
    "name": "solc",
    "version": "0.4.24+commit.e67f0147.Emscripten.clang"
  },
  "schemaVersion": "2.0.1",
  "updatedAt": "2019-05-22T16:30:57.985Z"
}