{
  "contractName": "PropsToken",
  "abi": [
    {
      "constant": true,
      "inputs": [],
      "name": "name",
      "outputs": [
        {
          "name": "",
          "type": "string"
        }
      ],
      "payable": false,
      "stateMutability": "view",
      "type": "function"
    },
    {
      "constant": false,
      "inputs": [
        {
          "name": "spender",
          "type": "address"
        },
        {
          "name": "value",
          "type": "uint256"
        }
      ],
      "name": "approve",
      "outputs": [
        {
          "name": "",
          "type": "bool"
        }
      ],
      "payable": false,
      "stateMutability": "nonpayable",
      "type": "function"
    },
    {
      "constant": false,
      "inputs": [
        {
          "name": "_signature",
          "type": "bytes"
        },
        {
          "name": "_to",
          "type": "address"
        },
        {
          "name": "_value",
          "type": "uint256"
        },
        {
          "name": "_fee",
          "type": "uint256"
        },
        {
          "name": "_nonce",
          "type": "uint256"
        }
      ],
      "name": "transferPreSigned",
      "outputs": [
        {
          "name": "",
          "type": "bool"
        }
      ],
      "payable": false,
      "stateMutability": "nonpayable",
      "type": "function"
    },
    {
      "constant": true,
      "inputs": [
        {
          "name": "_token",
          "type": "address"
        },
        {
          "name": "_to",
          "type": "address"
        },
        {
          "name": "_value",
          "type": "uint256"
        },
        {
          "name": "_fee",
          "type": "uint256"
        },
        {
          "name": "_nonce",
          "type": "uint256"
        }
      ],
      "name": "transferPreSignedHashing",
      "outputs": [
        {
          "name": "",
          "type": "bytes32"
        }
      ],
      "payable": false,
      "stateMutability": "pure",
      "type": "function"
    },
    {
      "constant": false,
      "inputs": [
        {
          "name": "to",
          "type": "address"
        },
        {
          "name": "value",
          "type": "uint256"
        }
      ],
      "name": "settle",
      "outputs": [
        {
          "name": "",
          "type": "bool"
        }
      ],
      "payable": false,
      "stateMutability": "nonpayable",
      "type": "function"
    },
    {
      "constant": true,
      "inputs": [],
      "name": "totalSupply",
      "outputs": [
        {
          "name": "",
          "type": "uint256"
        }
      ],
      "payable": false,
      "stateMutability": "view",
      "type": "function"
    },
    {
      "constant": false,
      "inputs": [
        {
          "name": "from",
          "type": "address"
        },
        {
          "name": "to",
          "type": "address"
        },
        {
          "name": "value",
          "type": "uint256"
        }
      ],
      "name": "transferFrom",
      "outputs": [
        {
          "name": "",
          "type": "bool"
        }
      ],
      "payable": false,
      "stateMutability": "nonpayable",
      "type": "function"
    },
    {
      "constant": true,
      "inputs": [],
      "name": "decimals",
      "outputs": [
        {
          "name": "",
          "type": "uint8"
        }
      ],
      "payable": false,
      "stateMutability": "view",
      "type": "function"
    },
    {
      "constant": false,
      "inputs": [
        {
          "name": "spender",
          "type": "address"
        },
        {
          "name": "addedValue",
          "type": "uint256"
        }
      ],
      "name": "increaseAllowance",
      "outputs": [
        {
          "name": "",
          "type": "bool"
        }
      ],
      "payable": false,
      "stateMutability": "nonpayable",
      "type": "function"
    },
    {
      "constant": true,
      "inputs": [],
      "name": "canTransferBeforeStartTime",
      "outputs": [
        {
          "name": "",
          "type": "address"
        }
      ],
      "payable": false,
      "stateMutability": "view",
      "type": "function"
    },
    {
      "constant": true,
      "inputs": [
        {
          "name": "_token",
          "type": "address"
        },
        {
          "name": "_spender",
          "type": "address"
        },
        {
          "name": "_subtractedValue",
          "type": "uint256"
        },
        {
          "name": "_fee",
          "type": "uint256"
        },
        {
          "name": "_nonce",
          "type": "uint256"
        }
      ],
      "name": "decreaseApprovalPreSignedHashing",
      "outputs": [
        {
          "name": "",
          "type": "bytes32"
        }
      ],
      "payable": false,
      "stateMutability": "pure",
      "type": "function"
    },
    {
      "constant": false,
      "inputs": [
        {
          "name": "_signature",
          "type": "bytes"
        },
        {
          "name": "_spender",
          "type": "address"
        },
        {
          "name": "_value",
          "type": "uint256"
        },
        {
          "name": "_fee",
          "type": "uint256"
        },
        {
          "name": "_nonce",
          "type": "uint256"
        }
      ],
      "name": "approvePreSigned",
      "outputs": [
        {
          "name": "",
          "type": "bool"
        }
      ],
      "payable": false,
      "stateMutability": "nonpayable",
      "type": "function"
    },
    {
      "constant": true,
      "inputs": [
        {
          "name": "owner",
          "type": "address"
        }
      ],
      "name": "balanceOf",
      "outputs": [
        {
          "name": "",
          "type": "uint256"
        }
      ],
      "payable": false,
      "stateMutability": "view",
      "type": "function"
    },
    {
      "constant": true,
      "inputs": [
        {
          "name": "account",
          "type": "address"
        }
      ],
      "name": "canTransfer",
      "outputs": [
        {
          "name": "",
          "type": "bool"
        }
      ],
      "payable": false,
      "stateMutability": "view",
      "type": "function"
    },
    {
      "constant": false,
      "inputs": [
        {
          "name": "_signature",
          "type": "bytes"
        },
        {
          "name": "_spender",
          "type": "address"
        },
        {
          "name": "_subtractedValue",
          "type": "uint256"
        },
        {
          "name": "_fee",
          "type": "uint256"
        },
        {
          "name": "_nonce",
          "type": "uint256"
        }
      ],
      "name": "decreaseApprovalPreSigned",
      "outputs": [
        {
          "name": "",
          "type": "bool"
        }
      ],
      "payable": false,
      "stateMutability": "nonpayable",
      "type": "function"
    },
    {
      "constant": true,
      "inputs": [],
      "name": "symbol",
      "outputs": [
        {
          "name": "",
          "type": "string"
        }
      ],
      "payable": false,
      "stateMutability": "view",
      "type": "function"
    },
    {
      "constant": false,
      "inputs": [
        {
          "name": "spender",
          "type": "address"
        },
        {
          "name": "subtractedValue",
          "type": "uint256"
        }
      ],
      "name": "decreaseAllowance",
      "outputs": [
        {
          "name": "",
          "type": "bool"
        }
      ],
      "payable": false,
      "stateMutability": "nonpayable",
      "type": "function"
    },
    {
      "constant": true,
      "inputs": [
        {
          "name": "_token",
          "type": "address"
        },
        {
          "name": "_spender",
          "type": "address"
        },
        {
          "name": "_addedValue",
          "type": "uint256"
        },
        {
          "name": "_fee",
          "type": "uint256"
        },
        {
          "name": "_nonce",
          "type": "uint256"
        }
      ],
      "name": "increaseApprovalPreSignedHashing",
      "outputs": [
        {
          "name": "",
          "type": "bytes32"
        }
      ],
      "payable": false,
      "stateMutability": "pure",
      "type": "function"
    },
    {
      "constant": false,
      "inputs": [
        {
          "name": "to",
          "type": "address"
        },
        {
          "name": "value",
          "type": "uint256"
        }
      ],
      "name": "transfer",
      "outputs": [
        {
          "name": "",
          "type": "bool"
        }
      ],
      "payable": false,
      "stateMutability": "nonpayable",
      "type": "function"
    },
    {
      "constant": false,
      "inputs": [
        {
          "name": "_signature",
          "type": "bytes"
        },
        {
          "name": "_spender",
          "type": "address"
        },
        {
          "name": "_addedValue",
          "type": "uint256"
        },
        {
          "name": "_fee",
          "type": "uint256"
        },
        {
          "name": "_nonce",
          "type": "uint256"
        }
      ],
      "name": "increaseApprovalPreSigned",
      "outputs": [
        {
          "name": "",
          "type": "bool"
        }
      ],
      "payable": false,
      "stateMutability": "nonpayable",
      "type": "function"
    },
    {
      "constant": true,
      "inputs": [
        {
          "name": "_token",
          "type": "address"
        },
        {
          "name": "_from",
          "type": "address"
        },
        {
          "name": "_to",
          "type": "address"
        },
        {
          "name": "_value",
          "type": "uint256"
        },
        {
          "name": "_fee",
          "type": "uint256"
        },
        {
          "name": "_nonce",
          "type": "uint256"
        }
      ],
      "name": "transferFromPreSignedHashing",
      "outputs": [
        {
          "name": "",
          "type": "bytes32"
        }
      ],
      "payable": false,
      "stateMutability": "pure",
      "type": "function"
    },
    {
      "constant": false,
      "inputs": [
        {
          "name": "_signature",
          "type": "bytes"
        },
        {
          "name": "_from",
          "type": "address"
        },
        {
          "name": "_to",
          "type": "address"
        },
        {
          "name": "_value",
          "type": "uint256"
        },
        {
          "name": "_fee",
          "type": "uint256"
        },
        {
          "name": "_nonce",
          "type": "uint256"
        }
      ],
      "name": "transferFromPreSigned",
      "outputs": [
        {
          "name": "",
          "type": "bool"
        }
      ],
      "payable": false,
      "stateMutability": "nonpayable",
      "type": "function"
    },
    {
      "constant": true,
      "inputs": [],
      "name": "transfersStartTime",
      "outputs": [
        {
          "name": "",
          "type": "uint256"
        }
      ],
      "payable": false,
      "stateMutability": "view",
      "type": "function"
    },
    {
      "constant": true,
      "inputs": [
        {
          "name": "owner",
          "type": "address"
        },
        {
          "name": "spender",
          "type": "address"
        }
      ],
      "name": "allowance",
      "outputs": [
        {
          "name": "",
          "type": "uint256"
        }
      ],
      "payable": false,
      "stateMutability": "view",
      "type": "function"
    },
    {
      "constant": true,
      "inputs": [
        {
          "name": "_token",
          "type": "address"
        },
        {
          "name": "_spender",
          "type": "address"
        },
        {
          "name": "_value",
          "type": "uint256"
        },
        {
          "name": "_fee",
          "type": "uint256"
        },
        {
          "name": "_nonce",
          "type": "uint256"
        }
      ],
      "name": "approvePreSignedHashing",
      "outputs": [
        {
          "name": "",
          "type": "bytes32"
        }
      ],
      "payable": false,
      "stateMutability": "pure",
      "type": "function"
    },
    {
      "anonymous": false,
      "inputs": [
        {
          "indexed": true,
          "name": "from",
          "type": "address"
        },
        {
          "indexed": true,
          "name": "to",
          "type": "address"
        },
        {
          "indexed": true,
          "name": "delegate",
          "type": "address"
        },
        {
          "indexed": false,
          "name": "amount",
          "type": "uint256"
        },
        {
          "indexed": false,
          "name": "fee",
          "type": "uint256"
        }
      ],
      "name": "TransferPreSigned",
      "type": "event"
    },
    {
      "anonymous": false,
      "inputs": [
        {
          "indexed": true,
          "name": "from",
          "type": "address"
        },
        {
          "indexed": true,
          "name": "to",
          "type": "address"
        },
        {
          "indexed": true,
          "name": "delegate",
          "type": "address"
        },
        {
          "indexed": false,
          "name": "amount",
          "type": "uint256"
        },
        {
          "indexed": false,
          "name": "fee",
          "type": "uint256"
        }
      ],
      "name": "ApprovalPreSigned",
      "type": "event"
    },
    {
      "anonymous": false,
      "inputs": [
        {
          "indexed": false,
          "name": "from",
          "type": "address"
        },
        {
          "indexed": false,
          "name": "fromBalance",
          "type": "uint256"
        },
        {
          "indexed": false,
          "name": "to",
          "type": "address"
        },
        {
          "indexed": false,
          "name": "toBalance",
          "type": "uint256"
        },
        {
          "indexed": false,
          "name": "amount",
          "type": "uint256"
        }
      ],
      "name": "TransferDetails",
      "type": "event"
    },
    {
      "anonymous": false,
      "inputs": [
        {
          "indexed": false,
          "name": "timestamp",
          "type": "uint256"
        },
        {
          "indexed": false,
          "name": "from",
          "type": "address"
        },
        {
          "indexed": false,
          "name": "recipient",
          "type": "address"
        },
        {
          "indexed": false,
          "name": "amount",
          "type": "uint256"
        }
      ],
      "name": "Settlement",
      "type": "event"
    },
    {
      "anonymous": false,
      "inputs": [
        {
          "indexed": true,
          "name": "from",
          "type": "address"
        },
        {
          "indexed": true,
          "name": "to",
          "type": "address"
        },
        {
          "indexed": false,
          "name": "value",
          "type": "uint256"
        }
      ],
      "name": "Transfer",
      "type": "event"
    },
    {
      "anonymous": false,
      "inputs": [
        {
          "indexed": true,
          "name": "owner",
          "type": "address"
        },
        {
          "indexed": true,
          "name": "spender",
          "type": "address"
        },
        {
          "indexed": false,
          "name": "value",
          "type": "uint256"
        }
      ],
      "name": "Approval",
      "type": "event"
    },
    {
      "constant": false,
      "inputs": [
        {
          "name": "name",
          "type": "string"
        },
        {
          "name": "symbol",
          "type": "string"
        },
        {
          "name": "decimals",
          "type": "uint8"
        }
      ],
      "name": "initialize",
      "outputs": [],
      "payable": false,
      "stateMutability": "nonpayable",
      "type": "function"
    },
    {
      "constant": false,
      "inputs": [
        {
          "name": "_holder",
          "type": "address"
        },
        {
          "name": "_transfersStartTime",
          "type": "uint256"
        }
      ],
      "name": "initialize",
      "outputs": [],
      "payable": false,
      "stateMutability": "nonpayable",
      "type": "function"
    },
    {
      "constant": false,
      "inputs": [
        {
          "name": "start",
          "type": "uint256"
        },
        {
          "name": "account",
          "type": "address"
        }
      ],
      "name": "initialize",
      "outputs": [],
      "payable": false,
      "stateMutability": "nonpayable",
      "type": "function"
    }
  ],
  "bytecode": "0x608060405234801561001057600080fd5b50612195806100206000396000f3006080604052600436106101695763ffffffff7c010000000000000000000000000000000000000000000000000000000060003504166306fdde03811461016e578063095ea7b3146101f85780631296830d1461023057806315420b71146102a357806315afd409146102e55780631624f6c61461030957806318160ddd146103a757806323b872dd146103bc578063313ce567146103e6578063395093511461041157806345b6d7dc1461043557806359388d7814610466578063617b390b1461049657806370a082311461050957806378fc3cb31461052a5780638be527831461054b57806395d89b41146105be578063a457c2d7146105d3578063a45f71ff146105f7578063a9059cbb14610627578063adb8249e1461064b578063b7656dc5146106be578063bca50515146106f4578063cd6dc68714610771578063d0f22e9c14610795578063da35a26f146107aa578063dd62ed3e146107ce578063f7ac9c2e146107f5575b600080fd5b34801561017a57600080fd5b50610183610825565b6040805160208082528351818301528351919283929083019185019080838360005b838110156101bd5781810151838201526020016101a5565b50505050905090810190601f1680156101ea5780820380516001836020036101000a031916815260200191505b509250505060405180910390f35b34801561020457600080fd5b5061021c600160a060020a03600435166024356108bc565b604080519115158252519081900360200190f35b34801561023c57600080fd5b506040805160206004803580820135601f810184900484028501840190955284845261021c94369492936024939284019190819084018382808284375094975050508335600160a060020a03169450505060208201359160408101359150606001356108d3565b3480156102af57600080fd5b506102d3600160a060020a0360043581169060243516604435606435608435610a62565b60408051918252519081900360200190f35b3480156102f157600080fd5b5061021c600160a060020a0360043516602435610b46565b34801561031557600080fd5b506040805160206004803580820135601f81018490048402850184019095528484526103a594369492936024939284019190819084018382808284375050604080516020601f89358b018035918201839004830284018301909452808352979a9998810197919650918201945092508291508401838280828437509497505050923560ff169350610c2692505050565b005b3480156103b357600080fd5b506102d3610d5f565b3480156103c857600080fd5b5061021c600160a060020a0360043581169060243516604435610d65565b3480156103f257600080fd5b506103fb610df2565b6040805160ff9092168252519081900360200190f35b34801561041d57600080fd5b5061021c600160a060020a0360043516602435610dfb565b34801561044157600080fd5b5061044a610e3c565b60408051600160a060020a039092168252519081900360200190f35b34801561047257600080fd5b506102d3600160a060020a0360043581169060243516604435606435608435610e4b565b3480156104a257600080fd5b506040805160206004803580820135601f810184900484028501840190955284845261021c94369492936024939284019190819084018382808284375094975050508335600160a060020a0316945050506020820135916040810135915060600135610ef8565b34801561051557600080fd5b506102d3600160a060020a0360043516611087565b34801561053657600080fd5b5061021c600160a060020a03600435166110a2565b34801561055757600080fd5b506040805160206004803580820135601f810184900484028501840190955284845261021c94369492936024939284019190819084018382808284375094975050508335600160a060020a03169450505060208201359160408101359150606001356110c4565b3480156105ca57600080fd5b50610183611291565b3480156105df57600080fd5b5061021c600160a060020a03600435166024356112f2565b34801561060357600080fd5b506102d3600160a060020a036004358116906024351660443560643560843561132e565b34801561063357600080fd5b5061021c600160a060020a03600435166024356113db565b34801561065757600080fd5b506040805160206004803580820135601f810184900484028501840190955284845261021c94369492936024939284019190819084018382808284375094975050508335600160a060020a031694505050602082013591604081013591506060013561145d565b3480156106ca57600080fd5b506102d3600160a060020a036004358116906024358116906044351660643560843560a435611603565b34801561070057600080fd5b506040805160206004803580820135601f810184900484028501840190955284845261021c94369492936024939284019190819084018382808284375094975050600160a060020a038535811696506020860135169460408101359450606081013593506080013591506116f29050565b34801561077d57600080fd5b506103a5600160a060020a0360043516602435611896565b3480156107a157600080fd5b506102d3611a30565b3480156107b657600080fd5b506103a5600435600160a060020a0360243516611a36565b3480156107da57600080fd5b506102d3600160a060020a0360043581169060243516611b53565b34801561080157600080fd5b506102d3600160a060020a0360043581169060243516604435606435608435611b7e565b60338054604080516020601f60026000196101006001881615020190951694909404938401819004810282018101909252828152606093909290918301828280156108b15780601f10610886576101008083540402835291602001916108b1565b820191906000526020600020905b81548152906001019060200180831161089457829003601f168201915b505050505090505b90565b60006108c9338484611c2b565b5060015b92915050565b6000808080600160a060020a03881615156108ed57600080fd5b6108fa3089898989610a62565b9250610906838a611cb7565b9150600160a060020a038216151561091d57600080fd5b604080516c01000000000000000000000000600160a060020a03851602602080830191909152603480830187905283518084039091018152605490920192839052815191929182918401908083835b6020831061098b5780518252601f19909201916020918201910161096c565b51815160209384036101000a600019018019909216911617905260408051929094018290039091206000818152609d909252929020549194505060ff161591506109d6905057600080fd5b6109e1828989611d8c565b6109ec823388611d8c565b6000818152609d6020908152604091829020805460ff19166001179055815189815290810188905281513392600160a060020a038c811693908716927fec5a73fd1f178be20c1bca1b406cbf4b5c20d833b66e582fc122fb4baa0fc2a4929181900390910190a450600198975050505050505050565b604080517f15420b71000000000000000000000000000000000000000000000000000000006020808301919091526c01000000000000000000000000600160a060020a03808a16820260248501528816026038830152604c8201869052606c8201859052608c8083018590528351808403909101815260ac909201928390528151600093918291908401908083835b60208310610b105780518252601f199092019160209182019101610af1565b5181516020939093036101000a600019018019909116921691909117905260405192018290039091209998505050505050505050565b6000610b528383611e80565b15610c1d577f850383053a4e0cc8b97828882fc80543c308bd075cc5bc454b28243814fa884633610b8233611087565b85610b8c87611087565b60408051600160a060020a0395861681526020810194909452919093168282015260608201929092526080810185905290519081900360a00190a160408051428152336020820152600160a060020a038516818301526060810184905290517f694d4af865c381294c69b304b233e65cd773b9dff4f5563d50d5424fe5a33c3e9181900360800190a15060016108cd565b50600092915050565b60008054610100900460ff1680610c405750610c40611e8d565b80610c4e575060005460ff16155b1515610ce157604080517f08c379a000000000000000000000000000000000000000000000000000000000815260206004820152602e60248201527f436f6e747261637420696e7374616e63652068617320616c726561647920626560448201527f656e20696e697469616c697a6564000000000000000000000000000000000000606482015290519081900360840190fd5b5060008054600161010061ff00198316811760ff191691909117909255845191900460ff1690610d189060339060208701906120db565b508251610d2c9060349060208601906120db565b506035805460ff90931660ff1990931692909217909155600080549115156101000261ff00199092169190911790555050565b606a5490565b6000610d70336110a2565b1515610ddd57604080517f08c379a000000000000000000000000000000000000000000000000000000000815260206004820152601c60248201527f5472616e736665727320617265206e6f74207965742061637469766500000000604482015290519081900360640190fd5b610de8848484611e97565b90505b9392505050565b60355460ff1690565b336000818152606960209081526040808320600160a060020a038716845290915281205490916108c9918590610e37908663ffffffff611f2b16565b611c2b565b609f54600160a060020a031681565b604080517f59388d78000000000000000000000000000000000000000000000000000000006020808301919091526c01000000000000000000000000600160a060020a03808a16820260248501528816026038830152604c8201869052606c8201859052608c8083018590528351808403909101815260ac9092019283905281516000939182919084019080838360208310610b105780518252601f199092019160209182019101610af1565b6000808080600160a060020a0388161515610f1257600080fd5b610f1f3089898989611b7e565b9250610f2b838a611cb7565b9150600160a060020a0382161515610f4257600080fd5b604080516c01000000000000000000000000600160a060020a03851602602080830191909152603480830187905283518084039091018152605490920192839052815191929182918401908083835b60208310610fb05780518252601f199092019160209182019101610f91565b51815160209384036101000a600019018019909216911617905260408051929094018290039091206000818152609d909252929020549194505060ff16159150610ffb905057600080fd5b611006828989611c2b565b611011823388611d8c565b6000818152609d6020908152604091829020805460ff19166001179055815189815290810188905281513392600160a060020a038c811693908716927f43a220267705e74ee2ceafd46afc841850db6f85a662189a7def697bbdd90ffb929181900390910190a450600198975050505050505050565b600160a060020a031660009081526068602052604090205490565b6000609e544211806108cd575050609f54600160a060020a0390811691161490565b600080808080600160a060020a03891615156110df57600080fd5b6110ec308a8a8a8a610e4b565b93506110f8848b611cb7565b9250600160a060020a038316151561110f57600080fd5b604080516c01000000000000000000000000600160a060020a03861602602080830191909152603480830188905283518084039091018152605490920192839052815191929182918401908083835b6020831061117d5780518252601f19909201916020918201910161115e565b51815160209384036101000a600019018019909216911617905260408051929094018290039091206000818152609d909252929020549195505060ff161591506111c8905057600080fd5b6111d2838a611b53565b9050808811156111ed576111e8838a6000611c2b565b61120c565b61120c838a610e378b611200888f611b53565b9063ffffffff611f3d16565b611217833389611d8c565b6000828152609d60205260409020805460ff1916600117905533600160a060020a038a81169085167f43a220267705e74ee2ceafd46afc841850db6f85a662189a7def697bbdd90ffb61126a878e611b53565b60408051918252602082018d90528051918290030190a45060019998505050505050505050565b60348054604080516020601f60026000196101006001881615020190951694909404938401819004810282018101909252828152606093909290918301828280156108b15780601f10610886576101008083540402835291602001916108b1565b336000818152606960209081526040808320600160a060020a038716845290915281205490916108c9918590610e37908663ffffffff611f3d16565b604080517fa45f71ff000000000000000000000000000000000000000000000000000000006020808301919091526c01000000000000000000000000600160a060020a03808a16820260248501528816026038830152604c8201869052606c8201859052608c8083018590528351808403909101815260ac9092019283905281516000939182919084019080838360208310610b105780518252601f199092019160209182019101610af1565b60006113e6336110a2565b151561145357604080517f08c379a000000000000000000000000000000000000000000000000000000000815260206004820152601c60248201527f5472616e736665727320617265206e6f74207965742061637469766500000000604482015290519081900360640190fd5b610deb8383611f54565b6000808080600160a060020a038816151561147757600080fd5b611484308989898961132e565b9250611490838a611cb7565b9150600160a060020a03821615156114a757600080fd5b604080516c01000000000000000000000000600160a060020a03851602602080830191909152603480830187905283518084039091018152605490920192839052815191929182918401908083835b602083106115155780518252601f1990920191602091820191016114f6565b51815160209384036101000a600019018019909216911617905260408051929094018290039091206000818152609d909252929020549194505060ff16159150611560905057600080fd5b61157f8289610e378a611573878e611b53565b9063ffffffff611f2b16565b61158a823388611d8c565b6000818152609d60205260409020805460ff1916600117905533600160a060020a038981169084167f43a220267705e74ee2ceafd46afc841850db6f85a662189a7def697bbdd90ffb6115dd868d611b53565b60408051918252602082018c90528051918290030190a450600198975050505050505050565b604080517fb7656dc5000000000000000000000000000000000000000000000000000000006020808301919091526c01000000000000000000000000600160a060020a03808b1682026024850152808a1682026038850152881602604c830152606082018690526080820185905260a08083018590528351808403909101815260c0909201928390528151600093918291908401908083835b602083106116bb5780518252601f19909201916020918201910161169c565b5181516020939093036101000a600019018019909116921691909117905260405192018290039091209a9950505050505050505050565b6000808080600160a060020a038816151561170c57600080fd5b61171a308a8a8a8a8a611603565b9250611726838b611cb7565b9150600160a060020a038216151561173d57600080fd5b604080516c01000000000000000000000000600160a060020a03851602602080830191909152603480830187905283518084039091018152605490920192839052815191929182918401908083835b602083106117ab5780518252601f19909201916020918201910161178c565b51815160209384036101000a600019018019909216911617905260408051929094018290039091206000818152609d909252929020549194505060ff161591506117f6905057600080fd5b611801898989611d8c565b6118148983610e378a6112008e88611b53565b61181f823388611d8c565b6000818152609d6020908152604091829020805460ff19166001179055815189815290810188905281513392600160a060020a038c811693908e16927fec5a73fd1f178be20c1bca1b406cbf4b5c20d833b66e582fc122fb4baa0fc2a4929181900390910190a45060019998505050505050505050565b6000805481908190610100900460ff16806118b457506118b4611e8d565b806118c2575060005460ff16155b151561195557604080517f08c379a000000000000000000000000000000000000000000000000000000000815260206004820152602e60248201527f436f6e747261637420696e7374616e63652068617320616c726561647920626560448201527f656e20696e697469616c697a6564000000000000000000000000000000000000606482015290519081900360840190fd5b505060008054600161010061ff00198316811760ff19169190911790925560408051808201825260098082527f4445565f546f6b656e000000000000000000000000000000000000000000000060208084019190915283518085019094529083527f4445565f544f4b454e000000000000000000000000000000000000000000000090830152601294506b01f04ef12cb04cf1580000009390920460ff16916119fe9185610c26565b611a088486611a36565b611a128583611fdd565b600080549115156101000261ff001990921691909117905550505050565b609e5481565b60008054610100900460ff1680611a505750611a50611e8d565b80611a5e575060005460ff16155b1515611af157604080517f08c379a000000000000000000000000000000000000000000000000000000000815260206004820152602e60248201527f436f6e747261637420696e7374616e63652068617320616c726561647920626560448201527f656e20696e697469616c697a6564000000000000000000000000000000000000606482015290519081900360840190fd5b5060008054609e93909355609f805473ffffffffffffffffffffffffffffffffffffffff1916600160a060020a03939093169290921790915561ff001980831661010090811760ff19166001179091169281900460ff16151502919091179055565b600160a060020a03918216600090815260696020908152604080832093909416825291909152205490565b604080517ff7ac9c2e000000000000000000000000000000000000000000000000000000006020808301919091526c01000000000000000000000000600160a060020a03808a16820260248501528816026038830152604c8201869052606c8201859052608c8083018590528351808403909101815260ac9092019283905281516000939182919084019080838360208310610b105780518252601f199092019160209182019101610af1565b600160a060020a0382161515611c4057600080fd5b600160a060020a0383161515611c5557600080fd5b600160a060020a03808416600081815260696020908152604080832094871680845294825291829020859055815185815291517f8c5be1e5ebec7d5bd14f71427d1e84f3dd0314c0f7b2291e5b200ac8c7c3b9259281900390910190a3505050565b60008060008084516041141515611cd15760009350611d83565b50505060208201516040830151606084015160001a601b60ff82161015611cf657601b015b8060ff16601b14158015611d0e57508060ff16601c14155b15611d1c5760009350611d83565b60408051600080825260208083018085528a905260ff8516838501526060830187905260808301869052925160019360a0808501949193601f19840193928390039091019190865af1158015611d76573d6000803e3d6000fd5b5050506020604051035193505b50505092915050565b600160a060020a038316600090815260686020526040902054811115611db157600080fd5b600160a060020a0382161515611dc657600080fd5b600160a060020a038316600090815260686020526040902054611def908263ffffffff611f3d16565b600160a060020a038085166000908152606860205260408082209390935590841681522054611e24908263ffffffff611f2b16565b600160a060020a0380841660008181526068602090815260409182902094909455805185815290519193928716927fddf252ad1be2c89b69c2b068fc378daa952ba7f163c4a11628f55a4df523b3ef92918290030190a3505050565b60006108c9338484611d8c565b303b8015905b5090565b6000611ea4848484612089565b15611f21577f850383053a4e0cc8b97828882fc80543c308bd075cc5bc454b28243814fa884684611ed486611087565b85611ede87611087565b60408051600160a060020a0395861681526020810194909452919093168282015260608201929092526080810185905290519081900360a00190a1506001610deb565b5060009392505050565b600082820183811015610deb57600080fd5b60008083831115611f4d57600080fd5b5050900390565b6000611f608383611e80565b15610c1d577f850383053a4e0cc8b97828882fc80543c308bd075cc5bc454b28243814fa884633611f9033611087565b85611f9a87611087565b60408051600160a060020a0395861681526020810194909452919093168282015260608201929092526080810185905290519081900360a00190a15060016108cd565b600160a060020a0382161515611ff257600080fd5b606a54612005908263ffffffff611f2b16565b606a55600160a060020a038216600090815260686020526040902054612031908263ffffffff611f2b16565b600160a060020a03831660008181526068602090815260408083209490945583518581529351929391927fddf252ad1be2c89b69c2b068fc378daa952ba7f163c4a11628f55a4df523b3ef9281900390910190a35050565b6000612096848484611d8c565b600160a060020a0384166000908152606960209081526040808320338085529252909120546120d1918691610e37908663ffffffff611f3d16565b5060019392505050565b828054600181600116156101000203166002900490600052602060002090601f016020900481019282601f1061211c57805160ff1916838001178555612149565b82800160010185558215612149579182015b8281111561214957825182559160200191906001019061212e565b50611e93926108b99250905b80821115611e9357600081556001016121555600a165627a7a72305820be24065496cf8e69f94e007a83909f69bf9b3cf0f32cecbaa0bac7b9a22377e00029",
  "source": "pragma solidity ^0.4.24;\n\nimport \"zos-lib/contracts/Initializable.sol\";\nimport \"openzeppelin-eth/contracts/token/ERC20/ERC20Detailed.sol\";\nimport \"./PropsSidechainCompatible.sol\";\nimport \"./PropsTimeBasedTransfers.sol\";\nimport \"./ERC865Token.sol\";\n\n/**\n * @title PROPSToken\n * @dev PROPS token contract (based of ZEPToken by openzeppelin), a detailed ERC20 including pausable functionality.\n * The TPLToken integration causes tokens to only be transferrable to addresses\n * which have the validRecipient attribute in the jurisdiction.\n */\ncontract PropsToken is Initializable, ERC20Detailed, PropsSidechainCompatible, ERC865Token, PropsTimeBasedTransfers {\n\n  /**\n   * @dev Initializer function. Called only once when a proxy for the contract is created.\n   * @param _holder Address that will receive it's initial supply and be able to transfer before transfers start time\n   * @param _transfersStartTime Timestamp from which transfers are allowed   \n   */\n  function initialize(\n    address _holder,\n    uint _transfersStartTime\n  )\n    initializer\n    public\n  {\n    uint8 decimals = 18;\n    uint256 totalSupply = 0.6 * 1e9 * (10 ** uint256(decimals));\n    \n    ERC20Detailed.initialize(\"DEV_Token\", \"DEV_TOKEN\", decimals);\n    PropsTimeBasedTransfers.initialize(_transfersStartTime, _holder);    \n    _mint(_holder, totalSupply);\n  }\n\n}",
  "sourcePath": "/Users/jretina/Programming/PROPSProject/props-token-distribution/contracts/token/PropsToken.sol",
  "compiler": {
    "name": "solc",
    "version": "0.4.24+commit.e67f0147.Emscripten.clang"
  },
  "schemaVersion": "2.0.1",
  "updatedAt": "2019-02-26T00:26:39.844Z"
}