{
  "contractName": "PropsTimeBasedTransfers",
  "abi": [
    {
      "constant": false,
      "inputs": [
        {
          "name": "spender",
          "type": "address"
        },
        {
          "name": "value",
          "type": "uint256"
        }
      ],
      "name": "approve",
      "outputs": [
        {
          "name": "",
          "type": "bool"
        }
      ],
      "payable": false,
      "stateMutability": "nonpayable",
      "type": "function"
    },
    {
      "constant": true,
      "inputs": [],
      "name": "totalSupply",
      "outputs": [
        {
          "name": "",
          "type": "uint256"
        }
      ],
      "payable": false,
      "stateMutability": "view",
      "type": "function"
    },
    {
      "constant": false,
      "inputs": [
        {
          "name": "spender",
          "type": "address"
        },
        {
          "name": "addedValue",
          "type": "uint256"
        }
      ],
      "name": "increaseAllowance",
      "outputs": [
        {
          "name": "",
          "type": "bool"
        }
      ],
      "payable": false,
      "stateMutability": "nonpayable",
      "type": "function"
    },
    {
      "constant": true,
      "inputs": [],
      "name": "canTransferBeforeStartTime",
      "outputs": [
        {
          "name": "",
          "type": "address"
        }
      ],
      "payable": false,
      "stateMutability": "view",
      "type": "function"
    },
    {
      "constant": true,
      "inputs": [
        {
          "name": "owner",
          "type": "address"
        }
      ],
      "name": "balanceOf",
      "outputs": [
        {
          "name": "",
          "type": "uint256"
        }
      ],
      "payable": false,
      "stateMutability": "view",
      "type": "function"
    },
    {
      "constant": false,
      "inputs": [
        {
          "name": "spender",
          "type": "address"
        },
        {
          "name": "subtractedValue",
          "type": "uint256"
        }
      ],
      "name": "decreaseAllowance",
      "outputs": [
        {
          "name": "",
          "type": "bool"
        }
      ],
      "payable": false,
      "stateMutability": "nonpayable",
      "type": "function"
    },
    {
      "constant": true,
      "inputs": [],
      "name": "transfersStartTime",
      "outputs": [
        {
          "name": "",
          "type": "uint256"
        }
      ],
      "payable": false,
      "stateMutability": "view",
      "type": "function"
    },
    {
      "constant": true,
      "inputs": [
        {
          "name": "owner",
          "type": "address"
        },
        {
          "name": "spender",
          "type": "address"
        }
      ],
      "name": "allowance",
      "outputs": [
        {
          "name": "",
          "type": "uint256"
        }
      ],
      "payable": false,
      "stateMutability": "view",
      "type": "function"
    },
    {
      "anonymous": false,
      "inputs": [
        {
          "indexed": true,
          "name": "from",
          "type": "address"
        },
        {
          "indexed": true,
          "name": "to",
          "type": "address"
        },
        {
          "indexed": false,
          "name": "value",
          "type": "uint256"
        }
      ],
      "name": "Transfer",
      "type": "event"
    },
    {
      "anonymous": false,
      "inputs": [
        {
          "indexed": true,
          "name": "owner",
          "type": "address"
        },
        {
          "indexed": true,
          "name": "spender",
          "type": "address"
        },
        {
          "indexed": false,
          "name": "value",
          "type": "uint256"
        }
      ],
      "name": "Approval",
      "type": "event"
    },
    {
      "constant": false,
      "inputs": [
        {
          "name": "start",
          "type": "uint256"
        },
        {
          "name": "account",
          "type": "address"
        }
      ],
      "name": "initialize",
      "outputs": [],
      "payable": false,
      "stateMutability": "nonpayable",
      "type": "function"
    },
    {
      "constant": true,
      "inputs": [
        {
          "name": "account",
          "type": "address"
        }
      ],
      "name": "canTransfer",
      "outputs": [
        {
          "name": "",
          "type": "bool"
        }
      ],
      "payable": false,
      "stateMutability": "view",
      "type": "function"
    },
    {
      "constant": false,
      "inputs": [
        {
          "name": "to",
          "type": "address"
        },
        {
          "name": "value",
          "type": "uint256"
        }
      ],
      "name": "transfer",
      "outputs": [
        {
          "name": "",
          "type": "bool"
        }
      ],
      "payable": false,
      "stateMutability": "nonpayable",
      "type": "function"
    },
    {
      "constant": false,
      "inputs": [
        {
          "name": "from",
          "type": "address"
        },
        {
          "name": "to",
          "type": "address"
        },
        {
          "name": "value",
          "type": "uint256"
        }
      ],
      "name": "transferFrom",
      "outputs": [
        {
          "name": "",
          "type": "bool"
        }
      ],
      "payable": false,
      "stateMutability": "nonpayable",
      "type": "function"
    }
  ],
  "bytecode": "0x608060405234801561001057600080fd5b506108ba806100206000396000f3006080604052600436106100b95763ffffffff7c0100000000000000000000000000000000000000000000000000000000600035041663095ea7b381146100be57806318160ddd146100f657806323b872dd1461011d578063395093511461014757806345b6d7dc1461016b57806370a082311461019c57806378fc3cb3146101bd578063a457c2d7146101de578063a9059cbb14610202578063d0f22e9c14610226578063da35a26f1461023b578063dd62ed3e14610261575b600080fd5b3480156100ca57600080fd5b506100e2600160a060020a0360043516602435610288565b604080519115158252519081900360200190f35b34801561010257600080fd5b5061010b610306565b60408051918252519081900360200190f35b34801561012957600080fd5b506100e2600160a060020a036004358116906024351660443561030c565b34801561015357600080fd5b506100e2600160a060020a0360043516602435610397565b34801561017757600080fd5b50610180610447565b60408051600160a060020a039092168252519081900360200190f35b3480156101a857600080fd5b5061010b600160a060020a0360043516610456565b3480156101c957600080fd5b506100e2600160a060020a0360043516610471565b3480156101ea57600080fd5b506100e2600160a060020a0360043516602435610496565b34801561020e57600080fd5b506100e2600160a060020a03600435166024356104e1565b34801561023257600080fd5b5061010b61056a565b34801561024757600080fd5b5061025f600435600160a060020a0360243516610570565b005b34801561026d57600080fd5b5061010b600160a060020a036004358116906024351661068d565b6000600160a060020a038316151561029f57600080fd5b336000818152603460209081526040808320600160a060020a03881680855290835292819020869055805186815290519293927f8c5be1e5ebec7d5bd14f71427d1e84f3dd0314c0f7b2291e5b200ac8c7c3b925929181900390910190a350600192915050565b60355490565b600061031733610471565b151561038457604080517f08c379a000000000000000000000000000000000000000000000000000000000815260206004820152601c60248201527f5472616e736665727320617265206e6f74207965742061637469766500000000604482015290519081900360640190fd5b61038f8484846106b8565b949350505050565b6000600160a060020a03831615156103ae57600080fd5b336000908152603460209081526040808320600160a060020a03871684529091529020546103e2908363ffffffff61075516565b336000818152603460209081526040808320600160a060020a0389168085529083529281902085905580519485525191937f8c5be1e5ebec7d5bd14f71427d1e84f3dd0314c0f7b2291e5b200ac8c7c3b925929081900390910190a350600192915050565b606954600160a060020a031681565b600160a060020a031660009081526033602052604090205490565b60006068544211806104905750606954600160a060020a038381169116145b92915050565b6000600160a060020a03831615156104ad57600080fd5b336000908152603460209081526040808320600160a060020a03871684529091529020546103e2908363ffffffff61076716565b60006104ec33610471565b151561055957604080517f08c379a000000000000000000000000000000000000000000000000000000000815260206004820152601c60248201527f5472616e736665727320617265206e6f74207965742061637469766500000000604482015290519081900360640190fd5b610563838361077e565b9392505050565b60685481565b60008054610100900460ff168061058a575061058a610794565b80610598575060005460ff16155b151561062b57604080517f08c379a000000000000000000000000000000000000000000000000000000000815260206004820152602e60248201527f436f6e747261637420696e7374616e63652068617320616c726561647920626560448201527f656e20696e697469616c697a6564000000000000000000000000000000000000606482015290519081900360840190fd5b50600080546068939093556069805473ffffffffffffffffffffffffffffffffffffffff1916600160a060020a03939093169290921790915561ff001980831661010090811760ff19166001179091169281900460ff16151502919091179055565b600160a060020a03918216600090815260346020908152604080832093909416825291909152205490565b600160a060020a03831660009081526034602090815260408083203384529091528120548211156106e857600080fd5b600160a060020a038416600090815260346020908152604080832033845290915290205461071c908363ffffffff61076716565b600160a060020a038516600090815260346020908152604080832033845290915290205561074b84848461079a565b5060019392505050565b60008282018381101561056357600080fd5b6000808383111561077757600080fd5b5050900390565b600061078b33848461079a565b50600192915050565b303b1590565b600160a060020a0383166000908152603360205260409020548111156107bf57600080fd5b600160a060020a03821615156107d457600080fd5b600160a060020a0383166000908152603360205260409020546107fd908263ffffffff61076716565b600160a060020a038085166000908152603360205260408082209390935590841681522054610832908263ffffffff61075516565b600160a060020a0380841660008181526033602090815260409182902094909455805185815290519193928716927fddf252ad1be2c89b69c2b068fc378daa952ba7f163c4a11628f55a4df523b3ef92918290030190a35050505600a165627a7a72305820584eed7d18f9dea7772773c1d4f9a8d5ff41981eac517413c7c7ffb7a6cc008a0029",
  "source": "pragma solidity ^0.4.24;\n\nimport \"zos-lib/contracts/Initializable.sol\";\nimport \"openzeppelin-eth/contracts/token/ERC20/ERC20.sol\";\n\n/**\n * @title Props Sidechain Compatible\n * @dev Added a settle function and events\n **/\ncontract PropsTimeBasedTransfers is ERC20 {\n    \n    uint public transfersStartTime;\n    address public canTransferBeforeStartTime;\n\n    /**\n    * @notice The initializer function, with transfers start time `transfersStartTime`\n    * and `canTransferBeforeStartTime` address which is exempt from start time restrictions\n    * @param start uint Timestamp of when transfers can start\n    * @param account uint256 address exempt from the start date check    \n    */\n    function initialize(\n        uint start,\n        address account\n    )\n        public\n        initializer\n    {\n        transfersStartTime = start;\n        canTransferBeforeStartTime = account;\n    }\n\n    function canTransfer(address account) public view returns (bool) {\n        return (now > transfersStartTime || account==canTransferBeforeStartTime);\n    }\n\n    function transfer(\n        address to,\n        uint256 value\n    )\n    public    \n    returns (bool)\n    {\n        require(\n            canTransfer(msg.sender),\n            \"Transfers are not yet active\"\n        );\n        return super.transfer(to, value);        \n    }\n\n    function transferFrom(\n    address from,\n    address to,\n    uint256 value\n    )\n    public    \n    returns (bool)\n    {\n        require(\n            canTransfer(msg.sender),\n            \"Transfers are not yet active\"\n        );\n        return super.transferFrom(from, to, value);        \n    }    \n}\n",
  "sourcePath": "/Users/jretina/Programming/PROPSProject/props-token-distribution/contracts/token/PropsTimeBasedTransfers.sol",
  "compiler": {
    "name": "solc",
    "version": "0.4.24+commit.e67f0147.Emscripten.clang"
  },
  "schemaVersion": "2.0.1",
  "updatedAt": "2019-01-29T09:08:14.861Z"
}