{
  "contractName": "PropsRewardsLib",
  "abi": [
    {
      "constant": true,
      "inputs": [
        {
          "name": "_self",
          "type": "PropsRewardsLib.Data storage"
        },
        {
          "name": "_rewardsDay",
          "type": "uint256"
        },
        {
          "name": "_rewardsHash",
          "type": "bytes32"
        },
        {
          "name": "_allValidators",
          "type": "bool"
        }
      ],
      "name": "calculateValidatorRewards",
      "outputs": [
        {
          "name": "",
          "type": "uint256"
        }
      ],
      "payable": false,
      "stateMutability": "view",
      "type": "function"
    },
    {
      "constant": false,
      "inputs": [
        {
          "name": "_self",
          "type": "PropsRewardsLib.Data storage"
        },
        {
          "name": "_rewardsDay",
          "type": "uint256"
        },
        {
          "name": "_rewardsHash",
          "type": "bytes32"
        },
        {
          "name": "_applications",
          "type": "address[]"
        },
        {
          "name": "_amounts",
          "type": "uint256[]"
        },
        {
          "name": "_currentTotalSupply",
          "type": "uint256"
        }
      ],
      "name": "calculateAndFinalizeApplicationRewards",
      "outputs": [
        {
          "name": "",
          "type": "uint256"
        }
      ],
      "payable": false,
      "stateMutability": "nonpayable",
      "type": "function"
    },
    {
      "constant": false,
      "inputs": [
        {
          "name": "_self",
          "type": "PropsRewardsLib.Data storage"
        },
        {
          "name": "_rewardsDay",
          "type": "uint256"
        },
        {
          "name": "_rewardsHash",
          "type": "bytes32"
        },
        {
          "name": "_currentTotalSupply",
          "type": "uint256"
        }
      ],
      "name": "_finalizeDailyApplicationRewards",
      "outputs": [],
      "payable": false,
      "stateMutability": "nonpayable",
      "type": "function"
    },
    {
      "constant": true,
      "inputs": [
        {
          "name": "_self",
          "type": "PropsRewardsLib.Data storage"
        },
        {
          "name": "_name",
          "type": "PropsRewardsLib.ParameterName"
        },
        {
          "name": "_rewardsDay",
          "type": "uint256"
        }
      ],
      "name": "getParameterValue",
      "outputs": [
        {
          "name": "",
          "type": "uint256"
        }
      ],
      "payable": false,
      "stateMutability": "view",
      "type": "function"
    },
    {
      "constant": false,
      "inputs": [
        {
          "name": "_self",
          "type": "PropsRewardsLib.Data storage"
        },
        {
          "name": "_name",
          "type": "PropsRewardsLib.ParameterName"
        },
        {
          "name": "_value",
          "type": "uint256"
        },
        {
          "name": "_rewardsDay",
          "type": "uint256"
        }
      ],
      "name": "updateParameter",
      "outputs": [
        {
          "name": "",
          "type": "bool"
        }
      ],
      "payable": false,
      "stateMutability": "nonpayable",
      "type": "function"
    },
    {
      "constant": false,
      "inputs": [
        {
          "name": "_self",
          "type": "PropsRewardsLib.Data storage"
        },
        {
          "name": "_entityType",
          "type": "PropsRewardsLib.RewardedEntityType"
        },
        {
          "name": "_name",
          "type": "bytes32"
        },
        {
          "name": "_rewardsAddress",
          "type": "address"
        },
        {
          "name": "_sidechainAddress",
          "type": "address"
        }
      ],
      "name": "updateEntity",
      "outputs": [
        {
          "name": "",
          "type": "bool"
        }
      ],
      "payable": false,
      "stateMutability": "nonpayable",
      "type": "function"
    },
    {
      "constant": false,
      "inputs": [
        {
          "name": "_self",
          "type": "PropsRewardsLib.Data storage"
        },
        {
          "name": "_name",
          "type": "bytes32"
        },
        {
          "name": "_rewardsAddress",
          "type": "address"
        },
        {
          "name": "_sidechainAddress",
          "type": "address"
        }
      ],
      "name": "updateApplication",
      "outputs": [
        {
          "name": "",
          "type": "uint256"
        }
      ],
      "payable": false,
      "stateMutability": "nonpayable",
      "type": "function"
    },
    {
      "constant": false,
      "inputs": [
        {
          "name": "_self",
          "type": "PropsRewardsLib.Data storage"
        },
        {
          "name": "_name",
          "type": "bytes32"
        },
        {
          "name": "_rewardsAddress",
          "type": "address"
        },
        {
          "name": "_sidechainAddress",
          "type": "address"
        }
      ],
      "name": "updateValidator",
      "outputs": [
        {
          "name": "",
          "type": "uint256"
        }
      ],
      "payable": false,
      "stateMutability": "nonpayable",
      "type": "function"
    },
    {
      "constant": false,
      "inputs": [
        {
          "name": "_self",
          "type": "PropsRewardsLib.Data storage"
        },
        {
          "name": "_rewardsDay",
          "type": "uint256"
        },
        {
          "name": "_validators",
          "type": "address[]"
        }
      ],
      "name": "setValidators",
      "outputs": [
        {
          "name": "",
          "type": "bool"
        }
      ],
      "payable": false,
      "stateMutability": "nonpayable",
      "type": "function"
    },
    {
      "constant": false,
      "inputs": [
        {
          "name": "_self",
          "type": "PropsRewardsLib.Data storage"
        },
        {
          "name": "_rewardsDay",
          "type": "uint256"
        },
        {
          "name": "_applications",
          "type": "address[]"
        }
      ],
      "name": "setApplications",
      "outputs": [
        {
          "name": "",
          "type": "bool"
        }
      ],
      "payable": false,
      "stateMutability": "nonpayable",
      "type": "function"
    },
    {
      "constant": true,
      "inputs": [
        {
          "name": "_self",
          "type": "PropsRewardsLib.Data storage"
        },
        {
          "name": "_entityType",
          "type": "PropsRewardsLib.RewardedEntityType"
        },
        {
          "name": "_rewardsDay",
          "type": "uint256"
        }
      ],
      "name": "getEntities",
      "outputs": [
        {
          "name": "",
          "type": "address[]"
        }
      ],
      "payable": false,
      "stateMutability": "view",
      "type": "function"
    },
    {
      "constant": true,
      "inputs": [
        {
          "name": "_self",
          "type": "PropsRewardsLib.Data storage"
        },
        {
          "name": "_rewardsDay",
          "type": "uint256"
        },
        {
          "name": "_currentTotalSupply",
          "type": "uint256"
        }
      ],
      "name": "_getMaxAppRewardsDailyAmount",
      "outputs": [
        {
          "name": "",
          "type": "uint256"
        }
      ],
      "payable": false,
      "stateMutability": "view",
      "type": "function"
    },
    {
      "constant": true,
      "inputs": [
        {
          "name": "_self",
          "type": "PropsRewardsLib.Data storage"
        },
        {
          "name": "_rewardsDay",
          "type": "uint256"
        },
        {
          "name": "_numOfValidators",
          "type": "uint256"
        }
      ],
      "name": "_getValidatorRewardsDailyAmountPerValidator",
      "outputs": [
        {
          "name": "",
          "type": "uint256"
        }
      ],
      "payable": false,
      "stateMutability": "view",
      "type": "function"
    },
    {
      "constant": true,
      "inputs": [
        {
          "name": "_self",
          "type": "PropsRewardsLib.Data storage"
        },
        {
          "name": "_applications",
          "type": "address[]"
        },
        {
          "name": "_amounts",
          "type": "uint256[]"
        }
      ],
      "name": "_validateSubmittedData",
      "outputs": [
        {
          "name": "",
          "type": "uint256"
        }
      ],
      "payable": false,
      "stateMutability": "view",
      "type": "function"
    },
    {
      "constant": true,
      "inputs": [
        {
          "name": "_self",
          "type": "PropsRewardsLib.Data storage"
        },
        {
          "name": "_rewardsDay",
          "type": "uint256"
        },
        {
          "name": "_rewardsHash",
          "type": "bytes32"
        },
        {
          "name": "_applications",
          "type": "address[]"
        },
        {
          "name": "_amounts",
          "type": "uint256[]"
        }
      ],
      "name": "_rewardsHashIsValid",
      "outputs": [
        {
          "name": "",
          "type": "bool"
        }
      ],
      "payable": false,
      "stateMutability": "view",
      "type": "function"
    },
    {
      "constant": true,
      "inputs": [
        {
          "name": "_self",
          "type": "PropsRewardsLib.Data storage"
        },
        {
          "name": "_rewardsDay",
          "type": "uint256"
        }
      ],
      "name": "_requiredValidatorsForValidatorsRewards",
      "outputs": [
        {
          "name": "",
          "type": "uint256"
        }
      ],
      "payable": false,
      "stateMutability": "view",
      "type": "function"
    },
    {
      "constant": true,
      "inputs": [
        {
          "name": "_self",
          "type": "PropsRewardsLib.Data storage"
        },
        {
          "name": "_rewardsDay",
          "type": "uint256"
        }
      ],
      "name": "_requiredValidatorsForAppRewards",
      "outputs": [
        {
          "name": "",
          "type": "uint256"
        }
      ],
      "payable": false,
      "stateMutability": "view",
      "type": "function"
    },
    {
      "constant": true,
      "inputs": [
        {
          "name": "_self",
          "type": "PropsRewardsLib.Data storage"
        }
      ],
      "name": "_currentRewardsDay",
      "outputs": [
        {
          "name": "",
          "type": "uint256"
        }
      ],
      "payable": false,
      "stateMutability": "view",
      "type": "function"
    },
    {
      "constant": false,
      "inputs": [
        {
          "name": "_self",
          "type": "PropsRewardsLib.Data storage"
        },
        {
          "name": "_rewardsHash",
          "type": "bytes32"
        }
      ],
      "name": "_resetDailyRewards",
      "outputs": [
        {
          "name": "",
          "type": "bool"
        }
      ],
      "payable": false,
      "stateMutability": "nonpayable",
      "type": "function"
    }
  ],
  "bytecode": "0x613822610030600b82828239805160001a6073146000811461002057610022565bfe5b5030600052607381538281f300730000000000000000000000000000000000000000301460806040526004361061011e576000357c0100000000000000000000000000000000000000000000000000000000900463ffffffff1680630e295071146101235780630f9887a0146101b257806311cb33da1461029b57806314a68c38146103015780633f065dc91461035957806346e3a29814610413578063519e72ab146104b357806363cad06a146104fb578063899327351461058d578063a352a57d14610619578063a4143f8314610657578063c3ac1c7814610695578063c8cd615f146106e4578063cb27ba3e146107ba578063cc1b8c9c1461080d578063d81b70501461089f578063e2c593d3146108ea578063e3dbf5e314610979578063e8fc02ab146109c1575b600080fd5b81801561012f57600080fd5b5061019c600480360381019080803590602001909291908035600019169060200190929190803573ffffffffffffffffffffffffffffffffffffffff169060200190929190803573ffffffffffffffffffffffffffffffffffffffff1690602001909291905050506109f5565b6040518082815260200191505060405180910390f35b8180156101be57600080fd5b5061028560048036038101908080359060200190929190803590602001909291908035600019169060200190929190803590602001908201803590602001908080602002602001604051908101604052809392919081815260200183836020028082843782019150505050505091929192908035906020019082018035906020019080806020026020016040519081016040528093929190818152602001838360200280828437820191505050505050919291929080359060200190929190505050610ce4565b6040518082815260200191505060405180910390f35b8180156102a757600080fd5b506102e760048036038101908080359060200190929190803560ff169060200190929190803590602001909291908035906020019092919050505061153f565b604051808215151515815260200191505060405180910390f35b610343600480360381019080803590602001909291908035906020019092919080356000191690602001909291908035151590602001909291905050506116ee565b6040518082815260200191505060405180910390f35b6103fd6004803603810190808035906020019092919080359060200190820180359060200190808060200260200160405190810160405280939291908181526020018383602002808284378201915050505050509192919290803590602001908201803590602001908080602002602001604051908101604052809392919081815260200183836020028082843782019150505050505091929192905050506117b5565b6040518082815260200191505060405180910390f35b81801561041f57600080fd5b5061049960048036038101908080359060200190929190803560ff1690602001909291908035600019169060200190929190803573ffffffffffffffffffffffffffffffffffffffff169060200190929190803573ffffffffffffffffffffffffffffffffffffffff16906020019092919050505061192e565b604051808215151515815260200191505060405180910390f35b6104e5600480360381019080803590602001909291908035906020019092919080359060200190929190505050611a84565b6040518082815260200191505060405180910390f35b81801561050757600080fd5b50610573600480360381019080803590602001909291908035906020019092919080359060200190820180359060200190808060200260200160405190810160405280939291908181526020018383602002808284378201915050505050509192919290505050611af2565b604051808215151515815260200191505060405180910390f35b6105c260048036038101908080359060200190929190803560ff16906020019092919080359060200190929190505050611cce565b6040518080602001828103825283818151815260200191508051906020019060200280838360005b838110156106055780820151818401526020810190506105ea565b505050509050019250505060405180910390f35b61064160048036038101908080359060200190929190803590602001909291905050506121c8565b6040518082815260200191505060405180910390f35b61067f6004803603810190808035906020019092919080359060200190929190505050612335565b6040518082815260200191505060405180910390f35b8180156106a157600080fd5b506106e2600480360381019080803590602001909291908035906020019092919080356000191690602001909291908035906020019092919050505061252e565b005b6107a0600480360381019080803590602001909291908035906020019092919080356000191690602001909291908035906020019082018035906020019080806020026020016040519081016040528093929190818152602001838360200280828437820191505050505050919291929080359060200190820180359060200190808060200260200160405190810160405280939291908181526020018383602002808284378201915050505050509192919290505050612585565b604051808215151515815260200191505060405180910390f35b8180156107c657600080fd5b506107f3600480360381019080803590602001909291908035600019169060200190929190505050612932565b604051808215151515815260200191505060405180910390f35b81801561081957600080fd5b50610885600480360381019080803590602001909291908035906020019092919080359060200190820180359060200190808060200260200160405190810160405280939291908181526020018383602002808284378201915050505050509192919290505050612b13565b604051808215151515815260200191505060405180910390f35b6108d460048036038101908080359060200190929190803560ff16906020019092919080359060200190929190505050612cef565b6040518082815260200191505060405180910390f35b8180156108f657600080fd5b50610963600480360381019080803590602001909291908035600019169060200190929190803573ffffffffffffffffffffffffffffffffffffffff169060200190929190803573ffffffffffffffffffffffffffffffffffffffff169060200190929190505050612d76565b6040518082815260200191505060405180910390f35b6109ab600480360381019080803590602001909291908035906020019092919080359060200190929190505050613066565b6040518082815260200191505060405180910390f35b6109df600480360381019080803590602001909291905050506130db565b6040518082815260200191505060405180910390f35b6000838560020160003373ffffffffffffffffffffffffffffffffffffffff1673ffffffffffffffffffffffffffffffffffffffff1681526020019081526020016000206000018160001916905550828560020160003373ffffffffffffffffffffffffffffffffffffffff1673ffffffffffffffffffffffffffffffffffffffff16815260200190815260200160002060010160006101000a81548173ffffffffffffffffffffffffffffffffffffffff021916908373ffffffffffffffffffffffffffffffffffffffff160217905550818560020160003373ffffffffffffffffffffffffffffffffffffffff1673ffffffffffffffffffffffffffffffffffffffff16815260200190815260200160002060020160006101000a81548173ffffffffffffffffffffffffffffffffffffffff021916908373ffffffffffffffffffffffffffffffffffffffff1602179055508460020160003373ffffffffffffffffffffffffffffffffffffffff1673ffffffffffffffffffffffffffffffffffffffff16815260200190815260200160002060020160149054906101000a900460ff161515610cce57846003013390806001815401808255809150509060018203906000526020600020016000909192909190916101000a81548173ffffffffffffffffffffffffffffffffffffffff021916908373ffffffffffffffffffffffffffffffffffffffff1602179055505060018560020160003373ffffffffffffffffffffffffffffffffffffffff1673ffffffffffffffffffffffffffffffffffffffff16815260200190815260200160002060020160146101000a81548160ff02191690831515021790555060018560020160003373ffffffffffffffffffffffffffffffffffffffff1673ffffffffffffffffffffffffffffffffffffffff16815260200190815260200160002060020160156101000a81548160ff02191690836001811115610cc857fe5b02179055505b600180811115610cda57fe5b9050949350505050565b600080878780610cf3836130db565b118015610d035750816017015481115b1515610d9d576040517f08c379a00000000000000000000000000000000000000000000000000000000081526004018080602001828103825260398152602001807f4d75737420626520666f7220612070726576696f75732064617920627574206181526020017f6674657220746865206c6173742072657761726473206461790000000000000081525060400191505060405180910390fd5b898881600f016000016000826000191660001916815260200190815260200160002060000160003373ffffffffffffffffffffffffffffffffffffffff1673ffffffffffffffffffffffffffffffffffffffff16815260200190815260200160002060009054906101000a900460ff16151515610ea8576040517f08c379a00000000000000000000000000000000000000000000000000000000081526004018080602001828103825260248152602001807f4d757374206265206f6e65207375626d697373696f6e207065722076616c696481526020017f61746f720000000000000000000000000000000000000000000000000000000081525060400191505060405180910390fd5b8b8b610fe9826005016060604051908101604052908160028201805480602002602001604051908101604052809291908181526020018280548015610f4257602002820191906000526020600020905b8160009054906101000a900473ffffffffffffffffffffffffffffffffffffffff1673ffffffffffffffffffffffffffffffffffffffff1681526020019060010190808311610ef8575b5050505050815260200160038201805480602002602001604051908101604052809291908181526020018280548015610fd057602002820191906000526020600020905b8160009054906101000a900473ffffffffffffffffffffffffffffffffffffffff1673ffffffffffffffffffffffffffffffffffffffff1681526020019060010190808311610f86575b505050505081526020016004820154815250508261313a565b15156110e0578160050160000160003373ffffffffffffffffffffffffffffffffffffffff1673ffffffffffffffffffffffffffffffffffffffff16815260200190815260200160002060009054906101000a900460ff1615156110db576040517f08c379a00000000000000000000000000000000000000000000000000000000081526004018080602001828103825260248152602001807f4d75737420626520612063757272656e742073656c65637465642076616c696481526020017f61746f720000000000000000000000000000000000000000000000000000000081525060400191505060405180910390fd5b6111cd565b8160050160010160003373ffffffffffffffffffffffffffffffffffffffff1673ffffffffffffffffffffffffffffffffffffffff16815260200190815260200160002060009054906101000a900460ff1615156111cc576040517f08c379a00000000000000000000000000000000000000000000000000000000081526004018080602001828103825260258152602001807f4d75737420626520612070726576696f75732073656c65637465642076616c6981526020017f6461746f7200000000000000000000000000000000000000000000000000000081525060400191505060405180910390fd5b5b6111da8e8e8e8e8e612585565b151561124e576040517f08c379a00000000000000000000000000000000000000000000000000000000081526004018080602001828103825260178152602001807f52657761726473204861736820697320696e76616c696400000000000000000081525060200191505060405180910390fd5b8d600f0160000160008d6000191660001916815260200190815260200160002060040160009054906101000a900460ff1615156112f95760018e600f0160000160008e6000191660001916815260200190815260200160002060040160006101000a81548160ff0219169083151502179055508d600f016001018c90806001815401808255809150509060018203906000526020600020016000909192909190915090600019169055505b60018e600f0160000160008e6000191660001916815260200190815260200160002060000160003373ffffffffffffffffffffffffffffffffffffffff1673ffffffffffffffffffffffffffffffffffffffff16815260200190815260200160002060006101000a81548160ff0219169083151502179055508d600f0160000160008d600019166000191681526020019081526020016000206001013390806001815401808255809150509060018203906000526020600020016000909192909190916101000a81548173ffffffffffffffffffffffffffffffffffffffff021916908373ffffffffffffffffffffffffffffffffffffffff160217905550508d600f0160000160008d60001916600019168152602001908152602001600020600201600081548092919060010191905055506114368e8e612335565b8e600f0160000160008e600019166000191681526020019081526020016000206002015414156115295761146b8e8c8c6117b5565b96506114788e8e8b613066565b8711151515611515576040517f08c379a00000000000000000000000000000000000000000000000000000000081526004018080602001828103825260308152602001807f52657761726473206461746120697320696e76616c6964202d2065786365656481526020017f206461696c7920766172696174696f6e0000000000000000000000000000000081525060400191505060405180910390fd5b6115218e8e8e8c61252e565b86975061152e565b600097505b505050505050509695505050505050565b6000848261154c826130db565b81101515156115c3576040517f08c379a00000000000000000000000000000000000000000000000000000000081526004018080602001828103825260198152602001807f4d7573742062652066757475726520726577617264734461790000000000000081525060200191505060405180910390fd5b8660040160008760038111156115d557fe5b81526020019081526020016000206002015484111515611644578487600401600088600381111561160257fe5b8152602001908152602001600020600001819055508387600401600088600381111561162a57fe5b8152602001908152602001600020600201819055506116e0565b86600401600087600381111561165657fe5b81526020019081526020016000206000015487600401600088600381111561167a57fe5b815260200190815260200160002060010181905550848760040160008860038111156116a257fe5b815260200190815260200160002060000181905550838760040160008860038111156116ca57fe5b8152602001908152602001600020600201819055505b600192505050949350505050565b6000806000600187600f01600001600087600019166000191681526020019081526020016000206003015414156117a657831561176a5761172f87876121c8565b915086600f01600001600086600019166000191681526020019081526020016000206002015482111561176557600092506117ab565b611791565b86600f01600001600086600019166000191681526020019081526020016000206002015491505b61179c878784611a84565b90508092506117ab565b600092505b5050949350505050565b60008060008060019150600090505b845181101561187a576117f785828151811015156117de57fe5b906020019060200201518461315d90919063ffffffff16565b9250866000016000878381518110151561180d57fe5b9060200190602002015173ffffffffffffffffffffffffffffffffffffffff1673ffffffffffffffffffffffffffffffffffffffff16815260200190815260200160002060020160149054906101000a900460ff16151561186d57600091505b80806001019150506117c4565b6000831180156118875750815b1515611921576040517f08c379a00000000000000000000000000000000000000000000000000000000081526004018080602001828103825260278152602001807f53756d207a65726f206f72206e6f6e65206578697374696e672061707020737581526020017f626d69747465640000000000000000000000000000000000000000000000000081525060400191505060405180910390fd5b8293505050509392505050565b60008282600073ffffffffffffffffffffffffffffffffffffffff168273ffffffffffffffffffffffffffffffffffffffff161415801561199c5750600073ffffffffffffffffffffffffffffffffffffffff168173ffffffffffffffffffffffffffffffffffffffff1614155b1515611a36576040517f08c379a000000000000000000000000000000000000000000000000000000000815260040180806020018281038252602f8152602001807f4d75737420686176652076616c6964207265776172647320616e64207369646581526020017f636861696e20616464726573736573000000000000000000000000000000000081525060400191505060405180910390fd5b60006001811115611a4357fe5b876001811115611a4f57fe5b1415611a6757611a6188878787612d76565b50611a75565b611a73888787876109f5565b505b60019250505095945050505050565b6000611ae982611adb6305f5e100611acd611aa18960038a612cef565b611abf8a600f01600201548b6016015461317e90919063ffffffff16565b61319f90919063ffffffff16565b6131dd90919063ffffffff16565b6131dd90919063ffffffff16565b90509392505050565b60008383611aff826130db565b8110151515611b76576040517f08c379a00000000000000000000000000000000000000000000000000000000081526004018080602001828103825260198152602001807f4d7573742062652066757475726520726577617264734461790000000000000081525060200191505060405180910390fd5b858460008090505b8151811015611c71578260020160008383815181101515611b9b57fe5b9060200190602002015173ffffffffffffffffffffffffffffffffffffffff1673ffffffffffffffffffffffffffffffffffffffff16815260200190815260200160002060020160149054906101000a900460ff161515611c64576040517f08c379a00000000000000000000000000000000000000000000000000000000081526004018080602001828103825260148152602001807f56616c696461746f72206d75737420657869737400000000000000000000000081525060200191505060405180910390fd5b8080600101915050611b7e565b886005016004015488118015611c91575060008960050160020180549050115b15611ca457611ca289600501613207565b505b611cb1896005018861344d565b508789600501600401819055506001955050505050509392505050565b606060006001811115611cdd57fe5b836001811115611ce957fe5b1415611f5a57611e2e84600a016060604051908101604052908160028201805480602002602001604051908101604052809291908181526020018280548015611d8757602002820191906000526020600020905b8160009054906101000a900473ffffffffffffffffffffffffffffffffffffffff1673ffffffffffffffffffffffffffffffffffffffff1681526020019060010190808311611d3d575b5050505050815260200160038201805480602002602001604051908101604052809291908181526020018280548015611e1557602002820191906000526020600020905b8160009054906101000a900473ffffffffffffffffffffffffffffffffffffffff1673ffffffffffffffffffffffffffffffffffffffff1681526020019060010190808311611dcb575b505050505081526020016004820154815250508361313a565b1515611ec75783600a01600201805480602002602001604051908101604052809291908181526020018280548015611ebb57602002820191906000526020600020905b8160009054906101000a900473ffffffffffffffffffffffffffffffffffffffff1673ffffffffffffffffffffffffffffffffffffffff1681526020019060010190808311611e71575b505050505090506121c1565b83600a01600301805480602002602001604051908101604052809291908181526020018280548015611f4e57602002820191906000526020600020905b8160009054906101000a900473ffffffffffffffffffffffffffffffffffffffff1673ffffffffffffffffffffffffffffffffffffffff1681526020019060010190808311611f04575b505050505090506121c1565b612099846005016060604051908101604052908160028201805480602002602001604051908101604052809291908181526020018280548015611ff257602002820191906000526020600020905b8160009054906101000a900473ffffffffffffffffffffffffffffffffffffffff1673ffffffffffffffffffffffffffffffffffffffff1681526020019060010190808311611fa8575b505050505081526020016003820180548060200260200160405190810160405280929190818152602001828054801561208057602002820191906000526020600020905b8160009054906101000a900473ffffffffffffffffffffffffffffffffffffffff1673ffffffffffffffffffffffffffffffffffffffff1681526020019060010190808311612036575b505050505081526020016004820154815250508361313a565b1515612132578360050160020180548060200260200160405190810160405280929190818152602001828054801561212657602002820191906000526020600020905b8160009054906101000a900473ffffffffffffffffffffffffffffffffffffffff1673ffffffffffffffffffffffffffffffffffffffff16815260200190600101908083116120dc575b505050505090506121c1565b836005016003018054806020026020016040519081016040528092919081815260200182805480156121b957602002820191906000526020600020905b8160009054906101000a900473ffffffffffffffffffffffffffffffffffffffff1673ffffffffffffffffffffffffffffffffffffffff168152602001906001019080831161216f575b505050505090505b9392505050565b600061230983600501606060405190810160405290816002820180548060200260200160405190810160405280929190818152602001828054801561226257602002820191906000526020600020905b8160009054906101000a900473ffffffffffffffffffffffffffffffffffffffff1673ffffffffffffffffffffffffffffffffffffffff1681526020019060010190808311612218575b50505050508152602001600382018054806020026020016040519081016040528092919081815260200182805480156122f057602002820191906000526020600020905b8160009054906101000a900473ffffffffffffffffffffffffffffffffffffffff1673ffffffffffffffffffffffffffffffffffffffff16815260200190600101908083116122a6575b505050505081526020016004820154815250508361313a565b1515612321578260050160020180549050905061232f565b826005016003018054905090505b92915050565b60006124768360050160606040519081016040529081600282018054806020026020016040519081016040528092919081815260200182805480156123cf57602002820191906000526020600020905b8160009054906101000a900473ffffffffffffffffffffffffffffffffffffffff1673ffffffffffffffffffffffffffffffffffffffff1681526020019060010190808311612385575b505050505081526020016003820180548060200260200160405190810160405280929190818152602001828054801561245d57602002820191906000526020600020905b8160009054906101000a900473ffffffffffffffffffffffffffffffffffffffff1673ffffffffffffffffffffffffffffffffffffffff1681526020019060010190808311612413575b505050505081526020016004820154815250508361313a565b15156124d4576124cd60016124bf6305f5e1006124b161249888600289612cef565b886005016002018054905061319f90919063ffffffff16565b6131dd90919063ffffffff16565b61315d90919063ffffffff16565b9050612528565b61252560016125176305f5e1006125096124f088600289612cef565b886005016003018054905061319f90919063ffffffff16565b6131dd90919063ffffffff16565b61315d90919063ffffffff16565b90505b92915050565b8084600f01600201819055508184600f0160030181600019169055508284600f0160040181905550600184600f01600001600084600019166000191681526020019081526020016000206003018190555050505050565b600080600080600092506126ce89600a01606060405190810160405290816002820180548060200260200160405190810160405280929190818152602001828054801561262757602002820191906000526020600020905b8160009054906101000a900473ffffffffffffffffffffffffffffffffffffffff1673ffffffffffffffffffffffffffffffffffffffff16815260200190600101908083116125dd575b50505050508152602001600382018054806020026020016040519081016040528092919081815260200182805480156126b557602002820191906000526020600020905b8160009054906101000a900473ffffffffffffffffffffffffffffffffffffffff1673ffffffffffffffffffffffffffffffffffffffff168152602001906001019080831161266b575b505050505081526020016004820154815250508961313a565b151561276857600091505b85518210156127635788600a01600001600087848151811015156126f957fe5b9060200190602002015173ffffffffffffffffffffffffffffffffffffffff1673ffffffffffffffffffffffffffffffffffffffff16815260200190815260200160002060009054906101000a900460ff16151561275657600192505b81806001019250506126d9565b6127f8565b600090505b85518110156127f75788600a016001016000878381518110151561278d57fe5b9060200190602002015173ffffffffffffffffffffffffffffffffffffffff1673ffffffffffffffffffffffffffffffffffffffff16815260200190815260200160002060009054906101000a900460ff1615156127ea57600192505b808060010191505061276d565b5b6000865111801561280a575084518651145b8015612814575082155b8015612924575086600019168887518751898960405160200180868152602001858152602001848152602001838051906020019060200280838360005b8381101561286c578082015181840152602081019050612851565b50505050905001828051906020019060200280838360005b8381101561289f578082015181840152602081019050612884565b50505050905001955050505050506040516020818303038152906040526040518082805190602001908083835b6020831015156128f157805182526020820191506020810190506020830392506128cc565b6001836020036101000a038019825116818451168082178552505050505050905001915050604051809103902060001916145b935050505095945050505050565b60008083600f01600401548460170181905550600090505b83600f016000016000846000191660001916815260200190815260200160002060010180549050811015612a4f5783600f0160000160008460001916600019168152602001908152602001600020600001600085600f0160000160008660001916600019168152602001908152602001600020600101838154811015156129cd57fe5b9060005260206000200160009054906101000a900473ffffffffffffffffffffffffffffffffffffffff1673ffffffffffffffffffffffffffffffffffffffff1673ffffffffffffffffffffffffffffffffffffffff16815260200190815260200160002060006101000a81549060ff0219169055808060010191505061294a565b83600f01600001600084600019166000191681526020019081526020016000206001016000612a7e91906137b0565b600084600f016000016000856000191660001916815260200190815260200160002060020181905550600084600f016000016000856000191660001916815260200190815260200160002060030181905550600084600f016000016000856000191660001916815260200190815260200160002060040160006101000a81548160ff0219169083151502179055505092915050565b60008383612b20826130db565b8110151515612b97576040517f08c379a00000000000000000000000000000000000000000000000000000000081526004018080602001828103825260198152602001807f4d7573742062652066757475726520726577617264734461790000000000000081525060200191505060405180910390fd5b858460008090505b8151811015612c92578260000160008383815181101515612bbc57fe5b9060200190602002015173ffffffffffffffffffffffffffffffffffffffff1673ffffffffffffffffffffffffffffffffffffffff16815260200190815260200160002060020160149054906101000a900460ff161515612c85576040517f08c379a00000000000000000000000000000000000000000000000000000000081526004018080602001828103825260168152602001807f4170706c69636174696f6e206d7573742065786973740000000000000000000081525060200191505060405180910390fd5b8080600101915050612b9f565b88600a016004015488118015612cb25750600089600a0160020180549050115b15612cc557612cc389600a01613207565b505b612cd289600a018861344d565b508789600a01600401819055506001955050505050509392505050565b6000836004016000846003811115612d0357fe5b81526020019081526020016000206002015482101515612d4857836004016000846003811115612d2f57fe5b8152602001908152602001600020600001549050612d6f565b836004016000846003811115612d5a57fe5b81526020019081526020016000206001015490505b9392505050565b6000838560000160003373ffffffffffffffffffffffffffffffffffffffff1673ffffffffffffffffffffffffffffffffffffffff1681526020019081526020016000206000018160001916905550828560000160003373ffffffffffffffffffffffffffffffffffffffff1673ffffffffffffffffffffffffffffffffffffffff16815260200190815260200160002060010160006101000a81548173ffffffffffffffffffffffffffffffffffffffff021916908373ffffffffffffffffffffffffffffffffffffffff160217905550818560000160003373ffffffffffffffffffffffffffffffffffffffff1673ffffffffffffffffffffffffffffffffffffffff16815260200190815260200160002060020160006101000a81548173ffffffffffffffffffffffffffffffffffffffff021916908373ffffffffffffffffffffffffffffffffffffffff1602179055508460000160003373ffffffffffffffffffffffffffffffffffffffff1673ffffffffffffffffffffffffffffffffffffffff16815260200190815260200160002060020160149054906101000a900460ff16151561304f57846001013390806001815401808255809150509060018203906000526020600020016000909192909190916101000a81548173ffffffffffffffffffffffffffffffffffffffff021916908373ffffffffffffffffffffffffffffffffffffffff1602179055505060018560000160003373ffffffffffffffffffffffffffffffffffffffff1673ffffffffffffffffffffffffffffffffffffffff16815260200190815260200160002060020160146101000a81548160ff02191690831515021790555060008560000160003373ffffffffffffffffffffffffffffffffffffffff1673ffffffffffffffffffffffffffffffffffffffff16815260200190815260200160002060020160156101000a81548160ff0219169083600181111561304957fe5b02179055505b6000600181111561305c57fe5b9050949350505050565b60006130d2662386f26fc100006130c461308287600188612cef565b6130b66130918960008a612cef565b6130a8888b6016015461317e90919063ffffffff16565b61319f90919063ffffffff16565b61319f90919063ffffffff16565b6131dd90919063ffffffff16565b90509392505050565b6000808260140154111561313057613129600161311b846014015461310d86601501544261317e90919063ffffffff16565b6131dd90919063ffffffff16565b61315d90919063ffffffff16565b9050613135565b600090505b919050565b60008260400151821015156131525760009050613157565b600190505b92915050565b600080828401905083811015151561317457600080fd5b8091505092915050565b60008083831115151561319057600080fd5b82840390508091505092915050565b60008060008414156131b457600091506131d6565b82840290508284828115156131c557fe5b041415156131d257600080fd5b8091505b5092915050565b6000806000831115156131ef57600080fd5b82848115156131fa57fe5b0490508091505092915050565b60008060008084600301805490501491508115801561323457508360020180549050846003018054905014155b15613248576132428461361c565b50600191505b600090505b836002018054905081101561344257811561330a5783600301846002018281548110151561327757fe5b9060005260206000200160009054906101000a900473ffffffffffffffffffffffffffffffffffffffff1690806001815401808255809150509060018203906000526020600020016000909192909190916101000a81548173ffffffffffffffffffffffffffffffffffffffff021916908373ffffffffffffffffffffffffffffffffffffffff160217905550506133a0565b836002018181548110151561331b57fe5b9060005260206000200160009054906101000a900473ffffffffffffffffffffffffffffffffffffffff16846003018281548110151561335757fe5b9060005260206000200160006101000a81548173ffffffffffffffffffffffffffffffffffffffff021916908373ffffffffffffffffffffffffffffffffffffffff1602179055505b600184600101600086600201848154811015156133b957fe5b9060005260206000200160009054906101000a900473ffffffffffffffffffffffffffffffffffffffff1673ffffffffffffffffffffffffffffffffffffffff1673ffffffffffffffffffffffffffffffffffffffff16815260200190815260200160002060006101000a81548160ff021916908315150217905550808060010191505061324d565b600192505050919050565b60008060008085600201805490501491508115801561347457508351856002018054905014155b1561348857613482856136e6565b50600191505b600090505b8351811015613610578115613520578460020184828151811015156134ae57fe5b9060200190602002015190806001815401808255809150509060018203906000526020600020016000909192909190916101000a81548173ffffffffffffffffffffffffffffffffffffffff021916908373ffffffffffffffffffffffffffffffffffffffff16021790555050613592565b838181518110151561352e57fe5b90602001906020020151856002018281548110151561354957fe5b9060005260206000200160006101000a81548173ffffffffffffffffffffffffffffffffffffffff021916908373ffffffffffffffffffffffffffffffffffffffff1602179055505b600185600001600086848151811015156135a857fe5b9060200190602002015173ffffffffffffffffffffffffffffffffffffffff1673ffffffffffffffffffffffffffffffffffffffff16815260200190815260200160002060006101000a81548160ff021916908315150217905550808060010191505061348d565b60019250505092915050565b600080600090505b82600301805490508110156136cc57826001016000846003018381548110151561364a57fe5b9060005260206000200160009054906101000a900473ffffffffffffffffffffffffffffffffffffffff1673ffffffffffffffffffffffffffffffffffffffff1673ffffffffffffffffffffffffffffffffffffffff16815260200190815260200160002060006101000a81549060ff02191690558080600101915050613624565b8260030160006136dc91906137b0565b6001915050919050565b600080600090505b826002018054905081101561379657826000016000846002018381548110151561371457fe5b9060005260206000200160009054906101000a900473ffffffffffffffffffffffffffffffffffffffff1673ffffffffffffffffffffffffffffffffffffffff1673ffffffffffffffffffffffffffffffffffffffff16815260200190815260200160002060006101000a81549060ff021916905580806001019150506136ee565b8260020160006137a691906137b0565b6001915050919050565b50805460008255906000526020600020908101906137ce91906137d1565b50565b6137f391905b808211156137ef5760008160009055506001016137d7565b5090565b905600a165627a7a7230582084fe5a8c0f7630590d498dfab1fdfa6464bdb101b8f6385deb25be4a7705f3880029",
  "source": "pragma solidity ^0.4.24;\n\nimport \"openzeppelin-eth/contracts/math/SafeMath.sol\";\n\n/**\n * @title Props Rewards Library\n * @dev Library to manage application and validators and parameters\n **/\nlibrary PropsRewardsLib {\n    using SafeMath for uint256;\n    /*\n    *  Events\n    */\n\n    /*\n    *  Storage\n    */\n\n    // The various parameters used by the contract\n    enum ParameterName { ApplicationRewardsPercent, ApplicationRewardsMaxVariationPercent, ValidatorMajorityPercent, ValidatorRewardsPercent}\n    enum RewardedEntityType { Application, Validator }\n\n    // Represents a parameter current, previous and time of change\n    struct Parameter {\n        uint256 currentValue;                   // current value in Pphm valid after timestamp\n        uint256 previousValue;                  // previous value in Pphm for use before timestamp\n        uint256 rewardsDay;                     // timestamp of when the value was updated\n    }\n    // Represents application details\n    struct RewardedEntity {\n        bytes32 name;                           // Application name\n        address rewardsAddress;                 // address where rewards will be minted to\n        address sidechainAddress;               // address used on the sidechain\n        bool isInitializedState;                // A way to check if there's something in the map and whether it is already added to the list\n        RewardedEntityType entityType;          // Type of rewarded entity\n    }\n\n    // Represents validators current and previous lists\n    struct RewardedEntityList {\n        mapping (address => bool) current;\n        mapping (address => bool) previous;\n        address[] currentList;\n        address[] previousList;\n        uint256 rewardsDay;\n    }\n\n    // Represents daily rewards submissions and confirmations\n    struct DailyRewards {\n        mapping (bytes32 => Submission) submissions;\n        bytes32[] submittedRewardsHashes;\n        uint256 totalSupply;\n        bytes32 lastConfirmedRewardsHash;\n        uint256 lastApplicationsRewardsDay;\n    }\n\n    struct Submission {\n        mapping (address => bool) validators;\n        address[] validatorsList;\n        uint256 confirmations;\n        uint256 finalizedStatus;               // 0 - initialized, 1 - finalized\n        bool isInitializedState;               // A way to check if there's something in the map and whether it is already added to the list\n    }\n\n\n    // represent the storage structures\n    struct Data {\n        // applications data\n        mapping (address => RewardedEntity) applications;\n        address[] applicationsList;\n        // validators data\n        mapping (address => RewardedEntity) validators;\n        address[] validatorsList;\n        // adjustable parameters data\n        mapping (uint256 => Parameter) parameters; // uint256 is the parameter enum index\n        // the participating validators\n        RewardedEntityList selectedValidators;\n        // the participating applications\n        RewardedEntityList selectedApplications;\n        // daily rewards submission data\n        DailyRewards dailyRewards;\n        uint256 minSecondsBetweenDays;\n        uint256 rewardsStartTimestamp;\n        uint256 maxTotalSupply;\n        uint256 lastValidatorsRewardsDay;\n    }\n    /*\n    *  Modifiers\n    */\n    modifier onlyOneConfirmationPerValidatorPerRewardsHash(Data storage _self, bytes32 _rewardsHash) {\n        require(\n            !_self.dailyRewards.submissions[_rewardsHash].validators[msg.sender],\n            \"Must be one submission per validator\"\n        );\n         _;\n    }\n\n    modifier onlyExistingApplications(Data storage _self, address[] _entities) {\n        for (uint256 i = 0; i < _entities.length; i++) {\n            require(\n                _self.applications[_entities[i]].isInitializedState,\n                \"Application must exist\"\n            );\n        }\n        _;\n    }\n\n    modifier onlyExistingValidators(Data storage _self, address[] _entities) {\n        for (uint256 i = 0; i < _entities.length; i++) {\n            require(\n                _self.validators[_entities[i]].isInitializedState,\n                \"Validator must exist\"\n            );\n        }\n        _;\n    }\n\n    modifier onlySelectedValidators(Data storage _self, uint256 _rewardsDay) {\n        if (!_usePreviousSelectedRewardsEntityList(_self.selectedValidators, _rewardsDay)) {\n            require (\n                _self.selectedValidators.current[msg.sender],\n                \"Must be a current selected validator\"\n            );\n        } else {\n            require (\n                _self.selectedValidators.previous[msg.sender],\n                \"Must be a previous selected validator\"\n            );\n        }\n        _;\n    }\n\n    modifier onlyValidRewardsDay(Data storage _self, uint256 _rewardsDay) {\n        require(\n            _currentRewardsDay(_self) > _rewardsDay && _rewardsDay > _self.lastValidatorsRewardsDay,\n            \"Must be for a previous day but after the last rewards day\"\n        );\n         _;\n    }\n\n    modifier onlyValidFutureRewardsDay(Data storage _self, uint256 _rewardsDay) {\n        require(\n            _rewardsDay >= _currentRewardsDay(_self),\n            \"Must be future rewardsDay\"\n        );\n         _;\n    }\n\n    modifier onlyValidAddresses(address _rewardsAddress, address _sidechainAddress) {\n        require(\n            _rewardsAddress != address(0) &&\n            _sidechainAddress != address(0),\n            \"Must have valid rewards and sidechain addresses\"\n        );\n        _;\n    }\n\n    /**\n    * @dev The function is called by validators with the calculation of the daily rewards\n    * @param _self Data pointer to storage\n    * @param _rewardsDay uint256 the rewards day\n    * @param _rewardsHash bytes32 hash of the rewards data\n    * @param _allValidators bool should the calculation be based on all the validators or just those which submitted\n    */\n    function calculateValidatorRewards(\n        Data storage _self,\n        uint256 _rewardsDay,\n        bytes32 _rewardsHash,\n        bool _allValidators\n    )\n        public\n        view\n        returns (uint256)\n    {\n        uint256 numOfValidators;\n        if (_self.dailyRewards.submissions[_rewardsHash].finalizedStatus == 1)\n        {\n            if (_allValidators) {\n                numOfValidators = _requiredValidatorsForValidatorsRewards(_self, _rewardsDay);\n                if (numOfValidators > _self.dailyRewards.submissions[_rewardsHash].confirmations) return 0;\n            } else {\n                numOfValidators = _self.dailyRewards.submissions[_rewardsHash].confirmations;\n            }\n            uint256 rewardsPerValidator = _getValidatorRewardsDailyAmountPerValidator(_self, _rewardsDay, numOfValidators);\n            return rewardsPerValidator;\n        }\n        return 0;\n    }\n\n    /**\n    * @dev The function is called by validators with the calculation of the daily rewards\n    * @param _self Data pointer to storage\n    * @param _rewardsDay uint256 the rewards day\n    * @param _rewardsHash bytes32 hash of the rewards data\n    * @param _applications address[] array of application addresses getting the daily reward\n    * @param _amounts uint256[] array of amounts each app should get\n    * @param _currentTotalSupply uint256 current total supply\n    */\n    function calculateAndFinalizeApplicationRewards(\n        Data storage _self,\n        uint256 _rewardsDay,\n        bytes32 _rewardsHash,\n        address[] _applications,\n        uint256[] _amounts,\n        uint256 _currentTotalSupply\n    )\n        public\n        onlyValidRewardsDay(_self, _rewardsDay)\n        onlyOneConfirmationPerValidatorPerRewardsHash(_self, _rewardsHash)\n        onlySelectedValidators(_self, _rewardsDay)\n        returns (uint256)\n    {\n        require(\n                _rewardsHashIsValid(_self, _rewardsDay, _rewardsHash, _applications, _amounts),\n                \"Rewards Hash is invalid\"\n        );\n        if (!_self.dailyRewards.submissions[_rewardsHash].isInitializedState) {\n            _self.dailyRewards.submissions[_rewardsHash].isInitializedState = true;\n            _self.dailyRewards.submittedRewardsHashes.push(_rewardsHash);\n        }\n        _self.dailyRewards.submissions[_rewardsHash].validators[msg.sender] = true;\n        _self.dailyRewards.submissions[_rewardsHash].validatorsList.push(msg.sender);\n        _self.dailyRewards.submissions[_rewardsHash].confirmations++;\n\n        if (_self.dailyRewards.submissions[_rewardsHash].confirmations == _requiredValidatorsForAppRewards(_self, _rewardsDay)) {\n            uint256 sum = _validateSubmittedData(_self, _applications, _amounts);\n            require(\n                sum <= _getMaxAppRewardsDailyAmount(_self, _rewardsDay, _currentTotalSupply),\n                \"Rewards data is invalid - exceed daily variation\"\n            );\n            _finalizeDailyApplicationRewards(_self, _rewardsDay, _rewardsHash, _currentTotalSupply);\n            return sum;\n        }\n        return 0;\n    }\n\n    /**\n    * @dev Finalizes the state, rewards Hash, total supply and block timestamp for the day\n    * @param _self Data pointer to storage\n    * @param _rewardsDay uint256 the rewards day\n    * @param _rewardsHash bytes32 the daily rewards hash\n    * @param _currentTotalSupply uint256 the current total supply\n    */\n    function _finalizeDailyApplicationRewards(Data storage _self, uint256 _rewardsDay, bytes32 _rewardsHash, uint256 _currentTotalSupply)\n        public\n    {\n        _self.dailyRewards.totalSupply = _currentTotalSupply;\n        _self.dailyRewards.lastConfirmedRewardsHash = _rewardsHash;\n        _self.dailyRewards.lastApplicationsRewardsDay = _rewardsDay;\n        _self.dailyRewards.submissions[_rewardsHash].finalizedStatus = 1;\n    }\n\n    /**\n    * @dev Get parameter's value\n    * @param _self Data pointer to storage\n    * @param _name ParameterName name of the parameter\n    * @param _rewardsDay uint256 the rewards day\n    */\n    function getParameterValue(\n        Data storage _self,\n        ParameterName _name,\n        uint256 _rewardsDay\n    )\n        public\n        view\n        returns (uint256)\n    {\n        if (_rewardsDay >= _self.parameters[uint256(_name)].rewardsDay) {\n            return _self.parameters[uint256(_name)].currentValue;\n        } else {\n            return _self.parameters[uint256(_name)].previousValue;\n        }\n    }\n\n    /**\n    * @dev Allows the controller/owner to update rewards parameters\n    * @param _self Data pointer to storage\n    * @param _name ParameterName name of the parameter\n    * @param _value uint256 new value for the parameter\n    * @param _rewardsDay uint256 the rewards day\n    */\n    function updateParameter(\n        Data storage _self,\n        ParameterName _name,\n        uint256 _value,\n        uint256 _rewardsDay\n    )\n        public\n        onlyValidFutureRewardsDay(_self, _rewardsDay)\n        returns (bool)\n    {\n        if (_rewardsDay <= _self.parameters[uint256(_name)].rewardsDay) {\n           _self.parameters[uint256(_name)].currentValue = _value;\n           _self.parameters[uint256(_name)].rewardsDay = _rewardsDay;\n        } else {\n            _self.parameters[uint256(_name)].previousValue = _self.parameters[uint256(_name)].currentValue;\n            _self.parameters[uint256(_name)].currentValue = _value;\n           _self.parameters[uint256(_name)].rewardsDay = _rewardsDay;\n        }\n        return true;\n    }\n\n    /**\n    * @dev Allows an application to add/update its details\n    * @param _self Data pointer to storage\n    * @param _entityType RewardedEntityType either application (0) or validator (1)\n    * @param _name bytes32 name of the app\n    * @param _rewardsAddress address an address for the app to receive the rewards\n    * @param _sidechainAddress address the address used for using the sidechain\n    */\n    function updateEntity(\n        Data storage _self,\n        RewardedEntityType _entityType,\n        bytes32 _name,\n        address _rewardsAddress,\n        address _sidechainAddress\n    )\n        public\n        onlyValidAddresses(_rewardsAddress, _sidechainAddress)\n        returns (bool)\n    {\n        if (_entityType == RewardedEntityType.Application) {\n            updateApplication(_self, _name, _rewardsAddress, _sidechainAddress);\n        } else {\n            updateValidator(_self, _name, _rewardsAddress, _sidechainAddress);\n        }\n        return true;\n    }\n\n    /**\n    * @dev Allows an application to add/update its details\n    * @param _self Data pointer to storage\n    * @param _name bytes32 name of the app\n    * @param _rewardsAddress address an address for the app to receive the rewards\n    * @param _sidechainAddress address the address used for using the sidechain\n    */\n    function updateApplication(\n        Data storage _self,\n        bytes32 _name,\n        address _rewardsAddress,\n        address _sidechainAddress\n    )\n        public\n        returns (uint256)\n    {\n        _self.applications[msg.sender].name = _name;\n        _self.applications[msg.sender].rewardsAddress = _rewardsAddress;\n        _self.applications[msg.sender].sidechainAddress = _sidechainAddress;\n        if (!_self.applications[msg.sender].isInitializedState) {\n            _self.applicationsList.push(msg.sender);\n            _self.applications[msg.sender].isInitializedState = true;\n            _self.applications[msg.sender].entityType = RewardedEntityType.Application;\n        }\n        return uint256(RewardedEntityType.Application);\n    }\n\n    /**\n    * @dev Allows a validator to add/update its details\n    * @param _self Data pointer to storage\n    * @param _name bytes32 name of the validator\n    * @param _rewardsAddress address an address for the validator to receive the rewards\n    * @param _sidechainAddress address the address used for using the sidechain\n    */\n    function updateValidator(\n        Data storage _self,\n        bytes32 _name,\n        address _rewardsAddress,\n        address _sidechainAddress\n    )\n        public\n        returns (uint256)\n    {\n        _self.validators[msg.sender].name = _name;\n        _self.validators[msg.sender].rewardsAddress = _rewardsAddress;\n        _self.validators[msg.sender].sidechainAddress = _sidechainAddress;\n        if (!_self.validators[msg.sender].isInitializedState) {\n            _self.validatorsList.push(msg.sender);\n            _self.validators[msg.sender].isInitializedState = true;\n            _self.validators[msg.sender].entityType = RewardedEntityType.Validator;\n        }\n        return uint256(RewardedEntityType.Validator);\n    }\n\n    /**\n    * @dev Set new validators list\n    * @param _self Data pointer to storage\n    * @param _rewardsDay uint256 the rewards day from which the list should be active\n    * @param _validators address[] array of validators\n    */\n    function setValidators(\n        Data storage _self,\n        uint256 _rewardsDay,\n        address[] _validators\n    )\n        public\n        onlyValidFutureRewardsDay(_self, _rewardsDay)\n        onlyExistingValidators(_self, _validators)\n        returns (bool)\n    {\n        // no need to update the previous if its' the first time or second update in the same day\n        if (_rewardsDay > _self.selectedValidators.rewardsDay && _self.selectedValidators.currentList.length > 0)\n            _updatePreviousEntityList(_self.selectedValidators);\n\n        _updateCurrentEntityList(_self.selectedValidators, _validators);\n        _self.selectedValidators.rewardsDay = _rewardsDay;\n        return true;\n    }\n\n   /**\n    * @dev Set new applications list\n    * @param _self Data pointer to storage\n    * @param _rewardsDay uint256 the rewards day from which the list should be active\n    * @param _applications address[] array of applications\n    */\n    function setApplications(\n        Data storage _self,\n        uint256 _rewardsDay,\n        address[] _applications\n    )\n        public\n        onlyValidFutureRewardsDay(_self, _rewardsDay)\n        onlyExistingApplications(_self, _applications)\n        returns (bool)\n    {\n\n        if (_rewardsDay > _self.selectedApplications.rewardsDay && _self.selectedApplications.currentList.length > 0)\n                _updatePreviousEntityList(_self.selectedApplications);\n        _updateCurrentEntityList(_self.selectedApplications, _applications);\n        _self.selectedApplications.rewardsDay = _rewardsDay;\n        return true;\n    }\n\n    /**\n    * @dev Get applications or validators list\n    * @param _self Data pointer to storage\n    * @param _entityType RewardedEntityType either application (0) or validator (1)\n    * @param _rewardsDay uint256 the rewards day to determine which list to get\n    */\n    function getEntities(\n        Data storage _self,\n        RewardedEntityType _entityType,\n        uint256 _rewardsDay\n    )\n        public\n        view\n        returns (address[])\n    {\n        if (_entityType == RewardedEntityType.Application) {\n            if (!_usePreviousSelectedRewardsEntityList(_self.selectedApplications, _rewardsDay)) {\n                return _self.selectedApplications.currentList;\n            } else {\n                return _self.selectedApplications.previousList;\n            }\n        } else {\n            if (!_usePreviousSelectedRewardsEntityList(_self.selectedValidators, _rewardsDay)) {\n                return _self.selectedValidators.currentList;\n            } else {\n                return _self.selectedValidators.previousList;\n            }\n        }\n    }\n\n    /**\n    * @dev Get which entity list to use. If true use previous if false use current\n    * @param _rewardedEntitylist RewardedEntityList pointer to storage\n    * @param _rewardsDay uint256 the rewards day to determine which list to get\n    */\n    function _usePreviousSelectedRewardsEntityList(RewardedEntityList _rewardedEntitylist, uint256 _rewardsDay)\n        internal\n        pure\n        returns (bool)\n    {\n        if (_rewardsDay >= _rewardedEntitylist.rewardsDay) {\n            return false;\n        } else {\n            return true;\n        }\n    }\n\n    /**\n    * @dev Checks how many validators are needed for app rewards\n    * @param _self Data pointer to storage\n    * @param _rewardsDay uint256 the rewards day\n    * @param _currentTotalSupply uint256 current total supply\n    */\n    function _getMaxAppRewardsDailyAmount(\n        Data storage _self,\n        uint256 _rewardsDay,\n        uint256 _currentTotalSupply\n    )\n        public\n        view\n        returns (uint256)\n    {\n        return ((_self.maxTotalSupply.sub(_currentTotalSupply)).mul(\n        getParameterValue(_self, ParameterName.ApplicationRewardsPercent, _rewardsDay)).mul(\n        getParameterValue(_self, ParameterName.ApplicationRewardsMaxVariationPercent, _rewardsDay))).div(1e16);\n    }\n\n\n    /**\n    * @dev Checks how many validators are needed for app rewards\n    * @param _self Data pointer to storage\n    * @param _rewardsDay uint256 the rewards day\n    * @param _numOfValidators uint256 number of validators\n    */\n    function _getValidatorRewardsDailyAmountPerValidator(\n        Data storage _self,\n        uint256 _rewardsDay,\n        uint256 _numOfValidators\n    )\n        public\n        view\n        returns (uint256)\n    {\n        return (((_self.maxTotalSupply.sub(_self.dailyRewards.totalSupply)).mul(\n        getParameterValue(_self, ParameterName.ValidatorRewardsPercent, _rewardsDay))).div(1e8)).div(_numOfValidators);\n    }\n\n    /**\n    * @dev Checks if app daily rewards amount is valid\n    * @param _self Data pointer to storage\n    * @param _applications address[] array of application addresses getting the daily rewards\n    * @param _amounts uint256[] array of amounts each app should get\n    */\n    function _validateSubmittedData(\n        Data storage _self,\n        address[] _applications,\n        uint256[] _amounts\n    )\n        public\n        view\n        returns (uint256)\n    {\n        uint256 sum;\n        bool valid = true;\n        for (uint256 i = 0; i < _amounts.length; i++) {\n            sum = sum.add(_amounts[i]);\n            if (!_self.applications[_applications[i]].isInitializedState) valid = false;\n        }\n        require(\n                sum > 0 && valid,\n                \"Sum zero or none existing app submitted\"\n        );\n        return sum;\n    }\n\n    /**\n    * @dev Checks if submitted data matches rewards hash\n    * @param _rewardsDay uint256 the rewards day\n    * @param _rewardsHash bytes32 hash of the rewards data\n    * @param _applications address[] array of application addresses getting the daily rewards\n    * @param _amounts uint256[] array of amounts each app should get\n    */\n    function _rewardsHashIsValid(\n        Data storage _self,\n        uint256 _rewardsDay,\n        bytes32 _rewardsHash,\n        address[] _applications,\n        uint256[] _amounts\n    )\n        public\n        view\n        returns (bool)\n    {\n        bool nonActiveApplication = false;\n        if (!_usePreviousSelectedRewardsEntityList(_self.selectedApplications, _rewardsDay)) {\n            for (uint256 i = 0; i < _applications.length; i++) {\n                if (!_self.selectedApplications.current[_applications[i]]) {\n                    nonActiveApplication = true;\n                }\n            }\n        } else {\n            for (uint256 j = 0; j < _applications.length; j++) {\n                if (!_self.selectedApplications.previous[_applications[j]]) {\n                    nonActiveApplication = true;\n                }\n            }\n        }\n        return\n            _applications.length > 0 &&\n            _applications.length == _amounts.length &&\n            !nonActiveApplication &&\n            keccak256(abi.encodePacked(_rewardsDay, _applications.length, _amounts.length, _applications, _amounts)) == _rewardsHash;\n    }\n\n    /**\n    * @dev Checks how many validators are needed for app rewards\n    * @param _self Data pointer to storage\n    * @param _rewardsDay uint256 the rewards day\n    */\n    function _requiredValidatorsForValidatorsRewards(Data storage _self, uint256 _rewardsDay)\n        public\n        view\n        returns (uint256)\n    {\n        if (!_usePreviousSelectedRewardsEntityList(_self.selectedValidators, _rewardsDay)) {\n            return _self.selectedValidators.currentList.length;\n        } else {\n            return _self.selectedValidators.previousList.length;\n        }\n    }\n\n    /**\n    * @dev Checks how many validators are needed for app rewards\n    * @param _self Data pointer to storage\n    * @param _rewardsDay uint256 the rewards day\n    */\n    function _requiredValidatorsForAppRewards(Data storage _self, uint256 _rewardsDay)\n        public\n        view\n        returns (uint256)\n    {\n        if (!_usePreviousSelectedRewardsEntityList(_self.selectedValidators, _rewardsDay)) {\n            return ((_self.selectedValidators.currentList.length.mul(getParameterValue(_self, ParameterName.ValidatorMajorityPercent, _rewardsDay))).div(1e8)).add(1);\n        } else {\n            return ((_self.selectedValidators.previousList.length.mul(getParameterValue(_self, ParameterName.ValidatorMajorityPercent, _rewardsDay))).div(1e8)).add(1);\n        }\n    }\n\n    /**\n    * @dev Get rewards day from block.timestamp\n    * @param _self Data pointer to storage\n    */\n    function _currentRewardsDay(Data storage _self)\n        public\n        view\n        returns (uint256)\n    {\n        //the the start time - floor timestamp to previous midnight divided by seconds in a day will give the rewards day number\n       if (_self.minSecondsBetweenDays > 0) {\n            return (block.timestamp.sub(_self.rewardsStartTimestamp)).div(_self.minSecondsBetweenDays).add(1);\n        } else {\n            return 0;\n        }\n    }\n\n    /**\n    * @dev Update current daily applications list.\n    * If new, push.\n    * If same size, replace\n    * If different size, delete, and then push.\n    * @param _rewardedEntitylist RewardedEntityList pointer to storage\n    * @param _entities address[] array of entities\n    */\n    //_updateCurrentEntityList(_rewardedEntitylist, _entities,_rewardedEntityType),\n    function _updateCurrentEntityList(\n        RewardedEntityList storage _rewardedEntitylist,\n        address[] _entities\n    )\n        internal\n        returns (bool)\n    {\n        bool emptyCurrentList = _rewardedEntitylist.currentList.length == 0;\n        if (!emptyCurrentList && _rewardedEntitylist.currentList.length != _entities.length) {\n            _deleteCurrentEntityList(_rewardedEntitylist);\n            emptyCurrentList = true;\n        }\n\n        for (uint256 i = 0; i < _entities.length; i++) {\n            if (emptyCurrentList) {\n                _rewardedEntitylist.currentList.push(_entities[i]);\n            } else {\n                _rewardedEntitylist.currentList[i] = _entities[i];\n            }\n            _rewardedEntitylist.current[_entities[i]] = true;\n        }\n        return true;\n    }\n\n    /**\n    * @dev Update previous daily list\n    * @param _rewardedEntitylist RewardedEntityList pointer to storage\n    */\n    function _updatePreviousEntityList(RewardedEntityList storage _rewardedEntitylist)\n        internal\n        returns (bool)\n    {\n        bool emptyPreviousList = _rewardedEntitylist.previousList.length == 0;\n        if (\n            !emptyPreviousList &&\n            _rewardedEntitylist.previousList.length != _rewardedEntitylist.currentList.length\n        ) {\n            _deletePreviousEntityList(_rewardedEntitylist);\n            emptyPreviousList = true;\n        }\n        for (uint256 i = 0; i < _rewardedEntitylist.currentList.length; i++) {\n            if (emptyPreviousList) {\n                _rewardedEntitylist.previousList.push(_rewardedEntitylist.currentList[i]);\n            } else {\n                _rewardedEntitylist.previousList[i] = _rewardedEntitylist.currentList[i];\n            }\n            _rewardedEntitylist.previous[_rewardedEntitylist.currentList[i]] = true;\n        }\n        return true;\n    }\n\n    /**\n    * @dev Delete existing values from the current list\n    * @param _rewardedEntitylist RewardedEntityList pointer to storage\n    */\n    function _deleteCurrentEntityList(RewardedEntityList storage _rewardedEntitylist)\n        internal\n        returns (bool)\n    {\n        for (uint256 i = 0; i < _rewardedEntitylist.currentList.length ; i++) {\n             delete _rewardedEntitylist.current[_rewardedEntitylist.currentList[i]];\n        }\n        delete  _rewardedEntitylist.currentList;\n        return true;\n    }\n\n    /**\n    * @dev Delete existing values from the previous applications list\n    * @param _rewardedEntitylist RewardedEntityList pointer to storage\n    */\n    function _deletePreviousEntityList(RewardedEntityList storage _rewardedEntitylist)\n        internal\n        returns (bool)\n    {\n        for (uint256 i = 0; i < _rewardedEntitylist.previousList.length ; i++) {\n            delete _rewardedEntitylist.previous[_rewardedEntitylist.previousList[i]];\n        }\n        delete _rewardedEntitylist.previousList;\n        return true;\n    }\n\n    /**\n    * @dev Deletes rewards day submission data\n    * @param _self Data pointer to storage\n    * @param _rewardsHash bytes32 rewardsHash\n    */\n    function _resetDailyRewards(\n        Data storage _self,\n        bytes32 _rewardsHash\n    )\n        public\n        returns (bool)\n    {\n         _self.lastValidatorsRewardsDay = _self.dailyRewards.lastApplicationsRewardsDay;\n        for (uint256 j = 0; j < _self.dailyRewards.submissions[_rewardsHash].validatorsList.length; j++) {\n            delete(\n                _self.dailyRewards.submissions[_rewardsHash].validators[_self.dailyRewards.submissions[_rewardsHash].validatorsList[j]]\n            );\n        }\n            delete _self.dailyRewards.submissions[_rewardsHash].validatorsList;\n            _self.dailyRewards.submissions[_rewardsHash].confirmations = 0;\n            _self.dailyRewards.submissions[_rewardsHash].finalizedStatus = 0;\n            _self.dailyRewards.submissions[_rewardsHash].isInitializedState = false;\n    }\n}",
  "sourcePath": "/Users/jretina/Programming/PROPSProject/props-token-distribution/contracts/token/PropsRewardsLib.sol",
  "compiler": {
    "name": "solc",
    "version": "0.4.24+commit.e67f0147.Emscripten.clang"
  },
  "schemaVersion": "2.0.1",
  "updatedAt": "2019-07-17T18:25:26.928Z"
}