{
  "contractName": "PropsToken",
  "abi": [
    {
      "constant": true,
      "inputs": [],
      "name": "mintingFinished",
      "outputs": [
        {
          "name": "",
          "type": "bool"
        }
      ],
      "payable": false,
      "stateMutability": "view",
      "type": "function"
    },
    {
      "constant": true,
      "inputs": [],
      "name": "name",
      "outputs": [
        {
          "name": "",
          "type": "string"
        }
      ],
      "payable": false,
      "stateMutability": "view",
      "type": "function"
    },
    {
      "constant": false,
      "inputs": [
        {
          "name": "_spender",
          "type": "address"
        },
        {
          "name": "_value",
          "type": "uint256"
        }
      ],
      "name": "approve",
      "outputs": [
        {
          "name": "",
          "type": "bool"
        }
      ],
      "payable": false,
      "stateMutability": "nonpayable",
      "type": "function"
    },
    {
      "constant": true,
      "inputs": [
        {
          "name": "_token",
          "type": "address"
        },
        {
          "name": "_to",
          "type": "address"
        },
        {
          "name": "_value",
          "type": "uint256"
        },
        {
          "name": "_fee",
          "type": "uint256"
        },
        {
          "name": "_nonce",
          "type": "uint256"
        }
      ],
      "name": "transferPreSignedHashing",
      "outputs": [
        {
          "name": "",
          "type": "bytes32"
        }
      ],
      "payable": false,
      "stateMutability": "pure",
      "type": "function"
    },
    {
      "constant": true,
      "inputs": [],
      "name": "totalSupply",
      "outputs": [
        {
          "name": "",
          "type": "uint256"
        }
      ],
      "payable": false,
      "stateMutability": "view",
      "type": "function"
    },
    {
      "constant": true,
      "inputs": [
        {
          "name": "hash",
          "type": "bytes32"
        },
        {
          "name": "sig",
          "type": "bytes"
        }
      ],
      "name": "recover",
      "outputs": [
        {
          "name": "",
          "type": "address"
        }
      ],
      "payable": false,
      "stateMutability": "pure",
      "type": "function"
    },
    {
      "constant": true,
      "inputs": [],
      "name": "isTransferWhitelistOnly",
      "outputs": [
        {
          "name": "",
          "type": "bool"
        }
      ],
      "payable": false,
      "stateMutability": "view",
      "type": "function"
    },
    {
      "constant": true,
      "inputs": [],
      "name": "decimals",
      "outputs": [
        {
          "name": "",
          "type": "uint8"
        }
      ],
      "payable": false,
      "stateMutability": "view",
      "type": "function"
    },
    {
      "constant": false,
      "inputs": [],
      "name": "unpause",
      "outputs": [],
      "payable": false,
      "stateMutability": "nonpayable",
      "type": "function"
    },
    {
      "constant": false,
      "inputs": [
        {
          "name": "_to",
          "type": "address"
        },
        {
          "name": "_amount",
          "type": "uint256"
        }
      ],
      "name": "mint",
      "outputs": [
        {
          "name": "",
          "type": "bool"
        }
      ],
      "payable": false,
      "stateMutability": "nonpayable",
      "type": "function"
    },
    {
      "constant": true,
      "inputs": [],
      "name": "amountOfTokenToMint",
      "outputs": [
        {
          "name": "",
          "type": "uint256"
        }
      ],
      "payable": false,
      "stateMutability": "view",
      "type": "function"
    },
    {
      "constant": true,
      "inputs": [
        {
          "name": "_token",
          "type": "address"
        },
        {
          "name": "_spender",
          "type": "address"
        },
        {
          "name": "_subtractedValue",
          "type": "uint256"
        },
        {
          "name": "_fee",
          "type": "uint256"
        },
        {
          "name": "_nonce",
          "type": "uint256"
        }
      ],
      "name": "decreaseApprovalPreSignedHashing",
      "outputs": [
        {
          "name": "",
          "type": "bytes32"
        }
      ],
      "payable": false,
      "stateMutability": "pure",
      "type": "function"
    },
    {
      "constant": true,
      "inputs": [],
      "name": "paused",
      "outputs": [
        {
          "name": "",
          "type": "bool"
        }
      ],
      "payable": false,
      "stateMutability": "view",
      "type": "function"
    },
    {
      "constant": false,
      "inputs": [
        {
          "name": "_spender",
          "type": "address"
        },
        {
          "name": "_subtractedValue",
          "type": "uint256"
        }
      ],
      "name": "decreaseApproval",
      "outputs": [
        {
          "name": "success",
          "type": "bool"
        }
      ],
      "payable": false,
      "stateMutability": "nonpayable",
      "type": "function"
    },
    {
      "constant": true,
      "inputs": [
        {
          "name": "_owner",
          "type": "address"
        }
      ],
      "name": "balanceOf",
      "outputs": [
        {
          "name": "balance",
          "type": "uint256"
        }
      ],
      "payable": false,
      "stateMutability": "view",
      "type": "function"
    },
    {
      "constant": false,
      "inputs": [],
      "name": "finishMinting",
      "outputs": [
        {
          "name": "",
          "type": "bool"
        }
      ],
      "payable": false,
      "stateMutability": "nonpayable",
      "type": "function"
    },
    {
      "constant": false,
      "inputs": [],
      "name": "pause",
      "outputs": [],
      "payable": false,
      "stateMutability": "nonpayable",
      "type": "function"
    },
    {
      "constant": false,
      "inputs": [
        {
          "name": "_signature",
          "type": "bytes"
        },
        {
          "name": "_spender",
          "type": "address"
        },
        {
          "name": "_subtractedValue",
          "type": "uint256"
        },
        {
          "name": "_fee",
          "type": "uint256"
        },
        {
          "name": "_nonce",
          "type": "uint256"
        }
      ],
      "name": "decreaseApprovalPreSigned",
      "outputs": [
        {
          "name": "",
          "type": "bool"
        }
      ],
      "payable": false,
      "stateMutability": "nonpayable",
      "type": "function"
    },
    {
      "constant": true,
      "inputs": [],
      "name": "owner",
      "outputs": [
        {
          "name": "",
          "type": "address"
        }
      ],
      "payable": false,
      "stateMutability": "view",
      "type": "function"
    },
    {
      "constant": true,
      "inputs": [],
      "name": "symbol",
      "outputs": [
        {
          "name": "",
          "type": "string"
        }
      ],
      "payable": false,
      "stateMutability": "view",
      "type": "function"
    },
    {
      "constant": true,
      "inputs": [
        {
          "name": "_token",
          "type": "address"
        },
        {
          "name": "_spender",
          "type": "address"
        },
        {
          "name": "_addedValue",
          "type": "uint256"
        },
        {
          "name": "_fee",
          "type": "uint256"
        },
        {
          "name": "_nonce",
          "type": "uint256"
        }
      ],
      "name": "increaseApprovalPreSignedHashing",
      "outputs": [
        {
          "name": "",
          "type": "bytes32"
        }
      ],
      "payable": false,
      "stateMutability": "pure",
      "type": "function"
    },
    {
      "constant": false,
      "inputs": [
        {
          "name": "_signature",
          "type": "bytes"
        },
        {
          "name": "_spender",
          "type": "address"
        },
        {
          "name": "_addedValue",
          "type": "uint256"
        },
        {
          "name": "_fee",
          "type": "uint256"
        },
        {
          "name": "_nonce",
          "type": "uint256"
        }
      ],
      "name": "increaseApprovalPreSigned",
      "outputs": [
        {
          "name": "",
          "type": "bool"
        }
      ],
      "payable": false,
      "stateMutability": "nonpayable",
      "type": "function"
    },
    {
      "constant": true,
      "inputs": [
        {
          "name": "_token",
          "type": "address"
        },
        {
          "name": "_from",
          "type": "address"
        },
        {
          "name": "_to",
          "type": "address"
        },
        {
          "name": "_value",
          "type": "uint256"
        },
        {
          "name": "_fee",
          "type": "uint256"
        },
        {
          "name": "_nonce",
          "type": "uint256"
        }
      ],
      "name": "transferFromPreSignedHashing",
      "outputs": [
        {
          "name": "",
          "type": "bytes32"
        }
      ],
      "payable": false,
      "stateMutability": "pure",
      "type": "function"
    },
    {
      "constant": false,
      "inputs": [
        {
          "name": "_signature",
          "type": "bytes"
        },
        {
          "name": "_from",
          "type": "address"
        },
        {
          "name": "_to",
          "type": "address"
        },
        {
          "name": "_value",
          "type": "uint256"
        },
        {
          "name": "_fee",
          "type": "uint256"
        },
        {
          "name": "_nonce",
          "type": "uint256"
        }
      ],
      "name": "transferFromPreSigned",
      "outputs": [
        {
          "name": "",
          "type": "bool"
        }
      ],
      "payable": false,
      "stateMutability": "nonpayable",
      "type": "function"
    },
    {
      "constant": false,
      "inputs": [
        {
          "name": "_spender",
          "type": "address"
        },
        {
          "name": "_addedValue",
          "type": "uint256"
        }
      ],
      "name": "increaseApproval",
      "outputs": [
        {
          "name": "success",
          "type": "bool"
        }
      ],
      "payable": false,
      "stateMutability": "nonpayable",
      "type": "function"
    },
    {
      "constant": true,
      "inputs": [
        {
          "name": "_owner",
          "type": "address"
        },
        {
          "name": "_spender",
          "type": "address"
        }
      ],
      "name": "allowance",
      "outputs": [
        {
          "name": "",
          "type": "uint256"
        }
      ],
      "payable": false,
      "stateMutability": "view",
      "type": "function"
    },
    {
      "constant": false,
      "inputs": [
        {
          "name": "newOwner",
          "type": "address"
        }
      ],
      "name": "transferOwnership",
      "outputs": [],
      "payable": false,
      "stateMutability": "nonpayable",
      "type": "function"
    },
    {
      "constant": true,
      "inputs": [
        {
          "name": "_token",
          "type": "address"
        },
        {
          "name": "_spender",
          "type": "address"
        },
        {
          "name": "_value",
          "type": "uint256"
        },
        {
          "name": "_fee",
          "type": "uint256"
        },
        {
          "name": "_nonce",
          "type": "uint256"
        }
      ],
      "name": "approvePreSignedHashing",
      "outputs": [
        {
          "name": "",
          "type": "bytes32"
        }
      ],
      "payable": false,
      "stateMutability": "pure",
      "type": "function"
    },
    {
      "anonymous": false,
      "inputs": [
        {
          "indexed": false,
          "name": "user",
          "type": "address"
        }
      ],
      "name": "UserAllowedToTransfer",
      "type": "event"
    },
    {
      "anonymous": false,
      "inputs": [
        {
          "indexed": false,
          "name": "flag",
          "type": "bool"
        }
      ],
      "name": "TransferWhitelistOnly",
      "type": "event"
    },
    {
      "anonymous": false,
      "inputs": [
        {
          "indexed": false,
          "name": "from",
          "type": "address"
        },
        {
          "indexed": false,
          "name": "fromBalance",
          "type": "uint256"
        },
        {
          "indexed": false,
          "name": "to",
          "type": "address"
        },
        {
          "indexed": false,
          "name": "toBalance",
          "type": "uint256"
        },
        {
          "indexed": false,
          "name": "amount",
          "type": "uint256"
        }
      ],
      "name": "TransferDetails",
      "type": "event"
    },
    {
      "anonymous": false,
      "inputs": [
        {
          "indexed": false,
          "name": "timestamp",
          "type": "uint256"
        },
        {
          "indexed": false,
          "name": "from",
          "type": "address"
        },
        {
          "indexed": false,
          "name": "recipient",
          "type": "address"
        },
        {
          "indexed": false,
          "name": "amount",
          "type": "uint256"
        }
      ],
      "name": "Settlement",
      "type": "event"
    },
    {
      "anonymous": false,
      "inputs": [
        {
          "indexed": true,
          "name": "to",
          "type": "address"
        },
        {
          "indexed": false,
          "name": "amount",
          "type": "uint256"
        }
      ],
      "name": "Mint",
      "type": "event"
    },
    {
      "anonymous": false,
      "inputs": [],
      "name": "MintFinished",
      "type": "event"
    },
    {
      "anonymous": false,
      "inputs": [],
      "name": "Pause",
      "type": "event"
    },
    {
      "anonymous": false,
      "inputs": [],
      "name": "Unpause",
      "type": "event"
    },
    {
      "anonymous": false,
      "inputs": [
        {
          "indexed": true,
          "name": "previousOwner",
          "type": "address"
        },
        {
          "indexed": true,
          "name": "newOwner",
          "type": "address"
        }
      ],
      "name": "OwnershipTransferred",
      "type": "event"
    },
    {
      "anonymous": false,
      "inputs": [
        {
          "indexed": true,
          "name": "from",
          "type": "address"
        },
        {
          "indexed": true,
          "name": "to",
          "type": "address"
        },
        {
          "indexed": true,
          "name": "delegate",
          "type": "address"
        },
        {
          "indexed": false,
          "name": "amount",
          "type": "uint256"
        },
        {
          "indexed": false,
          "name": "fee",
          "type": "uint256"
        }
      ],
      "name": "TransferPreSigned",
      "type": "event"
    },
    {
      "anonymous": false,
      "inputs": [
        {
          "indexed": true,
          "name": "from",
          "type": "address"
        },
        {
          "indexed": true,
          "name": "to",
          "type": "address"
        },
        {
          "indexed": true,
          "name": "delegate",
          "type": "address"
        },
        {
          "indexed": false,
          "name": "amount",
          "type": "uint256"
        },
        {
          "indexed": false,
          "name": "fee",
          "type": "uint256"
        }
      ],
      "name": "ApprovalPreSigned",
      "type": "event"
    },
    {
      "anonymous": false,
      "inputs": [
        {
          "indexed": true,
          "name": "owner",
          "type": "address"
        },
        {
          "indexed": true,
          "name": "spender",
          "type": "address"
        },
        {
          "indexed": false,
          "name": "value",
          "type": "uint256"
        }
      ],
      "name": "Approval",
      "type": "event"
    },
    {
      "anonymous": false,
      "inputs": [
        {
          "indexed": true,
          "name": "from",
          "type": "address"
        },
        {
          "indexed": true,
          "name": "to",
          "type": "address"
        },
        {
          "indexed": false,
          "name": "value",
          "type": "uint256"
        }
      ],
      "name": "Transfer",
      "type": "event"
    },
    {
      "constant": true,
      "inputs": [
        {
          "name": "_user",
          "type": "address"
        }
      ],
      "name": "isUserAllowedToTransfer",
      "outputs": [
        {
          "name": "",
          "type": "bool"
        }
      ],
      "payable": false,
      "stateMutability": "view",
      "type": "function"
    },
    {
      "constant": false,
      "inputs": [
        {
          "name": "_isWhitelistOnly",
          "type": "bool"
        }
      ],
      "name": "setWhitelistedOnly",
      "outputs": [],
      "payable": false,
      "stateMutability": "nonpayable",
      "type": "function"
    },
    {
      "constant": false,
      "inputs": [
        {
          "name": "_user",
          "type": "address"
        }
      ],
      "name": "whitelistUserForTransfers",
      "outputs": [],
      "payable": false,
      "stateMutability": "nonpayable",
      "type": "function"
    },
    {
      "constant": false,
      "inputs": [
        {
          "name": "_user",
          "type": "address"
        }
      ],
      "name": "blacklistUserForTransfers",
      "outputs": [],
      "payable": false,
      "stateMutability": "nonpayable",
      "type": "function"
    },
    {
      "constant": false,
      "inputs": [
        {
          "name": "_to",
          "type": "address"
        },
        {
          "name": "_value",
          "type": "uint256"
        }
      ],
      "name": "transfer",
      "outputs": [
        {
          "name": "",
          "type": "bool"
        }
      ],
      "payable": false,
      "stateMutability": "nonpayable",
      "type": "function"
    },
    {
      "constant": false,
      "inputs": [
        {
          "name": "_to",
          "type": "address"
        },
        {
          "name": "_value",
          "type": "uint256"
        }
      ],
      "name": "settle",
      "outputs": [
        {
          "name": "",
          "type": "bool"
        }
      ],
      "payable": false,
      "stateMutability": "nonpayable",
      "type": "function"
    },
    {
      "constant": false,
      "inputs": [
        {
          "name": "_from",
          "type": "address"
        },
        {
          "name": "_to",
          "type": "address"
        },
        {
          "name": "_value",
          "type": "uint256"
        }
      ],
      "name": "transferFrom",
      "outputs": [
        {
          "name": "",
          "type": "bool"
        }
      ],
      "payable": false,
      "stateMutability": "nonpayable",
      "type": "function"
    },
    {
      "constant": false,
      "inputs": [
        {
          "name": "_signature",
          "type": "bytes"
        },
        {
          "name": "_to",
          "type": "address"
        },
        {
          "name": "_value",
          "type": "uint256"
        },
        {
          "name": "_fee",
          "type": "uint256"
        },
        {
          "name": "_nonce",
          "type": "uint256"
        }
      ],
      "name": "transferPreSigned",
      "outputs": [
        {
          "name": "",
          "type": "bool"
        }
      ],
      "payable": false,
      "stateMutability": "nonpayable",
      "type": "function"
    },
    {
      "constant": false,
      "inputs": [
        {
          "name": "_signature",
          "type": "bytes"
        },
        {
          "name": "_spender",
          "type": "address"
        },
        {
          "name": "_value",
          "type": "uint256"
        },
        {
          "name": "_fee",
          "type": "uint256"
        },
        {
          "name": "_nonce",
          "type": "uint256"
        }
      ],
      "name": "approvePreSigned",
      "outputs": [
        {
          "name": "",
          "type": "bool"
        }
      ],
      "payable": false,
      "stateMutability": "nonpayable",
      "type": "function"
    }
  ],
  "bytecode": "0x60806040526000600460146101000a81548160ff0219169083151502179055506000600460156101000a81548160ff0219169083151502179055506001600460166101000a81548160ff02191690831515021790555033600460006101000a81548173ffffffffffffffffffffffffffffffffffffffff021916908373ffffffffffffffffffffffffffffffffffffffff160217905550615175806100a56000396000f3006080604052600436106101cd576000357c0100000000000000000000000000000000000000000000000000000000900463ffffffff16806305d2035b146101d257806306fdde0314610201578063095ea7b3146102915780631296830d146102f657806315420b71146103b557806315afd4091461045257806318160ddd146104b757806319045a25146104e257806323b872dd14610599578063260d387b1461061e5780632b2be30914610661578063313ce567146106905780633f4ba83a146106c157806340c10f19146106d85780635478bc6b1461073d57806359388d78146107685780635c975abb14610805578063617b390b1461083457806366188463146108f357806370a08231146109585780637d64bcb4146109af5780638456cb59146109de5780638be52783146109f55780638da5cb5b14610ab457806395d89b4114610b0b578063a157696b14610b9b578063a25b938414610bca578063a45f71ff14610c25578063a9059cbb14610cc2578063adb8249e14610d27578063b7656dc514610de6578063bca5051514610ea3578063d73dd62314610f82578063dd62ed3e14610fe7578063f2fde38b1461105e578063f7ac9c2e146110a1578063fb37baa11461113e575b600080fd5b3480156101de57600080fd5b506101e7611181565b604051808215151515815260200191505060405180910390f35b34801561020d57600080fd5b50610216611194565b6040518080602001828103825283818151815260200191508051906020019080838360005b8381101561025657808201518184015260208101905061023b565b50505050905090810190601f1680156102835780820380516001836020036101000a031916815260200191505b509250505060405180910390f35b34801561029d57600080fd5b506102dc600480360381019080803573ffffffffffffffffffffffffffffffffffffffff169060200190929190803590602001909291905050506111cd565b604051808215151515815260200191505060405180910390f35b34801561030257600080fd5b5061039b600480360381019080803590602001908201803590602001908080601f0160208091040260200160405190810160405280939291908181526020018383808284378201915050505050509192919290803573ffffffffffffffffffffffffffffffffffffffff1690602001909291908035906020019092919080359060200190929190803590602001909291905050506111fd565b604051808215151515815260200191505060405180910390f35b3480156103c157600080fd5b50610434600480360381019080803573ffffffffffffffffffffffffffffffffffffffff169060200190929190803573ffffffffffffffffffffffffffffffffffffffff16906020019092919080359060200190929190803590602001909291908035906020019092919050505061134d565b60405180826000191660001916815260200191505060405180910390f35b34801561045e57600080fd5b5061049d600480360381019080803573ffffffffffffffffffffffffffffffffffffffff1690602001909291908035906020019092919050505061146f565b604051808215151515815260200191505060405180910390f35b3480156104c357600080fd5b506104cc611624565b6040518082815260200191505060405180910390f35b3480156104ee57600080fd5b506105576004803603810190808035600019169060200190929190803590602001908201803590602001908080601f016020809104026020016040519081016040528093929190818152602001838380828437820191505050505050919291929050505061162e565b604051808273ffffffffffffffffffffffffffffffffffffffff1673ffffffffffffffffffffffffffffffffffffffff16815260200191505060405180910390f35b3480156105a557600080fd5b50610604600480360381019080803573ffffffffffffffffffffffffffffffffffffffff169060200190929190803573ffffffffffffffffffffffffffffffffffffffff16906020019092919080359060200190929190505050611726565b604051808215151515815260200191505060405180910390f35b34801561062a57600080fd5b5061065f600480360381019080803573ffffffffffffffffffffffffffffffffffffffff169060200190929190505050611836565b005b34801561066d57600080fd5b50610676611964565b604051808215151515815260200191505060405180910390f35b34801561069c57600080fd5b506106a5611977565b604051808260ff1660ff16815260200191505060405180910390f35b3480156106cd57600080fd5b506106d661197c565b005b3480156106e457600080fd5b50610723600480360381019080803573ffffffffffffffffffffffffffffffffffffffff16906020019092919080359060200190929190505050611a3c565b604051808215151515815260200191505060405180910390f35b34801561074957600080fd5b50610752611c22565b6040518082815260200191505060405180910390f35b34801561077457600080fd5b506107e7600480360381019080803573ffffffffffffffffffffffffffffffffffffffff169060200190929190803573ffffffffffffffffffffffffffffffffffffffff169060200190929190803590602001909291908035906020019092919080359060200190929190505050611c33565b60405180826000191660001916815260200191505060405180910390f35b34801561081157600080fd5b5061081a611d55565b604051808215151515815260200191505060405180910390f35b34801561084057600080fd5b506108d9600480360381019080803590602001908201803590602001908080601f0160208091040260200160405190810160405280939291908181526020018383808284378201915050505050509192919290803573ffffffffffffffffffffffffffffffffffffffff169060200190929190803590602001909291908035906020019092919080359060200190929190505050611d68565b604051808215151515815260200191505060405180910390f35b3480156108ff57600080fd5b5061093e600480360381019080803573ffffffffffffffffffffffffffffffffffffffff16906020019092919080359060200190929190505050611de8565b604051808215151515815260200191505060405180910390f35b34801561096457600080fd5b50610999600480360381019080803573ffffffffffffffffffffffffffffffffffffffff169060200190929190505050611e18565b6040518082815260200191505060405180910390f35b3480156109bb57600080fd5b506109c4611e60565b604051808215151515815260200191505060405180910390f35b3480156109ea57600080fd5b506109f3611f28565b005b348015610a0157600080fd5b50610a9a600480360381019080803590602001908201803590602001908080601f0160208091040260200160405190810160405280939291908181526020018383808284378201915050505050509192919290803573ffffffffffffffffffffffffffffffffffffffff169060200190929190803590602001909291908035906020019092919080359060200190929190505050611fe9565b604051808215151515815260200191505060405180910390f35b348015610ac057600080fd5b50610ac9612633565b604051808273ffffffffffffffffffffffffffffffffffffffff1673ffffffffffffffffffffffffffffffffffffffff16815260200191505060405180910390f35b348015610b1757600080fd5b50610b20612659565b6040518080602001828103825283818151815260200191508051906020019080838360005b83811015610b60578082015181840152602081019050610b45565b50505050905090810190601f168015610b8d5780820380516001836020036101000a031916815260200191505b509250505060405180910390f35b348015610ba757600080fd5b50610bc8600480360381019080803515159060200190929190505050612692565b005b348015610bd657600080fd5b50610c0b600480360381019080803573ffffffffffffffffffffffffffffffffffffffff169060200190929190505050612763565b604051808215151515815260200191505060405180910390f35b348015610c3157600080fd5b50610ca4600480360381019080803573ffffffffffffffffffffffffffffffffffffffff169060200190929190803573ffffffffffffffffffffffffffffffffffffffff1690602001909291908035906020019092919080359060200190929190803590602001909291905050506127de565b60405180826000191660001916815260200191505060405180910390f35b348015610cce57600080fd5b50610d0d600480360381019080803573ffffffffffffffffffffffffffffffffffffffff16906020019092919080359060200190929190505050612900565b604051808215151515815260200191505060405180910390f35b348015610d3357600080fd5b50610dcc600480360381019080803590602001908201803590602001908080601f0160208091040260200160405190810160405280939291908181526020018383808284378201915050505050509192919290803573ffffffffffffffffffffffffffffffffffffffff169060200190929190803590602001909291908035906020019092919080359060200190929190505050612a0e565b604051808215151515815260200191505060405180910390f35b348015610df257600080fd5b50610e85600480360381019080803573ffffffffffffffffffffffffffffffffffffffff169060200190929190803573ffffffffffffffffffffffffffffffffffffffff169060200190929190803573ffffffffffffffffffffffffffffffffffffffff16906020019092919080359060200190929190803590602001909291908035906020019092919050505061303e565b60405180826000191660001916815260200191505060405180910390f35b348015610eaf57600080fd5b50610f68600480360381019080803590602001908201803590602001908080601f0160208091040260200160405190810160405280939291908181526020018383808284378201915050505050509192919290803573ffffffffffffffffffffffffffffffffffffffff169060200190929190803573ffffffffffffffffffffffffffffffffffffffff1690602001909291908035906020019092919080359060200190929190803590602001909291905050506131a4565b604051808215151515815260200191505060405180910390f35b348015610f8e57600080fd5b50610fcd600480360381019080803573ffffffffffffffffffffffffffffffffffffffff16906020019092919080359060200190929190505050613780565b604051808215151515815260200191505060405180910390f35b348015610ff357600080fd5b50611048600480360381019080803573ffffffffffffffffffffffffffffffffffffffff169060200190929190803573ffffffffffffffffffffffffffffffffffffffff1690602001909291905050506137b0565b6040518082815260200191505060405180910390f35b34801561106a57600080fd5b5061109f600480360381019080803573ffffffffffffffffffffffffffffffffffffffff169060200190929190505050613837565b005b3480156110ad57600080fd5b50611120600480360381019080803573ffffffffffffffffffffffffffffffffffffffff169060200190929190803573ffffffffffffffffffffffffffffffffffffffff16906020019092919080359060200190929190803590602001909291908035906020019092919050505061398f565b60405180826000191660001916815260200191505060405180910390f35b34801561114a57600080fd5b5061117f600480360381019080803573ffffffffffffffffffffffffffffffffffffffff169060200190929190505050613ab1565b005b600460159054906101000a900460ff1681565b6040805190810160405280600881526020017f546f6b656e44657600000000000000000000000000000000000000000000000081525081565b6000600460149054906101000a900460ff161515156111eb57600080fd5b6111f58383613be0565b905092915050565b6000806000600460149054906101000a900460ff1615151561121e57600080fd5b600460169054906101000a900460ff161561126357611240308888888861134d565b915061124c828961162e565b905061125781612763565b151561126257600080fd5b5b6112708888888888613cd2565b1561133d577f850383053a4e0cc8b97828882fc80543c308bd075cc5bc454b28243814fa8846816112a083611e18565b896112aa8b611e18565b8a604051808673ffffffffffffffffffffffffffffffffffffffff1673ffffffffffffffffffffffffffffffffffffffff1681526020018581526020018473ffffffffffffffffffffffffffffffffffffffff1673ffffffffffffffffffffffffffffffffffffffff1681526020018381526020018281526020019550505050505060405180910390a160019250611342565b600092505b505095945050505050565b60006348664c167c010000000000000000000000000000000000000000000000000000000002868686868660405180877bffffffffffffffffffffffffffffffffffffffffffffffffffffffff19167bffffffffffffffffffffffffffffffffffffffffffffffffffffffff191681526004018673ffffffffffffffffffffffffffffffffffffffff1673ffffffffffffffffffffffffffffffffffffffff166c010000000000000000000000000281526014018573ffffffffffffffffffffffffffffffffffffffff1673ffffffffffffffffffffffffffffffffffffffff166c0100000000000000000000000002815260140184815260200183815260200182815260200196505050505050506040518091039020905095945050505050565b6000600460169054906101000a900460ff161561149b5761148f33612763565b151561149a57600080fd5b5b6114a583836141a0565b15611619577f694d4af865c381294c69b304b233e65cd773b9dff4f5563d50d5424fe5a33c3e42338585604051808581526020018473ffffffffffffffffffffffffffffffffffffffff1673ffffffffffffffffffffffffffffffffffffffff1681526020018373ffffffffffffffffffffffffffffffffffffffff1673ffffffffffffffffffffffffffffffffffffffff16815260200182815260200194505050505060405180910390a17f850383053a4e0cc8b97828882fc80543c308bd075cc5bc454b28243814fa88463361157c33611e18565b8561158687611e18565b86604051808673ffffffffffffffffffffffffffffffffffffffff1673ffffffffffffffffffffffffffffffffffffffff1681526020018581526020018473ffffffffffffffffffffffffffffffffffffffff1673ffffffffffffffffffffffffffffffffffffffff1681526020018381526020018281526020019550505050505060405180910390a16001905061161e565b600090505b92915050565b6000600154905090565b60008060008060418551141515611648576000935061171d565b6020850151925060408501519150606085015160001a9050601b8160ff16101561167357601b810190505b601b8160ff161415801561168b5750601c8160ff1614155b15611699576000935061171d565b600186828585604051600081526020016040526040518085600019166000191681526020018460ff1660ff1681526020018360001916600019168152602001826000191660001916815260200194505050505060206040516020810390808403906000865af1158015611710573d6000803e3d6000fd5b5050506020604051035193505b50505092915050565b6000600460169054906101000a900460ff16156117525761174684612763565b151561175157600080fd5b5b61175d8484846141d0565b1561182a577f850383053a4e0cc8b97828882fc80543c308bd075cc5bc454b28243814fa88468461178d86611e18565b8561179787611e18565b86604051808673ffffffffffffffffffffffffffffffffffffffff1673ffffffffffffffffffffffffffffffffffffffff1681526020018581526020018473ffffffffffffffffffffffffffffffffffffffff1673ffffffffffffffffffffffffffffffffffffffff1681526020018381526020018281526020019550505050505060405180910390a16001905061182f565b600090505b9392505050565b600460009054906101000a900473ffffffffffffffffffffffffffffffffffffffff1673ffffffffffffffffffffffffffffffffffffffff163373ffffffffffffffffffffffffffffffffffffffff1614151561189257600080fd5b61189b81612763565b15156118a657600080fd5b6000600560008373ffffffffffffffffffffffffffffffffffffffff1673ffffffffffffffffffffffffffffffffffffffff16815260200190815260200160002060006101000a81548160ff0219169083151502179055507fad88aec34f4861d5a8a34d064eba1c3ce7222a541db6a6cfbcef0e6aa0dac53c81604051808273ffffffffffffffffffffffffffffffffffffffff1673ffffffffffffffffffffffffffffffffffffffff16815260200191505060405180910390a150565b600460169054906101000a900460ff1681565b601281565b600460009054906101000a900473ffffffffffffffffffffffffffffffffffffffff1673ffffffffffffffffffffffffffffffffffffffff163373ffffffffffffffffffffffffffffffffffffffff161415156119d857600080fd5b600460149054906101000a900460ff1615156119f357600080fd5b6000600460146101000a81548160ff0219169083151502179055507f7805862f689e2f13df9f062ff482ad3ad112aca9e0847911ed832e158c525b3360405160405180910390a1565b6000600460009054906101000a900473ffffffffffffffffffffffffffffffffffffffff1673ffffffffffffffffffffffffffffffffffffffff163373ffffffffffffffffffffffffffffffffffffffff16141515611a9a57600080fd5b600460159054906101000a900460ff16151515611ab657600080fd5b611acb8260015461420290919063ffffffff16565b600181905550611b22826000808673ffffffffffffffffffffffffffffffffffffffff1673ffffffffffffffffffffffffffffffffffffffff1681526020019081526020016000205461420290919063ffffffff16565b6000808573ffffffffffffffffffffffffffffffffffffffff1673ffffffffffffffffffffffffffffffffffffffff168152602001908152602001600020819055508273ffffffffffffffffffffffffffffffffffffffff167f0f6798a560793a54c3bcfe86a93cde1e73087d944c0ea20544137d4121396885836040518082815260200191505060405180910390a28273ffffffffffffffffffffffffffffffffffffffff16600073ffffffffffffffffffffffffffffffffffffffff167fddf252ad1be2c89b69c2b068fc378daa952ba7f163c4a11628f55a4df523b3ef846040518082815260200191505060405180910390a36001905092915050565b601260ff16600a0a633b9aca000281565b60006359388d787c010000000000000000000000000000000000000000000000000000000002868686868660405180877bffffffffffffffffffffffffffffffffffffffffffffffffffffffff19167bffffffffffffffffffffffffffffffffffffffffffffffffffffffff191681526004018673ffffffffffffffffffffffffffffffffffffffff1673ffffffffffffffffffffffffffffffffffffffff166c010000000000000000000000000281526014018573ffffffffffffffffffffffffffffffffffffffff1673ffffffffffffffffffffffffffffffffffffffff166c0100000000000000000000000002815260140184815260200183815260200182815260200196505050505050506040518091039020905095945050505050565b600460149054906101000a900460ff1681565b6000806000600460149054906101000a900460ff16151515611d8957600080fd5b600460169054906101000a900460ff1615611dce57611dab308888888861398f565b9150611db7828961162e565b9050611dc281612763565b1515611dcd57600080fd5b5b611ddb8888888888614220565b9250505095945050505050565b6000600460149054906101000a900460ff16151515611e0657600080fd5b611e1083836146ca565b905092915050565b60008060008373ffffffffffffffffffffffffffffffffffffffff1673ffffffffffffffffffffffffffffffffffffffff168152602001908152602001600020549050919050565b6000600460009054906101000a900473ffffffffffffffffffffffffffffffffffffffff1673ffffffffffffffffffffffffffffffffffffffff163373ffffffffffffffffffffffffffffffffffffffff16141515611ebe57600080fd5b600460159054906101000a900460ff16151515611eda57600080fd5b6001600460156101000a81548160ff0219169083151502179055507fae5184fba832cb2b1f702aca6117b8d265eaf03ad33eb133f19dde0f5920fa0860405160405180910390a16001905090565b600460009054906101000a900473ffffffffffffffffffffffffffffffffffffffff1673ffffffffffffffffffffffffffffffffffffffff163373ffffffffffffffffffffffffffffffffffffffff16141515611f8457600080fd5b600460149054906101000a900460ff16151515611fa057600080fd5b6001600460146101000a81548160ff0219169083151502179055507f6985a02210a168e66602d3235cb6db0e70f92b3ba4d376a33c0f3d9434bff62560405160405180910390a1565b600080600080600073ffffffffffffffffffffffffffffffffffffffff168873ffffffffffffffffffffffffffffffffffffffff161415151561202b57600080fd5b6000151560038a6040518082805190602001908083835b6020831015156120675780518252602082019150602081019050602083039250612042565b6001836020036101000a038019825116818451168082178552505050505050905001915050908152602001604051809103902060009054906101000a900460ff1615151415156120b657600080fd5b6120c33089898989611c33565b92506120cf838a61162e565b9150600073ffffffffffffffffffffffffffffffffffffffff168273ffffffffffffffffffffffffffffffffffffffff161415151561210d57600080fd5b600260008373ffffffffffffffffffffffffffffffffffffffff1673ffffffffffffffffffffffffffffffffffffffff16815260200190815260200160002060008973ffffffffffffffffffffffffffffffffffffffff1673ffffffffffffffffffffffffffffffffffffffff1681526020019081526020016000205490508087111561221b576000600260008473ffffffffffffffffffffffffffffffffffffffff1673ffffffffffffffffffffffffffffffffffffffff16815260200190815260200160002060008a73ffffffffffffffffffffffffffffffffffffffff1673ffffffffffffffffffffffffffffffffffffffff168152602001908152602001600020819055506122af565b61222e878261495b90919063ffffffff16565b600260008473ffffffffffffffffffffffffffffffffffffffff1673ffffffffffffffffffffffffffffffffffffffff16815260200190815260200160002060008a73ffffffffffffffffffffffffffffffffffffffff1673ffffffffffffffffffffffffffffffffffffffff168152602001908152602001600020819055505b612300866000808573ffffffffffffffffffffffffffffffffffffffff1673ffffffffffffffffffffffffffffffffffffffff1681526020019081526020016000205461495b90919063ffffffff16565b6000808473ffffffffffffffffffffffffffffffffffffffff1673ffffffffffffffffffffffffffffffffffffffff16815260200190815260200160002081905550612393866000803373ffffffffffffffffffffffffffffffffffffffff1673ffffffffffffffffffffffffffffffffffffffff1681526020019081526020016000205461420290919063ffffffff16565b6000803373ffffffffffffffffffffffffffffffffffffffff1673ffffffffffffffffffffffffffffffffffffffff16815260200190815260200160002081905550600160038a6040518082805190602001908083835b60208310151561240f57805182526020820191506020810190506020830392506123ea565b6001836020036101000a038019825116818451168082178552505050505050905001915050908152602001604051809103902060006101000a81548160ff0219169083151502179055508773ffffffffffffffffffffffffffffffffffffffff168273ffffffffffffffffffffffffffffffffffffffff167f8c5be1e5ebec7d5bd14f71427d1e84f3dd0314c0f7b2291e5b200ac8c7c3b925896040518082815260200191505060405180910390a33373ffffffffffffffffffffffffffffffffffffffff168273ffffffffffffffffffffffffffffffffffffffff167fddf252ad1be2c89b69c2b068fc378daa952ba7f163c4a11628f55a4df523b3ef886040518082815260200191505060405180910390a33373ffffffffffffffffffffffffffffffffffffffff168873ffffffffffffffffffffffffffffffffffffffff168373ffffffffffffffffffffffffffffffffffffffff167f43a220267705e74ee2ceafd46afc841850db6f85a662189a7def697bbdd90ffb600260008773ffffffffffffffffffffffffffffffffffffffff1673ffffffffffffffffffffffffffffffffffffffff16815260200190815260200160002060008d73ffffffffffffffffffffffffffffffffffffffff1673ffffffffffffffffffffffffffffffffffffffff168152602001908152602001600020548a604051808381526020018281526020019250505060405180910390a46001935050505095945050505050565b600460009054906101000a900473ffffffffffffffffffffffffffffffffffffffff1681565b6040805190810160405280600981526020017f544f4b454e5f444556000000000000000000000000000000000000000000000081525081565b600460009054906101000a900473ffffffffffffffffffffffffffffffffffffffff1673ffffffffffffffffffffffffffffffffffffffff163373ffffffffffffffffffffffffffffffffffffffff161415156126ee57600080fd5b801515600460169054906101000a900460ff1615151415156127605780600460166101000a81548160ff0219169083151502179055507f757db31e37ddce6c8bda07399e53891f513ac7cacd86ae8f781bab706c74d45f81604051808215151515815260200191505060405180910390a15b50565b6000808273ffffffffffffffffffffffffffffffffffffffff161415151561278a57600080fd5b600560008373ffffffffffffffffffffffffffffffffffffffff1673ffffffffffffffffffffffffffffffffffffffff16815260200190815260200160002060009054906101000a900460ff169050919050565b600063a45f71ff7c010000000000000000000000000000000000000000000000000000000002868686868660405180877bffffffffffffffffffffffffffffffffffffffffffffffffffffffff19167bffffffffffffffffffffffffffffffffffffffffffffffffffffffff191681526004018673ffffffffffffffffffffffffffffffffffffffff1673ffffffffffffffffffffffffffffffffffffffff166c010000000000000000000000000281526014018573ffffffffffffffffffffffffffffffffffffffff1673ffffffffffffffffffffffffffffffffffffffff166c0100000000000000000000000002815260140184815260200183815260200182815260200196505050505050506040518091039020905095945050505050565b6000600460169054906101000a900460ff161561292c5761292033612763565b151561292b57600080fd5b5b61293683836141a0565b15612a03577f850383053a4e0cc8b97828882fc80543c308bd075cc5bc454b28243814fa88463361296633611e18565b8561297087611e18565b86604051808673ffffffffffffffffffffffffffffffffffffffff1673ffffffffffffffffffffffffffffffffffffffff1681526020018581526020018473ffffffffffffffffffffffffffffffffffffffff1673ffffffffffffffffffffffffffffffffffffffff1681526020018381526020018281526020019550505050505060405180910390a160019050612a08565b600090505b92915050565b60008060008073ffffffffffffffffffffffffffffffffffffffff168773ffffffffffffffffffffffffffffffffffffffff1614151515612a4e57600080fd5b600015156003896040518082805190602001908083835b602083101515612a8a5780518252602082019150602081019050602083039250612a65565b6001836020036101000a038019825116818451168082178552505050505050905001915050908152602001604051809103902060009054906101000a900460ff161515141515612ad957600080fd5b612ae630888888886127de565b9150612af2828961162e565b9050600073ffffffffffffffffffffffffffffffffffffffff168173ffffffffffffffffffffffffffffffffffffffff1614151515612b3057600080fd5b612bbf86600260008473ffffffffffffffffffffffffffffffffffffffff1673ffffffffffffffffffffffffffffffffffffffff16815260200190815260200160002060008a73ffffffffffffffffffffffffffffffffffffffff1673ffffffffffffffffffffffffffffffffffffffff1681526020019081526020016000205461420290919063ffffffff16565b600260008373ffffffffffffffffffffffffffffffffffffffff1673ffffffffffffffffffffffffffffffffffffffff16815260200190815260200160002060008973ffffffffffffffffffffffffffffffffffffffff1673ffffffffffffffffffffffffffffffffffffffff16815260200190815260200160002081905550612c90856000808473ffffffffffffffffffffffffffffffffffffffff1673ffffffffffffffffffffffffffffffffffffffff1681526020019081526020016000205461495b90919063ffffffff16565b6000808373ffffffffffffffffffffffffffffffffffffffff1673ffffffffffffffffffffffffffffffffffffffff16815260200190815260200160002081905550612d23856000803373ffffffffffffffffffffffffffffffffffffffff1673ffffffffffffffffffffffffffffffffffffffff1681526020019081526020016000205461420290919063ffffffff16565b6000803373ffffffffffffffffffffffffffffffffffffffff1673ffffffffffffffffffffffffffffffffffffffff1681526020019081526020016000208190555060016003896040518082805190602001908083835b602083101515612d9f5780518252602082019150602081019050602083039250612d7a565b6001836020036101000a038019825116818451168082178552505050505050905001915050908152602001604051809103902060006101000a81548160ff0219169083151502179055508673ffffffffffffffffffffffffffffffffffffffff168173ffffffffffffffffffffffffffffffffffffffff167f8c5be1e5ebec7d5bd14f71427d1e84f3dd0314c0f7b2291e5b200ac8c7c3b925600260008573ffffffffffffffffffffffffffffffffffffffff1673ffffffffffffffffffffffffffffffffffffffff16815260200190815260200160002060008b73ffffffffffffffffffffffffffffffffffffffff1673ffffffffffffffffffffffffffffffffffffffff168152602001908152602001600020546040518082815260200191505060405180910390a33373ffffffffffffffffffffffffffffffffffffffff168173ffffffffffffffffffffffffffffffffffffffff167fddf252ad1be2c89b69c2b068fc378daa952ba7f163c4a11628f55a4df523b3ef876040518082815260200191505060405180910390a33373ffffffffffffffffffffffffffffffffffffffff168773ffffffffffffffffffffffffffffffffffffffff168273ffffffffffffffffffffffffffffffffffffffff167f43a220267705e74ee2ceafd46afc841850db6f85a662189a7def697bbdd90ffb600260008673ffffffffffffffffffffffffffffffffffffffff1673ffffffffffffffffffffffffffffffffffffffff16815260200190815260200160002060008c73ffffffffffffffffffffffffffffffffffffffff1673ffffffffffffffffffffffffffffffffffffffff1681526020019081526020016000205489604051808381526020018281526020019250505060405180910390a460019250505095945050505050565b600063b7656dc57c01000000000000000000000000000000000000000000000000000000000287878787878760405180887bffffffffffffffffffffffffffffffffffffffffffffffffffffffff19167bffffffffffffffffffffffffffffffffffffffffffffffffffffffff191681526004018773ffffffffffffffffffffffffffffffffffffffff1673ffffffffffffffffffffffffffffffffffffffff166c010000000000000000000000000281526014018673ffffffffffffffffffffffffffffffffffffffff1673ffffffffffffffffffffffffffffffffffffffff166c010000000000000000000000000281526014018573ffffffffffffffffffffffffffffffffffffffff1673ffffffffffffffffffffffffffffffffffffffff166c01000000000000000000000000028152601401848152602001838152602001828152602001975050505050505050604051809103902090509695505050505050565b60008060008073ffffffffffffffffffffffffffffffffffffffff168773ffffffffffffffffffffffffffffffffffffffff16141515156131e457600080fd5b6000151560038a6040518082805190602001908083835b60208310151561322057805182526020820191506020810190506020830392506131fb565b6001836020036101000a038019825116818451168082178552505050505050905001915050908152602001604051809103902060009054906101000a900460ff16151514151561326f57600080fd5b61327d30898989898961303e565b9150613289828a61162e565b9050600073ffffffffffffffffffffffffffffffffffffffff168173ffffffffffffffffffffffffffffffffffffffff16141515156132c757600080fd5b613318866000808b73ffffffffffffffffffffffffffffffffffffffff1673ffffffffffffffffffffffffffffffffffffffff1681526020019081526020016000205461495b90919063ffffffff16565b6000808a73ffffffffffffffffffffffffffffffffffffffff1673ffffffffffffffffffffffffffffffffffffffff168152602001908152602001600020819055506133ab866000808a73ffffffffffffffffffffffffffffffffffffffff1673ffffffffffffffffffffffffffffffffffffffff1681526020019081526020016000205461420290919063ffffffff16565b6000808973ffffffffffffffffffffffffffffffffffffffff1673ffffffffffffffffffffffffffffffffffffffff1681526020019081526020016000208190555061347c86600260008b73ffffffffffffffffffffffffffffffffffffffff1673ffffffffffffffffffffffffffffffffffffffff16815260200190815260200160002060008473ffffffffffffffffffffffffffffffffffffffff1673ffffffffffffffffffffffffffffffffffffffff1681526020019081526020016000205461495b90919063ffffffff16565b600260008a73ffffffffffffffffffffffffffffffffffffffff1673ffffffffffffffffffffffffffffffffffffffff16815260200190815260200160002060008373ffffffffffffffffffffffffffffffffffffffff1673ffffffffffffffffffffffffffffffffffffffff1681526020019081526020016000208190555061354d856000808473ffffffffffffffffffffffffffffffffffffffff1673ffffffffffffffffffffffffffffffffffffffff1681526020019081526020016000205461495b90919063ffffffff16565b6000808373ffffffffffffffffffffffffffffffffffffffff1673ffffffffffffffffffffffffffffffffffffffff168152602001908152602001600020819055506135e0856000803373ffffffffffffffffffffffffffffffffffffffff1673ffffffffffffffffffffffffffffffffffffffff1681526020019081526020016000205461420290919063ffffffff16565b6000803373ffffffffffffffffffffffffffffffffffffffff1673ffffffffffffffffffffffffffffffffffffffff16815260200190815260200160002081905550600160038a6040518082805190602001908083835b60208310151561365c5780518252602082019150602081019050602083039250613637565b6001836020036101000a038019825116818451168082178552505050505050905001915050908152602001604051809103902060006101000a81548160ff0219169083151502179055508673ffffffffffffffffffffffffffffffffffffffff168873ffffffffffffffffffffffffffffffffffffffff167fddf252ad1be2c89b69c2b068fc378daa952ba7f163c4a11628f55a4df523b3ef886040518082815260200191505060405180910390a33373ffffffffffffffffffffffffffffffffffffffff168173ffffffffffffffffffffffffffffffffffffffff167fddf252ad1be2c89b69c2b068fc378daa952ba7f163c4a11628f55a4df523b3ef876040518082815260200191505060405180910390a36001925050509695505050505050565b6000600460149054906101000a900460ff1615151561379e57600080fd5b6137a88383614974565b905092915050565b6000600260008473ffffffffffffffffffffffffffffffffffffffff1673ffffffffffffffffffffffffffffffffffffffff16815260200190815260200160002060008373ffffffffffffffffffffffffffffffffffffffff1673ffffffffffffffffffffffffffffffffffffffff16815260200190815260200160002054905092915050565b600460009054906101000a900473ffffffffffffffffffffffffffffffffffffffff1673ffffffffffffffffffffffffffffffffffffffff163373ffffffffffffffffffffffffffffffffffffffff1614151561389357600080fd5b600073ffffffffffffffffffffffffffffffffffffffff168173ffffffffffffffffffffffffffffffffffffffff16141515156138cf57600080fd5b8073ffffffffffffffffffffffffffffffffffffffff16600460009054906101000a900473ffffffffffffffffffffffffffffffffffffffff1673ffffffffffffffffffffffffffffffffffffffff167f8be0079c531659141344cd1fd0a4f28419497f9722a3daafe3b4186f6b6457e060405160405180910390a380600460006101000a81548173ffffffffffffffffffffffffffffffffffffffff021916908373ffffffffffffffffffffffffffffffffffffffff16021790555050565b600063f7ac9c2e7c010000000000000000000000000000000000000000000000000000000002868686868660405180877bffffffffffffffffffffffffffffffffffffffffffffffffffffffff19167bffffffffffffffffffffffffffffffffffffffffffffffffffffffff191681526004018673ffffffffffffffffffffffffffffffffffffffff1673ffffffffffffffffffffffffffffffffffffffff166c010000000000000000000000000281526014018573ffffffffffffffffffffffffffffffffffffffff1673ffffffffffffffffffffffffffffffffffffffff166c0100000000000000000000000002815260140184815260200183815260200182815260200196505050505050506040518091039020905095945050505050565b600460009054906101000a900473ffffffffffffffffffffffffffffffffffffffff1673ffffffffffffffffffffffffffffffffffffffff163373ffffffffffffffffffffffffffffffffffffffff16141515613b0d57600080fd5b613b1681612763565b151515613b2257600080fd5b6001600560008373ffffffffffffffffffffffffffffffffffffffff1673ffffffffffffffffffffffffffffffffffffffff16815260200190815260200160002060006101000a81548160ff0219169083151502179055507fad88aec34f4861d5a8a34d064eba1c3ce7222a541db6a6cfbcef0e6aa0dac53c81604051808273ffffffffffffffffffffffffffffffffffffffff1673ffffffffffffffffffffffffffffffffffffffff16815260200191505060405180910390a150565b600081600260003373ffffffffffffffffffffffffffffffffffffffff1673ffffffffffffffffffffffffffffffffffffffff16815260200190815260200160002060008573ffffffffffffffffffffffffffffffffffffffff1673ffffffffffffffffffffffffffffffffffffffff168152602001908152602001600020819055508273ffffffffffffffffffffffffffffffffffffffff163373ffffffffffffffffffffffffffffffffffffffff167f8c5be1e5ebec7d5bd14f71427d1e84f3dd0314c0f7b2291e5b200ac8c7c3b925846040518082815260200191505060405180910390a36001905092915050565b60008060008073ffffffffffffffffffffffffffffffffffffffff168773ffffffffffffffffffffffffffffffffffffffff1614151515613d1257600080fd5b600015156003896040518082805190602001908083835b602083101515613d4e5780518252602082019150602081019050602083039250613d29565b6001836020036101000a038019825116818451168082178552505050505050905001915050908152602001604051809103902060009054906101000a900460ff161515141515613d9d57600080fd5b613daa308888888861134d565b9150613db6828961162e565b9050600073ffffffffffffffffffffffffffffffffffffffff168173ffffffffffffffffffffffffffffffffffffffff1614151515613df457600080fd5b613e5785613e49886000808673ffffffffffffffffffffffffffffffffffffffff1673ffffffffffffffffffffffffffffffffffffffff1681526020019081526020016000205461495b90919063ffffffff16565b61495b90919063ffffffff16565b6000808373ffffffffffffffffffffffffffffffffffffffff1673ffffffffffffffffffffffffffffffffffffffff16815260200190815260200160002081905550613eea866000808a73ffffffffffffffffffffffffffffffffffffffff1673ffffffffffffffffffffffffffffffffffffffff1681526020019081526020016000205461420290919063ffffffff16565b6000808973ffffffffffffffffffffffffffffffffffffffff1673ffffffffffffffffffffffffffffffffffffffff16815260200190815260200160002081905550613f7d856000803373ffffffffffffffffffffffffffffffffffffffff1673ffffffffffffffffffffffffffffffffffffffff1681526020019081526020016000205461420290919063ffffffff16565b6000803373ffffffffffffffffffffffffffffffffffffffff1673ffffffffffffffffffffffffffffffffffffffff1681526020019081526020016000208190555060016003896040518082805190602001908083835b602083101515613ff95780518252602082019150602081019050602083039250613fd4565b6001836020036101000a038019825116818451168082178552505050505050905001915050908152602001604051809103902060006101000a81548160ff0219169083151502179055508673ffffffffffffffffffffffffffffffffffffffff168173ffffffffffffffffffffffffffffffffffffffff167fddf252ad1be2c89b69c2b068fc378daa952ba7f163c4a11628f55a4df523b3ef886040518082815260200191505060405180910390a33373ffffffffffffffffffffffffffffffffffffffff168173ffffffffffffffffffffffffffffffffffffffff167fddf252ad1be2c89b69c2b068fc378daa952ba7f163c4a11628f55a4df523b3ef876040518082815260200191505060405180910390a33373ffffffffffffffffffffffffffffffffffffffff168773ffffffffffffffffffffffffffffffffffffffff168273ffffffffffffffffffffffffffffffffffffffff167fec5a73fd1f178be20c1bca1b406cbf4b5c20d833b66e582fc122fb4baa0fc2a48989604051808381526020018281526020019250505060405180910390a460019250505095945050505050565b6000600460149054906101000a900460ff161515156141be57600080fd5b6141c88383614b70565b905092915050565b6000600460149054906101000a900460ff161515156141ee57600080fd5b6141f9848484614d8f565b90509392505050565b600080828401905083811015151561421657fe5b8091505092915050565b60008060008073ffffffffffffffffffffffffffffffffffffffff168773ffffffffffffffffffffffffffffffffffffffff161415151561426057600080fd5b600015156003896040518082805190602001908083835b60208310151561429c5780518252602082019150602081019050602083039250614277565b6001836020036101000a038019825116818451168082178552505050505050905001915050908152602001604051809103902060009054906101000a900460ff1615151415156142eb57600080fd5b6142f8308888888861398f565b9150614304828961162e565b9050600073ffffffffffffffffffffffffffffffffffffffff168173ffffffffffffffffffffffffffffffffffffffff161415151561434257600080fd5b85600260008373ffffffffffffffffffffffffffffffffffffffff1673ffffffffffffffffffffffffffffffffffffffff16815260200190815260200160002060008973ffffffffffffffffffffffffffffffffffffffff1673ffffffffffffffffffffffffffffffffffffffff16815260200190815260200160002081905550614414856000808473ffffffffffffffffffffffffffffffffffffffff1673ffffffffffffffffffffffffffffffffffffffff1681526020019081526020016000205461495b90919063ffffffff16565b6000808373ffffffffffffffffffffffffffffffffffffffff1673ffffffffffffffffffffffffffffffffffffffff168152602001908152602001600020819055506144a7856000803373ffffffffffffffffffffffffffffffffffffffff1673ffffffffffffffffffffffffffffffffffffffff1681526020019081526020016000205461420290919063ffffffff16565b6000803373ffffffffffffffffffffffffffffffffffffffff1673ffffffffffffffffffffffffffffffffffffffff1681526020019081526020016000208190555060016003896040518082805190602001908083835b60208310151561452357805182526020820191506020810190506020830392506144fe565b6001836020036101000a038019825116818451168082178552505050505050905001915050908152602001604051809103902060006101000a81548160ff0219169083151502179055508673ffffffffffffffffffffffffffffffffffffffff168173ffffffffffffffffffffffffffffffffffffffff167f8c5be1e5ebec7d5bd14f71427d1e84f3dd0314c0f7b2291e5b200ac8c7c3b925886040518082815260200191505060405180910390a33373ffffffffffffffffffffffffffffffffffffffff168173ffffffffffffffffffffffffffffffffffffffff167fddf252ad1be2c89b69c2b068fc378daa952ba7f163c4a11628f55a4df523b3ef876040518082815260200191505060405180910390a33373ffffffffffffffffffffffffffffffffffffffff168773ffffffffffffffffffffffffffffffffffffffff168273ffffffffffffffffffffffffffffffffffffffff167f43a220267705e74ee2ceafd46afc841850db6f85a662189a7def697bbdd90ffb8989604051808381526020018281526020019250505060405180910390a460019250505095945050505050565b600080600260003373ffffffffffffffffffffffffffffffffffffffff1673ffffffffffffffffffffffffffffffffffffffff16815260200190815260200160002060008573ffffffffffffffffffffffffffffffffffffffff1673ffffffffffffffffffffffffffffffffffffffff168152602001908152602001600020549050808311156147db576000600260003373ffffffffffffffffffffffffffffffffffffffff1673ffffffffffffffffffffffffffffffffffffffff16815260200190815260200160002060008673ffffffffffffffffffffffffffffffffffffffff1673ffffffffffffffffffffffffffffffffffffffff1681526020019081526020016000208190555061486f565b6147ee838261495b90919063ffffffff16565b600260003373ffffffffffffffffffffffffffffffffffffffff1673ffffffffffffffffffffffffffffffffffffffff16815260200190815260200160002060008673ffffffffffffffffffffffffffffffffffffffff1673ffffffffffffffffffffffffffffffffffffffff168152602001908152602001600020819055505b8373ffffffffffffffffffffffffffffffffffffffff163373ffffffffffffffffffffffffffffffffffffffff167f8c5be1e5ebec7d5bd14f71427d1e84f3dd0314c0f7b2291e5b200ac8c7c3b925600260003373ffffffffffffffffffffffffffffffffffffffff1673ffffffffffffffffffffffffffffffffffffffff16815260200190815260200160002060008873ffffffffffffffffffffffffffffffffffffffff1673ffffffffffffffffffffffffffffffffffffffff168152602001908152602001600020546040518082815260200191505060405180910390a3600191505092915050565b600082821115151561496957fe5b818303905092915050565b6000614a0582600260003373ffffffffffffffffffffffffffffffffffffffff1673ffffffffffffffffffffffffffffffffffffffff16815260200190815260200160002060008673ffffffffffffffffffffffffffffffffffffffff1673ffffffffffffffffffffffffffffffffffffffff1681526020019081526020016000205461420290919063ffffffff16565b600260003373ffffffffffffffffffffffffffffffffffffffff1673ffffffffffffffffffffffffffffffffffffffff16815260200190815260200160002060008573ffffffffffffffffffffffffffffffffffffffff1673ffffffffffffffffffffffffffffffffffffffff168152602001908152602001600020819055508273ffffffffffffffffffffffffffffffffffffffff163373ffffffffffffffffffffffffffffffffffffffff167f8c5be1e5ebec7d5bd14f71427d1e84f3dd0314c0f7b2291e5b200ac8c7c3b925600260003373ffffffffffffffffffffffffffffffffffffffff1673ffffffffffffffffffffffffffffffffffffffff16815260200190815260200160002060008773ffffffffffffffffffffffffffffffffffffffff1673ffffffffffffffffffffffffffffffffffffffff168152602001908152602001600020546040518082815260200191505060405180910390a36001905092915050565b60008073ffffffffffffffffffffffffffffffffffffffff168373ffffffffffffffffffffffffffffffffffffffff1614151515614bad57600080fd5b6000803373ffffffffffffffffffffffffffffffffffffffff1673ffffffffffffffffffffffffffffffffffffffff168152602001908152602001600020548211151515614bfa57600080fd5b614c4b826000803373ffffffffffffffffffffffffffffffffffffffff1673ffffffffffffffffffffffffffffffffffffffff1681526020019081526020016000205461495b90919063ffffffff16565b6000803373ffffffffffffffffffffffffffffffffffffffff1673ffffffffffffffffffffffffffffffffffffffff16815260200190815260200160002081905550614cde826000808673ffffffffffffffffffffffffffffffffffffffff1673ffffffffffffffffffffffffffffffffffffffff1681526020019081526020016000205461420290919063ffffffff16565b6000808573ffffffffffffffffffffffffffffffffffffffff1673ffffffffffffffffffffffffffffffffffffffff168152602001908152602001600020819055508273ffffffffffffffffffffffffffffffffffffffff163373ffffffffffffffffffffffffffffffffffffffff167fddf252ad1be2c89b69c2b068fc378daa952ba7f163c4a11628f55a4df523b3ef846040518082815260200191505060405180910390a36001905092915050565b60008073ffffffffffffffffffffffffffffffffffffffff168373ffffffffffffffffffffffffffffffffffffffff1614151515614dcc57600080fd5b6000808573ffffffffffffffffffffffffffffffffffffffff1673ffffffffffffffffffffffffffffffffffffffff168152602001908152602001600020548211151515614e1957600080fd5b600260008573ffffffffffffffffffffffffffffffffffffffff1673ffffffffffffffffffffffffffffffffffffffff16815260200190815260200160002060003373ffffffffffffffffffffffffffffffffffffffff1673ffffffffffffffffffffffffffffffffffffffff168152602001908152602001600020548211151515614ea457600080fd5b614ef5826000808773ffffffffffffffffffffffffffffffffffffffff1673ffffffffffffffffffffffffffffffffffffffff1681526020019081526020016000205461495b90919063ffffffff16565b6000808673ffffffffffffffffffffffffffffffffffffffff1673ffffffffffffffffffffffffffffffffffffffff16815260200190815260200160002081905550614f88826000808673ffffffffffffffffffffffffffffffffffffffff1673ffffffffffffffffffffffffffffffffffffffff1681526020019081526020016000205461420290919063ffffffff16565b6000808573ffffffffffffffffffffffffffffffffffffffff1673ffffffffffffffffffffffffffffffffffffffff1681526020019081526020016000208190555061505982600260008773ffffffffffffffffffffffffffffffffffffffff1673ffffffffffffffffffffffffffffffffffffffff16815260200190815260200160002060003373ffffffffffffffffffffffffffffffffffffffff1673ffffffffffffffffffffffffffffffffffffffff1681526020019081526020016000205461495b90919063ffffffff16565b600260008673ffffffffffffffffffffffffffffffffffffffff1673ffffffffffffffffffffffffffffffffffffffff16815260200190815260200160002060003373ffffffffffffffffffffffffffffffffffffffff1673ffffffffffffffffffffffffffffffffffffffff168152602001908152602001600020819055508273ffffffffffffffffffffffffffffffffffffffff168473ffffffffffffffffffffffffffffffffffffffff167fddf252ad1be2c89b69c2b068fc378daa952ba7f163c4a11628f55a4df523b3ef846040518082815260200191505060405180910390a36001905093925050505600a165627a7a72305820d370aa7c69d0107cfeb9d7d4251f0b391336d5caea49231682dd2a88046644cc0029",
  "source": "pragma solidity ^0.4.18;\n\n// File: zeppelin-solidity/contracts/token/ERC20/ERC20Basic.sol\n\n/**\n * @title ERC20Basic\n * @dev Simpler version of ERC20 interface\n * @dev see https://github.com/ethereum/EIPs/issues/179\n */\ncontract ERC20Basic {\n  function totalSupply() public view returns (uint256);\n  function balanceOf(address who) public view returns (uint256);\n  function transfer(address to, uint256 value) public returns (bool);\n  event Transfer(address indexed from, address indexed to, uint256 value);\n}\n\n// File: zeppelin-solidity/contracts/token/ERC20/ERC20.sol\n\n/**\n * @title ERC20 interface\n * @dev see https://github.com/ethereum/EIPs/issues/20\n */\ncontract ERC20 is ERC20Basic {\n  function allowance(address owner, address spender) public view returns (uint256);\n  function transferFrom(address from, address to, uint256 value) public returns (bool);\n  function approve(address spender, uint256 value) public returns (bool);\n  event Approval(address indexed owner, address indexed spender, uint256 value);\n}\n\n// File: contracts/token/ERC865.sol\n\n/**\n * @title ERC865Token Token\n *\n * ERC865Token allows users paying transfers in tokens instead of gas\n * https://github.com/ethereum/EIPs/issues/865\n *\n */\n\ncontract ERC865 is ERC20 {\n\n    function transferPreSigned(\n        bytes _signature,\n        address _to,\n        uint256 _value,\n        uint256 _fee,\n        uint256 _nonce\n    )\n        public\n        returns (bool);\n\n    function approvePreSigned(\n        bytes _signature,\n        address _spender,\n        uint256 _value,\n        uint256 _fee,\n        uint256 _nonce\n    )\n        public\n        returns (bool);\n\n    function increaseApprovalPreSigned(\n        bytes _signature,\n        address _spender,\n        uint256 _addedValue,\n        uint256 _fee,\n        uint256 _nonce\n    )\n        public\n        returns (bool);\n\n    function decreaseApprovalPreSigned(\n        bytes _signature,\n        address _spender,\n        uint256 _subtractedValue,\n        uint256 _fee,\n        uint256 _nonce\n    )\n        public\n        returns (bool);\n\n    function transferFromPreSigned(\n        bytes _signature,\n        address _from,\n        address _to,\n        uint256 _value,\n        uint256 _fee,\n        uint256 _nonce\n    )\n        public\n        returns (bool);\n}\n\n// File: zeppelin-solidity/contracts/math/SafeMath.sol\n\n/**\n * @title SafeMath\n * @dev Math operations with safety checks that throw on error\n */\nlibrary SafeMath {\n\n  /**\n  * @dev Multiplies two numbers, throws on overflow.\n  */\n  function mul(uint256 a, uint256 b) internal pure returns (uint256) {\n    if (a == 0) {\n      return 0;\n    }\n    uint256 c = a * b;\n    assert(c / a == b);\n    return c;\n  }\n\n  /**\n  * @dev Integer division of two numbers, truncating the quotient.\n  */\n  function div(uint256 a, uint256 b) internal pure returns (uint256) {\n    // assert(b > 0); // Solidity automatically throws when dividing by 0\n    uint256 c = a / b;\n    // assert(a == b * c + a % b); // There is no case in which this doesn't hold\n    return c;\n  }\n\n  /**\n  * @dev Substracts two numbers, throws on overflow (i.e. if subtrahend is greater than minuend).\n  */\n  function sub(uint256 a, uint256 b) internal pure returns (uint256) {\n    assert(b <= a);\n    return a - b;\n  }\n\n  /**\n  * @dev Adds two numbers, throws on overflow.\n  */\n  function add(uint256 a, uint256 b) internal pure returns (uint256) {\n    uint256 c = a + b;\n    assert(c >= a);\n    return c;\n  }\n}\n\n// File: zeppelin-solidity/contracts/token/ERC20/BasicToken.sol\n\n/**\n * @title Basic token\n * @dev Basic version of StandardToken, with no allowances.\n */\ncontract BasicToken is ERC20Basic {\n  using SafeMath for uint256;\n\n  mapping(address => uint256) balances;\n\n  uint256 totalSupply_;\n\n  /**\n  * @dev total number of tokens in existence\n  */\n  function totalSupply() public view returns (uint256) {\n    return totalSupply_;\n  }\n\n  /**\n  * @dev transfer token for a specified address\n  * @param _to The address to transfer to.\n  * @param _value The amount to be transferred.\n  */\n  function transfer(address _to, uint256 _value) public returns (bool) {\n    require(_to != address(0));\n    require(_value <= balances[msg.sender]);\n\n    // SafeMath.sub will throw if there is not enough balance.\n    balances[msg.sender] = balances[msg.sender].sub(_value);\n    balances[_to] = balances[_to].add(_value);\n    Transfer(msg.sender, _to, _value);\n    return true;\n  }\n\n  /**\n  * @dev Gets the balance of the specified address.\n  * @param _owner The address to query the the balance of.\n  * @return An uint256 representing the amount owned by the passed address.\n  */\n  function balanceOf(address _owner) public view returns (uint256 balance) {\n    return balances[_owner];\n  }\n\n}\n\n// File: zeppelin-solidity/contracts/token/ERC20/StandardToken.sol\n\n/**\n * @title Standard ERC20 token\n *\n * @dev Implementation of the basic standard token.\n * @dev https://github.com/ethereum/EIPs/issues/20\n * @dev Based on code by FirstBlood: https://github.com/Firstbloodio/token/blob/master/smart_contract/FirstBloodToken.sol\n */\ncontract StandardToken is ERC20, BasicToken {\n\n  mapping (address => mapping (address => uint256)) internal allowed;\n\n\n  /**\n   * @dev Transfer tokens from one address to another\n   * @param _from address The address which you want to send tokens from\n   * @param _to address The address which you want to transfer to\n   * @param _value uint256 the amount of tokens to be transferred\n   */\n  function transferFrom(address _from, address _to, uint256 _value) public returns (bool) {\n    require(_to != address(0));\n    require(_value <= balances[_from]);\n    require(_value <= allowed[_from][msg.sender]);\n\n    balances[_from] = balances[_from].sub(_value);\n    balances[_to] = balances[_to].add(_value);\n    allowed[_from][msg.sender] = allowed[_from][msg.sender].sub(_value);\n    Transfer(_from, _to, _value);\n    return true;\n  }\n\n  /**\n   * @dev Approve the passed address to spend the specified amount of tokens on behalf of msg.sender.\n   *\n   * Beware that changing an allowance with this method brings the risk that someone may use both the old\n   * and the new allowance by unfortunate transaction ordering. One possible solution to mitigate this\n   * race condition is to first reduce the spender's allowance to 0 and set the desired value afterwards:\n   * https://github.com/ethereum/EIPs/issues/20#issuecomment-263524729\n   * @param _spender The address which will spend the funds.\n   * @param _value The amount of tokens to be spent.\n   */\n  function approve(address _spender, uint256 _value) public returns (bool) {\n    allowed[msg.sender][_spender] = _value;\n    Approval(msg.sender, _spender, _value);\n    return true;\n  }\n\n  /**\n   * @dev Function to check the amount of tokens that an owner allowed to a spender.\n   * @param _owner address The address which owns the funds.\n   * @param _spender address The address which will spend the funds.\n   * @return A uint256 specifying the amount of tokens still available for the spender.\n   */\n  function allowance(address _owner, address _spender) public view returns (uint256) {\n    return allowed[_owner][_spender];\n  }\n\n  /**\n   * @dev Increase the amount of tokens that an owner allowed to a spender.\n   *\n   * approve should be called when allowed[_spender] == 0. To increment\n   * allowed value is better to use this function to avoid 2 calls (and wait until\n   * the first transaction is mined)\n   * From MonolithDAO Token.sol\n   * @param _spender The address which will spend the funds.\n   * @param _addedValue The amount of tokens to increase the allowance by.\n   */\n  function increaseApproval(address _spender, uint _addedValue) public returns (bool) {\n    allowed[msg.sender][_spender] = allowed[msg.sender][_spender].add(_addedValue);\n    Approval(msg.sender, _spender, allowed[msg.sender][_spender]);\n    return true;\n  }\n\n  /**\n   * @dev Decrease the amount of tokens that an owner allowed to a spender.\n   *\n   * approve should be called when allowed[_spender] == 0. To decrement\n   * allowed value is better to use this function to avoid 2 calls (and wait until\n   * the first transaction is mined)\n   * From MonolithDAO Token.sol\n   * @param _spender The address which will spend the funds.\n   * @param _subtractedValue The amount of tokens to decrease the allowance by.\n   */\n  function decreaseApproval(address _spender, uint _subtractedValue) public returns (bool) {\n    uint oldValue = allowed[msg.sender][_spender];\n    if (_subtractedValue > oldValue) {\n      allowed[msg.sender][_spender] = 0;\n    } else {\n      allowed[msg.sender][_spender] = oldValue.sub(_subtractedValue);\n    }\n    Approval(msg.sender, _spender, allowed[msg.sender][_spender]);\n    return true;\n  }\n\n}\n\n// File: contracts/token/ERC865Token.sol\n\n/**\n * @title ERC865Token Token\n *\n * ERC865Token allows users paying transfers in tokens instead of gas\n * https://github.com/ethereum/EIPs/issues/865\n *\n */\n\ncontract ERC865Token is ERC865, StandardToken {\n\n    /* Nonces of transfers performed */\n    mapping(bytes => bool) signatures;\n\n    event TransferPreSigned(address indexed from, address indexed to, address indexed delegate, uint256 amount, uint256 fee);\n    event ApprovalPreSigned(address indexed from, address indexed to, address indexed delegate, uint256 amount, uint256 fee);\n\n    /**\n     * @notice Submit a presigned transfer\n     * @param _signature bytes The signature, issued by the owner.\n     * @param _to address The address which you want to transfer to.\n     * @param _value uint256 The amount of tokens to be transferred.\n     * @param _fee uint256 The amount of tokens paid to msg.sender, by the owner.\n     * @param _nonce uint256 Presigned transaction number.\n     */\n    function transferPreSigned(\n        bytes _signature,\n        address _to,\n        uint256 _value,\n        uint256 _fee,\n        uint256 _nonce\n    )\n        public\n        returns (bool)\n    {\n        require(_to != address(0));\n        require(signatures[_signature] == false);\n\n        bytes32 hashedTx = transferPreSignedHashing(address(this), _to, _value, _fee, _nonce);\n\n        address from = recover(hashedTx, _signature);\n        require(from != address(0));\n\n        balances[from] = balances[from].sub(_value).sub(_fee);\n        balances[_to] = balances[_to].add(_value);\n        balances[msg.sender] = balances[msg.sender].add(_fee);\n        signatures[_signature] = true;\n\n        Transfer(from, _to, _value);\n        Transfer(from, msg.sender, _fee);\n        TransferPreSigned(from, _to, msg.sender, _value, _fee);\n        return true;\n    }\n\n    /**\n     * @notice Submit a presigned approval\n     * @param _signature bytes The signature, issued by the owner.\n     * @param _spender address The address which will spend the funds.\n     * @param _value uint256 The amount of tokens to allow.\n     * @param _fee uint256 The amount of tokens paid to msg.sender, by the owner.\n     * @param _nonce uint256 Presigned transaction number.\n     */\n    function approvePreSigned(\n        bytes _signature,\n        address _spender,\n        uint256 _value,\n        uint256 _fee,\n        uint256 _nonce\n    )\n        public\n        returns (bool)\n    {\n        require(_spender != address(0));\n        require(signatures[_signature] == false);\n\n        bytes32 hashedTx = approvePreSignedHashing(address(this), _spender, _value, _fee, _nonce);\n        address from = recover(hashedTx, _signature);\n        require(from != address(0));\n\n        allowed[from][_spender] = _value;\n        balances[from] = balances[from].sub(_fee);\n        balances[msg.sender] = balances[msg.sender].add(_fee);\n        signatures[_signature] = true;\n\n        Approval(from, _spender, _value);\n        Transfer(from, msg.sender, _fee);\n        ApprovalPreSigned(from, _spender, msg.sender, _value, _fee);\n        return true;\n    }\n\n    /**\n     * @notice Increase the amount of tokens that an owner allowed to a spender.\n     * @param _signature bytes The signature, issued by the owner.\n     * @param _spender address The address which will spend the funds.\n     * @param _addedValue uint256 The amount of tokens to increase the allowance by.\n     * @param _fee uint256 The amount of tokens paid to msg.sender, by the owner.\n     * @param _nonce uint256 Presigned transaction number.\n     */\n    function increaseApprovalPreSigned(\n        bytes _signature,\n        address _spender,\n        uint256 _addedValue,\n        uint256 _fee,\n        uint256 _nonce\n    )\n        public\n        returns (bool)\n    {\n        require(_spender != address(0));\n        require(signatures[_signature] == false);\n\n        bytes32 hashedTx = increaseApprovalPreSignedHashing(address(this), _spender, _addedValue, _fee, _nonce);\n        address from = recover(hashedTx, _signature);\n        require(from != address(0));\n\n        allowed[from][_spender] = allowed[from][_spender].add(_addedValue);\n        balances[from] = balances[from].sub(_fee);\n        balances[msg.sender] = balances[msg.sender].add(_fee);\n        signatures[_signature] = true;\n\n        Approval(from, _spender, allowed[from][_spender]);\n        Transfer(from, msg.sender, _fee);\n        ApprovalPreSigned(from, _spender, msg.sender, allowed[from][_spender], _fee);\n        return true;\n    }\n\n    /**\n     * @notice Decrease the amount of tokens that an owner allowed to a spender.\n     * @param _signature bytes The signature, issued by the owner\n     * @param _spender address The address which will spend the funds.\n     * @param _subtractedValue uint256 The amount of tokens to decrease the allowance by.\n     * @param _fee uint256 The amount of tokens paid to msg.sender, by the owner.\n     * @param _nonce uint256 Presigned transaction number.\n     */\n    function decreaseApprovalPreSigned(\n        bytes _signature,\n        address _spender,\n        uint256 _subtractedValue,\n        uint256 _fee,\n        uint256 _nonce\n    )\n        public\n        returns (bool)\n    {\n        require(_spender != address(0));\n        require(signatures[_signature] == false);\n\n        bytes32 hashedTx = decreaseApprovalPreSignedHashing(address(this), _spender, _subtractedValue, _fee, _nonce);\n        address from = recover(hashedTx, _signature);\n        require(from != address(0));\n\n        uint oldValue = allowed[from][_spender];\n        if (_subtractedValue > oldValue) {\n            allowed[from][_spender] = 0;\n        } else {\n            allowed[from][_spender] = oldValue.sub(_subtractedValue);\n        }\n        balances[from] = balances[from].sub(_fee);\n        balances[msg.sender] = balances[msg.sender].add(_fee);\n        signatures[_signature] = true;\n\n        Approval(from, _spender, _subtractedValue);\n        Transfer(from, msg.sender, _fee);\n        ApprovalPreSigned(from, _spender, msg.sender, allowed[from][_spender], _fee);\n        return true;\n    }\n\n    /**\n     * @notice Transfer tokens from one address to another\n     * @param _signature bytes The signature, issued by the spender.\n     * @param _from address The address which you want to send tokens from.\n     * @param _to address The address which you want to transfer to.\n     * @param _value uint256 The amount of tokens to be transferred.\n     * @param _fee uint256 The amount of tokens paid to msg.sender, by the spender.\n     * @param _nonce uint256 Presigned transaction number.\n     */\n    function transferFromPreSigned(\n        bytes _signature,\n        address _from,\n        address _to,\n        uint256 _value,\n        uint256 _fee,\n        uint256 _nonce\n    )\n        public\n        returns (bool)\n    {\n        require(_to != address(0));\n        require(signatures[_signature] == false);\n\n        bytes32 hashedTx = transferFromPreSignedHashing(address(this), _from, _to, _value, _fee, _nonce);\n\n        address spender = recover(hashedTx, _signature);\n        require(spender != address(0));\n\n        balances[_from] = balances[_from].sub(_value);\n        balances[_to] = balances[_to].add(_value);\n        allowed[_from][spender] = allowed[_from][spender].sub(_value);\n\n        balances[spender] = balances[spender].sub(_fee);\n        balances[msg.sender] = balances[msg.sender].add(_fee);\n        signatures[_signature] = true;\n\n        Transfer(_from, _to, _value);\n        Transfer(spender, msg.sender, _fee);\n        return true;\n    }\n\n\n    /**\n     * @notice Hash (keccak256) of the payload used by transferPreSigned\n     * @param _token address The address of the token.\n     * @param _to address The address which you want to transfer to.\n     * @param _value uint256 The amount of tokens to be transferred.\n     * @param _fee uint256 The amount of tokens paid to msg.sender, by the owner.\n     * @param _nonce uint256 Presigned transaction number.\n     */\n    function transferPreSignedHashing(\n        address _token,\n        address _to,\n        uint256 _value,\n        uint256 _fee,\n        uint256 _nonce\n    )\n        public\n        pure\n        returns (bytes32)\n    {\n        /* \"48664c16\": transferPreSignedHashing(address,address,address,uint256,uint256,uint256) */\n        return keccak256(bytes4(0x48664c16), _token, _to, _value, _fee, _nonce);\n    }\n\n    /**\n     * @notice Hash (keccak256) of the payload used by approvePreSigned\n     * @param _token address The address of the token\n     * @param _spender address The address which will spend the funds.\n     * @param _value uint256 The amount of tokens to allow.\n     * @param _fee uint256 The amount of tokens paid to msg.sender, by the owner.\n     * @param _nonce uint256 Presigned transaction number.\n     */\n    function approvePreSignedHashing(\n        address _token,\n        address _spender,\n        uint256 _value,\n        uint256 _fee,\n        uint256 _nonce\n    )\n        public\n        pure\n        returns (bytes32)\n    {\n        /* \"f7ac9c2e\": approvePreSignedHashing(address,address,uint256,uint256,uint256) */\n        return keccak256(bytes4(0xf7ac9c2e), _token, _spender, _value, _fee, _nonce);\n    }\n\n    /**\n     * @notice Hash (keccak256) of the payload used by increaseApprovalPreSigned\n     * @param _token address The address of the token\n     * @param _spender address The address which will spend the funds.\n     * @param _addedValue uint256 The amount of tokens to increase the allowance by.\n     * @param _fee uint256 The amount of tokens paid to msg.sender, by the owner.\n     * @param _nonce uint256 Presigned transaction number.\n     */\n    function increaseApprovalPreSignedHashing(\n        address _token,\n        address _spender,\n        uint256 _addedValue,\n        uint256 _fee,\n        uint256 _nonce\n    )\n        public\n        pure\n        returns (bytes32)\n    {\n        /* \"a45f71ff\": increaseApprovalPreSignedHashing(address,address,uint256,uint256,uint256) */\n        return keccak256(bytes4(0xa45f71ff), _token, _spender, _addedValue, _fee, _nonce);\n    }\n\n     /**\n      * @notice Hash (keccak256) of the payload used by decreaseApprovalPreSigned\n      * @param _token address The address of the token\n      * @param _spender address The address which will spend the funds.\n      * @param _subtractedValue uint256 The amount of tokens to decrease the allowance by.\n      * @param _fee uint256 The amount of tokens paid to msg.sender, by the owner.\n      * @param _nonce uint256 Presigned transaction number.\n      */\n    function decreaseApprovalPreSignedHashing(\n        address _token,\n        address _spender,\n        uint256 _subtractedValue,\n        uint256 _fee,\n        uint256 _nonce\n    )\n        public\n        pure\n        returns (bytes32)\n    {\n        /* \"59388d78\": decreaseApprovalPreSignedHashing(address,address,uint256,uint256,uint256) */\n        return keccak256(bytes4(0x59388d78), _token, _spender, _subtractedValue, _fee, _nonce);\n    }\n\n    /**\n     * @notice Hash (keccak256) of the payload used by transferFromPreSigned\n     * @param _token address The address of the token\n     * @param _from address The address which you want to send tokens from.\n     * @param _to address The address which you want to transfer to.\n     * @param _value uint256 The amount of tokens to be transferred.\n     * @param _fee uint256 The amount of tokens paid to msg.sender, by the spender.\n     * @param _nonce uint256 Presigned transaction number.\n     */\n    function transferFromPreSignedHashing(\n        address _token,\n        address _from,\n        address _to,\n        uint256 _value,\n        uint256 _fee,\n        uint256 _nonce\n    )\n        public\n        pure\n        returns (bytes32)\n    {\n        /* \"b7656dc5\": transferFromPreSignedHashing(address,address,address,uint256,uint256,uint256) */\n        return keccak256(bytes4(0xb7656dc5), _token, _from, _to, _value, _fee, _nonce);\n    }\n\n    /**\n     * @notice Recover signer address from a message by using his signature\n     * @param hash bytes32 message, the hash is the signed message. What is recovered is the signer address.\n     * @param sig bytes signature, the signature is generated using web3.eth.sign()\n     */\n    function recover(bytes32 hash, bytes sig) public pure returns (address) {\n      bytes32 r;\n      bytes32 s;\n      uint8 v;\n\n      //Check the signature length\n      if (sig.length != 65) {\n        return (address(0));\n      }\n\n      // Divide the signature in r, s and v variables\n      assembly {\n        r := mload(add(sig, 32))\n        s := mload(add(sig, 64))\n        v := byte(0, mload(add(sig, 96)))\n      }\n\n      // Version of signature should be 27 or 28, but 0 and 1 are also possible versions\n      if (v < 27) {\n        v += 27;\n      }\n\n      // If the version is correct return the signer address\n      if (v != 27 && v != 28) {\n        return (address(0));\n      } else {\n        return ecrecover(hash, v, r, s);\n      }\n    }\n\n}\n\n// File: zeppelin-solidity/contracts/ownership/Ownable.sol\n\n/**\n * @title Ownable\n * @dev The Ownable contract has an owner address, and provides basic authorization control\n * functions, this simplifies the implementation of \"user permissions\".\n */\ncontract Ownable {\n  address public owner;\n\n\n  event OwnershipTransferred(address indexed previousOwner, address indexed newOwner);\n\n\n  /**\n   * @dev The Ownable constructor sets the original `owner` of the contract to the sender\n   * account.\n   */\n  function Ownable() public {\n    owner = msg.sender;\n  }\n\n  /**\n   * @dev Throws if called by any account other than the owner.\n   */\n  modifier onlyOwner() {\n    require(msg.sender == owner);\n    _;\n  }\n\n  /**\n   * @dev Allows the current owner to transfer control of the contract to a newOwner.\n   * @param newOwner The address to transfer ownership to.\n   */\n  function transferOwnership(address newOwner) public onlyOwner {\n    require(newOwner != address(0));\n    OwnershipTransferred(owner, newOwner);\n    owner = newOwner;\n  }\n\n}\n\n// File: zeppelin-solidity/contracts/lifecycle/Pausable.sol\n\n/**\n * @title Pausable\n * @dev Base contract which allows children to implement an emergency stop mechanism.\n */\ncontract Pausable is Ownable {\n  event Pause();\n  event Unpause();\n\n  bool public paused = false;\n\n\n  /**\n   * @dev Modifier to make a function callable only when the contract is not paused.\n   */\n  modifier whenNotPaused() {\n    require(!paused);\n    _;\n  }\n\n  /**\n   * @dev Modifier to make a function callable only when the contract is paused.\n   */\n  modifier whenPaused() {\n    require(paused);\n    _;\n  }\n\n  /**\n   * @dev called by the owner to pause, triggers stopped state\n   */\n  function pause() onlyOwner whenNotPaused public {\n    paused = true;\n    Pause();\n  }\n\n  /**\n   * @dev called by the owner to unpause, returns to normal state\n   */\n  function unpause() onlyOwner whenPaused public {\n    paused = false;\n    Unpause();\n  }\n}\n\n// File: zeppelin-solidity/contracts/token/ERC20/PausableToken.sol\n\n/**\n * @title Pausable token\n * @dev StandardToken modified with pausable transfers.\n **/\ncontract PausableToken is StandardToken, Pausable {\n\n  function transfer(address _to, uint256 _value) public whenNotPaused returns (bool) {\n    return super.transfer(_to, _value);\n  }\n\n  function transferFrom(address _from, address _to, uint256 _value) public whenNotPaused returns (bool) {\n    return super.transferFrom(_from, _to, _value);\n  }\n\n  function approve(address _spender, uint256 _value) public whenNotPaused returns (bool) {\n    return super.approve(_spender, _value);\n  }\n\n  function increaseApproval(address _spender, uint _addedValue) public whenNotPaused returns (bool success) {\n    return super.increaseApproval(_spender, _addedValue);\n  }\n\n  function decreaseApproval(address _spender, uint _subtractedValue) public whenNotPaused returns (bool success) {\n    return super.decreaseApproval(_spender, _subtractedValue);\n  }\n}\n\n// File: zeppelin-solidity/contracts/token/ERC20/MintableToken.sol\n\n/**\n * @title Mintable token\n * @dev Simple ERC20 Token example, with mintable token creation\n * @dev Issue: * https://github.com/OpenZeppelin/zeppelin-solidity/issues/120\n * Based on code by TokenMarketNet: https://github.com/TokenMarketNet/ico/blob/master/contracts/MintableToken.sol\n */\ncontract MintableToken is StandardToken, Ownable {\n  event Mint(address indexed to, uint256 amount);\n  event MintFinished();\n\n  bool public mintingFinished = false;\n\n\n  modifier canMint() {\n    require(!mintingFinished);\n    _;\n  }\n\n  /**\n   * @dev Function to mint tokens\n   * @param _to The address that will receive the minted tokens.\n   * @param _amount The amount of tokens to mint.\n   * @return A boolean that indicates if the operation was successful.\n   */\n  function mint(address _to, uint256 _amount) onlyOwner canMint public returns (bool) {\n    totalSupply_ = totalSupply_.add(_amount);\n    balances[_to] = balances[_to].add(_amount);\n    Mint(_to, _amount);\n    Transfer(address(0), _to, _amount);\n    return true;\n  }\n\n  /**\n   * @dev Function to stop minting new tokens.\n   * @return True if the operation was successful.\n   */\n  function finishMinting() onlyOwner canMint public returns (bool) {\n    mintingFinished = true;\n    MintFinished();\n    return true;\n  }\n}\n\n// File: contracts/token/PropsToken.sol\n\n/**\n * @title PROPS Token\n * @dev ERC20 Token (PROPS)\n *\n * PROPS are divisible by 1e18 base\n * units referred to as 'AttoPROPS'.\n *\n * PROPS are displayed using 18 decimal places of precision.\n *\n * 1 PROPS is equivalent to:\n *   1 * 1e18 == 1e18 == One Quintillion AttoPROPS\n *\n * 1 Billion PROPS (total supply) is equivalent to:\n *   1000000000 * 1e18 == 1e27 == One Octillion AttoPROPS\n *\n */\n\ncontract PropsToken is ERC865Token, PausableToken, MintableToken {\n\n    /* Set the token symbol for display */\n    string public constant symbol = \"TOKEN_DEV\";\n\n    /* Set the token name for display */\n    string public constant name = \"TokenDev\";\n\n    /* Set the number of decimals for display */\n    uint8 public constant decimals = 18;\n\n    /* 1 Billion PROPS specified in AttoPROPS */\n    uint256 public constant amountOfTokenToMint = 10**9 * 10**uint256(decimals);\n\n    /* Is crowdsale filtering non registered users. True by default */\n    bool public isTransferWhitelistOnly = true;\n\n    /* Mapping of whitelisted users */\n    mapping (address => bool) transfersWhitelist;\n\n    event UserAllowedToTransfer(address user);\n\n    event TransferWhitelistOnly(bool flag);\n\n    event TransferDetails(\n        address from,\n        uint256 fromBalance,\n        address to,\n        uint256 toBalance,\n        uint256 amount\n    );\n\n    event Settlement(\n        uint256 timestamp,\n        address from, \n        address recipient,\n        uint256 amount\n    );\n\n    /**\n     * @notice Is the address allowed to transfer\n     * @return true if the sender can transfer\n     */\n    function isUserAllowedToTransfer(address _user) public constant returns (bool) {\n        require(_user != 0x0);\n        return transfersWhitelist[_user];\n    }\n\n    /**\n     * @notice Enabling / Disabling transfers of non whitelisted users\n     */\n    function setWhitelistedOnly(bool _isWhitelistOnly) onlyOwner public {\n        if (isTransferWhitelistOnly != _isWhitelistOnly) {\n            isTransferWhitelistOnly = _isWhitelistOnly;\n            TransferWhitelistOnly(_isWhitelistOnly);\n        }\n    }\n\n    /**\n     * @notice Adding a user to the whitelist\n     */\n    function whitelistUserForTransfers(address _user) onlyOwner public {\n        require(!isUserAllowedToTransfer(_user));\n        transfersWhitelist[_user] = true;\n        UserAllowedToTransfer(_user);\n    }\n\n    /**\n     * @notice Remove a user from the whitelist\n     */\n    function blacklistUserForTransfers(address _user) onlyOwner public {\n        require(isUserAllowedToTransfer(_user));\n        transfersWhitelist[_user] = false;\n        UserAllowedToTransfer(_user);\n    }\n\n    /**\n    * @notice transfer token for a specified address\n    * @param _to The address to transfer to.\n    * @param _value The amount to be transferred.\n    */\n    function transfer(address _to, uint256 _value) public returns (bool) {\n      if (isTransferWhitelistOnly) {\n        require(isUserAllowedToTransfer(msg.sender));\n      }\n\n      if (super.transfer(_to, _value)) {\n          TransferDetails(msg.sender, super.balanceOf(msg.sender), _to, super.balanceOf(_to), _value);\n          return true;\n      } \n\n      return false;\n    }\n\n    /**\n    * @notice settle pending earnings on the PROPS-Chain by using this settlement method to transfer and emit a settlement Event\n    * @param _to The address to transfer to.\n    * @param _value The amount to be transferred.\n    */\n    function settle(address _to, uint256 _value) public returns (bool) {\n      if (isTransferWhitelistOnly) {\n        require(isUserAllowedToTransfer(msg.sender));\n      }\n\n      if (super.transfer(_to, _value)) {\n          Settlement(block.timestamp, msg.sender, _to, _value);\n          TransferDetails(msg.sender, super.balanceOf(msg.sender), _to, super.balanceOf(_to), _value);\n          return true;\n      } \n\n      return false;\n    }\n\n    /**\n     * @notice Transfer tokens from one address to another\n     * @param _from address The address which you want to send tokens from\n     * @param _to address The address which you want to transfer to\n     * @param _value uint256 the amount of tokens to be transferred\n     */\n    function transferFrom(address _from, address _to, uint256 _value) public returns (bool) {\n      if (isTransferWhitelistOnly) {\n        require(isUserAllowedToTransfer(_from));\n      }\n\n      if (super.transferFrom(_from, _to, _value)) {\n          TransferDetails(_from, super.balanceOf(_from), _to, super.balanceOf(_to), _value);\n          return true;\n      } \n\n      return false;\n    }\n\n    /**\n     * @notice Submit a presigned transfer\n     * @param _signature bytes The signature, issued by the owner.\n     * @param _to address The address which you want to transfer to.\n     * @param _value uint256 The amount of tokens to be transferred.\n     * @param _fee uint256 The amount of tokens paid to msg.sender, by the owner.\n     * @param _nonce uint256 Presigned transaction number.\n     */\n    function transferPreSigned(\n        bytes _signature,\n        address _to,\n        uint256 _value,\n        uint256 _fee,\n        uint256 _nonce\n    )\n        whenNotPaused\n        public\n        returns (bool)\n    {\n        if (isTransferWhitelistOnly) {\n            bytes32 hashedTx = super.transferPreSignedHashing(address(this), _to, _value, _fee, _nonce);\n            address from = recover(hashedTx, _signature);\n            require(isUserAllowedToTransfer(from));\n        }\n\n        if (super.transferPreSigned(_signature, _to, _value, _fee, _nonce)) {\n          TransferDetails(from, super.balanceOf(from), _to, super.balanceOf(_to), _value);\n          return true;\n      } \n\n        return false;\n    }\n\n    /**\n     * @notice Submit a presigned approval\n     * @param _signature bytes The signature, issued by the owner.\n     * @param _spender address The address which will spend the funds.\n     * @param _value uint256 The amount of tokens to allow.\n     * @param _fee uint256 The amount of tokens paid to msg.sender, by the owner.\n     * @param _nonce uint256 Presigned transaction number.\n     */\n    function approvePreSigned(\n        bytes _signature,\n        address _spender,\n        uint256 _value,\n        uint256 _fee,\n        uint256 _nonce\n    )\n        whenNotPaused\n        public\n        returns (bool)\n    {\n        if (isTransferWhitelistOnly) {\n            bytes32 hashedTx = super.approvePreSignedHashing(address(this), _spender, _value, _fee, _nonce);\n            address from = recover(hashedTx, _signature);\n            require(isUserAllowedToTransfer(from));\n        }\n        return super.approvePreSigned(_signature, _spender, _value, _fee, _nonce);\n    }\n}\n\n// File: zeppelin-solidity/contracts/token/ERC20/SafeERC20.sol\n\n/**\n * @title SafeERC20\n * @dev Wrappers around ERC20 operations that throw on failure.\n * To use this library you can add a `using SafeERC20 for ERC20;` statement to your contract,\n * which allows you to call the safe operations as `token.safeTransfer(...)`, etc.\n */\nlibrary SafeERC20 {\n  function safeTransfer(ERC20Basic token, address to, uint256 value) internal {\n    assert(token.transfer(to, value));\n  }\n\n  function safeTransferFrom(ERC20 token, address from, address to, uint256 value) internal {\n    assert(token.transferFrom(from, to, value));\n  }\n\n  function safeApprove(ERC20 token, address spender, uint256 value) internal {\n    assert(token.approve(spender, value));\n  }\n}\n\n// File: contracts/token/TokenVesting.sol\n\n/**\n * @title TokenVesting\n * @dev A token holder contract that can release its token balance gradually like a\n * typical vesting scheme, with a cliff and vesting period. Optionally revocable by the\n * owner.\n */\ncontract TokenVesting is Ownable {\n  using SafeMath for uint256;\n  using SafeERC20 for ERC20Basic;\n\n  event Released(uint256 amount);\n  event Revoked();\n\n  // beneficiary of tokens after they are released\n  address public beneficiary;\n\n  uint256 public cliff;\n  uint256 public start;\n  uint256 public duration;\n\n  bool public revocable;\n\n  mapping (address => uint256) public released;\n  mapping (address => bool) public revoked;\n\n  /**\n   * @dev Creates a vesting contract that vests its balance of any ERC20 token to the\n   * _beneficiary, gradually in a linear fashion until _start + _duration. By then all\n   * of the balance will have vested.\n   * @param _beneficiary address of the beneficiary to whom vested tokens are transferred\n   * @param _cliff duration in seconds of the cliff in which tokens will begin to vest\n   * @param _duration duration in seconds of the period in which the tokens will vest\n   * @param _revocable whether the vesting is revocable or not\n   */\n  function TokenVesting(address _beneficiary, uint256 _start, uint256 _cliff, uint256 _duration, bool _revocable) public {\n    require(_beneficiary != address(0));\n    require(_cliff <= _duration);\n\n    beneficiary = _beneficiary;\n    revocable = _revocable;\n    duration = _duration;\n    cliff = _start.add(_cliff);\n    start = _start;\n  }\n\n  /**\n   * @notice Transfers vested tokens to beneficiary.\n   * @param token ERC20 token which is being vested\n   */\n  function release(ERC20Basic token) public {\n    uint256 unreleased = releasableAmount(token);\n\n    require(unreleased > 0);\n\n    released[token] = released[token].add(unreleased);\n\n    token.safeTransfer(beneficiary, unreleased);\n\n    Released(unreleased);\n  }\n\n  /**\n   * @notice Allows the owner to revoke the vesting. Tokens already vested\n   * remain in the contract, the rest are returned to the owner.\n   * @param token ERC20 token which is being vested\n   */\n  function revoke(ERC20Basic token) public onlyOwner {\n    require(revocable);\n    require(!revoked[token]);\n\n    uint256 balance = token.balanceOf(this);\n\n    uint256 unreleased = releasableAmount(token);\n    uint256 refund = balance.sub(unreleased);\n\n    revoked[token] = true;\n\n    token.safeTransfer(owner, refund);\n\n    Revoked();\n  }\n\n  /**\n   * @dev Calculates the amount that has already vested but hasn't been released yet.\n   * @param token ERC20 token which is being vested\n   */\n  function releasableAmount(ERC20Basic token) public constant returns (uint256) {\n    return vestedAmount(token).sub(released[token]);\n  }\n\n  /**\n   * @dev Calculates the amount that has already vested.\n   * @param token ERC20 token which is being vested\n   */\n  function vestedAmount(ERC20Basic token) public constant returns (uint256) {\n    uint256 currentBalance = token.balanceOf(this);\n    uint256 totalBalance = currentBalance.add(released[token]);\n\n    if (now < cliff) {\n      return 0;\n    } else if (now >= start.add(duration) || revoked[token]) {\n      return totalBalance;\n    } else {\n      return totalBalance.mul(now.sub(start)).div(duration);\n    }\n  }\n}\n",
  "sourcePath": "/Users/jretina/Programming/PROPSProject/props-token-distribution/contracts/flatten-token-generated/flatten-token-contract.sol",
  "compiler": {
    "name": "solc",
    "version": "0.4.24+commit.e67f0147.Emscripten.clang"
  },
  "schemaVersion": "2.0.1",
  "updatedAt": "2018-11-19T09:54:47.916Z"
}