{
  "contractName": "PropsToken",
  "abi": [
    {
      "constant": true,
      "inputs": [],
      "name": "name",
      "outputs": [
        {
          "name": "",
          "type": "string"
        }
      ],
      "payable": false,
      "stateMutability": "view",
      "type": "function"
    },
    {
      "constant": false,
      "inputs": [
        {
          "name": "spender",
          "type": "address"
        },
        {
          "name": "value",
          "type": "uint256"
        }
      ],
      "name": "approve",
      "outputs": [
        {
          "name": "",
          "type": "bool"
        }
      ],
      "payable": false,
      "stateMutability": "nonpayable",
      "type": "function"
    },
    {
      "constant": false,
      "inputs": [
        {
          "name": "to",
          "type": "address"
        },
        {
          "name": "value",
          "type": "uint256"
        }
      ],
      "name": "settle",
      "outputs": [
        {
          "name": "",
          "type": "bool"
        }
      ],
      "payable": false,
      "stateMutability": "nonpayable",
      "type": "function"
    },
    {
      "constant": true,
      "inputs": [],
      "name": "totalSupply",
      "outputs": [
        {
          "name": "",
          "type": "uint256"
        }
      ],
      "payable": false,
      "stateMutability": "view",
      "type": "function"
    },
    {
      "constant": false,
      "inputs": [
        {
          "name": "from",
          "type": "address"
        },
        {
          "name": "to",
          "type": "address"
        },
        {
          "name": "value",
          "type": "uint256"
        }
      ],
      "name": "transferFrom",
      "outputs": [
        {
          "name": "",
          "type": "bool"
        }
      ],
      "payable": false,
      "stateMutability": "nonpayable",
      "type": "function"
    },
    {
      "constant": true,
      "inputs": [],
      "name": "decimals",
      "outputs": [
        {
          "name": "",
          "type": "uint8"
        }
      ],
      "payable": false,
      "stateMutability": "view",
      "type": "function"
    },
    {
      "constant": false,
      "inputs": [
        {
          "name": "spender",
          "type": "address"
        },
        {
          "name": "addedValue",
          "type": "uint256"
        }
      ],
      "name": "increaseAllowance",
      "outputs": [
        {
          "name": "success",
          "type": "bool"
        }
      ],
      "payable": false,
      "stateMutability": "nonpayable",
      "type": "function"
    },
    {
      "constant": false,
      "inputs": [],
      "name": "unpause",
      "outputs": [],
      "payable": false,
      "stateMutability": "nonpayable",
      "type": "function"
    },
    {
      "constant": true,
      "inputs": [
        {
          "name": "account",
          "type": "address"
        }
      ],
      "name": "isPauser",
      "outputs": [
        {
          "name": "",
          "type": "bool"
        }
      ],
      "payable": false,
      "stateMutability": "view",
      "type": "function"
    },
    {
      "constant": true,
      "inputs": [],
      "name": "getRegistry",
      "outputs": [
        {
          "name": "",
          "type": "address"
        }
      ],
      "payable": false,
      "stateMutability": "view",
      "type": "function"
    },
    {
      "constant": true,
      "inputs": [],
      "name": "paused",
      "outputs": [
        {
          "name": "",
          "type": "bool"
        }
      ],
      "payable": false,
      "stateMutability": "view",
      "type": "function"
    },
    {
      "constant": false,
      "inputs": [],
      "name": "renouncePauser",
      "outputs": [],
      "payable": false,
      "stateMutability": "nonpayable",
      "type": "function"
    },
    {
      "constant": true,
      "inputs": [
        {
          "name": "owner",
          "type": "address"
        }
      ],
      "name": "balanceOf",
      "outputs": [
        {
          "name": "",
          "type": "uint256"
        }
      ],
      "payable": false,
      "stateMutability": "view",
      "type": "function"
    },
    {
      "constant": false,
      "inputs": [
        {
          "name": "account",
          "type": "address"
        }
      ],
      "name": "addPauser",
      "outputs": [],
      "payable": false,
      "stateMutability": "nonpayable",
      "type": "function"
    },
    {
      "constant": false,
      "inputs": [],
      "name": "pause",
      "outputs": [],
      "payable": false,
      "stateMutability": "nonpayable",
      "type": "function"
    },
    {
      "constant": true,
      "inputs": [
        {
          "name": "receiver",
          "type": "address"
        }
      ],
      "name": "canReceive",
      "outputs": [
        {
          "name": "",
          "type": "bool"
        }
      ],
      "payable": false,
      "stateMutability": "view",
      "type": "function"
    },
    {
      "constant": true,
      "inputs": [],
      "name": "symbol",
      "outputs": [
        {
          "name": "",
          "type": "string"
        }
      ],
      "payable": false,
      "stateMutability": "view",
      "type": "function"
    },
    {
      "constant": false,
      "inputs": [
        {
          "name": "spender",
          "type": "address"
        },
        {
          "name": "subtractedValue",
          "type": "uint256"
        }
      ],
      "name": "decreaseAllowance",
      "outputs": [
        {
          "name": "success",
          "type": "bool"
        }
      ],
      "payable": false,
      "stateMutability": "nonpayable",
      "type": "function"
    },
    {
      "constant": false,
      "inputs": [
        {
          "name": "to",
          "type": "address"
        },
        {
          "name": "value",
          "type": "uint256"
        }
      ],
      "name": "transfer",
      "outputs": [
        {
          "name": "",
          "type": "bool"
        }
      ],
      "payable": false,
      "stateMutability": "nonpayable",
      "type": "function"
    },
    {
      "constant": true,
      "inputs": [
        {
          "name": "owner",
          "type": "address"
        },
        {
          "name": "spender",
          "type": "address"
        }
      ],
      "name": "allowance",
      "outputs": [
        {
          "name": "",
          "type": "uint256"
        }
      ],
      "payable": false,
      "stateMutability": "view",
      "type": "function"
    },
    {
      "constant": true,
      "inputs": [],
      "name": "getValidAttributeID",
      "outputs": [
        {
          "name": "",
          "type": "uint256"
        }
      ],
      "payable": false,
      "stateMutability": "view",
      "type": "function"
    },
    {
      "anonymous": false,
      "inputs": [
        {
          "indexed": false,
          "name": "from",
          "type": "address"
        },
        {
          "indexed": false,
          "name": "fromBalance",
          "type": "uint256"
        },
        {
          "indexed": false,
          "name": "to",
          "type": "address"
        },
        {
          "indexed": false,
          "name": "toBalance",
          "type": "uint256"
        },
        {
          "indexed": false,
          "name": "amount",
          "type": "uint256"
        }
      ],
      "name": "TransferDetails",
      "type": "event"
    },
    {
      "anonymous": false,
      "inputs": [
        {
          "indexed": false,
          "name": "timestamp",
          "type": "uint256"
        },
        {
          "indexed": false,
          "name": "from",
          "type": "address"
        },
        {
          "indexed": false,
          "name": "recipient",
          "type": "address"
        },
        {
          "indexed": false,
          "name": "amount",
          "type": "uint256"
        }
      ],
      "name": "Settlement",
      "type": "event"
    },
    {
      "anonymous": false,
      "inputs": [],
      "name": "Paused",
      "type": "event"
    },
    {
      "anonymous": false,
      "inputs": [],
      "name": "Unpaused",
      "type": "event"
    },
    {
      "anonymous": false,
      "inputs": [
        {
          "indexed": true,
          "name": "account",
          "type": "address"
        }
      ],
      "name": "PauserAdded",
      "type": "event"
    },
    {
      "anonymous": false,
      "inputs": [
        {
          "indexed": true,
          "name": "account",
          "type": "address"
        }
      ],
      "name": "PauserRemoved",
      "type": "event"
    },
    {
      "anonymous": false,
      "inputs": [
        {
          "indexed": true,
          "name": "from",
          "type": "address"
        },
        {
          "indexed": true,
          "name": "to",
          "type": "address"
        },
        {
          "indexed": false,
          "name": "value",
          "type": "uint256"
        }
      ],
      "name": "Transfer",
      "type": "event"
    },
    {
      "anonymous": false,
      "inputs": [
        {
          "indexed": true,
          "name": "owner",
          "type": "address"
        },
        {
          "indexed": true,
          "name": "spender",
          "type": "address"
        },
        {
          "indexed": false,
          "name": "value",
          "type": "uint256"
        }
      ],
      "name": "Approval",
      "type": "event"
    },
    {
      "constant": false,
      "inputs": [
        {
          "name": "name",
          "type": "string"
        },
        {
          "name": "symbol",
          "type": "string"
        },
        {
          "name": "decimals",
          "type": "uint8"
        }
      ],
      "name": "initialize",
      "outputs": [],
      "payable": false,
      "stateMutability": "nonpayable",
      "type": "function"
    },
    {
      "constant": false,
      "inputs": [
        {
          "name": "_sender",
          "type": "address"
        },
        {
          "name": "_jurisdictionAddress",
          "type": "address"
        },
        {
          "name": "_validRecipientAttributeId",
          "type": "uint256"
        }
      ],
      "name": "initialize",
      "outputs": [],
      "payable": false,
      "stateMutability": "nonpayable",
      "type": "function"
    },
    {
      "constant": false,
      "inputs": [
        {
          "name": "sender",
          "type": "address"
        }
      ],
      "name": "initialize",
      "outputs": [],
      "payable": false,
      "stateMutability": "nonpayable",
      "type": "function"
    },
    {
      "constant": false,
      "inputs": [
        {
          "name": "registry",
          "type": "address"
        },
        {
          "name": "validAttributeTypeID",
          "type": "uint256"
        }
      ],
      "name": "initialize",
      "outputs": [],
      "payable": false,
      "stateMutability": "nonpayable",
      "type": "function"
    }
  ],
  "bytecode": "0x608060405260d2805460ff1916905534801561001a57600080fd5b506119b18061002a6000396000f3006080604052600436106101485763ffffffff7c010000000000000000000000000000000000000000000000000000000060003504166306fdde03811461014d578063095ea7b3146101d757806315afd4091461020f5780631624f6c6146102335780631794bb3c146102d157806318160ddd146102fb57806323b872dd14610322578063313ce5671461034c57806339509351146103775780633f4ba83a1461039b57806346fbf68e146103b05780635ab1bd53146103d15780635c975abb146104025780636ef8d66d1461041757806370a082311461042c57806382dc1ec41461044d5780638456cb591461046e57806390d370ba1461048357806395d89b41146104a4578063a457c2d7146104b9578063a9059cbb146104dd578063c4d66de814610501578063cd6dc68714610522578063dd62ed3e14610546578063eac5a01c1461056d575b600080fd5b34801561015957600080fd5b50610162610582565b6040805160208082528351818301528351919283929083019185019080838360005b8381101561019c578181015183820152602001610184565b50505050905090810190601f1680156101c95780820380516001836020036101000a031916815260200191505b509250505060405180910390f35b3480156101e357600080fd5b506101fb600160a060020a0360043516602435610619565b604080519115158252519081900360200190f35b34801561021b57600080fd5b506101fb600160a060020a036004351660243561063f565b34801561023f57600080fd5b506040805160206004803580820135601f81018490048402850184019095528484526102cf94369492936024939284019190819084018382808284375050604080516020601f89358b018035918201839004830284018301909452808352979a9998810197919650918201945092508291508401838280828437509497505050923560ff16935061071f92505050565b005b3480156102dd57600080fd5b506102cf600160a060020a0360043581169060243516604435610846565b34801561030757600080fd5b506103106109d9565b60408051918252519081900360200190f35b34801561032e57600080fd5b506101fb600160a060020a03600435811690602435166044356109df565b34801561035857600080fd5b50610361610a74565b6040805160ff9092168252519081900360200190f35b34801561038357600080fd5b506101fb600160a060020a0360043516602435610a7d565b3480156103a757600080fd5b506102cf610a9a565b3480156103bc57600080fd5b506101fb600160a060020a0360043516610af4565b3480156103dd57600080fd5b506103e6610b07565b60408051600160a060020a039092168252519081900360200190f35b34801561040e57600080fd5b506101fb610b16565b34801561042357600080fd5b506102cf610b1f565b34801561043857600080fd5b50610310600160a060020a0360043516610b2a565b34801561045957600080fd5b506102cf600160a060020a0360043516610b45565b34801561047a57600080fd5b506102cf610b65565b34801561048f57600080fd5b506101fb600160a060020a0360043516610bc1565b3480156104b057600080fd5b50610162610c69565b3480156104c557600080fd5b506101fb600160a060020a0360043516602435610cca565b3480156104e957600080fd5b506101fb600160a060020a0360043516602435610ce7565b34801561050d57600080fd5b506102cf600160a060020a0360043516610d23565b34801561052e57600080fd5b506102cf600160a060020a0360043516602435610e11565b34801561055257600080fd5b50610310600160a060020a0360043581169060243516610f1c565b34801561057957600080fd5b50610310610f47565b606a8054604080516020601f600260001961010060018816150201909516949094049384018190048102820181019092528281526060939092909183018282801561060e5780601f106105e35761010080835404028352916020019161060e565b820191906000526020600020905b8154815290600101906020018083116105f157829003601f168201915b505050505090505b90565b60d25460009060ff161561062c57600080fd5b6106368383610f4d565b90505b92915050565b600061064b8383610fcb565b156107165760408051428152336020820152600160a060020a038516818301526060810184905290517f694d4af865c381294c69b304b233e65cd773b9dff4f5563d50d5424fe5a33c3e9181900360800190a17f850383053a4e0cc8b97828882fc80543c308bd075cc5bc454b28243814fa8846336106c933610b2a565b856106d387610b2a565b60408051600160a060020a0395861681526020810194909452919093168282015260608201929092526080810185905290519081900360a00190a1506001610639565b50600092915050565b60008054610100900460ff16806107395750610739610fe8565b80610747575060005460ff16155b15156107c85760408051600080516020611966833981519152815260206004820152602e60248201527f436f6e747261637420696e7374616e63652068617320616c726561647920626560448201527f656e20696e697469616c697a6564000000000000000000000000000000000000606482015290519081900360840190fd5b5060008054600161010061ff00198316811760ff191691909117909255845191900460ff16906107ff90606a9060208701906118d7565b50825161081390606b9060208601906118d7565b50606c805460ff90931660ff1990931692909217909155600080549115156101000261ff00199092169190911790555050565b6000805481908190610100900460ff16806108645750610864610fe8565b80610872575060005460ff16155b15156108f35760408051600080516020611966833981519152815260206004820152602e60248201527f436f6e747261637420696e7374616e63652068617320616c726561647920626560448201527f656e20696e697469616c697a6564000000000000000000000000000000000000606482015290519081900360840190fd5b505060008054600161010061ff00198316811760ff191691909117909255601292506b033b2e3c9fd0803ce800000091900460ff1661093186610d23565b6109a66040805190810160405280600981526020017f44455620546f6b656e00000000000000000000000000000000000000000000008152506040805190810160405280600981526020017f4445565f544f4b454e00000000000000000000000000000000000000000000008152508561071f565b6109b08585610e11565b6109ba8683610ff2565b600080549115156101000261ff00199092169190911790555050505050565b60355490565b60006109ec84848461109e565b15610a69577f850383053a4e0cc8b97828882fc80543c308bd075cc5bc454b28243814fa884684610a1c86610b2a565b85610a2687610b2a565b60408051600160a060020a0395861681526020810194909452919093168282015260608201929092526080810185905290519081900360a00190a1506001610a6d565b5060005b9392505050565b606c5460ff1690565b60d25460009060ff1615610a9057600080fd5b61063683836110c4565b610aa333610af4565b1515610aae57600080fd5b60d25460ff161515610abf57600080fd5b60d2805460ff191690556040517fa45f47fdea8a1efdd9029a5691c7f759c32b7c698632b563573e155625d1693390600090a1565b6000610639609f8363ffffffff61117416565b606854600160a060020a031690565b60d25460ff1690565b610b28336111ab565b565b600160a060020a031660009081526033602052604090205490565b610b4e33610af4565b1515610b5957600080fd5b610b62816111f3565b50565b610b6e33610af4565b1515610b7957600080fd5b60d25460ff1615610b8957600080fd5b60d2805460ff191660011790556040517f9e87fac88ff661f02d44f95383c817fece4bce600a3dab7a54406878b965e75290600090a1565b606854606954604080517f4b5f297a000000000000000000000000000000000000000000000000000000008152600160a060020a038581166004830152602482019390935290516000939290921691634b5f297a9160448082019260209290919082900301818787803b158015610c3757600080fd5b505af1158015610c4b573d6000803e3d6000fd5b505050506040513d6020811015610c6157600080fd5b505192915050565b606b8054604080516020601f600260001961010060018816150201909516949094049384018190048102820181019092528281526060939092909183018282801561060e5780601f106105e35761010080835404028352916020019161060e565b60d25460009060ff1615610cdd57600080fd5b610636838361123b565b6000610cf38383610fcb565b15610716577f850383053a4e0cc8b97828882fc80543c308bd075cc5bc454b28243814fa8846336106c933610b2a565b60008054610100900460ff1680610d3d5750610d3d610fe8565b80610d4b575060005460ff16155b1515610dcc5760408051600080516020611966833981519152815260206004820152602e60248201527f436f6e747261637420696e7374616e63652068617320616c726561647920626560448201527f656e20696e697469616c697a6564000000000000000000000000000000000000606482015290519081900360840190fd5b5060008054600161010061ff00198316811760ff1916919091179092550460ff16610df682611286565b600080549115156101000261ff001990921691909117905550565b60008054610100900460ff1680610e2b5750610e2b610fe8565b80610e39575060005460ff16155b1515610eba5760408051600080516020611966833981519152815260206004820152602e60248201527f436f6e747261637420696e7374616e63652068617320616c726561647920626560448201527f656e20696e697469616c697a6564000000000000000000000000000000000000606482015290519081900360840190fd5b50600080546068805473ffffffffffffffffffffffffffffffffffffffff1916600160a060020a03959095169490941790935560699190915561ff001980831661010090811760ff19166001179091169281900460ff16151502919091179055565b600160a060020a03918216600090815260346020908152604080832093909416825291909152205490565b60695490565b6000600160a060020a0383161515610f6457600080fd5b336000818152603460209081526040808320600160a060020a03881680855290835292819020869055805186815290519293927f8c5be1e5ebec7d5bd14f71427d1e84f3dd0314c0f7b2291e5b200ac8c7c3b925929181900390910190a350600192915050565b60d25460009060ff1615610fde57600080fd5b6106368383611359565b303b8015905b5090565b600160a060020a038216151561100757600080fd5b60355461101a908263ffffffff61148616565b603555600160a060020a038216600090815260336020526040902054611046908263ffffffff61148616565b600160a060020a03831660008181526033602090815260408083209490945583518581529351929391927fddf252ad1be2c89b69c2b068fc378daa952ba7f163c4a11628f55a4df523b3ef9281900390910190a35050565b60d25460009060ff16156110b157600080fd5b6110bc848484611498565b949350505050565b6000600160a060020a03831615156110db57600080fd5b336000908152603460209081526040808320600160a060020a038716845290915290205461110f908363ffffffff61148616565b336000818152603460209081526040808320600160a060020a0389168085529083529281902085905580519485525191937f8c5be1e5ebec7d5bd14f71427d1e84f3dd0314c0f7b2291e5b200ac8c7c3b925929081900390910190a350600192915050565b6000600160a060020a038216151561118b57600080fd5b50600160a060020a03166000908152602091909152604090205460ff1690565b6111bc609f8263ffffffff6115c616565b604051600160a060020a038216907fcd265ebaf09df2871cc7bd4133404a235ba12eff2041bb89d9c714a2621c7c7e90600090a250565b611204609f8263ffffffff6115fd16565b604051600160a060020a038216907f6719d08c1888103bea251a4ed56406bd0c3e69723c8a1686e017e7bbe159b6f890600090a250565b6000600160a060020a038316151561125257600080fd5b336000908152603460209081526040808320600160a060020a038716845290915290205461110f908363ffffffff61163716565b60008054610100900460ff16806112a057506112a0610fe8565b806112ae575060005460ff16155b151561132f5760408051600080516020611966833981519152815260206004820152602e60248201527f436f6e747261637420696e7374616e63652068617320616c726561647920626560448201527f656e20696e697469616c697a6564000000000000000000000000000000000000606482015290519081900360840190fd5b5060008054600161010061ff00198316811760ff1916919091179092550460ff16610df68261164e565b606854606954604080517f4b5f297a000000000000000000000000000000000000000000000000000000008152600160a060020a038681166004830152602482019390935290516000939290921691634b5f297a9160448082019260209290919082900301818787803b1580156113cf57600080fd5b505af11580156113e3573d6000803e3d6000fd5b505050506040513d60208110156113f957600080fd5b5051151561147c5760408051600080516020611966833981519152815260206004820152602b60248201527f5472616e73666572206661696c6564202d207265636569766572206973206e6f60448201527f7420617070726f7665642e000000000000000000000000000000000000000000606482015290519081900360840190fd5b6106368383611730565b600082820183811015610a6d57600080fd5b606854606954604080517f4b5f297a000000000000000000000000000000000000000000000000000000008152600160a060020a038681166004830152602482019390935290516000939290921691634b5f297a9160448082019260209290919082900301818787803b15801561150e57600080fd5b505af1158015611522573d6000803e3d6000fd5b505050506040513d602081101561153857600080fd5b505115156115bb5760408051600080516020611966833981519152815260206004820152602b60248201527f5472616e73666572206661696c6564202d207265636569766572206973206e6f60448201527f7420617070726f7665642e000000000000000000000000000000000000000000606482015290519081900360840190fd5b6110bc848484611746565b600160a060020a03811615156115db57600080fd5b600160a060020a0316600090815260209190915260409020805460ff19169055565b600160a060020a038116151561161257600080fd5b600160a060020a0316600090815260209190915260409020805460ff19166001179055565b6000808383111561164757600080fd5b5050900390565b60008054610100900460ff16806116685750611668610fe8565b80611676575060005460ff16155b15156116f75760408051600080516020611966833981519152815260206004820152602e60248201527f436f6e747261637420696e7374616e63652068617320616c726561647920626560448201527f656e20696e697469616c697a6564000000000000000000000000000000000000606482015290519081900360840190fd5b5060008054600161010061ff00198316811760ff1916919091179092550460ff1661172182610af4565b1515610df657610df6826111f3565b600061173d3384846117e3565b50600192915050565b600160a060020a038316600090815260346020908152604080832033845290915281205482111561177657600080fd5b600160a060020a03841660009081526034602090815260408083203384529091529020546117aa908363ffffffff61163716565b600160a060020a03851660009081526034602090815260408083203384529091529020556117d98484846117e3565b5060019392505050565b600160a060020a03831660009081526033602052604090205481111561180857600080fd5b600160a060020a038216151561181d57600080fd5b600160a060020a038316600090815260336020526040902054611846908263ffffffff61163716565b600160a060020a03808516600090815260336020526040808220939093559084168152205461187b908263ffffffff61148616565b600160a060020a0380841660008181526033602090815260409182902094909455805185815290519193928716927fddf252ad1be2c89b69c2b068fc378daa952ba7f163c4a11628f55a4df523b3ef92918290030190a3505050565b828054600181600116156101000203166002900490600052602060002090601f016020900481019282601f1061191857805160ff1916838001178555611945565b82800160010185558215611945579182015b8281111561194557825182559160200191906001019061192a565b50610fee926106169250905b80821115610fee5760008155600101611951560008c379a000000000000000000000000000000000000000000000000000000000a165627a7a72305820226f09b03794fef1d87c00e0e435abbff23849a0c6e6a652709d5b073e6e7a3f0029",
  "source": "pragma solidity ^0.4.24;\n\nimport \"zos-lib/contracts/Initializable.sol\";\nimport \"openzeppelin-eth/contracts/token/ERC20/ERC20Detailed.sol\";\nimport \"openzeppelin-eth/contracts/token/ERC20/ERC20Pausable.sol\";\nimport \"tpl-contracts-eth/contracts/token/TPLRestrictedReceiverToken.sol\";\nimport \"./PropsSidechainCompatible.sol\";\n\n/**\n * @title PROPSToken\n * @dev PROPS token contract (based of ZEPToken by openzeppelin), a detailed ERC20 including pausable functionality.\n * The TPLToken integration causes tokens to only be transferrable to addresses\n * which have the validRecipient attribute in the jurisdiction.\n */\ncontract PropsToken is Initializable, TPLRestrictedReceiverToken, ERC20Detailed, ERC20Pausable, PropsSidechainCompatible {\n\n  /**\n   * @dev Initializer function. Called only once when a proxy for the contract is created.\n   * @param _sender Address that will control the token and receive it's initial supply.\n   * @param _jurisdictionAddress AttributeRegistry used for the TPL jurisdiction of the token.\n   * @param _validRecipientAttributeId uint256 id that the TPL jurisdiction uses to control which addresses can receive the token.\n   */\n  function initialize(\n    address _sender,\n    AttributeRegistryInterface _jurisdictionAddress,\n    uint256 _validRecipientAttributeId\n  )\n    initializer\n    public\n  {\n    uint8 decimals = 18;\n    uint256 totalSupply = 1e9 * (10 ** uint256(decimals));\n\n    ERC20Pausable.initialize(_sender);\n    ERC20Detailed.initialize(\"DEV Token\", \"DEV_TOKEN\", decimals);\n    TPLRestrictedReceiverToken.initialize(_jurisdictionAddress, _validRecipientAttributeId);\n    _mint(_sender, totalSupply);\n  }\n\n}",
  "sourcePath": "/Users/jretina/Programming/PROPSProject/props-token-distribution/contracts/token/PropsToken.sol",
  "compiler": {
    "name": "solc",
    "version": "0.4.24+commit.e67f0147.Emscripten.clang"
  },
  "schemaVersion": "2.0.1",
  "updatedAt": "2019-01-14T17:11:36.790Z"
}