{
  "contractName": "PropsToken",
  "abi": [
    {
      "constant": false,
      "inputs": [
        {
          "name": "_controller",
          "type": "address"
        }
      ],
      "name": "updateController",
      "outputs": [
        {
          "name": "",
          "type": "bool"
        }
      ],
      "payable": false,
      "stateMutability": "nonpayable",
      "type": "function"
    },
    {
      "constant": true,
      "inputs": [],
      "name": "name",
      "outputs": [
        {
          "name": "",
          "type": "string"
        }
      ],
      "payable": false,
      "stateMutability": "view",
      "type": "function"
    },
    {
      "constant": false,
      "inputs": [
        {
          "name": "spender",
          "type": "address"
        },
        {
          "name": "value",
          "type": "uint256"
        }
      ],
      "name": "approve",
      "outputs": [
        {
          "name": "",
          "type": "bool"
        }
      ],
      "payable": false,
      "stateMutability": "nonpayable",
      "type": "function"
    },
    {
      "constant": true,
      "inputs": [
        {
          "name": "_entityType",
          "type": "uint8"
        },
        {
          "name": "_rewardsDay",
          "type": "uint256"
        }
      ],
      "name": "getEntities",
      "outputs": [
        {
          "name": "",
          "type": "address[]"
        }
      ],
      "payable": false,
      "stateMutability": "view",
      "type": "function"
    },
    {
      "constant": true,
      "inputs": [
        {
          "name": "_token",
          "type": "address"
        },
        {
          "name": "_to",
          "type": "address"
        },
        {
          "name": "_value",
          "type": "uint256"
        },
        {
          "name": "_fee",
          "type": "uint256"
        },
        {
          "name": "_nonce",
          "type": "uint256"
        }
      ],
      "name": "getTransferPreSignedHash",
      "outputs": [
        {
          "name": "",
          "type": "bytes32"
        }
      ],
      "payable": false,
      "stateMutability": "pure",
      "type": "function"
    },
    {
      "constant": false,
      "inputs": [
        {
          "name": "_signature",
          "type": "bytes"
        },
        {
          "name": "_to",
          "type": "address"
        },
        {
          "name": "_value",
          "type": "uint256"
        },
        {
          "name": "_fee",
          "type": "uint256"
        },
        {
          "name": "_nonce",
          "type": "uint256"
        }
      ],
      "name": "transferPreSigned",
      "outputs": [
        {
          "name": "",
          "type": "bool"
        }
      ],
      "payable": false,
      "stateMutability": "nonpayable",
      "type": "function"
    },
    {
      "constant": true,
      "inputs": [
        {
          "name": "_token",
          "type": "address"
        },
        {
          "name": "_spender",
          "type": "address"
        },
        {
          "name": "_addedValue",
          "type": "uint256"
        },
        {
          "name": "_fee",
          "type": "uint256"
        },
        {
          "name": "_nonce",
          "type": "uint256"
        }
      ],
      "name": "getIncreaseAllowancePreSignedHash",
      "outputs": [
        {
          "name": "",
          "type": "bytes32"
        }
      ],
      "payable": false,
      "stateMutability": "pure",
      "type": "function"
    },
    {
      "constant": false,
      "inputs": [
        {
          "name": "_name",
          "type": "uint8"
        },
        {
          "name": "_value",
          "type": "uint256"
        },
        {
          "name": "_rewardsDay",
          "type": "uint256"
        }
      ],
      "name": "updateParameter",
      "outputs": [
        {
          "name": "",
          "type": "bool"
        }
      ],
      "payable": false,
      "stateMutability": "nonpayable",
      "type": "function"
    },
    {
      "constant": true,
      "inputs": [],
      "name": "totalSupply",
      "outputs": [
        {
          "name": "",
          "type": "uint256"
        }
      ],
      "payable": false,
      "stateMutability": "view",
      "type": "function"
    },
    {
      "constant": false,
      "inputs": [
        {
          "name": "from",
          "type": "address"
        },
        {
          "name": "to",
          "type": "address"
        },
        {
          "name": "value",
          "type": "uint256"
        }
      ],
      "name": "transferFrom",
      "outputs": [
        {
          "name": "",
          "type": "bool"
        }
      ],
      "payable": false,
      "stateMutability": "nonpayable",
      "type": "function"
    },
    {
      "constant": true,
      "inputs": [],
      "name": "maxTotalSupply",
      "outputs": [
        {
          "name": "",
          "type": "uint256"
        }
      ],
      "payable": false,
      "stateMutability": "view",
      "type": "function"
    },
    {
      "constant": true,
      "inputs": [],
      "name": "decimals",
      "outputs": [
        {
          "name": "",
          "type": "uint8"
        }
      ],
      "payable": false,
      "stateMutability": "view",
      "type": "function"
    },
    {
      "constant": false,
      "inputs": [
        {
          "name": "spender",
          "type": "address"
        },
        {
          "name": "addedValue",
          "type": "uint256"
        }
      ],
      "name": "increaseAllowance",
      "outputs": [
        {
          "name": "",
          "type": "bool"
        }
      ],
      "payable": false,
      "stateMutability": "nonpayable",
      "type": "function"
    },
    {
      "constant": true,
      "inputs": [],
      "name": "canTransferBeforeStartTime",
      "outputs": [
        {
          "name": "",
          "type": "address"
        }
      ],
      "payable": false,
      "stateMutability": "view",
      "type": "function"
    },
    {
      "constant": true,
      "inputs": [
        {
          "name": "_name",
          "type": "uint8"
        },
        {
          "name": "_rewardsDay",
          "type": "uint256"
        }
      ],
      "name": "getParameter",
      "outputs": [
        {
          "name": "",
          "type": "uint256"
        }
      ],
      "payable": false,
      "stateMutability": "view",
      "type": "function"
    },
    {
      "constant": true,
      "inputs": [
        {
          "name": "_token",
          "type": "address"
        },
        {
          "name": "_spender",
          "type": "address"
        },
        {
          "name": "_subtractedValue",
          "type": "uint256"
        },
        {
          "name": "_fee",
          "type": "uint256"
        },
        {
          "name": "_nonce",
          "type": "uint256"
        }
      ],
      "name": "getDecreaseAllowancePreSignedHash",
      "outputs": [
        {
          "name": "",
          "type": "bytes32"
        }
      ],
      "payable": false,
      "stateMutability": "pure",
      "type": "function"
    },
    {
      "constant": false,
      "inputs": [
        {
          "name": "_rewardsDay",
          "type": "uint256"
        },
        {
          "name": "_rewardsHash",
          "type": "bytes32"
        },
        {
          "name": "_applications",
          "type": "address[]"
        },
        {
          "name": "_amounts",
          "type": "uint256[]"
        }
      ],
      "name": "submitDailyRewards",
      "outputs": [
        {
          "name": "",
          "type": "bool"
        }
      ],
      "payable": false,
      "stateMutability": "nonpayable",
      "type": "function"
    },
    {
      "constant": false,
      "inputs": [
        {
          "name": "_signature",
          "type": "bytes"
        },
        {
          "name": "_spender",
          "type": "address"
        },
        {
          "name": "_value",
          "type": "uint256"
        },
        {
          "name": "_fee",
          "type": "uint256"
        },
        {
          "name": "_nonce",
          "type": "uint256"
        }
      ],
      "name": "approvePreSigned",
      "outputs": [
        {
          "name": "",
          "type": "bool"
        }
      ],
      "payable": false,
      "stateMutability": "nonpayable",
      "type": "function"
    },
    {
      "constant": true,
      "inputs": [
        {
          "name": "owner",
          "type": "address"
        }
      ],
      "name": "balanceOf",
      "outputs": [
        {
          "name": "",
          "type": "uint256"
        }
      ],
      "payable": false,
      "stateMutability": "view",
      "type": "function"
    },
    {
      "constant": false,
      "inputs": [
        {
          "name": "_rewardsDay",
          "type": "uint256"
        },
        {
          "name": "_applications",
          "type": "address[]"
        }
      ],
      "name": "setApplications",
      "outputs": [
        {
          "name": "",
          "type": "bool"
        }
      ],
      "payable": false,
      "stateMutability": "nonpayable",
      "type": "function"
    },
    {
      "constant": true,
      "inputs": [],
      "name": "rewardsDay",
      "outputs": [
        {
          "name": "",
          "type": "uint256"
        }
      ],
      "payable": false,
      "stateMutability": "view",
      "type": "function"
    },
    {
      "constant": true,
      "inputs": [
        {
          "name": "_token",
          "type": "address"
        },
        {
          "name": "_spender",
          "type": "address"
        },
        {
          "name": "_value",
          "type": "uint256"
        },
        {
          "name": "_fee",
          "type": "uint256"
        },
        {
          "name": "_nonce",
          "type": "uint256"
        }
      ],
      "name": "getApprovePreSignedHash",
      "outputs": [
        {
          "name": "",
          "type": "bytes32"
        }
      ],
      "payable": false,
      "stateMutability": "pure",
      "type": "function"
    },
    {
      "constant": true,
      "inputs": [],
      "name": "symbol",
      "outputs": [
        {
          "name": "",
          "type": "string"
        }
      ],
      "payable": false,
      "stateMutability": "view",
      "type": "function"
    },
    {
      "constant": false,
      "inputs": [
        {
          "name": "_entityType",
          "type": "uint8"
        },
        {
          "name": "_name",
          "type": "bytes32"
        },
        {
          "name": "_rewardsAddress",
          "type": "address"
        },
        {
          "name": "_sidechainAddress",
          "type": "address"
        }
      ],
      "name": "updateEntity",
      "outputs": [
        {
          "name": "",
          "type": "bool"
        }
      ],
      "payable": false,
      "stateMutability": "nonpayable",
      "type": "function"
    },
    {
      "constant": false,
      "inputs": [
        {
          "name": "spender",
          "type": "address"
        },
        {
          "name": "subtractedValue",
          "type": "uint256"
        }
      ],
      "name": "decreaseAllowance",
      "outputs": [
        {
          "name": "",
          "type": "bool"
        }
      ],
      "payable": false,
      "stateMutability": "nonpayable",
      "type": "function"
    },
    {
      "constant": true,
      "inputs": [
        {
          "name": "_token",
          "type": "address"
        },
        {
          "name": "_from",
          "type": "address"
        },
        {
          "name": "_to",
          "type": "address"
        },
        {
          "name": "_value",
          "type": "uint256"
        },
        {
          "name": "_fee",
          "type": "uint256"
        },
        {
          "name": "_nonce",
          "type": "uint256"
        }
      ],
      "name": "getTransferFromPreSignedHash",
      "outputs": [
        {
          "name": "",
          "type": "bytes32"
        }
      ],
      "payable": false,
      "stateMutability": "pure",
      "type": "function"
    },
    {
      "constant": false,
      "inputs": [
        {
          "name": "to",
          "type": "address"
        },
        {
          "name": "value",
          "type": "uint256"
        }
      ],
      "name": "transfer",
      "outputs": [
        {
          "name": "",
          "type": "bool"
        }
      ],
      "payable": false,
      "stateMutability": "nonpayable",
      "type": "function"
    },
    {
      "constant": false,
      "inputs": [
        {
          "name": "_signature",
          "type": "bytes"
        },
        {
          "name": "_from",
          "type": "address"
        },
        {
          "name": "_to",
          "type": "address"
        },
        {
          "name": "_value",
          "type": "uint256"
        },
        {
          "name": "_fee",
          "type": "uint256"
        },
        {
          "name": "_nonce",
          "type": "uint256"
        }
      ],
      "name": "transferFromPreSigned",
      "outputs": [
        {
          "name": "",
          "type": "bool"
        }
      ],
      "payable": false,
      "stateMutability": "nonpayable",
      "type": "function"
    },
    {
      "constant": true,
      "inputs": [],
      "name": "transfersStartTime",
      "outputs": [
        {
          "name": "",
          "type": "uint256"
        }
      ],
      "payable": false,
      "stateMutability": "view",
      "type": "function"
    },
    {
      "constant": true,
      "inputs": [
        {
          "name": "owner",
          "type": "address"
        },
        {
          "name": "spender",
          "type": "address"
        }
      ],
      "name": "allowance",
      "outputs": [
        {
          "name": "",
          "type": "uint256"
        }
      ],
      "payable": false,
      "stateMutability": "view",
      "type": "function"
    },
    {
      "constant": false,
      "inputs": [
        {
          "name": "_rewardsDay",
          "type": "uint256"
        },
        {
          "name": "_validators",
          "type": "address[]"
        }
      ],
      "name": "setValidators",
      "outputs": [
        {
          "name": "",
          "type": "bool"
        }
      ],
      "payable": false,
      "stateMutability": "nonpayable",
      "type": "function"
    },
    {
      "constant": false,
      "inputs": [
        {
          "name": "_signature",
          "type": "bytes"
        },
        {
          "name": "_spender",
          "type": "address"
        },
        {
          "name": "_subtractedValue",
          "type": "uint256"
        },
        {
          "name": "_fee",
          "type": "uint256"
        },
        {
          "name": "_nonce",
          "type": "uint256"
        }
      ],
      "name": "decreaseAllowancePreSigned",
      "outputs": [
        {
          "name": "",
          "type": "bool"
        }
      ],
      "payable": false,
      "stateMutability": "nonpayable",
      "type": "function"
    },
    {
      "constant": true,
      "inputs": [],
      "name": "controller",
      "outputs": [
        {
          "name": "",
          "type": "address"
        }
      ],
      "payable": false,
      "stateMutability": "view",
      "type": "function"
    },
    {
      "constant": false,
      "inputs": [
        {
          "name": "_signature",
          "type": "bytes"
        },
        {
          "name": "_spender",
          "type": "address"
        },
        {
          "name": "_addedValue",
          "type": "uint256"
        },
        {
          "name": "_fee",
          "type": "uint256"
        },
        {
          "name": "_nonce",
          "type": "uint256"
        }
      ],
      "name": "increaseAllowancePreSigned",
      "outputs": [
        {
          "name": "",
          "type": "bool"
        }
      ],
      "payable": false,
      "stateMutability": "nonpayable",
      "type": "function"
    },
    {
      "anonymous": false,
      "inputs": [
        {
          "indexed": true,
          "name": "rewardsDay",
          "type": "uint256"
        },
        {
          "indexed": true,
          "name": "rewardsHash",
          "type": "bytes32"
        },
        {
          "indexed": true,
          "name": "validator",
          "type": "address"
        }
      ],
      "name": "DailyRewardsSubmitted",
      "type": "event"
    },
    {
      "anonymous": false,
      "inputs": [
        {
          "indexed": true,
          "name": "rewardsDay",
          "type": "uint256"
        },
        {
          "indexed": true,
          "name": "rewardsHash",
          "type": "bytes32"
        },
        {
          "indexed": false,
          "name": "numOfApplications",
          "type": "uint256"
        },
        {
          "indexed": false,
          "name": "amount",
          "type": "uint256"
        }
      ],
      "name": "DailyRewardsApplicationsMinted",
      "type": "event"
    },
    {
      "anonymous": false,
      "inputs": [
        {
          "indexed": true,
          "name": "rewardsDay",
          "type": "uint256"
        },
        {
          "indexed": true,
          "name": "rewardsHash",
          "type": "bytes32"
        },
        {
          "indexed": false,
          "name": "numOfValidators",
          "type": "uint256"
        },
        {
          "indexed": false,
          "name": "amount",
          "type": "uint256"
        }
      ],
      "name": "DailyRewardsValidatorsMinted",
      "type": "event"
    },
    {
      "anonymous": false,
      "inputs": [
        {
          "indexed": true,
          "name": "id",
          "type": "address"
        },
        {
          "indexed": true,
          "name": "entityType",
          "type": "uint8"
        },
        {
          "indexed": false,
          "name": "name",
          "type": "bytes32"
        },
        {
          "indexed": false,
          "name": "rewardsAddress",
          "type": "address"
        },
        {
          "indexed": true,
          "name": "sidechainAddress",
          "type": "address"
        }
      ],
      "name": "EntityUpdated",
      "type": "event"
    },
    {
      "anonymous": false,
      "inputs": [
        {
          "indexed": false,
          "name": "param",
          "type": "uint8"
        },
        {
          "indexed": false,
          "name": "newValue",
          "type": "uint256"
        },
        {
          "indexed": false,
          "name": "oldValue",
          "type": "uint256"
        },
        {
          "indexed": false,
          "name": "rewardsDay",
          "type": "uint256"
        }
      ],
      "name": "ParameterUpdated",
      "type": "event"
    },
    {
      "anonymous": false,
      "inputs": [
        {
          "indexed": false,
          "name": "validatorsList",
          "type": "address[]"
        },
        {
          "indexed": true,
          "name": "rewardsDay",
          "type": "uint256"
        }
      ],
      "name": "ValidatorsListUpdated",
      "type": "event"
    },
    {
      "anonymous": false,
      "inputs": [
        {
          "indexed": false,
          "name": "applicationsList",
          "type": "address[]"
        },
        {
          "indexed": true,
          "name": "rewardsDay",
          "type": "uint256"
        }
      ],
      "name": "ApplicationsListUpdated",
      "type": "event"
    },
    {
      "anonymous": false,
      "inputs": [
        {
          "indexed": true,
          "name": "newController",
          "type": "address"
        }
      ],
      "name": "ControllerUpdated",
      "type": "event"
    },
    {
      "anonymous": false,
      "inputs": [
        {
          "indexed": true,
          "name": "from",
          "type": "address"
        },
        {
          "indexed": true,
          "name": "to",
          "type": "address"
        },
        {
          "indexed": true,
          "name": "delegate",
          "type": "address"
        },
        {
          "indexed": false,
          "name": "amount",
          "type": "uint256"
        },
        {
          "indexed": false,
          "name": "fee",
          "type": "uint256"
        }
      ],
      "name": "TransferPreSigned",
      "type": "event"
    },
    {
      "anonymous": false,
      "inputs": [
        {
          "indexed": true,
          "name": "from",
          "type": "address"
        },
        {
          "indexed": true,
          "name": "to",
          "type": "address"
        },
        {
          "indexed": true,
          "name": "delegate",
          "type": "address"
        },
        {
          "indexed": false,
          "name": "amount",
          "type": "uint256"
        },
        {
          "indexed": false,
          "name": "fee",
          "type": "uint256"
        }
      ],
      "name": "ApprovalPreSigned",
      "type": "event"
    },
    {
      "anonymous": false,
      "inputs": [
        {
          "indexed": true,
          "name": "from",
          "type": "address"
        },
        {
          "indexed": true,
          "name": "to",
          "type": "address"
        },
        {
          "indexed": false,
          "name": "value",
          "type": "uint256"
        }
      ],
      "name": "Transfer",
      "type": "event"
    },
    {
      "anonymous": false,
      "inputs": [
        {
          "indexed": true,
          "name": "owner",
          "type": "address"
        },
        {
          "indexed": true,
          "name": "spender",
          "type": "address"
        },
        {
          "indexed": false,
          "name": "value",
          "type": "uint256"
        }
      ],
      "name": "Approval",
      "type": "event"
    },
    {
      "constant": false,
      "inputs": [
        {
          "name": "name",
          "type": "string"
        },
        {
          "name": "symbol",
          "type": "string"
        },
        {
          "name": "decimals",
          "type": "uint8"
        }
      ],
      "name": "initialize",
      "outputs": [],
      "payable": false,
      "stateMutability": "nonpayable",
      "type": "function"
    },
    {
      "constant": false,
      "inputs": [
        {
          "name": "_controller",
          "type": "address"
        },
        {
          "name": "_decimals",
          "type": "uint256"
        },
        {
          "name": "_minSecondsBetweenDays",
          "type": "uint256"
        }
      ],
      "name": "initialize",
      "outputs": [],
      "payable": false,
      "stateMutability": "nonpayable",
      "type": "function"
    },
    {
      "constant": false,
      "inputs": [
        {
          "name": "start",
          "type": "uint256"
        },
        {
          "name": "account",
          "type": "address"
        }
      ],
      "name": "initialize",
      "outputs": [],
      "payable": false,
      "stateMutability": "nonpayable",
      "type": "function"
    },
    {
      "constant": false,
      "inputs": [
        {
          "name": "_holder",
          "type": "address"
        },
        {
          "name": "_transfersStartTime",
          "type": "uint256"
        },
        {
          "name": "_controller",
          "type": "address"
        },
        {
          "name": "_minSecondsBetweenDays",
          "type": "uint256"
        }
      ],
      "name": "initialize",
      "outputs": [],
      "payable": false,
      "stateMutability": "nonpayable",
      "type": "function"
    },
    {
      "constant": false,
      "inputs": [
        {
          "name": "_controller",
          "type": "address"
        },
        {
          "name": "_minSecondsBetweenDays",
          "type": "uint256"
        }
      ],
      "name": "initializePostRewardsUpgrade1",
      "outputs": [],
      "payable": false,
      "stateMutability": "nonpayable",
      "type": "function"
    },
    {
      "constant": false,
      "inputs": [
        {
          "name": "_controller",
          "type": "address"
        },
        {
          "name": "_decimals",
          "type": "uint256"
        },
        {
          "name": "_minSecondsBetweenDays",
          "type": "uint256"
        }
      ],
      "name": "initializePostRewardsUpgrade1",
      "outputs": [],
      "payable": false,
      "stateMutability": "nonpayable",
      "type": "function"
    }
  ],
  "bytecode": "0x608060405234801561001057600080fd5b50615dc780620000216000396000f3006080604052600436106101ee576000357c0100000000000000000000000000000000000000000000000000000000900463ffffffff16806306cb5b66146101f357806306fdde031461024e578063095ea7b3146102de578063098bfa9f146103435780630d98dcb1146103d25780631296830d1461046f578063138e8da11461052e5780631624f6c6146105cb578063162663001461068757806318160ddd146106e357806323b872dd1461070e5780632ab4d05214610793578063313ce567146107be5780633191b8b0146107ef578063395093511461083c57806345b6d7dc146108a15780634f92caf8146108f85780635229c56f1461094657806357ece4bc146109e3578063617b390b14610abc57806370a0823114610b7b5780637492fdda14610bd257806377f1027c14610c5a57806379250dcf14610c855780637a1ac61e14610d2257806395d89b4114610d7957806396e8832714610e09578063a457c2d714610e9f578063a70c41b414610f04578063a9059cbb14610fc1578063bca5051514611026578063d0f22e9c14611105578063da35a26f14611130578063dd62ed3e1461117d578063e24df754146111f4578063e795594d1461126b578063e9d2c4b3146112f3578063f2959d6e1461134a578063f77c479114611409578063f80801d014611460575b600080fd5b3480156101ff57600080fd5b50610234600480360381019080803573ffffffffffffffffffffffffffffffffffffffff16906020019092919050505061151f565b604051808215151515815260200191505060405180910390f35b34801561025a57600080fd5b50610263611673565b6040518080602001828103825283818151815260200191508051906020019080838360005b838110156102a3578082015181840152602081019050610288565b50505050905090810190601f1680156102d05780820380516001836020036101000a031916815260200191505b509250505060405180910390f35b3480156102ea57600080fd5b50610329600480360381019080803573ffffffffffffffffffffffffffffffffffffffff16906020019092919080359060200190929190505050611715565b604051808215151515815260200191505060405180910390f35b34801561034f57600080fd5b5061037b600480360381019080803560ff1690602001909291908035906020019092919050505061172c565b6040518080602001828103825283818151815260200191508051906020019060200280838360005b838110156103be5780820151818401526020810190506103a3565b505050509050019250505060405180910390f35b3480156103de57600080fd5b50610451600480360381019080803573ffffffffffffffffffffffffffffffffffffffff169060200190929190803573ffffffffffffffffffffffffffffffffffffffff169060200190929190803590602001909291908035906020019092919080359060200190929190505050611851565b60405180826000191660001916815260200191505060405180910390f35b34801561047b57600080fd5b50610514600480360381019080803590602001908201803590602001908080601f0160208091040260200160405190810160405280939291908181526020018383808284378201915050505050509192919290803573ffffffffffffffffffffffffffffffffffffffff1690602001909291908035906020019092919080359060200190929190803590602001909291905050506119df565b604051808215151515815260200191505060405180910390f35b34801561053a57600080fd5b506105ad600480360381019080803573ffffffffffffffffffffffffffffffffffffffff169060200190929190803573ffffffffffffffffffffffffffffffffffffffff169060200190929190803590602001909291908035906020019092919080359060200190929190505050611dc1565b60405180826000191660001916815260200191505060405180910390f35b3480156105d757600080fd5b50610685600480360381019080803590602001908201803590602001908080601f0160208091040260200160405190810160405280939291908181526020018383808284378201915050505050509192919290803590602001908201803590602001908080601f0160208091040260200160405190810160405280939291908181526020018383808284378201915050505050509192919290803560ff169060200190929190505050611f4f565b005b34801561069357600080fd5b506106c9600480360381019080803560ff16906020019092919080359060200190929190803590602001909291905050506120d0565b604051808215151515815260200191505060405180910390f35b3480156106ef57600080fd5b506106f8612339565b6040518082815260200191505060405180910390f35b34801561071a57600080fd5b50610779600480360381019080803573ffffffffffffffffffffffffffffffffffffffff169060200190929190803573ffffffffffffffffffffffffffffffffffffffff16906020019092919080359060200190929190505050612343565b604051808215151515815260200191505060405180910390f35b34801561079f57600080fd5b506107a8612452565b6040518082815260200191505060405180910390f35b3480156107ca57600080fd5b506107d3612458565b604051808260ff1660ff16815260200191505060405180910390f35b3480156107fb57600080fd5b5061083a600480360381019080803573ffffffffffffffffffffffffffffffffffffffff1690602001909291908035906020019092919050505061246f565b005b34801561084857600080fd5b50610887600480360381019080803573ffffffffffffffffffffffffffffffffffffffff169060200190929190803590602001909291905050506125bb565b604051808215151515815260200191505060405180910390f35b3480156108ad57600080fd5b506108b6612660565b604051808273ffffffffffffffffffffffffffffffffffffffff1673ffffffffffffffffffffffffffffffffffffffff16815260200191505060405180910390f35b34801561090457600080fd5b50610930600480360381019080803560ff16906020019092919080359060200190929190505050612686565b6040518082815260200191505060405180910390f35b34801561095257600080fd5b506109c5600480360381019080803573ffffffffffffffffffffffffffffffffffffffff169060200190929190803573ffffffffffffffffffffffffffffffffffffffff169060200190929190803590602001909291908035906020019092919080359060200190929190505050612755565b60405180826000191660001916815260200191505060405180910390f35b3480156109ef57600080fd5b50610aa260048036038101908080359060200190929190803560001916906020019092919080359060200190820180359060200190808060200260200160405190810160405280939291908181526020018383602002808284378201915050505050509192919290803590602001908201803590602001908080602002602001604051908101604052809392919081815260200183836020028082843782019150505050505091929192905050506128e3565b604051808215151515815260200191505060405180910390f35b348015610ac857600080fd5b50610b61600480360381019080803590602001908201803590602001908080601f0160208091040260200160405190810160405280939291908181526020018383808284378201915050505050509192919290803573ffffffffffffffffffffffffffffffffffffffff169060200190929190803590602001909291908035906020019092919080359060200190929190505050612ccc565b604051808215151515815260200191505060405180910390f35b348015610b8757600080fd5b50610bbc600480360381019080803573ffffffffffffffffffffffffffffffffffffffff1690602001909291905050506130ae565b6040518082815260200191505060405180910390f35b348015610bde57600080fd5b50610c4060048036038101908080359060200190929190803590602001908201803590602001908080602002602001604051908101604052809392919081815260200183836020028082843782019150505050505091929192905050506130f7565b604051808215151515815260200191505060405180910390f35b348015610c6657600080fd5b50610c6f61333a565b6040518082815260200191505060405180910390f35b348015610c9157600080fd5b50610d04600480360381019080803573ffffffffffffffffffffffffffffffffffffffff169060200190929190803573ffffffffffffffffffffffffffffffffffffffff169060200190929190803590602001909291908035906020019092919080359060200190929190505050613347565b60405180826000191660001916815260200191505060405180910390f35b348015610d2e57600080fd5b50610d77600480360381019080803573ffffffffffffffffffffffffffffffffffffffff16906020019092919080359060200190929190803590602001909291905050506134d5565b005b348015610d8557600080fd5b50610d8e613618565b6040518080602001828103825283818151815260200191508051906020019080838360005b83811015610dce578082015181840152602081019050610db3565b50505050905090810190601f168015610dfb5780820380516001836020036101000a031916815260200191505b509250505060405180910390f35b348015610e1557600080fd5b50610e85600480360381019080803560ff1690602001909291908035600019169060200190929190803573ffffffffffffffffffffffffffffffffffffffff169060200190929190803573ffffffffffffffffffffffffffffffffffffffff1690602001909291905050506136ba565b604051808215151515815260200191505060405180910390f35b348015610eab57600080fd5b50610eea600480360381019080803573ffffffffffffffffffffffffffffffffffffffff169060200190929190803590602001909291905050506138ab565b604051808215151515815260200191505060405180910390f35b348015610f1057600080fd5b50610fa3600480360381019080803573ffffffffffffffffffffffffffffffffffffffff169060200190929190803573ffffffffffffffffffffffffffffffffffffffff169060200190929190803573ffffffffffffffffffffffffffffffffffffffff169060200190929190803590602001909291908035906020019092919080359060200190929190505050613950565b60405180826000191660001916815260200191505060405180910390f35b348015610fcd57600080fd5b5061100c600480360381019080803573ffffffffffffffffffffffffffffffffffffffff16906020019092919080359060200190929190505050613b22565b604051808215151515815260200191505060405180910390f35b34801561103257600080fd5b506110eb600480360381019080803590602001908201803590602001908080601f0160208091040260200160405190810160405280939291908181526020018383808284378201915050505050509192919290803573ffffffffffffffffffffffffffffffffffffffff169060200190929190803573ffffffffffffffffffffffffffffffffffffffff169060200190929190803590602001909291908035906020019092919080359060200190929190505050613c2f565b604051808215151515815260200191505060405180910390f35b34801561111157600080fd5b5061111a61405f565b6040518082815260200191505060405180910390f35b34801561113c57600080fd5b5061117b60048036038101908080359060200190929190803573ffffffffffffffffffffffffffffffffffffffff169060200190929190505050614065565b005b34801561118957600080fd5b506111de600480360381019080803573ffffffffffffffffffffffffffffffffffffffff169060200190929190803573ffffffffffffffffffffffffffffffffffffffff1690602001909291905050506141e4565b6040518082815260200191505060405180910390f35b34801561120057600080fd5b50611269600480360381019080803573ffffffffffffffffffffffffffffffffffffffff16906020019092919080359060200190929190803573ffffffffffffffffffffffffffffffffffffffff1690602001909291908035906020019092919050505061426b565b005b34801561127757600080fd5b506112d96004803603810190808035906020019092919080359060200190820180359060200190808060200260200160405190810160405280939291908181526020018383602002808284378201915050505050509192919290505050614453565b604051808215151515815260200191505060405180910390f35b3480156112ff57600080fd5b50611348600480360381019080803573ffffffffffffffffffffffffffffffffffffffff1690602001909291908035906020019092919080359060200190929190505050614696565b005b34801561135657600080fd5b506113ef600480360381019080803590602001908201803590602001908080601f0160208091040260200160405190810160405280939291908181526020018383808284378201915050505050509192919290803573ffffffffffffffffffffffffffffffffffffffff1690602001909291908035906020019092919080359060200190929190803590602001909291905050506147d9565b604051808215151515815260200191505060405180910390f35b34801561141557600080fd5b5061141e614bdf565b604051808273ffffffffffffffffffffffffffffffffffffffff1673ffffffffffffffffffffffffffffffffffffffff16815260200191505060405180910390f35b34801561146c57600080fd5b50611505600480360381019080803590602001908201803590602001908080601f0160208091040260200160405190810160405280939291908181526020018383808284378201915050505050509192919290803573ffffffffffffffffffffffffffffffffffffffff169060200190929190803590602001909291908035906020019092919080359060200190929190505050614c05565b604051808215151515815260200191505060405180910390f35b600060b660009054906101000a900473ffffffffffffffffffffffffffffffffffffffff1673ffffffffffffffffffffffffffffffffffffffff163373ffffffffffffffffffffffffffffffffffffffff161415156115e6576040517f08c379a00000000000000000000000000000000000000000000000000000000081526004018080602001828103825260168152602001807f4d7573742062652074686520636f6e74726f6c6c65720000000000000000000081525060200191505060405180910390fd5b8160b660006101000a81548173ffffffffffffffffffffffffffffffffffffffff021916908373ffffffffffffffffffffffffffffffffffffffff1602179055508173ffffffffffffffffffffffffffffffffffffffff167f1304018cfe79741dcf02ba6b61d39cc4757d59395d03224d9925c7aa8300214660405160405180910390a260019050919050565b606060338054600181600116156101000203166002900480601f01602080910402602001604051908101604052809291908181526020018280546001816001161561010002031660029004801561170b5780601f106116e05761010080835404028352916020019161170b565b820191906000526020600020905b8154815290600101906020018083116116ee57829003601f168201915b5050505050905090565b600061172233848461500b565b6001905092915050565b606073__PropsRewardsLib_______________________638993273560a085856040518463ffffffff167c01000000000000000000000000000000000000000000000000000000000281526004018084815260200183600181111561178d57fe5b60ff168152602001828152602001935050505060006040518083038186803b1580156117b857600080fd5b505af41580156117cc573d6000803e3d6000fd5b505050506040513d6000823e3d601f19601f8201168201806040525060208110156117f657600080fd5b81019080805164010000000081111561180e57600080fd5b8281019050602081018481111561182457600080fd5b815185602082028301116401000000008211171561184157600080fd5b5050929190505050905092915050565b6000630d98dcb17c010000000000000000000000000000000000000000000000000000000002868686868660405160200180877bffffffffffffffffffffffffffffffffffffffffffffffffffffffff19167bffffffffffffffffffffffffffffffffffffffffffffffffffffffff191681526004018673ffffffffffffffffffffffffffffffffffffffff1673ffffffffffffffffffffffffffffffffffffffff166c010000000000000000000000000281526014018573ffffffffffffffffffffffffffffffffffffffff1673ffffffffffffffffffffffffffffffffffffffff166c0100000000000000000000000002815260140184815260200183815260200182815260200196505050505050506040516020818303038152906040526040518082805190602001908083835b6020831015156119a75780518252602082019150602081019050602083039250611982565b6001836020036101000a0380198251168184511680821785525050505050509050019150506040518091039020905095945050505050565b600080600080600073ffffffffffffffffffffffffffffffffffffffff168873ffffffffffffffffffffffffffffffffffffffff1614151515611a8a576040517f08c379a00000000000000000000000000000000000000000000000000000000081526004018080602001828103825260138152602001807f496e76616c6964205f746f20616464726573730000000000000000000000000081525060200191505060405180910390fd5b611a973089898989611851565b9250611aa3838a61516e565b9150600073ffffffffffffffffffffffffffffffffffffffff168273ffffffffffffffffffffffffffffffffffffffff1614151515611b4a576040517f08c379a000000000000000000000000000000000000000000000000000000000815260040180806020018281038252601e8152602001807f496e76616c69642066726f6d2061646472657373207265636f7665726564000081525060200191505060405180910390fd5b8183604051602001808373ffffffffffffffffffffffffffffffffffffffff1673ffffffffffffffffffffffffffffffffffffffff166c010000000000000000000000000281526014018260001916600019168152602001925050506040516020818303038152906040526040518082805190602001908083835b602083101515611bea5780518252602082019150602081019050602083039250611bc5565b6001836020036101000a0380198251168184511680821785525050505050509050019150506040518091039020905060001515609d6000836000191660001916815260200190815260200160002060009054906101000a900460ff161515141515611ce3576040517f08c379a00000000000000000000000000000000000000000000000000000000081526004018080602001828103825260218152602001807f5472616e73616374696f6e20686173682077617320616c72656164792075736581526020017f640000000000000000000000000000000000000000000000000000000000000081525060400191505060405180910390fd5b6001609d6000836000191660001916815260200190815260200160002060006101000a81548160ff021916908315150217905550611d22828989615266565b611d2d823388615266565b3373ffffffffffffffffffffffffffffffffffffffff168873ffffffffffffffffffffffffffffffffffffffff168373ffffffffffffffffffffffffffffffffffffffff167fec5a73fd1f178be20c1bca1b406cbf4b5c20d833b66e582fc122fb4baa0fc2a48a8a604051808381526020018281526020019250505060405180910390a46001935050505095945050505050565b600063138e8da17c010000000000000000000000000000000000000000000000000000000002868686868660405160200180877bffffffffffffffffffffffffffffffffffffffffffffffffffffffff19167bffffffffffffffffffffffffffffffffffffffffffffffffffffffff191681526004018673ffffffffffffffffffffffffffffffffffffffff1673ffffffffffffffffffffffffffffffffffffffff166c010000000000000000000000000281526014018573ffffffffffffffffffffffffffffffffffffffff1673ffffffffffffffffffffffffffffffffffffffff166c0100000000000000000000000002815260140184815260200183815260200182815260200196505050505050506040516020818303038152906040526040518082805190602001908083835b602083101515611f175780518252602082019150602081019050602083039250611ef2565b6001836020036101000a0380198251168184511680821785525050505050509050019150506040518091039020905095945050505050565b60008060019054906101000a900460ff1680611f6f5750611f6e615484565b5b80611f8657506000809054906101000a900460ff16155b1515612020576040517f08c379a000000000000000000000000000000000000000000000000000000000815260040180806020018281038252602e8152602001807f436f6e747261637420696e7374616e63652068617320616c726561647920626581526020017f656e20696e697469616c697a656400000000000000000000000000000000000081525060400191505060405180910390fd5b600060019054906101000a900460ff1690506001600060016101000a81548160ff02191690831515021790555060016000806101000a81548160ff021916908315150217905550836033908051906020019061207d929190615cf6565b508260349080519060200190612094929190615cf6565b5081603560006101000a81548160ff021916908360ff16021790555080600060016101000a81548160ff02191690831515021790555050505050565b600060b660009054906101000a900473ffffffffffffffffffffffffffffffffffffffff1673ffffffffffffffffffffffffffffffffffffffff163373ffffffffffffffffffffffffffffffffffffffff16141515612197576040517f08c379a00000000000000000000000000000000000000000000000000000000081526004018080602001828103825260168152602001807f4d7573742062652074686520636f6e74726f6c6c65720000000000000000000081525060200191505060405180910390fd5b73__PropsRewardsLib_______________________6311cb33da60a08686866040518563ffffffff167c0100000000000000000000000000000000000000000000000000000000028152600401808581526020018460038111156121f757fe5b60ff16815260200183815260200182815260200194505050505060206040518083038186803b15801561222957600080fd5b505af415801561223d573d6000803e3d6000fd5b505050506040513d602081101561225357600080fd5b8101908080519060200190929190505050507fd3ee560e0e71d87fde0453f24eac52dd8f01332349f8d1ef9e005d1cc3b82fb48460a0600401600087600381111561229a57fe5b81526020019081526020016000206000015460a060040160008860038111156122bf57fe5b81526020019081526020016000206001015460a060040160008960038111156122e457fe5b8152602001908152602001600020600201546040518085600381111561230657fe5b60ff16815260200184815260200183815260200182815260200194505050505060405180910390a1600190509392505050565b6000606a54905090565b600083609e544211806123a35750609f60009054906101000a900473ffffffffffffffffffffffffffffffffffffffff1673ffffffffffffffffffffffffffffffffffffffff168173ffffffffffffffffffffffffffffffffffffffff16145b151561243d576040517f08c379a000000000000000000000000000000000000000000000000000000000815260040180806020018281038252603d8152602001807f43616e6e6f74207472616e73666572206265666f7265207472616e736665727381526020017f2073746172742074696d652066726f6d2074686973206163636f756e7400000081525060400191505060405180910390fd5b612448858585615495565b9150509392505050565b60b55481565b6000603560009054906101000a900460ff16905090565b600080600060019054906101000a900460ff16806124915750612490615484565b5b806124a857506000809054906101000a900460ff16155b1515612542576040517f08c379a000000000000000000000000000000000000000000000000000000000815260040180806020018281038252602e8152602001807f436f6e747261637420696e7374616e63652068617320616c726561647920626581526020017f656e20696e697469616c697a656400000000000000000000000000000000000081525060400191505060405180910390fd5b600060019054906101000a900460ff1690506001600060016101000a81548160ff02191690831515021790555060016000806101000a81548160ff0219169083151502179055506012915061259b848360ff1685614696565b80600060016101000a81548160ff02191690831515021790555050505050565b6000612656338461265185606960003373ffffffffffffffffffffffffffffffffffffffff1673ffffffffffffffffffffffffffffffffffffffff16815260200190815260200160002060008973ffffffffffffffffffffffffffffffffffffffff1673ffffffffffffffffffffffffffffffffffffffff1681526020019081526020016000205461554690919063ffffffff16565b61500b565b6001905092915050565b609f60009054906101000a900473ffffffffffffffffffffffffffffffffffffffff1681565b600073__PropsRewardsLib_______________________63d81b705060a085856040518463ffffffff167c0100000000000000000000000000000000000000000000000000000000028152600401808481526020018360038111156126e757fe5b60ff168152602001828152602001935050505060206040518083038186803b15801561271257600080fd5b505af4158015612726573d6000803e3d6000fd5b505050506040513d602081101561273c57600080fd5b8101908080519060200190929190505050905092915050565b6000635229c56f7c010000000000000000000000000000000000000000000000000000000002868686868660405160200180877bffffffffffffffffffffffffffffffffffffffffffffffffffffffff19167bffffffffffffffffffffffffffffffffffffffffffffffffffffffff191681526004018673ffffffffffffffffffffffffffffffffffffffff1673ffffffffffffffffffffffffffffffffffffffff166c010000000000000000000000000281526014018573ffffffffffffffffffffffffffffffffffffffff1673ffffffffffffffffffffffffffffffffffffffff166c0100000000000000000000000002815260140184815260200183815260200182815260200196505050505050506040516020818303038152906040526040518082805190602001908083835b6020831015156128ab5780518252602082019150602081019050602083039250612886565b6001836020036101000a0380198251168184511680821785525050505050509050019150506040518091039020905095945050505050565b6000806000806000881115612a115773__PropsRewardsLib_______________________63c72356f560a060018b0360a0601301600060018e0381526020019081526020016000206000015460b5546040518563ffffffff167c010000000000000000000000000000000000000000000000000000000002815260040180858152602001848152602001836000191660001916815260200182815260200194505050505060206040518083038186803b15801561299f57600080fd5b505af41580156129b3573d6000803e3d6000fd5b505050506040513d60208110156129c957600080fd5b810190808051906020019092919050505092506000831115612a1057612a0f6001890360a0601301600060018c0381526020019081526020016000206000015485615567565b5b5b73__PropsRewardsLib_______________________63476b90e560a08a8a8a8a60b554612a3c612339565b6040518863ffffffff167c01000000000000000000000000000000000000000000000000000000000281526004018088815260200187815260200186600019166000191681526020018060200180602001858152602001848152602001838103835287818151815260200191508051906020019060200280838360005b83811015612ad4578082015181840152602081019050612ab9565b50505050905001838103825286818151815260200191508051906020019060200280838360005b83811015612b16578082015181840152602081019050612afb565b50505050905001995050505050505050505060206040518083038186803b158015612b4057600080fd5b505af4158015612b54573d6000803e3d6000fd5b505050506040513d6020811015612b6a57600080fd5b810190808051906020019092919050505091506000821115612b9457612b9388888888866156c0565b5b73__PropsRewardsLib_______________________63b3b64bae60a08a8a60b5546040518563ffffffff167c010000000000000000000000000000000000000000000000000000000002815260040180858152602001848152602001836000191660001916815260200182815260200194505050505060206040518083038186803b158015612c2257600080fd5b505af4158015612c36573d6000803e3d6000fd5b505050506040513d6020811015612c4c57600080fd5b810190808051906020019092919050505090506000811115612c7457612c73888883615567565b5b3373ffffffffffffffffffffffffffffffffffffffff168760001916897f47a75fa3188612bc1341726d7859491a32bf875dd309474f712950354f73c5a760405160405180910390a460019350505050949350505050565b600080600080600073ffffffffffffffffffffffffffffffffffffffff168873ffffffffffffffffffffffffffffffffffffffff1614151515612d77576040517f08c379a00000000000000000000000000000000000000000000000000000000081526004018080602001828103825260188152602001807f496e76616c6964205f7370656e6465722061646472657373000000000000000081525060200191505060405180910390fd5b612d843089898989613347565b9250612d90838a61516e565b9150600073ffffffffffffffffffffffffffffffffffffffff168273ffffffffffffffffffffffffffffffffffffffff1614151515612e37576040517f08c379a000000000000000000000000000000000000000000000000000000000815260040180806020018281038252601e8152602001807f496e76616c69642066726f6d2061646472657373207265636f7665726564000081525060200191505060405180910390fd5b8183604051602001808373ffffffffffffffffffffffffffffffffffffffff1673ffffffffffffffffffffffffffffffffffffffff166c010000000000000000000000000281526014018260001916600019168152602001925050506040516020818303038152906040526040518082805190602001908083835b602083101515612ed75780518252602082019150602081019050602083039250612eb2565b6001836020036101000a0380198251168184511680821785525050505050509050019150506040518091039020905060001515609d6000836000191660001916815260200190815260200160002060009054906101000a900460ff161515141515612fd0576040517f08c379a00000000000000000000000000000000000000000000000000000000081526004018080602001828103825260218152602001807f5472616e73616374696f6e20686173682077617320616c72656164792075736581526020017f640000000000000000000000000000000000000000000000000000000000000081525060400191505060405180910390fd5b6001609d6000836000191660001916815260200190815260200160002060006101000a81548160ff02191690831515021790555061300f82898961500b565b61301a823388615266565b3373ffffffffffffffffffffffffffffffffffffffff168873ffffffffffffffffffffffffffffffffffffffff168373ffffffffffffffffffffffffffffffffffffffff167f43a220267705e74ee2ceafd46afc841850db6f85a662189a7def697bbdd90ffb8a8a604051808381526020018281526020019250505060405180910390a46001935050505095945050505050565b6000606860008373ffffffffffffffffffffffffffffffffffffffff1673ffffffffffffffffffffffffffffffffffffffff168152602001908152602001600020549050919050565b600060b660009054906101000a900473ffffffffffffffffffffffffffffffffffffffff1673ffffffffffffffffffffffffffffffffffffffff163373ffffffffffffffffffffffffffffffffffffffff161415156131be576040517f08c379a00000000000000000000000000000000000000000000000000000000081526004018080602001828103825260168152602001807f4d7573742062652074686520636f6e74726f6c6c65720000000000000000000081525060200191505060405180910390fd5b73__PropsRewardsLib_______________________63cc1b8c9c60a085856040518463ffffffff167c01000000000000000000000000000000000000000000000000000000000281526004018084815260200183815260200180602001828103825283818151815260200191508051906020019060200280838360005b8381101561325657808201518184015260208101905061323b565b5050505090500194505050505060206040518083038186803b15801561327b57600080fd5b505af415801561328f573d6000803e3d6000fd5b505050506040513d60208110156132a557600080fd5b810190808051906020019092919050505050827f426b639e1d49f62952a4d3282b37648fb8c47ac20b15e01548c104b75c787c0c836040518080602001828103825283818151815260200191508051906020019060200280838360005b8381101561331d578082015181840152602081019050613302565b505050509050019250505060405180910390a26001905092915050565b600060a060110154905090565b60006379250dcf7c010000000000000000000000000000000000000000000000000000000002868686868660405160200180877bffffffffffffffffffffffffffffffffffffffffffffffffffffffff19167bffffffffffffffffffffffffffffffffffffffffffffffffffffffff191681526004018673ffffffffffffffffffffffffffffffffffffffff1673ffffffffffffffffffffffffffffffffffffffff166c010000000000000000000000000281526014018573ffffffffffffffffffffffffffffffffffffffff1673ffffffffffffffffffffffffffffffffffffffff166c0100000000000000000000000002815260140184815260200183815260200182815260200196505050505050506040516020818303038152906040526040518082805190602001908083835b60208310151561349d5780518252602082019150602081019050602083039250613478565b6001836020036101000a0380198251168184511680821785525050505050509050019150506040518091039020905095945050505050565b60008060019054906101000a900460ff16806134f557506134f4615484565b5b8061350c57506000809054906101000a900460ff16155b15156135a6576040517f08c379a000000000000000000000000000000000000000000000000000000000815260040180806020018281038252602e8152602001807f436f6e747261637420696e7374616e63652068617320616c726561647920626581526020017f656e20696e697469616c697a656400000000000000000000000000000000000081525060400191505060405180910390fd5b600060019054906101000a900460ff1690506001600060016101000a81548160ff02191690831515021790555060016000806101000a81548160ff0219169083151502179055506135f88484846157c7565b80600060016101000a81548160ff02191690831515021790555050505050565b606060348054600181600116156101000203166002900480601f0160208091040260200160405190810160405280929190818152602001828054600181600116156101000203166002900480156136b05780601f10613685576101008083540402835291602001916136b0565b820191906000526020600020905b81548152906001019060200180831161369357829003601f168201915b5050505050905090565b600073__PropsRewardsLib_______________________6346e3a29860a0878787876040518663ffffffff167c01000000000000000000000000000000000000000000000000000000000281526004018086815260200185600181111561371d57fe5b60ff16815260200184600019166000191681526020018373ffffffffffffffffffffffffffffffffffffffff1673ffffffffffffffffffffffffffffffffffffffff1681526020018273ffffffffffffffffffffffffffffffffffffffff1673ffffffffffffffffffffffffffffffffffffffff1681526020019550505050505060206040518083038186803b1580156137b657600080fd5b505af41580156137ca573d6000803e3d6000fd5b505050506040513d60208110156137e057600080fd5b8101908080519060200190929190505050508173ffffffffffffffffffffffffffffffffffffffff1685600181111561381557fe5b3373ffffffffffffffffffffffffffffffffffffffff167fac4aacb75e6f9ac6f2fee64077e9436dfb1be853b1a850b7863cf1433f0e752887876040518083600019166000191681526020018273ffffffffffffffffffffffffffffffffffffffff1673ffffffffffffffffffffffffffffffffffffffff1681526020019250505060405180910390a460019050949350505050565b6000613946338461394185606960003373ffffffffffffffffffffffffffffffffffffffff1673ffffffffffffffffffffffffffffffffffffffff16815260200190815260200160002060008973ffffffffffffffffffffffffffffffffffffffff1673ffffffffffffffffffffffffffffffffffffffff16815260200190815260200160002054615b7e90919063ffffffff16565b61500b565b6001905092915050565b600063a70c41b47c01000000000000000000000000000000000000000000000000000000000287878787878760405160200180887bffffffffffffffffffffffffffffffffffffffffffffffffffffffff19167bffffffffffffffffffffffffffffffffffffffffffffffffffffffff191681526004018773ffffffffffffffffffffffffffffffffffffffff1673ffffffffffffffffffffffffffffffffffffffff166c010000000000000000000000000281526014018673ffffffffffffffffffffffffffffffffffffffff1673ffffffffffffffffffffffffffffffffffffffff166c010000000000000000000000000281526014018573ffffffffffffffffffffffffffffffffffffffff1673ffffffffffffffffffffffffffffffffffffffff166c010000000000000000000000000281526014018481526020018381526020018281526020019750505050505050506040516020818303038152906040526040518082805190602001908083835b602083101515613ae95780518252602082019150602081019050602083039250613ac4565b6001836020036101000a038019825116818451168082178552505050505050905001915050604051809103902090509695505050505050565b600033609e54421180613b825750609f60009054906101000a900473ffffffffffffffffffffffffffffffffffffffff1673ffffffffffffffffffffffffffffffffffffffff168173ffffffffffffffffffffffffffffffffffffffff16145b1515613c1c576040517f08c379a000000000000000000000000000000000000000000000000000000000815260040180806020018281038252603d8152602001807f43616e6e6f74207472616e73666572206265666f7265207472616e736665727381526020017f2073746172742074696d652066726f6d2074686973206163636f756e7400000081525060400191505060405180910390fd5b613c268484615b9f565b91505092915050565b600080600080600073ffffffffffffffffffffffffffffffffffffffff168873ffffffffffffffffffffffffffffffffffffffff1614151515613cda576040517f08c379a00000000000000000000000000000000000000000000000000000000081526004018080602001828103825260138152602001807f496e76616c6964205f746f20616464726573730000000000000000000000000081525060200191505060405180910390fd5b613ce8308a8a8a8a8a613950565b9250613cf4838b61516e565b9150600073ffffffffffffffffffffffffffffffffffffffff168273ffffffffffffffffffffffffffffffffffffffff1614151515613dc1576040517f08c379a00000000000000000000000000000000000000000000000000000000081526004018080602001828103825260218152602001807f496e76616c6964207370656e6465722061646472657373207265636f7665726581526020017f640000000000000000000000000000000000000000000000000000000000000081525060400191505060405180910390fd5b8183604051602001808373ffffffffffffffffffffffffffffffffffffffff1673ffffffffffffffffffffffffffffffffffffffff166c010000000000000000000000000281526014018260001916600019168152602001925050506040516020818303038152906040526040518082805190602001908083835b602083101515613e615780518252602082019150602081019050602083039250613e3c565b6001836020036101000a0380198251168184511680821785525050505050509050019150506040518091039020905060001515609d6000836000191660001916815260200190815260200160002060009054906101000a900460ff161515141515613f5a576040517f08c379a00000000000000000000000000000000000000000000000000000000081526004018080602001828103825260218152602001807f5472616e73616374696f6e20686173682077617320616c72656164792075736581526020017f640000000000000000000000000000000000000000000000000000000000000081525060400191505060405180910390fd5b6001609d6000836000191660001916815260200190815260200160002060006101000a81548160ff021916908315150217905550613f99898989615266565b613fbf8983613fba8a613fac8e886141e4565b615b7e90919063ffffffff16565b61500b565b613fca823388615266565b3373ffffffffffffffffffffffffffffffffffffffff168873ffffffffffffffffffffffffffffffffffffffff168a73ffffffffffffffffffffffffffffffffffffffff167fec5a73fd1f178be20c1bca1b406cbf4b5c20d833b66e582fc122fb4baa0fc2a48a8a604051808381526020018281526020019250505060405180910390a4600193505050509695505050505050565b609e5481565b60008060019054906101000a900460ff16806140855750614084615484565b5b8061409c57506000809054906101000a900460ff16155b1515614136576040517f08c379a000000000000000000000000000000000000000000000000000000000815260040180806020018281038252602e8152602001807f436f6e747261637420696e7374616e63652068617320616c726561647920626581526020017f656e20696e697469616c697a656400000000000000000000000000000000000081525060400191505060405180910390fd5b600060019054906101000a900460ff1690506001600060016101000a81548160ff02191690831515021790555060016000806101000a81548160ff02191690831515021790555082609e8190555081609f60006101000a81548173ffffffffffffffffffffffffffffffffffffffff021916908373ffffffffffffffffffffffffffffffffffffffff16021790555080600060016101000a81548160ff021916908315150217905550505050565b6000606960008473ffffffffffffffffffffffffffffffffffffffff1673ffffffffffffffffffffffffffffffffffffffff16815260200190815260200160002060008373ffffffffffffffffffffffffffffffffffffffff1673ffffffffffffffffffffffffffffffffffffffff16815260200190815260200160002054905092915050565b60008060008060019054906101000a900460ff168061428e575061428d615484565b5b806142a557506000809054906101000a900460ff16155b151561433f576040517f08c379a000000000000000000000000000000000000000000000000000000000815260040180806020018281038252602e8152602001807f436f6e747261637420696e7374616e63652068617320616c726561647920626581526020017f656e20696e697469616c697a656400000000000000000000000000000000000081525060400191505060405180910390fd5b600060019054906101000a900460ff1690506001600060016101000a81548160ff02191690831515021790555060016000806101000a81548160ff021916908315150217905550601292508260ff16600a0a6323c3460002915061440e6040805190810160405280600b81526020017f50726f707320546f6b656e0000000000000000000000000000000000000000008152506040805190810160405280600581526020017f50524f505300000000000000000000000000000000000000000000000000000081525085611f4f565b6144188688614065565b614426858460ff16866134d5565b6144308783615bb6565b80600060016101000a81548160ff02191690831515021790555050505050505050565b600060b660009054906101000a900473ffffffffffffffffffffffffffffffffffffffff1673ffffffffffffffffffffffffffffffffffffffff163373ffffffffffffffffffffffffffffffffffffffff1614151561451a576040517f08c379a00000000000000000000000000000000000000000000000000000000081526004018080602001828103825260168152602001807f4d7573742062652074686520636f6e74726f6c6c65720000000000000000000081525060200191505060405180910390fd5b73__PropsRewardsLib_______________________6363cad06a60a085856040518463ffffffff167c01000000000000000000000000000000000000000000000000000000000281526004018084815260200183815260200180602001828103825283818151815260200191508051906020019060200280838360005b838110156145b2578082015181840152602081019050614597565b5050505090500194505050505060206040518083038186803b1580156145d757600080fd5b505af41580156145eb573d6000803e3d6000fd5b505050506040513d602081101561460157600080fd5b810190808051906020019092919050505050827f25071f4c6ebdf865da246a5caf6a5bbcbe50f6443e15309b97b10043c6beb1d9836040518080602001828103825283818151815260200191508051906020019060200280838360005b8381101561467957808201518184015260208101905061465e565b505050509050019250505060405180910390a26001905092915050565b60008060019054906101000a900460ff16806146b657506146b5615484565b5b806146cd57506000809054906101000a900460ff16155b1515614767576040517f08c379a000000000000000000000000000000000000000000000000000000000815260040180806020018281038252602e8152602001807f436f6e747261637420696e7374616e63652068617320616c726561647920626581526020017f656e20696e697469616c697a656400000000000000000000000000000000000081525060400191505060405180910390fd5b600060019054906101000a900460ff1690506001600060016101000a81548160ff02191690831515021790555060016000806101000a81548160ff0219169083151502179055506147b98484846157c7565b80600060016101000a81548160ff02191690831515021790555050505050565b600080600080600073ffffffffffffffffffffffffffffffffffffffff168873ffffffffffffffffffffffffffffffffffffffff1614151515614884576040517f08c379a00000000000000000000000000000000000000000000000000000000081526004018080602001828103825260188152602001807f496e76616c6964205f7370656e6465722061646472657373000000000000000081525060200191505060405180910390fd5b6148913089898989612755565b925061489d838a61516e565b9150600073ffffffffffffffffffffffffffffffffffffffff168273ffffffffffffffffffffffffffffffffffffffff1614151515614944576040517f08c379a000000000000000000000000000000000000000000000000000000000815260040180806020018281038252601e8152602001807f496e76616c69642066726f6d2061646472657373207265636f7665726564000081525060200191505060405180910390fd5b8183604051602001808373ffffffffffffffffffffffffffffffffffffffff1673ffffffffffffffffffffffffffffffffffffffff166c010000000000000000000000000281526014018260001916600019168152602001925050506040516020818303038152906040526040518082805190602001908083835b6020831015156149e457805182526020820191506020810190506020830392506149bf565b6001836020036101000a0380198251168184511680821785525050505050509050019150506040518091039020905060001515609d6000836000191660001916815260200190815260200160002060009054906101000a900460ff161515141515614add576040517f08c379a00000000000000000000000000000000000000000000000000000000081526004018080602001828103825260218152602001807f5472616e73616374696f6e20686173682077617320616c72656164792075736581526020017f640000000000000000000000000000000000000000000000000000000000000081525060400191505060405180910390fd5b6001609d6000836000191660001916815260200190815260200160002060006101000a81548160ff021916908315150217905550614b378289614b328a614b24878e6141e4565b615b7e90919063ffffffff16565b61500b565b614b42823388615266565b3373ffffffffffffffffffffffffffffffffffffffff168873ffffffffffffffffffffffffffffffffffffffff168373ffffffffffffffffffffffffffffffffffffffff167f43a220267705e74ee2ceafd46afc841850db6f85a662189a7def697bbdd90ffb614bb2868d6141e4565b8a604051808381526020018281526020019250505060405180910390a46001935050505095945050505050565b60b660009054906101000a900473ffffffffffffffffffffffffffffffffffffffff1681565b600080600080600073ffffffffffffffffffffffffffffffffffffffff168873ffffffffffffffffffffffffffffffffffffffff1614151515614cb0576040517f08c379a00000000000000000000000000000000000000000000000000000000081526004018080602001828103825260188152602001807f496e76616c6964205f7370656e6465722061646472657373000000000000000081525060200191505060405180910390fd5b614cbd3089898989611dc1565b9250614cc9838a61516e565b9150600073ffffffffffffffffffffffffffffffffffffffff168273ffffffffffffffffffffffffffffffffffffffff1614151515614d70576040517f08c379a000000000000000000000000000000000000000000000000000000000815260040180806020018281038252601e8152602001807f496e76616c69642066726f6d2061646472657373207265636f7665726564000081525060200191505060405180910390fd5b8183604051602001808373ffffffffffffffffffffffffffffffffffffffff1673ffffffffffffffffffffffffffffffffffffffff166c010000000000000000000000000281526014018260001916600019168152602001925050506040516020818303038152906040526040518082805190602001908083835b602083101515614e105780518252602082019150602081019050602083039250614deb565b6001836020036101000a0380198251168184511680821785525050505050509050019150506040518091039020905060001515609d6000836000191660001916815260200190815260200160002060009054906101000a900460ff161515141515614f09576040517f08c379a00000000000000000000000000000000000000000000000000000000081526004018080602001828103825260218152602001807f5472616e73616374696f6e20686173682077617320616c72656164792075736581526020017f640000000000000000000000000000000000000000000000000000000000000081525060400191505060405180910390fd5b6001609d6000836000191660001916815260200190815260200160002060006101000a81548160ff021916908315150217905550614f638289614f5e8a614f50878e6141e4565b61554690919063ffffffff16565b61500b565b614f6e823388615266565b3373ffffffffffffffffffffffffffffffffffffffff168873ffffffffffffffffffffffffffffffffffffffff168373ffffffffffffffffffffffffffffffffffffffff167f43a220267705e74ee2ceafd46afc841850db6f85a662189a7def697bbdd90ffb614fde868d6141e4565b8a604051808381526020018281526020019250505060405180910390a46001935050505095945050505050565b600073ffffffffffffffffffffffffffffffffffffffff168273ffffffffffffffffffffffffffffffffffffffff161415151561504757600080fd5b600073ffffffffffffffffffffffffffffffffffffffff168373ffffffffffffffffffffffffffffffffffffffff161415151561508357600080fd5b80606960008573ffffffffffffffffffffffffffffffffffffffff1673ffffffffffffffffffffffffffffffffffffffff16815260200190815260200160002060008473ffffffffffffffffffffffffffffffffffffffff1673ffffffffffffffffffffffffffffffffffffffff168152602001908152602001600020819055508173ffffffffffffffffffffffffffffffffffffffff168373ffffffffffffffffffffffffffffffffffffffff167f8c5be1e5ebec7d5bd14f71427d1e84f3dd0314c0f7b2291e5b200ac8c7c3b925836040518082815260200191505060405180910390a3505050565b60008060008060418551141515615188576000935061525d565b6020850151925060408501519150606085015160001a9050601b8160ff1610156151b357601b810190505b601b8160ff16141580156151cb5750601c8160ff1614155b156151d9576000935061525d565b600186828585604051600081526020016040526040518085600019166000191681526020018460ff1660ff1681526020018360001916600019168152602001826000191660001916815260200194505050505060206040516020810390808403906000865af1158015615250573d6000803e3d6000fd5b5050506020604051035193505b50505092915050565b606860008473ffffffffffffffffffffffffffffffffffffffff1673ffffffffffffffffffffffffffffffffffffffff1681526020019081526020016000205481111515156152b457600080fd5b600073ffffffffffffffffffffffffffffffffffffffff168273ffffffffffffffffffffffffffffffffffffffff16141515156152f057600080fd5b61534281606860008673ffffffffffffffffffffffffffffffffffffffff1673ffffffffffffffffffffffffffffffffffffffff16815260200190815260200160002054615b7e90919063ffffffff16565b606860008573ffffffffffffffffffffffffffffffffffffffff1673ffffffffffffffffffffffffffffffffffffffff168152602001908152602001600020819055506153d781606860008573ffffffffffffffffffffffffffffffffffffffff1673ffffffffffffffffffffffffffffffffffffffff1681526020019081526020016000205461554690919063ffffffff16565b606860008473ffffffffffffffffffffffffffffffffffffffff1673ffffffffffffffffffffffffffffffffffffffff168152602001908152602001600020819055508173ffffffffffffffffffffffffffffffffffffffff168373ffffffffffffffffffffffffffffffffffffffff167fddf252ad1be2c89b69c2b068fc378daa952ba7f163c4a11628f55a4df523b3ef836040518082815260200191505060405180910390a3505050565b600080303b90506000811491505090565b60006154a2848484615266565b61553b843361553685606960008a73ffffffffffffffffffffffffffffffffffffffff1673ffffffffffffffffffffffffffffffffffffffff16815260200190815260200160002060003373ffffffffffffffffffffffffffffffffffffffff1673ffffffffffffffffffffffffffffffffffffffff16815260200190815260200160002054615b7e90919063ffffffff16565b61500b565b600190509392505050565b600080828401905083811015151561555d57600080fd5b8091505092915050565b60008060a0600f0160008560001916600019168152602001908152602001600020600101805490509150600090505b818110156156725761566560a0600201600060a0600f0160008860001916600019168152602001908152602001600020600101848154811015156155d657fe5b9060005260206000200160009054906101000a900473ffffffffffffffffffffffffffffffffffffffff1673ffffffffffffffffffffffffffffffffffffffff1673ffffffffffffffffffffffffffffffffffffffff16815260200190815260200160002060010160009054906101000a900473ffffffffffffffffffffffffffffffffffffffff1684615bb6565b8080600101915050615596565b8360001916857f07efea0e0eeb975e5404139e47d884d2705a0660a3456aa31c5694df1d8c5f1484858702604051808381526020018281526020019250505060405180910390a35050505050565b60008090505b83518110156157795761576c60a0600001600086848151811015156156e757fe5b9060200190602002015173ffffffffffffffffffffffffffffffffffffffff1673ffffffffffffffffffffffffffffffffffffffff16815260200190815260200160002060010160009054906101000a900473ffffffffffffffffffffffffffffffffffffffff16848381518110151561575d57fe5b90602001906020020151615bb6565b80806001019150506156c6565b8460001916867fcc511f1b8ddd8ab10bcb89c26361da1c99b826350e3f38ee438134149032568a865185604051808381526020018281526020019250505060405180910390a3505050505050565b81600a0a633b9aca000260b58190555073__PropsRewardsLib_______________________6311cb33da60a060006187be60006040518563ffffffff167c01000000000000000000000000000000000000000000000000000000000281526004018085815260200184600381111561583b57fe5b60ff16815260200183815260200182815260200194505050505060206040518083038186803b15801561586d57600080fd5b505af4158015615881573d6000803e3d6000fd5b505050506040513d602081101561589757600080fd5b81019080805190602001909291905050505073__PropsRewardsLib_______________________6311cb33da60a060016308f0d18060006040518563ffffffff167c01000000000000000000000000000000000000000000000000000000000281526004018085815260200184600381111561590f57fe5b60ff16815260200183815260200182815260200194505050505060206040518083038186803b15801561594157600080fd5b505af4158015615955573d6000803e3d6000fd5b505050506040513d602081101561596b57600080fd5b81019080805190602001909291905050505073__PropsRewardsLib_______________________6311cb33da60a060026302faf08060006040518563ffffffff167c0100000000000000000000000000000000000000000000000000000000028152600401808581526020018460038111156159e357fe5b60ff16815260200183815260200182815260200194505050505060206040518083038186803b158015615a1557600080fd5b505af4158015615a29573d6000803e3d6000fd5b505050506040513d6020811015615a3f57600080fd5b81019080805190602001909291905050505073__PropsRewardsLib_______________________6311cb33da60a0600361072560006040518563ffffffff167c010000000000000000000000000000000000000000000000000000000002815260040180858152602001846003811115615ab557fe5b60ff16815260200183815260200182815260200194505050505060206040518083038186803b158015615ae757600080fd5b505af4158015615afb573d6000803e3d6000fd5b505050506040513d6020811015615b1157600080fd5b8101908080519060200190929190505050508260b660006101000a81548173ffffffffffffffffffffffffffffffffffffffff021916908373ffffffffffffffffffffffffffffffffffffffff160217905550600760a0601201819055508060a060140181905550505050565b600080838311151515615b9057600080fd5b82840390508091505092915050565b6000615bac338484615266565b6001905092915050565b60008273ffffffffffffffffffffffffffffffffffffffff1614151515615bdc57600080fd5b615bf181606a5461554690919063ffffffff16565b606a81905550615c4981606860008573ffffffffffffffffffffffffffffffffffffffff1673ffffffffffffffffffffffffffffffffffffffff1681526020019081526020016000205461554690919063ffffffff16565b606860008473ffffffffffffffffffffffffffffffffffffffff1673ffffffffffffffffffffffffffffffffffffffff168152602001908152602001600020819055508173ffffffffffffffffffffffffffffffffffffffff16600073ffffffffffffffffffffffffffffffffffffffff167fddf252ad1be2c89b69c2b068fc378daa952ba7f163c4a11628f55a4df523b3ef836040518082815260200191505060405180910390a35050565b828054600181600116156101000203166002900490600052602060002090601f016020900481019282601f10615d3757805160ff1916838001178555615d65565b82800160010185558215615d65579182015b82811115615d64578251825591602001919060010190615d49565b5b509050615d729190615d76565b5090565b615d9891905b80821115615d94576000816000905550600101615d7c565b5090565b905600a165627a7a72305820146d75416f1deae07e4465bdf37e956f073af42be7eb4843bfcb5f64fefb66850029",
  "source": "pragma solidity ^0.4.24;\n\nimport \"zos-lib/contracts/Initializable.sol\";\nimport \"openzeppelin-eth/contracts/token/ERC20/ERC20Detailed.sol\";\nimport \"./PropsTimeBasedTransfers.sol\";\nimport \"./ERC865Token.sol\";\nimport \"./PropsRewards.sol\";\n\n/**\n * @title PROPSToken\n * @dev PROPS token contract (based of ZEPToken by openzeppelin), a detailed ERC20 token\n * https://github.com/zeppelinos/zos-vouching/blob/master/contracts/ZEPToken.sol\n * PROPS are divisible by 1e18 base\n * units referred to as 'AttoPROPS'.\n *\n * PROPS are displayed using 18 decimal places of precision.\n *\n * 1 PROPS is equivalent to:\n *   1 * 1e18 == 1e18 == One Quintillion AttoPROPS\n *\n * 600 Million PROPS (total supply) is equivalent to:\n *   600000000 * 1e18 == 6e26 AttoPROPS\n *\n\n */\n\n\ncontract PropsToken is Initializable, ERC20Detailed, ERC865Token, PropsTimeBasedTransfers, PropsRewards {\n\n  /**\n   * @dev Initializer function. Called only once when a proxy for the contract is created.\n   * @param _holder address that will receive it's initial supply and be able to transfer before transfers start time\n   * @param _transfersStartTime uint256 Unix Timestamp from which transfers are allowed\n   * @param _controller address that will have controller functionality on rewards protocol\n   * @param _minSecondsBetweenDays uint256 seconds required to pass between consecutive rewards day\n   */\n  function initialize(\n    address _holder,\n    uint256 _transfersStartTime,\n    address _controller,\n    uint256 _minSecondsBetweenDays\n  )\n    public\n    initializer\n  {\n    uint8 decimals = 18;\n    // total supply is 600,000,000 PROPS specified in AttoPROPS\n    uint256 totalSupply = 0.6 * 1e9 * (10 ** uint256(decimals));\n\n    ERC20Detailed.initialize(\"Props Token\", \"PROPS\", decimals);\n    PropsTimeBasedTransfers.initialize(_transfersStartTime, _holder);\n    PropsRewards.initialize(_controller, decimals, _minSecondsBetweenDays);\n    _mint(_holder, totalSupply);\n  }\n\n  /**\n   * @dev Initializer for upgrade function. Called only once after upgrade\n   * @param _controller address that will have controller functionality on rewards protocol\n   * @param _minSecondsBetweenDays uint256 seconds required to pass between consecutive rewards day\n   */\n  function initializePostRewardsUpgrade1(address _controller, uint256 _minSecondsBetweenDays)\n    public\n    initializer\n  {\n    uint8 decimals = 18;\n    PropsRewards.initializePostRewardsUpgrade1(_controller, decimals, _minSecondsBetweenDays);\n  }\n\n}",
  "sourcePath": "/Users/jretina/Programming/PROPSProject/props-token-distribution/contracts/token/PropsToken.sol",
  "compiler": {
    "name": "solc",
    "version": "0.4.24+commit.e67f0147.Emscripten.clang"
  },
  "schemaVersion": "2.0.1",
  "updatedAt": "2019-05-19T17:26:14.367Z"
}