{
  "contractName": "PropsToken",
  "abi": [
    {
      "constant": false,
      "inputs": [
        {
          "name": "_controller",
          "type": "address"
        }
      ],
      "name": "updateController",
      "outputs": [
        {
          "name": "",
          "type": "bool"
        }
      ],
      "payable": false,
      "stateMutability": "nonpayable",
      "type": "function"
    },
    {
      "constant": true,
      "inputs": [],
      "name": "name",
      "outputs": [
        {
          "name": "",
          "type": "string"
        }
      ],
      "payable": false,
      "stateMutability": "view",
      "type": "function"
    },
    {
      "constant": false,
      "inputs": [
        {
          "name": "spender",
          "type": "address"
        },
        {
          "name": "value",
          "type": "uint256"
        }
      ],
      "name": "approve",
      "outputs": [
        {
          "name": "",
          "type": "bool"
        }
      ],
      "payable": false,
      "stateMutability": "nonpayable",
      "type": "function"
    },
    {
      "constant": true,
      "inputs": [
        {
          "name": "_entityType",
          "type": "uint8"
        },
        {
          "name": "_rewardsDay",
          "type": "uint256"
        }
      ],
      "name": "getEntities",
      "outputs": [
        {
          "name": "",
          "type": "address[]"
        }
      ],
      "payable": false,
      "stateMutability": "view",
      "type": "function"
    },
    {
      "constant": true,
      "inputs": [
        {
          "name": "_token",
          "type": "address"
        },
        {
          "name": "_to",
          "type": "address"
        },
        {
          "name": "_value",
          "type": "uint256"
        },
        {
          "name": "_fee",
          "type": "uint256"
        },
        {
          "name": "_nonce",
          "type": "uint256"
        }
      ],
      "name": "getTransferPreSignedHash",
      "outputs": [
        {
          "name": "",
          "type": "bytes32"
        }
      ],
      "payable": false,
      "stateMutability": "pure",
      "type": "function"
    },
    {
      "constant": false,
      "inputs": [
        {
          "name": "_signature",
          "type": "bytes"
        },
        {
          "name": "_to",
          "type": "address"
        },
        {
          "name": "_value",
          "type": "uint256"
        },
        {
          "name": "_fee",
          "type": "uint256"
        },
        {
          "name": "_nonce",
          "type": "uint256"
        }
      ],
      "name": "transferPreSigned",
      "outputs": [
        {
          "name": "",
          "type": "bool"
        }
      ],
      "payable": false,
      "stateMutability": "nonpayable",
      "type": "function"
    },
    {
      "constant": true,
      "inputs": [
        {
          "name": "_token",
          "type": "address"
        },
        {
          "name": "_spender",
          "type": "address"
        },
        {
          "name": "_addedValue",
          "type": "uint256"
        },
        {
          "name": "_fee",
          "type": "uint256"
        },
        {
          "name": "_nonce",
          "type": "uint256"
        }
      ],
      "name": "getIncreaseAllowancePreSignedHash",
      "outputs": [
        {
          "name": "",
          "type": "bytes32"
        }
      ],
      "payable": false,
      "stateMutability": "pure",
      "type": "function"
    },
    {
      "constant": false,
      "inputs": [
        {
          "name": "_name",
          "type": "uint8"
        },
        {
          "name": "_value",
          "type": "uint256"
        },
        {
          "name": "_rewardsDay",
          "type": "uint256"
        }
      ],
      "name": "updateParameter",
      "outputs": [
        {
          "name": "",
          "type": "bool"
        }
      ],
      "payable": false,
      "stateMutability": "nonpayable",
      "type": "function"
    },
    {
      "constant": true,
      "inputs": [],
      "name": "totalSupply",
      "outputs": [
        {
          "name": "",
          "type": "uint256"
        }
      ],
      "payable": false,
      "stateMutability": "view",
      "type": "function"
    },
    {
      "constant": false,
      "inputs": [
        {
          "name": "from",
          "type": "address"
        },
        {
          "name": "to",
          "type": "address"
        },
        {
          "name": "value",
          "type": "uint256"
        }
      ],
      "name": "transferFrom",
      "outputs": [
        {
          "name": "",
          "type": "bool"
        }
      ],
      "payable": false,
      "stateMutability": "nonpayable",
      "type": "function"
    },
    {
      "constant": true,
      "inputs": [],
      "name": "maxTotalSupply",
      "outputs": [
        {
          "name": "",
          "type": "uint256"
        }
      ],
      "payable": false,
      "stateMutability": "view",
      "type": "function"
    },
    {
      "constant": true,
      "inputs": [],
      "name": "decimals",
      "outputs": [
        {
          "name": "",
          "type": "uint8"
        }
      ],
      "payable": false,
      "stateMutability": "view",
      "type": "function"
    },
    {
      "constant": false,
      "inputs": [
        {
          "name": "spender",
          "type": "address"
        },
        {
          "name": "addedValue",
          "type": "uint256"
        }
      ],
      "name": "increaseAllowance",
      "outputs": [
        {
          "name": "",
          "type": "bool"
        }
      ],
      "payable": false,
      "stateMutability": "nonpayable",
      "type": "function"
    },
    {
      "constant": true,
      "inputs": [],
      "name": "canTransferBeforeStartTime",
      "outputs": [
        {
          "name": "",
          "type": "address"
        }
      ],
      "payable": false,
      "stateMutability": "view",
      "type": "function"
    },
    {
      "constant": true,
      "inputs": [
        {
          "name": "_name",
          "type": "uint8"
        },
        {
          "name": "_rewardsDay",
          "type": "uint256"
        }
      ],
      "name": "getParameter",
      "outputs": [
        {
          "name": "",
          "type": "uint256"
        }
      ],
      "payable": false,
      "stateMutability": "view",
      "type": "function"
    },
    {
      "constant": true,
      "inputs": [
        {
          "name": "_token",
          "type": "address"
        },
        {
          "name": "_spender",
          "type": "address"
        },
        {
          "name": "_subtractedValue",
          "type": "uint256"
        },
        {
          "name": "_fee",
          "type": "uint256"
        },
        {
          "name": "_nonce",
          "type": "uint256"
        }
      ],
      "name": "getDecreaseAllowancePreSignedHash",
      "outputs": [
        {
          "name": "",
          "type": "bytes32"
        }
      ],
      "payable": false,
      "stateMutability": "pure",
      "type": "function"
    },
    {
      "constant": false,
      "inputs": [
        {
          "name": "_rewardsDay",
          "type": "uint256"
        },
        {
          "name": "_rewardsHash",
          "type": "bytes32"
        },
        {
          "name": "_applications",
          "type": "address[]"
        },
        {
          "name": "_amounts",
          "type": "uint256[]"
        }
      ],
      "name": "submitDailyRewards",
      "outputs": [
        {
          "name": "",
          "type": "bool"
        }
      ],
      "payable": false,
      "stateMutability": "nonpayable",
      "type": "function"
    },
    {
      "constant": false,
      "inputs": [
        {
          "name": "_signature",
          "type": "bytes"
        },
        {
          "name": "_spender",
          "type": "address"
        },
        {
          "name": "_value",
          "type": "uint256"
        },
        {
          "name": "_fee",
          "type": "uint256"
        },
        {
          "name": "_nonce",
          "type": "uint256"
        }
      ],
      "name": "approvePreSigned",
      "outputs": [
        {
          "name": "",
          "type": "bool"
        }
      ],
      "payable": false,
      "stateMutability": "nonpayable",
      "type": "function"
    },
    {
      "constant": true,
      "inputs": [],
      "name": "rewardsStartTimestamp",
      "outputs": [
        {
          "name": "",
          "type": "uint256"
        }
      ],
      "payable": false,
      "stateMutability": "view",
      "type": "function"
    },
    {
      "constant": true,
      "inputs": [
        {
          "name": "owner",
          "type": "address"
        }
      ],
      "name": "balanceOf",
      "outputs": [
        {
          "name": "",
          "type": "uint256"
        }
      ],
      "payable": false,
      "stateMutability": "view",
      "type": "function"
    },
    {
      "constant": false,
      "inputs": [
        {
          "name": "_rewardsDay",
          "type": "uint256"
        },
        {
          "name": "_applications",
          "type": "address[]"
        }
      ],
      "name": "setApplications",
      "outputs": [
        {
          "name": "",
          "type": "bool"
        }
      ],
      "payable": false,
      "stateMutability": "nonpayable",
      "type": "function"
    },
    {
      "constant": true,
      "inputs": [
        {
          "name": "_token",
          "type": "address"
        },
        {
          "name": "_spender",
          "type": "address"
        },
        {
          "name": "_value",
          "type": "uint256"
        },
        {
          "name": "_fee",
          "type": "uint256"
        },
        {
          "name": "_nonce",
          "type": "uint256"
        }
      ],
      "name": "getApprovePreSignedHash",
      "outputs": [
        {
          "name": "",
          "type": "bytes32"
        }
      ],
      "payable": false,
      "stateMutability": "pure",
      "type": "function"
    },
    {
      "constant": true,
      "inputs": [],
      "name": "symbol",
      "outputs": [
        {
          "name": "",
          "type": "string"
        }
      ],
      "payable": false,
      "stateMutability": "view",
      "type": "function"
    },
    {
      "constant": false,
      "inputs": [
        {
          "name": "_entityType",
          "type": "uint8"
        },
        {
          "name": "_name",
          "type": "bytes32"
        },
        {
          "name": "_rewardsAddress",
          "type": "address"
        },
        {
          "name": "_sidechainAddress",
          "type": "address"
        }
      ],
      "name": "updateEntity",
      "outputs": [
        {
          "name": "",
          "type": "bool"
        }
      ],
      "payable": false,
      "stateMutability": "nonpayable",
      "type": "function"
    },
    {
      "constant": false,
      "inputs": [
        {
          "name": "spender",
          "type": "address"
        },
        {
          "name": "subtractedValue",
          "type": "uint256"
        }
      ],
      "name": "decreaseAllowance",
      "outputs": [
        {
          "name": "",
          "type": "bool"
        }
      ],
      "payable": false,
      "stateMutability": "nonpayable",
      "type": "function"
    },
    {
      "constant": true,
      "inputs": [
        {
          "name": "_token",
          "type": "address"
        },
        {
          "name": "_from",
          "type": "address"
        },
        {
          "name": "_to",
          "type": "address"
        },
        {
          "name": "_value",
          "type": "uint256"
        },
        {
          "name": "_fee",
          "type": "uint256"
        },
        {
          "name": "_nonce",
          "type": "uint256"
        }
      ],
      "name": "getTransferFromPreSignedHash",
      "outputs": [
        {
          "name": "",
          "type": "bytes32"
        }
      ],
      "payable": false,
      "stateMutability": "pure",
      "type": "function"
    },
    {
      "constant": false,
      "inputs": [
        {
          "name": "to",
          "type": "address"
        },
        {
          "name": "value",
          "type": "uint256"
        }
      ],
      "name": "transfer",
      "outputs": [
        {
          "name": "",
          "type": "bool"
        }
      ],
      "payable": false,
      "stateMutability": "nonpayable",
      "type": "function"
    },
    {
      "constant": false,
      "inputs": [
        {
          "name": "_signature",
          "type": "bytes"
        },
        {
          "name": "_from",
          "type": "address"
        },
        {
          "name": "_to",
          "type": "address"
        },
        {
          "name": "_value",
          "type": "uint256"
        },
        {
          "name": "_fee",
          "type": "uint256"
        },
        {
          "name": "_nonce",
          "type": "uint256"
        }
      ],
      "name": "transferFromPreSigned",
      "outputs": [
        {
          "name": "",
          "type": "bool"
        }
      ],
      "payable": false,
      "stateMutability": "nonpayable",
      "type": "function"
    },
    {
      "constant": true,
      "inputs": [],
      "name": "transfersStartTime",
      "outputs": [
        {
          "name": "",
          "type": "uint256"
        }
      ],
      "payable": false,
      "stateMutability": "view",
      "type": "function"
    },
    {
      "constant": true,
      "inputs": [
        {
          "name": "owner",
          "type": "address"
        },
        {
          "name": "spender",
          "type": "address"
        }
      ],
      "name": "allowance",
      "outputs": [
        {
          "name": "",
          "type": "uint256"
        }
      ],
      "payable": false,
      "stateMutability": "view",
      "type": "function"
    },
    {
      "constant": false,
      "inputs": [
        {
          "name": "_rewardsDay",
          "type": "uint256"
        },
        {
          "name": "_validators",
          "type": "address[]"
        }
      ],
      "name": "setValidators",
      "outputs": [
        {
          "name": "",
          "type": "bool"
        }
      ],
      "payable": false,
      "stateMutability": "nonpayable",
      "type": "function"
    },
    {
      "constant": false,
      "inputs": [
        {
          "name": "_signature",
          "type": "bytes"
        },
        {
          "name": "_spender",
          "type": "address"
        },
        {
          "name": "_subtractedValue",
          "type": "uint256"
        },
        {
          "name": "_fee",
          "type": "uint256"
        },
        {
          "name": "_nonce",
          "type": "uint256"
        }
      ],
      "name": "decreaseAllowancePreSigned",
      "outputs": [
        {
          "name": "",
          "type": "bool"
        }
      ],
      "payable": false,
      "stateMutability": "nonpayable",
      "type": "function"
    },
    {
      "constant": true,
      "inputs": [],
      "name": "controller",
      "outputs": [
        {
          "name": "",
          "type": "address"
        }
      ],
      "payable": false,
      "stateMutability": "view",
      "type": "function"
    },
    {
      "constant": false,
      "inputs": [
        {
          "name": "_signature",
          "type": "bytes"
        },
        {
          "name": "_spender",
          "type": "address"
        },
        {
          "name": "_addedValue",
          "type": "uint256"
        },
        {
          "name": "_fee",
          "type": "uint256"
        },
        {
          "name": "_nonce",
          "type": "uint256"
        }
      ],
      "name": "increaseAllowancePreSigned",
      "outputs": [
        {
          "name": "",
          "type": "bool"
        }
      ],
      "payable": false,
      "stateMutability": "nonpayable",
      "type": "function"
    },
    {
      "anonymous": false,
      "inputs": [
        {
          "indexed": false,
          "name": "maxTotalSupply",
          "type": "uint256"
        },
        {
          "indexed": false,
          "name": "totalSupply",
          "type": "uint256"
        },
        {
          "indexed": false,
          "name": "validatorRewardsPercent",
          "type": "uint256"
        },
        {
          "indexed": false,
          "name": "numOfValidators",
          "type": "uint256"
        }
      ],
      "name": "Debug",
      "type": "event"
    },
    {
      "anonymous": false,
      "inputs": [
        {
          "indexed": true,
          "name": "rewardsDay",
          "type": "uint256"
        },
        {
          "indexed": true,
          "name": "rewardsHash",
          "type": "bytes32"
        },
        {
          "indexed": true,
          "name": "validator",
          "type": "address"
        }
      ],
      "name": "DailyRewardsSubmitted",
      "type": "event"
    },
    {
      "anonymous": false,
      "inputs": [
        {
          "indexed": true,
          "name": "rewardsDay",
          "type": "uint256"
        },
        {
          "indexed": true,
          "name": "rewardsHash",
          "type": "bytes32"
        },
        {
          "indexed": false,
          "name": "numOfApplications",
          "type": "uint256"
        },
        {
          "indexed": false,
          "name": "amount",
          "type": "uint256"
        }
      ],
      "name": "DailyRewardsApplicationsMinted",
      "type": "event"
    },
    {
      "anonymous": false,
      "inputs": [
        {
          "indexed": true,
          "name": "rewardsDay",
          "type": "uint256"
        },
        {
          "indexed": true,
          "name": "rewardsHash",
          "type": "bytes32"
        },
        {
          "indexed": false,
          "name": "numOfValidators",
          "type": "uint256"
        },
        {
          "indexed": false,
          "name": "amount",
          "type": "uint256"
        }
      ],
      "name": "DailyRewardsValidatorsMinted",
      "type": "event"
    },
    {
      "anonymous": false,
      "inputs": [
        {
          "indexed": true,
          "name": "id",
          "type": "address"
        },
        {
          "indexed": true,
          "name": "entityType",
          "type": "uint8"
        },
        {
          "indexed": false,
          "name": "name",
          "type": "bytes32"
        },
        {
          "indexed": false,
          "name": "rewardsAddress",
          "type": "address"
        },
        {
          "indexed": true,
          "name": "sidechainAddress",
          "type": "address"
        }
      ],
      "name": "EntityUpdated",
      "type": "event"
    },
    {
      "anonymous": false,
      "inputs": [
        {
          "indexed": false,
          "name": "param",
          "type": "uint8"
        },
        {
          "indexed": false,
          "name": "newValue",
          "type": "uint256"
        },
        {
          "indexed": false,
          "name": "oldValue",
          "type": "uint256"
        },
        {
          "indexed": false,
          "name": "rewardsDay",
          "type": "uint256"
        }
      ],
      "name": "ParameterUpdated",
      "type": "event"
    },
    {
      "anonymous": false,
      "inputs": [
        {
          "indexed": false,
          "name": "validatorsList",
          "type": "address[]"
        },
        {
          "indexed": true,
          "name": "rewardsDay",
          "type": "uint256"
        }
      ],
      "name": "ValidatorsListUpdated",
      "type": "event"
    },
    {
      "anonymous": false,
      "inputs": [
        {
          "indexed": false,
          "name": "applicationsList",
          "type": "address[]"
        },
        {
          "indexed": true,
          "name": "rewardsDay",
          "type": "uint256"
        }
      ],
      "name": "ApplicationsListUpdated",
      "type": "event"
    },
    {
      "anonymous": false,
      "inputs": [
        {
          "indexed": true,
          "name": "newController",
          "type": "address"
        }
      ],
      "name": "ControllerUpdated",
      "type": "event"
    },
    {
      "anonymous": false,
      "inputs": [
        {
          "indexed": true,
          "name": "from",
          "type": "address"
        },
        {
          "indexed": true,
          "name": "to",
          "type": "address"
        },
        {
          "indexed": true,
          "name": "delegate",
          "type": "address"
        },
        {
          "indexed": false,
          "name": "amount",
          "type": "uint256"
        },
        {
          "indexed": false,
          "name": "fee",
          "type": "uint256"
        }
      ],
      "name": "TransferPreSigned",
      "type": "event"
    },
    {
      "anonymous": false,
      "inputs": [
        {
          "indexed": true,
          "name": "from",
          "type": "address"
        },
        {
          "indexed": true,
          "name": "to",
          "type": "address"
        },
        {
          "indexed": true,
          "name": "delegate",
          "type": "address"
        },
        {
          "indexed": false,
          "name": "amount",
          "type": "uint256"
        },
        {
          "indexed": false,
          "name": "fee",
          "type": "uint256"
        }
      ],
      "name": "ApprovalPreSigned",
      "type": "event"
    },
    {
      "anonymous": false,
      "inputs": [
        {
          "indexed": true,
          "name": "from",
          "type": "address"
        },
        {
          "indexed": true,
          "name": "to",
          "type": "address"
        },
        {
          "indexed": false,
          "name": "value",
          "type": "uint256"
        }
      ],
      "name": "Transfer",
      "type": "event"
    },
    {
      "anonymous": false,
      "inputs": [
        {
          "indexed": true,
          "name": "owner",
          "type": "address"
        },
        {
          "indexed": true,
          "name": "spender",
          "type": "address"
        },
        {
          "indexed": false,
          "name": "value",
          "type": "uint256"
        }
      ],
      "name": "Approval",
      "type": "event"
    },
    {
      "constant": false,
      "inputs": [
        {
          "name": "name",
          "type": "string"
        },
        {
          "name": "symbol",
          "type": "string"
        },
        {
          "name": "decimals",
          "type": "uint8"
        }
      ],
      "name": "initialize",
      "outputs": [],
      "payable": false,
      "stateMutability": "nonpayable",
      "type": "function"
    },
    {
      "constant": false,
      "inputs": [
        {
          "name": "_holder",
          "type": "address"
        },
        {
          "name": "_transfersStartTime",
          "type": "uint256"
        },
        {
          "name": "_controller",
          "type": "address"
        },
        {
          "name": "_minSecondsBetweenDays",
          "type": "uint256"
        },
        {
          "name": "_rewardsStartTimestamp",
          "type": "uint256"
        }
      ],
      "name": "initialize",
      "outputs": [],
      "payable": false,
      "stateMutability": "nonpayable",
      "type": "function"
    },
    {
      "constant": false,
      "inputs": [
        {
          "name": "_controller",
          "type": "address"
        },
        {
          "name": "_decimals",
          "type": "uint256"
        },
        {
          "name": "_minSecondsBetweenDays",
          "type": "uint256"
        },
        {
          "name": "_rewardsStartTimestamp",
          "type": "uint256"
        }
      ],
      "name": "initialize",
      "outputs": [],
      "payable": false,
      "stateMutability": "nonpayable",
      "type": "function"
    },
    {
      "constant": false,
      "inputs": [
        {
          "name": "start",
          "type": "uint256"
        },
        {
          "name": "account",
          "type": "address"
        }
      ],
      "name": "initialize",
      "outputs": [],
      "payable": false,
      "stateMutability": "nonpayable",
      "type": "function"
    },
    {
      "constant": false,
      "inputs": [
        {
          "name": "_controller",
          "type": "address"
        },
        {
          "name": "_decimals",
          "type": "uint256"
        },
        {
          "name": "_minSecondsBetweenDays",
          "type": "uint256"
        },
        {
          "name": "_rewardsStartTimestamp",
          "type": "uint256"
        }
      ],
      "name": "initializePostRewardsUpgrade1",
      "outputs": [],
      "payable": false,
      "stateMutability": "nonpayable",
      "type": "function"
    },
    {
      "constant": false,
      "inputs": [
        {
          "name": "_controller",
          "type": "address"
        },
        {
          "name": "_minSecondsBetweenDays",
          "type": "uint256"
        },
        {
          "name": "_rewardsStartTimestamp",
          "type": "uint256"
        }
      ],
      "name": "initializePostRewardsUpgrade1",
      "outputs": [],
      "payable": false,
      "stateMutability": "nonpayable",
      "type": "function"
    }
  ],
  "bytecode": "0x608060405234801561001057600080fd5b50615e9b80620000216000396000f3006080604052600436106101ee576000357c0100000000000000000000000000000000000000000000000000000000900463ffffffff16806306cb5b66146101f357806306fdde031461024e578063095ea7b3146102de578063098bfa9f146103435780630d98dcb1146103d25780631296830d1461046f578063138e8da11461052e5780631624f6c6146105cb578063162663001461068757806318160ddd146106e357806323b872dd1461070e5780632542e3f8146107935780632ab4d05214610814578063313ce5671461083f578063395093511461087057806345b6d7dc146108d55780634ec81af11461092c5780634f92caf81461098d5780635229c56f146109db57806357ece4bc14610a78578063617b390b14610b515780636356850214610c1057806370a0823114610c3b5780637492fdda14610c9257806379250dcf14610d1a57806395d89b4114610db757806396e8832714610e47578063a457c2d714610edd578063a70c41b414610f42578063a9059cbb14610fff578063bca5051514611064578063d0f22e9c14611143578063da35a26f1461116e578063dd62ed3e146111bb578063e53110f214611232578063e795594d14611293578063e9d2c4b31461131b578063f2959d6e14611372578063f77c479114611431578063f80801d014611488575b600080fd5b3480156101ff57600080fd5b50610234600480360381019080803573ffffffffffffffffffffffffffffffffffffffff169060200190929190505050611547565b604051808215151515815260200191505060405180910390f35b34801561025a57600080fd5b5061026361169b565b6040518080602001828103825283818151815260200191508051906020019080838360005b838110156102a3578082015181840152602081019050610288565b50505050905090810190601f1680156102d05780820380516001836020036101000a031916815260200191505b509250505060405180910390f35b3480156102ea57600080fd5b50610329600480360381019080803573ffffffffffffffffffffffffffffffffffffffff1690602001909291908035906020019092919050505061173d565b604051808215151515815260200191505060405180910390f35b34801561034f57600080fd5b5061037b600480360381019080803560ff16906020019092919080359060200190929190505050611754565b6040518080602001828103825283818151815260200191508051906020019060200280838360005b838110156103be5780820151818401526020810190506103a3565b505050509050019250505060405180910390f35b3480156103de57600080fd5b50610451600480360381019080803573ffffffffffffffffffffffffffffffffffffffff169060200190929190803573ffffffffffffffffffffffffffffffffffffffff169060200190929190803590602001909291908035906020019092919080359060200190929190505050611879565b60405180826000191660001916815260200191505060405180910390f35b34801561047b57600080fd5b50610514600480360381019080803590602001908201803590602001908080601f0160208091040260200160405190810160405280939291908181526020018383808284378201915050505050509192919290803573ffffffffffffffffffffffffffffffffffffffff169060200190929190803590602001909291908035906020019092919080359060200190929190505050611a07565b604051808215151515815260200191505060405180910390f35b34801561053a57600080fd5b506105ad600480360381019080803573ffffffffffffffffffffffffffffffffffffffff169060200190929190803573ffffffffffffffffffffffffffffffffffffffff169060200190929190803590602001909291908035906020019092919080359060200190929190505050611de9565b60405180826000191660001916815260200191505060405180910390f35b3480156105d757600080fd5b50610685600480360381019080803590602001908201803590602001908080601f0160208091040260200160405190810160405280939291908181526020018383808284378201915050505050509192919290803590602001908201803590602001908080601f0160208091040260200160405190810160405280939291908181526020018383808284378201915050505050509192919290803560ff169060200190929190505050611f77565b005b34801561069357600080fd5b506106c9600480360381019080803560ff16906020019092919080359060200190929190803590602001909291905050506120f8565b604051808215151515815260200191505060405180910390f35b3480156106ef57600080fd5b506106f8612361565b6040518082815260200191505060405180910390f35b34801561071a57600080fd5b50610779600480360381019080803573ffffffffffffffffffffffffffffffffffffffff169060200190929190803573ffffffffffffffffffffffffffffffffffffffff1690602001909291908035906020019092919050505061236b565b604051808215151515815260200191505060405180910390f35b34801561079f57600080fd5b50610812600480360381019080803573ffffffffffffffffffffffffffffffffffffffff16906020019092919080359060200190929190803573ffffffffffffffffffffffffffffffffffffffff169060200190929190803590602001909291908035906020019092919050505061247a565b005b34801561082057600080fd5b50610829612664565b6040518082815260200191505060405180910390f35b34801561084b57600080fd5b5061085461266a565b604051808260ff1660ff16815260200191505060405180910390f35b34801561087c57600080fd5b506108bb600480360381019080803573ffffffffffffffffffffffffffffffffffffffff16906020019092919080359060200190929190505050612681565b604051808215151515815260200191505060405180910390f35b3480156108e157600080fd5b506108ea612726565b604051808273ffffffffffffffffffffffffffffffffffffffff1673ffffffffffffffffffffffffffffffffffffffff16815260200191505060405180910390f35b34801561093857600080fd5b5061098b600480360381019080803573ffffffffffffffffffffffffffffffffffffffff16906020019092919080359060200190929190803590602001909291908035906020019092919050505061274c565b005b34801561099957600080fd5b506109c5600480360381019080803560ff16906020019092919080359060200190929190505050612891565b6040518082815260200191505060405180910390f35b3480156109e757600080fd5b50610a5a600480360381019080803573ffffffffffffffffffffffffffffffffffffffff169060200190929190803573ffffffffffffffffffffffffffffffffffffffff169060200190929190803590602001909291908035906020019092919080359060200190929190505050612960565b60405180826000191660001916815260200191505060405180910390f35b348015610a8457600080fd5b50610b376004803603810190808035906020019092919080356000191690602001909291908035906020019082018035906020019080806020026020016040519081016040528093929190818152602001838360200280828437820191505050505050919291929080359060200190820180359060200190808060200260200160405190810160405280939291908181526020018383602002808284378201915050505050509192919290505050612aee565b604051808215151515815260200191505060405180910390f35b348015610b5d57600080fd5b50610bf6600480360381019080803590602001908201803590602001908080601f0160208091040260200160405190810160405280939291908181526020018383808284378201915050505050509192919290803573ffffffffffffffffffffffffffffffffffffffff169060200190929190803590602001909291908035906020019092919080359060200190929190505050612ec7565b604051808215151515815260200191505060405180910390f35b348015610c1c57600080fd5b50610c256132a9565b6040518082815260200191505060405180910390f35b348015610c4757600080fd5b50610c7c600480360381019080803573ffffffffffffffffffffffffffffffffffffffff1690602001909291905050506132af565b6040518082815260200191505060405180910390f35b348015610c9e57600080fd5b50610d0060048036038101908080359060200190929190803590602001908201803590602001908080602002602001604051908101604052809392919081815260200183836020028082843782019150505050505091929192905050506132f8565b604051808215151515815260200191505060405180910390f35b348015610d2657600080fd5b50610d99600480360381019080803573ffffffffffffffffffffffffffffffffffffffff169060200190929190803573ffffffffffffffffffffffffffffffffffffffff16906020019092919080359060200190929190803590602001909291908035906020019092919050505061353b565b60405180826000191660001916815260200191505060405180910390f35b348015610dc357600080fd5b50610dcc6136c9565b6040518080602001828103825283818151815260200191508051906020019080838360005b83811015610e0c578082015181840152602081019050610df1565b50505050905090810190601f168015610e395780820380516001836020036101000a031916815260200191505b509250505060405180910390f35b348015610e5357600080fd5b50610ec3600480360381019080803560ff1690602001909291908035600019169060200190929190803573ffffffffffffffffffffffffffffffffffffffff169060200190929190803573ffffffffffffffffffffffffffffffffffffffff16906020019092919050505061376b565b604051808215151515815260200191505060405180910390f35b348015610ee957600080fd5b50610f28600480360381019080803573ffffffffffffffffffffffffffffffffffffffff1690602001909291908035906020019092919050505061395c565b604051808215151515815260200191505060405180910390f35b348015610f4e57600080fd5b50610fe1600480360381019080803573ffffffffffffffffffffffffffffffffffffffff169060200190929190803573ffffffffffffffffffffffffffffffffffffffff169060200190929190803573ffffffffffffffffffffffffffffffffffffffff169060200190929190803590602001909291908035906020019092919080359060200190929190505050613a01565b60405180826000191660001916815260200191505060405180910390f35b34801561100b57600080fd5b5061104a600480360381019080803573ffffffffffffffffffffffffffffffffffffffff16906020019092919080359060200190929190505050613bd3565b604051808215151515815260200191505060405180910390f35b34801561107057600080fd5b50611129600480360381019080803590602001908201803590602001908080601f0160208091040260200160405190810160405280939291908181526020018383808284378201915050505050509192919290803573ffffffffffffffffffffffffffffffffffffffff169060200190929190803573ffffffffffffffffffffffffffffffffffffffff169060200190929190803590602001909291908035906020019092919080359060200190929190505050613ce0565b604051808215151515815260200191505060405180910390f35b34801561114f57600080fd5b50611158614110565b6040518082815260200191505060405180910390f35b34801561117a57600080fd5b506111b960048036038101908080359060200190929190803573ffffffffffffffffffffffffffffffffffffffff169060200190929190505050614116565b005b3480156111c757600080fd5b5061121c600480360381019080803573ffffffffffffffffffffffffffffffffffffffff169060200190929190803573ffffffffffffffffffffffffffffffffffffffff169060200190929190505050614295565b6040518082815260200191505060405180910390f35b34801561123e57600080fd5b50611291600480360381019080803573ffffffffffffffffffffffffffffffffffffffff16906020019092919080359060200190929190803590602001909291908035906020019092919050505061431c565b005b34801561129f57600080fd5b506113016004803603810190808035906020019092919080359060200190820180359060200190808060200260200160405190810160405280939291908181526020018383602002808284378201915050505050509192919290505050614461565b604051808215151515815260200191505060405180910390f35b34801561132757600080fd5b50611370600480360381019080803573ffffffffffffffffffffffffffffffffffffffff16906020019092919080359060200190929190803590602001909291905050506146a4565b005b34801561137e57600080fd5b50611417600480360381019080803590602001908201803590602001908080601f0160208091040260200160405190810160405280939291908181526020018383808284378201915050505050509192919290803573ffffffffffffffffffffffffffffffffffffffff1690602001909291908035906020019092919080359060200190929190803590602001909291905050506147f2565b604051808215151515815260200191505060405180910390f35b34801561143d57600080fd5b50611446614bf8565b604051808273ffffffffffffffffffffffffffffffffffffffff1673ffffffffffffffffffffffffffffffffffffffff16815260200191505060405180910390f35b34801561149457600080fd5b5061152d600480360381019080803590602001908201803590602001908080601f0160208091040260200160405190810160405280939291908181526020018383808284378201915050505050509192919290803573ffffffffffffffffffffffffffffffffffffffff169060200190929190803590602001909291908035906020019092919080359060200190929190505050614c1e565b604051808215151515815260200191505060405180910390f35b600060b960009054906101000a900473ffffffffffffffffffffffffffffffffffffffff1673ffffffffffffffffffffffffffffffffffffffff163373ffffffffffffffffffffffffffffffffffffffff1614151561160e576040517f08c379a00000000000000000000000000000000000000000000000000000000081526004018080602001828103825260168152602001807f4d7573742062652074686520636f6e74726f6c6c65720000000000000000000081525060200191505060405180910390fd5b8160b960006101000a81548173ffffffffffffffffffffffffffffffffffffffff021916908373ffffffffffffffffffffffffffffffffffffffff1602179055508173ffffffffffffffffffffffffffffffffffffffff167f1304018cfe79741dcf02ba6b61d39cc4757d59395d03224d9925c7aa8300214660405160405180910390a260019050919050565b606060338054600181600116156101000203166002900480601f0160208091040260200160405190810160405280929190818152602001828054600181600116156101000203166002900480156117335780601f1061170857610100808354040283529160200191611733565b820191906000526020600020905b81548152906001019060200180831161171657829003601f168201915b5050505050905090565b600061174a338484615024565b6001905092915050565b606073__PropsRewardsLib_______________________638993273560a085856040518463ffffffff167c0100000000000000000000000000000000000000000000000000000000028152600401808481526020018360018111156117b557fe5b60ff168152602001828152602001935050505060006040518083038186803b1580156117e057600080fd5b505af41580156117f4573d6000803e3d6000fd5b505050506040513d6000823e3d601f19601f82011682018060405250602081101561181e57600080fd5b81019080805164010000000081111561183657600080fd5b8281019050602081018481111561184c57600080fd5b815185602082028301116401000000008211171561186957600080fd5b5050929190505050905092915050565b6000630d98dcb17c010000000000000000000000000000000000000000000000000000000002868686868660405160200180877bffffffffffffffffffffffffffffffffffffffffffffffffffffffff19167bffffffffffffffffffffffffffffffffffffffffffffffffffffffff191681526004018673ffffffffffffffffffffffffffffffffffffffff1673ffffffffffffffffffffffffffffffffffffffff166c010000000000000000000000000281526014018573ffffffffffffffffffffffffffffffffffffffff1673ffffffffffffffffffffffffffffffffffffffff166c0100000000000000000000000002815260140184815260200183815260200182815260200196505050505050506040516020818303038152906040526040518082805190602001908083835b6020831015156119cf57805182526020820191506020810190506020830392506119aa565b6001836020036101000a0380198251168184511680821785525050505050509050019150506040518091039020905095945050505050565b600080600080600073ffffffffffffffffffffffffffffffffffffffff168873ffffffffffffffffffffffffffffffffffffffff1614151515611ab2576040517f08c379a00000000000000000000000000000000000000000000000000000000081526004018080602001828103825260138152602001807f496e76616c6964205f746f20616464726573730000000000000000000000000081525060200191505060405180910390fd5b611abf3089898989611879565b9250611acb838a615187565b9150600073ffffffffffffffffffffffffffffffffffffffff168273ffffffffffffffffffffffffffffffffffffffff1614151515611b72576040517f08c379a000000000000000000000000000000000000000000000000000000000815260040180806020018281038252601e8152602001807f496e76616c69642066726f6d2061646472657373207265636f7665726564000081525060200191505060405180910390fd5b8183604051602001808373ffffffffffffffffffffffffffffffffffffffff1673ffffffffffffffffffffffffffffffffffffffff166c010000000000000000000000000281526014018260001916600019168152602001925050506040516020818303038152906040526040518082805190602001908083835b602083101515611c125780518252602082019150602081019050602083039250611bed565b6001836020036101000a0380198251168184511680821785525050505050509050019150506040518091039020905060001515609d6000836000191660001916815260200190815260200160002060009054906101000a900460ff161515141515611d0b576040517f08c379a00000000000000000000000000000000000000000000000000000000081526004018080602001828103825260218152602001807f5472616e73616374696f6e20686173682077617320616c72656164792075736581526020017f640000000000000000000000000000000000000000000000000000000000000081525060400191505060405180910390fd5b6001609d6000836000191660001916815260200190815260200160002060006101000a81548160ff021916908315150217905550611d4a82898961527f565b611d5582338861527f565b3373ffffffffffffffffffffffffffffffffffffffff168873ffffffffffffffffffffffffffffffffffffffff168373ffffffffffffffffffffffffffffffffffffffff167fec5a73fd1f178be20c1bca1b406cbf4b5c20d833b66e582fc122fb4baa0fc2a48a8a604051808381526020018281526020019250505060405180910390a46001935050505095945050505050565b600063138e8da17c010000000000000000000000000000000000000000000000000000000002868686868660405160200180877bffffffffffffffffffffffffffffffffffffffffffffffffffffffff19167bffffffffffffffffffffffffffffffffffffffffffffffffffffffff191681526004018673ffffffffffffffffffffffffffffffffffffffff1673ffffffffffffffffffffffffffffffffffffffff166c010000000000000000000000000281526014018573ffffffffffffffffffffffffffffffffffffffff1673ffffffffffffffffffffffffffffffffffffffff166c0100000000000000000000000002815260140184815260200183815260200182815260200196505050505050506040516020818303038152906040526040518082805190602001908083835b602083101515611f3f5780518252602082019150602081019050602083039250611f1a565b6001836020036101000a0380198251168184511680821785525050505050509050019150506040518091039020905095945050505050565b60008060019054906101000a900460ff1680611f975750611f9661549d565b5b80611fae57506000809054906101000a900460ff16155b1515612048576040517f08c379a000000000000000000000000000000000000000000000000000000000815260040180806020018281038252602e8152602001807f436f6e747261637420696e7374616e63652068617320616c726561647920626581526020017f656e20696e697469616c697a656400000000000000000000000000000000000081525060400191505060405180910390fd5b600060019054906101000a900460ff1690506001600060016101000a81548160ff02191690831515021790555060016000806101000a81548160ff02191690831515021790555083603390805190602001906120a5929190615dca565b5082603490805190602001906120bc929190615dca565b5081603560006101000a81548160ff021916908360ff16021790555080600060016101000a81548160ff02191690831515021790555050505050565b600060b960009054906101000a900473ffffffffffffffffffffffffffffffffffffffff1673ffffffffffffffffffffffffffffffffffffffff163373ffffffffffffffffffffffffffffffffffffffff161415156121bf576040517f08c379a00000000000000000000000000000000000000000000000000000000081526004018080602001828103825260168152602001807f4d7573742062652074686520636f6e74726f6c6c65720000000000000000000081525060200191505060405180910390fd5b73__PropsRewardsLib_______________________6311cb33da60a08686866040518563ffffffff167c01000000000000000000000000000000000000000000000000000000000281526004018085815260200184600381111561221f57fe5b60ff16815260200183815260200182815260200194505050505060206040518083038186803b15801561225157600080fd5b505af4158015612265573d6000803e3d6000fd5b505050506040513d602081101561227b57600080fd5b8101908080519060200190929190505050507fd3ee560e0e71d87fde0453f24eac52dd8f01332349f8d1ef9e005d1cc3b82fb48460a060040160008760038111156122c257fe5b81526020019081526020016000206000015460a060040160008860038111156122e757fe5b81526020019081526020016000206001015460a0600401600089600381111561230c57fe5b8152602001908152602001600020600201546040518085600381111561232e57fe5b60ff16815260200184815260200183815260200182815260200194505050505060405180910390a1600190509392505050565b6000606a54905090565b600083609e544211806123cb5750609f60009054906101000a900473ffffffffffffffffffffffffffffffffffffffff1673ffffffffffffffffffffffffffffffffffffffff168173ffffffffffffffffffffffffffffffffffffffff16145b1515612465576040517f08c379a000000000000000000000000000000000000000000000000000000000815260040180806020018281038252603d8152602001807f43616e6e6f74207472616e73666572206265666f7265207472616e736665727381526020017f2073746172742074696d652066726f6d2074686973206163636f756e7400000081525060400191505060405180910390fd5b6124708585856154ae565b9150509392505050565b60008060008060019054906101000a900460ff168061249d575061249c61549d565b5b806124b457506000809054906101000a900460ff16155b151561254e576040517f08c379a000000000000000000000000000000000000000000000000000000000815260040180806020018281038252602e8152602001807f436f6e747261637420696e7374616e63652068617320616c726561647920626581526020017f656e20696e697469616c697a656400000000000000000000000000000000000081525060400191505060405180910390fd5b600060019054906101000a900460ff1690506001600060016101000a81548160ff02191690831515021790555060016000806101000a81548160ff021916908315150217905550601292508260ff16600a0a6323c3460002915061261d6040805190810160405280600b81526020017f50726f707320546f6b656e0000000000000000000000000000000000000000008152506040805190810160405280600581526020017f50524f505300000000000000000000000000000000000000000000000000000081525085611f77565b6126278789614116565b612636868460ff16878761274c565b612640888361555f565b80600060016101000a81548160ff0219169083151502179055505050505050505050565b60b75481565b6000603560009054906101000a900460ff16905090565b600061271c338461271785606960003373ffffffffffffffffffffffffffffffffffffffff1673ffffffffffffffffffffffffffffffffffffffff16815260200190815260200160002060008973ffffffffffffffffffffffffffffffffffffffff1673ffffffffffffffffffffffffffffffffffffffff1681526020019081526020016000205461569f90919063ffffffff16565b615024565b6001905092915050565b609f60009054906101000a900473ffffffffffffffffffffffffffffffffffffffff1681565b60008060019054906101000a900460ff168061276c575061276b61549d565b5b8061278357506000809054906101000a900460ff16155b151561281d576040517f08c379a000000000000000000000000000000000000000000000000000000000815260040180806020018281038252602e8152602001807f436f6e747261637420696e7374616e63652068617320616c726561647920626581526020017f656e20696e697469616c697a656400000000000000000000000000000000000081525060400191505060405180910390fd5b600060019054906101000a900460ff1690506001600060016101000a81548160ff02191690831515021790555060016000806101000a81548160ff021916908315150217905550612870858585856156c0565b80600060016101000a81548160ff0219169083151502179055505050505050565b600073__PropsRewardsLib_______________________63d81b705060a085856040518463ffffffff167c0100000000000000000000000000000000000000000000000000000000028152600401808481526020018360038111156128f257fe5b60ff168152602001828152602001935050505060206040518083038186803b15801561291d57600080fd5b505af4158015612931573d6000803e3d6000fd5b505050506040513d602081101561294757600080fd5b8101908080519060200190929190505050905092915050565b6000635229c56f7c010000000000000000000000000000000000000000000000000000000002868686868660405160200180877bffffffffffffffffffffffffffffffffffffffffffffffffffffffff19167bffffffffffffffffffffffffffffffffffffffffffffffffffffffff191681526004018673ffffffffffffffffffffffffffffffffffffffff1673ffffffffffffffffffffffffffffffffffffffff166c010000000000000000000000000281526014018573ffffffffffffffffffffffffffffffffffffffff1673ffffffffffffffffffffffffffffffffffffffff166c0100000000000000000000000002815260140184815260200183815260200182815260200196505050505050506040516020818303038152906040526040518082805190602001908083835b602083101515612ab65780518252602082019150602081019050602083039250612a91565b6001836020036101000a0380198251168184511680821785525050505050509050019150506040518091039020905095945050505050565b600080600080600088118015612b0b575060a0600f016004015488115b15612c135773__PropsRewardsLib_______________________6314a68c3860a080600f016004015460a0600f016003015460006040518563ffffffff167c01000000000000000000000000000000000000000000000000000000000281526004018085815260200184815260200183600019166000191681526020018215151515815260200194505050505060206040518083038186803b158015612bb057600080fd5b505af4158015612bc4573d6000803e3d6000fd5b505050506040513d6020811015612bda57600080fd5b810190808051906020019092919050505092506000831115612c1257612c1160a0600f016004015460a0600f016003015485615a84565b5b5b73__PropsRewardsLib_______________________634daa822560a08a8a8a8a612c3b612361565b6040518763ffffffff167c01000000000000000000000000000000000000000000000000000000000281526004018087815260200186815260200185600019166000191681526020018060200180602001848152602001838103835286818151815260200191508051906020019060200280838360005b83811015612ccd578082015181840152602081019050612cb2565b50505050905001838103825285818151815260200191508051906020019060200280838360005b83811015612d0f578082015181840152602081019050612cf4565b505050509050019850505050505050505060206040518083038186803b158015612d3857600080fd5b505af4158015612d4c573d6000803e3d6000fd5b505050506040513d6020811015612d6257600080fd5b810190808051906020019092919050505091506000821115612d8c57612d8b8888888886615c8b565b5b73__PropsRewardsLib_______________________6314a68c3860a08a8a60016040518563ffffffff167c01000000000000000000000000000000000000000000000000000000000281526004018085815260200184815260200183600019166000191681526020018215151515815260200194505050505060206040518083038186803b158015612e1d57600080fd5b505af4158015612e31573d6000803e3d6000fd5b505050506040513d6020811015612e4757600080fd5b810190808051906020019092919050505090506000811115612e6f57612e6e888883615a84565b5b3373ffffffffffffffffffffffffffffffffffffffff168760001916897f47a75fa3188612bc1341726d7859491a32bf875dd309474f712950354f73c5a760405160405180910390a460019350505050949350505050565b600080600080600073ffffffffffffffffffffffffffffffffffffffff168873ffffffffffffffffffffffffffffffffffffffff1614151515612f72576040517f08c379a00000000000000000000000000000000000000000000000000000000081526004018080602001828103825260188152602001807f496e76616c6964205f7370656e6465722061646472657373000000000000000081525060200191505060405180910390fd5b612f7f308989898961353b565b9250612f8b838a615187565b9150600073ffffffffffffffffffffffffffffffffffffffff168273ffffffffffffffffffffffffffffffffffffffff1614151515613032576040517f08c379a000000000000000000000000000000000000000000000000000000000815260040180806020018281038252601e8152602001807f496e76616c69642066726f6d2061646472657373207265636f7665726564000081525060200191505060405180910390fd5b8183604051602001808373ffffffffffffffffffffffffffffffffffffffff1673ffffffffffffffffffffffffffffffffffffffff166c010000000000000000000000000281526014018260001916600019168152602001925050506040516020818303038152906040526040518082805190602001908083835b6020831015156130d257805182526020820191506020810190506020830392506130ad565b6001836020036101000a0380198251168184511680821785525050505050509050019150506040518091039020905060001515609d6000836000191660001916815260200190815260200160002060009054906101000a900460ff1615151415156131cb576040517f08c379a00000000000000000000000000000000000000000000000000000000081526004018080602001828103825260218152602001807f5472616e73616374696f6e20686173682077617320616c72656164792075736581526020017f640000000000000000000000000000000000000000000000000000000000000081525060400191505060405180910390fd5b6001609d6000836000191660001916815260200190815260200160002060006101000a81548160ff02191690831515021790555061320a828989615024565b61321582338861527f565b3373ffffffffffffffffffffffffffffffffffffffff168873ffffffffffffffffffffffffffffffffffffffff168373ffffffffffffffffffffffffffffffffffffffff167f43a220267705e74ee2ceafd46afc841850db6f85a662189a7def697bbdd90ffb8a8a604051808381526020018281526020019250505060405180910390a46001935050505095945050505050565b60b85481565b6000606860008373ffffffffffffffffffffffffffffffffffffffff1673ffffffffffffffffffffffffffffffffffffffff168152602001908152602001600020549050919050565b600060b960009054906101000a900473ffffffffffffffffffffffffffffffffffffffff1673ffffffffffffffffffffffffffffffffffffffff163373ffffffffffffffffffffffffffffffffffffffff161415156133bf576040517f08c379a00000000000000000000000000000000000000000000000000000000081526004018080602001828103825260168152602001807f4d7573742062652074686520636f6e74726f6c6c65720000000000000000000081525060200191505060405180910390fd5b73__PropsRewardsLib_______________________63cc1b8c9c60a085856040518463ffffffff167c01000000000000000000000000000000000000000000000000000000000281526004018084815260200183815260200180602001828103825283818151815260200191508051906020019060200280838360005b8381101561345757808201518184015260208101905061343c565b5050505090500194505050505060206040518083038186803b15801561347c57600080fd5b505af4158015613490573d6000803e3d6000fd5b505050506040513d60208110156134a657600080fd5b810190808051906020019092919050505050827f426b639e1d49f62952a4d3282b37648fb8c47ac20b15e01548c104b75c787c0c836040518080602001828103825283818151815260200191508051906020019060200280838360005b8381101561351e578082015181840152602081019050613503565b505050509050019250505060405180910390a26001905092915050565b60006379250dcf7c010000000000000000000000000000000000000000000000000000000002868686868660405160200180877bffffffffffffffffffffffffffffffffffffffffffffffffffffffff19167bffffffffffffffffffffffffffffffffffffffffffffffffffffffff191681526004018673ffffffffffffffffffffffffffffffffffffffff1673ffffffffffffffffffffffffffffffffffffffff166c010000000000000000000000000281526014018573ffffffffffffffffffffffffffffffffffffffff1673ffffffffffffffffffffffffffffffffffffffff166c0100000000000000000000000002815260140184815260200183815260200182815260200196505050505050506040516020818303038152906040526040518082805190602001908083835b602083101515613691578051825260208201915060208101905060208303925061366c565b6001836020036101000a0380198251168184511680821785525050505050509050019150506040518091039020905095945050505050565b606060348054600181600116156101000203166002900480601f0160208091040260200160405190810160405280929190818152602001828054600181600116156101000203166002900480156137615780601f1061373657610100808354040283529160200191613761565b820191906000526020600020905b81548152906001019060200180831161374457829003601f168201915b5050505050905090565b600073__PropsRewardsLib_______________________6346e3a29860a0878787876040518663ffffffff167c0100000000000000000000000000000000000000000000000000000000028152600401808681526020018560018111156137ce57fe5b60ff16815260200184600019166000191681526020018373ffffffffffffffffffffffffffffffffffffffff1673ffffffffffffffffffffffffffffffffffffffff1681526020018273ffffffffffffffffffffffffffffffffffffffff1673ffffffffffffffffffffffffffffffffffffffff1681526020019550505050505060206040518083038186803b15801561386757600080fd5b505af415801561387b573d6000803e3d6000fd5b505050506040513d602081101561389157600080fd5b8101908080519060200190929190505050508173ffffffffffffffffffffffffffffffffffffffff168560018111156138c657fe5b3373ffffffffffffffffffffffffffffffffffffffff167fac4aacb75e6f9ac6f2fee64077e9436dfb1be853b1a850b7863cf1433f0e752887876040518083600019166000191681526020018273ffffffffffffffffffffffffffffffffffffffff1673ffffffffffffffffffffffffffffffffffffffff1681526020019250505060405180910390a460019050949350505050565b60006139f733846139f285606960003373ffffffffffffffffffffffffffffffffffffffff1673ffffffffffffffffffffffffffffffffffffffff16815260200190815260200160002060008973ffffffffffffffffffffffffffffffffffffffff1673ffffffffffffffffffffffffffffffffffffffff16815260200190815260200160002054615d9290919063ffffffff16565b615024565b6001905092915050565b600063a70c41b47c01000000000000000000000000000000000000000000000000000000000287878787878760405160200180887bffffffffffffffffffffffffffffffffffffffffffffffffffffffff19167bffffffffffffffffffffffffffffffffffffffffffffffffffffffff191681526004018773ffffffffffffffffffffffffffffffffffffffff1673ffffffffffffffffffffffffffffffffffffffff166c010000000000000000000000000281526014018673ffffffffffffffffffffffffffffffffffffffff1673ffffffffffffffffffffffffffffffffffffffff166c010000000000000000000000000281526014018573ffffffffffffffffffffffffffffffffffffffff1673ffffffffffffffffffffffffffffffffffffffff166c010000000000000000000000000281526014018481526020018381526020018281526020019750505050505050506040516020818303038152906040526040518082805190602001908083835b602083101515613b9a5780518252602082019150602081019050602083039250613b75565b6001836020036101000a038019825116818451168082178552505050505050905001915050604051809103902090509695505050505050565b600033609e54421180613c335750609f60009054906101000a900473ffffffffffffffffffffffffffffffffffffffff1673ffffffffffffffffffffffffffffffffffffffff168173ffffffffffffffffffffffffffffffffffffffff16145b1515613ccd576040517f08c379a000000000000000000000000000000000000000000000000000000000815260040180806020018281038252603d8152602001807f43616e6e6f74207472616e73666572206265666f7265207472616e736665727381526020017f2073746172742074696d652066726f6d2074686973206163636f756e7400000081525060400191505060405180910390fd5b613cd78484615db3565b91505092915050565b600080600080600073ffffffffffffffffffffffffffffffffffffffff168873ffffffffffffffffffffffffffffffffffffffff1614151515613d8b576040517f08c379a00000000000000000000000000000000000000000000000000000000081526004018080602001828103825260138152602001807f496e76616c6964205f746f20616464726573730000000000000000000000000081525060200191505060405180910390fd5b613d99308a8a8a8a8a613a01565b9250613da5838b615187565b9150600073ffffffffffffffffffffffffffffffffffffffff168273ffffffffffffffffffffffffffffffffffffffff1614151515613e72576040517f08c379a00000000000000000000000000000000000000000000000000000000081526004018080602001828103825260218152602001807f496e76616c6964207370656e6465722061646472657373207265636f7665726581526020017f640000000000000000000000000000000000000000000000000000000000000081525060400191505060405180910390fd5b8183604051602001808373ffffffffffffffffffffffffffffffffffffffff1673ffffffffffffffffffffffffffffffffffffffff166c010000000000000000000000000281526014018260001916600019168152602001925050506040516020818303038152906040526040518082805190602001908083835b602083101515613f125780518252602082019150602081019050602083039250613eed565b6001836020036101000a0380198251168184511680821785525050505050509050019150506040518091039020905060001515609d6000836000191660001916815260200190815260200160002060009054906101000a900460ff16151514151561400b576040517f08c379a00000000000000000000000000000000000000000000000000000000081526004018080602001828103825260218152602001807f5472616e73616374696f6e20686173682077617320616c72656164792075736581526020017f640000000000000000000000000000000000000000000000000000000000000081525060400191505060405180910390fd5b6001609d6000836000191660001916815260200190815260200160002060006101000a81548160ff02191690831515021790555061404a89898961527f565b614070898361406b8a61405d8e88614295565b615d9290919063ffffffff16565b615024565b61407b82338861527f565b3373ffffffffffffffffffffffffffffffffffffffff168873ffffffffffffffffffffffffffffffffffffffff168a73ffffffffffffffffffffffffffffffffffffffff167fec5a73fd1f178be20c1bca1b406cbf4b5c20d833b66e582fc122fb4baa0fc2a48a8a604051808381526020018281526020019250505060405180910390a4600193505050509695505050505050565b609e5481565b60008060019054906101000a900460ff1680614136575061413561549d565b5b8061414d57506000809054906101000a900460ff16155b15156141e7576040517f08c379a000000000000000000000000000000000000000000000000000000000815260040180806020018281038252602e8152602001807f436f6e747261637420696e7374616e63652068617320616c726561647920626581526020017f656e20696e697469616c697a656400000000000000000000000000000000000081525060400191505060405180910390fd5b600060019054906101000a900460ff1690506001600060016101000a81548160ff02191690831515021790555060016000806101000a81548160ff02191690831515021790555082609e8190555081609f60006101000a81548173ffffffffffffffffffffffffffffffffffffffff021916908373ffffffffffffffffffffffffffffffffffffffff16021790555080600060016101000a81548160ff021916908315150217905550505050565b6000606960008473ffffffffffffffffffffffffffffffffffffffff1673ffffffffffffffffffffffffffffffffffffffff16815260200190815260200160002060008373ffffffffffffffffffffffffffffffffffffffff1673ffffffffffffffffffffffffffffffffffffffff16815260200190815260200160002054905092915050565b60008060019054906101000a900460ff168061433c575061433b61549d565b5b8061435357506000809054906101000a900460ff16155b15156143ed576040517f08c379a000000000000000000000000000000000000000000000000000000000815260040180806020018281038252602e8152602001807f436f6e747261637420696e7374616e63652068617320616c726561647920626581526020017f656e20696e697469616c697a656400000000000000000000000000000000000081525060400191505060405180910390fd5b600060019054906101000a900460ff1690506001600060016101000a81548160ff02191690831515021790555060016000806101000a81548160ff021916908315150217905550614440858585856156c0565b80600060016101000a81548160ff0219169083151502179055505050505050565b600060b960009054906101000a900473ffffffffffffffffffffffffffffffffffffffff1673ffffffffffffffffffffffffffffffffffffffff163373ffffffffffffffffffffffffffffffffffffffff16141515614528576040517f08c379a00000000000000000000000000000000000000000000000000000000081526004018080602001828103825260168152602001807f4d7573742062652074686520636f6e74726f6c6c65720000000000000000000081525060200191505060405180910390fd5b73__PropsRewardsLib_______________________6363cad06a60a085856040518463ffffffff167c01000000000000000000000000000000000000000000000000000000000281526004018084815260200183815260200180602001828103825283818151815260200191508051906020019060200280838360005b838110156145c05780820151818401526020810190506145a5565b5050505090500194505050505060206040518083038186803b1580156145e557600080fd5b505af41580156145f9573d6000803e3d6000fd5b505050506040513d602081101561460f57600080fd5b810190808051906020019092919050505050827f25071f4c6ebdf865da246a5caf6a5bbcbe50f6443e15309b97b10043c6beb1d9836040518080602001828103825283818151815260200191508051906020019060200280838360005b8381101561468757808201518184015260208101905061466c565b505050509050019250505060405180910390a26001905092915050565b600080600060019054906101000a900460ff16806146c657506146c561549d565b5b806146dd57506000809054906101000a900460ff16155b1515614777576040517f08c379a000000000000000000000000000000000000000000000000000000000815260040180806020018281038252602e8152602001807f436f6e747261637420696e7374616e63652068617320616c726561647920626581526020017f656e20696e697469616c697a656400000000000000000000000000000000000081525060400191505060405180910390fd5b600060019054906101000a900460ff1690506001600060016101000a81548160ff02191690831515021790555060016000806101000a81548160ff021916908315150217905550601291506147d1858360ff16868661431c565b80600060016101000a81548160ff0219169083151502179055505050505050565b600080600080600073ffffffffffffffffffffffffffffffffffffffff168873ffffffffffffffffffffffffffffffffffffffff161415151561489d576040517f08c379a00000000000000000000000000000000000000000000000000000000081526004018080602001828103825260188152602001807f496e76616c6964205f7370656e6465722061646472657373000000000000000081525060200191505060405180910390fd5b6148aa3089898989612960565b92506148b6838a615187565b9150600073ffffffffffffffffffffffffffffffffffffffff168273ffffffffffffffffffffffffffffffffffffffff161415151561495d576040517f08c379a000000000000000000000000000000000000000000000000000000000815260040180806020018281038252601e8152602001807f496e76616c69642066726f6d2061646472657373207265636f7665726564000081525060200191505060405180910390fd5b8183604051602001808373ffffffffffffffffffffffffffffffffffffffff1673ffffffffffffffffffffffffffffffffffffffff166c010000000000000000000000000281526014018260001916600019168152602001925050506040516020818303038152906040526040518082805190602001908083835b6020831015156149fd57805182526020820191506020810190506020830392506149d8565b6001836020036101000a0380198251168184511680821785525050505050509050019150506040518091039020905060001515609d6000836000191660001916815260200190815260200160002060009054906101000a900460ff161515141515614af6576040517f08c379a00000000000000000000000000000000000000000000000000000000081526004018080602001828103825260218152602001807f5472616e73616374696f6e20686173682077617320616c72656164792075736581526020017f640000000000000000000000000000000000000000000000000000000000000081525060400191505060405180910390fd5b6001609d6000836000191660001916815260200190815260200160002060006101000a81548160ff021916908315150217905550614b508289614b4b8a614b3d878e614295565b615d9290919063ffffffff16565b615024565b614b5b82338861527f565b3373ffffffffffffffffffffffffffffffffffffffff168873ffffffffffffffffffffffffffffffffffffffff168373ffffffffffffffffffffffffffffffffffffffff167f43a220267705e74ee2ceafd46afc841850db6f85a662189a7def697bbdd90ffb614bcb868d614295565b8a604051808381526020018281526020019250505060405180910390a46001935050505095945050505050565b60b960009054906101000a900473ffffffffffffffffffffffffffffffffffffffff1681565b600080600080600073ffffffffffffffffffffffffffffffffffffffff168873ffffffffffffffffffffffffffffffffffffffff1614151515614cc9576040517f08c379a00000000000000000000000000000000000000000000000000000000081526004018080602001828103825260188152602001807f496e76616c6964205f7370656e6465722061646472657373000000000000000081525060200191505060405180910390fd5b614cd63089898989611de9565b9250614ce2838a615187565b9150600073ffffffffffffffffffffffffffffffffffffffff168273ffffffffffffffffffffffffffffffffffffffff1614151515614d89576040517f08c379a000000000000000000000000000000000000000000000000000000000815260040180806020018281038252601e8152602001807f496e76616c69642066726f6d2061646472657373207265636f7665726564000081525060200191505060405180910390fd5b8183604051602001808373ffffffffffffffffffffffffffffffffffffffff1673ffffffffffffffffffffffffffffffffffffffff166c010000000000000000000000000281526014018260001916600019168152602001925050506040516020818303038152906040526040518082805190602001908083835b602083101515614e295780518252602082019150602081019050602083039250614e04565b6001836020036101000a0380198251168184511680821785525050505050509050019150506040518091039020905060001515609d6000836000191660001916815260200190815260200160002060009054906101000a900460ff161515141515614f22576040517f08c379a00000000000000000000000000000000000000000000000000000000081526004018080602001828103825260218152602001807f5472616e73616374696f6e20686173682077617320616c72656164792075736581526020017f640000000000000000000000000000000000000000000000000000000000000081525060400191505060405180910390fd5b6001609d6000836000191660001916815260200190815260200160002060006101000a81548160ff021916908315150217905550614f7c8289614f778a614f69878e614295565b61569f90919063ffffffff16565b615024565b614f8782338861527f565b3373ffffffffffffffffffffffffffffffffffffffff168873ffffffffffffffffffffffffffffffffffffffff168373ffffffffffffffffffffffffffffffffffffffff167f43a220267705e74ee2ceafd46afc841850db6f85a662189a7def697bbdd90ffb614ff7868d614295565b8a604051808381526020018281526020019250505060405180910390a46001935050505095945050505050565b600073ffffffffffffffffffffffffffffffffffffffff168273ffffffffffffffffffffffffffffffffffffffff161415151561506057600080fd5b600073ffffffffffffffffffffffffffffffffffffffff168373ffffffffffffffffffffffffffffffffffffffff161415151561509c57600080fd5b80606960008573ffffffffffffffffffffffffffffffffffffffff1673ffffffffffffffffffffffffffffffffffffffff16815260200190815260200160002060008473ffffffffffffffffffffffffffffffffffffffff1673ffffffffffffffffffffffffffffffffffffffff168152602001908152602001600020819055508173ffffffffffffffffffffffffffffffffffffffff168373ffffffffffffffffffffffffffffffffffffffff167f8c5be1e5ebec7d5bd14f71427d1e84f3dd0314c0f7b2291e5b200ac8c7c3b925836040518082815260200191505060405180910390a3505050565b600080600080604185511415156151a15760009350615276565b6020850151925060408501519150606085015160001a9050601b8160ff1610156151cc57601b810190505b601b8160ff16141580156151e45750601c8160ff1614155b156151f25760009350615276565b600186828585604051600081526020016040526040518085600019166000191681526020018460ff1660ff1681526020018360001916600019168152602001826000191660001916815260200194505050505060206040516020810390808403906000865af1158015615269573d6000803e3d6000fd5b5050506020604051035193505b50505092915050565b606860008473ffffffffffffffffffffffffffffffffffffffff1673ffffffffffffffffffffffffffffffffffffffff1681526020019081526020016000205481111515156152cd57600080fd5b600073ffffffffffffffffffffffffffffffffffffffff168273ffffffffffffffffffffffffffffffffffffffff161415151561530957600080fd5b61535b81606860008673ffffffffffffffffffffffffffffffffffffffff1673ffffffffffffffffffffffffffffffffffffffff16815260200190815260200160002054615d9290919063ffffffff16565b606860008573ffffffffffffffffffffffffffffffffffffffff1673ffffffffffffffffffffffffffffffffffffffff168152602001908152602001600020819055506153f081606860008573ffffffffffffffffffffffffffffffffffffffff1673ffffffffffffffffffffffffffffffffffffffff1681526020019081526020016000205461569f90919063ffffffff16565b606860008473ffffffffffffffffffffffffffffffffffffffff1673ffffffffffffffffffffffffffffffffffffffff168152602001908152602001600020819055508173ffffffffffffffffffffffffffffffffffffffff168373ffffffffffffffffffffffffffffffffffffffff167fddf252ad1be2c89b69c2b068fc378daa952ba7f163c4a11628f55a4df523b3ef836040518082815260200191505060405180910390a3505050565b600080303b90506000811491505090565b60006154bb84848461527f565b615554843361554f85606960008a73ffffffffffffffffffffffffffffffffffffffff1673ffffffffffffffffffffffffffffffffffffffff16815260200190815260200160002060003373ffffffffffffffffffffffffffffffffffffffff1673ffffffffffffffffffffffffffffffffffffffff16815260200190815260200160002054615d9290919063ffffffff16565b615024565b600190509392505050565b60008273ffffffffffffffffffffffffffffffffffffffff161415151561558557600080fd5b61559a81606a5461569f90919063ffffffff16565b606a819055506155f281606860008573ffffffffffffffffffffffffffffffffffffffff1673ffffffffffffffffffffffffffffffffffffffff1681526020019081526020016000205461569f90919063ffffffff16565b606860008473ffffffffffffffffffffffffffffffffffffffff1673ffffffffffffffffffffffffffffffffffffffff168152602001908152602001600020819055508173ffffffffffffffffffffffffffffffffffffffff16600073ffffffffffffffffffffffffffffffffffffffff167fddf252ad1be2c89b69c2b068fc378daa952ba7f163c4a11628f55a4df523b3ef836040518082815260200191505060405180910390a35050565b60008082840190508381101515156156b657600080fd5b8091505092915050565b82600a0a633b9aca000260b781905560a0601601819055508060b881905560a0601501819055508160a0601401819055508360b960006101000a81548173ffffffffffffffffffffffffffffffffffffffff021916908373ffffffffffffffffffffffffffffffffffffffff16021790555073__PropsRewardsLib_______________________6311cb33da60a060006187be60006040518563ffffffff167c01000000000000000000000000000000000000000000000000000000000281526004018085815260200184600381111561579657fe5b60ff16815260200183815260200182815260200194505050505060206040518083038186803b1580156157c857600080fd5b505af41580156157dc573d6000803e3d6000fd5b505050506040513d60208110156157f257600080fd5b81019080805190602001909291905050505073__PropsRewardsLib_______________________6311cb33da60a060016308f0d18060006040518563ffffffff167c01000000000000000000000000000000000000000000000000000000000281526004018085815260200184600381111561586a57fe5b60ff16815260200183815260200182815260200194505050505060206040518083038186803b15801561589c57600080fd5b505af41580156158b0573d6000803e3d6000fd5b505050506040513d60208110156158c657600080fd5b81019080805190602001909291905050505073__PropsRewardsLib_______________________6311cb33da60a060026302faf08060006040518563ffffffff167c01000000000000000000000000000000000000000000000000000000000281526004018085815260200184600381111561593e57fe5b60ff16815260200183815260200182815260200194505050505060206040518083038186803b15801561597057600080fd5b505af4158015615984573d6000803e3d6000fd5b505050506040513d602081101561599a57600080fd5b81019080805190602001909291905050505073__PropsRewardsLib_______________________6311cb33da60a0600361072560006040518563ffffffff167c010000000000000000000000000000000000000000000000000000000002815260040180858152602001846003811115615a1057fe5b60ff16815260200183815260200182815260200194505050505060206040518083038186803b158015615a4257600080fd5b505af4158015615a56573d6000803e3d6000fd5b505050506040513d6020811015615a6c57600080fd5b81019080805190602001909291905050505050505050565b60008060a0600f0160000160008560001916600019168152602001908152602001600020600101805490509150600090505b81811015615b9557615b8860a0600201600060a0600f016000016000886000191660001916815260200190815260200160002060010184815481101515615af957fe5b9060005260206000200160009054906101000a900473ffffffffffffffffffffffffffffffffffffffff1673ffffffffffffffffffffffffffffffffffffffff1673ffffffffffffffffffffffffffffffffffffffff16815260200190815260200160002060010160009054906101000a900473ffffffffffffffffffffffffffffffffffffffff168461555f565b8080600101915050615ab6565b73__PropsRewardsLib_______________________639dec8c4560a06040518263ffffffff167c01000000000000000000000000000000000000000000000000000000000281526004018082815260200191505060206040518083038186803b158015615c0157600080fd5b505af4158015615c15573d6000803e3d6000fd5b505050506040513d6020811015615c2b57600080fd5b8101908080519060200190929190505050508360001916857f07efea0e0eeb975e5404139e47d884d2705a0660a3456aa31c5694df1d8c5f1484858702604051808381526020018281526020019250505060405180910390a35050505050565b60008090505b8351811015615d4457615d3760a060000160008684815181101515615cb257fe5b9060200190602002015173ffffffffffffffffffffffffffffffffffffffff1673ffffffffffffffffffffffffffffffffffffffff16815260200190815260200160002060010160009054906101000a900473ffffffffffffffffffffffffffffffffffffffff168483815181101515615d2857fe5b9060200190602002015161555f565b8080600101915050615c91565b8460001916867fcc511f1b8ddd8ab10bcb89c26361da1c99b826350e3f38ee438134149032568a865185604051808381526020018281526020019250505060405180910390a3505050505050565b600080838311151515615da457600080fd5b82840390508091505092915050565b6000615dc033848461527f565b6001905092915050565b828054600181600116156101000203166002900490600052602060002090601f016020900481019282601f10615e0b57805160ff1916838001178555615e39565b82800160010185558215615e39579182015b82811115615e38578251825591602001919060010190615e1d565b5b509050615e469190615e4a565b5090565b615e6c91905b80821115615e68576000816000905550600101615e50565b5090565b905600a165627a7a723058203cd5e2bff51dbc2d27473b8c4980650a91ec9f8b4ac6929b715b522f969f08560029",
  "source": "pragma solidity ^0.4.24;\n\nimport \"zos-lib/contracts/Initializable.sol\";\nimport \"openzeppelin-eth/contracts/token/ERC20/ERC20Detailed.sol\";\nimport \"./PropsTimeBasedTransfers.sol\";\nimport \"./ERC865Token.sol\";\nimport \"./PropsRewards.sol\";\n\n/**\n * @title PROPSToken\n * @dev PROPS token contract (based of ZEPToken by openzeppelin), a detailed ERC20 token\n * https://github.com/zeppelinos/zos-vouching/blob/master/contracts/ZEPToken.sol\n * PROPS are divisible by 1e18 base\n * units referred to as 'AttoPROPS'.\n *\n * PROPS are displayed using 18 decimal places of precision.\n *\n * 1 PROPS is equivalent to:\n *   1 * 1e18 == 1e18 == One Quintillion AttoPROPS\n *\n * 600 Million PROPS (total supply) is equivalent to:\n *   600000000 * 1e18 == 6e26 AttoPROPS\n *\n\n */\n\n\ncontract PropsToken is Initializable, ERC20Detailed, ERC865Token, PropsTimeBasedTransfers, PropsRewards {\n\n  /**\n   * @dev Initializer function. Called only once when a proxy for the contract is created.\n   * @param _holder address that will receive it's initial supply and be able to transfer before transfers start time\n   * @param _transfersStartTime uint256 Unix Timestamp from which transfers are allowed\n   * @param _controller address that will have controller functionality on rewards protocol\n   * @param _minSecondsBetweenDays uint256 seconds required to pass between consecutive rewards day\n   * @param _rewardsStartTimestamp uint256 day 0 timestamp\n   */\n  function initialize(\n    address _holder,\n    uint256 _transfersStartTime,\n    address _controller,\n    uint256 _minSecondsBetweenDays,\n    uint256 _rewardsStartTimestamp\n  )\n    public\n    initializer\n  {\n    uint8 decimals = 18;\n    // total supply is 600,000,000 PROPS specified in AttoPROPS\n    uint256 totalSupply = 0.6 * 1e9 * (10 ** uint256(decimals));\n\n    ERC20Detailed.initialize(\"Props Token\", \"PROPS\", decimals);\n    PropsTimeBasedTransfers.initialize(_transfersStartTime, _holder);\n    PropsRewards.initialize(_controller, decimals, _minSecondsBetweenDays, _rewardsStartTimestamp);\n    _mint(_holder, totalSupply);\n  }\n\n  /**\n   * @dev Initializer for upgrade function. Called only once after upgrade\n   * @param _controller address that will have controller functionality on rewards protocol\n   * @param _minSecondsBetweenDays uint256 seconds required to pass between consecutive rewards day\n   * @param _rewardsStartTimestamp uint256 day 0 timestamp\n   */\n  function initializePostRewardsUpgrade1(address _controller, uint256 _minSecondsBetweenDays, uint256 _rewardsStartTimestamp)\n    public\n    initializer\n  {\n    uint8 decimals = 18;\n    PropsRewards.initializePostRewardsUpgrade1(_controller, decimals, _minSecondsBetweenDays, _rewardsStartTimestamp);\n  }\n\n}",
  "sourcePath": "/Users/jretina/Programming/PROPSProject/props-token-distribution/contracts/token/PropsToken.sol",
  "compiler": {
    "name": "solc",
    "version": "0.4.24+commit.e67f0147.Emscripten.clang"
  },
  "schemaVersion": "2.0.1",
  "updatedAt": "2019-05-22T16:30:58.044Z"
}