{
  "contractName": "PropsToken",
  "abi": [
    {
      "constant": true,
      "inputs": [],
      "name": "name",
      "outputs": [
        {
          "name": "",
          "type": "string"
        }
      ],
      "payable": false,
      "stateMutability": "view",
      "type": "function"
    },
    {
      "constant": false,
      "inputs": [
        {
          "name": "spender",
          "type": "address"
        },
        {
          "name": "value",
          "type": "uint256"
        }
      ],
      "name": "approve",
      "outputs": [
        {
          "name": "",
          "type": "bool"
        }
      ],
      "payable": false,
      "stateMutability": "nonpayable",
      "type": "function"
    },
    {
      "constant": false,
      "inputs": [
        {
          "name": "_signature",
          "type": "bytes"
        },
        {
          "name": "_to",
          "type": "address"
        },
        {
          "name": "_value",
          "type": "uint256"
        },
        {
          "name": "_fee",
          "type": "uint256"
        },
        {
          "name": "_nonce",
          "type": "uint256"
        }
      ],
      "name": "transferPreSigned",
      "outputs": [
        {
          "name": "",
          "type": "bool"
        }
      ],
      "payable": false,
      "stateMutability": "nonpayable",
      "type": "function"
    },
    {
      "constant": true,
      "inputs": [
        {
          "name": "_token",
          "type": "address"
        },
        {
          "name": "_to",
          "type": "address"
        },
        {
          "name": "_value",
          "type": "uint256"
        },
        {
          "name": "_fee",
          "type": "uint256"
        },
        {
          "name": "_nonce",
          "type": "uint256"
        }
      ],
      "name": "transferPreSignedHashing",
      "outputs": [
        {
          "name": "",
          "type": "bytes32"
        }
      ],
      "payable": false,
      "stateMutability": "pure",
      "type": "function"
    },
    {
      "constant": false,
      "inputs": [
        {
          "name": "to",
          "type": "address"
        },
        {
          "name": "value",
          "type": "uint256"
        }
      ],
      "name": "settle",
      "outputs": [
        {
          "name": "",
          "type": "bool"
        }
      ],
      "payable": false,
      "stateMutability": "nonpayable",
      "type": "function"
    },
    {
      "constant": true,
      "inputs": [],
      "name": "totalSupply",
      "outputs": [
        {
          "name": "",
          "type": "uint256"
        }
      ],
      "payable": false,
      "stateMutability": "view",
      "type": "function"
    },
    {
      "constant": true,
      "inputs": [
        {
          "name": "hash",
          "type": "bytes32"
        },
        {
          "name": "sig",
          "type": "bytes"
        }
      ],
      "name": "recover",
      "outputs": [
        {
          "name": "",
          "type": "address"
        }
      ],
      "payable": false,
      "stateMutability": "pure",
      "type": "function"
    },
    {
      "constant": false,
      "inputs": [
        {
          "name": "from",
          "type": "address"
        },
        {
          "name": "to",
          "type": "address"
        },
        {
          "name": "value",
          "type": "uint256"
        }
      ],
      "name": "transferFrom",
      "outputs": [
        {
          "name": "",
          "type": "bool"
        }
      ],
      "payable": false,
      "stateMutability": "nonpayable",
      "type": "function"
    },
    {
      "constant": true,
      "inputs": [],
      "name": "decimals",
      "outputs": [
        {
          "name": "",
          "type": "uint8"
        }
      ],
      "payable": false,
      "stateMutability": "view",
      "type": "function"
    },
    {
      "constant": false,
      "inputs": [
        {
          "name": "spender",
          "type": "address"
        },
        {
          "name": "addedValue",
          "type": "uint256"
        }
      ],
      "name": "increaseAllowance",
      "outputs": [
        {
          "name": "",
          "type": "bool"
        }
      ],
      "payable": false,
      "stateMutability": "nonpayable",
      "type": "function"
    },
    {
      "constant": true,
      "inputs": [],
      "name": "canTransferBeforeStartTime",
      "outputs": [
        {
          "name": "",
          "type": "address"
        }
      ],
      "payable": false,
      "stateMutability": "view",
      "type": "function"
    },
    {
      "constant": true,
      "inputs": [
        {
          "name": "_token",
          "type": "address"
        },
        {
          "name": "_spender",
          "type": "address"
        },
        {
          "name": "_subtractedValue",
          "type": "uint256"
        },
        {
          "name": "_fee",
          "type": "uint256"
        },
        {
          "name": "_nonce",
          "type": "uint256"
        }
      ],
      "name": "decreaseApprovalPreSignedHashing",
      "outputs": [
        {
          "name": "",
          "type": "bytes32"
        }
      ],
      "payable": false,
      "stateMutability": "pure",
      "type": "function"
    },
    {
      "constant": false,
      "inputs": [
        {
          "name": "_signature",
          "type": "bytes"
        },
        {
          "name": "_spender",
          "type": "address"
        },
        {
          "name": "_value",
          "type": "uint256"
        },
        {
          "name": "_fee",
          "type": "uint256"
        },
        {
          "name": "_nonce",
          "type": "uint256"
        }
      ],
      "name": "approvePreSigned",
      "outputs": [
        {
          "name": "",
          "type": "bool"
        }
      ],
      "payable": false,
      "stateMutability": "nonpayable",
      "type": "function"
    },
    {
      "constant": true,
      "inputs": [
        {
          "name": "owner",
          "type": "address"
        }
      ],
      "name": "balanceOf",
      "outputs": [
        {
          "name": "",
          "type": "uint256"
        }
      ],
      "payable": false,
      "stateMutability": "view",
      "type": "function"
    },
    {
      "constant": true,
      "inputs": [
        {
          "name": "account",
          "type": "address"
        }
      ],
      "name": "canTransfer",
      "outputs": [
        {
          "name": "",
          "type": "bool"
        }
      ],
      "payable": false,
      "stateMutability": "view",
      "type": "function"
    },
    {
      "constant": false,
      "inputs": [
        {
          "name": "_signature",
          "type": "bytes"
        },
        {
          "name": "_spender",
          "type": "address"
        },
        {
          "name": "_subtractedValue",
          "type": "uint256"
        },
        {
          "name": "_fee",
          "type": "uint256"
        },
        {
          "name": "_nonce",
          "type": "uint256"
        }
      ],
      "name": "decreaseApprovalPreSigned",
      "outputs": [
        {
          "name": "",
          "type": "bool"
        }
      ],
      "payable": false,
      "stateMutability": "nonpayable",
      "type": "function"
    },
    {
      "constant": true,
      "inputs": [],
      "name": "symbol",
      "outputs": [
        {
          "name": "",
          "type": "string"
        }
      ],
      "payable": false,
      "stateMutability": "view",
      "type": "function"
    },
    {
      "constant": false,
      "inputs": [
        {
          "name": "spender",
          "type": "address"
        },
        {
          "name": "subtractedValue",
          "type": "uint256"
        }
      ],
      "name": "decreaseAllowance",
      "outputs": [
        {
          "name": "",
          "type": "bool"
        }
      ],
      "payable": false,
      "stateMutability": "nonpayable",
      "type": "function"
    },
    {
      "constant": true,
      "inputs": [
        {
          "name": "_token",
          "type": "address"
        },
        {
          "name": "_spender",
          "type": "address"
        },
        {
          "name": "_addedValue",
          "type": "uint256"
        },
        {
          "name": "_fee",
          "type": "uint256"
        },
        {
          "name": "_nonce",
          "type": "uint256"
        }
      ],
      "name": "increaseApprovalPreSignedHashing",
      "outputs": [
        {
          "name": "",
          "type": "bytes32"
        }
      ],
      "payable": false,
      "stateMutability": "pure",
      "type": "function"
    },
    {
      "constant": false,
      "inputs": [
        {
          "name": "to",
          "type": "address"
        },
        {
          "name": "value",
          "type": "uint256"
        }
      ],
      "name": "transfer",
      "outputs": [
        {
          "name": "",
          "type": "bool"
        }
      ],
      "payable": false,
      "stateMutability": "nonpayable",
      "type": "function"
    },
    {
      "constant": false,
      "inputs": [
        {
          "name": "_signature",
          "type": "bytes"
        },
        {
          "name": "_spender",
          "type": "address"
        },
        {
          "name": "_addedValue",
          "type": "uint256"
        },
        {
          "name": "_fee",
          "type": "uint256"
        },
        {
          "name": "_nonce",
          "type": "uint256"
        }
      ],
      "name": "increaseApprovalPreSigned",
      "outputs": [
        {
          "name": "",
          "type": "bool"
        }
      ],
      "payable": false,
      "stateMutability": "nonpayable",
      "type": "function"
    },
    {
      "constant": true,
      "inputs": [
        {
          "name": "_token",
          "type": "address"
        },
        {
          "name": "_from",
          "type": "address"
        },
        {
          "name": "_to",
          "type": "address"
        },
        {
          "name": "_value",
          "type": "uint256"
        },
        {
          "name": "_fee",
          "type": "uint256"
        },
        {
          "name": "_nonce",
          "type": "uint256"
        }
      ],
      "name": "transferFromPreSignedHashing",
      "outputs": [
        {
          "name": "",
          "type": "bytes32"
        }
      ],
      "payable": false,
      "stateMutability": "pure",
      "type": "function"
    },
    {
      "constant": false,
      "inputs": [
        {
          "name": "_signature",
          "type": "bytes"
        },
        {
          "name": "_from",
          "type": "address"
        },
        {
          "name": "_to",
          "type": "address"
        },
        {
          "name": "_value",
          "type": "uint256"
        },
        {
          "name": "_fee",
          "type": "uint256"
        },
        {
          "name": "_nonce",
          "type": "uint256"
        }
      ],
      "name": "transferFromPreSigned",
      "outputs": [
        {
          "name": "",
          "type": "bool"
        }
      ],
      "payable": false,
      "stateMutability": "nonpayable",
      "type": "function"
    },
    {
      "constant": true,
      "inputs": [],
      "name": "transfersStartTime",
      "outputs": [
        {
          "name": "",
          "type": "uint256"
        }
      ],
      "payable": false,
      "stateMutability": "view",
      "type": "function"
    },
    {
      "constant": true,
      "inputs": [
        {
          "name": "owner",
          "type": "address"
        },
        {
          "name": "spender",
          "type": "address"
        }
      ],
      "name": "allowance",
      "outputs": [
        {
          "name": "",
          "type": "uint256"
        }
      ],
      "payable": false,
      "stateMutability": "view",
      "type": "function"
    },
    {
      "constant": true,
      "inputs": [
        {
          "name": "_token",
          "type": "address"
        },
        {
          "name": "_spender",
          "type": "address"
        },
        {
          "name": "_value",
          "type": "uint256"
        },
        {
          "name": "_fee",
          "type": "uint256"
        },
        {
          "name": "_nonce",
          "type": "uint256"
        }
      ],
      "name": "approvePreSignedHashing",
      "outputs": [
        {
          "name": "",
          "type": "bytes32"
        }
      ],
      "payable": false,
      "stateMutability": "pure",
      "type": "function"
    },
    {
      "anonymous": false,
      "inputs": [
        {
          "indexed": true,
          "name": "from",
          "type": "address"
        },
        {
          "indexed": true,
          "name": "to",
          "type": "address"
        },
        {
          "indexed": true,
          "name": "delegate",
          "type": "address"
        },
        {
          "indexed": false,
          "name": "amount",
          "type": "uint256"
        },
        {
          "indexed": false,
          "name": "fee",
          "type": "uint256"
        }
      ],
      "name": "TransferPreSigned",
      "type": "event"
    },
    {
      "anonymous": false,
      "inputs": [
        {
          "indexed": true,
          "name": "from",
          "type": "address"
        },
        {
          "indexed": true,
          "name": "to",
          "type": "address"
        },
        {
          "indexed": true,
          "name": "delegate",
          "type": "address"
        },
        {
          "indexed": false,
          "name": "amount",
          "type": "uint256"
        },
        {
          "indexed": false,
          "name": "fee",
          "type": "uint256"
        }
      ],
      "name": "ApprovalPreSigned",
      "type": "event"
    },
    {
      "anonymous": false,
      "inputs": [
        {
          "indexed": false,
          "name": "from",
          "type": "address"
        },
        {
          "indexed": false,
          "name": "fromBalance",
          "type": "uint256"
        },
        {
          "indexed": false,
          "name": "to",
          "type": "address"
        },
        {
          "indexed": false,
          "name": "toBalance",
          "type": "uint256"
        },
        {
          "indexed": false,
          "name": "amount",
          "type": "uint256"
        }
      ],
      "name": "TransferDetails",
      "type": "event"
    },
    {
      "anonymous": false,
      "inputs": [
        {
          "indexed": false,
          "name": "timestamp",
          "type": "uint256"
        },
        {
          "indexed": false,
          "name": "from",
          "type": "address"
        },
        {
          "indexed": false,
          "name": "recipient",
          "type": "address"
        },
        {
          "indexed": false,
          "name": "amount",
          "type": "uint256"
        }
      ],
      "name": "Settlement",
      "type": "event"
    },
    {
      "anonymous": false,
      "inputs": [
        {
          "indexed": true,
          "name": "from",
          "type": "address"
        },
        {
          "indexed": true,
          "name": "to",
          "type": "address"
        },
        {
          "indexed": false,
          "name": "value",
          "type": "uint256"
        }
      ],
      "name": "Transfer",
      "type": "event"
    },
    {
      "anonymous": false,
      "inputs": [
        {
          "indexed": true,
          "name": "owner",
          "type": "address"
        },
        {
          "indexed": true,
          "name": "spender",
          "type": "address"
        },
        {
          "indexed": false,
          "name": "value",
          "type": "uint256"
        }
      ],
      "name": "Approval",
      "type": "event"
    },
    {
      "constant": false,
      "inputs": [
        {
          "name": "name",
          "type": "string"
        },
        {
          "name": "symbol",
          "type": "string"
        },
        {
          "name": "decimals",
          "type": "uint8"
        }
      ],
      "name": "initialize",
      "outputs": [],
      "payable": false,
      "stateMutability": "nonpayable",
      "type": "function"
    },
    {
      "constant": false,
      "inputs": [
        {
          "name": "_holder",
          "type": "address"
        },
        {
          "name": "_transfersStartTime",
          "type": "uint256"
        }
      ],
      "name": "initialize",
      "outputs": [],
      "payable": false,
      "stateMutability": "nonpayable",
      "type": "function"
    },
    {
      "constant": false,
      "inputs": [
        {
          "name": "start",
          "type": "uint256"
        },
        {
          "name": "account",
          "type": "address"
        }
      ],
      "name": "initialize",
      "outputs": [],
      "payable": false,
      "stateMutability": "nonpayable",
      "type": "function"
    }
  ],
  "bytecode": "0x608060405234801561001057600080fd5b506121d2806100206000396000f3006080604052600436106101745763ffffffff7c010000000000000000000000000000000000000000000000000000000060003504166306fdde038114610179578063095ea7b3146102035780631296830d1461023b57806315420b71146102ae57806315afd409146102f05780631624f6c61461031457806318160ddd146103b257806319045a25146103c757806323b872dd14610441578063313ce5671461046b578063395093511461049657806345b6d7dc146104ba57806359388d78146104cf578063617b390b146104ff57806370a082311461057257806378fc3cb3146105935780638be52783146105b457806395d89b4114610627578063a457c2d71461063c578063a45f71ff14610660578063a9059cbb14610690578063adb8249e146106b4578063b7656dc514610727578063bca505151461075d578063cd6dc687146107da578063d0f22e9c146107fe578063da35a26f14610813578063dd62ed3e14610837578063f7ac9c2e1461085e575b600080fd5b34801561018557600080fd5b5061018e61088e565b6040805160208082528351818301528351919283929083019185019080838360005b838110156101c85781810151838201526020016101b0565b50505050905090810190601f1680156101f55780820380516001836020036101000a031916815260200191505b509250505060405180910390f35b34801561020f57600080fd5b50610227600160a060020a0360043516602435610925565b604080519115158252519081900360200190f35b34801561024757600080fd5b506040805160206004803580820135601f810184900484028501840190955284845261022794369492936024939284019190819084018382808284375094975050508335600160a060020a031694505050602082013591604081013591506060013561093c565b3480156102ba57600080fd5b506102de600160a060020a0360043581169060243516604435606435608435610ad1565b60408051918252519081900360200190f35b3480156102fc57600080fd5b50610227600160a060020a0360043516602435610bb5565b34801561032057600080fd5b506040805160206004803580820135601f81018490048402850184019095528484526103b094369492936024939284019190819084018382808284375050604080516020601f89358b018035918201839004830284018301909452808352979a9998810197919650918201945092508291508401838280828437509497505050923560ff169350610c9592505050565b005b3480156103be57600080fd5b506102de610dce565b3480156103d357600080fd5b5060408051602060046024803582810135601f8101859004850286018501909652858552610425958335953695604494919390910191908190840183828082843750949750610dd49650505050505050565b60408051600160a060020a039092168252519081900360200190f35b34801561044d57600080fd5b50610227600160a060020a0360043581169060243516604435610e99565b34801561047757600080fd5b50610480610f26565b6040805160ff9092168252519081900360200190f35b3480156104a257600080fd5b50610227600160a060020a0360043516602435610f2f565b3480156104c657600080fd5b50610425610f70565b3480156104db57600080fd5b506102de600160a060020a0360043581169060243516604435606435608435610f7f565b34801561050b57600080fd5b506040805160206004803580820135601f810184900484028501840190955284845261022794369492936024939284019190819084018382808284375094975050508335600160a060020a031694505050602082013591604081013591506060013561102c565b34801561057e57600080fd5b506102de600160a060020a03600435166111c1565b34801561059f57600080fd5b50610227600160a060020a03600435166111dc565b3480156105c057600080fd5b506040805160206004803580820135601f810184900484028501840190955284845261022794369492936024939284019190819084018382808284375094975050508335600160a060020a03169450505060208201359160408101359150606001356111fe565b34801561063357600080fd5b5061018e6113d8565b34801561064857600080fd5b50610227600160a060020a0360043516602435611439565b34801561066c57600080fd5b506102de600160a060020a0360043581169060243516604435606435608435611475565b34801561069c57600080fd5b50610227600160a060020a0360043516602435611522565b3480156106c057600080fd5b506040805160206004803580820135601f810184900484028501840190955284845261022794369492936024939284019190819084018382808284375094975050508335600160a060020a03169450505060208201359160408101359150606001356115a4565b34801561073357600080fd5b506102de600160a060020a036004358116906024358116906044351660643560843560a435611757565b34801561076957600080fd5b506040805160206004803580820135601f810184900484028501840190955284845261022794369492936024939284019190819084018382808284375094975050600160a060020a038535811696506020860135169460408101359450606081013593506080013591506118469050565b3480156107e657600080fd5b506103b0600160a060020a03600435166024356119a8565b34801561080a57600080fd5b506102de611b42565b34801561081f57600080fd5b506103b0600435600160a060020a0360243516611b48565b34801561084357600080fd5b506102de600160a060020a0360043581169060243516611c65565b34801561086a57600080fd5b506102de600160a060020a0360043581169060243516604435606435608435611c90565b60338054604080516020601f600260001961010060018816150201909516949094049384018190048102820181019092528281526060939092909183018282801561091a5780601f106108ef5761010080835404028352916020019161091a565b820191906000526020600020905b8154815290600101906020018083116108fd57829003601f168201915b505050505090505b90565b6000610932338484611d3d565b5060015b92915050565b60008080600160a060020a038716151561095557600080fd5b609d886040518082805190602001908083835b602083106109875780518252601f199092019160209182019101610968565b51815160209384036101000a600019018019909216911617905292019485525060405193849003019092205460ff161591506109c4905057600080fd5b6109d13088888888610ad1565b91506109dd8289610dd4565b9050600160a060020a03811615156109f457600080fd5b6109ff818888611dc9565b610a0a813387611dc9565b6001609d896040518082805190602001908083835b60208310610a3e5780518252601f199092019160209182019101610a1f565b51815160209384036101000a6000190180199092169116179052920194855250604080519485900382018520805460ff1916961515969096179095558a84528301899052505081513392600160a060020a038b811693908616927fec5a73fd1f178be20c1bca1b406cbf4b5c20d833b66e582fc122fb4baa0fc2a4929181900390910190a4506001979650505050505050565b604080517f48664c16000000000000000000000000000000000000000000000000000000006020808301919091526c01000000000000000000000000600160a060020a03808a16820260248501528816026038830152604c8201869052606c8201859052608c8083018590528351808403909101815260ac909201928390528151600093918291908401908083835b60208310610b7f5780518252601f199092019160209182019101610b60565b5181516020939093036101000a600019018019909116921691909117905260405192018290039091209998505050505050505050565b6000610bc18383611ebd565b15610c8c577f850383053a4e0cc8b97828882fc80543c308bd075cc5bc454b28243814fa884633610bf1336111c1565b85610bfb876111c1565b60408051600160a060020a0395861681526020810194909452919093168282015260608201929092526080810185905290519081900360a00190a160408051428152336020820152600160a060020a038516818301526060810184905290517f694d4af865c381294c69b304b233e65cd773b9dff4f5563d50d5424fe5a33c3e9181900360800190a1506001610936565b50600092915050565b60008054610100900460ff1680610caf5750610caf611eca565b80610cbd575060005460ff16155b1515610d5057604080517f08c379a000000000000000000000000000000000000000000000000000000000815260206004820152602e60248201527f436f6e747261637420696e7374616e63652068617320616c726561647920626560448201527f656e20696e697469616c697a6564000000000000000000000000000000000000606482015290519081900360840190fd5b5060008054600161010061ff00198316811760ff191691909117909255845191900460ff1690610d87906033906020870190612118565b508251610d9b906034906020860190612118565b506035805460ff90931660ff1990931692909217909155600080549115156101000261ff00199092169190911790555050565b606a5490565b60008060008084516041141515610dee5760009350610e90565b50505060208201516040830151606084015160001a601b60ff821614801590610e1b57508060ff16601c14155b15610e295760009350610e90565b60408051600080825260208083018085528a905260ff8516838501526060830187905260808301869052925160019360a0808501949193601f19840193928390039091019190865af1158015610e83573d6000803e3d6000fd5b5050506020604051035193505b50505092915050565b6000610ea4336111dc565b1515610f1157604080517f08c379a000000000000000000000000000000000000000000000000000000000815260206004820152601c60248201527f5472616e736665727320617265206e6f74207965742061637469766500000000604482015290519081900360640190fd5b610f1c848484611ed4565b90505b9392505050565b60355460ff1690565b336000818152606960209081526040808320600160a060020a03871684529091528120549091610932918590610f6b908663ffffffff611f6816565b611d3d565b609f54600160a060020a031681565b604080517f59388d78000000000000000000000000000000000000000000000000000000006020808301919091526c01000000000000000000000000600160a060020a03808a16820260248501528816026038830152604c8201869052606c8201859052608c8083018590528351808403909101815260ac9092019283905281516000939182919084019080838360208310610b7f5780518252601f199092019160209182019101610b60565b60008080600160a060020a038716151561104557600080fd5b609d886040518082805190602001908083835b602083106110775780518252601f199092019160209182019101611058565b51815160209384036101000a600019018019909216911617905292019485525060405193849003019092205460ff161591506110b4905057600080fd5b6110c13088888888611c90565b91506110cd8289610dd4565b9050600160a060020a03811615156110e457600080fd5b6110ef818888611d3d565b6110fa813387611dc9565b6001609d896040518082805190602001908083835b6020831061112e5780518252601f19909201916020918201910161110f565b51815160209384036101000a6000190180199092169116179052920194855250604080519485900382018520805460ff1916961515969096179095558a84528301899052505081513392600160a060020a038b811693908616927f43a220267705e74ee2ceafd46afc841850db6f85a662189a7def697bbdd90ffb929181900390910190a4506001979650505050505050565b600160a060020a031660009081526068602052604090205490565b6000609e54421180610936575050609f54600160a060020a0390811691161490565b6000808080600160a060020a038816151561121857600080fd5b609d896040518082805190602001908083835b6020831061124a5780518252601f19909201916020918201910161122b565b51815160209384036101000a600019018019909216911617905292019485525060405193849003019092205460ff16159150611287905057600080fd5b6112943089898989610f7f565b92506112a0838a610dd4565b9150600160a060020a03821615156112b757600080fd5b6112c18289611c65565b9050808711156112dc576112d782896000611d3d565b6112fb565b6112fb8289610f6b8a6112ef878e611c65565b9063ffffffff611f7a16565b611306823388611dc9565b6001609d8a6040518082805190602001908083835b6020831061133a5780518252601f19909201916020918201910161131b565b51815160209384036101000a60001901801990921691161790529201948552506040519384900301909220805460ff19169315159390931790925550339050600160a060020a038981169084167f43a220267705e74ee2ceafd46afc841850db6f85a662189a7def697bbdd90ffb6113b2868d611c65565b60408051918252602082018c90528051918290030190a450600198975050505050505050565b60348054604080516020601f600260001961010060018816150201909516949094049384018190048102820181019092528281526060939092909183018282801561091a5780601f106108ef5761010080835404028352916020019161091a565b336000818152606960209081526040808320600160a060020a03871684529091528120549091610932918590610f6b908663ffffffff611f7a16565b604080517fa45f71ff000000000000000000000000000000000000000000000000000000006020808301919091526c01000000000000000000000000600160a060020a03808a16820260248501528816026038830152604c8201869052606c8201859052608c8083018590528351808403909101815260ac9092019283905281516000939182919084019080838360208310610b7f5780518252601f199092019160209182019101610b60565b600061152d336111dc565b151561159a57604080517f08c379a000000000000000000000000000000000000000000000000000000000815260206004820152601c60248201527f5472616e736665727320617265206e6f74207965742061637469766500000000604482015290519081900360640190fd5b610f1f8383611f91565b60008080600160a060020a03871615156115bd57600080fd5b609d886040518082805190602001908083835b602083106115ef5780518252601f1990920191602091820191016115d0565b51815160209384036101000a600019018019909216911617905292019485525060405193849003019092205460ff1615915061162c905057600080fd5b6116393088888888611475565b91506116458289610dd4565b9050600160a060020a038116151561165c57600080fd5b61167b8188610f6b8961166f868d611c65565b9063ffffffff611f6816565b611686813387611dc9565b6001609d896040518082805190602001908083835b602083106116ba5780518252601f19909201916020918201910161169b565b51815160209384036101000a60001901801990921691161790529201948552506040519384900301909220805460ff19169315159390931790925550339050600160a060020a038881169083167f43a220267705e74ee2ceafd46afc841850db6f85a662189a7def697bbdd90ffb611732858c611c65565b60408051918252602082018b90528051918290030190a4506001979650505050505050565b604080517fb7656dc5000000000000000000000000000000000000000000000000000000006020808301919091526c01000000000000000000000000600160a060020a03808b1682026024850152808a1682026038850152881602604c830152606082018690526080820185905260a08083018590528351808403909101815260c0909201928390528151600093918291908401908083835b6020831061180f5780518252601f1990920191602091820191016117f0565b5181516020939093036101000a600019018019909116921691909117905260405192018290039091209a9950505050505050505050565b60008080600160a060020a038716151561185f57600080fd5b609d896040518082805190602001908083835b602083106118915780518252601f199092019160209182019101611872565b51815160209384036101000a600019018019909216911617905292019485525060405193849003019092205460ff161591506118ce905057600080fd5b6118dc308989898989611757565b91506118e8828a610dd4565b9050600160a060020a03811615156118ff57600080fd5b61190a888888611dc9565b61191d8882610f6b896112ef8d87611c65565b611928813387611dc9565b6001609d8a6040518082805190602001908083835b6020831061195c5780518252601f19909201916020918201910161193d565b51815160209384036101000a60001901801990921691161790529201948552506040519384900301909220805460ff1916931515939093179092555060019a9950505050505050505050565b6000805481908190610100900460ff16806119c657506119c6611eca565b806119d4575060005460ff16155b1515611a6757604080517f08c379a000000000000000000000000000000000000000000000000000000000815260206004820152602e60248201527f436f6e747261637420696e7374616e63652068617320616c726561647920626560448201527f656e20696e697469616c697a6564000000000000000000000000000000000000606482015290519081900360840190fd5b505060008054600161010061ff00198316811760ff19169190911790925560408051808201825260098082527f4445565f546f6b656e000000000000000000000000000000000000000000000060208084019190915283518085019094529083527f4445565f544f4b454e000000000000000000000000000000000000000000000090830152601294506b01f04ef12cb04cf1580000009390920460ff1691611b109185610c95565b611b1a8486611b48565b611b24858361201a565b600080549115156101000261ff001990921691909117905550505050565b609e5481565b60008054610100900460ff1680611b625750611b62611eca565b80611b70575060005460ff16155b1515611c0357604080517f08c379a000000000000000000000000000000000000000000000000000000000815260206004820152602e60248201527f436f6e747261637420696e7374616e63652068617320616c726561647920626560448201527f656e20696e697469616c697a6564000000000000000000000000000000000000606482015290519081900360840190fd5b5060008054609e93909355609f805473ffffffffffffffffffffffffffffffffffffffff1916600160a060020a03939093169290921790915561ff001980831661010090811760ff19166001179091169281900460ff16151502919091179055565b600160a060020a03918216600090815260696020908152604080832093909416825291909152205490565b604080517ff7ac9c2e000000000000000000000000000000000000000000000000000000006020808301919091526c01000000000000000000000000600160a060020a03808a16820260248501528816026038830152604c8201869052606c8201859052608c8083018590528351808403909101815260ac9092019283905281516000939182919084019080838360208310610b7f5780518252601f199092019160209182019101610b60565b600160a060020a0382161515611d5257600080fd5b600160a060020a0383161515611d6757600080fd5b600160a060020a03808416600081815260696020908152604080832094871680845294825291829020859055815185815291517f8c5be1e5ebec7d5bd14f71427d1e84f3dd0314c0f7b2291e5b200ac8c7c3b9259281900390910190a3505050565b600160a060020a038316600090815260686020526040902054811115611dee57600080fd5b600160a060020a0382161515611e0357600080fd5b600160a060020a038316600090815260686020526040902054611e2c908263ffffffff611f7a16565b600160a060020a038085166000908152606860205260408082209390935590841681522054611e61908263ffffffff611f6816565b600160a060020a0380841660008181526068602090815260409182902094909455805185815290519193928716927fddf252ad1be2c89b69c2b068fc378daa952ba7f163c4a11628f55a4df523b3ef92918290030190a3505050565b6000610932338484611dc9565b303b8015905b5090565b6000611ee18484846120c6565b15611f5e577f850383053a4e0cc8b97828882fc80543c308bd075cc5bc454b28243814fa884684611f11866111c1565b85611f1b876111c1565b60408051600160a060020a0395861681526020810194909452919093168282015260608201929092526080810185905290519081900360a00190a1506001610f1f565b5060009392505050565b600082820183811015610f1f57600080fd5b60008083831115611f8a57600080fd5b5050900390565b6000611f9d8383611ebd565b15610c8c577f850383053a4e0cc8b97828882fc80543c308bd075cc5bc454b28243814fa884633611fcd336111c1565b85611fd7876111c1565b60408051600160a060020a0395861681526020810194909452919093168282015260608201929092526080810185905290519081900360a00190a1506001610936565b600160a060020a038216151561202f57600080fd5b606a54612042908263ffffffff611f6816565b606a55600160a060020a03821660009081526068602052604090205461206e908263ffffffff611f6816565b600160a060020a03831660008181526068602090815260408083209490945583518581529351929391927fddf252ad1be2c89b69c2b068fc378daa952ba7f163c4a11628f55a4df523b3ef9281900390910190a35050565b60006120d3848484611dc9565b600160a060020a03841660009081526069602090815260408083203380855292529091205461210e918691610f6b908663ffffffff611f7a16565b5060019392505050565b828054600181600116156101000203166002900490600052602060002090601f016020900481019282601f1061215957805160ff1916838001178555612186565b82800160010185558215612186579182015b8281111561218657825182559160200191906001019061216b565b50611ed0926109229250905b80821115611ed057600081556001016121925600a165627a7a7230582043430f5e13767f7c88e5102b1a2e8487f9c2a16912129dae08ca6b786fde472a0029",
  "source": "pragma solidity ^0.4.24;\n\nimport \"zos-lib/contracts/Initializable.sol\";\nimport \"openzeppelin-eth/contracts/token/ERC20/ERC20Detailed.sol\";\nimport \"./PropsSidechainCompatible.sol\";\nimport \"./PropsTimeBasedTransfers.sol\";\nimport \"./ERC865Token.sol\";\n\n/**\n * @title PROPSToken\n * @dev PROPS token contract (based of ZEPToken by openzeppelin), a detailed ERC20 including pausable functionality.\n * The TPLToken integration causes tokens to only be transferrable to addresses\n * which have the validRecipient attribute in the jurisdiction.\n */\ncontract PropsToken is Initializable, ERC20Detailed, PropsSidechainCompatible, ERC865Token, PropsTimeBasedTransfers {\n\n  /**\n   * @dev Initializer function. Called only once when a proxy for the contract is created.\n   * @param _holder Address that will receive it's initial supply and be able to transfer before transfers start time\n   * @param _transfersStartTime Timestamp from which transfers are allowed   \n   */\n  function initialize(\n    address _holder,\n    uint _transfersStartTime\n  )\n    initializer\n    public\n  {\n    uint8 decimals = 18;\n    uint256 totalSupply = 0.6 * 1e9 * (10 ** uint256(decimals));\n    \n    ERC20Detailed.initialize(\"DEV_Token\", \"DEV_TOKEN\", decimals);\n    PropsTimeBasedTransfers.initialize(_transfersStartTime, _holder);    \n    _mint(_holder, totalSupply);\n  }\n\n}",
  "sourcePath": "/Users/jretina/Programming/PROPSProject/props-token-distribution/contracts/token/PropsToken.sol",
  "compiler": {
    "name": "solc",
    "version": "0.4.24+commit.e67f0147.Emscripten.clang"
  },
  "schemaVersion": "2.0.1",
  "updatedAt": "2019-01-30T10:52:17.197Z"
}