{
  "contractName": "PropsSidechainCompatible",
  "abi": [
    {
      "constant": false,
      "inputs": [
        {
          "name": "spender",
          "type": "address"
        },
        {
          "name": "value",
          "type": "uint256"
        }
      ],
      "name": "approve",
      "outputs": [
        {
          "name": "",
          "type": "bool"
        }
      ],
      "payable": false,
      "stateMutability": "nonpayable",
      "type": "function"
    },
    {
      "constant": true,
      "inputs": [],
      "name": "totalSupply",
      "outputs": [
        {
          "name": "",
          "type": "uint256"
        }
      ],
      "payable": false,
      "stateMutability": "view",
      "type": "function"
    },
    {
      "constant": false,
      "inputs": [
        {
          "name": "spender",
          "type": "address"
        },
        {
          "name": "addedValue",
          "type": "uint256"
        }
      ],
      "name": "increaseAllowance",
      "outputs": [
        {
          "name": "",
          "type": "bool"
        }
      ],
      "payable": false,
      "stateMutability": "nonpayable",
      "type": "function"
    },
    {
      "constant": true,
      "inputs": [
        {
          "name": "owner",
          "type": "address"
        }
      ],
      "name": "balanceOf",
      "outputs": [
        {
          "name": "",
          "type": "uint256"
        }
      ],
      "payable": false,
      "stateMutability": "view",
      "type": "function"
    },
    {
      "constant": false,
      "inputs": [
        {
          "name": "spender",
          "type": "address"
        },
        {
          "name": "subtractedValue",
          "type": "uint256"
        }
      ],
      "name": "decreaseAllowance",
      "outputs": [
        {
          "name": "",
          "type": "bool"
        }
      ],
      "payable": false,
      "stateMutability": "nonpayable",
      "type": "function"
    },
    {
      "constant": true,
      "inputs": [
        {
          "name": "owner",
          "type": "address"
        },
        {
          "name": "spender",
          "type": "address"
        }
      ],
      "name": "allowance",
      "outputs": [
        {
          "name": "",
          "type": "uint256"
        }
      ],
      "payable": false,
      "stateMutability": "view",
      "type": "function"
    },
    {
      "anonymous": false,
      "inputs": [
        {
          "indexed": false,
          "name": "from",
          "type": "address"
        },
        {
          "indexed": false,
          "name": "fromBalance",
          "type": "uint256"
        },
        {
          "indexed": false,
          "name": "to",
          "type": "address"
        },
        {
          "indexed": false,
          "name": "toBalance",
          "type": "uint256"
        },
        {
          "indexed": false,
          "name": "amount",
          "type": "uint256"
        }
      ],
      "name": "TransferDetails",
      "type": "event"
    },
    {
      "anonymous": false,
      "inputs": [
        {
          "indexed": false,
          "name": "timestamp",
          "type": "uint256"
        },
        {
          "indexed": false,
          "name": "from",
          "type": "address"
        },
        {
          "indexed": false,
          "name": "recipient",
          "type": "address"
        },
        {
          "indexed": false,
          "name": "amount",
          "type": "uint256"
        }
      ],
      "name": "Settlement",
      "type": "event"
    },
    {
      "anonymous": false,
      "inputs": [
        {
          "indexed": true,
          "name": "from",
          "type": "address"
        },
        {
          "indexed": true,
          "name": "to",
          "type": "address"
        },
        {
          "indexed": false,
          "name": "value",
          "type": "uint256"
        }
      ],
      "name": "Transfer",
      "type": "event"
    },
    {
      "anonymous": false,
      "inputs": [
        {
          "indexed": true,
          "name": "owner",
          "type": "address"
        },
        {
          "indexed": true,
          "name": "spender",
          "type": "address"
        },
        {
          "indexed": false,
          "name": "value",
          "type": "uint256"
        }
      ],
      "name": "Approval",
      "type": "event"
    },
    {
      "constant": false,
      "inputs": [
        {
          "name": "to",
          "type": "address"
        },
        {
          "name": "value",
          "type": "uint256"
        }
      ],
      "name": "transfer",
      "outputs": [
        {
          "name": "",
          "type": "bool"
        }
      ],
      "payable": false,
      "stateMutability": "nonpayable",
      "type": "function"
    },
    {
      "constant": false,
      "inputs": [
        {
          "name": "from",
          "type": "address"
        },
        {
          "name": "to",
          "type": "address"
        },
        {
          "name": "value",
          "type": "uint256"
        }
      ],
      "name": "transferFrom",
      "outputs": [
        {
          "name": "",
          "type": "bool"
        }
      ],
      "payable": false,
      "stateMutability": "nonpayable",
      "type": "function"
    },
    {
      "constant": false,
      "inputs": [
        {
          "name": "to",
          "type": "address"
        },
        {
          "name": "value",
          "type": "uint256"
        }
      ],
      "name": "settle",
      "outputs": [
        {
          "name": "",
          "type": "bool"
        }
      ],
      "payable": false,
      "stateMutability": "nonpayable",
      "type": "function"
    }
  ],
  "bytecode": "0x608060405234801561001057600080fd5b50610771806100206000396000f3006080604052600436106100985763ffffffff7c0100000000000000000000000000000000000000000000000000000000600035041663095ea7b3811461009d57806315afd409146100d557806318160ddd146100f957806323b872dd14610120578063395093511461014a57806370a082311461016e578063a457c2d71461018f578063a9059cbb146101b3578063dd62ed3e146101d7575b600080fd5b3480156100a957600080fd5b506100c1600160a060020a03600435166024356101fe565b604080519115158252519081900360200190f35b3480156100e157600080fd5b506100c1600160a060020a036004351660243561027d565b34801561010557600080fd5b5061010e61035d565b60408051918252519081900360200190f35b34801561012c57600080fd5b506100c1600160a060020a0360043581169060243516604435610363565b34801561015657600080fd5b506100c1600160a060020a03600435166024356103f8565b34801561017a57600080fd5b5061010e600160a060020a03600435166104a8565b34801561019b57600080fd5b506100c1600160a060020a03600435166024356104c3565b3480156101bf57600080fd5b506100c1600160a060020a036004351660243561050e565b3480156101e357600080fd5b5061010e600160a060020a036004358116906024351661054a565b6000600160a060020a038316151561021557600080fd5b336000818152603460209081526040808320600160a060020a03881680855290835292819020869055805186815290519293927f8c5be1e5ebec7d5bd14f71427d1e84f3dd0314c0f7b2291e5b200ac8c7c3b925929181900390910190a35060015b92915050565b60006102898383610575565b156103545760408051428152336020820152600160a060020a038516818301526060810184905290517f694d4af865c381294c69b304b233e65cd773b9dff4f5563d50d5424fe5a33c3e9181900360800190a17f850383053a4e0cc8b97828882fc80543c308bd075cc5bc454b28243814fa884633610307336104a8565b85610311876104a8565b60408051600160a060020a0395861681526020810194909452919093168282015260608201929092526080810185905290519081900360a00190a1506001610277565b50600092915050565b60355490565b600061037084848461058b565b156103ed577f850383053a4e0cc8b97828882fc80543c308bd075cc5bc454b28243814fa8846846103a0866104a8565b856103aa876104a8565b60408051600160a060020a0395861681526020810194909452919093168282015260608201929092526080810185905290519081900360a00190a15060016103f1565b5060005b9392505050565b6000600160a060020a038316151561040f57600080fd5b336000908152603460209081526040808320600160a060020a0387168452909152902054610443908363ffffffff61062816565b336000818152603460209081526040808320600160a060020a0389168085529083529281902085905580519485525191937f8c5be1e5ebec7d5bd14f71427d1e84f3dd0314c0f7b2291e5b200ac8c7c3b925929081900390910190a350600192915050565b600160a060020a031660009081526033602052604090205490565b6000600160a060020a03831615156104da57600080fd5b336000908152603460209081526040808320600160a060020a0387168452909152902054610443908363ffffffff61063a16565b600061051a8383610575565b15610354577f850383053a4e0cc8b97828882fc80543c308bd075cc5bc454b28243814fa884633610307336104a8565b600160a060020a03918216600090815260346020908152604080832093909416825291909152205490565b6000610582338484610651565b50600192915050565b600160a060020a03831660009081526034602090815260408083203384529091528120548211156105bb57600080fd5b600160a060020a03841660009081526034602090815260408083203384529091529020546105ef908363ffffffff61063a16565b600160a060020a038516600090815260346020908152604080832033845290915290205561061e848484610651565b5060019392505050565b6000828201838110156103f157600080fd5b6000808383111561064a57600080fd5b5050900390565b600160a060020a03831660009081526033602052604090205481111561067657600080fd5b600160a060020a038216151561068b57600080fd5b600160a060020a0383166000908152603360205260409020546106b4908263ffffffff61063a16565b600160a060020a0380851660009081526033602052604080822093909355908416815220546106e9908263ffffffff61062816565b600160a060020a0380841660008181526033602090815260409182902094909455805185815290519193928716927fddf252ad1be2c89b69c2b068fc378daa952ba7f163c4a11628f55a4df523b3ef92918290030190a35050505600a165627a7a723058201e8fb67bc3ccb70d6ba10eda5da97582f3d8ee6e488d9120354998f10a090cbd0029",
  "source": "pragma solidity ^0.4.24;\n\nimport \"zos-lib/contracts/Initializable.sol\";\nimport \"openzeppelin-eth/contracts/token/ERC20/ERC20.sol\";\n\n/**\n * @title Props Sidechain Compatible\n * @dev Added a settle function and events\n **/\ncontract PropsSidechainCompatible is ERC20 {\n    event TransferDetails(\n        address from,\n        uint256 fromBalance,\n        address to,\n        uint256 toBalance,\n        uint256 amount\n    );\n    \n    event Settlement(\n        uint256 timestamp,\n        address from, \n        address recipient,\n        uint256 amount\n    );\n    \n    function transfer(\n        address to,\n        uint256 value\n    )\n    public    \n    returns (bool)\n    {\n        if (super.transfer(to, value)) {\n            emit TransferDetails(msg.sender, super.balanceOf(msg.sender), to, super.balanceOf(to), value);\n            return true;\n        }\n        return false;\n    }\n\n    function transferFrom(\n    address from,\n    address to,\n    uint256 value\n    )\n    public    \n    returns (bool)\n    {\n        if (super.transferFrom(from, to, value)) {\n            emit TransferDetails(from, super.balanceOf(from), to, super.balanceOf(to), value);\n            return true;\n        }\n        return false;    \n  }\n    /**\n    * @notice settle pending earnings on the PROPS-Chain by using this settlement method to transfer and emit a settlement Event\n    * @param to The address to transfer to.\n    * @param value The amount to be transferred.\n    */\n    function settle(\n        address to,\n        uint256 value\n    ) public returns (bool)\n    {\n        if (super.transfer(to, value)) {\n            emit Settlement(block.timestamp, msg.sender, to, value);\n            emit TransferDetails(msg.sender, super.balanceOf(msg.sender), to, super.balanceOf(to), value);\n            return true;\n        } \n        return false;\n    }  \n}\n",
  "sourcePath": "/Users/jretina/Programming/PROPSProject/props-token-distribution/contracts/token/PropsSidechainCompatible.sol",
  "compiler": {
    "name": "solc",
    "version": "0.4.24+commit.e67f0147.Emscripten.clang"
  },
  "schemaVersion": "2.0.1",
  "updatedAt": "2019-01-15T10:56:36.251Z"
}