{
  "contractName": "PropsToken",
  "abi": [
    {
      "constant": false,
      "inputs": [
        {
          "name": "_controller",
          "type": "address"
        }
      ],
      "name": "updateController",
      "outputs": [
        {
          "name": "",
          "type": "bool"
        }
      ],
      "payable": false,
      "stateMutability": "nonpayable",
      "type": "function"
    },
    {
      "constant": true,
      "inputs": [],
      "name": "name",
      "outputs": [
        {
          "name": "",
          "type": "string"
        }
      ],
      "payable": false,
      "stateMutability": "view",
      "type": "function"
    },
    {
      "constant": false,
      "inputs": [
        {
          "name": "spender",
          "type": "address"
        },
        {
          "name": "value",
          "type": "uint256"
        }
      ],
      "name": "approve",
      "outputs": [
        {
          "name": "",
          "type": "bool"
        }
      ],
      "payable": false,
      "stateMutability": "nonpayable",
      "type": "function"
    },
    {
      "constant": true,
      "inputs": [
        {
          "name": "_entityType",
          "type": "uint8"
        },
        {
          "name": "_rewardsDay",
          "type": "uint256"
        }
      ],
      "name": "getEntities",
      "outputs": [
        {
          "name": "",
          "type": "address[]"
        }
      ],
      "payable": false,
      "stateMutability": "view",
      "type": "function"
    },
    {
      "constant": true,
      "inputs": [
        {
          "name": "_token",
          "type": "address"
        },
        {
          "name": "_to",
          "type": "address"
        },
        {
          "name": "_value",
          "type": "uint256"
        },
        {
          "name": "_fee",
          "type": "uint256"
        },
        {
          "name": "_nonce",
          "type": "uint256"
        }
      ],
      "name": "getTransferPreSignedHash",
      "outputs": [
        {
          "name": "",
          "type": "bytes32"
        }
      ],
      "payable": false,
      "stateMutability": "pure",
      "type": "function"
    },
    {
      "constant": false,
      "inputs": [
        {
          "name": "_signature",
          "type": "bytes"
        },
        {
          "name": "_to",
          "type": "address"
        },
        {
          "name": "_value",
          "type": "uint256"
        },
        {
          "name": "_fee",
          "type": "uint256"
        },
        {
          "name": "_nonce",
          "type": "uint256"
        }
      ],
      "name": "transferPreSigned",
      "outputs": [
        {
          "name": "",
          "type": "bool"
        }
      ],
      "payable": false,
      "stateMutability": "nonpayable",
      "type": "function"
    },
    {
      "constant": true,
      "inputs": [
        {
          "name": "_token",
          "type": "address"
        },
        {
          "name": "_spender",
          "type": "address"
        },
        {
          "name": "_addedValue",
          "type": "uint256"
        },
        {
          "name": "_fee",
          "type": "uint256"
        },
        {
          "name": "_nonce",
          "type": "uint256"
        }
      ],
      "name": "getIncreaseAllowancePreSignedHash",
      "outputs": [
        {
          "name": "",
          "type": "bytes32"
        }
      ],
      "payable": false,
      "stateMutability": "pure",
      "type": "function"
    },
    {
      "constant": false,
      "inputs": [
        {
          "name": "_name",
          "type": "uint8"
        },
        {
          "name": "_value",
          "type": "uint256"
        },
        {
          "name": "_rewardsDay",
          "type": "uint256"
        }
      ],
      "name": "updateParameter",
      "outputs": [
        {
          "name": "",
          "type": "bool"
        }
      ],
      "payable": false,
      "stateMutability": "nonpayable",
      "type": "function"
    },
    {
      "constant": true,
      "inputs": [],
      "name": "totalSupply",
      "outputs": [
        {
          "name": "",
          "type": "uint256"
        }
      ],
      "payable": false,
      "stateMutability": "view",
      "type": "function"
    },
    {
      "constant": false,
      "inputs": [
        {
          "name": "from",
          "type": "address"
        },
        {
          "name": "to",
          "type": "address"
        },
        {
          "name": "value",
          "type": "uint256"
        }
      ],
      "name": "transferFrom",
      "outputs": [
        {
          "name": "",
          "type": "bool"
        }
      ],
      "payable": false,
      "stateMutability": "nonpayable",
      "type": "function"
    },
    {
      "constant": true,
      "inputs": [],
      "name": "maxTotalSupply",
      "outputs": [
        {
          "name": "",
          "type": "uint256"
        }
      ],
      "payable": false,
      "stateMutability": "view",
      "type": "function"
    },
    {
      "constant": true,
      "inputs": [],
      "name": "decimals",
      "outputs": [
        {
          "name": "",
          "type": "uint8"
        }
      ],
      "payable": false,
      "stateMutability": "view",
      "type": "function"
    },
    {
      "constant": false,
      "inputs": [
        {
          "name": "spender",
          "type": "address"
        },
        {
          "name": "addedValue",
          "type": "uint256"
        }
      ],
      "name": "increaseAllowance",
      "outputs": [
        {
          "name": "",
          "type": "bool"
        }
      ],
      "payable": false,
      "stateMutability": "nonpayable",
      "type": "function"
    },
    {
      "constant": true,
      "inputs": [],
      "name": "canTransferBeforeStartTime",
      "outputs": [
        {
          "name": "",
          "type": "address"
        }
      ],
      "payable": false,
      "stateMutability": "view",
      "type": "function"
    },
    {
      "constant": true,
      "inputs": [
        {
          "name": "_name",
          "type": "uint8"
        },
        {
          "name": "_rewardsDay",
          "type": "uint256"
        }
      ],
      "name": "getParameter",
      "outputs": [
        {
          "name": "",
          "type": "uint256"
        }
      ],
      "payable": false,
      "stateMutability": "view",
      "type": "function"
    },
    {
      "constant": true,
      "inputs": [
        {
          "name": "_token",
          "type": "address"
        },
        {
          "name": "_spender",
          "type": "address"
        },
        {
          "name": "_subtractedValue",
          "type": "uint256"
        },
        {
          "name": "_fee",
          "type": "uint256"
        },
        {
          "name": "_nonce",
          "type": "uint256"
        }
      ],
      "name": "getDecreaseAllowancePreSignedHash",
      "outputs": [
        {
          "name": "",
          "type": "bytes32"
        }
      ],
      "payable": false,
      "stateMutability": "pure",
      "type": "function"
    },
    {
      "constant": false,
      "inputs": [
        {
          "name": "_rewardsDay",
          "type": "uint256"
        },
        {
          "name": "_rewardsHash",
          "type": "bytes32"
        },
        {
          "name": "_applications",
          "type": "address[]"
        },
        {
          "name": "_amounts",
          "type": "uint256[]"
        }
      ],
      "name": "submitDailyRewards",
      "outputs": [
        {
          "name": "",
          "type": "bool"
        }
      ],
      "payable": false,
      "stateMutability": "nonpayable",
      "type": "function"
    },
    {
      "constant": false,
      "inputs": [
        {
          "name": "_signature",
          "type": "bytes"
        },
        {
          "name": "_spender",
          "type": "address"
        },
        {
          "name": "_value",
          "type": "uint256"
        },
        {
          "name": "_fee",
          "type": "uint256"
        },
        {
          "name": "_nonce",
          "type": "uint256"
        }
      ],
      "name": "approvePreSigned",
      "outputs": [
        {
          "name": "",
          "type": "bool"
        }
      ],
      "payable": false,
      "stateMutability": "nonpayable",
      "type": "function"
    },
    {
      "constant": true,
      "inputs": [],
      "name": "rewardsStartTimestamp",
      "outputs": [
        {
          "name": "",
          "type": "uint256"
        }
      ],
      "payable": false,
      "stateMutability": "view",
      "type": "function"
    },
    {
      "constant": true,
      "inputs": [
        {
          "name": "owner",
          "type": "address"
        }
      ],
      "name": "balanceOf",
      "outputs": [
        {
          "name": "",
          "type": "uint256"
        }
      ],
      "payable": false,
      "stateMutability": "view",
      "type": "function"
    },
    {
      "constant": false,
      "inputs": [
        {
          "name": "_rewardsDay",
          "type": "uint256"
        },
        {
          "name": "_applications",
          "type": "address[]"
        }
      ],
      "name": "setApplications",
      "outputs": [
        {
          "name": "",
          "type": "bool"
        }
      ],
      "payable": false,
      "stateMutability": "nonpayable",
      "type": "function"
    },
    {
      "constant": true,
      "inputs": [
        {
          "name": "_token",
          "type": "address"
        },
        {
          "name": "_spender",
          "type": "address"
        },
        {
          "name": "_value",
          "type": "uint256"
        },
        {
          "name": "_fee",
          "type": "uint256"
        },
        {
          "name": "_nonce",
          "type": "uint256"
        }
      ],
      "name": "getApprovePreSignedHash",
      "outputs": [
        {
          "name": "",
          "type": "bytes32"
        }
      ],
      "payable": false,
      "stateMutability": "pure",
      "type": "function"
    },
    {
      "constant": true,
      "inputs": [],
      "name": "symbol",
      "outputs": [
        {
          "name": "",
          "type": "string"
        }
      ],
      "payable": false,
      "stateMutability": "view",
      "type": "function"
    },
    {
      "constant": false,
      "inputs": [
        {
          "name": "_entityType",
          "type": "uint8"
        },
        {
          "name": "_name",
          "type": "bytes32"
        },
        {
          "name": "_rewardsAddress",
          "type": "address"
        },
        {
          "name": "_sidechainAddress",
          "type": "address"
        }
      ],
      "name": "updateEntity",
      "outputs": [
        {
          "name": "",
          "type": "bool"
        }
      ],
      "payable": false,
      "stateMutability": "nonpayable",
      "type": "function"
    },
    {
      "constant": false,
      "inputs": [
        {
          "name": "spender",
          "type": "address"
        },
        {
          "name": "subtractedValue",
          "type": "uint256"
        }
      ],
      "name": "decreaseAllowance",
      "outputs": [
        {
          "name": "",
          "type": "bool"
        }
      ],
      "payable": false,
      "stateMutability": "nonpayable",
      "type": "function"
    },
    {
      "constant": true,
      "inputs": [
        {
          "name": "_token",
          "type": "address"
        },
        {
          "name": "_from",
          "type": "address"
        },
        {
          "name": "_to",
          "type": "address"
        },
        {
          "name": "_value",
          "type": "uint256"
        },
        {
          "name": "_fee",
          "type": "uint256"
        },
        {
          "name": "_nonce",
          "type": "uint256"
        }
      ],
      "name": "getTransferFromPreSignedHash",
      "outputs": [
        {
          "name": "",
          "type": "bytes32"
        }
      ],
      "payable": false,
      "stateMutability": "pure",
      "type": "function"
    },
    {
      "constant": false,
      "inputs": [
        {
          "name": "to",
          "type": "address"
        },
        {
          "name": "value",
          "type": "uint256"
        }
      ],
      "name": "transfer",
      "outputs": [
        {
          "name": "",
          "type": "bool"
        }
      ],
      "payable": false,
      "stateMutability": "nonpayable",
      "type": "function"
    },
    {
      "constant": false,
      "inputs": [
        {
          "name": "_signature",
          "type": "bytes"
        },
        {
          "name": "_from",
          "type": "address"
        },
        {
          "name": "_to",
          "type": "address"
        },
        {
          "name": "_value",
          "type": "uint256"
        },
        {
          "name": "_fee",
          "type": "uint256"
        },
        {
          "name": "_nonce",
          "type": "uint256"
        }
      ],
      "name": "transferFromPreSigned",
      "outputs": [
        {
          "name": "",
          "type": "bool"
        }
      ],
      "payable": false,
      "stateMutability": "nonpayable",
      "type": "function"
    },
    {
      "constant": true,
      "inputs": [],
      "name": "transfersStartTime",
      "outputs": [
        {
          "name": "",
          "type": "uint256"
        }
      ],
      "payable": false,
      "stateMutability": "view",
      "type": "function"
    },
    {
      "constant": true,
      "inputs": [
        {
          "name": "owner",
          "type": "address"
        },
        {
          "name": "spender",
          "type": "address"
        }
      ],
      "name": "allowance",
      "outputs": [
        {
          "name": "",
          "type": "uint256"
        }
      ],
      "payable": false,
      "stateMutability": "view",
      "type": "function"
    },
    {
      "constant": false,
      "inputs": [
        {
          "name": "_rewardsDay",
          "type": "uint256"
        },
        {
          "name": "_validators",
          "type": "address[]"
        }
      ],
      "name": "setValidators",
      "outputs": [
        {
          "name": "",
          "type": "bool"
        }
      ],
      "payable": false,
      "stateMutability": "nonpayable",
      "type": "function"
    },
    {
      "constant": false,
      "inputs": [
        {
          "name": "_controller",
          "type": "address"
        },
        {
          "name": "_minSecondsBetweenDays",
          "type": "uint256"
        },
        {
          "name": "_rewardsStartTimestamp",
          "type": "uint256"
        }
      ],
      "name": "initializePostRewardsUpgrade1",
      "outputs": [],
      "payable": false,
      "stateMutability": "nonpayable",
      "type": "function"
    },
    {
      "constant": false,
      "inputs": [
        {
          "name": "_signature",
          "type": "bytes"
        },
        {
          "name": "_spender",
          "type": "address"
        },
        {
          "name": "_subtractedValue",
          "type": "uint256"
        },
        {
          "name": "_fee",
          "type": "uint256"
        },
        {
          "name": "_nonce",
          "type": "uint256"
        }
      ],
      "name": "decreaseAllowancePreSigned",
      "outputs": [
        {
          "name": "",
          "type": "bool"
        }
      ],
      "payable": false,
      "stateMutability": "nonpayable",
      "type": "function"
    },
    {
      "constant": true,
      "inputs": [],
      "name": "controller",
      "outputs": [
        {
          "name": "",
          "type": "address"
        }
      ],
      "payable": false,
      "stateMutability": "view",
      "type": "function"
    },
    {
      "constant": false,
      "inputs": [
        {
          "name": "_signature",
          "type": "bytes"
        },
        {
          "name": "_spender",
          "type": "address"
        },
        {
          "name": "_addedValue",
          "type": "uint256"
        },
        {
          "name": "_fee",
          "type": "uint256"
        },
        {
          "name": "_nonce",
          "type": "uint256"
        }
      ],
      "name": "increaseAllowancePreSigned",
      "outputs": [
        {
          "name": "",
          "type": "bool"
        }
      ],
      "payable": false,
      "stateMutability": "nonpayable",
      "type": "function"
    },
    {
      "anonymous": false,
      "inputs": [
        {
          "indexed": true,
          "name": "rewardsDay",
          "type": "uint256"
        },
        {
          "indexed": true,
          "name": "rewardsHash",
          "type": "bytes32"
        },
        {
          "indexed": true,
          "name": "validator",
          "type": "address"
        }
      ],
      "name": "DailyRewardsSubmitted",
      "type": "event"
    },
    {
      "anonymous": false,
      "inputs": [
        {
          "indexed": true,
          "name": "rewardsDay",
          "type": "uint256"
        },
        {
          "indexed": true,
          "name": "rewardsHash",
          "type": "bytes32"
        },
        {
          "indexed": false,
          "name": "numOfApplications",
          "type": "uint256"
        },
        {
          "indexed": false,
          "name": "amount",
          "type": "uint256"
        }
      ],
      "name": "DailyRewardsApplicationsMinted",
      "type": "event"
    },
    {
      "anonymous": false,
      "inputs": [
        {
          "indexed": true,
          "name": "rewardsDay",
          "type": "uint256"
        },
        {
          "indexed": true,
          "name": "rewardsHash",
          "type": "bytes32"
        },
        {
          "indexed": false,
          "name": "numOfValidators",
          "type": "uint256"
        },
        {
          "indexed": false,
          "name": "amount",
          "type": "uint256"
        }
      ],
      "name": "DailyRewardsValidatorsMinted",
      "type": "event"
    },
    {
      "anonymous": false,
      "inputs": [
        {
          "indexed": true,
          "name": "id",
          "type": "address"
        },
        {
          "indexed": true,
          "name": "entityType",
          "type": "uint8"
        },
        {
          "indexed": false,
          "name": "name",
          "type": "bytes32"
        },
        {
          "indexed": false,
          "name": "rewardsAddress",
          "type": "address"
        },
        {
          "indexed": true,
          "name": "sidechainAddress",
          "type": "address"
        }
      ],
      "name": "EntityUpdated",
      "type": "event"
    },
    {
      "anonymous": false,
      "inputs": [
        {
          "indexed": false,
          "name": "param",
          "type": "uint8"
        },
        {
          "indexed": false,
          "name": "newValue",
          "type": "uint256"
        },
        {
          "indexed": false,
          "name": "oldValue",
          "type": "uint256"
        },
        {
          "indexed": false,
          "name": "rewardsDay",
          "type": "uint256"
        }
      ],
      "name": "ParameterUpdated",
      "type": "event"
    },
    {
      "anonymous": false,
      "inputs": [
        {
          "indexed": false,
          "name": "validatorsList",
          "type": "address[]"
        },
        {
          "indexed": true,
          "name": "rewardsDay",
          "type": "uint256"
        }
      ],
      "name": "ValidatorsListUpdated",
      "type": "event"
    },
    {
      "anonymous": false,
      "inputs": [
        {
          "indexed": false,
          "name": "applicationsList",
          "type": "address[]"
        },
        {
          "indexed": true,
          "name": "rewardsDay",
          "type": "uint256"
        }
      ],
      "name": "ApplicationsListUpdated",
      "type": "event"
    },
    {
      "anonymous": false,
      "inputs": [
        {
          "indexed": true,
          "name": "newController",
          "type": "address"
        }
      ],
      "name": "ControllerUpdated",
      "type": "event"
    },
    {
      "anonymous": false,
      "inputs": [
        {
          "indexed": true,
          "name": "from",
          "type": "address"
        },
        {
          "indexed": true,
          "name": "to",
          "type": "address"
        },
        {
          "indexed": true,
          "name": "delegate",
          "type": "address"
        },
        {
          "indexed": false,
          "name": "amount",
          "type": "uint256"
        },
        {
          "indexed": false,
          "name": "fee",
          "type": "uint256"
        }
      ],
      "name": "TransferPreSigned",
      "type": "event"
    },
    {
      "anonymous": false,
      "inputs": [
        {
          "indexed": true,
          "name": "from",
          "type": "address"
        },
        {
          "indexed": true,
          "name": "to",
          "type": "address"
        },
        {
          "indexed": true,
          "name": "delegate",
          "type": "address"
        },
        {
          "indexed": false,
          "name": "amount",
          "type": "uint256"
        },
        {
          "indexed": false,
          "name": "fee",
          "type": "uint256"
        }
      ],
      "name": "ApprovalPreSigned",
      "type": "event"
    },
    {
      "anonymous": false,
      "inputs": [
        {
          "indexed": true,
          "name": "from",
          "type": "address"
        },
        {
          "indexed": true,
          "name": "to",
          "type": "address"
        },
        {
          "indexed": false,
          "name": "value",
          "type": "uint256"
        }
      ],
      "name": "Transfer",
      "type": "event"
    },
    {
      "anonymous": false,
      "inputs": [
        {
          "indexed": true,
          "name": "owner",
          "type": "address"
        },
        {
          "indexed": true,
          "name": "spender",
          "type": "address"
        },
        {
          "indexed": false,
          "name": "value",
          "type": "uint256"
        }
      ],
      "name": "Approval",
      "type": "event"
    },
    {
      "constant": false,
      "inputs": [
        {
          "name": "name",
          "type": "string"
        },
        {
          "name": "symbol",
          "type": "string"
        },
        {
          "name": "decimals",
          "type": "uint8"
        }
      ],
      "name": "initialize",
      "outputs": [],
      "payable": false,
      "stateMutability": "nonpayable",
      "type": "function"
    },
    {
      "constant": false,
      "inputs": [
        {
          "name": "_holder",
          "type": "address"
        },
        {
          "name": "_transfersStartTime",
          "type": "uint256"
        },
        {
          "name": "_controller",
          "type": "address"
        },
        {
          "name": "_minSecondsBetweenDays",
          "type": "uint256"
        },
        {
          "name": "_rewardsStartTimestamp",
          "type": "uint256"
        }
      ],
      "name": "initialize",
      "outputs": [],
      "payable": false,
      "stateMutability": "nonpayable",
      "type": "function"
    },
    {
      "constant": false,
      "inputs": [
        {
          "name": "start",
          "type": "uint256"
        },
        {
          "name": "account",
          "type": "address"
        }
      ],
      "name": "initialize",
      "outputs": [],
      "payable": false,
      "stateMutability": "nonpayable",
      "type": "function"
    }
  ],
  "bytecode": "0x608060405234801561001057600080fd5b50615b2d80620000216000396000f3fe6080604052600436106101d8576000357c0100000000000000000000000000000000000000000000000000000000900463ffffffff16806306cb5b66146101dd57806306fdde0314610246578063095ea7b3146102d6578063098bfa9f146103495780630d98dcb1146103e65780631296830d14610489578063138e8da1146105a75780631624f6c61461064a57806316266300146107b657806318160ddd1461082057806323b872dd1461084b5780632542e3f8146108de5780632ab4d0521461096d578063313ce5671461099857806339509351146109c957806345b6d7dc14610a3c5780634f92caf814610a935780635229c56f14610aef57806357ece4bc14610b92578063617b390b14610d175780636356850214610e3557806370a0823114610e605780637492fdda14610ec557806379250dcf14610fac57806395d89b411461104f57806396e88327146110df578063a457c2d71461117f578063a70c41b4146111f2578063a9059cbb146112b5578063bca5051514611328578063d0f22e9c14611466578063da35a26f14611491578063dd62ed3e146114ec578063e795594d14611571578063e9d2c4b314611658578063f2959d6e146116bd578063f77c4791146117db578063f80801d014611832575b600080fd5b3480156101e957600080fd5b5061022c6004803603602081101561020057600080fd5b81019080803573ffffffffffffffffffffffffffffffffffffffff169060200190929190505050611950565b604051808215151515815260200191505060405180910390f35b34801561025257600080fd5b5061025b611aa4565b6040518080602001828103825283818151815260200191508051906020019080838360005b8381101561029b578082015181840152602081019050610280565b50505050905090810190601f1680156102c85780820380516001836020036101000a031916815260200191505b509250505060405180910390f35b3480156102e257600080fd5b5061032f600480360360408110156102f957600080fd5b81019080803573ffffffffffffffffffffffffffffffffffffffff16906020019092919080359060200190929190505050611b46565b604051808215151515815260200191505060405180910390f35b34801561035557600080fd5b5061038f6004803603604081101561036c57600080fd5b81019080803560ff16906020019092919080359060200190929190505050611b98565b6040518080602001828103825283818151815260200191508051906020019060200280838360005b838110156103d25780820151818401526020810190506103b7565b505050509050019250505060405180910390f35b3480156103f257600080fd5b50610473600480360360a081101561040957600080fd5b81019080803573ffffffffffffffffffffffffffffffffffffffff169060200190929190803573ffffffffffffffffffffffffffffffffffffffff169060200190929190803590602001909291908035906020019092919080359060200190929190505050611cbd565b6040518082815260200191505060405180910390f35b34801561049557600080fd5b5061058d600480360360a08110156104ac57600080fd5b81019080803590602001906401000000008111156104c957600080fd5b8201836020820111156104db57600080fd5b803590602001918460018302840111640100000000831117156104fd57600080fd5b91908080601f016020809104026020016040519081016040528093929190818152602001838380828437600081840152601f19601f820116905080830192505050505050509192919290803573ffffffffffffffffffffffffffffffffffffffff169060200190929190803590602001909291908035906020019092919080359060200190929190505050611df0565b604051808215151515815260200191505060405180910390f35b3480156105b357600080fd5b50610634600480360360a08110156105ca57600080fd5b81019080803573ffffffffffffffffffffffffffffffffffffffff169060200190929190803573ffffffffffffffffffffffffffffffffffffffff169060200190929190803590602001909291908035906020019092919080359060200190929190505050612160565b6040518082815260200191505060405180910390f35b34801561065657600080fd5b506107b46004803603606081101561066d57600080fd5b810190808035906020019064010000000081111561068a57600080fd5b82018360208201111561069c57600080fd5b803590602001918460018302840111640100000000831117156106be57600080fd5b91908080601f016020809104026020016040519081016040528093929190818152602001838380828437600081840152601f19601f8201169050808301925050505050505091929192908035906020019064010000000081111561072157600080fd5b82018360208201111561073357600080fd5b8035906020019184600183028401116401000000008311171561075557600080fd5b91908080601f016020809104026020016040519081016040528093929190818152602001838380828437600081840152601f19601f820116905080830192505050505050509192919290803560ff169060200190929190505050612293565b005b3480156107c257600080fd5b50610806600480360360608110156107d957600080fd5b81019080803560ff1690602001909291908035906020019092919080359060200190929190505050612414565b604051808215151515815260200191505060405180910390f35b34801561082c57600080fd5b5061083561267d565b6040518082815260200191505060405180910390f35b34801561085757600080fd5b506108c46004803603606081101561086e57600080fd5b81019080803573ffffffffffffffffffffffffffffffffffffffff169060200190929190803573ffffffffffffffffffffffffffffffffffffffff16906020019092919080359060200190929190505050612687565b604051808215151515815260200191505060405180910390f35b3480156108ea57600080fd5b5061096b600480360360a081101561090157600080fd5b81019080803573ffffffffffffffffffffffffffffffffffffffff16906020019092919080359060200190929190803573ffffffffffffffffffffffffffffffffffffffff1690602001909291908035906020019092919080359060200190929190505050612796565b005b34801561097957600080fd5b5061098261297d565b6040518082815260200191505060405180910390f35b3480156109a457600080fd5b506109ad612983565b604051808260ff1660ff16815260200191505060405180910390f35b3480156109d557600080fd5b50610a22600480360360408110156109ec57600080fd5b81019080803573ffffffffffffffffffffffffffffffffffffffff1690602001909291908035906020019092919050505061299a565b604051808215151515815260200191505060405180910390f35b348015610a4857600080fd5b50610a51612a3f565b604051808273ffffffffffffffffffffffffffffffffffffffff1673ffffffffffffffffffffffffffffffffffffffff16815260200191505060405180910390f35b348015610a9f57600080fd5b50610ad960048036036040811015610ab657600080fd5b81019080803560ff16906020019092919080359060200190929190505050612a65565b6040518082815260200191505060405180910390f35b348015610afb57600080fd5b50610b7c600480360360a0811015610b1257600080fd5b81019080803573ffffffffffffffffffffffffffffffffffffffff169060200190929190803573ffffffffffffffffffffffffffffffffffffffff169060200190929190803590602001909291908035906020019092919080359060200190929190505050612b34565b6040518082815260200191505060405180910390f35b348015610b9e57600080fd5b50610cfd60048036036080811015610bb557600080fd5b81019080803590602001909291908035906020019092919080359060200190640100000000811115610be657600080fd5b820183602082011115610bf857600080fd5b80359060200191846020830284011164010000000083111715610c1a57600080fd5b919080806020026020016040519081016040528093929190818152602001838360200280828437600081840152601f19601f82011690508083019250505050505050919291929080359060200190640100000000811115610c7a57600080fd5b820183602082011115610c8c57600080fd5b80359060200191846020830284011164010000000083111715610cae57600080fd5b919080806020026020016040519081016040528093929190818152602001838360200280828437600081840152601f19601f820116905080830192505050505050509192919290505050612c67565b604051808215151515815260200191505060405180910390f35b348015610d2357600080fd5b50610e1b600480360360a0811015610d3a57600080fd5b8101908080359060200190640100000000811115610d5757600080fd5b820183602082011115610d6957600080fd5b80359060200191846001830284011164010000000083111715610d8b57600080fd5b91908080601f016020809104026020016040519081016040528093929190818152602001838380828437600081840152601f19601f820116905080830192505050505050509192919290803573ffffffffffffffffffffffffffffffffffffffff169060200190929190803590602001909291908035906020019092919080359060200190929190505050613025565b604051808215151515815260200191505060405180910390f35b348015610e4157600080fd5b50610e4a613395565b6040518082815260200191505060405180910390f35b348015610e6c57600080fd5b50610eaf60048036036020811015610e8357600080fd5b81019080803573ffffffffffffffffffffffffffffffffffffffff16906020019092919050505061339b565b6040518082815260200191505060405180910390f35b348015610ed157600080fd5b50610f9260048036036040811015610ee857600080fd5b810190808035906020019092919080359060200190640100000000811115610f0f57600080fd5b820183602082011115610f2157600080fd5b80359060200191846020830284011164010000000083111715610f4357600080fd5b919080806020026020016040519081016040528093929190818152602001838360200280828437600081840152601f19601f8201169050808301925050505050505091929192905050506133e4565b604051808215151515815260200191505060405180910390f35b348015610fb857600080fd5b50611039600480360360a0811015610fcf57600080fd5b81019080803573ffffffffffffffffffffffffffffffffffffffff169060200190929190803573ffffffffffffffffffffffffffffffffffffffff169060200190929190803590602001909291908035906020019092919080359060200190929190505050613627565b6040518082815260200191505060405180910390f35b34801561105b57600080fd5b5061106461375a565b6040518080602001828103825283818151815260200191508051906020019080838360005b838110156110a4578082015181840152602081019050611089565b50505050905090810190601f1680156110d15780820380516001836020036101000a031916815260200191505b509250505060405180910390f35b3480156110eb57600080fd5b506111656004803603608081101561110257600080fd5b81019080803560ff16906020019092919080359060200190929190803573ffffffffffffffffffffffffffffffffffffffff169060200190929190803573ffffffffffffffffffffffffffffffffffffffff1690602001909291905050506137fc565b604051808215151515815260200191505060405180910390f35b34801561118b57600080fd5b506111d8600480360360408110156111a257600080fd5b81019080803573ffffffffffffffffffffffffffffffffffffffff169060200190929190803590602001909291905050506139dd565b604051808215151515815260200191505060405180910390f35b3480156111fe57600080fd5b5061129f600480360360c081101561121557600080fd5b81019080803573ffffffffffffffffffffffffffffffffffffffff169060200190929190803573ffffffffffffffffffffffffffffffffffffffff169060200190929190803573ffffffffffffffffffffffffffffffffffffffff169060200190929190803590602001909291908035906020019092919080359060200190929190505050613a82565b6040518082815260200191505060405180910390f35b3480156112c157600080fd5b5061130e600480360360408110156112d857600080fd5b81019080803573ffffffffffffffffffffffffffffffffffffffff16906020019092919080359060200190929190505050613bf9565b604051808215151515815260200191505060405180910390f35b34801561133457600080fd5b5061144c600480360360c081101561134b57600080fd5b810190808035906020019064010000000081111561136857600080fd5b82018360208201111561137a57600080fd5b8035906020019184600183028401116401000000008311171561139c57600080fd5b91908080601f016020809104026020016040519081016040528093929190818152602001838380828437600081840152601f19601f820116905080830192505050505050509192919290803573ffffffffffffffffffffffffffffffffffffffff169060200190929190803573ffffffffffffffffffffffffffffffffffffffff169060200190929190803590602001909291908035906020019092919080359060200190929190505050613d06565b604051808215151515815260200191505060405180910390f35b34801561147257600080fd5b5061147b6140c4565b6040518082815260200191505060405180910390f35b34801561149d57600080fd5b506114ea600480360360408110156114b457600080fd5b8101908080359060200190929190803573ffffffffffffffffffffffffffffffffffffffff1690602001909291905050506140ca565b005b3480156114f857600080fd5b5061155b6004803603604081101561150f57600080fd5b81019080803573ffffffffffffffffffffffffffffffffffffffff169060200190929190803573ffffffffffffffffffffffffffffffffffffffff169060200190929190505050614249565b6040518082815260200191505060405180910390f35b34801561157d57600080fd5b5061163e6004803603604081101561159457600080fd5b8101908080359060200190929190803590602001906401000000008111156115bb57600080fd5b8201836020820111156115cd57600080fd5b803590602001918460208302840111640100000000831117156115ef57600080fd5b919080806020026020016040519081016040528093929190818152602001838360200280828437600081840152601f19601f8201169050808301925050505050505091929192905050506142d0565b604051808215151515815260200191505060405180910390f35b34801561166457600080fd5b506116bb6004803603606081101561167b57600080fd5b81019080803573ffffffffffffffffffffffffffffffffffffffff1690602001909291908035906020019092919080359060200190929190505050614513565b005b3480156116c957600080fd5b506117c1600480360360a08110156116e057600080fd5b81019080803590602001906401000000008111156116fd57600080fd5b82018360208201111561170f57600080fd5b8035906020019184600183028401116401000000008311171561173157600080fd5b91908080601f016020809104026020016040519081016040528093929190818152602001838380828437600081840152601f19601f820116905080830192505050505050509192919290803573ffffffffffffffffffffffffffffffffffffffff16906020019092919080359060200190929190803590602001909291908035906020019092919050505061452b565b604051808215151515815260200191505060405180910390f35b3480156117e757600080fd5b506117f06148bf565b604051808273ffffffffffffffffffffffffffffffffffffffff1673ffffffffffffffffffffffffffffffffffffffff16815260200191505060405180910390f35b34801561183e57600080fd5b50611936600480360360a081101561185557600080fd5b810190808035906020019064010000000081111561187257600080fd5b82018360208201111561188457600080fd5b803590602001918460018302840111640100000000831117156118a657600080fd5b91908080601f016020809104026020016040519081016040528093929190818152602001838380828437600081840152601f19601f820116905080830192505050505050509192919290803573ffffffffffffffffffffffffffffffffffffffff1690602001909291908035906020019092919080359060200190929190803590602001909291905050506148e5565b604051808215151515815260200191505060405180910390f35b600060b960009054906101000a900473ffffffffffffffffffffffffffffffffffffffff1673ffffffffffffffffffffffffffffffffffffffff163373ffffffffffffffffffffffffffffffffffffffff16141515611a17576040517f08c379a00000000000000000000000000000000000000000000000000000000081526004018080602001828103825260168152602001807f4d7573742062652074686520636f6e74726f6c6c65720000000000000000000081525060200191505060405180910390fd5b8160b960006101000a81548173ffffffffffffffffffffffffffffffffffffffff021916908373ffffffffffffffffffffffffffffffffffffffff1602179055508173ffffffffffffffffffffffffffffffffffffffff167f1304018cfe79741dcf02ba6b61d39cc4757d59395d03224d9925c7aa8300214660405160405180910390a260019050919050565b606060338054600181600116156101000203166002900480601f016020809104026020016040519081016040528092919081815260200182805460018160011615610100020316600290048015611b3c5780601f10611b1157610100808354040283529160200191611b3c565b820191906000526020600020905b815481529060010190602001808311611b1f57829003601f168201915b5050505050905090565b60008073ffffffffffffffffffffffffffffffffffffffff168373ffffffffffffffffffffffffffffffffffffffff1614151515611b8357600080fd5b611b8e338484614c79565b6001905092915050565b606073__PropsRewardsLib_______________________638993273560a085856040518463ffffffff167c010000000000000000000000000000000000000000000000000000000002815260040180848152602001836001811115611bf957fe5b60ff168152602001828152602001935050505060006040518083038186803b158015611c2457600080fd5b505af4158015611c38573d6000803e3d6000fd5b505050506040513d6000823e3d601f19601f820116820180604052506020811015611c6257600080fd5b810190808051640100000000811115611c7a57600080fd5b82810190506020810184811115611c9057600080fd5b8151856020820283011164010000000082111715611cad57600080fd5b5050929190505050905092915050565b6000630d98dcb17c010000000000000000000000000000000000000000000000000000000002868686868660405160200180877bffffffffffffffffffffffffffffffffffffffffffffffffffffffff19167bffffffffffffffffffffffffffffffffffffffffffffffffffffffff191681526004018673ffffffffffffffffffffffffffffffffffffffff1673ffffffffffffffffffffffffffffffffffffffff166c010000000000000000000000000281526014018573ffffffffffffffffffffffffffffffffffffffff1673ffffffffffffffffffffffffffffffffffffffff166c01000000000000000000000000028152601401848152602001838152602001828152602001965050505050505060405160208183030381529060405280519060200120905095945050505050565b60008073ffffffffffffffffffffffffffffffffffffffff168573ffffffffffffffffffffffffffffffffffffffff1614151515611e96576040517f08c379a00000000000000000000000000000000000000000000000000000000081526004018080602001828103825260138152602001807f496e76616c6964205f746f20616464726573730000000000000000000000000081525060200191505060405180910390fd5b6000611ea53087878787611cbd565b90506000611eb38289614ddc565b9050600073ffffffffffffffffffffffffffffffffffffffff168173ffffffffffffffffffffffffffffffffffffffff1614151515611f5a576040517f08c379a000000000000000000000000000000000000000000000000000000000815260040180806020018281038252601e8152602001807f496e76616c69642066726f6d2061646472657373207265636f7665726564000081525060200191505060405180910390fd5b60008183604051602001808373ffffffffffffffffffffffffffffffffffffffff1673ffffffffffffffffffffffffffffffffffffffff166c010000000000000000000000000281526014018281526020019250505060405160208183030381529060405280519060200120905060001515609d600083815260200190815260200160002060009054906101000a900460ff16151514151561208a576040517f08c379a00000000000000000000000000000000000000000000000000000000081526004018080602001828103825260218152602001807f5472616e73616374696f6e20686173682077617320616c72656164792075736581526020017f640000000000000000000000000000000000000000000000000000000000000081525060400191505060405180910390fd5b6001609d600083815260200190815260200160002060006101000a81548160ff0219169083151502179055506120c1828989614ec0565b6120cc823388614ec0565b3373ffffffffffffffffffffffffffffffffffffffff168873ffffffffffffffffffffffffffffffffffffffff168373ffffffffffffffffffffffffffffffffffffffff167fec5a73fd1f178be20c1bca1b406cbf4b5c20d833b66e582fc122fb4baa0fc2a48a8a604051808381526020018281526020019250505060405180910390a46001935050505095945050505050565b600063138e8da17c010000000000000000000000000000000000000000000000000000000002868686868660405160200180877bffffffffffffffffffffffffffffffffffffffffffffffffffffffff19167bffffffffffffffffffffffffffffffffffffffffffffffffffffffff191681526004018673ffffffffffffffffffffffffffffffffffffffff1673ffffffffffffffffffffffffffffffffffffffff166c010000000000000000000000000281526014018573ffffffffffffffffffffffffffffffffffffffff1673ffffffffffffffffffffffffffffffffffffffff166c01000000000000000000000000028152601401848152602001838152602001828152602001965050505050505060405160208183030381529060405280519060200120905095945050505050565b600060019054906101000a900460ff16806122b257506122b1615090565b5b806122c957506000809054906101000a900460ff16155b1515612363576040517f08c379a000000000000000000000000000000000000000000000000000000000815260040180806020018281038252602e8152602001807f436f6e747261637420696e7374616e63652068617320616c726561647920626581526020017f656e20696e697469616c697a656400000000000000000000000000000000000081525060400191505060405180910390fd5b60008060019054906101000a900460ff1690506001600060016101000a81548160ff02191690831515021790555060016000806101000a81548160ff02191690831515021790555083603390805190602001906123c1929190615a5c565b5082603490805190602001906123d8929190615a5c565b5081603560006101000a81548160ff021916908360ff16021790555080600060016101000a81548160ff02191690831515021790555050505050565b600060b960009054906101000a900473ffffffffffffffffffffffffffffffffffffffff1673ffffffffffffffffffffffffffffffffffffffff163373ffffffffffffffffffffffffffffffffffffffff161415156124db576040517f08c379a00000000000000000000000000000000000000000000000000000000081526004018080602001828103825260168152602001807f4d7573742062652074686520636f6e74726f6c6c65720000000000000000000081525060200191505060405180910390fd5b73__PropsRewardsLib_______________________6311cb33da60a08686866040518563ffffffff167c01000000000000000000000000000000000000000000000000000000000281526004018085815260200184600381111561253b57fe5b60ff16815260200183815260200182815260200194505050505060206040518083038186803b15801561256d57600080fd5b505af4158015612581573d6000803e3d6000fd5b505050506040513d602081101561259757600080fd5b8101908080519060200190929190505050507fd3ee560e0e71d87fde0453f24eac52dd8f01332349f8d1ef9e005d1cc3b82fb48460a060040160008760038111156125de57fe5b81526020019081526020016000206000015460a0600401600088600381111561260357fe5b81526020019081526020016000206001015460a0600401600089600381111561262857fe5b8152602001908152602001600020600201546040518085600381111561264a57fe5b60ff16815260200184815260200183815260200182815260200194505050505060405180910390a1600190509392505050565b6000606a54905090565b600083609e544211806126e75750609f60009054906101000a900473ffffffffffffffffffffffffffffffffffffffff1673ffffffffffffffffffffffffffffffffffffffff168173ffffffffffffffffffffffffffffffffffffffff16145b1515612781576040517f08c379a000000000000000000000000000000000000000000000000000000000815260040180806020018281038252603d8152602001807f43616e6e6f74207472616e73666572206265666f7265207472616e736665727381526020017f2073746172742074696d652066726f6d2074686973206163636f756e7400000081525060400191505060405180910390fd5b61278c8585856150a1565b9150509392505050565b600060019054906101000a900460ff16806127b557506127b4615090565b5b806127cc57506000809054906101000a900460ff16155b1515612866576040517f08c379a000000000000000000000000000000000000000000000000000000000815260040180806020018281038252602e8152602001807f436f6e747261637420696e7374616e63652068617320616c726561647920626581526020017f656e20696e697469616c697a656400000000000000000000000000000000000081525060400191505060405180910390fd5b60008060019054906101000a900460ff1690506001600060016101000a81548160ff02191690831515021790555060016000806101000a81548160ff02191690831515021790555060006012905060008160ff16600a0a6323c3460002905061293a6040805190810160405280600b81526020017f50726f707320546f6b656e0000000000000000000000000000000000000000008152506040805190810160405280600581526020017f50524f505300000000000000000000000000000000000000000000000000000081525084612293565b61294487896140ca565b61294f868686614513565b6129598882615152565b505080600060016101000a81548160ff021916908315150217905550505050505050565b60b75481565b6000603560009054906101000a900460ff16905090565b6000612a353384612a3085606960003373ffffffffffffffffffffffffffffffffffffffff1673ffffffffffffffffffffffffffffffffffffffff16815260200190815260200160002060008973ffffffffffffffffffffffffffffffffffffffff1673ffffffffffffffffffffffffffffffffffffffff168152602001908152602001600020546152a890919063ffffffff16565b614c79565b6001905092915050565b609f60009054906101000a900473ffffffffffffffffffffffffffffffffffffffff1681565b600073__PropsRewardsLib_______________________63d81b705060a085856040518463ffffffff167c010000000000000000000000000000000000000000000000000000000002815260040180848152602001836003811115612ac657fe5b60ff168152602001828152602001935050505060206040518083038186803b158015612af157600080fd5b505af4158015612b05573d6000803e3d6000fd5b505050506040513d6020811015612b1b57600080fd5b8101908080519060200190929190505050905092915050565b6000635229c56f7c010000000000000000000000000000000000000000000000000000000002868686868660405160200180877bffffffffffffffffffffffffffffffffffffffffffffffffffffffff19167bffffffffffffffffffffffffffffffffffffffffffffffffffffffff191681526004018673ffffffffffffffffffffffffffffffffffffffff1673ffffffffffffffffffffffffffffffffffffffff166c010000000000000000000000000281526014018573ffffffffffffffffffffffffffffffffffffffff1673ffffffffffffffffffffffffffffffffffffffff166c01000000000000000000000000028152601401848152602001838152602001828152602001965050505050505060405160208183030381529060405280519060200120905095945050505050565b60008085118015612c7f575060a0600f016004015485115b15612d8257600073__PropsRewardsLib_______________________6314a68c3860a080600f016004015460a0600f016003015460006040518563ffffffff167c0100000000000000000000000000000000000000000000000000000000028152600401808581526020018481526020018381526020018215151515815260200194505050505060206040518083038186803b158015612d1e57600080fd5b505af4158015612d32573d6000803e3d6000fd5b505050506040513d6020811015612d4857600080fd5b810190808051906020019092919050505090506000811115612d8057612d7f60a0600f016004015460a0600f0160030154836152c9565b5b505b600073__PropsRewardsLib_______________________634daa822560a088888888612dac61267d565b6040518763ffffffff167c0100000000000000000000000000000000000000000000000000000000028152600401808781526020018681526020018581526020018060200180602001848152602001838103835286818151815260200191508051906020019060200280838360005b83811015612e36578082015181840152602081019050612e1b565b50505050905001838103825285818151815260200191508051906020019060200280838360005b83811015612e78578082015181840152602081019050612e5d565b505050509050019850505050505050505060206040518083038186803b158015612ea157600080fd5b505af4158015612eb5573d6000803e3d6000fd5b505050506040513d6020811015612ecb57600080fd5b810190808051906020019092919050505090506000811115612ef557612ef486868686856154bc565b5b600073__PropsRewardsLib_______________________6314a68c3860a0898960016040518563ffffffff167c0100000000000000000000000000000000000000000000000000000000028152600401808581526020018481526020018381526020018215151515815260200194505050505060206040518083038186803b158015612f8057600080fd5b505af4158015612f94573d6000803e3d6000fd5b505050506040513d6020811015612faa57600080fd5b810190808051906020019092919050505090506000811115612fd257612fd18787836152c9565b5b3373ffffffffffffffffffffffffffffffffffffffff1686887f47a75fa3188612bc1341726d7859491a32bf875dd309474f712950354f73c5a760405160405180910390a4600192505050949350505050565b60008073ffffffffffffffffffffffffffffffffffffffff168573ffffffffffffffffffffffffffffffffffffffff16141515156130cb576040517f08c379a00000000000000000000000000000000000000000000000000000000081526004018080602001828103825260188152602001807f496e76616c6964205f7370656e6465722061646472657373000000000000000081525060200191505060405180910390fd5b60006130da3087878787613627565b905060006130e88289614ddc565b9050600073ffffffffffffffffffffffffffffffffffffffff168173ffffffffffffffffffffffffffffffffffffffff161415151561318f576040517f08c379a000000000000000000000000000000000000000000000000000000000815260040180806020018281038252601e8152602001807f496e76616c69642066726f6d2061646472657373207265636f7665726564000081525060200191505060405180910390fd5b60008183604051602001808373ffffffffffffffffffffffffffffffffffffffff1673ffffffffffffffffffffffffffffffffffffffff166c010000000000000000000000000281526014018281526020019250505060405160208183030381529060405280519060200120905060001515609d600083815260200190815260200160002060009054906101000a900460ff1615151415156132bf576040517f08c379a00000000000000000000000000000000000000000000000000000000081526004018080602001828103825260218152602001807f5472616e73616374696f6e20686173682077617320616c72656164792075736581526020017f640000000000000000000000000000000000000000000000000000000000000081525060400191505060405180910390fd5b6001609d600083815260200190815260200160002060006101000a81548160ff0219169083151502179055506132f6828989614c79565b613301823388614ec0565b3373ffffffffffffffffffffffffffffffffffffffff168873ffffffffffffffffffffffffffffffffffffffff168373ffffffffffffffffffffffffffffffffffffffff167f43a220267705e74ee2ceafd46afc841850db6f85a662189a7def697bbdd90ffb8a8a604051808381526020018281526020019250505060405180910390a46001935050505095945050505050565b60b85481565b6000606860008373ffffffffffffffffffffffffffffffffffffffff1673ffffffffffffffffffffffffffffffffffffffff168152602001908152602001600020549050919050565b600060b960009054906101000a900473ffffffffffffffffffffffffffffffffffffffff1673ffffffffffffffffffffffffffffffffffffffff163373ffffffffffffffffffffffffffffffffffffffff161415156134ab576040517f08c379a00000000000000000000000000000000000000000000000000000000081526004018080602001828103825260168152602001807f4d7573742062652074686520636f6e74726f6c6c65720000000000000000000081525060200191505060405180910390fd5b73__PropsRewardsLib_______________________63cc1b8c9c60a085856040518463ffffffff167c01000000000000000000000000000000000000000000000000000000000281526004018084815260200183815260200180602001828103825283818151815260200191508051906020019060200280838360005b83811015613543578082015181840152602081019050613528565b5050505090500194505050505060206040518083038186803b15801561356857600080fd5b505af415801561357c573d6000803e3d6000fd5b505050506040513d602081101561359257600080fd5b810190808051906020019092919050505050827f426b639e1d49f62952a4d3282b37648fb8c47ac20b15e01548c104b75c787c0c836040518080602001828103825283818151815260200191508051906020019060200280838360005b8381101561360a5780820151818401526020810190506135ef565b505050509050019250505060405180910390a26001905092915050565b60006379250dcf7c010000000000000000000000000000000000000000000000000000000002868686868660405160200180877bffffffffffffffffffffffffffffffffffffffffffffffffffffffff19167bffffffffffffffffffffffffffffffffffffffffffffffffffffffff191681526004018673ffffffffffffffffffffffffffffffffffffffff1673ffffffffffffffffffffffffffffffffffffffff166c010000000000000000000000000281526014018573ffffffffffffffffffffffffffffffffffffffff1673ffffffffffffffffffffffffffffffffffffffff166c01000000000000000000000000028152601401848152602001838152602001828152602001965050505050505060405160208183030381529060405280519060200120905095945050505050565b606060348054600181600116156101000203166002900480601f0160208091040260200160405190810160405280929190818152602001828054600181600116156101000203166002900480156137f25780601f106137c7576101008083540402835291602001916137f2565b820191906000526020600020905b8154815290600101906020018083116137d557829003601f168201915b5050505050905090565b600073__PropsRewardsLib_______________________6346e3a29860a0878787876040518663ffffffff167c01000000000000000000000000000000000000000000000000000000000281526004018086815260200185600181111561385f57fe5b60ff1681526020018481526020018373ffffffffffffffffffffffffffffffffffffffff1673ffffffffffffffffffffffffffffffffffffffff1681526020018273ffffffffffffffffffffffffffffffffffffffff1673ffffffffffffffffffffffffffffffffffffffff1681526020019550505050505060206040518083038186803b1580156138f057600080fd5b505af4158015613904573d6000803e3d6000fd5b505050506040513d602081101561391a57600080fd5b8101908080519060200190929190505050508173ffffffffffffffffffffffffffffffffffffffff1685600181111561394f57fe5b3373ffffffffffffffffffffffffffffffffffffffff167fac4aacb75e6f9ac6f2fee64077e9436dfb1be853b1a850b7863cf1433f0e75288787604051808381526020018273ffffffffffffffffffffffffffffffffffffffff1673ffffffffffffffffffffffffffffffffffffffff1681526020019250505060405180910390a460019050949350505050565b6000613a783384613a7385606960003373ffffffffffffffffffffffffffffffffffffffff1673ffffffffffffffffffffffffffffffffffffffff16815260200190815260200160002060008973ffffffffffffffffffffffffffffffffffffffff1673ffffffffffffffffffffffffffffffffffffffff168152602001908152602001600020546155bf90919063ffffffff16565b614c79565b6001905092915050565b600063a70c41b47c01000000000000000000000000000000000000000000000000000000000287878787878760405160200180887bffffffffffffffffffffffffffffffffffffffffffffffffffffffff19167bffffffffffffffffffffffffffffffffffffffffffffffffffffffff191681526004018773ffffffffffffffffffffffffffffffffffffffff1673ffffffffffffffffffffffffffffffffffffffff166c010000000000000000000000000281526014018673ffffffffffffffffffffffffffffffffffffffff1673ffffffffffffffffffffffffffffffffffffffff166c010000000000000000000000000281526014018573ffffffffffffffffffffffffffffffffffffffff1673ffffffffffffffffffffffffffffffffffffffff166c010000000000000000000000000281526014018481526020018381526020018281526020019750505050505050506040516020818303038152906040528051906020012090509695505050505050565b600033609e54421180613c595750609f60009054906101000a900473ffffffffffffffffffffffffffffffffffffffff1673ffffffffffffffffffffffffffffffffffffffff168173ffffffffffffffffffffffffffffffffffffffff16145b1515613cf3576040517f08c379a000000000000000000000000000000000000000000000000000000000815260040180806020018281038252603d8152602001807f43616e6e6f74207472616e73666572206265666f7265207472616e736665727381526020017f2073746172742074696d652066726f6d2074686973206163636f756e7400000081525060400191505060405180910390fd5b613cfd84846155e1565b91505092915050565b60008073ffffffffffffffffffffffffffffffffffffffff168573ffffffffffffffffffffffffffffffffffffffff1614151515613dac576040517f08c379a00000000000000000000000000000000000000000000000000000000081526004018080602001828103825260138152602001807f496e76616c6964205f746f20616464726573730000000000000000000000000081525060200191505060405180910390fd5b6000613dbc308888888888613a82565b90506000613dca828a614ddc565b9050600073ffffffffffffffffffffffffffffffffffffffff168173ffffffffffffffffffffffffffffffffffffffff1614151515613e97576040517f08c379a00000000000000000000000000000000000000000000000000000000081526004018080602001828103825260218152602001807f496e76616c6964207370656e6465722061646472657373207265636f7665726581526020017f640000000000000000000000000000000000000000000000000000000000000081525060400191505060405180910390fd5b60008183604051602001808373ffffffffffffffffffffffffffffffffffffffff1673ffffffffffffffffffffffffffffffffffffffff166c010000000000000000000000000281526014018281526020019250505060405160208183030381529060405280519060200120905060001515609d600083815260200190815260200160002060009054906101000a900460ff161515141515613fc7576040517f08c379a00000000000000000000000000000000000000000000000000000000081526004018080602001828103825260218152602001807f5472616e73616374696f6e20686173682077617320616c72656164792075736581526020017f640000000000000000000000000000000000000000000000000000000000000081525060400191505060405180910390fd5b6001609d600083815260200190815260200160002060006101000a81548160ff021916908315150217905550613ffe898989614ec0565b614024898361401f8a6140118e88614249565b6155bf90919063ffffffff16565b614c79565b61402f823388614ec0565b3373ffffffffffffffffffffffffffffffffffffffff168873ffffffffffffffffffffffffffffffffffffffff168a73ffffffffffffffffffffffffffffffffffffffff167fec5a73fd1f178be20c1bca1b406cbf4b5c20d833b66e582fc122fb4baa0fc2a48a8a604051808381526020018281526020019250505060405180910390a4600193505050509695505050505050565b609e5481565b600060019054906101000a900460ff16806140e957506140e8615090565b5b8061410057506000809054906101000a900460ff16155b151561419a576040517f08c379a000000000000000000000000000000000000000000000000000000000815260040180806020018281038252602e8152602001807f436f6e747261637420696e7374616e63652068617320616c726561647920626581526020017f656e20696e697469616c697a656400000000000000000000000000000000000081525060400191505060405180910390fd5b60008060019054906101000a900460ff1690506001600060016101000a81548160ff02191690831515021790555060016000806101000a81548160ff02191690831515021790555082609e8190555081609f60006101000a81548173ffffffffffffffffffffffffffffffffffffffff021916908373ffffffffffffffffffffffffffffffffffffffff16021790555080600060016101000a81548160ff021916908315150217905550505050565b6000606960008473ffffffffffffffffffffffffffffffffffffffff1673ffffffffffffffffffffffffffffffffffffffff16815260200190815260200160002060008373ffffffffffffffffffffffffffffffffffffffff1673ffffffffffffffffffffffffffffffffffffffff16815260200190815260200160002054905092915050565b600060b960009054906101000a900473ffffffffffffffffffffffffffffffffffffffff1673ffffffffffffffffffffffffffffffffffffffff163373ffffffffffffffffffffffffffffffffffffffff16141515614397576040517f08c379a00000000000000000000000000000000000000000000000000000000081526004018080602001828103825260168152602001807f4d7573742062652074686520636f6e74726f6c6c65720000000000000000000081525060200191505060405180910390fd5b73__PropsRewardsLib_______________________6363cad06a60a085856040518463ffffffff167c01000000000000000000000000000000000000000000000000000000000281526004018084815260200183815260200180602001828103825283818151815260200191508051906020019060200280838360005b8381101561442f578082015181840152602081019050614414565b5050505090500194505050505060206040518083038186803b15801561445457600080fd5b505af4158015614468573d6000803e3d6000fd5b505050506040513d602081101561447e57600080fd5b810190808051906020019092919050505050827f25071f4c6ebdf865da246a5caf6a5bbcbe50f6443e15309b97b10043c6beb1d9836040518080602001828103825283818151815260200191508051906020019060200280838360005b838110156144f65780820151818401526020810190506144db565b505050509050019250505060405180910390a26001905092915050565b600060129050614525848285856155f8565b50505050565b60008073ffffffffffffffffffffffffffffffffffffffff168573ffffffffffffffffffffffffffffffffffffffff16141515156145d1576040517f08c379a00000000000000000000000000000000000000000000000000000000081526004018080602001828103825260188152602001807f496e76616c6964205f7370656e6465722061646472657373000000000000000081525060200191505060405180910390fd5b60006145e03087878787612b34565b905060006145ee8289614ddc565b9050600073ffffffffffffffffffffffffffffffffffffffff168173ffffffffffffffffffffffffffffffffffffffff1614151515614695576040517f08c379a000000000000000000000000000000000000000000000000000000000815260040180806020018281038252601e8152602001807f496e76616c69642066726f6d2061646472657373207265636f7665726564000081525060200191505060405180910390fd5b60008183604051602001808373ffffffffffffffffffffffffffffffffffffffff1673ffffffffffffffffffffffffffffffffffffffff166c010000000000000000000000000281526014018281526020019250505060405160208183030381529060405280519060200120905060001515609d600083815260200190815260200160002060009054906101000a900460ff1615151415156147c5576040517f08c379a00000000000000000000000000000000000000000000000000000000081526004018080602001828103825260218152602001807f5472616e73616374696f6e20686173682077617320616c72656164792075736581526020017f640000000000000000000000000000000000000000000000000000000000000081525060400191505060405180910390fd5b6001609d600083815260200190815260200160002060006101000a81548160ff02191690831515021790555061481782896148128a614804878e614249565b6155bf90919063ffffffff16565b614c79565b614822823388614ec0565b3373ffffffffffffffffffffffffffffffffffffffff168873ffffffffffffffffffffffffffffffffffffffff168373ffffffffffffffffffffffffffffffffffffffff167f43a220267705e74ee2ceafd46afc841850db6f85a662189a7def697bbdd90ffb614892868d614249565b8a604051808381526020018281526020019250505060405180910390a46001935050505095945050505050565b60b960009054906101000a900473ffffffffffffffffffffffffffffffffffffffff1681565b60008073ffffffffffffffffffffffffffffffffffffffff168573ffffffffffffffffffffffffffffffffffffffff161415151561498b576040517f08c379a00000000000000000000000000000000000000000000000000000000081526004018080602001828103825260188152602001807f496e76616c6964205f7370656e6465722061646472657373000000000000000081525060200191505060405180910390fd5b600061499a3087878787612160565b905060006149a88289614ddc565b9050600073ffffffffffffffffffffffffffffffffffffffff168173ffffffffffffffffffffffffffffffffffffffff1614151515614a4f576040517f08c379a000000000000000000000000000000000000000000000000000000000815260040180806020018281038252601e8152602001807f496e76616c69642066726f6d2061646472657373207265636f7665726564000081525060200191505060405180910390fd5b60008183604051602001808373ffffffffffffffffffffffffffffffffffffffff1673ffffffffffffffffffffffffffffffffffffffff166c010000000000000000000000000281526014018281526020019250505060405160208183030381529060405280519060200120905060001515609d600083815260200190815260200160002060009054906101000a900460ff161515141515614b7f576040517f08c379a00000000000000000000000000000000000000000000000000000000081526004018080602001828103825260218152602001807f5472616e73616374696f6e20686173682077617320616c72656164792075736581526020017f640000000000000000000000000000000000000000000000000000000000000081525060400191505060405180910390fd5b6001609d600083815260200190815260200160002060006101000a81548160ff021916908315150217905550614bd18289614bcc8a614bbe878e614249565b6152a890919063ffffffff16565b614c79565b614bdc823388614ec0565b3373ffffffffffffffffffffffffffffffffffffffff168873ffffffffffffffffffffffffffffffffffffffff168373ffffffffffffffffffffffffffffffffffffffff167f43a220267705e74ee2ceafd46afc841850db6f85a662189a7def697bbdd90ffb614c4c868d614249565b8a604051808381526020018281526020019250505060405180910390a46001935050505095945050505050565b600073ffffffffffffffffffffffffffffffffffffffff168273ffffffffffffffffffffffffffffffffffffffff1614151515614cb557600080fd5b600073ffffffffffffffffffffffffffffffffffffffff168373ffffffffffffffffffffffffffffffffffffffff1614151515614cf157600080fd5b80606960008573ffffffffffffffffffffffffffffffffffffffff1673ffffffffffffffffffffffffffffffffffffffff16815260200190815260200160002060008473ffffffffffffffffffffffffffffffffffffffff1673ffffffffffffffffffffffffffffffffffffffff168152602001908152602001600020819055508173ffffffffffffffffffffffffffffffffffffffff168373ffffffffffffffffffffffffffffffffffffffff167f8c5be1e5ebec7d5bd14f71427d1e84f3dd0314c0f7b2291e5b200ac8c7c3b925836040518082815260200191505060405180910390a3505050565b60008060008060418551141515614df95760009350505050614eba565b6020850151925060408501519150606085015160001a9050601b8160ff161015614e2457601b810190505b601b8160ff1614158015614e3c5750601c8160ff1614155b15614e4d5760009350505050614eba565b60018682858560405160008152602001604052604051808581526020018460ff1660ff1681526020018381526020018281526020019450505050506020604051602081039080840390855afa158015614eaa573d6000803e3d6000fd5b5050506020604051035193505050505b92915050565b600073ffffffffffffffffffffffffffffffffffffffff168273ffffffffffffffffffffffffffffffffffffffff1614151515614efc57600080fd5b614f4e81606860008673ffffffffffffffffffffffffffffffffffffffff1673ffffffffffffffffffffffffffffffffffffffff168152602001908152602001600020546155bf90919063ffffffff16565b606860008573ffffffffffffffffffffffffffffffffffffffff1673ffffffffffffffffffffffffffffffffffffffff16815260200190815260200160002081905550614fe381606860008573ffffffffffffffffffffffffffffffffffffffff1673ffffffffffffffffffffffffffffffffffffffff168152602001908152602001600020546152a890919063ffffffff16565b606860008473ffffffffffffffffffffffffffffffffffffffff1673ffffffffffffffffffffffffffffffffffffffff168152602001908152602001600020819055508173ffffffffffffffffffffffffffffffffffffffff168373ffffffffffffffffffffffffffffffffffffffff167fddf252ad1be2c89b69c2b068fc378daa952ba7f163c4a11628f55a4df523b3ef836040518082815260200191505060405180910390a3505050565b600080303b90506000811491505090565b60006150ae848484614ec0565b615147843361514285606960008a73ffffffffffffffffffffffffffffffffffffffff1673ffffffffffffffffffffffffffffffffffffffff16815260200190815260200160002060003373ffffffffffffffffffffffffffffffffffffffff1673ffffffffffffffffffffffffffffffffffffffff168152602001908152602001600020546155bf90919063ffffffff16565b614c79565b600190509392505050565b600073ffffffffffffffffffffffffffffffffffffffff168273ffffffffffffffffffffffffffffffffffffffff161415151561518e57600080fd5b6151a381606a546152a890919063ffffffff16565b606a819055506151fb81606860008573ffffffffffffffffffffffffffffffffffffffff1673ffffffffffffffffffffffffffffffffffffffff168152602001908152602001600020546152a890919063ffffffff16565b606860008473ffffffffffffffffffffffffffffffffffffffff1673ffffffffffffffffffffffffffffffffffffffff168152602001908152602001600020819055508173ffffffffffffffffffffffffffffffffffffffff16600073ffffffffffffffffffffffffffffffffffffffff167fddf252ad1be2c89b69c2b068fc378daa952ba7f163c4a11628f55a4df523b3ef836040518082815260200191505060405180910390a35050565b60008082840190508381101515156152bf57600080fd5b8091505092915050565b600060a0600f01600001600084815260200190815260200160002060010180549050905060008090505b818110156153ca576153bd60a0600201600060a0600f0160000160008881526020019081526020016000206001018481548110151561532e57fe5b9060005260206000200160009054906101000a900473ffffffffffffffffffffffffffffffffffffffff1673ffffffffffffffffffffffffffffffffffffffff1673ffffffffffffffffffffffffffffffffffffffff16815260200190815260200160002060010160009054906101000a900473ffffffffffffffffffffffffffffffffffffffff1684615152565b80806001019150506152f3565b5073__PropsRewardsLib_______________________639dec8c4560a06040518263ffffffff167c01000000000000000000000000000000000000000000000000000000000281526004018082815260200191505060206040518083038186803b15801561543757600080fd5b505af415801561544b573d6000803e3d6000fd5b505050506040513d602081101561546157600080fd5b81019080805190602001909291905050505082847f07efea0e0eeb975e5404139e47d884d2705a0660a3456aa31c5694df1d8c5f1483848602604051808381526020018281526020019250505060405180910390a350505050565b60008090505b83518110156155755761556860a0600001600086848151811015156154e357fe5b9060200190602002015173ffffffffffffffffffffffffffffffffffffffff1673ffffffffffffffffffffffffffffffffffffffff16815260200190815260200160002060010160009054906101000a900473ffffffffffffffffffffffffffffffffffffffff16848381518110151561555957fe5b90602001906020020151615152565b80806001019150506154c2565b5083857fcc511f1b8ddd8ab10bcb89c26361da1c99b826350e3f38ee438134149032568a855184604051808381526020018281526020019250505060405180910390a35050505050565b60008282111515156155d057600080fd5b600082840390508091505092915050565b60006155ee338484614ec0565b6001905092915050565b600060b754141515615698576040517f08c379a00000000000000000000000000000000000000000000000000000000081526004018080602001828103825260308152602001807f496e697469616c697a6520726577617264732075706772616465312063616e2081526020017f68617070656e206f6e6c79206f6e63650000000000000000000000000000000081525060400191505060405180910390fd5b8360b960006101000a81548173ffffffffffffffffffffffffffffffffffffffff021916908373ffffffffffffffffffffffffffffffffffffffff16021790555073__PropsRewardsLib_______________________6311cb33da60a060006187be60006040518563ffffffff167c01000000000000000000000000000000000000000000000000000000000281526004018085815260200184600381111561573d57fe5b60ff16815260200183815260200182815260200194505050505060206040518083038186803b15801561576f57600080fd5b505af4158015615783573d6000803e3d6000fd5b505050506040513d602081101561579957600080fd5b81019080805190602001909291905050505073__PropsRewardsLib_______________________6311cb33da60a060016308f0d18060006040518563ffffffff167c01000000000000000000000000000000000000000000000000000000000281526004018085815260200184600381111561581157fe5b60ff16815260200183815260200182815260200194505050505060206040518083038186803b15801561584357600080fd5b505af4158015615857573d6000803e3d6000fd5b505050506040513d602081101561586d57600080fd5b81019080805190602001909291905050505073__PropsRewardsLib_______________________6311cb33da60a060026302faf08060006040518563ffffffff167c0100000000000000000000000000000000000000000000000000000000028152600401808581526020018460038111156158e557fe5b60ff16815260200183815260200182815260200194505050505060206040518083038186803b15801561591757600080fd5b505af415801561592b573d6000803e3d6000fd5b505050506040513d602081101561594157600080fd5b81019080805190602001909291905050505073__PropsRewardsLib_______________________6311cb33da60a0600361072560006040518563ffffffff167c0100000000000000000000000000000000000000000000000000000000028152600401808581526020018460038111156159b757fe5b60ff16815260200183815260200182815260200194505050505060206040518083038186803b1580156159e957600080fd5b505af41580156159fd573d6000803e3d6000fd5b505050506040513d6020811015615a1357600080fd5b81019080805190602001909291905050505082600a0a633b9aca000260b781905560a0601601819055508060b881905560a0601501819055508160a06014018190555050505050565b828054600181600116156101000203166002900490600052602060002090601f016020900481019282601f10615a9d57805160ff1916838001178555615acb565b82800160010185558215615acb579182015b82811115615aca578251825591602001919060010190615aaf565b5b509050615ad89190615adc565b5090565b615afe91905b80821115615afa576000816000905550600101615ae2565b5090565b9056fea165627a7a723058203ddbac23a190f90d3c3ef0df8aeecf2ca1d40980d41a21bc212bc6044a9bc3500029",
  "source": "pragma solidity ^0.5.0;\n\nimport \"zos-lib/contracts/Initializable.sol\";\nimport \"openzeppelin-eth/contracts/token/ERC20/ERC20Detailed.sol\";\nimport \"./PropsTimeBasedTransfers.sol\";\nimport \"./ERC865Token.sol\";\nimport \"./PropsRewards.sol\";\n\n/**\n * @title PROPSToken\n * @dev PROPS token contract (based of ZEPToken by openzeppelin), a detailed ERC20 token\n * https://github.com/zeppelinos/zos-vouching/blob/master/contracts/ZEPToken.sol\n * PROPS are divisible by 1e18 base\n * units referred to as 'AttoPROPS'.\n *\n * PROPS are displayed using 18 decimal places of precision.\n *\n * 1 PROPS is equivalent to:\n *   1 * 1e18 == 1e18 == One Quintillion AttoPROPS\n *\n * 600 Million PROPS (total supply) is equivalent to:\n *   600000000 * 1e18 == 6e26 AttoPROPS\n *\n\n */\n\n\ncontract PropsToken is Initializable, ERC20Detailed, ERC865Token, PropsTimeBasedTransfers, PropsRewards {\n\n  /**\n   * @dev Initializer function. Called only once when a proxy for the contract is created.\n   * @param _holder address that will receive it's initial supply and be able to transfer before transfers start time\n   * @param _transfersStartTime uint256 Unix Timestamp from which transfers are allowed\n   * @param _controller address that will have controller functionality on rewards protocol\n   * @param _minSecondsBetweenDays uint256 seconds required to pass between consecutive rewards day\n   * @param _rewardsStartTimestamp uint256 day 0 timestamp\n   */\n  function initialize(\n    address _holder,\n    uint256 _transfersStartTime,\n    address _controller,\n    uint256 _minSecondsBetweenDays,\n    uint256 _rewardsStartTimestamp\n  )\n    public\n    initializer\n  {\n    uint8 decimals = 18;\n    // total supply is 600,000,000 PROPS specified in AttoPROPS\n    uint256 totalSupply = 0.6 * 1e9 * (10 ** uint256(decimals));\n\n    ERC20Detailed.initialize(\"Props Token\", \"PROPS\", decimals);\n    PropsTimeBasedTransfers.initialize(_transfersStartTime, _holder);\n    PropsRewards.initializePostRewardsUpgrade1(_controller, _minSecondsBetweenDays, _rewardsStartTimestamp);\n    _mint(_holder, totalSupply);\n  }\n}",
  "sourcePath": "/Users/jretina/Programming/props/props-token-distribution/contracts/token/PropsToken.sol",
  "compiler": {
    "name": "solc",
    "version": "0.5.0+commit.1d4f565a.Emscripten.clang"
  },
  "schemaVersion": "3.0.9",
  "updatedAt": "2019-05-27T13:04:52.073Z",
  "devdoc": {
    "details": "PROPS token contract (based of ZEPToken by openzeppelin), a detailed ERC20 token https://github.com/zeppelinos/zos-vouching/blob/master/contracts/ZEPToken.sol PROPS are divisible by 1e18 base units referred to as 'AttoPROPS'. * PROPS are displayed using 18 decimal places of precision. * 1 PROPS is equivalent to:  1 * 1e18 == 1e18 == One Quintillion AttoPROPS * 600 Million PROPS (total supply) is equivalent to:  600000000 * 1e18 == 6e26 AttoPROPS  ",
    "methods": {
      "allowance(address,address)": {
        "details": "Function to check the amount of tokens that an owner allowed to a spender.",
        "params": {
          "owner": "address The address which owns the funds.",
          "spender": "address The address which will spend the funds."
        },
        "return": "A uint256 specifying the amount of tokens still available for the spender."
      },
      "approve(address,uint256)": {
        "details": "Approve the passed address to spend the specified amount of tokens on behalf of msg.sender. Beware that changing an allowance with this method brings the risk that someone may use both the old and the new allowance by unfortunate transaction ordering. One possible solution to mitigate this race condition is to first reduce the spender's allowance to 0 and set the desired value afterwards: https://github.com/ethereum/EIPs/issues/20#issuecomment-263524729",
        "params": {
          "spender": "The address which will spend the funds.",
          "value": "The amount of tokens to be spent."
        }
      },
      "approvePreSigned(bytes,address,uint256,uint256,uint256)": {
        "details": "Submit a presigned approval",
        "params": {
          "_fee": "uint256 The amount of tokens paid to msg.sender, by the owner.",
          "_nonce": "uint256 Presigned transaction number.",
          "_signature": "bytes The signature, issued by the owner.",
          "_spender": "address The address which will spend the funds.",
          "_value": "uint256 The amount of tokens to allow."
        }
      },
      "balanceOf(address)": {
        "details": "Gets the balance of the specified address.",
        "params": {
          "owner": "The address to query the balance of."
        },
        "return": "An uint256 representing the amount owned by the passed address."
      },
      "decimals()": {
        "return": "the number of decimals of the token."
      },
      "decreaseAllowance(address,uint256)": {
        "details": "Decrease the amount of tokens that an owner allowed to a spender. approve should be called when allowed_[_spender] == 0. To decrement allowed value is better to use this function to avoid 2 calls (and wait until the first transaction is mined) From MonolithDAO Token.sol Emits an Approval event.",
        "params": {
          "spender": "The address which will spend the funds.",
          "subtractedValue": "The amount of tokens to decrease the allowance by."
        }
      },
      "decreaseAllowancePreSigned(bytes,address,uint256,uint256,uint256)": {
        "details": "Decrease the amount of tokens that an owner allowed to a spender.",
        "params": {
          "_fee": "uint256 The amount of tokens paid to msg.sender, by the owner.",
          "_nonce": "uint256 Presigned transaction number.",
          "_signature": "bytes The signature, issued by the owner",
          "_spender": "address The address which will spend the funds.",
          "_subtractedValue": "uint256 The amount of tokens to decrease the allowance by."
        }
      },
      "getApprovePreSignedHash(address,address,uint256,uint256,uint256)": {
        "details": "Hash (keccak256) of the payload used by approvePreSigned",
        "params": {
          "_fee": "uint256 The amount of tokens paid to msg.sender, by the owner.",
          "_nonce": "uint256 Presigned transaction number.",
          "_spender": "address The address which will spend the funds.",
          "_token": "address The address of the token",
          "_value": "uint256 The amount of tokens to allow."
        }
      },
      "getDecreaseAllowancePreSignedHash(address,address,uint256,uint256,uint256)": {
        "details": "Hash (keccak256) of the payload used by decreaseAllowancePreSigned",
        "params": {
          "_fee": "uint256 The amount of tokens paid to msg.sender, by the owner.",
          "_nonce": "uint256 Presigned transaction number.",
          "_spender": "address The address which will spend the funds.",
          "_subtractedValue": "uint256 The amount of tokens to decrease the allowance by.",
          "_token": "address The address of the token"
        }
      },
      "getEntities(uint8,uint256)": {
        "details": "Get the applications or validators list",
        "params": {
          "_entityType": "RewardedEntityType either application (0) or validator (1)",
          "_rewardsDay": "uint256 the rewards day to use for this value"
        }
      },
      "getIncreaseAllowancePreSignedHash(address,address,uint256,uint256,uint256)": {
        "details": "Hash (keccak256) of the payload used by increaseAllowancePreSigned",
        "params": {
          "_addedValue": "uint256 The amount of tokens to increase the allowance by.",
          "_fee": "uint256 The amount of tokens paid to msg.sender, by the owner.",
          "_nonce": "uint256 Presigned transaction number.",
          "_spender": "address The address which will spend the funds.",
          "_token": "address The address of the token"
        }
      },
      "getParameter(uint8,uint256)": {
        "details": "Allows getting a parameter value based on timestamp",
        "params": {
          "_name": "ParameterName name of the parameter",
          "_rewardsDay": "uint256 starting when should this parameter use the current value"
        }
      },
      "getTransferFromPreSignedHash(address,address,address,uint256,uint256,uint256)": {
        "details": "Hash (keccak256) of the payload used by transferFromPreSigned",
        "params": {
          "_fee": "uint256 The amount of tokens paid to msg.sender, by the spender.",
          "_from": "address The address which you want to send tokens from.",
          "_nonce": "uint256 Presigned transaction number.",
          "_to": "address The address which you want to transfer to.",
          "_token": "address The address of the token",
          "_value": "uint256 The amount of tokens to be transferred."
        }
      },
      "getTransferPreSignedHash(address,address,uint256,uint256,uint256)": {
        "details": "Hash (keccak256) of the payload used by transferPreSigned",
        "params": {
          "_fee": "uint256 The amount of tokens paid to msg.sender, by the owner.",
          "_nonce": "uint256 Presigned transaction number.",
          "_to": "address The address which you want to transfer to.",
          "_token": "address The address of the token.",
          "_value": "uint256 The amount of tokens to be transferred."
        }
      },
      "increaseAllowance(address,uint256)": {
        "details": "Increase the amount of tokens that an owner allowed to a spender. approve should be called when allowed_[_spender] == 0. To increment allowed value is better to use this function to avoid 2 calls (and wait until the first transaction is mined) From MonolithDAO Token.sol Emits an Approval event.",
        "params": {
          "addedValue": "The amount of tokens to increase the allowance by.",
          "spender": "The address which will spend the funds."
        }
      },
      "increaseAllowancePreSigned(bytes,address,uint256,uint256,uint256)": {
        "details": "Increase the amount of tokens that an owner allowed to a spender.",
        "params": {
          "_addedValue": "uint256 The amount of tokens to increase the allowance by.",
          "_fee": "uint256 The amount of tokens paid to msg.sender, by the owner.",
          "_nonce": "uint256 Presigned transaction number.",
          "_signature": "bytes The signature, issued by the owner.",
          "_spender": "address The address which will spend the funds."
        }
      },
      "initialize(address,uint256,address,uint256,uint256)": {
        "details": "Initializer function. Called only once when a proxy for the contract is created.",
        "params": {
          "_controller": "address that will have controller functionality on rewards protocol",
          "_holder": "address that will receive it's initial supply and be able to transfer before transfers start time",
          "_minSecondsBetweenDays": "uint256 seconds required to pass between consecutive rewards day",
          "_rewardsStartTimestamp": "uint256 day 0 timestamp",
          "_transfersStartTime": "uint256 Unix Timestamp from which transfers are allowed"
        }
      },
      "initialize(uint256,address)": {
        "details": "The initializer function, with transfers start time `transfersStartTime` (unix timestamp) and `canTransferBeforeStartTime` address which is exempt from start time restrictions",
        "params": {
          "account": "uint256 address exempt from the start date check",
          "start": "uint Unix timestamp of when transfers can start"
        }
      },
      "initializePostRewardsUpgrade1(address,uint256,uint256)": {
        "details": "The initializer function for upgrade as initialize was already called, get the decimals used in the token to initialize the params",
        "params": {
          "_controller": "address that will have controller functionality on rewards protocol",
          "_minSecondsBetweenDays": "uint256 seconds required to pass between consecutive rewards day",
          "_rewardsStartTimestamp": "uint256 day 0 timestamp"
        }
      },
      "name()": {
        "return": "the name of the token."
      },
      "setApplications(uint256,address[])": {
        "details": "Set new applications list",
        "params": {
          "_applications": "address[] array of validators",
          "_rewardsDay": "uint256 the rewards day from which this change should take effect"
        }
      },
      "setValidators(uint256,address[])": {
        "details": "Set new validators list",
        "params": {
          "_rewardsDay": "uint256 the rewards day from which this change should take effect",
          "_validators": "address[] array of validators"
        }
      },
      "submitDailyRewards(uint256,bytes32,address[],uint256[])": {
        "details": "The function is called by validators with the calculation of the daily rewards",
        "params": {
          "_amounts": "uint256[] array of amounts each app should get",
          "_applications": "address[] array of application addresses getting the daily reward",
          "_rewardsDay": "uint256 the rewards day",
          "_rewardsHash": "bytes32 hash of the rewards data"
        }
      },
      "symbol()": {
        "return": "the symbol of the token."
      },
      "totalSupply()": {
        "details": "Total number of tokens in existence"
      },
      "transfer(address,uint256)": {
        "details": "Transfer token for a specified address if allowed",
        "params": {
          "to": "The address to transfer to.",
          "value": "The amount to be transferred."
        }
      },
      "transferFrom(address,address,uint256)": {
        "details": "Transfer tokens from one address to another if allowed Note that while this function emits an Approval event, this is not required as per the specification, and other compliant implementations may not emit the event.",
        "params": {
          "from": "address The address which you want to send tokens from",
          "to": "address The address which you want to transfer to",
          "value": "uint256 the amount of tokens to be transferred"
        }
      },
      "transferFromPreSigned(bytes,address,address,uint256,uint256,uint256)": {
        "details": "Transfer tokens from one address to another",
        "params": {
          "_fee": "uint256 The amount of tokens paid to msg.sender, by the spender.",
          "_from": "address The address which you want to send tokens from.",
          "_nonce": "uint256 Presigned transaction number.",
          "_signature": "bytes The signature, issued by the spender.",
          "_to": "address The address which you want to transfer to.",
          "_value": "uint256 The amount of tokens to be transferred."
        }
      },
      "transferPreSigned(bytes,address,uint256,uint256,uint256)": {
        "details": "Submit a presigned transfer",
        "params": {
          "_fee": "uint256 The amount of tokens paid to msg.sender, by the owner.",
          "_nonce": "uint256 Presigned transaction number.",
          "_signature": "bytes The signature, issued by the owner.",
          "_to": "address The address which you want to transfer to.",
          "_value": "uint256 The amount of tokens to be transferred."
        }
      },
      "updateController(address)": {
        "details": "Allows the controller/owner to update to a new controller",
        "params": {
          "_controller": "address address of the new controller"
        }
      },
      "updateEntity(uint8,bytes32,address,address)": {
        "details": "Allows an application or validator to add/update its details",
        "params": {
          "_entityType": "RewardedEntityType either application (0) or validator (1)",
          "_name": "bytes32 name of the app",
          "_rewardsAddress": "address an address for the app to receive the rewards",
          "_sidechainAddress": "address the address used for using the sidechain"
        }
      },
      "updateParameter(uint8,uint256,uint256)": {
        "details": "Allows the controller/owner to update rewards parameters",
        "params": {
          "_name": "ParameterName name of the parameter",
          "_rewardsDay": "uint256 starting when should this parameter use the current value",
          "_value": "uint256 new value for the parameter"
        }
      }
    },
    "title": "PROPSToken"
  },
  "userdoc": {
    "methods": {
      "approvePreSigned(bytes,address,uint256,uint256,uint256)": {
        "notice": "fee will be given to sender if it's a smart contract make sure it can accept funds"
      },
      "decreaseAllowancePreSigned(bytes,address,uint256,uint256,uint256)": {
        "notice": "fee will be given to sender if it's a smart contract make sure it can accept funds"
      },
      "getApprovePreSignedHash(address,address,uint256,uint256,uint256)": {
        "notice": "fee will be given to sender if it's a smart contract make sure it can accept funds"
      },
      "getDecreaseAllowancePreSignedHash(address,address,uint256,uint256,uint256)": {
        "notice": "fee will be given to sender if it's a smart contract make sure it can accept funds"
      },
      "getIncreaseAllowancePreSignedHash(address,address,uint256,uint256,uint256)": {
        "notice": "fee will be given to sender if it's a smart contract make sure it can accept funds"
      },
      "getTransferFromPreSignedHash(address,address,address,uint256,uint256,uint256)": {
        "notice": "fee will be given to sender if it's a smart contract make sure it can accept funds"
      },
      "getTransferPreSignedHash(address,address,uint256,uint256,uint256)": {
        "notice": "fee will be given to sender if it's a smart contract make sure it can accept funds"
      },
      "increaseAllowancePreSigned(bytes,address,uint256,uint256,uint256)": {
        "notice": "fee will be given to sender if it's a smart contract make sure it can accept funds"
      },
      "transferFromPreSigned(bytes,address,address,uint256,uint256,uint256)": {
        "notice": "fee will be given to sender if it's a smart contract make sure it can accept funds"
      },
      "transferPreSigned(bytes,address,uint256,uint256,uint256)": {
        "notice": "fee will be given to sender if it's a smart contract make sure it can accept funds"
      }
    }
  }
}