{
  "contractName": "PropsToken",
  "abi": [
    {
      "constant": false,
      "inputs": [
        {
          "name": "_controller",
          "type": "address"
        }
      ],
      "name": "updateController",
      "outputs": [],
      "payable": false,
      "stateMutability": "nonpayable",
      "type": "function"
    },
    {
      "constant": true,
      "inputs": [],
      "name": "name",
      "outputs": [
        {
          "name": "",
          "type": "string"
        }
      ],
      "payable": false,
      "stateMutability": "view",
      "type": "function"
    },
    {
      "constant": false,
      "inputs": [
        {
          "name": "spender",
          "type": "address"
        },
        {
          "name": "value",
          "type": "uint256"
        }
      ],
      "name": "approve",
      "outputs": [
        {
          "name": "",
          "type": "bool"
        }
      ],
      "payable": false,
      "stateMutability": "nonpayable",
      "type": "function"
    },
    {
      "constant": true,
      "inputs": [
        {
          "name": "_entityType",
          "type": "uint8"
        },
        {
          "name": "_rewardsDay",
          "type": "uint256"
        }
      ],
      "name": "getEntities",
      "outputs": [
        {
          "name": "",
          "type": "address[]"
        }
      ],
      "payable": false,
      "stateMutability": "view",
      "type": "function"
    },
    {
      "constant": true,
      "inputs": [
        {
          "name": "_token",
          "type": "address"
        },
        {
          "name": "_to",
          "type": "address"
        },
        {
          "name": "_value",
          "type": "uint256"
        },
        {
          "name": "_fee",
          "type": "uint256"
        },
        {
          "name": "_nonce",
          "type": "uint256"
        }
      ],
      "name": "getTransferPreSignedHash",
      "outputs": [
        {
          "name": "",
          "type": "bytes32"
        }
      ],
      "payable": false,
      "stateMutability": "pure",
      "type": "function"
    },
    {
      "constant": false,
      "inputs": [
        {
          "name": "_signature",
          "type": "bytes"
        },
        {
          "name": "_to",
          "type": "address"
        },
        {
          "name": "_value",
          "type": "uint256"
        },
        {
          "name": "_fee",
          "type": "uint256"
        },
        {
          "name": "_nonce",
          "type": "uint256"
        }
      ],
      "name": "transferPreSigned",
      "outputs": [
        {
          "name": "",
          "type": "bool"
        }
      ],
      "payable": false,
      "stateMutability": "nonpayable",
      "type": "function"
    },
    {
      "constant": true,
      "inputs": [
        {
          "name": "_token",
          "type": "address"
        },
        {
          "name": "_spender",
          "type": "address"
        },
        {
          "name": "_addedValue",
          "type": "uint256"
        },
        {
          "name": "_fee",
          "type": "uint256"
        },
        {
          "name": "_nonce",
          "type": "uint256"
        }
      ],
      "name": "getIncreaseAllowancePreSignedHash",
      "outputs": [
        {
          "name": "",
          "type": "bytes32"
        }
      ],
      "payable": false,
      "stateMutability": "pure",
      "type": "function"
    },
    {
      "constant": false,
      "inputs": [
        {
          "name": "_name",
          "type": "uint8"
        },
        {
          "name": "_value",
          "type": "uint256"
        },
        {
          "name": "_rewardsDay",
          "type": "uint256"
        }
      ],
      "name": "updateParameter",
      "outputs": [],
      "payable": false,
      "stateMutability": "nonpayable",
      "type": "function"
    },
    {
      "constant": true,
      "inputs": [],
      "name": "totalSupply",
      "outputs": [
        {
          "name": "",
          "type": "uint256"
        }
      ],
      "payable": false,
      "stateMutability": "view",
      "type": "function"
    },
    {
      "constant": false,
      "inputs": [
        {
          "name": "from",
          "type": "address"
        },
        {
          "name": "to",
          "type": "address"
        },
        {
          "name": "value",
          "type": "uint256"
        }
      ],
      "name": "transferFrom",
      "outputs": [
        {
          "name": "",
          "type": "bool"
        }
      ],
      "payable": false,
      "stateMutability": "nonpayable",
      "type": "function"
    },
    {
      "constant": true,
      "inputs": [],
      "name": "maxTotalSupply",
      "outputs": [
        {
          "name": "",
          "type": "uint256"
        }
      ],
      "payable": false,
      "stateMutability": "view",
      "type": "function"
    },
    {
      "constant": true,
      "inputs": [],
      "name": "decimals",
      "outputs": [
        {
          "name": "",
          "type": "uint8"
        }
      ],
      "payable": false,
      "stateMutability": "view",
      "type": "function"
    },
    {
      "constant": false,
      "inputs": [
        {
          "name": "spender",
          "type": "address"
        },
        {
          "name": "addedValue",
          "type": "uint256"
        }
      ],
      "name": "increaseAllowance",
      "outputs": [
        {
          "name": "",
          "type": "bool"
        }
      ],
      "payable": false,
      "stateMutability": "nonpayable",
      "type": "function"
    },
    {
      "constant": true,
      "inputs": [],
      "name": "canTransferBeforeStartTime",
      "outputs": [
        {
          "name": "",
          "type": "address"
        }
      ],
      "payable": false,
      "stateMutability": "view",
      "type": "function"
    },
    {
      "constant": true,
      "inputs": [
        {
          "name": "_name",
          "type": "uint8"
        },
        {
          "name": "_rewardsDay",
          "type": "uint256"
        }
      ],
      "name": "getParameter",
      "outputs": [
        {
          "name": "",
          "type": "uint256"
        }
      ],
      "payable": false,
      "stateMutability": "view",
      "type": "function"
    },
    {
      "constant": true,
      "inputs": [
        {
          "name": "_token",
          "type": "address"
        },
        {
          "name": "_spender",
          "type": "address"
        },
        {
          "name": "_subtractedValue",
          "type": "uint256"
        },
        {
          "name": "_fee",
          "type": "uint256"
        },
        {
          "name": "_nonce",
          "type": "uint256"
        }
      ],
      "name": "getDecreaseAllowancePreSignedHash",
      "outputs": [
        {
          "name": "",
          "type": "bytes32"
        }
      ],
      "payable": false,
      "stateMutability": "pure",
      "type": "function"
    },
    {
      "constant": false,
      "inputs": [
        {
          "name": "_rewardsDay",
          "type": "uint256"
        },
        {
          "name": "_rewardsHash",
          "type": "bytes32"
        },
        {
          "name": "_applications",
          "type": "address[]"
        },
        {
          "name": "_amounts",
          "type": "uint256[]"
        }
      ],
      "name": "submitDailyRewards",
      "outputs": [],
      "payable": false,
      "stateMutability": "nonpayable",
      "type": "function"
    },
    {
      "constant": false,
      "inputs": [
        {
          "name": "_signature",
          "type": "bytes"
        },
        {
          "name": "_spender",
          "type": "address"
        },
        {
          "name": "_value",
          "type": "uint256"
        },
        {
          "name": "_fee",
          "type": "uint256"
        },
        {
          "name": "_nonce",
          "type": "uint256"
        }
      ],
      "name": "approvePreSigned",
      "outputs": [
        {
          "name": "",
          "type": "bool"
        }
      ],
      "payable": false,
      "stateMutability": "nonpayable",
      "type": "function"
    },
    {
      "constant": true,
      "inputs": [],
      "name": "rewardsStartTimestamp",
      "outputs": [
        {
          "name": "",
          "type": "uint256"
        }
      ],
      "payable": false,
      "stateMutability": "view",
      "type": "function"
    },
    {
      "constant": true,
      "inputs": [
        {
          "name": "owner",
          "type": "address"
        }
      ],
      "name": "balanceOf",
      "outputs": [
        {
          "name": "",
          "type": "uint256"
        }
      ],
      "payable": false,
      "stateMutability": "view",
      "type": "function"
    },
    {
      "constant": false,
      "inputs": [
        {
          "name": "_rewardsDay",
          "type": "uint256"
        },
        {
          "name": "_applications",
          "type": "address[]"
        }
      ],
      "name": "setApplications",
      "outputs": [],
      "payable": false,
      "stateMutability": "nonpayable",
      "type": "function"
    },
    {
      "constant": true,
      "inputs": [
        {
          "name": "_token",
          "type": "address"
        },
        {
          "name": "_spender",
          "type": "address"
        },
        {
          "name": "_value",
          "type": "uint256"
        },
        {
          "name": "_fee",
          "type": "uint256"
        },
        {
          "name": "_nonce",
          "type": "uint256"
        }
      ],
      "name": "getApprovePreSignedHash",
      "outputs": [
        {
          "name": "",
          "type": "bytes32"
        }
      ],
      "payable": false,
      "stateMutability": "pure",
      "type": "function"
    },
    {
      "constant": true,
      "inputs": [],
      "name": "symbol",
      "outputs": [
        {
          "name": "",
          "type": "string"
        }
      ],
      "payable": false,
      "stateMutability": "view",
      "type": "function"
    },
    {
      "constant": false,
      "inputs": [
        {
          "name": "_entityType",
          "type": "uint8"
        },
        {
          "name": "_name",
          "type": "bytes32"
        },
        {
          "name": "_rewardsAddress",
          "type": "address"
        },
        {
          "name": "_sidechainAddress",
          "type": "address"
        }
      ],
      "name": "updateEntity",
      "outputs": [],
      "payable": false,
      "stateMutability": "nonpayable",
      "type": "function"
    },
    {
      "constant": false,
      "inputs": [
        {
          "name": "spender",
          "type": "address"
        },
        {
          "name": "subtractedValue",
          "type": "uint256"
        }
      ],
      "name": "decreaseAllowance",
      "outputs": [
        {
          "name": "",
          "type": "bool"
        }
      ],
      "payable": false,
      "stateMutability": "nonpayable",
      "type": "function"
    },
    {
      "constant": true,
      "inputs": [
        {
          "name": "_token",
          "type": "address"
        },
        {
          "name": "_from",
          "type": "address"
        },
        {
          "name": "_to",
          "type": "address"
        },
        {
          "name": "_value",
          "type": "uint256"
        },
        {
          "name": "_fee",
          "type": "uint256"
        },
        {
          "name": "_nonce",
          "type": "uint256"
        }
      ],
      "name": "getTransferFromPreSignedHash",
      "outputs": [
        {
          "name": "",
          "type": "bytes32"
        }
      ],
      "payable": false,
      "stateMutability": "pure",
      "type": "function"
    },
    {
      "constant": false,
      "inputs": [
        {
          "name": "to",
          "type": "address"
        },
        {
          "name": "value",
          "type": "uint256"
        }
      ],
      "name": "transfer",
      "outputs": [
        {
          "name": "",
          "type": "bool"
        }
      ],
      "payable": false,
      "stateMutability": "nonpayable",
      "type": "function"
    },
    {
      "constant": false,
      "inputs": [
        {
          "name": "_signature",
          "type": "bytes"
        },
        {
          "name": "_from",
          "type": "address"
        },
        {
          "name": "_to",
          "type": "address"
        },
        {
          "name": "_value",
          "type": "uint256"
        },
        {
          "name": "_fee",
          "type": "uint256"
        },
        {
          "name": "_nonce",
          "type": "uint256"
        }
      ],
      "name": "transferFromPreSigned",
      "outputs": [
        {
          "name": "",
          "type": "bool"
        }
      ],
      "payable": false,
      "stateMutability": "nonpayable",
      "type": "function"
    },
    {
      "constant": false,
      "inputs": [
        {
          "name": "_applicationAddress",
          "type": "address"
        },
        {
          "name": "_userId",
          "type": "bytes32"
        },
        {
          "name": "_to",
          "type": "address"
        },
        {
          "name": "_amount",
          "type": "uint256"
        }
      ],
      "name": "settle",
      "outputs": [],
      "payable": false,
      "stateMutability": "nonpayable",
      "type": "function"
    },
    {
      "constant": true,
      "inputs": [],
      "name": "transfersStartTime",
      "outputs": [
        {
          "name": "",
          "type": "uint256"
        }
      ],
      "payable": false,
      "stateMutability": "view",
      "type": "function"
    },
    {
      "constant": true,
      "inputs": [
        {
          "name": "owner",
          "type": "address"
        },
        {
          "name": "spender",
          "type": "address"
        }
      ],
      "name": "allowance",
      "outputs": [
        {
          "name": "",
          "type": "uint256"
        }
      ],
      "payable": false,
      "stateMutability": "view",
      "type": "function"
    },
    {
      "constant": false,
      "inputs": [
        {
          "name": "_rewardsDay",
          "type": "uint256"
        },
        {
          "name": "_validators",
          "type": "address[]"
        }
      ],
      "name": "setValidators",
      "outputs": [],
      "payable": false,
      "stateMutability": "nonpayable",
      "type": "function"
    },
    {
      "constant": false,
      "inputs": [
        {
          "name": "_controller",
          "type": "address"
        },
        {
          "name": "_minSecondsBetweenDays",
          "type": "uint256"
        },
        {
          "name": "_rewardsStartTimestamp",
          "type": "uint256"
        }
      ],
      "name": "initializePostRewardsUpgrade1",
      "outputs": [],
      "payable": false,
      "stateMutability": "nonpayable",
      "type": "function"
    },
    {
      "constant": false,
      "inputs": [
        {
          "name": "_signature",
          "type": "bytes"
        },
        {
          "name": "_spender",
          "type": "address"
        },
        {
          "name": "_subtractedValue",
          "type": "uint256"
        },
        {
          "name": "_fee",
          "type": "uint256"
        },
        {
          "name": "_nonce",
          "type": "uint256"
        }
      ],
      "name": "decreaseAllowancePreSigned",
      "outputs": [
        {
          "name": "",
          "type": "bool"
        }
      ],
      "payable": false,
      "stateMutability": "nonpayable",
      "type": "function"
    },
    {
      "constant": true,
      "inputs": [],
      "name": "controller",
      "outputs": [
        {
          "name": "",
          "type": "address"
        }
      ],
      "payable": false,
      "stateMutability": "view",
      "type": "function"
    },
    {
      "constant": false,
      "inputs": [
        {
          "name": "_signature",
          "type": "bytes"
        },
        {
          "name": "_spender",
          "type": "address"
        },
        {
          "name": "_addedValue",
          "type": "uint256"
        },
        {
          "name": "_fee",
          "type": "uint256"
        },
        {
          "name": "_nonce",
          "type": "uint256"
        }
      ],
      "name": "increaseAllowancePreSigned",
      "outputs": [
        {
          "name": "",
          "type": "bool"
        }
      ],
      "payable": false,
      "stateMutability": "nonpayable",
      "type": "function"
    },
    {
      "anonymous": false,
      "inputs": [
        {
          "indexed": true,
          "name": "rewardsDay",
          "type": "uint256"
        },
        {
          "indexed": true,
          "name": "rewardsHash",
          "type": "bytes32"
        },
        {
          "indexed": true,
          "name": "validator",
          "type": "address"
        }
      ],
      "name": "DailyRewardsSubmitted",
      "type": "event"
    },
    {
      "anonymous": false,
      "inputs": [
        {
          "indexed": true,
          "name": "rewardsDay",
          "type": "uint256"
        },
        {
          "indexed": true,
          "name": "rewardsHash",
          "type": "bytes32"
        },
        {
          "indexed": false,
          "name": "numOfApplications",
          "type": "uint256"
        },
        {
          "indexed": false,
          "name": "amount",
          "type": "uint256"
        }
      ],
      "name": "DailyRewardsApplicationsMinted",
      "type": "event"
    },
    {
      "anonymous": false,
      "inputs": [
        {
          "indexed": true,
          "name": "rewardsDay",
          "type": "uint256"
        },
        {
          "indexed": true,
          "name": "rewardsHash",
          "type": "bytes32"
        },
        {
          "indexed": false,
          "name": "numOfValidators",
          "type": "uint256"
        },
        {
          "indexed": false,
          "name": "amount",
          "type": "uint256"
        }
      ],
      "name": "DailyRewardsValidatorsMinted",
      "type": "event"
    },
    {
      "anonymous": false,
      "inputs": [
        {
          "indexed": true,
          "name": "id",
          "type": "address"
        },
        {
          "indexed": true,
          "name": "entityType",
          "type": "uint8"
        },
        {
          "indexed": false,
          "name": "name",
          "type": "bytes32"
        },
        {
          "indexed": false,
          "name": "rewardsAddress",
          "type": "address"
        },
        {
          "indexed": true,
          "name": "sidechainAddress",
          "type": "address"
        }
      ],
      "name": "EntityUpdated",
      "type": "event"
    },
    {
      "anonymous": false,
      "inputs": [
        {
          "indexed": false,
          "name": "param",
          "type": "uint8"
        },
        {
          "indexed": false,
          "name": "newValue",
          "type": "uint256"
        },
        {
          "indexed": false,
          "name": "oldValue",
          "type": "uint256"
        },
        {
          "indexed": false,
          "name": "rewardsDay",
          "type": "uint256"
        }
      ],
      "name": "ParameterUpdated",
      "type": "event"
    },
    {
      "anonymous": false,
      "inputs": [
        {
          "indexed": false,
          "name": "validatorsList",
          "type": "address[]"
        },
        {
          "indexed": true,
          "name": "rewardsDay",
          "type": "uint256"
        }
      ],
      "name": "ValidatorsListUpdated",
      "type": "event"
    },
    {
      "anonymous": false,
      "inputs": [
        {
          "indexed": false,
          "name": "applicationsList",
          "type": "address[]"
        },
        {
          "indexed": true,
          "name": "rewardsDay",
          "type": "uint256"
        }
      ],
      "name": "ApplicationsListUpdated",
      "type": "event"
    },
    {
      "anonymous": false,
      "inputs": [
        {
          "indexed": true,
          "name": "newController",
          "type": "address"
        }
      ],
      "name": "ControllerUpdated",
      "type": "event"
    },
    {
      "anonymous": false,
      "inputs": [
        {
          "indexed": true,
          "name": "applicationId",
          "type": "address"
        },
        {
          "indexed": true,
          "name": "userId",
          "type": "bytes32"
        },
        {
          "indexed": true,
          "name": "to",
          "type": "address"
        },
        {
          "indexed": false,
          "name": "amount",
          "type": "uint256"
        },
        {
          "indexed": false,
          "name": "rewardsAddress",
          "type": "address"
        }
      ],
      "name": "Settlement",
      "type": "event"
    },
    {
      "anonymous": false,
      "inputs": [
        {
          "indexed": true,
          "name": "from",
          "type": "address"
        },
        {
          "indexed": true,
          "name": "to",
          "type": "address"
        },
        {
          "indexed": true,
          "name": "delegate",
          "type": "address"
        },
        {
          "indexed": false,
          "name": "amount",
          "type": "uint256"
        },
        {
          "indexed": false,
          "name": "fee",
          "type": "uint256"
        }
      ],
      "name": "TransferPreSigned",
      "type": "event"
    },
    {
      "anonymous": false,
      "inputs": [
        {
          "indexed": true,
          "name": "from",
          "type": "address"
        },
        {
          "indexed": true,
          "name": "to",
          "type": "address"
        },
        {
          "indexed": true,
          "name": "delegate",
          "type": "address"
        },
        {
          "indexed": false,
          "name": "amount",
          "type": "uint256"
        },
        {
          "indexed": false,
          "name": "fee",
          "type": "uint256"
        }
      ],
      "name": "ApprovalPreSigned",
      "type": "event"
    },
    {
      "anonymous": false,
      "inputs": [
        {
          "indexed": true,
          "name": "from",
          "type": "address"
        },
        {
          "indexed": true,
          "name": "to",
          "type": "address"
        },
        {
          "indexed": false,
          "name": "value",
          "type": "uint256"
        }
      ],
      "name": "Transfer",
      "type": "event"
    },
    {
      "anonymous": false,
      "inputs": [
        {
          "indexed": true,
          "name": "owner",
          "type": "address"
        },
        {
          "indexed": true,
          "name": "spender",
          "type": "address"
        },
        {
          "indexed": false,
          "name": "value",
          "type": "uint256"
        }
      ],
      "name": "Approval",
      "type": "event"
    },
    {
      "constant": false,
      "inputs": [
        {
          "name": "name",
          "type": "string"
        },
        {
          "name": "symbol",
          "type": "string"
        },
        {
          "name": "decimals",
          "type": "uint8"
        }
      ],
      "name": "initialize",
      "outputs": [],
      "payable": false,
      "stateMutability": "nonpayable",
      "type": "function"
    },
    {
      "constant": false,
      "inputs": [
        {
          "name": "_holder",
          "type": "address"
        },
        {
          "name": "_controller",
          "type": "address"
        },
        {
          "name": "_minSecondsBetweenDays",
          "type": "uint256"
        },
        {
          "name": "_rewardsStartTimestamp",
          "type": "uint256"
        }
      ],
      "name": "initialize",
      "outputs": [],
      "payable": false,
      "stateMutability": "nonpayable",
      "type": "function"
    }
  ],
  "bytecode": "0x608060405234801561001057600080fd5b506157c680620000216000396000f3006080604052600436106101d8576000357c0100000000000000000000000000000000000000000000000000000000900463ffffffff16806306cb5b66146101dd57806306fdde0314610220578063095ea7b3146102b0578063098bfa9f146103155780630d98dcb1146103a45780631296830d14610441578063138e8da1146105005780631624f6c61461059d578063162663001461065957806318160ddd1461069d57806323b872dd146106c85780632ab4d0521461074d578063313ce5671461077857806339509351146107a957806345b6d7dc1461080e5780634f92caf8146108655780635229c56f146108b357806357ece4bc14610950578063617b390b14610a115780636356850214610ad057806370a0823114610afb5780637492fdda14610b5257806379250dcf14610bc257806395d89b4114610c5f57806396e8832714610cef578063a457c2d714610d6d578063a70c41b414610dd2578063a9059cbb14610e8f578063bca5051514610ef4578063c7ed71a514610fd3578063d0f22e9c1461104e578063dd62ed3e14611079578063e795594d146110f0578063e9d2c4b314611160578063eb990c59146111b7578063f2959d6e1461122e578063f77c4791146112ed578063f80801d014611344575b600080fd5b3480156101e957600080fd5b5061021e600480360381019080803573ffffffffffffffffffffffffffffffffffffffff169060200190929190505050611403565b005b34801561022c57600080fd5b5061023561161a565b6040518080602001828103825283818151815260200191508051906020019080838360005b8381101561027557808201518184015260208101905061025a565b50505050905090810190601f1680156102a25780820380516001836020036101000a031916815260200191505b509250505060405180910390f35b3480156102bc57600080fd5b506102fb600480360381019080803573ffffffffffffffffffffffffffffffffffffffff169060200190929190803590602001909291905050506116bc565b604051808215151515815260200191505060405180910390f35b34801561032157600080fd5b5061034d600480360381019080803560ff169060200190929190803590602001909291905050506116d3565b6040518080602001828103825283818151815260200191508051906020019060200280838360005b83811015610390578082015181840152602081019050610375565b505050509050019250505060405180910390f35b3480156103b057600080fd5b50610423600480360381019080803573ffffffffffffffffffffffffffffffffffffffff169060200190929190803573ffffffffffffffffffffffffffffffffffffffff1690602001909291908035906020019092919080359060200190929190803590602001909291905050506117f8565b60405180826000191660001916815260200191505060405180910390f35b34801561044d57600080fd5b506104e6600480360381019080803590602001908201803590602001908080601f0160208091040260200160405190810160405280939291908181526020018383808284378201915050505050509192919290803573ffffffffffffffffffffffffffffffffffffffff169060200190929190803590602001909291908035906020019092919080359060200190929190505050611986565b604051808215151515815260200191505060405180910390f35b34801561050c57600080fd5b5061057f600480360381019080803573ffffffffffffffffffffffffffffffffffffffff169060200190929190803573ffffffffffffffffffffffffffffffffffffffff169060200190929190803590602001909291908035906020019092919080359060200190929190505050611d68565b60405180826000191660001916815260200191505060405180910390f35b3480156105a957600080fd5b50610657600480360381019080803590602001908201803590602001908080601f0160208091040260200160405190810160405280939291908181526020018383808284378201915050505050509192919290803590602001908201803590602001908080601f0160208091040260200160405190810160405280939291908181526020018383808284378201915050505050509192919290803560ff169060200190929190505050611ef6565b005b34801561066557600080fd5b5061069b600480360381019080803560ff1690602001909291908035906020019092919080359060200190929190505050612077565b005b3480156106a957600080fd5b506106b26122b4565b6040518082815260200191505060405180910390f35b3480156106d457600080fd5b50610733600480360381019080803573ffffffffffffffffffffffffffffffffffffffff169060200190929190803573ffffffffffffffffffffffffffffffffffffffff169060200190929190803590602001909291905050506122be565b604051808215151515815260200191505060405180910390f35b34801561075957600080fd5b5061076261236f565b6040518082815260200191505060405180910390f35b34801561078457600080fd5b5061078d612375565b604051808260ff1660ff16815260200191505060405180910390f35b3480156107b557600080fd5b506107f4600480360381019080803573ffffffffffffffffffffffffffffffffffffffff1690602001909291908035906020019092919050505061238c565b604051808215151515815260200191505060405180910390f35b34801561081a57600080fd5b50610823612431565b604051808273ffffffffffffffffffffffffffffffffffffffff1673ffffffffffffffffffffffffffffffffffffffff16815260200191505060405180910390f35b34801561087157600080fd5b5061089d600480360381019080803560ff16906020019092919080359060200190929190505050612457565b6040518082815260200191505060405180910390f35b3480156108bf57600080fd5b50610932600480360381019080803573ffffffffffffffffffffffffffffffffffffffff169060200190929190803573ffffffffffffffffffffffffffffffffffffffff169060200190929190803590602001909291908035906020019092919080359060200190929190505050612526565b60405180826000191660001916815260200191505060405180910390f35b34801561095c57600080fd5b50610a0f60048036038101908080359060200190929190803560001916906020019092919080359060200190820180359060200190808060200260200160405190810160405280939291908181526020018383602002808284378201915050505050509192919290803590602001908201803590602001908080602002602001604051908101604052809392919081815260200183836020028082843782019150505050505091929192905050506126b4565b005b348015610a1d57600080fd5b50610ab6600480360381019080803590602001908201803590602001908080601f0160208091040260200160405190810160405280939291908181526020018383808284378201915050505050509192919290803573ffffffffffffffffffffffffffffffffffffffff169060200190929190803590602001909291908035906020019092919080359060200190929190505050612a7a565b604051808215151515815260200191505060405180910390f35b348015610adc57600080fd5b50610ae5612e5c565b6040518082815260200191505060405180910390f35b348015610b0757600080fd5b50610b3c600480360381019080803573ffffffffffffffffffffffffffffffffffffffff169060200190929190505050612e62565b6040518082815260200191505060405180910390f35b348015610b5e57600080fd5b50610bc06004803603810190808035906020019092919080359060200190820180359060200190808060200260200160405190810160405280939291908181526020018383602002808284378201915050505050509192919290505050612eab565b005b348015610bce57600080fd5b50610c41600480360381019080803573ffffffffffffffffffffffffffffffffffffffff169060200190929190803573ffffffffffffffffffffffffffffffffffffffff1690602001909291908035906020019092919080359060200190929190803590602001909291905050506130c2565b60405180826000191660001916815260200191505060405180910390f35b348015610c6b57600080fd5b50610c74613250565b6040518080602001828103825283818151815260200191508051906020019080838360005b83811015610cb4578082015181840152602081019050610c99565b50505050905090810190601f168015610ce15780820380516001836020036101000a031916815260200191505b509250505060405180910390f35b348015610cfb57600080fd5b50610d6b600480360381019080803560ff1690602001909291908035600019169060200190929190803573ffffffffffffffffffffffffffffffffffffffff169060200190929190803573ffffffffffffffffffffffffffffffffffffffff1690602001909291905050506132f2565b005b348015610d7957600080fd5b50610db8600480360381019080803573ffffffffffffffffffffffffffffffffffffffff169060200190929190803590602001909291905050506134b7565b604051808215151515815260200191505060405180910390f35b348015610dde57600080fd5b50610e71600480360381019080803573ffffffffffffffffffffffffffffffffffffffff169060200190929190803573ffffffffffffffffffffffffffffffffffffffff169060200190929190803573ffffffffffffffffffffffffffffffffffffffff16906020019092919080359060200190929190803590602001909291908035906020019092919050505061355c565b60405180826000191660001916815260200191505060405180910390f35b348015610e9b57600080fd5b50610eda600480360381019080803573ffffffffffffffffffffffffffffffffffffffff1690602001909291908035906020019092919050505061372e565b604051808215151515815260200191505060405180910390f35b348015610f0057600080fd5b50610fb9600480360381019080803590602001908201803590602001908080601f0160208091040260200160405190810160405280939291908181526020018383808284378201915050505050509192919290803573ffffffffffffffffffffffffffffffffffffffff169060200190929190803573ffffffffffffffffffffffffffffffffffffffff169060200190929190803590602001909291908035906020019092919080359060200190929190505050613745565b604051808215151515815260200191505060405180910390f35b348015610fdf57600080fd5b5061104c600480360381019080803573ffffffffffffffffffffffffffffffffffffffff1690602001909291908035600019169060200190929190803573ffffffffffffffffffffffffffffffffffffffff16906020019092919080359060200190929190505050613b75565b005b34801561105a57600080fd5b50611063613d52565b6040518082815260200191505060405180910390f35b34801561108557600080fd5b506110da600480360381019080803573ffffffffffffffffffffffffffffffffffffffff169060200190929190803573ffffffffffffffffffffffffffffffffffffffff169060200190929190505050613d58565b6040518082815260200191505060405180910390f35b3480156110fc57600080fd5b5061115e6004803603810190808035906020019092919080359060200190820180359060200190808060200260200160405190810160405280939291908181526020018383602002808284378201915050505050509192919290505050613ddf565b005b34801561116c57600080fd5b506111b5600480360381019080803573ffffffffffffffffffffffffffffffffffffffff1690602001909291908035906020019092919080359060200190929190505050613ff6565b005b3480156111c357600080fd5b5061122c600480360381019080803573ffffffffffffffffffffffffffffffffffffffff169060200190929190803573ffffffffffffffffffffffffffffffffffffffff169060200190929190803590602001909291908035906020019092919050505061400e565b005b34801561123a57600080fd5b506112d3600480360381019080803590602001908201803590602001908080601f0160208091040260200160405190810160405280939291908181526020018383808284378201915050505050509192919290803573ffffffffffffffffffffffffffffffffffffffff1690602001909291908035906020019092919080359060200190929190803590602001909291905050506141e9565b604051808215151515815260200191505060405180910390f35b3480156112f957600080fd5b506113026145ef565b604051808273ffffffffffffffffffffffffffffffffffffffff1673ffffffffffffffffffffffffffffffffffffffff16815260200191505060405180910390f35b34801561135057600080fd5b506113e9600480360381019080803590602001908201803590602001908080601f0160208091040260200160405190810160405280939291908181526020018383808284378201915050505050509192919290803573ffffffffffffffffffffffffffffffffffffffff169060200190929190803590602001909291908035906020019092919080359060200190929190505050614615565b604051808215151515815260200191505060405180910390f35b60ba60009054906101000a900473ffffffffffffffffffffffffffffffffffffffff1673ffffffffffffffffffffffffffffffffffffffff163373ffffffffffffffffffffffffffffffffffffffff161415156114c8576040517f08c379a00000000000000000000000000000000000000000000000000000000081526004018080602001828103825260168152602001807f4d7573742062652074686520636f6e74726f6c6c65720000000000000000000081525060200191505060405180910390fd5b600073ffffffffffffffffffffffffffffffffffffffff168173ffffffffffffffffffffffffffffffffffffffff1614151515611593576040517f08c379a00000000000000000000000000000000000000000000000000000000081526004018080602001828103825260258152602001807f436f6e74726f6c6c65722063616e6e6f7420626520746865207a65726f20616481526020017f647265737300000000000000000000000000000000000000000000000000000081525060400191505060405180910390fd5b8060ba60006101000a81548173ffffffffffffffffffffffffffffffffffffffff021916908373ffffffffffffffffffffffffffffffffffffffff1602179055508073ffffffffffffffffffffffffffffffffffffffff167f1304018cfe79741dcf02ba6b61d39cc4757d59395d03224d9925c7aa8300214660405160405180910390a250565b606060338054600181600116156101000203166002900480601f0160208091040260200160405190810160405280929190818152602001828054600181600116156101000203166002900480156116b25780601f10611687576101008083540402835291602001916116b2565b820191906000526020600020905b81548152906001019060200180831161169557829003601f168201915b5050505050905090565b60006116c9338484614a1b565b6001905092915050565b606073__PropsRewardsLib_______________________638993273560a085856040518463ffffffff167c01000000000000000000000000000000000000000000000000000000000281526004018084815260200183600181111561173457fe5b60ff168152602001828152602001935050505060006040518083038186803b15801561175f57600080fd5b505af4158015611773573d6000803e3d6000fd5b505050506040513d6000823e3d601f19601f82011682018060405250602081101561179d57600080fd5b8101908080516401000000008111156117b557600080fd5b828101905060208101848111156117cb57600080fd5b81518560208202830111640100000000821117156117e857600080fd5b5050929190505050905092915050565b6000630d98dcb17c010000000000000000000000000000000000000000000000000000000002868686868660405160200180877bffffffffffffffffffffffffffffffffffffffffffffffffffffffff19167bffffffffffffffffffffffffffffffffffffffffffffffffffffffff191681526004018673ffffffffffffffffffffffffffffffffffffffff1673ffffffffffffffffffffffffffffffffffffffff166c010000000000000000000000000281526014018573ffffffffffffffffffffffffffffffffffffffff1673ffffffffffffffffffffffffffffffffffffffff166c0100000000000000000000000002815260140184815260200183815260200182815260200196505050505050506040516020818303038152906040526040518082805190602001908083835b60208310151561194e5780518252602082019150602081019050602083039250611929565b6001836020036101000a0380198251168184511680821785525050505050509050019150506040518091039020905095945050505050565b600080600080600073ffffffffffffffffffffffffffffffffffffffff168873ffffffffffffffffffffffffffffffffffffffff1614151515611a31576040517f08c379a00000000000000000000000000000000000000000000000000000000081526004018080602001828103825260138152602001807f496e76616c6964205f746f20616464726573730000000000000000000000000081525060200191505060405180910390fd5b611a3e30898989896117f8565b9250611a4a838a614b7e565b9150600073ffffffffffffffffffffffffffffffffffffffff168273ffffffffffffffffffffffffffffffffffffffff1614151515611af1576040517f08c379a000000000000000000000000000000000000000000000000000000000815260040180806020018281038252601e8152602001807f496e76616c69642066726f6d2061646472657373207265636f7665726564000081525060200191505060405180910390fd5b8183604051602001808373ffffffffffffffffffffffffffffffffffffffff1673ffffffffffffffffffffffffffffffffffffffff166c010000000000000000000000000281526014018260001916600019168152602001925050506040516020818303038152906040526040518082805190602001908083835b602083101515611b915780518252602082019150602081019050602083039250611b6c565b6001836020036101000a0380198251168184511680821785525050505050509050019150506040518091039020905060001515609d6000836000191660001916815260200190815260200160002060009054906101000a900460ff161515141515611c8a576040517f08c379a00000000000000000000000000000000000000000000000000000000081526004018080602001828103825260218152602001807f5472616e73616374696f6e20686173682077617320616c72656164792075736581526020017f640000000000000000000000000000000000000000000000000000000000000081525060400191505060405180910390fd5b6001609d6000836000191660001916815260200190815260200160002060006101000a81548160ff021916908315150217905550611cc9828989614c76565b611cd4823388614c76565b3373ffffffffffffffffffffffffffffffffffffffff168873ffffffffffffffffffffffffffffffffffffffff168373ffffffffffffffffffffffffffffffffffffffff167fec5a73fd1f178be20c1bca1b406cbf4b5c20d833b66e582fc122fb4baa0fc2a48a8a604051808381526020018281526020019250505060405180910390a46001935050505095945050505050565b600063138e8da17c010000000000000000000000000000000000000000000000000000000002868686868660405160200180877bffffffffffffffffffffffffffffffffffffffffffffffffffffffff19167bffffffffffffffffffffffffffffffffffffffffffffffffffffffff191681526004018673ffffffffffffffffffffffffffffffffffffffff1673ffffffffffffffffffffffffffffffffffffffff166c010000000000000000000000000281526014018573ffffffffffffffffffffffffffffffffffffffff1673ffffffffffffffffffffffffffffffffffffffff166c0100000000000000000000000002815260140184815260200183815260200182815260200196505050505050506040516020818303038152906040526040518082805190602001908083835b602083101515611ebe5780518252602082019150602081019050602083039250611e99565b6001836020036101000a0380198251168184511680821785525050505050509050019150506040518091039020905095945050505050565b60008060019054906101000a900460ff1680611f165750611f15614e94565b5b80611f2d57506000809054906101000a900460ff16155b1515611fc7576040517f08c379a000000000000000000000000000000000000000000000000000000000815260040180806020018281038252602e8152602001807f436f6e747261637420696e7374616e63652068617320616c726561647920626581526020017f656e20696e697469616c697a656400000000000000000000000000000000000081525060400191505060405180910390fd5b600060019054906101000a900460ff1690506001600060016101000a81548160ff02191690831515021790555060016000806101000a81548160ff02191690831515021790555083603390805190602001906120249291906156f5565b50826034908051906020019061203b9291906156f5565b5081603560006101000a81548160ff021916908360ff16021790555080600060016101000a81548160ff02191690831515021790555050505050565b60ba60009054906101000a900473ffffffffffffffffffffffffffffffffffffffff1673ffffffffffffffffffffffffffffffffffffffff163373ffffffffffffffffffffffffffffffffffffffff1614151561213c576040517f08c379a00000000000000000000000000000000000000000000000000000000081526004018080602001828103825260168152602001807f4d7573742062652074686520636f6e74726f6c6c65720000000000000000000081525060200191505060405180910390fd5b73__PropsRewardsLib_______________________6311cb33da60a08585856040518563ffffffff167c01000000000000000000000000000000000000000000000000000000000281526004018085815260200184600381111561219c57fe5b60ff16815260200183815260200182815260200194505050505060006040518083038186803b1580156121ce57600080fd5b505af41580156121e2573d6000803e3d6000fd5b505050507fd3ee560e0e71d87fde0453f24eac52dd8f01332349f8d1ef9e005d1cc3b82fb48360a0600401600086600381111561221b57fe5b81526020019081526020016000206000015460a0600401600087600381111561224057fe5b81526020019081526020016000206001015460a0600401600088600381111561226557fe5b8152602001908152602001600020600201546040518085600381111561228757fe5b60ff16815260200184815260200183815260200182815260200194505050505060405180910390a1505050565b6000606a54905090565b60006122cb848484614c76565b612364843361235f85606960008a73ffffffffffffffffffffffffffffffffffffffff1673ffffffffffffffffffffffffffffffffffffffff16815260200190815260200160002060003373ffffffffffffffffffffffffffffffffffffffff1673ffffffffffffffffffffffffffffffffffffffff16815260200190815260200160002054614ea590919063ffffffff16565b614a1b565b600190509392505050565b60b85481565b6000603560009054906101000a900460ff16905090565b6000612427338461242285606960003373ffffffffffffffffffffffffffffffffffffffff1673ffffffffffffffffffffffffffffffffffffffff16815260200190815260200160002060008973ffffffffffffffffffffffffffffffffffffffff1673ffffffffffffffffffffffffffffffffffffffff16815260200190815260200160002054614ec690919063ffffffff16565b614a1b565b6001905092915050565b609f60009054906101000a900473ffffffffffffffffffffffffffffffffffffffff1681565b600073__PropsRewardsLib_______________________63d81b705060a085856040518463ffffffff167c0100000000000000000000000000000000000000000000000000000000028152600401808481526020018360038111156124b857fe5b60ff168152602001828152602001935050505060206040518083038186803b1580156124e357600080fd5b505af41580156124f7573d6000803e3d6000fd5b505050506040513d602081101561250d57600080fd5b8101908080519060200190929190505050905092915050565b6000635229c56f7c010000000000000000000000000000000000000000000000000000000002868686868660405160200180877bffffffffffffffffffffffffffffffffffffffffffffffffffffffff19167bffffffffffffffffffffffffffffffffffffffffffffffffffffffff191681526004018673ffffffffffffffffffffffffffffffffffffffff1673ffffffffffffffffffffffffffffffffffffffff166c010000000000000000000000000281526014018573ffffffffffffffffffffffffffffffffffffffff1673ffffffffffffffffffffffffffffffffffffffff166c0100000000000000000000000002815260140184815260200183815260200182815260200196505050505050506040516020818303038152906040526040518082805190602001908083835b60208310151561267c5780518252602082019150602081019050602083039250612657565b6001836020036101000a0380198251168184511680821785525050505050509050019150506040518091039020905095945050505050565b600080600060a0600f01600401548711156127cc5773__PropsRewardsLib_______________________6314a68c3860a080600f016004015460a0600f016003015460006040518563ffffffff167c01000000000000000000000000000000000000000000000000000000000281526004018085815260200184815260200183600019166000191681526020018215151515815260200194505050505060206040518083038186803b15801561276957600080fd5b505af415801561277d573d6000803e3d6000fd5b505050506040513d602081101561279357600080fd5b8101908080519060200190929190505050925060008311156127cb576127ca60a0600f016004015460a0600f016003015485614ee7565b5b5b73__PropsRewardsLib_______________________630f9887a060a0898989896127f46122b4565b6040518763ffffffff167c01000000000000000000000000000000000000000000000000000000000281526004018087815260200186815260200185600019166000191681526020018060200180602001848152602001838103835286818151815260200191508051906020019060200280838360005b8381101561288657808201518184015260208101905061286b565b50505050905001838103825285818151815260200191508051906020019060200280838360005b838110156128c85780820151818401526020810190506128ad565b505050509050019850505050505050505060206040518083038186803b1580156128f157600080fd5b505af4158015612905573d6000803e3d6000fd5b505050506040513d602081101561291b57600080fd5b8101908080519060200190929190505050915060008211156129455761294487878787866150da565b5b73__PropsRewardsLib_______________________6314a68c3860a0898960016040518563ffffffff167c01000000000000000000000000000000000000000000000000000000000281526004018085815260200184815260200183600019166000191681526020018215151515815260200194505050505060206040518083038186803b1580156129d657600080fd5b505af41580156129ea573d6000803e3d6000fd5b505050506040513d6020811015612a0057600080fd5b810190808051906020019092919050505090506000811115612a2857612a27878783614ee7565b5b3373ffffffffffffffffffffffffffffffffffffffff168660001916887f47a75fa3188612bc1341726d7859491a32bf875dd309474f712950354f73c5a760405160405180910390a450505050505050565b600080600080600073ffffffffffffffffffffffffffffffffffffffff168873ffffffffffffffffffffffffffffffffffffffff1614151515612b25576040517f08c379a00000000000000000000000000000000000000000000000000000000081526004018080602001828103825260188152602001807f496e76616c6964205f7370656e6465722061646472657373000000000000000081525060200191505060405180910390fd5b612b3230898989896130c2565b9250612b3e838a614b7e565b9150600073ffffffffffffffffffffffffffffffffffffffff168273ffffffffffffffffffffffffffffffffffffffff1614151515612be5576040517f08c379a000000000000000000000000000000000000000000000000000000000815260040180806020018281038252601e8152602001807f496e76616c69642066726f6d2061646472657373207265636f7665726564000081525060200191505060405180910390fd5b8183604051602001808373ffffffffffffffffffffffffffffffffffffffff1673ffffffffffffffffffffffffffffffffffffffff166c010000000000000000000000000281526014018260001916600019168152602001925050506040516020818303038152906040526040518082805190602001908083835b602083101515612c855780518252602082019150602081019050602083039250612c60565b6001836020036101000a0380198251168184511680821785525050505050509050019150506040518091039020905060001515609d6000836000191660001916815260200190815260200160002060009054906101000a900460ff161515141515612d7e576040517f08c379a00000000000000000000000000000000000000000000000000000000081526004018080602001828103825260218152602001807f5472616e73616374696f6e20686173682077617320616c72656164792075736581526020017f640000000000000000000000000000000000000000000000000000000000000081525060400191505060405180910390fd5b6001609d6000836000191660001916815260200190815260200160002060006101000a81548160ff021916908315150217905550612dbd828989614a1b565b612dc8823388614c76565b3373ffffffffffffffffffffffffffffffffffffffff168873ffffffffffffffffffffffffffffffffffffffff168373ffffffffffffffffffffffffffffffffffffffff167f43a220267705e74ee2ceafd46afc841850db6f85a662189a7def697bbdd90ffb8a8a604051808381526020018281526020019250505060405180910390a46001935050505095945050505050565b60b95481565b6000606860008373ffffffffffffffffffffffffffffffffffffffff1673ffffffffffffffffffffffffffffffffffffffff168152602001908152602001600020549050919050565b60ba60009054906101000a900473ffffffffffffffffffffffffffffffffffffffff1673ffffffffffffffffffffffffffffffffffffffff163373ffffffffffffffffffffffffffffffffffffffff16141515612f70576040517f08c379a00000000000000000000000000000000000000000000000000000000081526004018080602001828103825260168152602001807f4d7573742062652074686520636f6e74726f6c6c65720000000000000000000081525060200191505060405180910390fd5b73__PropsRewardsLib_______________________63cc1b8c9c60a084846040518463ffffffff167c01000000000000000000000000000000000000000000000000000000000281526004018084815260200183815260200180602001828103825283818151815260200191508051906020019060200280838360005b83811015613008578082015181840152602081019050612fed565b5050505090500194505050505060006040518083038186803b15801561302d57600080fd5b505af4158015613041573d6000803e3d6000fd5b50505050817f426b639e1d49f62952a4d3282b37648fb8c47ac20b15e01548c104b75c787c0c826040518080602001828103825283818151815260200191508051906020019060200280838360005b838110156130ab578082015181840152602081019050613090565b505050509050019250505060405180910390a25050565b60006379250dcf7c010000000000000000000000000000000000000000000000000000000002868686868660405160200180877bffffffffffffffffffffffffffffffffffffffffffffffffffffffff19167bffffffffffffffffffffffffffffffffffffffffffffffffffffffff191681526004018673ffffffffffffffffffffffffffffffffffffffff1673ffffffffffffffffffffffffffffffffffffffff166c010000000000000000000000000281526014018573ffffffffffffffffffffffffffffffffffffffff1673ffffffffffffffffffffffffffffffffffffffff166c0100000000000000000000000002815260140184815260200183815260200182815260200196505050505050506040516020818303038152906040526040518082805190602001908083835b60208310151561321857805182526020820191506020810190506020830392506131f3565b6001836020036101000a0380198251168184511680821785525050505050509050019150506040518091039020905095945050505050565b606060348054600181600116156101000203166002900480601f0160208091040260200160405190810160405280929190818152602001828054600181600116156101000203166002900480156132e85780601f106132bd576101008083540402835291602001916132e8565b820191906000526020600020905b8154815290600101906020018083116132cb57829003601f168201915b5050505050905090565b73__PropsRewardsLib_______________________6346e3a29860a0868686866040518663ffffffff167c01000000000000000000000000000000000000000000000000000000000281526004018086815260200185600181111561335357fe5b60ff16815260200184600019166000191681526020018373ffffffffffffffffffffffffffffffffffffffff1673ffffffffffffffffffffffffffffffffffffffff1681526020018273ffffffffffffffffffffffffffffffffffffffff1673ffffffffffffffffffffffffffffffffffffffff1681526020019550505050505060006040518083038186803b1580156133ec57600080fd5b505af4158015613400573d6000803e3d6000fd5b505050508073ffffffffffffffffffffffffffffffffffffffff1684600181111561342757fe5b3373ffffffffffffffffffffffffffffffffffffffff167fac4aacb75e6f9ac6f2fee64077e9436dfb1be853b1a850b7863cf1433f0e752886866040518083600019166000191681526020018273ffffffffffffffffffffffffffffffffffffffff1673ffffffffffffffffffffffffffffffffffffffff1681526020019250505060405180910390a450505050565b6000613552338461354d85606960003373ffffffffffffffffffffffffffffffffffffffff1673ffffffffffffffffffffffffffffffffffffffff16815260200190815260200160002060008973ffffffffffffffffffffffffffffffffffffffff1673ffffffffffffffffffffffffffffffffffffffff16815260200190815260200160002054614ea590919063ffffffff16565b614a1b565b6001905092915050565b600063a70c41b47c01000000000000000000000000000000000000000000000000000000000287878787878760405160200180887bffffffffffffffffffffffffffffffffffffffffffffffffffffffff19167bffffffffffffffffffffffffffffffffffffffffffffffffffffffff191681526004018773ffffffffffffffffffffffffffffffffffffffff1673ffffffffffffffffffffffffffffffffffffffff166c010000000000000000000000000281526014018673ffffffffffffffffffffffffffffffffffffffff1673ffffffffffffffffffffffffffffffffffffffff166c010000000000000000000000000281526014018573ffffffffffffffffffffffffffffffffffffffff1673ffffffffffffffffffffffffffffffffffffffff166c010000000000000000000000000281526014018481526020018381526020018281526020019750505050505050506040516020818303038152906040526040518082805190602001908083835b6020831015156136f557805182526020820191506020810190506020830392506136d0565b6001836020036101000a038019825116818451168082178552505050505050905001915050604051809103902090509695505050505050565b600061373b338484614c76565b6001905092915050565b600080600080600073ffffffffffffffffffffffffffffffffffffffff168873ffffffffffffffffffffffffffffffffffffffff16141515156137f0576040517f08c379a00000000000000000000000000000000000000000000000000000000081526004018080602001828103825260138152602001807f496e76616c6964205f746f20616464726573730000000000000000000000000081525060200191505060405180910390fd5b6137fe308a8a8a8a8a61355c565b925061380a838b614b7e565b9150600073ffffffffffffffffffffffffffffffffffffffff168273ffffffffffffffffffffffffffffffffffffffff16141515156138d7576040517f08c379a00000000000000000000000000000000000000000000000000000000081526004018080602001828103825260218152602001807f496e76616c6964207370656e6465722061646472657373207265636f7665726581526020017f640000000000000000000000000000000000000000000000000000000000000081525060400191505060405180910390fd5b8183604051602001808373ffffffffffffffffffffffffffffffffffffffff1673ffffffffffffffffffffffffffffffffffffffff166c010000000000000000000000000281526014018260001916600019168152602001925050506040516020818303038152906040526040518082805190602001908083835b6020831015156139775780518252602082019150602081019050602083039250613952565b6001836020036101000a0380198251168184511680821785525050505050509050019150506040518091039020905060001515609d6000836000191660001916815260200190815260200160002060009054906101000a900460ff161515141515613a70576040517f08c379a00000000000000000000000000000000000000000000000000000000081526004018080602001828103825260218152602001807f5472616e73616374696f6e20686173682077617320616c72656164792075736581526020017f640000000000000000000000000000000000000000000000000000000000000081525060400191505060405180910390fd5b6001609d6000836000191660001916815260200190815260200160002060006101000a81548160ff021916908315150217905550613aaf898989614c76565b613ad58983613ad08a613ac28e88613d58565b614ea590919063ffffffff16565b614a1b565b613ae0823388614c76565b3373ffffffffffffffffffffffffffffffffffffffff168873ffffffffffffffffffffffffffffffffffffffff168a73ffffffffffffffffffffffffffffffffffffffff167fec5a73fd1f178be20c1bca1b406cbf4b5c20d833b66e582fc122fb4baa0fc2a48a8a604051808381526020018281526020019250505060405180910390a4600193505050509695505050505050565b3373ffffffffffffffffffffffffffffffffffffffff1660a060000160008673ffffffffffffffffffffffffffffffffffffffff1673ffffffffffffffffffffffffffffffffffffffff16815260200190815260200160002060010160009054906101000a900473ffffffffffffffffffffffffffffffffffffffff1673ffffffffffffffffffffffffffffffffffffffff16141515613ca3576040517f08c379a000000000000000000000000000000000000000000000000000000000815260040180806020018281038252602b8152602001807f736574746c65206d6179206f6e6c792062652063616c6c656420627920616e2081526020017f6170706c69636174696f6e00000000000000000000000000000000000000000081525060400191505060405180910390fd5b613cae338383614c76565b8173ffffffffffffffffffffffffffffffffffffffff1683600019168573ffffffffffffffffffffffffffffffffffffffff167f53b5073ff19aef23b167e83c6be14817da210375bec35b4c0ccfc0cded9a23f88433604051808381526020018273ffffffffffffffffffffffffffffffffffffffff1673ffffffffffffffffffffffffffffffffffffffff1681526020019250505060405180910390a450505050565b609e5481565b6000606960008473ffffffffffffffffffffffffffffffffffffffff1673ffffffffffffffffffffffffffffffffffffffff16815260200190815260200160002060008373ffffffffffffffffffffffffffffffffffffffff1673ffffffffffffffffffffffffffffffffffffffff16815260200190815260200160002054905092915050565b60ba60009054906101000a900473ffffffffffffffffffffffffffffffffffffffff1673ffffffffffffffffffffffffffffffffffffffff163373ffffffffffffffffffffffffffffffffffffffff16141515613ea4576040517f08c379a00000000000000000000000000000000000000000000000000000000081526004018080602001828103825260168152602001807f4d7573742062652074686520636f6e74726f6c6c65720000000000000000000081525060200191505060405180910390fd5b73__PropsRewardsLib_______________________6363cad06a60a084846040518463ffffffff167c01000000000000000000000000000000000000000000000000000000000281526004018084815260200183815260200180602001828103825283818151815260200191508051906020019060200280838360005b83811015613f3c578082015181840152602081019050613f21565b5050505090500194505050505060006040518083038186803b158015613f6157600080fd5b505af4158015613f75573d6000803e3d6000fd5b50505050817f25071f4c6ebdf865da246a5caf6a5bbcbe50f6443e15309b97b10043c6beb1d9826040518080602001828103825283818151815260200191508051906020019060200280838360005b83811015613fdf578082015181840152602081019050613fc4565b505050509050019250505060405180910390a25050565b600060129050614008848285856151e1565b50505050565b60008060008060019054906101000a900460ff16806140315750614030614e94565b5b8061404857506000809054906101000a900460ff16155b15156140e2576040517f08c379a000000000000000000000000000000000000000000000000000000000815260040180806020018281038252602e8152602001807f436f6e747261637420696e7374616e63652068617320616c726561647920626581526020017f656e20696e697469616c697a656400000000000000000000000000000000000081525060400191505060405180910390fd5b600060019054906101000a900460ff1690506001600060016101000a81548160ff02191690831515021790555060016000806101000a81548160ff021916908315150217905550601292508260ff16600a0a6323c346000291506141b16040805190810160405280600b81526020017f50726f707320546f6b656e0000000000000000000000000000000000000000008152506040805190810160405280600581526020017f50524f505300000000000000000000000000000000000000000000000000000081525085611ef6565b6141bc868686613ff6565b6141c687836155b5565b80600060016101000a81548160ff02191690831515021790555050505050505050565b600080600080600073ffffffffffffffffffffffffffffffffffffffff168873ffffffffffffffffffffffffffffffffffffffff1614151515614294576040517f08c379a00000000000000000000000000000000000000000000000000000000081526004018080602001828103825260188152602001807f496e76616c6964205f7370656e6465722061646472657373000000000000000081525060200191505060405180910390fd5b6142a13089898989612526565b92506142ad838a614b7e565b9150600073ffffffffffffffffffffffffffffffffffffffff168273ffffffffffffffffffffffffffffffffffffffff1614151515614354576040517f08c379a000000000000000000000000000000000000000000000000000000000815260040180806020018281038252601e8152602001807f496e76616c69642066726f6d2061646472657373207265636f7665726564000081525060200191505060405180910390fd5b8183604051602001808373ffffffffffffffffffffffffffffffffffffffff1673ffffffffffffffffffffffffffffffffffffffff166c010000000000000000000000000281526014018260001916600019168152602001925050506040516020818303038152906040526040518082805190602001908083835b6020831015156143f457805182526020820191506020810190506020830392506143cf565b6001836020036101000a0380198251168184511680821785525050505050509050019150506040518091039020905060001515609d6000836000191660001916815260200190815260200160002060009054906101000a900460ff1615151415156144ed576040517f08c379a00000000000000000000000000000000000000000000000000000000081526004018080602001828103825260218152602001807f5472616e73616374696f6e20686173682077617320616c72656164792075736581526020017f640000000000000000000000000000000000000000000000000000000000000081525060400191505060405180910390fd5b6001609d6000836000191660001916815260200190815260200160002060006101000a81548160ff02191690831515021790555061454782896145428a614534878e613d58565b614ea590919063ffffffff16565b614a1b565b614552823388614c76565b3373ffffffffffffffffffffffffffffffffffffffff168873ffffffffffffffffffffffffffffffffffffffff168373ffffffffffffffffffffffffffffffffffffffff167f43a220267705e74ee2ceafd46afc841850db6f85a662189a7def697bbdd90ffb6145c2868d613d58565b8a604051808381526020018281526020019250505060405180910390a46001935050505095945050505050565b60ba60009054906101000a900473ffffffffffffffffffffffffffffffffffffffff1681565b600080600080600073ffffffffffffffffffffffffffffffffffffffff168873ffffffffffffffffffffffffffffffffffffffff16141515156146c0576040517f08c379a00000000000000000000000000000000000000000000000000000000081526004018080602001828103825260188152602001807f496e76616c6964205f7370656e6465722061646472657373000000000000000081525060200191505060405180910390fd5b6146cd3089898989611d68565b92506146d9838a614b7e565b9150600073ffffffffffffffffffffffffffffffffffffffff168273ffffffffffffffffffffffffffffffffffffffff1614151515614780576040517f08c379a000000000000000000000000000000000000000000000000000000000815260040180806020018281038252601e8152602001807f496e76616c69642066726f6d2061646472657373207265636f7665726564000081525060200191505060405180910390fd5b8183604051602001808373ffffffffffffffffffffffffffffffffffffffff1673ffffffffffffffffffffffffffffffffffffffff166c010000000000000000000000000281526014018260001916600019168152602001925050506040516020818303038152906040526040518082805190602001908083835b60208310151561482057805182526020820191506020810190506020830392506147fb565b6001836020036101000a0380198251168184511680821785525050505050509050019150506040518091039020905060001515609d6000836000191660001916815260200190815260200160002060009054906101000a900460ff161515141515614919576040517f08c379a00000000000000000000000000000000000000000000000000000000081526004018080602001828103825260218152602001807f5472616e73616374696f6e20686173682077617320616c72656164792075736581526020017f640000000000000000000000000000000000000000000000000000000000000081525060400191505060405180910390fd5b6001609d6000836000191660001916815260200190815260200160002060006101000a81548160ff021916908315150217905550614973828961496e8a614960878e613d58565b614ec690919063ffffffff16565b614a1b565b61497e823388614c76565b3373ffffffffffffffffffffffffffffffffffffffff168873ffffffffffffffffffffffffffffffffffffffff168373ffffffffffffffffffffffffffffffffffffffff167f43a220267705e74ee2ceafd46afc841850db6f85a662189a7def697bbdd90ffb6149ee868d613d58565b8a604051808381526020018281526020019250505060405180910390a46001935050505095945050505050565b600073ffffffffffffffffffffffffffffffffffffffff168273ffffffffffffffffffffffffffffffffffffffff1614151515614a5757600080fd5b600073ffffffffffffffffffffffffffffffffffffffff168373ffffffffffffffffffffffffffffffffffffffff1614151515614a9357600080fd5b80606960008573ffffffffffffffffffffffffffffffffffffffff1673ffffffffffffffffffffffffffffffffffffffff16815260200190815260200160002060008473ffffffffffffffffffffffffffffffffffffffff1673ffffffffffffffffffffffffffffffffffffffff168152602001908152602001600020819055508173ffffffffffffffffffffffffffffffffffffffff168373ffffffffffffffffffffffffffffffffffffffff167f8c5be1e5ebec7d5bd14f71427d1e84f3dd0314c0f7b2291e5b200ac8c7c3b925836040518082815260200191505060405180910390a3505050565b60008060008060418551141515614b985760009350614c6d565b6020850151925060408501519150606085015160001a9050601b8160ff161015614bc357601b810190505b601b8160ff1614158015614bdb5750601c8160ff1614155b15614be95760009350614c6d565b600186828585604051600081526020016040526040518085600019166000191681526020018460ff1660ff1681526020018360001916600019168152602001826000191660001916815260200194505050505060206040516020810390808403906000865af1158015614c60573d6000803e3d6000fd5b5050506020604051035193505b50505092915050565b606860008473ffffffffffffffffffffffffffffffffffffffff1673ffffffffffffffffffffffffffffffffffffffff168152602001908152602001600020548111151515614cc457600080fd5b600073ffffffffffffffffffffffffffffffffffffffff168273ffffffffffffffffffffffffffffffffffffffff1614151515614d0057600080fd5b614d5281606860008673ffffffffffffffffffffffffffffffffffffffff1673ffffffffffffffffffffffffffffffffffffffff16815260200190815260200160002054614ea590919063ffffffff16565b606860008573ffffffffffffffffffffffffffffffffffffffff1673ffffffffffffffffffffffffffffffffffffffff16815260200190815260200160002081905550614de781606860008573ffffffffffffffffffffffffffffffffffffffff1673ffffffffffffffffffffffffffffffffffffffff16815260200190815260200160002054614ec690919063ffffffff16565b606860008473ffffffffffffffffffffffffffffffffffffffff1673ffffffffffffffffffffffffffffffffffffffff168152602001908152602001600020819055508173ffffffffffffffffffffffffffffffffffffffff168373ffffffffffffffffffffffffffffffffffffffff167fddf252ad1be2c89b69c2b068fc378daa952ba7f163c4a11628f55a4df523b3ef836040518082815260200191505060405180910390a3505050565b600080303b90506000811491505090565b600080838311151515614eb757600080fd5b82840390508091505092915050565b6000808284019050838110151515614edd57600080fd5b8091505092915050565b60008060a0600f0160000160008560001916600019168152602001908152602001600020600101805490509150600090505b81811015614ff857614feb60a0600201600060a0600f016000016000886000191660001916815260200190815260200160002060010184815481101515614f5c57fe5b9060005260206000200160009054906101000a900473ffffffffffffffffffffffffffffffffffffffff1673ffffffffffffffffffffffffffffffffffffffff1673ffffffffffffffffffffffffffffffffffffffff16815260200190815260200160002060010160009054906101000a900473ffffffffffffffffffffffffffffffffffffffff16846155b5565b8080600101915050614f19565b73__PropsRewardsLib_______________________63cb27ba3e60a0866040518363ffffffff167c01000000000000000000000000000000000000000000000000000000000281526004018083815260200182600019166000191681526020019250505060006040518083038186803b15801561507457600080fd5b505af4158015615088573d6000803e3d6000fd5b505050508360001916857f07efea0e0eeb975e5404139e47d884d2705a0660a3456aa31c5694df1d8c5f1484858702604051808381526020018281526020019250505060405180910390a35050505050565b60008090505b83518110156151935761518660a06000016000868481518110151561510157fe5b9060200190602002015173ffffffffffffffffffffffffffffffffffffffff1673ffffffffffffffffffffffffffffffffffffffff16815260200190815260200160002060010160009054906101000a900473ffffffffffffffffffffffffffffffffffffffff16848381518110151561517757fe5b906020019060200201516155b5565b80806001019150506150e0565b8460001916867fcc511f1b8ddd8ab10bcb89c26361da1c99b826350e3f38ee438134149032568a865185604051808381526020018281526020019250505060405180910390a3505050505050565b600060b854141515615281576040517f08c379a00000000000000000000000000000000000000000000000000000000081526004018080602001828103825260308152602001807f496e697469616c697a6520726577617264732075706772616465312063616e2081526020017f68617070656e206f6e6c79206f6e63650000000000000000000000000000000081525060400191505060405180910390fd5b8360ba60006101000a81548173ffffffffffffffffffffffffffffffffffffffff021916908373ffffffffffffffffffffffffffffffffffffffff16021790555073__PropsRewardsLib_______________________6311cb33da60a060006187be60006040518563ffffffff167c01000000000000000000000000000000000000000000000000000000000281526004018085815260200184600381111561532657fe5b60ff16815260200183815260200182815260200194505050505060006040518083038186803b15801561535857600080fd5b505af415801561536c573d6000803e3d6000fd5b5050505073__PropsRewardsLib_______________________6311cb33da60a060016308f0d18060006040518563ffffffff167c0100000000000000000000000000000000000000000000000000000000028152600401808581526020018460038111156153d657fe5b60ff16815260200183815260200182815260200194505050505060006040518083038186803b15801561540857600080fd5b505af415801561541c573d6000803e3d6000fd5b5050505073__PropsRewardsLib_______________________6311cb33da60a060026302faf08060006040518563ffffffff167c01000000000000000000000000000000000000000000000000000000000281526004018085815260200184600381111561548657fe5b60ff16815260200183815260200182815260200194505050505060006040518083038186803b1580156154b857600080fd5b505af41580156154cc573d6000803e3d6000fd5b5050505073__PropsRewardsLib_______________________6311cb33da60a0600361072560006040518563ffffffff167c01000000000000000000000000000000000000000000000000000000000281526004018085815260200184600381111561553457fe5b60ff16815260200183815260200182815260200194505050505060006040518083038186803b15801561556657600080fd5b505af415801561557a573d6000803e3d6000fd5b5050505082600a0a633b9aca000260b881905560a0601601819055508060b981905560a0601501819055508160a06014018190555050505050565b60008273ffffffffffffffffffffffffffffffffffffffff16141515156155db57600080fd5b6155f081606a54614ec690919063ffffffff16565b606a8190555061564881606860008573ffffffffffffffffffffffffffffffffffffffff1673ffffffffffffffffffffffffffffffffffffffff16815260200190815260200160002054614ec690919063ffffffff16565b606860008473ffffffffffffffffffffffffffffffffffffffff1673ffffffffffffffffffffffffffffffffffffffff168152602001908152602001600020819055508173ffffffffffffffffffffffffffffffffffffffff16600073ffffffffffffffffffffffffffffffffffffffff167fddf252ad1be2c89b69c2b068fc378daa952ba7f163c4a11628f55a4df523b3ef836040518082815260200191505060405180910390a35050565b828054600181600116156101000203166002900490600052602060002090601f016020900481019282601f1061573657805160ff1916838001178555615764565b82800160010185558215615764579182015b82811115615763578251825591602001919060010190615748565b5b5090506157719190615775565b5090565b61579791905b8082111561579357600081600090555060010161577b565b5090565b905600a165627a7a7230582084cad7f50629bf4f42726d12c6e6989d587e30f0ed4d332e55b0627d550d623e0029",
  "source": "pragma solidity ^0.4.24;\n\nimport \"zos-lib/contracts/Initializable.sol\";\nimport \"openzeppelin-eth/contracts/token/ERC20/ERC20Detailed.sol\";\nimport \"./PropsTimeBasedTransfers.sol\";\nimport \"./ERC865Token.sol\";\nimport \"./PropsRewards.sol\";\n\n/**\n * @title PROPSToken\n * @dev PROPS token contract (based of ZEPToken by openzeppelin), a detailed ERC20 token\n * https://github.com/zeppelinos/zos-vouching/blob/master/contracts/ZEPToken.sol\n * PROPS are divisible by 1e18 base\n * units referred to as 'AttoPROPS'.\n *\n * PROPS are displayed using 18 decimal places of precision.\n *\n * 1 PROPS is equivalent to:\n *   1 * 1e18 == 1e18 == One Quintillion AttoPROPS\n *\n * 600 Million PROPS (total supply) is equivalent to:\n *   600000000 * 1e18 == 6e26 AttoPROPS\n *\n\n */\n\n\ncontract PropsToken is Initializable, ERC20Detailed, ERC865Token, PropsTimeBasedTransfers, PropsRewards {\n\n  /**\n   * @dev Initializer function. Called only once when a proxy for the contract is created.\n   * @param _holder address that will receive its initial supply and be able to transfer before transfers start time\n   * @param _controller address that will have controller functionality on rewards protocol\n   * @param _minSecondsBetweenDays uint256 seconds required to pass between consecutive rewards day\n   * @param _rewardsStartTimestamp uint256 day 0 timestamp\n   */\n  function initialize(\n    address _holder,\n    address _controller,\n    uint256 _minSecondsBetweenDays,\n    uint256 _rewardsStartTimestamp\n  )\n    public\n    initializer\n  {\n    uint8 decimals = 18;\n    // total supply is 600,000,000 PROPS specified in AttoPROPS\n    uint256 totalSupply = 0.6 * 1e9 * (10 ** uint256(decimals));\n\n    ERC20Detailed.initialize(\"Props Token\", \"PROPS\", decimals);\n    PropsRewards.initializePostRewardsUpgrade1(_controller, _minSecondsBetweenDays, _rewardsStartTimestamp);\n    _mint(_holder, totalSupply);\n  }\n}",
  "sourcePath": "/Users/donald/projects/props/props-token-distribution/contracts/token/PropsToken.sol",
  "compiler": {
    "name": "solc",
    "version": "0.4.24+commit.e67f0147.Emscripten.clang"
  },
  "schemaVersion": "2.0.1",
  "updatedAt": "2019-09-04T12:51:05.488Z"
}