{
  "contractName": "ReentrancyGuard",
  "abi": [
    {
      "constant": false,
      "inputs": [],
      "name": "initialize",
      "outputs": [],
      "payable": false,
      "stateMutability": "nonpayable",
      "type": "function"
    }
  ],
  "bytecode": "0x608060405234801561001057600080fd5b506101d7806100206000396000f300608060405260043610610041576000357c0100000000000000000000000000000000000000000000000000000000900463ffffffff1680638129fc1c14610046575b600080fd5b34801561005257600080fd5b5061005b61005d565b005b60008060019054906101000a900460ff168061007d575061007c61019a565b5b8061009457506000809054906101000a900460ff16155b151561012e576040517f08c379a000000000000000000000000000000000000000000000000000000000815260040180806020018281038252602e8152602001807f436f6e747261637420696e7374616e63652068617320616c726561647920626581526020017f656e20696e697469616c697a656400000000000000000000000000000000000081525060400191505060405180910390fd5b600060019054906101000a900460ff1690506001600060016101000a81548160ff02191690831515021790555060016000806101000a81548160ff021916908315150217905550600160338190555080600060016101000a81548160ff02191690831515021790555050565b600080303b905060008114915050905600a165627a7a72305820e65058aa5b11fb5d7970b2efca6e6bc04085056de42414b9a7e1dfad44907c360029",
  "source": "pragma solidity ^0.4.24;\n\nimport \"zos-lib/contracts/Initializable.sol\";\n\n/**\n * @title Helps contracts guard against reentrancy attacks.\n * @author Remco Bloemen <remco@2π.com>, Eenae <alexey@mixbytes.io>\n * @dev If you mark a function `nonReentrant`, you should also\n * mark it `external`.\n */\ncontract ReentrancyGuard is Initializable {\n\n  /// @dev counter to allow mutex lock with only one SSTORE operation\n  uint256 private _guardCounter;\n\n  function initialize() public initializer {\n    _guardCounter = 1;\n  }\n\n  /**\n   * @dev Prevents a contract from calling itself, directly or indirectly.\n   * If you mark a function `nonReentrant`, you should also\n   * mark it `external`. Calling one `nonReentrant` function from\n   * another is not supported. Instead, you can implement a\n   * `private` function doing the actual work, and an `external`\n   * wrapper marked as `nonReentrant`.\n   */\n  modifier nonReentrant() {\n    _guardCounter += 1;\n    uint256 localCounter = _guardCounter;\n    _;\n    require(localCounter == _guardCounter);\n  }\n\n  uint256[50] private ______gap;\n}\n",
  "sourcePath": "/Users/jretina/Programming/PROPSProject/props-token-distribution/contracts/token/openzeppelin-eth/contracts/utils/ReentrancyGuard.sol",
  "compiler": {
    "name": "solc",
    "version": "0.4.24+commit.e67f0147.Emscripten.clang"
  },
  "schemaVersion": "2.0.1",
  "updatedAt": "2019-03-11T10:19:23.047Z"
}