{
  "contractName": "RefundEscrow",
  "abi": [
    {
      "constant": false,
      "inputs": [
        {
          "name": "recipient",
          "type": "address"
        }
      ],
      "name": "transferPrimary",
      "outputs": [],
      "payable": false,
      "stateMutability": "nonpayable",
      "type": "function"
    },
    {
      "constant": false,
      "inputs": [
        {
          "name": "payee",
          "type": "address"
        }
      ],
      "name": "withdraw",
      "outputs": [],
      "payable": false,
      "stateMutability": "nonpayable",
      "type": "function"
    },
    {
      "constant": true,
      "inputs": [],
      "name": "primary",
      "outputs": [
        {
          "name": "",
          "type": "address"
        }
      ],
      "payable": false,
      "stateMutability": "view",
      "type": "function"
    },
    {
      "constant": true,
      "inputs": [
        {
          "name": "payee",
          "type": "address"
        }
      ],
      "name": "depositsOf",
      "outputs": [
        {
          "name": "",
          "type": "uint256"
        }
      ],
      "payable": false,
      "stateMutability": "view",
      "type": "function"
    },
    {
      "anonymous": false,
      "inputs": [],
      "name": "Closed",
      "type": "event"
    },
    {
      "anonymous": false,
      "inputs": [],
      "name": "RefundsEnabled",
      "type": "event"
    },
    {
      "anonymous": false,
      "inputs": [
        {
          "indexed": true,
          "name": "payee",
          "type": "address"
        },
        {
          "indexed": false,
          "name": "weiAmount",
          "type": "uint256"
        }
      ],
      "name": "Deposited",
      "type": "event"
    },
    {
      "anonymous": false,
      "inputs": [
        {
          "indexed": true,
          "name": "payee",
          "type": "address"
        },
        {
          "indexed": false,
          "name": "weiAmount",
          "type": "uint256"
        }
      ],
      "name": "Withdrawn",
      "type": "event"
    },
    {
      "constant": false,
      "inputs": [
        {
          "name": "beneficiary",
          "type": "address"
        },
        {
          "name": "sender",
          "type": "address"
        }
      ],
      "name": "initialize",
      "outputs": [],
      "payable": false,
      "stateMutability": "nonpayable",
      "type": "function"
    },
    {
      "constant": false,
      "inputs": [
        {
          "name": "sender",
          "type": "address"
        }
      ],
      "name": "initialize",
      "outputs": [],
      "payable": false,
      "stateMutability": "nonpayable",
      "type": "function"
    },
    {
      "constant": true,
      "inputs": [],
      "name": "state",
      "outputs": [
        {
          "name": "",
          "type": "uint8"
        }
      ],
      "payable": false,
      "stateMutability": "view",
      "type": "function"
    },
    {
      "constant": true,
      "inputs": [],
      "name": "beneficiary",
      "outputs": [
        {
          "name": "",
          "type": "address"
        }
      ],
      "payable": false,
      "stateMutability": "view",
      "type": "function"
    },
    {
      "constant": false,
      "inputs": [
        {
          "name": "refundee",
          "type": "address"
        }
      ],
      "name": "deposit",
      "outputs": [],
      "payable": true,
      "stateMutability": "payable",
      "type": "function"
    },
    {
      "constant": false,
      "inputs": [],
      "name": "close",
      "outputs": [],
      "payable": false,
      "stateMutability": "nonpayable",
      "type": "function"
    },
    {
      "constant": false,
      "inputs": [],
      "name": "enableRefunds",
      "outputs": [],
      "payable": false,
      "stateMutability": "nonpayable",
      "type": "function"
    },
    {
      "constant": false,
      "inputs": [],
      "name": "beneficiaryWithdraw",
      "outputs": [],
      "payable": false,
      "stateMutability": "nonpayable",
      "type": "function"
    },
    {
      "constant": true,
      "inputs": [
        {
          "name": "payee",
          "type": "address"
        }
      ],
      "name": "withdrawalAllowed",
      "outputs": [
        {
          "name": "",
          "type": "bool"
        }
      ],
      "payable": false,
      "stateMutability": "view",
      "type": "function"
    }
  ],
  "bytecode": "0x608060405234801561001057600080fd5b5061119f806100206000396000f3006080604052600436106100c5576000357c0100000000000000000000000000000000000000000000000000000000900463ffffffff1680632348238c146100ca57806338af3eed1461010d57806343d726d614610164578063485cc9551461017b57806351cff8d9146101de578063685ca194146102215780638c52dc411461027c5780639af6549a14610293578063c19d93fb146102aa578063c4d66de8146102e3578063c6dbdf6114610326578063e3a9db1a1461037d578063f340fa01146103d4575b600080fd5b3480156100d657600080fd5b5061010b600480360381019080803573ffffffffffffffffffffffffffffffffffffffff16906020019092919050505061040a565b005b34801561011957600080fd5b506101226104e6565b604051808273ffffffffffffffffffffffffffffffffffffffff1673ffffffffffffffffffffffffffffffffffffffff16815260200191505060405180910390f35b34801561017057600080fd5b50610179610510565b005b34801561018757600080fd5b506101dc600480360381019080803573ffffffffffffffffffffffffffffffffffffffff169060200190929190803573ffffffffffffffffffffffffffffffffffffffff1690602001909291905050506105f2565b005b3480156101ea57600080fd5b5061021f600480360381019080803573ffffffffffffffffffffffffffffffffffffffff1690602001909291905050506107d3565b005b34801561022d57600080fd5b50610262600480360381019080803573ffffffffffffffffffffffffffffffffffffffff1690602001909291905050506107f3565b604051808215151515815260200191505060405180910390f35b34801561028857600080fd5b50610291610825565b005b34801561029f57600080fd5b506102a8610907565b005b3480156102b657600080fd5b506102bf6109bc565b604051808260028111156102cf57fe5b60ff16815260200191505060405180910390f35b3480156102ef57600080fd5b50610324600480360381019080803573ffffffffffffffffffffffffffffffffffffffff1690602001909291905050506109d3565b005b34801561033257600080fd5b5061033b610b12565b604051808273ffffffffffffffffffffffffffffffffffffffff1673ffffffffffffffffffffffffffffffffffffffff16815260200191505060405180910390f35b34801561038957600080fd5b506103be600480360381019080803573ffffffffffffffffffffffffffffffffffffffff169060200190929190505050610b3c565b6040518082815260200191505060405180910390f35b610408600480360381019080803573ffffffffffffffffffffffffffffffffffffffff169060200190929190505050610b85565b005b603360009054906101000a900473ffffffffffffffffffffffffffffffffffffffff1673ffffffffffffffffffffffffffffffffffffffff163373ffffffffffffffffffffffffffffffffffffffff1614151561046657600080fd5b600073ffffffffffffffffffffffffffffffffffffffff168173ffffffffffffffffffffffffffffffffffffffff16141515156104a257600080fd5b80603360006101000a81548173ffffffffffffffffffffffffffffffffffffffff021916908373ffffffffffffffffffffffffffffffffffffffff16021790555050565b600060cb60019054906101000a900473ffffffffffffffffffffffffffffffffffffffff16905090565b603360009054906101000a900473ffffffffffffffffffffffffffffffffffffffff1673ffffffffffffffffffffffffffffffffffffffff163373ffffffffffffffffffffffffffffffffffffffff1614151561056c57600080fd5b6000600281111561057957fe5b60cb60009054906101000a900460ff16600281111561059457fe5b1415156105a057600080fd5b600260cb60006101000a81548160ff021916908360028111156105bf57fe5b02179055507f1cdde67b72a90f19919ac732a437ac2f7a10fc128d28c2a6e525d89ce5cd9d3a60405160405180910390a1565b60008060019054906101000a900460ff16806106125750610611610bc5565b5b8061062957506000809054906101000a900460ff16155b15156106c3576040517f08c379a000000000000000000000000000000000000000000000000000000000815260040180806020018281038252602e8152602001807f436f6e747261637420696e7374616e63652068617320616c726561647920626581526020017f656e20696e697469616c697a656400000000000000000000000000000000000081525060400191505060405180910390fd5b600060019054906101000a900460ff1690506001600060016101000a81548160ff02191690831515021790555060016000806101000a81548160ff021916908315150217905550610713826109d3565b600073ffffffffffffffffffffffffffffffffffffffff168373ffffffffffffffffffffffffffffffffffffffff161415151561074f57600080fd5b8260cb60016101000a81548173ffffffffffffffffffffffffffffffffffffffff021916908373ffffffffffffffffffffffffffffffffffffffff160217905550600060cb60006101000a81548160ff021916908360028111156107af57fe5b021790555080600060016101000a81548160ff021916908315150217905550505050565b6107dc816107f3565b15156107e757600080fd5b6107f081610bd6565b50565b60006001600281111561080257fe5b60cb60009054906101000a900460ff16600281111561081d57fe5b149050919050565b603360009054906101000a900473ffffffffffffffffffffffffffffffffffffffff1673ffffffffffffffffffffffffffffffffffffffff163373ffffffffffffffffffffffffffffffffffffffff1614151561088157600080fd5b6000600281111561088e57fe5b60cb60009054906101000a900460ff1660028111156108a957fe5b1415156108b557600080fd5b600160cb60006101000a81548160ff021916908360028111156108d457fe5b02179055507f599d8e5a83cffb867d051598c4d70e805d59802d8081c1c7d6dffc5b6aca2b8960405160405180910390a1565b60028081111561091357fe5b60cb60009054906101000a900460ff16600281111561092e57fe5b14151561093a57600080fd5b60cb60019054906101000a900473ffffffffffffffffffffffffffffffffffffffff1673ffffffffffffffffffffffffffffffffffffffff166108fc3073ffffffffffffffffffffffffffffffffffffffff16319081150290604051600060405180830381858888f193505050501580156109b9573d6000803e3d6000fd5b50565b600060cb60009054906101000a900460ff16905090565b60008060019054906101000a900460ff16806109f357506109f2610bc5565b5b80610a0a57506000809054906101000a900460ff16155b1515610aa4576040517f08c379a000000000000000000000000000000000000000000000000000000000815260040180806020018281038252602e8152602001807f436f6e747261637420696e7374616e63652068617320616c726561647920626581526020017f656e20696e697469616c697a656400000000000000000000000000000000000081525060400191505060405180910390fd5b600060019054906101000a900460ff1690506001600060016101000a81548160ff02191690831515021790555060016000806101000a81548160ff021916908315150217905550610af482610d54565b80600060016101000a81548160ff0219169083151502179055505050565b6000603360009054906101000a900473ffffffffffffffffffffffffffffffffffffffff16905090565b6000606660008373ffffffffffffffffffffffffffffffffffffffff1673ffffffffffffffffffffffffffffffffffffffff168152602001908152602001600020549050919050565b60006002811115610b9257fe5b60cb60009054906101000a900460ff166002811115610bad57fe5b141515610bb957600080fd5b610bc281610e93565b50565b600080303b90506000811491505090565b6000603360009054906101000a900473ffffffffffffffffffffffffffffffffffffffff1673ffffffffffffffffffffffffffffffffffffffff163373ffffffffffffffffffffffffffffffffffffffff16141515610c3457600080fd5b606660008373ffffffffffffffffffffffffffffffffffffffff1673ffffffffffffffffffffffffffffffffffffffff1681526020019081526020016000205490506000606660008473ffffffffffffffffffffffffffffffffffffffff1673ffffffffffffffffffffffffffffffffffffffff168152602001908152602001600020819055508173ffffffffffffffffffffffffffffffffffffffff166108fc829081150290604051600060405180830381858888f19350505050158015610d01573d6000803e3d6000fd5b508173ffffffffffffffffffffffffffffffffffffffff167f7084f5476618d8e60b11ef0d7d3f06914655adb8793e28ff7f018d4c76d505d5826040518082815260200191505060405180910390a25050565b60008060019054906101000a900460ff1680610d745750610d73610bc5565b5b80610d8b57506000809054906101000a900460ff16155b1515610e25576040517f08c379a000000000000000000000000000000000000000000000000000000000815260040180806020018281038252602e8152602001807f436f6e747261637420696e7374616e63652068617320616c726561647920626581526020017f656e20696e697469616c697a656400000000000000000000000000000000000081525060400191505060405180910390fd5b600060019054906101000a900460ff1690506001600060016101000a81548160ff02191690831515021790555060016000806101000a81548160ff021916908315150217905550610e7582610fdb565b80600060016101000a81548160ff0219169083151502179055505050565b6000603360009054906101000a900473ffffffffffffffffffffffffffffffffffffffff1673ffffffffffffffffffffffffffffffffffffffff163373ffffffffffffffffffffffffffffffffffffffff16141515610ef157600080fd5b349050610f4681606660008573ffffffffffffffffffffffffffffffffffffffff1673ffffffffffffffffffffffffffffffffffffffff1681526020019081526020016000205461115290919063ffffffff16565b606660008473ffffffffffffffffffffffffffffffffffffffff1673ffffffffffffffffffffffffffffffffffffffff168152602001908152602001600020819055508173ffffffffffffffffffffffffffffffffffffffff167f2da466a7b24304f47e87fa2e1e5a81b9831ce54fec19055ce277ca2f39ba42c4826040518082815260200191505060405180910390a25050565b60008060019054906101000a900460ff1680610ffb5750610ffa610bc5565b5b8061101257506000809054906101000a900460ff16155b15156110ac576040517f08c379a000000000000000000000000000000000000000000000000000000000815260040180806020018281038252602e8152602001807f436f6e747261637420696e7374616e63652068617320616c726561647920626581526020017f656e20696e697469616c697a656400000000000000000000000000000000000081525060400191505060405180910390fd5b600060019054906101000a900460ff1690506001600060016101000a81548160ff02191690831515021790555060016000806101000a81548160ff02191690831515021790555081603360006101000a81548173ffffffffffffffffffffffffffffffffffffffff021916908373ffffffffffffffffffffffffffffffffffffffff16021790555080600060016101000a81548160ff0219169083151502179055505050565b600080828401905083811015151561116957600080fd5b80915050929150505600a165627a7a72305820ff4ad18b011909ec08be07a2886c36d52690afc43fb807c843be330f14513e9e0029",
  "source": "pragma solidity ^0.4.24;\n\nimport \"zos-lib/contracts/Initializable.sol\";\nimport \"./ConditionalEscrow.sol\";\n\n\n/**\n * @title RefundEscrow\n * @dev Escrow that holds funds for a beneficiary, deposited from multiple parties.\n * The primary account may close the deposit period, and allow for either withdrawal\n * by the beneficiary, or refunds to the depositors.\n */\ncontract RefundEscrow is Initializable, ConditionalEscrow {\n  enum State { Active, Refunding, Closed }\n\n  event Closed();\n  event RefundsEnabled();\n\n  State private _state;\n  address private _beneficiary;\n\n  /**\n   * @dev Constructor.\n   * @param beneficiary The beneficiary of the deposits.\n   */\n  function initialize(address beneficiary, address sender) public initializer {\n    ConditionalEscrow.initialize(sender);\n\n    require(beneficiary != address(0));\n    _beneficiary = beneficiary;\n    _state = State.Active;\n  }\n\n  /**\n   * @return the current state of the escrow.\n   */\n  function state() public view returns (State) {\n    return _state;\n  }\n\n  /**\n   * @return the beneficiary of the escrow.\n   */\n  function beneficiary() public view returns (address) {\n    return _beneficiary;\n  }\n\n  /**\n   * @dev Stores funds that may later be refunded.\n   * @param refundee The address funds will be sent to if a refund occurs.\n   */\n  function deposit(address refundee) public payable {\n    require(_state == State.Active);\n    super.deposit(refundee);\n  }\n\n  /**\n   * @dev Allows for the beneficiary to withdraw their funds, rejecting\n   * further deposits.\n   */\n  function close() public onlyPrimary {\n    require(_state == State.Active);\n    _state = State.Closed;\n    emit Closed();\n  }\n\n  /**\n   * @dev Allows for refunds to take place, rejecting further deposits.\n   */\n  function enableRefunds() public onlyPrimary {\n    require(_state == State.Active);\n    _state = State.Refunding;\n    emit RefundsEnabled();\n  }\n\n  /**\n   * @dev Withdraws the beneficiary's funds.\n   */\n  function beneficiaryWithdraw() public {\n    require(_state == State.Closed);\n    _beneficiary.transfer(address(this).balance);\n  }\n\n  /**\n   * @dev Returns whether refundees can withdraw their deposits (be refunded).\n   */\n  function withdrawalAllowed(address payee) public view returns (bool) {\n    return _state == State.Refunding;\n  }\n\n  uint256[50] private ______gap;\n}\n",
  "sourcePath": "/Users/jretina/Programming/PROPSProject/props-token-distribution/contracts/token/openzeppelin-eth/contracts/payment/RefundEscrow.sol",
  "compiler": {
    "name": "solc",
    "version": "0.4.24+commit.e67f0147.Emscripten.clang"
  },
  "schemaVersion": "2.0.1",
  "updatedAt": "2019-05-12T14:45:14.928Z"
}