{
  "contractName": "RefundableCrowdsale",
  "abi": [
    {
      "constant": true,
      "inputs": [],
      "name": "hasClosed",
      "outputs": [
        {
          "name": "",
          "type": "bool"
        }
      ],
      "payable": false,
      "stateMutability": "view",
      "type": "function"
    },
    {
      "constant": true,
      "inputs": [],
      "name": "rate",
      "outputs": [
        {
          "name": "",
          "type": "uint256"
        }
      ],
      "payable": false,
      "stateMutability": "view",
      "type": "function"
    },
    {
      "constant": true,
      "inputs": [],
      "name": "weiRaised",
      "outputs": [
        {
          "name": "",
          "type": "uint256"
        }
      ],
      "payable": false,
      "stateMutability": "view",
      "type": "function"
    },
    {
      "constant": true,
      "inputs": [],
      "name": "isOpen",
      "outputs": [
        {
          "name": "",
          "type": "bool"
        }
      ],
      "payable": false,
      "stateMutability": "view",
      "type": "function"
    },
    {
      "constant": true,
      "inputs": [],
      "name": "closingTime",
      "outputs": [
        {
          "name": "",
          "type": "uint256"
        }
      ],
      "payable": false,
      "stateMutability": "view",
      "type": "function"
    },
    {
      "constant": false,
      "inputs": [],
      "name": "finalize",
      "outputs": [],
      "payable": false,
      "stateMutability": "nonpayable",
      "type": "function"
    },
    {
      "constant": true,
      "inputs": [],
      "name": "wallet",
      "outputs": [
        {
          "name": "",
          "type": "address"
        }
      ],
      "payable": false,
      "stateMutability": "view",
      "type": "function"
    },
    {
      "constant": true,
      "inputs": [],
      "name": "finalized",
      "outputs": [
        {
          "name": "",
          "type": "bool"
        }
      ],
      "payable": false,
      "stateMutability": "view",
      "type": "function"
    },
    {
      "constant": true,
      "inputs": [],
      "name": "openingTime",
      "outputs": [
        {
          "name": "",
          "type": "uint256"
        }
      ],
      "payable": false,
      "stateMutability": "view",
      "type": "function"
    },
    {
      "constant": false,
      "inputs": [
        {
          "name": "beneficiary",
          "type": "address"
        }
      ],
      "name": "buyTokens",
      "outputs": [],
      "payable": true,
      "stateMutability": "payable",
      "type": "function"
    },
    {
      "constant": true,
      "inputs": [],
      "name": "token",
      "outputs": [
        {
          "name": "",
          "type": "address"
        }
      ],
      "payable": false,
      "stateMutability": "view",
      "type": "function"
    },
    {
      "payable": true,
      "stateMutability": "payable",
      "type": "fallback"
    },
    {
      "anonymous": false,
      "inputs": [],
      "name": "CrowdsaleFinalized",
      "type": "event"
    },
    {
      "anonymous": false,
      "inputs": [
        {
          "indexed": true,
          "name": "purchaser",
          "type": "address"
        },
        {
          "indexed": true,
          "name": "beneficiary",
          "type": "address"
        },
        {
          "indexed": false,
          "name": "value",
          "type": "uint256"
        },
        {
          "indexed": false,
          "name": "amount",
          "type": "uint256"
        }
      ],
      "name": "TokensPurchased",
      "type": "event"
    },
    {
      "constant": false,
      "inputs": [
        {
          "name": "rate",
          "type": "uint256"
        },
        {
          "name": "wallet",
          "type": "address"
        },
        {
          "name": "token",
          "type": "address"
        }
      ],
      "name": "initialize",
      "outputs": [],
      "payable": false,
      "stateMutability": "nonpayable",
      "type": "function"
    },
    {
      "constant": false,
      "inputs": [
        {
          "name": "openingTime",
          "type": "uint256"
        },
        {
          "name": "closingTime",
          "type": "uint256"
        }
      ],
      "name": "initialize",
      "outputs": [],
      "payable": false,
      "stateMutability": "nonpayable",
      "type": "function"
    },
    {
      "constant": false,
      "inputs": [
        {
          "name": "goal",
          "type": "uint256"
        }
      ],
      "name": "initialize",
      "outputs": [],
      "payable": false,
      "stateMutability": "nonpayable",
      "type": "function"
    },
    {
      "constant": true,
      "inputs": [],
      "name": "goal",
      "outputs": [
        {
          "name": "",
          "type": "uint256"
        }
      ],
      "payable": false,
      "stateMutability": "view",
      "type": "function"
    },
    {
      "constant": false,
      "inputs": [
        {
          "name": "beneficiary",
          "type": "address"
        }
      ],
      "name": "claimRefund",
      "outputs": [],
      "payable": false,
      "stateMutability": "nonpayable",
      "type": "function"
    },
    {
      "constant": true,
      "inputs": [],
      "name": "goalReached",
      "outputs": [
        {
          "name": "",
          "type": "bool"
        }
      ],
      "payable": false,
      "stateMutability": "view",
      "type": "function"
    }
  ],
  "bytecode": "0x60806040526000609d60006101000a81548160ff02191690831515021790555034801561002b57600080fd5b506126a38061003b6000396000f3006080604052600436106100f1576000357c0100000000000000000000000000000000000000000000000000000000900463ffffffff1680631515bc2b146100fc5780632c4e722e1461012b57806340193883146101565780634042b66f1461018157806347535d7b146101ac5780634b6753bc146101db5780634bb278f314610206578063521eb2731461021d5780637d3d652214610274578063b3f05b97146102a3578063b4988fd0146102d2578063b7a8807c1461033f578063bffa55d51461036a578063e4a30116146103ad578063ec8ac4d8146103e4578063fc0c546a1461041a578063fe4b84df14610471575b6100fa3361049e565b005b34801561010857600080fd5b5061011161056c565b604051808215151515815260200191505060405180910390f35b34801561013757600080fd5b50610140610578565b6040518082815260200191505060405180910390f35b34801561016257600080fd5b5061016b610582565b6040518082815260200191505060405180910390f35b34801561018d57600080fd5b5061019661058c565b6040518082815260200191505060405180910390f35b3480156101b857600080fd5b506101c1610596565b604051808215151515815260200191505060405180910390f35b3480156101e757600080fd5b506101f06105b1565b6040518082815260200191505060405180910390f35b34801561021257600080fd5b5061021b6105bb565b005b34801561022957600080fd5b5061023261063b565b604051808273ffffffffffffffffffffffffffffffffffffffff1673ffffffffffffffffffffffffffffffffffffffff16815260200191505060405180910390f35b34801561028057600080fd5b50610289610665565b604051808215151515815260200191505060405180910390f35b3480156102af57600080fd5b506102b8610679565b604051808215151515815260200191505060405180910390f35b3480156102de57600080fd5b5061033d60048036038101908080359060200190929190803573ffffffffffffffffffffffffffffffffffffffff169060200190929190803573ffffffffffffffffffffffffffffffffffffffff169060200190929190505050610690565b005b34801561034b57600080fd5b506103546108d8565b6040518082815260200191505060405180910390f35b34801561037657600080fd5b506103ab600480360381019080803573ffffffffffffffffffffffffffffffffffffffff1690602001909291905050506108e2565b005b3480156103b957600080fd5b506103e260048036038101908080359060200190929190803590602001909291905050506109e1565b005b610418600480360381019080803573ffffffffffffffffffffffffffffffffffffffff16906020019092919050505061049e565b005b34801561042657600080fd5b5061042f610b54565b604051808273ffffffffffffffffffffffffffffffffffffffff1673ffffffffffffffffffffffffffffffffffffffff16815260200191505060405180910390f35b34801561047d57600080fd5b5061049c60048036038101908080359060200190929190505050610b7e565b005b6000803491506104ae8383610ea7565b6104b782610ec8565b90506104ce82603654610ee690919063ffffffff16565b6036819055506104de8382610f07565b8273ffffffffffffffffffffffffffffffffffffffff163373ffffffffffffffffffffffffffffffffffffffff167f6faf93231a456e552dbc9961f58d9713ee4f2e69d15f1975b050ef0911053a7b8484604051808381526020018281526020019250505060405180910390a36105558383610f15565b61055d610f19565b6105678383610ff1565b505050565b6000606a544211905090565b6000603554905090565b600060d054905090565b6000603654905090565b600060695442101580156105ac5750606a544211155b905090565b6000606a54905090565b609d60009054906101000a900460ff161515156105d757600080fd5b6105df61056c565b15156105ea57600080fd5b6105f2610ff5565b7f9270cc390c096600a1c17c44345a1ba689fafd99d97487b10cfccf86cf73183660405160405180910390a16001609d60006101000a81548160ff021916908315150217905550565b6000603460009054906101000a900473ffffffffffffffffffffffffffffffffffffffff16905090565b600060d05461067261058c565b1015905090565b6000609d60009054906101000a900460ff16905090565b60008060019054906101000a900460ff16806106b057506106af6111ec565b5b806106c757506000809054906101000a900460ff16155b1515610761576040517f08c379a000000000000000000000000000000000000000000000000000000000815260040180806020018281038252602e8152602001807f436f6e747261637420696e7374616e63652068617320616c726561647920626581526020017f656e20696e697469616c697a656400000000000000000000000000000000000081525060400191505060405180910390fd5b600060019054906101000a900460ff1690506001600060016101000a81548160ff02191690831515021790555060016000806101000a81548160ff0219169083151502179055506000841115156107b757600080fd5b600073ffffffffffffffffffffffffffffffffffffffff168373ffffffffffffffffffffffffffffffffffffffff16141515156107f357600080fd5b600073ffffffffffffffffffffffffffffffffffffffff168273ffffffffffffffffffffffffffffffffffffffff161415151561082f57600080fd5b8360358190555082603460006101000a81548173ffffffffffffffffffffffffffffffffffffffff021916908373ffffffffffffffffffffffffffffffffffffffff16021790555081603360006101000a81548173ffffffffffffffffffffffffffffffffffffffff021916908373ffffffffffffffffffffffffffffffffffffffff16021790555080600060016101000a81548160ff02191690831515021790555050505050565b6000606954905090565b6108ea610679565b15156108f557600080fd5b6108fd610665565b15151561090957600080fd5b60d160009054906101000a900473ffffffffffffffffffffffffffffffffffffffff1673ffffffffffffffffffffffffffffffffffffffff166351cff8d9826040518263ffffffff167c0100000000000000000000000000000000000000000000000000000000028152600401808273ffffffffffffffffffffffffffffffffffffffff1673ffffffffffffffffffffffffffffffffffffffff168152602001915050600060405180830381600087803b1580156109c657600080fd5b505af11580156109da573d6000803e3d6000fd5b5050505050565b60008060019054906101000a900460ff1680610a015750610a006111ec565b5b80610a1857506000809054906101000a900460ff16155b1515610ab2576040517f08c379a000000000000000000000000000000000000000000000000000000000815260040180806020018281038252602e8152602001807f436f6e747261637420696e7374616e63652068617320616c726561647920626581526020017f656e20696e697469616c697a656400000000000000000000000000000000000081525060400191505060405180910390fd5b600060019054906101000a900460ff1690506001600060016101000a81548160ff02191690831515021790555060016000806101000a81548160ff021916908315150217905550610b016111fd565b1515610b0957fe5b428310151515610b1857600080fd5b828210151515610b2757600080fd5b8260698190555081606a8190555080600060016101000a81548160ff021916908315150217905550505050565b6000603360009054906101000a900473ffffffffffffffffffffffffffffffffffffffff16905090565b60008060019054906101000a900460ff1680610b9e5750610b9d6111ec565b5b80610bb557506000809054906101000a900460ff16155b1515610c4f576040517f08c379a000000000000000000000000000000000000000000000000000000000815260040180806020018281038252602e8152602001807f436f6e747261637420696e7374616e63652068617320616c726561647920626581526020017f656e20696e697469616c697a656400000000000000000000000000000000000081525060400191505060405180910390fd5b600060019054906101000a900460ff1690506001600060016101000a81548160ff02191690831515021790555060016000806101000a81548160ff021916908315150217905550610c9e6112bf565b1515610ca657fe5b600082111515610cb557600080fd5b600073ffffffffffffffffffffffffffffffffffffffff1660d160009054906101000a900473ffffffffffffffffffffffffffffffffffffffff1673ffffffffffffffffffffffffffffffffffffffff161415610e8257610d146114a8565b604051809103906000f080158015610d30573d6000803e3d6000fd5b5060d160006101000a81548173ffffffffffffffffffffffffffffffffffffffff021916908373ffffffffffffffffffffffffffffffffffffffff16021790555060d160009054906101000a900473ffffffffffffffffffffffffffffffffffffffff1673ffffffffffffffffffffffffffffffffffffffff1663485cc955610db761063b565b306040518363ffffffff167c0100000000000000000000000000000000000000000000000000000000028152600401808373ffffffffffffffffffffffffffffffffffffffff1673ffffffffffffffffffffffffffffffffffffffff1681526020018273ffffffffffffffffffffffffffffffffffffffff1673ffffffffffffffffffffffffffffffffffffffff16815260200192505050600060405180830381600087803b158015610e6957600080fd5b505af1158015610e7d573d6000803e3d6000fd5b505050505b8160d08190555080600060016101000a81548160ff0219169083151502179055505050565b610eaf610596565b1515610eba57600080fd5b610ec482826112d9565b5050565b6000610edf6035548361132990919063ffffffff16565b9050919050565b6000808284019050838110151515610efd57600080fd5b8091505092915050565b610f118282611367565b5050565b5050565b60d160009054906101000a900473ffffffffffffffffffffffffffffffffffffffff1673ffffffffffffffffffffffffffffffffffffffff1663f340fa0134336040518363ffffffff167c0100000000000000000000000000000000000000000000000000000000028152600401808273ffffffffffffffffffffffffffffffffffffffff1673ffffffffffffffffffffffffffffffffffffffff1681526020019150506000604051808303818588803b158015610fd657600080fd5b505af1158015610fea573d6000803e3d6000fd5b5050505050565b5050565b610ffd610665565b156111435760d160009054906101000a900473ffffffffffffffffffffffffffffffffffffffff1673ffffffffffffffffffffffffffffffffffffffff166343d726d66040518163ffffffff167c0100000000000000000000000000000000000000000000000000000000028152600401600060405180830381600087803b15801561108857600080fd5b505af115801561109c573d6000803e3d6000fd5b5050505060d160009054906101000a900473ffffffffffffffffffffffffffffffffffffffff1673ffffffffffffffffffffffffffffffffffffffff16639af6549a6040518163ffffffff167c0100000000000000000000000000000000000000000000000000000000028152600401600060405180830381600087803b15801561112657600080fd5b505af115801561113a573d6000803e3d6000fd5b505050506111e2565b60d160009054906101000a900473ffffffffffffffffffffffffffffffffffffffff1673ffffffffffffffffffffffffffffffffffffffff16638c52dc416040518163ffffffff167c0100000000000000000000000000000000000000000000000000000000028152600401600060405180830381600087803b1580156111c957600080fd5b505af11580156111dd573d6000803e3d6000fd5b505050505b6111ea6113b8565b565b600080303b90506000811491505090565b60008060355411801561125f5750600073ffffffffffffffffffffffffffffffffffffffff16603460009054906101000a900473ffffffffffffffffffffffffffffffffffffffff1673ffffffffffffffffffffffffffffffffffffffff1614155b80156112ba5750600073ffffffffffffffffffffffffffffffffffffffff16603360009054906101000a900473ffffffffffffffffffffffffffffffffffffffff1673ffffffffffffffffffffffffffffffffffffffff1614155b905090565b6000806069541180156112d457506000606a54115b905090565b600073ffffffffffffffffffffffffffffffffffffffff168273ffffffffffffffffffffffffffffffffffffffff161415151561131557600080fd5b6000811415151561132557600080fd5b5050565b600080600084141561133e5760009150611360565b828402905082848281151561134f57fe5b0414151561135c57600080fd5b8091505b5092915050565b6113b48282603360009054906101000a900473ffffffffffffffffffffffffffffffffffffffff1673ffffffffffffffffffffffffffffffffffffffff166113ba9092919063ffffffff16565b5050565b565b8273ffffffffffffffffffffffffffffffffffffffff1663a9059cbb83836040518363ffffffff167c0100000000000000000000000000000000000000000000000000000000028152600401808373ffffffffffffffffffffffffffffffffffffffff1673ffffffffffffffffffffffffffffffffffffffff16815260200182815260200192505050602060405180830381600087803b15801561145d57600080fd5b505af1158015611471573d6000803e3d6000fd5b505050506040513d602081101561148757600080fd5b810190808051906020019092919050505015156114a357600080fd5b505050565b6040516111bf806114b9833901905600608060405234801561001057600080fd5b5061119f806100206000396000f3006080604052600436106100c5576000357c0100000000000000000000000000000000000000000000000000000000900463ffffffff1680632348238c146100ca57806338af3eed1461010d57806343d726d614610164578063485cc9551461017b57806351cff8d9146101de578063685ca194146102215780638c52dc411461027c5780639af6549a14610293578063c19d93fb146102aa578063c4d66de8146102e3578063c6dbdf6114610326578063e3a9db1a1461037d578063f340fa01146103d4575b600080fd5b3480156100d657600080fd5b5061010b600480360381019080803573ffffffffffffffffffffffffffffffffffffffff16906020019092919050505061040a565b005b34801561011957600080fd5b506101226104e6565b604051808273ffffffffffffffffffffffffffffffffffffffff1673ffffffffffffffffffffffffffffffffffffffff16815260200191505060405180910390f35b34801561017057600080fd5b50610179610510565b005b34801561018757600080fd5b506101dc600480360381019080803573ffffffffffffffffffffffffffffffffffffffff169060200190929190803573ffffffffffffffffffffffffffffffffffffffff1690602001909291905050506105f2565b005b3480156101ea57600080fd5b5061021f600480360381019080803573ffffffffffffffffffffffffffffffffffffffff1690602001909291905050506107d3565b005b34801561022d57600080fd5b50610262600480360381019080803573ffffffffffffffffffffffffffffffffffffffff1690602001909291905050506107f3565b604051808215151515815260200191505060405180910390f35b34801561028857600080fd5b50610291610825565b005b34801561029f57600080fd5b506102a8610907565b005b3480156102b657600080fd5b506102bf6109bc565b604051808260028111156102cf57fe5b60ff16815260200191505060405180910390f35b3480156102ef57600080fd5b50610324600480360381019080803573ffffffffffffffffffffffffffffffffffffffff1690602001909291905050506109d3565b005b34801561033257600080fd5b5061033b610b12565b604051808273ffffffffffffffffffffffffffffffffffffffff1673ffffffffffffffffffffffffffffffffffffffff16815260200191505060405180910390f35b34801561038957600080fd5b506103be600480360381019080803573ffffffffffffffffffffffffffffffffffffffff169060200190929190505050610b3c565b6040518082815260200191505060405180910390f35b610408600480360381019080803573ffffffffffffffffffffffffffffffffffffffff169060200190929190505050610b85565b005b603360009054906101000a900473ffffffffffffffffffffffffffffffffffffffff1673ffffffffffffffffffffffffffffffffffffffff163373ffffffffffffffffffffffffffffffffffffffff1614151561046657600080fd5b600073ffffffffffffffffffffffffffffffffffffffff168173ffffffffffffffffffffffffffffffffffffffff16141515156104a257600080fd5b80603360006101000a81548173ffffffffffffffffffffffffffffffffffffffff021916908373ffffffffffffffffffffffffffffffffffffffff16021790555050565b600060cb60019054906101000a900473ffffffffffffffffffffffffffffffffffffffff16905090565b603360009054906101000a900473ffffffffffffffffffffffffffffffffffffffff1673ffffffffffffffffffffffffffffffffffffffff163373ffffffffffffffffffffffffffffffffffffffff1614151561056c57600080fd5b6000600281111561057957fe5b60cb60009054906101000a900460ff16600281111561059457fe5b1415156105a057600080fd5b600260cb60006101000a81548160ff021916908360028111156105bf57fe5b02179055507f1cdde67b72a90f19919ac732a437ac2f7a10fc128d28c2a6e525d89ce5cd9d3a60405160405180910390a1565b60008060019054906101000a900460ff16806106125750610611610bc5565b5b8061062957506000809054906101000a900460ff16155b15156106c3576040517f08c379a000000000000000000000000000000000000000000000000000000000815260040180806020018281038252602e8152602001807f436f6e747261637420696e7374616e63652068617320616c726561647920626581526020017f656e20696e697469616c697a656400000000000000000000000000000000000081525060400191505060405180910390fd5b600060019054906101000a900460ff1690506001600060016101000a81548160ff02191690831515021790555060016000806101000a81548160ff021916908315150217905550610713826109d3565b600073ffffffffffffffffffffffffffffffffffffffff168373ffffffffffffffffffffffffffffffffffffffff161415151561074f57600080fd5b8260cb60016101000a81548173ffffffffffffffffffffffffffffffffffffffff021916908373ffffffffffffffffffffffffffffffffffffffff160217905550600060cb60006101000a81548160ff021916908360028111156107af57fe5b021790555080600060016101000a81548160ff021916908315150217905550505050565b6107dc816107f3565b15156107e757600080fd5b6107f081610bd6565b50565b60006001600281111561080257fe5b60cb60009054906101000a900460ff16600281111561081d57fe5b149050919050565b603360009054906101000a900473ffffffffffffffffffffffffffffffffffffffff1673ffffffffffffffffffffffffffffffffffffffff163373ffffffffffffffffffffffffffffffffffffffff1614151561088157600080fd5b6000600281111561088e57fe5b60cb60009054906101000a900460ff1660028111156108a957fe5b1415156108b557600080fd5b600160cb60006101000a81548160ff021916908360028111156108d457fe5b02179055507f599d8e5a83cffb867d051598c4d70e805d59802d8081c1c7d6dffc5b6aca2b8960405160405180910390a1565b60028081111561091357fe5b60cb60009054906101000a900460ff16600281111561092e57fe5b14151561093a57600080fd5b60cb60019054906101000a900473ffffffffffffffffffffffffffffffffffffffff1673ffffffffffffffffffffffffffffffffffffffff166108fc3073ffffffffffffffffffffffffffffffffffffffff16319081150290604051600060405180830381858888f193505050501580156109b9573d6000803e3d6000fd5b50565b600060cb60009054906101000a900460ff16905090565b60008060019054906101000a900460ff16806109f357506109f2610bc5565b5b80610a0a57506000809054906101000a900460ff16155b1515610aa4576040517f08c379a000000000000000000000000000000000000000000000000000000000815260040180806020018281038252602e8152602001807f436f6e747261637420696e7374616e63652068617320616c726561647920626581526020017f656e20696e697469616c697a656400000000000000000000000000000000000081525060400191505060405180910390fd5b600060019054906101000a900460ff1690506001600060016101000a81548160ff02191690831515021790555060016000806101000a81548160ff021916908315150217905550610af482610d54565b80600060016101000a81548160ff0219169083151502179055505050565b6000603360009054906101000a900473ffffffffffffffffffffffffffffffffffffffff16905090565b6000606660008373ffffffffffffffffffffffffffffffffffffffff1673ffffffffffffffffffffffffffffffffffffffff168152602001908152602001600020549050919050565b60006002811115610b9257fe5b60cb60009054906101000a900460ff166002811115610bad57fe5b141515610bb957600080fd5b610bc281610e93565b50565b600080303b90506000811491505090565b6000603360009054906101000a900473ffffffffffffffffffffffffffffffffffffffff1673ffffffffffffffffffffffffffffffffffffffff163373ffffffffffffffffffffffffffffffffffffffff16141515610c3457600080fd5b606660008373ffffffffffffffffffffffffffffffffffffffff1673ffffffffffffffffffffffffffffffffffffffff1681526020019081526020016000205490506000606660008473ffffffffffffffffffffffffffffffffffffffff1673ffffffffffffffffffffffffffffffffffffffff168152602001908152602001600020819055508173ffffffffffffffffffffffffffffffffffffffff166108fc829081150290604051600060405180830381858888f19350505050158015610d01573d6000803e3d6000fd5b508173ffffffffffffffffffffffffffffffffffffffff167f7084f5476618d8e60b11ef0d7d3f06914655adb8793e28ff7f018d4c76d505d5826040518082815260200191505060405180910390a25050565b60008060019054906101000a900460ff1680610d745750610d73610bc5565b5b80610d8b57506000809054906101000a900460ff16155b1515610e25576040517f08c379a000000000000000000000000000000000000000000000000000000000815260040180806020018281038252602e8152602001807f436f6e747261637420696e7374616e63652068617320616c726561647920626581526020017f656e20696e697469616c697a656400000000000000000000000000000000000081525060400191505060405180910390fd5b600060019054906101000a900460ff1690506001600060016101000a81548160ff02191690831515021790555060016000806101000a81548160ff021916908315150217905550610e7582610fdb565b80600060016101000a81548160ff0219169083151502179055505050565b6000603360009054906101000a900473ffffffffffffffffffffffffffffffffffffffff1673ffffffffffffffffffffffffffffffffffffffff163373ffffffffffffffffffffffffffffffffffffffff16141515610ef157600080fd5b349050610f4681606660008573ffffffffffffffffffffffffffffffffffffffff1673ffffffffffffffffffffffffffffffffffffffff1681526020019081526020016000205461115290919063ffffffff16565b606660008473ffffffffffffffffffffffffffffffffffffffff1673ffffffffffffffffffffffffffffffffffffffff168152602001908152602001600020819055508173ffffffffffffffffffffffffffffffffffffffff167f2da466a7b24304f47e87fa2e1e5a81b9831ce54fec19055ce277ca2f39ba42c4826040518082815260200191505060405180910390a25050565b60008060019054906101000a900460ff1680610ffb5750610ffa610bc5565b5b8061101257506000809054906101000a900460ff16155b15156110ac576040517f08c379a000000000000000000000000000000000000000000000000000000000815260040180806020018281038252602e8152602001807f436f6e747261637420696e7374616e63652068617320616c726561647920626581526020017f656e20696e697469616c697a656400000000000000000000000000000000000081525060400191505060405180910390fd5b600060019054906101000a900460ff1690506001600060016101000a81548160ff02191690831515021790555060016000806101000a81548160ff02191690831515021790555081603360006101000a81548173ffffffffffffffffffffffffffffffffffffffff021916908373ffffffffffffffffffffffffffffffffffffffff16021790555080600060016101000a81548160ff0219169083151502179055505050565b600080828401905083811015151561116957600080fd5b80915050929150505600a165627a7a72305820ff4ad18b011909ec08be07a2886c36d52690afc43fb807c843be330f14513e9e0029a165627a7a7230582075bc52cc089fdbf0bec4e7437f55d476e5e071b2f4aa017f4fcd4e6561e0ee2b0029",
  "source": "pragma solidity ^0.4.24;\n\n\nimport \"zos-lib/contracts/Initializable.sol\";\nimport \"../../math/SafeMath.sol\";\nimport \"./FinalizableCrowdsale.sol\";\nimport \"../../payment/RefundEscrow.sol\";\n\n\n/**\n * @title RefundableCrowdsale\n * @dev Extension of Crowdsale contract that adds a funding goal, and\n * the possibility of users getting a refund if goal is not met.\n */\ncontract RefundableCrowdsale is Initializable, FinalizableCrowdsale {\n  using SafeMath for uint256;\n\n  // minimum amount of funds to be raised in weis\n  uint256 private _goal;\n\n  // refund escrow used to hold funds while crowdsale is running\n  RefundEscrow private _escrow;\n\n  /**\n   * @dev Constructor, creates RefundEscrow.\n   * @param goal Funding goal\n   */\n  function initialize(uint256 goal) public initializer {\n    // FinalizableCrowdsale depends on TimedCrowdsale\n    assert(TimedCrowdsale._hasBeenInitialized());\n\n    require(goal > 0);\n\n    // conditional added to make initializer idempotent in case of diamond inheritance\n    if (address(_escrow) == address(0)) {\n      _escrow = new RefundEscrow();\n      _escrow.initialize(wallet(), address(this));\n    }\n\n    _goal = goal;\n  }\n\n  /**\n   * @return minimum amount of funds to be raised in wei.\n   */\n  function goal() public view returns(uint256) {\n    return _goal;\n  }\n\n  /**\n   * @dev Investors can claim refunds here if crowdsale is unsuccessful\n   * @param beneficiary Whose refund will be claimed.\n   */\n  function claimRefund(address beneficiary) public {\n    require(finalized());\n    require(!goalReached());\n\n    _escrow.withdraw(beneficiary);\n  }\n\n  /**\n   * @dev Checks whether funding goal was reached.\n   * @return Whether funding goal was reached\n   */\n  function goalReached() public view returns (bool) {\n    return weiRaised() >= _goal;\n  }\n\n  /**\n   * @dev escrow finalization task, called when finalize() is called\n   */\n  function _finalization() internal {\n    if (goalReached()) {\n      _escrow.close();\n      _escrow.beneficiaryWithdraw();\n    } else {\n      _escrow.enableRefunds();\n    }\n\n    super._finalization();\n  }\n\n  /**\n   * @dev Overrides Crowdsale fund forwarding, sending funds to escrow.\n   */\n  function _forwardFunds() internal {\n    _escrow.deposit.value(msg.value)(msg.sender);\n  }\n\n\n  uint256[50] private ______gap;\n}\n",
  "sourcePath": "/Users/jretina/Programming/PROPSProject/props-token-distribution/contracts/token/openzeppelin-eth/contracts/crowdsale/distribution/RefundableCrowdsale.sol",
  "compiler": {
    "name": "solc",
    "version": "0.4.24+commit.e67f0147.Emscripten.clang"
  },
  "schemaVersion": "2.0.1",
  "updatedAt": "2019-05-08T08:10:58.654Z"
}