{
  "contractName": "SignatureBouncer",
  "abi": [
    {
      "constant": true,
      "inputs": [
        {
          "name": "account",
          "type": "address"
        }
      ],
      "name": "isSigner",
      "outputs": [
        {
          "name": "",
          "type": "bool"
        }
      ],
      "payable": false,
      "stateMutability": "view",
      "type": "function"
    },
    {
      "constant": false,
      "inputs": [],
      "name": "renounceSigner",
      "outputs": [],
      "payable": false,
      "stateMutability": "nonpayable",
      "type": "function"
    },
    {
      "constant": false,
      "inputs": [
        {
          "name": "account",
          "type": "address"
        }
      ],
      "name": "addSigner",
      "outputs": [],
      "payable": false,
      "stateMutability": "nonpayable",
      "type": "function"
    },
    {
      "anonymous": false,
      "inputs": [
        {
          "indexed": true,
          "name": "account",
          "type": "address"
        }
      ],
      "name": "SignerAdded",
      "type": "event"
    },
    {
      "anonymous": false,
      "inputs": [
        {
          "indexed": true,
          "name": "account",
          "type": "address"
        }
      ],
      "name": "SignerRemoved",
      "type": "event"
    },
    {
      "constant": false,
      "inputs": [
        {
          "name": "sender",
          "type": "address"
        }
      ],
      "name": "initialize",
      "outputs": [],
      "payable": false,
      "stateMutability": "nonpayable",
      "type": "function"
    }
  ],
  "bytecode": "0x608060405234801561001057600080fd5b506106ee806100206000396000f300608060405260043610610062576000357c0100000000000000000000000000000000000000000000000000000000900463ffffffff1680637df73e2714610067578063c4d66de8146100c2578063e5c8b03d14610105578063eb12d61e1461011c575b600080fd5b34801561007357600080fd5b506100a8600480360381019080803573ffffffffffffffffffffffffffffffffffffffff16906020019092919050505061015f565b604051808215151515815260200191505060405180910390f35b3480156100ce57600080fd5b50610103600480360381019080803573ffffffffffffffffffffffffffffffffffffffff16906020019092919050505061017c565b005b34801561011157600080fd5b5061011a6102bb565b005b34801561012857600080fd5b5061015d600480360381019080803573ffffffffffffffffffffffffffffffffffffffff1690602001909291905050506102c6565b005b60006101758260336102e690919063ffffffff16565b9050919050565b60008060019054906101000a900460ff168061019c575061019b61037a565b5b806101b357506000809054906101000a900460ff16155b151561024d576040517f08c379a000000000000000000000000000000000000000000000000000000000815260040180806020018281038252602e8152602001807f436f6e747261637420696e7374616e63652068617320616c726561647920626581526020017f656e20696e697469616c697a656400000000000000000000000000000000000081525060400191505060405180910390fd5b600060019054906101000a900460ff1690506001600060016101000a81548160ff02191690831515021790555060016000806101000a81548160ff02191690831515021790555061029d8261038b565b80600060016101000a81548160ff0219169083151502179055505050565b6102c4336104da565b565b6102cf3361015f565b15156102da57600080fd5b6102e381610534565b50565b60008073ffffffffffffffffffffffffffffffffffffffff168273ffffffffffffffffffffffffffffffffffffffff161415151561032357600080fd5b8260000160008373ffffffffffffffffffffffffffffffffffffffff1673ffffffffffffffffffffffffffffffffffffffff16815260200190815260200160002060009054906101000a900460ff16905092915050565b600080303b90506000811491505090565b60008060019054906101000a900460ff16806103ab57506103aa61037a565b5b806103c257506000809054906101000a900460ff16155b151561045c576040517f08c379a000000000000000000000000000000000000000000000000000000000815260040180806020018281038252602e8152602001807f436f6e747261637420696e7374616e63652068617320616c726561647920626581526020017f656e20696e697469616c697a656400000000000000000000000000000000000081525060400191505060405180910390fd5b600060019054906101000a900460ff1690506001600060016101000a81548160ff02191690831515021790555060016000806101000a81548160ff0219169083151502179055506104ac8261015f565b15156104bc576104bb82610534565b5b80600060016101000a81548160ff0219169083151502179055505050565b6104ee81603361058e90919063ffffffff16565b8073ffffffffffffffffffffffffffffffffffffffff167f3525e22824a8a7df2c9a6029941c824cf95b6447f1e13d5128fd3826d35afe8b60405160405180910390a250565b61054881603361062890919063ffffffff16565b8073ffffffffffffffffffffffffffffffffffffffff167f47d1c22a25bb3a5d4e481b9b1e6944c2eade3181a0a20b495ed61d35b5323f2460405160405180910390a250565b600073ffffffffffffffffffffffffffffffffffffffff168173ffffffffffffffffffffffffffffffffffffffff16141515156105ca57600080fd5b60008260000160008373ffffffffffffffffffffffffffffffffffffffff1673ffffffffffffffffffffffffffffffffffffffff16815260200190815260200160002060006101000a81548160ff0219169083151502179055505050565b600073ffffffffffffffffffffffffffffffffffffffff168173ffffffffffffffffffffffffffffffffffffffff161415151561066457600080fd5b60018260000160008373ffffffffffffffffffffffffffffffffffffffff1673ffffffffffffffffffffffffffffffffffffffff16815260200190815260200160002060006101000a81548160ff02191690831515021790555050505600a165627a7a72305820052398c0c32a784fddcade8ee73496648297205e548df2e955079e9178511f370029",
  "source": "pragma solidity ^0.4.24;\n\nimport \"zos-lib/contracts/Initializable.sol\";\nimport \"../access/roles/SignerRole.sol\";\nimport \"../cryptography/ECDSA.sol\";\n\n\n/**\n * @title SignatureBouncer\n * @author PhABC, Shrugs and aflesher\n * @dev SignatureBouncer allows users to submit a signature as a permission to do an action.\n * If the signature is from one of the authorized signer addresses, the signature\n * is valid.\n * Signer addresses can be individual servers signing grants or different\n * users within a decentralized club that have permission to invite other members.\n * This technique is useful for whitelists and airdrops; instead of putting all\n * valid addresses on-chain, simply sign a grant of the form\n * keccak256(abi.encodePacked(`:contractAddress` + `:granteeAddress`)) using a valid signer address.\n * Then restrict access to your crowdsale/whitelist/airdrop using the\n * `onlyValidSignature` modifier (or implement your own using _isValidSignature).\n * In addition to `onlyValidSignature`, `onlyValidSignatureAndMethod` and\n * `onlyValidSignatureAndData` can be used to restrict access to only a given method\n * or a given method with given parameters respectively.\n * See the tests in SignatureBouncer.test.js for specific usage examples.\n * @notice A method that uses the `onlyValidSignatureAndData` modifier must make the _signature\n * parameter the \"last\" parameter. You cannot sign a message that has its own\n * signature in it so the last 128 bytes of msg.data (which represents the\n * length of the _signature data and the _signaature data itself) is ignored when validating.\n * Also non fixed sized parameters make constructing the data in the signature\n * much more complex. See https://ethereum.stackexchange.com/a/50616 for more details.\n */\ncontract SignatureBouncer is Initializable, SignerRole {\n  using ECDSA for bytes32;\n\n  // Function selectors are 4 bytes long, as documented in\n  // https://solidity.readthedocs.io/en/v0.4.24/abi-spec.html#function-selector\n  uint256 private constant _METHOD_ID_SIZE = 4;\n  // Signature size is 65 bytes (tightly packed v + r + s), but gets padded to 96 bytes\n  uint256 private constant _SIGNATURE_SIZE = 96;\n\n  /**\n   * @dev requires that a valid signature of a signer was provided\n   */\n  modifier onlyValidSignature(bytes signature)\n  {\n    require(_isValidSignature(msg.sender, signature));\n    _;\n  }\n\n  /**\n   * @dev requires that a valid signature with a specifed method of a signer was provided\n   */\n  modifier onlyValidSignatureAndMethod(bytes signature)\n  {\n    require(_isValidSignatureAndMethod(msg.sender, signature));\n    _;\n  }\n\n  /**\n   * @dev requires that a valid signature with a specifed method and params of a signer was provided\n   */\n  modifier onlyValidSignatureAndData(bytes signature)\n  {\n    require(_isValidSignatureAndData(msg.sender, signature));\n    _;\n  }\n\n  function initialize(address sender) public initializer {\n    SignerRole.initialize(sender);\n  }\n\n  /**\n   * @dev is the signature of `this + sender` from a signer?\n   * @return bool\n   */\n  function _isValidSignature(address account, bytes signature)\n    internal\n    view\n    returns (bool)\n  {\n    return _isValidDataHash(\n      keccak256(abi.encodePacked(address(this), account)),\n      signature\n    );\n  }\n\n  /**\n   * @dev is the signature of `this + sender + methodId` from a signer?\n   * @return bool\n   */\n  function _isValidSignatureAndMethod(address account, bytes signature)\n    internal\n    view\n    returns (bool)\n  {\n    bytes memory data = new bytes(_METHOD_ID_SIZE);\n    for (uint i = 0; i < data.length; i++) {\n      data[i] = msg.data[i];\n    }\n    return _isValidDataHash(\n      keccak256(abi.encodePacked(address(this), account, data)),\n      signature\n    );\n  }\n\n  /**\n    * @dev is the signature of `this + sender + methodId + params(s)` from a signer?\n    * @notice the signature parameter of the method being validated must be the \"last\" parameter\n    * @return bool\n    */\n  function _isValidSignatureAndData(address account, bytes signature)\n    internal\n    view\n    returns (bool)\n  {\n    require(msg.data.length > _SIGNATURE_SIZE);\n    bytes memory data = new bytes(msg.data.length - _SIGNATURE_SIZE);\n    for (uint i = 0; i < data.length; i++) {\n      data[i] = msg.data[i];\n    }\n    return _isValidDataHash(\n      keccak256(abi.encodePacked(address(this), account, data)),\n      signature\n    );\n  }\n\n  /**\n   * @dev internal function to convert a hash to an eth signed message\n   * and then recover the signature and check it against the signer role\n   * @return bool\n   */\n  function _isValidDataHash(bytes32 hash, bytes signature)\n    internal\n    view\n    returns (bool)\n  {\n    address signer = hash\n      .toEthSignedMessageHash()\n      .recover(signature);\n\n    return signer != address(0) && isSigner(signer);\n  }\n\n  uint256[50] private ______gap;\n}\n",
  "sourcePath": "/Users/jretina/Programming/PROPSProject/props-token-distribution/contracts/token/openzeppelin-eth/contracts/drafts/SignatureBouncer.sol",
  "compiler": {
    "name": "solc",
    "version": "0.4.24+commit.e67f0147.Emscripten.clang"
  },
  "schemaVersion": "2.0.1",
  "updatedAt": "2019-05-26T13:48:35.796Z"
}