{
  "contractName": "SignerRole",
  "abi": [
    {
      "anonymous": false,
      "inputs": [
        {
          "indexed": true,
          "name": "account",
          "type": "address"
        }
      ],
      "name": "SignerAdded",
      "type": "event"
    },
    {
      "anonymous": false,
      "inputs": [
        {
          "indexed": true,
          "name": "account",
          "type": "address"
        }
      ],
      "name": "SignerRemoved",
      "type": "event"
    },
    {
      "constant": false,
      "inputs": [
        {
          "name": "sender",
          "type": "address"
        }
      ],
      "name": "initialize",
      "outputs": [],
      "payable": false,
      "stateMutability": "nonpayable",
      "type": "function"
    },
    {
      "constant": true,
      "inputs": [
        {
          "name": "account",
          "type": "address"
        }
      ],
      "name": "isSigner",
      "outputs": [
        {
          "name": "",
          "type": "bool"
        }
      ],
      "payable": false,
      "stateMutability": "view",
      "type": "function"
    },
    {
      "constant": false,
      "inputs": [
        {
          "name": "account",
          "type": "address"
        }
      ],
      "name": "addSigner",
      "outputs": [],
      "payable": false,
      "stateMutability": "nonpayable",
      "type": "function"
    },
    {
      "constant": false,
      "inputs": [],
      "name": "renounceSigner",
      "outputs": [],
      "payable": false,
      "stateMutability": "nonpayable",
      "type": "function"
    }
  ],
  "bytecode": "0x608060405234801561001057600080fd5b506105af806100206000396000f300608060405260043610610062576000357c0100000000000000000000000000000000000000000000000000000000900463ffffffff1680637df73e2714610067578063c4d66de8146100c2578063e5c8b03d14610105578063eb12d61e1461011c575b600080fd5b34801561007357600080fd5b506100a8600480360381019080803573ffffffffffffffffffffffffffffffffffffffff16906020019092919050505061015f565b604051808215151515815260200191505060405180910390f35b3480156100ce57600080fd5b50610103600480360381019080803573ffffffffffffffffffffffffffffffffffffffff16906020019092919050505061017c565b005b34801561011157600080fd5b5061011a6102cb565b005b34801561012857600080fd5b5061015d600480360381019080803573ffffffffffffffffffffffffffffffffffffffff1690602001909291905050506102d6565b005b60006101758260336102f690919063ffffffff16565b9050919050565b60008060019054906101000a900460ff168061019c575061019b61038a565b5b806101b357506000809054906101000a900460ff16155b151561024d576040517f08c379a000000000000000000000000000000000000000000000000000000000815260040180806020018281038252602e8152602001807f436f6e747261637420696e7374616e63652068617320616c726561647920626581526020017f656e20696e697469616c697a656400000000000000000000000000000000000081525060400191505060405180910390fd5b600060019054906101000a900460ff1690506001600060016101000a81548160ff02191690831515021790555060016000806101000a81548160ff02191690831515021790555061029d8261015f565b15156102ad576102ac8261039b565b5b80600060016101000a81548160ff0219169083151502179055505050565b6102d4336103f5565b565b6102df3361015f565b15156102ea57600080fd5b6102f38161039b565b50565b60008073ffffffffffffffffffffffffffffffffffffffff168273ffffffffffffffffffffffffffffffffffffffff161415151561033357600080fd5b8260000160008373ffffffffffffffffffffffffffffffffffffffff1673ffffffffffffffffffffffffffffffffffffffff16815260200190815260200160002060009054906101000a900460ff16905092915050565b600080303b90506000811491505090565b6103af81603361044f90919063ffffffff16565b8073ffffffffffffffffffffffffffffffffffffffff167f47d1c22a25bb3a5d4e481b9b1e6944c2eade3181a0a20b495ed61d35b5323f2460405160405180910390a250565b6104098160336104e990919063ffffffff16565b8073ffffffffffffffffffffffffffffffffffffffff167f3525e22824a8a7df2c9a6029941c824cf95b6447f1e13d5128fd3826d35afe8b60405160405180910390a250565b600073ffffffffffffffffffffffffffffffffffffffff168173ffffffffffffffffffffffffffffffffffffffff161415151561048b57600080fd5b60018260000160008373ffffffffffffffffffffffffffffffffffffffff1673ffffffffffffffffffffffffffffffffffffffff16815260200190815260200160002060006101000a81548160ff0219169083151502179055505050565b600073ffffffffffffffffffffffffffffffffffffffff168173ffffffffffffffffffffffffffffffffffffffff161415151561052557600080fd5b60008260000160008373ffffffffffffffffffffffffffffffffffffffff1673ffffffffffffffffffffffffffffffffffffffff16815260200190815260200160002060006101000a81548160ff02191690831515021790555050505600a165627a7a72305820a4fdfe42e62cd329187e16a78744f2d2fd06ba77de74cd70cea80f12e8681d930029",
  "source": "pragma solidity ^0.4.24;\n\nimport \"zos-lib/contracts/Initializable.sol\";\nimport \"../Roles.sol\";\n\n\ncontract SignerRole is Initializable {\n  using Roles for Roles.Role;\n\n  event SignerAdded(address indexed account);\n  event SignerRemoved(address indexed account);\n\n  Roles.Role private signers;\n\n  function initialize(address sender) public initializer {\n    if (!isSigner(sender)) {\n      _addSigner(sender);\n    }\n  }\n\n  modifier onlySigner() {\n    require(isSigner(msg.sender));\n    _;\n  }\n\n  function isSigner(address account) public view returns (bool) {\n    return signers.has(account);\n  }\n\n  function addSigner(address account) public onlySigner {\n    _addSigner(account);\n  }\n\n  function renounceSigner() public {\n    _removeSigner(msg.sender);\n  }\n\n  function _addSigner(address account) internal {\n    signers.add(account);\n    emit SignerAdded(account);\n  }\n\n  function _removeSigner(address account) internal {\n    signers.remove(account);\n    emit SignerRemoved(account);\n  }\n\n  uint256[50] private ______gap;\n}\n",
  "sourcePath": "/Users/jretina/Programming/PROPSProject/props-token-distribution/contracts/token/openzeppelin-eth/contracts/access/roles/SignerRole.sol",
  "compiler": {
    "name": "solc",
    "version": "0.4.24+commit.e67f0147.Emscripten.clang"
  },
  "schemaVersion": "2.0.1",
  "updatedAt": "2019-05-08T08:10:58.648Z"
}