{
  "contractName": "SplitPayment",
  "abi": [
    {
      "payable": true,
      "stateMutability": "payable",
      "type": "fallback"
    },
    {
      "constant": false,
      "inputs": [
        {
          "name": "payees",
          "type": "address[]"
        },
        {
          "name": "shares",
          "type": "uint256[]"
        }
      ],
      "name": "initialize",
      "outputs": [],
      "payable": true,
      "stateMutability": "payable",
      "type": "function"
    },
    {
      "constant": true,
      "inputs": [],
      "name": "totalShares",
      "outputs": [
        {
          "name": "",
          "type": "uint256"
        }
      ],
      "payable": false,
      "stateMutability": "view",
      "type": "function"
    },
    {
      "constant": true,
      "inputs": [],
      "name": "totalReleased",
      "outputs": [
        {
          "name": "",
          "type": "uint256"
        }
      ],
      "payable": false,
      "stateMutability": "view",
      "type": "function"
    },
    {
      "constant": true,
      "inputs": [
        {
          "name": "account",
          "type": "address"
        }
      ],
      "name": "shares",
      "outputs": [
        {
          "name": "",
          "type": "uint256"
        }
      ],
      "payable": false,
      "stateMutability": "view",
      "type": "function"
    },
    {
      "constant": true,
      "inputs": [
        {
          "name": "account",
          "type": "address"
        }
      ],
      "name": "released",
      "outputs": [
        {
          "name": "",
          "type": "uint256"
        }
      ],
      "payable": false,
      "stateMutability": "view",
      "type": "function"
    },
    {
      "constant": true,
      "inputs": [
        {
          "name": "index",
          "type": "uint256"
        }
      ],
      "name": "payee",
      "outputs": [
        {
          "name": "",
          "type": "address"
        }
      ],
      "payable": false,
      "stateMutability": "view",
      "type": "function"
    },
    {
      "constant": false,
      "inputs": [
        {
          "name": "account",
          "type": "address"
        }
      ],
      "name": "release",
      "outputs": [],
      "payable": false,
      "stateMutability": "nonpayable",
      "type": "function"
    }
  ],
  "bytecode": "0x608060405234801561001057600080fd5b506109f8806100206000396000f300608060405260043610610083576000357c0100000000000000000000000000000000000000000000000000000000900463ffffffff16806319165587146100855780633a98ef39146100c85780637fbbe46f146100f35780638b83209b1461018f5780639852595c146101fc578063ce7c2ac214610253578063e33b7de3146102aa575b005b34801561009157600080fd5b506100c6600480360381019080803573ffffffffffffffffffffffffffffffffffffffff1690602001909291905050506102d5565b005b3480156100d457600080fd5b506100dd610519565b6040518082815260200191505060405180910390f35b61018d6004803603810190808035906020019082018035906020019080806020026020016040519081016040528093929190818152602001838360200280828437820191505050505050919291929080359060200190820180359060200190808060200260200160405190810160405280939291908181526020018383602002808284378201915050505050509192919290505050610523565b005b34801561019b57600080fd5b506101ba600480360381019080803590602001909291905050506106d0565b604051808273ffffffffffffffffffffffffffffffffffffffff1673ffffffffffffffffffffffffffffffffffffffff16815260200191505060405180910390f35b34801561020857600080fd5b5061023d600480360381019080803573ffffffffffffffffffffffffffffffffffffffff169060200190929190505050610713565b6040518082815260200191505060405180910390f35b34801561025f57600080fd5b50610294600480360381019080803573ffffffffffffffffffffffffffffffffffffffff16906020019092919050505061075c565b6040518082815260200191505060405180910390f35b3480156102b657600080fd5b506102bf6107a5565b6040518082815260200191505060405180910390f35b6000806000603560008573ffffffffffffffffffffffffffffffffffffffff1673ffffffffffffffffffffffffffffffffffffffff1681526020019081526020016000205411151561032657600080fd5b6103526034543073ffffffffffffffffffffffffffffffffffffffff16316107af90919063ffffffff16565b915061040b603660008573ffffffffffffffffffffffffffffffffffffffff1673ffffffffffffffffffffffffffffffffffffffff168152602001908152602001600020546103fd6033546103ef603560008973ffffffffffffffffffffffffffffffffffffffff1673ffffffffffffffffffffffffffffffffffffffff16815260200190815260200160002054876107d090919063ffffffff16565b61080e90919063ffffffff16565b61083890919063ffffffff16565b90506000811415151561041d57600080fd5b61046f81603660008673ffffffffffffffffffffffffffffffffffffffff1673ffffffffffffffffffffffffffffffffffffffff168152602001908152602001600020546107af90919063ffffffff16565b603660008573ffffffffffffffffffffffffffffffffffffffff1673ffffffffffffffffffffffffffffffffffffffff168152602001908152602001600020819055506104c7816034546107af90919063ffffffff16565b6034819055508273ffffffffffffffffffffffffffffffffffffffff166108fc829081150290604051600060405180830381858888f19350505050158015610513573d6000803e3d6000fd5b50505050565b6000603354905090565b600080600060019054906101000a900460ff16806105455750610544610859565b5b8061055c57506000809054906101000a900460ff16155b15156105f6576040517f08c379a000000000000000000000000000000000000000000000000000000000815260040180806020018281038252602e8152602001807f436f6e747261637420696e7374616e63652068617320616c726561647920626581526020017f656e20696e697469616c697a656400000000000000000000000000000000000081525060400191505060405180910390fd5b600060019054906101000a900460ff1690506001600060016101000a81548160ff02191690831515021790555060016000806101000a81548160ff0219169083151502179055508251845114151561064d57600080fd5b6000845111151561065d57600080fd5b600091505b83518210156106b0576106a3848381518110151561067c57fe5b90602001906020020151848481518110151561069457fe5b9060200190602002015161086a565b8180600101925050610662565b80600060016101000a81548160ff02191690831515021790555050505050565b60006037828154811015156106e157fe5b9060005260206000200160009054906101000a900473ffffffffffffffffffffffffffffffffffffffff169050919050565b6000603660008373ffffffffffffffffffffffffffffffffffffffff1673ffffffffffffffffffffffffffffffffffffffff168152602001908152602001600020549050919050565b6000603560008373ffffffffffffffffffffffffffffffffffffffff1673ffffffffffffffffffffffffffffffffffffffff168152602001908152602001600020549050919050565b6000603454905090565b60008082840190508381101515156107c657600080fd5b8091505092915050565b60008060008414156107e55760009150610807565b82840290508284828115156107f657fe5b0414151561080357600080fd5b8091505b5092915050565b60008060008311151561082057600080fd5b828481151561082b57fe5b0490508091505092915050565b60008083831115151561084a57600080fd5b82840390508091505092915050565b600080303b90506000811491505090565b600073ffffffffffffffffffffffffffffffffffffffff168273ffffffffffffffffffffffffffffffffffffffff16141515156108a657600080fd5b6000811115156108b557600080fd5b6000603560008473ffffffffffffffffffffffffffffffffffffffff1673ffffffffffffffffffffffffffffffffffffffff1681526020019081526020016000205414151561090357600080fd5b60378290806001815401808255809150509060018203906000526020600020016000909192909190916101000a81548173ffffffffffffffffffffffffffffffffffffffff021916908373ffffffffffffffffffffffffffffffffffffffff1602179055505080603560008473ffffffffffffffffffffffffffffffffffffffff1673ffffffffffffffffffffffffffffffffffffffff168152602001908152602001600020819055506109c2816033546107af90919063ffffffff16565b60338190555050505600a165627a7a723058209fb9bd55217c35139aa3597be1b9955eef90663f660c42a4c40f0d61dcb14f620029",
  "source": "pragma solidity ^0.4.24;\n\nimport \"zos-lib/contracts/Initializable.sol\";\nimport \"../math/SafeMath.sol\";\n\n\n/**\n * @title SplitPayment\n * @dev This contract can be used when payments need to be received by a group\n * of people and split proportionately to some number of shares they own.\n */\ncontract SplitPayment is Initializable {\n  using SafeMath for uint256;\n\n  uint256 private _totalShares;\n  uint256 private _totalReleased;\n\n  mapping(address => uint256) private _shares;\n  mapping(address => uint256) private _released;\n  address[] private _payees;\n\n  /**\n   * @dev Constructor\n   */\n  function initialize(address[] payees, uint256[] shares) public payable initializer {\n    require(payees.length == shares.length);\n    require(payees.length > 0);\n\n    for (uint256 i = 0; i < payees.length; i++) {\n      _addPayee(payees[i], shares[i]);\n    }\n  }\n\n  /**\n   * @dev payable fallback\n   */\n  function () external payable {}\n\n  /**\n   * @return the total shares of the contract.\n   */\n  function totalShares() public view returns(uint256) {\n    return _totalShares;\n  }\n\n  /**\n   * @return the total amount already released.\n   */\n  function totalReleased() public view returns(uint256) {\n    return _totalReleased;\n  }\n\n  /**\n   * @return the shares of an account.\n   */\n  function shares(address account) public view returns(uint256) {\n    return _shares[account];\n  }\n\n  /**\n   * @return the amount already released to an account.\n   */\n  function released(address account) public view returns(uint256) {\n    return _released[account];\n  }\n\n  /**\n   * @return the address of a payee.\n   */\n  function payee(uint256 index) public view returns(address) {\n    return _payees[index];\n  }\n\n  /**\n   * @dev Release one of the payee's proportional payment.\n   * @param account Whose payments will be released.\n   */\n  function release(address account) public {\n    require(_shares[account] > 0);\n\n    uint256 totalReceived = address(this).balance.add(_totalReleased);\n    uint256 payment = totalReceived.mul(\n      _shares[account]).div(\n        _totalShares).sub(\n          _released[account]\n    );\n\n    require(payment != 0);\n\n    _released[account] = _released[account].add(payment);\n    _totalReleased = _totalReleased.add(payment);\n\n    account.transfer(payment);\n  }\n\n  /**\n   * @dev Add a new payee to the contract.\n   * @param account The address of the payee to add.\n   * @param shares_ The number of shares owned by the payee.\n   */\n  function _addPayee(address account, uint256 shares_) internal {\n    require(account != address(0));\n    require(shares_ > 0);\n    require(_shares[account] == 0);\n\n    _payees.push(account);\n    _shares[account] = shares_;\n    _totalShares = _totalShares.add(shares_);\n  }\n\n  uint256[50] private ______gap;\n}\n",
  "sourcePath": "/Users/jretina/Programming/PROPSProject/props-token-distribution/contracts/token/openzeppelin-eth/contracts/payment/SplitPayment.sol",
  "compiler": {
    "name": "solc",
    "version": "0.4.24+commit.e67f0147.Emscripten.clang"
  },
  "schemaVersion": "2.0.1",
  "updatedAt": "2019-04-29T09:04:37.354Z"
}