{
  "contractName": "TimedCrowdsale",
  "abi": [
    {
      "constant": true,
      "inputs": [],
      "name": "rate",
      "outputs": [
        {
          "name": "",
          "type": "uint256"
        }
      ],
      "payable": false,
      "stateMutability": "view",
      "type": "function"
    },
    {
      "constant": true,
      "inputs": [],
      "name": "weiRaised",
      "outputs": [
        {
          "name": "",
          "type": "uint256"
        }
      ],
      "payable": false,
      "stateMutability": "view",
      "type": "function"
    },
    {
      "constant": true,
      "inputs": [],
      "name": "wallet",
      "outputs": [
        {
          "name": "",
          "type": "address"
        }
      ],
      "payable": false,
      "stateMutability": "view",
      "type": "function"
    },
    {
      "constant": false,
      "inputs": [
        {
          "name": "beneficiary",
          "type": "address"
        }
      ],
      "name": "buyTokens",
      "outputs": [],
      "payable": true,
      "stateMutability": "payable",
      "type": "function"
    },
    {
      "constant": true,
      "inputs": [],
      "name": "token",
      "outputs": [
        {
          "name": "",
          "type": "address"
        }
      ],
      "payable": false,
      "stateMutability": "view",
      "type": "function"
    },
    {
      "payable": true,
      "stateMutability": "payable",
      "type": "fallback"
    },
    {
      "anonymous": false,
      "inputs": [
        {
          "indexed": true,
          "name": "purchaser",
          "type": "address"
        },
        {
          "indexed": true,
          "name": "beneficiary",
          "type": "address"
        },
        {
          "indexed": false,
          "name": "value",
          "type": "uint256"
        },
        {
          "indexed": false,
          "name": "amount",
          "type": "uint256"
        }
      ],
      "name": "TokensPurchased",
      "type": "event"
    },
    {
      "constant": false,
      "inputs": [
        {
          "name": "rate",
          "type": "uint256"
        },
        {
          "name": "wallet",
          "type": "address"
        },
        {
          "name": "token",
          "type": "address"
        }
      ],
      "name": "initialize",
      "outputs": [],
      "payable": false,
      "stateMutability": "nonpayable",
      "type": "function"
    },
    {
      "constant": false,
      "inputs": [
        {
          "name": "openingTime",
          "type": "uint256"
        },
        {
          "name": "closingTime",
          "type": "uint256"
        }
      ],
      "name": "initialize",
      "outputs": [],
      "payable": false,
      "stateMutability": "nonpayable",
      "type": "function"
    },
    {
      "constant": true,
      "inputs": [],
      "name": "openingTime",
      "outputs": [
        {
          "name": "",
          "type": "uint256"
        }
      ],
      "payable": false,
      "stateMutability": "view",
      "type": "function"
    },
    {
      "constant": true,
      "inputs": [],
      "name": "closingTime",
      "outputs": [
        {
          "name": "",
          "type": "uint256"
        }
      ],
      "payable": false,
      "stateMutability": "view",
      "type": "function"
    },
    {
      "constant": true,
      "inputs": [],
      "name": "isOpen",
      "outputs": [
        {
          "name": "",
          "type": "bool"
        }
      ],
      "payable": false,
      "stateMutability": "view",
      "type": "function"
    },
    {
      "constant": true,
      "inputs": [],
      "name": "hasClosed",
      "outputs": [
        {
          "name": "",
          "type": "bool"
        }
      ],
      "payable": false,
      "stateMutability": "view",
      "type": "function"
    }
  ],
  "bytecode": "0x608060405234801561001057600080fd5b50610c25806100206000396000f3006080604052600436106100af576000357c0100000000000000000000000000000000000000000000000000000000900463ffffffff1680631515bc2b146100ba5780632c4e722e146100e95780634042b66f1461011457806347535d7b1461013f5780634b6753bc1461016e578063521eb27314610199578063b4988fd0146101f0578063b7a8807c1461025d578063e4a3011614610288578063ec8ac4d8146102bf578063fc0c546a146102f5575b6100b83361034c565b005b3480156100c657600080fd5b506100cf61041a565b604051808215151515815260200191505060405180910390f35b3480156100f557600080fd5b506100fe610426565b6040518082815260200191505060405180910390f35b34801561012057600080fd5b50610129610430565b6040518082815260200191505060405180910390f35b34801561014b57600080fd5b5061015461043a565b604051808215151515815260200191505060405180910390f35b34801561017a57600080fd5b50610183610455565b6040518082815260200191505060405180910390f35b3480156101a557600080fd5b506101ae61045f565b604051808273ffffffffffffffffffffffffffffffffffffffff1673ffffffffffffffffffffffffffffffffffffffff16815260200191505060405180910390f35b3480156101fc57600080fd5b5061025b60048036038101908080359060200190929190803573ffffffffffffffffffffffffffffffffffffffff169060200190929190803573ffffffffffffffffffffffffffffffffffffffff169060200190929190505050610489565b005b34801561026957600080fd5b506102726106d1565b6040518082815260200191505060405180910390f35b34801561029457600080fd5b506102bd60048036038101908080359060200190929190803590602001909291905050506106db565b005b6102f3600480360381019080803573ffffffffffffffffffffffffffffffffffffffff16906020019092919050505061034c565b005b34801561030157600080fd5b5061030a61084e565b604051808273ffffffffffffffffffffffffffffffffffffffff1673ffffffffffffffffffffffffffffffffffffffff16815260200191505060405180910390f35b60008034915061035c8383610878565b61036582610899565b905061037c826036546108b790919063ffffffff16565b60368190555061038c83826108d8565b8273ffffffffffffffffffffffffffffffffffffffff163373ffffffffffffffffffffffffffffffffffffffff167f6faf93231a456e552dbc9961f58d9713ee4f2e69d15f1975b050ef0911053a7b8484604051808381526020018281526020019250505060405180910390a361040383836108e6565b61040b6108ea565b6104158383610955565b505050565b6000606a544211905090565b6000603554905090565b6000603654905090565b600060695442101580156104505750606a544211155b905090565b6000606a54905090565b6000603460009054906101000a900473ffffffffffffffffffffffffffffffffffffffff16905090565b60008060019054906101000a900460ff16806104a957506104a8610959565b5b806104c057506000809054906101000a900460ff16155b151561055a576040517f08c379a000000000000000000000000000000000000000000000000000000000815260040180806020018281038252602e8152602001807f436f6e747261637420696e7374616e63652068617320616c726561647920626581526020017f656e20696e697469616c697a656400000000000000000000000000000000000081525060400191505060405180910390fd5b600060019054906101000a900460ff1690506001600060016101000a81548160ff02191690831515021790555060016000806101000a81548160ff0219169083151502179055506000841115156105b057600080fd5b600073ffffffffffffffffffffffffffffffffffffffff168373ffffffffffffffffffffffffffffffffffffffff16141515156105ec57600080fd5b600073ffffffffffffffffffffffffffffffffffffffff168273ffffffffffffffffffffffffffffffffffffffff161415151561062857600080fd5b8360358190555082603460006101000a81548173ffffffffffffffffffffffffffffffffffffffff021916908373ffffffffffffffffffffffffffffffffffffffff16021790555081603360006101000a81548173ffffffffffffffffffffffffffffffffffffffff021916908373ffffffffffffffffffffffffffffffffffffffff16021790555080600060016101000a81548160ff02191690831515021790555050505050565b6000606954905090565b60008060019054906101000a900460ff16806106fb57506106fa610959565b5b8061071257506000809054906101000a900460ff16155b15156107ac576040517f08c379a000000000000000000000000000000000000000000000000000000000815260040180806020018281038252602e8152602001807f436f6e747261637420696e7374616e63652068617320616c726561647920626581526020017f656e20696e697469616c697a656400000000000000000000000000000000000081525060400191505060405180910390fd5b600060019054906101000a900460ff1690506001600060016101000a81548160ff02191690831515021790555060016000806101000a81548160ff0219169083151502179055506107fb61096a565b151561080357fe5b42831015151561081257600080fd5b82821015151561082157600080fd5b8260698190555081606a8190555080600060016101000a81548160ff021916908315150217905550505050565b6000603360009054906101000a900473ffffffffffffffffffffffffffffffffffffffff16905090565b61088061043a565b151561088b57600080fd5b6108958282610a2c565b5050565b60006108b060355483610a7c90919063ffffffff16565b9050919050565b60008082840190508381101515156108ce57600080fd5b8091505092915050565b6108e28282610aba565b5050565b5050565b603460009054906101000a900473ffffffffffffffffffffffffffffffffffffffff1673ffffffffffffffffffffffffffffffffffffffff166108fc349081150290604051600060405180830381858888f19350505050158015610952573d6000803e3d6000fd5b50565b5050565b600080303b90506000811491505090565b6000806035541180156109cc5750600073ffffffffffffffffffffffffffffffffffffffff16603460009054906101000a900473ffffffffffffffffffffffffffffffffffffffff1673ffffffffffffffffffffffffffffffffffffffff1614155b8015610a275750600073ffffffffffffffffffffffffffffffffffffffff16603360009054906101000a900473ffffffffffffffffffffffffffffffffffffffff1673ffffffffffffffffffffffffffffffffffffffff1614155b905090565b600073ffffffffffffffffffffffffffffffffffffffff168273ffffffffffffffffffffffffffffffffffffffff1614151515610a6857600080fd5b60008114151515610a7857600080fd5b5050565b6000806000841415610a915760009150610ab3565b8284029050828482811515610aa257fe5b04141515610aaf57600080fd5b8091505b5092915050565b610b078282603360009054906101000a900473ffffffffffffffffffffffffffffffffffffffff1673ffffffffffffffffffffffffffffffffffffffff16610b0b9092919063ffffffff16565b5050565b8273ffffffffffffffffffffffffffffffffffffffff1663a9059cbb83836040518363ffffffff167c0100000000000000000000000000000000000000000000000000000000028152600401808373ffffffffffffffffffffffffffffffffffffffff1673ffffffffffffffffffffffffffffffffffffffff16815260200182815260200192505050602060405180830381600087803b158015610bae57600080fd5b505af1158015610bc2573d6000803e3d6000fd5b505050506040513d6020811015610bd857600080fd5b81019080805190602001909291905050501515610bf457600080fd5b5050505600a165627a7a723058209f0a90d03cfb56115b3ab1d790f6bf358cae0c68c644087e200381f47e300a140029",
  "source": "pragma solidity ^0.4.24;\n\nimport \"zos-lib/contracts/Initializable.sol\";\nimport \"../../math/SafeMath.sol\";\nimport \"../Crowdsale.sol\";\n\n\n/**\n * @title TimedCrowdsale\n * @dev Crowdsale accepting contributions only within a time frame.\n */\ncontract TimedCrowdsale is Initializable, Crowdsale {\n  using SafeMath for uint256;\n\n  uint256 private _openingTime;\n  uint256 private _closingTime;\n\n  /**\n   * @dev Reverts if not in crowdsale time range.\n   */\n  modifier onlyWhileOpen {\n    require(isOpen());\n    _;\n  }\n\n  /**\n   * @dev Constructor, takes crowdsale opening and closing times.\n   * @param openingTime Crowdsale opening time\n   * @param closingTime Crowdsale closing time\n   */\n  function initialize(uint256 openingTime, uint256 closingTime) public initializer {\n    assert(Crowdsale._hasBeenInitialized());\n\n    // solium-disable-next-line security/no-block-members\n    require(openingTime >= block.timestamp);\n    require(closingTime >= openingTime);\n\n    _openingTime = openingTime;\n    _closingTime = closingTime;\n  }\n\n  /**\n   * @return the crowdsale opening time.\n   */\n  function openingTime() public view returns(uint256) {\n    return _openingTime;\n  }\n\n  /**\n   * @return the crowdsale closing time.\n   */\n  function closingTime() public view returns(uint256) {\n    return _closingTime;\n  }\n\n  /**\n   * @return true if the crowdsale is open, false otherwise.\n   */\n  function isOpen() public view returns (bool) {\n    // solium-disable-next-line security/no-block-members\n    return block.timestamp >= _openingTime && block.timestamp <= _closingTime;\n  }\n\n  /**\n   * @dev Checks whether the period in which the crowdsale is open has already elapsed.\n   * @return Whether crowdsale period has elapsed\n   */\n  function hasClosed() public view returns (bool) {\n    // solium-disable-next-line security/no-block-members\n    return block.timestamp > _closingTime;\n  }\n\n  function _hasBeenInitialized() internal view returns (bool) {\n    return ((_openingTime > 0) && (_closingTime > 0));\n  }\n\n  /**\n   * @dev Extend parent behavior requiring to be within contributing period\n   * @param beneficiary Token purchaser\n   * @param weiAmount Amount of wei contributed\n   */\n  function _preValidatePurchase(\n    address beneficiary,\n    uint256 weiAmount\n  )\n    internal\n    onlyWhileOpen\n  {\n    super._preValidatePurchase(beneficiary, weiAmount);\n  }\n\n\n  uint256[50] private ______gap;\n}\n",
  "sourcePath": "/Users/jretina/Programming/PROPSProject/props-token-distribution/contracts/token/openzeppelin-eth/contracts/crowdsale/validation/TimedCrowdsale.sol",
  "compiler": {
    "name": "solc",
    "version": "0.4.24+commit.e67f0147.Emscripten.clang"
  },
  "schemaVersion": "2.0.1",
  "updatedAt": "2019-03-11T10:19:22.944Z"
}