{
  "contractName": "TokenDistributionCoordinator",
  "abi": [
    {
      "constant": true,
      "inputs": [],
      "name": "isCrowdsaleInjected",
      "outputs": [
        {
          "name": "",
          "type": "bool"
        }
      ],
      "payable": false,
      "stateMutability": "view",
      "type": "function"
    },
    {
      "constant": true,
      "inputs": [],
      "name": "isPreallocationForFoundationDone",
      "outputs": [
        {
          "name": "",
          "type": "bool"
        }
      ],
      "payable": false,
      "stateMutability": "view",
      "type": "function"
    },
    {
      "constant": false,
      "inputs": [],
      "name": "renounceOwnership",
      "outputs": [],
      "payable": false,
      "stateMutability": "nonpayable",
      "type": "function"
    },
    {
      "constant": true,
      "inputs": [],
      "name": "isTokenInjected",
      "outputs": [
        {
          "name": "",
          "type": "bool"
        }
      ],
      "payable": false,
      "stateMutability": "view",
      "type": "function"
    },
    {
      "constant": true,
      "inputs": [],
      "name": "owner",
      "outputs": [
        {
          "name": "",
          "type": "address"
        }
      ],
      "payable": false,
      "stateMutability": "view",
      "type": "function"
    },
    {
      "constant": true,
      "inputs": [],
      "name": "shareForEmployees",
      "outputs": [
        {
          "name": "",
          "type": "uint256"
        }
      ],
      "payable": false,
      "stateMutability": "view",
      "type": "function"
    },
    {
      "constant": true,
      "inputs": [],
      "name": "isPreallocationOpen",
      "outputs": [
        {
          "name": "",
          "type": "bool"
        }
      ],
      "payable": false,
      "stateMutability": "view",
      "type": "function"
    },
    {
      "constant": true,
      "inputs": [],
      "name": "isPreallocationForEmployeesDone",
      "outputs": [
        {
          "name": "",
          "type": "bool"
        }
      ],
      "payable": false,
      "stateMutability": "view",
      "type": "function"
    },
    {
      "constant": true,
      "inputs": [],
      "name": "shareForFoundation",
      "outputs": [
        {
          "name": "",
          "type": "uint256"
        }
      ],
      "payable": false,
      "stateMutability": "view",
      "type": "function"
    },
    {
      "constant": false,
      "inputs": [
        {
          "name": "_newOwner",
          "type": "address"
        }
      ],
      "name": "transferOwnership",
      "outputs": [],
      "payable": false,
      "stateMutability": "nonpayable",
      "type": "function"
    },
    {
      "constant": true,
      "inputs": [],
      "name": "token",
      "outputs": [
        {
          "name": "",
          "type": "address"
        }
      ],
      "payable": false,
      "stateMutability": "view",
      "type": "function"
    },
    {
      "anonymous": false,
      "inputs": [
        {
          "indexed": false,
          "name": "beneficiary",
          "type": "address"
        },
        {
          "indexed": false,
          "name": "amount",
          "type": "uint256"
        }
      ],
      "name": "CompanyAllocation",
      "type": "event"
    },
    {
      "anonymous": false,
      "inputs": [
        {
          "indexed": false,
          "name": "beneficiary",
          "type": "address"
        },
        {
          "indexed": false,
          "name": "amount",
          "type": "uint256"
        }
      ],
      "name": "FoundationAllocation",
      "type": "event"
    },
    {
      "anonymous": false,
      "inputs": [
        {
          "indexed": false,
          "name": "beneficiary",
          "type": "address"
        },
        {
          "indexed": false,
          "name": "amount",
          "type": "uint256"
        }
      ],
      "name": "PoolAllocation",
      "type": "event"
    },
    {
      "anonymous": false,
      "inputs": [
        {
          "indexed": false,
          "name": "beneficiary",
          "type": "address"
        },
        {
          "indexed": false,
          "name": "amount",
          "type": "uint256"
        },
        {
          "indexed": false,
          "name": "vestingContract",
          "type": "address"
        }
      ],
      "name": "SAFTAllocation",
      "type": "event"
    },
    {
      "anonymous": false,
      "inputs": [
        {
          "indexed": false,
          "name": "beneficiary",
          "type": "address"
        },
        {
          "indexed": false,
          "name": "amount",
          "type": "uint256"
        },
        {
          "indexed": false,
          "name": "vestingContract",
          "type": "address"
        }
      ],
      "name": "AdvisorAllocation",
      "type": "event"
    },
    {
      "anonymous": false,
      "inputs": [
        {
          "indexed": true,
          "name": "previousOwner",
          "type": "address"
        }
      ],
      "name": "OwnershipRenounced",
      "type": "event"
    },
    {
      "anonymous": false,
      "inputs": [
        {
          "indexed": true,
          "name": "previousOwner",
          "type": "address"
        },
        {
          "indexed": true,
          "name": "newOwner",
          "type": "address"
        }
      ],
      "name": "OwnershipTransferred",
      "type": "event"
    },
    {
      "constant": false,
      "inputs": [
        {
          "name": "_tokenAddress",
          "type": "address"
        }
      ],
      "name": "injectToken",
      "outputs": [],
      "payable": false,
      "stateMutability": "nonpayable",
      "type": "function"
    },
    {
      "constant": false,
      "inputs": [
        {
          "name": "poolAddress",
          "type": "address"
        }
      ],
      "name": "preallocateForEmployees",
      "outputs": [],
      "payable": false,
      "stateMutability": "nonpayable",
      "type": "function"
    },
    {
      "constant": false,
      "inputs": [
        {
          "name": "poolAddress",
          "type": "address"
        }
      ],
      "name": "preallocateForFoundation",
      "outputs": [],
      "payable": false,
      "stateMutability": "nonpayable",
      "type": "function"
    },
    {
      "constant": false,
      "inputs": [
        {
          "name": "_investor",
          "type": "address"
        },
        {
          "name": "_tokensVolume",
          "type": "uint256"
        },
        {
          "name": "_vestingDuration",
          "type": "uint64"
        },
        {
          "name": "_vestingCliff",
          "type": "uint64"
        },
        {
          "name": "_percentageToVest",
          "type": "uint64"
        }
      ],
      "name": "allocateTokensToCompany",
      "outputs": [],
      "payable": false,
      "stateMutability": "nonpayable",
      "type": "function"
    },
    {
      "constant": false,
      "inputs": [
        {
          "name": "_investor",
          "type": "address"
        },
        {
          "name": "_tokensVolume",
          "type": "uint256"
        },
        {
          "name": "_vestingDuration",
          "type": "uint64"
        },
        {
          "name": "_vestingCliff",
          "type": "uint64"
        },
        {
          "name": "_percentageToVest",
          "type": "uint64"
        }
      ],
      "name": "allocateTokensToFoundation",
      "outputs": [],
      "payable": false,
      "stateMutability": "nonpayable",
      "type": "function"
    },
    {
      "constant": false,
      "inputs": [
        {
          "name": "_investor",
          "type": "address"
        },
        {
          "name": "_tokensVolume",
          "type": "uint256"
        },
        {
          "name": "_vestingDuration",
          "type": "uint64"
        },
        {
          "name": "_vestingCliff",
          "type": "uint64"
        },
        {
          "name": "_percentageToVest",
          "type": "uint64"
        }
      ],
      "name": "allocateTokensToSAFTInvestor",
      "outputs": [],
      "payable": false,
      "stateMutability": "nonpayable",
      "type": "function"
    },
    {
      "constant": false,
      "inputs": [
        {
          "name": "_investor",
          "type": "address"
        },
        {
          "name": "_tokensVolume",
          "type": "uint256"
        },
        {
          "name": "_vestingDuration",
          "type": "uint64"
        },
        {
          "name": "_vestingCliff",
          "type": "uint64"
        },
        {
          "name": "_percentageToVest",
          "type": "uint64"
        }
      ],
      "name": "allocateTokensToAdvisor",
      "outputs": [],
      "payable": false,
      "stateMutability": "nonpayable",
      "type": "function"
    },
    {
      "constant": false,
      "inputs": [
        {
          "name": "_isWhitelistOnly",
          "type": "bool"
        }
      ],
      "name": "setWhitelistedOnly",
      "outputs": [],
      "payable": false,
      "stateMutability": "nonpayable",
      "type": "function"
    },
    {
      "constant": false,
      "inputs": [
        {
          "name": "_user",
          "type": "address"
        }
      ],
      "name": "whitelistUserForTransfers",
      "outputs": [],
      "payable": false,
      "stateMutability": "nonpayable",
      "type": "function"
    },
    {
      "constant": false,
      "inputs": [
        {
          "name": "_user",
          "type": "address"
        }
      ],
      "name": "blacklistUserForTransfers",
      "outputs": [],
      "payable": false,
      "stateMutability": "nonpayable",
      "type": "function"
    },
    {
      "constant": false,
      "inputs": [],
      "name": "unpauseToken",
      "outputs": [],
      "payable": false,
      "stateMutability": "nonpayable",
      "type": "function"
    },
    {
      "constant": false,
      "inputs": [],
      "name": "pauseToken",
      "outputs": [],
      "payable": false,
      "stateMutability": "nonpayable",
      "type": "function"
    },
    {
      "constant": false,
      "inputs": [],
      "name": "closeMinting",
      "outputs": [],
      "payable": false,
      "stateMutability": "nonpayable",
      "type": "function"
    },
    {
      "constant": false,
      "inputs": [],
      "name": "releaseToken",
      "outputs": [],
      "payable": false,
      "stateMutability": "nonpayable",
      "type": "function"
    }
  ],
  "bytecode": "0x60806040526000600160146101000a81548160ff0219169083151502179055506000600160156101000a81548160ff0219169083151502179055506000600160166101000a81548160ff0219169083151502179055506000600160176101000a81548160ff02191690831515021790555060018060186101000a81548160ff021916908315150217905550336000806101000a81548173ffffffffffffffffffffffffffffffffffffffff021916908373ffffffffffffffffffffffffffffffffffffffff16021790555061355b806100d96000396000f30060806040526004361062000163576000357c0100000000000000000000000000000000000000000000000000000000900463ffffffff1680630653d6641462000168578063260d387b14620001f45780632c349627146200023a5780634ef2b596146200025457806350669a0314620002865780635556689f14620002a0578063580b39d314620002e65780635c5905701462000318578063715018a614620003a457806387491c6014620003be578063899b7d0b14620003d857806389de63da146200040a5780638da5cb5b146200045057806397ac188214620004aa5780639816c81814620004d85780639f40f1a9146200050a578063a157696b1462000596578063a393cafd14620005c8578063b586791c14620005fa578063bff8f6cd1462000640578063c20d6a6e146200066e578063ec715a3114620006fa578063f2fde38b1462000714578063fb37baa1146200075a578063fc0c546a14620007a0575b600080fd5b3480156200017557600080fd5b50620001f2600480360381019080803573ffffffffffffffffffffffffffffffffffffffff16906020019092919080359060200190929190803567ffffffffffffffff169060200190929190803567ffffffffffffffff169060200190929190803567ffffffffffffffff169060200190929190505050620007fa565b005b3480156200020157600080fd5b5062000238600480360381019080803573ffffffffffffffffffffffffffffffffffffffff169060200190929190505050620008d8565b005b3480156200024757600080fd5b506200025262000a0e565b005b3480156200026157600080fd5b506200026c62000b0c565b604051808215151515815260200191505060405180910390f35b3480156200029357600080fd5b506200029e62000b1f565b005b348015620002ad57600080fd5b50620002e4600480360381019080803573ffffffffffffffffffffffffffffffffffffffff16906020019092919050505062000c1d565b005b348015620002f357600080fd5b50620002fe62000f37565b604051808215151515815260200191505060405180910390f35b3480156200032557600080fd5b50620003a2600480360381019080803573ffffffffffffffffffffffffffffffffffffffff16906020019092919080359060200190929190803567ffffffffffffffff169060200190929190803567ffffffffffffffff169060200190929190803567ffffffffffffffff16906020019092919050505062000f4a565b005b348015620003b157600080fd5b50620003bc62001060565b005b348015620003cb57600080fd5b50620003d662001163565b005b348015620003e557600080fd5b50620003f062001286565b604051808215151515815260200191505060405180910390f35b3480156200041757600080fd5b506200044e600480360381019080803573ffffffffffffffffffffffffffffffffffffffff16906020019092919050505062001299565b005b3480156200045d57600080fd5b50620004686200153b565b604051808273ffffffffffffffffffffffffffffffffffffffff1673ffffffffffffffffffffffffffffffffffffffff16815260200191505060405180910390f35b348015620004b757600080fd5b50620004c262001560565b6040518082815260200191505060405180910390f35b348015620004e557600080fd5b50620004f062001565565b604051808215151515815260200191505060405180910390f35b3480156200051757600080fd5b5062000594600480360381019080803573ffffffffffffffffffffffffffffffffffffffff16906020019092919080359060200190929190803567ffffffffffffffff169060200190929190803567ffffffffffffffff169060200190929190803567ffffffffffffffff16906020019092919050505062001578565b005b348015620005a357600080fd5b50620005c660048036038101908080351515906020019092919050505062001656565b005b348015620005d557600080fd5b50620005e062001764565b604051808215151515815260200191505060405180910390f35b3480156200060757600080fd5b506200063e600480360381019080803573ffffffffffffffffffffffffffffffffffffffff16906020019092919050505062001777565b005b3480156200064d57600080fd5b506200065862001a91565b6040518082815260200191505060405180910390f35b3480156200067b57600080fd5b50620006f8600480360381019080803573ffffffffffffffffffffffffffffffffffffffff16906020019092919080359060200190929190803567ffffffffffffffff169060200190929190803567ffffffffffffffff169060200190929190803567ffffffffffffffff16906020019092919050505062001a96565b005b3480156200070757600080fd5b506200071262001bac565b005b3480156200072157600080fd5b5062000758600480360381019080803573ffffffffffffffffffffffffffffffffffffffff16906020019092919050505062001d6d565b005b3480156200076757600080fd5b506200079e600480360381019080803573ffffffffffffffffffffffffffffffffffffffff16906020019092919050505062001dd7565b005b348015620007ad57600080fd5b50620007b862001f0d565b604051808273ffffffffffffffffffffffffffffffffffffffff1673ffffffffffffffffffffffffffffffffffffffff16815260200191505060405180910390f35b6000809054906101000a900473ffffffffffffffffffffffffffffffffffffffff1673ffffffffffffffffffffffffffffffffffffffff163373ffffffffffffffffffffffffffffffffffffffff161415156200085657600080fd5b62000865858585858562001f33565b507f3aad916a2bff5f514578c78052f6d99bec67284ae0f70bdc302b8c0341aef0ec8585604051808373ffffffffffffffffffffffffffffffffffffffff1673ffffffffffffffffffffffffffffffffffffffff1681526020018281526020019250505060405180910390a15050505050565b6000809054906101000a900473ffffffffffffffffffffffffffffffffffffffff1673ffffffffffffffffffffffffffffffffffffffff163373ffffffffffffffffffffffffffffffffffffffff161415156200093457600080fd5b600160009054906101000a900473ffffffffffffffffffffffffffffffffffffffff1673ffffffffffffffffffffffffffffffffffffffff1663260d387b826040518263ffffffff167c0100000000000000000000000000000000000000000000000000000000028152600401808273ffffffffffffffffffffffffffffffffffffffff1673ffffffffffffffffffffffffffffffffffffffff168152602001915050600060405180830381600087803b158015620009f257600080fd5b505af115801562000a07573d6000803e3d6000fd5b5050505050565b6000809054906101000a900473ffffffffffffffffffffffffffffffffffffffff1673ffffffffffffffffffffffffffffffffffffffff163373ffffffffffffffffffffffffffffffffffffffff1614151562000a6a57600080fd5b600160009054906101000a900473ffffffffffffffffffffffffffffffffffffffff1673ffffffffffffffffffffffffffffffffffffffff16638456cb596040518163ffffffff167c0100000000000000000000000000000000000000000000000000000000028152600401600060405180830381600087803b15801562000af157600080fd5b505af115801562000b06573d6000803e3d6000fd5b50505050565b600160179054906101000a900460ff1681565b6000809054906101000a900473ffffffffffffffffffffffffffffffffffffffff1673ffffffffffffffffffffffffffffffffffffffff163373ffffffffffffffffffffffffffffffffffffffff1614151562000b7b57600080fd5b600160009054906101000a900473ffffffffffffffffffffffffffffffffffffffff1673ffffffffffffffffffffffffffffffffffffffff16633f4ba83a6040518163ffffffff167c0100000000000000000000000000000000000000000000000000000000028152600401600060405180830381600087803b15801562000c0257600080fd5b505af115801562000c17573d6000803e3d6000fd5b50505050565b60008060009054906101000a900473ffffffffffffffffffffffffffffffffffffffff1673ffffffffffffffffffffffffffffffffffffffff163373ffffffffffffffffffffffffffffffffffffffff1614151562000c7b57600080fd5b600160169054906101000a900460ff16151562000c9757600080fd5b60001515600160149054906101000a900460ff16151514151562000cba57600080fd5b62000da8606462000d99601a600160009054906101000a900473ffffffffffffffffffffffffffffffffffffffff1673ffffffffffffffffffffffffffffffffffffffff16635478bc6b6040518163ffffffff167c0100000000000000000000000000000000000000000000000000000000028152600401602060405180830381600087803b15801562000d4d57600080fd5b505af115801562000d62573d6000803e3d6000fd5b505050506040513d602081101562000d7957600080fd5b8101908080519060200190929190505050620022af90919063ffffffff16565b620022eb90919063ffffffff16565b9050600160009054906101000a900473ffffffffffffffffffffffffffffffffffffffff1673ffffffffffffffffffffffffffffffffffffffff166340c10f1983836040518363ffffffff167c0100000000000000000000000000000000000000000000000000000000028152600401808373ffffffffffffffffffffffffffffffffffffffff1673ffffffffffffffffffffffffffffffffffffffff16815260200182815260200192505050602060405180830381600087803b15801562000e7057600080fd5b505af115801562000e85573d6000803e3d6000fd5b505050506040513d602081101562000e9c57600080fd5b8101908080519060200190929190505050507f39c95202838dfc26ec8c1448d6e3c4fe3232bac048f17bde53a2699218b0dba18282604051808373ffffffffffffffffffffffffffffffffffffffff1673ffffffffffffffffffffffffffffffffffffffff1681526020018281526020019250505060405180910390a160018060146101000a81548160ff0219169083151502179055505050565b600160159054906101000a900460ff1681565b60008060009054906101000a900473ffffffffffffffffffffffffffffffffffffffff1673ffffffffffffffffffffffffffffffffffffffff163373ffffffffffffffffffffffffffffffffffffffff1614151562000fa857600080fd5b62000fb7868686868662001f33565b90507fb0f05721bdaac3406aa55e4746eac3a4ff327057cf3ede73aa52f5b10f8d9ce8868683604051808473ffffffffffffffffffffffffffffffffffffffff1673ffffffffffffffffffffffffffffffffffffffff1681526020018381526020018273ffffffffffffffffffffffffffffffffffffffff1673ffffffffffffffffffffffffffffffffffffffff168152602001935050505060405180910390a1505050505050565b6000809054906101000a900473ffffffffffffffffffffffffffffffffffffffff1673ffffffffffffffffffffffffffffffffffffffff163373ffffffffffffffffffffffffffffffffffffffff16141515620010bc57600080fd5b6000809054906101000a900473ffffffffffffffffffffffffffffffffffffffff1673ffffffffffffffffffffffffffffffffffffffff167ff8df31144d9c2f0f6b59d69b8b98abd5459d07f2742c4df920b25aae33c6482060405160405180910390a260008060006101000a81548173ffffffffffffffffffffffffffffffffffffffff021916908373ffffffffffffffffffffffffffffffffffffffff160217905550565b6000809054906101000a900473ffffffffffffffffffffffffffffffffffffffff1673ffffffffffffffffffffffffffffffffffffffff163373ffffffffffffffffffffffffffffffffffffffff16141515620011bf57600080fd5b600160009054906101000a900473ffffffffffffffffffffffffffffffffffffffff1673ffffffffffffffffffffffffffffffffffffffff16637d64bcb46040518163ffffffff167c0100000000000000000000000000000000000000000000000000000000028152600401602060405180830381600087803b1580156200124657600080fd5b505af11580156200125b573d6000803e3d6000fd5b505050506040513d60208110156200127257600080fd5b810190808051906020019092919050505050565b600160169054906101000a900460ff1681565b6000809054906101000a900473ffffffffffffffffffffffffffffffffffffffff1673ffffffffffffffffffffffffffffffffffffffff163373ffffffffffffffffffffffffffffffffffffffff16141515620012f557600080fd5b60008173ffffffffffffffffffffffffffffffffffffffff16141515156200131c57600080fd5b60001515600160169054906101000a900460ff1615151415156200133f57600080fd5b80600160006101000a81548173ffffffffffffffffffffffffffffffffffffffff021916908373ffffffffffffffffffffffffffffffffffffffff1602179055503073ffffffffffffffffffffffffffffffffffffffff16600160009054906101000a900473ffffffffffffffffffffffffffffffffffffffff1673ffffffffffffffffffffffffffffffffffffffff16638da5cb5b6040518163ffffffff167c0100000000000000000000000000000000000000000000000000000000028152600401602060405180830381600087803b1580156200141e57600080fd5b505af115801562001433573d6000803e3d6000fd5b505050506040513d60208110156200144a57600080fd5b810190808051906020019092919050505073ffffffffffffffffffffffffffffffffffffffff161415156200147e57600080fd5b600160009054906101000a900473ffffffffffffffffffffffffffffffffffffffff1673ffffffffffffffffffffffffffffffffffffffff16638456cb596040518163ffffffff167c0100000000000000000000000000000000000000000000000000000000028152600401600060405180830381600087803b1580156200150557600080fd5b505af11580156200151a573d6000803e3d6000fd5b5050505060018060166101000a81548160ff02191690831515021790555050565b6000809054906101000a900473ffffffffffffffffffffffffffffffffffffffff1681565b601a81565b600160189054906101000a900460ff1681565b6000809054906101000a900473ffffffffffffffffffffffffffffffffffffffff1673ffffffffffffffffffffffffffffffffffffffff163373ffffffffffffffffffffffffffffffffffffffff16141515620015d457600080fd5b620015e3858585858562001f33565b507f805842455fe50ffc5f2c30b97704bbc2c71a46e3b82f851238a0cd6095b2ca4b8585604051808373ffffffffffffffffffffffffffffffffffffffff1673ffffffffffffffffffffffffffffffffffffffff1681526020018281526020019250505060405180910390a15050505050565b6000809054906101000a900473ffffffffffffffffffffffffffffffffffffffff1673ffffffffffffffffffffffffffffffffffffffff163373ffffffffffffffffffffffffffffffffffffffff16141515620016b257600080fd5b600160009054906101000a900473ffffffffffffffffffffffffffffffffffffffff1673ffffffffffffffffffffffffffffffffffffffff1663a157696b826040518263ffffffff167c01000000000000000000000000000000000000000000000000000000000281526004018082151515158152602001915050600060405180830381600087803b1580156200174857600080fd5b505af11580156200175d573d6000803e3d6000fd5b5050505050565b600160149054906101000a900460ff1681565b60008060009054906101000a900473ffffffffffffffffffffffffffffffffffffffff1673ffffffffffffffffffffffffffffffffffffffff163373ffffffffffffffffffffffffffffffffffffffff16141515620017d557600080fd5b600160169054906101000a900460ff161515620017f157600080fd5b60001515600160159054906101000a900460ff1615151415156200181457600080fd5b620019026064620018f36032600160009054906101000a900473ffffffffffffffffffffffffffffffffffffffff1673ffffffffffffffffffffffffffffffffffffffff16635478bc6b6040518163ffffffff167c0100000000000000000000000000000000000000000000000000000000028152600401602060405180830381600087803b158015620018a757600080fd5b505af1158015620018bc573d6000803e3d6000fd5b505050506040513d6020811015620018d357600080fd5b8101908080519060200190929190505050620022af90919063ffffffff16565b620022eb90919063ffffffff16565b9050600160009054906101000a900473ffffffffffffffffffffffffffffffffffffffff1673ffffffffffffffffffffffffffffffffffffffff166340c10f1983836040518363ffffffff167c0100000000000000000000000000000000000000000000000000000000028152600401808373ffffffffffffffffffffffffffffffffffffffff1673ffffffffffffffffffffffffffffffffffffffff16815260200182815260200192505050602060405180830381600087803b158015620019ca57600080fd5b505af1158015620019df573d6000803e3d6000fd5b505050506040513d6020811015620019f657600080fd5b8101908080519060200190929190505050507f39c95202838dfc26ec8c1448d6e3c4fe3232bac048f17bde53a2699218b0dba18282604051808373ffffffffffffffffffffffffffffffffffffffff1673ffffffffffffffffffffffffffffffffffffffff1681526020018281526020019250505060405180910390a160018060156101000a81548160ff0219169083151502179055505050565b603281565b60008060009054906101000a900473ffffffffffffffffffffffffffffffffffffffff1673ffffffffffffffffffffffffffffffffffffffff163373ffffffffffffffffffffffffffffffffffffffff1614151562001af457600080fd5b62001b03868686868662001f33565b90507f7579dc732df5340078dbf68cec63a8e66a9a230b03e2ffef480176079c1bd4a3868683604051808473ffffffffffffffffffffffffffffffffffffffff1673ffffffffffffffffffffffffffffffffffffffff1681526020018381526020018273ffffffffffffffffffffffffffffffffffffffff1673ffffffffffffffffffffffffffffffffffffffff168152602001935050505060405180910390a1505050505050565b6000809054906101000a900473ffffffffffffffffffffffffffffffffffffffff1673ffffffffffffffffffffffffffffffffffffffff163373ffffffffffffffffffffffffffffffffffffffff1614151562001c0857600080fd5b600160009054906101000a900473ffffffffffffffffffffffffffffffffffffffff1673ffffffffffffffffffffffffffffffffffffffff16633f4ba83a6040518163ffffffff167c0100000000000000000000000000000000000000000000000000000000028152600401600060405180830381600087803b15801562001c8f57600080fd5b505af115801562001ca4573d6000803e3d6000fd5b50505050600160009054906101000a900473ffffffffffffffffffffffffffffffffffffffff1673ffffffffffffffffffffffffffffffffffffffff1663f2fde38b61dead6040518263ffffffff167c0100000000000000000000000000000000000000000000000000000000028152600401808273ffffffffffffffffffffffffffffffffffffffff168152602001915050600060405180830381600087803b15801562001d5257600080fd5b505af115801562001d67573d6000803e3d6000fd5b50505050565b6000809054906101000a900473ffffffffffffffffffffffffffffffffffffffff1673ffffffffffffffffffffffffffffffffffffffff163373ffffffffffffffffffffffffffffffffffffffff1614151562001dc957600080fd5b62001dd48162002302565b50565b6000809054906101000a900473ffffffffffffffffffffffffffffffffffffffff1673ffffffffffffffffffffffffffffffffffffffff163373ffffffffffffffffffffffffffffffffffffffff1614151562001e3357600080fd5b600160009054906101000a900473ffffffffffffffffffffffffffffffffffffffff1673ffffffffffffffffffffffffffffffffffffffff1663fb37baa1826040518263ffffffff167c0100000000000000000000000000000000000000000000000000000000028152600401808273ffffffffffffffffffffffffffffffffffffffff1673ffffffffffffffffffffffffffffffffffffffff168152602001915050600060405180830381600087803b15801562001ef157600080fd5b505af115801562001f06573d6000803e3d6000fd5b5050505050565b600160009054906101000a900473ffffffffffffffffffffffffffffffffffffffff1681565b6000806000806000806000600160189054906101000a900460ff16151562001f5a57600080fd5b60008c73ffffffffffffffffffffffffffffffffffffffff161415151562001f8157600080fd5b6000955062001fb9606462001faa8a67ffffffffffffffff168e620022af90919063ffffffff16565b620022eb90919063ffffffff16565b945062001fd0858c620023fd90919063ffffffff16565b93506000841115620020e157600160009054906101000a900473ffffffffffffffffffffffffffffffffffffffff1673ffffffffffffffffffffffffffffffffffffffff166340c10f198d866040518363ffffffff167c0100000000000000000000000000000000000000000000000000000000028152600401808373ffffffffffffffffffffffffffffffffffffffff1673ffffffffffffffffffffffffffffffffffffffff16815260200182815260200192505050602060405180830381600087803b158015620020a257600080fd5b505af1158015620020b7573d6000803e3d6000fd5b505050506040513d6020811015620020ce57600080fd5b8101908080519060200190929190505050505b60008511156200229d5742925062015180890267ffffffffffffffff169150620151808a0267ffffffffffffffff1690508b83838360006200212262002417565b808673ffffffffffffffffffffffffffffffffffffffff1673ffffffffffffffffffffffffffffffffffffffff1681526020018581526020018481526020018381526020018215151515815260200195505050505050604051809103906000f08015801562002195573d6000803e3d6000fd5b509550600160009054906101000a900473ffffffffffffffffffffffffffffffffffffffff1673ffffffffffffffffffffffffffffffffffffffff166340c10f1987876040518363ffffffff167c0100000000000000000000000000000000000000000000000000000000028152600401808373ffffffffffffffffffffffffffffffffffffffff1673ffffffffffffffffffffffffffffffffffffffff16815260200182815260200192505050602060405180830381600087803b1580156200225e57600080fd5b505af115801562002273573d6000803e3d6000fd5b505050506040513d60208110156200228a57600080fd5b8101908080519060200190929190505050505b85965050505050505095945050505050565b600080831415620022c45760009050620022e5565b8183029050818382811515620022d657fe5b04141515620022e157fe5b8090505b92915050565b60008183811515620022f957fe5b04905092915050565b600073ffffffffffffffffffffffffffffffffffffffff168173ffffffffffffffffffffffffffffffffffffffff16141515156200233f57600080fd5b8073ffffffffffffffffffffffffffffffffffffffff166000809054906101000a900473ffffffffffffffffffffffffffffffffffffffff1673ffffffffffffffffffffffffffffffffffffffff167f8be0079c531659141344cd1fd0a4f28419497f9722a3daafe3b4186f6b6457e060405160405180910390a3806000806101000a81548173ffffffffffffffffffffffffffffffffffffffff021916908373ffffffffffffffffffffffffffffffffffffffff16021790555050565b60008282111515156200240c57fe5b818303905092915050565b6040516111078062002429833901905600608060405234801561001057600080fd5b5060405160a0806111078339810180604052810190808051906020019092919080519060200190929190805190602001909291908051906020019092919080519060200190929190505050336000806101000a81548173ffffffffffffffffffffffffffffffffffffffff021916908373ffffffffffffffffffffffffffffffffffffffff160217905550600073ffffffffffffffffffffffffffffffffffffffff168573ffffffffffffffffffffffffffffffffffffffff16141515156100d757600080fd5b8183111515156100e657600080fd5b84600160006101000a81548173ffffffffffffffffffffffffffffffffffffffff021916908373ffffffffffffffffffffffffffffffffffffffff16021790555080600560006101000a81548160ff02191690831515021790555081600481905550610168838561017f64010000000002610cdf179091906401000000009004565b60028190555083600381905550505050505061019b565b6000818301905082811015151561019257fe5b80905092915050565b610f5d806101aa6000396000f3006080604052600436106100d0576000357c0100000000000000000000000000000000000000000000000000000000900463ffffffff1680630fb5a6b4146100d557806313d033c0146101005780631726cbc81461012b5780631916558714610182578063384711cc146101c557806338af3eed1461021c578063715018a61461027357806374a8f1031461028a578063872a7810146102cd5780638da5cb5b146102fc5780639852595c14610353578063be9a6555146103aa578063f2fde38b146103d5578063fa01dc0614610418575b600080fd5b3480156100e157600080fd5b506100ea610473565b6040518082815260200191505060405180910390f35b34801561010c57600080fd5b50610115610479565b6040518082815260200191505060405180910390f35b34801561013757600080fd5b5061016c600480360381019080803573ffffffffffffffffffffffffffffffffffffffff16906020019092919050505061047f565b6040518082815260200191505060405180910390f35b34801561018e57600080fd5b506101c3600480360381019080803573ffffffffffffffffffffffffffffffffffffffff1690602001909291905050506104e2565b005b3480156101d157600080fd5b50610206600480360381019080803573ffffffffffffffffffffffffffffffffffffffff16906020019092919050505061061b565b6040518082815260200191505060405180910390f35b34801561022857600080fd5b5061023161081f565b604051808273ffffffffffffffffffffffffffffffffffffffff1673ffffffffffffffffffffffffffffffffffffffff16815260200191505060405180910390f35b34801561027f57600080fd5b50610288610845565b005b34801561029657600080fd5b506102cb600480360381019080803573ffffffffffffffffffffffffffffffffffffffff169060200190929190505050610947565b005b3480156102d957600080fd5b506102e2610be9565b604051808215151515815260200191505060405180910390f35b34801561030857600080fd5b50610311610bfc565b604051808273ffffffffffffffffffffffffffffffffffffffff1673ffffffffffffffffffffffffffffffffffffffff16815260200191505060405180910390f35b34801561035f57600080fd5b50610394600480360381019080803573ffffffffffffffffffffffffffffffffffffffff169060200190929190505050610c21565b6040518082815260200191505060405180910390f35b3480156103b657600080fd5b506103bf610c39565b6040518082815260200191505060405180910390f35b3480156103e157600080fd5b50610416600480360381019080803573ffffffffffffffffffffffffffffffffffffffff169060200190929190505050610c3f565b005b34801561042457600080fd5b50610459600480360381019080803573ffffffffffffffffffffffffffffffffffffffff169060200190929190505050610ca6565b604051808215151515815260200191505060405180910390f35b60045481565b60025481565b60006104db600660008473ffffffffffffffffffffffffffffffffffffffff1673ffffffffffffffffffffffffffffffffffffffff168152602001908152602001600020546104cd8461061b565b610cc690919063ffffffff16565b9050919050565b60006104ed8261047f565b90506000811115156104fe57600080fd5b61055081600660008573ffffffffffffffffffffffffffffffffffffffff1673ffffffffffffffffffffffffffffffffffffffff16815260200190815260200160002054610cdf90919063ffffffff16565b600660008473ffffffffffffffffffffffffffffffffffffffff1673ffffffffffffffffffffffffffffffffffffffff168152602001908152602001600020819055506105e0600160009054906101000a900473ffffffffffffffffffffffffffffffffffffffff16828473ffffffffffffffffffffffffffffffffffffffff16610cfb9092919063ffffffff16565b7ffb81f9b30d73d830c3544b34d827c08142579ee75710b490bab0b3995468c565816040518082815260200191505060405180910390a15050565b60008060008373ffffffffffffffffffffffffffffffffffffffff166370a08231306040518263ffffffff167c0100000000000000000000000000000000000000000000000000000000028152600401808273ffffffffffffffffffffffffffffffffffffffff1673ffffffffffffffffffffffffffffffffffffffff168152602001915050602060405180830381600087803b1580156106bb57600080fd5b505af11580156106cf573d6000803e3d6000fd5b505050506040513d60208110156106e557600080fd5b8101908080519060200190929190505050915061074a600660008673ffffffffffffffffffffffffffffffffffffffff1673ffffffffffffffffffffffffffffffffffffffff1681526020019081526020016000205483610cdf90919063ffffffff16565b905060025442101561075f5760009250610818565b610776600454600354610cdf90919063ffffffff16565b421015806107cd5750600760008573ffffffffffffffffffffffffffffffffffffffff1673ffffffffffffffffffffffffffffffffffffffff16815260200190815260200160002060009054906101000a900460ff165b156107da57809250610818565b6108156004546108076107f860035442610cc690919063ffffffff16565b84610de990919063ffffffff16565b610e2190919063ffffffff16565b92505b5050919050565b600160009054906101000a900473ffffffffffffffffffffffffffffffffffffffff1681565b6000809054906101000a900473ffffffffffffffffffffffffffffffffffffffff1673ffffffffffffffffffffffffffffffffffffffff163373ffffffffffffffffffffffffffffffffffffffff161415156108a057600080fd5b6000809054906101000a900473ffffffffffffffffffffffffffffffffffffffff1673ffffffffffffffffffffffffffffffffffffffff167ff8df31144d9c2f0f6b59d69b8b98abd5459d07f2742c4df920b25aae33c6482060405160405180910390a260008060006101000a81548173ffffffffffffffffffffffffffffffffffffffff021916908373ffffffffffffffffffffffffffffffffffffffff160217905550565b60008060008060009054906101000a900473ffffffffffffffffffffffffffffffffffffffff1673ffffffffffffffffffffffffffffffffffffffff163373ffffffffffffffffffffffffffffffffffffffff161415156109a757600080fd5b600560009054906101000a900460ff1615156109c257600080fd5b600760008573ffffffffffffffffffffffffffffffffffffffff1673ffffffffffffffffffffffffffffffffffffffff16815260200190815260200160002060009054906101000a900460ff16151515610a1b57600080fd5b8373ffffffffffffffffffffffffffffffffffffffff166370a08231306040518263ffffffff167c0100000000000000000000000000000000000000000000000000000000028152600401808273ffffffffffffffffffffffffffffffffffffffff1673ffffffffffffffffffffffffffffffffffffffff168152602001915050602060405180830381600087803b158015610ab657600080fd5b505af1158015610aca573d6000803e3d6000fd5b505050506040513d6020811015610ae057600080fd5b81019080805190602001909291905050509250610afc8461047f565b9150610b118284610cc690919063ffffffff16565b90506001600760008673ffffffffffffffffffffffffffffffffffffffff1673ffffffffffffffffffffffffffffffffffffffff16815260200190815260200160002060006101000a81548160ff021916908315150217905550610bb76000809054906101000a900473ffffffffffffffffffffffffffffffffffffffff16828673ffffffffffffffffffffffffffffffffffffffff16610cfb9092919063ffffffff16565b7f44825a4b2df8acb19ce4e1afba9aa850c8b65cdb7942e2078f27d0b0960efee660405160405180910390a150505050565b600560009054906101000a900460ff1681565b6000809054906101000a900473ffffffffffffffffffffffffffffffffffffffff1681565b60066020528060005260406000206000915090505481565b60035481565b6000809054906101000a900473ffffffffffffffffffffffffffffffffffffffff1673ffffffffffffffffffffffffffffffffffffffff163373ffffffffffffffffffffffffffffffffffffffff16141515610c9a57600080fd5b610ca381610e37565b50565b60076020528060005260406000206000915054906101000a900460ff1681565b6000828211151515610cd457fe5b818303905092915050565b60008183019050828110151515610cf257fe5b80905092915050565b8273ffffffffffffffffffffffffffffffffffffffff1663a9059cbb83836040518363ffffffff167c0100000000000000000000000000000000000000000000000000000000028152600401808373ffffffffffffffffffffffffffffffffffffffff1673ffffffffffffffffffffffffffffffffffffffff16815260200182815260200192505050602060405180830381600087803b158015610d9e57600080fd5b505af1158015610db2573d6000803e3d6000fd5b505050506040513d6020811015610dc857600080fd5b81019080805190602001909291905050501515610de457600080fd5b505050565b600080831415610dfc5760009050610e1b565b8183029050818382811515610e0d57fe5b04141515610e1757fe5b8090505b92915050565b60008183811515610e2e57fe5b04905092915050565b600073ffffffffffffffffffffffffffffffffffffffff168173ffffffffffffffffffffffffffffffffffffffff1614151515610e7357600080fd5b8073ffffffffffffffffffffffffffffffffffffffff166000809054906101000a900473ffffffffffffffffffffffffffffffffffffffff1673ffffffffffffffffffffffffffffffffffffffff167f8be0079c531659141344cd1fd0a4f28419497f9722a3daafe3b4186f6b6457e060405160405180910390a3806000806101000a81548173ffffffffffffffffffffffffffffffffffffffff021916908373ffffffffffffffffffffffffffffffffffffffff160217905550505600a165627a7a723058201dfdc2e529eba776b965192ce3d0ab5c5b465fbfea17c1fd265a72c78f8299570029a165627a7a72305820bee7e47c2be0314e57ad776b87365916d788d27f54aa9bfc6ba8ad9551e520920029",
  "source": "pragma solidity ^0.4.13;\n\nimport 'zeppelin-solidity/contracts/ownership/Ownable.sol';\nimport 'zeppelin-solidity/contracts/math/SafeMath.sol';\nimport \"./token/PropsToken.sol\";\nimport \"./token/TokenVesting.sol\";\n\n\n/**\n * @title Coordinator for the Token distribution\n * Simple wrapper, allowing us simplify the coordination of the ICO\n * using a MultiSigWallet\n *\n */\n\ncontract TokenDistributionCoordinator is Ownable {\n    using SafeMath for uint256;\n\n    /* Token to manage */\n    PropsToken public token;\n\n    /* Making sure that preallocation for employees is happening once */\n    bool public isPreallocationForEmployeesDone = false;\n\n    /* Making sure that preallocation for foundation is happening once */\n    bool public isPreallocationForFoundationDone = false;\n\n    /* Making sure that we're injecting the token once */\n    bool public isTokenInjected = false;\n\n    /* Making sure that we're injecting the crowdsale once */\n    bool public isCrowdsaleInjected = false;\n\n    /* Is Preallocation Open */\n    bool public isPreallocationOpen = true;\n\n    uint public constant shareForEmployees = 26;\n\n    uint public constant shareForFoundation = 50;\n\n    /* Events */\n    event CompanyAllocation(address beneficiary, uint amount);\n    event FoundationAllocation(address beneficiary, uint amount);\n    event PoolAllocation(address beneficiary, uint amount);\n    event SAFTAllocation(address beneficiary, uint amount, address vestingContract);\n    event AdvisorAllocation(address beneficiary, uint amount, address vestingContract);\n\n    /**\n     * @dev Injecting an externally created token into the coordinator.\n     */\n    function injectToken(address _tokenAddress) public onlyOwner {\n        require(_tokenAddress != 0x0);\n        require(isTokenInjected == false);\n        token = PropsToken(_tokenAddress);\n        require(PropsToken(token).owner() == address(this));\n\n        token.pause();\n        isTokenInjected = true;\n    }\n\n    /**\n     * @dev Pre-allocating tokens for the employees before the crowdsale starts.\n     * Require token injection\n     * Tax optimization.\n     */\n    function preallocateForEmployees(address poolAddress) public onlyOwner {\n        require(isTokenInjected);\n        require(isPreallocationForEmployeesDone == false);\n        uint tokensAmount = token.amountOfTokenToMint().mul(shareForEmployees).div(100);\n        token.mint(poolAddress, tokensAmount);\n        PoolAllocation(poolAddress, tokensAmount);\n        isPreallocationForEmployeesDone = true;\n    }\n\n    /**\n     * @dev Pre-allocating tokens for the foundation before the crowdsale starts.\n     * Require token injection\n     * Tax optimization.\n     */\n    function preallocateForFoundation(address poolAddress) public onlyOwner {\n        require(isTokenInjected);\n        require(isPreallocationForFoundationDone == false);\n        uint tokensAmount = token.amountOfTokenToMint().mul(shareForFoundation).div(100);\n        token.mint(poolAddress, tokensAmount);\n        PoolAllocation(poolAddress, tokensAmount);\n        isPreallocationForFoundationDone = true;\n    }\n\n    /**\n     * @dev Pre-allocating tokens\n     */\n    function allocateTokens(address _investor, uint _tokensVolume, uint64 _vestingDuration, uint64 _vestingCliff, uint64 _percentageToVest) internal returns (address) {\n        require(isPreallocationOpen);\n        require(_investor != 0x0);\n\n        address vestingContract = 0x0;\n\n        uint256 tokensToVest = _tokensVolume.mul(_percentageToVest).div(100);\n        uint256 tokensToGrant = _tokensVolume.sub(tokensToVest);\n\n        if (tokensToGrant > 0) {\n            token.mint(_investor, tokensToGrant);\n        }\n        if (tokensToVest > 0) {\n          uint256 vestingStart = now;\n          uint256 vestingCliff = _vestingCliff * 1 days;\n          uint256 vestingDuration = _vestingDuration * 1 days;\n          vestingContract = address(new TokenVesting(\n              _investor,\n              vestingStart,\n              vestingCliff,\n              vestingDuration,\n              false\n          ));\n          token.mint(vestingContract, tokensToVest);\n        }\n\n        return vestingContract;\n    }\n\n    /**\n     * @dev Pre-allocating tokens to Company.\n     */\n    function allocateTokensToCompany(address _investor, uint _tokensVolume, uint64 _vestingDuration, uint64 _vestingCliff, uint64 _percentageToVest) public onlyOwner {\n        allocateTokens(_investor, _tokensVolume, _vestingDuration, _vestingCliff, _percentageToVest);\n        CompanyAllocation(_investor, _tokensVolume);\n    }\n\n    /**\n     * @dev Pre-allocating tokens to Foundation.\n     */\n    function allocateTokensToFoundation(address _investor, uint _tokensVolume, uint64 _vestingDuration, uint64 _vestingCliff, uint64 _percentageToVest) public onlyOwner {\n        allocateTokens(_investor, _tokensVolume, _vestingDuration, _vestingCliff, _percentageToVest);\n        FoundationAllocation(_investor, _tokensVolume);\n    }\n\n    /**\n     * @dev Pre-allocating tokens to SAFT Investor.\n     */\n    function allocateTokensToSAFTInvestor(address _investor, uint _tokensVolume, uint64 _vestingDuration, uint64 _vestingCliff, uint64 _percentageToVest) public onlyOwner {\n        address vestingContract = allocateTokens(_investor, _tokensVolume, _vestingDuration, _vestingCliff, _percentageToVest);\n        SAFTAllocation(_investor, _tokensVolume, vestingContract);\n    }\n\n    /**\n     * @dev Pre-allocating tokens to Advisor.\n     */\n    function allocateTokensToAdvisor(address _investor, uint _tokensVolume, uint64 _vestingDuration, uint64 _vestingCliff, uint64 _percentageToVest) public onlyOwner {\n        address vestingContract = allocateTokens(_investor, _tokensVolume, _vestingDuration, _vestingCliff, _percentageToVest);\n        AdvisorAllocation(_investor, _tokensVolume, vestingContract);\n    }\n\n    /**\n     * @dev Enabling / Disabling transfers of non whitelisted users\n     */\n    function setWhitelistedOnly(bool _isWhitelistOnly) onlyOwner public {\n        token.setWhitelistedOnly(_isWhitelistOnly);\n    }\n\n    /**\n     * @dev Adding a user to the whitelist\n     */\n    function whitelistUserForTransfers(address _user) onlyOwner public {\n        token.whitelistUserForTransfers(_user);\n    }\n\n    /**\n     * @dev Remove a user from the whitelist\n     */\n    function blacklistUserForTransfers(address _user) onlyOwner public {\n        token.blacklistUserForTransfers(_user);\n    }\n\n    function unpauseToken() public onlyOwner {\n        token.unpause();\n    }\n\n    function pauseToken() public onlyOwner {\n        token.pause();\n    }\n\n    function closeMinting() public onlyOwner {\n        token.finishMinting();\n    }\n\n    function releaseToken() public onlyOwner {\n        token.unpause();\n        token.transferOwnership(0x000000000000000000000000000000000000dead);\n    }\n}\n",
  "sourcePath": "/Users/kc1116/Desktop/PROPS-dev/props-token-distribution/contracts/TokenDistributionCoordinator.sol",
  "compiler": {
    "name": "solc",
    "version": "0.4.24+commit.e67f0147.Emscripten.clang"
  },
  "schemaVersion": "2.0.1",
  "updatedAt": "2018-10-15T04:37:19.361Z"
}