{
  "contractName": "TokenTimelock",
  "abi": [
    {
      "constant": false,
      "inputs": [
        {
          "name": "token",
          "type": "address"
        },
        {
          "name": "beneficiary",
          "type": "address"
        },
        {
          "name": "releaseTime",
          "type": "uint256"
        }
      ],
      "name": "initialize",
      "outputs": [],
      "payable": false,
      "stateMutability": "nonpayable",
      "type": "function"
    },
    {
      "constant": true,
      "inputs": [],
      "name": "token",
      "outputs": [
        {
          "name": "",
          "type": "address"
        }
      ],
      "payable": false,
      "stateMutability": "view",
      "type": "function"
    },
    {
      "constant": true,
      "inputs": [],
      "name": "beneficiary",
      "outputs": [
        {
          "name": "",
          "type": "address"
        }
      ],
      "payable": false,
      "stateMutability": "view",
      "type": "function"
    },
    {
      "constant": true,
      "inputs": [],
      "name": "releaseTime",
      "outputs": [
        {
          "name": "",
          "type": "uint256"
        }
      ],
      "payable": false,
      "stateMutability": "view",
      "type": "function"
    },
    {
      "constant": false,
      "inputs": [],
      "name": "release",
      "outputs": [],
      "payable": false,
      "stateMutability": "nonpayable",
      "type": "function"
    }
  ],
  "bytecode": "0x608060405234801561001057600080fd5b506106b5806100206000396000f30060806040526004361061006d576000357c0100000000000000000000000000000000000000000000000000000000900463ffffffff1680631794bb3c1461007257806338af3eed146100df57806386d1a69f14610136578063b91d40011461014d578063fc0c546a14610178575b600080fd5b34801561007e57600080fd5b506100dd600480360381019080803573ffffffffffffffffffffffffffffffffffffffff169060200190929190803573ffffffffffffffffffffffffffffffffffffffff169060200190929190803590602001909291905050506101cf565b005b3480156100eb57600080fd5b506100f461039e565b604051808273ffffffffffffffffffffffffffffffffffffffff1673ffffffffffffffffffffffffffffffffffffffff16815260200191505060405180910390f35b34801561014257600080fd5b5061014b6103c8565b005b34801561015957600080fd5b50610162610556565b6040518082815260200191505060405180910390f35b34801561018457600080fd5b5061018d610560565b604051808273ffffffffffffffffffffffffffffffffffffffff1673ffffffffffffffffffffffffffffffffffffffff16815260200191505060405180910390f35b60008060019054906101000a900460ff16806101ef57506101ee61058a565b5b8061020657506000809054906101000a900460ff16155b15156102a0576040517f08c379a000000000000000000000000000000000000000000000000000000000815260040180806020018281038252602e8152602001807f436f6e747261637420696e7374616e63652068617320616c726561647920626581526020017f656e20696e697469616c697a656400000000000000000000000000000000000081525060400191505060405180910390fd5b600060019054906101000a900460ff1690506001600060016101000a81548160ff02191690831515021790555060016000806101000a81548160ff02191690831515021790555042821115156102f557600080fd5b83603360006101000a81548173ffffffffffffffffffffffffffffffffffffffff021916908373ffffffffffffffffffffffffffffffffffffffff16021790555082603460006101000a81548173ffffffffffffffffffffffffffffffffffffffff021916908373ffffffffffffffffffffffffffffffffffffffff1602179055508160358190555080600060016101000a81548160ff02191690831515021790555050505050565b6000603460009054906101000a900473ffffffffffffffffffffffffffffffffffffffff16905090565b600060355442101515156103db57600080fd5b603360009054906101000a900473ffffffffffffffffffffffffffffffffffffffff1673ffffffffffffffffffffffffffffffffffffffff166370a08231306040518263ffffffff167c0100000000000000000000000000000000000000000000000000000000028152600401808273ffffffffffffffffffffffffffffffffffffffff1673ffffffffffffffffffffffffffffffffffffffff168152602001915050602060405180830381600087803b15801561049857600080fd5b505af11580156104ac573d6000803e3d6000fd5b505050506040513d60208110156104c257600080fd5b810190808051906020019092919050505090506000811115156104e457600080fd5b610553603460009054906101000a900473ffffffffffffffffffffffffffffffffffffffff1682603360009054906101000a900473ffffffffffffffffffffffffffffffffffffffff1673ffffffffffffffffffffffffffffffffffffffff1661059b9092919063ffffffff16565b50565b6000603554905090565b6000603360009054906101000a900473ffffffffffffffffffffffffffffffffffffffff16905090565b600080303b90506000811491505090565b8273ffffffffffffffffffffffffffffffffffffffff1663a9059cbb83836040518363ffffffff167c0100000000000000000000000000000000000000000000000000000000028152600401808373ffffffffffffffffffffffffffffffffffffffff1673ffffffffffffffffffffffffffffffffffffffff16815260200182815260200192505050602060405180830381600087803b15801561063e57600080fd5b505af1158015610652573d6000803e3d6000fd5b505050506040513d602081101561066857600080fd5b8101908080519060200190929190505050151561068457600080fd5b5050505600a165627a7a723058208aa00dd06f10e92b74836279d58d5f38e3c1a28f4e4c59e73d0b9f8bb075c5040029",
  "source": "pragma solidity ^0.4.24;\n\nimport \"zos-lib/contracts/Initializable.sol\";\nimport \"./SafeERC20.sol\";\n\n\n/**\n * @title TokenTimelock\n * @dev TokenTimelock is a token holder contract that will allow a\n * beneficiary to extract the tokens after a given release time\n */\ncontract TokenTimelock is Initializable {\n  using SafeERC20 for IERC20;\n\n  // ERC20 basic token contract being held\n  IERC20 private _token;\n\n  // beneficiary of tokens after they are released\n  address private _beneficiary;\n\n  // timestamp when token release is enabled\n  uint256 private _releaseTime;\n\n  function initialize(\n    IERC20 token,\n    address beneficiary,\n    uint256 releaseTime\n  )\n    public\n    initializer\n  {\n    // solium-disable-next-line security/no-block-members\n    require(releaseTime > block.timestamp);\n    _token = token;\n    _beneficiary = beneficiary;\n    _releaseTime = releaseTime;\n  }\n\n  /**\n   * @return the token being held.\n   */\n  function token() public view returns(IERC20) {\n    return _token;\n  }\n\n  /**\n   * @return the beneficiary of the tokens.\n   */\n  function beneficiary() public view returns(address) {\n    return _beneficiary;\n  }\n\n  /**\n   * @return the time when the tokens are released.\n   */\n  function releaseTime() public view returns(uint256) {\n    return _releaseTime;\n  }\n\n  /**\n   * @notice Transfers tokens held by timelock to beneficiary.\n   */\n  function release() public {\n    // solium-disable-next-line security/no-block-members\n    require(block.timestamp >= _releaseTime);\n\n    uint256 amount = _token.balanceOf(address(this));\n    require(amount > 0);\n\n    _token.safeTransfer(_beneficiary, amount);\n  }\n\n  uint256[50] private ______gap;\n}\n",
  "sourcePath": "/Users/jretina/Programming/PROPSProject/props-token-distribution/contracts/token/openzeppelin-eth/contracts/token/ERC20/TokenTimelock.sol",
  "compiler": {
    "name": "solc",
    "version": "0.4.24+commit.e67f0147.Emscripten.clang"
  },
  "schemaVersion": "2.0.1",
  "updatedAt": "2019-05-08T08:10:58.692Z"
}