{
  "contractName": "TokenDistributionCoordinator",
  "abi": [
    {
      "constant": false,
      "inputs": [
        {
          "name": "_investor",
          "type": "address"
        },
        {
          "name": "_tokensVolume",
          "type": "uint256"
        },
        {
          "name": "_vestingDuration",
          "type": "uint64"
        },
        {
          "name": "_vestingCliff",
          "type": "uint64"
        },
        {
          "name": "_percentageToVest",
          "type": "uint64"
        }
      ],
      "name": "allocateTokensToCompany",
      "outputs": [],
      "payable": false,
      "stateMutability": "nonpayable",
      "type": "function"
    },
    {
      "constant": true,
      "inputs": [],
      "name": "isCrowdsaleInjected",
      "outputs": [
        {
          "name": "",
          "type": "bool"
        }
      ],
      "payable": false,
      "stateMutability": "view",
      "type": "function"
    },
    {
      "constant": false,
      "inputs": [
        {
          "name": "poolAddress",
          "type": "address"
        }
      ],
      "name": "preallocateForEmployees",
      "outputs": [],
      "payable": false,
      "stateMutability": "nonpayable",
      "type": "function"
    },
    {
      "constant": true,
      "inputs": [],
      "name": "isPreallocationForFoundationDone",
      "outputs": [
        {
          "name": "",
          "type": "bool"
        }
      ],
      "payable": false,
      "stateMutability": "view",
      "type": "function"
    },
    {
      "constant": false,
      "inputs": [
        {
          "name": "_investor",
          "type": "address"
        },
        {
          "name": "_tokensVolume",
          "type": "uint256"
        },
        {
          "name": "_vestingDuration",
          "type": "uint64"
        },
        {
          "name": "_vestingCliff",
          "type": "uint64"
        },
        {
          "name": "_percentageToVest",
          "type": "uint64"
        }
      ],
      "name": "allocateTokensToAdvisor",
      "outputs": [],
      "payable": false,
      "stateMutability": "nonpayable",
      "type": "function"
    },
    {
      "constant": false,
      "inputs": [],
      "name": "closeMinting",
      "outputs": [],
      "payable": false,
      "stateMutability": "nonpayable",
      "type": "function"
    },
    {
      "constant": true,
      "inputs": [],
      "name": "isTokenInjected",
      "outputs": [
        {
          "name": "",
          "type": "bool"
        }
      ],
      "payable": false,
      "stateMutability": "view",
      "type": "function"
    },
    {
      "constant": false,
      "inputs": [
        {
          "name": "_tokenAddress",
          "type": "address"
        }
      ],
      "name": "injectToken",
      "outputs": [],
      "payable": false,
      "stateMutability": "nonpayable",
      "type": "function"
    },
    {
      "constant": true,
      "inputs": [],
      "name": "owner",
      "outputs": [
        {
          "name": "",
          "type": "address"
        }
      ],
      "payable": false,
      "stateMutability": "view",
      "type": "function"
    },
    {
      "constant": true,
      "inputs": [],
      "name": "shareForEmployees",
      "outputs": [
        {
          "name": "",
          "type": "uint256"
        }
      ],
      "payable": false,
      "stateMutability": "view",
      "type": "function"
    },
    {
      "constant": true,
      "inputs": [],
      "name": "isPreallocationOpen",
      "outputs": [
        {
          "name": "",
          "type": "bool"
        }
      ],
      "payable": false,
      "stateMutability": "view",
      "type": "function"
    },
    {
      "constant": false,
      "inputs": [
        {
          "name": "_investor",
          "type": "address"
        },
        {
          "name": "_tokensVolume",
          "type": "uint256"
        },
        {
          "name": "_vestingDuration",
          "type": "uint64"
        },
        {
          "name": "_vestingCliff",
          "type": "uint64"
        },
        {
          "name": "_percentageToVest",
          "type": "uint64"
        }
      ],
      "name": "allocateTokensToFoundation",
      "outputs": [],
      "payable": false,
      "stateMutability": "nonpayable",
      "type": "function"
    },
    {
      "constant": true,
      "inputs": [],
      "name": "isPreallocationForEmployeesDone",
      "outputs": [
        {
          "name": "",
          "type": "bool"
        }
      ],
      "payable": false,
      "stateMutability": "view",
      "type": "function"
    },
    {
      "constant": false,
      "inputs": [
        {
          "name": "poolAddress",
          "type": "address"
        }
      ],
      "name": "preallocateForFoundation",
      "outputs": [],
      "payable": false,
      "stateMutability": "nonpayable",
      "type": "function"
    },
    {
      "constant": true,
      "inputs": [],
      "name": "shareForFoundation",
      "outputs": [
        {
          "name": "",
          "type": "uint256"
        }
      ],
      "payable": false,
      "stateMutability": "view",
      "type": "function"
    },
    {
      "constant": false,
      "inputs": [
        {
          "name": "_investor",
          "type": "address"
        },
        {
          "name": "_tokensVolume",
          "type": "uint256"
        },
        {
          "name": "_vestingDuration",
          "type": "uint64"
        },
        {
          "name": "_vestingCliff",
          "type": "uint64"
        },
        {
          "name": "_percentageToVest",
          "type": "uint64"
        }
      ],
      "name": "allocateTokensToSAFTInvestor",
      "outputs": [],
      "payable": false,
      "stateMutability": "nonpayable",
      "type": "function"
    },
    {
      "constant": false,
      "inputs": [],
      "name": "releaseToken",
      "outputs": [],
      "payable": false,
      "stateMutability": "nonpayable",
      "type": "function"
    },
    {
      "constant": false,
      "inputs": [
        {
          "name": "newOwner",
          "type": "address"
        }
      ],
      "name": "transferOwnership",
      "outputs": [],
      "payable": false,
      "stateMutability": "nonpayable",
      "type": "function"
    },
    {
      "constant": true,
      "inputs": [],
      "name": "token",
      "outputs": [
        {
          "name": "",
          "type": "address"
        }
      ],
      "payable": false,
      "stateMutability": "view",
      "type": "function"
    },
    {
      "anonymous": false,
      "inputs": [
        {
          "indexed": false,
          "name": "beneficiary",
          "type": "address"
        },
        {
          "indexed": false,
          "name": "amount",
          "type": "uint256"
        }
      ],
      "name": "CompanyAllocation",
      "type": "event"
    },
    {
      "anonymous": false,
      "inputs": [
        {
          "indexed": false,
          "name": "beneficiary",
          "type": "address"
        },
        {
          "indexed": false,
          "name": "amount",
          "type": "uint256"
        }
      ],
      "name": "FoundationAllocation",
      "type": "event"
    },
    {
      "anonymous": false,
      "inputs": [
        {
          "indexed": false,
          "name": "beneficiary",
          "type": "address"
        },
        {
          "indexed": false,
          "name": "amount",
          "type": "uint256"
        }
      ],
      "name": "PoolAllocation",
      "type": "event"
    },
    {
      "anonymous": false,
      "inputs": [
        {
          "indexed": false,
          "name": "beneficiary",
          "type": "address"
        },
        {
          "indexed": false,
          "name": "amount",
          "type": "uint256"
        },
        {
          "indexed": false,
          "name": "vestingContract",
          "type": "address"
        }
      ],
      "name": "SAFTAllocation",
      "type": "event"
    },
    {
      "anonymous": false,
      "inputs": [
        {
          "indexed": false,
          "name": "beneficiary",
          "type": "address"
        },
        {
          "indexed": false,
          "name": "amount",
          "type": "uint256"
        },
        {
          "indexed": false,
          "name": "vestingContract",
          "type": "address"
        }
      ],
      "name": "AdvisorAllocation",
      "type": "event"
    },
    {
      "anonymous": false,
      "inputs": [
        {
          "indexed": true,
          "name": "previousOwner",
          "type": "address"
        },
        {
          "indexed": true,
          "name": "newOwner",
          "type": "address"
        }
      ],
      "name": "OwnershipTransferred",
      "type": "event"
    }
  ],
  "bytecode": "0x60606040526000600160146101000a81548160ff0219169083151502179055506000600160156101000a81548160ff0219169083151502179055506000600160166101000a81548160ff0219169083151502179055506000600160176101000a81548160ff02191690831515021790555060018060186101000a81548160ff021916908315150217905550336000806101000a81548173ffffffffffffffffffffffffffffffffffffffff021916908373ffffffffffffffffffffffffffffffffffffffff160217905550612a67806100d96000396000f3006060604052600436106200011b576000357c0100000000000000000000000000000000000000000000000000000000900463ffffffff1680630653d66414620001205780634ef2b596146200019e5780635556689f14620001ce578063580b39d3146200020a5780635c590570146200023a57806387491c6014620002b8578063899b7d0b14620002d057806389de63da14620003005780638da5cb5b146200033c57806397ac188214620003945780639816c81814620003c05780639f40f1a914620003f0578063a393cafd146200046e578063b586791c146200049e578063bff8f6cd14620004da578063c20d6a6e1462000506578063ec715a311462000584578063f2fde38b146200059c578063fc0c546a14620005d8575b600080fd5b34156200012c57600080fd5b6200019c600480803573ffffffffffffffffffffffffffffffffffffffff1690602001909190803590602001909190803567ffffffffffffffff1690602001909190803567ffffffffffffffff1690602001909190803567ffffffffffffffff1690602001909190505062000630565b005b3415620001aa57600080fd5b620001b46200070e565b604051808215151515815260200191505060405180910390f35b3415620001da57600080fd5b62000208600480803573ffffffffffffffffffffffffffffffffffffffff1690602001909190505062000721565b005b34156200021657600080fd5b6200022062000a09565b604051808215151515815260200191505060405180910390f35b34156200024657600080fd5b620002b6600480803573ffffffffffffffffffffffffffffffffffffffff1690602001909190803590602001909190803567ffffffffffffffff1690602001909190803567ffffffffffffffff1690602001909190803567ffffffffffffffff1690602001909190505062000a1c565b005b3415620002c457600080fd5b620002ce62000b32565b005b3415620002dc57600080fd5b620002e662000c3c565b604051808215151515815260200191505060405180910390f35b34156200030c57600080fd5b6200033a600480803573ffffffffffffffffffffffffffffffffffffffff1690602001909190505062000c4f565b005b34156200034857600080fd5b6200035262000ed3565b604051808273ffffffffffffffffffffffffffffffffffffffff1673ffffffffffffffffffffffffffffffffffffffff16815260200191505060405180910390f35b3415620003a057600080fd5b620003aa62000ef8565b6040518082815260200191505060405180910390f35b3415620003cc57600080fd5b620003d662000efd565b604051808215151515815260200191505060405180910390f35b3415620003fc57600080fd5b6200046c600480803573ffffffffffffffffffffffffffffffffffffffff1690602001909190803590602001909190803567ffffffffffffffff1690602001909190803567ffffffffffffffff1690602001909190803567ffffffffffffffff1690602001909190505062000f10565b005b34156200047a57600080fd5b6200048462000fee565b604051808215151515815260200191505060405180910390f35b3415620004aa57600080fd5b620004d8600480803573ffffffffffffffffffffffffffffffffffffffff1690602001909190505062001001565b005b3415620004e657600080fd5b620004f0620012e9565b6040518082815260200191505060405180910390f35b34156200051257600080fd5b62000582600480803573ffffffffffffffffffffffffffffffffffffffff1690602001909190803590602001909190803567ffffffffffffffff1690602001909190803567ffffffffffffffff1690602001909190803567ffffffffffffffff16906020019091905050620012ee565b005b34156200059057600080fd5b6200059a62001404565b005b3415620005a857600080fd5b620005d6600480803573ffffffffffffffffffffffffffffffffffffffff16906020019091905050620015bb565b005b3415620005e457600080fd5b620005ee62001712565b604051808273ffffffffffffffffffffffffffffffffffffffff1673ffffffffffffffffffffffffffffffffffffffff16815260200191505060405180910390f35b6000809054906101000a900473ffffffffffffffffffffffffffffffffffffffff1673ffffffffffffffffffffffffffffffffffffffff163373ffffffffffffffffffffffffffffffffffffffff161415156200068c57600080fd5b6200069b858585858562001738565b507f3aad916a2bff5f514578c78052f6d99bec67284ae0f70bdc302b8c0341aef0ec8585604051808373ffffffffffffffffffffffffffffffffffffffff1673ffffffffffffffffffffffffffffffffffffffff1681526020018281526020019250505060405180910390a15050505050565b600160179054906101000a900460ff1681565b60008060009054906101000a900473ffffffffffffffffffffffffffffffffffffffff1673ffffffffffffffffffffffffffffffffffffffff163373ffffffffffffffffffffffffffffffffffffffff161415156200077f57600080fd5b600160169054906101000a900460ff1615156200079b57600080fd5b60001515600160149054906101000a900460ff161515141515620007be57600080fd5b62000893606462000884601a600160009054906101000a900473ffffffffffffffffffffffffffffffffffffffff1673ffffffffffffffffffffffffffffffffffffffff16635478bc6b6000604051602001526040518163ffffffff167c0100000000000000000000000000000000000000000000000000000000028152600401602060405180830381600087803b15156200085957600080fd5b6102c65a03f115156200086b57600080fd5b5050506040518051905062001a7b90919063ffffffff16565b62001aba90919063ffffffff16565b9050600160009054906101000a900473ffffffffffffffffffffffffffffffffffffffff1673ffffffffffffffffffffffffffffffffffffffff166340c10f1983836000604051602001526040518363ffffffff167c0100000000000000000000000000000000000000000000000000000000028152600401808373ffffffffffffffffffffffffffffffffffffffff1673ffffffffffffffffffffffffffffffffffffffff16815260200182815260200192505050602060405180830381600087803b15156200096357600080fd5b6102c65a03f115156200097557600080fd5b50505060405180519050507f39c95202838dfc26ec8c1448d6e3c4fe3232bac048f17bde53a2699218b0dba18282604051808373ffffffffffffffffffffffffffffffffffffffff1673ffffffffffffffffffffffffffffffffffffffff1681526020018281526020019250505060405180910390a160018060146101000a81548160ff0219169083151502179055505050565b600160159054906101000a900460ff1681565b60008060009054906101000a900473ffffffffffffffffffffffffffffffffffffffff1673ffffffffffffffffffffffffffffffffffffffff163373ffffffffffffffffffffffffffffffffffffffff1614151562000a7a57600080fd5b62000a89868686868662001738565b90507fb0f05721bdaac3406aa55e4746eac3a4ff327057cf3ede73aa52f5b10f8d9ce8868683604051808473ffffffffffffffffffffffffffffffffffffffff1673ffffffffffffffffffffffffffffffffffffffff1681526020018381526020018273ffffffffffffffffffffffffffffffffffffffff1673ffffffffffffffffffffffffffffffffffffffff168152602001935050505060405180910390a1505050505050565b6000809054906101000a900473ffffffffffffffffffffffffffffffffffffffff1673ffffffffffffffffffffffffffffffffffffffff163373ffffffffffffffffffffffffffffffffffffffff1614151562000b8e57600080fd5b600160009054906101000a900473ffffffffffffffffffffffffffffffffffffffff1673ffffffffffffffffffffffffffffffffffffffff16637d64bcb46000604051602001526040518163ffffffff167c0100000000000000000000000000000000000000000000000000000000028152600401602060405180830381600087803b151562000c1d57600080fd5b6102c65a03f1151562000c2f57600080fd5b5050506040518051905050565b600160169054906101000a900460ff1681565b6000809054906101000a900473ffffffffffffffffffffffffffffffffffffffff1673ffffffffffffffffffffffffffffffffffffffff163373ffffffffffffffffffffffffffffffffffffffff1614151562000cab57600080fd5b60008173ffffffffffffffffffffffffffffffffffffffff161415151562000cd257600080fd5b60001515600160169054906101000a900460ff16151514151562000cf557600080fd5b80600160006101000a81548173ffffffffffffffffffffffffffffffffffffffff021916908373ffffffffffffffffffffffffffffffffffffffff1602179055503073ffffffffffffffffffffffffffffffffffffffff16600160009054906101000a900473ffffffffffffffffffffffffffffffffffffffff1673ffffffffffffffffffffffffffffffffffffffff16638da5cb5b6000604051602001526040518163ffffffff167c0100000000000000000000000000000000000000000000000000000000028152600401602060405180830381600087803b151562000ddc57600080fd5b6102c65a03f1151562000dee57600080fd5b5050506040518051905073ffffffffffffffffffffffffffffffffffffffff1614151562000e1b57600080fd5b600160009054906101000a900473ffffffffffffffffffffffffffffffffffffffff1673ffffffffffffffffffffffffffffffffffffffff16638456cb596040518163ffffffff167c0100000000000000000000000000000000000000000000000000000000028152600401600060405180830381600087803b151562000ea157600080fd5b6102c65a03f1151562000eb357600080fd5b50505060018060166101000a81548160ff02191690831515021790555050565b6000809054906101000a900473ffffffffffffffffffffffffffffffffffffffff1681565b601a81565b600160189054906101000a900460ff1681565b6000809054906101000a900473ffffffffffffffffffffffffffffffffffffffff1673ffffffffffffffffffffffffffffffffffffffff163373ffffffffffffffffffffffffffffffffffffffff1614151562000f6c57600080fd5b62000f7b858585858562001738565b507f805842455fe50ffc5f2c30b97704bbc2c71a46e3b82f851238a0cd6095b2ca4b8585604051808373ffffffffffffffffffffffffffffffffffffffff1673ffffffffffffffffffffffffffffffffffffffff1681526020018281526020019250505060405180910390a15050505050565b600160149054906101000a900460ff1681565b60008060009054906101000a900473ffffffffffffffffffffffffffffffffffffffff1673ffffffffffffffffffffffffffffffffffffffff163373ffffffffffffffffffffffffffffffffffffffff161415156200105f57600080fd5b600160169054906101000a900460ff1615156200107b57600080fd5b60001515600160159054906101000a900460ff1615151415156200109e57600080fd5b620011736064620011646032600160009054906101000a900473ffffffffffffffffffffffffffffffffffffffff1673ffffffffffffffffffffffffffffffffffffffff16635478bc6b6000604051602001526040518163ffffffff167c0100000000000000000000000000000000000000000000000000000000028152600401602060405180830381600087803b15156200113957600080fd5b6102c65a03f115156200114b57600080fd5b5050506040518051905062001a7b90919063ffffffff16565b62001aba90919063ffffffff16565b9050600160009054906101000a900473ffffffffffffffffffffffffffffffffffffffff1673ffffffffffffffffffffffffffffffffffffffff166340c10f1983836000604051602001526040518363ffffffff167c0100000000000000000000000000000000000000000000000000000000028152600401808373ffffffffffffffffffffffffffffffffffffffff1673ffffffffffffffffffffffffffffffffffffffff16815260200182815260200192505050602060405180830381600087803b15156200124357600080fd5b6102c65a03f115156200125557600080fd5b50505060405180519050507f39c95202838dfc26ec8c1448d6e3c4fe3232bac048f17bde53a2699218b0dba18282604051808373ffffffffffffffffffffffffffffffffffffffff1673ffffffffffffffffffffffffffffffffffffffff1681526020018281526020019250505060405180910390a160018060156101000a81548160ff0219169083151502179055505050565b603281565b60008060009054906101000a900473ffffffffffffffffffffffffffffffffffffffff1673ffffffffffffffffffffffffffffffffffffffff163373ffffffffffffffffffffffffffffffffffffffff161415156200134c57600080fd5b6200135b868686868662001738565b90507f7579dc732df5340078dbf68cec63a8e66a9a230b03e2ffef480176079c1bd4a3868683604051808473ffffffffffffffffffffffffffffffffffffffff1673ffffffffffffffffffffffffffffffffffffffff1681526020018381526020018273ffffffffffffffffffffffffffffffffffffffff1673ffffffffffffffffffffffffffffffffffffffff168152602001935050505060405180910390a1505050505050565b6000809054906101000a900473ffffffffffffffffffffffffffffffffffffffff1673ffffffffffffffffffffffffffffffffffffffff163373ffffffffffffffffffffffffffffffffffffffff161415156200146057600080fd5b600160009054906101000a900473ffffffffffffffffffffffffffffffffffffffff1673ffffffffffffffffffffffffffffffffffffffff16633f4ba83a6040518163ffffffff167c0100000000000000000000000000000000000000000000000000000000028152600401600060405180830381600087803b1515620014e657600080fd5b6102c65a03f11515620014f857600080fd5b505050600160009054906101000a900473ffffffffffffffffffffffffffffffffffffffff1673ffffffffffffffffffffffffffffffffffffffff1663f2fde38b61dead6040518263ffffffff167c0100000000000000000000000000000000000000000000000000000000028152600401808273ffffffffffffffffffffffffffffffffffffffff168152602001915050600060405180830381600087803b1515620015a457600080fd5b6102c65a03f11515620015b657600080fd5b505050565b6000809054906101000a900473ffffffffffffffffffffffffffffffffffffffff1673ffffffffffffffffffffffffffffffffffffffff163373ffffffffffffffffffffffffffffffffffffffff161415156200161757600080fd5b600073ffffffffffffffffffffffffffffffffffffffff168173ffffffffffffffffffffffffffffffffffffffff16141515156200165457600080fd5b8073ffffffffffffffffffffffffffffffffffffffff166000809054906101000a900473ffffffffffffffffffffffffffffffffffffffff1673ffffffffffffffffffffffffffffffffffffffff167f8be0079c531659141344cd1fd0a4f28419497f9722a3daafe3b4186f6b6457e060405160405180910390a3806000806101000a81548173ffffffffffffffffffffffffffffffffffffffff021916908373ffffffffffffffffffffffffffffffffffffffff16021790555050565b600160009054906101000a900473ffffffffffffffffffffffffffffffffffffffff1681565b6000806000806000806000600160189054906101000a900460ff1615156200175f57600080fd5b60008c73ffffffffffffffffffffffffffffffffffffffff16141515156200178657600080fd5b60009550620017be6064620017af8a67ffffffffffffffff168e62001a7b90919063ffffffff16565b62001aba90919063ffffffff16565b9450620017d5858c62001ad690919063ffffffff16565b93506000841115620018cd57600160009054906101000a900473ffffffffffffffffffffffffffffffffffffffff1673ffffffffffffffffffffffffffffffffffffffff166340c10f198d866000604051602001526040518363ffffffff167c0100000000000000000000000000000000000000000000000000000000028152600401808373ffffffffffffffffffffffffffffffffffffffff1673ffffffffffffffffffffffffffffffffffffffff16815260200182815260200192505050602060405180830381600087803b1515620018af57600080fd5b6102c65a03f11515620018c157600080fd5b50505060405180519050505b600085111562001a695742925062015180890267ffffffffffffffff169150620151808a0267ffffffffffffffff1690508b83838360006200190e62001af0565b808673ffffffffffffffffffffffffffffffffffffffff1673ffffffffffffffffffffffffffffffffffffffff1681526020018581526020018481526020018381526020018215151515815260200195505050505050604051809103906000f08015156200197b57600080fd5b9550600160009054906101000a900473ffffffffffffffffffffffffffffffffffffffff1673ffffffffffffffffffffffffffffffffffffffff166340c10f1987876000604051602001526040518363ffffffff167c0100000000000000000000000000000000000000000000000000000000028152600401808373ffffffffffffffffffffffffffffffffffffffff1673ffffffffffffffffffffffffffffffffffffffff16815260200182815260200192505050602060405180830381600087803b151562001a4b57600080fd5b6102c65a03f1151562001a5d57600080fd5b50505060405180519050505b85965050505050505095945050505050565b600080600084141562001a92576000915062001ab3565b828402905082848281151562001aa457fe5b0414151562001aaf57fe5b8091505b5092915050565b600080828481151562001ac957fe5b0490508091505092915050565b600082821115151562001ae557fe5b818303905092915050565b604051610f3a8062001b028339019056006060604052341561000f57600080fd5b60405160a080610f3a83398101604052808051906020019091908051906020019091908051906020019091908051906020019091908051906020019091905050336000806101000a81548173ffffffffffffffffffffffffffffffffffffffff021916908373ffffffffffffffffffffffffffffffffffffffff160217905550600073ffffffffffffffffffffffffffffffffffffffff168573ffffffffffffffffffffffffffffffffffffffff16141515156100cb57600080fd5b8183111515156100da57600080fd5b84600160006101000a81548173ffffffffffffffffffffffffffffffffffffffff021916908373ffffffffffffffffffffffffffffffffffffffff16021790555080600560006101000a81548160ff0219169083151502179055508160048190555061015c838561017364010000000002610c27179091906401000000009004565b600281905550836003819055505050505050610191565b600080828401905083811015151561018757fe5b8091505092915050565b610d9a806101a06000396000f3006060604052600436106100c5576000357c0100000000000000000000000000000000000000000000000000000000900463ffffffff1680630fb5a6b4146100ca57806313d033c0146100f35780631726cbc81461011c5780631916558714610169578063384711cc146101a257806338af3eed146101ef57806374a8f10314610244578063872a78101461027d5780638da5cb5b146102aa5780639852595c146102ff578063be9a65551461034c578063f2fde38b14610375578063fa01dc06146103ae575b600080fd5b34156100d557600080fd5b6100dd6103ff565b6040518082815260200191505060405180910390f35b34156100fe57600080fd5b610106610405565b6040518082815260200191505060405180910390f35b341561012757600080fd5b610153600480803573ffffffffffffffffffffffffffffffffffffffff1690602001909190505061040b565b6040518082815260200191505060405180910390f35b341561017457600080fd5b6101a0600480803573ffffffffffffffffffffffffffffffffffffffff1690602001909190505061046e565b005b34156101ad57600080fd5b6101d9600480803573ffffffffffffffffffffffffffffffffffffffff169060200190919050506105a7565b6040518082815260200191505060405180910390f35b34156101fa57600080fd5b610202610793565b604051808273ffffffffffffffffffffffffffffffffffffffff1673ffffffffffffffffffffffffffffffffffffffff16815260200191505060405180910390f35b341561024f57600080fd5b61027b600480803573ffffffffffffffffffffffffffffffffffffffff169060200190919050506107b9565b005b341561028857600080fd5b610290610a43565b604051808215151515815260200191505060405180910390f35b34156102b557600080fd5b6102bd610a56565b604051808273ffffffffffffffffffffffffffffffffffffffff1673ffffffffffffffffffffffffffffffffffffffff16815260200191505060405180910390f35b341561030a57600080fd5b610336600480803573ffffffffffffffffffffffffffffffffffffffff16906020019091905050610a7b565b6040518082815260200191505060405180910390f35b341561035757600080fd5b61035f610a93565b6040518082815260200191505060405180910390f35b341561038057600080fd5b6103ac600480803573ffffffffffffffffffffffffffffffffffffffff16906020019091905050610a99565b005b34156103b957600080fd5b6103e5600480803573ffffffffffffffffffffffffffffffffffffffff16906020019091905050610bee565b604051808215151515815260200191505060405180910390f35b60045481565b60025481565b6000610467600660008473ffffffffffffffffffffffffffffffffffffffff1673ffffffffffffffffffffffffffffffffffffffff16815260200190815260200160002054610459846105a7565b610c0e90919063ffffffff16565b9050919050565b60006104798261040b565b905060008111151561048a57600080fd5b6104dc81600660008573ffffffffffffffffffffffffffffffffffffffff1673ffffffffffffffffffffffffffffffffffffffff16815260200190815260200160002054610c2790919063ffffffff16565b600660008473ffffffffffffffffffffffffffffffffffffffff1673ffffffffffffffffffffffffffffffffffffffff1681526020019081526020016000208190555061056c600160009054906101000a900473ffffffffffffffffffffffffffffffffffffffff16828473ffffffffffffffffffffffffffffffffffffffff16610c459092919063ffffffff16565b7ffb81f9b30d73d830c3544b34d827c08142579ee75710b490bab0b3995468c565816040518082815260200191505060405180910390a15050565b60008060008373ffffffffffffffffffffffffffffffffffffffff166370a08231306000604051602001526040518263ffffffff167c0100000000000000000000000000000000000000000000000000000000028152600401808273ffffffffffffffffffffffffffffffffffffffff1673ffffffffffffffffffffffffffffffffffffffff168152602001915050602060405180830381600087803b151561064f57600080fd5b6102c65a03f1151561066057600080fd5b5050506040518051905091506106be600660008673ffffffffffffffffffffffffffffffffffffffff1673ffffffffffffffffffffffffffffffffffffffff1681526020019081526020016000205483610c2790919063ffffffff16565b90506002544210156106d3576000925061078c565b6106ea600454600354610c2790919063ffffffff16565b421015806107415750600760008573ffffffffffffffffffffffffffffffffffffffff1673ffffffffffffffffffffffffffffffffffffffff16815260200190815260200160002060009054906101000a900460ff165b1561074e5780925061078c565b61078960045461077b61076c60035442610c0e90919063ffffffff16565b84610d1890919063ffffffff16565b610d5390919063ffffffff16565b92505b5050919050565b600160009054906101000a900473ffffffffffffffffffffffffffffffffffffffff1681565b60008060008060009054906101000a900473ffffffffffffffffffffffffffffffffffffffff1673ffffffffffffffffffffffffffffffffffffffff163373ffffffffffffffffffffffffffffffffffffffff1614151561081957600080fd5b600560009054906101000a900460ff16151561083457600080fd5b600760008573ffffffffffffffffffffffffffffffffffffffff1673ffffffffffffffffffffffffffffffffffffffff16815260200190815260200160002060009054906101000a900460ff1615151561088d57600080fd5b8373ffffffffffffffffffffffffffffffffffffffff166370a08231306000604051602001526040518263ffffffff167c0100000000000000000000000000000000000000000000000000000000028152600401808273ffffffffffffffffffffffffffffffffffffffff1673ffffffffffffffffffffffffffffffffffffffff168152602001915050602060405180830381600087803b151561093057600080fd5b6102c65a03f1151561094157600080fd5b5050506040518051905092506109568461040b565b915061096b8284610c0e90919063ffffffff16565b90506001600760008673ffffffffffffffffffffffffffffffffffffffff1673ffffffffffffffffffffffffffffffffffffffff16815260200190815260200160002060006101000a81548160ff021916908315150217905550610a116000809054906101000a900473ffffffffffffffffffffffffffffffffffffffff16828673ffffffffffffffffffffffffffffffffffffffff16610c459092919063ffffffff16565b7f44825a4b2df8acb19ce4e1afba9aa850c8b65cdb7942e2078f27d0b0960efee660405160405180910390a150505050565b600560009054906101000a900460ff1681565b6000809054906101000a900473ffffffffffffffffffffffffffffffffffffffff1681565b60066020528060005260406000206000915090505481565b60035481565b6000809054906101000a900473ffffffffffffffffffffffffffffffffffffffff1673ffffffffffffffffffffffffffffffffffffffff163373ffffffffffffffffffffffffffffffffffffffff16141515610af457600080fd5b600073ffffffffffffffffffffffffffffffffffffffff168173ffffffffffffffffffffffffffffffffffffffff1614151515610b3057600080fd5b8073ffffffffffffffffffffffffffffffffffffffff166000809054906101000a900473ffffffffffffffffffffffffffffffffffffffff1673ffffffffffffffffffffffffffffffffffffffff167f8be0079c531659141344cd1fd0a4f28419497f9722a3daafe3b4186f6b6457e060405160405180910390a3806000806101000a81548173ffffffffffffffffffffffffffffffffffffffff021916908373ffffffffffffffffffffffffffffffffffffffff16021790555050565b60076020528060005260406000206000915054906101000a900460ff1681565b6000828211151515610c1c57fe5b818303905092915050565b6000808284019050838110151515610c3b57fe5b8091505092915050565b8273ffffffffffffffffffffffffffffffffffffffff1663a9059cbb83836000604051602001526040518363ffffffff167c0100000000000000000000000000000000000000000000000000000000028152600401808373ffffffffffffffffffffffffffffffffffffffff1673ffffffffffffffffffffffffffffffffffffffff16815260200182815260200192505050602060405180830381600087803b1515610cf057600080fd5b6102c65a03f11515610d0157600080fd5b505050604051805190501515610d1357fe5b505050565b6000806000841415610d2d5760009150610d4c565b8284029050828482811515610d3e57fe5b04141515610d4857fe5b8091505b5092915050565b6000808284811515610d6157fe5b04905080915050929150505600a165627a7a72305820824339d180b17ed62727360f1f7d000e0806d05a1e5c2684e3d11d447ae2fd270029a165627a7a7230582096263e21ffb5b536ae3e0934914c16f6fff8fac3df5da5f886f67a3aa1198a830029",
  "source": "pragma solidity ^0.4.13;\n\nimport 'zeppelin-solidity/contracts/ownership/Ownable.sol';\nimport 'zeppelin-solidity/contracts/math/SafeMath.sol';\nimport \"./token/PropsToken.sol\";\nimport \"./token/TokenVesting.sol\";\n\n\n/**\n * @title Coordinator for the Token distribution\n * Simple wrapper, allowing us simplify the coordination of the ICO\n * using a MultiSigWallet\n *\n */\n\ncontract TokenDistributionCoordinator is Ownable {\n    using SafeMath for uint256;\n\n    /* Token to manage */\n    PropsToken public token;\n\n    /* Making sure that preallocation for employees is happening once */\n    bool public isPreallocationForEmployeesDone = false;\n\n    /* Making sure that preallocation for foundation is happening once */\n    bool public isPreallocationForFoundationDone = false;\n\n    /* Making sure that we're injecting the token once */\n    bool public isTokenInjected = false;\n\n    /* Making sure that we're injecting the crowdsale once */\n    bool public isCrowdsaleInjected = false;\n\n    /* Is Preallocation Open */\n    bool public isPreallocationOpen = true;\n\n    uint public constant shareForEmployees = 26;\n\n    uint public constant shareForFoundation = 50;\n\n    /* Events */\n    event CompanyAllocation(address beneficiary, uint amount);\n    event FoundationAllocation(address beneficiary, uint amount);\n    event PoolAllocation(address beneficiary, uint amount);\n    event SAFTAllocation(address beneficiary, uint amount, address vestingContract);\n    event AdvisorAllocation(address beneficiary, uint amount, address vestingContract);\n\n    /**\n     * @dev Injecting an externally created token into the coordinator.\n     */\n    function injectToken(address _tokenAddress) public onlyOwner {\n        require(_tokenAddress != 0x0);\n        require(isTokenInjected == false);\n        token = PropsToken(_tokenAddress);\n        require(PropsToken(token).owner() == address(this));\n\n        token.pause();\n        isTokenInjected = true;\n    }\n\n    /**\n     * @dev Pre-allocating tokens for the employees before the crowdsale starts.\n     * Require token injection\n     * Tax optimization.\n     */\n    function preallocateForEmployees(address poolAddress) public onlyOwner {\n        require(isTokenInjected);\n        require(isPreallocationForEmployeesDone == false);\n        uint tokensAmount = token.amountOfTokenToMint().mul(shareForEmployees).div(100);\n        token.mint(poolAddress, tokensAmount);\n        PoolAllocation(poolAddress, tokensAmount);\n        isPreallocationForEmployeesDone = true;\n    }\n\n    /**\n     * @dev Pre-allocating tokens for the foundation before the crowdsale starts.\n     * Require token injection\n     * Tax optimization.\n     */\n    function preallocateForFoundation(address poolAddress) public onlyOwner {\n        require(isTokenInjected);\n        require(isPreallocationForFoundationDone == false);\n        uint tokensAmount = token.amountOfTokenToMint().mul(shareForFoundation).div(100);\n        token.mint(poolAddress, tokensAmount);\n        PoolAllocation(poolAddress, tokensAmount);\n        isPreallocationForFoundationDone = true;\n    }\n\n    /**\n     * @dev Pre-allocating tokens\n     */\n    function allocateTokens(address _investor, uint _tokensVolume, uint64 _vestingDuration, uint64 _vestingCliff, uint64 _percentageToVest) internal returns (address) {\n        require(isPreallocationOpen);\n        require(_investor != 0x0);\n\n        address vestingContract = 0x0;\n\n        uint256 tokensToVest = _tokensVolume.mul(_percentageToVest).div(100);\n        uint256 tokensToGrant = _tokensVolume.sub(tokensToVest);\n\n        if (tokensToGrant > 0) {\n            token.mint(_investor, tokensToGrant);\n        }\n        if (tokensToVest > 0) {\n          uint256 vestingStart = now;\n          uint256 vestingCliff = _vestingCliff * 1 days;\n          uint256 vestingDuration = _vestingDuration * 1 days;\n          vestingContract = address(new TokenVesting(\n              _investor,\n              vestingStart,\n              vestingCliff,\n              vestingDuration,\n              false\n          ));\n          token.mint(vestingContract, tokensToVest);\n        }\n\n        return vestingContract;\n    }\n\n    /**\n     * @dev Pre-allocating tokens to Company.\n     */\n    function allocateTokensToCompany(address _investor, uint _tokensVolume, uint64 _vestingDuration, uint64 _vestingCliff, uint64 _percentageToVest) public onlyOwner {\n        allocateTokens(_investor, _tokensVolume, _vestingDuration, _vestingCliff, _percentageToVest);\n        CompanyAllocation(_investor, _tokensVolume);\n    }\n\n    /**\n     * @dev Pre-allocating tokens to Foundation.\n     */\n    function allocateTokensToFoundation(address _investor, uint _tokensVolume, uint64 _vestingDuration, uint64 _vestingCliff, uint64 _percentageToVest) public onlyOwner {\n        allocateTokens(_investor, _tokensVolume, _vestingDuration, _vestingCliff, _percentageToVest);\n        FoundationAllocation(_investor, _tokensVolume);\n    }\n\n    /**\n     * @dev Pre-allocating tokens to SAFT Investor.\n     */\n    function allocateTokensToSAFTInvestor(address _investor, uint _tokensVolume, uint64 _vestingDuration, uint64 _vestingCliff, uint64 _percentageToVest) public onlyOwner {\n        address vestingContract = allocateTokens(_investor, _tokensVolume, _vestingDuration, _vestingCliff, _percentageToVest);\n        SAFTAllocation(_investor, _tokensVolume, vestingContract);\n    }\n\n    /**\n     * @dev Pre-allocating tokens to Advisor.\n     */\n    function allocateTokensToAdvisor(address _investor, uint _tokensVolume, uint64 _vestingDuration, uint64 _vestingCliff, uint64 _percentageToVest) public onlyOwner {\n        address vestingContract = allocateTokens(_investor, _tokensVolume, _vestingDuration, _vestingCliff, _percentageToVest);\n        AdvisorAllocation(_investor, _tokensVolume, vestingContract);\n    }\n\n    function closeMinting() public onlyOwner {\n        token.finishMinting();\n    }\n\n    function releaseToken() public onlyOwner {\n        token.unpause();\n        token.transferOwnership(0x000000000000000000000000000000000000dead);\n    }\n}\n",
  "sourcePath": "/Users/ludovic/Coding/younow/cryptocurrency/props-tde/contracts/TokenDistributionCoordinator.sol",
  "compiler": {
    "name": "solc",
    "version": "0.4.18+commit.9cf6e910.Emscripten.clang"
  },
  "schemaVersion": "1.0.1",
  "updatedAt": "2018-01-12T19:54:50.015Z"
}