{
  "contractName": "TokenDistributionCoordinator",
  "abi": [
    {
      "constant": true,
      "inputs": [],
      "name": "isCrowdsaleInjected",
      "outputs": [
        {
          "name": "",
          "type": "bool"
        }
      ],
      "payable": false,
      "stateMutability": "view",
      "type": "function"
    },
    {
      "constant": true,
      "inputs": [],
      "name": "isPreallocationForFoundationDone",
      "outputs": [
        {
          "name": "",
          "type": "bool"
        }
      ],
      "payable": false,
      "stateMutability": "view",
      "type": "function"
    },
    {
      "constant": true,
      "inputs": [],
      "name": "isTokenInjected",
      "outputs": [
        {
          "name": "",
          "type": "bool"
        }
      ],
      "payable": false,
      "stateMutability": "view",
      "type": "function"
    },
    {
      "constant": true,
      "inputs": [],
      "name": "owner",
      "outputs": [
        {
          "name": "",
          "type": "address"
        }
      ],
      "payable": false,
      "stateMutability": "view",
      "type": "function"
    },
    {
      "constant": true,
      "inputs": [],
      "name": "shareForEmployees",
      "outputs": [
        {
          "name": "",
          "type": "uint256"
        }
      ],
      "payable": false,
      "stateMutability": "view",
      "type": "function"
    },
    {
      "constant": true,
      "inputs": [],
      "name": "isPreallocationOpen",
      "outputs": [
        {
          "name": "",
          "type": "bool"
        }
      ],
      "payable": false,
      "stateMutability": "view",
      "type": "function"
    },
    {
      "constant": true,
      "inputs": [],
      "name": "isPreallocationForEmployeesDone",
      "outputs": [
        {
          "name": "",
          "type": "bool"
        }
      ],
      "payable": false,
      "stateMutability": "view",
      "type": "function"
    },
    {
      "constant": true,
      "inputs": [],
      "name": "shareForFoundation",
      "outputs": [
        {
          "name": "",
          "type": "uint256"
        }
      ],
      "payable": false,
      "stateMutability": "view",
      "type": "function"
    },
    {
      "constant": false,
      "inputs": [
        {
          "name": "newOwner",
          "type": "address"
        }
      ],
      "name": "transferOwnership",
      "outputs": [],
      "payable": false,
      "stateMutability": "nonpayable",
      "type": "function"
    },
    {
      "constant": true,
      "inputs": [],
      "name": "token",
      "outputs": [
        {
          "name": "",
          "type": "address"
        }
      ],
      "payable": false,
      "stateMutability": "view",
      "type": "function"
    },
    {
      "anonymous": false,
      "inputs": [
        {
          "indexed": false,
          "name": "beneficiary",
          "type": "address"
        },
        {
          "indexed": false,
          "name": "amount",
          "type": "uint256"
        }
      ],
      "name": "CompanyAllocation",
      "type": "event"
    },
    {
      "anonymous": false,
      "inputs": [
        {
          "indexed": false,
          "name": "beneficiary",
          "type": "address"
        },
        {
          "indexed": false,
          "name": "amount",
          "type": "uint256"
        }
      ],
      "name": "FoundationAllocation",
      "type": "event"
    },
    {
      "anonymous": false,
      "inputs": [
        {
          "indexed": false,
          "name": "beneficiary",
          "type": "address"
        },
        {
          "indexed": false,
          "name": "amount",
          "type": "uint256"
        }
      ],
      "name": "PoolAllocation",
      "type": "event"
    },
    {
      "anonymous": false,
      "inputs": [
        {
          "indexed": false,
          "name": "beneficiary",
          "type": "address"
        },
        {
          "indexed": false,
          "name": "amount",
          "type": "uint256"
        },
        {
          "indexed": false,
          "name": "vestingContract",
          "type": "address"
        }
      ],
      "name": "SAFTAllocation",
      "type": "event"
    },
    {
      "anonymous": false,
      "inputs": [
        {
          "indexed": false,
          "name": "beneficiary",
          "type": "address"
        },
        {
          "indexed": false,
          "name": "amount",
          "type": "uint256"
        },
        {
          "indexed": false,
          "name": "vestingContract",
          "type": "address"
        }
      ],
      "name": "AdvisorAllocation",
      "type": "event"
    },
    {
      "anonymous": false,
      "inputs": [
        {
          "indexed": true,
          "name": "previousOwner",
          "type": "address"
        },
        {
          "indexed": true,
          "name": "newOwner",
          "type": "address"
        }
      ],
      "name": "OwnershipTransferred",
      "type": "event"
    },
    {
      "constant": false,
      "inputs": [
        {
          "name": "_tokenAddress",
          "type": "address"
        }
      ],
      "name": "injectToken",
      "outputs": [],
      "payable": false,
      "stateMutability": "nonpayable",
      "type": "function"
    },
    {
      "constant": false,
      "inputs": [
        {
          "name": "poolAddress",
          "type": "address"
        }
      ],
      "name": "preallocateForEmployees",
      "outputs": [],
      "payable": false,
      "stateMutability": "nonpayable",
      "type": "function"
    },
    {
      "constant": false,
      "inputs": [
        {
          "name": "poolAddress",
          "type": "address"
        }
      ],
      "name": "preallocateForFoundation",
      "outputs": [],
      "payable": false,
      "stateMutability": "nonpayable",
      "type": "function"
    },
    {
      "constant": false,
      "inputs": [
        {
          "name": "_investor",
          "type": "address"
        },
        {
          "name": "_tokensVolume",
          "type": "uint256"
        },
        {
          "name": "_vestingDuration",
          "type": "uint64"
        },
        {
          "name": "_vestingCliff",
          "type": "uint64"
        },
        {
          "name": "_percentageToVest",
          "type": "uint64"
        }
      ],
      "name": "allocateTokensToCompany",
      "outputs": [],
      "payable": false,
      "stateMutability": "nonpayable",
      "type": "function"
    },
    {
      "constant": false,
      "inputs": [
        {
          "name": "_investor",
          "type": "address"
        },
        {
          "name": "_tokensVolume",
          "type": "uint256"
        },
        {
          "name": "_vestingDuration",
          "type": "uint64"
        },
        {
          "name": "_vestingCliff",
          "type": "uint64"
        },
        {
          "name": "_percentageToVest",
          "type": "uint64"
        }
      ],
      "name": "allocateTokensToFoundation",
      "outputs": [],
      "payable": false,
      "stateMutability": "nonpayable",
      "type": "function"
    },
    {
      "constant": false,
      "inputs": [
        {
          "name": "_investor",
          "type": "address"
        },
        {
          "name": "_tokensVolume",
          "type": "uint256"
        },
        {
          "name": "_vestingDuration",
          "type": "uint64"
        },
        {
          "name": "_vestingCliff",
          "type": "uint64"
        },
        {
          "name": "_percentageToVest",
          "type": "uint64"
        }
      ],
      "name": "allocateTokensToSAFTInvestor",
      "outputs": [],
      "payable": false,
      "stateMutability": "nonpayable",
      "type": "function"
    },
    {
      "constant": false,
      "inputs": [
        {
          "name": "_investor",
          "type": "address"
        },
        {
          "name": "_tokensVolume",
          "type": "uint256"
        },
        {
          "name": "_vestingDuration",
          "type": "uint64"
        },
        {
          "name": "_vestingCliff",
          "type": "uint64"
        },
        {
          "name": "_percentageToVest",
          "type": "uint64"
        }
      ],
      "name": "allocateTokensToAdvisor",
      "outputs": [],
      "payable": false,
      "stateMutability": "nonpayable",
      "type": "function"
    },
    {
      "constant": false,
      "inputs": [
        {
          "name": "_isWhitelistOnly",
          "type": "bool"
        }
      ],
      "name": "setWhitelistedOnly",
      "outputs": [],
      "payable": false,
      "stateMutability": "nonpayable",
      "type": "function"
    },
    {
      "constant": false,
      "inputs": [
        {
          "name": "_user",
          "type": "address"
        }
      ],
      "name": "whitelistUserForTransfers",
      "outputs": [],
      "payable": false,
      "stateMutability": "nonpayable",
      "type": "function"
    },
    {
      "constant": false,
      "inputs": [
        {
          "name": "_user",
          "type": "address"
        }
      ],
      "name": "blacklistUserForTransfers",
      "outputs": [],
      "payable": false,
      "stateMutability": "nonpayable",
      "type": "function"
    },
    {
      "constant": false,
      "inputs": [],
      "name": "unpauseToken",
      "outputs": [],
      "payable": false,
      "stateMutability": "nonpayable",
      "type": "function"
    },
    {
      "constant": false,
      "inputs": [],
      "name": "pauseToken",
      "outputs": [],
      "payable": false,
      "stateMutability": "nonpayable",
      "type": "function"
    },
    {
      "constant": false,
      "inputs": [],
      "name": "closeMinting",
      "outputs": [],
      "payable": false,
      "stateMutability": "nonpayable",
      "type": "function"
    },
    {
      "constant": false,
      "inputs": [],
      "name": "releaseToken",
      "outputs": [],
      "payable": false,
      "stateMutability": "nonpayable",
      "type": "function"
    }
  ],
  "bytecode": "0x60806040526000600160146101000a81548160ff0219169083151502179055506000600160156101000a81548160ff0219169083151502179055506000600160166101000a81548160ff0219169083151502179055506000600160176101000a81548160ff02191690831515021790555060018060186101000a81548160ff021916908315150217905550336000806101000a81548173ffffffffffffffffffffffffffffffffffffffff021916908373ffffffffffffffffffffffffffffffffffffffff160217905550613305806100d96000396000f30060806040526004361062000157576000357c0100000000000000000000000000000000000000000000000000000000900463ffffffff1680630653d664146200015c578063260d387b14620001e85780632c349627146200022e5780634ef2b596146200024857806350669a03146200027a5780635556689f1462000294578063580b39d314620002da5780635c590570146200030c57806387491c601462000398578063899b7d0b14620003b257806389de63da14620003e45780638da5cb5b146200042a57806397ac188214620004845780639816c81814620004b25780639f40f1a914620004e4578063a157696b1462000570578063a393cafd14620005a2578063b586791c14620005d4578063bff8f6cd146200061a578063c20d6a6e1462000648578063ec715a3114620006d4578063f2fde38b14620006ee578063fb37baa11462000734578063fc0c546a146200077a575b600080fd5b3480156200016957600080fd5b50620001e6600480360381019080803573ffffffffffffffffffffffffffffffffffffffff16906020019092919080359060200190929190803567ffffffffffffffff169060200190929190803567ffffffffffffffff169060200190929190803567ffffffffffffffff169060200190929190505050620007d4565b005b348015620001f557600080fd5b506200022c600480360381019080803573ffffffffffffffffffffffffffffffffffffffff169060200190929190505050620008b2565b005b3480156200023b57600080fd5b5062000246620009e8565b005b3480156200025557600080fd5b506200026062000ae6565b604051808215151515815260200191505060405180910390f35b3480156200028757600080fd5b506200029262000af9565b005b348015620002a157600080fd5b50620002d8600480360381019080803573ffffffffffffffffffffffffffffffffffffffff16906020019092919050505062000bf7565b005b348015620002e757600080fd5b50620002f262000f11565b604051808215151515815260200191505060405180910390f35b3480156200031957600080fd5b5062000396600480360381019080803573ffffffffffffffffffffffffffffffffffffffff16906020019092919080359060200190929190803567ffffffffffffffff169060200190929190803567ffffffffffffffff169060200190929190803567ffffffffffffffff16906020019092919050505062000f24565b005b348015620003a557600080fd5b50620003b06200103a565b005b348015620003bf57600080fd5b50620003ca6200115d565b604051808215151515815260200191505060405180910390f35b348015620003f157600080fd5b5062000428600480360381019080803573ffffffffffffffffffffffffffffffffffffffff16906020019092919050505062001170565b005b3480156200043757600080fd5b506200044262001412565b604051808273ffffffffffffffffffffffffffffffffffffffff1673ffffffffffffffffffffffffffffffffffffffff16815260200191505060405180910390f35b3480156200049157600080fd5b506200049c62001437565b6040518082815260200191505060405180910390f35b348015620004bf57600080fd5b50620004ca6200143c565b604051808215151515815260200191505060405180910390f35b348015620004f157600080fd5b506200056e600480360381019080803573ffffffffffffffffffffffffffffffffffffffff16906020019092919080359060200190929190803567ffffffffffffffff169060200190929190803567ffffffffffffffff169060200190929190803567ffffffffffffffff1690602001909291905050506200144f565b005b3480156200057d57600080fd5b50620005a06004803603810190808035151590602001909291905050506200152d565b005b348015620005af57600080fd5b50620005ba6200163b565b604051808215151515815260200191505060405180910390f35b348015620005e157600080fd5b5062000618600480360381019080803573ffffffffffffffffffffffffffffffffffffffff1690602001909291905050506200164e565b005b3480156200062757600080fd5b506200063262001968565b6040518082815260200191505060405180910390f35b3480156200065557600080fd5b50620006d2600480360381019080803573ffffffffffffffffffffffffffffffffffffffff16906020019092919080359060200190929190803567ffffffffffffffff169060200190929190803567ffffffffffffffff169060200190929190803567ffffffffffffffff1690602001909291905050506200196d565b005b348015620006e157600080fd5b50620006ec62001a83565b005b348015620006fb57600080fd5b5062000732600480360381019080803573ffffffffffffffffffffffffffffffffffffffff16906020019092919050505062001c44565b005b3480156200074157600080fd5b5062000778600480360381019080803573ffffffffffffffffffffffffffffffffffffffff16906020019092919050505062001d9b565b005b3480156200078757600080fd5b506200079262001ed1565b604051808273ffffffffffffffffffffffffffffffffffffffff1673ffffffffffffffffffffffffffffffffffffffff16815260200191505060405180910390f35b6000809054906101000a900473ffffffffffffffffffffffffffffffffffffffff1673ffffffffffffffffffffffffffffffffffffffff163373ffffffffffffffffffffffffffffffffffffffff161415156200083057600080fd5b6200083f858585858562001ef7565b507f3aad916a2bff5f514578c78052f6d99bec67284ae0f70bdc302b8c0341aef0ec8585604051808373ffffffffffffffffffffffffffffffffffffffff1673ffffffffffffffffffffffffffffffffffffffff1681526020018281526020019250505060405180910390a15050505050565b6000809054906101000a900473ffffffffffffffffffffffffffffffffffffffff1673ffffffffffffffffffffffffffffffffffffffff163373ffffffffffffffffffffffffffffffffffffffff161415156200090e57600080fd5b600160009054906101000a900473ffffffffffffffffffffffffffffffffffffffff1673ffffffffffffffffffffffffffffffffffffffff1663260d387b826040518263ffffffff167c0100000000000000000000000000000000000000000000000000000000028152600401808273ffffffffffffffffffffffffffffffffffffffff1673ffffffffffffffffffffffffffffffffffffffff168152602001915050600060405180830381600087803b158015620009cc57600080fd5b505af1158015620009e1573d6000803e3d6000fd5b5050505050565b6000809054906101000a900473ffffffffffffffffffffffffffffffffffffffff1673ffffffffffffffffffffffffffffffffffffffff163373ffffffffffffffffffffffffffffffffffffffff1614151562000a4457600080fd5b600160009054906101000a900473ffffffffffffffffffffffffffffffffffffffff1673ffffffffffffffffffffffffffffffffffffffff16638456cb596040518163ffffffff167c0100000000000000000000000000000000000000000000000000000000028152600401600060405180830381600087803b15801562000acb57600080fd5b505af115801562000ae0573d6000803e3d6000fd5b50505050565b600160179054906101000a900460ff1681565b6000809054906101000a900473ffffffffffffffffffffffffffffffffffffffff1673ffffffffffffffffffffffffffffffffffffffff163373ffffffffffffffffffffffffffffffffffffffff1614151562000b5557600080fd5b600160009054906101000a900473ffffffffffffffffffffffffffffffffffffffff1673ffffffffffffffffffffffffffffffffffffffff16633f4ba83a6040518163ffffffff167c0100000000000000000000000000000000000000000000000000000000028152600401600060405180830381600087803b15801562000bdc57600080fd5b505af115801562000bf1573d6000803e3d6000fd5b50505050565b60008060009054906101000a900473ffffffffffffffffffffffffffffffffffffffff1673ffffffffffffffffffffffffffffffffffffffff163373ffffffffffffffffffffffffffffffffffffffff1614151562000c5557600080fd5b600160169054906101000a900460ff16151562000c7157600080fd5b60001515600160149054906101000a900460ff16151514151562000c9457600080fd5b62000d82606462000d73601a600160009054906101000a900473ffffffffffffffffffffffffffffffffffffffff1673ffffffffffffffffffffffffffffffffffffffff16635478bc6b6040518163ffffffff167c0100000000000000000000000000000000000000000000000000000000028152600401602060405180830381600087803b15801562000d2757600080fd5b505af115801562000d3c573d6000803e3d6000fd5b505050506040513d602081101562000d5357600080fd5b81019080805190602001909291905050506200227390919063ffffffff16565b620022b290919063ffffffff16565b9050600160009054906101000a900473ffffffffffffffffffffffffffffffffffffffff1673ffffffffffffffffffffffffffffffffffffffff166340c10f1983836040518363ffffffff167c0100000000000000000000000000000000000000000000000000000000028152600401808373ffffffffffffffffffffffffffffffffffffffff1673ffffffffffffffffffffffffffffffffffffffff16815260200182815260200192505050602060405180830381600087803b15801562000e4a57600080fd5b505af115801562000e5f573d6000803e3d6000fd5b505050506040513d602081101562000e7657600080fd5b8101908080519060200190929190505050507f39c95202838dfc26ec8c1448d6e3c4fe3232bac048f17bde53a2699218b0dba18282604051808373ffffffffffffffffffffffffffffffffffffffff1673ffffffffffffffffffffffffffffffffffffffff1681526020018281526020019250505060405180910390a160018060146101000a81548160ff0219169083151502179055505050565b600160159054906101000a900460ff1681565b60008060009054906101000a900473ffffffffffffffffffffffffffffffffffffffff1673ffffffffffffffffffffffffffffffffffffffff163373ffffffffffffffffffffffffffffffffffffffff1614151562000f8257600080fd5b62000f91868686868662001ef7565b90507fb0f05721bdaac3406aa55e4746eac3a4ff327057cf3ede73aa52f5b10f8d9ce8868683604051808473ffffffffffffffffffffffffffffffffffffffff1673ffffffffffffffffffffffffffffffffffffffff1681526020018381526020018273ffffffffffffffffffffffffffffffffffffffff1673ffffffffffffffffffffffffffffffffffffffff168152602001935050505060405180910390a1505050505050565b6000809054906101000a900473ffffffffffffffffffffffffffffffffffffffff1673ffffffffffffffffffffffffffffffffffffffff163373ffffffffffffffffffffffffffffffffffffffff161415156200109657600080fd5b600160009054906101000a900473ffffffffffffffffffffffffffffffffffffffff1673ffffffffffffffffffffffffffffffffffffffff16637d64bcb46040518163ffffffff167c0100000000000000000000000000000000000000000000000000000000028152600401602060405180830381600087803b1580156200111d57600080fd5b505af115801562001132573d6000803e3d6000fd5b505050506040513d60208110156200114957600080fd5b810190808051906020019092919050505050565b600160169054906101000a900460ff1681565b6000809054906101000a900473ffffffffffffffffffffffffffffffffffffffff1673ffffffffffffffffffffffffffffffffffffffff163373ffffffffffffffffffffffffffffffffffffffff16141515620011cc57600080fd5b60008173ffffffffffffffffffffffffffffffffffffffff1614151515620011f357600080fd5b60001515600160169054906101000a900460ff1615151415156200121657600080fd5b80600160006101000a81548173ffffffffffffffffffffffffffffffffffffffff021916908373ffffffffffffffffffffffffffffffffffffffff1602179055503073ffffffffffffffffffffffffffffffffffffffff16600160009054906101000a900473ffffffffffffffffffffffffffffffffffffffff1673ffffffffffffffffffffffffffffffffffffffff16638da5cb5b6040518163ffffffff167c0100000000000000000000000000000000000000000000000000000000028152600401602060405180830381600087803b158015620012f557600080fd5b505af11580156200130a573d6000803e3d6000fd5b505050506040513d60208110156200132157600080fd5b810190808051906020019092919050505073ffffffffffffffffffffffffffffffffffffffff161415156200135557600080fd5b600160009054906101000a900473ffffffffffffffffffffffffffffffffffffffff1673ffffffffffffffffffffffffffffffffffffffff16638456cb596040518163ffffffff167c0100000000000000000000000000000000000000000000000000000000028152600401600060405180830381600087803b158015620013dc57600080fd5b505af1158015620013f1573d6000803e3d6000fd5b5050505060018060166101000a81548160ff02191690831515021790555050565b6000809054906101000a900473ffffffffffffffffffffffffffffffffffffffff1681565b601a81565b600160189054906101000a900460ff1681565b6000809054906101000a900473ffffffffffffffffffffffffffffffffffffffff1673ffffffffffffffffffffffffffffffffffffffff163373ffffffffffffffffffffffffffffffffffffffff16141515620014ab57600080fd5b620014ba858585858562001ef7565b507f805842455fe50ffc5f2c30b97704bbc2c71a46e3b82f851238a0cd6095b2ca4b8585604051808373ffffffffffffffffffffffffffffffffffffffff1673ffffffffffffffffffffffffffffffffffffffff1681526020018281526020019250505060405180910390a15050505050565b6000809054906101000a900473ffffffffffffffffffffffffffffffffffffffff1673ffffffffffffffffffffffffffffffffffffffff163373ffffffffffffffffffffffffffffffffffffffff161415156200158957600080fd5b600160009054906101000a900473ffffffffffffffffffffffffffffffffffffffff1673ffffffffffffffffffffffffffffffffffffffff1663a157696b826040518263ffffffff167c01000000000000000000000000000000000000000000000000000000000281526004018082151515158152602001915050600060405180830381600087803b1580156200161f57600080fd5b505af115801562001634573d6000803e3d6000fd5b5050505050565b600160149054906101000a900460ff1681565b60008060009054906101000a900473ffffffffffffffffffffffffffffffffffffffff1673ffffffffffffffffffffffffffffffffffffffff163373ffffffffffffffffffffffffffffffffffffffff16141515620016ac57600080fd5b600160169054906101000a900460ff161515620016c857600080fd5b60001515600160159054906101000a900460ff161515141515620016eb57600080fd5b620017d96064620017ca6032600160009054906101000a900473ffffffffffffffffffffffffffffffffffffffff1673ffffffffffffffffffffffffffffffffffffffff16635478bc6b6040518163ffffffff167c0100000000000000000000000000000000000000000000000000000000028152600401602060405180830381600087803b1580156200177e57600080fd5b505af115801562001793573d6000803e3d6000fd5b505050506040513d6020811015620017aa57600080fd5b81019080805190602001909291905050506200227390919063ffffffff16565b620022b290919063ffffffff16565b9050600160009054906101000a900473ffffffffffffffffffffffffffffffffffffffff1673ffffffffffffffffffffffffffffffffffffffff166340c10f1983836040518363ffffffff167c0100000000000000000000000000000000000000000000000000000000028152600401808373ffffffffffffffffffffffffffffffffffffffff1673ffffffffffffffffffffffffffffffffffffffff16815260200182815260200192505050602060405180830381600087803b158015620018a157600080fd5b505af1158015620018b6573d6000803e3d6000fd5b505050506040513d6020811015620018cd57600080fd5b8101908080519060200190929190505050507f39c95202838dfc26ec8c1448d6e3c4fe3232bac048f17bde53a2699218b0dba18282604051808373ffffffffffffffffffffffffffffffffffffffff1673ffffffffffffffffffffffffffffffffffffffff1681526020018281526020019250505060405180910390a160018060156101000a81548160ff0219169083151502179055505050565b603281565b60008060009054906101000a900473ffffffffffffffffffffffffffffffffffffffff1673ffffffffffffffffffffffffffffffffffffffff163373ffffffffffffffffffffffffffffffffffffffff16141515620019cb57600080fd5b620019da868686868662001ef7565b90507f7579dc732df5340078dbf68cec63a8e66a9a230b03e2ffef480176079c1bd4a3868683604051808473ffffffffffffffffffffffffffffffffffffffff1673ffffffffffffffffffffffffffffffffffffffff1681526020018381526020018273ffffffffffffffffffffffffffffffffffffffff1673ffffffffffffffffffffffffffffffffffffffff168152602001935050505060405180910390a1505050505050565b6000809054906101000a900473ffffffffffffffffffffffffffffffffffffffff1673ffffffffffffffffffffffffffffffffffffffff163373ffffffffffffffffffffffffffffffffffffffff1614151562001adf57600080fd5b600160009054906101000a900473ffffffffffffffffffffffffffffffffffffffff1673ffffffffffffffffffffffffffffffffffffffff16633f4ba83a6040518163ffffffff167c0100000000000000000000000000000000000000000000000000000000028152600401600060405180830381600087803b15801562001b6657600080fd5b505af115801562001b7b573d6000803e3d6000fd5b50505050600160009054906101000a900473ffffffffffffffffffffffffffffffffffffffff1673ffffffffffffffffffffffffffffffffffffffff1663f2fde38b61dead6040518263ffffffff167c0100000000000000000000000000000000000000000000000000000000028152600401808273ffffffffffffffffffffffffffffffffffffffff168152602001915050600060405180830381600087803b15801562001c2957600080fd5b505af115801562001c3e573d6000803e3d6000fd5b50505050565b6000809054906101000a900473ffffffffffffffffffffffffffffffffffffffff1673ffffffffffffffffffffffffffffffffffffffff163373ffffffffffffffffffffffffffffffffffffffff1614151562001ca057600080fd5b600073ffffffffffffffffffffffffffffffffffffffff168173ffffffffffffffffffffffffffffffffffffffff161415151562001cdd57600080fd5b8073ffffffffffffffffffffffffffffffffffffffff166000809054906101000a900473ffffffffffffffffffffffffffffffffffffffff1673ffffffffffffffffffffffffffffffffffffffff167f8be0079c531659141344cd1fd0a4f28419497f9722a3daafe3b4186f6b6457e060405160405180910390a3806000806101000a81548173ffffffffffffffffffffffffffffffffffffffff021916908373ffffffffffffffffffffffffffffffffffffffff16021790555050565b6000809054906101000a900473ffffffffffffffffffffffffffffffffffffffff1673ffffffffffffffffffffffffffffffffffffffff163373ffffffffffffffffffffffffffffffffffffffff1614151562001df757600080fd5b600160009054906101000a900473ffffffffffffffffffffffffffffffffffffffff1673ffffffffffffffffffffffffffffffffffffffff1663fb37baa1826040518263ffffffff167c0100000000000000000000000000000000000000000000000000000000028152600401808273ffffffffffffffffffffffffffffffffffffffff1673ffffffffffffffffffffffffffffffffffffffff168152602001915050600060405180830381600087803b15801562001eb557600080fd5b505af115801562001eca573d6000803e3d6000fd5b5050505050565b600160009054906101000a900473ffffffffffffffffffffffffffffffffffffffff1681565b6000806000806000806000600160189054906101000a900460ff16151562001f1e57600080fd5b60008c73ffffffffffffffffffffffffffffffffffffffff161415151562001f4557600080fd5b6000955062001f7d606462001f6e8a67ffffffffffffffff168e6200227390919063ffffffff16565b620022b290919063ffffffff16565b945062001f94858c620022ce90919063ffffffff16565b93506000841115620020a557600160009054906101000a900473ffffffffffffffffffffffffffffffffffffffff1673ffffffffffffffffffffffffffffffffffffffff166340c10f198d866040518363ffffffff167c0100000000000000000000000000000000000000000000000000000000028152600401808373ffffffffffffffffffffffffffffffffffffffff1673ffffffffffffffffffffffffffffffffffffffff16815260200182815260200192505050602060405180830381600087803b1580156200206657600080fd5b505af11580156200207b573d6000803e3d6000fd5b505050506040513d60208110156200209257600080fd5b8101908080519060200190929190505050505b6000851115620022615742925062015180890267ffffffffffffffff169150620151808a0267ffffffffffffffff1690508b8383836000620020e6620022e8565b808673ffffffffffffffffffffffffffffffffffffffff1673ffffffffffffffffffffffffffffffffffffffff1681526020018581526020018481526020018381526020018215151515815260200195505050505050604051809103906000f08015801562002159573d6000803e3d6000fd5b509550600160009054906101000a900473ffffffffffffffffffffffffffffffffffffffff1673ffffffffffffffffffffffffffffffffffffffff166340c10f1987876040518363ffffffff167c0100000000000000000000000000000000000000000000000000000000028152600401808373ffffffffffffffffffffffffffffffffffffffff1673ffffffffffffffffffffffffffffffffffffffff16815260200182815260200192505050602060405180830381600087803b1580156200222257600080fd5b505af115801562002237573d6000803e3d6000fd5b505050506040513d60208110156200224e57600080fd5b8101908080519060200190929190505050505b85965050505050505095945050505050565b60008060008414156200228a5760009150620022ab565b82840290508284828115156200229c57fe5b04141515620022a757fe5b8091505b5092915050565b6000808284811515620022c157fe5b0490508091505092915050565b6000828211151515620022dd57fe5b818303905092915050565b604051610fe080620022fa833901905600608060405234801561001057600080fd5b5060405160a080610fe08339810180604052810190808051906020019092919080519060200190929190805190602001909291908051906020019092919080519060200190929190505050336000806101000a81548173ffffffffffffffffffffffffffffffffffffffff021916908373ffffffffffffffffffffffffffffffffffffffff160217905550600073ffffffffffffffffffffffffffffffffffffffff168573ffffffffffffffffffffffffffffffffffffffff16141515156100d757600080fd5b8183111515156100e657600080fd5b84600160006101000a81548173ffffffffffffffffffffffffffffffffffffffff021916908373ffffffffffffffffffffffffffffffffffffffff16021790555080600560006101000a81548160ff02191690831515021790555081600481905550610168838561017f64010000000002610ca9179091906401000000009004565b60028190555083600381905550505050505061019d565b600080828401905083811015151561019357fe5b8091505092915050565b610e34806101ac6000396000f3006080604052600436106100c5576000357c0100000000000000000000000000000000000000000000000000000000900463ffffffff1680630fb5a6b4146100ca57806313d033c0146100f55780631726cbc8146101205780631916558714610177578063384711cc146101ba57806338af3eed1461021157806374a8f10314610268578063872a7810146102ab5780638da5cb5b146102da5780639852595c14610331578063be9a655514610388578063f2fde38b146103b3578063fa01dc06146103f6575b600080fd5b3480156100d657600080fd5b506100df610451565b6040518082815260200191505060405180910390f35b34801561010157600080fd5b5061010a610457565b6040518082815260200191505060405180910390f35b34801561012c57600080fd5b50610161600480360381019080803573ffffffffffffffffffffffffffffffffffffffff16906020019092919050505061045d565b6040518082815260200191505060405180910390f35b34801561018357600080fd5b506101b8600480360381019080803573ffffffffffffffffffffffffffffffffffffffff1690602001909291905050506104c0565b005b3480156101c657600080fd5b506101fb600480360381019080803573ffffffffffffffffffffffffffffffffffffffff1690602001909291905050506105f9565b6040518082815260200191505060405180910390f35b34801561021d57600080fd5b506102266107fd565b604051808273ffffffffffffffffffffffffffffffffffffffff1673ffffffffffffffffffffffffffffffffffffffff16815260200191505060405180910390f35b34801561027457600080fd5b506102a9600480360381019080803573ffffffffffffffffffffffffffffffffffffffff169060200190929190505050610823565b005b3480156102b757600080fd5b506102c0610ac5565b604051808215151515815260200191505060405180910390f35b3480156102e657600080fd5b506102ef610ad8565b604051808273ffffffffffffffffffffffffffffffffffffffff1673ffffffffffffffffffffffffffffffffffffffff16815260200191505060405180910390f35b34801561033d57600080fd5b50610372600480360381019080803573ffffffffffffffffffffffffffffffffffffffff169060200190929190505050610afd565b6040518082815260200191505060405180910390f35b34801561039457600080fd5b5061039d610b15565b6040518082815260200191505060405180910390f35b3480156103bf57600080fd5b506103f4600480360381019080803573ffffffffffffffffffffffffffffffffffffffff169060200190929190505050610b1b565b005b34801561040257600080fd5b50610437600480360381019080803573ffffffffffffffffffffffffffffffffffffffff169060200190929190505050610c70565b604051808215151515815260200191505060405180910390f35b60045481565b60025481565b60006104b9600660008473ffffffffffffffffffffffffffffffffffffffff1673ffffffffffffffffffffffffffffffffffffffff168152602001908152602001600020546104ab846105f9565b610c9090919063ffffffff16565b9050919050565b60006104cb8261045d565b90506000811115156104dc57600080fd5b61052e81600660008573ffffffffffffffffffffffffffffffffffffffff1673ffffffffffffffffffffffffffffffffffffffff16815260200190815260200160002054610ca990919063ffffffff16565b600660008473ffffffffffffffffffffffffffffffffffffffff1673ffffffffffffffffffffffffffffffffffffffff168152602001908152602001600020819055506105be600160009054906101000a900473ffffffffffffffffffffffffffffffffffffffff16828473ffffffffffffffffffffffffffffffffffffffff16610cc79092919063ffffffff16565b7ffb81f9b30d73d830c3544b34d827c08142579ee75710b490bab0b3995468c565816040518082815260200191505060405180910390a15050565b60008060008373ffffffffffffffffffffffffffffffffffffffff166370a08231306040518263ffffffff167c0100000000000000000000000000000000000000000000000000000000028152600401808273ffffffffffffffffffffffffffffffffffffffff1673ffffffffffffffffffffffffffffffffffffffff168152602001915050602060405180830381600087803b15801561069957600080fd5b505af11580156106ad573d6000803e3d6000fd5b505050506040513d60208110156106c357600080fd5b81019080805190602001909291905050509150610728600660008673ffffffffffffffffffffffffffffffffffffffff1673ffffffffffffffffffffffffffffffffffffffff1681526020019081526020016000205483610ca990919063ffffffff16565b905060025442101561073d57600092506107f6565b610754600454600354610ca990919063ffffffff16565b421015806107ab5750600760008573ffffffffffffffffffffffffffffffffffffffff1673ffffffffffffffffffffffffffffffffffffffff16815260200190815260200160002060009054906101000a900460ff165b156107b8578092506107f6565b6107f36004546107e56107d660035442610c9090919063ffffffff16565b84610db290919063ffffffff16565b610ded90919063ffffffff16565b92505b5050919050565b600160009054906101000a900473ffffffffffffffffffffffffffffffffffffffff1681565b60008060008060009054906101000a900473ffffffffffffffffffffffffffffffffffffffff1673ffffffffffffffffffffffffffffffffffffffff163373ffffffffffffffffffffffffffffffffffffffff1614151561088357600080fd5b600560009054906101000a900460ff16151561089e57600080fd5b600760008573ffffffffffffffffffffffffffffffffffffffff1673ffffffffffffffffffffffffffffffffffffffff16815260200190815260200160002060009054906101000a900460ff161515156108f757600080fd5b8373ffffffffffffffffffffffffffffffffffffffff166370a08231306040518263ffffffff167c0100000000000000000000000000000000000000000000000000000000028152600401808273ffffffffffffffffffffffffffffffffffffffff1673ffffffffffffffffffffffffffffffffffffffff168152602001915050602060405180830381600087803b15801561099257600080fd5b505af11580156109a6573d6000803e3d6000fd5b505050506040513d60208110156109bc57600080fd5b810190808051906020019092919050505092506109d88461045d565b91506109ed8284610c9090919063ffffffff16565b90506001600760008673ffffffffffffffffffffffffffffffffffffffff1673ffffffffffffffffffffffffffffffffffffffff16815260200190815260200160002060006101000a81548160ff021916908315150217905550610a936000809054906101000a900473ffffffffffffffffffffffffffffffffffffffff16828673ffffffffffffffffffffffffffffffffffffffff16610cc79092919063ffffffff16565b7f44825a4b2df8acb19ce4e1afba9aa850c8b65cdb7942e2078f27d0b0960efee660405160405180910390a150505050565b600560009054906101000a900460ff1681565b6000809054906101000a900473ffffffffffffffffffffffffffffffffffffffff1681565b60066020528060005260406000206000915090505481565b60035481565b6000809054906101000a900473ffffffffffffffffffffffffffffffffffffffff1673ffffffffffffffffffffffffffffffffffffffff163373ffffffffffffffffffffffffffffffffffffffff16141515610b7657600080fd5b600073ffffffffffffffffffffffffffffffffffffffff168173ffffffffffffffffffffffffffffffffffffffff1614151515610bb257600080fd5b8073ffffffffffffffffffffffffffffffffffffffff166000809054906101000a900473ffffffffffffffffffffffffffffffffffffffff1673ffffffffffffffffffffffffffffffffffffffff167f8be0079c531659141344cd1fd0a4f28419497f9722a3daafe3b4186f6b6457e060405160405180910390a3806000806101000a81548173ffffffffffffffffffffffffffffffffffffffff021916908373ffffffffffffffffffffffffffffffffffffffff16021790555050565b60076020528060005260406000206000915054906101000a900460ff1681565b6000828211151515610c9e57fe5b818303905092915050565b6000808284019050838110151515610cbd57fe5b8091505092915050565b8273ffffffffffffffffffffffffffffffffffffffff1663a9059cbb83836040518363ffffffff167c0100000000000000000000000000000000000000000000000000000000028152600401808373ffffffffffffffffffffffffffffffffffffffff1673ffffffffffffffffffffffffffffffffffffffff16815260200182815260200192505050602060405180830381600087803b158015610d6a57600080fd5b505af1158015610d7e573d6000803e3d6000fd5b505050506040513d6020811015610d9457600080fd5b81019080805190602001909291905050501515610dad57fe5b505050565b6000806000841415610dc75760009150610de6565b8284029050828482811515610dd857fe5b04141515610de257fe5b8091505b5092915050565b6000808284811515610dfb57fe5b04905080915050929150505600a165627a7a72305820189b37e4963e54ee24419a9459362a58beaa5b4c2e87cb78e27a347608bd9b630029a165627a7a7230582001e85adae3a0b8637b81515631ce7e9dd7b51a3a5b6a35ca6d956b0aed5f0cff0029",
  "source": "pragma solidity ^0.4.13;\n\nimport 'zeppelin-solidity/contracts/ownership/Ownable.sol';\nimport 'zeppelin-solidity/contracts/math/SafeMath.sol';\nimport \"./PropsToken.sol\";\nimport \"./TokenVesting.sol\";\n\n\n/**\n * @title Coordinator for the Token distribution\n * Simple wrapper, allowing us simplify the coordination of the ICO\n * using a MultiSigWallet\n *\n */\n\ncontract TokenDistributionCoordinator is Ownable {\n    using SafeMath for uint256;\n\n    /* Token to manage */\n    PropsToken public token;\n\n    /* Making sure that preallocation for employees is happening once */\n    bool public isPreallocationForEmployeesDone = false;\n\n    /* Making sure that preallocation for foundation is happening once */\n    bool public isPreallocationForFoundationDone = false;\n\n    /* Making sure that we're injecting the token once */\n    bool public isTokenInjected = false;\n\n    /* Making sure that we're injecting the crowdsale once */\n    bool public isCrowdsaleInjected = false;\n\n    /* Is Preallocation Open */\n    bool public isPreallocationOpen = true;\n\n    uint public constant shareForEmployees = 26;\n\n    uint public constant shareForFoundation = 50;\n\n    /* Events */\n    event CompanyAllocation(address beneficiary, uint amount);\n    event FoundationAllocation(address beneficiary, uint amount);\n    event PoolAllocation(address beneficiary, uint amount);\n    event SAFTAllocation(address beneficiary, uint amount, address vestingContract);\n    event AdvisorAllocation(address beneficiary, uint amount, address vestingContract);\n\n    /**\n     * @dev Injecting an externally created token into the coordinator.\n     */\n    function injectToken(address _tokenAddress) public onlyOwner {\n        require(_tokenAddress != 0x0);\n        require(isTokenInjected == false);\n        token = PropsToken(_tokenAddress);\n        require(PropsToken(token).owner() == address(this));\n\n        token.pause();\n        isTokenInjected = true;\n    }\n\n    /**\n     * @dev Pre-allocating tokens for the employees before the crowdsale starts.\n     * Require token injection\n     * Tax optimization.\n     */\n    function preallocateForEmployees(address poolAddress) public onlyOwner {\n        require(isTokenInjected);\n        require(isPreallocationForEmployeesDone == false);\n        uint tokensAmount = token.amountOfTokenToMint().mul(shareForEmployees).div(100);\n        token.mint(poolAddress, tokensAmount);\n        PoolAllocation(poolAddress, tokensAmount);\n        isPreallocationForEmployeesDone = true;\n    }\n\n    /**\n     * @dev Pre-allocating tokens for the foundation before the crowdsale starts.\n     * Require token injection\n     * Tax optimization.\n     */\n    function preallocateForFoundation(address poolAddress) public onlyOwner {\n        require(isTokenInjected);\n        require(isPreallocationForFoundationDone == false);\n        uint tokensAmount = token.amountOfTokenToMint().mul(shareForFoundation).div(100);\n        token.mint(poolAddress, tokensAmount);\n        PoolAllocation(poolAddress, tokensAmount);\n        isPreallocationForFoundationDone = true;\n    }\n\n    /**\n     * @dev Pre-allocating tokens\n     */\n    function allocateTokens(address _investor, uint _tokensVolume, uint64 _vestingDuration, uint64 _vestingCliff, uint64 _percentageToVest) internal returns (address) {\n        require(isPreallocationOpen);\n        require(_investor != 0x0);\n\n        address vestingContract = 0x0;\n\n        uint256 tokensToVest = _tokensVolume.mul(_percentageToVest).div(100);\n        uint256 tokensToGrant = _tokensVolume.sub(tokensToVest);\n\n        if (tokensToGrant > 0) {\n            token.mint(_investor, tokensToGrant);\n        }\n        if (tokensToVest > 0) {\n          uint256 vestingStart = now;\n          uint256 vestingCliff = _vestingCliff * 1 days;\n          uint256 vestingDuration = _vestingDuration * 1 days;\n          vestingContract = address(new TokenVesting(\n              _investor,\n              vestingStart,\n              vestingCliff,\n              vestingDuration,\n              false\n          ));\n          token.mint(vestingContract, tokensToVest);\n        }\n\n        return vestingContract;\n    }\n\n    /**\n     * @dev Pre-allocating tokens to Company.\n     */\n    function allocateTokensToCompany(address _investor, uint _tokensVolume, uint64 _vestingDuration, uint64 _vestingCliff, uint64 _percentageToVest) public onlyOwner {\n        allocateTokens(_investor, _tokensVolume, _vestingDuration, _vestingCliff, _percentageToVest);\n        CompanyAllocation(_investor, _tokensVolume);\n    }\n\n    /**\n     * @dev Pre-allocating tokens to Foundation.\n     */\n    function allocateTokensToFoundation(address _investor, uint _tokensVolume, uint64 _vestingDuration, uint64 _vestingCliff, uint64 _percentageToVest) public onlyOwner {\n        allocateTokens(_investor, _tokensVolume, _vestingDuration, _vestingCliff, _percentageToVest);\n        FoundationAllocation(_investor, _tokensVolume);\n    }\n\n    /**\n     * @dev Pre-allocating tokens to SAFT Investor.\n     */\n    function allocateTokensToSAFTInvestor(address _investor, uint _tokensVolume, uint64 _vestingDuration, uint64 _vestingCliff, uint64 _percentageToVest) public onlyOwner {\n        address vestingContract = allocateTokens(_investor, _tokensVolume, _vestingDuration, _vestingCliff, _percentageToVest);\n        SAFTAllocation(_investor, _tokensVolume, vestingContract);\n    }\n\n    /**\n     * @dev Pre-allocating tokens to Advisor.\n     */\n    function allocateTokensToAdvisor(address _investor, uint _tokensVolume, uint64 _vestingDuration, uint64 _vestingCliff, uint64 _percentageToVest) public onlyOwner {\n        address vestingContract = allocateTokens(_investor, _tokensVolume, _vestingDuration, _vestingCliff, _percentageToVest);\n        AdvisorAllocation(_investor, _tokensVolume, vestingContract);\n    }\n\n    /**\n     * @dev Enabling / Disabling transfers of non whitelisted users\n     */\n    function setWhitelistedOnly(bool _isWhitelistOnly) onlyOwner public {\n        token.setWhitelistedOnly(_isWhitelistOnly);\n    }\n\n    /**\n     * @dev Adding a user to the whitelist\n     */\n    function whitelistUserForTransfers(address _user) onlyOwner public {\n        token.whitelistUserForTransfers(_user);\n    }\n\n    /**\n     * @dev Remove a user from the whitelist\n     */\n    function blacklistUserForTransfers(address _user) onlyOwner public {\n        token.blacklistUserForTransfers(_user);\n    }\n\n    function unpauseToken() public onlyOwner {\n        token.unpause();\n    }\n\n    function pauseToken() public onlyOwner {\n        token.pause();\n    }\n\n    function closeMinting() public onlyOwner {\n        token.finishMinting();\n    }\n\n    function releaseToken() public onlyOwner {\n        token.unpause();\n        token.transferOwnership(0x000000000000000000000000000000000000dead);\n    }\n}\n",
  "sourcePath": "/Users/kc1116/Desktop/PROPS-dev/props-token-distribution/contracts/TokenDistributionCoordinator.sol",
  "compiler": {
    "name": "solc",
    "version": "0.4.24+commit.e67f0147.Emscripten.clang"
  },
  "schemaVersion": "2.0.0",
  "updatedAt": "2018-08-13T20:54:38.644Z"
}