{
  "contractName": "TPLRestrictedReceiverToken",
  "abi": [
    {
      "constant": false,
      "inputs": [
        {
          "name": "spender",
          "type": "address"
        },
        {
          "name": "value",
          "type": "uint256"
        }
      ],
      "name": "approve",
      "outputs": [
        {
          "name": "",
          "type": "bool"
        }
      ],
      "payable": false,
      "stateMutability": "nonpayable",
      "type": "function"
    },
    {
      "constant": true,
      "inputs": [],
      "name": "totalSupply",
      "outputs": [
        {
          "name": "",
          "type": "uint256"
        }
      ],
      "payable": false,
      "stateMutability": "view",
      "type": "function"
    },
    {
      "constant": false,
      "inputs": [
        {
          "name": "spender",
          "type": "address"
        },
        {
          "name": "addedValue",
          "type": "uint256"
        }
      ],
      "name": "increaseAllowance",
      "outputs": [
        {
          "name": "",
          "type": "bool"
        }
      ],
      "payable": false,
      "stateMutability": "nonpayable",
      "type": "function"
    },
    {
      "constant": true,
      "inputs": [
        {
          "name": "owner",
          "type": "address"
        }
      ],
      "name": "balanceOf",
      "outputs": [
        {
          "name": "",
          "type": "uint256"
        }
      ],
      "payable": false,
      "stateMutability": "view",
      "type": "function"
    },
    {
      "constant": false,
      "inputs": [
        {
          "name": "spender",
          "type": "address"
        },
        {
          "name": "subtractedValue",
          "type": "uint256"
        }
      ],
      "name": "decreaseAllowance",
      "outputs": [
        {
          "name": "",
          "type": "bool"
        }
      ],
      "payable": false,
      "stateMutability": "nonpayable",
      "type": "function"
    },
    {
      "constant": true,
      "inputs": [
        {
          "name": "owner",
          "type": "address"
        },
        {
          "name": "spender",
          "type": "address"
        }
      ],
      "name": "allowance",
      "outputs": [
        {
          "name": "",
          "type": "uint256"
        }
      ],
      "payable": false,
      "stateMutability": "view",
      "type": "function"
    },
    {
      "anonymous": false,
      "inputs": [
        {
          "indexed": true,
          "name": "from",
          "type": "address"
        },
        {
          "indexed": true,
          "name": "to",
          "type": "address"
        },
        {
          "indexed": false,
          "name": "value",
          "type": "uint256"
        }
      ],
      "name": "Transfer",
      "type": "event"
    },
    {
      "anonymous": false,
      "inputs": [
        {
          "indexed": true,
          "name": "owner",
          "type": "address"
        },
        {
          "indexed": true,
          "name": "spender",
          "type": "address"
        },
        {
          "indexed": false,
          "name": "value",
          "type": "uint256"
        }
      ],
      "name": "Approval",
      "type": "event"
    },
    {
      "constant": true,
      "inputs": [
        {
          "name": "receiver",
          "type": "address"
        }
      ],
      "name": "canReceive",
      "outputs": [
        {
          "name": "",
          "type": "bool"
        }
      ],
      "payable": false,
      "stateMutability": "view",
      "type": "function"
    },
    {
      "constant": true,
      "inputs": [],
      "name": "getRegistry",
      "outputs": [
        {
          "name": "",
          "type": "address"
        }
      ],
      "payable": false,
      "stateMutability": "view",
      "type": "function"
    },
    {
      "constant": true,
      "inputs": [],
      "name": "getValidAttributeID",
      "outputs": [
        {
          "name": "",
          "type": "uint256"
        }
      ],
      "payable": false,
      "stateMutability": "view",
      "type": "function"
    },
    {
      "constant": false,
      "inputs": [
        {
          "name": "registry",
          "type": "address"
        },
        {
          "name": "validAttributeTypeID",
          "type": "uint256"
        }
      ],
      "name": "initialize",
      "outputs": [],
      "payable": false,
      "stateMutability": "nonpayable",
      "type": "function"
    },
    {
      "constant": false,
      "inputs": [
        {
          "name": "to",
          "type": "address"
        },
        {
          "name": "value",
          "type": "uint256"
        }
      ],
      "name": "transfer",
      "outputs": [
        {
          "name": "",
          "type": "bool"
        }
      ],
      "payable": false,
      "stateMutability": "nonpayable",
      "type": "function"
    },
    {
      "constant": false,
      "inputs": [
        {
          "name": "from",
          "type": "address"
        },
        {
          "name": "to",
          "type": "address"
        },
        {
          "name": "value",
          "type": "uint256"
        }
      ],
      "name": "transferFrom",
      "outputs": [
        {
          "name": "",
          "type": "bool"
        }
      ],
      "payable": false,
      "stateMutability": "nonpayable",
      "type": "function"
    }
  ],
  "bytecode": "0x608060405234801561001057600080fd5b50610ab7806100206000396000f3006080604052600436106100b95763ffffffff7c0100000000000000000000000000000000000000000000000000000000600035041663095ea7b381146100be57806318160ddd146100f657806323b872dd1461011d57806339509351146101475780635ab1bd531461016b57806370a082311461019c57806390d370ba146101bd578063a457c2d7146101de578063a9059cbb14610202578063cd6dc68714610226578063dd62ed3e1461024c578063eac5a01c14610273575b600080fd5b3480156100ca57600080fd5b506100e2600160a060020a0360043516602435610288565b604080519115158252519081900360200190f35b34801561010257600080fd5b5061010b610306565b60408051918252519081900360200190f35b34801561012957600080fd5b506100e2600160a060020a036004358116906024351660443561030c565b34801561015357600080fd5b506100e2600160a060020a0360043516602435610454565b34801561017757600080fd5b50610180610504565b60408051600160a060020a039092168252519081900360200190f35b3480156101a857600080fd5b5061010b600160a060020a0360043516610513565b3480156101c957600080fd5b506100e2600160a060020a036004351661052e565b3480156101ea57600080fd5b506100e2600160a060020a03600435166024356105d6565b34801561020e57600080fd5b506100e2600160a060020a0360043516602435610621565b34801561023257600080fd5b5061024a600160a060020a0360043516602435610767565b005b34801561025857600080fd5b5061010b600160a060020a0360043581169060243516610884565b34801561027f57600080fd5b5061010b6108af565b6000600160a060020a038316151561029f57600080fd5b336000818152603460209081526040808320600160a060020a03881680855290835292819020869055805186815290519293927f8c5be1e5ebec7d5bd14f71427d1e84f3dd0314c0f7b2291e5b200ac8c7c3b925929181900390910190a350600192915050565b60355490565b606854606954604080517f4b5f297a000000000000000000000000000000000000000000000000000000008152600160a060020a038681166004830152602482019390935290516000939290921691634b5f297a9160448082019260209290919082900301818787803b15801561038257600080fd5b505af1158015610396573d6000803e3d6000fd5b505050506040513d60208110156103ac57600080fd5b5051151561044157604080517f08c379a000000000000000000000000000000000000000000000000000000000815260206004820152602b60248201527f5472616e73666572206661696c6564202d207265636569766572206973206e6f60448201527f7420617070726f7665642e000000000000000000000000000000000000000000606482015290519081900360840190fd5b61044c8484846108b5565b949350505050565b6000600160a060020a038316151561046b57600080fd5b336000908152603460209081526040808320600160a060020a038716845290915290205461049f908363ffffffff61095216565b336000818152603460209081526040808320600160a060020a0389168085529083529281902085905580519485525191937f8c5be1e5ebec7d5bd14f71427d1e84f3dd0314c0f7b2291e5b200ac8c7c3b925929081900390910190a350600192915050565b606854600160a060020a031690565b600160a060020a031660009081526033602052604090205490565b606854606954604080517f4b5f297a000000000000000000000000000000000000000000000000000000008152600160a060020a038581166004830152602482019390935290516000939290921691634b5f297a9160448082019260209290919082900301818787803b1580156105a457600080fd5b505af11580156105b8573d6000803e3d6000fd5b505050506040513d60208110156105ce57600080fd5b505192915050565b6000600160a060020a03831615156105ed57600080fd5b336000908152603460209081526040808320600160a060020a038716845290915290205461049f908363ffffffff61096416565b606854606954604080517f4b5f297a000000000000000000000000000000000000000000000000000000008152600160a060020a038681166004830152602482019390935290516000939290921691634b5f297a9160448082019260209290919082900301818787803b15801561069757600080fd5b505af11580156106ab573d6000803e3d6000fd5b505050506040513d60208110156106c157600080fd5b5051151561075657604080517f08c379a000000000000000000000000000000000000000000000000000000000815260206004820152602b60248201527f5472616e73666572206661696c6564202d207265636569766572206973206e6f60448201527f7420617070726f7665642e000000000000000000000000000000000000000000606482015290519081900360840190fd5b610760838361097b565b9392505050565b60008054610100900460ff16806107815750610781610991565b8061078f575060005460ff16155b151561082257604080517f08c379a000000000000000000000000000000000000000000000000000000000815260206004820152602e60248201527f436f6e747261637420696e7374616e63652068617320616c726561647920626560448201527f656e20696e697469616c697a6564000000000000000000000000000000000000606482015290519081900360840190fd5b50600080546068805473ffffffffffffffffffffffffffffffffffffffff1916600160a060020a03959095169490941790935560699190915561ff001980831661010090811760ff19166001179091169281900460ff16151502919091179055565b600160a060020a03918216600090815260346020908152604080832093909416825291909152205490565b60695490565b600160a060020a03831660009081526034602090815260408083203384529091528120548211156108e557600080fd5b600160a060020a0384166000908152603460209081526040808320338452909152902054610919908363ffffffff61096416565b600160a060020a0385166000908152603460209081526040808320338452909152902055610948848484610997565b5060019392505050565b60008282018381101561076057600080fd5b6000808383111561097457600080fd5b5050900390565b6000610988338484610997565b50600192915050565b303b1590565b600160a060020a0383166000908152603360205260409020548111156109bc57600080fd5b600160a060020a03821615156109d157600080fd5b600160a060020a0383166000908152603360205260409020546109fa908263ffffffff61096416565b600160a060020a038085166000908152603360205260408082209390935590841681522054610a2f908263ffffffff61095216565b600160a060020a0380841660008181526033602090815260409182902094909455805185815290519193928716927fddf252ad1be2c89b69c2b068fc378daa952ba7f163c4a11628f55a4df523b3ef92918290030190a35050505600a165627a7a7230582026d3c5dd487768c521750895fc602fdd077e7b26026576bc679c4ec18bd51eb60029",
  "source": "pragma solidity ^0.4.24;\n\nimport \"openzeppelin-eth/contracts/token/ERC20/ERC20.sol\";\nimport \"tpl-contracts-eth/contracts/token/TPLRestrictedReceiverTokenInterface.sol\";\nimport \"tpl-contracts-eth/contracts/AttributeRegistryInterface.sol\";\n\n\n/**\n * @title Permissioned ERC20 token: transfers are restricted to valid receivers.\n */\ncontract TPLRestrictedReceiverToken is Initializable, ERC20, TPLRestrictedReceiverTokenInterface {\n\n  // declare registry interface, used to request attributes from a jurisdiction\n  AttributeRegistryInterface private _registry;\n\n  // declare attribute ID required in order to receive transferred tokens\n  uint256 private _validAttributeTypeID;\n\n  /**\n   * @notice Check if an account is approved to receive token transfers at\n   * account `receiver`.\n   * @param receiver address The account of the recipient.\n   * @return True if the receiver is valid, false otherwise.\n   */\n  function canReceive(address receiver) external view returns (bool) {\n    return _registry.hasAttribute(receiver, _validAttributeTypeID);\n  }\n\n  /**\n   * @notice Get the account of the utilized attribute registry.\n   * @return The account of the registry.\n   */\n  function getRegistry() external view returns (address) {\n    return address(_registry);\n  }\n\n  /**\n   * @notice Get the ID of the attribute type required to receive tokens.\n   * @return The ID of the required attribute type.\n   */\n  function getValidAttributeID() external view returns (uint256) {\n    return _validAttributeTypeID;\n  }\n\n  /**\n  * @notice The initializer function, with an associated attribute registry at\n  * `registry` and an assignable attribute type with ID `validAttributeTypeID`.\n  * @param registry address The account of the associated attribute registry.  \n  * @param validAttributeTypeID uint256 The ID of the required attribute type.\n  * @dev Note that it may be appropriate to require that the referenced\n  * attribute registry supports the correct interface via EIP-165.\n  */\n  function initialize(\n    AttributeRegistryInterface registry,\n    uint256 validAttributeTypeID\n  )\n    public\n    initializer\n  {\n    _registry = AttributeRegistryInterface(registry);\n    _validAttributeTypeID = validAttributeTypeID;\n  }\n\n  /**\n   * @notice Transfer an amount of `value` to a receiver at account `to`.\n   * @param to address The account of the receiver.\n   * @param value uint256 the amount to be transferred.\n   * @return True if the transfer was successful.\n   */\n  function transfer(address to, uint256 value) public returns (bool) {\n    require(\n      _registry.hasAttribute(to, _validAttributeTypeID),\n      \"Transfer failed - receiver is not approved.\"\n    );\n    return super.transfer(to, value);\n  }\n\n  /**\n   * @notice Transfer an amount of `value` to a receiver at account `to` on\n   * behalf of a sender at account `from`.\n   * @param to address The account of the receiver.\n   * @param from address The account of the sender.\n   * @param value uint256 the amount to be transferred.\n   * @return True if the transfer was successful.\n   */\n  function transferFrom(\n    address from,\n    address to,\n    uint256 value\n  ) public returns (bool) {\n    require(\n      _registry.hasAttribute(to, _validAttributeTypeID),\n      \"Transfer failed - receiver is not approved.\"\n    );\n    return super.transferFrom(from, to, value);\n  }\n}\n",
  "sourcePath": "tpl-contracts-eth/contracts/token/TPLRestrictedReceiverToken.sol",
  "compiler": {
    "name": "solc",
    "version": "0.4.24+commit.e67f0147.Emscripten.clang"
  },
  "schemaVersion": "2.0.1",
  "updatedAt": "2019-01-24T08:21:27.639Z"
}